{
	"data": {
		"bytecode": {
			"linkReferences": {},
			"object": "60806040523480156200001157600080fd5b5073609b8ced16a83cff90a3d3b3cbe7894931e7c382600360006101000a81548173ffffffffffffffffffffffffffffffffffffffff021916908373ffffffffffffffffffffffffffffffffffffffff160217905550620000876200007b6200008d60201b60201c565b6200009560201b60201c565b6200015b565b600033905090565b6000600560009054906101000a900473ffffffffffffffffffffffffffffffffffffffff16905081600560006101000a81548173ffffffffffffffffffffffffffffffffffffffff021916908373ffffffffffffffffffffffffffffffffffffffff1602179055508173ffffffffffffffffffffffffffffffffffffffff168173ffffffffffffffffffffffffffffffffffffffff167f8be0079c531659141344cd1fd0a4f28419497f9722a3daafe3b4186f6b6457e060405160405180910390a35050565b615e4b806200016b6000396000f3fe60806040523480156200001157600080fd5b50600436106200013c5760003560e01c80635af8d21c11620000bd578063bf81bf43116200007b578063bf81bf4314620003f7578063d0e5d955146200042d578063d6a9de51146200044f578063f2fde38b1462000485578063fc0c546a14620004a5576200013c565b80635af8d21c14620003275780635bf608b8146200035d578063715018a614620003935780638a614dd5146200039f5780638da5cb5b14620003d5576200013c565b80632e1a7d4d116200010b5780632e1a7d4d1462000219578063379607f5146200024f57806340e58ee514620002855780634364b26e14620002bb57806344a9d24414620002f1576200013c565b80630935847914620001415780630aebeb4e14620001775780632926ea2a14620001ad5780632bd4978014620001e3575b600080fd5b6200015f60048036038101906200015991906200309b565b620004c7565b6040516200016e9190620030f3565b60405180910390f35b6200019560048036038101906200018f919062003110565b6200064b565b604051620001a491906200315f565b60405180910390f35b620001cb6004803603810190620001c5919062003110565b62000723565b604051620001da91906200315f565b60405180910390f35b620002016004803603810190620001fb91906200309b565b62000787565b604051620002109190620030f3565b60405180910390f35b62000237600480360381019062000231919062003110565b620007b0565b6040516200024691906200315f565b60405180910390f35b6200026d600480360381019062000267919062003110565b62000874565b6040516200027c91906200315f565b60405180910390f35b620002a360048036038101906200029d919062003110565b62000a14565b604051620002b291906200315f565b60405180910390f35b620002d96004803603810190620002d3919062003110565b62000b2d565b604051620002e891906200315f565b60405180910390f35b6200030f600480360381019062000309919062003110565b62000c04565b6040516200031e9190620030f3565b60405180910390f35b6200034560048036038101906200033f919062003110565b62000c1c565b60405162000354919062003207565b60405180910390f35b6200037b600480360381019062000375919062003110565b62000c59565b6040516200038a919062003249565b60405180910390f35b6200039d62000d07565b005b620003bd6004803603810190620003b79190620032d8565b62000d1f565b604051620003cc9190620030f3565b60405180910390f35b620003df62000db3565b604051620003ee919062003249565b60405180910390f35b6200041560048036038101906200040f919062003110565b62000ddd565b6040516200042491906200315f565b60405180910390f35b6200043762000e38565b604051620004469190620033d0565b60405180910390f35b6200046d600480360381019062000467919062003110565b62000e5e565b6040516200047c919062003249565b60405180910390f35b620004a360048036038101906200049d91906200341e565b62000f0c565b005b620004af62000f97565b604051620004be919062003475565b60405180910390f35b6000620004d48262000c59565b73ffffffffffffffffffffffffffffffffffffffff163373ffffffffffffffffffffffffffffffffffffffff1614158015620005465750620005168262000e5e565b73ffffffffffffffffffffffffffffffffffffffff163373ffffffffffffffffffffffffffffffffffffffff1614155b62000588576040517f08c379a00000000000000000000000000000000000000000000000000000000081526004016200057f90620034f3565b60405180910390fd5b60008073ffffffffffffffffffffffffffffffffffffffff16620005ac8462000e5e565b73ffffffffffffffffffffffffffffffffffffffff161490506000620005d482868662000fbd565b9050620005e3848315620012b7565b50620005ef84620015a6565b503373ffffffffffffffffffffffffffffffffffffffff167f68e07974e86f9190b39c5e1783e6ba66b3d0d7ccf507de51450f14e594d1686882604051620006389190620030f3565b60405180910390a2809250505092915050565b600081620006598162000c59565b73ffffffffffffffffffffffffffffffffffffffff163373ffffffffffffffffffffffffffffffffffffffff1614620006c9576040517f08c379a0000000000000000000000000000000000000000000000000000000008152600401620006c09062003565565b60405180910390fd5b620006d48362001886565b620006df8362001a2c565b507fbf67515a38ee520223d32c1266d52101c30d936ed1f3e436c8caeb0a43cb06bf83604051620007119190620030f3565b60405180910390a16001915050919050565b60006200072f62001c2a565b6200073a8262001caf565b620007458262001f87565b7f73fe46267e05ae56a3625c045df1b74c1b1736a7535eeadef3c57551bfd0059982604051620007769190620030f3565b60405180910390a160019050919050565b60046020528160005260406000208160028110620007a457600080fd5b01600091509150505481565b6000620007bc62001c2a565b600360009054906101000a900473ffffffffffffffffffffffffffffffffffffffff1673ffffffffffffffffffffffffffffffffffffffff1663a9059cbb6200080462000db3565b846040518363ffffffff1660e01b81526004016200082492919062003587565b6020604051808303816000875af115801562000844573d6000803e3d6000fd5b505050506040513d601f19601f820116820180604052508101906200086a9190620035cb565b5060019050919050565b600081620008828162000c59565b73ffffffffffffffffffffffffffffffffffffffff163373ffffffffffffffffffffffffffffffffffffffff1614620008f2576040517f08c379a0000000000000000000000000000000000000000000000000000000008152600401620008e99062003565565b60405180910390fd5b6000620008ff8462000c1c565b73ffffffffffffffffffffffffffffffffffffffff1663f26cc58e6040518163ffffffff1660e01b8152600401602060405180830381865afa1580156200094a573d6000803e3d6000fd5b505050506040513d601f19601f8201168201806040525081019062000970919062003614565b1415620009b4576040517f08c379a0000000000000000000000000000000000000000000000000000000008152600401620009ab90620036bc565b60405180910390fd5b620009bf8362002214565b6000620009cc84620023ba565b90507f022e3d29644ead4083349ca84d24bcac368b2461819b70f5921fea15de4dec4d848260405162000a01929190620036de565b60405180910390a1600192505050919050565b60008162000a228162000c59565b73ffffffffffffffffffffffffffffffffffffffff163373ffffffffffffffffffffffffffffffffffffffff16148062000a91575062000a628162000e5e565b73ffffffffffffffffffffffffffffffffffffffff163373ffffffffffffffffffffffffffffffffffffffff16145b62000ad3576040517f08c379a000000000000000000000000000000000000000000000000000000000815260040162000aca9062003781565b60405180910390fd5b62000ade8362002672565b62000ae98362001a2c565b507f8bf30e7ff26833413be5f69e1d373744864d600b664204b4a2f9844a8eedb9ed8360405162000b1b9190620030f3565b60405180910390a16001915050919050565b60008162000b3b8162000c59565b73ffffffffffffffffffffffffffffffffffffffff163373ffffffffffffffffffffffffffffffffffffffff161462000bab576040517f08c379a000000000000000000000000000000000000000000000000000000000815260040162000ba29062003565565b60405180910390fd5b62000bb68362001caf565b62000bc18362002818565b7f73fe46267e05ae56a3625c045df1b74c1b1736a7535eeadef3c57551bfd005998360405162000bf29190620030f3565b60405180910390a16001915050919050565b60026020528060005260406000206000915090505481565b60006001600083815260200190815260200160002060009054906101000a900473ffffffffffffffffffffffffffffffffffffffff169050919050565b60006001600083815260200190815260200160002060009054906101000a900473ffffffffffffffffffffffffffffffffffffffff1673ffffffffffffffffffffffffffffffffffffffff1663603daf9a6040518163ffffffff1660e01b8152600401602060405180830381865afa15801562000cda573d6000803e3d6000fd5b505050506040513d601f19601f8201168201806040525081019062000d009190620037ba565b9050919050565b62000d1162001c2a565b62000d1d600062002a2e565b565b60008062000d348a8a8a8a8a8a8a8a62002af4565b905062000d42818b620012b7565b503373ffffffffffffffffffffffffffffffffffffffff167f9eab9cfac223c6527657a8d86c920796a5ab5038bc0f4497038958ac33fa8f838b838662000d898662000c1c565b60405162000d9b9493929190620037fd565b60405180910390a28091505098975050505050505050565b6000600560009054906101000a900473ffffffffffffffffffffffffffffffffffffffff16905090565b600062000dea8262002c2f565b62000df58262001a2c565b507fa33fd53ba34795ffefaea3759c71f87d38b89ae12e40bc434c826fae0ca535838260405162000e279190620030f3565b60405180910390a160019050919050565b62000e426200303a565b6000604051806020016040529081600082015481525050905090565b60006001600083815260200190815260200160002060009054906101000a900473ffffffffffffffffffffffffffffffffffffffff1673ffffffffffffffffffffffffffffffffffffffff1663dbd0e1b66040518163ffffffff1660e01b8152600401602060405180830381865afa15801562000edf573d6000803e3d6000fd5b505050506040513d601f19601f8201168201806040525081019062000f059190620037ba565b9050919050565b62000f1662001c2a565b600073ffffffffffffffffffffffffffffffffffffffff168173ffffffffffffffffffffffffffffffffffffffff16141562000f89576040517f08c379a000000000000000000000000000000000000000000000000000000000815260040162000f8090620038c0565b60405180910390fd5b62000f948162002a2e565b50565b600360009054906101000a900473ffffffffffffffffffffffffffffffffffffffff1681565b6000816001600481111562000fd75762000fd6620038e2565b5b6001600083815260200190815260200160002060009054906101000a900473ffffffffffffffffffffffffffffffffffffffff1673ffffffffffffffffffffffffffffffffffffffff1663200d2ed26040518163ffffffff1660e01b8152600401602060405180830381865afa15801562001056573d6000803e3d6000fd5b505050506040513d601f19601f820116820180604052508101906200107c919062003939565b6004811115620010915762001090620038e2565b5b14620010d4576040517f08c379a0000000000000000000000000000000000000000000000000000000008152600401620010cb90620039e1565b60405180910390fd5b60006001600085815260200190815260200160002060009054906101000a900473ffffffffffffffffffffffffffffffffffffffff1690508073ffffffffffffffffffffffffffffffffffffffff1663bef904e3866040518263ffffffff1660e01b8152600401620011479190620030f3565b6020604051808303816000875af115801562001167573d6000803e3d6000fd5b505050506040513d601f19601f820116820180604052508101906200118d919062003614565b506224ea00426200119f919062003a32565b60026000868152602001908152602001600020819055508073ffffffffffffffffffffffffffffffffffffffff1663bab215f83388156040518363ffffffff1660e01b8152600401620011f492919062003a8f565b600060405180830381600087803b1580156200120f57600080fd5b505af115801562001224573d6000803e3d6000fd5b505050508073ffffffffffffffffffffffffffffffffffffffff16632e49d78b60026040518263ffffffff1660e01b815260040162001264919062003b0d565b6020604051808303816000875af115801562001284573d6000803e3d6000fd5b505050506040513d601f19601f82011682018060405250810190620012aa919062003939565b5083925050509392505050565b60008082156200143b57620013526004620012d28662000c1c565b73ffffffffffffffffffffffffffffffffffffffff1663e0a73a936040518163ffffffff1660e01b8152600401602060405180830381865afa1580156200131d573d6000803e3d6000fd5b505050506040513d601f19601f8201168201806040525081019062001343919062003614565b62002fa190919063ffffffff16565b9050600360009054906101000a900473ffffffffffffffffffffffffffffffffffffffff1673ffffffffffffffffffffffffffffffffffffffff166323b872dd6200139d8662000c59565b30846040518463ffffffff1660e01b8152600401620013bf9392919062003b2a565b6020604051808303816000875af1158015620013df573d6000803e3d6000fd5b505050506040513d601f19601f82011682018060405250810190620014059190620035cb565b50806004600086815260200190815260200160002060006002811062001430576200142f62003b67565b5b01819055506200159b565b620014468462000c1c565b73ffffffffffffffffffffffffffffffffffffffff16634c1786ea6040518163ffffffff1660e01b8152600401602060405180830381865afa15801562001491573d6000803e3d6000fd5b505050506040513d601f19601f82011682018060405250810190620014b7919062003614565b9050600360009054906101000a900473ffffffffffffffffffffffffffffffffffffffff1673ffffffffffffffffffffffffffffffffffffffff166323b872dd620015028662000e5e565b30846040518463ffffffff1660e01b8152600401620015249392919062003b2a565b6020604051808303816000875af115801562001544573d6000803e3d6000fd5b505050506040513d601f19601f820116820180604052508101906200156a9190620035cb565b50806004600086815260200190815260200160002060016002811062001595576200159462003b67565b5b01819055505b600191505092915050565b600080620015b48362000c1c565b73ffffffffffffffffffffffffffffffffffffffff1663e0a73a936040518163ffffffff1660e01b8152600401602060405180830381865afa158015620015ff573d6000803e3d6000fd5b505050506040513d601f19601f8201168201806040525081019062001625919062003614565b90506000600360009054906101000a900473ffffffffffffffffffffffffffffffffffffffff1673ffffffffffffffffffffffffffffffffffffffff1663a9059cbb620016728662000e5e565b846040518363ffffffff1660e01b81526004016200169292919062003587565b6020604051808303816000875af1158015620016b2573d6000803e3d6000fd5b505050506040513d601f19601f82011682018060405250810190620016d89190620035cb565b9050806200171d576040517f08c379a0000000000000000000000000000000000000000000000000000000008152600401620017149062003be6565b60405180910390fd5b816004600086815260200190815260200160002060006002811062001747576200174662003b67565b5b01600082825462001759919062003c08565b9250508190555060006200176d8562000c1c565b73ffffffffffffffffffffffffffffffffffffffff1663a2e800ad6040518163ffffffff1660e01b8152600401602060405180830381865afa158015620017b8573d6000803e3d6000fd5b505050506040513d601f19601f82011682018060405250810190620017de919062003c5a565b9050620017eb8562000c1c565b73ffffffffffffffffffffffffffffffffffffffff1663d2895e9360018362001815919062003c8c565b6040518263ffffffff1660e01b815260040162001833919062003cc7565b6020604051808303816000875af115801562001853573d6000803e3d6000fd5b505050506040513d601f19601f8201168201806040525081019062001879919062003c5a565b5060019350505050919050565b80600260048111156200189e576200189d620038e2565b5b6001600083815260200190815260200160002060009054906101000a900473ffffffffffffffffffffffffffffffffffffffff1673ffffffffffffffffffffffffffffffffffffffff1663200d2ed26040518163ffffffff1660e01b8152600401602060405180830381865afa1580156200191d573d6000803e3d6000fd5b505050506040513d601f19601f8201168201806040525081019062001943919062003939565b6004811115620019585762001957620038e2565b5b146200199b576040517f08c379a0000000000000000000000000000000000000000000000000000000008152600401620019929062003d5a565b60405180910390fd5b620019a68262000c1c565b73ffffffffffffffffffffffffffffffffffffffff16632e49d78b60046040518263ffffffff1660e01b8152600401620019e1919062003b0d565b6020604051808303816000875af115801562001a01573d6000803e3d6000fd5b505050506040513d601f19601f8201168201806040525081019062001a27919062003939565b505050565b600080604051806040016040528062001a458562000c59565b73ffffffffffffffffffffffffffffffffffffffff1673ffffffffffffffffffffffffffffffffffffffff16815260200162001a818562000e5e565b73ffffffffffffffffffffffffffffffffffffffff1673ffffffffffffffffffffffffffffffffffffffff16815250905060005b6001811162001c1457600060046000868152602001908152602001600020826002811062001ae85762001ae762003b67565b5b015490506000811462001bfd576000600360009054906101000a900473ffffffffffffffffffffffffffffffffffffffff1673ffffffffffffffffffffffffffffffffffffffff1663a9059cbb85856002811062001b4b5762001b4a62003b67565b5b6020020151846040518363ffffffff1660e01b815260040162001b7092919062003587565b6020604051808303816000875af115801562001b90573d6000803e3d6000fd5b505050506040513d601f19601f8201168201806040525081019062001bb69190620035cb565b90508062001bfb576040517f08c379a000000000000000000000000000000000000000000000000000000000815260040162001bf29062003dcc565b60405180910390fd5b505b50808062001c0b9062003dee565b91505062001ab5565b5062001c208362002fb9565b6001915050919050565b62001c346200300e565b73ffffffffffffffffffffffffffffffffffffffff1662001c5462000db3565b73ffffffffffffffffffffffffffffffffffffffff161462001cad576040517f08c379a000000000000000000000000000000000000000000000000000000000815260040162001ca49062003e8c565b60405180910390fd5b565b806002600481111562001cc75762001cc6620038e2565b5b6001600083815260200190815260200160002060009054906101000a900473ffffffffffffffffffffffffffffffffffffffff1673ffffffffffffffffffffffffffffffffffffffff1663200d2ed26040518163ffffffff1660e01b8152600401602060405180830381865afa15801562001d46573d6000803e3d6000fd5b505050506040513d601f19601f8201168201806040525081019062001d6c919062003939565b600481111562001d815762001d80620038e2565b5b1462001dc4576040517f08c379a000000000000000000000000000000000000000000000000000000000815260040162001dbb9062003d5a565b60405180910390fd5b60006001600084815260200190815260200160002060009054906101000a900473ffffffffffffffffffffffffffffffffffffffff1673ffffffffffffffffffffffffffffffffffffffff1663a2e800ad6040518163ffffffff1660e01b8152600401602060405180830381865afa15801562001e45573d6000803e3d6000fd5b505050506040513d601f19601f8201168201806040525081019062001e6b919062003c5a565b905060008163ffffffff161162001eb9576040517f08c379a000000000000000000000000000000000000000000000000000000000815260040162001eb09062003efe565b60405180910390fd5b6224ea0060026000858152602001908152602001600020600082825462001ee1919062003a32565b9250508190555062001ef38362000c1c565b73ffffffffffffffffffffffffffffffffffffffff1663d2895e9360018362001f1d919062003c8c565b6040518263ffffffff1660e01b815260040162001f3b919062003cc7565b6020604051808303816000875af115801562001f5b573d6000803e3d6000fd5b505050506040513d601f19601f8201168201806040525081019062001f81919062003c5a565b50505050565b6000429050806002600084815260200190815260200160002054111562001fe5576040517f08c379a000000000000000000000000000000000000000000000000000000000815260040162001fdc9062003f96565b60405180910390fd5b600062001ff28362000c1c565b73ffffffffffffffffffffffffffffffffffffffff1663e0a73a936040518163ffffffff1660e01b8152600401602060405180830381865afa1580156200203d573d6000803e3d6000fd5b505050506040513d601f19601f8201168201806040525081019062002063919062003614565b905080600460008581526020019081526020016000206000600281106200208f576200208e62003b67565b5b01541015620020d5576040517f08c379a0000000000000000000000000000000000000000000000000000000008152600401620020cc9062004008565b60405180910390fd5b6000600360009054906101000a900473ffffffffffffffffffffffffffffffffffffffff1673ffffffffffffffffffffffffffffffffffffffff1663a9059cbb620021208662000e5e565b846040518363ffffffff1660e01b81526004016200214092919062003587565b6020604051808303816000875af115801562002160573d6000803e3d6000fd5b505050506040513d601f19601f82011682018060405250810190620021869190620035cb565b905080620021cb576040517f08c379a0000000000000000000000000000000000000000000000000000000008152600401620021c2906200407a565b60405180910390fd5b8160046000868152602001908152602001600020600060028110620021f557620021f462003b67565b5b01600082825462002207919062003c08565b9250508190555050505050565b80600260048111156200222c576200222b620038e2565b5b6001600083815260200190815260200160002060009054906101000a900473ffffffffffffffffffffffffffffffffffffffff1673ffffffffffffffffffffffffffffffffffffffff1663200d2ed26040518163ffffffff1660e01b8152600401602060405180830381865afa158015620022ab573d6000803e3d6000fd5b505050506040513d601f19601f82011682018060405250810190620022d1919062003939565b6004811115620022e657620022e5620038e2565b5b1462002329576040517f08c379a0000000000000000000000000000000000000000000000000000000008152600401620023209062003d5a565b60405180910390fd5b620023348262000c1c565b73ffffffffffffffffffffffffffffffffffffffff16632e49d78b60036040518263ffffffff1660e01b81526004016200236f919062003b0d565b6020604051808303816000875af11580156200238f573d6000803e3d6000fd5b505050506040513d601f19601f82011682018060405250810190620023b5919062003939565b505050565b600080620023c88362000c1c565b73ffffffffffffffffffffffffffffffffffffffff1663f26cc58e6040518163ffffffff1660e01b8152600401602060405180830381865afa15801562002413573d6000803e3d6000fd5b505050506040513d601f19601f8201168201806040525081019062002439919062003614565b90506000600360009054906101000a900473ffffffffffffffffffffffffffffffffffffffff1673ffffffffffffffffffffffffffffffffffffffff1663a9059cbb620024868662000c59565b60046000888152602001908152602001600020600060028110620024af57620024ae62003b67565b5b015485620024be919062003a32565b6040518363ffffffff1660e01b8152600401620024dd92919062003587565b6020604051808303816000875af1158015620024fd573d6000803e3d6000fd5b505050506040513d601f19601f82011682018060405250810190620025239190620035cb565b90506000600360009054906101000a900473ffffffffffffffffffffffffffffffffffffffff1673ffffffffffffffffffffffffffffffffffffffff1663a9059cbb620025708762000e5e565b85600460008a81526020019081526020016000206001600281106200259a576200259962003b67565b5b0154620025a8919062003c08565b6040518363ffffffff1660e01b8152600401620025c792919062003587565b6020604051808303816000875af1158015620025e7573d6000803e3d6000fd5b505050506040513d601f19601f820116820180604052508101906200260d9190620035cb565b90508180156200261a5750805b6200265c576040517f08c379a00000000000000000000000000000000000000000000000000000000081526004016200265390620040ec565b60405180910390fd5b620026678562002fb9565b829350505050919050565b80600160048111156200268a5762002689620038e2565b5b6001600083815260200190815260200160002060009054906101000a900473ffffffffffffffffffffffffffffffffffffffff1673ffffffffffffffffffffffffffffffffffffffff1663200d2ed26040518163ffffffff1660e01b8152600401602060405180830381865afa15801562002709573d6000803e3d6000fd5b505050506040513d601f19601f820116820180604052508101906200272f919062003939565b6004811115620027445762002743620038e2565b5b1462002787576040517f08c379a00000000000000000000000000000000000000000000000000000000081526004016200277e90620039e1565b60405180910390fd5b620027928262000c1c565b73ffffffffffffffffffffffffffffffffffffffff16632e49d78b60006040518263ffffffff1660e01b8152600401620027cd919062003b0d565b6020604051808303816000875af1158015620027ed573d6000803e3d6000fd5b505050506040513d601f19601f8201168201806040525081019062002813919062003939565b505050565b6000429050806203f480600260008581526020019081526020016000205462002842919062003c08565b1115801562002864575060026000838152602001908152602001600020548111155b620028a6576040517f08c379a00000000000000000000000000000000000000000000000000000000081526004016200289d906200415e565b60405180910390fd5b6000620028b38362000c1c565b73ffffffffffffffffffffffffffffffffffffffff1663e0a73a936040518163ffffffff1660e01b8152600401602060405180830381865afa158015620028fe573d6000803e3d6000fd5b505050506040513d601f19601f8201168201806040525081019062002924919062003614565b90506000600360009054906101000a900473ffffffffffffffffffffffffffffffffffffffff1673ffffffffffffffffffffffffffffffffffffffff166323b872dd620029718662000c59565b6200297c8762000e5e565b856040518463ffffffff1660e01b81526004016200299d9392919062003b2a565b6020604051808303816000875af1158015620029bd573d6000803e3d6000fd5b505050506040513d601f19601f82011682018060405250810190620029e39190620035cb565b90508062002a28576040517f08c379a000000000000000000000000000000000000000000000000000000000815260040162002a1f906200407a565b60405180910390fd5b50505050565b6000600560009054906101000a900473ffffffffffffffffffffffffffffffffffffffff16905081600560006101000a81548173ffffffffffffffffffffffffffffffffffffffff021916908373ffffffffffffffffffffffffffffffffffffffff1602179055508173ffffffffffffffffffffffffffffffffffffffff168173ffffffffffffffffffffffffffffffffffffffff167f8be0079c531659141344cd1fd0a4f28419497f9722a3daafe3b4186f6b6457e060405160405180910390a35050565b600062002b02600062003016565b600062002b1060006200302c565b90506000898989888a898960405162002b29906200304d565b62002b3b979695949392919062004180565b604051809103906000f08015801562002b58573d6000803e3d6000fd5b509050806001600084815260200190815260200160002060006101000a81548173ffffffffffffffffffffffffffffffffffffffff021916908373ffffffffffffffffffffffffffffffffffffffff1602179055508073ffffffffffffffffffffffffffffffffffffffff1663bab215f8338d6040518363ffffffff1660e01b815260040162002bea92919062003a8f565b600060405180830381600087803b15801562002c0557600080fd5b505af115801562002c1a573d6000803e3d6000fd5b50505050819250505098975050505050505050565b8062002c3b8162000e5e565b73ffffffffffffffffffffffffffffffffffffffff163373ffffffffffffffffffffffffffffffffffffffff161462002cab576040517f08c379a000000000000000000000000000000000000000000000000000000000815260040162002ca2906200424d565b60405180910390fd5b816002600481111562002cc35762002cc2620038e2565b5b6001600083815260200190815260200160002060009054906101000a900473ffffffffffffffffffffffffffffffffffffffff1673ffffffffffffffffffffffffffffffffffffffff1663200d2ed26040518163ffffffff1660e01b8152600401602060405180830381865afa15801562002d42573d6000803e3d6000fd5b505050506040513d601f19601f8201168201806040525081019062002d68919062003939565b600481111562002d7d5762002d7c620038e2565b5b1462002dc0576040517f08c379a000000000000000000000000000000000000000000000000000000000815260040162002db79062003d5a565b60405180910390fd5b600062002dcd8462000c1c565b73ffffffffffffffffffffffffffffffffffffffff1663a2e800ad6040518163ffffffff1660e01b8152600401602060405180830381865afa15801562002e18573d6000803e3d6000fd5b505050506040513d601f19601f8201168201806040525081019062002e3e919062003c5a565b905060006002600086815260200190815260200160002054421015801562002e6c575060008263ffffffff16145b905060006002600087815260200190815260200160002054421015801562002ebe575060006004600088815260200190815260200160002060006002811062002eba5762002eb962003b67565b5b0154145b9050808062002eca5750815b62002f0c576040517f08c379a000000000000000000000000000000000000000000000000000000000815260040162002f0390620042bf565b60405180910390fd5b62002f178662000c1c565b73ffffffffffffffffffffffffffffffffffffffff16632e49d78b60046040518263ffffffff1660e01b815260040162002f52919062003b0d565b6020604051808303816000875af115801562002f72573d6000803e3d6000fd5b505050506040513d601f19601f8201168201806040525081019062002f98919062003939565b50505050505050565b6000818362002fb19190620042e1565b905092915050565b60005b600181116200300a57600060046000848152602001908152602001600020826002811062002fef5762002fee62003b67565b5b01819055508080620030019062003dee565b91505062002fbc565b5050565b600033905090565b6001816000016000828254019250508190555050565b600081600001549050919050565b6040518060200160405280600081525090565b611ad3806200434383390190565b600080fd5b6000819050919050565b620030758162003060565b81146200308157600080fd5b50565b60008135905062003095816200306a565b92915050565b60008060408385031215620030b557620030b46200305b565b5b6000620030c58582860162003084565b9250506020620030d88582860162003084565b9150509250929050565b620030ed8162003060565b82525050565b60006020820190506200310a6000830184620030e2565b92915050565b6000602082840312156200312957620031286200305b565b5b6000620031398482850162003084565b91505092915050565b60008115159050919050565b620031598162003142565b82525050565b60006020820190506200317660008301846200314e565b92915050565b600073ffffffffffffffffffffffffffffffffffffffff82169050919050565b6000819050919050565b6000620031c7620031c1620031bb846200317c565b6200319c565b6200317c565b9050919050565b6000620031db82620031a6565b9050919050565b6000620031ef82620031ce565b9050919050565b6200320181620031e2565b82525050565b60006020820190506200321e6000830184620031f6565b92915050565b600062003231826200317c565b9050919050565b620032438162003224565b82525050565b600060208201905062003260600083018462003238565b92915050565b620032718162003142565b81146200327d57600080fd5b50565b600081359050620032918162003266565b92915050565b600063ffffffff82169050919050565b620032b28162003297565b8114620032be57600080fd5b50565b600081359050620032d281620032a7565b92915050565b600080600080600080600080610100898b031215620032fc57620032fb6200305b565b5b60006200330c8b828c0162003280565b98505060206200331f8b828c0162003084565b9750506040620033328b828c0162003084565b9650506060620033458b828c0162003084565b9550506080620033588b828c0162003084565b94505060a06200336b8b828c0162003084565b93505060c06200337e8b828c01620032c1565b92505060e0620033918b828c01620032c1565b9150509295985092959890939650565b620033ac8162003060565b82525050565b602082016000820151620033ca6000850182620033a1565b50505050565b6000602082019050620033e76000830184620033b2565b92915050565b620033f88162003224565b81146200340457600080fd5b50565b6000813590506200341881620033ed565b92915050565b6000602082840312156200343757620034366200305b565b5b6000620034478482850162003407565b91505092915050565b60006200345d82620031ce565b9050919050565b6200346f8162003450565b82525050565b60006020820190506200348c600083018462003464565b92915050565b600082825260208201905092915050565b7f54686520686f73742063616e206e6f742063616c6c20746865206d6574686f64600082015250565b6000620034db60208362003492565b9150620034e882620034a3565b602082019050919050565b600060208201905081810360008301526200350e81620034cc565b9050919050565b7f4f6e6c79206275796572206f6620746865204344532063616e2063616c6c0000600082015250565b60006200354d601e8362003492565b91506200355a8262003515565b602082019050919050565b6000602082019050818103600083015262003580816200353e565b9050919050565b60006040820190506200359e600083018562003238565b620035ad6020830184620030e2565b9392505050565b600081519050620035c58162003266565b92915050565b600060208284031215620035e457620035e36200305b565b5b6000620035f484828501620035b4565b91505092915050565b6000815190506200360e816200306a565b92915050565b6000602082840312156200362d576200362c6200305b565b5b60006200363d84828501620035fd565b91505092915050565b7f43757272656e7420707269636520697320686967686572207468616e2074686560008201527f20636c61696d20707269636520696e2043445300000000000000000000000000602082015250565b6000620036a460338362003492565b9150620036b18262003646565b604082019050919050565b60006020820190508181036000830152620036d78162003695565b9050919050565b6000604082019050620036f56000830185620030e2565b620037046020830184620030e2565b9392505050565b7f4f6e6c792062757965722f73656c6c6572206f6620746865204344532063616e60008201527f2063616c6c000000000000000000000000000000000000000000000000000000602082015250565b60006200376960258362003492565b915062003776826200370b565b604082019050919050565b600060208201905081810360008301526200379c816200375a565b9050919050565b600081519050620037b481620033ed565b92915050565b600060208284031215620037d357620037d26200305b565b5b6000620037e384828501620037a3565b91505092915050565b620037f78162003297565b82525050565b60006080820190506200381460008301876200314e565b620038236020830186620030e2565b620038326040830185620037ec565b62003841606083018462003238565b95945050505050565b7f4f776e61626c653a206e6577206f776e657220697320746865207a65726f206160008201527f6464726573730000000000000000000000000000000000000000000000000000602082015250565b6000620038a860268362003492565b9150620038b5826200384a565b604082019050919050565b60006020820190508181036000830152620038db8162003899565b9050919050565b7f4e487b7100000000000000000000000000000000000000000000000000000000600052602160045260246000fd5b600581106200391f57600080fd5b50565b600081519050620039338162003911565b92915050565b6000602082840312156200395257620039516200305b565b5b6000620039628482850162003922565b91505092915050565b7f54686520737461747573206f6620746865204344532073686f756c642062652060008201527f70656e64696e6700000000000000000000000000000000000000000000000000602082015250565b6000620039c960278362003492565b9150620039d6826200396b565b604082019050919050565b60006020820190508181036000830152620039fc81620039ba565b9050919050565b7f4e487b7100000000000000000000000000000000000000000000000000000000600052601160045260246000fd5b600062003a3f8262003060565b915062003a4c8362003060565b9250827fffffffffffffffffffffffffffffffffffffffffffffffffffffffffffffffff0382111562003a845762003a8362003a03565b5b828201905092915050565b600060408201905062003aa6600083018562003238565b62003ab560208301846200314e565b9392505050565b6005811062003ad05762003acf620038e2565b5b50565b600081905062003ae38262003abc565b919050565b600062003af58262003ad3565b9050919050565b62003b078162003ae8565b82525050565b600060208201905062003b24600083018462003afc565b92915050565b600060608201905062003b41600083018662003238565b62003b50602083018562003238565b62003b5f6040830184620030e2565b949350505050565b7f4e487b7100000000000000000000000000000000000000000000000000000000600052603260045260246000fd5b7f53656e64696e67206669727374207072656d69756d206661696c656400000000600082015250565b600062003bce601c8362003492565b915062003bdb8262003b96565b602082019050919050565b6000602082019050818103600083015262003c018162003bbf565b9050919050565b600062003c158262003060565b915062003c228362003060565b92508282101562003c385762003c3762003a03565b5b828203905092915050565b60008151905062003c5481620032a7565b92915050565b60006020828403121562003c735762003c726200305b565b5b600062003c838482850162003c43565b91505092915050565b600062003c998262003297565b915062003ca68362003297565b92508282101562003cbc5762003cbb62003a03565b5b828203905092915050565b600060208201905062003cde6000830184620037ec565b92915050565b7f54686520737461747573206f6620746865204344532073686f756c642062652060008201527f6163746976650000000000000000000000000000000000000000000000000000602082015250565b600062003d4260268362003492565b915062003d4f8262003ce4565b604082019050919050565b6000602082019050818103600083015262003d758162003d33565b9050919050565b7f53656e64696e67206465706f736974206261636b206661696c65640000000000600082015250565b600062003db4601b8362003492565b915062003dc18262003d7c565b602082019050919050565b6000602082019050818103600083015262003de78162003da5565b9050919050565b600062003dfb8262003060565b91507fffffffffffffffffffffffffffffffffffffffffffffffffffffffffffffffff82141562003e315762003e3062003a03565b5b600182019050919050565b7f4f776e61626c653a2063616c6c6572206973206e6f7420746865206f776e6572600082015250565b600062003e7460208362003492565b915062003e818262003e3c565b602082019050919050565b6000602082019050818103600083015262003ea78162003e65565b9050919050565b7f526f756e6420616c726561647920656e64656400000000000000000000000000600082015250565b600062003ee660138362003492565b915062003ef38262003eae565b602082019050919050565b6000602082019050818103600083015262003f198162003ed7565b9050919050565b7f496e76616c6964206461746520746f20706179207072656d69756d206279206460008201527f65706f7369742000000000000000000000000000000000000000000000000000602082015250565b600062003f7e60278362003492565b915062003f8b8262003f20565b604082019050919050565b6000602082019050818103600083015262003fb18162003f6f565b9050919050565b7f4e6f7420656e6f756768206465706f7369740000000000000000000000000000600082015250565b600062003ff060128362003492565b915062003ffd8262003fb8565b602082019050919050565b60006020820190508181036000830152620040238162003fe1565b9050919050565b7f53656e64696e67207072656d69756d206661696c656400000000000000000000600082015250565b60006200406260168362003492565b91506200406f826200402a565b602082019050919050565b60006020820190508181036000830152620040958162004053565b9050919050565b7f53656e64696e6720726577617264206661696c65640000000000000000000000600082015250565b6000620040d460158362003492565b9150620040e1826200409c565b602082019050919050565b600060208201905081810360008301526200410781620040c5565b9050919050565b7f496e76616c6964206461746520746f20706179207072656d69756d0000000000600082015250565b600062004146601b8362003492565b915062004153826200410e565b602082019050919050565b60006020820190508181036000830152620041798162004137565b9050919050565b600060e08201905062004197600083018a620030e2565b620041a66020830189620030e2565b620041b56040830188620030e2565b620041c46060830187620030e2565b620041d36080830186620030e2565b620041e260a0830185620037ec565b620041f160c0830184620037ec565b98975050505050505050565b7f4f6e6c792073656c6c6572206f6620746865204344532063616e2063616c6c00600082015250565b600062004235601f8362003492565b91506200424282620041fd565b602082019050919050565b60006020820190508181036000830152620042688162004226565b9050919050565b7f4275796572206465706f736974202f20526f756e64732072656d61696e696e67600082015250565b6000620042a760208362003492565b9150620042b4826200426f565b602082019050919050565b60006020820190508181036000830152620042da8162004298565b9050919050565b6000620042ee8262003060565b9150620042fb8362003060565b9250817fffffffffffffffffffffffffffffffffffffffffffffffffffffffffffffffff048311821515161562004337576200433662003a03565b5b82820290509291505056fe60806040523480156200001157600080fd5b5060405162001ad338038062001ad3833981810160405281019062000037919062000444565b620000576200004b6200028960201b60201c565b6200029160201b60201c565b733c7a4a23f876452c92c89405874fd4118dcb9e06600160006101000a81548173ffffffffffffffffffffffffffffffffffffffff021916908373ffffffffffffffffffffffffffffffffffffffff160217905550866003819055508560048190555084600581905550836006819055508260078190555081600a60146101000a81548163ffffffff021916908363ffffffff16021790555081600a60186101000a81548163ffffffff021916908363ffffffff160217905550620001336005546007546003546200035560201b62000a80179092919060201c565b60088190555060008163ffffffff16148062000155575060018163ffffffff16145b8062000167575060028163ffffffff16145b620001a9576040517f08c379a0000000000000000000000000000000000000000000000000000000008152600401620001a09062000558565b60405180910390fd5b80600a601c6101000a81548163ffffffff021916908363ffffffff1602179055506000600960006101000a81548173ffffffffffffffffffffffffffffffffffffffff021916908373ffffffffffffffffffffffffffffffffffffffff1602179055506000600a60006101000a81548173ffffffffffffffffffffffffffffffffffffffff021916908373ffffffffffffffffffffffffffffffffffffffff1602179055506001600260146101000a81548160ff021916908360048111156200027757620002766200057a565b5b0217905550505050505050506200067a565b600033905090565b60008060009054906101000a900473ffffffffffffffffffffffffffffffffffffffff169050816000806101000a81548173ffffffffffffffffffffffffffffffffffffffff021916908373ffffffffffffffffffffffffffffffffffffffff1602179055508173ffffffffffffffffffffffffffffffffffffffff168173ffffffffffffffffffffffffffffffffffffffff167f8be0079c531659141344cd1fd0a4f28419497f9722a3daafe3b4186f6b6457e060405160405180910390a35050565b60006200038a6200037584866200039360201b62000ab01790919060201c565b83620003ab60201b62000ac61790919060201c565b90509392505050565b60008183620003a39190620005d8565b905092915050565b60008183620003bb919062000642565b905092915050565b600080fd5b6000819050919050565b620003dd81620003c8565b8114620003e957600080fd5b50565b600081519050620003fd81620003d2565b92915050565b600063ffffffff82169050919050565b6200041e8162000403565b81146200042a57600080fd5b50565b6000815190506200043e8162000413565b92915050565b600080600080600080600060e0888a031215620004665762000465620003c3565b5b6000620004768a828b01620003ec565b9750506020620004898a828b01620003ec565b96505060406200049c8a828b01620003ec565b9550506060620004af8a828b01620003ec565b9450506080620004c28a828b01620003ec565b93505060a0620004d58a828b016200042d565b92505060c0620004e88a828b016200042d565b91505092959891949750929550565b600082825260208201905092915050565b7f4254433a302c204554483a312c204c494e4b3a32000000000000000000000000600082015250565b600062000540601483620004f7565b91506200054d8262000508565b602082019050919050565b60006020820190508181036000830152620005738162000531565b9050919050565b7f4e487b7100000000000000000000000000000000000000000000000000000000600052602160045260246000fd5b7f4e487b7100000000000000000000000000000000000000000000000000000000600052601160045260246000fd5b6000620005e582620003c8565b9150620005f283620003c8565b925082821015620006085762000607620005a9565b5b828203905092915050565b7f4e487b7100000000000000000000000000000000000000000000000000000000600052601260045260246000fd5b60006200064f82620003c8565b91506200065c83620003c8565b9250826200066f576200066e62000613565b5b828204905092915050565b611449806200068a6000396000f3fe608060405234801561001057600080fd5b506004361061018e5760003560e01c8063a3f09ad6116100de578063d2895e9311610097578063e0a73a9311610071578063e0a73a9314610459578063e99d286614610477578063f26cc58e146104a7578063f2fde38b146104c55761018e565b8063d2895e93146103ed578063dbd0e1b61461041d578063dd22db801461043b5761018e565b8063a3f09ad614610317578063a607a8d914610347578063b6fc2d5f14610365578063bab215f814610383578063bd9a548b1461039f578063bef904e3146103bd5761018e565b8063603daf9a1161014b57806386be75b71161012557806386be75b71461029f5780638a568299146102bd5780638da5cb5b146102db578063a2e800ad146102f95761018e565b8063603daf9a14610259578063715018a614610277578063762db7ee146102815761018e565b806315d655c914610193578063200d2ed2146101b15780632dddd49c146101cf5780632e49d78b146101ed5780633fe3347a1461021d5780634c1786ea1461023b575b600080fd5b61019b6104e1565b6040516101a89190610dc2565b60405180910390f35b6101b96104e7565b6040516101c69190610e54565b60405180910390f35b6101d76104fa565b6040516101e49190610dc2565b60405180910390f35b61020760048036038101906102029190610e99565b610597565b6040516102149190610e54565b60405180910390f35b6102256105e2565b6040516102329190610ee5565b60405180910390f35b6102436105f8565b6040516102509190610dc2565b60405180910390f35b6102616105fe565b60405161026e9190610f41565b60405180910390f35b61027f610628565b005b61028961063c565b6040516102969190610dc2565b60405180910390f35b6102a7610642565b6040516102b49190610dc2565b60405180910390f35b6102c5610648565b6040516102d29190610ee5565b60405180910390f35b6102e361065e565b6040516102f09190610f41565b60405180910390f35b610301610687565b60405161030e9190610ee5565b60405180910390f35b610331600480360381019061032c9190610f88565b61069d565b60405161033e9190610f41565b60405180910390f35b61034f610712565b60405161035c9190610dc2565b60405180910390f35b61036d6107af565b60405161037a9190610dc2565b60405180910390f35b61039d60048036038101906103989190610fed565b6107b5565b005b6103a76107df565b6040516103b491906110d8565b60405180910390f35b6103d760048036038101906103d2919061111f565b61081d565b6040516103e49190610dc2565b60405180910390f35b61040760048036038101906104029190611178565b610830565b6040516104149190610ee5565b60405180910390f35b610425610875565b6040516104329190610f41565b60405180910390f35b61044361089f565b6040516104509190610dc2565b60405180910390f35b61046161093c565b60405161046e9190610dc2565b60405180910390f35b610491600480360381019061048c9190610f88565b610942565b60405161049e9190610f41565b60405180910390f35b6104af6109b7565b6040516104bc9190610dc2565b60405180910390f35b6104df60048036038101906104da9190610f88565b6109fc565b005b60045481565b600260149054906101000a900460ff1681565b600080600160009054906101000a900473ffffffffffffffffffffffffffffffffffffffff1673ffffffffffffffffffffffffffffffffffffffff16630cf785356040518163ffffffff1660e01b8152600401602060405180830381865afa15801561056a573d6000803e3d6000fd5b505050506040513d601f19601f8201168201806040525081019061058e91906111ba565b90508091505090565b60006105a1610adc565b81600260146101000a81548160ff021916908360048111156105c6576105c5610ddd565b5b0217905550600260149054906101000a900460ff169050919050565b600a601c9054906101000a900463ffffffff1681565b60075481565b6000600960009054906101000a900473ffffffffffffffffffffffffffffffffffffffff16905090565b610630610adc565b61063a6000610b5a565b565b60085481565b60035481565b600a60189054906101000a900463ffffffff1681565b60008060009054906101000a900473ffffffffffffffffffffffffffffffffffffffff16905090565b600a60149054906101000a900463ffffffff1681565b60006106a7610adc565b81600960006101000a81548173ffffffffffffffffffffffffffffffffffffffff021916908373ffffffffffffffffffffffffffffffffffffffff160217905550600960009054906101000a900473ffffffffffffffffffffffffffffffffffffffff169050919050565b600080600160009054906101000a900473ffffffffffffffffffffffffffffffffffffffff1673ffffffffffffffffffffffffffffffffffffffff1663ff186b2e6040518163ffffffff1660e01b8152600401602060405180830381865afa158015610782573d6000803e3d6000fd5b505050506040513d601f19601f820116820180604052508101906107a691906111ba565b90508091505090565b60055481565b6107bd610adc565b806107d0576107cb82610942565b6107da565b6107d98261069d565b5b505050565b6107e7610d87565b6040518060a001604052806003548152602001600454815260200160055481526020016006548152602001600754815250905090565b6000816003819055506003549050919050565b600061083a610adc565b81600a60146101000a81548163ffffffff021916908363ffffffff160217905550600a60149054906101000a900463ffffffff169050919050565b6000600a60009054906101000a900473ffffffffffffffffffffffffffffffffffffffff16905090565b600080600160009054906101000a900473ffffffffffffffffffffffffffffffffffffffff1673ffffffffffffffffffffffffffffffffffffffff1663a8ad52d16040518163ffffffff1660e01b8152600401602060405180830381865afa15801561090f573d6000803e3d6000fd5b505050506040513d601f19601f8201168201806040525081019061093391906111ba565b90508091505090565b60065481565b600061094c610adc565b81600a60006101000a81548173ffffffffffffffffffffffffffffffffffffffff021916908373ffffffffffffffffffffffffffffffffffffffff160217905550600a60009054906101000a900473ffffffffffffffffffffffffffffffffffffffff169050919050565b6000806109c2610c1e565b90508060045410156109d85760009150506109f9565b6109f560055460035483600754610cf9909392919063ffffffff16565b9150505b90565b610a04610adc565b600073ffffffffffffffffffffffffffffffffffffffff168173ffffffffffffffffffffffffffffffffffffffff161415610a74576040517f08c379a0000000000000000000000000000000000000000000000000000000008152600401610a6b9061126a565b60405180910390fd5b610a7d81610b5a565b50565b6000610aa7610a988486610ab090919063ffffffff16565b83610ac690919063ffffffff16565b90509392505050565b60008183610abe91906112b9565b905092915050565b60008183610ad4919061131c565b905092915050565b610ae4610d69565b73ffffffffffffffffffffffffffffffffffffffff16610b0261065e565b73ffffffffffffffffffffffffffffffffffffffff1614610b58576040517f08c379a0000000000000000000000000000000000000000000000000000000008152600401610b4f90611399565b60405180910390fd5b565b60008060009054906101000a900473ffffffffffffffffffffffffffffffffffffffff169050816000806101000a81548173ffffffffffffffffffffffffffffffffffffffff021916908373ffffffffffffffffffffffffffffffffffffffff1602179055508173ffffffffffffffffffffffffffffffffffffffff168173ffffffffffffffffffffffffffffffffffffffff167f8be0079c531659141344cd1fd0a4f28419497f9722a3daafe3b4186f6b6457e060405160405180910390a35050565b600080600a601c9054906101000a900463ffffffff1663ffffffff161415610c6557610c5e6305f5e100610c5061089f565b610ac690919063ffffffff16565b9050610cf6565b6001600a601c9054906101000a900463ffffffff1663ffffffff161415610cab57610ca46305f5e100610c96610712565b610ac690919063ffffffff16565b9050610cf6565b6002600a601c9054906101000a900463ffffffff1663ffffffff161415610cf157610cea6305f5e100610cdc6104fa565b610ac690919063ffffffff16565b9050610cf6565b600090505b90565b600080828510610d0b57859050610d5d565b6000610d32610d238787610ab090919063ffffffff16565b88610ac690919063ffffffff16565b9050610d59610d4a8587610ab090919063ffffffff16565b82610d7190919063ffffffff16565b9150505b80915050949350505050565b600033905090565b60008183610d7f91906113b9565b905092915050565b6040518060a00160405280600590602082028036833780820191505090505090565b6000819050919050565b610dbc81610da9565b82525050565b6000602082019050610dd76000830184610db3565b92915050565b7f4e487b7100000000000000000000000000000000000000000000000000000000600052602160045260246000fd5b60058110610e1d57610e1c610ddd565b5b50565b6000819050610e2e82610e0c565b919050565b6000610e3e82610e20565b9050919050565b610e4e81610e33565b82525050565b6000602082019050610e696000830184610e45565b92915050565b600080fd5b60058110610e8157600080fd5b50565b600081359050610e9381610e74565b92915050565b600060208284031215610eaf57610eae610e6f565b5b6000610ebd84828501610e84565b91505092915050565b600063ffffffff82169050919050565b610edf81610ec6565b82525050565b6000602082019050610efa6000830184610ed6565b92915050565b600073ffffffffffffffffffffffffffffffffffffffff82169050919050565b6000610f2b82610f00565b9050919050565b610f3b81610f20565b82525050565b6000602082019050610f566000830184610f32565b92915050565b610f6581610f20565b8114610f7057600080fd5b50565b600081359050610f8281610f5c565b92915050565b600060208284031215610f9e57610f9d610e6f565b5b6000610fac84828501610f73565b91505092915050565b60008115159050919050565b610fca81610fb5565b8114610fd557600080fd5b50565b600081359050610fe781610fc1565b92915050565b6000806040838503121561100457611003610e6f565b5b600061101285828601610f73565b925050602061102385828601610fd8565b9150509250929050565b600060059050919050565b600081905092915050565b6000819050919050565b61105681610da9565b82525050565b6000611068838361104d565b60208301905092915050565b6000602082019050919050565b61108a8161102d565b6110948184611038565b925061109f82611043565b8060005b838110156110d05781516110b7878261105c565b96506110c283611074565b9250506001810190506110a3565b505050505050565b600060a0820190506110ed6000830184611081565b92915050565b6110fc81610da9565b811461110757600080fd5b50565b600081359050611119816110f3565b92915050565b60006020828403121561113557611134610e6f565b5b60006111438482850161110a565b91505092915050565b61115581610ec6565b811461116057600080fd5b50565b6000813590506111728161114c565b92915050565b60006020828403121561118e5761118d610e6f565b5b600061119c84828501611163565b91505092915050565b6000815190506111b4816110f3565b92915050565b6000602082840312156111d0576111cf610e6f565b5b60006111de848285016111a5565b91505092915050565b600082825260208201905092915050565b7f4f776e61626c653a206e6577206f776e657220697320746865207a65726f206160008201527f6464726573730000000000000000000000000000000000000000000000000000602082015250565b60006112546026836111e7565b915061125f826111f8565b604082019050919050565b6000602082019050818103600083015261128381611247565b9050919050565b7f4e487b7100000000000000000000000000000000000000000000000000000000600052601160045260246000fd5b60006112c482610da9565b91506112cf83610da9565b9250828210156112e2576112e161128a565b5b828203905092915050565b7f4e487b7100000000000000000000000000000000000000000000000000000000600052601260045260246000fd5b600061132782610da9565b915061133283610da9565b925082611342576113416112ed565b5b828204905092915050565b7f4f776e61626c653a2063616c6c6572206973206e6f7420746865206f776e6572600082015250565b60006113836020836111e7565b915061138e8261134d565b602082019050919050565b600060208201905081810360008301526113b281611376565b9050919050565b60006113c482610da9565b91506113cf83610da9565b9250817fffffffffffffffffffffffffffffffffffffffffffffffffffffffffffffffff04831182151516156114085761140761128a565b5b82820290509291505056fea26469706673582212208c084278aa0f3246b36ad50177c91a4aa877703f14a294add753aec6ca02c18364736f6c634300080a0033a2646970667358221220d90df1efa232e3982d352f0eb2d35d41ee5d101938df323463422987bdcecf4b64736f6c634300080a0033",
			"opcodes": "PUSH1 0x80 PUSH1 0x40 MSTORE CALLVALUE DUP1 ISZERO PUSH3 0x11 JUMPI PUSH1 0x0 DUP1 REVERT JUMPDEST POP PUSH20 0x609B8CED16A83CFF90A3D3B3CBE7894931E7C382 PUSH1 0x3 PUSH1 0x0 PUSH2 0x100 EXP DUP2 SLOAD DUP2 PUSH20 0xFFFFFFFFFFFFFFFFFFFFFFFFFFFFFFFFFFFFFFFF MUL NOT AND SWAP1 DUP4 PUSH20 0xFFFFFFFFFFFFFFFFFFFFFFFFFFFFFFFFFFFFFFFF AND MUL OR SWAP1 SSTORE POP PUSH3 0x87 PUSH3 0x7B PUSH3 0x8D PUSH1 0x20 SHL PUSH1 0x20 SHR JUMP JUMPDEST PUSH3 0x95 PUSH1 0x20 SHL PUSH1 0x20 SHR JUMP JUMPDEST PUSH3 0x15B JUMP JUMPDEST PUSH1 0x0 CALLER SWAP1 POP SWAP1 JUMP JUMPDEST PUSH1 0x0 PUSH1 0x5 PUSH1 0x0 SWAP1 SLOAD SWAP1 PUSH2 0x100 EXP SWAP1 DIV PUSH20 0xFFFFFFFFFFFFFFFFFFFFFFFFFFFFFFFFFFFFFFFF AND SWAP1 POP DUP2 PUSH1 0x5 PUSH1 0x0 PUSH2 0x100 EXP DUP2 SLOAD DUP2 PUSH20 0xFFFFFFFFFFFFFFFFFFFFFFFFFFFFFFFFFFFFFFFF MUL NOT AND SWAP1 DUP4 PUSH20 0xFFFFFFFFFFFFFFFFFFFFFFFFFFFFFFFFFFFFFFFF AND MUL OR SWAP1 SSTORE POP DUP2 PUSH20 0xFFFFFFFFFFFFFFFFFFFFFFFFFFFFFFFFFFFFFFFF AND DUP2 PUSH20 0xFFFFFFFFFFFFFFFFFFFFFFFFFFFFFFFFFFFFFFFF AND PUSH32 0x8BE0079C531659141344CD1FD0A4F28419497F9722A3DAAFE3B4186F6B6457E0 PUSH1 0x40 MLOAD PUSH1 0x40 MLOAD DUP1 SWAP2 SUB SWAP1 LOG3 POP POP JUMP JUMPDEST PUSH2 0x5E4B DUP1 PUSH3 0x16B PUSH1 0x0 CODECOPY PUSH1 0x0 RETURN INVALID PUSH1 0x80 PUSH1 0x40 MSTORE CALLVALUE DUP1 ISZERO PUSH3 0x11 JUMPI PUSH1 0x0 DUP1 REVERT JUMPDEST POP PUSH1 0x4 CALLDATASIZE LT PUSH3 0x13C JUMPI PUSH1 0x0 CALLDATALOAD PUSH1 0xE0 SHR DUP1 PUSH4 0x5AF8D21C GT PUSH3 0xBD JUMPI DUP1 PUSH4 0xBF81BF43 GT PUSH3 0x7B JUMPI DUP1 PUSH4 0xBF81BF43 EQ PUSH3 0x3F7 JUMPI DUP1 PUSH4 0xD0E5D955 EQ PUSH3 0x42D JUMPI DUP1 PUSH4 0xD6A9DE51 EQ PUSH3 0x44F JUMPI DUP1 PUSH4 0xF2FDE38B EQ PUSH3 0x485 JUMPI DUP1 PUSH4 0xFC0C546A EQ PUSH3 0x4A5 JUMPI PUSH3 0x13C JUMP JUMPDEST DUP1 PUSH4 0x5AF8D21C EQ PUSH3 0x327 JUMPI DUP1 PUSH4 0x5BF608B8 EQ PUSH3 0x35D JUMPI DUP1 PUSH4 0x715018A6 EQ PUSH3 0x393 JUMPI DUP1 PUSH4 0x8A614DD5 EQ PUSH3 0x39F JUMPI DUP1 PUSH4 0x8DA5CB5B EQ PUSH3 0x3D5 JUMPI PUSH3 0x13C JUMP JUMPDEST DUP1 PUSH4 0x2E1A7D4D GT PUSH3 0x10B JUMPI DUP1 PUSH4 0x2E1A7D4D EQ PUSH3 0x219 JUMPI DUP1 PUSH4 0x379607F5 EQ PUSH3 0x24F JUMPI DUP1 PUSH4 0x40E58EE5 EQ PUSH3 0x285 JUMPI DUP1 PUSH4 0x4364B26E EQ PUSH3 0x2BB JUMPI DUP1 PUSH4 0x44A9D244 EQ PUSH3 0x2F1 JUMPI PUSH3 0x13C JUMP JUMPDEST DUP1 PUSH4 0x9358479 EQ PUSH3 0x141 JUMPI DUP1 PUSH4 0xAEBEB4E EQ PUSH3 0x177 JUMPI DUP1 PUSH4 0x2926EA2A EQ PUSH3 0x1AD JUMPI DUP1 PUSH4 0x2BD49780 EQ PUSH3 0x1E3 JUMPI JUMPDEST PUSH1 0x0 DUP1 REVERT JUMPDEST PUSH3 0x15F PUSH1 0x4 DUP1 CALLDATASIZE SUB DUP2 ADD SWAP1 PUSH3 0x159 SWAP2 SWAP1 PUSH3 0x309B JUMP JUMPDEST PUSH3 0x4C7 JUMP JUMPDEST PUSH1 0x40 MLOAD PUSH3 0x16E SWAP2 SWAP1 PUSH3 0x30F3 JUMP JUMPDEST PUSH1 0x40 MLOAD DUP1 SWAP2 SUB SWAP1 RETURN JUMPDEST PUSH3 0x195 PUSH1 0x4 DUP1 CALLDATASIZE SUB DUP2 ADD SWAP1 PUSH3 0x18F SWAP2 SWAP1 PUSH3 0x3110 JUMP JUMPDEST PUSH3 0x64B JUMP JUMPDEST PUSH1 0x40 MLOAD PUSH3 0x1A4 SWAP2 SWAP1 PUSH3 0x315F JUMP JUMPDEST PUSH1 0x40 MLOAD DUP1 SWAP2 SUB SWAP1 RETURN JUMPDEST PUSH3 0x1CB PUSH1 0x4 DUP1 CALLDATASIZE SUB DUP2 ADD SWAP1 PUSH3 0x1C5 SWAP2 SWAP1 PUSH3 0x3110 JUMP JUMPDEST PUSH3 0x723 JUMP JUMPDEST PUSH1 0x40 MLOAD PUSH3 0x1DA SWAP2 SWAP1 PUSH3 0x315F JUMP JUMPDEST PUSH1 0x40 MLOAD DUP1 SWAP2 SUB SWAP1 RETURN JUMPDEST PUSH3 0x201 PUSH1 0x4 DUP1 CALLDATASIZE SUB DUP2 ADD SWAP1 PUSH3 0x1FB SWAP2 SWAP1 PUSH3 0x309B JUMP JUMPDEST PUSH3 0x787 JUMP JUMPDEST PUSH1 0x40 MLOAD PUSH3 0x210 SWAP2 SWAP1 PUSH3 0x30F3 JUMP JUMPDEST PUSH1 0x40 MLOAD DUP1 SWAP2 SUB SWAP1 RETURN JUMPDEST PUSH3 0x237 PUSH1 0x4 DUP1 CALLDATASIZE SUB DUP2 ADD SWAP1 PUSH3 0x231 SWAP2 SWAP1 PUSH3 0x3110 JUMP JUMPDEST PUSH3 0x7B0 JUMP JUMPDEST PUSH1 0x40 MLOAD PUSH3 0x246 SWAP2 SWAP1 PUSH3 0x315F JUMP JUMPDEST PUSH1 0x40 MLOAD DUP1 SWAP2 SUB SWAP1 RETURN JUMPDEST PUSH3 0x26D PUSH1 0x4 DUP1 CALLDATASIZE SUB DUP2 ADD SWAP1 PUSH3 0x267 SWAP2 SWAP1 PUSH3 0x3110 JUMP JUMPDEST PUSH3 0x874 JUMP JUMPDEST PUSH1 0x40 MLOAD PUSH3 0x27C SWAP2 SWAP1 PUSH3 0x315F JUMP JUMPDEST PUSH1 0x40 MLOAD DUP1 SWAP2 SUB SWAP1 RETURN JUMPDEST PUSH3 0x2A3 PUSH1 0x4 DUP1 CALLDATASIZE SUB DUP2 ADD SWAP1 PUSH3 0x29D SWAP2 SWAP1 PUSH3 0x3110 JUMP JUMPDEST PUSH3 0xA14 JUMP JUMPDEST PUSH1 0x40 MLOAD PUSH3 0x2B2 SWAP2 SWAP1 PUSH3 0x315F JUMP JUMPDEST PUSH1 0x40 MLOAD DUP1 SWAP2 SUB SWAP1 RETURN JUMPDEST PUSH3 0x2D9 PUSH1 0x4 DUP1 CALLDATASIZE SUB DUP2 ADD SWAP1 PUSH3 0x2D3 SWAP2 SWAP1 PUSH3 0x3110 JUMP JUMPDEST PUSH3 0xB2D JUMP JUMPDEST PUSH1 0x40 MLOAD PUSH3 0x2E8 SWAP2 SWAP1 PUSH3 0x315F JUMP JUMPDEST PUSH1 0x40 MLOAD DUP1 SWAP2 SUB SWAP1 RETURN JUMPDEST PUSH3 0x30F PUSH1 0x4 DUP1 CALLDATASIZE SUB DUP2 ADD SWAP1 PUSH3 0x309 SWAP2 SWAP1 PUSH3 0x3110 JUMP JUMPDEST PUSH3 0xC04 JUMP JUMPDEST PUSH1 0x40 MLOAD PUSH3 0x31E SWAP2 SWAP1 PUSH3 0x30F3 JUMP JUMPDEST PUSH1 0x40 MLOAD DUP1 SWAP2 SUB SWAP1 RETURN JUMPDEST PUSH3 0x345 PUSH1 0x4 DUP1 CALLDATASIZE SUB DUP2 ADD SWAP1 PUSH3 0x33F SWAP2 SWAP1 PUSH3 0x3110 JUMP JUMPDEST PUSH3 0xC1C JUMP JUMPDEST PUSH1 0x40 MLOAD PUSH3 0x354 SWAP2 SWAP1 PUSH3 0x3207 JUMP JUMPDEST PUSH1 0x40 MLOAD DUP1 SWAP2 SUB SWAP1 RETURN JUMPDEST PUSH3 0x37B PUSH1 0x4 DUP1 CALLDATASIZE SUB DUP2 ADD SWAP1 PUSH3 0x375 SWAP2 SWAP1 PUSH3 0x3110 JUMP JUMPDEST PUSH3 0xC59 JUMP JUMPDEST PUSH1 0x40 MLOAD PUSH3 0x38A SWAP2 SWAP1 PUSH3 0x3249 JUMP JUMPDEST PUSH1 0x40 MLOAD DUP1 SWAP2 SUB SWAP1 RETURN JUMPDEST PUSH3 0x39D PUSH3 0xD07 JUMP JUMPDEST STOP JUMPDEST PUSH3 0x3BD PUSH1 0x4 DUP1 CALLDATASIZE SUB DUP2 ADD SWAP1 PUSH3 0x3B7 SWAP2 SWAP1 PUSH3 0x32D8 JUMP JUMPDEST PUSH3 0xD1F JUMP JUMPDEST PUSH1 0x40 MLOAD PUSH3 0x3CC SWAP2 SWAP1 PUSH3 0x30F3 JUMP JUMPDEST PUSH1 0x40 MLOAD DUP1 SWAP2 SUB SWAP1 RETURN JUMPDEST PUSH3 0x3DF PUSH3 0xDB3 JUMP JUMPDEST PUSH1 0x40 MLOAD PUSH3 0x3EE SWAP2 SWAP1 PUSH3 0x3249 JUMP JUMPDEST PUSH1 0x40 MLOAD DUP1 SWAP2 SUB SWAP1 RETURN JUMPDEST PUSH3 0x415 PUSH1 0x4 DUP1 CALLDATASIZE SUB DUP2 ADD SWAP1 PUSH3 0x40F SWAP2 SWAP1 PUSH3 0x3110 JUMP JUMPDEST PUSH3 0xDDD JUMP JUMPDEST PUSH1 0x40 MLOAD PUSH3 0x424 SWAP2 SWAP1 PUSH3 0x315F JUMP JUMPDEST PUSH1 0x40 MLOAD DUP1 SWAP2 SUB SWAP1 RETURN JUMPDEST PUSH3 0x437 PUSH3 0xE38 JUMP JUMPDEST PUSH1 0x40 MLOAD PUSH3 0x446 SWAP2 SWAP1 PUSH3 0x33D0 JUMP JUMPDEST PUSH1 0x40 MLOAD DUP1 SWAP2 SUB SWAP1 RETURN JUMPDEST PUSH3 0x46D PUSH1 0x4 DUP1 CALLDATASIZE SUB DUP2 ADD SWAP1 PUSH3 0x467 SWAP2 SWAP1 PUSH3 0x3110 JUMP JUMPDEST PUSH3 0xE5E JUMP JUMPDEST PUSH1 0x40 MLOAD PUSH3 0x47C SWAP2 SWAP1 PUSH3 0x3249 JUMP JUMPDEST PUSH1 0x40 MLOAD DUP1 SWAP2 SUB SWAP1 RETURN JUMPDEST PUSH3 0x4A3 PUSH1 0x4 DUP1 CALLDATASIZE SUB DUP2 ADD SWAP1 PUSH3 0x49D SWAP2 SWAP1 PUSH3 0x341E JUMP JUMPDEST PUSH3 0xF0C JUMP JUMPDEST STOP JUMPDEST PUSH3 0x4AF PUSH3 0xF97 JUMP JUMPDEST PUSH1 0x40 MLOAD PUSH3 0x4BE SWAP2 SWAP1 PUSH3 0x3475 JUMP JUMPDEST PUSH1 0x40 MLOAD DUP1 SWAP2 SUB SWAP1 RETURN JUMPDEST PUSH1 0x0 PUSH3 0x4D4 DUP3 PUSH3 0xC59 JUMP JUMPDEST PUSH20 0xFFFFFFFFFFFFFFFFFFFFFFFFFFFFFFFFFFFFFFFF AND CALLER PUSH20 0xFFFFFFFFFFFFFFFFFFFFFFFFFFFFFFFFFFFFFFFF AND EQ ISZERO DUP1 ISZERO PUSH3 0x546 JUMPI POP PUSH3 0x516 DUP3 PUSH3 0xE5E JUMP JUMPDEST PUSH20 0xFFFFFFFFFFFFFFFFFFFFFFFFFFFFFFFFFFFFFFFF AND CALLER PUSH20 0xFFFFFFFFFFFFFFFFFFFFFFFFFFFFFFFFFFFFFFFF AND EQ ISZERO JUMPDEST PUSH3 0x588 JUMPI PUSH1 0x40 MLOAD PUSH32 0x8C379A000000000000000000000000000000000000000000000000000000000 DUP2 MSTORE PUSH1 0x4 ADD PUSH3 0x57F SWAP1 PUSH3 0x34F3 JUMP JUMPDEST PUSH1 0x40 MLOAD DUP1 SWAP2 SUB SWAP1 REVERT JUMPDEST PUSH1 0x0 DUP1 PUSH20 0xFFFFFFFFFFFFFFFFFFFFFFFFFFFFFFFFFFFFFFFF AND PUSH3 0x5AC DUP5 PUSH3 0xE5E JUMP JUMPDEST PUSH20 0xFFFFFFFFFFFFFFFFFFFFFFFFFFFFFFFFFFFFFFFF AND EQ SWAP1 POP PUSH1 0x0 PUSH3 0x5D4 DUP3 DUP7 DUP7 PUSH3 0xFBD JUMP JUMPDEST SWAP1 POP PUSH3 0x5E3 DUP5 DUP4 ISZERO PUSH3 0x12B7 JUMP JUMPDEST POP PUSH3 0x5EF DUP5 PUSH3 0x15A6 JUMP JUMPDEST POP CALLER PUSH20 0xFFFFFFFFFFFFFFFFFFFFFFFFFFFFFFFFFFFFFFFF AND PUSH32 0x68E07974E86F9190B39C5E1783E6BA66B3D0D7CCF507DE51450F14E594D16868 DUP3 PUSH1 0x40 MLOAD PUSH3 0x638 SWAP2 SWAP1 PUSH3 0x30F3 JUMP JUMPDEST PUSH1 0x40 MLOAD DUP1 SWAP2 SUB SWAP1 LOG2 DUP1 SWAP3 POP POP POP SWAP3 SWAP2 POP POP JUMP JUMPDEST PUSH1 0x0 DUP2 PUSH3 0x659 DUP2 PUSH3 0xC59 JUMP JUMPDEST PUSH20 0xFFFFFFFFFFFFFFFFFFFFFFFFFFFFFFFFFFFFFFFF AND CALLER PUSH20 0xFFFFFFFFFFFFFFFFFFFFFFFFFFFFFFFFFFFFFFFF AND EQ PUSH3 0x6C9 JUMPI PUSH1 0x40 MLOAD PUSH32 0x8C379A000000000000000000000000000000000000000000000000000000000 DUP2 MSTORE PUSH1 0x4 ADD PUSH3 0x6C0 SWAP1 PUSH3 0x3565 JUMP JUMPDEST PUSH1 0x40 MLOAD DUP1 SWAP2 SUB SWAP1 REVERT JUMPDEST PUSH3 0x6D4 DUP4 PUSH3 0x1886 JUMP JUMPDEST PUSH3 0x6DF DUP4 PUSH3 0x1A2C JUMP JUMPDEST POP PUSH32 0xBF67515A38EE520223D32C1266D52101C30D936ED1F3E436C8CAEB0A43CB06BF DUP4 PUSH1 0x40 MLOAD PUSH3 0x711 SWAP2 SWAP1 PUSH3 0x30F3 JUMP JUMPDEST PUSH1 0x40 MLOAD DUP1 SWAP2 SUB SWAP1 LOG1 PUSH1 0x1 SWAP2 POP POP SWAP2 SWAP1 POP JUMP JUMPDEST PUSH1 0x0 PUSH3 0x72F PUSH3 0x1C2A JUMP JUMPDEST PUSH3 0x73A DUP3 PUSH3 0x1CAF JUMP JUMPDEST PUSH3 0x745 DUP3 PUSH3 0x1F87 JUMP JUMPDEST PUSH32 0x73FE46267E05AE56A3625C045DF1B74C1B1736A7535EEADEF3C57551BFD00599 DUP3 PUSH1 0x40 MLOAD PUSH3 0x776 SWAP2 SWAP1 PUSH3 0x30F3 JUMP JUMPDEST PUSH1 0x40 MLOAD DUP1 SWAP2 SUB SWAP1 LOG1 PUSH1 0x1 SWAP1 POP SWAP2 SWAP1 POP JUMP JUMPDEST PUSH1 0x4 PUSH1 0x20 MSTORE DUP2 PUSH1 0x0 MSTORE PUSH1 0x40 PUSH1 0x0 KECCAK256 DUP2 PUSH1 0x2 DUP2 LT PUSH3 0x7A4 JUMPI PUSH1 0x0 DUP1 REVERT JUMPDEST ADD PUSH1 0x0 SWAP2 POP SWAP2 POP POP SLOAD DUP2 JUMP JUMPDEST PUSH1 0x0 PUSH3 0x7BC PUSH3 0x1C2A JUMP JUMPDEST PUSH1 0x3 PUSH1 0x0 SWAP1 SLOAD SWAP1 PUSH2 0x100 EXP SWAP1 DIV PUSH20 0xFFFFFFFFFFFFFFFFFFFFFFFFFFFFFFFFFFFFFFFF AND PUSH20 0xFFFFFFFFFFFFFFFFFFFFFFFFFFFFFFFFFFFFFFFF AND PUSH4 0xA9059CBB PUSH3 0x804 PUSH3 0xDB3 JUMP JUMPDEST DUP5 PUSH1 0x40 MLOAD DUP4 PUSH4 0xFFFFFFFF AND PUSH1 0xE0 SHL DUP2 MSTORE PUSH1 0x4 ADD PUSH3 0x824 SWAP3 SWAP2 SWAP1 PUSH3 0x3587 JUMP JUMPDEST PUSH1 0x20 PUSH1 0x40 MLOAD DUP1 DUP4 SUB DUP2 PUSH1 0x0 DUP8 GAS CALL ISZERO DUP1 ISZERO PUSH3 0x844 JUMPI RETURNDATASIZE PUSH1 0x0 DUP1 RETURNDATACOPY RETURNDATASIZE PUSH1 0x0 REVERT JUMPDEST POP POP POP POP PUSH1 0x40 MLOAD RETURNDATASIZE PUSH1 0x1F NOT PUSH1 0x1F DUP3 ADD AND DUP3 ADD DUP1 PUSH1 0x40 MSTORE POP DUP2 ADD SWAP1 PUSH3 0x86A SWAP2 SWAP1 PUSH3 0x35CB JUMP JUMPDEST POP PUSH1 0x1 SWAP1 POP SWAP2 SWAP1 POP JUMP JUMPDEST PUSH1 0x0 DUP2 PUSH3 0x882 DUP2 PUSH3 0xC59 JUMP JUMPDEST PUSH20 0xFFFFFFFFFFFFFFFFFFFFFFFFFFFFFFFFFFFFFFFF AND CALLER PUSH20 0xFFFFFFFFFFFFFFFFFFFFFFFFFFFFFFFFFFFFFFFF AND EQ PUSH3 0x8F2 JUMPI PUSH1 0x40 MLOAD PUSH32 0x8C379A000000000000000000000000000000000000000000000000000000000 DUP2 MSTORE PUSH1 0x4 ADD PUSH3 0x8E9 SWAP1 PUSH3 0x3565 JUMP JUMPDEST PUSH1 0x40 MLOAD DUP1 SWAP2 SUB SWAP1 REVERT JUMPDEST PUSH1 0x0 PUSH3 0x8FF DUP5 PUSH3 0xC1C JUMP JUMPDEST PUSH20 0xFFFFFFFFFFFFFFFFFFFFFFFFFFFFFFFFFFFFFFFF AND PUSH4 0xF26CC58E PUSH1 0x40 MLOAD DUP2 PUSH4 0xFFFFFFFF AND PUSH1 0xE0 SHL DUP2 MSTORE PUSH1 0x4 ADD PUSH1 0x20 PUSH1 0x40 MLOAD DUP1 DUP4 SUB DUP2 DUP7 GAS STATICCALL ISZERO DUP1 ISZERO PUSH3 0x94A JUMPI RETURNDATASIZE PUSH1 0x0 DUP1 RETURNDATACOPY RETURNDATASIZE PUSH1 0x0 REVERT JUMPDEST POP POP POP POP PUSH1 0x40 MLOAD RETURNDATASIZE PUSH1 0x1F NOT PUSH1 0x1F DUP3 ADD AND DUP3 ADD DUP1 PUSH1 0x40 MSTORE POP DUP2 ADD SWAP1 PUSH3 0x970 SWAP2 SWAP1 PUSH3 0x3614 JUMP JUMPDEST EQ ISZERO PUSH3 0x9B4 JUMPI PUSH1 0x40 MLOAD PUSH32 0x8C379A000000000000000000000000000000000000000000000000000000000 DUP2 MSTORE PUSH1 0x4 ADD PUSH3 0x9AB SWAP1 PUSH3 0x36BC JUMP JUMPDEST PUSH1 0x40 MLOAD DUP1 SWAP2 SUB SWAP1 REVERT JUMPDEST PUSH3 0x9BF DUP4 PUSH3 0x2214 JUMP JUMPDEST PUSH1 0x0 PUSH3 0x9CC DUP5 PUSH3 0x23BA JUMP JUMPDEST SWAP1 POP PUSH32 0x22E3D29644EAD4083349CA84D24BCAC368B2461819B70F5921FEA15DE4DEC4D DUP5 DUP3 PUSH1 0x40 MLOAD PUSH3 0xA01 SWAP3 SWAP2 SWAP1 PUSH3 0x36DE JUMP JUMPDEST PUSH1 0x40 MLOAD DUP1 SWAP2 SUB SWAP1 LOG1 PUSH1 0x1 SWAP3 POP POP POP SWAP2 SWAP1 POP JUMP JUMPDEST PUSH1 0x0 DUP2 PUSH3 0xA22 DUP2 PUSH3 0xC59 JUMP JUMPDEST PUSH20 0xFFFFFFFFFFFFFFFFFFFFFFFFFFFFFFFFFFFFFFFF AND CALLER PUSH20 0xFFFFFFFFFFFFFFFFFFFFFFFFFFFFFFFFFFFFFFFF AND EQ DUP1 PUSH3 0xA91 JUMPI POP PUSH3 0xA62 DUP2 PUSH3 0xE5E JUMP JUMPDEST PUSH20 0xFFFFFFFFFFFFFFFFFFFFFFFFFFFFFFFFFFFFFFFF AND CALLER PUSH20 0xFFFFFFFFFFFFFFFFFFFFFFFFFFFFFFFFFFFFFFFF AND EQ JUMPDEST PUSH3 0xAD3 JUMPI PUSH1 0x40 MLOAD PUSH32 0x8C379A000000000000000000000000000000000000000000000000000000000 DUP2 MSTORE PUSH1 0x4 ADD PUSH3 0xACA SWAP1 PUSH3 0x3781 JUMP JUMPDEST PUSH1 0x40 MLOAD DUP1 SWAP2 SUB SWAP1 REVERT JUMPDEST PUSH3 0xADE DUP4 PUSH3 0x2672 JUMP JUMPDEST PUSH3 0xAE9 DUP4 PUSH3 0x1A2C JUMP JUMPDEST POP PUSH32 0x8BF30E7FF26833413BE5F69E1D373744864D600B664204B4A2F9844A8EEDB9ED DUP4 PUSH1 0x40 MLOAD PUSH3 0xB1B SWAP2 SWAP1 PUSH3 0x30F3 JUMP JUMPDEST PUSH1 0x40 MLOAD DUP1 SWAP2 SUB SWAP1 LOG1 PUSH1 0x1 SWAP2 POP POP SWAP2 SWAP1 POP JUMP JUMPDEST PUSH1 0x0 DUP2 PUSH3 0xB3B DUP2 PUSH3 0xC59 JUMP JUMPDEST PUSH20 0xFFFFFFFFFFFFFFFFFFFFFFFFFFFFFFFFFFFFFFFF AND CALLER PUSH20 0xFFFFFFFFFFFFFFFFFFFFFFFFFFFFFFFFFFFFFFFF AND EQ PUSH3 0xBAB JUMPI PUSH1 0x40 MLOAD PUSH32 0x8C379A000000000000000000000000000000000000000000000000000000000 DUP2 MSTORE PUSH1 0x4 ADD PUSH3 0xBA2 SWAP1 PUSH3 0x3565 JUMP JUMPDEST PUSH1 0x40 MLOAD DUP1 SWAP2 SUB SWAP1 REVERT JUMPDEST PUSH3 0xBB6 DUP4 PUSH3 0x1CAF JUMP JUMPDEST PUSH3 0xBC1 DUP4 PUSH3 0x2818 JUMP JUMPDEST PUSH32 0x73FE46267E05AE56A3625C045DF1B74C1B1736A7535EEADEF3C57551BFD00599 DUP4 PUSH1 0x40 MLOAD PUSH3 0xBF2 SWAP2 SWAP1 PUSH3 0x30F3 JUMP JUMPDEST PUSH1 0x40 MLOAD DUP1 SWAP2 SUB SWAP1 LOG1 PUSH1 0x1 SWAP2 POP POP SWAP2 SWAP1 POP JUMP JUMPDEST PUSH1 0x2 PUSH1 0x20 MSTORE DUP1 PUSH1 0x0 MSTORE PUSH1 0x40 PUSH1 0x0 KECCAK256 PUSH1 0x0 SWAP2 POP SWAP1 POP SLOAD DUP2 JUMP JUMPDEST PUSH1 0x0 PUSH1 0x1 PUSH1 0x0 DUP4 DUP2 MSTORE PUSH1 0x20 ADD SWAP1 DUP2 MSTORE PUSH1 0x20 ADD PUSH1 0x0 KECCAK256 PUSH1 0x0 SWAP1 SLOAD SWAP1 PUSH2 0x100 EXP SWAP1 DIV PUSH20 0xFFFFFFFFFFFFFFFFFFFFFFFFFFFFFFFFFFFFFFFF AND SWAP1 POP SWAP2 SWAP1 POP JUMP JUMPDEST PUSH1 0x0 PUSH1 0x1 PUSH1 0x0 DUP4 DUP2 MSTORE PUSH1 0x20 ADD SWAP1 DUP2 MSTORE PUSH1 0x20 ADD PUSH1 0x0 KECCAK256 PUSH1 0x0 SWAP1 SLOAD SWAP1 PUSH2 0x100 EXP SWAP1 DIV PUSH20 0xFFFFFFFFFFFFFFFFFFFFFFFFFFFFFFFFFFFFFFFF AND PUSH20 0xFFFFFFFFFFFFFFFFFFFFFFFFFFFFFFFFFFFFFFFF AND PUSH4 0x603DAF9A PUSH1 0x40 MLOAD DUP2 PUSH4 0xFFFFFFFF AND PUSH1 0xE0 SHL DUP2 MSTORE PUSH1 0x4 ADD PUSH1 0x20 PUSH1 0x40 MLOAD DUP1 DUP4 SUB DUP2 DUP7 GAS STATICCALL ISZERO DUP1 ISZERO PUSH3 0xCDA JUMPI RETURNDATASIZE PUSH1 0x0 DUP1 RETURNDATACOPY RETURNDATASIZE PUSH1 0x0 REVERT JUMPDEST POP POP POP POP PUSH1 0x40 MLOAD RETURNDATASIZE PUSH1 0x1F NOT PUSH1 0x1F DUP3 ADD AND DUP3 ADD DUP1 PUSH1 0x40 MSTORE POP DUP2 ADD SWAP1 PUSH3 0xD00 SWAP2 SWAP1 PUSH3 0x37BA JUMP JUMPDEST SWAP1 POP SWAP2 SWAP1 POP JUMP JUMPDEST PUSH3 0xD11 PUSH3 0x1C2A JUMP JUMPDEST PUSH3 0xD1D PUSH1 0x0 PUSH3 0x2A2E JUMP JUMPDEST JUMP JUMPDEST PUSH1 0x0 DUP1 PUSH3 0xD34 DUP11 DUP11 DUP11 DUP11 DUP11 DUP11 DUP11 DUP11 PUSH3 0x2AF4 JUMP JUMPDEST SWAP1 POP PUSH3 0xD42 DUP2 DUP12 PUSH3 0x12B7 JUMP JUMPDEST POP CALLER PUSH20 0xFFFFFFFFFFFFFFFFFFFFFFFFFFFFFFFFFFFFFFFF AND PUSH32 0x9EAB9CFAC223C6527657A8D86C920796A5AB5038BC0F4497038958AC33FA8F83 DUP12 DUP4 DUP7 PUSH3 0xD89 DUP7 PUSH3 0xC1C JUMP JUMPDEST PUSH1 0x40 MLOAD PUSH3 0xD9B SWAP5 SWAP4 SWAP3 SWAP2 SWAP1 PUSH3 0x37FD JUMP JUMPDEST PUSH1 0x40 MLOAD DUP1 SWAP2 SUB SWAP1 LOG2 DUP1 SWAP2 POP POP SWAP9 SWAP8 POP POP POP POP POP POP POP POP JUMP JUMPDEST PUSH1 0x0 PUSH1 0x5 PUSH1 0x0 SWAP1 SLOAD SWAP1 PUSH2 0x100 EXP SWAP1 DIV PUSH20 0xFFFFFFFFFFFFFFFFFFFFFFFFFFFFFFFFFFFFFFFF AND SWAP1 POP SWAP1 JUMP JUMPDEST PUSH1 0x0 PUSH3 0xDEA DUP3 PUSH3 0x2C2F JUMP JUMPDEST PUSH3 0xDF5 DUP3 PUSH3 0x1A2C JUMP JUMPDEST POP PUSH32 0xA33FD53BA34795FFEFAEA3759C71F87D38B89AE12E40BC434C826FAE0CA53583 DUP3 PUSH1 0x40 MLOAD PUSH3 0xE27 SWAP2 SWAP1 PUSH3 0x30F3 JUMP JUMPDEST PUSH1 0x40 MLOAD DUP1 SWAP2 SUB SWAP1 LOG1 PUSH1 0x1 SWAP1 POP SWAP2 SWAP1 POP JUMP JUMPDEST PUSH3 0xE42 PUSH3 0x303A JUMP JUMPDEST PUSH1 0x0 PUSH1 0x40 MLOAD DUP1 PUSH1 0x20 ADD PUSH1 0x40 MSTORE SWAP1 DUP2 PUSH1 0x0 DUP3 ADD SLOAD DUP2 MSTORE POP POP SWAP1 POP SWAP1 JUMP JUMPDEST PUSH1 0x0 PUSH1 0x1 PUSH1 0x0 DUP4 DUP2 MSTORE PUSH1 0x20 ADD SWAP1 DUP2 MSTORE PUSH1 0x20 ADD PUSH1 0x0 KECCAK256 PUSH1 0x0 SWAP1 SLOAD SWAP1 PUSH2 0x100 EXP SWAP1 DIV PUSH20 0xFFFFFFFFFFFFFFFFFFFFFFFFFFFFFFFFFFFFFFFF AND PUSH20 0xFFFFFFFFFFFFFFFFFFFFFFFFFFFFFFFFFFFFFFFF AND PUSH4 0xDBD0E1B6 PUSH1 0x40 MLOAD DUP2 PUSH4 0xFFFFFFFF AND PUSH1 0xE0 SHL DUP2 MSTORE PUSH1 0x4 ADD PUSH1 0x20 PUSH1 0x40 MLOAD DUP1 DUP4 SUB DUP2 DUP7 GAS STATICCALL ISZERO DUP1 ISZERO PUSH3 0xEDF JUMPI RETURNDATASIZE PUSH1 0x0 DUP1 RETURNDATACOPY RETURNDATASIZE PUSH1 0x0 REVERT JUMPDEST POP POP POP POP PUSH1 0x40 MLOAD RETURNDATASIZE PUSH1 0x1F NOT PUSH1 0x1F DUP3 ADD AND DUP3 ADD DUP1 PUSH1 0x40 MSTORE POP DUP2 ADD SWAP1 PUSH3 0xF05 SWAP2 SWAP1 PUSH3 0x37BA JUMP JUMPDEST SWAP1 POP SWAP2 SWAP1 POP JUMP JUMPDEST PUSH3 0xF16 PUSH3 0x1C2A JUMP JUMPDEST PUSH1 0x0 PUSH20 0xFFFFFFFFFFFFFFFFFFFFFFFFFFFFFFFFFFFFFFFF AND DUP2 PUSH20 0xFFFFFFFFFFFFFFFFFFFFFFFFFFFFFFFFFFFFFFFF AND EQ ISZERO PUSH3 0xF89 JUMPI PUSH1 0x40 MLOAD PUSH32 0x8C379A000000000000000000000000000000000000000000000000000000000 DUP2 MSTORE PUSH1 0x4 ADD PUSH3 0xF80 SWAP1 PUSH3 0x38C0 JUMP JUMPDEST PUSH1 0x40 MLOAD DUP1 SWAP2 SUB SWAP1 REVERT JUMPDEST PUSH3 0xF94 DUP2 PUSH3 0x2A2E JUMP JUMPDEST POP JUMP JUMPDEST PUSH1 0x3 PUSH1 0x0 SWAP1 SLOAD SWAP1 PUSH2 0x100 EXP SWAP1 DIV PUSH20 0xFFFFFFFFFFFFFFFFFFFFFFFFFFFFFFFFFFFFFFFF AND DUP2 JUMP JUMPDEST PUSH1 0x0 DUP2 PUSH1 0x1 PUSH1 0x4 DUP2 GT ISZERO PUSH3 0xFD7 JUMPI PUSH3 0xFD6 PUSH3 0x38E2 JUMP JUMPDEST JUMPDEST PUSH1 0x1 PUSH1 0x0 DUP4 DUP2 MSTORE PUSH1 0x20 ADD SWAP1 DUP2 MSTORE PUSH1 0x20 ADD PUSH1 0x0 KECCAK256 PUSH1 0x0 SWAP1 SLOAD SWAP1 PUSH2 0x100 EXP SWAP1 DIV PUSH20 0xFFFFFFFFFFFFFFFFFFFFFFFFFFFFFFFFFFFFFFFF AND PUSH20 0xFFFFFFFFFFFFFFFFFFFFFFFFFFFFFFFFFFFFFFFF AND PUSH4 0x200D2ED2 PUSH1 0x40 MLOAD DUP2 PUSH4 0xFFFFFFFF AND PUSH1 0xE0 SHL DUP2 MSTORE PUSH1 0x4 ADD PUSH1 0x20 PUSH1 0x40 MLOAD DUP1 DUP4 SUB DUP2 DUP7 GAS STATICCALL ISZERO DUP1 ISZERO PUSH3 0x1056 JUMPI RETURNDATASIZE PUSH1 0x0 DUP1 RETURNDATACOPY RETURNDATASIZE PUSH1 0x0 REVERT JUMPDEST POP POP POP POP PUSH1 0x40 MLOAD RETURNDATASIZE PUSH1 0x1F NOT PUSH1 0x1F DUP3 ADD AND DUP3 ADD DUP1 PUSH1 0x40 MSTORE POP DUP2 ADD SWAP1 PUSH3 0x107C SWAP2 SWAP1 PUSH3 0x3939 JUMP JUMPDEST PUSH1 0x4 DUP2 GT ISZERO PUSH3 0x1091 JUMPI PUSH3 0x1090 PUSH3 0x38E2 JUMP JUMPDEST JUMPDEST EQ PUSH3 0x10D4 JUMPI PUSH1 0x40 MLOAD PUSH32 0x8C379A000000000000000000000000000000000000000000000000000000000 DUP2 MSTORE PUSH1 0x4 ADD PUSH3 0x10CB SWAP1 PUSH3 0x39E1 JUMP JUMPDEST PUSH1 0x40 MLOAD DUP1 SWAP2 SUB SWAP1 REVERT JUMPDEST PUSH1 0x0 PUSH1 0x1 PUSH1 0x0 DUP6 DUP2 MSTORE PUSH1 0x20 ADD SWAP1 DUP2 MSTORE PUSH1 0x20 ADD PUSH1 0x0 KECCAK256 PUSH1 0x0 SWAP1 SLOAD SWAP1 PUSH2 0x100 EXP SWAP1 DIV PUSH20 0xFFFFFFFFFFFFFFFFFFFFFFFFFFFFFFFFFFFFFFFF AND SWAP1 POP DUP1 PUSH20 0xFFFFFFFFFFFFFFFFFFFFFFFFFFFFFFFFFFFFFFFF AND PUSH4 0xBEF904E3 DUP7 PUSH1 0x40 MLOAD DUP3 PUSH4 0xFFFFFFFF AND PUSH1 0xE0 SHL DUP2 MSTORE PUSH1 0x4 ADD PUSH3 0x1147 SWAP2 SWAP1 PUSH3 0x30F3 JUMP JUMPDEST PUSH1 0x20 PUSH1 0x40 MLOAD DUP1 DUP4 SUB DUP2 PUSH1 0x0 DUP8 GAS CALL ISZERO DUP1 ISZERO PUSH3 0x1167 JUMPI RETURNDATASIZE PUSH1 0x0 DUP1 RETURNDATACOPY RETURNDATASIZE PUSH1 0x0 REVERT JUMPDEST POP POP POP POP PUSH1 0x40 MLOAD RETURNDATASIZE PUSH1 0x1F NOT PUSH1 0x1F DUP3 ADD AND DUP3 ADD DUP1 PUSH1 0x40 MSTORE POP DUP2 ADD SWAP1 PUSH3 0x118D SWAP2 SWAP1 PUSH3 0x3614 JUMP JUMPDEST POP PUSH3 0x24EA00 TIMESTAMP PUSH3 0x119F SWAP2 SWAP1 PUSH3 0x3A32 JUMP JUMPDEST PUSH1 0x2 PUSH1 0x0 DUP7 DUP2 MSTORE PUSH1 0x20 ADD SWAP1 DUP2 MSTORE PUSH1 0x20 ADD PUSH1 0x0 KECCAK256 DUP2 SWAP1 SSTORE POP DUP1 PUSH20 0xFFFFFFFFFFFFFFFFFFFFFFFFFFFFFFFFFFFFFFFF AND PUSH4 0xBAB215F8 CALLER DUP9 ISZERO PUSH1 0x40 MLOAD DUP4 PUSH4 0xFFFFFFFF AND PUSH1 0xE0 SHL DUP2 MSTORE PUSH1 0x4 ADD PUSH3 0x11F4 SWAP3 SWAP2 SWAP1 PUSH3 0x3A8F JUMP JUMPDEST PUSH1 0x0 PUSH1 0x40 MLOAD DUP1 DUP4 SUB DUP2 PUSH1 0x0 DUP8 DUP1 EXTCODESIZE ISZERO DUP1 ISZERO PUSH3 0x120F JUMPI PUSH1 0x0 DUP1 REVERT JUMPDEST POP GAS CALL ISZERO DUP1 ISZERO PUSH3 0x1224 JUMPI RETURNDATASIZE PUSH1 0x0 DUP1 RETURNDATACOPY RETURNDATASIZE PUSH1 0x0 REVERT JUMPDEST POP POP POP POP DUP1 PUSH20 0xFFFFFFFFFFFFFFFFFFFFFFFFFFFFFFFFFFFFFFFF AND PUSH4 0x2E49D78B PUSH1 0x2 PUSH1 0x40 MLOAD DUP3 PUSH4 0xFFFFFFFF AND PUSH1 0xE0 SHL DUP2 MSTORE PUSH1 0x4 ADD PUSH3 0x1264 SWAP2 SWAP1 PUSH3 0x3B0D JUMP JUMPDEST PUSH1 0x20 PUSH1 0x40 MLOAD DUP1 DUP4 SUB DUP2 PUSH1 0x0 DUP8 GAS CALL ISZERO DUP1 ISZERO PUSH3 0x1284 JUMPI RETURNDATASIZE PUSH1 0x0 DUP1 RETURNDATACOPY RETURNDATASIZE PUSH1 0x0 REVERT JUMPDEST POP POP POP POP PUSH1 0x40 MLOAD RETURNDATASIZE PUSH1 0x1F NOT PUSH1 0x1F DUP3 ADD AND DUP3 ADD DUP1 PUSH1 0x40 MSTORE POP DUP2 ADD SWAP1 PUSH3 0x12AA SWAP2 SWAP1 PUSH3 0x3939 JUMP JUMPDEST POP DUP4 SWAP3 POP POP POP SWAP4 SWAP3 POP POP POP JUMP JUMPDEST PUSH1 0x0 DUP1 DUP3 ISZERO PUSH3 0x143B JUMPI PUSH3 0x1352 PUSH1 0x4 PUSH3 0x12D2 DUP7 PUSH3 0xC1C JUMP JUMPDEST PUSH20 0xFFFFFFFFFFFFFFFFFFFFFFFFFFFFFFFFFFFFFFFF AND PUSH4 0xE0A73A93 PUSH1 0x40 MLOAD DUP2 PUSH4 0xFFFFFFFF AND PUSH1 0xE0 SHL DUP2 MSTORE PUSH1 0x4 ADD PUSH1 0x20 PUSH1 0x40 MLOAD DUP1 DUP4 SUB DUP2 DUP7 GAS STATICCALL ISZERO DUP1 ISZERO PUSH3 0x131D JUMPI RETURNDATASIZE PUSH1 0x0 DUP1 RETURNDATACOPY RETURNDATASIZE PUSH1 0x0 REVERT JUMPDEST POP POP POP POP PUSH1 0x40 MLOAD RETURNDATASIZE PUSH1 0x1F NOT PUSH1 0x1F DUP3 ADD AND DUP3 ADD DUP1 PUSH1 0x40 MSTORE POP DUP2 ADD SWAP1 PUSH3 0x1343 SWAP2 SWAP1 PUSH3 0x3614 JUMP JUMPDEST PUSH3 0x2FA1 SWAP1 SWAP2 SWAP1 PUSH4 0xFFFFFFFF AND JUMP JUMPDEST SWAP1 POP PUSH1 0x3 PUSH1 0x0 SWAP1 SLOAD SWAP1 PUSH2 0x100 EXP SWAP1 DIV PUSH20 0xFFFFFFFFFFFFFFFFFFFFFFFFFFFFFFFFFFFFFFFF AND PUSH20 0xFFFFFFFFFFFFFFFFFFFFFFFFFFFFFFFFFFFFFFFF AND PUSH4 0x23B872DD PUSH3 0x139D DUP7 PUSH3 0xC59 JUMP JUMPDEST ADDRESS DUP5 PUSH1 0x40 MLOAD DUP5 PUSH4 0xFFFFFFFF AND PUSH1 0xE0 SHL DUP2 MSTORE PUSH1 0x4 ADD PUSH3 0x13BF SWAP4 SWAP3 SWAP2 SWAP1 PUSH3 0x3B2A JUMP JUMPDEST PUSH1 0x20 PUSH1 0x40 MLOAD DUP1 DUP4 SUB DUP2 PUSH1 0x0 DUP8 GAS CALL ISZERO DUP1 ISZERO PUSH3 0x13DF JUMPI RETURNDATASIZE PUSH1 0x0 DUP1 RETURNDATACOPY RETURNDATASIZE PUSH1 0x0 REVERT JUMPDEST POP POP POP POP PUSH1 0x40 MLOAD RETURNDATASIZE PUSH1 0x1F NOT PUSH1 0x1F DUP3 ADD AND DUP3 ADD DUP1 PUSH1 0x40 MSTORE POP DUP2 ADD SWAP1 PUSH3 0x1405 SWAP2 SWAP1 PUSH3 0x35CB JUMP JUMPDEST POP DUP1 PUSH1 0x4 PUSH1 0x0 DUP7 DUP2 MSTORE PUSH1 0x20 ADD SWAP1 DUP2 MSTORE PUSH1 0x20 ADD PUSH1 0x0 KECCAK256 PUSH1 0x0 PUSH1 0x2 DUP2 LT PUSH3 0x1430 JUMPI PUSH3 0x142F PUSH3 0x3B67 JUMP JUMPDEST JUMPDEST ADD DUP2 SWAP1 SSTORE POP PUSH3 0x159B JUMP JUMPDEST PUSH3 0x1446 DUP5 PUSH3 0xC1C JUMP JUMPDEST PUSH20 0xFFFFFFFFFFFFFFFFFFFFFFFFFFFFFFFFFFFFFFFF AND PUSH4 0x4C1786EA PUSH1 0x40 MLOAD DUP2 PUSH4 0xFFFFFFFF AND PUSH1 0xE0 SHL DUP2 MSTORE PUSH1 0x4 ADD PUSH1 0x20 PUSH1 0x40 MLOAD DUP1 DUP4 SUB DUP2 DUP7 GAS STATICCALL ISZERO DUP1 ISZERO PUSH3 0x1491 JUMPI RETURNDATASIZE PUSH1 0x0 DUP1 RETURNDATACOPY RETURNDATASIZE PUSH1 0x0 REVERT JUMPDEST POP POP POP POP PUSH1 0x40 MLOAD RETURNDATASIZE PUSH1 0x1F NOT PUSH1 0x1F DUP3 ADD AND DUP3 ADD DUP1 PUSH1 0x40 MSTORE POP DUP2 ADD SWAP1 PUSH3 0x14B7 SWAP2 SWAP1 PUSH3 0x3614 JUMP JUMPDEST SWAP1 POP PUSH1 0x3 PUSH1 0x0 SWAP1 SLOAD SWAP1 PUSH2 0x100 EXP SWAP1 DIV PUSH20 0xFFFFFFFFFFFFFFFFFFFFFFFFFFFFFFFFFFFFFFFF AND PUSH20 0xFFFFFFFFFFFFFFFFFFFFFFFFFFFFFFFFFFFFFFFF AND PUSH4 0x23B872DD PUSH3 0x1502 DUP7 PUSH3 0xE5E JUMP JUMPDEST ADDRESS DUP5 PUSH1 0x40 MLOAD DUP5 PUSH4 0xFFFFFFFF AND PUSH1 0xE0 SHL DUP2 MSTORE PUSH1 0x4 ADD PUSH3 0x1524 SWAP4 SWAP3 SWAP2 SWAP1 PUSH3 0x3B2A JUMP JUMPDEST PUSH1 0x20 PUSH1 0x40 MLOAD DUP1 DUP4 SUB DUP2 PUSH1 0x0 DUP8 GAS CALL ISZERO DUP1 ISZERO PUSH3 0x1544 JUMPI RETURNDATASIZE PUSH1 0x0 DUP1 RETURNDATACOPY RETURNDATASIZE PUSH1 0x0 REVERT JUMPDEST POP POP POP POP PUSH1 0x40 MLOAD RETURNDATASIZE PUSH1 0x1F NOT PUSH1 0x1F DUP3 ADD AND DUP3 ADD DUP1 PUSH1 0x40 MSTORE POP DUP2 ADD SWAP1 PUSH3 0x156A SWAP2 SWAP1 PUSH3 0x35CB JUMP JUMPDEST POP DUP1 PUSH1 0x4 PUSH1 0x0 DUP7 DUP2 MSTORE PUSH1 0x20 ADD SWAP1 DUP2 MSTORE PUSH1 0x20 ADD PUSH1 0x0 KECCAK256 PUSH1 0x1 PUSH1 0x2 DUP2 LT PUSH3 0x1595 JUMPI PUSH3 0x1594 PUSH3 0x3B67 JUMP JUMPDEST JUMPDEST ADD DUP2 SWAP1 SSTORE POP JUMPDEST PUSH1 0x1 SWAP2 POP POP SWAP3 SWAP2 POP POP JUMP JUMPDEST PUSH1 0x0 DUP1 PUSH3 0x15B4 DUP4 PUSH3 0xC1C JUMP JUMPDEST PUSH20 0xFFFFFFFFFFFFFFFFFFFFFFFFFFFFFFFFFFFFFFFF AND PUSH4 0xE0A73A93 PUSH1 0x40 MLOAD DUP2 PUSH4 0xFFFFFFFF AND PUSH1 0xE0 SHL DUP2 MSTORE PUSH1 0x4 ADD PUSH1 0x20 PUSH1 0x40 MLOAD DUP1 DUP4 SUB DUP2 DUP7 GAS STATICCALL ISZERO DUP1 ISZERO PUSH3 0x15FF JUMPI RETURNDATASIZE PUSH1 0x0 DUP1 RETURNDATACOPY RETURNDATASIZE PUSH1 0x0 REVERT JUMPDEST POP POP POP POP PUSH1 0x40 MLOAD RETURNDATASIZE PUSH1 0x1F NOT PUSH1 0x1F DUP3 ADD AND DUP3 ADD DUP1 PUSH1 0x40 MSTORE POP DUP2 ADD SWAP1 PUSH3 0x1625 SWAP2 SWAP1 PUSH3 0x3614 JUMP JUMPDEST SWAP1 POP PUSH1 0x0 PUSH1 0x3 PUSH1 0x0 SWAP1 SLOAD SWAP1 PUSH2 0x100 EXP SWAP1 DIV PUSH20 0xFFFFFFFFFFFFFFFFFFFFFFFFFFFFFFFFFFFFFFFF AND PUSH20 0xFFFFFFFFFFFFFFFFFFFFFFFFFFFFFFFFFFFFFFFF AND PUSH4 0xA9059CBB PUSH3 0x1672 DUP7 PUSH3 0xE5E JUMP JUMPDEST DUP5 PUSH1 0x40 MLOAD DUP4 PUSH4 0xFFFFFFFF AND PUSH1 0xE0 SHL DUP2 MSTORE PUSH1 0x4 ADD PUSH3 0x1692 SWAP3 SWAP2 SWAP1 PUSH3 0x3587 JUMP JUMPDEST PUSH1 0x20 PUSH1 0x40 MLOAD DUP1 DUP4 SUB DUP2 PUSH1 0x0 DUP8 GAS CALL ISZERO DUP1 ISZERO PUSH3 0x16B2 JUMPI RETURNDATASIZE PUSH1 0x0 DUP1 RETURNDATACOPY RETURNDATASIZE PUSH1 0x0 REVERT JUMPDEST POP POP POP POP PUSH1 0x40 MLOAD RETURNDATASIZE PUSH1 0x1F NOT PUSH1 0x1F DUP3 ADD AND DUP3 ADD DUP1 PUSH1 0x40 MSTORE POP DUP2 ADD SWAP1 PUSH3 0x16D8 SWAP2 SWAP1 PUSH3 0x35CB JUMP JUMPDEST SWAP1 POP DUP1 PUSH3 0x171D JUMPI PUSH1 0x40 MLOAD PUSH32 0x8C379A000000000000000000000000000000000000000000000000000000000 DUP2 MSTORE PUSH1 0x4 ADD PUSH3 0x1714 SWAP1 PUSH3 0x3BE6 JUMP JUMPDEST PUSH1 0x40 MLOAD DUP1 SWAP2 SUB SWAP1 REVERT JUMPDEST DUP2 PUSH1 0x4 PUSH1 0x0 DUP7 DUP2 MSTORE PUSH1 0x20 ADD SWAP1 DUP2 MSTORE PUSH1 0x20 ADD PUSH1 0x0 KECCAK256 PUSH1 0x0 PUSH1 0x2 DUP2 LT PUSH3 0x1747 JUMPI PUSH3 0x1746 PUSH3 0x3B67 JUMP JUMPDEST JUMPDEST ADD PUSH1 0x0 DUP3 DUP3 SLOAD PUSH3 0x1759 SWAP2 SWAP1 PUSH3 0x3C08 JUMP JUMPDEST SWAP3 POP POP DUP2 SWAP1 SSTORE POP PUSH1 0x0 PUSH3 0x176D DUP6 PUSH3 0xC1C JUMP JUMPDEST PUSH20 0xFFFFFFFFFFFFFFFFFFFFFFFFFFFFFFFFFFFFFFFF AND PUSH4 0xA2E800AD PUSH1 0x40 MLOAD DUP2 PUSH4 0xFFFFFFFF AND PUSH1 0xE0 SHL DUP2 MSTORE PUSH1 0x4 ADD PUSH1 0x20 PUSH1 0x40 MLOAD DUP1 DUP4 SUB DUP2 DUP7 GAS STATICCALL ISZERO DUP1 ISZERO PUSH3 0x17B8 JUMPI RETURNDATASIZE PUSH1 0x0 DUP1 RETURNDATACOPY RETURNDATASIZE PUSH1 0x0 REVERT JUMPDEST POP POP POP POP PUSH1 0x40 MLOAD RETURNDATASIZE PUSH1 0x1F NOT PUSH1 0x1F DUP3 ADD AND DUP3 ADD DUP1 PUSH1 0x40 MSTORE POP DUP2 ADD SWAP1 PUSH3 0x17DE SWAP2 SWAP1 PUSH3 0x3C5A JUMP JUMPDEST SWAP1 POP PUSH3 0x17EB DUP6 PUSH3 0xC1C JUMP JUMPDEST PUSH20 0xFFFFFFFFFFFFFFFFFFFFFFFFFFFFFFFFFFFFFFFF AND PUSH4 0xD2895E93 PUSH1 0x1 DUP4 PUSH3 0x1815 SWAP2 SWAP1 PUSH3 0x3C8C JUMP JUMPDEST PUSH1 0x40 MLOAD DUP3 PUSH4 0xFFFFFFFF AND PUSH1 0xE0 SHL DUP2 MSTORE PUSH1 0x4 ADD PUSH3 0x1833 SWAP2 SWAP1 PUSH3 0x3CC7 JUMP JUMPDEST PUSH1 0x20 PUSH1 0x40 MLOAD DUP1 DUP4 SUB DUP2 PUSH1 0x0 DUP8 GAS CALL ISZERO DUP1 ISZERO PUSH3 0x1853 JUMPI RETURNDATASIZE PUSH1 0x0 DUP1 RETURNDATACOPY RETURNDATASIZE PUSH1 0x0 REVERT JUMPDEST POP POP POP POP PUSH1 0x40 MLOAD RETURNDATASIZE PUSH1 0x1F NOT PUSH1 0x1F DUP3 ADD AND DUP3 ADD DUP1 PUSH1 0x40 MSTORE POP DUP2 ADD SWAP1 PUSH3 0x1879 SWAP2 SWAP1 PUSH3 0x3C5A JUMP JUMPDEST POP PUSH1 0x1 SWAP4 POP POP POP POP SWAP2 SWAP1 POP JUMP JUMPDEST DUP1 PUSH1 0x2 PUSH1 0x4 DUP2 GT ISZERO PUSH3 0x189E JUMPI PUSH3 0x189D PUSH3 0x38E2 JUMP JUMPDEST JUMPDEST PUSH1 0x1 PUSH1 0x0 DUP4 DUP2 MSTORE PUSH1 0x20 ADD SWAP1 DUP2 MSTORE PUSH1 0x20 ADD PUSH1 0x0 KECCAK256 PUSH1 0x0 SWAP1 SLOAD SWAP1 PUSH2 0x100 EXP SWAP1 DIV PUSH20 0xFFFFFFFFFFFFFFFFFFFFFFFFFFFFFFFFFFFFFFFF AND PUSH20 0xFFFFFFFFFFFFFFFFFFFFFFFFFFFFFFFFFFFFFFFF AND PUSH4 0x200D2ED2 PUSH1 0x40 MLOAD DUP2 PUSH4 0xFFFFFFFF AND PUSH1 0xE0 SHL DUP2 MSTORE PUSH1 0x4 ADD PUSH1 0x20 PUSH1 0x40 MLOAD DUP1 DUP4 SUB DUP2 DUP7 GAS STATICCALL ISZERO DUP1 ISZERO PUSH3 0x191D JUMPI RETURNDATASIZE PUSH1 0x0 DUP1 RETURNDATACOPY RETURNDATASIZE PUSH1 0x0 REVERT JUMPDEST POP POP POP POP PUSH1 0x40 MLOAD RETURNDATASIZE PUSH1 0x1F NOT PUSH1 0x1F DUP3 ADD AND DUP3 ADD DUP1 PUSH1 0x40 MSTORE POP DUP2 ADD SWAP1 PUSH3 0x1943 SWAP2 SWAP1 PUSH3 0x3939 JUMP JUMPDEST PUSH1 0x4 DUP2 GT ISZERO PUSH3 0x1958 JUMPI PUSH3 0x1957 PUSH3 0x38E2 JUMP JUMPDEST JUMPDEST EQ PUSH3 0x199B JUMPI PUSH1 0x40 MLOAD PUSH32 0x8C379A000000000000000000000000000000000000000000000000000000000 DUP2 MSTORE PUSH1 0x4 ADD PUSH3 0x1992 SWAP1 PUSH3 0x3D5A JUMP JUMPDEST PUSH1 0x40 MLOAD DUP1 SWAP2 SUB SWAP1 REVERT JUMPDEST PUSH3 0x19A6 DUP3 PUSH3 0xC1C JUMP JUMPDEST PUSH20 0xFFFFFFFFFFFFFFFFFFFFFFFFFFFFFFFFFFFFFFFF AND PUSH4 0x2E49D78B PUSH1 0x4 PUSH1 0x40 MLOAD DUP3 PUSH4 0xFFFFFFFF AND PUSH1 0xE0 SHL DUP2 MSTORE PUSH1 0x4 ADD PUSH3 0x19E1 SWAP2 SWAP1 PUSH3 0x3B0D JUMP JUMPDEST PUSH1 0x20 PUSH1 0x40 MLOAD DUP1 DUP4 SUB DUP2 PUSH1 0x0 DUP8 GAS CALL ISZERO DUP1 ISZERO PUSH3 0x1A01 JUMPI RETURNDATASIZE PUSH1 0x0 DUP1 RETURNDATACOPY RETURNDATASIZE PUSH1 0x0 REVERT JUMPDEST POP POP POP POP PUSH1 0x40 MLOAD RETURNDATASIZE PUSH1 0x1F NOT PUSH1 0x1F DUP3 ADD AND DUP3 ADD DUP1 PUSH1 0x40 MSTORE POP DUP2 ADD SWAP1 PUSH3 0x1A27 SWAP2 SWAP1 PUSH3 0x3939 JUMP JUMPDEST POP POP POP JUMP JUMPDEST PUSH1 0x0 DUP1 PUSH1 0x40 MLOAD DUP1 PUSH1 0x40 ADD PUSH1 0x40 MSTORE DUP1 PUSH3 0x1A45 DUP6 PUSH3 0xC59 JUMP JUMPDEST PUSH20 0xFFFFFFFFFFFFFFFFFFFFFFFFFFFFFFFFFFFFFFFF AND PUSH20 0xFFFFFFFFFFFFFFFFFFFFFFFFFFFFFFFFFFFFFFFF AND DUP2 MSTORE PUSH1 0x20 ADD PUSH3 0x1A81 DUP6 PUSH3 0xE5E JUMP JUMPDEST PUSH20 0xFFFFFFFFFFFFFFFFFFFFFFFFFFFFFFFFFFFFFFFF AND PUSH20 0xFFFFFFFFFFFFFFFFFFFFFFFFFFFFFFFFFFFFFFFF AND DUP2 MSTORE POP SWAP1 POP PUSH1 0x0 JUMPDEST PUSH1 0x1 DUP2 GT PUSH3 0x1C14 JUMPI PUSH1 0x0 PUSH1 0x4 PUSH1 0x0 DUP7 DUP2 MSTORE PUSH1 0x20 ADD SWAP1 DUP2 MSTORE PUSH1 0x20 ADD PUSH1 0x0 KECCAK256 DUP3 PUSH1 0x2 DUP2 LT PUSH3 0x1AE8 JUMPI PUSH3 0x1AE7 PUSH3 0x3B67 JUMP JUMPDEST JUMPDEST ADD SLOAD SWAP1 POP PUSH1 0x0 DUP2 EQ PUSH3 0x1BFD JUMPI PUSH1 0x0 PUSH1 0x3 PUSH1 0x0 SWAP1 SLOAD SWAP1 PUSH2 0x100 EXP SWAP1 DIV PUSH20 0xFFFFFFFFFFFFFFFFFFFFFFFFFFFFFFFFFFFFFFFF AND PUSH20 0xFFFFFFFFFFFFFFFFFFFFFFFFFFFFFFFFFFFFFFFF AND PUSH4 0xA9059CBB DUP6 DUP6 PUSH1 0x2 DUP2 LT PUSH3 0x1B4B JUMPI PUSH3 0x1B4A PUSH3 0x3B67 JUMP JUMPDEST JUMPDEST PUSH1 0x20 MUL ADD MLOAD DUP5 PUSH1 0x40 MLOAD DUP4 PUSH4 0xFFFFFFFF AND PUSH1 0xE0 SHL DUP2 MSTORE PUSH1 0x4 ADD PUSH3 0x1B70 SWAP3 SWAP2 SWAP1 PUSH3 0x3587 JUMP JUMPDEST PUSH1 0x20 PUSH1 0x40 MLOAD DUP1 DUP4 SUB DUP2 PUSH1 0x0 DUP8 GAS CALL ISZERO DUP1 ISZERO PUSH3 0x1B90 JUMPI RETURNDATASIZE PUSH1 0x0 DUP1 RETURNDATACOPY RETURNDATASIZE PUSH1 0x0 REVERT JUMPDEST POP POP POP POP PUSH1 0x40 MLOAD RETURNDATASIZE PUSH1 0x1F NOT PUSH1 0x1F DUP3 ADD AND DUP3 ADD DUP1 PUSH1 0x40 MSTORE POP DUP2 ADD SWAP1 PUSH3 0x1BB6 SWAP2 SWAP1 PUSH3 0x35CB JUMP JUMPDEST SWAP1 POP DUP1 PUSH3 0x1BFB JUMPI PUSH1 0x40 MLOAD PUSH32 0x8C379A000000000000000000000000000000000000000000000000000000000 DUP2 MSTORE PUSH1 0x4 ADD PUSH3 0x1BF2 SWAP1 PUSH3 0x3DCC JUMP JUMPDEST PUSH1 0x40 MLOAD DUP1 SWAP2 SUB SWAP1 REVERT JUMPDEST POP JUMPDEST POP DUP1 DUP1 PUSH3 0x1C0B SWAP1 PUSH3 0x3DEE JUMP JUMPDEST SWAP2 POP POP PUSH3 0x1AB5 JUMP JUMPDEST POP PUSH3 0x1C20 DUP4 PUSH3 0x2FB9 JUMP JUMPDEST PUSH1 0x1 SWAP2 POP POP SWAP2 SWAP1 POP JUMP JUMPDEST PUSH3 0x1C34 PUSH3 0x300E JUMP JUMPDEST PUSH20 0xFFFFFFFFFFFFFFFFFFFFFFFFFFFFFFFFFFFFFFFF AND PUSH3 0x1C54 PUSH3 0xDB3 JUMP JUMPDEST PUSH20 0xFFFFFFFFFFFFFFFFFFFFFFFFFFFFFFFFFFFFFFFF AND EQ PUSH3 0x1CAD JUMPI PUSH1 0x40 MLOAD PUSH32 0x8C379A000000000000000000000000000000000000000000000000000000000 DUP2 MSTORE PUSH1 0x4 ADD PUSH3 0x1CA4 SWAP1 PUSH3 0x3E8C JUMP JUMPDEST PUSH1 0x40 MLOAD DUP1 SWAP2 SUB SWAP1 REVERT JUMPDEST JUMP JUMPDEST DUP1 PUSH1 0x2 PUSH1 0x4 DUP2 GT ISZERO PUSH3 0x1CC7 JUMPI PUSH3 0x1CC6 PUSH3 0x38E2 JUMP JUMPDEST JUMPDEST PUSH1 0x1 PUSH1 0x0 DUP4 DUP2 MSTORE PUSH1 0x20 ADD SWAP1 DUP2 MSTORE PUSH1 0x20 ADD PUSH1 0x0 KECCAK256 PUSH1 0x0 SWAP1 SLOAD SWAP1 PUSH2 0x100 EXP SWAP1 DIV PUSH20 0xFFFFFFFFFFFFFFFFFFFFFFFFFFFFFFFFFFFFFFFF AND PUSH20 0xFFFFFFFFFFFFFFFFFFFFFFFFFFFFFFFFFFFFFFFF AND PUSH4 0x200D2ED2 PUSH1 0x40 MLOAD DUP2 PUSH4 0xFFFFFFFF AND PUSH1 0xE0 SHL DUP2 MSTORE PUSH1 0x4 ADD PUSH1 0x20 PUSH1 0x40 MLOAD DUP1 DUP4 SUB DUP2 DUP7 GAS STATICCALL ISZERO DUP1 ISZERO PUSH3 0x1D46 JUMPI RETURNDATASIZE PUSH1 0x0 DUP1 RETURNDATACOPY RETURNDATASIZE PUSH1 0x0 REVERT JUMPDEST POP POP POP POP PUSH1 0x40 MLOAD RETURNDATASIZE PUSH1 0x1F NOT PUSH1 0x1F DUP3 ADD AND DUP3 ADD DUP1 PUSH1 0x40 MSTORE POP DUP2 ADD SWAP1 PUSH3 0x1D6C SWAP2 SWAP1 PUSH3 0x3939 JUMP JUMPDEST PUSH1 0x4 DUP2 GT ISZERO PUSH3 0x1D81 JUMPI PUSH3 0x1D80 PUSH3 0x38E2 JUMP JUMPDEST JUMPDEST EQ PUSH3 0x1DC4 JUMPI PUSH1 0x40 MLOAD PUSH32 0x8C379A000000000000000000000000000000000000000000000000000000000 DUP2 MSTORE PUSH1 0x4 ADD PUSH3 0x1DBB SWAP1 PUSH3 0x3D5A JUMP JUMPDEST PUSH1 0x40 MLOAD DUP1 SWAP2 SUB SWAP1 REVERT JUMPDEST PUSH1 0x0 PUSH1 0x1 PUSH1 0x0 DUP5 DUP2 MSTORE PUSH1 0x20 ADD SWAP1 DUP2 MSTORE PUSH1 0x20 ADD PUSH1 0x0 KECCAK256 PUSH1 0x0 SWAP1 SLOAD SWAP1 PUSH2 0x100 EXP SWAP1 DIV PUSH20 0xFFFFFFFFFFFFFFFFFFFFFFFFFFFFFFFFFFFFFFFF AND PUSH20 0xFFFFFFFFFFFFFFFFFFFFFFFFFFFFFFFFFFFFFFFF AND PUSH4 0xA2E800AD PUSH1 0x40 MLOAD DUP2 PUSH4 0xFFFFFFFF AND PUSH1 0xE0 SHL DUP2 MSTORE PUSH1 0x4 ADD PUSH1 0x20 PUSH1 0x40 MLOAD DUP1 DUP4 SUB DUP2 DUP7 GAS STATICCALL ISZERO DUP1 ISZERO PUSH3 0x1E45 JUMPI RETURNDATASIZE PUSH1 0x0 DUP1 RETURNDATACOPY RETURNDATASIZE PUSH1 0x0 REVERT JUMPDEST POP POP POP POP PUSH1 0x40 MLOAD RETURNDATASIZE PUSH1 0x1F NOT PUSH1 0x1F DUP3 ADD AND DUP3 ADD DUP1 PUSH1 0x40 MSTORE POP DUP2 ADD SWAP1 PUSH3 0x1E6B SWAP2 SWAP1 PUSH3 0x3C5A JUMP JUMPDEST SWAP1 POP PUSH1 0x0 DUP2 PUSH4 0xFFFFFFFF AND GT PUSH3 0x1EB9 JUMPI PUSH1 0x40 MLOAD PUSH32 0x8C379A000000000000000000000000000000000000000000000000000000000 DUP2 MSTORE PUSH1 0x4 ADD PUSH3 0x1EB0 SWAP1 PUSH3 0x3EFE JUMP JUMPDEST PUSH1 0x40 MLOAD DUP1 SWAP2 SUB SWAP1 REVERT JUMPDEST PUSH3 0x24EA00 PUSH1 0x2 PUSH1 0x0 DUP6 DUP2 MSTORE PUSH1 0x20 ADD SWAP1 DUP2 MSTORE PUSH1 0x20 ADD PUSH1 0x0 KECCAK256 PUSH1 0x0 DUP3 DUP3 SLOAD PUSH3 0x1EE1 SWAP2 SWAP1 PUSH3 0x3A32 JUMP JUMPDEST SWAP3 POP POP DUP2 SWAP1 SSTORE POP PUSH3 0x1EF3 DUP4 PUSH3 0xC1C JUMP JUMPDEST PUSH20 0xFFFFFFFFFFFFFFFFFFFFFFFFFFFFFFFFFFFFFFFF AND PUSH4 0xD2895E93 PUSH1 0x1 DUP4 PUSH3 0x1F1D SWAP2 SWAP1 PUSH3 0x3C8C JUMP JUMPDEST PUSH1 0x40 MLOAD DUP3 PUSH4 0xFFFFFFFF AND PUSH1 0xE0 SHL DUP2 MSTORE PUSH1 0x4 ADD PUSH3 0x1F3B SWAP2 SWAP1 PUSH3 0x3CC7 JUMP JUMPDEST PUSH1 0x20 PUSH1 0x40 MLOAD DUP1 DUP4 SUB DUP2 PUSH1 0x0 DUP8 GAS CALL ISZERO DUP1 ISZERO PUSH3 0x1F5B JUMPI RETURNDATASIZE PUSH1 0x0 DUP1 RETURNDATACOPY RETURNDATASIZE PUSH1 0x0 REVERT JUMPDEST POP POP POP POP PUSH1 0x40 MLOAD RETURNDATASIZE PUSH1 0x1F NOT PUSH1 0x1F DUP3 ADD AND DUP3 ADD DUP1 PUSH1 0x40 MSTORE POP DUP2 ADD SWAP1 PUSH3 0x1F81 SWAP2 SWAP1 PUSH3 0x3C5A JUMP JUMPDEST POP POP POP POP JUMP JUMPDEST PUSH1 0x0 TIMESTAMP SWAP1 POP DUP1 PUSH1 0x2 PUSH1 0x0 DUP5 DUP2 MSTORE PUSH1 0x20 ADD SWAP1 DUP2 MSTORE PUSH1 0x20 ADD PUSH1 0x0 KECCAK256 SLOAD GT ISZERO PUSH3 0x1FE5 JUMPI PUSH1 0x40 MLOAD PUSH32 0x8C379A000000000000000000000000000000000000000000000000000000000 DUP2 MSTORE PUSH1 0x4 ADD PUSH3 0x1FDC SWAP1 PUSH3 0x3F96 JUMP JUMPDEST PUSH1 0x40 MLOAD DUP1 SWAP2 SUB SWAP1 REVERT JUMPDEST PUSH1 0x0 PUSH3 0x1FF2 DUP4 PUSH3 0xC1C JUMP JUMPDEST PUSH20 0xFFFFFFFFFFFFFFFFFFFFFFFFFFFFFFFFFFFFFFFF AND PUSH4 0xE0A73A93 PUSH1 0x40 MLOAD DUP2 PUSH4 0xFFFFFFFF AND PUSH1 0xE0 SHL DUP2 MSTORE PUSH1 0x4 ADD PUSH1 0x20 PUSH1 0x40 MLOAD DUP1 DUP4 SUB DUP2 DUP7 GAS STATICCALL ISZERO DUP1 ISZERO PUSH3 0x203D JUMPI RETURNDATASIZE PUSH1 0x0 DUP1 RETURNDATACOPY RETURNDATASIZE PUSH1 0x0 REVERT JUMPDEST POP POP POP POP PUSH1 0x40 MLOAD RETURNDATASIZE PUSH1 0x1F NOT PUSH1 0x1F DUP3 ADD AND DUP3 ADD DUP1 PUSH1 0x40 MSTORE POP DUP2 ADD SWAP1 PUSH3 0x2063 SWAP2 SWAP1 PUSH3 0x3614 JUMP JUMPDEST SWAP1 POP DUP1 PUSH1 0x4 PUSH1 0x0 DUP6 DUP2 MSTORE PUSH1 0x20 ADD SWAP1 DUP2 MSTORE PUSH1 0x20 ADD PUSH1 0x0 KECCAK256 PUSH1 0x0 PUSH1 0x2 DUP2 LT PUSH3 0x208F JUMPI PUSH3 0x208E PUSH3 0x3B67 JUMP JUMPDEST JUMPDEST ADD SLOAD LT ISZERO PUSH3 0x20D5 JUMPI PUSH1 0x40 MLOAD PUSH32 0x8C379A000000000000000000000000000000000000000000000000000000000 DUP2 MSTORE PUSH1 0x4 ADD PUSH3 0x20CC SWAP1 PUSH3 0x4008 JUMP JUMPDEST PUSH1 0x40 MLOAD DUP1 SWAP2 SUB SWAP1 REVERT JUMPDEST PUSH1 0x0 PUSH1 0x3 PUSH1 0x0 SWAP1 SLOAD SWAP1 PUSH2 0x100 EXP SWAP1 DIV PUSH20 0xFFFFFFFFFFFFFFFFFFFFFFFFFFFFFFFFFFFFFFFF AND PUSH20 0xFFFFFFFFFFFFFFFFFFFFFFFFFFFFFFFFFFFFFFFF AND PUSH4 0xA9059CBB PUSH3 0x2120 DUP7 PUSH3 0xE5E JUMP JUMPDEST DUP5 PUSH1 0x40 MLOAD DUP4 PUSH4 0xFFFFFFFF AND PUSH1 0xE0 SHL DUP2 MSTORE PUSH1 0x4 ADD PUSH3 0x2140 SWAP3 SWAP2 SWAP1 PUSH3 0x3587 JUMP JUMPDEST PUSH1 0x20 PUSH1 0x40 MLOAD DUP1 DUP4 SUB DUP2 PUSH1 0x0 DUP8 GAS CALL ISZERO DUP1 ISZERO PUSH3 0x2160 JUMPI RETURNDATASIZE PUSH1 0x0 DUP1 RETURNDATACOPY RETURNDATASIZE PUSH1 0x0 REVERT JUMPDEST POP POP POP POP PUSH1 0x40 MLOAD RETURNDATASIZE PUSH1 0x1F NOT PUSH1 0x1F DUP3 ADD AND DUP3 ADD DUP1 PUSH1 0x40 MSTORE POP DUP2 ADD SWAP1 PUSH3 0x2186 SWAP2 SWAP1 PUSH3 0x35CB JUMP JUMPDEST SWAP1 POP DUP1 PUSH3 0x21CB JUMPI PUSH1 0x40 MLOAD PUSH32 0x8C379A000000000000000000000000000000000000000000000000000000000 DUP2 MSTORE PUSH1 0x4 ADD PUSH3 0x21C2 SWAP1 PUSH3 0x407A JUMP JUMPDEST PUSH1 0x40 MLOAD DUP1 SWAP2 SUB SWAP1 REVERT JUMPDEST DUP2 PUSH1 0x4 PUSH1 0x0 DUP7 DUP2 MSTORE PUSH1 0x20 ADD SWAP1 DUP2 MSTORE PUSH1 0x20 ADD PUSH1 0x0 KECCAK256 PUSH1 0x0 PUSH1 0x2 DUP2 LT PUSH3 0x21F5 JUMPI PUSH3 0x21F4 PUSH3 0x3B67 JUMP JUMPDEST JUMPDEST ADD PUSH1 0x0 DUP3 DUP3 SLOAD PUSH3 0x2207 SWAP2 SWAP1 PUSH3 0x3C08 JUMP JUMPDEST SWAP3 POP POP DUP2 SWAP1 SSTORE POP POP POP POP POP JUMP JUMPDEST DUP1 PUSH1 0x2 PUSH1 0x4 DUP2 GT ISZERO PUSH3 0x222C JUMPI PUSH3 0x222B PUSH3 0x38E2 JUMP JUMPDEST JUMPDEST PUSH1 0x1 PUSH1 0x0 DUP4 DUP2 MSTORE PUSH1 0x20 ADD SWAP1 DUP2 MSTORE PUSH1 0x20 ADD PUSH1 0x0 KECCAK256 PUSH1 0x0 SWAP1 SLOAD SWAP1 PUSH2 0x100 EXP SWAP1 DIV PUSH20 0xFFFFFFFFFFFFFFFFFFFFFFFFFFFFFFFFFFFFFFFF AND PUSH20 0xFFFFFFFFFFFFFFFFFFFFFFFFFFFFFFFFFFFFFFFF AND PUSH4 0x200D2ED2 PUSH1 0x40 MLOAD DUP2 PUSH4 0xFFFFFFFF AND PUSH1 0xE0 SHL DUP2 MSTORE PUSH1 0x4 ADD PUSH1 0x20 PUSH1 0x40 MLOAD DUP1 DUP4 SUB DUP2 DUP7 GAS STATICCALL ISZERO DUP1 ISZERO PUSH3 0x22AB JUMPI RETURNDATASIZE PUSH1 0x0 DUP1 RETURNDATACOPY RETURNDATASIZE PUSH1 0x0 REVERT JUMPDEST POP POP POP POP PUSH1 0x40 MLOAD RETURNDATASIZE PUSH1 0x1F NOT PUSH1 0x1F DUP3 ADD AND DUP3 ADD DUP1 PUSH1 0x40 MSTORE POP DUP2 ADD SWAP1 PUSH3 0x22D1 SWAP2 SWAP1 PUSH3 0x3939 JUMP JUMPDEST PUSH1 0x4 DUP2 GT ISZERO PUSH3 0x22E6 JUMPI PUSH3 0x22E5 PUSH3 0x38E2 JUMP JUMPDEST JUMPDEST EQ PUSH3 0x2329 JUMPI PUSH1 0x40 MLOAD PUSH32 0x8C379A000000000000000000000000000000000000000000000000000000000 DUP2 MSTORE PUSH1 0x4 ADD PUSH3 0x2320 SWAP1 PUSH3 0x3D5A JUMP JUMPDEST PUSH1 0x40 MLOAD DUP1 SWAP2 SUB SWAP1 REVERT JUMPDEST PUSH3 0x2334 DUP3 PUSH3 0xC1C JUMP JUMPDEST PUSH20 0xFFFFFFFFFFFFFFFFFFFFFFFFFFFFFFFFFFFFFFFF AND PUSH4 0x2E49D78B PUSH1 0x3 PUSH1 0x40 MLOAD DUP3 PUSH4 0xFFFFFFFF AND PUSH1 0xE0 SHL DUP2 MSTORE PUSH1 0x4 ADD PUSH3 0x236F SWAP2 SWAP1 PUSH3 0x3B0D JUMP JUMPDEST PUSH1 0x20 PUSH1 0x40 MLOAD DUP1 DUP4 SUB DUP2 PUSH1 0x0 DUP8 GAS CALL ISZERO DUP1 ISZERO PUSH3 0x238F JUMPI RETURNDATASIZE PUSH1 0x0 DUP1 RETURNDATACOPY RETURNDATASIZE PUSH1 0x0 REVERT JUMPDEST POP POP POP POP PUSH1 0x40 MLOAD RETURNDATASIZE PUSH1 0x1F NOT PUSH1 0x1F DUP3 ADD AND DUP3 ADD DUP1 PUSH1 0x40 MSTORE POP DUP2 ADD SWAP1 PUSH3 0x23B5 SWAP2 SWAP1 PUSH3 0x3939 JUMP JUMPDEST POP POP POP JUMP JUMPDEST PUSH1 0x0 DUP1 PUSH3 0x23C8 DUP4 PUSH3 0xC1C JUMP JUMPDEST PUSH20 0xFFFFFFFFFFFFFFFFFFFFFFFFFFFFFFFFFFFFFFFF AND PUSH4 0xF26CC58E PUSH1 0x40 MLOAD DUP2 PUSH4 0xFFFFFFFF AND PUSH1 0xE0 SHL DUP2 MSTORE PUSH1 0x4 ADD PUSH1 0x20 PUSH1 0x40 MLOAD DUP1 DUP4 SUB DUP2 DUP7 GAS STATICCALL ISZERO DUP1 ISZERO PUSH3 0x2413 JUMPI RETURNDATASIZE PUSH1 0x0 DUP1 RETURNDATACOPY RETURNDATASIZE PUSH1 0x0 REVERT JUMPDEST POP POP POP POP PUSH1 0x40 MLOAD RETURNDATASIZE PUSH1 0x1F NOT PUSH1 0x1F DUP3 ADD AND DUP3 ADD DUP1 PUSH1 0x40 MSTORE POP DUP2 ADD SWAP1 PUSH3 0x2439 SWAP2 SWAP1 PUSH3 0x3614 JUMP JUMPDEST SWAP1 POP PUSH1 0x0 PUSH1 0x3 PUSH1 0x0 SWAP1 SLOAD SWAP1 PUSH2 0x100 EXP SWAP1 DIV PUSH20 0xFFFFFFFFFFFFFFFFFFFFFFFFFFFFFFFFFFFFFFFF AND PUSH20 0xFFFFFFFFFFFFFFFFFFFFFFFFFFFFFFFFFFFFFFFF AND PUSH4 0xA9059CBB PUSH3 0x2486 DUP7 PUSH3 0xC59 JUMP JUMPDEST PUSH1 0x4 PUSH1 0x0 DUP9 DUP2 MSTORE PUSH1 0x20 ADD SWAP1 DUP2 MSTORE PUSH1 0x20 ADD PUSH1 0x0 KECCAK256 PUSH1 0x0 PUSH1 0x2 DUP2 LT PUSH3 0x24AF JUMPI PUSH3 0x24AE PUSH3 0x3B67 JUMP JUMPDEST JUMPDEST ADD SLOAD DUP6 PUSH3 0x24BE SWAP2 SWAP1 PUSH3 0x3A32 JUMP JUMPDEST PUSH1 0x40 MLOAD DUP4 PUSH4 0xFFFFFFFF AND PUSH1 0xE0 SHL DUP2 MSTORE PUSH1 0x4 ADD PUSH3 0x24DD SWAP3 SWAP2 SWAP1 PUSH3 0x3587 JUMP JUMPDEST PUSH1 0x20 PUSH1 0x40 MLOAD DUP1 DUP4 SUB DUP2 PUSH1 0x0 DUP8 GAS CALL ISZERO DUP1 ISZERO PUSH3 0x24FD JUMPI RETURNDATASIZE PUSH1 0x0 DUP1 RETURNDATACOPY RETURNDATASIZE PUSH1 0x0 REVERT JUMPDEST POP POP POP POP PUSH1 0x40 MLOAD RETURNDATASIZE PUSH1 0x1F NOT PUSH1 0x1F DUP3 ADD AND DUP3 ADD DUP1 PUSH1 0x40 MSTORE POP DUP2 ADD SWAP1 PUSH3 0x2523 SWAP2 SWAP1 PUSH3 0x35CB JUMP JUMPDEST SWAP1 POP PUSH1 0x0 PUSH1 0x3 PUSH1 0x0 SWAP1 SLOAD SWAP1 PUSH2 0x100 EXP SWAP1 DIV PUSH20 0xFFFFFFFFFFFFFFFFFFFFFFFFFFFFFFFFFFFFFFFF AND PUSH20 0xFFFFFFFFFFFFFFFFFFFFFFFFFFFFFFFFFFFFFFFF AND PUSH4 0xA9059CBB PUSH3 0x2570 DUP8 PUSH3 0xE5E JUMP JUMPDEST DUP6 PUSH1 0x4 PUSH1 0x0 DUP11 DUP2 MSTORE PUSH1 0x20 ADD SWAP1 DUP2 MSTORE PUSH1 0x20 ADD PUSH1 0x0 KECCAK256 PUSH1 0x1 PUSH1 0x2 DUP2 LT PUSH3 0x259A JUMPI PUSH3 0x2599 PUSH3 0x3B67 JUMP JUMPDEST JUMPDEST ADD SLOAD PUSH3 0x25A8 SWAP2 SWAP1 PUSH3 0x3C08 JUMP JUMPDEST PUSH1 0x40 MLOAD DUP4 PUSH4 0xFFFFFFFF AND PUSH1 0xE0 SHL DUP2 MSTORE PUSH1 0x4 ADD PUSH3 0x25C7 SWAP3 SWAP2 SWAP1 PUSH3 0x3587 JUMP JUMPDEST PUSH1 0x20 PUSH1 0x40 MLOAD DUP1 DUP4 SUB DUP2 PUSH1 0x0 DUP8 GAS CALL ISZERO DUP1 ISZERO PUSH3 0x25E7 JUMPI RETURNDATASIZE PUSH1 0x0 DUP1 RETURNDATACOPY RETURNDATASIZE PUSH1 0x0 REVERT JUMPDEST POP POP POP POP PUSH1 0x40 MLOAD RETURNDATASIZE PUSH1 0x1F NOT PUSH1 0x1F DUP3 ADD AND DUP3 ADD DUP1 PUSH1 0x40 MSTORE POP DUP2 ADD SWAP1 PUSH3 0x260D SWAP2 SWAP1 PUSH3 0x35CB JUMP JUMPDEST SWAP1 POP DUP2 DUP1 ISZERO PUSH3 0x261A JUMPI POP DUP1 JUMPDEST PUSH3 0x265C JUMPI PUSH1 0x40 MLOAD PUSH32 0x8C379A000000000000000000000000000000000000000000000000000000000 DUP2 MSTORE PUSH1 0x4 ADD PUSH3 0x2653 SWAP1 PUSH3 0x40EC JUMP JUMPDEST PUSH1 0x40 MLOAD DUP1 SWAP2 SUB SWAP1 REVERT JUMPDEST PUSH3 0x2667 DUP6 PUSH3 0x2FB9 JUMP JUMPDEST DUP3 SWAP4 POP POP POP POP SWAP2 SWAP1 POP JUMP JUMPDEST DUP1 PUSH1 0x1 PUSH1 0x4 DUP2 GT ISZERO PUSH3 0x268A JUMPI PUSH3 0x2689 PUSH3 0x38E2 JUMP JUMPDEST JUMPDEST PUSH1 0x1 PUSH1 0x0 DUP4 DUP2 MSTORE PUSH1 0x20 ADD SWAP1 DUP2 MSTORE PUSH1 0x20 ADD PUSH1 0x0 KECCAK256 PUSH1 0x0 SWAP1 SLOAD SWAP1 PUSH2 0x100 EXP SWAP1 DIV PUSH20 0xFFFFFFFFFFFFFFFFFFFFFFFFFFFFFFFFFFFFFFFF AND PUSH20 0xFFFFFFFFFFFFFFFFFFFFFFFFFFFFFFFFFFFFFFFF AND PUSH4 0x200D2ED2 PUSH1 0x40 MLOAD DUP2 PUSH4 0xFFFFFFFF AND PUSH1 0xE0 SHL DUP2 MSTORE PUSH1 0x4 ADD PUSH1 0x20 PUSH1 0x40 MLOAD DUP1 DUP4 SUB DUP2 DUP7 GAS STATICCALL ISZERO DUP1 ISZERO PUSH3 0x2709 JUMPI RETURNDATASIZE PUSH1 0x0 DUP1 RETURNDATACOPY RETURNDATASIZE PUSH1 0x0 REVERT JUMPDEST POP POP POP POP PUSH1 0x40 MLOAD RETURNDATASIZE PUSH1 0x1F NOT PUSH1 0x1F DUP3 ADD AND DUP3 ADD DUP1 PUSH1 0x40 MSTORE POP DUP2 ADD SWAP1 PUSH3 0x272F SWAP2 SWAP1 PUSH3 0x3939 JUMP JUMPDEST PUSH1 0x4 DUP2 GT ISZERO PUSH3 0x2744 JUMPI PUSH3 0x2743 PUSH3 0x38E2 JUMP JUMPDEST JUMPDEST EQ PUSH3 0x2787 JUMPI PUSH1 0x40 MLOAD PUSH32 0x8C379A000000000000000000000000000000000000000000000000000000000 DUP2 MSTORE PUSH1 0x4 ADD PUSH3 0x277E SWAP1 PUSH3 0x39E1 JUMP JUMPDEST PUSH1 0x40 MLOAD DUP1 SWAP2 SUB SWAP1 REVERT JUMPDEST PUSH3 0x2792 DUP3 PUSH3 0xC1C JUMP JUMPDEST PUSH20 0xFFFFFFFFFFFFFFFFFFFFFFFFFFFFFFFFFFFFFFFF AND PUSH4 0x2E49D78B PUSH1 0x0 PUSH1 0x40 MLOAD DUP3 PUSH4 0xFFFFFFFF AND PUSH1 0xE0 SHL DUP2 MSTORE PUSH1 0x4 ADD PUSH3 0x27CD SWAP2 SWAP1 PUSH3 0x3B0D JUMP JUMPDEST PUSH1 0x20 PUSH1 0x40 MLOAD DUP1 DUP4 SUB DUP2 PUSH1 0x0 DUP8 GAS CALL ISZERO DUP1 ISZERO PUSH3 0x27ED JUMPI RETURNDATASIZE PUSH1 0x0 DUP1 RETURNDATACOPY RETURNDATASIZE PUSH1 0x0 REVERT JUMPDEST POP POP POP POP PUSH1 0x40 MLOAD RETURNDATASIZE PUSH1 0x1F NOT PUSH1 0x1F DUP3 ADD AND DUP3 ADD DUP1 PUSH1 0x40 MSTORE POP DUP2 ADD SWAP1 PUSH3 0x2813 SWAP2 SWAP1 PUSH3 0x3939 JUMP JUMPDEST POP POP POP JUMP JUMPDEST PUSH1 0x0 TIMESTAMP SWAP1 POP DUP1 PUSH3 0x3F480 PUSH1 0x2 PUSH1 0x0 DUP6 DUP2 MSTORE PUSH1 0x20 ADD SWAP1 DUP2 MSTORE PUSH1 0x20 ADD PUSH1 0x0 KECCAK256 SLOAD PUSH3 0x2842 SWAP2 SWAP1 PUSH3 0x3C08 JUMP JUMPDEST GT ISZERO DUP1 ISZERO PUSH3 0x2864 JUMPI POP PUSH1 0x2 PUSH1 0x0 DUP4 DUP2 MSTORE PUSH1 0x20 ADD SWAP1 DUP2 MSTORE PUSH1 0x20 ADD PUSH1 0x0 KECCAK256 SLOAD DUP2 GT ISZERO JUMPDEST PUSH3 0x28A6 JUMPI PUSH1 0x40 MLOAD PUSH32 0x8C379A000000000000000000000000000000000000000000000000000000000 DUP2 MSTORE PUSH1 0x4 ADD PUSH3 0x289D SWAP1 PUSH3 0x415E JUMP JUMPDEST PUSH1 0x40 MLOAD DUP1 SWAP2 SUB SWAP1 REVERT JUMPDEST PUSH1 0x0 PUSH3 0x28B3 DUP4 PUSH3 0xC1C JUMP JUMPDEST PUSH20 0xFFFFFFFFFFFFFFFFFFFFFFFFFFFFFFFFFFFFFFFF AND PUSH4 0xE0A73A93 PUSH1 0x40 MLOAD DUP2 PUSH4 0xFFFFFFFF AND PUSH1 0xE0 SHL DUP2 MSTORE PUSH1 0x4 ADD PUSH1 0x20 PUSH1 0x40 MLOAD DUP1 DUP4 SUB DUP2 DUP7 GAS STATICCALL ISZERO DUP1 ISZERO PUSH3 0x28FE JUMPI RETURNDATASIZE PUSH1 0x0 DUP1 RETURNDATACOPY RETURNDATASIZE PUSH1 0x0 REVERT JUMPDEST POP POP POP POP PUSH1 0x40 MLOAD RETURNDATASIZE PUSH1 0x1F NOT PUSH1 0x1F DUP3 ADD AND DUP3 ADD DUP1 PUSH1 0x40 MSTORE POP DUP2 ADD SWAP1 PUSH3 0x2924 SWAP2 SWAP1 PUSH3 0x3614 JUMP JUMPDEST SWAP1 POP PUSH1 0x0 PUSH1 0x3 PUSH1 0x0 SWAP1 SLOAD SWAP1 PUSH2 0x100 EXP SWAP1 DIV PUSH20 0xFFFFFFFFFFFFFFFFFFFFFFFFFFFFFFFFFFFFFFFF AND PUSH20 0xFFFFFFFFFFFFFFFFFFFFFFFFFFFFFFFFFFFFFFFF AND PUSH4 0x23B872DD PUSH3 0x2971 DUP7 PUSH3 0xC59 JUMP JUMPDEST PUSH3 0x297C DUP8 PUSH3 0xE5E JUMP JUMPDEST DUP6 PUSH1 0x40 MLOAD DUP5 PUSH4 0xFFFFFFFF AND PUSH1 0xE0 SHL DUP2 MSTORE PUSH1 0x4 ADD PUSH3 0x299D SWAP4 SWAP3 SWAP2 SWAP1 PUSH3 0x3B2A JUMP JUMPDEST PUSH1 0x20 PUSH1 0x40 MLOAD DUP1 DUP4 SUB DUP2 PUSH1 0x0 DUP8 GAS CALL ISZERO DUP1 ISZERO PUSH3 0x29BD JUMPI RETURNDATASIZE PUSH1 0x0 DUP1 RETURNDATACOPY RETURNDATASIZE PUSH1 0x0 REVERT JUMPDEST POP POP POP POP PUSH1 0x40 MLOAD RETURNDATASIZE PUSH1 0x1F NOT PUSH1 0x1F DUP3 ADD AND DUP3 ADD DUP1 PUSH1 0x40 MSTORE POP DUP2 ADD SWAP1 PUSH3 0x29E3 SWAP2 SWAP1 PUSH3 0x35CB JUMP JUMPDEST SWAP1 POP DUP1 PUSH3 0x2A28 JUMPI PUSH1 0x40 MLOAD PUSH32 0x8C379A000000000000000000000000000000000000000000000000000000000 DUP2 MSTORE PUSH1 0x4 ADD PUSH3 0x2A1F SWAP1 PUSH3 0x407A JUMP JUMPDEST PUSH1 0x40 MLOAD DUP1 SWAP2 SUB SWAP1 REVERT JUMPDEST POP POP POP POP JUMP JUMPDEST PUSH1 0x0 PUSH1 0x5 PUSH1 0x0 SWAP1 SLOAD SWAP1 PUSH2 0x100 EXP SWAP1 DIV PUSH20 0xFFFFFFFFFFFFFFFFFFFFFFFFFFFFFFFFFFFFFFFF AND SWAP1 POP DUP2 PUSH1 0x5 PUSH1 0x0 PUSH2 0x100 EXP DUP2 SLOAD DUP2 PUSH20 0xFFFFFFFFFFFFFFFFFFFFFFFFFFFFFFFFFFFFFFFF MUL NOT AND SWAP1 DUP4 PUSH20 0xFFFFFFFFFFFFFFFFFFFFFFFFFFFFFFFFFFFFFFFF AND MUL OR SWAP1 SSTORE POP DUP2 PUSH20 0xFFFFFFFFFFFFFFFFFFFFFFFFFFFFFFFFFFFFFFFF AND DUP2 PUSH20 0xFFFFFFFFFFFFFFFFFFFFFFFFFFFFFFFFFFFFFFFF AND PUSH32 0x8BE0079C531659141344CD1FD0A4F28419497F9722A3DAAFE3B4186F6B6457E0 PUSH1 0x40 MLOAD PUSH1 0x40 MLOAD DUP1 SWAP2 SUB SWAP1 LOG3 POP POP JUMP JUMPDEST PUSH1 0x0 PUSH3 0x2B02 PUSH1 0x0 PUSH3 0x3016 JUMP JUMPDEST PUSH1 0x0 PUSH3 0x2B10 PUSH1 0x0 PUSH3 0x302C JUMP JUMPDEST SWAP1 POP PUSH1 0x0 DUP10 DUP10 DUP10 DUP9 DUP11 DUP10 DUP10 PUSH1 0x40 MLOAD PUSH3 0x2B29 SWAP1 PUSH3 0x304D JUMP JUMPDEST PUSH3 0x2B3B SWAP8 SWAP7 SWAP6 SWAP5 SWAP4 SWAP3 SWAP2 SWAP1 PUSH3 0x4180 JUMP JUMPDEST PUSH1 0x40 MLOAD DUP1 SWAP2 SUB SWAP1 PUSH1 0x0 CREATE DUP1 ISZERO DUP1 ISZERO PUSH3 0x2B58 JUMPI RETURNDATASIZE PUSH1 0x0 DUP1 RETURNDATACOPY RETURNDATASIZE PUSH1 0x0 REVERT JUMPDEST POP SWAP1 POP DUP1 PUSH1 0x1 PUSH1 0x0 DUP5 DUP2 MSTORE PUSH1 0x20 ADD SWAP1 DUP2 MSTORE PUSH1 0x20 ADD PUSH1 0x0 KECCAK256 PUSH1 0x0 PUSH2 0x100 EXP DUP2 SLOAD DUP2 PUSH20 0xFFFFFFFFFFFFFFFFFFFFFFFFFFFFFFFFFFFFFFFF MUL NOT AND SWAP1 DUP4 PUSH20 0xFFFFFFFFFFFFFFFFFFFFFFFFFFFFFFFFFFFFFFFF AND MUL OR SWAP1 SSTORE POP DUP1 PUSH20 0xFFFFFFFFFFFFFFFFFFFFFFFFFFFFFFFFFFFFFFFF AND PUSH4 0xBAB215F8 CALLER DUP14 PUSH1 0x40 MLOAD DUP4 PUSH4 0xFFFFFFFF AND PUSH1 0xE0 SHL DUP2 MSTORE PUSH1 0x4 ADD PUSH3 0x2BEA SWAP3 SWAP2 SWAP1 PUSH3 0x3A8F JUMP JUMPDEST PUSH1 0x0 PUSH1 0x40 MLOAD DUP1 DUP4 SUB DUP2 PUSH1 0x0 DUP8 DUP1 EXTCODESIZE ISZERO DUP1 ISZERO PUSH3 0x2C05 JUMPI PUSH1 0x0 DUP1 REVERT JUMPDEST POP GAS CALL ISZERO DUP1 ISZERO PUSH3 0x2C1A JUMPI RETURNDATASIZE PUSH1 0x0 DUP1 RETURNDATACOPY RETURNDATASIZE PUSH1 0x0 REVERT JUMPDEST POP POP POP POP DUP2 SWAP3 POP POP POP SWAP9 SWAP8 POP POP POP POP POP POP POP POP JUMP JUMPDEST DUP1 PUSH3 0x2C3B DUP2 PUSH3 0xE5E JUMP JUMPDEST PUSH20 0xFFFFFFFFFFFFFFFFFFFFFFFFFFFFFFFFFFFFFFFF AND CALLER PUSH20 0xFFFFFFFFFFFFFFFFFFFFFFFFFFFFFFFFFFFFFFFF AND EQ PUSH3 0x2CAB JUMPI PUSH1 0x40 MLOAD PUSH32 0x8C379A000000000000000000000000000000000000000000000000000000000 DUP2 MSTORE PUSH1 0x4 ADD PUSH3 0x2CA2 SWAP1 PUSH3 0x424D JUMP JUMPDEST PUSH1 0x40 MLOAD DUP1 SWAP2 SUB SWAP1 REVERT JUMPDEST DUP2 PUSH1 0x2 PUSH1 0x4 DUP2 GT ISZERO PUSH3 0x2CC3 JUMPI PUSH3 0x2CC2 PUSH3 0x38E2 JUMP JUMPDEST JUMPDEST PUSH1 0x1 PUSH1 0x0 DUP4 DUP2 MSTORE PUSH1 0x20 ADD SWAP1 DUP2 MSTORE PUSH1 0x20 ADD PUSH1 0x0 KECCAK256 PUSH1 0x0 SWAP1 SLOAD SWAP1 PUSH2 0x100 EXP SWAP1 DIV PUSH20 0xFFFFFFFFFFFFFFFFFFFFFFFFFFFFFFFFFFFFFFFF AND PUSH20 0xFFFFFFFFFFFFFFFFFFFFFFFFFFFFFFFFFFFFFFFF AND PUSH4 0x200D2ED2 PUSH1 0x40 MLOAD DUP2 PUSH4 0xFFFFFFFF AND PUSH1 0xE0 SHL DUP2 MSTORE PUSH1 0x4 ADD PUSH1 0x20 PUSH1 0x40 MLOAD DUP1 DUP4 SUB DUP2 DUP7 GAS STATICCALL ISZERO DUP1 ISZERO PUSH3 0x2D42 JUMPI RETURNDATASIZE PUSH1 0x0 DUP1 RETURNDATACOPY RETURNDATASIZE PUSH1 0x0 REVERT JUMPDEST POP POP POP POP PUSH1 0x40 MLOAD RETURNDATASIZE PUSH1 0x1F NOT PUSH1 0x1F DUP3 ADD AND DUP3 ADD DUP1 PUSH1 0x40 MSTORE POP DUP2 ADD SWAP1 PUSH3 0x2D68 SWAP2 SWAP1 PUSH3 0x3939 JUMP JUMPDEST PUSH1 0x4 DUP2 GT ISZERO PUSH3 0x2D7D JUMPI PUSH3 0x2D7C PUSH3 0x38E2 JUMP JUMPDEST JUMPDEST EQ PUSH3 0x2DC0 JUMPI PUSH1 0x40 MLOAD PUSH32 0x8C379A000000000000000000000000000000000000000000000000000000000 DUP2 MSTORE PUSH1 0x4 ADD PUSH3 0x2DB7 SWAP1 PUSH3 0x3D5A JUMP JUMPDEST PUSH1 0x40 MLOAD DUP1 SWAP2 SUB SWAP1 REVERT JUMPDEST PUSH1 0x0 PUSH3 0x2DCD DUP5 PUSH3 0xC1C JUMP JUMPDEST PUSH20 0xFFFFFFFFFFFFFFFFFFFFFFFFFFFFFFFFFFFFFFFF AND PUSH4 0xA2E800AD PUSH1 0x40 MLOAD DUP2 PUSH4 0xFFFFFFFF AND PUSH1 0xE0 SHL DUP2 MSTORE PUSH1 0x4 ADD PUSH1 0x20 PUSH1 0x40 MLOAD DUP1 DUP4 SUB DUP2 DUP7 GAS STATICCALL ISZERO DUP1 ISZERO PUSH3 0x2E18 JUMPI RETURNDATASIZE PUSH1 0x0 DUP1 RETURNDATACOPY RETURNDATASIZE PUSH1 0x0 REVERT JUMPDEST POP POP POP POP PUSH1 0x40 MLOAD RETURNDATASIZE PUSH1 0x1F NOT PUSH1 0x1F DUP3 ADD AND DUP3 ADD DUP1 PUSH1 0x40 MSTORE POP DUP2 ADD SWAP1 PUSH3 0x2E3E SWAP2 SWAP1 PUSH3 0x3C5A JUMP JUMPDEST SWAP1 POP PUSH1 0x0 PUSH1 0x2 PUSH1 0x0 DUP7 DUP2 MSTORE PUSH1 0x20 ADD SWAP1 DUP2 MSTORE PUSH1 0x20 ADD PUSH1 0x0 KECCAK256 SLOAD TIMESTAMP LT ISZERO DUP1 ISZERO PUSH3 0x2E6C JUMPI POP PUSH1 0x0 DUP3 PUSH4 0xFFFFFFFF AND EQ JUMPDEST SWAP1 POP PUSH1 0x0 PUSH1 0x2 PUSH1 0x0 DUP8 DUP2 MSTORE PUSH1 0x20 ADD SWAP1 DUP2 MSTORE PUSH1 0x20 ADD PUSH1 0x0 KECCAK256 SLOAD TIMESTAMP LT ISZERO DUP1 ISZERO PUSH3 0x2EBE JUMPI POP PUSH1 0x0 PUSH1 0x4 PUSH1 0x0 DUP9 DUP2 MSTORE PUSH1 0x20 ADD SWAP1 DUP2 MSTORE PUSH1 0x20 ADD PUSH1 0x0 KECCAK256 PUSH1 0x0 PUSH1 0x2 DUP2 LT PUSH3 0x2EBA JUMPI PUSH3 0x2EB9 PUSH3 0x3B67 JUMP JUMPDEST JUMPDEST ADD SLOAD EQ JUMPDEST SWAP1 POP DUP1 DUP1 PUSH3 0x2ECA JUMPI POP DUP2 JUMPDEST PUSH3 0x2F0C JUMPI PUSH1 0x40 MLOAD PUSH32 0x8C379A000000000000000000000000000000000000000000000000000000000 DUP2 MSTORE PUSH1 0x4 ADD PUSH3 0x2F03 SWAP1 PUSH3 0x42BF JUMP JUMPDEST PUSH1 0x40 MLOAD DUP1 SWAP2 SUB SWAP1 REVERT JUMPDEST PUSH3 0x2F17 DUP7 PUSH3 0xC1C JUMP JUMPDEST PUSH20 0xFFFFFFFFFFFFFFFFFFFFFFFFFFFFFFFFFFFFFFFF AND PUSH4 0x2E49D78B PUSH1 0x4 PUSH1 0x40 MLOAD DUP3 PUSH4 0xFFFFFFFF AND PUSH1 0xE0 SHL DUP2 MSTORE PUSH1 0x4 ADD PUSH3 0x2F52 SWAP2 SWAP1 PUSH3 0x3B0D JUMP JUMPDEST PUSH1 0x20 PUSH1 0x40 MLOAD DUP1 DUP4 SUB DUP2 PUSH1 0x0 DUP8 GAS CALL ISZERO DUP1 ISZERO PUSH3 0x2F72 JUMPI RETURNDATASIZE PUSH1 0x0 DUP1 RETURNDATACOPY RETURNDATASIZE PUSH1 0x0 REVERT JUMPDEST POP POP POP POP PUSH1 0x40 MLOAD RETURNDATASIZE PUSH1 0x1F NOT PUSH1 0x1F DUP3 ADD AND DUP3 ADD DUP1 PUSH1 0x40 MSTORE POP DUP2 ADD SWAP1 PUSH3 0x2F98 SWAP2 SWAP1 PUSH3 0x3939 JUMP JUMPDEST POP POP POP POP POP POP POP JUMP JUMPDEST PUSH1 0x0 DUP2 DUP4 PUSH3 0x2FB1 SWAP2 SWAP1 PUSH3 0x42E1 JUMP JUMPDEST SWAP1 POP SWAP3 SWAP2 POP POP JUMP JUMPDEST PUSH1 0x0 JUMPDEST PUSH1 0x1 DUP2 GT PUSH3 0x300A JUMPI PUSH1 0x0 PUSH1 0x4 PUSH1 0x0 DUP5 DUP2 MSTORE PUSH1 0x20 ADD SWAP1 DUP2 MSTORE PUSH1 0x20 ADD PUSH1 0x0 KECCAK256 DUP3 PUSH1 0x2 DUP2 LT PUSH3 0x2FEF JUMPI PUSH3 0x2FEE PUSH3 0x3B67 JUMP JUMPDEST JUMPDEST ADD DUP2 SWAP1 SSTORE POP DUP1 DUP1 PUSH3 0x3001 SWAP1 PUSH3 0x3DEE JUMP JUMPDEST SWAP2 POP POP PUSH3 0x2FBC JUMP JUMPDEST POP POP JUMP JUMPDEST PUSH1 0x0 CALLER SWAP1 POP SWAP1 JUMP JUMPDEST PUSH1 0x1 DUP2 PUSH1 0x0 ADD PUSH1 0x0 DUP3 DUP3 SLOAD ADD SWAP3 POP POP DUP2 SWAP1 SSTORE POP POP JUMP JUMPDEST PUSH1 0x0 DUP2 PUSH1 0x0 ADD SLOAD SWAP1 POP SWAP2 SWAP1 POP JUMP JUMPDEST PUSH1 0x40 MLOAD DUP1 PUSH1 0x20 ADD PUSH1 0x40 MSTORE DUP1 PUSH1 0x0 DUP2 MSTORE POP SWAP1 JUMP JUMPDEST PUSH2 0x1AD3 DUP1 PUSH3 0x4343 DUP4 CODECOPY ADD SWAP1 JUMP JUMPDEST PUSH1 0x0 DUP1 REVERT JUMPDEST PUSH1 0x0 DUP2 SWAP1 POP SWAP2 SWAP1 POP JUMP JUMPDEST PUSH3 0x3075 DUP2 PUSH3 0x3060 JUMP JUMPDEST DUP2 EQ PUSH3 0x3081 JUMPI PUSH1 0x0 DUP1 REVERT JUMPDEST POP JUMP JUMPDEST PUSH1 0x0 DUP2 CALLDATALOAD SWAP1 POP PUSH3 0x3095 DUP2 PUSH3 0x306A JUMP JUMPDEST SWAP3 SWAP2 POP POP JUMP JUMPDEST PUSH1 0x0 DUP1 PUSH1 0x40 DUP4 DUP6 SUB SLT ISZERO PUSH3 0x30B5 JUMPI PUSH3 0x30B4 PUSH3 0x305B JUMP JUMPDEST JUMPDEST PUSH1 0x0 PUSH3 0x30C5 DUP6 DUP3 DUP7 ADD PUSH3 0x3084 JUMP JUMPDEST SWAP3 POP POP PUSH1 0x20 PUSH3 0x30D8 DUP6 DUP3 DUP7 ADD PUSH3 0x3084 JUMP JUMPDEST SWAP2 POP POP SWAP3 POP SWAP3 SWAP1 POP JUMP JUMPDEST PUSH3 0x30ED DUP2 PUSH3 0x3060 JUMP JUMPDEST DUP3 MSTORE POP POP JUMP JUMPDEST PUSH1 0x0 PUSH1 0x20 DUP3 ADD SWAP1 POP PUSH3 0x310A PUSH1 0x0 DUP4 ADD DUP5 PUSH3 0x30E2 JUMP JUMPDEST SWAP3 SWAP2 POP POP JUMP JUMPDEST PUSH1 0x0 PUSH1 0x20 DUP3 DUP5 SUB SLT ISZERO PUSH3 0x3129 JUMPI PUSH3 0x3128 PUSH3 0x305B JUMP JUMPDEST JUMPDEST PUSH1 0x0 PUSH3 0x3139 DUP5 DUP3 DUP6 ADD PUSH3 0x3084 JUMP JUMPDEST SWAP2 POP POP SWAP3 SWAP2 POP POP JUMP JUMPDEST PUSH1 0x0 DUP2 ISZERO ISZERO SWAP1 POP SWAP2 SWAP1 POP JUMP JUMPDEST PUSH3 0x3159 DUP2 PUSH3 0x3142 JUMP JUMPDEST DUP3 MSTORE POP POP JUMP JUMPDEST PUSH1 0x0 PUSH1 0x20 DUP3 ADD SWAP1 POP PUSH3 0x3176 PUSH1 0x0 DUP4 ADD DUP5 PUSH3 0x314E JUMP JUMPDEST SWAP3 SWAP2 POP POP JUMP JUMPDEST PUSH1 0x0 PUSH20 0xFFFFFFFFFFFFFFFFFFFFFFFFFFFFFFFFFFFFFFFF DUP3 AND SWAP1 POP SWAP2 SWAP1 POP JUMP JUMPDEST PUSH1 0x0 DUP2 SWAP1 POP SWAP2 SWAP1 POP JUMP JUMPDEST PUSH1 0x0 PUSH3 0x31C7 PUSH3 0x31C1 PUSH3 0x31BB DUP5 PUSH3 0x317C JUMP JUMPDEST PUSH3 0x319C JUMP JUMPDEST PUSH3 0x317C JUMP JUMPDEST SWAP1 POP SWAP2 SWAP1 POP JUMP JUMPDEST PUSH1 0x0 PUSH3 0x31DB DUP3 PUSH3 0x31A6 JUMP JUMPDEST SWAP1 POP SWAP2 SWAP1 POP JUMP JUMPDEST PUSH1 0x0 PUSH3 0x31EF DUP3 PUSH3 0x31CE JUMP JUMPDEST SWAP1 POP SWAP2 SWAP1 POP JUMP JUMPDEST PUSH3 0x3201 DUP2 PUSH3 0x31E2 JUMP JUMPDEST DUP3 MSTORE POP POP JUMP JUMPDEST PUSH1 0x0 PUSH1 0x20 DUP3 ADD SWAP1 POP PUSH3 0x321E PUSH1 0x0 DUP4 ADD DUP5 PUSH3 0x31F6 JUMP JUMPDEST SWAP3 SWAP2 POP POP JUMP JUMPDEST PUSH1 0x0 PUSH3 0x3231 DUP3 PUSH3 0x317C JUMP JUMPDEST SWAP1 POP SWAP2 SWAP1 POP JUMP JUMPDEST PUSH3 0x3243 DUP2 PUSH3 0x3224 JUMP JUMPDEST DUP3 MSTORE POP POP JUMP JUMPDEST PUSH1 0x0 PUSH1 0x20 DUP3 ADD SWAP1 POP PUSH3 0x3260 PUSH1 0x0 DUP4 ADD DUP5 PUSH3 0x3238 JUMP JUMPDEST SWAP3 SWAP2 POP POP JUMP JUMPDEST PUSH3 0x3271 DUP2 PUSH3 0x3142 JUMP JUMPDEST DUP2 EQ PUSH3 0x327D JUMPI PUSH1 0x0 DUP1 REVERT JUMPDEST POP JUMP JUMPDEST PUSH1 0x0 DUP2 CALLDATALOAD SWAP1 POP PUSH3 0x3291 DUP2 PUSH3 0x3266 JUMP JUMPDEST SWAP3 SWAP2 POP POP JUMP JUMPDEST PUSH1 0x0 PUSH4 0xFFFFFFFF DUP3 AND SWAP1 POP SWAP2 SWAP1 POP JUMP JUMPDEST PUSH3 0x32B2 DUP2 PUSH3 0x3297 JUMP JUMPDEST DUP2 EQ PUSH3 0x32BE JUMPI PUSH1 0x0 DUP1 REVERT JUMPDEST POP JUMP JUMPDEST PUSH1 0x0 DUP2 CALLDATALOAD SWAP1 POP PUSH3 0x32D2 DUP2 PUSH3 0x32A7 JUMP JUMPDEST SWAP3 SWAP2 POP POP JUMP JUMPDEST PUSH1 0x0 DUP1 PUSH1 0x0 DUP1 PUSH1 0x0 DUP1 PUSH1 0x0 DUP1 PUSH2 0x100 DUP10 DUP12 SUB SLT ISZERO PUSH3 0x32FC JUMPI PUSH3 0x32FB PUSH3 0x305B JUMP JUMPDEST JUMPDEST PUSH1 0x0 PUSH3 0x330C DUP12 DUP3 DUP13 ADD PUSH3 0x3280 JUMP JUMPDEST SWAP9 POP POP PUSH1 0x20 PUSH3 0x331F DUP12 DUP3 DUP13 ADD PUSH3 0x3084 JUMP JUMPDEST SWAP8 POP POP PUSH1 0x40 PUSH3 0x3332 DUP12 DUP3 DUP13 ADD PUSH3 0x3084 JUMP JUMPDEST SWAP7 POP POP PUSH1 0x60 PUSH3 0x3345 DUP12 DUP3 DUP13 ADD PUSH3 0x3084 JUMP JUMPDEST SWAP6 POP POP PUSH1 0x80 PUSH3 0x3358 DUP12 DUP3 DUP13 ADD PUSH3 0x3084 JUMP JUMPDEST SWAP5 POP POP PUSH1 0xA0 PUSH3 0x336B DUP12 DUP3 DUP13 ADD PUSH3 0x3084 JUMP JUMPDEST SWAP4 POP POP PUSH1 0xC0 PUSH3 0x337E DUP12 DUP3 DUP13 ADD PUSH3 0x32C1 JUMP JUMPDEST SWAP3 POP POP PUSH1 0xE0 PUSH3 0x3391 DUP12 DUP3 DUP13 ADD PUSH3 0x32C1 JUMP JUMPDEST SWAP2 POP POP SWAP3 SWAP6 SWAP9 POP SWAP3 SWAP6 SWAP9 SWAP1 SWAP4 SWAP7 POP JUMP JUMPDEST PUSH3 0x33AC DUP2 PUSH3 0x3060 JUMP JUMPDEST DUP3 MSTORE POP POP JUMP JUMPDEST PUSH1 0x20 DUP3 ADD PUSH1 0x0 DUP3 ADD MLOAD PUSH3 0x33CA PUSH1 0x0 DUP6 ADD DUP3 PUSH3 0x33A1 JUMP JUMPDEST POP POP POP POP JUMP JUMPDEST PUSH1 0x0 PUSH1 0x20 DUP3 ADD SWAP1 POP PUSH3 0x33E7 PUSH1 0x0 DUP4 ADD DUP5 PUSH3 0x33B2 JUMP JUMPDEST SWAP3 SWAP2 POP POP JUMP JUMPDEST PUSH3 0x33F8 DUP2 PUSH3 0x3224 JUMP JUMPDEST DUP2 EQ PUSH3 0x3404 JUMPI PUSH1 0x0 DUP1 REVERT JUMPDEST POP JUMP JUMPDEST PUSH1 0x0 DUP2 CALLDATALOAD SWAP1 POP PUSH3 0x3418 DUP2 PUSH3 0x33ED JUMP JUMPDEST SWAP3 SWAP2 POP POP JUMP JUMPDEST PUSH1 0x0 PUSH1 0x20 DUP3 DUP5 SUB SLT ISZERO PUSH3 0x3437 JUMPI PUSH3 0x3436 PUSH3 0x305B JUMP JUMPDEST JUMPDEST PUSH1 0x0 PUSH3 0x3447 DUP5 DUP3 DUP6 ADD PUSH3 0x3407 JUMP JUMPDEST SWAP2 POP POP SWAP3 SWAP2 POP POP JUMP JUMPDEST PUSH1 0x0 PUSH3 0x345D DUP3 PUSH3 0x31CE JUMP JUMPDEST SWAP1 POP SWAP2 SWAP1 POP JUMP JUMPDEST PUSH3 0x346F DUP2 PUSH3 0x3450 JUMP JUMPDEST DUP3 MSTORE POP POP JUMP JUMPDEST PUSH1 0x0 PUSH1 0x20 DUP3 ADD SWAP1 POP PUSH3 0x348C PUSH1 0x0 DUP4 ADD DUP5 PUSH3 0x3464 JUMP JUMPDEST SWAP3 SWAP2 POP POP JUMP JUMPDEST PUSH1 0x0 DUP3 DUP3 MSTORE PUSH1 0x20 DUP3 ADD SWAP1 POP SWAP3 SWAP2 POP POP JUMP JUMPDEST PUSH32 0x54686520686F73742063616E206E6F742063616C6C20746865206D6574686F64 PUSH1 0x0 DUP3 ADD MSTORE POP JUMP JUMPDEST PUSH1 0x0 PUSH3 0x34DB PUSH1 0x20 DUP4 PUSH3 0x3492 JUMP JUMPDEST SWAP2 POP PUSH3 0x34E8 DUP3 PUSH3 0x34A3 JUMP JUMPDEST PUSH1 0x20 DUP3 ADD SWAP1 POP SWAP2 SWAP1 POP JUMP JUMPDEST PUSH1 0x0 PUSH1 0x20 DUP3 ADD SWAP1 POP DUP2 DUP2 SUB PUSH1 0x0 DUP4 ADD MSTORE PUSH3 0x350E DUP2 PUSH3 0x34CC JUMP JUMPDEST SWAP1 POP SWAP2 SWAP1 POP JUMP JUMPDEST PUSH32 0x4F6E6C79206275796572206F6620746865204344532063616E2063616C6C0000 PUSH1 0x0 DUP3 ADD MSTORE POP JUMP JUMPDEST PUSH1 0x0 PUSH3 0x354D PUSH1 0x1E DUP4 PUSH3 0x3492 JUMP JUMPDEST SWAP2 POP PUSH3 0x355A DUP3 PUSH3 0x3515 JUMP JUMPDEST PUSH1 0x20 DUP3 ADD SWAP1 POP SWAP2 SWAP1 POP JUMP JUMPDEST PUSH1 0x0 PUSH1 0x20 DUP3 ADD SWAP1 POP DUP2 DUP2 SUB PUSH1 0x0 DUP4 ADD MSTORE PUSH3 0x3580 DUP2 PUSH3 0x353E JUMP JUMPDEST SWAP1 POP SWAP2 SWAP1 POP JUMP JUMPDEST PUSH1 0x0 PUSH1 0x40 DUP3 ADD SWAP1 POP PUSH3 0x359E PUSH1 0x0 DUP4 ADD DUP6 PUSH3 0x3238 JUMP JUMPDEST PUSH3 0x35AD PUSH1 0x20 DUP4 ADD DUP5 PUSH3 0x30E2 JUMP JUMPDEST SWAP4 SWAP3 POP POP POP JUMP JUMPDEST PUSH1 0x0 DUP2 MLOAD SWAP1 POP PUSH3 0x35C5 DUP2 PUSH3 0x3266 JUMP JUMPDEST SWAP3 SWAP2 POP POP JUMP JUMPDEST PUSH1 0x0 PUSH1 0x20 DUP3 DUP5 SUB SLT ISZERO PUSH3 0x35E4 JUMPI PUSH3 0x35E3 PUSH3 0x305B JUMP JUMPDEST JUMPDEST PUSH1 0x0 PUSH3 0x35F4 DUP5 DUP3 DUP6 ADD PUSH3 0x35B4 JUMP JUMPDEST SWAP2 POP POP SWAP3 SWAP2 POP POP JUMP JUMPDEST PUSH1 0x0 DUP2 MLOAD SWAP1 POP PUSH3 0x360E DUP2 PUSH3 0x306A JUMP JUMPDEST SWAP3 SWAP2 POP POP JUMP JUMPDEST PUSH1 0x0 PUSH1 0x20 DUP3 DUP5 SUB SLT ISZERO PUSH3 0x362D JUMPI PUSH3 0x362C PUSH3 0x305B JUMP JUMPDEST JUMPDEST PUSH1 0x0 PUSH3 0x363D DUP5 DUP3 DUP6 ADD PUSH3 0x35FD JUMP JUMPDEST SWAP2 POP POP SWAP3 SWAP2 POP POP JUMP JUMPDEST PUSH32 0x43757272656E7420707269636520697320686967686572207468616E20746865 PUSH1 0x0 DUP3 ADD MSTORE PUSH32 0x20636C61696D20707269636520696E2043445300000000000000000000000000 PUSH1 0x20 DUP3 ADD MSTORE POP JUMP JUMPDEST PUSH1 0x0 PUSH3 0x36A4 PUSH1 0x33 DUP4 PUSH3 0x3492 JUMP JUMPDEST SWAP2 POP PUSH3 0x36B1 DUP3 PUSH3 0x3646 JUMP JUMPDEST PUSH1 0x40 DUP3 ADD SWAP1 POP SWAP2 SWAP1 POP JUMP JUMPDEST PUSH1 0x0 PUSH1 0x20 DUP3 ADD SWAP1 POP DUP2 DUP2 SUB PUSH1 0x0 DUP4 ADD MSTORE PUSH3 0x36D7 DUP2 PUSH3 0x3695 JUMP JUMPDEST SWAP1 POP SWAP2 SWAP1 POP JUMP JUMPDEST PUSH1 0x0 PUSH1 0x40 DUP3 ADD SWAP1 POP PUSH3 0x36F5 PUSH1 0x0 DUP4 ADD DUP6 PUSH3 0x30E2 JUMP JUMPDEST PUSH3 0x3704 PUSH1 0x20 DUP4 ADD DUP5 PUSH3 0x30E2 JUMP JUMPDEST SWAP4 SWAP3 POP POP POP JUMP JUMPDEST PUSH32 0x4F6E6C792062757965722F73656C6C6572206F6620746865204344532063616E PUSH1 0x0 DUP3 ADD MSTORE PUSH32 0x2063616C6C000000000000000000000000000000000000000000000000000000 PUSH1 0x20 DUP3 ADD MSTORE POP JUMP JUMPDEST PUSH1 0x0 PUSH3 0x3769 PUSH1 0x25 DUP4 PUSH3 0x3492 JUMP JUMPDEST SWAP2 POP PUSH3 0x3776 DUP3 PUSH3 0x370B JUMP JUMPDEST PUSH1 0x40 DUP3 ADD SWAP1 POP SWAP2 SWAP1 POP JUMP JUMPDEST PUSH1 0x0 PUSH1 0x20 DUP3 ADD SWAP1 POP DUP2 DUP2 SUB PUSH1 0x0 DUP4 ADD MSTORE PUSH3 0x379C DUP2 PUSH3 0x375A JUMP JUMPDEST SWAP1 POP SWAP2 SWAP1 POP JUMP JUMPDEST PUSH1 0x0 DUP2 MLOAD SWAP1 POP PUSH3 0x37B4 DUP2 PUSH3 0x33ED JUMP JUMPDEST SWAP3 SWAP2 POP POP JUMP JUMPDEST PUSH1 0x0 PUSH1 0x20 DUP3 DUP5 SUB SLT ISZERO PUSH3 0x37D3 JUMPI PUSH3 0x37D2 PUSH3 0x305B JUMP JUMPDEST JUMPDEST PUSH1 0x0 PUSH3 0x37E3 DUP5 DUP3 DUP6 ADD PUSH3 0x37A3 JUMP JUMPDEST SWAP2 POP POP SWAP3 SWAP2 POP POP JUMP JUMPDEST PUSH3 0x37F7 DUP2 PUSH3 0x3297 JUMP JUMPDEST DUP3 MSTORE POP POP JUMP JUMPDEST PUSH1 0x0 PUSH1 0x80 DUP3 ADD SWAP1 POP PUSH3 0x3814 PUSH1 0x0 DUP4 ADD DUP8 PUSH3 0x314E JUMP JUMPDEST PUSH3 0x3823 PUSH1 0x20 DUP4 ADD DUP7 PUSH3 0x30E2 JUMP JUMPDEST PUSH3 0x3832 PUSH1 0x40 DUP4 ADD DUP6 PUSH3 0x37EC JUMP JUMPDEST PUSH3 0x3841 PUSH1 0x60 DUP4 ADD DUP5 PUSH3 0x3238 JUMP JUMPDEST SWAP6 SWAP5 POP POP POP POP POP JUMP JUMPDEST PUSH32 0x4F776E61626C653A206E6577206F776E657220697320746865207A65726F2061 PUSH1 0x0 DUP3 ADD MSTORE PUSH32 0x6464726573730000000000000000000000000000000000000000000000000000 PUSH1 0x20 DUP3 ADD MSTORE POP JUMP JUMPDEST PUSH1 0x0 PUSH3 0x38A8 PUSH1 0x26 DUP4 PUSH3 0x3492 JUMP JUMPDEST SWAP2 POP PUSH3 0x38B5 DUP3 PUSH3 0x384A JUMP JUMPDEST PUSH1 0x40 DUP3 ADD SWAP1 POP SWAP2 SWAP1 POP JUMP JUMPDEST PUSH1 0x0 PUSH1 0x20 DUP3 ADD SWAP1 POP DUP2 DUP2 SUB PUSH1 0x0 DUP4 ADD MSTORE PUSH3 0x38DB DUP2 PUSH3 0x3899 JUMP JUMPDEST SWAP1 POP SWAP2 SWAP1 POP JUMP JUMPDEST PUSH32 0x4E487B7100000000000000000000000000000000000000000000000000000000 PUSH1 0x0 MSTORE PUSH1 0x21 PUSH1 0x4 MSTORE PUSH1 0x24 PUSH1 0x0 REVERT JUMPDEST PUSH1 0x5 DUP2 LT PUSH3 0x391F JUMPI PUSH1 0x0 DUP1 REVERT JUMPDEST POP JUMP JUMPDEST PUSH1 0x0 DUP2 MLOAD SWAP1 POP PUSH3 0x3933 DUP2 PUSH3 0x3911 JUMP JUMPDEST SWAP3 SWAP2 POP POP JUMP JUMPDEST PUSH1 0x0 PUSH1 0x20 DUP3 DUP5 SUB SLT ISZERO PUSH3 0x3952 JUMPI PUSH3 0x3951 PUSH3 0x305B JUMP JUMPDEST JUMPDEST PUSH1 0x0 PUSH3 0x3962 DUP5 DUP3 DUP6 ADD PUSH3 0x3922 JUMP JUMPDEST SWAP2 POP POP SWAP3 SWAP2 POP POP JUMP JUMPDEST PUSH32 0x54686520737461747573206F6620746865204344532073686F756C6420626520 PUSH1 0x0 DUP3 ADD MSTORE PUSH32 0x70656E64696E6700000000000000000000000000000000000000000000000000 PUSH1 0x20 DUP3 ADD MSTORE POP JUMP JUMPDEST PUSH1 0x0 PUSH3 0x39C9 PUSH1 0x27 DUP4 PUSH3 0x3492 JUMP JUMPDEST SWAP2 POP PUSH3 0x39D6 DUP3 PUSH3 0x396B JUMP JUMPDEST PUSH1 0x40 DUP3 ADD SWAP1 POP SWAP2 SWAP1 POP JUMP JUMPDEST PUSH1 0x0 PUSH1 0x20 DUP3 ADD SWAP1 POP DUP2 DUP2 SUB PUSH1 0x0 DUP4 ADD MSTORE PUSH3 0x39FC DUP2 PUSH3 0x39BA JUMP JUMPDEST SWAP1 POP SWAP2 SWAP1 POP JUMP JUMPDEST PUSH32 0x4E487B7100000000000000000000000000000000000000000000000000000000 PUSH1 0x0 MSTORE PUSH1 0x11 PUSH1 0x4 MSTORE PUSH1 0x24 PUSH1 0x0 REVERT JUMPDEST PUSH1 0x0 PUSH3 0x3A3F DUP3 PUSH3 0x3060 JUMP JUMPDEST SWAP2 POP PUSH3 0x3A4C DUP4 PUSH3 0x3060 JUMP JUMPDEST SWAP3 POP DUP3 PUSH32 0xFFFFFFFFFFFFFFFFFFFFFFFFFFFFFFFFFFFFFFFFFFFFFFFFFFFFFFFFFFFFFFFF SUB DUP3 GT ISZERO PUSH3 0x3A84 JUMPI PUSH3 0x3A83 PUSH3 0x3A03 JUMP JUMPDEST JUMPDEST DUP3 DUP3 ADD SWAP1 POP SWAP3 SWAP2 POP POP JUMP JUMPDEST PUSH1 0x0 PUSH1 0x40 DUP3 ADD SWAP1 POP PUSH3 0x3AA6 PUSH1 0x0 DUP4 ADD DUP6 PUSH3 0x3238 JUMP JUMPDEST PUSH3 0x3AB5 PUSH1 0x20 DUP4 ADD DUP5 PUSH3 0x314E JUMP JUMPDEST SWAP4 SWAP3 POP POP POP JUMP JUMPDEST PUSH1 0x5 DUP2 LT PUSH3 0x3AD0 JUMPI PUSH3 0x3ACF PUSH3 0x38E2 JUMP JUMPDEST JUMPDEST POP JUMP JUMPDEST PUSH1 0x0 DUP2 SWAP1 POP PUSH3 0x3AE3 DUP3 PUSH3 0x3ABC JUMP JUMPDEST SWAP2 SWAP1 POP JUMP JUMPDEST PUSH1 0x0 PUSH3 0x3AF5 DUP3 PUSH3 0x3AD3 JUMP JUMPDEST SWAP1 POP SWAP2 SWAP1 POP JUMP JUMPDEST PUSH3 0x3B07 DUP2 PUSH3 0x3AE8 JUMP JUMPDEST DUP3 MSTORE POP POP JUMP JUMPDEST PUSH1 0x0 PUSH1 0x20 DUP3 ADD SWAP1 POP PUSH3 0x3B24 PUSH1 0x0 DUP4 ADD DUP5 PUSH3 0x3AFC JUMP JUMPDEST SWAP3 SWAP2 POP POP JUMP JUMPDEST PUSH1 0x0 PUSH1 0x60 DUP3 ADD SWAP1 POP PUSH3 0x3B41 PUSH1 0x0 DUP4 ADD DUP7 PUSH3 0x3238 JUMP JUMPDEST PUSH3 0x3B50 PUSH1 0x20 DUP4 ADD DUP6 PUSH3 0x3238 JUMP JUMPDEST PUSH3 0x3B5F PUSH1 0x40 DUP4 ADD DUP5 PUSH3 0x30E2 JUMP JUMPDEST SWAP5 SWAP4 POP POP POP POP JUMP JUMPDEST PUSH32 0x4E487B7100000000000000000000000000000000000000000000000000000000 PUSH1 0x0 MSTORE PUSH1 0x32 PUSH1 0x4 MSTORE PUSH1 0x24 PUSH1 0x0 REVERT JUMPDEST PUSH32 0x53656E64696E67206669727374207072656D69756D206661696C656400000000 PUSH1 0x0 DUP3 ADD MSTORE POP JUMP JUMPDEST PUSH1 0x0 PUSH3 0x3BCE PUSH1 0x1C DUP4 PUSH3 0x3492 JUMP JUMPDEST SWAP2 POP PUSH3 0x3BDB DUP3 PUSH3 0x3B96 JUMP JUMPDEST PUSH1 0x20 DUP3 ADD SWAP1 POP SWAP2 SWAP1 POP JUMP JUMPDEST PUSH1 0x0 PUSH1 0x20 DUP3 ADD SWAP1 POP DUP2 DUP2 SUB PUSH1 0x0 DUP4 ADD MSTORE PUSH3 0x3C01 DUP2 PUSH3 0x3BBF JUMP JUMPDEST SWAP1 POP SWAP2 SWAP1 POP JUMP JUMPDEST PUSH1 0x0 PUSH3 0x3C15 DUP3 PUSH3 0x3060 JUMP JUMPDEST SWAP2 POP PUSH3 0x3C22 DUP4 PUSH3 0x3060 JUMP JUMPDEST SWAP3 POP DUP3 DUP3 LT ISZERO PUSH3 0x3C38 JUMPI PUSH3 0x3C37 PUSH3 0x3A03 JUMP JUMPDEST JUMPDEST DUP3 DUP3 SUB SWAP1 POP SWAP3 SWAP2 POP POP JUMP JUMPDEST PUSH1 0x0 DUP2 MLOAD SWAP1 POP PUSH3 0x3C54 DUP2 PUSH3 0x32A7 JUMP JUMPDEST SWAP3 SWAP2 POP POP JUMP JUMPDEST PUSH1 0x0 PUSH1 0x20 DUP3 DUP5 SUB SLT ISZERO PUSH3 0x3C73 JUMPI PUSH3 0x3C72 PUSH3 0x305B JUMP JUMPDEST JUMPDEST PUSH1 0x0 PUSH3 0x3C83 DUP5 DUP3 DUP6 ADD PUSH3 0x3C43 JUMP JUMPDEST SWAP2 POP POP SWAP3 SWAP2 POP POP JUMP JUMPDEST PUSH1 0x0 PUSH3 0x3C99 DUP3 PUSH3 0x3297 JUMP JUMPDEST SWAP2 POP PUSH3 0x3CA6 DUP4 PUSH3 0x3297 JUMP JUMPDEST SWAP3 POP DUP3 DUP3 LT ISZERO PUSH3 0x3CBC JUMPI PUSH3 0x3CBB PUSH3 0x3A03 JUMP JUMPDEST JUMPDEST DUP3 DUP3 SUB SWAP1 POP SWAP3 SWAP2 POP POP JUMP JUMPDEST PUSH1 0x0 PUSH1 0x20 DUP3 ADD SWAP1 POP PUSH3 0x3CDE PUSH1 0x0 DUP4 ADD DUP5 PUSH3 0x37EC JUMP JUMPDEST SWAP3 SWAP2 POP POP JUMP JUMPDEST PUSH32 0x54686520737461747573206F6620746865204344532073686F756C6420626520 PUSH1 0x0 DUP3 ADD MSTORE PUSH32 0x6163746976650000000000000000000000000000000000000000000000000000 PUSH1 0x20 DUP3 ADD MSTORE POP JUMP JUMPDEST PUSH1 0x0 PUSH3 0x3D42 PUSH1 0x26 DUP4 PUSH3 0x3492 JUMP JUMPDEST SWAP2 POP PUSH3 0x3D4F DUP3 PUSH3 0x3CE4 JUMP JUMPDEST PUSH1 0x40 DUP3 ADD SWAP1 POP SWAP2 SWAP1 POP JUMP JUMPDEST PUSH1 0x0 PUSH1 0x20 DUP3 ADD SWAP1 POP DUP2 DUP2 SUB PUSH1 0x0 DUP4 ADD MSTORE PUSH3 0x3D75 DUP2 PUSH3 0x3D33 JUMP JUMPDEST SWAP1 POP SWAP2 SWAP1 POP JUMP JUMPDEST PUSH32 0x53656E64696E67206465706F736974206261636B206661696C65640000000000 PUSH1 0x0 DUP3 ADD MSTORE POP JUMP JUMPDEST PUSH1 0x0 PUSH3 0x3DB4 PUSH1 0x1B DUP4 PUSH3 0x3492 JUMP JUMPDEST SWAP2 POP PUSH3 0x3DC1 DUP3 PUSH3 0x3D7C JUMP JUMPDEST PUSH1 0x20 DUP3 ADD SWAP1 POP SWAP2 SWAP1 POP JUMP JUMPDEST PUSH1 0x0 PUSH1 0x20 DUP3 ADD SWAP1 POP DUP2 DUP2 SUB PUSH1 0x0 DUP4 ADD MSTORE PUSH3 0x3DE7 DUP2 PUSH3 0x3DA5 JUMP JUMPDEST SWAP1 POP SWAP2 SWAP1 POP JUMP JUMPDEST PUSH1 0x0 PUSH3 0x3DFB DUP3 PUSH3 0x3060 JUMP JUMPDEST SWAP2 POP PUSH32 0xFFFFFFFFFFFFFFFFFFFFFFFFFFFFFFFFFFFFFFFFFFFFFFFFFFFFFFFFFFFFFFFF DUP3 EQ ISZERO PUSH3 0x3E31 JUMPI PUSH3 0x3E30 PUSH3 0x3A03 JUMP JUMPDEST JUMPDEST PUSH1 0x1 DUP3 ADD SWAP1 POP SWAP2 SWAP1 POP JUMP JUMPDEST PUSH32 0x4F776E61626C653A2063616C6C6572206973206E6F7420746865206F776E6572 PUSH1 0x0 DUP3 ADD MSTORE POP JUMP JUMPDEST PUSH1 0x0 PUSH3 0x3E74 PUSH1 0x20 DUP4 PUSH3 0x3492 JUMP JUMPDEST SWAP2 POP PUSH3 0x3E81 DUP3 PUSH3 0x3E3C JUMP JUMPDEST PUSH1 0x20 DUP3 ADD SWAP1 POP SWAP2 SWAP1 POP JUMP JUMPDEST PUSH1 0x0 PUSH1 0x20 DUP3 ADD SWAP1 POP DUP2 DUP2 SUB PUSH1 0x0 DUP4 ADD MSTORE PUSH3 0x3EA7 DUP2 PUSH3 0x3E65 JUMP JUMPDEST SWAP1 POP SWAP2 SWAP1 POP JUMP JUMPDEST PUSH32 0x526F756E6420616C726561647920656E64656400000000000000000000000000 PUSH1 0x0 DUP3 ADD MSTORE POP JUMP JUMPDEST PUSH1 0x0 PUSH3 0x3EE6 PUSH1 0x13 DUP4 PUSH3 0x3492 JUMP JUMPDEST SWAP2 POP PUSH3 0x3EF3 DUP3 PUSH3 0x3EAE JUMP JUMPDEST PUSH1 0x20 DUP3 ADD SWAP1 POP SWAP2 SWAP1 POP JUMP JUMPDEST PUSH1 0x0 PUSH1 0x20 DUP3 ADD SWAP1 POP DUP2 DUP2 SUB PUSH1 0x0 DUP4 ADD MSTORE PUSH3 0x3F19 DUP2 PUSH3 0x3ED7 JUMP JUMPDEST SWAP1 POP SWAP2 SWAP1 POP JUMP JUMPDEST PUSH32 0x496E76616C6964206461746520746F20706179207072656D69756D2062792064 PUSH1 0x0 DUP3 ADD MSTORE PUSH32 0x65706F7369742000000000000000000000000000000000000000000000000000 PUSH1 0x20 DUP3 ADD MSTORE POP JUMP JUMPDEST PUSH1 0x0 PUSH3 0x3F7E PUSH1 0x27 DUP4 PUSH3 0x3492 JUMP JUMPDEST SWAP2 POP PUSH3 0x3F8B DUP3 PUSH3 0x3F20 JUMP JUMPDEST PUSH1 0x40 DUP3 ADD SWAP1 POP SWAP2 SWAP1 POP JUMP JUMPDEST PUSH1 0x0 PUSH1 0x20 DUP3 ADD SWAP1 POP DUP2 DUP2 SUB PUSH1 0x0 DUP4 ADD MSTORE PUSH3 0x3FB1 DUP2 PUSH3 0x3F6F JUMP JUMPDEST SWAP1 POP SWAP2 SWAP1 POP JUMP JUMPDEST PUSH32 0x4E6F7420656E6F756768206465706F7369740000000000000000000000000000 PUSH1 0x0 DUP3 ADD MSTORE POP JUMP JUMPDEST PUSH1 0x0 PUSH3 0x3FF0 PUSH1 0x12 DUP4 PUSH3 0x3492 JUMP JUMPDEST SWAP2 POP PUSH3 0x3FFD DUP3 PUSH3 0x3FB8 JUMP JUMPDEST PUSH1 0x20 DUP3 ADD SWAP1 POP SWAP2 SWAP1 POP JUMP JUMPDEST PUSH1 0x0 PUSH1 0x20 DUP3 ADD SWAP1 POP DUP2 DUP2 SUB PUSH1 0x0 DUP4 ADD MSTORE PUSH3 0x4023 DUP2 PUSH3 0x3FE1 JUMP JUMPDEST SWAP1 POP SWAP2 SWAP1 POP JUMP JUMPDEST PUSH32 0x53656E64696E67207072656D69756D206661696C656400000000000000000000 PUSH1 0x0 DUP3 ADD MSTORE POP JUMP JUMPDEST PUSH1 0x0 PUSH3 0x4062 PUSH1 0x16 DUP4 PUSH3 0x3492 JUMP JUMPDEST SWAP2 POP PUSH3 0x406F DUP3 PUSH3 0x402A JUMP JUMPDEST PUSH1 0x20 DUP3 ADD SWAP1 POP SWAP2 SWAP1 POP JUMP JUMPDEST PUSH1 0x0 PUSH1 0x20 DUP3 ADD SWAP1 POP DUP2 DUP2 SUB PUSH1 0x0 DUP4 ADD MSTORE PUSH3 0x4095 DUP2 PUSH3 0x4053 JUMP JUMPDEST SWAP1 POP SWAP2 SWAP1 POP JUMP JUMPDEST PUSH32 0x53656E64696E6720726577617264206661696C65640000000000000000000000 PUSH1 0x0 DUP3 ADD MSTORE POP JUMP JUMPDEST PUSH1 0x0 PUSH3 0x40D4 PUSH1 0x15 DUP4 PUSH3 0x3492 JUMP JUMPDEST SWAP2 POP PUSH3 0x40E1 DUP3 PUSH3 0x409C JUMP JUMPDEST PUSH1 0x20 DUP3 ADD SWAP1 POP SWAP2 SWAP1 POP JUMP JUMPDEST PUSH1 0x0 PUSH1 0x20 DUP3 ADD SWAP1 POP DUP2 DUP2 SUB PUSH1 0x0 DUP4 ADD MSTORE PUSH3 0x4107 DUP2 PUSH3 0x40C5 JUMP JUMPDEST SWAP1 POP SWAP2 SWAP1 POP JUMP JUMPDEST PUSH32 0x496E76616C6964206461746520746F20706179207072656D69756D0000000000 PUSH1 0x0 DUP3 ADD MSTORE POP JUMP JUMPDEST PUSH1 0x0 PUSH3 0x4146 PUSH1 0x1B DUP4 PUSH3 0x3492 JUMP JUMPDEST SWAP2 POP PUSH3 0x4153 DUP3 PUSH3 0x410E JUMP JUMPDEST PUSH1 0x20 DUP3 ADD SWAP1 POP SWAP2 SWAP1 POP JUMP JUMPDEST PUSH1 0x0 PUSH1 0x20 DUP3 ADD SWAP1 POP DUP2 DUP2 SUB PUSH1 0x0 DUP4 ADD MSTORE PUSH3 0x4179 DUP2 PUSH3 0x4137 JUMP JUMPDEST SWAP1 POP SWAP2 SWAP1 POP JUMP JUMPDEST PUSH1 0x0 PUSH1 0xE0 DUP3 ADD SWAP1 POP PUSH3 0x4197 PUSH1 0x0 DUP4 ADD DUP11 PUSH3 0x30E2 JUMP JUMPDEST PUSH3 0x41A6 PUSH1 0x20 DUP4 ADD DUP10 PUSH3 0x30E2 JUMP JUMPDEST PUSH3 0x41B5 PUSH1 0x40 DUP4 ADD DUP9 PUSH3 0x30E2 JUMP JUMPDEST PUSH3 0x41C4 PUSH1 0x60 DUP4 ADD DUP8 PUSH3 0x30E2 JUMP JUMPDEST PUSH3 0x41D3 PUSH1 0x80 DUP4 ADD DUP7 PUSH3 0x30E2 JUMP JUMPDEST PUSH3 0x41E2 PUSH1 0xA0 DUP4 ADD DUP6 PUSH3 0x37EC JUMP JUMPDEST PUSH3 0x41F1 PUSH1 0xC0 DUP4 ADD DUP5 PUSH3 0x37EC JUMP JUMPDEST SWAP9 SWAP8 POP POP POP POP POP POP POP POP JUMP JUMPDEST PUSH32 0x4F6E6C792073656C6C6572206F6620746865204344532063616E2063616C6C00 PUSH1 0x0 DUP3 ADD MSTORE POP JUMP JUMPDEST PUSH1 0x0 PUSH3 0x4235 PUSH1 0x1F DUP4 PUSH3 0x3492 JUMP JUMPDEST SWAP2 POP PUSH3 0x4242 DUP3 PUSH3 0x41FD JUMP JUMPDEST PUSH1 0x20 DUP3 ADD SWAP1 POP SWAP2 SWAP1 POP JUMP JUMPDEST PUSH1 0x0 PUSH1 0x20 DUP3 ADD SWAP1 POP DUP2 DUP2 SUB PUSH1 0x0 DUP4 ADD MSTORE PUSH3 0x4268 DUP2 PUSH3 0x4226 JUMP JUMPDEST SWAP1 POP SWAP2 SWAP1 POP JUMP JUMPDEST PUSH32 0x4275796572206465706F736974202F20526F756E64732072656D61696E696E67 PUSH1 0x0 DUP3 ADD MSTORE POP JUMP JUMPDEST PUSH1 0x0 PUSH3 0x42A7 PUSH1 0x20 DUP4 PUSH3 0x3492 JUMP JUMPDEST SWAP2 POP PUSH3 0x42B4 DUP3 PUSH3 0x426F JUMP JUMPDEST PUSH1 0x20 DUP3 ADD SWAP1 POP SWAP2 SWAP1 POP JUMP JUMPDEST PUSH1 0x0 PUSH1 0x20 DUP3 ADD SWAP1 POP DUP2 DUP2 SUB PUSH1 0x0 DUP4 ADD MSTORE PUSH3 0x42DA DUP2 PUSH3 0x4298 JUMP JUMPDEST SWAP1 POP SWAP2 SWAP1 POP JUMP JUMPDEST PUSH1 0x0 PUSH3 0x42EE DUP3 PUSH3 0x3060 JUMP JUMPDEST SWAP2 POP PUSH3 0x42FB DUP4 PUSH3 0x3060 JUMP JUMPDEST SWAP3 POP DUP2 PUSH32 0xFFFFFFFFFFFFFFFFFFFFFFFFFFFFFFFFFFFFFFFFFFFFFFFFFFFFFFFFFFFFFFFF DIV DUP4 GT DUP3 ISZERO ISZERO AND ISZERO PUSH3 0x4337 JUMPI PUSH3 0x4336 PUSH3 0x3A03 JUMP JUMPDEST JUMPDEST DUP3 DUP3 MUL SWAP1 POP SWAP3 SWAP2 POP POP JUMP INVALID PUSH1 0x80 PUSH1 0x40 MSTORE CALLVALUE DUP1 ISZERO PUSH3 0x11 JUMPI PUSH1 0x0 DUP1 REVERT JUMPDEST POP PUSH1 0x40 MLOAD PUSH3 0x1AD3 CODESIZE SUB DUP1 PUSH3 0x1AD3 DUP4 CODECOPY DUP2 DUP2 ADD PUSH1 0x40 MSTORE DUP2 ADD SWAP1 PUSH3 0x37 SWAP2 SWAP1 PUSH3 0x444 JUMP JUMPDEST PUSH3 0x57 PUSH3 0x4B PUSH3 0x289 PUSH1 0x20 SHL PUSH1 0x20 SHR JUMP JUMPDEST PUSH3 0x291 PUSH1 0x20 SHL PUSH1 0x20 SHR JUMP JUMPDEST PUSH20 0x3C7A4A23F876452C92C89405874FD4118DCB9E06 PUSH1 0x1 PUSH1 0x0 PUSH2 0x100 EXP DUP2 SLOAD DUP2 PUSH20 0xFFFFFFFFFFFFFFFFFFFFFFFFFFFFFFFFFFFFFFFF MUL NOT AND SWAP1 DUP4 PUSH20 0xFFFFFFFFFFFFFFFFFFFFFFFFFFFFFFFFFFFFFFFF AND MUL OR SWAP1 SSTORE POP DUP7 PUSH1 0x3 DUP2 SWAP1 SSTORE POP DUP6 PUSH1 0x4 DUP2 SWAP1 SSTORE POP DUP5 PUSH1 0x5 DUP2 SWAP1 SSTORE POP DUP4 PUSH1 0x6 DUP2 SWAP1 SSTORE POP DUP3 PUSH1 0x7 DUP2 SWAP1 SSTORE POP DUP2 PUSH1 0xA PUSH1 0x14 PUSH2 0x100 EXP DUP2 SLOAD DUP2 PUSH4 0xFFFFFFFF MUL NOT AND SWAP1 DUP4 PUSH4 0xFFFFFFFF AND MUL OR SWAP1 SSTORE POP DUP2 PUSH1 0xA PUSH1 0x18 PUSH2 0x100 EXP DUP2 SLOAD DUP2 PUSH4 0xFFFFFFFF MUL NOT AND SWAP1 DUP4 PUSH4 0xFFFFFFFF AND MUL OR SWAP1 SSTORE POP PUSH3 0x133 PUSH1 0x5 SLOAD PUSH1 0x7 SLOAD PUSH1 0x3 SLOAD PUSH3 0x355 PUSH1 0x20 SHL PUSH3 0xA80 OR SWAP1 SWAP3 SWAP2 SWAP1 PUSH1 0x20 SHR JUMP JUMPDEST PUSH1 0x8 DUP2 SWAP1 SSTORE POP PUSH1 0x0 DUP2 PUSH4 0xFFFFFFFF AND EQ DUP1 PUSH3 0x155 JUMPI POP PUSH1 0x1 DUP2 PUSH4 0xFFFFFFFF AND EQ JUMPDEST DUP1 PUSH3 0x167 JUMPI POP PUSH1 0x2 DUP2 PUSH4 0xFFFFFFFF AND EQ JUMPDEST PUSH3 0x1A9 JUMPI PUSH1 0x40 MLOAD PUSH32 0x8C379A000000000000000000000000000000000000000000000000000000000 DUP2 MSTORE PUSH1 0x4 ADD PUSH3 0x1A0 SWAP1 PUSH3 0x558 JUMP JUMPDEST PUSH1 0x40 MLOAD DUP1 SWAP2 SUB SWAP1 REVERT JUMPDEST DUP1 PUSH1 0xA PUSH1 0x1C PUSH2 0x100 EXP DUP2 SLOAD DUP2 PUSH4 0xFFFFFFFF MUL NOT AND SWAP1 DUP4 PUSH4 0xFFFFFFFF AND MUL OR SWAP1 SSTORE POP PUSH1 0x0 PUSH1 0x9 PUSH1 0x0 PUSH2 0x100 EXP DUP2 SLOAD DUP2 PUSH20 0xFFFFFFFFFFFFFFFFFFFFFFFFFFFFFFFFFFFFFFFF MUL NOT AND SWAP1 DUP4 PUSH20 0xFFFFFFFFFFFFFFFFFFFFFFFFFFFFFFFFFFFFFFFF AND MUL OR SWAP1 SSTORE POP PUSH1 0x0 PUSH1 0xA PUSH1 0x0 PUSH2 0x100 EXP DUP2 SLOAD DUP2 PUSH20 0xFFFFFFFFFFFFFFFFFFFFFFFFFFFFFFFFFFFFFFFF MUL NOT AND SWAP1 DUP4 PUSH20 0xFFFFFFFFFFFFFFFFFFFFFFFFFFFFFFFFFFFFFFFF AND MUL OR SWAP1 SSTORE POP PUSH1 0x1 PUSH1 0x2 PUSH1 0x14 PUSH2 0x100 EXP DUP2 SLOAD DUP2 PUSH1 0xFF MUL NOT AND SWAP1 DUP4 PUSH1 0x4 DUP2 GT ISZERO PUSH3 0x277 JUMPI PUSH3 0x276 PUSH3 0x57A JUMP JUMPDEST JUMPDEST MUL OR SWAP1 SSTORE POP POP POP POP POP POP POP POP PUSH3 0x67A JUMP JUMPDEST PUSH1 0x0 CALLER SWAP1 POP SWAP1 JUMP JUMPDEST PUSH1 0x0 DUP1 PUSH1 0x0 SWAP1 SLOAD SWAP1 PUSH2 0x100 EXP SWAP1 DIV PUSH20 0xFFFFFFFFFFFFFFFFFFFFFFFFFFFFFFFFFFFFFFFF AND SWAP1 POP DUP2 PUSH1 0x0 DUP1 PUSH2 0x100 EXP DUP2 SLOAD DUP2 PUSH20 0xFFFFFFFFFFFFFFFFFFFFFFFFFFFFFFFFFFFFFFFF MUL NOT AND SWAP1 DUP4 PUSH20 0xFFFFFFFFFFFFFFFFFFFFFFFFFFFFFFFFFFFFFFFF AND MUL OR SWAP1 SSTORE POP DUP2 PUSH20 0xFFFFFFFFFFFFFFFFFFFFFFFFFFFFFFFFFFFFFFFF AND DUP2 PUSH20 0xFFFFFFFFFFFFFFFFFFFFFFFFFFFFFFFFFFFFFFFF AND PUSH32 0x8BE0079C531659141344CD1FD0A4F28419497F9722A3DAAFE3B4186F6B6457E0 PUSH1 0x40 MLOAD PUSH1 0x40 MLOAD DUP1 SWAP2 SUB SWAP1 LOG3 POP POP JUMP JUMPDEST PUSH1 0x0 PUSH3 0x38A PUSH3 0x375 DUP5 DUP7 PUSH3 0x393 PUSH1 0x20 SHL PUSH3 0xAB0 OR SWAP1 SWAP2 SWAP1 PUSH1 0x20 SHR JUMP JUMPDEST DUP4 PUSH3 0x3AB PUSH1 0x20 SHL PUSH3 0xAC6 OR SWAP1 SWAP2 SWAP1 PUSH1 0x20 SHR JUMP JUMPDEST SWAP1 POP SWAP4 SWAP3 POP POP POP JUMP JUMPDEST PUSH1 0x0 DUP2 DUP4 PUSH3 0x3A3 SWAP2 SWAP1 PUSH3 0x5D8 JUMP JUMPDEST SWAP1 POP SWAP3 SWAP2 POP POP JUMP JUMPDEST PUSH1 0x0 DUP2 DUP4 PUSH3 0x3BB SWAP2 SWAP1 PUSH3 0x642 JUMP JUMPDEST SWAP1 POP SWAP3 SWAP2 POP POP JUMP JUMPDEST PUSH1 0x0 DUP1 REVERT JUMPDEST PUSH1 0x0 DUP2 SWAP1 POP SWAP2 SWAP1 POP JUMP JUMPDEST PUSH3 0x3DD DUP2 PUSH3 0x3C8 JUMP JUMPDEST DUP2 EQ PUSH3 0x3E9 JUMPI PUSH1 0x0 DUP1 REVERT JUMPDEST POP JUMP JUMPDEST PUSH1 0x0 DUP2 MLOAD SWAP1 POP PUSH3 0x3FD DUP2 PUSH3 0x3D2 JUMP JUMPDEST SWAP3 SWAP2 POP POP JUMP JUMPDEST PUSH1 0x0 PUSH4 0xFFFFFFFF DUP3 AND SWAP1 POP SWAP2 SWAP1 POP JUMP JUMPDEST PUSH3 0x41E DUP2 PUSH3 0x403 JUMP JUMPDEST DUP2 EQ PUSH3 0x42A JUMPI PUSH1 0x0 DUP1 REVERT JUMPDEST POP JUMP JUMPDEST PUSH1 0x0 DUP2 MLOAD SWAP1 POP PUSH3 0x43E DUP2 PUSH3 0x413 JUMP JUMPDEST SWAP3 SWAP2 POP POP JUMP JUMPDEST PUSH1 0x0 DUP1 PUSH1 0x0 DUP1 PUSH1 0x0 DUP1 PUSH1 0x0 PUSH1 0xE0 DUP9 DUP11 SUB SLT ISZERO PUSH3 0x466 JUMPI PUSH3 0x465 PUSH3 0x3C3 JUMP JUMPDEST JUMPDEST PUSH1 0x0 PUSH3 0x476 DUP11 DUP3 DUP12 ADD PUSH3 0x3EC JUMP JUMPDEST SWAP8 POP POP PUSH1 0x20 PUSH3 0x489 DUP11 DUP3 DUP12 ADD PUSH3 0x3EC JUMP JUMPDEST SWAP7 POP POP PUSH1 0x40 PUSH3 0x49C DUP11 DUP3 DUP12 ADD PUSH3 0x3EC JUMP JUMPDEST SWAP6 POP POP PUSH1 0x60 PUSH3 0x4AF DUP11 DUP3 DUP12 ADD PUSH3 0x3EC JUMP JUMPDEST SWAP5 POP POP PUSH1 0x80 PUSH3 0x4C2 DUP11 DUP3 DUP12 ADD PUSH3 0x3EC JUMP JUMPDEST SWAP4 POP POP PUSH1 0xA0 PUSH3 0x4D5 DUP11 DUP3 DUP12 ADD PUSH3 0x42D JUMP JUMPDEST SWAP3 POP POP PUSH1 0xC0 PUSH3 0x4E8 DUP11 DUP3 DUP12 ADD PUSH3 0x42D JUMP JUMPDEST SWAP2 POP POP SWAP3 SWAP6 SWAP9 SWAP2 SWAP5 SWAP8 POP SWAP3 SWAP6 POP JUMP JUMPDEST PUSH1 0x0 DUP3 DUP3 MSTORE PUSH1 0x20 DUP3 ADD SWAP1 POP SWAP3 SWAP2 POP POP JUMP JUMPDEST PUSH32 0x4254433A302C204554483A312C204C494E4B3A32000000000000000000000000 PUSH1 0x0 DUP3 ADD MSTORE POP JUMP JUMPDEST PUSH1 0x0 PUSH3 0x540 PUSH1 0x14 DUP4 PUSH3 0x4F7 JUMP JUMPDEST SWAP2 POP PUSH3 0x54D DUP3 PUSH3 0x508 JUMP JUMPDEST PUSH1 0x20 DUP3 ADD SWAP1 POP SWAP2 SWAP1 POP JUMP JUMPDEST PUSH1 0x0 PUSH1 0x20 DUP3 ADD SWAP1 POP DUP2 DUP2 SUB PUSH1 0x0 DUP4 ADD MSTORE PUSH3 0x573 DUP2 PUSH3 0x531 JUMP JUMPDEST SWAP1 POP SWAP2 SWAP1 POP JUMP JUMPDEST PUSH32 0x4E487B7100000000000000000000000000000000000000000000000000000000 PUSH1 0x0 MSTORE PUSH1 0x21 PUSH1 0x4 MSTORE PUSH1 0x24 PUSH1 0x0 REVERT JUMPDEST PUSH32 0x4E487B7100000000000000000000000000000000000000000000000000000000 PUSH1 0x0 MSTORE PUSH1 0x11 PUSH1 0x4 MSTORE PUSH1 0x24 PUSH1 0x0 REVERT JUMPDEST PUSH1 0x0 PUSH3 0x5E5 DUP3 PUSH3 0x3C8 JUMP JUMPDEST SWAP2 POP PUSH3 0x5F2 DUP4 PUSH3 0x3C8 JUMP JUMPDEST SWAP3 POP DUP3 DUP3 LT ISZERO PUSH3 0x608 JUMPI PUSH3 0x607 PUSH3 0x5A9 JUMP JUMPDEST JUMPDEST DUP3 DUP3 SUB SWAP1 POP SWAP3 SWAP2 POP POP JUMP JUMPDEST PUSH32 0x4E487B7100000000000000000000000000000000000000000000000000000000 PUSH1 0x0 MSTORE PUSH1 0x12 PUSH1 0x4 MSTORE PUSH1 0x24 PUSH1 0x0 REVERT JUMPDEST PUSH1 0x0 PUSH3 0x64F DUP3 PUSH3 0x3C8 JUMP JUMPDEST SWAP2 POP PUSH3 0x65C DUP4 PUSH3 0x3C8 JUMP JUMPDEST SWAP3 POP DUP3 PUSH3 0x66F JUMPI PUSH3 0x66E PUSH3 0x613 JUMP JUMPDEST JUMPDEST DUP3 DUP3 DIV SWAP1 POP SWAP3 SWAP2 POP POP JUMP JUMPDEST PUSH2 0x1449 DUP1 PUSH3 0x68A PUSH1 0x0 CODECOPY PUSH1 0x0 RETURN INVALID PUSH1 0x80 PUSH1 0x40 MSTORE CALLVALUE DUP1 ISZERO PUSH2 0x10 JUMPI PUSH1 0x0 DUP1 REVERT JUMPDEST POP PUSH1 0x4 CALLDATASIZE LT PUSH2 0x18E JUMPI PUSH1 0x0 CALLDATALOAD PUSH1 0xE0 SHR DUP1 PUSH4 0xA3F09AD6 GT PUSH2 0xDE JUMPI DUP1 PUSH4 0xD2895E93 GT PUSH2 0x97 JUMPI DUP1 PUSH4 0xE0A73A93 GT PUSH2 0x71 JUMPI DUP1 PUSH4 0xE0A73A93 EQ PUSH2 0x459 JUMPI DUP1 PUSH4 0xE99D2866 EQ PUSH2 0x477 JUMPI DUP1 PUSH4 0xF26CC58E EQ PUSH2 0x4A7 JUMPI DUP1 PUSH4 0xF2FDE38B EQ PUSH2 0x4C5 JUMPI PUSH2 0x18E JUMP JUMPDEST DUP1 PUSH4 0xD2895E93 EQ PUSH2 0x3ED JUMPI DUP1 PUSH4 0xDBD0E1B6 EQ PUSH2 0x41D JUMPI DUP1 PUSH4 0xDD22DB80 EQ PUSH2 0x43B JUMPI PUSH2 0x18E JUMP JUMPDEST DUP1 PUSH4 0xA3F09AD6 EQ PUSH2 0x317 JUMPI DUP1 PUSH4 0xA607A8D9 EQ PUSH2 0x347 JUMPI DUP1 PUSH4 0xB6FC2D5F EQ PUSH2 0x365 JUMPI DUP1 PUSH4 0xBAB215F8 EQ PUSH2 0x383 JUMPI DUP1 PUSH4 0xBD9A548B EQ PUSH2 0x39F JUMPI DUP1 PUSH4 0xBEF904E3 EQ PUSH2 0x3BD JUMPI PUSH2 0x18E JUMP JUMPDEST DUP1 PUSH4 0x603DAF9A GT PUSH2 0x14B JUMPI DUP1 PUSH4 0x86BE75B7 GT PUSH2 0x125 JUMPI DUP1 PUSH4 0x86BE75B7 EQ PUSH2 0x29F JUMPI DUP1 PUSH4 0x8A568299 EQ PUSH2 0x2BD JUMPI DUP1 PUSH4 0x8DA5CB5B EQ PUSH2 0x2DB JUMPI DUP1 PUSH4 0xA2E800AD EQ PUSH2 0x2F9 JUMPI PUSH2 0x18E JUMP JUMPDEST DUP1 PUSH4 0x603DAF9A EQ PUSH2 0x259 JUMPI DUP1 PUSH4 0x715018A6 EQ PUSH2 0x277 JUMPI DUP1 PUSH4 0x762DB7EE EQ PUSH2 0x281 JUMPI PUSH2 0x18E JUMP JUMPDEST DUP1 PUSH4 0x15D655C9 EQ PUSH2 0x193 JUMPI DUP1 PUSH4 0x200D2ED2 EQ PUSH2 0x1B1 JUMPI DUP1 PUSH4 0x2DDDD49C EQ PUSH2 0x1CF JUMPI DUP1 PUSH4 0x2E49D78B EQ PUSH2 0x1ED JUMPI DUP1 PUSH4 0x3FE3347A EQ PUSH2 0x21D JUMPI DUP1 PUSH4 0x4C1786EA EQ PUSH2 0x23B JUMPI JUMPDEST PUSH1 0x0 DUP1 REVERT JUMPDEST PUSH2 0x19B PUSH2 0x4E1 JUMP JUMPDEST PUSH1 0x40 MLOAD PUSH2 0x1A8 SWAP2 SWAP1 PUSH2 0xDC2 JUMP JUMPDEST PUSH1 0x40 MLOAD DUP1 SWAP2 SUB SWAP1 RETURN JUMPDEST PUSH2 0x1B9 PUSH2 0x4E7 JUMP JUMPDEST PUSH1 0x40 MLOAD PUSH2 0x1C6 SWAP2 SWAP1 PUSH2 0xE54 JUMP JUMPDEST PUSH1 0x40 MLOAD DUP1 SWAP2 SUB SWAP1 RETURN JUMPDEST PUSH2 0x1D7 PUSH2 0x4FA JUMP JUMPDEST PUSH1 0x40 MLOAD PUSH2 0x1E4 SWAP2 SWAP1 PUSH2 0xDC2 JUMP JUMPDEST PUSH1 0x40 MLOAD DUP1 SWAP2 SUB SWAP1 RETURN JUMPDEST PUSH2 0x207 PUSH1 0x4 DUP1 CALLDATASIZE SUB DUP2 ADD SWAP1 PUSH2 0x202 SWAP2 SWAP1 PUSH2 0xE99 JUMP JUMPDEST PUSH2 0x597 JUMP JUMPDEST PUSH1 0x40 MLOAD PUSH2 0x214 SWAP2 SWAP1 PUSH2 0xE54 JUMP JUMPDEST PUSH1 0x40 MLOAD DUP1 SWAP2 SUB SWAP1 RETURN JUMPDEST PUSH2 0x225 PUSH2 0x5E2 JUMP JUMPDEST PUSH1 0x40 MLOAD PUSH2 0x232 SWAP2 SWAP1 PUSH2 0xEE5 JUMP JUMPDEST PUSH1 0x40 MLOAD DUP1 SWAP2 SUB SWAP1 RETURN JUMPDEST PUSH2 0x243 PUSH2 0x5F8 JUMP JUMPDEST PUSH1 0x40 MLOAD PUSH2 0x250 SWAP2 SWAP1 PUSH2 0xDC2 JUMP JUMPDEST PUSH1 0x40 MLOAD DUP1 SWAP2 SUB SWAP1 RETURN JUMPDEST PUSH2 0x261 PUSH2 0x5FE JUMP JUMPDEST PUSH1 0x40 MLOAD PUSH2 0x26E SWAP2 SWAP1 PUSH2 0xF41 JUMP JUMPDEST PUSH1 0x40 MLOAD DUP1 SWAP2 SUB SWAP1 RETURN JUMPDEST PUSH2 0x27F PUSH2 0x628 JUMP JUMPDEST STOP JUMPDEST PUSH2 0x289 PUSH2 0x63C JUMP JUMPDEST PUSH1 0x40 MLOAD PUSH2 0x296 SWAP2 SWAP1 PUSH2 0xDC2 JUMP JUMPDEST PUSH1 0x40 MLOAD DUP1 SWAP2 SUB SWAP1 RETURN JUMPDEST PUSH2 0x2A7 PUSH2 0x642 JUMP JUMPDEST PUSH1 0x40 MLOAD PUSH2 0x2B4 SWAP2 SWAP1 PUSH2 0xDC2 JUMP JUMPDEST PUSH1 0x40 MLOAD DUP1 SWAP2 SUB SWAP1 RETURN JUMPDEST PUSH2 0x2C5 PUSH2 0x648 JUMP JUMPDEST PUSH1 0x40 MLOAD PUSH2 0x2D2 SWAP2 SWAP1 PUSH2 0xEE5 JUMP JUMPDEST PUSH1 0x40 MLOAD DUP1 SWAP2 SUB SWAP1 RETURN JUMPDEST PUSH2 0x2E3 PUSH2 0x65E JUMP JUMPDEST PUSH1 0x40 MLOAD PUSH2 0x2F0 SWAP2 SWAP1 PUSH2 0xF41 JUMP JUMPDEST PUSH1 0x40 MLOAD DUP1 SWAP2 SUB SWAP1 RETURN JUMPDEST PUSH2 0x301 PUSH2 0x687 JUMP JUMPDEST PUSH1 0x40 MLOAD PUSH2 0x30E SWAP2 SWAP1 PUSH2 0xEE5 JUMP JUMPDEST PUSH1 0x40 MLOAD DUP1 SWAP2 SUB SWAP1 RETURN JUMPDEST PUSH2 0x331 PUSH1 0x4 DUP1 CALLDATASIZE SUB DUP2 ADD SWAP1 PUSH2 0x32C SWAP2 SWAP1 PUSH2 0xF88 JUMP JUMPDEST PUSH2 0x69D JUMP JUMPDEST PUSH1 0x40 MLOAD PUSH2 0x33E SWAP2 SWAP1 PUSH2 0xF41 JUMP JUMPDEST PUSH1 0x40 MLOAD DUP1 SWAP2 SUB SWAP1 RETURN JUMPDEST PUSH2 0x34F PUSH2 0x712 JUMP JUMPDEST PUSH1 0x40 MLOAD PUSH2 0x35C SWAP2 SWAP1 PUSH2 0xDC2 JUMP JUMPDEST PUSH1 0x40 MLOAD DUP1 SWAP2 SUB SWAP1 RETURN JUMPDEST PUSH2 0x36D PUSH2 0x7AF JUMP JUMPDEST PUSH1 0x40 MLOAD PUSH2 0x37A SWAP2 SWAP1 PUSH2 0xDC2 JUMP JUMPDEST PUSH1 0x40 MLOAD DUP1 SWAP2 SUB SWAP1 RETURN JUMPDEST PUSH2 0x39D PUSH1 0x4 DUP1 CALLDATASIZE SUB DUP2 ADD SWAP1 PUSH2 0x398 SWAP2 SWAP1 PUSH2 0xFED JUMP JUMPDEST PUSH2 0x7B5 JUMP JUMPDEST STOP JUMPDEST PUSH2 0x3A7 PUSH2 0x7DF JUMP JUMPDEST PUSH1 0x40 MLOAD PUSH2 0x3B4 SWAP2 SWAP1 PUSH2 0x10D8 JUMP JUMPDEST PUSH1 0x40 MLOAD DUP1 SWAP2 SUB SWAP1 RETURN JUMPDEST PUSH2 0x3D7 PUSH1 0x4 DUP1 CALLDATASIZE SUB DUP2 ADD SWAP1 PUSH2 0x3D2 SWAP2 SWAP1 PUSH2 0x111F JUMP JUMPDEST PUSH2 0x81D JUMP JUMPDEST PUSH1 0x40 MLOAD PUSH2 0x3E4 SWAP2 SWAP1 PUSH2 0xDC2 JUMP JUMPDEST PUSH1 0x40 MLOAD DUP1 SWAP2 SUB SWAP1 RETURN JUMPDEST PUSH2 0x407 PUSH1 0x4 DUP1 CALLDATASIZE SUB DUP2 ADD SWAP1 PUSH2 0x402 SWAP2 SWAP1 PUSH2 0x1178 JUMP JUMPDEST PUSH2 0x830 JUMP JUMPDEST PUSH1 0x40 MLOAD PUSH2 0x414 SWAP2 SWAP1 PUSH2 0xEE5 JUMP JUMPDEST PUSH1 0x40 MLOAD DUP1 SWAP2 SUB SWAP1 RETURN JUMPDEST PUSH2 0x425 PUSH2 0x875 JUMP JUMPDEST PUSH1 0x40 MLOAD PUSH2 0x432 SWAP2 SWAP1 PUSH2 0xF41 JUMP JUMPDEST PUSH1 0x40 MLOAD DUP1 SWAP2 SUB SWAP1 RETURN JUMPDEST PUSH2 0x443 PUSH2 0x89F JUMP JUMPDEST PUSH1 0x40 MLOAD PUSH2 0x450 SWAP2 SWAP1 PUSH2 0xDC2 JUMP JUMPDEST PUSH1 0x40 MLOAD DUP1 SWAP2 SUB SWAP1 RETURN JUMPDEST PUSH2 0x461 PUSH2 0x93C JUMP JUMPDEST PUSH1 0x40 MLOAD PUSH2 0x46E SWAP2 SWAP1 PUSH2 0xDC2 JUMP JUMPDEST PUSH1 0x40 MLOAD DUP1 SWAP2 SUB SWAP1 RETURN JUMPDEST PUSH2 0x491 PUSH1 0x4 DUP1 CALLDATASIZE SUB DUP2 ADD SWAP1 PUSH2 0x48C SWAP2 SWAP1 PUSH2 0xF88 JUMP JUMPDEST PUSH2 0x942 JUMP JUMPDEST PUSH1 0x40 MLOAD PUSH2 0x49E SWAP2 SWAP1 PUSH2 0xF41 JUMP JUMPDEST PUSH1 0x40 MLOAD DUP1 SWAP2 SUB SWAP1 RETURN JUMPDEST PUSH2 0x4AF PUSH2 0x9B7 JUMP JUMPDEST PUSH1 0x40 MLOAD PUSH2 0x4BC SWAP2 SWAP1 PUSH2 0xDC2 JUMP JUMPDEST PUSH1 0x40 MLOAD DUP1 SWAP2 SUB SWAP1 RETURN JUMPDEST PUSH2 0x4DF PUSH1 0x4 DUP1 CALLDATASIZE SUB DUP2 ADD SWAP1 PUSH2 0x4DA SWAP2 SWAP1 PUSH2 0xF88 JUMP JUMPDEST PUSH2 0x9FC JUMP JUMPDEST STOP JUMPDEST PUSH1 0x4 SLOAD DUP2 JUMP JUMPDEST PUSH1 0x2 PUSH1 0x14 SWAP1 SLOAD SWAP1 PUSH2 0x100 EXP SWAP1 DIV PUSH1 0xFF AND DUP2 JUMP JUMPDEST PUSH1 0x0 DUP1 PUSH1 0x1 PUSH1 0x0 SWAP1 SLOAD SWAP1 PUSH2 0x100 EXP SWAP1 DIV PUSH20 0xFFFFFFFFFFFFFFFFFFFFFFFFFFFFFFFFFFFFFFFF AND PUSH20 0xFFFFFFFFFFFFFFFFFFFFFFFFFFFFFFFFFFFFFFFF AND PUSH4 0xCF78535 PUSH1 0x40 MLOAD DUP2 PUSH4 0xFFFFFFFF AND PUSH1 0xE0 SHL DUP2 MSTORE PUSH1 0x4 ADD PUSH1 0x20 PUSH1 0x40 MLOAD DUP1 DUP4 SUB DUP2 DUP7 GAS STATICCALL ISZERO DUP1 ISZERO PUSH2 0x56A JUMPI RETURNDATASIZE PUSH1 0x0 DUP1 RETURNDATACOPY RETURNDATASIZE PUSH1 0x0 REVERT JUMPDEST POP POP POP POP PUSH1 0x40 MLOAD RETURNDATASIZE PUSH1 0x1F NOT PUSH1 0x1F DUP3 ADD AND DUP3 ADD DUP1 PUSH1 0x40 MSTORE POP DUP2 ADD SWAP1 PUSH2 0x58E SWAP2 SWAP1 PUSH2 0x11BA JUMP JUMPDEST SWAP1 POP DUP1 SWAP2 POP POP SWAP1 JUMP JUMPDEST PUSH1 0x0 PUSH2 0x5A1 PUSH2 0xADC JUMP JUMPDEST DUP2 PUSH1 0x2 PUSH1 0x14 PUSH2 0x100 EXP DUP2 SLOAD DUP2 PUSH1 0xFF MUL NOT AND SWAP1 DUP4 PUSH1 0x4 DUP2 GT ISZERO PUSH2 0x5C6 JUMPI PUSH2 0x5C5 PUSH2 0xDDD JUMP JUMPDEST JUMPDEST MUL OR SWAP1 SSTORE POP PUSH1 0x2 PUSH1 0x14 SWAP1 SLOAD SWAP1 PUSH2 0x100 EXP SWAP1 DIV PUSH1 0xFF AND SWAP1 POP SWAP2 SWAP1 POP JUMP JUMPDEST PUSH1 0xA PUSH1 0x1C SWAP1 SLOAD SWAP1 PUSH2 0x100 EXP SWAP1 DIV PUSH4 0xFFFFFFFF AND DUP2 JUMP JUMPDEST PUSH1 0x7 SLOAD DUP2 JUMP JUMPDEST PUSH1 0x0 PUSH1 0x9 PUSH1 0x0 SWAP1 SLOAD SWAP1 PUSH2 0x100 EXP SWAP1 DIV PUSH20 0xFFFFFFFFFFFFFFFFFFFFFFFFFFFFFFFFFFFFFFFF AND SWAP1 POP SWAP1 JUMP JUMPDEST PUSH2 0x630 PUSH2 0xADC JUMP JUMPDEST PUSH2 0x63A PUSH1 0x0 PUSH2 0xB5A JUMP JUMPDEST JUMP JUMPDEST PUSH1 0x8 SLOAD DUP2 JUMP JUMPDEST PUSH1 0x3 SLOAD DUP2 JUMP JUMPDEST PUSH1 0xA PUSH1 0x18 SWAP1 SLOAD SWAP1 PUSH2 0x100 EXP SWAP1 DIV PUSH4 0xFFFFFFFF AND DUP2 JUMP JUMPDEST PUSH1 0x0 DUP1 PUSH1 0x0 SWAP1 SLOAD SWAP1 PUSH2 0x100 EXP SWAP1 DIV PUSH20 0xFFFFFFFFFFFFFFFFFFFFFFFFFFFFFFFFFFFFFFFF AND SWAP1 POP SWAP1 JUMP JUMPDEST PUSH1 0xA PUSH1 0x14 SWAP1 SLOAD SWAP1 PUSH2 0x100 EXP SWAP1 DIV PUSH4 0xFFFFFFFF AND DUP2 JUMP JUMPDEST PUSH1 0x0 PUSH2 0x6A7 PUSH2 0xADC JUMP JUMPDEST DUP2 PUSH1 0x9 PUSH1 0x0 PUSH2 0x100 EXP DUP2 SLOAD DUP2 PUSH20 0xFFFFFFFFFFFFFFFFFFFFFFFFFFFFFFFFFFFFFFFF MUL NOT AND SWAP1 DUP4 PUSH20 0xFFFFFFFFFFFFFFFFFFFFFFFFFFFFFFFFFFFFFFFF AND MUL OR SWAP1 SSTORE POP PUSH1 0x9 PUSH1 0x0 SWAP1 SLOAD SWAP1 PUSH2 0x100 EXP SWAP1 DIV PUSH20 0xFFFFFFFFFFFFFFFFFFFFFFFFFFFFFFFFFFFFFFFF AND SWAP1 POP SWAP2 SWAP1 POP JUMP JUMPDEST PUSH1 0x0 DUP1 PUSH1 0x1 PUSH1 0x0 SWAP1 SLOAD SWAP1 PUSH2 0x100 EXP SWAP1 DIV PUSH20 0xFFFFFFFFFFFFFFFFFFFFFFFFFFFFFFFFFFFFFFFF AND PUSH20 0xFFFFFFFFFFFFFFFFFFFFFFFFFFFFFFFFFFFFFFFF AND PUSH4 0xFF186B2E PUSH1 0x40 MLOAD DUP2 PUSH4 0xFFFFFFFF AND PUSH1 0xE0 SHL DUP2 MSTORE PUSH1 0x4 ADD PUSH1 0x20 PUSH1 0x40 MLOAD DUP1 DUP4 SUB DUP2 DUP7 GAS STATICCALL ISZERO DUP1 ISZERO PUSH2 0x782 JUMPI RETURNDATASIZE PUSH1 0x0 DUP1 RETURNDATACOPY RETURNDATASIZE PUSH1 0x0 REVERT JUMPDEST POP POP POP POP PUSH1 0x40 MLOAD RETURNDATASIZE PUSH1 0x1F NOT PUSH1 0x1F DUP3 ADD AND DUP3 ADD DUP1 PUSH1 0x40 MSTORE POP DUP2 ADD SWAP1 PUSH2 0x7A6 SWAP2 SWAP1 PUSH2 0x11BA JUMP JUMPDEST SWAP1 POP DUP1 SWAP2 POP POP SWAP1 JUMP JUMPDEST PUSH1 0x5 SLOAD DUP2 JUMP JUMPDEST PUSH2 0x7BD PUSH2 0xADC JUMP JUMPDEST DUP1 PUSH2 0x7D0 JUMPI PUSH2 0x7CB DUP3 PUSH2 0x942 JUMP JUMPDEST PUSH2 0x7DA JUMP JUMPDEST PUSH2 0x7D9 DUP3 PUSH2 0x69D JUMP JUMPDEST JUMPDEST POP POP POP JUMP JUMPDEST PUSH2 0x7E7 PUSH2 0xD87 JUMP JUMPDEST PUSH1 0x40 MLOAD DUP1 PUSH1 0xA0 ADD PUSH1 0x40 MSTORE DUP1 PUSH1 0x3 SLOAD DUP2 MSTORE PUSH1 0x20 ADD PUSH1 0x4 SLOAD DUP2 MSTORE PUSH1 0x20 ADD PUSH1 0x5 SLOAD DUP2 MSTORE PUSH1 0x20 ADD PUSH1 0x6 SLOAD DUP2 MSTORE PUSH1 0x20 ADD PUSH1 0x7 SLOAD DUP2 MSTORE POP SWAP1 POP SWAP1 JUMP JUMPDEST PUSH1 0x0 DUP2 PUSH1 0x3 DUP2 SWAP1 SSTORE POP PUSH1 0x3 SLOAD SWAP1 POP SWAP2 SWAP1 POP JUMP JUMPDEST PUSH1 0x0 PUSH2 0x83A PUSH2 0xADC JUMP JUMPDEST DUP2 PUSH1 0xA PUSH1 0x14 PUSH2 0x100 EXP DUP2 SLOAD DUP2 PUSH4 0xFFFFFFFF MUL NOT AND SWAP1 DUP4 PUSH4 0xFFFFFFFF AND MUL OR SWAP1 SSTORE POP PUSH1 0xA PUSH1 0x14 SWAP1 SLOAD SWAP1 PUSH2 0x100 EXP SWAP1 DIV PUSH4 0xFFFFFFFF AND SWAP1 POP SWAP2 SWAP1 POP JUMP JUMPDEST PUSH1 0x0 PUSH1 0xA PUSH1 0x0 SWAP1 SLOAD SWAP1 PUSH2 0x100 EXP SWAP1 DIV PUSH20 0xFFFFFFFFFFFFFFFFFFFFFFFFFFFFFFFFFFFFFFFF AND SWAP1 POP SWAP1 JUMP JUMPDEST PUSH1 0x0 DUP1 PUSH1 0x1 PUSH1 0x0 SWAP1 SLOAD SWAP1 PUSH2 0x100 EXP SWAP1 DIV PUSH20 0xFFFFFFFFFFFFFFFFFFFFFFFFFFFFFFFFFFFFFFFF AND PUSH20 0xFFFFFFFFFFFFFFFFFFFFFFFFFFFFFFFFFFFFFFFF AND PUSH4 0xA8AD52D1 PUSH1 0x40 MLOAD DUP2 PUSH4 0xFFFFFFFF AND PUSH1 0xE0 SHL DUP2 MSTORE PUSH1 0x4 ADD PUSH1 0x20 PUSH1 0x40 MLOAD DUP1 DUP4 SUB DUP2 DUP7 GAS STATICCALL ISZERO DUP1 ISZERO PUSH2 0x90F JUMPI RETURNDATASIZE PUSH1 0x0 DUP1 RETURNDATACOPY RETURNDATASIZE PUSH1 0x0 REVERT JUMPDEST POP POP POP POP PUSH1 0x40 MLOAD RETURNDATASIZE PUSH1 0x1F NOT PUSH1 0x1F DUP3 ADD AND DUP3 ADD DUP1 PUSH1 0x40 MSTORE POP DUP2 ADD SWAP1 PUSH2 0x933 SWAP2 SWAP1 PUSH2 0x11BA JUMP JUMPDEST SWAP1 POP DUP1 SWAP2 POP POP SWAP1 JUMP JUMPDEST PUSH1 0x6 SLOAD DUP2 JUMP JUMPDEST PUSH1 0x0 PUSH2 0x94C PUSH2 0xADC JUMP JUMPDEST DUP2 PUSH1 0xA PUSH1 0x0 PUSH2 0x100 EXP DUP2 SLOAD DUP2 PUSH20 0xFFFFFFFFFFFFFFFFFFFFFFFFFFFFFFFFFFFFFFFF MUL NOT AND SWAP1 DUP4 PUSH20 0xFFFFFFFFFFFFFFFFFFFFFFFFFFFFFFFFFFFFFFFF AND MUL OR SWAP1 SSTORE POP PUSH1 0xA PUSH1 0x0 SWAP1 SLOAD SWAP1 PUSH2 0x100 EXP SWAP1 DIV PUSH20 0xFFFFFFFFFFFFFFFFFFFFFFFFFFFFFFFFFFFFFFFF AND SWAP1 POP SWAP2 SWAP1 POP JUMP JUMPDEST PUSH1 0x0 DUP1 PUSH2 0x9C2 PUSH2 0xC1E JUMP JUMPDEST SWAP1 POP DUP1 PUSH1 0x4 SLOAD LT ISZERO PUSH2 0x9D8 JUMPI PUSH1 0x0 SWAP2 POP POP PUSH2 0x9F9 JUMP JUMPDEST PUSH2 0x9F5 PUSH1 0x5 SLOAD PUSH1 0x3 SLOAD DUP4 PUSH1 0x7 SLOAD PUSH2 0xCF9 SWAP1 SWAP4 SWAP3 SWAP2 SWAP1 PUSH4 0xFFFFFFFF AND JUMP JUMPDEST SWAP2 POP POP JUMPDEST SWAP1 JUMP JUMPDEST PUSH2 0xA04 PUSH2 0xADC JUMP JUMPDEST PUSH1 0x0 PUSH20 0xFFFFFFFFFFFFFFFFFFFFFFFFFFFFFFFFFFFFFFFF AND DUP2 PUSH20 0xFFFFFFFFFFFFFFFFFFFFFFFFFFFFFFFFFFFFFFFF AND EQ ISZERO PUSH2 0xA74 JUMPI PUSH1 0x40 MLOAD PUSH32 0x8C379A000000000000000000000000000000000000000000000000000000000 DUP2 MSTORE PUSH1 0x4 ADD PUSH2 0xA6B SWAP1 PUSH2 0x126A JUMP JUMPDEST PUSH1 0x40 MLOAD DUP1 SWAP2 SUB SWAP1 REVERT JUMPDEST PUSH2 0xA7D DUP2 PUSH2 0xB5A JUMP JUMPDEST POP JUMP JUMPDEST PUSH1 0x0 PUSH2 0xAA7 PUSH2 0xA98 DUP5 DUP7 PUSH2 0xAB0 SWAP1 SWAP2 SWAP1 PUSH4 0xFFFFFFFF AND JUMP JUMPDEST DUP4 PUSH2 0xAC6 SWAP1 SWAP2 SWAP1 PUSH4 0xFFFFFFFF AND JUMP JUMPDEST SWAP1 POP SWAP4 SWAP3 POP POP POP JUMP JUMPDEST PUSH1 0x0 DUP2 DUP4 PUSH2 0xABE SWAP2 SWAP1 PUSH2 0x12B9 JUMP JUMPDEST SWAP1 POP SWAP3 SWAP2 POP POP JUMP JUMPDEST PUSH1 0x0 DUP2 DUP4 PUSH2 0xAD4 SWAP2 SWAP1 PUSH2 0x131C JUMP JUMPDEST SWAP1 POP SWAP3 SWAP2 POP POP JUMP JUMPDEST PUSH2 0xAE4 PUSH2 0xD69 JUMP JUMPDEST PUSH20 0xFFFFFFFFFFFFFFFFFFFFFFFFFFFFFFFFFFFFFFFF AND PUSH2 0xB02 PUSH2 0x65E JUMP JUMPDEST PUSH20 0xFFFFFFFFFFFFFFFFFFFFFFFFFFFFFFFFFFFFFFFF AND EQ PUSH2 0xB58 JUMPI PUSH1 0x40 MLOAD PUSH32 0x8C379A000000000000000000000000000000000000000000000000000000000 DUP2 MSTORE PUSH1 0x4 ADD PUSH2 0xB4F SWAP1 PUSH2 0x1399 JUMP JUMPDEST PUSH1 0x40 MLOAD DUP1 SWAP2 SUB SWAP1 REVERT JUMPDEST JUMP JUMPDEST PUSH1 0x0 DUP1 PUSH1 0x0 SWAP1 SLOAD SWAP1 PUSH2 0x100 EXP SWAP1 DIV PUSH20 0xFFFFFFFFFFFFFFFFFFFFFFFFFFFFFFFFFFFFFFFF AND SWAP1 POP DUP2 PUSH1 0x0 DUP1 PUSH2 0x100 EXP DUP2 SLOAD DUP2 PUSH20 0xFFFFFFFFFFFFFFFFFFFFFFFFFFFFFFFFFFFFFFFF MUL NOT AND SWAP1 DUP4 PUSH20 0xFFFFFFFFFFFFFFFFFFFFFFFFFFFFFFFFFFFFFFFF AND MUL OR SWAP1 SSTORE POP DUP2 PUSH20 0xFFFFFFFFFFFFFFFFFFFFFFFFFFFFFFFFFFFFFFFF AND DUP2 PUSH20 0xFFFFFFFFFFFFFFFFFFFFFFFFFFFFFFFFFFFFFFFF AND PUSH32 0x8BE0079C531659141344CD1FD0A4F28419497F9722A3DAAFE3B4186F6B6457E0 PUSH1 0x40 MLOAD PUSH1 0x40 MLOAD DUP1 SWAP2 SUB SWAP1 LOG3 POP POP JUMP JUMPDEST PUSH1 0x0 DUP1 PUSH1 0xA PUSH1 0x1C SWAP1 SLOAD SWAP1 PUSH2 0x100 EXP SWAP1 DIV PUSH4 0xFFFFFFFF AND PUSH4 0xFFFFFFFF AND EQ ISZERO PUSH2 0xC65 JUMPI PUSH2 0xC5E PUSH4 0x5F5E100 PUSH2 0xC50 PUSH2 0x89F JUMP JUMPDEST PUSH2 0xAC6 SWAP1 SWAP2 SWAP1 PUSH4 0xFFFFFFFF AND JUMP JUMPDEST SWAP1 POP PUSH2 0xCF6 JUMP JUMPDEST PUSH1 0x1 PUSH1 0xA PUSH1 0x1C SWAP1 SLOAD SWAP1 PUSH2 0x100 EXP SWAP1 DIV PUSH4 0xFFFFFFFF AND PUSH4 0xFFFFFFFF AND EQ ISZERO PUSH2 0xCAB JUMPI PUSH2 0xCA4 PUSH4 0x5F5E100 PUSH2 0xC96 PUSH2 0x712 JUMP JUMPDEST PUSH2 0xAC6 SWAP1 SWAP2 SWAP1 PUSH4 0xFFFFFFFF AND JUMP JUMPDEST SWAP1 POP PUSH2 0xCF6 JUMP JUMPDEST PUSH1 0x2 PUSH1 0xA PUSH1 0x1C SWAP1 SLOAD SWAP1 PUSH2 0x100 EXP SWAP1 DIV PUSH4 0xFFFFFFFF AND PUSH4 0xFFFFFFFF AND EQ ISZERO PUSH2 0xCF1 JUMPI PUSH2 0xCEA PUSH4 0x5F5E100 PUSH2 0xCDC PUSH2 0x4FA JUMP JUMPDEST PUSH2 0xAC6 SWAP1 SWAP2 SWAP1 PUSH4 0xFFFFFFFF AND JUMP JUMPDEST SWAP1 POP PUSH2 0xCF6 JUMP JUMPDEST PUSH1 0x0 SWAP1 POP JUMPDEST SWAP1 JUMP JUMPDEST PUSH1 0x0 DUP1 DUP3 DUP6 LT PUSH2 0xD0B JUMPI DUP6 SWAP1 POP PUSH2 0xD5D JUMP JUMPDEST PUSH1 0x0 PUSH2 0xD32 PUSH2 0xD23 DUP8 DUP8 PUSH2 0xAB0 SWAP1 SWAP2 SWAP1 PUSH4 0xFFFFFFFF AND JUMP JUMPDEST DUP9 PUSH2 0xAC6 SWAP1 SWAP2 SWAP1 PUSH4 0xFFFFFFFF AND JUMP JUMPDEST SWAP1 POP PUSH2 0xD59 PUSH2 0xD4A DUP6 DUP8 PUSH2 0xAB0 SWAP1 SWAP2 SWAP1 PUSH4 0xFFFFFFFF AND JUMP JUMPDEST DUP3 PUSH2 0xD71 SWAP1 SWAP2 SWAP1 PUSH4 0xFFFFFFFF AND JUMP JUMPDEST SWAP2 POP POP JUMPDEST DUP1 SWAP2 POP POP SWAP5 SWAP4 POP POP POP POP JUMP JUMPDEST PUSH1 0x0 CALLER SWAP1 POP SWAP1 JUMP JUMPDEST PUSH1 0x0 DUP2 DUP4 PUSH2 0xD7F SWAP2 SWAP1 PUSH2 0x13B9 JUMP JUMPDEST SWAP1 POP SWAP3 SWAP2 POP POP JUMP JUMPDEST PUSH1 0x40 MLOAD DUP1 PUSH1 0xA0 ADD PUSH1 0x40 MSTORE DUP1 PUSH1 0x5 SWAP1 PUSH1 0x20 DUP3 MUL DUP1 CALLDATASIZE DUP4 CALLDATACOPY DUP1 DUP3 ADD SWAP2 POP POP SWAP1 POP POP SWAP1 JUMP JUMPDEST PUSH1 0x0 DUP2 SWAP1 POP SWAP2 SWAP1 POP JUMP JUMPDEST PUSH2 0xDBC DUP2 PUSH2 0xDA9 JUMP JUMPDEST DUP3 MSTORE POP POP JUMP JUMPDEST PUSH1 0x0 PUSH1 0x20 DUP3 ADD SWAP1 POP PUSH2 0xDD7 PUSH1 0x0 DUP4 ADD DUP5 PUSH2 0xDB3 JUMP JUMPDEST SWAP3 SWAP2 POP POP JUMP JUMPDEST PUSH32 0x4E487B7100000000000000000000000000000000000000000000000000000000 PUSH1 0x0 MSTORE PUSH1 0x21 PUSH1 0x4 MSTORE PUSH1 0x24 PUSH1 0x0 REVERT JUMPDEST PUSH1 0x5 DUP2 LT PUSH2 0xE1D JUMPI PUSH2 0xE1C PUSH2 0xDDD JUMP JUMPDEST JUMPDEST POP JUMP JUMPDEST PUSH1 0x0 DUP2 SWAP1 POP PUSH2 0xE2E DUP3 PUSH2 0xE0C JUMP JUMPDEST SWAP2 SWAP1 POP JUMP JUMPDEST PUSH1 0x0 PUSH2 0xE3E DUP3 PUSH2 0xE20 JUMP JUMPDEST SWAP1 POP SWAP2 SWAP1 POP JUMP JUMPDEST PUSH2 0xE4E DUP2 PUSH2 0xE33 JUMP JUMPDEST DUP3 MSTORE POP POP JUMP JUMPDEST PUSH1 0x0 PUSH1 0x20 DUP3 ADD SWAP1 POP PUSH2 0xE69 PUSH1 0x0 DUP4 ADD DUP5 PUSH2 0xE45 JUMP JUMPDEST SWAP3 SWAP2 POP POP JUMP JUMPDEST PUSH1 0x0 DUP1 REVERT JUMPDEST PUSH1 0x5 DUP2 LT PUSH2 0xE81 JUMPI PUSH1 0x0 DUP1 REVERT JUMPDEST POP JUMP JUMPDEST PUSH1 0x0 DUP2 CALLDATALOAD SWAP1 POP PUSH2 0xE93 DUP2 PUSH2 0xE74 JUMP JUMPDEST SWAP3 SWAP2 POP POP JUMP JUMPDEST PUSH1 0x0 PUSH1 0x20 DUP3 DUP5 SUB SLT ISZERO PUSH2 0xEAF JUMPI PUSH2 0xEAE PUSH2 0xE6F JUMP JUMPDEST JUMPDEST PUSH1 0x0 PUSH2 0xEBD DUP5 DUP3 DUP6 ADD PUSH2 0xE84 JUMP JUMPDEST SWAP2 POP POP SWAP3 SWAP2 POP POP JUMP JUMPDEST PUSH1 0x0 PUSH4 0xFFFFFFFF DUP3 AND SWAP1 POP SWAP2 SWAP1 POP JUMP JUMPDEST PUSH2 0xEDF DUP2 PUSH2 0xEC6 JUMP JUMPDEST DUP3 MSTORE POP POP JUMP JUMPDEST PUSH1 0x0 PUSH1 0x20 DUP3 ADD SWAP1 POP PUSH2 0xEFA PUSH1 0x0 DUP4 ADD DUP5 PUSH2 0xED6 JUMP JUMPDEST SWAP3 SWAP2 POP POP JUMP JUMPDEST PUSH1 0x0 PUSH20 0xFFFFFFFFFFFFFFFFFFFFFFFFFFFFFFFFFFFFFFFF DUP3 AND SWAP1 POP SWAP2 SWAP1 POP JUMP JUMPDEST PUSH1 0x0 PUSH2 0xF2B DUP3 PUSH2 0xF00 JUMP JUMPDEST SWAP1 POP SWAP2 SWAP1 POP JUMP JUMPDEST PUSH2 0xF3B DUP2 PUSH2 0xF20 JUMP JUMPDEST DUP3 MSTORE POP POP JUMP JUMPDEST PUSH1 0x0 PUSH1 0x20 DUP3 ADD SWAP1 POP PUSH2 0xF56 PUSH1 0x0 DUP4 ADD DUP5 PUSH2 0xF32 JUMP JUMPDEST SWAP3 SWAP2 POP POP JUMP JUMPDEST PUSH2 0xF65 DUP2 PUSH2 0xF20 JUMP JUMPDEST DUP2 EQ PUSH2 0xF70 JUMPI PUSH1 0x0 DUP1 REVERT JUMPDEST POP JUMP JUMPDEST PUSH1 0x0 DUP2 CALLDATALOAD SWAP1 POP PUSH2 0xF82 DUP2 PUSH2 0xF5C JUMP JUMPDEST SWAP3 SWAP2 POP POP JUMP JUMPDEST PUSH1 0x0 PUSH1 0x20 DUP3 DUP5 SUB SLT ISZERO PUSH2 0xF9E JUMPI PUSH2 0xF9D PUSH2 0xE6F JUMP JUMPDEST JUMPDEST PUSH1 0x0 PUSH2 0xFAC DUP5 DUP3 DUP6 ADD PUSH2 0xF73 JUMP JUMPDEST SWAP2 POP POP SWAP3 SWAP2 POP POP JUMP JUMPDEST PUSH1 0x0 DUP2 ISZERO ISZERO SWAP1 POP SWAP2 SWAP1 POP JUMP JUMPDEST PUSH2 0xFCA DUP2 PUSH2 0xFB5 JUMP JUMPDEST DUP2 EQ PUSH2 0xFD5 JUMPI PUSH1 0x0 DUP1 REVERT JUMPDEST POP JUMP JUMPDEST PUSH1 0x0 DUP2 CALLDATALOAD SWAP1 POP PUSH2 0xFE7 DUP2 PUSH2 0xFC1 JUMP JUMPDEST SWAP3 SWAP2 POP POP JUMP JUMPDEST PUSH1 0x0 DUP1 PUSH1 0x40 DUP4 DUP6 SUB SLT ISZERO PUSH2 0x1004 JUMPI PUSH2 0x1003 PUSH2 0xE6F JUMP JUMPDEST JUMPDEST PUSH1 0x0 PUSH2 0x1012 DUP6 DUP3 DUP7 ADD PUSH2 0xF73 JUMP JUMPDEST SWAP3 POP POP PUSH1 0x20 PUSH2 0x1023 DUP6 DUP3 DUP7 ADD PUSH2 0xFD8 JUMP JUMPDEST SWAP2 POP POP SWAP3 POP SWAP3 SWAP1 POP JUMP JUMPDEST PUSH1 0x0 PUSH1 0x5 SWAP1 POP SWAP2 SWAP1 POP JUMP JUMPDEST PUSH1 0x0 DUP2 SWAP1 POP SWAP3 SWAP2 POP POP JUMP JUMPDEST PUSH1 0x0 DUP2 SWAP1 POP SWAP2 SWAP1 POP JUMP JUMPDEST PUSH2 0x1056 DUP2 PUSH2 0xDA9 JUMP JUMPDEST DUP3 MSTORE POP POP JUMP JUMPDEST PUSH1 0x0 PUSH2 0x1068 DUP4 DUP4 PUSH2 0x104D JUMP JUMPDEST PUSH1 0x20 DUP4 ADD SWAP1 POP SWAP3 SWAP2 POP POP JUMP JUMPDEST PUSH1 0x0 PUSH1 0x20 DUP3 ADD SWAP1 POP SWAP2 SWAP1 POP JUMP JUMPDEST PUSH2 0x108A DUP2 PUSH2 0x102D JUMP JUMPDEST PUSH2 0x1094 DUP2 DUP5 PUSH2 0x1038 JUMP JUMPDEST SWAP3 POP PUSH2 0x109F DUP3 PUSH2 0x1043 JUMP JUMPDEST DUP1 PUSH1 0x0 JUMPDEST DUP4 DUP2 LT ISZERO PUSH2 0x10D0 JUMPI DUP2 MLOAD PUSH2 0x10B7 DUP8 DUP3 PUSH2 0x105C JUMP JUMPDEST SWAP7 POP PUSH2 0x10C2 DUP4 PUSH2 0x1074 JUMP JUMPDEST SWAP3 POP POP PUSH1 0x1 DUP2 ADD SWAP1 POP PUSH2 0x10A3 JUMP JUMPDEST POP POP POP POP POP POP JUMP JUMPDEST PUSH1 0x0 PUSH1 0xA0 DUP3 ADD SWAP1 POP PUSH2 0x10ED PUSH1 0x0 DUP4 ADD DUP5 PUSH2 0x1081 JUMP JUMPDEST SWAP3 SWAP2 POP POP JUMP JUMPDEST PUSH2 0x10FC DUP2 PUSH2 0xDA9 JUMP JUMPDEST DUP2 EQ PUSH2 0x1107 JUMPI PUSH1 0x0 DUP1 REVERT JUMPDEST POP JUMP JUMPDEST PUSH1 0x0 DUP2 CALLDATALOAD SWAP1 POP PUSH2 0x1119 DUP2 PUSH2 0x10F3 JUMP JUMPDEST SWAP3 SWAP2 POP POP JUMP JUMPDEST PUSH1 0x0 PUSH1 0x20 DUP3 DUP5 SUB SLT ISZERO PUSH2 0x1135 JUMPI PUSH2 0x1134 PUSH2 0xE6F JUMP JUMPDEST JUMPDEST PUSH1 0x0 PUSH2 0x1143 DUP5 DUP3 DUP6 ADD PUSH2 0x110A JUMP JUMPDEST SWAP2 POP POP SWAP3 SWAP2 POP POP JUMP JUMPDEST PUSH2 0x1155 DUP2 PUSH2 0xEC6 JUMP JUMPDEST DUP2 EQ PUSH2 0x1160 JUMPI PUSH1 0x0 DUP1 REVERT JUMPDEST POP JUMP JUMPDEST PUSH1 0x0 DUP2 CALLDATALOAD SWAP1 POP PUSH2 0x1172 DUP2 PUSH2 0x114C JUMP JUMPDEST SWAP3 SWAP2 POP POP JUMP JUMPDEST PUSH1 0x0 PUSH1 0x20 DUP3 DUP5 SUB SLT ISZERO PUSH2 0x118E JUMPI PUSH2 0x118D PUSH2 0xE6F JUMP JUMPDEST JUMPDEST PUSH1 0x0 PUSH2 0x119C DUP5 DUP3 DUP6 ADD PUSH2 0x1163 JUMP JUMPDEST SWAP2 POP POP SWAP3 SWAP2 POP POP JUMP JUMPDEST PUSH1 0x0 DUP2 MLOAD SWAP1 POP PUSH2 0x11B4 DUP2 PUSH2 0x10F3 JUMP JUMPDEST SWAP3 SWAP2 POP POP JUMP JUMPDEST PUSH1 0x0 PUSH1 0x20 DUP3 DUP5 SUB SLT ISZERO PUSH2 0x11D0 JUMPI PUSH2 0x11CF PUSH2 0xE6F JUMP JUMPDEST JUMPDEST PUSH1 0x0 PUSH2 0x11DE DUP5 DUP3 DUP6 ADD PUSH2 0x11A5 JUMP JUMPDEST SWAP2 POP POP SWAP3 SWAP2 POP POP JUMP JUMPDEST PUSH1 0x0 DUP3 DUP3 MSTORE PUSH1 0x20 DUP3 ADD SWAP1 POP SWAP3 SWAP2 POP POP JUMP JUMPDEST PUSH32 0x4F776E61626C653A206E6577206F776E657220697320746865207A65726F2061 PUSH1 0x0 DUP3 ADD MSTORE PUSH32 0x6464726573730000000000000000000000000000000000000000000000000000 PUSH1 0x20 DUP3 ADD MSTORE POP JUMP JUMPDEST PUSH1 0x0 PUSH2 0x1254 PUSH1 0x26 DUP4 PUSH2 0x11E7 JUMP JUMPDEST SWAP2 POP PUSH2 0x125F DUP3 PUSH2 0x11F8 JUMP JUMPDEST PUSH1 0x40 DUP3 ADD SWAP1 POP SWAP2 SWAP1 POP JUMP JUMPDEST PUSH1 0x0 PUSH1 0x20 DUP3 ADD SWAP1 POP DUP2 DUP2 SUB PUSH1 0x0 DUP4 ADD MSTORE PUSH2 0x1283 DUP2 PUSH2 0x1247 JUMP JUMPDEST SWAP1 POP SWAP2 SWAP1 POP JUMP JUMPDEST PUSH32 0x4E487B7100000000000000000000000000000000000000000000000000000000 PUSH1 0x0 MSTORE PUSH1 0x11 PUSH1 0x4 MSTORE PUSH1 0x24 PUSH1 0x0 REVERT JUMPDEST PUSH1 0x0 PUSH2 0x12C4 DUP3 PUSH2 0xDA9 JUMP JUMPDEST SWAP2 POP PUSH2 0x12CF DUP4 PUSH2 0xDA9 JUMP JUMPDEST SWAP3 POP DUP3 DUP3 LT ISZERO PUSH2 0x12E2 JUMPI PUSH2 0x12E1 PUSH2 0x128A JUMP JUMPDEST JUMPDEST DUP3 DUP3 SUB SWAP1 POP SWAP3 SWAP2 POP POP JUMP JUMPDEST PUSH32 0x4E487B7100000000000000000000000000000000000000000000000000000000 PUSH1 0x0 MSTORE PUSH1 0x12 PUSH1 0x4 MSTORE PUSH1 0x24 PUSH1 0x0 REVERT JUMPDEST PUSH1 0x0 PUSH2 0x1327 DUP3 PUSH2 0xDA9 JUMP JUMPDEST SWAP2 POP PUSH2 0x1332 DUP4 PUSH2 0xDA9 JUMP JUMPDEST SWAP3 POP DUP3 PUSH2 0x1342 JUMPI PUSH2 0x1341 PUSH2 0x12ED JUMP JUMPDEST JUMPDEST DUP3 DUP3 DIV SWAP1 POP SWAP3 SWAP2 POP POP JUMP JUMPDEST PUSH32 0x4F776E61626C653A2063616C6C6572206973206E6F7420746865206F776E6572 PUSH1 0x0 DUP3 ADD MSTORE POP JUMP JUMPDEST PUSH1 0x0 PUSH2 0x1383 PUSH1 0x20 DUP4 PUSH2 0x11E7 JUMP JUMPDEST SWAP2 POP PUSH2 0x138E DUP3 PUSH2 0x134D JUMP JUMPDEST PUSH1 0x20 DUP3 ADD SWAP1 POP SWAP2 SWAP1 POP JUMP JUMPDEST PUSH1 0x0 PUSH1 0x20 DUP3 ADD SWAP1 POP DUP2 DUP2 SUB PUSH1 0x0 DUP4 ADD MSTORE PUSH2 0x13B2 DUP2 PUSH2 0x1376 JUMP JUMPDEST SWAP1 POP SWAP2 SWAP1 POP JUMP JUMPDEST PUSH1 0x0 PUSH2 0x13C4 DUP3 PUSH2 0xDA9 JUMP JUMPDEST SWAP2 POP PUSH2 0x13CF DUP4 PUSH2 0xDA9 JUMP JUMPDEST SWAP3 POP DUP2 PUSH32 0xFFFFFFFFFFFFFFFFFFFFFFFFFFFFFFFFFFFFFFFFFFFFFFFFFFFFFFFFFFFFFFFF DIV DUP4 GT DUP3 ISZERO ISZERO AND ISZERO PUSH2 0x1408 JUMPI PUSH2 0x1407 PUSH2 0x128A JUMP JUMPDEST JUMPDEST DUP3 DUP3 MUL SWAP1 POP SWAP3 SWAP2 POP POP JUMP INVALID LOG2 PUSH5 0x6970667358 0x22 SLT KECCAK256 DUP13 ADDMOD TIMESTAMP PUSH25 0xAA0F3246B36AD50177C91A4AA877703F14A294ADD753AEC6CA MUL 0xC1 DUP4 PUSH5 0x736F6C6343 STOP ADDMOD EXP STOP CALLER LOG2 PUSH5 0x6970667358 0x22 SLT KECCAK256 0xD9 0xD CALL 0xEF LOG2 ORIGIN 0xE3 SWAP9 0x2D CALLDATALOAD 0x2F 0xE 0xB2 0xD3 0x5D COINBASE 0xEE 0x5D LT NOT CODESIZE 0xDF ORIGIN CALLVALUE PUSH4 0x422987BD 0xCE 0xCF 0x4B PUSH5 0x736F6C6343 STOP ADDMOD EXP STOP CALLER "
		},
		"gasEstimates": {
			"creation": {
				"codeDepositCost": "4827800",
				"executionCost": "infinite",
				"totalCost": "infinite"
			},
			"external": {
				"accept(uint256,uint256)": "infinite",
				"cancel(uint256)": "infinite",
				"claim(uint256)": "infinite",
				"close(uint256)": "infinite",
				"create(bool,uint256,uint256,uint256,uint256,uint256,uint32,uint32)": "infinite",
				"deposits(uint256,uint256)": "infinite",
				"expire(uint256)": "infinite",
				"getBuyer(uint256)": "infinite",
				"getCDS(uint256)": "infinite",
				"getCDSId()": "2657",
				"getSeller(uint256)": "infinite",
				"nextPayDate(uint256)": "infinite",
				"owner()": "2633",
				"payPremium(uint256)": "infinite",
				"payPremiumByDeposit(uint256)": "infinite",
				"renounceOwnership()": "30465",
				"token()": "infinite",
				"transferOwnership(address)": "30835",
				"withdraw(uint256)": "infinite"
			}
		},
		"methodIdentifiers": {
			"accept(uint256,uint256)": "09358479",
			"cancel(uint256)": "40e58ee5",
			"claim(uint256)": "379607f5",
			"close(uint256)": "0aebeb4e",
			"create(bool,uint256,uint256,uint256,uint256,uint256,uint32,uint32)": "8a614dd5",
			"deposits(uint256,uint256)": "2bd49780",
			"expire(uint256)": "bf81bf43",
			"getBuyer(uint256)": "5bf608b8",
			"getCDS(uint256)": "5af8d21c",
			"getCDSId()": "d0e5d955",
			"getSeller(uint256)": "d6a9de51",
			"nextPayDate(uint256)": "44a9d244",
			"owner()": "8da5cb5b",
			"payPremium(uint256)": "4364b26e",
			"payPremiumByDeposit(uint256)": "2926ea2a",
			"renounceOwnership()": "715018a6",
			"token()": "fc0c546a",
			"transferOwnership(address)": "f2fde38b",
			"withdraw(uint256)": "2e1a7d4d"
		}
	},
	"abi": [
		{
			"anonymous": false,
			"inputs": [
				{
					"indexed": true,
					"internalType": "address",
					"name": "guestAddr",
					"type": "address"
				},
				{
					"indexed": false,
					"internalType": "uint256",
					"name": "cdsId",
					"type": "uint256"
				}
			],
			"name": "Accept",
			"type": "event"
		},
		{
			"anonymous": false,
			"inputs": [
				{
					"indexed": false,
					"internalType": "uint256",
					"name": "cdsId",
					"type": "uint256"
				}
			],
			"name": "Cancel",
			"type": "event"
		},
		{
			"anonymous": false,
			"inputs": [
				{
					"indexed": false,
					"internalType": "uint256",
					"name": "cdsId",
					"type": "uint256"
				},
				{
					"indexed": false,
					"internalType": "uint256",
					"name": "claimReward",
					"type": "uint256"
				}
			],
			"name": "Claim",
			"type": "event"
		},
		{
			"anonymous": false,
			"inputs": [
				{
					"indexed": false,
					"internalType": "uint256",
					"name": "cdsId",
					"type": "uint256"
				}
			],
			"name": "Close",
			"type": "event"
		},
		{
			"anonymous": false,
			"inputs": [
				{
					"indexed": true,
					"internalType": "address",
					"name": "hostAddr",
					"type": "address"
				},
				{
					"indexed": false,
					"internalType": "bool",
					"name": "isBuyer",
					"type": "bool"
				},
				{
					"indexed": false,
					"internalType": "uint256",
					"name": "cdsId",
					"type": "uint256"
				},
				{
					"indexed": false,
					"internalType": "uint32",
					"name": "assetType",
					"type": "uint32"
				},
				{
					"indexed": false,
					"internalType": "address",
					"name": "swap",
					"type": "address"
				}
			],
			"name": "Create",
			"type": "event"
		},
		{
			"anonymous": false,
			"inputs": [
				{
					"indexed": false,
					"internalType": "uint256",
					"name": "cdsId",
					"type": "uint256"
				}
			],
			"name": "Expire",
			"type": "event"
		},
		{
			"anonymous": false,
			"inputs": [
				{
					"indexed": true,
					"internalType": "address",
					"name": "previousOwner",
					"type": "address"
				},
				{
					"indexed": true,
					"internalType": "address",
					"name": "newOwner",
					"type": "address"
				}
			],
			"name": "OwnershipTransferred",
			"type": "event"
		},
		{
			"anonymous": false,
			"inputs": [
				{
					"indexed": false,
					"internalType": "uint256",
					"name": "cdsId",
					"type": "uint256"
				}
			],
			"name": "PayPremium",
			"type": "event"
		},
		{
			"inputs": [
				{
					"internalType": "uint256",
					"name": "initAssetPrice",
					"type": "uint256"
				},
				{
					"internalType": "uint256",
					"name": "cdsId",
					"type": "uint256"
				}
			],
			"name": "accept",
			"outputs": [
				{
					"internalType": "uint256",
					"name": "",
					"type": "uint256"
				}
			],
			"stateMutability": "nonpayable",
			"type": "function"
		},
		{
			"inputs": [
				{
					"internalType": "uint256",
					"name": "cdsId",
					"type": "uint256"
				}
			],
			"name": "cancel",
			"outputs": [
				{
					"internalType": "bool",
					"name": "",
					"type": "bool"
				}
			],
			"stateMutability": "nonpayable",
			"type": "function"
		},
		{
			"inputs": [
				{
					"internalType": "uint256",
					"name": "cdsId",
					"type": "uint256"
				}
			],
			"name": "claim",
			"outputs": [
				{
					"internalType": "bool",
					"name": "",
					"type": "bool"
				}
			],
			"stateMutability": "nonpayable",
			"type": "function"
		},
		{
			"inputs": [
				{
					"internalType": "uint256",
					"name": "cdsId",
					"type": "uint256"
				}
			],
			"name": "close",
			"outputs": [
				{
					"internalType": "bool",
					"name": "",
					"type": "bool"
				}
			],
			"stateMutability": "nonpayable",
			"type": "function"
		},
		{
			"inputs": [
				{
					"internalType": "bool",
					"name": "isBuyer",
					"type": "bool"
				},
				{
					"internalType": "uint256",
					"name": "initAssetPrice",
					"type": "uint256"
				},
				{
					"internalType": "uint256",
					"name": "claimPrice",
					"type": "uint256"
				},
				{
					"internalType": "uint256",
					"name": "liquidationPrice",
					"type": "uint256"
				},
				{
					"internalType": "uint256",
					"name": "sellerDeposit",
					"type": "uint256"
				},
				{
					"internalType": "uint256",
					"name": "premium",
					"type": "uint256"
				},
				{
					"internalType": "uint32",
					"name": "totalRounds",
					"type": "uint32"
				},
				{
					"internalType": "uint32",
					"name": "assetType",
					"type": "uint32"
				}
			],
			"name": "create",
			"outputs": [
				{
					"internalType": "uint256",
					"name": "",
					"type": "uint256"
				}
			],
			"stateMutability": "nonpayable",
			"type": "function"
		},
		{
			"inputs": [
				{
					"internalType": "uint256",
					"name": "",
					"type": "uint256"
				},
				{
					"internalType": "uint256",
					"name": "",
					"type": "uint256"
				}
			],
			"name": "deposits",
			"outputs": [
				{
					"internalType": "uint256",
					"name": "",
					"type": "uint256"
				}
			],
			"stateMutability": "view",
			"type": "function"
		},
		{
			"inputs": [
				{
					"internalType": "uint256",
					"name": "cdsId",
					"type": "uint256"
				}
			],
			"name": "expire",
			"outputs": [
				{
					"internalType": "bool",
					"name": "",
					"type": "bool"
				}
			],
			"stateMutability": "nonpayable",
			"type": "function"
		},
		{
			"inputs": [
				{
					"internalType": "uint256",
					"name": "cdsId",
					"type": "uint256"
				}
			],
			"name": "getBuyer",
			"outputs": [
				{
					"internalType": "address",
					"name": "",
					"type": "address"
				}
			],
			"stateMutability": "view",
			"type": "function"
		},
		{
			"inputs": [
				{
					"internalType": "uint256",
					"name": "cdsId",
					"type": "uint256"
				}
			],
			"name": "getCDS",
			"outputs": [
				{
					"internalType": "contract CDS",
					"name": "",
					"type": "address"
				}
			],
			"stateMutability": "view",
			"type": "function"
		},
		{
			"inputs": [],
			"name": "getCDSId",
			"outputs": [
				{
					"components": [
						{
							"internalType": "uint256",
							"name": "_value",
							"type": "uint256"
						}
					],
					"internalType": "struct Counters.Counter",
					"name": "",
					"type": "tuple"
				}
			],
			"stateMutability": "view",
			"type": "function"
		},
		{
			"inputs": [
				{
					"internalType": "uint256",
					"name": "cdsId",
					"type": "uint256"
				}
			],
			"name": "getSeller",
			"outputs": [
				{
					"internalType": "address",
					"name": "",
					"type": "address"
				}
			],
			"stateMutability": "view",
			"type": "function"
		},
		{
			"inputs": [
				{
					"internalType": "uint256",
					"name": "",
					"type": "uint256"
				}
			],
			"name": "nextPayDate",
			"outputs": [
				{
					"internalType": "uint256",
					"name": "",
					"type": "uint256"
				}
			],
			"stateMutability": "view",
			"type": "function"
		},
		{
			"inputs": [],
			"name": "owner",
			"outputs": [
				{
					"internalType": "address",
					"name": "",
					"type": "address"
				}
			],
			"stateMutability": "view",
			"type": "function"
		},
		{
			"inputs": [
				{
					"internalType": "uint256",
					"name": "cdsId",
					"type": "uint256"
				}
			],
			"name": "payPremium",
			"outputs": [
				{
					"internalType": "bool",
					"name": "",
					"type": "bool"
				}
			],
			"stateMutability": "nonpayable",
			"type": "function"
		},
		{
			"inputs": [
				{
					"internalType": "uint256",
					"name": "cdsId",
					"type": "uint256"
				}
			],
			"name": "payPremiumByDeposit",
			"outputs": [
				{
					"internalType": "bool",
					"name": "",
					"type": "bool"
				}
			],
			"stateMutability": "nonpayable",
			"type": "function"
		},
		{
			"inputs": [],
			"name": "renounceOwnership",
			"outputs": [],
			"stateMutability": "nonpayable",
			"type": "function"
		},
		{
			"inputs": [],
			"name": "token",
			"outputs": [
				{
					"internalType": "contract IERC20",
					"name": "",
					"type": "address"
				}
			],
			"stateMutability": "view",
			"type": "function"
		},
		{
			"inputs": [
				{
					"internalType": "address",
					"name": "newOwner",
					"type": "address"
				}
			],
			"name": "transferOwnership",
			"outputs": [],
			"stateMutability": "nonpayable",
			"type": "function"
		},
		{
			"inputs": [
				{
					"internalType": "uint256",
					"name": "amount",
					"type": "uint256"
				}
			],
			"name": "withdraw",
			"outputs": [
				{
					"internalType": "bool",
					"name": "",
					"type": "bool"
				}
			],
			"stateMutability": "nonpayable",
			"type": "function"
		}
	]
}