{
	"data": {
		"bytecode": {
			"linkReferences": {},
			"object": "60806040523480156200001157600080fd5b5073609b8ced16a83cff90a3d3b3cbe7894931e7c382600360006101000a81548173ffffffffffffffffffffffffffffffffffffffff021916908373ffffffffffffffffffffffffffffffffffffffff160217905550620000876200007b6200008d60201b60201c565b6200009560201b60201c565b6200015b565b600033905090565b6000600560009054906101000a900473ffffffffffffffffffffffffffffffffffffffff16905081600560006101000a81548173ffffffffffffffffffffffffffffffffffffffff021916908373ffffffffffffffffffffffffffffffffffffffff1602179055508173ffffffffffffffffffffffffffffffffffffffff168173ffffffffffffffffffffffffffffffffffffffff167f8be0079c531659141344cd1fd0a4f28419497f9722a3daafe3b4186f6b6457e060405160405180910390a35050565b615c3d806200016b6000396000f3fe60806040523480156200001157600080fd5b5060043610620001785760003560e01c80635bf608b811620000d557806391492956116200008757806391492956146200050b578063bf81bf431462000541578063d0e5d9551462000577578063d6a9de511462000599578063f2fde38b14620005cf578063fc0c546a14620005ef5762000178565b80635bf608b814620004055780635c622a0e146200043b578063715018a6146200047157806388106323146200047d5780638a614dd514620004b35780638da5cb5b14620004e95762000178565b80632e1a7d4d116200012f5780632e1a7d4d14620002c1578063379607f514620002f757806340e58ee5146200032d5780634364b26e146200036357806344a9d24414620003995780635af8d21c14620003cf5762000178565b806309358479146200017d5780630aebeb4e14620001b357806313ef3dcc14620001e95780631bf1fffb146200021f5780632926ea2a14620002555780632bd49780146200028b575b600080fd5b6200019b600480360381019062000195919062002e41565b62000611565b604051620001aa919062002e99565b60405180910390f35b620001d16004803603810190620001cb919062002eb6565b62000795565b604051620001e0919062002f05565b60405180910390f35b62000207600480360381019062000201919062002eb6565b6200086d565b60405162000216919062002f43565b60405180910390f35b6200023d600480360381019062000237919062002eb6565b6200091b565b6040516200024c919062002e99565b60405180910390f35b6200027360048036038101906200026d919062002eb6565b620009c9565b60405162000282919062002f05565b60405180910390f35b620002a96004803603810190620002a3919062002e41565b62000a2d565b604051620002b8919062002e99565b60405180910390f35b620002df6004803603810190620002d9919062002eb6565b62000a56565b604051620002ee919062002f05565b60405180910390f35b6200031560048036038101906200030f919062002eb6565b62000b1a565b60405162000324919062002f05565b60405180910390f35b6200034b600480360381019062000345919062002eb6565b62000cba565b6040516200035a919062002f05565b60405180910390f35b6200038160048036038101906200037b919062002eb6565b62000dd3565b60405162000390919062002f05565b60405180910390f35b620003b76004803603810190620003b1919062002eb6565b62000eaa565b604051620003c6919062002e99565b60405180910390f35b620003ed6004803603810190620003e7919062002eb6565b62000ec2565b604051620003fc919062002feb565b60405180910390f35b6200042360048036038101906200041d919062002eb6565b62000eff565b6040516200043291906200302d565b60405180910390f35b62000459600480360381019062000453919062002eb6565b62000fad565b604051620004689190620030ca565b60405180910390f35b6200047b6200105b565b005b6200049b600480360381019062000495919062002eb6565b62001073565b604051620004aa919062002e99565b60405180910390f35b620004d16004803603810190620004cb919062003149565b62001121565b604051620004e0919062002e99565b60405180910390f35b620004f3620011b5565b6040516200050291906200302d565b60405180910390f35b62000529600480360381019062000523919062002eb6565b620011df565b604051620005389190620032cd565b60405180910390f35b6200055f600480360381019062000559919062002eb6565b62001295565b6040516200056e919062002f05565b60405180910390f35b62000581620012f0565b60405162000590919062003308565b60405180910390f35b620005b76004803603810190620005b1919062002eb6565b62001316565b604051620005c691906200302d565b60405180910390f35b620005ed6004803603810190620005e7919062003356565b620013c4565b005b620005f96200144f565b604051620006089190620033ad565b60405180910390f35b60006200061e8262000eff565b73ffffffffffffffffffffffffffffffffffffffff163373ffffffffffffffffffffffffffffffffffffffff1614158015620006905750620006608262001316565b73ffffffffffffffffffffffffffffffffffffffff163373ffffffffffffffffffffffffffffffffffffffff1614155b620006d2576040517f08c379a0000000000000000000000000000000000000000000000000000000008152600401620006c9906200342b565b60405180910390fd5b60008073ffffffffffffffffffffffffffffffffffffffff16620006f68462001316565b73ffffffffffffffffffffffffffffffffffffffff1614905060006200071e82868662001475565b90506200072d84831562001773565b50620007398462001980565b503373ffffffffffffffffffffffffffffffffffffffff167f68e07974e86f9190b39c5e1783e6ba66b3d0d7ccf507de51450f14e594d168688260405162000782919062002e99565b60405180910390a2809250505092915050565b600081620007a38162000eff565b73ffffffffffffffffffffffffffffffffffffffff163373ffffffffffffffffffffffffffffffffffffffff161462000813576040517f08c379a00000000000000000000000000000000000000000000000000000000081526004016200080a906200349d565b60405180910390fd5b6200081e8362001b7c565b620008298362001c88565b507fbf67515a38ee520223d32c1266d52101c30d936ed1f3e436c8caeb0a43cb06bf836040516200085b919062002e99565b60405180910390a16001915050919050565b60006001600083815260200190815260200160002060009054906101000a900473ffffffffffffffffffffffffffffffffffffffff1673ffffffffffffffffffffffffffffffffffffffff1663a2e800ad6040518163ffffffff1660e01b8152600401602060405180830381865afa158015620008ee573d6000803e3d6000fd5b505050506040513d601f19601f82011682018060405250810190620009149190620034d6565b9050919050565b60006001600083815260200190815260200160002060009054906101000a900473ffffffffffffffffffffffffffffffffffffffff1673ffffffffffffffffffffffffffffffffffffffff1663e0a73a936040518163ffffffff1660e01b8152600401602060405180830381865afa1580156200099c573d6000803e3d6000fd5b505050506040513d601f19601f82011682018060405250810190620009c291906200351f565b9050919050565b6000620009d562001e86565b620009e08262001f0b565b620009eb82620020b3565b7f73fe46267e05ae56a3625c045df1b74c1b1736a7535eeadef3c57551bfd005998260405162000a1c919062002e99565b60405180910390a160019050919050565b6004602052816000526040600020816002811062000a4a57600080fd5b01600091509150505481565b600062000a6262001e86565b600360009054906101000a900473ffffffffffffffffffffffffffffffffffffffff1673ffffffffffffffffffffffffffffffffffffffff1663a9059cbb62000aaa620011b5565b846040518363ffffffff1660e01b815260040162000aca92919062003551565b6020604051808303816000875af115801562000aea573d6000803e3d6000fd5b505050506040513d601f19601f8201168201806040525081019062000b10919062003595565b5060019050919050565b60008162000b288162000eff565b73ffffffffffffffffffffffffffffffffffffffff163373ffffffffffffffffffffffffffffffffffffffff161462000b98576040517f08c379a000000000000000000000000000000000000000000000000000000000815260040162000b8f906200349d565b60405180910390fd5b600062000ba58462000ec2565b73ffffffffffffffffffffffffffffffffffffffff1663f26cc58e6040518163ffffffff1660e01b8152600401602060405180830381865afa15801562000bf0573d6000803e3d6000fd5b505050506040513d601f19601f8201168201806040525081019062000c1691906200351f565b141562000c5a576040517f08c379a000000000000000000000000000000000000000000000000000000000815260040162000c51906200363d565b60405180910390fd5b62000c65836200227e565b600062000c72846200238a565b90507f022e3d29644ead4083349ca84d24bcac368b2461819b70f5921fea15de4dec4d848260405162000ca79291906200365f565b60405180910390a1600192505050919050565b60008162000cc88162000eff565b73ffffffffffffffffffffffffffffffffffffffff163373ffffffffffffffffffffffffffffffffffffffff16148062000d37575062000d088162001316565b73ffffffffffffffffffffffffffffffffffffffff163373ffffffffffffffffffffffffffffffffffffffff16145b62000d79576040517f08c379a000000000000000000000000000000000000000000000000000000000815260040162000d709062003702565b60405180910390fd5b62000d848362002642565b62000d8f8362001c88565b507f8bf30e7ff26833413be5f69e1d373744864d600b664204b4a2f9844a8eedb9ed8360405162000dc1919062002e99565b60405180910390a16001915050919050565b60008162000de18162000eff565b73ffffffffffffffffffffffffffffffffffffffff163373ffffffffffffffffffffffffffffffffffffffff161462000e51576040517f08c379a000000000000000000000000000000000000000000000000000000000815260040162000e48906200349d565b60405180910390fd5b62000e5c8362001f0b565b62000e67836200274e565b7f73fe46267e05ae56a3625c045df1b74c1b1736a7535eeadef3c57551bfd005998360405162000e98919062002e99565b60405180910390a16001915050919050565b60026020528060005260406000206000915090505481565b60006001600083815260200190815260200160002060009054906101000a900473ffffffffffffffffffffffffffffffffffffffff169050919050565b60006001600083815260200190815260200160002060009054906101000a900473ffffffffffffffffffffffffffffffffffffffff1673ffffffffffffffffffffffffffffffffffffffff1663603daf9a6040518163ffffffff1660e01b8152600401602060405180830381865afa15801562000f80573d6000803e3d6000fd5b505050506040513d601f19601f8201168201806040525081019062000fa691906200373b565b9050919050565b60006001600083815260200190815260200160002060009054906101000a900473ffffffffffffffffffffffffffffffffffffffff1673ffffffffffffffffffffffffffffffffffffffff1663200d2ed26040518163ffffffff1660e01b8152600401602060405180830381865afa1580156200102e573d6000803e3d6000fd5b505050506040513d601f19601f8201168201806040525081019062001054919062003795565b9050919050565b6200106562001e86565b6200107160006200285e565b565b60006001600083815260200190815260200160002060009054906101000a900473ffffffffffffffffffffffffffffffffffffffff1673ffffffffffffffffffffffffffffffffffffffff16634c1786ea6040518163ffffffff1660e01b8152600401602060405180830381865afa158015620010f4573d6000803e3d6000fd5b505050506040513d601f19601f820116820180604052508101906200111a91906200351f565b9050919050565b600080620011368a8a8a8a8a8a8a8a62002924565b905062001144818b62001773565b503373ffffffffffffffffffffffffffffffffffffffff167f9eab9cfac223c6527657a8d86c920796a5ab5038bc0f4497038958ac33fa8f838b83866200118b8662000ec2565b6040516200119d9493929190620037c7565b60405180910390a28091505098975050505050505050565b6000600560009054906101000a900473ffffffffffffffffffffffffffffffffffffffff16905090565b620011e962002db4565b6001600083815260200190815260200160002060009054906101000a900473ffffffffffffffffffffffffffffffffffffffff1673ffffffffffffffffffffffffffffffffffffffff1663bd9a548b6040518163ffffffff1660e01b815260040160a060405180830381865afa15801562001268573d6000803e3d6000fd5b505050506040513d601f19601f820116820180604052508101906200128e919062003977565b9050919050565b6000620012a28262002afe565b620012ad8262001c88565b507fa33fd53ba34795ffefaea3759c71f87d38b89ae12e40bc434c826fae0ca5358382604051620012df919062002e99565b60405180910390a160019050919050565b620012fa62002dd6565b6000604051806020016040529081600082015481525050905090565b60006001600083815260200190815260200160002060009054906101000a900473ffffffffffffffffffffffffffffffffffffffff1673ffffffffffffffffffffffffffffffffffffffff1663dbd0e1b66040518163ffffffff1660e01b8152600401602060405180830381865afa15801562001397573d6000803e3d6000fd5b505050506040513d601f19601f82011682018060405250810190620013bd91906200373b565b9050919050565b620013ce62001e86565b600073ffffffffffffffffffffffffffffffffffffffff168173ffffffffffffffffffffffffffffffffffffffff16141562001441576040517f08c379a0000000000000000000000000000000000000000000000000000000008152600401620014389062003a1f565b60405180910390fd5b6200144c816200285e565b50565b600360009054906101000a900473ffffffffffffffffffffffffffffffffffffffff1681565b600081600160048111156200148f576200148e6200304a565b5b6200149a8262000fad565b6004811115620014af57620014ae6200304a565b5b14620014f2576040517f08c379a0000000000000000000000000000000000000000000000000000000008152600401620014e99062003ab7565b60405180910390fd5b60006001600085815260200190815260200160002060009054906101000a900473ffffffffffffffffffffffffffffffffffffffff1690508073ffffffffffffffffffffffffffffffffffffffff1663bef904e3866040518263ffffffff1660e01b815260040162001565919062002e99565b6020604051808303816000875af115801562001585573d6000803e3d6000fd5b505050506040513d601f19601f82011682018060405250810190620015ab91906200351f565b508562001639578073ffffffffffffffffffffffffffffffffffffffff1663a3f09ad6336040518263ffffffff1660e01b8152600401620015ed91906200302d565b6020604051808303816000875af11580156200160d573d6000803e3d6000fd5b505050506040513d601f19601f820116820180604052508101906200163391906200373b565b620016bb565b8073ffffffffffffffffffffffffffffffffffffffff1663e99d2866336040518263ffffffff1660e01b81526004016200167491906200302d565b6020604051808303816000875af115801562001694573d6000803e3d6000fd5b505050506040513d601f19601f82011682018060405250810190620016ba91906200373b565b5b506224ea0042620016cd919062003b08565b60026000868152602001908152602001600020819055508073ffffffffffffffffffffffffffffffffffffffff16632e49d78b60026040518263ffffffff1660e01b8152600401620017209190620030ca565b6020604051808303816000875af115801562001740573d6000803e3d6000fd5b505050506040513d601f19601f8201168201806040525081019062001766919062003795565b5083925050509392505050565b600080821562001886576200179d60046200178e866200091b565b62002d1b90919063ffffffff16565b9050600360009054906101000a900473ffffffffffffffffffffffffffffffffffffffff1673ffffffffffffffffffffffffffffffffffffffff166323b872dd620017e88662000eff565b30846040518463ffffffff1660e01b81526004016200180a9392919062003b65565b6020604051808303816000875af11580156200182a573d6000803e3d6000fd5b505050506040513d601f19601f8201168201806040525081019062001850919062003595565b5080600460008681526020019081526020016000206000600281106200187b576200187a62003ba2565b5b018190555062001975565b620018918462001073565b9050600360009054906101000a900473ffffffffffffffffffffffffffffffffffffffff1673ffffffffffffffffffffffffffffffffffffffff166323b872dd620018dc8662001316565b30846040518463ffffffff1660e01b8152600401620018fe9392919062003b65565b6020604051808303816000875af11580156200191e573d6000803e3d6000fd5b505050506040513d601f19601f8201168201806040525081019062001944919062003595565b5080600460008681526020019081526020016000206001600281106200196f576200196e62003ba2565b5b01819055505b600191505092915050565b600080600360009054906101000a900473ffffffffffffffffffffffffffffffffffffffff1673ffffffffffffffffffffffffffffffffffffffff1663a9059cbb620019cc8562001316565b620019d7866200091b565b6040518363ffffffff1660e01b8152600401620019f692919062003551565b6020604051808303816000875af115801562001a16573d6000803e3d6000fd5b505050506040513d601f19601f8201168201806040525081019062001a3c919062003595565b90508062001a81576040517f08c379a000000000000000000000000000000000000000000000000000000000815260040162001a789062003c21565b60405180910390fd5b62001a8c836200091b565b6004600085815260200190815260200160002060006002811062001ab55762001ab462003ba2565b5b01600082825462001ac7919062003c43565b9250508190555062001ad98362000ec2565b73ffffffffffffffffffffffffffffffffffffffff1663d2895e93600162001b01866200086d565b62001b0d919062003c7e565b6040518263ffffffff1660e01b815260040162001b2b919062002f43565b6020604051808303816000875af115801562001b4b573d6000803e3d6000fd5b505050506040513d601f19601f8201168201806040525081019062001b719190620034d6565b506001915050919050565b806002600481111562001b945762001b936200304a565b5b62001b9f8262000fad565b600481111562001bb45762001bb36200304a565b5b1462001bf7576040517f08c379a000000000000000000000000000000000000000000000000000000000815260040162001bee9062003d2f565b60405180910390fd5b62001c028262000ec2565b73ffffffffffffffffffffffffffffffffffffffff16632e49d78b60046040518263ffffffff1660e01b815260040162001c3d9190620030ca565b6020604051808303816000875af115801562001c5d573d6000803e3d6000fd5b505050506040513d601f19601f8201168201806040525081019062001c83919062003795565b505050565b600080604051806040016040528062001ca18562000eff565b73ffffffffffffffffffffffffffffffffffffffff1673ffffffffffffffffffffffffffffffffffffffff16815260200162001cdd8562001316565b73ffffffffffffffffffffffffffffffffffffffff1673ffffffffffffffffffffffffffffffffffffffff16815250905060005b6001811162001e7057600060046000868152602001908152602001600020826002811062001d445762001d4362003ba2565b5b015490506000811462001e59576000600360009054906101000a900473ffffffffffffffffffffffffffffffffffffffff1673ffffffffffffffffffffffffffffffffffffffff1663a9059cbb85856002811062001da75762001da662003ba2565b5b6020020151846040518363ffffffff1660e01b815260040162001dcc92919062003551565b6020604051808303816000875af115801562001dec573d6000803e3d6000fd5b505050506040513d601f19601f8201168201806040525081019062001e12919062003595565b90508062001e57576040517f08c379a000000000000000000000000000000000000000000000000000000000815260040162001e4e9062003da1565b60405180910390fd5b505b50808062001e679062003dc3565b91505062001d11565b5062001e7c8362002d33565b6001915050919050565b62001e9062002d88565b73ffffffffffffffffffffffffffffffffffffffff1662001eb0620011b5565b73ffffffffffffffffffffffffffffffffffffffff161462001f09576040517f08c379a000000000000000000000000000000000000000000000000000000000815260040162001f009062003e61565b60405180910390fd5b565b806002600481111562001f235762001f226200304a565b5b62001f2e8262000fad565b600481111562001f435762001f426200304a565b5b1462001f86576040517f08c379a000000000000000000000000000000000000000000000000000000000815260040162001f7d9062003d2f565b60405180910390fd5b600062001f93836200086d565b63ffffffff161162001fdc576040517f08c379a000000000000000000000000000000000000000000000000000000000815260040162001fd39062003ed3565b60405180910390fd5b6224ea0060026000848152602001908152602001600020600082825462002004919062003b08565b92505081905550620020168262000ec2565b73ffffffffffffffffffffffffffffffffffffffff1663d2895e9360016200203e856200086d565b6200204a919062003c7e565b6040518263ffffffff1660e01b815260040162002068919062002f43565b6020604051808303816000875af115801562002088573d6000803e3d6000fd5b505050506040513d601f19601f82011682018060405250810190620020ae9190620034d6565b505050565b620020be816200091b565b60046000838152602001908152602001600020600060028110620020e757620020e662003ba2565b5b015410156200212d576040517f08c379a0000000000000000000000000000000000000000000000000000000008152600401620021249062003f45565b60405180910390fd5b6000600360009054906101000a900473ffffffffffffffffffffffffffffffffffffffff1673ffffffffffffffffffffffffffffffffffffffff1663a9059cbb620021788462001316565b62002183856200091b565b6040518363ffffffff1660e01b8152600401620021a292919062003551565b6020604051808303816000875af1158015620021c2573d6000803e3d6000fd5b505050506040513d601f19601f82011682018060405250810190620021e8919062003595565b9050806200222d576040517f08c379a0000000000000000000000000000000000000000000000000000000008152600401620022249062003fb7565b60405180910390fd5b62002238826200091b565b6004600084815260200190815260200160002060006002811062002261576200226062003ba2565b5b01600082825462002273919062003c43565b925050819055505050565b80600260048111156200229657620022956200304a565b5b620022a18262000fad565b6004811115620022b657620022b56200304a565b5b14620022f9576040517f08c379a0000000000000000000000000000000000000000000000000000000008152600401620022f09062003d2f565b60405180910390fd5b620023048262000ec2565b73ffffffffffffffffffffffffffffffffffffffff16632e49d78b60036040518263ffffffff1660e01b81526004016200233f9190620030ca565b6020604051808303816000875af11580156200235f573d6000803e3d6000fd5b505050506040513d601f19601f8201168201806040525081019062002385919062003795565b505050565b600080620023988362000ec2565b73ffffffffffffffffffffffffffffffffffffffff1663f26cc58e6040518163ffffffff1660e01b8152600401602060405180830381865afa158015620023e3573d6000803e3d6000fd5b505050506040513d601f19601f820116820180604052508101906200240991906200351f565b90506000600360009054906101000a900473ffffffffffffffffffffffffffffffffffffffff1673ffffffffffffffffffffffffffffffffffffffff1663a9059cbb620024568662000eff565b600460008881526020019081526020016000206000600281106200247f576200247e62003ba2565b5b0154856200248e919062003b08565b6040518363ffffffff1660e01b8152600401620024ad92919062003551565b6020604051808303816000875af1158015620024cd573d6000803e3d6000fd5b505050506040513d601f19601f82011682018060405250810190620024f3919062003595565b90506000600360009054906101000a900473ffffffffffffffffffffffffffffffffffffffff1673ffffffffffffffffffffffffffffffffffffffff1663a9059cbb620025408762001316565b85600460008a81526020019081526020016000206001600281106200256a576200256962003ba2565b5b015462002578919062003c43565b6040518363ffffffff1660e01b81526004016200259792919062003551565b6020604051808303816000875af1158015620025b7573d6000803e3d6000fd5b505050506040513d601f19601f82011682018060405250810190620025dd919062003595565b9050818015620025ea5750805b6200262c576040517f08c379a0000000000000000000000000000000000000000000000000000000008152600401620026239062004029565b60405180910390fd5b620026378562002d33565b829350505050919050565b80600160048111156200265a57620026596200304a565b5b620026658262000fad565b60048111156200267a57620026796200304a565b5b14620026bd576040517f08c379a0000000000000000000000000000000000000000000000000000000008152600401620026b49062003ab7565b60405180910390fd5b620026c88262000ec2565b73ffffffffffffffffffffffffffffffffffffffff16632e49d78b60006040518263ffffffff1660e01b8152600401620027039190620030ca565b6020604051808303816000875af115801562002723573d6000803e3d6000fd5b505050506040513d601f19601f8201168201806040525081019062002749919062003795565b505050565b6000600360009054906101000a900473ffffffffffffffffffffffffffffffffffffffff1673ffffffffffffffffffffffffffffffffffffffff166323b872dd620027998462000eff565b620027a48562001316565b620027af866200091b565b6040518463ffffffff1660e01b8152600401620027cf9392919062003b65565b6020604051808303816000875af1158015620027ef573d6000803e3d6000fd5b505050506040513d601f19601f8201168201806040525081019062002815919062003595565b9050806200285a576040517f08c379a0000000000000000000000000000000000000000000000000000000008152600401620028519062003fb7565b60405180910390fd5b5050565b6000600560009054906101000a900473ffffffffffffffffffffffffffffffffffffffff16905081600560006101000a81548173ffffffffffffffffffffffffffffffffffffffff021916908373ffffffffffffffffffffffffffffffffffffffff1602179055508173ffffffffffffffffffffffffffffffffffffffff168173ffffffffffffffffffffffffffffffffffffffff167f8be0079c531659141344cd1fd0a4f28419497f9722a3daafe3b4186f6b6457e060405160405180910390a35050565b600062002932600062002d90565b600062002940600062002da6565b90506000898989888a8989604051620029599062002de9565b6200296b97969594939291906200404b565b604051809103906000f08015801562002988573d6000803e3d6000fd5b509050806001600084815260200190815260200160002060006101000a81548173ffffffffffffffffffffffffffffffffffffffff021916908373ffffffffffffffffffffffffffffffffffffffff1602179055508a62002a6a578073ffffffffffffffffffffffffffffffffffffffff1663e99d2866336040518263ffffffff1660e01b815260040162002a1e91906200302d565b6020604051808303816000875af115801562002a3e573d6000803e3d6000fd5b505050506040513d601f19601f8201168201806040525081019062002a6491906200373b565b62002aec565b8073ffffffffffffffffffffffffffffffffffffffff1663a3f09ad6336040518263ffffffff1660e01b815260040162002aa591906200302d565b6020604051808303816000875af115801562002ac5573d6000803e3d6000fd5b505050506040513d601f19601f8201168201806040525081019062002aeb91906200373b565b5b50819250505098975050505050505050565b8062002b0a8162001316565b73ffffffffffffffffffffffffffffffffffffffff163373ffffffffffffffffffffffffffffffffffffffff161462002b7a576040517f08c379a000000000000000000000000000000000000000000000000000000000815260040162002b719062004118565b60405180910390fd5b6002600481111562002b915762002b906200304a565b5b62002b9c8362000fad565b600481111562002bb15762002bb06200304a565b5b1462002bf4576040517f08c379a000000000000000000000000000000000000000000000000000000000815260040162002beb9062003d2f565b60405180910390fd5b60008062002c02846200086d565b63ffffffff161490506000806004600086815260200190815260200160002060006002811062002c375762002c3662003ba2565b5b0154149050808062002c465750815b62002c88576040517f08c379a000000000000000000000000000000000000000000000000000000000815260040162002c7f906200418a565b60405180910390fd5b62002c938462000ec2565b73ffffffffffffffffffffffffffffffffffffffff16632e49d78b60046040518263ffffffff1660e01b815260040162002cce9190620030ca565b6020604051808303816000875af115801562002cee573d6000803e3d6000fd5b505050506040513d601f19601f8201168201806040525081019062002d14919062003795565b5050505050565b6000818362002d2b9190620041ac565b905092915050565b60005b6001811162002d8457600060046000848152602001908152602001600020826002811062002d695762002d6862003ba2565b5b0181905550808062002d7b9062003dc3565b91505062002d36565b5050565b600033905090565b6001816000016000828254019250508190555050565b600081600001549050919050565b6040518060a00160405280600590602082028036833780820191505090505090565b6040518060200160405280600081525090565b6119fa806200420e83390190565b6000604051905090565b600080fd5b6000819050919050565b62002e1b8162002e06565b811462002e2757600080fd5b50565b60008135905062002e3b8162002e10565b92915050565b6000806040838503121562002e5b5762002e5a62002e01565b5b600062002e6b8582860162002e2a565b925050602062002e7e8582860162002e2a565b9150509250929050565b62002e938162002e06565b82525050565b600060208201905062002eb0600083018462002e88565b92915050565b60006020828403121562002ecf5762002ece62002e01565b5b600062002edf8482850162002e2a565b91505092915050565b60008115159050919050565b62002eff8162002ee8565b82525050565b600060208201905062002f1c600083018462002ef4565b92915050565b600063ffffffff82169050919050565b62002f3d8162002f22565b82525050565b600060208201905062002f5a600083018462002f32565b92915050565b600073ffffffffffffffffffffffffffffffffffffffff82169050919050565b6000819050919050565b600062002fab62002fa562002f9f8462002f60565b62002f80565b62002f60565b9050919050565b600062002fbf8262002f8a565b9050919050565b600062002fd38262002fb2565b9050919050565b62002fe58162002fc6565b82525050565b600060208201905062003002600083018462002fda565b92915050565b6000620030158262002f60565b9050919050565b620030278162003008565b82525050565b60006020820190506200304460008301846200301c565b92915050565b7f4e487b7100000000000000000000000000000000000000000000000000000000600052602160045260246000fd5b600581106200308d576200308c6200304a565b5b50565b6000819050620030a08262003079565b919050565b6000620030b28262003090565b9050919050565b620030c481620030a5565b82525050565b6000602082019050620030e16000830184620030b9565b92915050565b620030f28162002ee8565b8114620030fe57600080fd5b50565b6000813590506200311281620030e7565b92915050565b620031238162002f22565b81146200312f57600080fd5b50565b600081359050620031438162003118565b92915050565b600080600080600080600080610100898b0312156200316d576200316c62002e01565b5b60006200317d8b828c0162003101565b9850506020620031908b828c0162002e2a565b9750506040620031a38b828c0162002e2a565b9650506060620031b68b828c0162002e2a565b9550506080620031c98b828c0162002e2a565b94505060a0620031dc8b828c0162002e2a565b93505060c0620031ef8b828c0162003132565b92505060e0620032028b828c0162003132565b9150509295985092959890939650565b600060059050919050565b600081905092915050565b6000819050919050565b6200323d8162002e06565b82525050565b600062003251838362003232565b60208301905092915050565b6000602082019050919050565b620032758162003212565b6200328181846200321d565b92506200328e8262003228565b8060005b83811015620032c5578151620032a9878262003243565b9650620032b6836200325d565b92505060018101905062003292565b505050505050565b600060a082019050620032e460008301846200326a565b92915050565b60208201600082015162003302600085018262003232565b50505050565b60006020820190506200331f6000830184620032ea565b92915050565b620033308162003008565b81146200333c57600080fd5b50565b600081359050620033508162003325565b92915050565b6000602082840312156200336f576200336e62002e01565b5b60006200337f848285016200333f565b91505092915050565b6000620033958262002fb2565b9050919050565b620033a78162003388565b82525050565b6000602082019050620033c460008301846200339c565b92915050565b600082825260208201905092915050565b7f54686520686f73742063616e206e6f742063616c6c20746865206d6574686f64600082015250565b600062003413602083620033ca565b91506200342082620033db565b602082019050919050565b60006020820190508181036000830152620034468162003404565b9050919050565b7f4f6e6c79206275796572206f6620746865204344532063616e2063616c6c0000600082015250565b600062003485601e83620033ca565b915062003492826200344d565b602082019050919050565b60006020820190508181036000830152620034b88162003476565b9050919050565b600081519050620034d08162003118565b92915050565b600060208284031215620034ef57620034ee62002e01565b5b6000620034ff84828501620034bf565b91505092915050565b600081519050620035198162002e10565b92915050565b60006020828403121562003538576200353762002e01565b5b6000620035488482850162003508565b91505092915050565b60006040820190506200356860008301856200301c565b62003577602083018462002e88565b9392505050565b6000815190506200358f81620030e7565b92915050565b600060208284031215620035ae57620035ad62002e01565b5b6000620035be848285016200357e565b91505092915050565b7f43757272656e7420707269636520697320686967686572207468616e2074686560008201527f20636c61696d20707269636520696e2043445300000000000000000000000000602082015250565b600062003625603383620033ca565b91506200363282620035c7565b604082019050919050565b60006020820190508181036000830152620036588162003616565b9050919050565b600060408201905062003676600083018562002e88565b62003685602083018462002e88565b9392505050565b7f4f6e6c792062757965722f73656c6c6572206f6620746865204344532063616e60008201527f2063616c6c000000000000000000000000000000000000000000000000000000602082015250565b6000620036ea602583620033ca565b9150620036f7826200368c565b604082019050919050565b600060208201905081810360008301526200371d81620036db565b9050919050565b600081519050620037358162003325565b92915050565b60006020828403121562003754576200375362002e01565b5b6000620037648482850162003724565b91505092915050565b600581106200377b57600080fd5b50565b6000815190506200378f816200376d565b92915050565b600060208284031215620037ae57620037ad62002e01565b5b6000620037be848285016200377e565b91505092915050565b6000608082019050620037de600083018762002ef4565b620037ed602083018662002e88565b620037fc604083018562002f32565b6200380b60608301846200301c565b95945050505050565b600080fd5b6000601f19601f8301169050919050565b7f4e487b7100000000000000000000000000000000000000000000000000000000600052604160045260246000fd5b620038648262003819565b810181811067ffffffffffffffff821117156200388657620038856200382a565b5b80604052505050565b60006200389b62002df7565b9050620038a9828262003859565b919050565b600067ffffffffffffffff821115620038cc57620038cb6200382a565b5b602082029050919050565b600080fd5b6000620038f3620038ed84620038ae565b6200388f565b9050806020840283018581111562003910576200390f620038d7565b5b835b818110156200393d578062003928888262003508565b84526020840193505060208101905062003912565b5050509392505050565b600082601f8301126200395f576200395e62003814565b5b60056200396e848285620038dc565b91505092915050565b600060a0828403121562003990576200398f62002e01565b5b6000620039a08482850162003947565b91505092915050565b7f4f776e61626c653a206e6577206f776e657220697320746865207a65726f206160008201527f6464726573730000000000000000000000000000000000000000000000000000602082015250565b600062003a07602683620033ca565b915062003a1482620039a9565b604082019050919050565b6000602082019050818103600083015262003a3a81620039f8565b9050919050565b7f54686520737461747573206f6620746865204344532073686f756c642062652060008201527f70656e64696e6700000000000000000000000000000000000000000000000000602082015250565b600062003a9f602783620033ca565b915062003aac8262003a41565b604082019050919050565b6000602082019050818103600083015262003ad28162003a90565b9050919050565b7f4e487b7100000000000000000000000000000000000000000000000000000000600052601160045260246000fd5b600062003b158262002e06565b915062003b228362002e06565b9250827fffffffffffffffffffffffffffffffffffffffffffffffffffffffffffffffff0382111562003b5a5762003b5962003ad9565b5b828201905092915050565b600060608201905062003b7c60008301866200301c565b62003b8b60208301856200301c565b62003b9a604083018462002e88565b949350505050565b7f4e487b7100000000000000000000000000000000000000000000000000000000600052603260045260246000fd5b7f53656e64696e67206669727374207072656d69756d206661696c656400000000600082015250565b600062003c09601c83620033ca565b915062003c168262003bd1565b602082019050919050565b6000602082019050818103600083015262003c3c8162003bfa565b9050919050565b600062003c508262002e06565b915062003c5d8362002e06565b92508282101562003c735762003c7262003ad9565b5b828203905092915050565b600062003c8b8262002f22565b915062003c988362002f22565b92508282101562003cae5762003cad62003ad9565b5b828203905092915050565b7f54686520737461747573206f6620746865204344532073686f756c642062652060008201527f6163746976650000000000000000000000000000000000000000000000000000602082015250565b600062003d17602683620033ca565b915062003d248262003cb9565b604082019050919050565b6000602082019050818103600083015262003d4a8162003d08565b9050919050565b7f53656e64696e67206465706f736974206261636b206661696c65640000000000600082015250565b600062003d89601b83620033ca565b915062003d968262003d51565b602082019050919050565b6000602082019050818103600083015262003dbc8162003d7a565b9050919050565b600062003dd08262002e06565b91507fffffffffffffffffffffffffffffffffffffffffffffffffffffffffffffffff82141562003e065762003e0562003ad9565b5b600182019050919050565b7f4f776e61626c653a2063616c6c6572206973206e6f7420746865206f776e6572600082015250565b600062003e49602083620033ca565b915062003e568262003e11565b602082019050919050565b6000602082019050818103600083015262003e7c8162003e3a565b9050919050565b7f526f756e6420616c726561647920656e64656400000000000000000000000000600082015250565b600062003ebb601383620033ca565b915062003ec88262003e83565b602082019050919050565b6000602082019050818103600083015262003eee8162003eac565b9050919050565b7f4e6f7420656e6f756768206465706f7369740000000000000000000000000000600082015250565b600062003f2d601283620033ca565b915062003f3a8262003ef5565b602082019050919050565b6000602082019050818103600083015262003f608162003f1e565b9050919050565b7f53656e64696e67207072656d69756d206661696c656400000000000000000000600082015250565b600062003f9f601683620033ca565b915062003fac8262003f67565b602082019050919050565b6000602082019050818103600083015262003fd28162003f90565b9050919050565b7f53656e64696e6720726577617264206661696c65640000000000000000000000600082015250565b600062004011601583620033ca565b91506200401e8262003fd9565b602082019050919050565b60006020820190508181036000830152620040448162004002565b9050919050565b600060e08201905062004062600083018a62002e88565b62004071602083018962002e88565b62004080604083018862002e88565b6200408f606083018762002e88565b6200409e608083018662002e88565b620040ad60a083018562002f32565b620040bc60c083018462002f32565b98975050505050505050565b7f4f6e6c792073656c6c6572206f6620746865204344532063616e2063616c6c00600082015250565b600062004100601f83620033ca565b91506200410d82620040c8565b602082019050919050565b600060208201905081810360008301526200413381620040f1565b9050919050565b7f4275796572206465706f736974202f20526f756e64732072656d61696e696e67600082015250565b600062004172602083620033ca565b91506200417f826200413a565b602082019050919050565b60006020820190508181036000830152620041a58162004163565b9050919050565b6000620041b98262002e06565b9150620041c68362002e06565b9250817fffffffffffffffffffffffffffffffffffffffffffffffffffffffffffffffff048311821515161562004202576200420162003ad9565b5b82820290509291505056fe60806040523480156200001157600080fd5b50604051620019fa380380620019fa833981810160405281019062000037919062000444565b620000576200004b6200028960201b60201c565b6200029160201b60201c565b733c7a4a23f876452c92c89405874fd4118dcb9e06600160006101000a81548173ffffffffffffffffffffffffffffffffffffffff021916908373ffffffffffffffffffffffffffffffffffffffff160217905550866003819055508560048190555084600581905550836006819055508260078190555081600a60146101000a81548163ffffffff021916908363ffffffff16021790555081600a60186101000a81548163ffffffff021916908363ffffffff160217905550620001336005546007546003546200035560201b62000a1f179092919060201c565b60088190555060008163ffffffff16148062000155575060018163ffffffff16145b8062000167575060028163ffffffff16145b620001a9576040517f08c379a0000000000000000000000000000000000000000000000000000000008152600401620001a09062000558565b60405180910390fd5b80600a601c6101000a81548163ffffffff021916908363ffffffff1602179055506000600960006101000a81548173ffffffffffffffffffffffffffffffffffffffff021916908373ffffffffffffffffffffffffffffffffffffffff1602179055506000600a60006101000a81548173ffffffffffffffffffffffffffffffffffffffff021916908373ffffffffffffffffffffffffffffffffffffffff1602179055506001600260146101000a81548160ff021916908360048111156200027757620002766200057a565b5b0217905550505050505050506200067a565b600033905090565b60008060009054906101000a900473ffffffffffffffffffffffffffffffffffffffff169050816000806101000a81548173ffffffffffffffffffffffffffffffffffffffff021916908373ffffffffffffffffffffffffffffffffffffffff1602179055508173ffffffffffffffffffffffffffffffffffffffff168173ffffffffffffffffffffffffffffffffffffffff167f8be0079c531659141344cd1fd0a4f28419497f9722a3daafe3b4186f6b6457e060405160405180910390a35050565b60006200038a6200037584866200039360201b62000a4f1790919060201c565b83620003ab60201b62000a651790919060201c565b90509392505050565b60008183620003a39190620005d8565b905092915050565b60008183620003bb919062000642565b905092915050565b600080fd5b6000819050919050565b620003dd81620003c8565b8114620003e957600080fd5b50565b600081519050620003fd81620003d2565b92915050565b600063ffffffff82169050919050565b6200041e8162000403565b81146200042a57600080fd5b50565b6000815190506200043e8162000413565b92915050565b600080600080600080600060e0888a031215620004665762000465620003c3565b5b6000620004768a828b01620003ec565b9750506020620004898a828b01620003ec565b96505060406200049c8a828b01620003ec565b9550506060620004af8a828b01620003ec565b9450506080620004c28a828b01620003ec565b93505060a0620004d58a828b016200042d565b92505060c0620004e88a828b016200042d565b91505092959891949750929550565b600082825260208201905092915050565b7f4254433a302c204554483a312c204c494e4b3a32000000000000000000000000600082015250565b600062000540601483620004f7565b91506200054d8262000508565b602082019050919050565b60006020820190508181036000830152620005738162000531565b9050919050565b7f4e487b7100000000000000000000000000000000000000000000000000000000600052602160045260246000fd5b7f4e487b7100000000000000000000000000000000000000000000000000000000600052601160045260246000fd5b6000620005e582620003c8565b9150620005f283620003c8565b925082821015620006085762000607620005a9565b5b828203905092915050565b7f4e487b7100000000000000000000000000000000000000000000000000000000600052601260045260246000fd5b60006200064f82620003c8565b91506200065c83620003c8565b9250826200066f576200066e62000613565b5b828204905092915050565b611370806200068a6000396000f3fe608060405234801561001057600080fd5b50600436106101735760003560e01c8063a2e800ad116100de578063d2895e9311610097578063e0a73a9311610071578063e0a73a9314610422578063e99d286614610440578063f26cc58e14610470578063f2fde38b1461048e57610173565b8063d2895e93146103b6578063dbd0e1b6146103e6578063dd22db801461040457610173565b8063a2e800ad146102de578063a3f09ad6146102fc578063a607a8d91461032c578063b6fc2d5f1461034a578063bd9a548b14610368578063bef904e31461038657610173565b8063603daf9a11610130578063603daf9a1461023e578063715018a61461025c578063762db7ee1461026657806386be75b7146102845780638a568299146102a25780638da5cb5b146102c057610173565b806315d655c914610178578063200d2ed2146101965780632dddd49c146101b45780632e49d78b146101d25780633fe3347a146102025780634c1786ea14610220575b600080fd5b6101806104aa565b60405161018d9190610d61565b60405180910390f35b61019e6104b0565b6040516101ab9190610df3565b60405180910390f35b6101bc6104c3565b6040516101c99190610d61565b60405180910390f35b6101ec60048036038101906101e79190610e38565b610560565b6040516101f99190610df3565b60405180910390f35b61020a6105ab565b6040516102179190610e84565b60405180910390f35b6102286105c1565b6040516102359190610d61565b60405180910390f35b6102466105c7565b6040516102539190610ee0565b60405180910390f35b6102646105f1565b005b61026e610605565b60405161027b9190610d61565b60405180910390f35b61028c61060b565b6040516102999190610d61565b60405180910390f35b6102aa610611565b6040516102b79190610e84565b60405180910390f35b6102c8610627565b6040516102d59190610ee0565b60405180910390f35b6102e6610650565b6040516102f39190610e84565b60405180910390f35b61031660048036038101906103119190610f27565b610666565b6040516103239190610ee0565b60405180910390f35b6103346106db565b6040516103419190610d61565b60405180910390f35b610352610778565b60405161035f9190610d61565b60405180910390f35b61037061077e565b60405161037d9190610fff565b60405180910390f35b6103a0600480360381019061039b9190611046565b6107bc565b6040516103ad9190610d61565b60405180910390f35b6103d060048036038101906103cb919061109f565b6107cf565b6040516103dd9190610e84565b60405180910390f35b6103ee610814565b6040516103fb9190610ee0565b60405180910390f35b61040c61083e565b6040516104199190610d61565b60405180910390f35b61042a6108db565b6040516104379190610d61565b60405180910390f35b61045a60048036038101906104559190610f27565b6108e1565b6040516104679190610ee0565b60405180910390f35b610478610956565b6040516104859190610d61565b60405180910390f35b6104a860048036038101906104a39190610f27565b61099b565b005b60045481565b600260149054906101000a900460ff1681565b600080600160009054906101000a900473ffffffffffffffffffffffffffffffffffffffff1673ffffffffffffffffffffffffffffffffffffffff16630cf785356040518163ffffffff1660e01b8152600401602060405180830381865afa158015610533573d6000803e3d6000fd5b505050506040513d601f19601f8201168201806040525081019061055791906110e1565b90508091505090565b600061056a610a7b565b81600260146101000a81548160ff0219169083600481111561058f5761058e610d7c565b5b0217905550600260149054906101000a900460ff169050919050565b600a601c9054906101000a900463ffffffff1681565b60075481565b6000600960009054906101000a900473ffffffffffffffffffffffffffffffffffffffff16905090565b6105f9610a7b565b6106036000610af9565b565b60085481565b60035481565b600a60189054906101000a900463ffffffff1681565b60008060009054906101000a900473ffffffffffffffffffffffffffffffffffffffff16905090565b600a60149054906101000a900463ffffffff1681565b6000610670610a7b565b81600960006101000a81548173ffffffffffffffffffffffffffffffffffffffff021916908373ffffffffffffffffffffffffffffffffffffffff160217905550600960009054906101000a900473ffffffffffffffffffffffffffffffffffffffff169050919050565b600080600160009054906101000a900473ffffffffffffffffffffffffffffffffffffffff1673ffffffffffffffffffffffffffffffffffffffff1663ff186b2e6040518163ffffffff1660e01b8152600401602060405180830381865afa15801561074b573d6000803e3d6000fd5b505050506040513d601f19601f8201168201806040525081019061076f91906110e1565b90508091505090565b60055481565b610786610d26565b6040518060a001604052806003548152602001600454815260200160055481526020016006548152602001600754815250905090565b6000816003819055506003549050919050565b60006107d9610a7b565b81600a60146101000a81548163ffffffff021916908363ffffffff160217905550600a60149054906101000a900463ffffffff169050919050565b6000600a60009054906101000a900473ffffffffffffffffffffffffffffffffffffffff16905090565b600080600160009054906101000a900473ffffffffffffffffffffffffffffffffffffffff1673ffffffffffffffffffffffffffffffffffffffff1663a8ad52d16040518163ffffffff1660e01b8152600401602060405180830381865afa1580156108ae573d6000803e3d6000fd5b505050506040513d601f19601f820116820180604052508101906108d291906110e1565b90508091505090565b60065481565b60006108eb610a7b565b81600a60006101000a81548173ffffffffffffffffffffffffffffffffffffffff021916908373ffffffffffffffffffffffffffffffffffffffff160217905550600a60009054906101000a900473ffffffffffffffffffffffffffffffffffffffff169050919050565b600080610961610bbd565b9050806004541015610977576000915050610998565b61099460055460035483600754610c98909392919063ffffffff16565b9150505b90565b6109a3610a7b565b600073ffffffffffffffffffffffffffffffffffffffff168173ffffffffffffffffffffffffffffffffffffffff161415610a13576040517f08c379a0000000000000000000000000000000000000000000000000000000008152600401610a0a90611191565b60405180910390fd5b610a1c81610af9565b50565b6000610a46610a378486610a4f90919063ffffffff16565b83610a6590919063ffffffff16565b90509392505050565b60008183610a5d91906111e0565b905092915050565b60008183610a739190611243565b905092915050565b610a83610d08565b73ffffffffffffffffffffffffffffffffffffffff16610aa1610627565b73ffffffffffffffffffffffffffffffffffffffff1614610af7576040517f08c379a0000000000000000000000000000000000000000000000000000000008152600401610aee906112c0565b60405180910390fd5b565b60008060009054906101000a900473ffffffffffffffffffffffffffffffffffffffff169050816000806101000a81548173ffffffffffffffffffffffffffffffffffffffff021916908373ffffffffffffffffffffffffffffffffffffffff1602179055508173ffffffffffffffffffffffffffffffffffffffff168173ffffffffffffffffffffffffffffffffffffffff167f8be0079c531659141344cd1fd0a4f28419497f9722a3daafe3b4186f6b6457e060405160405180910390a35050565b600080600a601c9054906101000a900463ffffffff1663ffffffff161415610c0457610bfd6305f5e100610bef61083e565b610a6590919063ffffffff16565b9050610c95565b6001600a601c9054906101000a900463ffffffff1663ffffffff161415610c4a57610c436305f5e100610c356106db565b610a6590919063ffffffff16565b9050610c95565b6002600a601c9054906101000a900463ffffffff1663ffffffff161415610c9057610c896305f5e100610c7b6104c3565b610a6590919063ffffffff16565b9050610c95565b600090505b90565b600080828510610caa57859050610cfc565b6000610cd1610cc28787610a4f90919063ffffffff16565b88610a6590919063ffffffff16565b9050610cf8610ce98587610a4f90919063ffffffff16565b82610d1090919063ffffffff16565b9150505b80915050949350505050565b600033905090565b60008183610d1e91906112e0565b905092915050565b6040518060a00160405280600590602082028036833780820191505090505090565b6000819050919050565b610d5b81610d48565b82525050565b6000602082019050610d766000830184610d52565b92915050565b7f4e487b7100000000000000000000000000000000000000000000000000000000600052602160045260246000fd5b60058110610dbc57610dbb610d7c565b5b50565b6000819050610dcd82610dab565b919050565b6000610ddd82610dbf565b9050919050565b610ded81610dd2565b82525050565b6000602082019050610e086000830184610de4565b92915050565b600080fd5b60058110610e2057600080fd5b50565b600081359050610e3281610e13565b92915050565b600060208284031215610e4e57610e4d610e0e565b5b6000610e5c84828501610e23565b91505092915050565b600063ffffffff82169050919050565b610e7e81610e65565b82525050565b6000602082019050610e996000830184610e75565b92915050565b600073ffffffffffffffffffffffffffffffffffffffff82169050919050565b6000610eca82610e9f565b9050919050565b610eda81610ebf565b82525050565b6000602082019050610ef56000830184610ed1565b92915050565b610f0481610ebf565b8114610f0f57600080fd5b50565b600081359050610f2181610efb565b92915050565b600060208284031215610f3d57610f3c610e0e565b5b6000610f4b84828501610f12565b91505092915050565b600060059050919050565b600081905092915050565b6000819050919050565b610f7d81610d48565b82525050565b6000610f8f8383610f74565b60208301905092915050565b6000602082019050919050565b610fb181610f54565b610fbb8184610f5f565b9250610fc682610f6a565b8060005b83811015610ff7578151610fde8782610f83565b9650610fe983610f9b565b925050600181019050610fca565b505050505050565b600060a0820190506110146000830184610fa8565b92915050565b61102381610d48565b811461102e57600080fd5b50565b6000813590506110408161101a565b92915050565b60006020828403121561105c5761105b610e0e565b5b600061106a84828501611031565b91505092915050565b61107c81610e65565b811461108757600080fd5b50565b60008135905061109981611073565b92915050565b6000602082840312156110b5576110b4610e0e565b5b60006110c38482850161108a565b91505092915050565b6000815190506110db8161101a565b92915050565b6000602082840312156110f7576110f6610e0e565b5b6000611105848285016110cc565b91505092915050565b600082825260208201905092915050565b7f4f776e61626c653a206e6577206f776e657220697320746865207a65726f206160008201527f6464726573730000000000000000000000000000000000000000000000000000602082015250565b600061117b60268361110e565b91506111868261111f565b604082019050919050565b600060208201905081810360008301526111aa8161116e565b9050919050565b7f4e487b7100000000000000000000000000000000000000000000000000000000600052601160045260246000fd5b60006111eb82610d48565b91506111f683610d48565b925082821015611209576112086111b1565b5b828203905092915050565b7f4e487b7100000000000000000000000000000000000000000000000000000000600052601260045260246000fd5b600061124e82610d48565b915061125983610d48565b92508261126957611268611214565b5b828204905092915050565b7f4f776e61626c653a2063616c6c6572206973206e6f7420746865206f776e6572600082015250565b60006112aa60208361110e565b91506112b582611274565b602082019050919050565b600060208201905081810360008301526112d98161129d565b9050919050565b60006112eb82610d48565b91506112f683610d48565b9250817fffffffffffffffffffffffffffffffffffffffffffffffffffffffffffffffff048311821515161561132f5761132e6111b1565b5b82820290509291505056fea264697066735822122088eb0cd95bc8c47e400d8c91753b75e7e1ff8ca5a810e5b6a2f0b39429ef4d7564736f6c634300080a0033a26469706673582212201054abd5547e2a525678cb5cd364253ac9a3ba0b634e8a1351c62a864ffe871b64736f6c634300080a0033",
			"opcodes": "PUSH1 0x80 PUSH1 0x40 MSTORE CALLVALUE DUP1 ISZERO PUSH3 0x11 JUMPI PUSH1 0x0 DUP1 REVERT JUMPDEST POP PUSH20 0x609B8CED16A83CFF90A3D3B3CBE7894931E7C382 PUSH1 0x3 PUSH1 0x0 PUSH2 0x100 EXP DUP2 SLOAD DUP2 PUSH20 0xFFFFFFFFFFFFFFFFFFFFFFFFFFFFFFFFFFFFFFFF MUL NOT AND SWAP1 DUP4 PUSH20 0xFFFFFFFFFFFFFFFFFFFFFFFFFFFFFFFFFFFFFFFF AND MUL OR SWAP1 SSTORE POP PUSH3 0x87 PUSH3 0x7B PUSH3 0x8D PUSH1 0x20 SHL PUSH1 0x20 SHR JUMP JUMPDEST PUSH3 0x95 PUSH1 0x20 SHL PUSH1 0x20 SHR JUMP JUMPDEST PUSH3 0x15B JUMP JUMPDEST PUSH1 0x0 CALLER SWAP1 POP SWAP1 JUMP JUMPDEST PUSH1 0x0 PUSH1 0x5 PUSH1 0x0 SWAP1 SLOAD SWAP1 PUSH2 0x100 EXP SWAP1 DIV PUSH20 0xFFFFFFFFFFFFFFFFFFFFFFFFFFFFFFFFFFFFFFFF AND SWAP1 POP DUP2 PUSH1 0x5 PUSH1 0x0 PUSH2 0x100 EXP DUP2 SLOAD DUP2 PUSH20 0xFFFFFFFFFFFFFFFFFFFFFFFFFFFFFFFFFFFFFFFF MUL NOT AND SWAP1 DUP4 PUSH20 0xFFFFFFFFFFFFFFFFFFFFFFFFFFFFFFFFFFFFFFFF AND MUL OR SWAP1 SSTORE POP DUP2 PUSH20 0xFFFFFFFFFFFFFFFFFFFFFFFFFFFFFFFFFFFFFFFF AND DUP2 PUSH20 0xFFFFFFFFFFFFFFFFFFFFFFFFFFFFFFFFFFFFFFFF AND PUSH32 0x8BE0079C531659141344CD1FD0A4F28419497F9722A3DAAFE3B4186F6B6457E0 PUSH1 0x40 MLOAD PUSH1 0x40 MLOAD DUP1 SWAP2 SUB SWAP1 LOG3 POP POP JUMP JUMPDEST PUSH2 0x5C3D DUP1 PUSH3 0x16B PUSH1 0x0 CODECOPY PUSH1 0x0 RETURN INVALID PUSH1 0x80 PUSH1 0x40 MSTORE CALLVALUE DUP1 ISZERO PUSH3 0x11 JUMPI PUSH1 0x0 DUP1 REVERT JUMPDEST POP PUSH1 0x4 CALLDATASIZE LT PUSH3 0x178 JUMPI PUSH1 0x0 CALLDATALOAD PUSH1 0xE0 SHR DUP1 PUSH4 0x5BF608B8 GT PUSH3 0xD5 JUMPI DUP1 PUSH4 0x91492956 GT PUSH3 0x87 JUMPI DUP1 PUSH4 0x91492956 EQ PUSH3 0x50B JUMPI DUP1 PUSH4 0xBF81BF43 EQ PUSH3 0x541 JUMPI DUP1 PUSH4 0xD0E5D955 EQ PUSH3 0x577 JUMPI DUP1 PUSH4 0xD6A9DE51 EQ PUSH3 0x599 JUMPI DUP1 PUSH4 0xF2FDE38B EQ PUSH3 0x5CF JUMPI DUP1 PUSH4 0xFC0C546A EQ PUSH3 0x5EF JUMPI PUSH3 0x178 JUMP JUMPDEST DUP1 PUSH4 0x5BF608B8 EQ PUSH3 0x405 JUMPI DUP1 PUSH4 0x5C622A0E EQ PUSH3 0x43B JUMPI DUP1 PUSH4 0x715018A6 EQ PUSH3 0x471 JUMPI DUP1 PUSH4 0x88106323 EQ PUSH3 0x47D JUMPI DUP1 PUSH4 0x8A614DD5 EQ PUSH3 0x4B3 JUMPI DUP1 PUSH4 0x8DA5CB5B EQ PUSH3 0x4E9 JUMPI PUSH3 0x178 JUMP JUMPDEST DUP1 PUSH4 0x2E1A7D4D GT PUSH3 0x12F JUMPI DUP1 PUSH4 0x2E1A7D4D EQ PUSH3 0x2C1 JUMPI DUP1 PUSH4 0x379607F5 EQ PUSH3 0x2F7 JUMPI DUP1 PUSH4 0x40E58EE5 EQ PUSH3 0x32D JUMPI DUP1 PUSH4 0x4364B26E EQ PUSH3 0x363 JUMPI DUP1 PUSH4 0x44A9D244 EQ PUSH3 0x399 JUMPI DUP1 PUSH4 0x5AF8D21C EQ PUSH3 0x3CF JUMPI PUSH3 0x178 JUMP JUMPDEST DUP1 PUSH4 0x9358479 EQ PUSH3 0x17D JUMPI DUP1 PUSH4 0xAEBEB4E EQ PUSH3 0x1B3 JUMPI DUP1 PUSH4 0x13EF3DCC EQ PUSH3 0x1E9 JUMPI DUP1 PUSH4 0x1BF1FFFB EQ PUSH3 0x21F JUMPI DUP1 PUSH4 0x2926EA2A EQ PUSH3 0x255 JUMPI DUP1 PUSH4 0x2BD49780 EQ PUSH3 0x28B JUMPI JUMPDEST PUSH1 0x0 DUP1 REVERT JUMPDEST PUSH3 0x19B PUSH1 0x4 DUP1 CALLDATASIZE SUB DUP2 ADD SWAP1 PUSH3 0x195 SWAP2 SWAP1 PUSH3 0x2E41 JUMP JUMPDEST PUSH3 0x611 JUMP JUMPDEST PUSH1 0x40 MLOAD PUSH3 0x1AA SWAP2 SWAP1 PUSH3 0x2E99 JUMP JUMPDEST PUSH1 0x40 MLOAD DUP1 SWAP2 SUB SWAP1 RETURN JUMPDEST PUSH3 0x1D1 PUSH1 0x4 DUP1 CALLDATASIZE SUB DUP2 ADD SWAP1 PUSH3 0x1CB SWAP2 SWAP1 PUSH3 0x2EB6 JUMP JUMPDEST PUSH3 0x795 JUMP JUMPDEST PUSH1 0x40 MLOAD PUSH3 0x1E0 SWAP2 SWAP1 PUSH3 0x2F05 JUMP JUMPDEST PUSH1 0x40 MLOAD DUP1 SWAP2 SUB SWAP1 RETURN JUMPDEST PUSH3 0x207 PUSH1 0x4 DUP1 CALLDATASIZE SUB DUP2 ADD SWAP1 PUSH3 0x201 SWAP2 SWAP1 PUSH3 0x2EB6 JUMP JUMPDEST PUSH3 0x86D JUMP JUMPDEST PUSH1 0x40 MLOAD PUSH3 0x216 SWAP2 SWAP1 PUSH3 0x2F43 JUMP JUMPDEST PUSH1 0x40 MLOAD DUP1 SWAP2 SUB SWAP1 RETURN JUMPDEST PUSH3 0x23D PUSH1 0x4 DUP1 CALLDATASIZE SUB DUP2 ADD SWAP1 PUSH3 0x237 SWAP2 SWAP1 PUSH3 0x2EB6 JUMP JUMPDEST PUSH3 0x91B JUMP JUMPDEST PUSH1 0x40 MLOAD PUSH3 0x24C SWAP2 SWAP1 PUSH3 0x2E99 JUMP JUMPDEST PUSH1 0x40 MLOAD DUP1 SWAP2 SUB SWAP1 RETURN JUMPDEST PUSH3 0x273 PUSH1 0x4 DUP1 CALLDATASIZE SUB DUP2 ADD SWAP1 PUSH3 0x26D SWAP2 SWAP1 PUSH3 0x2EB6 JUMP JUMPDEST PUSH3 0x9C9 JUMP JUMPDEST PUSH1 0x40 MLOAD PUSH3 0x282 SWAP2 SWAP1 PUSH3 0x2F05 JUMP JUMPDEST PUSH1 0x40 MLOAD DUP1 SWAP2 SUB SWAP1 RETURN JUMPDEST PUSH3 0x2A9 PUSH1 0x4 DUP1 CALLDATASIZE SUB DUP2 ADD SWAP1 PUSH3 0x2A3 SWAP2 SWAP1 PUSH3 0x2E41 JUMP JUMPDEST PUSH3 0xA2D JUMP JUMPDEST PUSH1 0x40 MLOAD PUSH3 0x2B8 SWAP2 SWAP1 PUSH3 0x2E99 JUMP JUMPDEST PUSH1 0x40 MLOAD DUP1 SWAP2 SUB SWAP1 RETURN JUMPDEST PUSH3 0x2DF PUSH1 0x4 DUP1 CALLDATASIZE SUB DUP2 ADD SWAP1 PUSH3 0x2D9 SWAP2 SWAP1 PUSH3 0x2EB6 JUMP JUMPDEST PUSH3 0xA56 JUMP JUMPDEST PUSH1 0x40 MLOAD PUSH3 0x2EE SWAP2 SWAP1 PUSH3 0x2F05 JUMP JUMPDEST PUSH1 0x40 MLOAD DUP1 SWAP2 SUB SWAP1 RETURN JUMPDEST PUSH3 0x315 PUSH1 0x4 DUP1 CALLDATASIZE SUB DUP2 ADD SWAP1 PUSH3 0x30F SWAP2 SWAP1 PUSH3 0x2EB6 JUMP JUMPDEST PUSH3 0xB1A JUMP JUMPDEST PUSH1 0x40 MLOAD PUSH3 0x324 SWAP2 SWAP1 PUSH3 0x2F05 JUMP JUMPDEST PUSH1 0x40 MLOAD DUP1 SWAP2 SUB SWAP1 RETURN JUMPDEST PUSH3 0x34B PUSH1 0x4 DUP1 CALLDATASIZE SUB DUP2 ADD SWAP1 PUSH3 0x345 SWAP2 SWAP1 PUSH3 0x2EB6 JUMP JUMPDEST PUSH3 0xCBA JUMP JUMPDEST PUSH1 0x40 MLOAD PUSH3 0x35A SWAP2 SWAP1 PUSH3 0x2F05 JUMP JUMPDEST PUSH1 0x40 MLOAD DUP1 SWAP2 SUB SWAP1 RETURN JUMPDEST PUSH3 0x381 PUSH1 0x4 DUP1 CALLDATASIZE SUB DUP2 ADD SWAP1 PUSH3 0x37B SWAP2 SWAP1 PUSH3 0x2EB6 JUMP JUMPDEST PUSH3 0xDD3 JUMP JUMPDEST PUSH1 0x40 MLOAD PUSH3 0x390 SWAP2 SWAP1 PUSH3 0x2F05 JUMP JUMPDEST PUSH1 0x40 MLOAD DUP1 SWAP2 SUB SWAP1 RETURN JUMPDEST PUSH3 0x3B7 PUSH1 0x4 DUP1 CALLDATASIZE SUB DUP2 ADD SWAP1 PUSH3 0x3B1 SWAP2 SWAP1 PUSH3 0x2EB6 JUMP JUMPDEST PUSH3 0xEAA JUMP JUMPDEST PUSH1 0x40 MLOAD PUSH3 0x3C6 SWAP2 SWAP1 PUSH3 0x2E99 JUMP JUMPDEST PUSH1 0x40 MLOAD DUP1 SWAP2 SUB SWAP1 RETURN JUMPDEST PUSH3 0x3ED PUSH1 0x4 DUP1 CALLDATASIZE SUB DUP2 ADD SWAP1 PUSH3 0x3E7 SWAP2 SWAP1 PUSH3 0x2EB6 JUMP JUMPDEST PUSH3 0xEC2 JUMP JUMPDEST PUSH1 0x40 MLOAD PUSH3 0x3FC SWAP2 SWAP1 PUSH3 0x2FEB JUMP JUMPDEST PUSH1 0x40 MLOAD DUP1 SWAP2 SUB SWAP1 RETURN JUMPDEST PUSH3 0x423 PUSH1 0x4 DUP1 CALLDATASIZE SUB DUP2 ADD SWAP1 PUSH3 0x41D SWAP2 SWAP1 PUSH3 0x2EB6 JUMP JUMPDEST PUSH3 0xEFF JUMP JUMPDEST PUSH1 0x40 MLOAD PUSH3 0x432 SWAP2 SWAP1 PUSH3 0x302D JUMP JUMPDEST PUSH1 0x40 MLOAD DUP1 SWAP2 SUB SWAP1 RETURN JUMPDEST PUSH3 0x459 PUSH1 0x4 DUP1 CALLDATASIZE SUB DUP2 ADD SWAP1 PUSH3 0x453 SWAP2 SWAP1 PUSH3 0x2EB6 JUMP JUMPDEST PUSH3 0xFAD JUMP JUMPDEST PUSH1 0x40 MLOAD PUSH3 0x468 SWAP2 SWAP1 PUSH3 0x30CA JUMP JUMPDEST PUSH1 0x40 MLOAD DUP1 SWAP2 SUB SWAP1 RETURN JUMPDEST PUSH3 0x47B PUSH3 0x105B JUMP JUMPDEST STOP JUMPDEST PUSH3 0x49B PUSH1 0x4 DUP1 CALLDATASIZE SUB DUP2 ADD SWAP1 PUSH3 0x495 SWAP2 SWAP1 PUSH3 0x2EB6 JUMP JUMPDEST PUSH3 0x1073 JUMP JUMPDEST PUSH1 0x40 MLOAD PUSH3 0x4AA SWAP2 SWAP1 PUSH3 0x2E99 JUMP JUMPDEST PUSH1 0x40 MLOAD DUP1 SWAP2 SUB SWAP1 RETURN JUMPDEST PUSH3 0x4D1 PUSH1 0x4 DUP1 CALLDATASIZE SUB DUP2 ADD SWAP1 PUSH3 0x4CB SWAP2 SWAP1 PUSH3 0x3149 JUMP JUMPDEST PUSH3 0x1121 JUMP JUMPDEST PUSH1 0x40 MLOAD PUSH3 0x4E0 SWAP2 SWAP1 PUSH3 0x2E99 JUMP JUMPDEST PUSH1 0x40 MLOAD DUP1 SWAP2 SUB SWAP1 RETURN JUMPDEST PUSH3 0x4F3 PUSH3 0x11B5 JUMP JUMPDEST PUSH1 0x40 MLOAD PUSH3 0x502 SWAP2 SWAP1 PUSH3 0x302D JUMP JUMPDEST PUSH1 0x40 MLOAD DUP1 SWAP2 SUB SWAP1 RETURN JUMPDEST PUSH3 0x529 PUSH1 0x4 DUP1 CALLDATASIZE SUB DUP2 ADD SWAP1 PUSH3 0x523 SWAP2 SWAP1 PUSH3 0x2EB6 JUMP JUMPDEST PUSH3 0x11DF JUMP JUMPDEST PUSH1 0x40 MLOAD PUSH3 0x538 SWAP2 SWAP1 PUSH3 0x32CD JUMP JUMPDEST PUSH1 0x40 MLOAD DUP1 SWAP2 SUB SWAP1 RETURN JUMPDEST PUSH3 0x55F PUSH1 0x4 DUP1 CALLDATASIZE SUB DUP2 ADD SWAP1 PUSH3 0x559 SWAP2 SWAP1 PUSH3 0x2EB6 JUMP JUMPDEST PUSH3 0x1295 JUMP JUMPDEST PUSH1 0x40 MLOAD PUSH3 0x56E SWAP2 SWAP1 PUSH3 0x2F05 JUMP JUMPDEST PUSH1 0x40 MLOAD DUP1 SWAP2 SUB SWAP1 RETURN JUMPDEST PUSH3 0x581 PUSH3 0x12F0 JUMP JUMPDEST PUSH1 0x40 MLOAD PUSH3 0x590 SWAP2 SWAP1 PUSH3 0x3308 JUMP JUMPDEST PUSH1 0x40 MLOAD DUP1 SWAP2 SUB SWAP1 RETURN JUMPDEST PUSH3 0x5B7 PUSH1 0x4 DUP1 CALLDATASIZE SUB DUP2 ADD SWAP1 PUSH3 0x5B1 SWAP2 SWAP1 PUSH3 0x2EB6 JUMP JUMPDEST PUSH3 0x1316 JUMP JUMPDEST PUSH1 0x40 MLOAD PUSH3 0x5C6 SWAP2 SWAP1 PUSH3 0x302D JUMP JUMPDEST PUSH1 0x40 MLOAD DUP1 SWAP2 SUB SWAP1 RETURN JUMPDEST PUSH3 0x5ED PUSH1 0x4 DUP1 CALLDATASIZE SUB DUP2 ADD SWAP1 PUSH3 0x5E7 SWAP2 SWAP1 PUSH3 0x3356 JUMP JUMPDEST PUSH3 0x13C4 JUMP JUMPDEST STOP JUMPDEST PUSH3 0x5F9 PUSH3 0x144F JUMP JUMPDEST PUSH1 0x40 MLOAD PUSH3 0x608 SWAP2 SWAP1 PUSH3 0x33AD JUMP JUMPDEST PUSH1 0x40 MLOAD DUP1 SWAP2 SUB SWAP1 RETURN JUMPDEST PUSH1 0x0 PUSH3 0x61E DUP3 PUSH3 0xEFF JUMP JUMPDEST PUSH20 0xFFFFFFFFFFFFFFFFFFFFFFFFFFFFFFFFFFFFFFFF AND CALLER PUSH20 0xFFFFFFFFFFFFFFFFFFFFFFFFFFFFFFFFFFFFFFFF AND EQ ISZERO DUP1 ISZERO PUSH3 0x690 JUMPI POP PUSH3 0x660 DUP3 PUSH3 0x1316 JUMP JUMPDEST PUSH20 0xFFFFFFFFFFFFFFFFFFFFFFFFFFFFFFFFFFFFFFFF AND CALLER PUSH20 0xFFFFFFFFFFFFFFFFFFFFFFFFFFFFFFFFFFFFFFFF AND EQ ISZERO JUMPDEST PUSH3 0x6D2 JUMPI PUSH1 0x40 MLOAD PUSH32 0x8C379A000000000000000000000000000000000000000000000000000000000 DUP2 MSTORE PUSH1 0x4 ADD PUSH3 0x6C9 SWAP1 PUSH3 0x342B JUMP JUMPDEST PUSH1 0x40 MLOAD DUP1 SWAP2 SUB SWAP1 REVERT JUMPDEST PUSH1 0x0 DUP1 PUSH20 0xFFFFFFFFFFFFFFFFFFFFFFFFFFFFFFFFFFFFFFFF AND PUSH3 0x6F6 DUP5 PUSH3 0x1316 JUMP JUMPDEST PUSH20 0xFFFFFFFFFFFFFFFFFFFFFFFFFFFFFFFFFFFFFFFF AND EQ SWAP1 POP PUSH1 0x0 PUSH3 0x71E DUP3 DUP7 DUP7 PUSH3 0x1475 JUMP JUMPDEST SWAP1 POP PUSH3 0x72D DUP5 DUP4 ISZERO PUSH3 0x1773 JUMP JUMPDEST POP PUSH3 0x739 DUP5 PUSH3 0x1980 JUMP JUMPDEST POP CALLER PUSH20 0xFFFFFFFFFFFFFFFFFFFFFFFFFFFFFFFFFFFFFFFF AND PUSH32 0x68E07974E86F9190B39C5E1783E6BA66B3D0D7CCF507DE51450F14E594D16868 DUP3 PUSH1 0x40 MLOAD PUSH3 0x782 SWAP2 SWAP1 PUSH3 0x2E99 JUMP JUMPDEST PUSH1 0x40 MLOAD DUP1 SWAP2 SUB SWAP1 LOG2 DUP1 SWAP3 POP POP POP SWAP3 SWAP2 POP POP JUMP JUMPDEST PUSH1 0x0 DUP2 PUSH3 0x7A3 DUP2 PUSH3 0xEFF JUMP JUMPDEST PUSH20 0xFFFFFFFFFFFFFFFFFFFFFFFFFFFFFFFFFFFFFFFF AND CALLER PUSH20 0xFFFFFFFFFFFFFFFFFFFFFFFFFFFFFFFFFFFFFFFF AND EQ PUSH3 0x813 JUMPI PUSH1 0x40 MLOAD PUSH32 0x8C379A000000000000000000000000000000000000000000000000000000000 DUP2 MSTORE PUSH1 0x4 ADD PUSH3 0x80A SWAP1 PUSH3 0x349D JUMP JUMPDEST PUSH1 0x40 MLOAD DUP1 SWAP2 SUB SWAP1 REVERT JUMPDEST PUSH3 0x81E DUP4 PUSH3 0x1B7C JUMP JUMPDEST PUSH3 0x829 DUP4 PUSH3 0x1C88 JUMP JUMPDEST POP PUSH32 0xBF67515A38EE520223D32C1266D52101C30D936ED1F3E436C8CAEB0A43CB06BF DUP4 PUSH1 0x40 MLOAD PUSH3 0x85B SWAP2 SWAP1 PUSH3 0x2E99 JUMP JUMPDEST PUSH1 0x40 MLOAD DUP1 SWAP2 SUB SWAP1 LOG1 PUSH1 0x1 SWAP2 POP POP SWAP2 SWAP1 POP JUMP JUMPDEST PUSH1 0x0 PUSH1 0x1 PUSH1 0x0 DUP4 DUP2 MSTORE PUSH1 0x20 ADD SWAP1 DUP2 MSTORE PUSH1 0x20 ADD PUSH1 0x0 KECCAK256 PUSH1 0x0 SWAP1 SLOAD SWAP1 PUSH2 0x100 EXP SWAP1 DIV PUSH20 0xFFFFFFFFFFFFFFFFFFFFFFFFFFFFFFFFFFFFFFFF AND PUSH20 0xFFFFFFFFFFFFFFFFFFFFFFFFFFFFFFFFFFFFFFFF AND PUSH4 0xA2E800AD PUSH1 0x40 MLOAD DUP2 PUSH4 0xFFFFFFFF AND PUSH1 0xE0 SHL DUP2 MSTORE PUSH1 0x4 ADD PUSH1 0x20 PUSH1 0x40 MLOAD DUP1 DUP4 SUB DUP2 DUP7 GAS STATICCALL ISZERO DUP1 ISZERO PUSH3 0x8EE JUMPI RETURNDATASIZE PUSH1 0x0 DUP1 RETURNDATACOPY RETURNDATASIZE PUSH1 0x0 REVERT JUMPDEST POP POP POP POP PUSH1 0x40 MLOAD RETURNDATASIZE PUSH1 0x1F NOT PUSH1 0x1F DUP3 ADD AND DUP3 ADD DUP1 PUSH1 0x40 MSTORE POP DUP2 ADD SWAP1 PUSH3 0x914 SWAP2 SWAP1 PUSH3 0x34D6 JUMP JUMPDEST SWAP1 POP SWAP2 SWAP1 POP JUMP JUMPDEST PUSH1 0x0 PUSH1 0x1 PUSH1 0x0 DUP4 DUP2 MSTORE PUSH1 0x20 ADD SWAP1 DUP2 MSTORE PUSH1 0x20 ADD PUSH1 0x0 KECCAK256 PUSH1 0x0 SWAP1 SLOAD SWAP1 PUSH2 0x100 EXP SWAP1 DIV PUSH20 0xFFFFFFFFFFFFFFFFFFFFFFFFFFFFFFFFFFFFFFFF AND PUSH20 0xFFFFFFFFFFFFFFFFFFFFFFFFFFFFFFFFFFFFFFFF AND PUSH4 0xE0A73A93 PUSH1 0x40 MLOAD DUP2 PUSH4 0xFFFFFFFF AND PUSH1 0xE0 SHL DUP2 MSTORE PUSH1 0x4 ADD PUSH1 0x20 PUSH1 0x40 MLOAD DUP1 DUP4 SUB DUP2 DUP7 GAS STATICCALL ISZERO DUP1 ISZERO PUSH3 0x99C JUMPI RETURNDATASIZE PUSH1 0x0 DUP1 RETURNDATACOPY RETURNDATASIZE PUSH1 0x0 REVERT JUMPDEST POP POP POP POP PUSH1 0x40 MLOAD RETURNDATASIZE PUSH1 0x1F NOT PUSH1 0x1F DUP3 ADD AND DUP3 ADD DUP1 PUSH1 0x40 MSTORE POP DUP2 ADD SWAP1 PUSH3 0x9C2 SWAP2 SWAP1 PUSH3 0x351F JUMP JUMPDEST SWAP1 POP SWAP2 SWAP1 POP JUMP JUMPDEST PUSH1 0x0 PUSH3 0x9D5 PUSH3 0x1E86 JUMP JUMPDEST PUSH3 0x9E0 DUP3 PUSH3 0x1F0B JUMP JUMPDEST PUSH3 0x9EB DUP3 PUSH3 0x20B3 JUMP JUMPDEST PUSH32 0x73FE46267E05AE56A3625C045DF1B74C1B1736A7535EEADEF3C57551BFD00599 DUP3 PUSH1 0x40 MLOAD PUSH3 0xA1C SWAP2 SWAP1 PUSH3 0x2E99 JUMP JUMPDEST PUSH1 0x40 MLOAD DUP1 SWAP2 SUB SWAP1 LOG1 PUSH1 0x1 SWAP1 POP SWAP2 SWAP1 POP JUMP JUMPDEST PUSH1 0x4 PUSH1 0x20 MSTORE DUP2 PUSH1 0x0 MSTORE PUSH1 0x40 PUSH1 0x0 KECCAK256 DUP2 PUSH1 0x2 DUP2 LT PUSH3 0xA4A JUMPI PUSH1 0x0 DUP1 REVERT JUMPDEST ADD PUSH1 0x0 SWAP2 POP SWAP2 POP POP SLOAD DUP2 JUMP JUMPDEST PUSH1 0x0 PUSH3 0xA62 PUSH3 0x1E86 JUMP JUMPDEST PUSH1 0x3 PUSH1 0x0 SWAP1 SLOAD SWAP1 PUSH2 0x100 EXP SWAP1 DIV PUSH20 0xFFFFFFFFFFFFFFFFFFFFFFFFFFFFFFFFFFFFFFFF AND PUSH20 0xFFFFFFFFFFFFFFFFFFFFFFFFFFFFFFFFFFFFFFFF AND PUSH4 0xA9059CBB PUSH3 0xAAA PUSH3 0x11B5 JUMP JUMPDEST DUP5 PUSH1 0x40 MLOAD DUP4 PUSH4 0xFFFFFFFF AND PUSH1 0xE0 SHL DUP2 MSTORE PUSH1 0x4 ADD PUSH3 0xACA SWAP3 SWAP2 SWAP1 PUSH3 0x3551 JUMP JUMPDEST PUSH1 0x20 PUSH1 0x40 MLOAD DUP1 DUP4 SUB DUP2 PUSH1 0x0 DUP8 GAS CALL ISZERO DUP1 ISZERO PUSH3 0xAEA JUMPI RETURNDATASIZE PUSH1 0x0 DUP1 RETURNDATACOPY RETURNDATASIZE PUSH1 0x0 REVERT JUMPDEST POP POP POP POP PUSH1 0x40 MLOAD RETURNDATASIZE PUSH1 0x1F NOT PUSH1 0x1F DUP3 ADD AND DUP3 ADD DUP1 PUSH1 0x40 MSTORE POP DUP2 ADD SWAP1 PUSH3 0xB10 SWAP2 SWAP1 PUSH3 0x3595 JUMP JUMPDEST POP PUSH1 0x1 SWAP1 POP SWAP2 SWAP1 POP JUMP JUMPDEST PUSH1 0x0 DUP2 PUSH3 0xB28 DUP2 PUSH3 0xEFF JUMP JUMPDEST PUSH20 0xFFFFFFFFFFFFFFFFFFFFFFFFFFFFFFFFFFFFFFFF AND CALLER PUSH20 0xFFFFFFFFFFFFFFFFFFFFFFFFFFFFFFFFFFFFFFFF AND EQ PUSH3 0xB98 JUMPI PUSH1 0x40 MLOAD PUSH32 0x8C379A000000000000000000000000000000000000000000000000000000000 DUP2 MSTORE PUSH1 0x4 ADD PUSH3 0xB8F SWAP1 PUSH3 0x349D JUMP JUMPDEST PUSH1 0x40 MLOAD DUP1 SWAP2 SUB SWAP1 REVERT JUMPDEST PUSH1 0x0 PUSH3 0xBA5 DUP5 PUSH3 0xEC2 JUMP JUMPDEST PUSH20 0xFFFFFFFFFFFFFFFFFFFFFFFFFFFFFFFFFFFFFFFF AND PUSH4 0xF26CC58E PUSH1 0x40 MLOAD DUP2 PUSH4 0xFFFFFFFF AND PUSH1 0xE0 SHL DUP2 MSTORE PUSH1 0x4 ADD PUSH1 0x20 PUSH1 0x40 MLOAD DUP1 DUP4 SUB DUP2 DUP7 GAS STATICCALL ISZERO DUP1 ISZERO PUSH3 0xBF0 JUMPI RETURNDATASIZE PUSH1 0x0 DUP1 RETURNDATACOPY RETURNDATASIZE PUSH1 0x0 REVERT JUMPDEST POP POP POP POP PUSH1 0x40 MLOAD RETURNDATASIZE PUSH1 0x1F NOT PUSH1 0x1F DUP3 ADD AND DUP3 ADD DUP1 PUSH1 0x40 MSTORE POP DUP2 ADD SWAP1 PUSH3 0xC16 SWAP2 SWAP1 PUSH3 0x351F JUMP JUMPDEST EQ ISZERO PUSH3 0xC5A JUMPI PUSH1 0x40 MLOAD PUSH32 0x8C379A000000000000000000000000000000000000000000000000000000000 DUP2 MSTORE PUSH1 0x4 ADD PUSH3 0xC51 SWAP1 PUSH3 0x363D JUMP JUMPDEST PUSH1 0x40 MLOAD DUP1 SWAP2 SUB SWAP1 REVERT JUMPDEST PUSH3 0xC65 DUP4 PUSH3 0x227E JUMP JUMPDEST PUSH1 0x0 PUSH3 0xC72 DUP5 PUSH3 0x238A JUMP JUMPDEST SWAP1 POP PUSH32 0x22E3D29644EAD4083349CA84D24BCAC368B2461819B70F5921FEA15DE4DEC4D DUP5 DUP3 PUSH1 0x40 MLOAD PUSH3 0xCA7 SWAP3 SWAP2 SWAP1 PUSH3 0x365F JUMP JUMPDEST PUSH1 0x40 MLOAD DUP1 SWAP2 SUB SWAP1 LOG1 PUSH1 0x1 SWAP3 POP POP POP SWAP2 SWAP1 POP JUMP JUMPDEST PUSH1 0x0 DUP2 PUSH3 0xCC8 DUP2 PUSH3 0xEFF JUMP JUMPDEST PUSH20 0xFFFFFFFFFFFFFFFFFFFFFFFFFFFFFFFFFFFFFFFF AND CALLER PUSH20 0xFFFFFFFFFFFFFFFFFFFFFFFFFFFFFFFFFFFFFFFF AND EQ DUP1 PUSH3 0xD37 JUMPI POP PUSH3 0xD08 DUP2 PUSH3 0x1316 JUMP JUMPDEST PUSH20 0xFFFFFFFFFFFFFFFFFFFFFFFFFFFFFFFFFFFFFFFF AND CALLER PUSH20 0xFFFFFFFFFFFFFFFFFFFFFFFFFFFFFFFFFFFFFFFF AND EQ JUMPDEST PUSH3 0xD79 JUMPI PUSH1 0x40 MLOAD PUSH32 0x8C379A000000000000000000000000000000000000000000000000000000000 DUP2 MSTORE PUSH1 0x4 ADD PUSH3 0xD70 SWAP1 PUSH3 0x3702 JUMP JUMPDEST PUSH1 0x40 MLOAD DUP1 SWAP2 SUB SWAP1 REVERT JUMPDEST PUSH3 0xD84 DUP4 PUSH3 0x2642 JUMP JUMPDEST PUSH3 0xD8F DUP4 PUSH3 0x1C88 JUMP JUMPDEST POP PUSH32 0x8BF30E7FF26833413BE5F69E1D373744864D600B664204B4A2F9844A8EEDB9ED DUP4 PUSH1 0x40 MLOAD PUSH3 0xDC1 SWAP2 SWAP1 PUSH3 0x2E99 JUMP JUMPDEST PUSH1 0x40 MLOAD DUP1 SWAP2 SUB SWAP1 LOG1 PUSH1 0x1 SWAP2 POP POP SWAP2 SWAP1 POP JUMP JUMPDEST PUSH1 0x0 DUP2 PUSH3 0xDE1 DUP2 PUSH3 0xEFF JUMP JUMPDEST PUSH20 0xFFFFFFFFFFFFFFFFFFFFFFFFFFFFFFFFFFFFFFFF AND CALLER PUSH20 0xFFFFFFFFFFFFFFFFFFFFFFFFFFFFFFFFFFFFFFFF AND EQ PUSH3 0xE51 JUMPI PUSH1 0x40 MLOAD PUSH32 0x8C379A000000000000000000000000000000000000000000000000000000000 DUP2 MSTORE PUSH1 0x4 ADD PUSH3 0xE48 SWAP1 PUSH3 0x349D JUMP JUMPDEST PUSH1 0x40 MLOAD DUP1 SWAP2 SUB SWAP1 REVERT JUMPDEST PUSH3 0xE5C DUP4 PUSH3 0x1F0B JUMP JUMPDEST PUSH3 0xE67 DUP4 PUSH3 0x274E JUMP JUMPDEST PUSH32 0x73FE46267E05AE56A3625C045DF1B74C1B1736A7535EEADEF3C57551BFD00599 DUP4 PUSH1 0x40 MLOAD PUSH3 0xE98 SWAP2 SWAP1 PUSH3 0x2E99 JUMP JUMPDEST PUSH1 0x40 MLOAD DUP1 SWAP2 SUB SWAP1 LOG1 PUSH1 0x1 SWAP2 POP POP SWAP2 SWAP1 POP JUMP JUMPDEST PUSH1 0x2 PUSH1 0x20 MSTORE DUP1 PUSH1 0x0 MSTORE PUSH1 0x40 PUSH1 0x0 KECCAK256 PUSH1 0x0 SWAP2 POP SWAP1 POP SLOAD DUP2 JUMP JUMPDEST PUSH1 0x0 PUSH1 0x1 PUSH1 0x0 DUP4 DUP2 MSTORE PUSH1 0x20 ADD SWAP1 DUP2 MSTORE PUSH1 0x20 ADD PUSH1 0x0 KECCAK256 PUSH1 0x0 SWAP1 SLOAD SWAP1 PUSH2 0x100 EXP SWAP1 DIV PUSH20 0xFFFFFFFFFFFFFFFFFFFFFFFFFFFFFFFFFFFFFFFF AND SWAP1 POP SWAP2 SWAP1 POP JUMP JUMPDEST PUSH1 0x0 PUSH1 0x1 PUSH1 0x0 DUP4 DUP2 MSTORE PUSH1 0x20 ADD SWAP1 DUP2 MSTORE PUSH1 0x20 ADD PUSH1 0x0 KECCAK256 PUSH1 0x0 SWAP1 SLOAD SWAP1 PUSH2 0x100 EXP SWAP1 DIV PUSH20 0xFFFFFFFFFFFFFFFFFFFFFFFFFFFFFFFFFFFFFFFF AND PUSH20 0xFFFFFFFFFFFFFFFFFFFFFFFFFFFFFFFFFFFFFFFF AND PUSH4 0x603DAF9A PUSH1 0x40 MLOAD DUP2 PUSH4 0xFFFFFFFF AND PUSH1 0xE0 SHL DUP2 MSTORE PUSH1 0x4 ADD PUSH1 0x20 PUSH1 0x40 MLOAD DUP1 DUP4 SUB DUP2 DUP7 GAS STATICCALL ISZERO DUP1 ISZERO PUSH3 0xF80 JUMPI RETURNDATASIZE PUSH1 0x0 DUP1 RETURNDATACOPY RETURNDATASIZE PUSH1 0x0 REVERT JUMPDEST POP POP POP POP PUSH1 0x40 MLOAD RETURNDATASIZE PUSH1 0x1F NOT PUSH1 0x1F DUP3 ADD AND DUP3 ADD DUP1 PUSH1 0x40 MSTORE POP DUP2 ADD SWAP1 PUSH3 0xFA6 SWAP2 SWAP1 PUSH3 0x373B JUMP JUMPDEST SWAP1 POP SWAP2 SWAP1 POP JUMP JUMPDEST PUSH1 0x0 PUSH1 0x1 PUSH1 0x0 DUP4 DUP2 MSTORE PUSH1 0x20 ADD SWAP1 DUP2 MSTORE PUSH1 0x20 ADD PUSH1 0x0 KECCAK256 PUSH1 0x0 SWAP1 SLOAD SWAP1 PUSH2 0x100 EXP SWAP1 DIV PUSH20 0xFFFFFFFFFFFFFFFFFFFFFFFFFFFFFFFFFFFFFFFF AND PUSH20 0xFFFFFFFFFFFFFFFFFFFFFFFFFFFFFFFFFFFFFFFF AND PUSH4 0x200D2ED2 PUSH1 0x40 MLOAD DUP2 PUSH4 0xFFFFFFFF AND PUSH1 0xE0 SHL DUP2 MSTORE PUSH1 0x4 ADD PUSH1 0x20 PUSH1 0x40 MLOAD DUP1 DUP4 SUB DUP2 DUP7 GAS STATICCALL ISZERO DUP1 ISZERO PUSH3 0x102E JUMPI RETURNDATASIZE PUSH1 0x0 DUP1 RETURNDATACOPY RETURNDATASIZE PUSH1 0x0 REVERT JUMPDEST POP POP POP POP PUSH1 0x40 MLOAD RETURNDATASIZE PUSH1 0x1F NOT PUSH1 0x1F DUP3 ADD AND DUP3 ADD DUP1 PUSH1 0x40 MSTORE POP DUP2 ADD SWAP1 PUSH3 0x1054 SWAP2 SWAP1 PUSH3 0x3795 JUMP JUMPDEST SWAP1 POP SWAP2 SWAP1 POP JUMP JUMPDEST PUSH3 0x1065 PUSH3 0x1E86 JUMP JUMPDEST PUSH3 0x1071 PUSH1 0x0 PUSH3 0x285E JUMP JUMPDEST JUMP JUMPDEST PUSH1 0x0 PUSH1 0x1 PUSH1 0x0 DUP4 DUP2 MSTORE PUSH1 0x20 ADD SWAP1 DUP2 MSTORE PUSH1 0x20 ADD PUSH1 0x0 KECCAK256 PUSH1 0x0 SWAP1 SLOAD SWAP1 PUSH2 0x100 EXP SWAP1 DIV PUSH20 0xFFFFFFFFFFFFFFFFFFFFFFFFFFFFFFFFFFFFFFFF AND PUSH20 0xFFFFFFFFFFFFFFFFFFFFFFFFFFFFFFFFFFFFFFFF AND PUSH4 0x4C1786EA PUSH1 0x40 MLOAD DUP2 PUSH4 0xFFFFFFFF AND PUSH1 0xE0 SHL DUP2 MSTORE PUSH1 0x4 ADD PUSH1 0x20 PUSH1 0x40 MLOAD DUP1 DUP4 SUB DUP2 DUP7 GAS STATICCALL ISZERO DUP1 ISZERO PUSH3 0x10F4 JUMPI RETURNDATASIZE PUSH1 0x0 DUP1 RETURNDATACOPY RETURNDATASIZE PUSH1 0x0 REVERT JUMPDEST POP POP POP POP PUSH1 0x40 MLOAD RETURNDATASIZE PUSH1 0x1F NOT PUSH1 0x1F DUP3 ADD AND DUP3 ADD DUP1 PUSH1 0x40 MSTORE POP DUP2 ADD SWAP1 PUSH3 0x111A SWAP2 SWAP1 PUSH3 0x351F JUMP JUMPDEST SWAP1 POP SWAP2 SWAP1 POP JUMP JUMPDEST PUSH1 0x0 DUP1 PUSH3 0x1136 DUP11 DUP11 DUP11 DUP11 DUP11 DUP11 DUP11 DUP11 PUSH3 0x2924 JUMP JUMPDEST SWAP1 POP PUSH3 0x1144 DUP2 DUP12 PUSH3 0x1773 JUMP JUMPDEST POP CALLER PUSH20 0xFFFFFFFFFFFFFFFFFFFFFFFFFFFFFFFFFFFFFFFF AND PUSH32 0x9EAB9CFAC223C6527657A8D86C920796A5AB5038BC0F4497038958AC33FA8F83 DUP12 DUP4 DUP7 PUSH3 0x118B DUP7 PUSH3 0xEC2 JUMP JUMPDEST PUSH1 0x40 MLOAD PUSH3 0x119D SWAP5 SWAP4 SWAP3 SWAP2 SWAP1 PUSH3 0x37C7 JUMP JUMPDEST PUSH1 0x40 MLOAD DUP1 SWAP2 SUB SWAP1 LOG2 DUP1 SWAP2 POP POP SWAP9 SWAP8 POP POP POP POP POP POP POP POP JUMP JUMPDEST PUSH1 0x0 PUSH1 0x5 PUSH1 0x0 SWAP1 SLOAD SWAP1 PUSH2 0x100 EXP SWAP1 DIV PUSH20 0xFFFFFFFFFFFFFFFFFFFFFFFFFFFFFFFFFFFFFFFF AND SWAP1 POP SWAP1 JUMP JUMPDEST PUSH3 0x11E9 PUSH3 0x2DB4 JUMP JUMPDEST PUSH1 0x1 PUSH1 0x0 DUP4 DUP2 MSTORE PUSH1 0x20 ADD SWAP1 DUP2 MSTORE PUSH1 0x20 ADD PUSH1 0x0 KECCAK256 PUSH1 0x0 SWAP1 SLOAD SWAP1 PUSH2 0x100 EXP SWAP1 DIV PUSH20 0xFFFFFFFFFFFFFFFFFFFFFFFFFFFFFFFFFFFFFFFF AND PUSH20 0xFFFFFFFFFFFFFFFFFFFFFFFFFFFFFFFFFFFFFFFF AND PUSH4 0xBD9A548B PUSH1 0x40 MLOAD DUP2 PUSH4 0xFFFFFFFF AND PUSH1 0xE0 SHL DUP2 MSTORE PUSH1 0x4 ADD PUSH1 0xA0 PUSH1 0x40 MLOAD DUP1 DUP4 SUB DUP2 DUP7 GAS STATICCALL ISZERO DUP1 ISZERO PUSH3 0x1268 JUMPI RETURNDATASIZE PUSH1 0x0 DUP1 RETURNDATACOPY RETURNDATASIZE PUSH1 0x0 REVERT JUMPDEST POP POP POP POP PUSH1 0x40 MLOAD RETURNDATASIZE PUSH1 0x1F NOT PUSH1 0x1F DUP3 ADD AND DUP3 ADD DUP1 PUSH1 0x40 MSTORE POP DUP2 ADD SWAP1 PUSH3 0x128E SWAP2 SWAP1 PUSH3 0x3977 JUMP JUMPDEST SWAP1 POP SWAP2 SWAP1 POP JUMP JUMPDEST PUSH1 0x0 PUSH3 0x12A2 DUP3 PUSH3 0x2AFE JUMP JUMPDEST PUSH3 0x12AD DUP3 PUSH3 0x1C88 JUMP JUMPDEST POP PUSH32 0xA33FD53BA34795FFEFAEA3759C71F87D38B89AE12E40BC434C826FAE0CA53583 DUP3 PUSH1 0x40 MLOAD PUSH3 0x12DF SWAP2 SWAP1 PUSH3 0x2E99 JUMP JUMPDEST PUSH1 0x40 MLOAD DUP1 SWAP2 SUB SWAP1 LOG1 PUSH1 0x1 SWAP1 POP SWAP2 SWAP1 POP JUMP JUMPDEST PUSH3 0x12FA PUSH3 0x2DD6 JUMP JUMPDEST PUSH1 0x0 PUSH1 0x40 MLOAD DUP1 PUSH1 0x20 ADD PUSH1 0x40 MSTORE SWAP1 DUP2 PUSH1 0x0 DUP3 ADD SLOAD DUP2 MSTORE POP POP SWAP1 POP SWAP1 JUMP JUMPDEST PUSH1 0x0 PUSH1 0x1 PUSH1 0x0 DUP4 DUP2 MSTORE PUSH1 0x20 ADD SWAP1 DUP2 MSTORE PUSH1 0x20 ADD PUSH1 0x0 KECCAK256 PUSH1 0x0 SWAP1 SLOAD SWAP1 PUSH2 0x100 EXP SWAP1 DIV PUSH20 0xFFFFFFFFFFFFFFFFFFFFFFFFFFFFFFFFFFFFFFFF AND PUSH20 0xFFFFFFFFFFFFFFFFFFFFFFFFFFFFFFFFFFFFFFFF AND PUSH4 0xDBD0E1B6 PUSH1 0x40 MLOAD DUP2 PUSH4 0xFFFFFFFF AND PUSH1 0xE0 SHL DUP2 MSTORE PUSH1 0x4 ADD PUSH1 0x20 PUSH1 0x40 MLOAD DUP1 DUP4 SUB DUP2 DUP7 GAS STATICCALL ISZERO DUP1 ISZERO PUSH3 0x1397 JUMPI RETURNDATASIZE PUSH1 0x0 DUP1 RETURNDATACOPY RETURNDATASIZE PUSH1 0x0 REVERT JUMPDEST POP POP POP POP PUSH1 0x40 MLOAD RETURNDATASIZE PUSH1 0x1F NOT PUSH1 0x1F DUP3 ADD AND DUP3 ADD DUP1 PUSH1 0x40 MSTORE POP DUP2 ADD SWAP1 PUSH3 0x13BD SWAP2 SWAP1 PUSH3 0x373B JUMP JUMPDEST SWAP1 POP SWAP2 SWAP1 POP JUMP JUMPDEST PUSH3 0x13CE PUSH3 0x1E86 JUMP JUMPDEST PUSH1 0x0 PUSH20 0xFFFFFFFFFFFFFFFFFFFFFFFFFFFFFFFFFFFFFFFF AND DUP2 PUSH20 0xFFFFFFFFFFFFFFFFFFFFFFFFFFFFFFFFFFFFFFFF AND EQ ISZERO PUSH3 0x1441 JUMPI PUSH1 0x40 MLOAD PUSH32 0x8C379A000000000000000000000000000000000000000000000000000000000 DUP2 MSTORE PUSH1 0x4 ADD PUSH3 0x1438 SWAP1 PUSH3 0x3A1F JUMP JUMPDEST PUSH1 0x40 MLOAD DUP1 SWAP2 SUB SWAP1 REVERT JUMPDEST PUSH3 0x144C DUP2 PUSH3 0x285E JUMP JUMPDEST POP JUMP JUMPDEST PUSH1 0x3 PUSH1 0x0 SWAP1 SLOAD SWAP1 PUSH2 0x100 EXP SWAP1 DIV PUSH20 0xFFFFFFFFFFFFFFFFFFFFFFFFFFFFFFFFFFFFFFFF AND DUP2 JUMP JUMPDEST PUSH1 0x0 DUP2 PUSH1 0x1 PUSH1 0x4 DUP2 GT ISZERO PUSH3 0x148F JUMPI PUSH3 0x148E PUSH3 0x304A JUMP JUMPDEST JUMPDEST PUSH3 0x149A DUP3 PUSH3 0xFAD JUMP JUMPDEST PUSH1 0x4 DUP2 GT ISZERO PUSH3 0x14AF JUMPI PUSH3 0x14AE PUSH3 0x304A JUMP JUMPDEST JUMPDEST EQ PUSH3 0x14F2 JUMPI PUSH1 0x40 MLOAD PUSH32 0x8C379A000000000000000000000000000000000000000000000000000000000 DUP2 MSTORE PUSH1 0x4 ADD PUSH3 0x14E9 SWAP1 PUSH3 0x3AB7 JUMP JUMPDEST PUSH1 0x40 MLOAD DUP1 SWAP2 SUB SWAP1 REVERT JUMPDEST PUSH1 0x0 PUSH1 0x1 PUSH1 0x0 DUP6 DUP2 MSTORE PUSH1 0x20 ADD SWAP1 DUP2 MSTORE PUSH1 0x20 ADD PUSH1 0x0 KECCAK256 PUSH1 0x0 SWAP1 SLOAD SWAP1 PUSH2 0x100 EXP SWAP1 DIV PUSH20 0xFFFFFFFFFFFFFFFFFFFFFFFFFFFFFFFFFFFFFFFF AND SWAP1 POP DUP1 PUSH20 0xFFFFFFFFFFFFFFFFFFFFFFFFFFFFFFFFFFFFFFFF AND PUSH4 0xBEF904E3 DUP7 PUSH1 0x40 MLOAD DUP3 PUSH4 0xFFFFFFFF AND PUSH1 0xE0 SHL DUP2 MSTORE PUSH1 0x4 ADD PUSH3 0x1565 SWAP2 SWAP1 PUSH3 0x2E99 JUMP JUMPDEST PUSH1 0x20 PUSH1 0x40 MLOAD DUP1 DUP4 SUB DUP2 PUSH1 0x0 DUP8 GAS CALL ISZERO DUP1 ISZERO PUSH3 0x1585 JUMPI RETURNDATASIZE PUSH1 0x0 DUP1 RETURNDATACOPY RETURNDATASIZE PUSH1 0x0 REVERT JUMPDEST POP POP POP POP PUSH1 0x40 MLOAD RETURNDATASIZE PUSH1 0x1F NOT PUSH1 0x1F DUP3 ADD AND DUP3 ADD DUP1 PUSH1 0x40 MSTORE POP DUP2 ADD SWAP1 PUSH3 0x15AB SWAP2 SWAP1 PUSH3 0x351F JUMP JUMPDEST POP DUP6 PUSH3 0x1639 JUMPI DUP1 PUSH20 0xFFFFFFFFFFFFFFFFFFFFFFFFFFFFFFFFFFFFFFFF AND PUSH4 0xA3F09AD6 CALLER PUSH1 0x40 MLOAD DUP3 PUSH4 0xFFFFFFFF AND PUSH1 0xE0 SHL DUP2 MSTORE PUSH1 0x4 ADD PUSH3 0x15ED SWAP2 SWAP1 PUSH3 0x302D JUMP JUMPDEST PUSH1 0x20 PUSH1 0x40 MLOAD DUP1 DUP4 SUB DUP2 PUSH1 0x0 DUP8 GAS CALL ISZERO DUP1 ISZERO PUSH3 0x160D JUMPI RETURNDATASIZE PUSH1 0x0 DUP1 RETURNDATACOPY RETURNDATASIZE PUSH1 0x0 REVERT JUMPDEST POP POP POP POP PUSH1 0x40 MLOAD RETURNDATASIZE PUSH1 0x1F NOT PUSH1 0x1F DUP3 ADD AND DUP3 ADD DUP1 PUSH1 0x40 MSTORE POP DUP2 ADD SWAP1 PUSH3 0x1633 SWAP2 SWAP1 PUSH3 0x373B JUMP JUMPDEST PUSH3 0x16BB JUMP JUMPDEST DUP1 PUSH20 0xFFFFFFFFFFFFFFFFFFFFFFFFFFFFFFFFFFFFFFFF AND PUSH4 0xE99D2866 CALLER PUSH1 0x40 MLOAD DUP3 PUSH4 0xFFFFFFFF AND PUSH1 0xE0 SHL DUP2 MSTORE PUSH1 0x4 ADD PUSH3 0x1674 SWAP2 SWAP1 PUSH3 0x302D JUMP JUMPDEST PUSH1 0x20 PUSH1 0x40 MLOAD DUP1 DUP4 SUB DUP2 PUSH1 0x0 DUP8 GAS CALL ISZERO DUP1 ISZERO PUSH3 0x1694 JUMPI RETURNDATASIZE PUSH1 0x0 DUP1 RETURNDATACOPY RETURNDATASIZE PUSH1 0x0 REVERT JUMPDEST POP POP POP POP PUSH1 0x40 MLOAD RETURNDATASIZE PUSH1 0x1F NOT PUSH1 0x1F DUP3 ADD AND DUP3 ADD DUP1 PUSH1 0x40 MSTORE POP DUP2 ADD SWAP1 PUSH3 0x16BA SWAP2 SWAP1 PUSH3 0x373B JUMP JUMPDEST JUMPDEST POP PUSH3 0x24EA00 TIMESTAMP PUSH3 0x16CD SWAP2 SWAP1 PUSH3 0x3B08 JUMP JUMPDEST PUSH1 0x2 PUSH1 0x0 DUP7 DUP2 MSTORE PUSH1 0x20 ADD SWAP1 DUP2 MSTORE PUSH1 0x20 ADD PUSH1 0x0 KECCAK256 DUP2 SWAP1 SSTORE POP DUP1 PUSH20 0xFFFFFFFFFFFFFFFFFFFFFFFFFFFFFFFFFFFFFFFF AND PUSH4 0x2E49D78B PUSH1 0x2 PUSH1 0x40 MLOAD DUP3 PUSH4 0xFFFFFFFF AND PUSH1 0xE0 SHL DUP2 MSTORE PUSH1 0x4 ADD PUSH3 0x1720 SWAP2 SWAP1 PUSH3 0x30CA JUMP JUMPDEST PUSH1 0x20 PUSH1 0x40 MLOAD DUP1 DUP4 SUB DUP2 PUSH1 0x0 DUP8 GAS CALL ISZERO DUP1 ISZERO PUSH3 0x1740 JUMPI RETURNDATASIZE PUSH1 0x0 DUP1 RETURNDATACOPY RETURNDATASIZE PUSH1 0x0 REVERT JUMPDEST POP POP POP POP PUSH1 0x40 MLOAD RETURNDATASIZE PUSH1 0x1F NOT PUSH1 0x1F DUP3 ADD AND DUP3 ADD DUP1 PUSH1 0x40 MSTORE POP DUP2 ADD SWAP1 PUSH3 0x1766 SWAP2 SWAP1 PUSH3 0x3795 JUMP JUMPDEST POP DUP4 SWAP3 POP POP POP SWAP4 SWAP3 POP POP POP JUMP JUMPDEST PUSH1 0x0 DUP1 DUP3 ISZERO PUSH3 0x1886 JUMPI PUSH3 0x179D PUSH1 0x4 PUSH3 0x178E DUP7 PUSH3 0x91B JUMP JUMPDEST PUSH3 0x2D1B SWAP1 SWAP2 SWAP1 PUSH4 0xFFFFFFFF AND JUMP JUMPDEST SWAP1 POP PUSH1 0x3 PUSH1 0x0 SWAP1 SLOAD SWAP1 PUSH2 0x100 EXP SWAP1 DIV PUSH20 0xFFFFFFFFFFFFFFFFFFFFFFFFFFFFFFFFFFFFFFFF AND PUSH20 0xFFFFFFFFFFFFFFFFFFFFFFFFFFFFFFFFFFFFFFFF AND PUSH4 0x23B872DD PUSH3 0x17E8 DUP7 PUSH3 0xEFF JUMP JUMPDEST ADDRESS DUP5 PUSH1 0x40 MLOAD DUP5 PUSH4 0xFFFFFFFF AND PUSH1 0xE0 SHL DUP2 MSTORE PUSH1 0x4 ADD PUSH3 0x180A SWAP4 SWAP3 SWAP2 SWAP1 PUSH3 0x3B65 JUMP JUMPDEST PUSH1 0x20 PUSH1 0x40 MLOAD DUP1 DUP4 SUB DUP2 PUSH1 0x0 DUP8 GAS CALL ISZERO DUP1 ISZERO PUSH3 0x182A JUMPI RETURNDATASIZE PUSH1 0x0 DUP1 RETURNDATACOPY RETURNDATASIZE PUSH1 0x0 REVERT JUMPDEST POP POP POP POP PUSH1 0x40 MLOAD RETURNDATASIZE PUSH1 0x1F NOT PUSH1 0x1F DUP3 ADD AND DUP3 ADD DUP1 PUSH1 0x40 MSTORE POP DUP2 ADD SWAP1 PUSH3 0x1850 SWAP2 SWAP1 PUSH3 0x3595 JUMP JUMPDEST POP DUP1 PUSH1 0x4 PUSH1 0x0 DUP7 DUP2 MSTORE PUSH1 0x20 ADD SWAP1 DUP2 MSTORE PUSH1 0x20 ADD PUSH1 0x0 KECCAK256 PUSH1 0x0 PUSH1 0x2 DUP2 LT PUSH3 0x187B JUMPI PUSH3 0x187A PUSH3 0x3BA2 JUMP JUMPDEST JUMPDEST ADD DUP2 SWAP1 SSTORE POP PUSH3 0x1975 JUMP JUMPDEST PUSH3 0x1891 DUP5 PUSH3 0x1073 JUMP JUMPDEST SWAP1 POP PUSH1 0x3 PUSH1 0x0 SWAP1 SLOAD SWAP1 PUSH2 0x100 EXP SWAP1 DIV PUSH20 0xFFFFFFFFFFFFFFFFFFFFFFFFFFFFFFFFFFFFFFFF AND PUSH20 0xFFFFFFFFFFFFFFFFFFFFFFFFFFFFFFFFFFFFFFFF AND PUSH4 0x23B872DD PUSH3 0x18DC DUP7 PUSH3 0x1316 JUMP JUMPDEST ADDRESS DUP5 PUSH1 0x40 MLOAD DUP5 PUSH4 0xFFFFFFFF AND PUSH1 0xE0 SHL DUP2 MSTORE PUSH1 0x4 ADD PUSH3 0x18FE SWAP4 SWAP3 SWAP2 SWAP1 PUSH3 0x3B65 JUMP JUMPDEST PUSH1 0x20 PUSH1 0x40 MLOAD DUP1 DUP4 SUB DUP2 PUSH1 0x0 DUP8 GAS CALL ISZERO DUP1 ISZERO PUSH3 0x191E JUMPI RETURNDATASIZE PUSH1 0x0 DUP1 RETURNDATACOPY RETURNDATASIZE PUSH1 0x0 REVERT JUMPDEST POP POP POP POP PUSH1 0x40 MLOAD RETURNDATASIZE PUSH1 0x1F NOT PUSH1 0x1F DUP3 ADD AND DUP3 ADD DUP1 PUSH1 0x40 MSTORE POP DUP2 ADD SWAP1 PUSH3 0x1944 SWAP2 SWAP1 PUSH3 0x3595 JUMP JUMPDEST POP DUP1 PUSH1 0x4 PUSH1 0x0 DUP7 DUP2 MSTORE PUSH1 0x20 ADD SWAP1 DUP2 MSTORE PUSH1 0x20 ADD PUSH1 0x0 KECCAK256 PUSH1 0x1 PUSH1 0x2 DUP2 LT PUSH3 0x196F JUMPI PUSH3 0x196E PUSH3 0x3BA2 JUMP JUMPDEST JUMPDEST ADD DUP2 SWAP1 SSTORE POP JUMPDEST PUSH1 0x1 SWAP2 POP POP SWAP3 SWAP2 POP POP JUMP JUMPDEST PUSH1 0x0 DUP1 PUSH1 0x3 PUSH1 0x0 SWAP1 SLOAD SWAP1 PUSH2 0x100 EXP SWAP1 DIV PUSH20 0xFFFFFFFFFFFFFFFFFFFFFFFFFFFFFFFFFFFFFFFF AND PUSH20 0xFFFFFFFFFFFFFFFFFFFFFFFFFFFFFFFFFFFFFFFF AND PUSH4 0xA9059CBB PUSH3 0x19CC DUP6 PUSH3 0x1316 JUMP JUMPDEST PUSH3 0x19D7 DUP7 PUSH3 0x91B JUMP JUMPDEST PUSH1 0x40 MLOAD DUP4 PUSH4 0xFFFFFFFF AND PUSH1 0xE0 SHL DUP2 MSTORE PUSH1 0x4 ADD PUSH3 0x19F6 SWAP3 SWAP2 SWAP1 PUSH3 0x3551 JUMP JUMPDEST PUSH1 0x20 PUSH1 0x40 MLOAD DUP1 DUP4 SUB DUP2 PUSH1 0x0 DUP8 GAS CALL ISZERO DUP1 ISZERO PUSH3 0x1A16 JUMPI RETURNDATASIZE PUSH1 0x0 DUP1 RETURNDATACOPY RETURNDATASIZE PUSH1 0x0 REVERT JUMPDEST POP POP POP POP PUSH1 0x40 MLOAD RETURNDATASIZE PUSH1 0x1F NOT PUSH1 0x1F DUP3 ADD AND DUP3 ADD DUP1 PUSH1 0x40 MSTORE POP DUP2 ADD SWAP1 PUSH3 0x1A3C SWAP2 SWAP1 PUSH3 0x3595 JUMP JUMPDEST SWAP1 POP DUP1 PUSH3 0x1A81 JUMPI PUSH1 0x40 MLOAD PUSH32 0x8C379A000000000000000000000000000000000000000000000000000000000 DUP2 MSTORE PUSH1 0x4 ADD PUSH3 0x1A78 SWAP1 PUSH3 0x3C21 JUMP JUMPDEST PUSH1 0x40 MLOAD DUP1 SWAP2 SUB SWAP1 REVERT JUMPDEST PUSH3 0x1A8C DUP4 PUSH3 0x91B JUMP JUMPDEST PUSH1 0x4 PUSH1 0x0 DUP6 DUP2 MSTORE PUSH1 0x20 ADD SWAP1 DUP2 MSTORE PUSH1 0x20 ADD PUSH1 0x0 KECCAK256 PUSH1 0x0 PUSH1 0x2 DUP2 LT PUSH3 0x1AB5 JUMPI PUSH3 0x1AB4 PUSH3 0x3BA2 JUMP JUMPDEST JUMPDEST ADD PUSH1 0x0 DUP3 DUP3 SLOAD PUSH3 0x1AC7 SWAP2 SWAP1 PUSH3 0x3C43 JUMP JUMPDEST SWAP3 POP POP DUP2 SWAP1 SSTORE POP PUSH3 0x1AD9 DUP4 PUSH3 0xEC2 JUMP JUMPDEST PUSH20 0xFFFFFFFFFFFFFFFFFFFFFFFFFFFFFFFFFFFFFFFF AND PUSH4 0xD2895E93 PUSH1 0x1 PUSH3 0x1B01 DUP7 PUSH3 0x86D JUMP JUMPDEST PUSH3 0x1B0D SWAP2 SWAP1 PUSH3 0x3C7E JUMP JUMPDEST PUSH1 0x40 MLOAD DUP3 PUSH4 0xFFFFFFFF AND PUSH1 0xE0 SHL DUP2 MSTORE PUSH1 0x4 ADD PUSH3 0x1B2B SWAP2 SWAP1 PUSH3 0x2F43 JUMP JUMPDEST PUSH1 0x20 PUSH1 0x40 MLOAD DUP1 DUP4 SUB DUP2 PUSH1 0x0 DUP8 GAS CALL ISZERO DUP1 ISZERO PUSH3 0x1B4B JUMPI RETURNDATASIZE PUSH1 0x0 DUP1 RETURNDATACOPY RETURNDATASIZE PUSH1 0x0 REVERT JUMPDEST POP POP POP POP PUSH1 0x40 MLOAD RETURNDATASIZE PUSH1 0x1F NOT PUSH1 0x1F DUP3 ADD AND DUP3 ADD DUP1 PUSH1 0x40 MSTORE POP DUP2 ADD SWAP1 PUSH3 0x1B71 SWAP2 SWAP1 PUSH3 0x34D6 JUMP JUMPDEST POP PUSH1 0x1 SWAP2 POP POP SWAP2 SWAP1 POP JUMP JUMPDEST DUP1 PUSH1 0x2 PUSH1 0x4 DUP2 GT ISZERO PUSH3 0x1B94 JUMPI PUSH3 0x1B93 PUSH3 0x304A JUMP JUMPDEST JUMPDEST PUSH3 0x1B9F DUP3 PUSH3 0xFAD JUMP JUMPDEST PUSH1 0x4 DUP2 GT ISZERO PUSH3 0x1BB4 JUMPI PUSH3 0x1BB3 PUSH3 0x304A JUMP JUMPDEST JUMPDEST EQ PUSH3 0x1BF7 JUMPI PUSH1 0x40 MLOAD PUSH32 0x8C379A000000000000000000000000000000000000000000000000000000000 DUP2 MSTORE PUSH1 0x4 ADD PUSH3 0x1BEE SWAP1 PUSH3 0x3D2F JUMP JUMPDEST PUSH1 0x40 MLOAD DUP1 SWAP2 SUB SWAP1 REVERT JUMPDEST PUSH3 0x1C02 DUP3 PUSH3 0xEC2 JUMP JUMPDEST PUSH20 0xFFFFFFFFFFFFFFFFFFFFFFFFFFFFFFFFFFFFFFFF AND PUSH4 0x2E49D78B PUSH1 0x4 PUSH1 0x40 MLOAD DUP3 PUSH4 0xFFFFFFFF AND PUSH1 0xE0 SHL DUP2 MSTORE PUSH1 0x4 ADD PUSH3 0x1C3D SWAP2 SWAP1 PUSH3 0x30CA JUMP JUMPDEST PUSH1 0x20 PUSH1 0x40 MLOAD DUP1 DUP4 SUB DUP2 PUSH1 0x0 DUP8 GAS CALL ISZERO DUP1 ISZERO PUSH3 0x1C5D JUMPI RETURNDATASIZE PUSH1 0x0 DUP1 RETURNDATACOPY RETURNDATASIZE PUSH1 0x0 REVERT JUMPDEST POP POP POP POP PUSH1 0x40 MLOAD RETURNDATASIZE PUSH1 0x1F NOT PUSH1 0x1F DUP3 ADD AND DUP3 ADD DUP1 PUSH1 0x40 MSTORE POP DUP2 ADD SWAP1 PUSH3 0x1C83 SWAP2 SWAP1 PUSH3 0x3795 JUMP JUMPDEST POP POP POP JUMP JUMPDEST PUSH1 0x0 DUP1 PUSH1 0x40 MLOAD DUP1 PUSH1 0x40 ADD PUSH1 0x40 MSTORE DUP1 PUSH3 0x1CA1 DUP6 PUSH3 0xEFF JUMP JUMPDEST PUSH20 0xFFFFFFFFFFFFFFFFFFFFFFFFFFFFFFFFFFFFFFFF AND PUSH20 0xFFFFFFFFFFFFFFFFFFFFFFFFFFFFFFFFFFFFFFFF AND DUP2 MSTORE PUSH1 0x20 ADD PUSH3 0x1CDD DUP6 PUSH3 0x1316 JUMP JUMPDEST PUSH20 0xFFFFFFFFFFFFFFFFFFFFFFFFFFFFFFFFFFFFFFFF AND PUSH20 0xFFFFFFFFFFFFFFFFFFFFFFFFFFFFFFFFFFFFFFFF AND DUP2 MSTORE POP SWAP1 POP PUSH1 0x0 JUMPDEST PUSH1 0x1 DUP2 GT PUSH3 0x1E70 JUMPI PUSH1 0x0 PUSH1 0x4 PUSH1 0x0 DUP7 DUP2 MSTORE PUSH1 0x20 ADD SWAP1 DUP2 MSTORE PUSH1 0x20 ADD PUSH1 0x0 KECCAK256 DUP3 PUSH1 0x2 DUP2 LT PUSH3 0x1D44 JUMPI PUSH3 0x1D43 PUSH3 0x3BA2 JUMP JUMPDEST JUMPDEST ADD SLOAD SWAP1 POP PUSH1 0x0 DUP2 EQ PUSH3 0x1E59 JUMPI PUSH1 0x0 PUSH1 0x3 PUSH1 0x0 SWAP1 SLOAD SWAP1 PUSH2 0x100 EXP SWAP1 DIV PUSH20 0xFFFFFFFFFFFFFFFFFFFFFFFFFFFFFFFFFFFFFFFF AND PUSH20 0xFFFFFFFFFFFFFFFFFFFFFFFFFFFFFFFFFFFFFFFF AND PUSH4 0xA9059CBB DUP6 DUP6 PUSH1 0x2 DUP2 LT PUSH3 0x1DA7 JUMPI PUSH3 0x1DA6 PUSH3 0x3BA2 JUMP JUMPDEST JUMPDEST PUSH1 0x20 MUL ADD MLOAD DUP5 PUSH1 0x40 MLOAD DUP4 PUSH4 0xFFFFFFFF AND PUSH1 0xE0 SHL DUP2 MSTORE PUSH1 0x4 ADD PUSH3 0x1DCC SWAP3 SWAP2 SWAP1 PUSH3 0x3551 JUMP JUMPDEST PUSH1 0x20 PUSH1 0x40 MLOAD DUP1 DUP4 SUB DUP2 PUSH1 0x0 DUP8 GAS CALL ISZERO DUP1 ISZERO PUSH3 0x1DEC JUMPI RETURNDATASIZE PUSH1 0x0 DUP1 RETURNDATACOPY RETURNDATASIZE PUSH1 0x0 REVERT JUMPDEST POP POP POP POP PUSH1 0x40 MLOAD RETURNDATASIZE PUSH1 0x1F NOT PUSH1 0x1F DUP3 ADD AND DUP3 ADD DUP1 PUSH1 0x40 MSTORE POP DUP2 ADD SWAP1 PUSH3 0x1E12 SWAP2 SWAP1 PUSH3 0x3595 JUMP JUMPDEST SWAP1 POP DUP1 PUSH3 0x1E57 JUMPI PUSH1 0x40 MLOAD PUSH32 0x8C379A000000000000000000000000000000000000000000000000000000000 DUP2 MSTORE PUSH1 0x4 ADD PUSH3 0x1E4E SWAP1 PUSH3 0x3DA1 JUMP JUMPDEST PUSH1 0x40 MLOAD DUP1 SWAP2 SUB SWAP1 REVERT JUMPDEST POP JUMPDEST POP DUP1 DUP1 PUSH3 0x1E67 SWAP1 PUSH3 0x3DC3 JUMP JUMPDEST SWAP2 POP POP PUSH3 0x1D11 JUMP JUMPDEST POP PUSH3 0x1E7C DUP4 PUSH3 0x2D33 JUMP JUMPDEST PUSH1 0x1 SWAP2 POP POP SWAP2 SWAP1 POP JUMP JUMPDEST PUSH3 0x1E90 PUSH3 0x2D88 JUMP JUMPDEST PUSH20 0xFFFFFFFFFFFFFFFFFFFFFFFFFFFFFFFFFFFFFFFF AND PUSH3 0x1EB0 PUSH3 0x11B5 JUMP JUMPDEST PUSH20 0xFFFFFFFFFFFFFFFFFFFFFFFFFFFFFFFFFFFFFFFF AND EQ PUSH3 0x1F09 JUMPI PUSH1 0x40 MLOAD PUSH32 0x8C379A000000000000000000000000000000000000000000000000000000000 DUP2 MSTORE PUSH1 0x4 ADD PUSH3 0x1F00 SWAP1 PUSH3 0x3E61 JUMP JUMPDEST PUSH1 0x40 MLOAD DUP1 SWAP2 SUB SWAP1 REVERT JUMPDEST JUMP JUMPDEST DUP1 PUSH1 0x2 PUSH1 0x4 DUP2 GT ISZERO PUSH3 0x1F23 JUMPI PUSH3 0x1F22 PUSH3 0x304A JUMP JUMPDEST JUMPDEST PUSH3 0x1F2E DUP3 PUSH3 0xFAD JUMP JUMPDEST PUSH1 0x4 DUP2 GT ISZERO PUSH3 0x1F43 JUMPI PUSH3 0x1F42 PUSH3 0x304A JUMP JUMPDEST JUMPDEST EQ PUSH3 0x1F86 JUMPI PUSH1 0x40 MLOAD PUSH32 0x8C379A000000000000000000000000000000000000000000000000000000000 DUP2 MSTORE PUSH1 0x4 ADD PUSH3 0x1F7D SWAP1 PUSH3 0x3D2F JUMP JUMPDEST PUSH1 0x40 MLOAD DUP1 SWAP2 SUB SWAP1 REVERT JUMPDEST PUSH1 0x0 PUSH3 0x1F93 DUP4 PUSH3 0x86D JUMP JUMPDEST PUSH4 0xFFFFFFFF AND GT PUSH3 0x1FDC JUMPI PUSH1 0x40 MLOAD PUSH32 0x8C379A000000000000000000000000000000000000000000000000000000000 DUP2 MSTORE PUSH1 0x4 ADD PUSH3 0x1FD3 SWAP1 PUSH3 0x3ED3 JUMP JUMPDEST PUSH1 0x40 MLOAD DUP1 SWAP2 SUB SWAP1 REVERT JUMPDEST PUSH3 0x24EA00 PUSH1 0x2 PUSH1 0x0 DUP5 DUP2 MSTORE PUSH1 0x20 ADD SWAP1 DUP2 MSTORE PUSH1 0x20 ADD PUSH1 0x0 KECCAK256 PUSH1 0x0 DUP3 DUP3 SLOAD PUSH3 0x2004 SWAP2 SWAP1 PUSH3 0x3B08 JUMP JUMPDEST SWAP3 POP POP DUP2 SWAP1 SSTORE POP PUSH3 0x2016 DUP3 PUSH3 0xEC2 JUMP JUMPDEST PUSH20 0xFFFFFFFFFFFFFFFFFFFFFFFFFFFFFFFFFFFFFFFF AND PUSH4 0xD2895E93 PUSH1 0x1 PUSH3 0x203E DUP6 PUSH3 0x86D JUMP JUMPDEST PUSH3 0x204A SWAP2 SWAP1 PUSH3 0x3C7E JUMP JUMPDEST PUSH1 0x40 MLOAD DUP3 PUSH4 0xFFFFFFFF AND PUSH1 0xE0 SHL DUP2 MSTORE PUSH1 0x4 ADD PUSH3 0x2068 SWAP2 SWAP1 PUSH3 0x2F43 JUMP JUMPDEST PUSH1 0x20 PUSH1 0x40 MLOAD DUP1 DUP4 SUB DUP2 PUSH1 0x0 DUP8 GAS CALL ISZERO DUP1 ISZERO PUSH3 0x2088 JUMPI RETURNDATASIZE PUSH1 0x0 DUP1 RETURNDATACOPY RETURNDATASIZE PUSH1 0x0 REVERT JUMPDEST POP POP POP POP PUSH1 0x40 MLOAD RETURNDATASIZE PUSH1 0x1F NOT PUSH1 0x1F DUP3 ADD AND DUP3 ADD DUP1 PUSH1 0x40 MSTORE POP DUP2 ADD SWAP1 PUSH3 0x20AE SWAP2 SWAP1 PUSH3 0x34D6 JUMP JUMPDEST POP POP POP JUMP JUMPDEST PUSH3 0x20BE DUP2 PUSH3 0x91B JUMP JUMPDEST PUSH1 0x4 PUSH1 0x0 DUP4 DUP2 MSTORE PUSH1 0x20 ADD SWAP1 DUP2 MSTORE PUSH1 0x20 ADD PUSH1 0x0 KECCAK256 PUSH1 0x0 PUSH1 0x2 DUP2 LT PUSH3 0x20E7 JUMPI PUSH3 0x20E6 PUSH3 0x3BA2 JUMP JUMPDEST JUMPDEST ADD SLOAD LT ISZERO PUSH3 0x212D JUMPI PUSH1 0x40 MLOAD PUSH32 0x8C379A000000000000000000000000000000000000000000000000000000000 DUP2 MSTORE PUSH1 0x4 ADD PUSH3 0x2124 SWAP1 PUSH3 0x3F45 JUMP JUMPDEST PUSH1 0x40 MLOAD DUP1 SWAP2 SUB SWAP1 REVERT JUMPDEST PUSH1 0x0 PUSH1 0x3 PUSH1 0x0 SWAP1 SLOAD SWAP1 PUSH2 0x100 EXP SWAP1 DIV PUSH20 0xFFFFFFFFFFFFFFFFFFFFFFFFFFFFFFFFFFFFFFFF AND PUSH20 0xFFFFFFFFFFFFFFFFFFFFFFFFFFFFFFFFFFFFFFFF AND PUSH4 0xA9059CBB PUSH3 0x2178 DUP5 PUSH3 0x1316 JUMP JUMPDEST PUSH3 0x2183 DUP6 PUSH3 0x91B JUMP JUMPDEST PUSH1 0x40 MLOAD DUP4 PUSH4 0xFFFFFFFF AND PUSH1 0xE0 SHL DUP2 MSTORE PUSH1 0x4 ADD PUSH3 0x21A2 SWAP3 SWAP2 SWAP1 PUSH3 0x3551 JUMP JUMPDEST PUSH1 0x20 PUSH1 0x40 MLOAD DUP1 DUP4 SUB DUP2 PUSH1 0x0 DUP8 GAS CALL ISZERO DUP1 ISZERO PUSH3 0x21C2 JUMPI RETURNDATASIZE PUSH1 0x0 DUP1 RETURNDATACOPY RETURNDATASIZE PUSH1 0x0 REVERT JUMPDEST POP POP POP POP PUSH1 0x40 MLOAD RETURNDATASIZE PUSH1 0x1F NOT PUSH1 0x1F DUP3 ADD AND DUP3 ADD DUP1 PUSH1 0x40 MSTORE POP DUP2 ADD SWAP1 PUSH3 0x21E8 SWAP2 SWAP1 PUSH3 0x3595 JUMP JUMPDEST SWAP1 POP DUP1 PUSH3 0x222D JUMPI PUSH1 0x40 MLOAD PUSH32 0x8C379A000000000000000000000000000000000000000000000000000000000 DUP2 MSTORE PUSH1 0x4 ADD PUSH3 0x2224 SWAP1 PUSH3 0x3FB7 JUMP JUMPDEST PUSH1 0x40 MLOAD DUP1 SWAP2 SUB SWAP1 REVERT JUMPDEST PUSH3 0x2238 DUP3 PUSH3 0x91B JUMP JUMPDEST PUSH1 0x4 PUSH1 0x0 DUP5 DUP2 MSTORE PUSH1 0x20 ADD SWAP1 DUP2 MSTORE PUSH1 0x20 ADD PUSH1 0x0 KECCAK256 PUSH1 0x0 PUSH1 0x2 DUP2 LT PUSH3 0x2261 JUMPI PUSH3 0x2260 PUSH3 0x3BA2 JUMP JUMPDEST JUMPDEST ADD PUSH1 0x0 DUP3 DUP3 SLOAD PUSH3 0x2273 SWAP2 SWAP1 PUSH3 0x3C43 JUMP JUMPDEST SWAP3 POP POP DUP2 SWAP1 SSTORE POP POP POP JUMP JUMPDEST DUP1 PUSH1 0x2 PUSH1 0x4 DUP2 GT ISZERO PUSH3 0x2296 JUMPI PUSH3 0x2295 PUSH3 0x304A JUMP JUMPDEST JUMPDEST PUSH3 0x22A1 DUP3 PUSH3 0xFAD JUMP JUMPDEST PUSH1 0x4 DUP2 GT ISZERO PUSH3 0x22B6 JUMPI PUSH3 0x22B5 PUSH3 0x304A JUMP JUMPDEST JUMPDEST EQ PUSH3 0x22F9 JUMPI PUSH1 0x40 MLOAD PUSH32 0x8C379A000000000000000000000000000000000000000000000000000000000 DUP2 MSTORE PUSH1 0x4 ADD PUSH3 0x22F0 SWAP1 PUSH3 0x3D2F JUMP JUMPDEST PUSH1 0x40 MLOAD DUP1 SWAP2 SUB SWAP1 REVERT JUMPDEST PUSH3 0x2304 DUP3 PUSH3 0xEC2 JUMP JUMPDEST PUSH20 0xFFFFFFFFFFFFFFFFFFFFFFFFFFFFFFFFFFFFFFFF AND PUSH4 0x2E49D78B PUSH1 0x3 PUSH1 0x40 MLOAD DUP3 PUSH4 0xFFFFFFFF AND PUSH1 0xE0 SHL DUP2 MSTORE PUSH1 0x4 ADD PUSH3 0x233F SWAP2 SWAP1 PUSH3 0x30CA JUMP JUMPDEST PUSH1 0x20 PUSH1 0x40 MLOAD DUP1 DUP4 SUB DUP2 PUSH1 0x0 DUP8 GAS CALL ISZERO DUP1 ISZERO PUSH3 0x235F JUMPI RETURNDATASIZE PUSH1 0x0 DUP1 RETURNDATACOPY RETURNDATASIZE PUSH1 0x0 REVERT JUMPDEST POP POP POP POP PUSH1 0x40 MLOAD RETURNDATASIZE PUSH1 0x1F NOT PUSH1 0x1F DUP3 ADD AND DUP3 ADD DUP1 PUSH1 0x40 MSTORE POP DUP2 ADD SWAP1 PUSH3 0x2385 SWAP2 SWAP1 PUSH3 0x3795 JUMP JUMPDEST POP POP POP JUMP JUMPDEST PUSH1 0x0 DUP1 PUSH3 0x2398 DUP4 PUSH3 0xEC2 JUMP JUMPDEST PUSH20 0xFFFFFFFFFFFFFFFFFFFFFFFFFFFFFFFFFFFFFFFF AND PUSH4 0xF26CC58E PUSH1 0x40 MLOAD DUP2 PUSH4 0xFFFFFFFF AND PUSH1 0xE0 SHL DUP2 MSTORE PUSH1 0x4 ADD PUSH1 0x20 PUSH1 0x40 MLOAD DUP1 DUP4 SUB DUP2 DUP7 GAS STATICCALL ISZERO DUP1 ISZERO PUSH3 0x23E3 JUMPI RETURNDATASIZE PUSH1 0x0 DUP1 RETURNDATACOPY RETURNDATASIZE PUSH1 0x0 REVERT JUMPDEST POP POP POP POP PUSH1 0x40 MLOAD RETURNDATASIZE PUSH1 0x1F NOT PUSH1 0x1F DUP3 ADD AND DUP3 ADD DUP1 PUSH1 0x40 MSTORE POP DUP2 ADD SWAP1 PUSH3 0x2409 SWAP2 SWAP1 PUSH3 0x351F JUMP JUMPDEST SWAP1 POP PUSH1 0x0 PUSH1 0x3 PUSH1 0x0 SWAP1 SLOAD SWAP1 PUSH2 0x100 EXP SWAP1 DIV PUSH20 0xFFFFFFFFFFFFFFFFFFFFFFFFFFFFFFFFFFFFFFFF AND PUSH20 0xFFFFFFFFFFFFFFFFFFFFFFFFFFFFFFFFFFFFFFFF AND PUSH4 0xA9059CBB PUSH3 0x2456 DUP7 PUSH3 0xEFF JUMP JUMPDEST PUSH1 0x4 PUSH1 0x0 DUP9 DUP2 MSTORE PUSH1 0x20 ADD SWAP1 DUP2 MSTORE PUSH1 0x20 ADD PUSH1 0x0 KECCAK256 PUSH1 0x0 PUSH1 0x2 DUP2 LT PUSH3 0x247F JUMPI PUSH3 0x247E PUSH3 0x3BA2 JUMP JUMPDEST JUMPDEST ADD SLOAD DUP6 PUSH3 0x248E SWAP2 SWAP1 PUSH3 0x3B08 JUMP JUMPDEST PUSH1 0x40 MLOAD DUP4 PUSH4 0xFFFFFFFF AND PUSH1 0xE0 SHL DUP2 MSTORE PUSH1 0x4 ADD PUSH3 0x24AD SWAP3 SWAP2 SWAP1 PUSH3 0x3551 JUMP JUMPDEST PUSH1 0x20 PUSH1 0x40 MLOAD DUP1 DUP4 SUB DUP2 PUSH1 0x0 DUP8 GAS CALL ISZERO DUP1 ISZERO PUSH3 0x24CD JUMPI RETURNDATASIZE PUSH1 0x0 DUP1 RETURNDATACOPY RETURNDATASIZE PUSH1 0x0 REVERT JUMPDEST POP POP POP POP PUSH1 0x40 MLOAD RETURNDATASIZE PUSH1 0x1F NOT PUSH1 0x1F DUP3 ADD AND DUP3 ADD DUP1 PUSH1 0x40 MSTORE POP DUP2 ADD SWAP1 PUSH3 0x24F3 SWAP2 SWAP1 PUSH3 0x3595 JUMP JUMPDEST SWAP1 POP PUSH1 0x0 PUSH1 0x3 PUSH1 0x0 SWAP1 SLOAD SWAP1 PUSH2 0x100 EXP SWAP1 DIV PUSH20 0xFFFFFFFFFFFFFFFFFFFFFFFFFFFFFFFFFFFFFFFF AND PUSH20 0xFFFFFFFFFFFFFFFFFFFFFFFFFFFFFFFFFFFFFFFF AND PUSH4 0xA9059CBB PUSH3 0x2540 DUP8 PUSH3 0x1316 JUMP JUMPDEST DUP6 PUSH1 0x4 PUSH1 0x0 DUP11 DUP2 MSTORE PUSH1 0x20 ADD SWAP1 DUP2 MSTORE PUSH1 0x20 ADD PUSH1 0x0 KECCAK256 PUSH1 0x1 PUSH1 0x2 DUP2 LT PUSH3 0x256A JUMPI PUSH3 0x2569 PUSH3 0x3BA2 JUMP JUMPDEST JUMPDEST ADD SLOAD PUSH3 0x2578 SWAP2 SWAP1 PUSH3 0x3C43 JUMP JUMPDEST PUSH1 0x40 MLOAD DUP4 PUSH4 0xFFFFFFFF AND PUSH1 0xE0 SHL DUP2 MSTORE PUSH1 0x4 ADD PUSH3 0x2597 SWAP3 SWAP2 SWAP1 PUSH3 0x3551 JUMP JUMPDEST PUSH1 0x20 PUSH1 0x40 MLOAD DUP1 DUP4 SUB DUP2 PUSH1 0x0 DUP8 GAS CALL ISZERO DUP1 ISZERO PUSH3 0x25B7 JUMPI RETURNDATASIZE PUSH1 0x0 DUP1 RETURNDATACOPY RETURNDATASIZE PUSH1 0x0 REVERT JUMPDEST POP POP POP POP PUSH1 0x40 MLOAD RETURNDATASIZE PUSH1 0x1F NOT PUSH1 0x1F DUP3 ADD AND DUP3 ADD DUP1 PUSH1 0x40 MSTORE POP DUP2 ADD SWAP1 PUSH3 0x25DD SWAP2 SWAP1 PUSH3 0x3595 JUMP JUMPDEST SWAP1 POP DUP2 DUP1 ISZERO PUSH3 0x25EA JUMPI POP DUP1 JUMPDEST PUSH3 0x262C JUMPI PUSH1 0x40 MLOAD PUSH32 0x8C379A000000000000000000000000000000000000000000000000000000000 DUP2 MSTORE PUSH1 0x4 ADD PUSH3 0x2623 SWAP1 PUSH3 0x4029 JUMP JUMPDEST PUSH1 0x40 MLOAD DUP1 SWAP2 SUB SWAP1 REVERT JUMPDEST PUSH3 0x2637 DUP6 PUSH3 0x2D33 JUMP JUMPDEST DUP3 SWAP4 POP POP POP POP SWAP2 SWAP1 POP JUMP JUMPDEST DUP1 PUSH1 0x1 PUSH1 0x4 DUP2 GT ISZERO PUSH3 0x265A JUMPI PUSH3 0x2659 PUSH3 0x304A JUMP JUMPDEST JUMPDEST PUSH3 0x2665 DUP3 PUSH3 0xFAD JUMP JUMPDEST PUSH1 0x4 DUP2 GT ISZERO PUSH3 0x267A JUMPI PUSH3 0x2679 PUSH3 0x304A JUMP JUMPDEST JUMPDEST EQ PUSH3 0x26BD JUMPI PUSH1 0x40 MLOAD PUSH32 0x8C379A000000000000000000000000000000000000000000000000000000000 DUP2 MSTORE PUSH1 0x4 ADD PUSH3 0x26B4 SWAP1 PUSH3 0x3AB7 JUMP JUMPDEST PUSH1 0x40 MLOAD DUP1 SWAP2 SUB SWAP1 REVERT JUMPDEST PUSH3 0x26C8 DUP3 PUSH3 0xEC2 JUMP JUMPDEST PUSH20 0xFFFFFFFFFFFFFFFFFFFFFFFFFFFFFFFFFFFFFFFF AND PUSH4 0x2E49D78B PUSH1 0x0 PUSH1 0x40 MLOAD DUP3 PUSH4 0xFFFFFFFF AND PUSH1 0xE0 SHL DUP2 MSTORE PUSH1 0x4 ADD PUSH3 0x2703 SWAP2 SWAP1 PUSH3 0x30CA JUMP JUMPDEST PUSH1 0x20 PUSH1 0x40 MLOAD DUP1 DUP4 SUB DUP2 PUSH1 0x0 DUP8 GAS CALL ISZERO DUP1 ISZERO PUSH3 0x2723 JUMPI RETURNDATASIZE PUSH1 0x0 DUP1 RETURNDATACOPY RETURNDATASIZE PUSH1 0x0 REVERT JUMPDEST POP POP POP POP PUSH1 0x40 MLOAD RETURNDATASIZE PUSH1 0x1F NOT PUSH1 0x1F DUP3 ADD AND DUP3 ADD DUP1 PUSH1 0x40 MSTORE POP DUP2 ADD SWAP1 PUSH3 0x2749 SWAP2 SWAP1 PUSH3 0x3795 JUMP JUMPDEST POP POP POP JUMP JUMPDEST PUSH1 0x0 PUSH1 0x3 PUSH1 0x0 SWAP1 SLOAD SWAP1 PUSH2 0x100 EXP SWAP1 DIV PUSH20 0xFFFFFFFFFFFFFFFFFFFFFFFFFFFFFFFFFFFFFFFF AND PUSH20 0xFFFFFFFFFFFFFFFFFFFFFFFFFFFFFFFFFFFFFFFF AND PUSH4 0x23B872DD PUSH3 0x2799 DUP5 PUSH3 0xEFF JUMP JUMPDEST PUSH3 0x27A4 DUP6 PUSH3 0x1316 JUMP JUMPDEST PUSH3 0x27AF DUP7 PUSH3 0x91B JUMP JUMPDEST PUSH1 0x40 MLOAD DUP5 PUSH4 0xFFFFFFFF AND PUSH1 0xE0 SHL DUP2 MSTORE PUSH1 0x4 ADD PUSH3 0x27CF SWAP4 SWAP3 SWAP2 SWAP1 PUSH3 0x3B65 JUMP JUMPDEST PUSH1 0x20 PUSH1 0x40 MLOAD DUP1 DUP4 SUB DUP2 PUSH1 0x0 DUP8 GAS CALL ISZERO DUP1 ISZERO PUSH3 0x27EF JUMPI RETURNDATASIZE PUSH1 0x0 DUP1 RETURNDATACOPY RETURNDATASIZE PUSH1 0x0 REVERT JUMPDEST POP POP POP POP PUSH1 0x40 MLOAD RETURNDATASIZE PUSH1 0x1F NOT PUSH1 0x1F DUP3 ADD AND DUP3 ADD DUP1 PUSH1 0x40 MSTORE POP DUP2 ADD SWAP1 PUSH3 0x2815 SWAP2 SWAP1 PUSH3 0x3595 JUMP JUMPDEST SWAP1 POP DUP1 PUSH3 0x285A JUMPI PUSH1 0x40 MLOAD PUSH32 0x8C379A000000000000000000000000000000000000000000000000000000000 DUP2 MSTORE PUSH1 0x4 ADD PUSH3 0x2851 SWAP1 PUSH3 0x3FB7 JUMP JUMPDEST PUSH1 0x40 MLOAD DUP1 SWAP2 SUB SWAP1 REVERT JUMPDEST POP POP JUMP JUMPDEST PUSH1 0x0 PUSH1 0x5 PUSH1 0x0 SWAP1 SLOAD SWAP1 PUSH2 0x100 EXP SWAP1 DIV PUSH20 0xFFFFFFFFFFFFFFFFFFFFFFFFFFFFFFFFFFFFFFFF AND SWAP1 POP DUP2 PUSH1 0x5 PUSH1 0x0 PUSH2 0x100 EXP DUP2 SLOAD DUP2 PUSH20 0xFFFFFFFFFFFFFFFFFFFFFFFFFFFFFFFFFFFFFFFF MUL NOT AND SWAP1 DUP4 PUSH20 0xFFFFFFFFFFFFFFFFFFFFFFFFFFFFFFFFFFFFFFFF AND MUL OR SWAP1 SSTORE POP DUP2 PUSH20 0xFFFFFFFFFFFFFFFFFFFFFFFFFFFFFFFFFFFFFFFF AND DUP2 PUSH20 0xFFFFFFFFFFFFFFFFFFFFFFFFFFFFFFFFFFFFFFFF AND PUSH32 0x8BE0079C531659141344CD1FD0A4F28419497F9722A3DAAFE3B4186F6B6457E0 PUSH1 0x40 MLOAD PUSH1 0x40 MLOAD DUP1 SWAP2 SUB SWAP1 LOG3 POP POP JUMP JUMPDEST PUSH1 0x0 PUSH3 0x2932 PUSH1 0x0 PUSH3 0x2D90 JUMP JUMPDEST PUSH1 0x0 PUSH3 0x2940 PUSH1 0x0 PUSH3 0x2DA6 JUMP JUMPDEST SWAP1 POP PUSH1 0x0 DUP10 DUP10 DUP10 DUP9 DUP11 DUP10 DUP10 PUSH1 0x40 MLOAD PUSH3 0x2959 SWAP1 PUSH3 0x2DE9 JUMP JUMPDEST PUSH3 0x296B SWAP8 SWAP7 SWAP6 SWAP5 SWAP4 SWAP3 SWAP2 SWAP1 PUSH3 0x404B JUMP JUMPDEST PUSH1 0x40 MLOAD DUP1 SWAP2 SUB SWAP1 PUSH1 0x0 CREATE DUP1 ISZERO DUP1 ISZERO PUSH3 0x2988 JUMPI RETURNDATASIZE PUSH1 0x0 DUP1 RETURNDATACOPY RETURNDATASIZE PUSH1 0x0 REVERT JUMPDEST POP SWAP1 POP DUP1 PUSH1 0x1 PUSH1 0x0 DUP5 DUP2 MSTORE PUSH1 0x20 ADD SWAP1 DUP2 MSTORE PUSH1 0x20 ADD PUSH1 0x0 KECCAK256 PUSH1 0x0 PUSH2 0x100 EXP DUP2 SLOAD DUP2 PUSH20 0xFFFFFFFFFFFFFFFFFFFFFFFFFFFFFFFFFFFFFFFF MUL NOT AND SWAP1 DUP4 PUSH20 0xFFFFFFFFFFFFFFFFFFFFFFFFFFFFFFFFFFFFFFFF AND MUL OR SWAP1 SSTORE POP DUP11 PUSH3 0x2A6A JUMPI DUP1 PUSH20 0xFFFFFFFFFFFFFFFFFFFFFFFFFFFFFFFFFFFFFFFF AND PUSH4 0xE99D2866 CALLER PUSH1 0x40 MLOAD DUP3 PUSH4 0xFFFFFFFF AND PUSH1 0xE0 SHL DUP2 MSTORE PUSH1 0x4 ADD PUSH3 0x2A1E SWAP2 SWAP1 PUSH3 0x302D JUMP JUMPDEST PUSH1 0x20 PUSH1 0x40 MLOAD DUP1 DUP4 SUB DUP2 PUSH1 0x0 DUP8 GAS CALL ISZERO DUP1 ISZERO PUSH3 0x2A3E JUMPI RETURNDATASIZE PUSH1 0x0 DUP1 RETURNDATACOPY RETURNDATASIZE PUSH1 0x0 REVERT JUMPDEST POP POP POP POP PUSH1 0x40 MLOAD RETURNDATASIZE PUSH1 0x1F NOT PUSH1 0x1F DUP3 ADD AND DUP3 ADD DUP1 PUSH1 0x40 MSTORE POP DUP2 ADD SWAP1 PUSH3 0x2A64 SWAP2 SWAP1 PUSH3 0x373B JUMP JUMPDEST PUSH3 0x2AEC JUMP JUMPDEST DUP1 PUSH20 0xFFFFFFFFFFFFFFFFFFFFFFFFFFFFFFFFFFFFFFFF AND PUSH4 0xA3F09AD6 CALLER PUSH1 0x40 MLOAD DUP3 PUSH4 0xFFFFFFFF AND PUSH1 0xE0 SHL DUP2 MSTORE PUSH1 0x4 ADD PUSH3 0x2AA5 SWAP2 SWAP1 PUSH3 0x302D JUMP JUMPDEST PUSH1 0x20 PUSH1 0x40 MLOAD DUP1 DUP4 SUB DUP2 PUSH1 0x0 DUP8 GAS CALL ISZERO DUP1 ISZERO PUSH3 0x2AC5 JUMPI RETURNDATASIZE PUSH1 0x0 DUP1 RETURNDATACOPY RETURNDATASIZE PUSH1 0x0 REVERT JUMPDEST POP POP POP POP PUSH1 0x40 MLOAD RETURNDATASIZE PUSH1 0x1F NOT PUSH1 0x1F DUP3 ADD AND DUP3 ADD DUP1 PUSH1 0x40 MSTORE POP DUP2 ADD SWAP1 PUSH3 0x2AEB SWAP2 SWAP1 PUSH3 0x373B JUMP JUMPDEST JUMPDEST POP DUP2 SWAP3 POP POP POP SWAP9 SWAP8 POP POP POP POP POP POP POP POP JUMP JUMPDEST DUP1 PUSH3 0x2B0A DUP2 PUSH3 0x1316 JUMP JUMPDEST PUSH20 0xFFFFFFFFFFFFFFFFFFFFFFFFFFFFFFFFFFFFFFFF AND CALLER PUSH20 0xFFFFFFFFFFFFFFFFFFFFFFFFFFFFFFFFFFFFFFFF AND EQ PUSH3 0x2B7A JUMPI PUSH1 0x40 MLOAD PUSH32 0x8C379A000000000000000000000000000000000000000000000000000000000 DUP2 MSTORE PUSH1 0x4 ADD PUSH3 0x2B71 SWAP1 PUSH3 0x4118 JUMP JUMPDEST PUSH1 0x40 MLOAD DUP1 SWAP2 SUB SWAP1 REVERT JUMPDEST PUSH1 0x2 PUSH1 0x4 DUP2 GT ISZERO PUSH3 0x2B91 JUMPI PUSH3 0x2B90 PUSH3 0x304A JUMP JUMPDEST JUMPDEST PUSH3 0x2B9C DUP4 PUSH3 0xFAD JUMP JUMPDEST PUSH1 0x4 DUP2 GT ISZERO PUSH3 0x2BB1 JUMPI PUSH3 0x2BB0 PUSH3 0x304A JUMP JUMPDEST JUMPDEST EQ PUSH3 0x2BF4 JUMPI PUSH1 0x40 MLOAD PUSH32 0x8C379A000000000000000000000000000000000000000000000000000000000 DUP2 MSTORE PUSH1 0x4 ADD PUSH3 0x2BEB SWAP1 PUSH3 0x3D2F JUMP JUMPDEST PUSH1 0x40 MLOAD DUP1 SWAP2 SUB SWAP1 REVERT JUMPDEST PUSH1 0x0 DUP1 PUSH3 0x2C02 DUP5 PUSH3 0x86D JUMP JUMPDEST PUSH4 0xFFFFFFFF AND EQ SWAP1 POP PUSH1 0x0 DUP1 PUSH1 0x4 PUSH1 0x0 DUP7 DUP2 MSTORE PUSH1 0x20 ADD SWAP1 DUP2 MSTORE PUSH1 0x20 ADD PUSH1 0x0 KECCAK256 PUSH1 0x0 PUSH1 0x2 DUP2 LT PUSH3 0x2C37 JUMPI PUSH3 0x2C36 PUSH3 0x3BA2 JUMP JUMPDEST JUMPDEST ADD SLOAD EQ SWAP1 POP DUP1 DUP1 PUSH3 0x2C46 JUMPI POP DUP2 JUMPDEST PUSH3 0x2C88 JUMPI PUSH1 0x40 MLOAD PUSH32 0x8C379A000000000000000000000000000000000000000000000000000000000 DUP2 MSTORE PUSH1 0x4 ADD PUSH3 0x2C7F SWAP1 PUSH3 0x418A JUMP JUMPDEST PUSH1 0x40 MLOAD DUP1 SWAP2 SUB SWAP1 REVERT JUMPDEST PUSH3 0x2C93 DUP5 PUSH3 0xEC2 JUMP JUMPDEST PUSH20 0xFFFFFFFFFFFFFFFFFFFFFFFFFFFFFFFFFFFFFFFF AND PUSH4 0x2E49D78B PUSH1 0x4 PUSH1 0x40 MLOAD DUP3 PUSH4 0xFFFFFFFF AND PUSH1 0xE0 SHL DUP2 MSTORE PUSH1 0x4 ADD PUSH3 0x2CCE SWAP2 SWAP1 PUSH3 0x30CA JUMP JUMPDEST PUSH1 0x20 PUSH1 0x40 MLOAD DUP1 DUP4 SUB DUP2 PUSH1 0x0 DUP8 GAS CALL ISZERO DUP1 ISZERO PUSH3 0x2CEE JUMPI RETURNDATASIZE PUSH1 0x0 DUP1 RETURNDATACOPY RETURNDATASIZE PUSH1 0x0 REVERT JUMPDEST POP POP POP POP PUSH1 0x40 MLOAD RETURNDATASIZE PUSH1 0x1F NOT PUSH1 0x1F DUP3 ADD AND DUP3 ADD DUP1 PUSH1 0x40 MSTORE POP DUP2 ADD SWAP1 PUSH3 0x2D14 SWAP2 SWAP1 PUSH3 0x3795 JUMP JUMPDEST POP POP POP POP POP JUMP JUMPDEST PUSH1 0x0 DUP2 DUP4 PUSH3 0x2D2B SWAP2 SWAP1 PUSH3 0x41AC JUMP JUMPDEST SWAP1 POP SWAP3 SWAP2 POP POP JUMP JUMPDEST PUSH1 0x0 JUMPDEST PUSH1 0x1 DUP2 GT PUSH3 0x2D84 JUMPI PUSH1 0x0 PUSH1 0x4 PUSH1 0x0 DUP5 DUP2 MSTORE PUSH1 0x20 ADD SWAP1 DUP2 MSTORE PUSH1 0x20 ADD PUSH1 0x0 KECCAK256 DUP3 PUSH1 0x2 DUP2 LT PUSH3 0x2D69 JUMPI PUSH3 0x2D68 PUSH3 0x3BA2 JUMP JUMPDEST JUMPDEST ADD DUP2 SWAP1 SSTORE POP DUP1 DUP1 PUSH3 0x2D7B SWAP1 PUSH3 0x3DC3 JUMP JUMPDEST SWAP2 POP POP PUSH3 0x2D36 JUMP JUMPDEST POP POP JUMP JUMPDEST PUSH1 0x0 CALLER SWAP1 POP SWAP1 JUMP JUMPDEST PUSH1 0x1 DUP2 PUSH1 0x0 ADD PUSH1 0x0 DUP3 DUP3 SLOAD ADD SWAP3 POP POP DUP2 SWAP1 SSTORE POP POP JUMP JUMPDEST PUSH1 0x0 DUP2 PUSH1 0x0 ADD SLOAD SWAP1 POP SWAP2 SWAP1 POP JUMP JUMPDEST PUSH1 0x40 MLOAD DUP1 PUSH1 0xA0 ADD PUSH1 0x40 MSTORE DUP1 PUSH1 0x5 SWAP1 PUSH1 0x20 DUP3 MUL DUP1 CALLDATASIZE DUP4 CALLDATACOPY DUP1 DUP3 ADD SWAP2 POP POP SWAP1 POP POP SWAP1 JUMP JUMPDEST PUSH1 0x40 MLOAD DUP1 PUSH1 0x20 ADD PUSH1 0x40 MSTORE DUP1 PUSH1 0x0 DUP2 MSTORE POP SWAP1 JUMP JUMPDEST PUSH2 0x19FA DUP1 PUSH3 0x420E DUP4 CODECOPY ADD SWAP1 JUMP JUMPDEST PUSH1 0x0 PUSH1 0x40 MLOAD SWAP1 POP SWAP1 JUMP JUMPDEST PUSH1 0x0 DUP1 REVERT JUMPDEST PUSH1 0x0 DUP2 SWAP1 POP SWAP2 SWAP1 POP JUMP JUMPDEST PUSH3 0x2E1B DUP2 PUSH3 0x2E06 JUMP JUMPDEST DUP2 EQ PUSH3 0x2E27 JUMPI PUSH1 0x0 DUP1 REVERT JUMPDEST POP JUMP JUMPDEST PUSH1 0x0 DUP2 CALLDATALOAD SWAP1 POP PUSH3 0x2E3B DUP2 PUSH3 0x2E10 JUMP JUMPDEST SWAP3 SWAP2 POP POP JUMP JUMPDEST PUSH1 0x0 DUP1 PUSH1 0x40 DUP4 DUP6 SUB SLT ISZERO PUSH3 0x2E5B JUMPI PUSH3 0x2E5A PUSH3 0x2E01 JUMP JUMPDEST JUMPDEST PUSH1 0x0 PUSH3 0x2E6B DUP6 DUP3 DUP7 ADD PUSH3 0x2E2A JUMP JUMPDEST SWAP3 POP POP PUSH1 0x20 PUSH3 0x2E7E DUP6 DUP3 DUP7 ADD PUSH3 0x2E2A JUMP JUMPDEST SWAP2 POP POP SWAP3 POP SWAP3 SWAP1 POP JUMP JUMPDEST PUSH3 0x2E93 DUP2 PUSH3 0x2E06 JUMP JUMPDEST DUP3 MSTORE POP POP JUMP JUMPDEST PUSH1 0x0 PUSH1 0x20 DUP3 ADD SWAP1 POP PUSH3 0x2EB0 PUSH1 0x0 DUP4 ADD DUP5 PUSH3 0x2E88 JUMP JUMPDEST SWAP3 SWAP2 POP POP JUMP JUMPDEST PUSH1 0x0 PUSH1 0x20 DUP3 DUP5 SUB SLT ISZERO PUSH3 0x2ECF JUMPI PUSH3 0x2ECE PUSH3 0x2E01 JUMP JUMPDEST JUMPDEST PUSH1 0x0 PUSH3 0x2EDF DUP5 DUP3 DUP6 ADD PUSH3 0x2E2A JUMP JUMPDEST SWAP2 POP POP SWAP3 SWAP2 POP POP JUMP JUMPDEST PUSH1 0x0 DUP2 ISZERO ISZERO SWAP1 POP SWAP2 SWAP1 POP JUMP JUMPDEST PUSH3 0x2EFF DUP2 PUSH3 0x2EE8 JUMP JUMPDEST DUP3 MSTORE POP POP JUMP JUMPDEST PUSH1 0x0 PUSH1 0x20 DUP3 ADD SWAP1 POP PUSH3 0x2F1C PUSH1 0x0 DUP4 ADD DUP5 PUSH3 0x2EF4 JUMP JUMPDEST SWAP3 SWAP2 POP POP JUMP JUMPDEST PUSH1 0x0 PUSH4 0xFFFFFFFF DUP3 AND SWAP1 POP SWAP2 SWAP1 POP JUMP JUMPDEST PUSH3 0x2F3D DUP2 PUSH3 0x2F22 JUMP JUMPDEST DUP3 MSTORE POP POP JUMP JUMPDEST PUSH1 0x0 PUSH1 0x20 DUP3 ADD SWAP1 POP PUSH3 0x2F5A PUSH1 0x0 DUP4 ADD DUP5 PUSH3 0x2F32 JUMP JUMPDEST SWAP3 SWAP2 POP POP JUMP JUMPDEST PUSH1 0x0 PUSH20 0xFFFFFFFFFFFFFFFFFFFFFFFFFFFFFFFFFFFFFFFF DUP3 AND SWAP1 POP SWAP2 SWAP1 POP JUMP JUMPDEST PUSH1 0x0 DUP2 SWAP1 POP SWAP2 SWAP1 POP JUMP JUMPDEST PUSH1 0x0 PUSH3 0x2FAB PUSH3 0x2FA5 PUSH3 0x2F9F DUP5 PUSH3 0x2F60 JUMP JUMPDEST PUSH3 0x2F80 JUMP JUMPDEST PUSH3 0x2F60 JUMP JUMPDEST SWAP1 POP SWAP2 SWAP1 POP JUMP JUMPDEST PUSH1 0x0 PUSH3 0x2FBF DUP3 PUSH3 0x2F8A JUMP JUMPDEST SWAP1 POP SWAP2 SWAP1 POP JUMP JUMPDEST PUSH1 0x0 PUSH3 0x2FD3 DUP3 PUSH3 0x2FB2 JUMP JUMPDEST SWAP1 POP SWAP2 SWAP1 POP JUMP JUMPDEST PUSH3 0x2FE5 DUP2 PUSH3 0x2FC6 JUMP JUMPDEST DUP3 MSTORE POP POP JUMP JUMPDEST PUSH1 0x0 PUSH1 0x20 DUP3 ADD SWAP1 POP PUSH3 0x3002 PUSH1 0x0 DUP4 ADD DUP5 PUSH3 0x2FDA JUMP JUMPDEST SWAP3 SWAP2 POP POP JUMP JUMPDEST PUSH1 0x0 PUSH3 0x3015 DUP3 PUSH3 0x2F60 JUMP JUMPDEST SWAP1 POP SWAP2 SWAP1 POP JUMP JUMPDEST PUSH3 0x3027 DUP2 PUSH3 0x3008 JUMP JUMPDEST DUP3 MSTORE POP POP JUMP JUMPDEST PUSH1 0x0 PUSH1 0x20 DUP3 ADD SWAP1 POP PUSH3 0x3044 PUSH1 0x0 DUP4 ADD DUP5 PUSH3 0x301C JUMP JUMPDEST SWAP3 SWAP2 POP POP JUMP JUMPDEST PUSH32 0x4E487B7100000000000000000000000000000000000000000000000000000000 PUSH1 0x0 MSTORE PUSH1 0x21 PUSH1 0x4 MSTORE PUSH1 0x24 PUSH1 0x0 REVERT JUMPDEST PUSH1 0x5 DUP2 LT PUSH3 0x308D JUMPI PUSH3 0x308C PUSH3 0x304A JUMP JUMPDEST JUMPDEST POP JUMP JUMPDEST PUSH1 0x0 DUP2 SWAP1 POP PUSH3 0x30A0 DUP3 PUSH3 0x3079 JUMP JUMPDEST SWAP2 SWAP1 POP JUMP JUMPDEST PUSH1 0x0 PUSH3 0x30B2 DUP3 PUSH3 0x3090 JUMP JUMPDEST SWAP1 POP SWAP2 SWAP1 POP JUMP JUMPDEST PUSH3 0x30C4 DUP2 PUSH3 0x30A5 JUMP JUMPDEST DUP3 MSTORE POP POP JUMP JUMPDEST PUSH1 0x0 PUSH1 0x20 DUP3 ADD SWAP1 POP PUSH3 0x30E1 PUSH1 0x0 DUP4 ADD DUP5 PUSH3 0x30B9 JUMP JUMPDEST SWAP3 SWAP2 POP POP JUMP JUMPDEST PUSH3 0x30F2 DUP2 PUSH3 0x2EE8 JUMP JUMPDEST DUP2 EQ PUSH3 0x30FE JUMPI PUSH1 0x0 DUP1 REVERT JUMPDEST POP JUMP JUMPDEST PUSH1 0x0 DUP2 CALLDATALOAD SWAP1 POP PUSH3 0x3112 DUP2 PUSH3 0x30E7 JUMP JUMPDEST SWAP3 SWAP2 POP POP JUMP JUMPDEST PUSH3 0x3123 DUP2 PUSH3 0x2F22 JUMP JUMPDEST DUP2 EQ PUSH3 0x312F JUMPI PUSH1 0x0 DUP1 REVERT JUMPDEST POP JUMP JUMPDEST PUSH1 0x0 DUP2 CALLDATALOAD SWAP1 POP PUSH3 0x3143 DUP2 PUSH3 0x3118 JUMP JUMPDEST SWAP3 SWAP2 POP POP JUMP JUMPDEST PUSH1 0x0 DUP1 PUSH1 0x0 DUP1 PUSH1 0x0 DUP1 PUSH1 0x0 DUP1 PUSH2 0x100 DUP10 DUP12 SUB SLT ISZERO PUSH3 0x316D JUMPI PUSH3 0x316C PUSH3 0x2E01 JUMP JUMPDEST JUMPDEST PUSH1 0x0 PUSH3 0x317D DUP12 DUP3 DUP13 ADD PUSH3 0x3101 JUMP JUMPDEST SWAP9 POP POP PUSH1 0x20 PUSH3 0x3190 DUP12 DUP3 DUP13 ADD PUSH3 0x2E2A JUMP JUMPDEST SWAP8 POP POP PUSH1 0x40 PUSH3 0x31A3 DUP12 DUP3 DUP13 ADD PUSH3 0x2E2A JUMP JUMPDEST SWAP7 POP POP PUSH1 0x60 PUSH3 0x31B6 DUP12 DUP3 DUP13 ADD PUSH3 0x2E2A JUMP JUMPDEST SWAP6 POP POP PUSH1 0x80 PUSH3 0x31C9 DUP12 DUP3 DUP13 ADD PUSH3 0x2E2A JUMP JUMPDEST SWAP5 POP POP PUSH1 0xA0 PUSH3 0x31DC DUP12 DUP3 DUP13 ADD PUSH3 0x2E2A JUMP JUMPDEST SWAP4 POP POP PUSH1 0xC0 PUSH3 0x31EF DUP12 DUP3 DUP13 ADD PUSH3 0x3132 JUMP JUMPDEST SWAP3 POP POP PUSH1 0xE0 PUSH3 0x3202 DUP12 DUP3 DUP13 ADD PUSH3 0x3132 JUMP JUMPDEST SWAP2 POP POP SWAP3 SWAP6 SWAP9 POP SWAP3 SWAP6 SWAP9 SWAP1 SWAP4 SWAP7 POP JUMP JUMPDEST PUSH1 0x0 PUSH1 0x5 SWAP1 POP SWAP2 SWAP1 POP JUMP JUMPDEST PUSH1 0x0 DUP2 SWAP1 POP SWAP3 SWAP2 POP POP JUMP JUMPDEST PUSH1 0x0 DUP2 SWAP1 POP SWAP2 SWAP1 POP JUMP JUMPDEST PUSH3 0x323D DUP2 PUSH3 0x2E06 JUMP JUMPDEST DUP3 MSTORE POP POP JUMP JUMPDEST PUSH1 0x0 PUSH3 0x3251 DUP4 DUP4 PUSH3 0x3232 JUMP JUMPDEST PUSH1 0x20 DUP4 ADD SWAP1 POP SWAP3 SWAP2 POP POP JUMP JUMPDEST PUSH1 0x0 PUSH1 0x20 DUP3 ADD SWAP1 POP SWAP2 SWAP1 POP JUMP JUMPDEST PUSH3 0x3275 DUP2 PUSH3 0x3212 JUMP JUMPDEST PUSH3 0x3281 DUP2 DUP5 PUSH3 0x321D JUMP JUMPDEST SWAP3 POP PUSH3 0x328E DUP3 PUSH3 0x3228 JUMP JUMPDEST DUP1 PUSH1 0x0 JUMPDEST DUP4 DUP2 LT ISZERO PUSH3 0x32C5 JUMPI DUP2 MLOAD PUSH3 0x32A9 DUP8 DUP3 PUSH3 0x3243 JUMP JUMPDEST SWAP7 POP PUSH3 0x32B6 DUP4 PUSH3 0x325D JUMP JUMPDEST SWAP3 POP POP PUSH1 0x1 DUP2 ADD SWAP1 POP PUSH3 0x3292 JUMP JUMPDEST POP POP POP POP POP POP JUMP JUMPDEST PUSH1 0x0 PUSH1 0xA0 DUP3 ADD SWAP1 POP PUSH3 0x32E4 PUSH1 0x0 DUP4 ADD DUP5 PUSH3 0x326A JUMP JUMPDEST SWAP3 SWAP2 POP POP JUMP JUMPDEST PUSH1 0x20 DUP3 ADD PUSH1 0x0 DUP3 ADD MLOAD PUSH3 0x3302 PUSH1 0x0 DUP6 ADD DUP3 PUSH3 0x3232 JUMP JUMPDEST POP POP POP POP JUMP JUMPDEST PUSH1 0x0 PUSH1 0x20 DUP3 ADD SWAP1 POP PUSH3 0x331F PUSH1 0x0 DUP4 ADD DUP5 PUSH3 0x32EA JUMP JUMPDEST SWAP3 SWAP2 POP POP JUMP JUMPDEST PUSH3 0x3330 DUP2 PUSH3 0x3008 JUMP JUMPDEST DUP2 EQ PUSH3 0x333C JUMPI PUSH1 0x0 DUP1 REVERT JUMPDEST POP JUMP JUMPDEST PUSH1 0x0 DUP2 CALLDATALOAD SWAP1 POP PUSH3 0x3350 DUP2 PUSH3 0x3325 JUMP JUMPDEST SWAP3 SWAP2 POP POP JUMP JUMPDEST PUSH1 0x0 PUSH1 0x20 DUP3 DUP5 SUB SLT ISZERO PUSH3 0x336F JUMPI PUSH3 0x336E PUSH3 0x2E01 JUMP JUMPDEST JUMPDEST PUSH1 0x0 PUSH3 0x337F DUP5 DUP3 DUP6 ADD PUSH3 0x333F JUMP JUMPDEST SWAP2 POP POP SWAP3 SWAP2 POP POP JUMP JUMPDEST PUSH1 0x0 PUSH3 0x3395 DUP3 PUSH3 0x2FB2 JUMP JUMPDEST SWAP1 POP SWAP2 SWAP1 POP JUMP JUMPDEST PUSH3 0x33A7 DUP2 PUSH3 0x3388 JUMP JUMPDEST DUP3 MSTORE POP POP JUMP JUMPDEST PUSH1 0x0 PUSH1 0x20 DUP3 ADD SWAP1 POP PUSH3 0x33C4 PUSH1 0x0 DUP4 ADD DUP5 PUSH3 0x339C JUMP JUMPDEST SWAP3 SWAP2 POP POP JUMP JUMPDEST PUSH1 0x0 DUP3 DUP3 MSTORE PUSH1 0x20 DUP3 ADD SWAP1 POP SWAP3 SWAP2 POP POP JUMP JUMPDEST PUSH32 0x54686520686F73742063616E206E6F742063616C6C20746865206D6574686F64 PUSH1 0x0 DUP3 ADD MSTORE POP JUMP JUMPDEST PUSH1 0x0 PUSH3 0x3413 PUSH1 0x20 DUP4 PUSH3 0x33CA JUMP JUMPDEST SWAP2 POP PUSH3 0x3420 DUP3 PUSH3 0x33DB JUMP JUMPDEST PUSH1 0x20 DUP3 ADD SWAP1 POP SWAP2 SWAP1 POP JUMP JUMPDEST PUSH1 0x0 PUSH1 0x20 DUP3 ADD SWAP1 POP DUP2 DUP2 SUB PUSH1 0x0 DUP4 ADD MSTORE PUSH3 0x3446 DUP2 PUSH3 0x3404 JUMP JUMPDEST SWAP1 POP SWAP2 SWAP1 POP JUMP JUMPDEST PUSH32 0x4F6E6C79206275796572206F6620746865204344532063616E2063616C6C0000 PUSH1 0x0 DUP3 ADD MSTORE POP JUMP JUMPDEST PUSH1 0x0 PUSH3 0x3485 PUSH1 0x1E DUP4 PUSH3 0x33CA JUMP JUMPDEST SWAP2 POP PUSH3 0x3492 DUP3 PUSH3 0x344D JUMP JUMPDEST PUSH1 0x20 DUP3 ADD SWAP1 POP SWAP2 SWAP1 POP JUMP JUMPDEST PUSH1 0x0 PUSH1 0x20 DUP3 ADD SWAP1 POP DUP2 DUP2 SUB PUSH1 0x0 DUP4 ADD MSTORE PUSH3 0x34B8 DUP2 PUSH3 0x3476 JUMP JUMPDEST SWAP1 POP SWAP2 SWAP1 POP JUMP JUMPDEST PUSH1 0x0 DUP2 MLOAD SWAP1 POP PUSH3 0x34D0 DUP2 PUSH3 0x3118 JUMP JUMPDEST SWAP3 SWAP2 POP POP JUMP JUMPDEST PUSH1 0x0 PUSH1 0x20 DUP3 DUP5 SUB SLT ISZERO PUSH3 0x34EF JUMPI PUSH3 0x34EE PUSH3 0x2E01 JUMP JUMPDEST JUMPDEST PUSH1 0x0 PUSH3 0x34FF DUP5 DUP3 DUP6 ADD PUSH3 0x34BF JUMP JUMPDEST SWAP2 POP POP SWAP3 SWAP2 POP POP JUMP JUMPDEST PUSH1 0x0 DUP2 MLOAD SWAP1 POP PUSH3 0x3519 DUP2 PUSH3 0x2E10 JUMP JUMPDEST SWAP3 SWAP2 POP POP JUMP JUMPDEST PUSH1 0x0 PUSH1 0x20 DUP3 DUP5 SUB SLT ISZERO PUSH3 0x3538 JUMPI PUSH3 0x3537 PUSH3 0x2E01 JUMP JUMPDEST JUMPDEST PUSH1 0x0 PUSH3 0x3548 DUP5 DUP3 DUP6 ADD PUSH3 0x3508 JUMP JUMPDEST SWAP2 POP POP SWAP3 SWAP2 POP POP JUMP JUMPDEST PUSH1 0x0 PUSH1 0x40 DUP3 ADD SWAP1 POP PUSH3 0x3568 PUSH1 0x0 DUP4 ADD DUP6 PUSH3 0x301C JUMP JUMPDEST PUSH3 0x3577 PUSH1 0x20 DUP4 ADD DUP5 PUSH3 0x2E88 JUMP JUMPDEST SWAP4 SWAP3 POP POP POP JUMP JUMPDEST PUSH1 0x0 DUP2 MLOAD SWAP1 POP PUSH3 0x358F DUP2 PUSH3 0x30E7 JUMP JUMPDEST SWAP3 SWAP2 POP POP JUMP JUMPDEST PUSH1 0x0 PUSH1 0x20 DUP3 DUP5 SUB SLT ISZERO PUSH3 0x35AE JUMPI PUSH3 0x35AD PUSH3 0x2E01 JUMP JUMPDEST JUMPDEST PUSH1 0x0 PUSH3 0x35BE DUP5 DUP3 DUP6 ADD PUSH3 0x357E JUMP JUMPDEST SWAP2 POP POP SWAP3 SWAP2 POP POP JUMP JUMPDEST PUSH32 0x43757272656E7420707269636520697320686967686572207468616E20746865 PUSH1 0x0 DUP3 ADD MSTORE PUSH32 0x20636C61696D20707269636520696E2043445300000000000000000000000000 PUSH1 0x20 DUP3 ADD MSTORE POP JUMP JUMPDEST PUSH1 0x0 PUSH3 0x3625 PUSH1 0x33 DUP4 PUSH3 0x33CA JUMP JUMPDEST SWAP2 POP PUSH3 0x3632 DUP3 PUSH3 0x35C7 JUMP JUMPDEST PUSH1 0x40 DUP3 ADD SWAP1 POP SWAP2 SWAP1 POP JUMP JUMPDEST PUSH1 0x0 PUSH1 0x20 DUP3 ADD SWAP1 POP DUP2 DUP2 SUB PUSH1 0x0 DUP4 ADD MSTORE PUSH3 0x3658 DUP2 PUSH3 0x3616 JUMP JUMPDEST SWAP1 POP SWAP2 SWAP1 POP JUMP JUMPDEST PUSH1 0x0 PUSH1 0x40 DUP3 ADD SWAP1 POP PUSH3 0x3676 PUSH1 0x0 DUP4 ADD DUP6 PUSH3 0x2E88 JUMP JUMPDEST PUSH3 0x3685 PUSH1 0x20 DUP4 ADD DUP5 PUSH3 0x2E88 JUMP JUMPDEST SWAP4 SWAP3 POP POP POP JUMP JUMPDEST PUSH32 0x4F6E6C792062757965722F73656C6C6572206F6620746865204344532063616E PUSH1 0x0 DUP3 ADD MSTORE PUSH32 0x2063616C6C000000000000000000000000000000000000000000000000000000 PUSH1 0x20 DUP3 ADD MSTORE POP JUMP JUMPDEST PUSH1 0x0 PUSH3 0x36EA PUSH1 0x25 DUP4 PUSH3 0x33CA JUMP JUMPDEST SWAP2 POP PUSH3 0x36F7 DUP3 PUSH3 0x368C JUMP JUMPDEST PUSH1 0x40 DUP3 ADD SWAP1 POP SWAP2 SWAP1 POP JUMP JUMPDEST PUSH1 0x0 PUSH1 0x20 DUP3 ADD SWAP1 POP DUP2 DUP2 SUB PUSH1 0x0 DUP4 ADD MSTORE PUSH3 0x371D DUP2 PUSH3 0x36DB JUMP JUMPDEST SWAP1 POP SWAP2 SWAP1 POP JUMP JUMPDEST PUSH1 0x0 DUP2 MLOAD SWAP1 POP PUSH3 0x3735 DUP2 PUSH3 0x3325 JUMP JUMPDEST SWAP3 SWAP2 POP POP JUMP JUMPDEST PUSH1 0x0 PUSH1 0x20 DUP3 DUP5 SUB SLT ISZERO PUSH3 0x3754 JUMPI PUSH3 0x3753 PUSH3 0x2E01 JUMP JUMPDEST JUMPDEST PUSH1 0x0 PUSH3 0x3764 DUP5 DUP3 DUP6 ADD PUSH3 0x3724 JUMP JUMPDEST SWAP2 POP POP SWAP3 SWAP2 POP POP JUMP JUMPDEST PUSH1 0x5 DUP2 LT PUSH3 0x377B JUMPI PUSH1 0x0 DUP1 REVERT JUMPDEST POP JUMP JUMPDEST PUSH1 0x0 DUP2 MLOAD SWAP1 POP PUSH3 0x378F DUP2 PUSH3 0x376D JUMP JUMPDEST SWAP3 SWAP2 POP POP JUMP JUMPDEST PUSH1 0x0 PUSH1 0x20 DUP3 DUP5 SUB SLT ISZERO PUSH3 0x37AE JUMPI PUSH3 0x37AD PUSH3 0x2E01 JUMP JUMPDEST JUMPDEST PUSH1 0x0 PUSH3 0x37BE DUP5 DUP3 DUP6 ADD PUSH3 0x377E JUMP JUMPDEST SWAP2 POP POP SWAP3 SWAP2 POP POP JUMP JUMPDEST PUSH1 0x0 PUSH1 0x80 DUP3 ADD SWAP1 POP PUSH3 0x37DE PUSH1 0x0 DUP4 ADD DUP8 PUSH3 0x2EF4 JUMP JUMPDEST PUSH3 0x37ED PUSH1 0x20 DUP4 ADD DUP7 PUSH3 0x2E88 JUMP JUMPDEST PUSH3 0x37FC PUSH1 0x40 DUP4 ADD DUP6 PUSH3 0x2F32 JUMP JUMPDEST PUSH3 0x380B PUSH1 0x60 DUP4 ADD DUP5 PUSH3 0x301C JUMP JUMPDEST SWAP6 SWAP5 POP POP POP POP POP JUMP JUMPDEST PUSH1 0x0 DUP1 REVERT JUMPDEST PUSH1 0x0 PUSH1 0x1F NOT PUSH1 0x1F DUP4 ADD AND SWAP1 POP SWAP2 SWAP1 POP JUMP JUMPDEST PUSH32 0x4E487B7100000000000000000000000000000000000000000000000000000000 PUSH1 0x0 MSTORE PUSH1 0x41 PUSH1 0x4 MSTORE PUSH1 0x24 PUSH1 0x0 REVERT JUMPDEST PUSH3 0x3864 DUP3 PUSH3 0x3819 JUMP JUMPDEST DUP2 ADD DUP2 DUP2 LT PUSH8 0xFFFFFFFFFFFFFFFF DUP3 GT OR ISZERO PUSH3 0x3886 JUMPI PUSH3 0x3885 PUSH3 0x382A JUMP JUMPDEST JUMPDEST DUP1 PUSH1 0x40 MSTORE POP POP POP JUMP JUMPDEST PUSH1 0x0 PUSH3 0x389B PUSH3 0x2DF7 JUMP JUMPDEST SWAP1 POP PUSH3 0x38A9 DUP3 DUP3 PUSH3 0x3859 JUMP JUMPDEST SWAP2 SWAP1 POP JUMP JUMPDEST PUSH1 0x0 PUSH8 0xFFFFFFFFFFFFFFFF DUP3 GT ISZERO PUSH3 0x38CC JUMPI PUSH3 0x38CB PUSH3 0x382A JUMP JUMPDEST JUMPDEST PUSH1 0x20 DUP3 MUL SWAP1 POP SWAP2 SWAP1 POP JUMP JUMPDEST PUSH1 0x0 DUP1 REVERT JUMPDEST PUSH1 0x0 PUSH3 0x38F3 PUSH3 0x38ED DUP5 PUSH3 0x38AE JUMP JUMPDEST PUSH3 0x388F JUMP JUMPDEST SWAP1 POP DUP1 PUSH1 0x20 DUP5 MUL DUP4 ADD DUP6 DUP2 GT ISZERO PUSH3 0x3910 JUMPI PUSH3 0x390F PUSH3 0x38D7 JUMP JUMPDEST JUMPDEST DUP4 JUMPDEST DUP2 DUP2 LT ISZERO PUSH3 0x393D JUMPI DUP1 PUSH3 0x3928 DUP9 DUP3 PUSH3 0x3508 JUMP JUMPDEST DUP5 MSTORE PUSH1 0x20 DUP5 ADD SWAP4 POP POP PUSH1 0x20 DUP2 ADD SWAP1 POP PUSH3 0x3912 JUMP JUMPDEST POP POP POP SWAP4 SWAP3 POP POP POP JUMP JUMPDEST PUSH1 0x0 DUP3 PUSH1 0x1F DUP4 ADD SLT PUSH3 0x395F JUMPI PUSH3 0x395E PUSH3 0x3814 JUMP JUMPDEST JUMPDEST PUSH1 0x5 PUSH3 0x396E DUP5 DUP3 DUP6 PUSH3 0x38DC JUMP JUMPDEST SWAP2 POP POP SWAP3 SWAP2 POP POP JUMP JUMPDEST PUSH1 0x0 PUSH1 0xA0 DUP3 DUP5 SUB SLT ISZERO PUSH3 0x3990 JUMPI PUSH3 0x398F PUSH3 0x2E01 JUMP JUMPDEST JUMPDEST PUSH1 0x0 PUSH3 0x39A0 DUP5 DUP3 DUP6 ADD PUSH3 0x3947 JUMP JUMPDEST SWAP2 POP POP SWAP3 SWAP2 POP POP JUMP JUMPDEST PUSH32 0x4F776E61626C653A206E6577206F776E657220697320746865207A65726F2061 PUSH1 0x0 DUP3 ADD MSTORE PUSH32 0x6464726573730000000000000000000000000000000000000000000000000000 PUSH1 0x20 DUP3 ADD MSTORE POP JUMP JUMPDEST PUSH1 0x0 PUSH3 0x3A07 PUSH1 0x26 DUP4 PUSH3 0x33CA JUMP JUMPDEST SWAP2 POP PUSH3 0x3A14 DUP3 PUSH3 0x39A9 JUMP JUMPDEST PUSH1 0x40 DUP3 ADD SWAP1 POP SWAP2 SWAP1 POP JUMP JUMPDEST PUSH1 0x0 PUSH1 0x20 DUP3 ADD SWAP1 POP DUP2 DUP2 SUB PUSH1 0x0 DUP4 ADD MSTORE PUSH3 0x3A3A DUP2 PUSH3 0x39F8 JUMP JUMPDEST SWAP1 POP SWAP2 SWAP1 POP JUMP JUMPDEST PUSH32 0x54686520737461747573206F6620746865204344532073686F756C6420626520 PUSH1 0x0 DUP3 ADD MSTORE PUSH32 0x70656E64696E6700000000000000000000000000000000000000000000000000 PUSH1 0x20 DUP3 ADD MSTORE POP JUMP JUMPDEST PUSH1 0x0 PUSH3 0x3A9F PUSH1 0x27 DUP4 PUSH3 0x33CA JUMP JUMPDEST SWAP2 POP PUSH3 0x3AAC DUP3 PUSH3 0x3A41 JUMP JUMPDEST PUSH1 0x40 DUP3 ADD SWAP1 POP SWAP2 SWAP1 POP JUMP JUMPDEST PUSH1 0x0 PUSH1 0x20 DUP3 ADD SWAP1 POP DUP2 DUP2 SUB PUSH1 0x0 DUP4 ADD MSTORE PUSH3 0x3AD2 DUP2 PUSH3 0x3A90 JUMP JUMPDEST SWAP1 POP SWAP2 SWAP1 POP JUMP JUMPDEST PUSH32 0x4E487B7100000000000000000000000000000000000000000000000000000000 PUSH1 0x0 MSTORE PUSH1 0x11 PUSH1 0x4 MSTORE PUSH1 0x24 PUSH1 0x0 REVERT JUMPDEST PUSH1 0x0 PUSH3 0x3B15 DUP3 PUSH3 0x2E06 JUMP JUMPDEST SWAP2 POP PUSH3 0x3B22 DUP4 PUSH3 0x2E06 JUMP JUMPDEST SWAP3 POP DUP3 PUSH32 0xFFFFFFFFFFFFFFFFFFFFFFFFFFFFFFFFFFFFFFFFFFFFFFFFFFFFFFFFFFFFFFFF SUB DUP3 GT ISZERO PUSH3 0x3B5A JUMPI PUSH3 0x3B59 PUSH3 0x3AD9 JUMP JUMPDEST JUMPDEST DUP3 DUP3 ADD SWAP1 POP SWAP3 SWAP2 POP POP JUMP JUMPDEST PUSH1 0x0 PUSH1 0x60 DUP3 ADD SWAP1 POP PUSH3 0x3B7C PUSH1 0x0 DUP4 ADD DUP7 PUSH3 0x301C JUMP JUMPDEST PUSH3 0x3B8B PUSH1 0x20 DUP4 ADD DUP6 PUSH3 0x301C JUMP JUMPDEST PUSH3 0x3B9A PUSH1 0x40 DUP4 ADD DUP5 PUSH3 0x2E88 JUMP JUMPDEST SWAP5 SWAP4 POP POP POP POP JUMP JUMPDEST PUSH32 0x4E487B7100000000000000000000000000000000000000000000000000000000 PUSH1 0x0 MSTORE PUSH1 0x32 PUSH1 0x4 MSTORE PUSH1 0x24 PUSH1 0x0 REVERT JUMPDEST PUSH32 0x53656E64696E67206669727374207072656D69756D206661696C656400000000 PUSH1 0x0 DUP3 ADD MSTORE POP JUMP JUMPDEST PUSH1 0x0 PUSH3 0x3C09 PUSH1 0x1C DUP4 PUSH3 0x33CA JUMP JUMPDEST SWAP2 POP PUSH3 0x3C16 DUP3 PUSH3 0x3BD1 JUMP JUMPDEST PUSH1 0x20 DUP3 ADD SWAP1 POP SWAP2 SWAP1 POP JUMP JUMPDEST PUSH1 0x0 PUSH1 0x20 DUP3 ADD SWAP1 POP DUP2 DUP2 SUB PUSH1 0x0 DUP4 ADD MSTORE PUSH3 0x3C3C DUP2 PUSH3 0x3BFA JUMP JUMPDEST SWAP1 POP SWAP2 SWAP1 POP JUMP JUMPDEST PUSH1 0x0 PUSH3 0x3C50 DUP3 PUSH3 0x2E06 JUMP JUMPDEST SWAP2 POP PUSH3 0x3C5D DUP4 PUSH3 0x2E06 JUMP JUMPDEST SWAP3 POP DUP3 DUP3 LT ISZERO PUSH3 0x3C73 JUMPI PUSH3 0x3C72 PUSH3 0x3AD9 JUMP JUMPDEST JUMPDEST DUP3 DUP3 SUB SWAP1 POP SWAP3 SWAP2 POP POP JUMP JUMPDEST PUSH1 0x0 PUSH3 0x3C8B DUP3 PUSH3 0x2F22 JUMP JUMPDEST SWAP2 POP PUSH3 0x3C98 DUP4 PUSH3 0x2F22 JUMP JUMPDEST SWAP3 POP DUP3 DUP3 LT ISZERO PUSH3 0x3CAE JUMPI PUSH3 0x3CAD PUSH3 0x3AD9 JUMP JUMPDEST JUMPDEST DUP3 DUP3 SUB SWAP1 POP SWAP3 SWAP2 POP POP JUMP JUMPDEST PUSH32 0x54686520737461747573206F6620746865204344532073686F756C6420626520 PUSH1 0x0 DUP3 ADD MSTORE PUSH32 0x6163746976650000000000000000000000000000000000000000000000000000 PUSH1 0x20 DUP3 ADD MSTORE POP JUMP JUMPDEST PUSH1 0x0 PUSH3 0x3D17 PUSH1 0x26 DUP4 PUSH3 0x33CA JUMP JUMPDEST SWAP2 POP PUSH3 0x3D24 DUP3 PUSH3 0x3CB9 JUMP JUMPDEST PUSH1 0x40 DUP3 ADD SWAP1 POP SWAP2 SWAP1 POP JUMP JUMPDEST PUSH1 0x0 PUSH1 0x20 DUP3 ADD SWAP1 POP DUP2 DUP2 SUB PUSH1 0x0 DUP4 ADD MSTORE PUSH3 0x3D4A DUP2 PUSH3 0x3D08 JUMP JUMPDEST SWAP1 POP SWAP2 SWAP1 POP JUMP JUMPDEST PUSH32 0x53656E64696E67206465706F736974206261636B206661696C65640000000000 PUSH1 0x0 DUP3 ADD MSTORE POP JUMP JUMPDEST PUSH1 0x0 PUSH3 0x3D89 PUSH1 0x1B DUP4 PUSH3 0x33CA JUMP JUMPDEST SWAP2 POP PUSH3 0x3D96 DUP3 PUSH3 0x3D51 JUMP JUMPDEST PUSH1 0x20 DUP3 ADD SWAP1 POP SWAP2 SWAP1 POP JUMP JUMPDEST PUSH1 0x0 PUSH1 0x20 DUP3 ADD SWAP1 POP DUP2 DUP2 SUB PUSH1 0x0 DUP4 ADD MSTORE PUSH3 0x3DBC DUP2 PUSH3 0x3D7A JUMP JUMPDEST SWAP1 POP SWAP2 SWAP1 POP JUMP JUMPDEST PUSH1 0x0 PUSH3 0x3DD0 DUP3 PUSH3 0x2E06 JUMP JUMPDEST SWAP2 POP PUSH32 0xFFFFFFFFFFFFFFFFFFFFFFFFFFFFFFFFFFFFFFFFFFFFFFFFFFFFFFFFFFFFFFFF DUP3 EQ ISZERO PUSH3 0x3E06 JUMPI PUSH3 0x3E05 PUSH3 0x3AD9 JUMP JUMPDEST JUMPDEST PUSH1 0x1 DUP3 ADD SWAP1 POP SWAP2 SWAP1 POP JUMP JUMPDEST PUSH32 0x4F776E61626C653A2063616C6C6572206973206E6F7420746865206F776E6572 PUSH1 0x0 DUP3 ADD MSTORE POP JUMP JUMPDEST PUSH1 0x0 PUSH3 0x3E49 PUSH1 0x20 DUP4 PUSH3 0x33CA JUMP JUMPDEST SWAP2 POP PUSH3 0x3E56 DUP3 PUSH3 0x3E11 JUMP JUMPDEST PUSH1 0x20 DUP3 ADD SWAP1 POP SWAP2 SWAP1 POP JUMP JUMPDEST PUSH1 0x0 PUSH1 0x20 DUP3 ADD SWAP1 POP DUP2 DUP2 SUB PUSH1 0x0 DUP4 ADD MSTORE PUSH3 0x3E7C DUP2 PUSH3 0x3E3A JUMP JUMPDEST SWAP1 POP SWAP2 SWAP1 POP JUMP JUMPDEST PUSH32 0x526F756E6420616C726561647920656E64656400000000000000000000000000 PUSH1 0x0 DUP3 ADD MSTORE POP JUMP JUMPDEST PUSH1 0x0 PUSH3 0x3EBB PUSH1 0x13 DUP4 PUSH3 0x33CA JUMP JUMPDEST SWAP2 POP PUSH3 0x3EC8 DUP3 PUSH3 0x3E83 JUMP JUMPDEST PUSH1 0x20 DUP3 ADD SWAP1 POP SWAP2 SWAP1 POP JUMP JUMPDEST PUSH1 0x0 PUSH1 0x20 DUP3 ADD SWAP1 POP DUP2 DUP2 SUB PUSH1 0x0 DUP4 ADD MSTORE PUSH3 0x3EEE DUP2 PUSH3 0x3EAC JUMP JUMPDEST SWAP1 POP SWAP2 SWAP1 POP JUMP JUMPDEST PUSH32 0x4E6F7420656E6F756768206465706F7369740000000000000000000000000000 PUSH1 0x0 DUP3 ADD MSTORE POP JUMP JUMPDEST PUSH1 0x0 PUSH3 0x3F2D PUSH1 0x12 DUP4 PUSH3 0x33CA JUMP JUMPDEST SWAP2 POP PUSH3 0x3F3A DUP3 PUSH3 0x3EF5 JUMP JUMPDEST PUSH1 0x20 DUP3 ADD SWAP1 POP SWAP2 SWAP1 POP JUMP JUMPDEST PUSH1 0x0 PUSH1 0x20 DUP3 ADD SWAP1 POP DUP2 DUP2 SUB PUSH1 0x0 DUP4 ADD MSTORE PUSH3 0x3F60 DUP2 PUSH3 0x3F1E JUMP JUMPDEST SWAP1 POP SWAP2 SWAP1 POP JUMP JUMPDEST PUSH32 0x53656E64696E67207072656D69756D206661696C656400000000000000000000 PUSH1 0x0 DUP3 ADD MSTORE POP JUMP JUMPDEST PUSH1 0x0 PUSH3 0x3F9F PUSH1 0x16 DUP4 PUSH3 0x33CA JUMP JUMPDEST SWAP2 POP PUSH3 0x3FAC DUP3 PUSH3 0x3F67 JUMP JUMPDEST PUSH1 0x20 DUP3 ADD SWAP1 POP SWAP2 SWAP1 POP JUMP JUMPDEST PUSH1 0x0 PUSH1 0x20 DUP3 ADD SWAP1 POP DUP2 DUP2 SUB PUSH1 0x0 DUP4 ADD MSTORE PUSH3 0x3FD2 DUP2 PUSH3 0x3F90 JUMP JUMPDEST SWAP1 POP SWAP2 SWAP1 POP JUMP JUMPDEST PUSH32 0x53656E64696E6720726577617264206661696C65640000000000000000000000 PUSH1 0x0 DUP3 ADD MSTORE POP JUMP JUMPDEST PUSH1 0x0 PUSH3 0x4011 PUSH1 0x15 DUP4 PUSH3 0x33CA JUMP JUMPDEST SWAP2 POP PUSH3 0x401E DUP3 PUSH3 0x3FD9 JUMP JUMPDEST PUSH1 0x20 DUP3 ADD SWAP1 POP SWAP2 SWAP1 POP JUMP JUMPDEST PUSH1 0x0 PUSH1 0x20 DUP3 ADD SWAP1 POP DUP2 DUP2 SUB PUSH1 0x0 DUP4 ADD MSTORE PUSH3 0x4044 DUP2 PUSH3 0x4002 JUMP JUMPDEST SWAP1 POP SWAP2 SWAP1 POP JUMP JUMPDEST PUSH1 0x0 PUSH1 0xE0 DUP3 ADD SWAP1 POP PUSH3 0x4062 PUSH1 0x0 DUP4 ADD DUP11 PUSH3 0x2E88 JUMP JUMPDEST PUSH3 0x4071 PUSH1 0x20 DUP4 ADD DUP10 PUSH3 0x2E88 JUMP JUMPDEST PUSH3 0x4080 PUSH1 0x40 DUP4 ADD DUP9 PUSH3 0x2E88 JUMP JUMPDEST PUSH3 0x408F PUSH1 0x60 DUP4 ADD DUP8 PUSH3 0x2E88 JUMP JUMPDEST PUSH3 0x409E PUSH1 0x80 DUP4 ADD DUP7 PUSH3 0x2E88 JUMP JUMPDEST PUSH3 0x40AD PUSH1 0xA0 DUP4 ADD DUP6 PUSH3 0x2F32 JUMP JUMPDEST PUSH3 0x40BC PUSH1 0xC0 DUP4 ADD DUP5 PUSH3 0x2F32 JUMP JUMPDEST SWAP9 SWAP8 POP POP POP POP POP POP POP POP JUMP JUMPDEST PUSH32 0x4F6E6C792073656C6C6572206F6620746865204344532063616E2063616C6C00 PUSH1 0x0 DUP3 ADD MSTORE POP JUMP JUMPDEST PUSH1 0x0 PUSH3 0x4100 PUSH1 0x1F DUP4 PUSH3 0x33CA JUMP JUMPDEST SWAP2 POP PUSH3 0x410D DUP3 PUSH3 0x40C8 JUMP JUMPDEST PUSH1 0x20 DUP3 ADD SWAP1 POP SWAP2 SWAP1 POP JUMP JUMPDEST PUSH1 0x0 PUSH1 0x20 DUP3 ADD SWAP1 POP DUP2 DUP2 SUB PUSH1 0x0 DUP4 ADD MSTORE PUSH3 0x4133 DUP2 PUSH3 0x40F1 JUMP JUMPDEST SWAP1 POP SWAP2 SWAP1 POP JUMP JUMPDEST PUSH32 0x4275796572206465706F736974202F20526F756E64732072656D61696E696E67 PUSH1 0x0 DUP3 ADD MSTORE POP JUMP JUMPDEST PUSH1 0x0 PUSH3 0x4172 PUSH1 0x20 DUP4 PUSH3 0x33CA JUMP JUMPDEST SWAP2 POP PUSH3 0x417F DUP3 PUSH3 0x413A JUMP JUMPDEST PUSH1 0x20 DUP3 ADD SWAP1 POP SWAP2 SWAP1 POP JUMP JUMPDEST PUSH1 0x0 PUSH1 0x20 DUP3 ADD SWAP1 POP DUP2 DUP2 SUB PUSH1 0x0 DUP4 ADD MSTORE PUSH3 0x41A5 DUP2 PUSH3 0x4163 JUMP JUMPDEST SWAP1 POP SWAP2 SWAP1 POP JUMP JUMPDEST PUSH1 0x0 PUSH3 0x41B9 DUP3 PUSH3 0x2E06 JUMP JUMPDEST SWAP2 POP PUSH3 0x41C6 DUP4 PUSH3 0x2E06 JUMP JUMPDEST SWAP3 POP DUP2 PUSH32 0xFFFFFFFFFFFFFFFFFFFFFFFFFFFFFFFFFFFFFFFFFFFFFFFFFFFFFFFFFFFFFFFF DIV DUP4 GT DUP3 ISZERO ISZERO AND ISZERO PUSH3 0x4202 JUMPI PUSH3 0x4201 PUSH3 0x3AD9 JUMP JUMPDEST JUMPDEST DUP3 DUP3 MUL SWAP1 POP SWAP3 SWAP2 POP POP JUMP INVALID PUSH1 0x80 PUSH1 0x40 MSTORE CALLVALUE DUP1 ISZERO PUSH3 0x11 JUMPI PUSH1 0x0 DUP1 REVERT JUMPDEST POP PUSH1 0x40 MLOAD PUSH3 0x19FA CODESIZE SUB DUP1 PUSH3 0x19FA DUP4 CODECOPY DUP2 DUP2 ADD PUSH1 0x40 MSTORE DUP2 ADD SWAP1 PUSH3 0x37 SWAP2 SWAP1 PUSH3 0x444 JUMP JUMPDEST PUSH3 0x57 PUSH3 0x4B PUSH3 0x289 PUSH1 0x20 SHL PUSH1 0x20 SHR JUMP JUMPDEST PUSH3 0x291 PUSH1 0x20 SHL PUSH1 0x20 SHR JUMP JUMPDEST PUSH20 0x3C7A4A23F876452C92C89405874FD4118DCB9E06 PUSH1 0x1 PUSH1 0x0 PUSH2 0x100 EXP DUP2 SLOAD DUP2 PUSH20 0xFFFFFFFFFFFFFFFFFFFFFFFFFFFFFFFFFFFFFFFF MUL NOT AND SWAP1 DUP4 PUSH20 0xFFFFFFFFFFFFFFFFFFFFFFFFFFFFFFFFFFFFFFFF AND MUL OR SWAP1 SSTORE POP DUP7 PUSH1 0x3 DUP2 SWAP1 SSTORE POP DUP6 PUSH1 0x4 DUP2 SWAP1 SSTORE POP DUP5 PUSH1 0x5 DUP2 SWAP1 SSTORE POP DUP4 PUSH1 0x6 DUP2 SWAP1 SSTORE POP DUP3 PUSH1 0x7 DUP2 SWAP1 SSTORE POP DUP2 PUSH1 0xA PUSH1 0x14 PUSH2 0x100 EXP DUP2 SLOAD DUP2 PUSH4 0xFFFFFFFF MUL NOT AND SWAP1 DUP4 PUSH4 0xFFFFFFFF AND MUL OR SWAP1 SSTORE POP DUP2 PUSH1 0xA PUSH1 0x18 PUSH2 0x100 EXP DUP2 SLOAD DUP2 PUSH4 0xFFFFFFFF MUL NOT AND SWAP1 DUP4 PUSH4 0xFFFFFFFF AND MUL OR SWAP1 SSTORE POP PUSH3 0x133 PUSH1 0x5 SLOAD PUSH1 0x7 SLOAD PUSH1 0x3 SLOAD PUSH3 0x355 PUSH1 0x20 SHL PUSH3 0xA1F OR SWAP1 SWAP3 SWAP2 SWAP1 PUSH1 0x20 SHR JUMP JUMPDEST PUSH1 0x8 DUP2 SWAP1 SSTORE POP PUSH1 0x0 DUP2 PUSH4 0xFFFFFFFF AND EQ DUP1 PUSH3 0x155 JUMPI POP PUSH1 0x1 DUP2 PUSH4 0xFFFFFFFF AND EQ JUMPDEST DUP1 PUSH3 0x167 JUMPI POP PUSH1 0x2 DUP2 PUSH4 0xFFFFFFFF AND EQ JUMPDEST PUSH3 0x1A9 JUMPI PUSH1 0x40 MLOAD PUSH32 0x8C379A000000000000000000000000000000000000000000000000000000000 DUP2 MSTORE PUSH1 0x4 ADD PUSH3 0x1A0 SWAP1 PUSH3 0x558 JUMP JUMPDEST PUSH1 0x40 MLOAD DUP1 SWAP2 SUB SWAP1 REVERT JUMPDEST DUP1 PUSH1 0xA PUSH1 0x1C PUSH2 0x100 EXP DUP2 SLOAD DUP2 PUSH4 0xFFFFFFFF MUL NOT AND SWAP1 DUP4 PUSH4 0xFFFFFFFF AND MUL OR SWAP1 SSTORE POP PUSH1 0x0 PUSH1 0x9 PUSH1 0x0 PUSH2 0x100 EXP DUP2 SLOAD DUP2 PUSH20 0xFFFFFFFFFFFFFFFFFFFFFFFFFFFFFFFFFFFFFFFF MUL NOT AND SWAP1 DUP4 PUSH20 0xFFFFFFFFFFFFFFFFFFFFFFFFFFFFFFFFFFFFFFFF AND MUL OR SWAP1 SSTORE POP PUSH1 0x0 PUSH1 0xA PUSH1 0x0 PUSH2 0x100 EXP DUP2 SLOAD DUP2 PUSH20 0xFFFFFFFFFFFFFFFFFFFFFFFFFFFFFFFFFFFFFFFF MUL NOT AND SWAP1 DUP4 PUSH20 0xFFFFFFFFFFFFFFFFFFFFFFFFFFFFFFFFFFFFFFFF AND MUL OR SWAP1 SSTORE POP PUSH1 0x1 PUSH1 0x2 PUSH1 0x14 PUSH2 0x100 EXP DUP2 SLOAD DUP2 PUSH1 0xFF MUL NOT AND SWAP1 DUP4 PUSH1 0x4 DUP2 GT ISZERO PUSH3 0x277 JUMPI PUSH3 0x276 PUSH3 0x57A JUMP JUMPDEST JUMPDEST MUL OR SWAP1 SSTORE POP POP POP POP POP POP POP POP PUSH3 0x67A JUMP JUMPDEST PUSH1 0x0 CALLER SWAP1 POP SWAP1 JUMP JUMPDEST PUSH1 0x0 DUP1 PUSH1 0x0 SWAP1 SLOAD SWAP1 PUSH2 0x100 EXP SWAP1 DIV PUSH20 0xFFFFFFFFFFFFFFFFFFFFFFFFFFFFFFFFFFFFFFFF AND SWAP1 POP DUP2 PUSH1 0x0 DUP1 PUSH2 0x100 EXP DUP2 SLOAD DUP2 PUSH20 0xFFFFFFFFFFFFFFFFFFFFFFFFFFFFFFFFFFFFFFFF MUL NOT AND SWAP1 DUP4 PUSH20 0xFFFFFFFFFFFFFFFFFFFFFFFFFFFFFFFFFFFFFFFF AND MUL OR SWAP1 SSTORE POP DUP2 PUSH20 0xFFFFFFFFFFFFFFFFFFFFFFFFFFFFFFFFFFFFFFFF AND DUP2 PUSH20 0xFFFFFFFFFFFFFFFFFFFFFFFFFFFFFFFFFFFFFFFF AND PUSH32 0x8BE0079C531659141344CD1FD0A4F28419497F9722A3DAAFE3B4186F6B6457E0 PUSH1 0x40 MLOAD PUSH1 0x40 MLOAD DUP1 SWAP2 SUB SWAP1 LOG3 POP POP JUMP JUMPDEST PUSH1 0x0 PUSH3 0x38A PUSH3 0x375 DUP5 DUP7 PUSH3 0x393 PUSH1 0x20 SHL PUSH3 0xA4F OR SWAP1 SWAP2 SWAP1 PUSH1 0x20 SHR JUMP JUMPDEST DUP4 PUSH3 0x3AB PUSH1 0x20 SHL PUSH3 0xA65 OR SWAP1 SWAP2 SWAP1 PUSH1 0x20 SHR JUMP JUMPDEST SWAP1 POP SWAP4 SWAP3 POP POP POP JUMP JUMPDEST PUSH1 0x0 DUP2 DUP4 PUSH3 0x3A3 SWAP2 SWAP1 PUSH3 0x5D8 JUMP JUMPDEST SWAP1 POP SWAP3 SWAP2 POP POP JUMP JUMPDEST PUSH1 0x0 DUP2 DUP4 PUSH3 0x3BB SWAP2 SWAP1 PUSH3 0x642 JUMP JUMPDEST SWAP1 POP SWAP3 SWAP2 POP POP JUMP JUMPDEST PUSH1 0x0 DUP1 REVERT JUMPDEST PUSH1 0x0 DUP2 SWAP1 POP SWAP2 SWAP1 POP JUMP JUMPDEST PUSH3 0x3DD DUP2 PUSH3 0x3C8 JUMP JUMPDEST DUP2 EQ PUSH3 0x3E9 JUMPI PUSH1 0x0 DUP1 REVERT JUMPDEST POP JUMP JUMPDEST PUSH1 0x0 DUP2 MLOAD SWAP1 POP PUSH3 0x3FD DUP2 PUSH3 0x3D2 JUMP JUMPDEST SWAP3 SWAP2 POP POP JUMP JUMPDEST PUSH1 0x0 PUSH4 0xFFFFFFFF DUP3 AND SWAP1 POP SWAP2 SWAP1 POP JUMP JUMPDEST PUSH3 0x41E DUP2 PUSH3 0x403 JUMP JUMPDEST DUP2 EQ PUSH3 0x42A JUMPI PUSH1 0x0 DUP1 REVERT JUMPDEST POP JUMP JUMPDEST PUSH1 0x0 DUP2 MLOAD SWAP1 POP PUSH3 0x43E DUP2 PUSH3 0x413 JUMP JUMPDEST SWAP3 SWAP2 POP POP JUMP JUMPDEST PUSH1 0x0 DUP1 PUSH1 0x0 DUP1 PUSH1 0x0 DUP1 PUSH1 0x0 PUSH1 0xE0 DUP9 DUP11 SUB SLT ISZERO PUSH3 0x466 JUMPI PUSH3 0x465 PUSH3 0x3C3 JUMP JUMPDEST JUMPDEST PUSH1 0x0 PUSH3 0x476 DUP11 DUP3 DUP12 ADD PUSH3 0x3EC JUMP JUMPDEST SWAP8 POP POP PUSH1 0x20 PUSH3 0x489 DUP11 DUP3 DUP12 ADD PUSH3 0x3EC JUMP JUMPDEST SWAP7 POP POP PUSH1 0x40 PUSH3 0x49C DUP11 DUP3 DUP12 ADD PUSH3 0x3EC JUMP JUMPDEST SWAP6 POP POP PUSH1 0x60 PUSH3 0x4AF DUP11 DUP3 DUP12 ADD PUSH3 0x3EC JUMP JUMPDEST SWAP5 POP POP PUSH1 0x80 PUSH3 0x4C2 DUP11 DUP3 DUP12 ADD PUSH3 0x3EC JUMP JUMPDEST SWAP4 POP POP PUSH1 0xA0 PUSH3 0x4D5 DUP11 DUP3 DUP12 ADD PUSH3 0x42D JUMP JUMPDEST SWAP3 POP POP PUSH1 0xC0 PUSH3 0x4E8 DUP11 DUP3 DUP12 ADD PUSH3 0x42D JUMP JUMPDEST SWAP2 POP POP SWAP3 SWAP6 SWAP9 SWAP2 SWAP5 SWAP8 POP SWAP3 SWAP6 POP JUMP JUMPDEST PUSH1 0x0 DUP3 DUP3 MSTORE PUSH1 0x20 DUP3 ADD SWAP1 POP SWAP3 SWAP2 POP POP JUMP JUMPDEST PUSH32 0x4254433A302C204554483A312C204C494E4B3A32000000000000000000000000 PUSH1 0x0 DUP3 ADD MSTORE POP JUMP JUMPDEST PUSH1 0x0 PUSH3 0x540 PUSH1 0x14 DUP4 PUSH3 0x4F7 JUMP JUMPDEST SWAP2 POP PUSH3 0x54D DUP3 PUSH3 0x508 JUMP JUMPDEST PUSH1 0x20 DUP3 ADD SWAP1 POP SWAP2 SWAP1 POP JUMP JUMPDEST PUSH1 0x0 PUSH1 0x20 DUP3 ADD SWAP1 POP DUP2 DUP2 SUB PUSH1 0x0 DUP4 ADD MSTORE PUSH3 0x573 DUP2 PUSH3 0x531 JUMP JUMPDEST SWAP1 POP SWAP2 SWAP1 POP JUMP JUMPDEST PUSH32 0x4E487B7100000000000000000000000000000000000000000000000000000000 PUSH1 0x0 MSTORE PUSH1 0x21 PUSH1 0x4 MSTORE PUSH1 0x24 PUSH1 0x0 REVERT JUMPDEST PUSH32 0x4E487B7100000000000000000000000000000000000000000000000000000000 PUSH1 0x0 MSTORE PUSH1 0x11 PUSH1 0x4 MSTORE PUSH1 0x24 PUSH1 0x0 REVERT JUMPDEST PUSH1 0x0 PUSH3 0x5E5 DUP3 PUSH3 0x3C8 JUMP JUMPDEST SWAP2 POP PUSH3 0x5F2 DUP4 PUSH3 0x3C8 JUMP JUMPDEST SWAP3 POP DUP3 DUP3 LT ISZERO PUSH3 0x608 JUMPI PUSH3 0x607 PUSH3 0x5A9 JUMP JUMPDEST JUMPDEST DUP3 DUP3 SUB SWAP1 POP SWAP3 SWAP2 POP POP JUMP JUMPDEST PUSH32 0x4E487B7100000000000000000000000000000000000000000000000000000000 PUSH1 0x0 MSTORE PUSH1 0x12 PUSH1 0x4 MSTORE PUSH1 0x24 PUSH1 0x0 REVERT JUMPDEST PUSH1 0x0 PUSH3 0x64F DUP3 PUSH3 0x3C8 JUMP JUMPDEST SWAP2 POP PUSH3 0x65C DUP4 PUSH3 0x3C8 JUMP JUMPDEST SWAP3 POP DUP3 PUSH3 0x66F JUMPI PUSH3 0x66E PUSH3 0x613 JUMP JUMPDEST JUMPDEST DUP3 DUP3 DIV SWAP1 POP SWAP3 SWAP2 POP POP JUMP JUMPDEST PUSH2 0x1370 DUP1 PUSH3 0x68A PUSH1 0x0 CODECOPY PUSH1 0x0 RETURN INVALID PUSH1 0x80 PUSH1 0x40 MSTORE CALLVALUE DUP1 ISZERO PUSH2 0x10 JUMPI PUSH1 0x0 DUP1 REVERT JUMPDEST POP PUSH1 0x4 CALLDATASIZE LT PUSH2 0x173 JUMPI PUSH1 0x0 CALLDATALOAD PUSH1 0xE0 SHR DUP1 PUSH4 0xA2E800AD GT PUSH2 0xDE JUMPI DUP1 PUSH4 0xD2895E93 GT PUSH2 0x97 JUMPI DUP1 PUSH4 0xE0A73A93 GT PUSH2 0x71 JUMPI DUP1 PUSH4 0xE0A73A93 EQ PUSH2 0x422 JUMPI DUP1 PUSH4 0xE99D2866 EQ PUSH2 0x440 JUMPI DUP1 PUSH4 0xF26CC58E EQ PUSH2 0x470 JUMPI DUP1 PUSH4 0xF2FDE38B EQ PUSH2 0x48E JUMPI PUSH2 0x173 JUMP JUMPDEST DUP1 PUSH4 0xD2895E93 EQ PUSH2 0x3B6 JUMPI DUP1 PUSH4 0xDBD0E1B6 EQ PUSH2 0x3E6 JUMPI DUP1 PUSH4 0xDD22DB80 EQ PUSH2 0x404 JUMPI PUSH2 0x173 JUMP JUMPDEST DUP1 PUSH4 0xA2E800AD EQ PUSH2 0x2DE JUMPI DUP1 PUSH4 0xA3F09AD6 EQ PUSH2 0x2FC JUMPI DUP1 PUSH4 0xA607A8D9 EQ PUSH2 0x32C JUMPI DUP1 PUSH4 0xB6FC2D5F EQ PUSH2 0x34A JUMPI DUP1 PUSH4 0xBD9A548B EQ PUSH2 0x368 JUMPI DUP1 PUSH4 0xBEF904E3 EQ PUSH2 0x386 JUMPI PUSH2 0x173 JUMP JUMPDEST DUP1 PUSH4 0x603DAF9A GT PUSH2 0x130 JUMPI DUP1 PUSH4 0x603DAF9A EQ PUSH2 0x23E JUMPI DUP1 PUSH4 0x715018A6 EQ PUSH2 0x25C JUMPI DUP1 PUSH4 0x762DB7EE EQ PUSH2 0x266 JUMPI DUP1 PUSH4 0x86BE75B7 EQ PUSH2 0x284 JUMPI DUP1 PUSH4 0x8A568299 EQ PUSH2 0x2A2 JUMPI DUP1 PUSH4 0x8DA5CB5B EQ PUSH2 0x2C0 JUMPI PUSH2 0x173 JUMP JUMPDEST DUP1 PUSH4 0x15D655C9 EQ PUSH2 0x178 JUMPI DUP1 PUSH4 0x200D2ED2 EQ PUSH2 0x196 JUMPI DUP1 PUSH4 0x2DDDD49C EQ PUSH2 0x1B4 JUMPI DUP1 PUSH4 0x2E49D78B EQ PUSH2 0x1D2 JUMPI DUP1 PUSH4 0x3FE3347A EQ PUSH2 0x202 JUMPI DUP1 PUSH4 0x4C1786EA EQ PUSH2 0x220 JUMPI JUMPDEST PUSH1 0x0 DUP1 REVERT JUMPDEST PUSH2 0x180 PUSH2 0x4AA JUMP JUMPDEST PUSH1 0x40 MLOAD PUSH2 0x18D SWAP2 SWAP1 PUSH2 0xD61 JUMP JUMPDEST PUSH1 0x40 MLOAD DUP1 SWAP2 SUB SWAP1 RETURN JUMPDEST PUSH2 0x19E PUSH2 0x4B0 JUMP JUMPDEST PUSH1 0x40 MLOAD PUSH2 0x1AB SWAP2 SWAP1 PUSH2 0xDF3 JUMP JUMPDEST PUSH1 0x40 MLOAD DUP1 SWAP2 SUB SWAP1 RETURN JUMPDEST PUSH2 0x1BC PUSH2 0x4C3 JUMP JUMPDEST PUSH1 0x40 MLOAD PUSH2 0x1C9 SWAP2 SWAP1 PUSH2 0xD61 JUMP JUMPDEST PUSH1 0x40 MLOAD DUP1 SWAP2 SUB SWAP1 RETURN JUMPDEST PUSH2 0x1EC PUSH1 0x4 DUP1 CALLDATASIZE SUB DUP2 ADD SWAP1 PUSH2 0x1E7 SWAP2 SWAP1 PUSH2 0xE38 JUMP JUMPDEST PUSH2 0x560 JUMP JUMPDEST PUSH1 0x40 MLOAD PUSH2 0x1F9 SWAP2 SWAP1 PUSH2 0xDF3 JUMP JUMPDEST PUSH1 0x40 MLOAD DUP1 SWAP2 SUB SWAP1 RETURN JUMPDEST PUSH2 0x20A PUSH2 0x5AB JUMP JUMPDEST PUSH1 0x40 MLOAD PUSH2 0x217 SWAP2 SWAP1 PUSH2 0xE84 JUMP JUMPDEST PUSH1 0x40 MLOAD DUP1 SWAP2 SUB SWAP1 RETURN JUMPDEST PUSH2 0x228 PUSH2 0x5C1 JUMP JUMPDEST PUSH1 0x40 MLOAD PUSH2 0x235 SWAP2 SWAP1 PUSH2 0xD61 JUMP JUMPDEST PUSH1 0x40 MLOAD DUP1 SWAP2 SUB SWAP1 RETURN JUMPDEST PUSH2 0x246 PUSH2 0x5C7 JUMP JUMPDEST PUSH1 0x40 MLOAD PUSH2 0x253 SWAP2 SWAP1 PUSH2 0xEE0 JUMP JUMPDEST PUSH1 0x40 MLOAD DUP1 SWAP2 SUB SWAP1 RETURN JUMPDEST PUSH2 0x264 PUSH2 0x5F1 JUMP JUMPDEST STOP JUMPDEST PUSH2 0x26E PUSH2 0x605 JUMP JUMPDEST PUSH1 0x40 MLOAD PUSH2 0x27B SWAP2 SWAP1 PUSH2 0xD61 JUMP JUMPDEST PUSH1 0x40 MLOAD DUP1 SWAP2 SUB SWAP1 RETURN JUMPDEST PUSH2 0x28C PUSH2 0x60B JUMP JUMPDEST PUSH1 0x40 MLOAD PUSH2 0x299 SWAP2 SWAP1 PUSH2 0xD61 JUMP JUMPDEST PUSH1 0x40 MLOAD DUP1 SWAP2 SUB SWAP1 RETURN JUMPDEST PUSH2 0x2AA PUSH2 0x611 JUMP JUMPDEST PUSH1 0x40 MLOAD PUSH2 0x2B7 SWAP2 SWAP1 PUSH2 0xE84 JUMP JUMPDEST PUSH1 0x40 MLOAD DUP1 SWAP2 SUB SWAP1 RETURN JUMPDEST PUSH2 0x2C8 PUSH2 0x627 JUMP JUMPDEST PUSH1 0x40 MLOAD PUSH2 0x2D5 SWAP2 SWAP1 PUSH2 0xEE0 JUMP JUMPDEST PUSH1 0x40 MLOAD DUP1 SWAP2 SUB SWAP1 RETURN JUMPDEST PUSH2 0x2E6 PUSH2 0x650 JUMP JUMPDEST PUSH1 0x40 MLOAD PUSH2 0x2F3 SWAP2 SWAP1 PUSH2 0xE84 JUMP JUMPDEST PUSH1 0x40 MLOAD DUP1 SWAP2 SUB SWAP1 RETURN JUMPDEST PUSH2 0x316 PUSH1 0x4 DUP1 CALLDATASIZE SUB DUP2 ADD SWAP1 PUSH2 0x311 SWAP2 SWAP1 PUSH2 0xF27 JUMP JUMPDEST PUSH2 0x666 JUMP JUMPDEST PUSH1 0x40 MLOAD PUSH2 0x323 SWAP2 SWAP1 PUSH2 0xEE0 JUMP JUMPDEST PUSH1 0x40 MLOAD DUP1 SWAP2 SUB SWAP1 RETURN JUMPDEST PUSH2 0x334 PUSH2 0x6DB JUMP JUMPDEST PUSH1 0x40 MLOAD PUSH2 0x341 SWAP2 SWAP1 PUSH2 0xD61 JUMP JUMPDEST PUSH1 0x40 MLOAD DUP1 SWAP2 SUB SWAP1 RETURN JUMPDEST PUSH2 0x352 PUSH2 0x778 JUMP JUMPDEST PUSH1 0x40 MLOAD PUSH2 0x35F SWAP2 SWAP1 PUSH2 0xD61 JUMP JUMPDEST PUSH1 0x40 MLOAD DUP1 SWAP2 SUB SWAP1 RETURN JUMPDEST PUSH2 0x370 PUSH2 0x77E JUMP JUMPDEST PUSH1 0x40 MLOAD PUSH2 0x37D SWAP2 SWAP1 PUSH2 0xFFF JUMP JUMPDEST PUSH1 0x40 MLOAD DUP1 SWAP2 SUB SWAP1 RETURN JUMPDEST PUSH2 0x3A0 PUSH1 0x4 DUP1 CALLDATASIZE SUB DUP2 ADD SWAP1 PUSH2 0x39B SWAP2 SWAP1 PUSH2 0x1046 JUMP JUMPDEST PUSH2 0x7BC JUMP JUMPDEST PUSH1 0x40 MLOAD PUSH2 0x3AD SWAP2 SWAP1 PUSH2 0xD61 JUMP JUMPDEST PUSH1 0x40 MLOAD DUP1 SWAP2 SUB SWAP1 RETURN JUMPDEST PUSH2 0x3D0 PUSH1 0x4 DUP1 CALLDATASIZE SUB DUP2 ADD SWAP1 PUSH2 0x3CB SWAP2 SWAP1 PUSH2 0x109F JUMP JUMPDEST PUSH2 0x7CF JUMP JUMPDEST PUSH1 0x40 MLOAD PUSH2 0x3DD SWAP2 SWAP1 PUSH2 0xE84 JUMP JUMPDEST PUSH1 0x40 MLOAD DUP1 SWAP2 SUB SWAP1 RETURN JUMPDEST PUSH2 0x3EE PUSH2 0x814 JUMP JUMPDEST PUSH1 0x40 MLOAD PUSH2 0x3FB SWAP2 SWAP1 PUSH2 0xEE0 JUMP JUMPDEST PUSH1 0x40 MLOAD DUP1 SWAP2 SUB SWAP1 RETURN JUMPDEST PUSH2 0x40C PUSH2 0x83E JUMP JUMPDEST PUSH1 0x40 MLOAD PUSH2 0x419 SWAP2 SWAP1 PUSH2 0xD61 JUMP JUMPDEST PUSH1 0x40 MLOAD DUP1 SWAP2 SUB SWAP1 RETURN JUMPDEST PUSH2 0x42A PUSH2 0x8DB JUMP JUMPDEST PUSH1 0x40 MLOAD PUSH2 0x437 SWAP2 SWAP1 PUSH2 0xD61 JUMP JUMPDEST PUSH1 0x40 MLOAD DUP1 SWAP2 SUB SWAP1 RETURN JUMPDEST PUSH2 0x45A PUSH1 0x4 DUP1 CALLDATASIZE SUB DUP2 ADD SWAP1 PUSH2 0x455 SWAP2 SWAP1 PUSH2 0xF27 JUMP JUMPDEST PUSH2 0x8E1 JUMP JUMPDEST PUSH1 0x40 MLOAD PUSH2 0x467 SWAP2 SWAP1 PUSH2 0xEE0 JUMP JUMPDEST PUSH1 0x40 MLOAD DUP1 SWAP2 SUB SWAP1 RETURN JUMPDEST PUSH2 0x478 PUSH2 0x956 JUMP JUMPDEST PUSH1 0x40 MLOAD PUSH2 0x485 SWAP2 SWAP1 PUSH2 0xD61 JUMP JUMPDEST PUSH1 0x40 MLOAD DUP1 SWAP2 SUB SWAP1 RETURN JUMPDEST PUSH2 0x4A8 PUSH1 0x4 DUP1 CALLDATASIZE SUB DUP2 ADD SWAP1 PUSH2 0x4A3 SWAP2 SWAP1 PUSH2 0xF27 JUMP JUMPDEST PUSH2 0x99B JUMP JUMPDEST STOP JUMPDEST PUSH1 0x4 SLOAD DUP2 JUMP JUMPDEST PUSH1 0x2 PUSH1 0x14 SWAP1 SLOAD SWAP1 PUSH2 0x100 EXP SWAP1 DIV PUSH1 0xFF AND DUP2 JUMP JUMPDEST PUSH1 0x0 DUP1 PUSH1 0x1 PUSH1 0x0 SWAP1 SLOAD SWAP1 PUSH2 0x100 EXP SWAP1 DIV PUSH20 0xFFFFFFFFFFFFFFFFFFFFFFFFFFFFFFFFFFFFFFFF AND PUSH20 0xFFFFFFFFFFFFFFFFFFFFFFFFFFFFFFFFFFFFFFFF AND PUSH4 0xCF78535 PUSH1 0x40 MLOAD DUP2 PUSH4 0xFFFFFFFF AND PUSH1 0xE0 SHL DUP2 MSTORE PUSH1 0x4 ADD PUSH1 0x20 PUSH1 0x40 MLOAD DUP1 DUP4 SUB DUP2 DUP7 GAS STATICCALL ISZERO DUP1 ISZERO PUSH2 0x533 JUMPI RETURNDATASIZE PUSH1 0x0 DUP1 RETURNDATACOPY RETURNDATASIZE PUSH1 0x0 REVERT JUMPDEST POP POP POP POP PUSH1 0x40 MLOAD RETURNDATASIZE PUSH1 0x1F NOT PUSH1 0x1F DUP3 ADD AND DUP3 ADD DUP1 PUSH1 0x40 MSTORE POP DUP2 ADD SWAP1 PUSH2 0x557 SWAP2 SWAP1 PUSH2 0x10E1 JUMP JUMPDEST SWAP1 POP DUP1 SWAP2 POP POP SWAP1 JUMP JUMPDEST PUSH1 0x0 PUSH2 0x56A PUSH2 0xA7B JUMP JUMPDEST DUP2 PUSH1 0x2 PUSH1 0x14 PUSH2 0x100 EXP DUP2 SLOAD DUP2 PUSH1 0xFF MUL NOT AND SWAP1 DUP4 PUSH1 0x4 DUP2 GT ISZERO PUSH2 0x58F JUMPI PUSH2 0x58E PUSH2 0xD7C JUMP JUMPDEST JUMPDEST MUL OR SWAP1 SSTORE POP PUSH1 0x2 PUSH1 0x14 SWAP1 SLOAD SWAP1 PUSH2 0x100 EXP SWAP1 DIV PUSH1 0xFF AND SWAP1 POP SWAP2 SWAP1 POP JUMP JUMPDEST PUSH1 0xA PUSH1 0x1C SWAP1 SLOAD SWAP1 PUSH2 0x100 EXP SWAP1 DIV PUSH4 0xFFFFFFFF AND DUP2 JUMP JUMPDEST PUSH1 0x7 SLOAD DUP2 JUMP JUMPDEST PUSH1 0x0 PUSH1 0x9 PUSH1 0x0 SWAP1 SLOAD SWAP1 PUSH2 0x100 EXP SWAP1 DIV PUSH20 0xFFFFFFFFFFFFFFFFFFFFFFFFFFFFFFFFFFFFFFFF AND SWAP1 POP SWAP1 JUMP JUMPDEST PUSH2 0x5F9 PUSH2 0xA7B JUMP JUMPDEST PUSH2 0x603 PUSH1 0x0 PUSH2 0xAF9 JUMP JUMPDEST JUMP JUMPDEST PUSH1 0x8 SLOAD DUP2 JUMP JUMPDEST PUSH1 0x3 SLOAD DUP2 JUMP JUMPDEST PUSH1 0xA PUSH1 0x18 SWAP1 SLOAD SWAP1 PUSH2 0x100 EXP SWAP1 DIV PUSH4 0xFFFFFFFF AND DUP2 JUMP JUMPDEST PUSH1 0x0 DUP1 PUSH1 0x0 SWAP1 SLOAD SWAP1 PUSH2 0x100 EXP SWAP1 DIV PUSH20 0xFFFFFFFFFFFFFFFFFFFFFFFFFFFFFFFFFFFFFFFF AND SWAP1 POP SWAP1 JUMP JUMPDEST PUSH1 0xA PUSH1 0x14 SWAP1 SLOAD SWAP1 PUSH2 0x100 EXP SWAP1 DIV PUSH4 0xFFFFFFFF AND DUP2 JUMP JUMPDEST PUSH1 0x0 PUSH2 0x670 PUSH2 0xA7B JUMP JUMPDEST DUP2 PUSH1 0x9 PUSH1 0x0 PUSH2 0x100 EXP DUP2 SLOAD DUP2 PUSH20 0xFFFFFFFFFFFFFFFFFFFFFFFFFFFFFFFFFFFFFFFF MUL NOT AND SWAP1 DUP4 PUSH20 0xFFFFFFFFFFFFFFFFFFFFFFFFFFFFFFFFFFFFFFFF AND MUL OR SWAP1 SSTORE POP PUSH1 0x9 PUSH1 0x0 SWAP1 SLOAD SWAP1 PUSH2 0x100 EXP SWAP1 DIV PUSH20 0xFFFFFFFFFFFFFFFFFFFFFFFFFFFFFFFFFFFFFFFF AND SWAP1 POP SWAP2 SWAP1 POP JUMP JUMPDEST PUSH1 0x0 DUP1 PUSH1 0x1 PUSH1 0x0 SWAP1 SLOAD SWAP1 PUSH2 0x100 EXP SWAP1 DIV PUSH20 0xFFFFFFFFFFFFFFFFFFFFFFFFFFFFFFFFFFFFFFFF AND PUSH20 0xFFFFFFFFFFFFFFFFFFFFFFFFFFFFFFFFFFFFFFFF AND PUSH4 0xFF186B2E PUSH1 0x40 MLOAD DUP2 PUSH4 0xFFFFFFFF AND PUSH1 0xE0 SHL DUP2 MSTORE PUSH1 0x4 ADD PUSH1 0x20 PUSH1 0x40 MLOAD DUP1 DUP4 SUB DUP2 DUP7 GAS STATICCALL ISZERO DUP1 ISZERO PUSH2 0x74B JUMPI RETURNDATASIZE PUSH1 0x0 DUP1 RETURNDATACOPY RETURNDATASIZE PUSH1 0x0 REVERT JUMPDEST POP POP POP POP PUSH1 0x40 MLOAD RETURNDATASIZE PUSH1 0x1F NOT PUSH1 0x1F DUP3 ADD AND DUP3 ADD DUP1 PUSH1 0x40 MSTORE POP DUP2 ADD SWAP1 PUSH2 0x76F SWAP2 SWAP1 PUSH2 0x10E1 JUMP JUMPDEST SWAP1 POP DUP1 SWAP2 POP POP SWAP1 JUMP JUMPDEST PUSH1 0x5 SLOAD DUP2 JUMP JUMPDEST PUSH2 0x786 PUSH2 0xD26 JUMP JUMPDEST PUSH1 0x40 MLOAD DUP1 PUSH1 0xA0 ADD PUSH1 0x40 MSTORE DUP1 PUSH1 0x3 SLOAD DUP2 MSTORE PUSH1 0x20 ADD PUSH1 0x4 SLOAD DUP2 MSTORE PUSH1 0x20 ADD PUSH1 0x5 SLOAD DUP2 MSTORE PUSH1 0x20 ADD PUSH1 0x6 SLOAD DUP2 MSTORE PUSH1 0x20 ADD PUSH1 0x7 SLOAD DUP2 MSTORE POP SWAP1 POP SWAP1 JUMP JUMPDEST PUSH1 0x0 DUP2 PUSH1 0x3 DUP2 SWAP1 SSTORE POP PUSH1 0x3 SLOAD SWAP1 POP SWAP2 SWAP1 POP JUMP JUMPDEST PUSH1 0x0 PUSH2 0x7D9 PUSH2 0xA7B JUMP JUMPDEST DUP2 PUSH1 0xA PUSH1 0x14 PUSH2 0x100 EXP DUP2 SLOAD DUP2 PUSH4 0xFFFFFFFF MUL NOT AND SWAP1 DUP4 PUSH4 0xFFFFFFFF AND MUL OR SWAP1 SSTORE POP PUSH1 0xA PUSH1 0x14 SWAP1 SLOAD SWAP1 PUSH2 0x100 EXP SWAP1 DIV PUSH4 0xFFFFFFFF AND SWAP1 POP SWAP2 SWAP1 POP JUMP JUMPDEST PUSH1 0x0 PUSH1 0xA PUSH1 0x0 SWAP1 SLOAD SWAP1 PUSH2 0x100 EXP SWAP1 DIV PUSH20 0xFFFFFFFFFFFFFFFFFFFFFFFFFFFFFFFFFFFFFFFF AND SWAP1 POP SWAP1 JUMP JUMPDEST PUSH1 0x0 DUP1 PUSH1 0x1 PUSH1 0x0 SWAP1 SLOAD SWAP1 PUSH2 0x100 EXP SWAP1 DIV PUSH20 0xFFFFFFFFFFFFFFFFFFFFFFFFFFFFFFFFFFFFFFFF AND PUSH20 0xFFFFFFFFFFFFFFFFFFFFFFFFFFFFFFFFFFFFFFFF AND PUSH4 0xA8AD52D1 PUSH1 0x40 MLOAD DUP2 PUSH4 0xFFFFFFFF AND PUSH1 0xE0 SHL DUP2 MSTORE PUSH1 0x4 ADD PUSH1 0x20 PUSH1 0x40 MLOAD DUP1 DUP4 SUB DUP2 DUP7 GAS STATICCALL ISZERO DUP1 ISZERO PUSH2 0x8AE JUMPI RETURNDATASIZE PUSH1 0x0 DUP1 RETURNDATACOPY RETURNDATASIZE PUSH1 0x0 REVERT JUMPDEST POP POP POP POP PUSH1 0x40 MLOAD RETURNDATASIZE PUSH1 0x1F NOT PUSH1 0x1F DUP3 ADD AND DUP3 ADD DUP1 PUSH1 0x40 MSTORE POP DUP2 ADD SWAP1 PUSH2 0x8D2 SWAP2 SWAP1 PUSH2 0x10E1 JUMP JUMPDEST SWAP1 POP DUP1 SWAP2 POP POP SWAP1 JUMP JUMPDEST PUSH1 0x6 SLOAD DUP2 JUMP JUMPDEST PUSH1 0x0 PUSH2 0x8EB PUSH2 0xA7B JUMP JUMPDEST DUP2 PUSH1 0xA PUSH1 0x0 PUSH2 0x100 EXP DUP2 SLOAD DUP2 PUSH20 0xFFFFFFFFFFFFFFFFFFFFFFFFFFFFFFFFFFFFFFFF MUL NOT AND SWAP1 DUP4 PUSH20 0xFFFFFFFFFFFFFFFFFFFFFFFFFFFFFFFFFFFFFFFF AND MUL OR SWAP1 SSTORE POP PUSH1 0xA PUSH1 0x0 SWAP1 SLOAD SWAP1 PUSH2 0x100 EXP SWAP1 DIV PUSH20 0xFFFFFFFFFFFFFFFFFFFFFFFFFFFFFFFFFFFFFFFF AND SWAP1 POP SWAP2 SWAP1 POP JUMP JUMPDEST PUSH1 0x0 DUP1 PUSH2 0x961 PUSH2 0xBBD JUMP JUMPDEST SWAP1 POP DUP1 PUSH1 0x4 SLOAD LT ISZERO PUSH2 0x977 JUMPI PUSH1 0x0 SWAP2 POP POP PUSH2 0x998 JUMP JUMPDEST PUSH2 0x994 PUSH1 0x5 SLOAD PUSH1 0x3 SLOAD DUP4 PUSH1 0x7 SLOAD PUSH2 0xC98 SWAP1 SWAP4 SWAP3 SWAP2 SWAP1 PUSH4 0xFFFFFFFF AND JUMP JUMPDEST SWAP2 POP POP JUMPDEST SWAP1 JUMP JUMPDEST PUSH2 0x9A3 PUSH2 0xA7B JUMP JUMPDEST PUSH1 0x0 PUSH20 0xFFFFFFFFFFFFFFFFFFFFFFFFFFFFFFFFFFFFFFFF AND DUP2 PUSH20 0xFFFFFFFFFFFFFFFFFFFFFFFFFFFFFFFFFFFFFFFF AND EQ ISZERO PUSH2 0xA13 JUMPI PUSH1 0x40 MLOAD PUSH32 0x8C379A000000000000000000000000000000000000000000000000000000000 DUP2 MSTORE PUSH1 0x4 ADD PUSH2 0xA0A SWAP1 PUSH2 0x1191 JUMP JUMPDEST PUSH1 0x40 MLOAD DUP1 SWAP2 SUB SWAP1 REVERT JUMPDEST PUSH2 0xA1C DUP2 PUSH2 0xAF9 JUMP JUMPDEST POP JUMP JUMPDEST PUSH1 0x0 PUSH2 0xA46 PUSH2 0xA37 DUP5 DUP7 PUSH2 0xA4F SWAP1 SWAP2 SWAP1 PUSH4 0xFFFFFFFF AND JUMP JUMPDEST DUP4 PUSH2 0xA65 SWAP1 SWAP2 SWAP1 PUSH4 0xFFFFFFFF AND JUMP JUMPDEST SWAP1 POP SWAP4 SWAP3 POP POP POP JUMP JUMPDEST PUSH1 0x0 DUP2 DUP4 PUSH2 0xA5D SWAP2 SWAP1 PUSH2 0x11E0 JUMP JUMPDEST SWAP1 POP SWAP3 SWAP2 POP POP JUMP JUMPDEST PUSH1 0x0 DUP2 DUP4 PUSH2 0xA73 SWAP2 SWAP1 PUSH2 0x1243 JUMP JUMPDEST SWAP1 POP SWAP3 SWAP2 POP POP JUMP JUMPDEST PUSH2 0xA83 PUSH2 0xD08 JUMP JUMPDEST PUSH20 0xFFFFFFFFFFFFFFFFFFFFFFFFFFFFFFFFFFFFFFFF AND PUSH2 0xAA1 PUSH2 0x627 JUMP JUMPDEST PUSH20 0xFFFFFFFFFFFFFFFFFFFFFFFFFFFFFFFFFFFFFFFF AND EQ PUSH2 0xAF7 JUMPI PUSH1 0x40 MLOAD PUSH32 0x8C379A000000000000000000000000000000000000000000000000000000000 DUP2 MSTORE PUSH1 0x4 ADD PUSH2 0xAEE SWAP1 PUSH2 0x12C0 JUMP JUMPDEST PUSH1 0x40 MLOAD DUP1 SWAP2 SUB SWAP1 REVERT JUMPDEST JUMP JUMPDEST PUSH1 0x0 DUP1 PUSH1 0x0 SWAP1 SLOAD SWAP1 PUSH2 0x100 EXP SWAP1 DIV PUSH20 0xFFFFFFFFFFFFFFFFFFFFFFFFFFFFFFFFFFFFFFFF AND SWAP1 POP DUP2 PUSH1 0x0 DUP1 PUSH2 0x100 EXP DUP2 SLOAD DUP2 PUSH20 0xFFFFFFFFFFFFFFFFFFFFFFFFFFFFFFFFFFFFFFFF MUL NOT AND SWAP1 DUP4 PUSH20 0xFFFFFFFFFFFFFFFFFFFFFFFFFFFFFFFFFFFFFFFF AND MUL OR SWAP1 SSTORE POP DUP2 PUSH20 0xFFFFFFFFFFFFFFFFFFFFFFFFFFFFFFFFFFFFFFFF AND DUP2 PUSH20 0xFFFFFFFFFFFFFFFFFFFFFFFFFFFFFFFFFFFFFFFF AND PUSH32 0x8BE0079C531659141344CD1FD0A4F28419497F9722A3DAAFE3B4186F6B6457E0 PUSH1 0x40 MLOAD PUSH1 0x40 MLOAD DUP1 SWAP2 SUB SWAP1 LOG3 POP POP JUMP JUMPDEST PUSH1 0x0 DUP1 PUSH1 0xA PUSH1 0x1C SWAP1 SLOAD SWAP1 PUSH2 0x100 EXP SWAP1 DIV PUSH4 0xFFFFFFFF AND PUSH4 0xFFFFFFFF AND EQ ISZERO PUSH2 0xC04 JUMPI PUSH2 0xBFD PUSH4 0x5F5E100 PUSH2 0xBEF PUSH2 0x83E JUMP JUMPDEST PUSH2 0xA65 SWAP1 SWAP2 SWAP1 PUSH4 0xFFFFFFFF AND JUMP JUMPDEST SWAP1 POP PUSH2 0xC95 JUMP JUMPDEST PUSH1 0x1 PUSH1 0xA PUSH1 0x1C SWAP1 SLOAD SWAP1 PUSH2 0x100 EXP SWAP1 DIV PUSH4 0xFFFFFFFF AND PUSH4 0xFFFFFFFF AND EQ ISZERO PUSH2 0xC4A JUMPI PUSH2 0xC43 PUSH4 0x5F5E100 PUSH2 0xC35 PUSH2 0x6DB JUMP JUMPDEST PUSH2 0xA65 SWAP1 SWAP2 SWAP1 PUSH4 0xFFFFFFFF AND JUMP JUMPDEST SWAP1 POP PUSH2 0xC95 JUMP JUMPDEST PUSH1 0x2 PUSH1 0xA PUSH1 0x1C SWAP1 SLOAD SWAP1 PUSH2 0x100 EXP SWAP1 DIV PUSH4 0xFFFFFFFF AND PUSH4 0xFFFFFFFF AND EQ ISZERO PUSH2 0xC90 JUMPI PUSH2 0xC89 PUSH4 0x5F5E100 PUSH2 0xC7B PUSH2 0x4C3 JUMP JUMPDEST PUSH2 0xA65 SWAP1 SWAP2 SWAP1 PUSH4 0xFFFFFFFF AND JUMP JUMPDEST SWAP1 POP PUSH2 0xC95 JUMP JUMPDEST PUSH1 0x0 SWAP1 POP JUMPDEST SWAP1 JUMP JUMPDEST PUSH1 0x0 DUP1 DUP3 DUP6 LT PUSH2 0xCAA JUMPI DUP6 SWAP1 POP PUSH2 0xCFC JUMP JUMPDEST PUSH1 0x0 PUSH2 0xCD1 PUSH2 0xCC2 DUP8 DUP8 PUSH2 0xA4F SWAP1 SWAP2 SWAP1 PUSH4 0xFFFFFFFF AND JUMP JUMPDEST DUP9 PUSH2 0xA65 SWAP1 SWAP2 SWAP1 PUSH4 0xFFFFFFFF AND JUMP JUMPDEST SWAP1 POP PUSH2 0xCF8 PUSH2 0xCE9 DUP6 DUP8 PUSH2 0xA4F SWAP1 SWAP2 SWAP1 PUSH4 0xFFFFFFFF AND JUMP JUMPDEST DUP3 PUSH2 0xD10 SWAP1 SWAP2 SWAP1 PUSH4 0xFFFFFFFF AND JUMP JUMPDEST SWAP2 POP POP JUMPDEST DUP1 SWAP2 POP POP SWAP5 SWAP4 POP POP POP POP JUMP JUMPDEST PUSH1 0x0 CALLER SWAP1 POP SWAP1 JUMP JUMPDEST PUSH1 0x0 DUP2 DUP4 PUSH2 0xD1E SWAP2 SWAP1 PUSH2 0x12E0 JUMP JUMPDEST SWAP1 POP SWAP3 SWAP2 POP POP JUMP JUMPDEST PUSH1 0x40 MLOAD DUP1 PUSH1 0xA0 ADD PUSH1 0x40 MSTORE DUP1 PUSH1 0x5 SWAP1 PUSH1 0x20 DUP3 MUL DUP1 CALLDATASIZE DUP4 CALLDATACOPY DUP1 DUP3 ADD SWAP2 POP POP SWAP1 POP POP SWAP1 JUMP JUMPDEST PUSH1 0x0 DUP2 SWAP1 POP SWAP2 SWAP1 POP JUMP JUMPDEST PUSH2 0xD5B DUP2 PUSH2 0xD48 JUMP JUMPDEST DUP3 MSTORE POP POP JUMP JUMPDEST PUSH1 0x0 PUSH1 0x20 DUP3 ADD SWAP1 POP PUSH2 0xD76 PUSH1 0x0 DUP4 ADD DUP5 PUSH2 0xD52 JUMP JUMPDEST SWAP3 SWAP2 POP POP JUMP JUMPDEST PUSH32 0x4E487B7100000000000000000000000000000000000000000000000000000000 PUSH1 0x0 MSTORE PUSH1 0x21 PUSH1 0x4 MSTORE PUSH1 0x24 PUSH1 0x0 REVERT JUMPDEST PUSH1 0x5 DUP2 LT PUSH2 0xDBC JUMPI PUSH2 0xDBB PUSH2 0xD7C JUMP JUMPDEST JUMPDEST POP JUMP JUMPDEST PUSH1 0x0 DUP2 SWAP1 POP PUSH2 0xDCD DUP3 PUSH2 0xDAB JUMP JUMPDEST SWAP2 SWAP1 POP JUMP JUMPDEST PUSH1 0x0 PUSH2 0xDDD DUP3 PUSH2 0xDBF JUMP JUMPDEST SWAP1 POP SWAP2 SWAP1 POP JUMP JUMPDEST PUSH2 0xDED DUP2 PUSH2 0xDD2 JUMP JUMPDEST DUP3 MSTORE POP POP JUMP JUMPDEST PUSH1 0x0 PUSH1 0x20 DUP3 ADD SWAP1 POP PUSH2 0xE08 PUSH1 0x0 DUP4 ADD DUP5 PUSH2 0xDE4 JUMP JUMPDEST SWAP3 SWAP2 POP POP JUMP JUMPDEST PUSH1 0x0 DUP1 REVERT JUMPDEST PUSH1 0x5 DUP2 LT PUSH2 0xE20 JUMPI PUSH1 0x0 DUP1 REVERT JUMPDEST POP JUMP JUMPDEST PUSH1 0x0 DUP2 CALLDATALOAD SWAP1 POP PUSH2 0xE32 DUP2 PUSH2 0xE13 JUMP JUMPDEST SWAP3 SWAP2 POP POP JUMP JUMPDEST PUSH1 0x0 PUSH1 0x20 DUP3 DUP5 SUB SLT ISZERO PUSH2 0xE4E JUMPI PUSH2 0xE4D PUSH2 0xE0E JUMP JUMPDEST JUMPDEST PUSH1 0x0 PUSH2 0xE5C DUP5 DUP3 DUP6 ADD PUSH2 0xE23 JUMP JUMPDEST SWAP2 POP POP SWAP3 SWAP2 POP POP JUMP JUMPDEST PUSH1 0x0 PUSH4 0xFFFFFFFF DUP3 AND SWAP1 POP SWAP2 SWAP1 POP JUMP JUMPDEST PUSH2 0xE7E DUP2 PUSH2 0xE65 JUMP JUMPDEST DUP3 MSTORE POP POP JUMP JUMPDEST PUSH1 0x0 PUSH1 0x20 DUP3 ADD SWAP1 POP PUSH2 0xE99 PUSH1 0x0 DUP4 ADD DUP5 PUSH2 0xE75 JUMP JUMPDEST SWAP3 SWAP2 POP POP JUMP JUMPDEST PUSH1 0x0 PUSH20 0xFFFFFFFFFFFFFFFFFFFFFFFFFFFFFFFFFFFFFFFF DUP3 AND SWAP1 POP SWAP2 SWAP1 POP JUMP JUMPDEST PUSH1 0x0 PUSH2 0xECA DUP3 PUSH2 0xE9F JUMP JUMPDEST SWAP1 POP SWAP2 SWAP1 POP JUMP JUMPDEST PUSH2 0xEDA DUP2 PUSH2 0xEBF JUMP JUMPDEST DUP3 MSTORE POP POP JUMP JUMPDEST PUSH1 0x0 PUSH1 0x20 DUP3 ADD SWAP1 POP PUSH2 0xEF5 PUSH1 0x0 DUP4 ADD DUP5 PUSH2 0xED1 JUMP JUMPDEST SWAP3 SWAP2 POP POP JUMP JUMPDEST PUSH2 0xF04 DUP2 PUSH2 0xEBF JUMP JUMPDEST DUP2 EQ PUSH2 0xF0F JUMPI PUSH1 0x0 DUP1 REVERT JUMPDEST POP JUMP JUMPDEST PUSH1 0x0 DUP2 CALLDATALOAD SWAP1 POP PUSH2 0xF21 DUP2 PUSH2 0xEFB JUMP JUMPDEST SWAP3 SWAP2 POP POP JUMP JUMPDEST PUSH1 0x0 PUSH1 0x20 DUP3 DUP5 SUB SLT ISZERO PUSH2 0xF3D JUMPI PUSH2 0xF3C PUSH2 0xE0E JUMP JUMPDEST JUMPDEST PUSH1 0x0 PUSH2 0xF4B DUP5 DUP3 DUP6 ADD PUSH2 0xF12 JUMP JUMPDEST SWAP2 POP POP SWAP3 SWAP2 POP POP JUMP JUMPDEST PUSH1 0x0 PUSH1 0x5 SWAP1 POP SWAP2 SWAP1 POP JUMP JUMPDEST PUSH1 0x0 DUP2 SWAP1 POP SWAP3 SWAP2 POP POP JUMP JUMPDEST PUSH1 0x0 DUP2 SWAP1 POP SWAP2 SWAP1 POP JUMP JUMPDEST PUSH2 0xF7D DUP2 PUSH2 0xD48 JUMP JUMPDEST DUP3 MSTORE POP POP JUMP JUMPDEST PUSH1 0x0 PUSH2 0xF8F DUP4 DUP4 PUSH2 0xF74 JUMP JUMPDEST PUSH1 0x20 DUP4 ADD SWAP1 POP SWAP3 SWAP2 POP POP JUMP JUMPDEST PUSH1 0x0 PUSH1 0x20 DUP3 ADD SWAP1 POP SWAP2 SWAP1 POP JUMP JUMPDEST PUSH2 0xFB1 DUP2 PUSH2 0xF54 JUMP JUMPDEST PUSH2 0xFBB DUP2 DUP5 PUSH2 0xF5F JUMP JUMPDEST SWAP3 POP PUSH2 0xFC6 DUP3 PUSH2 0xF6A JUMP JUMPDEST DUP1 PUSH1 0x0 JUMPDEST DUP4 DUP2 LT ISZERO PUSH2 0xFF7 JUMPI DUP2 MLOAD PUSH2 0xFDE DUP8 DUP3 PUSH2 0xF83 JUMP JUMPDEST SWAP7 POP PUSH2 0xFE9 DUP4 PUSH2 0xF9B JUMP JUMPDEST SWAP3 POP POP PUSH1 0x1 DUP2 ADD SWAP1 POP PUSH2 0xFCA JUMP JUMPDEST POP POP POP POP POP POP JUMP JUMPDEST PUSH1 0x0 PUSH1 0xA0 DUP3 ADD SWAP1 POP PUSH2 0x1014 PUSH1 0x0 DUP4 ADD DUP5 PUSH2 0xFA8 JUMP JUMPDEST SWAP3 SWAP2 POP POP JUMP JUMPDEST PUSH2 0x1023 DUP2 PUSH2 0xD48 JUMP JUMPDEST DUP2 EQ PUSH2 0x102E JUMPI PUSH1 0x0 DUP1 REVERT JUMPDEST POP JUMP JUMPDEST PUSH1 0x0 DUP2 CALLDATALOAD SWAP1 POP PUSH2 0x1040 DUP2 PUSH2 0x101A JUMP JUMPDEST SWAP3 SWAP2 POP POP JUMP JUMPDEST PUSH1 0x0 PUSH1 0x20 DUP3 DUP5 SUB SLT ISZERO PUSH2 0x105C JUMPI PUSH2 0x105B PUSH2 0xE0E JUMP JUMPDEST JUMPDEST PUSH1 0x0 PUSH2 0x106A DUP5 DUP3 DUP6 ADD PUSH2 0x1031 JUMP JUMPDEST SWAP2 POP POP SWAP3 SWAP2 POP POP JUMP JUMPDEST PUSH2 0x107C DUP2 PUSH2 0xE65 JUMP JUMPDEST DUP2 EQ PUSH2 0x1087 JUMPI PUSH1 0x0 DUP1 REVERT JUMPDEST POP JUMP JUMPDEST PUSH1 0x0 DUP2 CALLDATALOAD SWAP1 POP PUSH2 0x1099 DUP2 PUSH2 0x1073 JUMP JUMPDEST SWAP3 SWAP2 POP POP JUMP JUMPDEST PUSH1 0x0 PUSH1 0x20 DUP3 DUP5 SUB SLT ISZERO PUSH2 0x10B5 JUMPI PUSH2 0x10B4 PUSH2 0xE0E JUMP JUMPDEST JUMPDEST PUSH1 0x0 PUSH2 0x10C3 DUP5 DUP3 DUP6 ADD PUSH2 0x108A JUMP JUMPDEST SWAP2 POP POP SWAP3 SWAP2 POP POP JUMP JUMPDEST PUSH1 0x0 DUP2 MLOAD SWAP1 POP PUSH2 0x10DB DUP2 PUSH2 0x101A JUMP JUMPDEST SWAP3 SWAP2 POP POP JUMP JUMPDEST PUSH1 0x0 PUSH1 0x20 DUP3 DUP5 SUB SLT ISZERO PUSH2 0x10F7 JUMPI PUSH2 0x10F6 PUSH2 0xE0E JUMP JUMPDEST JUMPDEST PUSH1 0x0 PUSH2 0x1105 DUP5 DUP3 DUP6 ADD PUSH2 0x10CC JUMP JUMPDEST SWAP2 POP POP SWAP3 SWAP2 POP POP JUMP JUMPDEST PUSH1 0x0 DUP3 DUP3 MSTORE PUSH1 0x20 DUP3 ADD SWAP1 POP SWAP3 SWAP2 POP POP JUMP JUMPDEST PUSH32 0x4F776E61626C653A206E6577206F776E657220697320746865207A65726F2061 PUSH1 0x0 DUP3 ADD MSTORE PUSH32 0x6464726573730000000000000000000000000000000000000000000000000000 PUSH1 0x20 DUP3 ADD MSTORE POP JUMP JUMPDEST PUSH1 0x0 PUSH2 0x117B PUSH1 0x26 DUP4 PUSH2 0x110E JUMP JUMPDEST SWAP2 POP PUSH2 0x1186 DUP3 PUSH2 0x111F JUMP JUMPDEST PUSH1 0x40 DUP3 ADD SWAP1 POP SWAP2 SWAP1 POP JUMP JUMPDEST PUSH1 0x0 PUSH1 0x20 DUP3 ADD SWAP1 POP DUP2 DUP2 SUB PUSH1 0x0 DUP4 ADD MSTORE PUSH2 0x11AA DUP2 PUSH2 0x116E JUMP JUMPDEST SWAP1 POP SWAP2 SWAP1 POP JUMP JUMPDEST PUSH32 0x4E487B7100000000000000000000000000000000000000000000000000000000 PUSH1 0x0 MSTORE PUSH1 0x11 PUSH1 0x4 MSTORE PUSH1 0x24 PUSH1 0x0 REVERT JUMPDEST PUSH1 0x0 PUSH2 0x11EB DUP3 PUSH2 0xD48 JUMP JUMPDEST SWAP2 POP PUSH2 0x11F6 DUP4 PUSH2 0xD48 JUMP JUMPDEST SWAP3 POP DUP3 DUP3 LT ISZERO PUSH2 0x1209 JUMPI PUSH2 0x1208 PUSH2 0x11B1 JUMP JUMPDEST JUMPDEST DUP3 DUP3 SUB SWAP1 POP SWAP3 SWAP2 POP POP JUMP JUMPDEST PUSH32 0x4E487B7100000000000000000000000000000000000000000000000000000000 PUSH1 0x0 MSTORE PUSH1 0x12 PUSH1 0x4 MSTORE PUSH1 0x24 PUSH1 0x0 REVERT JUMPDEST PUSH1 0x0 PUSH2 0x124E DUP3 PUSH2 0xD48 JUMP JUMPDEST SWAP2 POP PUSH2 0x1259 DUP4 PUSH2 0xD48 JUMP JUMPDEST SWAP3 POP DUP3 PUSH2 0x1269 JUMPI PUSH2 0x1268 PUSH2 0x1214 JUMP JUMPDEST JUMPDEST DUP3 DUP3 DIV SWAP1 POP SWAP3 SWAP2 POP POP JUMP JUMPDEST PUSH32 0x4F776E61626C653A2063616C6C6572206973206E6F7420746865206F776E6572 PUSH1 0x0 DUP3 ADD MSTORE POP JUMP JUMPDEST PUSH1 0x0 PUSH2 0x12AA PUSH1 0x20 DUP4 PUSH2 0x110E JUMP JUMPDEST SWAP2 POP PUSH2 0x12B5 DUP3 PUSH2 0x1274 JUMP JUMPDEST PUSH1 0x20 DUP3 ADD SWAP1 POP SWAP2 SWAP1 POP JUMP JUMPDEST PUSH1 0x0 PUSH1 0x20 DUP3 ADD SWAP1 POP DUP2 DUP2 SUB PUSH1 0x0 DUP4 ADD MSTORE PUSH2 0x12D9 DUP2 PUSH2 0x129D JUMP JUMPDEST SWAP1 POP SWAP2 SWAP1 POP JUMP JUMPDEST PUSH1 0x0 PUSH2 0x12EB DUP3 PUSH2 0xD48 JUMP JUMPDEST SWAP2 POP PUSH2 0x12F6 DUP4 PUSH2 0xD48 JUMP JUMPDEST SWAP3 POP DUP2 PUSH32 0xFFFFFFFFFFFFFFFFFFFFFFFFFFFFFFFFFFFFFFFFFFFFFFFFFFFFFFFFFFFFFFFF DIV DUP4 GT DUP3 ISZERO ISZERO AND ISZERO PUSH2 0x132F JUMPI PUSH2 0x132E PUSH2 0x11B1 JUMP JUMPDEST JUMPDEST DUP3 DUP3 MUL SWAP1 POP SWAP3 SWAP2 POP POP JUMP INVALID LOG2 PUSH5 0x6970667358 0x22 SLT KECCAK256 DUP9 0xEB 0xC 0xD9 JUMPDEST 0xC8 0xC4 PUSH31 0x400D8C91753B75E7E1FF8CA5A810E5B6A2F0B39429EF4D7564736F6C634300 ADDMOD EXP STOP CALLER LOG2 PUSH5 0x6970667358 0x22 SLT KECCAK256 LT SLOAD 0xAB 0xD5 SLOAD PUSH31 0x2A525678CB5CD364253AC9A3BA0B634E8A1351C62A864FFE871B64736F6C63 NUMBER STOP ADDMOD EXP STOP CALLER "
		},
		"gasEstimates": {
			"creation": {
				"codeDepositCost": "4722600",
				"executionCost": "infinite",
				"totalCost": "infinite"
			},
			"external": {
				"accept(uint256,uint256)": "infinite",
				"cancel(uint256)": "infinite",
				"claim(uint256)": "infinite",
				"close(uint256)": "infinite",
				"create(bool,uint256,uint256,uint256,uint256,uint256,uint32,uint32)": "infinite",
				"deposits(uint256,uint256)": "infinite",
				"expire(uint256)": "infinite",
				"getBuyer(uint256)": "infinite",
				"getCDS(uint256)": "infinite",
				"getCDSId()": "2679",
				"getPremium(uint256)": "infinite",
				"getPrices(uint256)": "infinite",
				"getRounds(uint256)": "infinite",
				"getSeller(uint256)": "infinite",
				"getSellerDeposit(uint256)": "infinite",
				"getStatus(uint256)": "infinite",
				"nextPayDate(uint256)": "infinite",
				"owner()": "2655",
				"payPremium(uint256)": "infinite",
				"payPremiumByDeposit(uint256)": "infinite",
				"renounceOwnership()": "30465",
				"token()": "infinite",
				"transferOwnership(address)": "30857",
				"withdraw(uint256)": "infinite"
			}
		},
		"methodIdentifiers": {
			"accept(uint256,uint256)": "09358479",
			"cancel(uint256)": "40e58ee5",
			"claim(uint256)": "379607f5",
			"close(uint256)": "0aebeb4e",
			"create(bool,uint256,uint256,uint256,uint256,uint256,uint32,uint32)": "8a614dd5",
			"deposits(uint256,uint256)": "2bd49780",
			"expire(uint256)": "bf81bf43",
			"getBuyer(uint256)": "5bf608b8",
			"getCDS(uint256)": "5af8d21c",
			"getCDSId()": "d0e5d955",
			"getPremium(uint256)": "1bf1fffb",
			"getPrices(uint256)": "91492956",
			"getRounds(uint256)": "13ef3dcc",
			"getSeller(uint256)": "d6a9de51",
			"getSellerDeposit(uint256)": "88106323",
			"getStatus(uint256)": "5c622a0e",
			"nextPayDate(uint256)": "44a9d244",
			"owner()": "8da5cb5b",
			"payPremium(uint256)": "4364b26e",
			"payPremiumByDeposit(uint256)": "2926ea2a",
			"renounceOwnership()": "715018a6",
			"token()": "fc0c546a",
			"transferOwnership(address)": "f2fde38b",
			"withdraw(uint256)": "2e1a7d4d"
		}
	},
	"abi": [
		{
			"anonymous": false,
			"inputs": [
				{
					"indexed": true,
					"internalType": "address",
					"name": "guestAddr",
					"type": "address"
				},
				{
					"indexed": false,
					"internalType": "uint256",
					"name": "cdsId",
					"type": "uint256"
				}
			],
			"name": "Accept",
			"type": "event"
		},
		{
			"anonymous": false,
			"inputs": [
				{
					"indexed": false,
					"internalType": "uint256",
					"name": "cdsId",
					"type": "uint256"
				}
			],
			"name": "Cancel",
			"type": "event"
		},
		{
			"anonymous": false,
			"inputs": [
				{
					"indexed": false,
					"internalType": "uint256",
					"name": "cdsId",
					"type": "uint256"
				},
				{
					"indexed": false,
					"internalType": "uint256",
					"name": "claimReward",
					"type": "uint256"
				}
			],
			"name": "Claim",
			"type": "event"
		},
		{
			"anonymous": false,
			"inputs": [
				{
					"indexed": false,
					"internalType": "uint256",
					"name": "cdsId",
					"type": "uint256"
				}
			],
			"name": "Close",
			"type": "event"
		},
		{
			"anonymous": false,
			"inputs": [
				{
					"indexed": true,
					"internalType": "address",
					"name": "hostAddr",
					"type": "address"
				},
				{
					"indexed": false,
					"internalType": "bool",
					"name": "isBuyer",
					"type": "bool"
				},
				{
					"indexed": false,
					"internalType": "uint256",
					"name": "cdsId",
					"type": "uint256"
				},
				{
					"indexed": false,
					"internalType": "uint32",
					"name": "assetType",
					"type": "uint32"
				},
				{
					"indexed": false,
					"internalType": "address",
					"name": "swap",
					"type": "address"
				}
			],
			"name": "Create",
			"type": "event"
		},
		{
			"anonymous": false,
			"inputs": [
				{
					"indexed": false,
					"internalType": "uint256",
					"name": "cdsId",
					"type": "uint256"
				}
			],
			"name": "Expire",
			"type": "event"
		},
		{
			"anonymous": false,
			"inputs": [
				{
					"indexed": true,
					"internalType": "address",
					"name": "previousOwner",
					"type": "address"
				},
				{
					"indexed": true,
					"internalType": "address",
					"name": "newOwner",
					"type": "address"
				}
			],
			"name": "OwnershipTransferred",
			"type": "event"
		},
		{
			"anonymous": false,
			"inputs": [
				{
					"indexed": false,
					"internalType": "uint256",
					"name": "cdsId",
					"type": "uint256"
				}
			],
			"name": "PayPremium",
			"type": "event"
		},
		{
			"inputs": [
				{
					"internalType": "uint256",
					"name": "initAssetPrice",
					"type": "uint256"
				},
				{
					"internalType": "uint256",
					"name": "cdsId",
					"type": "uint256"
				}
			],
			"name": "accept",
			"outputs": [
				{
					"internalType": "uint256",
					"name": "",
					"type": "uint256"
				}
			],
			"stateMutability": "nonpayable",
			"type": "function"
		},
		{
			"inputs": [
				{
					"internalType": "uint256",
					"name": "cdsId",
					"type": "uint256"
				}
			],
			"name": "cancel",
			"outputs": [
				{
					"internalType": "bool",
					"name": "",
					"type": "bool"
				}
			],
			"stateMutability": "nonpayable",
			"type": "function"
		},
		{
			"inputs": [
				{
					"internalType": "uint256",
					"name": "cdsId",
					"type": "uint256"
				}
			],
			"name": "claim",
			"outputs": [
				{
					"internalType": "bool",
					"name": "",
					"type": "bool"
				}
			],
			"stateMutability": "nonpayable",
			"type": "function"
		},
		{
			"inputs": [
				{
					"internalType": "uint256",
					"name": "cdsId",
					"type": "uint256"
				}
			],
			"name": "close",
			"outputs": [
				{
					"internalType": "bool",
					"name": "",
					"type": "bool"
				}
			],
			"stateMutability": "nonpayable",
			"type": "function"
		},
		{
			"inputs": [
				{
					"internalType": "bool",
					"name": "isBuyer",
					"type": "bool"
				},
				{
					"internalType": "uint256",
					"name": "initAssetPrice",
					"type": "uint256"
				},
				{
					"internalType": "uint256",
					"name": "claimPrice",
					"type": "uint256"
				},
				{
					"internalType": "uint256",
					"name": "liquidationPrice",
					"type": "uint256"
				},
				{
					"internalType": "uint256",
					"name": "sellerDeposit",
					"type": "uint256"
				},
				{
					"internalType": "uint256",
					"name": "premium",
					"type": "uint256"
				},
				{
					"internalType": "uint32",
					"name": "totalRounds",
					"type": "uint32"
				},
				{
					"internalType": "uint32",
					"name": "assetType",
					"type": "uint32"
				}
			],
			"name": "create",
			"outputs": [
				{
					"internalType": "uint256",
					"name": "",
					"type": "uint256"
				}
			],
			"stateMutability": "nonpayable",
			"type": "function"
		},
		{
			"inputs": [
				{
					"internalType": "uint256",
					"name": "",
					"type": "uint256"
				},
				{
					"internalType": "uint256",
					"name": "",
					"type": "uint256"
				}
			],
			"name": "deposits",
			"outputs": [
				{
					"internalType": "uint256",
					"name": "",
					"type": "uint256"
				}
			],
			"stateMutability": "view",
			"type": "function"
		},
		{
			"inputs": [
				{
					"internalType": "uint256",
					"name": "cdsId",
					"type": "uint256"
				}
			],
			"name": "expire",
			"outputs": [
				{
					"internalType": "bool",
					"name": "",
					"type": "bool"
				}
			],
			"stateMutability": "nonpayable",
			"type": "function"
		},
		{
			"inputs": [
				{
					"internalType": "uint256",
					"name": "cdsId",
					"type": "uint256"
				}
			],
			"name": "getBuyer",
			"outputs": [
				{
					"internalType": "address",
					"name": "",
					"type": "address"
				}
			],
			"stateMutability": "view",
			"type": "function"
		},
		{
			"inputs": [
				{
					"internalType": "uint256",
					"name": "cdsId",
					"type": "uint256"
				}
			],
			"name": "getCDS",
			"outputs": [
				{
					"internalType": "contract CDS",
					"name": "",
					"type": "address"
				}
			],
			"stateMutability": "view",
			"type": "function"
		},
		{
			"inputs": [],
			"name": "getCDSId",
			"outputs": [
				{
					"components": [
						{
							"internalType": "uint256",
							"name": "_value",
							"type": "uint256"
						}
					],
					"internalType": "struct Counters.Counter",
					"name": "",
					"type": "tuple"
				}
			],
			"stateMutability": "view",
			"type": "function"
		},
		{
			"inputs": [
				{
					"internalType": "uint256",
					"name": "cdsId",
					"type": "uint256"
				}
			],
			"name": "getPremium",
			"outputs": [
				{
					"internalType": "uint256",
					"name": "",
					"type": "uint256"
				}
			],
			"stateMutability": "view",
			"type": "function"
		},
		{
			"inputs": [
				{
					"internalType": "uint256",
					"name": "cdsId",
					"type": "uint256"
				}
			],
			"name": "getPrices",
			"outputs": [
				{
					"internalType": "uint256[5]",
					"name": "",
					"type": "uint256[5]"
				}
			],
			"stateMutability": "view",
			"type": "function"
		},
		{
			"inputs": [
				{
					"internalType": "uint256",
					"name": "cdsId",
					"type": "uint256"
				}
			],
			"name": "getRounds",
			"outputs": [
				{
					"internalType": "uint32",
					"name": "",
					"type": "uint32"
				}
			],
			"stateMutability": "view",
			"type": "function"
		},
		{
			"inputs": [
				{
					"internalType": "uint256",
					"name": "cdsId",
					"type": "uint256"
				}
			],
			"name": "getSeller",
			"outputs": [
				{
					"internalType": "address",
					"name": "",
					"type": "address"
				}
			],
			"stateMutability": "view",
			"type": "function"
		},
		{
			"inputs": [
				{
					"internalType": "uint256",
					"name": "cdsId",
					"type": "uint256"
				}
			],
			"name": "getSellerDeposit",
			"outputs": [
				{
					"internalType": "uint256",
					"name": "",
					"type": "uint256"
				}
			],
			"stateMutability": "view",
			"type": "function"
		},
		{
			"inputs": [
				{
					"internalType": "uint256",
					"name": "cdsId",
					"type": "uint256"
				}
			],
			"name": "getStatus",
			"outputs": [
				{
					"internalType": "enum CDS.Status",
					"name": "",
					"type": "uint8"
				}
			],
			"stateMutability": "view",
			"type": "function"
		},
		{
			"inputs": [
				{
					"internalType": "uint256",
					"name": "",
					"type": "uint256"
				}
			],
			"name": "nextPayDate",
			"outputs": [
				{
					"internalType": "uint256",
					"name": "",
					"type": "uint256"
				}
			],
			"stateMutability": "view",
			"type": "function"
		},
		{
			"inputs": [],
			"name": "owner",
			"outputs": [
				{
					"internalType": "address",
					"name": "",
					"type": "address"
				}
			],
			"stateMutability": "view",
			"type": "function"
		},
		{
			"inputs": [
				{
					"internalType": "uint256",
					"name": "cdsId",
					"type": "uint256"
				}
			],
			"name": "payPremium",
			"outputs": [
				{
					"internalType": "bool",
					"name": "",
					"type": "bool"
				}
			],
			"stateMutability": "nonpayable",
			"type": "function"
		},
		{
			"inputs": [
				{
					"internalType": "uint256",
					"name": "cdsId",
					"type": "uint256"
				}
			],
			"name": "payPremiumByDeposit",
			"outputs": [
				{
					"internalType": "bool",
					"name": "",
					"type": "bool"
				}
			],
			"stateMutability": "nonpayable",
			"type": "function"
		},
		{
			"inputs": [],
			"name": "renounceOwnership",
			"outputs": [],
			"stateMutability": "nonpayable",
			"type": "function"
		},
		{
			"inputs": [],
			"name": "token",
			"outputs": [
				{
					"internalType": "contract IERC20",
					"name": "",
					"type": "address"
				}
			],
			"stateMutability": "view",
			"type": "function"
		},
		{
			"inputs": [
				{
					"internalType": "address",
					"name": "newOwner",
					"type": "address"
				}
			],
			"name": "transferOwnership",
			"outputs": [],
			"stateMutability": "nonpayable",
			"type": "function"
		},
		{
			"inputs": [
				{
					"internalType": "uint256",
					"name": "amount",
					"type": "uint256"
				}
			],
			"name": "withdraw",
			"outputs": [
				{
					"internalType": "bool",
					"name": "",
					"type": "bool"
				}
			],
			"stateMutability": "nonpayable",
			"type": "function"
		}
	]
}