{
  "contractName": "AssetHandler",
  "abi": [
    {
      "inputs": [],
      "stateMutability": "nonpayable",
      "type": "constructor"
    },
    {
      "anonymous": false,
      "inputs": [
        {
          "indexed": true,
          "internalType": "address",
          "name": "previousOwner",
          "type": "address"
        },
        {
          "indexed": true,
          "internalType": "address",
          "name": "newOwner",
          "type": "address"
        }
      ],
      "name": "OwnershipTransferred",
      "type": "event"
    },
    {
      "inputs": [
        {
          "internalType": "uint256",
          "name": "",
          "type": "uint256"
        },
        {
          "internalType": "uint256",
          "name": "",
          "type": "uint256"
        }
      ],
      "name": "deposits",
      "outputs": [
        {
          "internalType": "uint256",
          "name": "",
          "type": "uint256"
        }
      ],
      "stateMutability": "view",
      "type": "function"
    },
    {
      "inputs": [
        {
          "internalType": "uint256",
          "name": "swapId",
          "type": "uint256"
        }
      ],
      "name": "getBuyer",
      "outputs": [
        {
          "internalType": "address",
          "name": "",
          "type": "address"
        }
      ],
      "stateMutability": "view",
      "type": "function"
    },
    {
      "inputs": [
        {
          "internalType": "uint256",
          "name": "swapId",
          "type": "uint256"
        }
      ],
      "name": "getNextPayDate",
      "outputs": [
        {
          "internalType": "uint256",
          "name": "",
          "type": "uint256"
        }
      ],
      "stateMutability": "view",
      "type": "function"
    },
    {
      "inputs": [
        {
          "internalType": "uint256",
          "name": "swapId",
          "type": "uint256"
        }
      ],
      "name": "getPremium",
      "outputs": [
        {
          "internalType": "uint256",
          "name": "",
          "type": "uint256"
        }
      ],
      "stateMutability": "view",
      "type": "function"
    },
    {
      "inputs": [
        {
          "internalType": "uint256",
          "name": "swapId",
          "type": "uint256"
        }
      ],
      "name": "getPrices",
      "outputs": [
        {
          "internalType": "uint256[5]",
          "name": "",
          "type": "uint256[5]"
        }
      ],
      "stateMutability": "view",
      "type": "function"
    },
    {
      "inputs": [
        {
          "internalType": "uint256",
          "name": "swapId",
          "type": "uint256"
        }
      ],
      "name": "getRounds",
      "outputs": [
        {
          "internalType": "uint32",
          "name": "",
          "type": "uint32"
        }
      ],
      "stateMutability": "view",
      "type": "function"
    },
    {
      "inputs": [
        {
          "internalType": "uint256",
          "name": "swapId",
          "type": "uint256"
        }
      ],
      "name": "getSeller",
      "outputs": [
        {
          "internalType": "address",
          "name": "",
          "type": "address"
        }
      ],
      "stateMutability": "view",
      "type": "function"
    },
    {
      "inputs": [
        {
          "internalType": "uint256",
          "name": "swapId",
          "type": "uint256"
        }
      ],
      "name": "getSellerDeposit",
      "outputs": [
        {
          "internalType": "uint256",
          "name": "",
          "type": "uint256"
        }
      ],
      "stateMutability": "view",
      "type": "function"
    },
    {
      "inputs": [
        {
          "internalType": "uint256",
          "name": "swapId",
          "type": "uint256"
        }
      ],
      "name": "getStatus",
      "outputs": [
        {
          "internalType": "enum Swap.Status",
          "name": "",
          "type": "uint8"
        }
      ],
      "stateMutability": "view",
      "type": "function"
    },
    {
      "inputs": [
        {
          "internalType": "uint256",
          "name": "swapId",
          "type": "uint256"
        }
      ],
      "name": "getSwap",
      "outputs": [
        {
          "internalType": "contract Swap",
          "name": "",
          "type": "address"
        }
      ],
      "stateMutability": "view",
      "type": "function"
    },
    {
      "inputs": [],
      "name": "getSwapId",
      "outputs": [
        {
          "components": [
            {
              "internalType": "uint256",
              "name": "_value",
              "type": "uint256"
            }
          ],
          "internalType": "struct Counters.Counter",
          "name": "",
          "type": "tuple"
        }
      ],
      "stateMutability": "view",
      "type": "function"
    },
    {
      "inputs": [
        {
          "internalType": "uint256",
          "name": "swapId",
          "type": "uint256"
        }
      ],
      "name": "getTotalRounds",
      "outputs": [
        {
          "internalType": "uint32",
          "name": "",
          "type": "uint32"
        }
      ],
      "stateMutability": "view",
      "type": "function"
    },
    {
      "inputs": [],
      "name": "owner",
      "outputs": [
        {
          "internalType": "address",
          "name": "",
          "type": "address"
        }
      ],
      "stateMutability": "view",
      "type": "function"
    },
    {
      "inputs": [],
      "name": "priceOracle",
      "outputs": [
        {
          "internalType": "address",
          "name": "",
          "type": "address"
        }
      ],
      "stateMutability": "view",
      "type": "function"
    },
    {
      "inputs": [],
      "name": "renounceOwnership",
      "outputs": [],
      "stateMutability": "nonpayable",
      "type": "function"
    },
    {
      "inputs": [
        {
          "internalType": "address",
          "name": "_priceOracleAddress",
          "type": "address"
        }
      ],
      "name": "setOracle",
      "outputs": [
        {
          "internalType": "bool",
          "name": "",
          "type": "bool"
        }
      ],
      "stateMutability": "nonpayable",
      "type": "function"
    },
    {
      "inputs": [],
      "name": "token",
      "outputs": [
        {
          "internalType": "contract IERC20",
          "name": "",
          "type": "address"
        }
      ],
      "stateMutability": "view",
      "type": "function"
    },
    {
      "inputs": [
        {
          "internalType": "address",
          "name": "newOwner",
          "type": "address"
        }
      ],
      "name": "transferOwnership",
      "outputs": [],
      "stateMutability": "nonpayable",
      "type": "function"
    },
    {
      "inputs": [
        {
          "internalType": "address",
          "name": "_tokenAddress",
          "type": "address"
        }
      ],
      "name": "setToken",
      "outputs": [
        {
          "internalType": "bool",
          "name": "",
          "type": "bool"
        }
      ],
      "stateMutability": "nonpayable",
      "type": "function"
    }
  ],
  "bytecode": "0x608060405234801561001057600080fd5b5061002d61002261003260201b60201c565b61003a60201b60201c565b6100fe565b600033905090565b60008060009054906101000a900473ffffffffffffffffffffffffffffffffffffffff169050816000806101000a81548173ffffffffffffffffffffffffffffffffffffffff021916908373ffffffffffffffffffffffffffffffffffffffff1602179055508173ffffffffffffffffffffffffffffffffffffffff168173ffffffffffffffffffffffffffffffffffffffff167f8be0079c531659141344cd1fd0a4f28419497f9722a3daafe3b4186f6b6457e060405160405180910390a35050565b6116a48061010d6000396000f3fe608060405234801561001057600080fd5b50600436106101215760003560e01c8063715018a6116100ad5780639149295611610071578063914929561461036a578063967fe6f11461039a578063d6a9de51146103ca578063f2fde38b146103fa578063fc0c546a1461041657610121565b8063715018a6146102b25780637adbf973146102bc57806388106323146102ec5780638bfd13ae1461031c5780638da5cb5b1461034c57610121565b80632bd49780116100f45780632bd49780146101d4578063496ab39a146102045780634a0d89ba146102225780635bf608b8146102525780635c622a0e1461028257610121565b806313ef3dcc14610126578063144fa6d7146101565780631bf1fffb146101865780632630c12f146101b6575b600080fd5b610140600480360381019061013b9190610e4f565b610434565b60405161014d9190610e9b565b60405180910390f35b610170600480360381019061016b9190610f14565b6104df565b60405161017d9190610f5c565b60405180910390f35b6101a0600480360381019061019b9190610e4f565b61056c565b6040516101ad9190610f86565b60405180910390f35b6101be610617565b6040516101cb9190610fb0565b60405180910390f35b6101ee60048036038101906101e99190610fcb565b61063d565b6040516101fb9190610f86565b60405180910390f35b61020c610665565b6040516102199190611036565b60405180910390f35b61023c60048036038101906102379190610e4f565b610689565b60405161024991906110b0565b60405180910390f35b61026c60048036038101906102679190610e4f565b6106c6565b6040516102799190610fb0565b60405180910390f35b61029c60048036038101906102979190610e4f565b610771565b6040516102a99190611142565b60405180910390f35b6102ba61081c565b005b6102d660048036038101906102d19190610f14565b610830565b6040516102e39190610f5c565b60405180910390f35b61030660048036038101906103019190610e4f565b6108ea565b6040516103139190610f86565b60405180910390f35b61033660048036038101906103319190610e4f565b610995565b6040516103439190610f86565b60405180910390f35b6103546109b2565b6040516103619190610fb0565b60405180910390f35b610384600480360381019061037f9190610e4f565b6109db565b60405161039191906111f9565b60405180910390f35b6103b460048036038101906103af9190610e4f565b610a8c565b6040516103c19190610e9b565b60405180910390f35b6103e460048036038101906103df9190610e4f565b610b37565b6040516103f19190610fb0565b60405180910390f35b610414600480360381019061040f9190610f14565b610be2565b005b61041e610c65565b60405161042b9190611235565b60405180910390f35b60006002600083815260200190815260200160002060009054906101000a900473ffffffffffffffffffffffffffffffffffffffff1673ffffffffffffffffffffffffffffffffffffffff1663a2e800ad6040518163ffffffff1660e01b8152600401602060405180830381865afa1580156104b4573d6000803e3d6000fd5b505050506040513d601f19601f820116820180604052508101906104d8919061127c565b9050919050565b60006104e9610c8b565b600073ffffffffffffffffffffffffffffffffffffffff168273ffffffffffffffffffffffffffffffffffffffff160361052257600080fd5b81600560006101000a81548173ffffffffffffffffffffffffffffffffffffffff021916908373ffffffffffffffffffffffffffffffffffffffff16021790555060019050919050565b60006002600083815260200190815260200160002060009054906101000a900473ffffffffffffffffffffffffffffffffffffffff1673ffffffffffffffffffffffffffffffffffffffff1663e0a73a936040518163ffffffff1660e01b8152600401602060405180830381865afa1580156105ec573d6000803e3d6000fd5b505050506040513d601f19601f8201168201806040525081019061061091906112be565b9050919050565b600460009054906101000a900473ffffffffffffffffffffffffffffffffffffffff1681565b6006602052816000526040600020816002811061065957600080fd5b01600091509150505481565b61066d610dd5565b6001604051806020016040529081600082015481525050905090565b60006002600083815260200190815260200160002060009054906101000a900473ffffffffffffffffffffffffffffffffffffffff169050919050565b60006002600083815260200190815260200160002060009054906101000a900473ffffffffffffffffffffffffffffffffffffffff1673ffffffffffffffffffffffffffffffffffffffff1663603daf9a6040518163ffffffff1660e01b8152600401602060405180830381865afa158015610746573d6000803e3d6000fd5b505050506040513d601f19601f8201168201806040525081019061076a9190611300565b9050919050565b60006002600083815260200190815260200160002060009054906101000a900473ffffffffffffffffffffffffffffffffffffffff1673ffffffffffffffffffffffffffffffffffffffff1663200d2ed26040518163ffffffff1660e01b8152600401602060405180830381865afa1580156107f1573d6000803e3d6000fd5b505050506040513d601f19601f820116820180604052508101906108159190611352565b9050919050565b610824610c8b565b61082e6000610d09565b565b60008073ffffffffffffffffffffffffffffffffffffffff168273ffffffffffffffffffffffffffffffffffffffff16036108a0576040517f08c379a0000000000000000000000000000000000000000000000000000000008152600401610897906113dc565b60405180910390fd5b81600460006101000a81548173ffffffffffffffffffffffffffffffffffffffff021916908373ffffffffffffffffffffffffffffffffffffffff16021790555060019050919050565b60006002600083815260200190815260200160002060009054906101000a900473ffffffffffffffffffffffffffffffffffffffff1673ffffffffffffffffffffffffffffffffffffffff16634c1786ea6040518163ffffffff1660e01b8152600401602060405180830381865afa15801561096a573d6000803e3d6000fd5b505050506040513d601f19601f8201168201806040525081019061098e91906112be565b9050919050565b600060036000838152602001908152602001600020549050919050565b60008060009054906101000a900473ffffffffffffffffffffffffffffffffffffffff16905090565b6109e3610de8565b6002600083815260200190815260200160002060009054906101000a900473ffffffffffffffffffffffffffffffffffffffff1673ffffffffffffffffffffffffffffffffffffffff1663bd9a548b6040518163ffffffff1660e01b815260040160a060405180830381865afa158015610a61573d6000803e3d6000fd5b505050506040513d601f19601f82011682018060405250810190610a859190611543565b9050919050565b60006002600083815260200190815260200160002060009054906101000a900473ffffffffffffffffffffffffffffffffffffffff1673ffffffffffffffffffffffffffffffffffffffff16638a5682996040518163ffffffff1660e01b8152600401602060405180830381865afa158015610b0c573d6000803e3d6000fd5b505050506040513d601f19601f82011682018060405250810190610b30919061127c565b9050919050565b60006002600083815260200190815260200160002060009054906101000a900473ffffffffffffffffffffffffffffffffffffffff1673ffffffffffffffffffffffffffffffffffffffff1663dbd0e1b66040518163ffffffff1660e01b8152600401602060405180830381865afa158015610bb7573d6000803e3d6000fd5b505050506040513d601f19601f82011682018060405250810190610bdb9190611300565b9050919050565b610bea610c8b565b600073ffffffffffffffffffffffffffffffffffffffff168173ffffffffffffffffffffffffffffffffffffffff1603610c59576040517f08c379a0000000000000000000000000000000000000000000000000000000008152600401610c50906115e2565b60405180910390fd5b610c6281610d09565b50565b600560009054906101000a900473ffffffffffffffffffffffffffffffffffffffff1681565b610c93610dcd565b73ffffffffffffffffffffffffffffffffffffffff16610cb16109b2565b73ffffffffffffffffffffffffffffffffffffffff1614610d07576040517f08c379a0000000000000000000000000000000000000000000000000000000008152600401610cfe9061164e565b60405180910390fd5b565b60008060009054906101000a900473ffffffffffffffffffffffffffffffffffffffff169050816000806101000a81548173ffffffffffffffffffffffffffffffffffffffff021916908373ffffffffffffffffffffffffffffffffffffffff1602179055508173ffffffffffffffffffffffffffffffffffffffff168173ffffffffffffffffffffffffffffffffffffffff167f8be0079c531659141344cd1fd0a4f28419497f9722a3daafe3b4186f6b6457e060405160405180910390a35050565b600033905090565b6040518060200160405280600081525090565b6040518060a00160405280600590602082028036833780820191505090505090565b6000604051905090565b600080fd5b6000819050919050565b610e2c81610e19565b8114610e3757600080fd5b50565b600081359050610e4981610e23565b92915050565b600060208284031215610e6557610e64610e14565b5b6000610e7384828501610e3a565b91505092915050565b600063ffffffff82169050919050565b610e9581610e7c565b82525050565b6000602082019050610eb06000830184610e8c565b92915050565b600073ffffffffffffffffffffffffffffffffffffffff82169050919050565b6000610ee182610eb6565b9050919050565b610ef181610ed6565b8114610efc57600080fd5b50565b600081359050610f0e81610ee8565b92915050565b600060208284031215610f2a57610f29610e14565b5b6000610f3884828501610eff565b91505092915050565b60008115159050919050565b610f5681610f41565b82525050565b6000602082019050610f716000830184610f4d565b92915050565b610f8081610e19565b82525050565b6000602082019050610f9b6000830184610f77565b92915050565b610faa81610ed6565b82525050565b6000602082019050610fc56000830184610fa1565b92915050565b60008060408385031215610fe257610fe1610e14565b5b6000610ff085828601610e3a565b925050602061100185828601610e3a565b9150509250929050565b61101481610e19565b82525050565b602082016000820151611030600085018261100b565b50505050565b600060208201905061104b600083018461101a565b92915050565b6000819050919050565b600061107661107161106c84610eb6565b611051565b610eb6565b9050919050565b60006110888261105b565b9050919050565b600061109a8261107d565b9050919050565b6110aa8161108f565b82525050565b60006020820190506110c560008301846110a1565b92915050565b7f4e487b7100000000000000000000000000000000000000000000000000000000600052602160045260246000fd5b6005811061110b5761110a6110cb565b5b50565b600081905061111c826110fa565b919050565b600061112c8261110e565b9050919050565b61113c81611121565b82525050565b60006020820190506111576000830184611133565b92915050565b600060059050919050565b600081905092915050565b6000819050919050565b6000611189838361100b565b60208301905092915050565b6000602082019050919050565b6111ab8161115d565b6111b58184611168565b92506111c082611173565b8060005b838110156111f15781516111d8878261117d565b96506111e383611195565b9250506001810190506111c4565b505050505050565b600060a08201905061120e60008301846111a2565b92915050565b600061121f8261107d565b9050919050565b61122f81611214565b82525050565b600060208201905061124a6000830184611226565b92915050565b61125981610e7c565b811461126457600080fd5b50565b60008151905061127681611250565b92915050565b60006020828403121561129257611291610e14565b5b60006112a084828501611267565b91505092915050565b6000815190506112b881610e23565b92915050565b6000602082840312156112d4576112d3610e14565b5b60006112e2848285016112a9565b91505092915050565b6000815190506112fa81610ee8565b92915050565b60006020828403121561131657611315610e14565b5b6000611324848285016112eb565b91505092915050565b6005811061133a57600080fd5b50565b60008151905061134c8161132d565b92915050565b60006020828403121561136857611367610e14565b5b60006113768482850161133d565b91505092915050565b600082825260208201905092915050565b7f496e76616c696420616464726573730000000000000000000000000000000000600082015250565b60006113c6600f8361137f565b91506113d182611390565b602082019050919050565b600060208201905081810360008301526113f5816113b9565b9050919050565b600080fd5b6000601f19601f8301169050919050565b7f4e487b7100000000000000000000000000000000000000000000000000000000600052604160045260246000fd5b61144a82611401565b810181811067ffffffffffffffff8211171561146957611468611412565b5b80604052505050565b600061147c610e0a565b90506114888282611441565b919050565b600067ffffffffffffffff8211156114a8576114a7611412565b5b602082029050919050565b600080fd5b60006114cb6114c68461148d565b611472565b905080602084028301858111156114e5576114e46114b3565b5b835b8181101561150e57806114fa88826112a9565b8452602084019350506020810190506114e7565b5050509392505050565b600082601f83011261152d5761152c6113fc565b5b600561153a8482856114b8565b91505092915050565b600060a0828403121561155957611558610e14565b5b600061156784828501611518565b91505092915050565b7f4f776e61626c653a206e6577206f776e657220697320746865207a65726f206160008201527f6464726573730000000000000000000000000000000000000000000000000000602082015250565b60006115cc60268361137f565b91506115d782611570565b604082019050919050565b600060208201905081810360008301526115fb816115bf565b9050919050565b7f4f776e61626c653a2063616c6c6572206973206e6f7420746865206f776e6572600082015250565b600061163860208361137f565b915061164382611602565b602082019050919050565b600060208201905081810360008301526116678161162b565b905091905056fea26469706673582212204d745b96bf3d6f3f2fcaa0b4d94864b796f4019d6b99b42841512a21776ad57664736f6c63430008100033",
  "immutableReferences": {},
  "source": "// SPDX-License-Identifier: MIT\npragma solidity ^0.8.7;\n\nimport './SwapHandler.sol';\nimport '@openzeppelin/contracts/access/Ownable.sol';\nimport '@openzeppelin/contracts/utils/math/SafeMath.sol';\nimport '@openzeppelin/contracts/token/ERC20/IERC20.sol';\n\ncontract AssetHandler is Ownable, SwapHandler {\n  using SafeMath for uint256;\n\n  IERC20 public token;\n\n  mapping(uint256 => uint256[2]) public deposits;\n\n  constructor() {}\n\n  function setToken(address _tokenAddress) external onlyOwner returns (bool) {\n    require(_tokenAddress != address(0));\n    token = IERC20(_tokenAddress);\n    return true;\n  }\n\n  function _sendDeposit(uint256 _swapId, bool _isBuyer) internal returns (bool) {\n    uint256 deposit;\n    if (_isBuyer) {\n      deposit = getPremium(_swapId).mul(4);\n      require(token.allowance(getBuyer(_swapId), address(this)) == deposit, \"Invalid allowance for deposit\");\n      token.transferFrom(getBuyer(_swapId), address(this), deposit);\n      deposits[_swapId][0] = deposit;\n    } else {\n      deposit = getSellerDeposit(_swapId);\n      require(token.allowance(getSeller(_swapId), address(this)) == deposit, \"Invalid allowance for deposit\");\n      token.transferFrom(getSeller(_swapId), address(this), deposit);\n      deposits[_swapId][1] = deposit;\n    }\n    return true;\n  }\n\n  function _sendFirstPremium(uint256 _swapId) internal returns (bool) {\n    bool sent = token.transfer(getSeller(_swapId), getPremium(_swapId));\n    require(sent, 'Sending first premium failed');\n    deposits[_swapId][0] -= getPremium(_swapId);\n    getSwap(_swapId).setRounds(getRounds(_swapId) - 1);\n    return true;\n  }\n\n  function _endSwap(uint256 _swapId) internal returns (bool) {\n    address[2] memory participants = [getBuyer(_swapId), getSeller(_swapId)];\n    for (uint i = 0; i <= 1; i++) {\n      uint256 deposit = deposits[_swapId][i];\n      if (deposit != 0) {\n        bool sent = token.transfer(participants[i], deposit);\n        require(sent, 'Sending deposit back failed');\n      }\n    }\n    clearDeposit(_swapId);\n    return true;\n  }\n\n  function _afterClaim(uint256 _swapId) internal returns (uint256) {\n    uint256 claimReward = getSwap(_swapId).getClaimReward();\n    bool sentBuyer = token.transfer(\n      getBuyer(_swapId),\n      claimReward + deposits[_swapId][0]\n    );\n    bool sentSeller = token.transfer(\n      getSeller(_swapId),\n      deposits[_swapId][1] - claimReward\n    );\n    require(sentBuyer && sentSeller, 'Sending reward failed');\n    clearDeposit(_swapId);\n    return claimReward;\n  }\n\n  function _expire(\n    uint256 _swapId\n  ) internal isSeller(_swapId) isActive(_swapId) {\n    bool byRounds = ((block.timestamp >= getNextPayDate(_swapId)) &&\n      (getTotalRounds(_swapId) == 0));\n    bool byDate = ((block.timestamp >= getNextPayDate(_swapId)) &&\n      (deposits[_swapId][0] == 0));\n    require(byDate || byRounds, 'Buyer deposit / Rounds remaining');\n    getSwap(_swapId).setStatus(Swap.Status.expired);\n  }\n\n  function clearDeposit(uint256 swapId) private {\n    for (uint i = 0; i <= 1; i++) {\n      deposits[swapId][i] = 0;\n    }\n  }\n}\n\n",
  "sourcePath": "/Users/sdh/Study/BEB_07/projects/CDS/contract/contracts/Handler/AssetHandler.sol",
  "compiler": {
    "name": "solc",
    "version": "0.8.16+commit.07a7930e.Emscripten.clang"
  },
  "schemaVersion": "3.4.9",
  "updatedAt": "2023-02-08T07:56:03.851Z",
  "devdoc": {
    "kind": "dev",
    "methods": {
      "owner()": {
        "details": "Returns the address of the current owner."
      },
      "renounceOwnership()": {
        "details": "Leaves the contract without owner. It will not be possible to call `onlyOwner` functions anymore. Can only be called by the current owner. NOTE: Renouncing ownership will leave the contract without an owner, thereby removing any functionality that is only available to the owner."
      },
      "transferOwnership(address)": {
        "details": "Transfers ownership of the contract to a new account (`newOwner`). Can only be called by the current owner."
      }
    },
    "version": 1
  },
  "userdoc": {
    "kind": "user",
    "methods": {},
    "version": 1
  }
}