{
  "contractName": "AssetHandler",
  "abi": [
    {
      "inputs": [],
      "stateMutability": "nonpayable",
      "type": "constructor"
    },
    {
      "anonymous": false,
      "inputs": [
        {
          "indexed": true,
          "internalType": "address",
          "name": "previousOwner",
          "type": "address"
        },
        {
          "indexed": true,
          "internalType": "address",
          "name": "newOwner",
          "type": "address"
        }
      ],
      "name": "OwnershipTransferred",
      "type": "event"
    },
    {
      "inputs": [
        {
          "internalType": "uint256",
          "name": "",
          "type": "uint256"
        },
        {
          "internalType": "uint256",
          "name": "",
          "type": "uint256"
        }
      ],
      "name": "deposits",
      "outputs": [
        {
          "internalType": "uint256",
          "name": "",
          "type": "uint256"
        }
      ],
      "stateMutability": "view",
      "type": "function"
    },
    {
      "inputs": [
        {
          "internalType": "uint256",
          "name": "swapId",
          "type": "uint256"
        }
      ],
      "name": "getBuyer",
      "outputs": [
        {
          "internalType": "address",
          "name": "",
          "type": "address"
        }
      ],
      "stateMutability": "view",
      "type": "function"
    },
    {
      "inputs": [
        {
          "internalType": "uint256",
          "name": "swapId",
          "type": "uint256"
        }
      ],
      "name": "getInterval",
      "outputs": [
        {
          "internalType": "uint256",
          "name": "",
          "type": "uint256"
        }
      ],
      "stateMutability": "view",
      "type": "function"
    },
    {
      "inputs": [
        {
          "internalType": "uint256",
          "name": "swapId",
          "type": "uint256"
        }
      ],
      "name": "getNextPayDate",
      "outputs": [
        {
          "internalType": "uint256",
          "name": "",
          "type": "uint256"
        }
      ],
      "stateMutability": "view",
      "type": "function"
    },
    {
      "inputs": [
        {
          "internalType": "uint256",
          "name": "swapId",
          "type": "uint256"
        }
      ],
      "name": "getPremium",
      "outputs": [
        {
          "internalType": "uint256",
          "name": "",
          "type": "uint256"
        }
      ],
      "stateMutability": "view",
      "type": "function"
    },
    {
      "inputs": [
        {
          "internalType": "uint256",
          "name": "swapId",
          "type": "uint256"
        }
      ],
      "name": "getPrices",
      "outputs": [
        {
          "internalType": "uint256[5]",
          "name": "",
          "type": "uint256[5]"
        }
      ],
      "stateMutability": "view",
      "type": "function"
    },
    {
      "inputs": [
        {
          "internalType": "uint256",
          "name": "swapId",
          "type": "uint256"
        }
      ],
      "name": "getRounds",
      "outputs": [
        {
          "internalType": "uint32",
          "name": "",
          "type": "uint32"
        }
      ],
      "stateMutability": "view",
      "type": "function"
    },
    {
      "inputs": [
        {
          "internalType": "uint256",
          "name": "swapId",
          "type": "uint256"
        }
      ],
      "name": "getSeller",
      "outputs": [
        {
          "internalType": "address",
          "name": "",
          "type": "address"
        }
      ],
      "stateMutability": "view",
      "type": "function"
    },
    {
      "inputs": [
        {
          "internalType": "uint256",
          "name": "swapId",
          "type": "uint256"
        }
      ],
      "name": "getSellerDeposit",
      "outputs": [
        {
          "internalType": "uint256",
          "name": "",
          "type": "uint256"
        }
      ],
      "stateMutability": "view",
      "type": "function"
    },
    {
      "inputs": [
        {
          "internalType": "uint256",
          "name": "swapId",
          "type": "uint256"
        }
      ],
      "name": "getStatus",
      "outputs": [
        {
          "internalType": "enum Swap.Status",
          "name": "",
          "type": "uint8"
        }
      ],
      "stateMutability": "view",
      "type": "function"
    },
    {
      "inputs": [
        {
          "internalType": "uint256",
          "name": "swapId",
          "type": "uint256"
        }
      ],
      "name": "getSwap",
      "outputs": [
        {
          "internalType": "contract Swap",
          "name": "",
          "type": "address"
        }
      ],
      "stateMutability": "view",
      "type": "function"
    },
    {
      "inputs": [],
      "name": "getSwapId",
      "outputs": [
        {
          "components": [
            {
              "internalType": "uint256",
              "name": "_value",
              "type": "uint256"
            }
          ],
          "internalType": "struct Counters.Counter",
          "name": "",
          "type": "tuple"
        }
      ],
      "stateMutability": "view",
      "type": "function"
    },
    {
      "inputs": [
        {
          "internalType": "uint256",
          "name": "swapId",
          "type": "uint256"
        }
      ],
      "name": "getTotalRounds",
      "outputs": [
        {
          "internalType": "uint32",
          "name": "",
          "type": "uint32"
        }
      ],
      "stateMutability": "view",
      "type": "function"
    },
    {
      "inputs": [],
      "name": "owner",
      "outputs": [
        {
          "internalType": "address",
          "name": "",
          "type": "address"
        }
      ],
      "stateMutability": "view",
      "type": "function"
    },
    {
      "inputs": [],
      "name": "priceOracle",
      "outputs": [
        {
          "internalType": "address",
          "name": "",
          "type": "address"
        }
      ],
      "stateMutability": "view",
      "type": "function"
    },
    {
      "inputs": [],
      "name": "renounceOwnership",
      "outputs": [],
      "stateMutability": "nonpayable",
      "type": "function"
    },
    {
      "inputs": [
        {
          "internalType": "address",
          "name": "_priceOracleAddress",
          "type": "address"
        }
      ],
      "name": "setOracle",
      "outputs": [
        {
          "internalType": "bool",
          "name": "",
          "type": "bool"
        }
      ],
      "stateMutability": "nonpayable",
      "type": "function"
    },
    {
      "inputs": [],
      "name": "token",
      "outputs": [
        {
          "internalType": "contract IERC20",
          "name": "",
          "type": "address"
        }
      ],
      "stateMutability": "view",
      "type": "function"
    },
    {
      "inputs": [
        {
          "internalType": "address",
          "name": "newOwner",
          "type": "address"
        }
      ],
      "name": "transferOwnership",
      "outputs": [],
      "stateMutability": "nonpayable",
      "type": "function"
    },
    {
      "inputs": [
        {
          "internalType": "address",
          "name": "_tokenAddress",
          "type": "address"
        }
      ],
      "name": "setToken",
      "outputs": [
        {
          "internalType": "bool",
          "name": "",
          "type": "bool"
        }
      ],
      "stateMutability": "nonpayable",
      "type": "function"
    }
  ],
  "bytecode": "0x608060405234801561001057600080fd5b5061002d61002261003260201b60201c565b61003a60201b60201c565b6100fe565b600033905090565b60008060009054906101000a900473ffffffffffffffffffffffffffffffffffffffff169050816000806101000a81548173ffffffffffffffffffffffffffffffffffffffff021916908373ffffffffffffffffffffffffffffffffffffffff1602179055508173ffffffffffffffffffffffffffffffffffffffff168173ffffffffffffffffffffffffffffffffffffffff167f8be0079c531659141344cd1fd0a4f28419497f9722a3daafe3b4186f6b6457e060405160405180910390a35050565b61178a8061010d6000396000f3fe608060405234801561001057600080fd5b506004361061012c5760003560e01c8063715018a6116100ad578063914929561161007157806391492956146103a5578063967fe6f1146103d5578063d6a9de5114610405578063f2fde38b14610435578063fc0c546a146104515761012c565b8063715018a6146102ed5780637adbf973146102f757806388106323146103275780638bfd13ae146103575780638da5cb5b146103875761012c565b8063496ab39a116100f4578063496ab39a1461020f5780634a0d89ba1461022d5780635bf608b81461025d5780635c622a0e1461028d578063616e9f8f146102bd5761012c565b806313ef3dcc14610131578063144fa6d7146101615780631bf1fffb146101915780632630c12f146101c15780632bd49780146101df575b600080fd5b61014b60048036038101906101469190610f35565b61046f565b6040516101589190610f81565b60405180910390f35b61017b60048036038101906101769190610ffa565b61051a565b6040516101889190611042565b60405180910390f35b6101ab60048036038101906101a69190610f35565b6105a7565b6040516101b8919061106c565b60405180910390f35b6101c9610652565b6040516101d69190611096565b60405180910390f35b6101f960048036038101906101f491906110b1565b610678565b604051610206919061106c565b60405180910390f35b6102176106a0565b604051610224919061111c565b60405180910390f35b61024760048036038101906102429190610f35565b6106c4565b6040516102549190611196565b60405180910390f35b61027760048036038101906102729190610f35565b610701565b6040516102849190611096565b60405180910390f35b6102a760048036038101906102a29190610f35565b6107ac565b6040516102b49190611228565b60405180910390f35b6102d760048036038101906102d29190610f35565b610857565b6040516102e4919061106c565b60405180910390f35b6102f5610902565b005b610311600480360381019061030c9190610ffa565b610916565b60405161031e9190611042565b60405180910390f35b610341600480360381019061033c9190610f35565b6109d0565b60405161034e919061106c565b60405180910390f35b610371600480360381019061036c9190610f35565b610a7b565b60405161037e919061106c565b60405180910390f35b61038f610a98565b60405161039c9190611096565b60405180910390f35b6103bf60048036038101906103ba9190610f35565b610ac1565b6040516103cc91906112df565b60405180910390f35b6103ef60048036038101906103ea9190610f35565b610b72565b6040516103fc9190610f81565b60405180910390f35b61041f600480360381019061041a9190610f35565b610c1d565b60405161042c9190611096565b60405180910390f35b61044f600480360381019061044a9190610ffa565b610cc8565b005b610459610d4b565b604051610466919061131b565b60405180910390f35b60006002600083815260200190815260200160002060009054906101000a900473ffffffffffffffffffffffffffffffffffffffff1673ffffffffffffffffffffffffffffffffffffffff1663a2e800ad6040518163ffffffff1660e01b8152600401602060405180830381865afa1580156104ef573d6000803e3d6000fd5b505050506040513d601f19601f820116820180604052508101906105139190611362565b9050919050565b6000610524610d71565b600073ffffffffffffffffffffffffffffffffffffffff168273ffffffffffffffffffffffffffffffffffffffff160361055d57600080fd5b81600560006101000a81548173ffffffffffffffffffffffffffffffffffffffff021916908373ffffffffffffffffffffffffffffffffffffffff16021790555060019050919050565b60006002600083815260200190815260200160002060009054906101000a900473ffffffffffffffffffffffffffffffffffffffff1673ffffffffffffffffffffffffffffffffffffffff1663e0a73a936040518163ffffffff1660e01b8152600401602060405180830381865afa158015610627573d6000803e3d6000fd5b505050506040513d601f19601f8201168201806040525081019061064b91906113a4565b9050919050565b600460009054906101000a900473ffffffffffffffffffffffffffffffffffffffff1681565b6006602052816000526040600020816002811061069457600080fd5b01600091509150505481565b6106a8610ebb565b6001604051806020016040529081600082015481525050905090565b60006002600083815260200190815260200160002060009054906101000a900473ffffffffffffffffffffffffffffffffffffffff169050919050565b60006002600083815260200190815260200160002060009054906101000a900473ffffffffffffffffffffffffffffffffffffffff1673ffffffffffffffffffffffffffffffffffffffff1663603daf9a6040518163ffffffff1660e01b8152600401602060405180830381865afa158015610781573d6000803e3d6000fd5b505050506040513d601f19601f820116820180604052508101906107a591906113e6565b9050919050565b60006002600083815260200190815260200160002060009054906101000a900473ffffffffffffffffffffffffffffffffffffffff1673ffffffffffffffffffffffffffffffffffffffff1663200d2ed26040518163ffffffff1660e01b8152600401602060405180830381865afa15801561082c573d6000803e3d6000fd5b505050506040513d601f19601f820116820180604052508101906108509190611438565b9050919050565b60006002600083815260200190815260200160002060009054906101000a900473ffffffffffffffffffffffffffffffffffffffff1673ffffffffffffffffffffffffffffffffffffffff1663947a36fb6040518163ffffffff1660e01b8152600401602060405180830381865afa1580156108d7573d6000803e3d6000fd5b505050506040513d601f19601f820116820180604052508101906108fb91906113a4565b9050919050565b61090a610d71565b6109146000610def565b565b60008073ffffffffffffffffffffffffffffffffffffffff168273ffffffffffffffffffffffffffffffffffffffff1603610986576040517f08c379a000000000000000000000000000000000000000000000000000000000815260040161097d906114c2565b60405180910390fd5b81600460006101000a81548173ffffffffffffffffffffffffffffffffffffffff021916908373ffffffffffffffffffffffffffffffffffffffff16021790555060019050919050565b60006002600083815260200190815260200160002060009054906101000a900473ffffffffffffffffffffffffffffffffffffffff1673ffffffffffffffffffffffffffffffffffffffff16634c1786ea6040518163ffffffff1660e01b8152600401602060405180830381865afa158015610a50573d6000803e3d6000fd5b505050506040513d601f19601f82011682018060405250810190610a7491906113a4565b9050919050565b600060036000838152602001908152602001600020549050919050565b60008060009054906101000a900473ffffffffffffffffffffffffffffffffffffffff16905090565b610ac9610ece565b6002600083815260200190815260200160002060009054906101000a900473ffffffffffffffffffffffffffffffffffffffff1673ffffffffffffffffffffffffffffffffffffffff1663bd9a548b6040518163ffffffff1660e01b815260040160a060405180830381865afa158015610b47573d6000803e3d6000fd5b505050506040513d601f19601f82011682018060405250810190610b6b9190611629565b9050919050565b60006002600083815260200190815260200160002060009054906101000a900473ffffffffffffffffffffffffffffffffffffffff1673ffffffffffffffffffffffffffffffffffffffff16638a5682996040518163ffffffff1660e01b8152600401602060405180830381865afa158015610bf2573d6000803e3d6000fd5b505050506040513d601f19601f82011682018060405250810190610c169190611362565b9050919050565b60006002600083815260200190815260200160002060009054906101000a900473ffffffffffffffffffffffffffffffffffffffff1673ffffffffffffffffffffffffffffffffffffffff1663dbd0e1b66040518163ffffffff1660e01b8152600401602060405180830381865afa158015610c9d573d6000803e3d6000fd5b505050506040513d601f19601f82011682018060405250810190610cc191906113e6565b9050919050565b610cd0610d71565b600073ffffffffffffffffffffffffffffffffffffffff168173ffffffffffffffffffffffffffffffffffffffff1603610d3f576040517f08c379a0000000000000000000000000000000000000000000000000000000008152600401610d36906116c8565b60405180910390fd5b610d4881610def565b50565b600560009054906101000a900473ffffffffffffffffffffffffffffffffffffffff1681565b610d79610eb3565b73ffffffffffffffffffffffffffffffffffffffff16610d97610a98565b73ffffffffffffffffffffffffffffffffffffffff1614610ded576040517f08c379a0000000000000000000000000000000000000000000000000000000008152600401610de490611734565b60405180910390fd5b565b60008060009054906101000a900473ffffffffffffffffffffffffffffffffffffffff169050816000806101000a81548173ffffffffffffffffffffffffffffffffffffffff021916908373ffffffffffffffffffffffffffffffffffffffff1602179055508173ffffffffffffffffffffffffffffffffffffffff168173ffffffffffffffffffffffffffffffffffffffff167f8be0079c531659141344cd1fd0a4f28419497f9722a3daafe3b4186f6b6457e060405160405180910390a35050565b600033905090565b6040518060200160405280600081525090565b6040518060a00160405280600590602082028036833780820191505090505090565b6000604051905090565b600080fd5b6000819050919050565b610f1281610eff565b8114610f1d57600080fd5b50565b600081359050610f2f81610f09565b92915050565b600060208284031215610f4b57610f4a610efa565b5b6000610f5984828501610f20565b91505092915050565b600063ffffffff82169050919050565b610f7b81610f62565b82525050565b6000602082019050610f966000830184610f72565b92915050565b600073ffffffffffffffffffffffffffffffffffffffff82169050919050565b6000610fc782610f9c565b9050919050565b610fd781610fbc565b8114610fe257600080fd5b50565b600081359050610ff481610fce565b92915050565b6000602082840312156110105761100f610efa565b5b600061101e84828501610fe5565b91505092915050565b60008115159050919050565b61103c81611027565b82525050565b60006020820190506110576000830184611033565b92915050565b61106681610eff565b82525050565b6000602082019050611081600083018461105d565b92915050565b61109081610fbc565b82525050565b60006020820190506110ab6000830184611087565b92915050565b600080604083850312156110c8576110c7610efa565b5b60006110d685828601610f20565b92505060206110e785828601610f20565b9150509250929050565b6110fa81610eff565b82525050565b60208201600082015161111660008501826110f1565b50505050565b60006020820190506111316000830184611100565b92915050565b6000819050919050565b600061115c61115761115284610f9c565b611137565b610f9c565b9050919050565b600061116e82611141565b9050919050565b600061118082611163565b9050919050565b61119081611175565b82525050565b60006020820190506111ab6000830184611187565b92915050565b7f4e487b7100000000000000000000000000000000000000000000000000000000600052602160045260246000fd5b600581106111f1576111f06111b1565b5b50565b6000819050611202826111e0565b919050565b6000611212826111f4565b9050919050565b61122281611207565b82525050565b600060208201905061123d6000830184611219565b92915050565b600060059050919050565b600081905092915050565b6000819050919050565b600061126f83836110f1565b60208301905092915050565b6000602082019050919050565b61129181611243565b61129b818461124e565b92506112a682611259565b8060005b838110156112d75781516112be8782611263565b96506112c98361127b565b9250506001810190506112aa565b505050505050565b600060a0820190506112f46000830184611288565b92915050565b600061130582611163565b9050919050565b611315816112fa565b82525050565b6000602082019050611330600083018461130c565b92915050565b61133f81610f62565b811461134a57600080fd5b50565b60008151905061135c81611336565b92915050565b60006020828403121561137857611377610efa565b5b60006113868482850161134d565b91505092915050565b60008151905061139e81610f09565b92915050565b6000602082840312156113ba576113b9610efa565b5b60006113c88482850161138f565b91505092915050565b6000815190506113e081610fce565b92915050565b6000602082840312156113fc576113fb610efa565b5b600061140a848285016113d1565b91505092915050565b6005811061142057600080fd5b50565b60008151905061143281611413565b92915050565b60006020828403121561144e5761144d610efa565b5b600061145c84828501611423565b91505092915050565b600082825260208201905092915050565b7f496e76616c696420616464726573730000000000000000000000000000000000600082015250565b60006114ac600f83611465565b91506114b782611476565b602082019050919050565b600060208201905081810360008301526114db8161149f565b9050919050565b600080fd5b6000601f19601f8301169050919050565b7f4e487b7100000000000000000000000000000000000000000000000000000000600052604160045260246000fd5b611530826114e7565b810181811067ffffffffffffffff8211171561154f5761154e6114f8565b5b80604052505050565b6000611562610ef0565b905061156e8282611527565b919050565b600067ffffffffffffffff82111561158e5761158d6114f8565b5b602082029050919050565b600080fd5b60006115b16115ac84611573565b611558565b905080602084028301858111156115cb576115ca611599565b5b835b818110156115f457806115e0888261138f565b8452602084019350506020810190506115cd565b5050509392505050565b600082601f830112611613576116126114e2565b5b600561162084828561159e565b91505092915050565b600060a0828403121561163f5761163e610efa565b5b600061164d848285016115fe565b91505092915050565b7f4f776e61626c653a206e6577206f776e657220697320746865207a65726f206160008201527f6464726573730000000000000000000000000000000000000000000000000000602082015250565b60006116b2602683611465565b91506116bd82611656565b604082019050919050565b600060208201905081810360008301526116e1816116a5565b9050919050565b7f4f776e61626c653a2063616c6c6572206973206e6f7420746865206f776e6572600082015250565b600061171e602083611465565b9150611729826116e8565b602082019050919050565b6000602082019050818103600083015261174d81611711565b905091905056fea26469706673582212206bf22c02dfbe03d2de3ca68374a22528e0513010a3767c58d5edcd4da82a78e364736f6c63430008100033",
  "immutableReferences": {},
  "source": "// SPDX-License-Identifier: MIT\npragma solidity ^0.8.7;\n\nimport './SwapHandler.sol';\nimport '@openzeppelin/contracts/access/Ownable.sol';\nimport '@openzeppelin/contracts/utils/math/SafeMath.sol';\nimport '@openzeppelin/contracts/token/ERC20/IERC20.sol';\n\ncontract AssetHandler is Ownable, SwapHandler {\n  using SafeMath for uint256;\n\n  IERC20 public token;\n\n  mapping(uint256 => uint256[2]) public deposits;\n\n  constructor() {}\n\n  function setToken(address _tokenAddress) external onlyOwner returns (bool) {\n    require(_tokenAddress != address(0));\n    token = IERC20(_tokenAddress);\n    return true;\n  }\n\n  function _sendDeposit(uint256 _swapId, bool _isBuyer) internal returns (bool) {\n    uint256 deposit;\n    if (_isBuyer) {\n      deposit = getPremium(_swapId).mul(4);\n      require(token.allowance(getBuyer(_swapId), address(this)) == deposit, \"Invalid allowance for deposit\");\n      token.transferFrom(getBuyer(_swapId), address(this), deposit);\n      deposits[_swapId][0] = deposit;\n    } else {\n      deposit = getSellerDeposit(_swapId);\n      require(token.allowance(getSeller(_swapId), address(this)) == deposit, \"Invalid allowance for deposit\");\n      token.transferFrom(getSeller(_swapId), address(this), deposit);\n      deposits[_swapId][1] = deposit;\n    }\n    return true;\n  }\n\n  function _sendFirstPremium(uint256 _swapId) internal returns (bool) {\n    bool sent = token.transfer(getSeller(_swapId), getPremium(_swapId));\n    require(sent, 'Sending first premium failed');\n    deposits[_swapId][0] -= getPremium(_swapId);\n    getSwap(_swapId).setRounds(getRounds(_swapId) - 1);\n    return true;\n  }\n\n  function _endSwap(uint256 _swapId) internal returns (bool) {\n    address[2] memory participants = [getBuyer(_swapId), getSeller(_swapId)];\n    for (uint i = 0; i <= 1; i++) {\n      uint256 deposit = deposits[_swapId][i];\n      if (deposit != 0) {\n        bool sent = token.transfer(participants[i], deposit);\n        require(sent, 'Sending deposit back failed');\n      }\n    }\n    clearDeposit(_swapId);\n    return true;\n  }\n\n  function _afterClaim(uint256 _swapId) internal returns (uint256) {\n    uint256 claimReward = getSwap(_swapId).getClaimReward();\n    bool sentBuyer = token.transfer(\n      getBuyer(_swapId),\n      claimReward + deposits[_swapId][0]\n    );\n    bool sentSeller = token.transfer(\n      getSeller(_swapId),\n      deposits[_swapId][1] - claimReward\n    );\n    require(sentBuyer && sentSeller, 'Sending reward failed');\n    clearDeposit(_swapId);\n    return claimReward;\n  }\n\n  function _expire(\n    uint256 _swapId\n  ) internal isSeller(_swapId) isActive(_swapId) {\n    bool byRounds = ((block.timestamp >= getNextPayDate(_swapId)) &&\n      (getTotalRounds(_swapId) == 0));\n    bool byDate = ((block.timestamp >= getNextPayDate(_swapId)) &&\n      (deposits[_swapId][0] == 0));\n    require(byDate || byRounds, 'Buyer deposit / Rounds remaining');\n    getSwap(_swapId).setStatus(Swap.Status.expired);\n  }\n\n  function clearDeposit(uint256 swapId) private {\n    for (uint i = 0; i <= 1; i++) {\n      deposits[swapId][i] = 0;\n    }\n  }\n}\n\n",
  "sourcePath": "/Users/sdh/Study/BEB_07/projects/CDS/contract/contracts/Handler/AssetHandler.sol",
  "compiler": {
    "name": "solc",
    "version": "0.8.16+commit.07a7930e.Emscripten.clang"
  },
  "schemaVersion": "3.4.9",
  "updatedAt": "2023-02-08T05:58:46.201Z",
  "devdoc": {
    "kind": "dev",
    "methods": {
      "owner()": {
        "details": "Returns the address of the current owner."
      },
      "renounceOwnership()": {
        "details": "Leaves the contract without owner. It will not be possible to call `onlyOwner` functions anymore. Can only be called by the current owner. NOTE: Renouncing ownership will leave the contract without an owner, thereby removing any functionality that is only available to the owner."
      },
      "transferOwnership(address)": {
        "details": "Transfers ownership of the contract to a new account (`newOwner`). Can only be called by the current owner."
      }
    },
    "version": 1
  },
  "userdoc": {
    "kind": "user",
    "methods": {},
    "version": 1
  }
}