{
  "contractName": "AssetHandler",
  "abi": [
    {
      "inputs": [],
      "stateMutability": "nonpayable",
      "type": "constructor"
    },
    {
      "anonymous": false,
      "inputs": [
        {
          "indexed": true,
          "internalType": "address",
          "name": "previousOwner",
          "type": "address"
        },
        {
          "indexed": true,
          "internalType": "address",
          "name": "newOwner",
          "type": "address"
        }
      ],
      "name": "OwnershipTransferred",
      "type": "event"
    },
    {
      "inputs": [
        {
          "internalType": "uint256",
          "name": "",
          "type": "uint256"
        },
        {
          "internalType": "uint256",
          "name": "",
          "type": "uint256"
        }
      ],
      "name": "deposits",
      "outputs": [
        {
          "internalType": "uint256",
          "name": "",
          "type": "uint256"
        }
      ],
      "stateMutability": "view",
      "type": "function"
    },
    {
      "inputs": [
        {
          "internalType": "uint256",
          "name": "swapId",
          "type": "uint256"
        }
      ],
      "name": "getBuyer",
      "outputs": [
        {
          "internalType": "address",
          "name": "",
          "type": "address"
        }
      ],
      "stateMutability": "view",
      "type": "function"
    },
    {
      "inputs": [
        {
          "internalType": "uint256",
          "name": "swapId",
          "type": "uint256"
        }
      ],
      "name": "getPremium",
      "outputs": [
        {
          "internalType": "uint256",
          "name": "",
          "type": "uint256"
        }
      ],
      "stateMutability": "view",
      "type": "function"
    },
    {
      "inputs": [
        {
          "internalType": "uint256",
          "name": "swapId",
          "type": "uint256"
        }
      ],
      "name": "getPrices",
      "outputs": [
        {
          "internalType": "uint256[5]",
          "name": "",
          "type": "uint256[5]"
        }
      ],
      "stateMutability": "view",
      "type": "function"
    },
    {
      "inputs": [
        {
          "internalType": "uint256",
          "name": "swapId",
          "type": "uint256"
        }
      ],
      "name": "getRounds",
      "outputs": [
        {
          "internalType": "uint32",
          "name": "",
          "type": "uint32"
        }
      ],
      "stateMutability": "view",
      "type": "function"
    },
    {
      "inputs": [
        {
          "internalType": "uint256",
          "name": "swapId",
          "type": "uint256"
        }
      ],
      "name": "getSeller",
      "outputs": [
        {
          "internalType": "address",
          "name": "",
          "type": "address"
        }
      ],
      "stateMutability": "view",
      "type": "function"
    },
    {
      "inputs": [
        {
          "internalType": "uint256",
          "name": "swapId",
          "type": "uint256"
        }
      ],
      "name": "getSellerDeposit",
      "outputs": [
        {
          "internalType": "uint256",
          "name": "",
          "type": "uint256"
        }
      ],
      "stateMutability": "view",
      "type": "function"
    },
    {
      "inputs": [
        {
          "internalType": "uint256",
          "name": "swapId",
          "type": "uint256"
        }
      ],
      "name": "getStatus",
      "outputs": [
        {
          "internalType": "enum Swap.Status",
          "name": "",
          "type": "uint8"
        }
      ],
      "stateMutability": "view",
      "type": "function"
    },
    {
      "inputs": [
        {
          "internalType": "uint256",
          "name": "swapId",
          "type": "uint256"
        }
      ],
      "name": "getSwap",
      "outputs": [
        {
          "internalType": "contract Swap",
          "name": "",
          "type": "address"
        }
      ],
      "stateMutability": "view",
      "type": "function"
    },
    {
      "inputs": [],
      "name": "getSwapId",
      "outputs": [
        {
          "components": [
            {
              "internalType": "uint256",
              "name": "_value",
              "type": "uint256"
            }
          ],
          "internalType": "struct Counters.Counter",
          "name": "",
          "type": "tuple"
        }
      ],
      "stateMutability": "view",
      "type": "function"
    },
    {
      "inputs": [
        {
          "internalType": "uint256",
          "name": "",
          "type": "uint256"
        }
      ],
      "name": "nextPayDate",
      "outputs": [
        {
          "internalType": "uint256",
          "name": "",
          "type": "uint256"
        }
      ],
      "stateMutability": "view",
      "type": "function"
    },
    {
      "inputs": [],
      "name": "owner",
      "outputs": [
        {
          "internalType": "address",
          "name": "",
          "type": "address"
        }
      ],
      "stateMutability": "view",
      "type": "function"
    },
    {
      "inputs": [],
      "name": "renounceOwnership",
      "outputs": [],
      "stateMutability": "nonpayable",
      "type": "function"
    },
    {
      "inputs": [],
      "name": "token",
      "outputs": [
        {
          "internalType": "contract IERC20",
          "name": "",
          "type": "address"
        }
      ],
      "stateMutability": "view",
      "type": "function"
    },
    {
      "inputs": [
        {
          "internalType": "address",
          "name": "newOwner",
          "type": "address"
        }
      ],
      "name": "transferOwnership",
      "outputs": [],
      "stateMutability": "nonpayable",
      "type": "function"
    }
  ],
  "bytecode": "0x608060405234801561001057600080fd5b5061002d61002261008760201b60201c565b61008f60201b60201c565b73be4983558f83cf015be7a68f7f3fe591c151c2b9600460006101000a81548173ffffffffffffffffffffffffffffffffffffffff021916908373ffffffffffffffffffffffffffffffffffffffff160217905550610153565b600033905090565b60008060009054906101000a900473ffffffffffffffffffffffffffffffffffffffff169050816000806101000a81548173ffffffffffffffffffffffffffffffffffffffff021916908373ffffffffffffffffffffffffffffffffffffffff1602179055508173ffffffffffffffffffffffffffffffffffffffff168173ffffffffffffffffffffffffffffffffffffffff167f8be0079c531659141344cd1fd0a4f28419497f9722a3daafe3b4186f6b6457e060405160405180910390a35050565b61130b806101626000396000f3fe608060405234801561001057600080fd5b50600436106100f55760003560e01c80635c622a0e11610097578063914929561161006657806391492956146102c0578063d6a9de51146102f0578063f2fde38b14610320578063fc0c546a1461033c576100f5565b80635c622a0e14610238578063715018a61461026857806388106323146102725780638da5cb5b146102a2576100f5565b806344a9d244116100d357806344a9d2441461018a578063496ab39a146101ba5780634a0d89ba146101d85780635bf608b814610208576100f5565b806313ef3dcc146100fa5780631bf1fffb1461012a5780632bd497801461015a575b600080fd5b610114600480360381019061010f9190610b58565b61035a565b6040516101219190610ba4565b60405180910390f35b610144600480360381019061013f9190610b58565b610405565b6040516101519190610bce565b60405180910390f35b610174600480360381019061016f9190610be9565b6104b0565b6040516101819190610bce565b60405180910390f35b6101a4600480360381019061019f9190610b58565b6104d8565b6040516101b19190610bce565b60405180910390f35b6101c26104f0565b6040516101cf9190610c54565b60405180910390f35b6101f260048036038101906101ed9190610b58565b610514565b6040516101ff9190610cee565b60405180910390f35b610222600480360381019061021d9190610b58565b610551565b60405161022f9190610d2a565b60405180910390f35b610252600480360381019061024d9190610b58565b6105fc565b60405161025f9190610dbc565b60405180910390f35b6102706106a7565b005b61028c60048036038101906102879190610b58565b6106bb565b6040516102999190610bce565b60405180910390f35b6102aa610766565b6040516102b79190610d2a565b60405180910390f35b6102da60048036038101906102d59190610b58565b61078f565b6040516102e79190610e73565b60405180910390f35b61030a60048036038101906103059190610b58565b610840565b6040516103179190610d2a565b60405180910390f35b61033a60048036038101906103359190610eba565b6108eb565b005b61034461096e565b6040516103519190610f08565b60405180910390f35b60006002600083815260200190815260200160002060009054906101000a900473ffffffffffffffffffffffffffffffffffffffff1673ffffffffffffffffffffffffffffffffffffffff1663a2e800ad6040518163ffffffff1660e01b8152600401602060405180830381865afa1580156103da573d6000803e3d6000fd5b505050506040513d601f19601f820116820180604052508101906103fe9190610f4f565b9050919050565b60006002600083815260200190815260200160002060009054906101000a900473ffffffffffffffffffffffffffffffffffffffff1673ffffffffffffffffffffffffffffffffffffffff1663e0a73a936040518163ffffffff1660e01b8152600401602060405180830381865afa158015610485573d6000803e3d6000fd5b505050506040513d601f19601f820116820180604052508101906104a99190610f91565b9050919050565b600560205281600052604060002081600281106104cc57600080fd5b01600091509150505481565b60036020528060005260406000206000915090505481565b6104f8610ade565b6001604051806020016040529081600082015481525050905090565b60006002600083815260200190815260200160002060009054906101000a900473ffffffffffffffffffffffffffffffffffffffff169050919050565b60006002600083815260200190815260200160002060009054906101000a900473ffffffffffffffffffffffffffffffffffffffff1673ffffffffffffffffffffffffffffffffffffffff1663603daf9a6040518163ffffffff1660e01b8152600401602060405180830381865afa1580156105d1573d6000803e3d6000fd5b505050506040513d601f19601f820116820180604052508101906105f59190610fd3565b9050919050565b60006002600083815260200190815260200160002060009054906101000a900473ffffffffffffffffffffffffffffffffffffffff1673ffffffffffffffffffffffffffffffffffffffff1663200d2ed26040518163ffffffff1660e01b8152600401602060405180830381865afa15801561067c573d6000803e3d6000fd5b505050506040513d601f19601f820116820180604052508101906106a09190611025565b9050919050565b6106af610994565b6106b96000610a12565b565b60006002600083815260200190815260200160002060009054906101000a900473ffffffffffffffffffffffffffffffffffffffff1673ffffffffffffffffffffffffffffffffffffffff16634c1786ea6040518163ffffffff1660e01b8152600401602060405180830381865afa15801561073b573d6000803e3d6000fd5b505050506040513d601f19601f8201168201806040525081019061075f9190610f91565b9050919050565b60008060009054906101000a900473ffffffffffffffffffffffffffffffffffffffff16905090565b610797610af1565b6002600083815260200190815260200160002060009054906101000a900473ffffffffffffffffffffffffffffffffffffffff1673ffffffffffffffffffffffffffffffffffffffff1663bd9a548b6040518163ffffffff1660e01b815260040160a060405180830381865afa158015610815573d6000803e3d6000fd5b505050506040513d601f19601f820116820180604052508101906108399190611199565b9050919050565b60006002600083815260200190815260200160002060009054906101000a900473ffffffffffffffffffffffffffffffffffffffff1673ffffffffffffffffffffffffffffffffffffffff1663dbd0e1b66040518163ffffffff1660e01b8152600401602060405180830381865afa1580156108c0573d6000803e3d6000fd5b505050506040513d601f19601f820116820180604052508101906108e49190610fd3565b9050919050565b6108f3610994565b600073ffffffffffffffffffffffffffffffffffffffff168173ffffffffffffffffffffffffffffffffffffffff1603610962576040517f08c379a000000000000000000000000000000000000000000000000000000000815260040161095990611249565b60405180910390fd5b61096b81610a12565b50565b600460009054906101000a900473ffffffffffffffffffffffffffffffffffffffff1681565b61099c610ad6565b73ffffffffffffffffffffffffffffffffffffffff166109ba610766565b73ffffffffffffffffffffffffffffffffffffffff1614610a10576040517f08c379a0000000000000000000000000000000000000000000000000000000008152600401610a07906112b5565b60405180910390fd5b565b60008060009054906101000a900473ffffffffffffffffffffffffffffffffffffffff169050816000806101000a81548173ffffffffffffffffffffffffffffffffffffffff021916908373ffffffffffffffffffffffffffffffffffffffff1602179055508173ffffffffffffffffffffffffffffffffffffffff168173ffffffffffffffffffffffffffffffffffffffff167f8be0079c531659141344cd1fd0a4f28419497f9722a3daafe3b4186f6b6457e060405160405180910390a35050565b600033905090565b6040518060200160405280600081525090565b6040518060a00160405280600590602082028036833780820191505090505090565b6000604051905090565b600080fd5b6000819050919050565b610b3581610b22565b8114610b4057600080fd5b50565b600081359050610b5281610b2c565b92915050565b600060208284031215610b6e57610b6d610b1d565b5b6000610b7c84828501610b43565b91505092915050565b600063ffffffff82169050919050565b610b9e81610b85565b82525050565b6000602082019050610bb96000830184610b95565b92915050565b610bc881610b22565b82525050565b6000602082019050610be36000830184610bbf565b92915050565b60008060408385031215610c0057610bff610b1d565b5b6000610c0e85828601610b43565b9250506020610c1f85828601610b43565b9150509250929050565b610c3281610b22565b82525050565b602082016000820151610c4e6000850182610c29565b50505050565b6000602082019050610c696000830184610c38565b92915050565b600073ffffffffffffffffffffffffffffffffffffffff82169050919050565b6000819050919050565b6000610cb4610caf610caa84610c6f565b610c8f565b610c6f565b9050919050565b6000610cc682610c99565b9050919050565b6000610cd882610cbb565b9050919050565b610ce881610ccd565b82525050565b6000602082019050610d036000830184610cdf565b92915050565b6000610d1482610c6f565b9050919050565b610d2481610d09565b82525050565b6000602082019050610d3f6000830184610d1b565b92915050565b7f4e487b7100000000000000000000000000000000000000000000000000000000600052602160045260246000fd5b60058110610d8557610d84610d45565b5b50565b6000819050610d9682610d74565b919050565b6000610da682610d88565b9050919050565b610db681610d9b565b82525050565b6000602082019050610dd16000830184610dad565b92915050565b600060059050919050565b600081905092915050565b6000819050919050565b6000610e038383610c29565b60208301905092915050565b6000602082019050919050565b610e2581610dd7565b610e2f8184610de2565b9250610e3a82610ded565b8060005b83811015610e6b578151610e528782610df7565b9650610e5d83610e0f565b925050600181019050610e3e565b505050505050565b600060a082019050610e886000830184610e1c565b92915050565b610e9781610d09565b8114610ea257600080fd5b50565b600081359050610eb481610e8e565b92915050565b600060208284031215610ed057610ecf610b1d565b5b6000610ede84828501610ea5565b91505092915050565b6000610ef282610cbb565b9050919050565b610f0281610ee7565b82525050565b6000602082019050610f1d6000830184610ef9565b92915050565b610f2c81610b85565b8114610f3757600080fd5b50565b600081519050610f4981610f23565b92915050565b600060208284031215610f6557610f64610b1d565b5b6000610f7384828501610f3a565b91505092915050565b600081519050610f8b81610b2c565b92915050565b600060208284031215610fa757610fa6610b1d565b5b6000610fb584828501610f7c565b91505092915050565b600081519050610fcd81610e8e565b92915050565b600060208284031215610fe957610fe8610b1d565b5b6000610ff784828501610fbe565b91505092915050565b6005811061100d57600080fd5b50565b60008151905061101f81611000565b92915050565b60006020828403121561103b5761103a610b1d565b5b600061104984828501611010565b91505092915050565b600080fd5b6000601f19601f8301169050919050565b7f4e487b7100000000000000000000000000000000000000000000000000000000600052604160045260246000fd5b6110a082611057565b810181811067ffffffffffffffff821117156110bf576110be611068565b5b80604052505050565b60006110d2610b13565b90506110de8282611097565b919050565b600067ffffffffffffffff8211156110fe576110fd611068565b5b602082029050919050565b600080fd5b600061112161111c846110e3565b6110c8565b9050806020840283018581111561113b5761113a611109565b5b835b8181101561116457806111508882610f7c565b84526020840193505060208101905061113d565b5050509392505050565b600082601f83011261118357611182611052565b5b600561119084828561110e565b91505092915050565b600060a082840312156111af576111ae610b1d565b5b60006111bd8482850161116e565b91505092915050565b600082825260208201905092915050565b7f4f776e61626c653a206e6577206f776e657220697320746865207a65726f206160008201527f6464726573730000000000000000000000000000000000000000000000000000602082015250565b60006112336026836111c6565b915061123e826111d7565b604082019050919050565b6000602082019050818103600083015261126281611226565b9050919050565b7f4f776e61626c653a2063616c6c6572206973206e6f7420746865206f776e6572600082015250565b600061129f6020836111c6565b91506112aa82611269565b602082019050919050565b600060208201905081810360008301526112ce81611292565b905091905056fea26469706673582212200bd5e064268ba08d3ff54f718e9c935ff261ed368a187460064a79dd01c1f05c64736f6c63430008100033",
  "immutableReferences": {},
  "source": "// SPDX-License-Identifier: MIT\npragma solidity ^0.8.7;\n\nimport './SwapHandler.sol';\nimport '@openzeppelin/contracts/utils/math/SafeMath.sol';\nimport '@openzeppelin/contracts/token/ERC20/IERC20.sol';\n\ncontract AssetHandler is SwapHandler {\n  using SafeMath for uint256;\n\n  IERC20 public token;\n\n  mapping(uint256 => uint256[2]) public deposits;\n\n  constructor() {\n    token = IERC20(0xbE4983558F83cF015bE7a68F7F3fE591C151c2b9);\n  }\n\n  function _sendDeposit(\n    uint256 _swapId,\n    bool _isBuyer\n  ) internal returns (bool) {\n    uint256 deposit;\n    if (_isBuyer) {\n      deposit = getPremium(_swapId).mul(4);\n      token.transferFrom(getBuyer(_swapId), address(this), deposit);\n      deposits[_swapId][0] = deposit;\n    } else {\n      deposit = getSellerDeposit(_swapId);\n      token.transferFrom(getSeller(_swapId), address(this), deposit);\n      deposits[_swapId][1] = deposit;\n    }\n    return true;\n  }\n\n  function _sendFirstPremium(uint256 _swapId) internal returns (bool) {\n    bool sent = token.transfer(getSeller(_swapId), getPremium(_swapId));\n    require(sent, 'Sending first premium failed');\n    deposits[_swapId][0] -= getPremium(_swapId);\n    getSwap(_swapId).setRounds(getRounds(_swapId) - 1);\n    return true;\n  }\n\n  function _endSwap(uint256 _swapId) internal returns (bool) {\n    address[2] memory participants = [getBuyer(_swapId), getSeller(_swapId)];\n    for (uint i = 0; i <= 1; i++) {\n      uint256 deposit = deposits[_swapId][i];\n      if (deposit != 0) {\n        bool sent = token.transfer(participants[i], deposit);\n        require(sent, 'Sending deposit back failed');\n      }\n    }\n    clearDeposit(_swapId);\n    return true;\n  }\n\n  function _afterClaim(uint256 _swapId) internal returns (uint256) {\n    uint256 claimReward = getSwap(_swapId).getClaimReward();\n    bool sentBuyer = token.transfer(\n      getBuyer(_swapId),\n      claimReward + deposits[_swapId][0]\n    );\n    bool sentSeller = token.transfer(\n      getSeller(_swapId),\n      deposits[_swapId][1] - claimReward\n    );\n    require(sentBuyer && sentSeller, 'Sending reward failed');\n    clearDeposit(_swapId);\n    return claimReward;\n  }\n\n  function _expire(\n    uint256 _swapId\n  ) internal isSeller(_swapId) isActive(_swapId) {\n    // bool byRounds = ((block.timestamp >= nextPayDate[_swapId]) &&\n    //   (getRounds(_swapId) == 0));\n    // bool byDeposit = ((block.timestamp >= nextPayDate[_swapId]) &&\n    //   (deposits[_swapId][0] == 0));\n    bool byRounds = (getRounds(_swapId) == 0);\n    bool byDeposit = (deposits[_swapId][0] == 0);\n    require(byDeposit || byRounds, 'Buyer deposit / Rounds remaining');\n    getSwap(_swapId).setStatus(Swap.Status.expired);\n  }\n\n  function _sendPremiumByDeposit(uint256 _swapId) internal {\n    // uint256 currTime = block.timestamp;\n    // require(\n    //   (nextPayDate[_swapId] <= currTime),\n    //   'Invalid date to pay premium by deposit '\n    // );\n    require(deposits[_swapId][0] >= getPremium(_swapId), 'Not enough deposit');\n    bool sent = token.transfer(getSeller(_swapId), getPremium(_swapId));\n    require(sent, 'Sending premium failed');\n    deposits[_swapId][0] -= getPremium(_swapId);\n  }\n\n  function _sendPremium(uint256 _swapId) internal {\n    // uint256 currTime = block.timestamp;\n    // require(\n    //   (nextPayDate[_swapId] - 1 days <= currTime) &&\n    //     (currTime <= nextPayDate[_swapId]),\n    //   'Invalid date to pay premium'\n    // );\n    bool sent = token.transferFrom(\n      getBuyer(_swapId),\n      getSeller(_swapId),\n      getPremium(_swapId)\n    );\n    require(sent, 'Sending premium failed');\n  }\n\n  function clearDeposit(uint256 _swapId) private {\n    for (uint i = 0; i <= 1; i++) {\n      deposits[_swapId][i] = 0;\n    }\n  }\n}\n",
  "sourcePath": "/Users/yoonsoo/codestates/BEB-07-final-CDS/contract/contracts/Handler/AssetHandler.sol",
  "compiler": {
    "name": "solc",
    "version": "0.8.16+commit.07a7930e.Emscripten.clang"
  },
  "schemaVersion": "3.4.11",
  "updatedAt": "2023-02-10T08:09:15.558Z",
  "devdoc": {
    "kind": "dev",
    "methods": {
      "owner()": {
        "details": "Returns the address of the current owner."
      },
      "renounceOwnership()": {
        "details": "Leaves the contract without owner. It will not be possible to call `onlyOwner` functions anymore. Can only be called by the current owner. NOTE: Renouncing ownership will leave the contract without an owner, thereby removing any functionality that is only available to the owner."
      },
      "transferOwnership(address)": {
        "details": "Transfers ownership of the contract to a new account (`newOwner`). Can only be called by the current owner."
      }
    },
    "version": 1
  },
  "userdoc": {
    "kind": "user",
    "methods": {},
    "version": 1
  }
}