{
  "contractName": "CDS",
  "abi": [
    {
      "inputs": [],
      "stateMutability": "payable",
      "type": "constructor",
      "payable": true
    },
    {
      "anonymous": false,
      "inputs": [
        {
          "indexed": true,
          "internalType": "address",
          "name": "guestAddr",
          "type": "address"
        },
        {
          "indexed": false,
          "internalType": "uint256",
          "name": "swapId",
          "type": "uint256"
        }
      ],
      "name": "AcceptSwap",
      "type": "event"
    },
    {
      "anonymous": false,
      "inputs": [
        {
          "indexed": false,
          "internalType": "uint256",
          "name": "swapId",
          "type": "uint256"
        }
      ],
      "name": "CancelSwap",
      "type": "event"
    },
    {
      "anonymous": false,
      "inputs": [
        {
          "indexed": false,
          "internalType": "uint256",
          "name": "swapId",
          "type": "uint256"
        },
        {
          "indexed": false,
          "internalType": "uint256",
          "name": "claimReward",
          "type": "uint256"
        }
      ],
      "name": "ClaimSwap",
      "type": "event"
    },
    {
      "anonymous": false,
      "inputs": [
        {
          "indexed": false,
          "internalType": "uint256",
          "name": "swapId",
          "type": "uint256"
        }
      ],
      "name": "CloseSwap",
      "type": "event"
    },
    {
      "anonymous": false,
      "inputs": [
        {
          "indexed": true,
          "internalType": "address",
          "name": "hostAddr",
          "type": "address"
        },
        {
          "indexed": false,
          "internalType": "bool",
          "name": "isBuyer",
          "type": "bool"
        },
        {
          "indexed": false,
          "internalType": "uint256",
          "name": "swapId",
          "type": "uint256"
        }
      ],
      "name": "CreateSwap",
      "type": "event"
    },
    {
      "anonymous": false,
      "inputs": [
        {
          "indexed": true,
          "internalType": "address",
          "name": "previousOwner",
          "type": "address"
        },
        {
          "indexed": true,
          "internalType": "address",
          "name": "newOwner",
          "type": "address"
        }
      ],
      "name": "OwnershipTransferred",
      "type": "event"
    },
    {
      "inputs": [
        {
          "internalType": "uint256",
          "name": "swapId",
          "type": "uint256"
        }
      ],
      "name": "getBuyer",
      "outputs": [
        {
          "internalType": "address",
          "name": "",
          "type": "address"
        }
      ],
      "stateMutability": "view",
      "type": "function",
      "constant": true
    },
    {
      "inputs": [
        {
          "internalType": "uint256",
          "name": "swapId",
          "type": "uint256"
        }
      ],
      "name": "getClaimReward",
      "outputs": [
        {
          "internalType": "uint256",
          "name": "",
          "type": "uint256"
        }
      ],
      "stateMutability": "view",
      "type": "function",
      "constant": true
    },
    {
      "inputs": [
        {
          "internalType": "uint256",
          "name": "swapId",
          "type": "uint256"
        }
      ],
      "name": "getDeposits",
      "outputs": [
        {
          "components": [
            {
              "internalType": "uint256",
              "name": "deposit",
              "type": "uint256"
            },
            {
              "internalType": "bool",
              "name": "isPaid",
              "type": "bool"
            }
          ],
          "internalType": "struct Swaps.Deposit[2]",
          "name": "",
          "type": "tuple[2]"
        }
      ],
      "stateMutability": "view",
      "type": "function",
      "constant": true
    },
    {
      "inputs": [
        {
          "internalType": "uint256",
          "name": "swapId",
          "type": "uint256"
        }
      ],
      "name": "getInterval",
      "outputs": [
        {
          "internalType": "uint256",
          "name": "",
          "type": "uint256"
        }
      ],
      "stateMutability": "view",
      "type": "function",
      "constant": true
    },
    {
      "inputs": [],
      "name": "getPriceFromOracle",
      "outputs": [
        {
          "internalType": "uint256",
          "name": "",
          "type": "uint256"
        }
      ],
      "stateMutability": "view",
      "type": "function",
      "constant": true
    },
    {
      "inputs": [
        {
          "internalType": "uint256",
          "name": "swapId",
          "type": "uint256"
        }
      ],
      "name": "getRoundsLeft",
      "outputs": [
        {
          "internalType": "uint32",
          "name": "",
          "type": "uint32"
        }
      ],
      "stateMutability": "view",
      "type": "function",
      "constant": true
    },
    {
      "inputs": [
        {
          "internalType": "uint256",
          "name": "swapId",
          "type": "uint256"
        }
      ],
      "name": "getSeller",
      "outputs": [
        {
          "internalType": "address",
          "name": "",
          "type": "address"
        }
      ],
      "stateMutability": "view",
      "type": "function",
      "constant": true
    },
    {
      "inputs": [
        {
          "internalType": "uint256",
          "name": "swapId",
          "type": "uint256"
        }
      ],
      "name": "getSwap",
      "outputs": [
        {
          "components": [
            {
              "internalType": "uint256",
              "name": "initAssetPrice",
              "type": "uint256"
            },
            {
              "internalType": "uint256",
              "name": "claimPrice",
              "type": "uint256"
            },
            {
              "internalType": "uint256",
              "name": "liquidationPrice",
              "type": "uint256"
            },
            {
              "internalType": "uint256",
              "name": "premium",
              "type": "uint256"
            },
            {
              "internalType": "uint256",
              "name": "sellerDeposit",
              "type": "uint256"
            }
          ],
          "internalType": "struct Swaps.Swap",
          "name": "",
          "type": "tuple"
        }
      ],
      "stateMutability": "view",
      "type": "function",
      "constant": true
    },
    {
      "inputs": [],
      "name": "getSwapId",
      "outputs": [
        {
          "components": [
            {
              "internalType": "uint256",
              "name": "_value",
              "type": "uint256"
            }
          ],
          "internalType": "struct Counters.Counter",
          "name": "",
          "type": "tuple"
        }
      ],
      "stateMutability": "view",
      "type": "function",
      "constant": true
    },
    {
      "inputs": [
        {
          "internalType": "uint256",
          "name": "swapId",
          "type": "uint256"
        }
      ],
      "name": "getSwapStatus",
      "outputs": [
        {
          "internalType": "enum Swaps.swapStatus",
          "name": "",
          "type": "uint8"
        }
      ],
      "stateMutability": "view",
      "type": "function",
      "constant": true
    },
    {
      "inputs": [],
      "name": "owner",
      "outputs": [
        {
          "internalType": "address",
          "name": "",
          "type": "address"
        }
      ],
      "stateMutability": "view",
      "type": "function",
      "constant": true
    },
    {
      "inputs": [],
      "name": "renounceOwnership",
      "outputs": [],
      "stateMutability": "nonpayable",
      "type": "function"
    },
    {
      "inputs": [
        {
          "internalType": "address",
          "name": "_priceOracleAddress",
          "type": "address"
        }
      ],
      "name": "setOracle",
      "outputs": [
        {
          "internalType": "bool",
          "name": "",
          "type": "bool"
        }
      ],
      "stateMutability": "nonpayable",
      "type": "function"
    },
    {
      "inputs": [
        {
          "internalType": "address",
          "name": "newOwner",
          "type": "address"
        }
      ],
      "name": "transferOwnership",
      "outputs": [],
      "stateMutability": "nonpayable",
      "type": "function"
    },
    {
      "stateMutability": "payable",
      "type": "receive",
      "payable": true
    },
    {
      "inputs": [
        {
          "internalType": "bool",
          "name": "isBuyer",
          "type": "bool"
        },
        {
          "internalType": "uint256",
          "name": "initAssetPrice",
          "type": "uint256"
        },
        {
          "internalType": "uint256",
          "name": "claimPrice",
          "type": "uint256"
        },
        {
          "internalType": "uint256",
          "name": "liquidationPrice",
          "type": "uint256"
        },
        {
          "internalType": "uint256",
          "name": "sellerDeposit",
          "type": "uint256"
        },
        {
          "internalType": "uint256",
          "name": "premium",
          "type": "uint256"
        },
        {
          "internalType": "uint32",
          "name": "premiumInterval",
          "type": "uint32"
        },
        {
          "internalType": "uint32",
          "name": "totalRounds",
          "type": "uint32"
        }
      ],
      "name": "createSwap",
      "outputs": [
        {
          "internalType": "uint256",
          "name": "",
          "type": "uint256"
        }
      ],
      "stateMutability": "payable",
      "type": "function",
      "payable": true
    },
    {
      "inputs": [
        {
          "internalType": "uint256",
          "name": "deposit",
          "type": "uint256"
        }
      ],
      "name": "_sendDeposit",
      "outputs": [
        {
          "internalType": "bool",
          "name": "",
          "type": "bool"
        }
      ],
      "stateMutability": "payable",
      "type": "function",
      "payable": true
    },
    {
      "inputs": [
        {
          "internalType": "uint256",
          "name": "initAssetPrice",
          "type": "uint256"
        },
        {
          "internalType": "uint256",
          "name": "swapId",
          "type": "uint256"
        }
      ],
      "name": "acceptSwap",
      "outputs": [
        {
          "internalType": "uint256",
          "name": "",
          "type": "uint256"
        }
      ],
      "stateMutability": "payable",
      "type": "function",
      "payable": true
    },
    {
      "inputs": [
        {
          "internalType": "uint256",
          "name": "swapId",
          "type": "uint256"
        }
      ],
      "name": "cancelSwap",
      "outputs": [
        {
          "internalType": "bool",
          "name": "",
          "type": "bool"
        }
      ],
      "stateMutability": "nonpayable",
      "type": "function"
    },
    {
      "inputs": [
        {
          "internalType": "uint256",
          "name": "swapId",
          "type": "uint256"
        }
      ],
      "name": "closeSwap",
      "outputs": [
        {
          "internalType": "bool",
          "name": "",
          "type": "bool"
        }
      ],
      "stateMutability": "nonpayable",
      "type": "function"
    },
    {
      "inputs": [
        {
          "internalType": "uint256",
          "name": "swapId",
          "type": "uint256"
        }
      ],
      "name": "payPremium",
      "outputs": [
        {
          "internalType": "bool",
          "name": "",
          "type": "bool"
        }
      ],
      "stateMutability": "payable",
      "type": "function",
      "payable": true
    },
    {
      "inputs": [
        {
          "internalType": "uint256",
          "name": "swapId",
          "type": "uint256"
        }
      ],
      "name": "claimSwap",
      "outputs": [
        {
          "internalType": "bool",
          "name": "",
          "type": "bool"
        }
      ],
      "stateMutability": "nonpayable",
      "type": "function"
    },
    {
      "inputs": [],
      "name": "getContractBalance",
      "outputs": [
        {
          "internalType": "uint256",
          "name": "",
          "type": "uint256"
        }
      ],
      "stateMutability": "view",
      "type": "function",
      "constant": true
    }
  ],
  "bytecode": "0x608060405262000024620000186200002a60201b60201c565b6200003260201b60201c565b620000f8565b600033905090565b6000600960009054906101000a900473ffffffffffffffffffffffffffffffffffffffff16905081600960006101000a81548173ffffffffffffffffffffffffffffffffffffffff021916908373ffffffffffffffffffffffffffffffffffffffff1602179055508173ffffffffffffffffffffffffffffffffffffffff168173ffffffffffffffffffffffffffffffffffffffff167f8be0079c531659141344cd1fd0a4f28419497f9722a3daafe3b4186f6b6457e060405160405180910390a35050565b61325780620001086000396000f3fe6080604052600436106101395760003560e01c80636f9fb98a116100ab578063be06fba01161006f578063be06fba014610480578063c6d30a86146104bd578063d6a9de51146104ed578063e43c520d1461052a578063ee59660814610567578063f2fde38b146105a457610140565b80636f9fb98a14610399578063715018a6146103c45780637adbf973146103db5780638da5cb5b146104185780639671ea9f1461044357610140565b8063496ab39a116100fd578063496ab39a1461023d5780634a0d89ba1461026857806354d6a2b7146102a55780635bf608b8146102e25780635d78e9f21461031f578063616e9f8f1461035c57610140565b8063085c967f1461014557806316f9baeb146101825780631cfa8295146101b257806338f5a491146101e25780634364b26e1461020d57610140565b3661014057005b600080fd5b34801561015157600080fd5b5061016c600480360381019061016791906123c2565b6105cd565b60405161017991906124e4565b60405180910390f35b61019c600480360381019061019791906123c2565b610657565b6040516101a9919061250e565b60405180910390f35b6101cc60048036038101906101c79190612529565b610751565b6040516101d99190612578565b60405180910390f35b3480156101ee57600080fd5b506101f76109f4565b6040516102049190612578565b60405180910390f35b610227600480360381019061022291906123c2565b610a8f565b604051610234919061250e565b60405180910390f35b34801561024957600080fd5b50610252610ce6565b60405161025f91906125af565b60405180910390f35b34801561027457600080fd5b5061028f600480360381019061028a91906123c2565b610d0a565b60405161029c9190612632565b60405180910390f35b3480156102b157600080fd5b506102cc60048036038101906102c791906123c2565b610d69565b6040516102d9919061250e565b60405180910390f35b3480156102ee57600080fd5b50610309600480360381019061030491906123c2565b611039565b604051610316919061268e565b60405180910390f35b34801561032b57600080fd5b50610346600480360381019061034191906123c2565b61108a565b60405161035391906126c8565b60405180910390f35b34801561036857600080fd5b50610383600480360381019061037e91906123c2565b6110b7565b6040516103909190612578565b60405180910390f35b3480156103a557600080fd5b506103ae6110d4565b6040516103bb9190612578565b60405180910390f35b3480156103d057600080fd5b506103d96110dc565b005b3480156103e757600080fd5b5061040260048036038101906103fd919061270f565b6110f0565b60405161040f919061250e565b60405180910390f35b34801561042457600080fd5b5061042d6111a9565b60405161043a919061268e565b60405180910390f35b34801561044f57600080fd5b5061046a600480360381019061046591906123c2565b6111d3565b604051610477919061250e565b60405180910390f35b34801561048c57600080fd5b506104a760048036038101906104a291906123c2565b6115a7565b6040516104b49190612578565b60405180910390f35b6104d760048036038101906104d29190612794565b61160b565b6040516104e49190612578565b60405180910390f35b3480156104f957600080fd5b50610514600480360381019061050f91906123c2565b611739565b604051610521919061268e565b60405180910390f35b34801561053657600080fd5b50610551600480360381019061054c91906123c2565b61178a565b60405161055e919061250e565b60405180910390f35b34801561057357600080fd5b5061058e600480360381019061058991906123c2565b611abb565b60405161059b91906128c1565b60405180910390f35b3480156105b057600080fd5b506105cb60048036038101906105c6919061270f565b611ae5565b005b6105d56122fc565b60076000838152602001908152602001600020600280602002604051908101604052809291906000905b8282101561064c57838260020201604051806040016040529081600082015481526020016001820160009054906101000a900460ff161515151581525050815260200190600101906105ff565b505050509050919050565b600034821461069b576040517f08c379a000000000000000000000000000000000000000000000000000000000815260040161069290612939565b60405180910390fd5b60003073ffffffffffffffffffffffffffffffffffffffff16346040516106c19061298a565b60006040518083038185875af1925050503d80600081146106fe576040519150601f19603f3d011682016040523d82523d6000602084013e610703565b606091505b5050905080610747576040517f08c379a000000000000000000000000000000000000000000000000000000000815260040161073e906129eb565b60405180910390fd5b6001915050919050565b600061075b6111a9565b73ffffffffffffffffffffffffffffffffffffffff163373ffffffffffffffffffffffffffffffffffffffff16036107c8576040517f08c379a00000000000000000000000000000000000000000000000000000000081526004016107bf90612a57565b60405180910390fd5b81600160038111156107dd576107dc61284a565b5b6003600083815260200190815260200160002060009054906101000a900460ff1660038111156108105761080f61284a565b5b14610850576040517f08c379a000000000000000000000000000000000000000000000000000000000815260040161084790612ae9565b60405180910390fd5b61085983611039565b73ffffffffffffffffffffffffffffffffffffffff163373ffffffffffffffffffffffffffffffffffffffff16141580156108c8575061089883611739565b73ffffffffffffffffffffffffffffffffffffffff163373ffffffffffffffffffffffffffffffffffffffff1614155b610907576040517f08c379a00000000000000000000000000000000000000000000000000000000081526004016108fe90612b55565b60405180910390fd5b60008073ffffffffffffffffffffffffffffffffffffffff1661092985611739565b73ffffffffffffffffffffffffffffffffffffffff16149050806109745761096f61096a600361095887610d0a565b60600151611b6890919063ffffffff16565b610657565b61098a565b61098961098085610d0a565b60800151610657565b5b506000610998828787611b7e565b90503373ffffffffffffffffffffffffffffffffffffffff167f96a33d274168dd9f48db62d10e3a70d2a3d6b885f26deb52297a7db0d779aecd826040516109e09190612578565b60405180910390a280935050505092915050565b60008060008054906101000a900473ffffffffffffffffffffffffffffffffffffffff1673ffffffffffffffffffffffffffffffffffffffff166398d5fdca6040518163ffffffff1660e01b8152600401602060405180830381865afa158015610a62573d6000803e3d6000fd5b505050506040513d601f19601f82011682018060405250810190610a869190612b8a565b90508091505090565b60008160066000828152602001908152602001600020600060028110610ab857610ab7612bb7565b5b0160009054906101000a900473ffffffffffffffffffffffffffffffffffffffff1673ffffffffffffffffffffffffffffffffffffffff163373ffffffffffffffffffffffffffffffffffffffff1614610b47576040517f08c379a0000000000000000000000000000000000000000000000000000000008152600401610b3e90612c32565b60405180910390fd5b8260026003811115610b5c57610b5b61284a565b5b6003600083815260200190815260200160002060009054906101000a900460ff166003811115610b8f57610b8e61284a565b5b14610bcf576040517f08c379a0000000000000000000000000000000000000000000000000000000008152600401610bc690612ae9565b60405180910390fd5b610bd884610d0a565b606001513414610c1d576040517f08c379a0000000000000000000000000000000000000000000000000000000008152600401610c1490612c9e565b60405180910390fd5b6000610c2885611739565b73ffffffffffffffffffffffffffffffffffffffff1634604051610c4b9061298a565b60006040518083038185875af1925050503d8060008114610c88576040519150601f19603f3d011682016040523d82523d6000602084013e610c8d565b606091505b5050905080610cd1576040517f08c379a0000000000000000000000000000000000000000000000000000000008152600401610cc890612d0a565b60405180910390fd5b610cda85611c39565b60019350505050919050565b610cee612329565b6001604051806020016040529081600082015481525050905090565b610d1261233c565b600260008381526020019081526020016000206040518060a0016040529081600082015481526020016001820154815260200160028201548152602001600382015481526020016004820154815250509050919050565b6000610d736111a9565b73ffffffffffffffffffffffffffffffffffffffff163373ffffffffffffffffffffffffffffffffffffffff1603610de0576040517f08c379a0000000000000000000000000000000000000000000000000000000008152600401610dd790612a57565b60405180910390fd5b8160066000828152602001908152602001600020600060028110610e0757610e06612bb7565b5b0160009054906101000a900473ffffffffffffffffffffffffffffffffffffffff1673ffffffffffffffffffffffffffffffffffffffff163373ffffffffffffffffffffffffffffffffffffffff1614610e96576040517f08c379a0000000000000000000000000000000000000000000000000000000008152600401610e8d90612c32565b60405180910390fd5b8260016003811115610eab57610eaa61284a565b5b6003600083815260200190815260200160002060009054906101000a900460ff166003811115610ede57610edd61284a565b5b14610f1e576040517f08c379a0000000000000000000000000000000000000000000000000000000008152600401610f1590612ae9565b60405180910390fd5b60003373ffffffffffffffffffffffffffffffffffffffff16610f40866105cd565b600060028110610f5357610f52612bb7565b5b602002015160000151604051610f689061298a565b60006040518083038185875af1925050503d8060008114610fa5576040519150601f19603f3d011682016040523d82523d6000602084013e610faa565b606091505b5050905080610fee576040517f08c379a0000000000000000000000000000000000000000000000000000000008152600401610fe590612d76565b60405180910390fd5b610ff785611cc3565b7fcc357eede946cd6e20dd870b5e54e608ab19a8d405c686dcfd469fbe4b09cead856040516110269190612578565b60405180910390a1809350505050919050565b60006006600083815260200190815260200160002060006002811061106157611060612bb7565b5b0160009054906101000a900473ffffffffffffffffffffffffffffffffffffffff169050919050565b60006004600083815260200190815260200160002060009054906101000a900463ffffffff169050919050565b600060086000838152602001908152602001600020549050919050565b600047905090565b6110e4611d0b565b6110ee6000611d89565b565b60008073ffffffffffffffffffffffffffffffffffffffff168273ffffffffffffffffffffffffffffffffffffffff1603611160576040517f08c379a000000000000000000000000000000000000000000000000000000000815260040161115790612de2565b60405180910390fd5b816000806101000a81548173ffffffffffffffffffffffffffffffffffffffff021916908373ffffffffffffffffffffffffffffffffffffffff16021790555060019050919050565b6000600960009054906101000a900473ffffffffffffffffffffffffffffffffffffffff16905090565b60006111dd6111a9565b73ffffffffffffffffffffffffffffffffffffffff163373ffffffffffffffffffffffffffffffffffffffff160361124a576040517f08c379a000000000000000000000000000000000000000000000000000000000815260040161124190612a57565b60405180910390fd5b816006600082815260200190815260200160002060006002811061127157611270612bb7565b5b0160009054906101000a900473ffffffffffffffffffffffffffffffffffffffff1673ffffffffffffffffffffffffffffffffffffffff163373ffffffffffffffffffffffffffffffffffffffff1614611300576040517f08c379a00000000000000000000000000000000000000000000000000000000081526004016112f790612c32565b60405180910390fd5b82600260038111156113155761131461284a565b5b6003600083815260200190815260200160002060009054906101000a900460ff1660038111156113485761134761284a565b5b14611388576040517f08c379a000000000000000000000000000000000000000000000000000000000815260040161137f90612ae9565b60405180910390fd5b6000611393856115a7565b9050600081036113d8576040517f08c379a00000000000000000000000000000000000000000000000000000000081526004016113cf90612e74565b60405180910390fd5b60003373ffffffffffffffffffffffffffffffffffffffff166113fa876105cd565b60006002811061140d5761140c612bb7565b5b602002015160000151836114219190612ec3565b60405161142d9061298a565b60006040518083038185875af1925050503d806000811461146a576040519150601f19603f3d011682016040523d82523d6000602084013e61146f565b606091505b5050905060003373ffffffffffffffffffffffffffffffffffffffff1683611496896105cd565b6001600281106114a9576114a8612bb7565b5b6020020151600001516114bc9190612ef7565b6040516114c89061298a565b60006040518083038185875af1925050503d8060008114611505576040519150601f19603f3d011682016040523d82523d6000602084013e61150a565b606091505b505090508180156115185750805b611557576040517f08c379a000000000000000000000000000000000000000000000000000000000815260040161154e90612f77565b60405180910390fd5b61156087611e4f565b7f0b78f6443935f3b97aeb2d2a9c09081ac6faae8995a742fc2b4c9df114d4cc6c8784604051611591929190612f97565b60405180910390a1600195505050505050919050565b6000806115b26109f4565b905060006115bf84610d0a565b905081816020015110156115d857600092505050611606565b60006115fd82604001518360000151858560800151611e96909392919063ffffffff16565b90508093505050505b919050565b60006116156111a9565b73ffffffffffffffffffffffffffffffffffffffff163373ffffffffffffffffffffffffffffffffffffffff1603611682576040517f08c379a000000000000000000000000000000000000000000000000000000000815260040161167990612a57565b60405180910390fd5b6000600161169a600387611b6890919063ffffffff16565b6116a49190612fc0565b9050896116b9576116b486610657565b6116c3565b6116c281610657565b5b5060006116d68b8b8b8b8b8b8b8b611f06565b90503373ffffffffffffffffffffffffffffffffffffffff167fb226c1a965217e5c288e502d223c1b1ad5fb6ed2d1d9f9e9ef4cde4e77c0c8368c8360405161172092919061301a565b60405180910390a2809250505098975050505050505050565b60006006600083815260200190815260200160002060016002811061176157611760612bb7565b5b0160009054906101000a900473ffffffffffffffffffffffffffffffffffffffff169050919050565b600081600660008281526020019081526020016000206000600281106117b3576117b2612bb7565b5b0160009054906101000a900473ffffffffffffffffffffffffffffffffffffffff1673ffffffffffffffffffffffffffffffffffffffff163373ffffffffffffffffffffffffffffffffffffffff1614611842576040517f08c379a000000000000000000000000000000000000000000000000000000000815260040161183990612c32565b60405180910390fd5b82600260038111156118575761185661284a565b5b6003600083815260200190815260200160002060009054906101000a900460ff16600381111561188a5761188961284a565b5b146118ca576040517f08c379a00000000000000000000000000000000000000000000000000000000081526004016118c190612ae9565b60405180910390fd5b60006001905060006118db866105cd565b6000600281106118ee576118ed612bb7565b5b6020020151600001511461198d573373ffffffffffffffffffffffffffffffffffffffff1661191c866105cd565b60006002811061192f5761192e612bb7565b5b6020020151600001516040516119449061298a565b60006040518083038185875af1925050503d8060008114611981576040519150601f19603f3d011682016040523d82523d6000602084013e611986565b606091505b5050809150505b600061199886611739565b73ffffffffffffffffffffffffffffffffffffffff166119b7876105cd565b6001600281106119ca576119c9612bb7565b5b6020020151600001516040516119df9061298a565b60006040518083038185875af1925050503d8060008114611a1c576040519150601f19603f3d011682016040523d82523d6000602084013e611a21565b606091505b50509050818015611a2f5750805b611a6e576040517f08c379a0000000000000000000000000000000000000000000000000000000008152600401611a65906129eb565b60405180910390fd5b611a7786611cc3565b7fb9fa1a07f2c631058d244370b457f8cd1da0a6278005c7538516123cd620be3086604051611aa69190612578565b60405180910390a16001945050505050919050565b60006003600083815260200190815260200160002060009054906101000a900460ff169050919050565b611aed611d0b565b600073ffffffffffffffffffffffffffffffffffffffff168173ffffffffffffffffffffffffffffffffffffffff1603611b5c576040517f08c379a0000000000000000000000000000000000000000000000000000000008152600401611b53906130b5565b60405180910390fd5b611b6581611d89565b50565b60008183611b769190612fc0565b905092915050565b60008060026000848152602001908152602001600020905083816000018190555084611bb257611bad8361201e565b611bbc565b611bbb8361211e565b5b600860008481526020019081526020016000205442611bdb9190612ec3565b600560008581526020019081526020016000208190555060026003600085815260200190815260200160002060006101000a81548160ff02191690836003811115611c2957611c2861284a565b5b0217905550829150509392505050565b600860008281526020019081526020016000205442611c589190612ec3565b600560008381526020019081526020016000208190555060016004600083815260200190815260200160002060008282829054906101000a900463ffffffff16611ca291906130d5565b92506101000a81548163ffffffff021916908363ffffffff16021790555050565b611ccc8161220b565b60006003600083815260200190815260200160002060006101000a81548160ff02191690836003811115611d0357611d0261284a565b5b021790555050565b611d136122a4565b73ffffffffffffffffffffffffffffffffffffffff16611d316111a9565b73ffffffffffffffffffffffffffffffffffffffff1614611d87576040517f08c379a0000000000000000000000000000000000000000000000000000000008152600401611d7e90613159565b60405180910390fd5b565b6000600960009054906101000a900473ffffffffffffffffffffffffffffffffffffffff16905081600960006101000a81548173ffffffffffffffffffffffffffffffffffffffff021916908373ffffffffffffffffffffffffffffffffffffffff1602179055508173ffffffffffffffffffffffffffffffffffffffff168173ffffffffffffffffffffffffffffffffffffffff167f8be0079c531659141344cd1fd0a4f28419497f9722a3daafe3b4186f6b6457e060405160405180910390a35050565b611e588161220b565b600380600083815260200190815260200160002060006101000a81548160ff02191690836003811115611e8e57611e8d61284a565b5b021790555050565b600080828510611ea857859050611efa565b6000611ecf611ec087876122ac90919063ffffffff16565b886122c290919063ffffffff16565b9050611ef6611ee785876122ac90919063ffffffff16565b82611b6890919063ffffffff16565b9150505b80915050949350505050565b6000611f1260016122d8565b6000611f1e60016122ee565b905060006002600083815260200190815260200160002090508981600001819055508881600101819055508781600201819055508581600301819055508681600401819055508463ffffffff166008600084815260200190815260200160002081905550836004600084815260200190815260200160002060006101000a81548163ffffffff021916908363ffffffff16021790555060016003600084815260200190815260200160002060006101000a81548160ff02191690836003811115611feb57611fea61284a565b5b02179055508a61200357611ffe8261211e565b61200d565b61200c8261201e565b5b819250505098975050505050505050565b336006600083815260200190815260200160002060006002811061204557612044612bb7565b5b0160006101000a81548173ffffffffffffffffffffffffffffffffffffffff021916908373ffffffffffffffffffffffffffffffffffffffff1602179055506120a4600361209283610d0a565b60600151611b6890919063ffffffff16565b600760008381526020019081526020016000206000600281106120ca576120c9612bb7565b5b60020201600001819055506001600760008381526020019081526020016000206000600281106120fd576120fc612bb7565b5b6002020160010160006101000a81548160ff02191690831515021790555050565b336006600083815260200190815260200160002060016002811061214557612144612bb7565b5b0160006101000a81548173ffffffffffffffffffffffffffffffffffffffff021916908373ffffffffffffffffffffffffffffffffffffffff16021790555061218d81610d0a565b60800151600760008381526020019081526020016000206001600281106121b7576121b6612bb7565b5b60020201600001819055506001600760008381526020019081526020016000206001600281106121ea576121e9612bb7565b5b6002020160010160006101000a81548160ff02191690831515021790555050565b60005b600181116122a057600060076000848152602001908152602001600020826002811061223d5761223c612bb7565b5b6002020160000181905550600060076000848152602001908152602001600020826002811061226f5761226e612bb7565b5b6002020160010160006101000a81548160ff021916908315150217905550808061229890613179565b91505061220e565b5050565b600033905090565b600081836122ba9190612ef7565b905092915050565b600081836122d091906131f0565b905092915050565b6001816000016000828254019250508190555050565b600081600001549050919050565b60405180604001604052806002905b61231361236b565b81526020019060019003908161230b5790505090565b6040518060200160405280600081525090565b6040518060a0016040528060008152602001600081526020016000815260200160008152602001600081525090565b6040518060400160405280600081526020016000151581525090565b600080fd5b6000819050919050565b61239f8161238c565b81146123aa57600080fd5b50565b6000813590506123bc81612396565b92915050565b6000602082840312156123d8576123d7612387565b5b60006123e6848285016123ad565b91505092915050565b600060029050919050565b600081905092915050565b6000819050919050565b6124188161238c565b82525050565b60008115159050919050565b6124338161241e565b82525050565b60408201600082015161244f600085018261240f565b506020820151612462602085018261242a565b50505050565b60006124748383612439565b60408301905092915050565b6000602082019050919050565b612496816123ef565b6124a081846123fa565b92506124ab82612405565b8060005b838110156124dc5781516124c38782612468565b96506124ce83612480565b9250506001810190506124af565b505050505050565b60006080820190506124f9600083018461248d565b92915050565b6125088161241e565b82525050565b600060208201905061252360008301846124ff565b92915050565b600080604083850312156125405761253f612387565b5b600061254e858286016123ad565b925050602061255f858286016123ad565b9150509250929050565b6125728161238c565b82525050565b600060208201905061258d6000830184612569565b92915050565b6020820160008201516125a9600085018261240f565b50505050565b60006020820190506125c46000830184612593565b92915050565b60a0820160008201516125e0600085018261240f565b5060208201516125f3602085018261240f565b506040820151612606604085018261240f565b506060820151612619606085018261240f565b50608082015161262c608085018261240f565b50505050565b600060a08201905061264760008301846125ca565b92915050565b600073ffffffffffffffffffffffffffffffffffffffff82169050919050565b60006126788261264d565b9050919050565b6126888161266d565b82525050565b60006020820190506126a3600083018461267f565b92915050565b600063ffffffff82169050919050565b6126c2816126a9565b82525050565b60006020820190506126dd60008301846126b9565b92915050565b6126ec8161266d565b81146126f757600080fd5b50565b600081359050612709816126e3565b92915050565b60006020828403121561272557612724612387565b5b6000612733848285016126fa565b91505092915050565b6127458161241e565b811461275057600080fd5b50565b6000813590506127628161273c565b92915050565b612771816126a9565b811461277c57600080fd5b50565b60008135905061278e81612768565b92915050565b600080600080600080600080610100898b0312156127b5576127b4612387565b5b60006127c38b828c01612753565b98505060206127d48b828c016123ad565b97505060406127e58b828c016123ad565b96505060606127f68b828c016123ad565b95505060806128078b828c016123ad565b94505060a06128188b828c016123ad565b93505060c06128298b828c0161277f565b92505060e061283a8b828c0161277f565b9150509295985092959890939650565b7f4e487b7100000000000000000000000000000000000000000000000000000000600052602160045260246000fd5b6004811061288a5761288961284a565b5b50565b600081905061289b82612879565b919050565b60006128ab8261288d565b9050919050565b6128bb816128a0565b82525050565b60006020820190506128d660008301846128b2565b92915050565b600082825260208201905092915050565b7f496e76616c69642065746820616d6f756e740000000000000000000000000000600082015250565b60006129236012836128dc565b915061292e826128ed565b602082019050919050565b6000602082019050818103600083015261295281612916565b9050919050565b600081905092915050565b50565b6000612974600083612959565b915061297f82612964565b600082019050919050565b600061299582612967565b9150819050919050565b7f53656e64696e67206465706f736974206661696c656400000000000000000000600082015250565b60006129d56016836128dc565b91506129e08261299f565b602082019050919050565b60006020820190508181036000830152612a04816129c8565b9050919050565b7f4f776e65722063616e206e6f742063616c6c20746865206d6574686f64000000600082015250565b6000612a41601d836128dc565b9150612a4c82612a0b565b602082019050919050565b60006020820190508181036000830152612a7081612a34565b9050919050565b7f54686520737461747573206f6620746865204344532073686f756c642062652060008201527f70656e64696e6700000000000000000000000000000000000000000000000000602082015250565b6000612ad36027836128dc565b9150612ade82612a77565b604082019050919050565b60006020820190508181036000830152612b0281612ac6565b9050919050565b7f54686520686f73742063616e206e6f742063616c6c20746865206d6574686f64600082015250565b6000612b3f6020836128dc565b9150612b4a82612b09565b602082019050919050565b60006020820190508181036000830152612b6e81612b32565b9050919050565b600081519050612b8481612396565b92915050565b600060208284031215612ba057612b9f612387565b5b6000612bae84828501612b75565b91505092915050565b7f4e487b7100000000000000000000000000000000000000000000000000000000600052603260045260246000fd5b7f4f6e6c79206275796572206f6620746865204344532063616e2063616c6c0000600082015250565b6000612c1c601e836128dc565b9150612c2782612be6565b602082019050919050565b60006020820190508181036000830152612c4b81612c0f565b9050919050565b7f496e76616c6964207072656d69756d0000000000000000000000000000000000600082015250565b6000612c88600f836128dc565b9150612c9382612c52565b602082019050919050565b60006020820190508181036000830152612cb781612c7b565b9050919050565b7f53656e64696e67207072656d69756d206661696c656400000000000000000000600082015250565b6000612cf46016836128dc565b9150612cff82612cbe565b602082019050919050565b60006020820190508181036000830152612d2381612ce7565b9050919050565b7f53656e64696e67206661696c6564000000000000000000000000000000000000600082015250565b6000612d60600e836128dc565b9150612d6b82612d2a565b602082019050919050565b60006020820190508181036000830152612d8f81612d53565b9050919050565b7f496e76616c696420616464726573730000000000000000000000000000000000600082015250565b6000612dcc600f836128dc565b9150612dd782612d96565b602082019050919050565b60006020820190508181036000830152612dfb81612dbf565b9050919050565b7f436c61696d20707269636520696e204344532073686f756c642062652068696760008201527f686572207468616e2063757272656e74207072696365206f6620617373657400602082015250565b6000612e5e603f836128dc565b9150612e6982612e02565b604082019050919050565b60006020820190508181036000830152612e8d81612e51565b9050919050565b7f4e487b7100000000000000000000000000000000000000000000000000000000600052601160045260246000fd5b6000612ece8261238c565b9150612ed98361238c565b9250828201905080821115612ef157612ef0612e94565b5b92915050565b6000612f028261238c565b9150612f0d8361238c565b9250828203905081811115612f2557612f24612e94565b5b92915050565b7f53656e64696e6720726577617264206661696c65640000000000000000000000600082015250565b6000612f616015836128dc565b9150612f6c82612f2b565b602082019050919050565b60006020820190508181036000830152612f9081612f54565b9050919050565b6000604082019050612fac6000830185612569565b612fb96020830184612569565b9392505050565b6000612fcb8261238c565b9150612fd68361238c565b9250817fffffffffffffffffffffffffffffffffffffffffffffffffffffffffffffffff048311821515161561300f5761300e612e94565b5b828202905092915050565b600060408201905061302f60008301856124ff565b61303c6020830184612569565b9392505050565b7f4f776e61626c653a206e6577206f776e657220697320746865207a65726f206160008201527f6464726573730000000000000000000000000000000000000000000000000000602082015250565b600061309f6026836128dc565b91506130aa82613043565b604082019050919050565b600060208201905081810360008301526130ce81613092565b9050919050565b60006130e0826126a9565b91506130eb836126a9565b9250828203905063ffffffff81111561310757613106612e94565b5b92915050565b7f4f776e61626c653a2063616c6c6572206973206e6f7420746865206f776e6572600082015250565b60006131436020836128dc565b915061314e8261310d565b602082019050919050565b6000602082019050818103600083015261317281613136565b9050919050565b60006131848261238c565b91507fffffffffffffffffffffffffffffffffffffffffffffffffffffffffffffffff82036131b6576131b5612e94565b5b600182019050919050565b7f4e487b7100000000000000000000000000000000000000000000000000000000600052601260045260246000fd5b60006131fb8261238c565b91506132068361238c565b925082613216576132156131c1565b5b82820490509291505056fea2646970667358221220aa45ec7084503153780057fd828fa612b60aa271bd94b632a90e40836193c19a64736f6c63430008100033",
  "immutableReferences": {},
  "source": "// SPDX-License-Identifier: MIT\npragma solidity ^0.8.7;\n\nimport './Swaps/Swaps.sol';\nimport '@openzeppelin/contracts/access/Ownable.sol';\nimport '@openzeppelin/contracts/utils/math/SafeMath.sol';\n\ncontract CDS is Swaps, Ownable {\n  using SafeMath for uint256;\n\n  constructor() payable {}\n\n  receive() external payable {}\n\n  // events\n  event CreateSwap(address indexed hostAddr, bool isBuyer, uint256 swapId);\n  event AcceptSwap(address indexed guestAddr, uint256 swapId);\n  event CancelSwap(uint256 swapId);\n  event ClaimSwap(uint256 swapId, uint256 claimReward);\n  event CloseSwap(uint256 swapId);\n\n  // modifiers\n\n  modifier isNotOwner() {\n    require(msg.sender != owner(), 'Owner can not call the method');\n    _;\n  }\n\n  // transactions\n\n  function createSwap(\n    bool isBuyer,\n    uint256 initAssetPrice,\n    uint256 claimPrice,\n    uint256 liquidationPrice,\n    uint256 sellerDeposit,\n    uint256 premium,\n    uint32 premiumInterval,\n    uint32 totalRounds\n  ) external payable isNotOwner returns (uint256) {\n    uint256 buyerDeposit = premium.mul(3) * 1 wei;\n    isBuyer ? _sendDeposit(buyerDeposit) : _sendDeposit(sellerDeposit);\n\n    uint256 newSwapId = _createSwap(\n      isBuyer,\n      initAssetPrice,\n      claimPrice,\n      liquidationPrice,\n      sellerDeposit,\n      premium,\n      premiumInterval,\n      totalRounds\n    );\n\n    emit CreateSwap(msg.sender, isBuyer, newSwapId);\n\n    return newSwapId;\n  }\n\n  // token => internal   .\n  function _sendDeposit(uint256 deposit) public payable returns (bool) {\n    require(deposit == msg.value, 'Invalid eth amount');\n    (bool sent, ) = payable(address(this)).call{value: msg.value}('');\n    require(sent, 'Sending deposit failed');\n    return true;\n  }\n\n  function acceptSwap(\n    uint256 initAssetPrice,\n    uint256 swapId\n  ) external payable isNotOwner isPending(swapId) returns (uint256) {\n    require(\n      msg.sender != getBuyer(swapId) && msg.sender != getSeller(swapId),\n      'The host can not call the method'\n    );\n\n    bool isBuyerHost = (getSeller(swapId) == address(0));\n\n    isBuyerHost\n      ? _sendDeposit(getSwap(swapId).sellerDeposit)\n      : _sendDeposit(getSwap(swapId).premium.mul(3));\n\n    uint256 acceptedSwapId = _acceptSwap(isBuyerHost, initAssetPrice, swapId);\n    emit AcceptSwap(msg.sender, acceptedSwapId);\n    return acceptedSwapId;\n  }\n\n  function cancelSwap(\n    uint256 swapId\n  ) external isNotOwner isBuyer(swapId) isPending(swapId) returns (bool) {\n    (bool sent, ) = msg.sender.call{value: getDeposits(swapId)[0].deposit}('');\n    require(sent, 'Sending failed');\n    _cancelSwap(swapId);\n    emit CancelSwap(swapId);\n    return sent;\n  }\n\n  function closeSwap(\n    uint256 swapId\n  ) external isBuyer(swapId) isActive(swapId) returns (bool) {\n    bool sentBuyer = true;\n    if (getDeposits(swapId)[0].deposit != 0) {\n      (sentBuyer, ) = msg.sender.call{value: getDeposits(swapId)[0].deposit}(\n        ''\n      );\n    }\n    (bool sentSeller, ) = getSeller(swapId).call{\n      value: getDeposits(swapId)[1].deposit\n    }('');\n    require(sentBuyer && sentSeller, 'Sending deposit failed');\n    _cancelSwap(swapId);\n    emit CloseSwap(swapId);\n    return true;\n  }\n\n  function payPremium(\n    uint256 swapId\n  ) external payable isBuyer(swapId) isActive(swapId) returns (bool) {\n    // date check\n    // require(_checkDate(swapId), 'Invalid date');\n\n    require(msg.value == getSwap(swapId).premium, 'Invalid premium');\n    (bool sent, ) = getSeller(swapId).call{value: msg.value}('');\n    require(sent, 'Sending premium failed');\n    // status update\n    _payPremium(swapId);\n    return true;\n  }\n\n  function claimSwap(\n    uint256 swapId\n  ) external isNotOwner isBuyer(swapId) isActive(swapId) returns (bool) {\n    uint256 claimReward = getClaimReward(swapId);\n    require(\n      claimReward != 0,\n      'Claim price in CDS should be higher than current price of asset'\n    );\n    (bool sentBuyer, ) = msg.sender.call{\n      value: (claimReward + getDeposits(swapId)[0].deposit)\n    }('');\n    (bool sentSeller, ) = msg.sender.call{\n      value: (getDeposits(swapId)[1].deposit - claimReward)\n    }('');\n    require(sentBuyer && sentSeller, 'Sending reward failed');\n    _claimSwap(swapId);\n    emit ClaimSwap(swapId, claimReward);\n    return true;\n  }\n\n  function getContractBalance() public view returns (uint256) {\n    return address(this).balance;\n  }\n}\n",
  "sourcePath": "/Users/sdh/Study/BEB_07/projects/CDS/contract/contracts/CDS.sol",
  "compiler": {
    "name": "solc",
    "version": "0.8.16+commit.07a7930e.Emscripten.clang"
  },
  "schemaVersion": "3.4.9",
  "updatedAt": "2023-02-02T02:19:42.135Z",
  "networkType": "ethereum",
  "devdoc": {
    "kind": "dev",
    "methods": {
      "owner()": {
        "details": "Returns the address of the current owner."
      },
      "renounceOwnership()": {
        "details": "Leaves the contract without owner. It will not be possible to call `onlyOwner` functions anymore. Can only be called by the current owner. NOTE: Renouncing ownership will leave the contract without an owner, thereby removing any functionality that is only available to the owner."
      },
      "transferOwnership(address)": {
        "details": "Transfers ownership of the contract to a new account (`newOwner`). Can only be called by the current owner."
      }
    },
    "version": 1
  },
  "userdoc": {
    "kind": "user",
    "methods": {},
    "version": 1
  }
}