{
  "contractName": "CDS",
  "abi": [
    {
      "anonymous": false,
      "inputs": [
        {
          "indexed": true,
          "internalType": "address",
          "name": "buyer",
          "type": "address"
        },
        {
          "indexed": false,
          "internalType": "uint256",
          "name": "numBlocks",
          "type": "uint256"
        },
        {
          "indexed": false,
          "internalType": "uint256",
          "name": "claimPrice",
          "type": "uint256"
        },
        {
          "indexed": false,
          "internalType": "uint256",
          "name": "liquidationPrice",
          "type": "uint256"
        },
        {
          "indexed": false,
          "internalType": "uint256",
          "name": "expirationMonth",
          "type": "uint256"
        }
      ],
      "name": "MakeSwap",
      "type": "event"
    },
    {
      "inputs": [],
      "name": "getPriceFromOracle",
      "outputs": [
        {
          "internalType": "uint256",
          "name": "",
          "type": "uint256"
        }
      ],
      "stateMutability": "view",
      "type": "function"
    },
    {
      "inputs": [
        {
          "internalType": "uint256",
          "name": "_swapId",
          "type": "uint256"
        }
      ],
      "name": "getSwap",
      "outputs": [
        {
          "components": [
            {
              "components": [
                {
                  "internalType": "address",
                  "name": "addr",
                  "type": "address"
                },
                {
                  "internalType": "uint256",
                  "name": "deposit",
                  "type": "uint256"
                },
                {
                  "internalType": "uint256",
                  "name": "lastPayDate",
                  "type": "uint256"
                },
                {
                  "internalType": "uint256",
                  "name": "nextPayDate",
                  "type": "uint256"
                }
              ],
              "internalType": "struct Swaps.Buyer",
              "name": "buyer",
              "type": "tuple"
            },
            {
              "components": [
                {
                  "internalType": "address",
                  "name": "addr",
                  "type": "address"
                },
                {
                  "internalType": "uint256",
                  "name": "deposit",
                  "type": "uint256"
                },
                {
                  "internalType": "bool",
                  "name": "isDeposited",
                  "type": "bool"
                }
              ],
              "internalType": "struct Swaps.Seller",
              "name": "seller",
              "type": "tuple"
            },
            {
              "internalType": "uint256",
              "name": "numBlocks",
              "type": "uint256"
            },
            {
              "internalType": "uint256",
              "name": "priceOfAsset",
              "type": "uint256"
            },
            {
              "internalType": "uint256",
              "name": "claimPrice",
              "type": "uint256"
            },
            {
              "internalType": "uint256",
              "name": "liquidationPrice",
              "type": "uint256"
            },
            {
              "internalType": "uint256",
              "name": "premium",
              "type": "uint256"
            },
            {
              "internalType": "uint256",
              "name": "expirationMonth",
              "type": "uint256"
            },
            {
              "internalType": "enum Swaps.Status",
              "name": "status",
              "type": "uint8"
            }
          ],
          "internalType": "struct Swaps.Swap",
          "name": "",
          "type": "tuple"
        }
      ],
      "stateMutability": "view",
      "type": "function"
    },
    {
      "inputs": [
        {
          "internalType": "address",
          "name": "_priceOracleAddress",
          "type": "address"
        }
      ],
      "name": "setOracle",
      "outputs": [
        {
          "internalType": "bool",
          "name": "",
          "type": "bool"
        }
      ],
      "stateMutability": "nonpayable",
      "type": "function"
    },
    {
      "inputs": [
        {
          "internalType": "address",
          "name": "_addr",
          "type": "address"
        },
        {
          "internalType": "uint256",
          "name": "_numBlocks",
          "type": "uint256"
        },
        {
          "internalType": "uint256",
          "name": "_claimRate",
          "type": "uint256"
        },
        {
          "internalType": "uint256",
          "name": "_liquidationRate",
          "type": "uint256"
        },
        {
          "internalType": "uint256",
          "name": "_expirationMonth",
          "type": "uint256"
        }
      ],
      "name": "makeSwap",
      "outputs": [
        {
          "internalType": "uint256",
          "name": "",
          "type": "uint256"
        }
      ],
      "stateMutability": "nonpayable",
      "type": "function"
    },
    {
      "inputs": [
        {
          "internalType": "uint256",
          "name": "swapId",
          "type": "uint256"
        }
      ],
      "name": "swap",
      "outputs": [
        {
          "components": [
            {
              "components": [
                {
                  "internalType": "address",
                  "name": "addr",
                  "type": "address"
                },
                {
                  "internalType": "uint256",
                  "name": "deposit",
                  "type": "uint256"
                },
                {
                  "internalType": "uint256",
                  "name": "lastPayDate",
                  "type": "uint256"
                },
                {
                  "internalType": "uint256",
                  "name": "nextPayDate",
                  "type": "uint256"
                }
              ],
              "internalType": "struct Swaps.Buyer",
              "name": "buyer",
              "type": "tuple"
            },
            {
              "components": [
                {
                  "internalType": "address",
                  "name": "addr",
                  "type": "address"
                },
                {
                  "internalType": "uint256",
                  "name": "deposit",
                  "type": "uint256"
                },
                {
                  "internalType": "bool",
                  "name": "isDeposited",
                  "type": "bool"
                }
              ],
              "internalType": "struct Swaps.Seller",
              "name": "seller",
              "type": "tuple"
            },
            {
              "internalType": "uint256",
              "name": "numBlocks",
              "type": "uint256"
            },
            {
              "internalType": "uint256",
              "name": "priceOfAsset",
              "type": "uint256"
            },
            {
              "internalType": "uint256",
              "name": "claimPrice",
              "type": "uint256"
            },
            {
              "internalType": "uint256",
              "name": "liquidationPrice",
              "type": "uint256"
            },
            {
              "internalType": "uint256",
              "name": "premium",
              "type": "uint256"
            },
            {
              "internalType": "uint256",
              "name": "expirationMonth",
              "type": "uint256"
            },
            {
              "internalType": "enum Swaps.Status",
              "name": "status",
              "type": "uint8"
            }
          ],
          "internalType": "struct Swaps.Swap",
          "name": "",
          "type": "tuple"
        }
      ],
      "stateMutability": "view",
      "type": "function"
    }
  ],
  "bytecode": "0x608060405234801561001057600080fd5b50611057806100206000396000f3fe608060405234801561001057600080fd5b50600436106100575760003560e01c806323f00cd41461005c57806338f5a4911461008c5780634a0d89ba146100aa5780637adbf973146100da57806394b918de1461010a575b600080fd5b61007660048036038101906100719190610ab8565b61013a565b6040516100839190610b42565b60405180910390f35b6100946101ad565b6040516100a19190610b42565b60405180910390f35b6100c460048036038101906100bf9190610b5d565b610248565b6040516100d19190610d8d565b60405180910390f35b6100f460048036038101906100ef9190610da9565b610404565b6040516101019190610de5565b60405180910390f35b610124600480360381019061011f9190610b5d565b6104bd565b6040516101319190610d8d565b60405180910390f35b60008061014a8787878787610679565b90508673ffffffffffffffffffffffffffffffffffffffff167f2ed1756a33efd26504de885e1c581d28d2d5509a7d9f293a624a948c8d5242b8878787876040516101989493929190610e00565b60405180910390a28091505095945050505050565b60008060008054906101000a900473ffffffffffffffffffffffffffffffffffffffff1673ffffffffffffffffffffffffffffffffffffffff166398d5fdca6040518163ffffffff1660e01b8152600401602060405180830381865afa15801561021b573d6000803e3d6000fd5b505050506040513d601f19601f8201168201806040525081019061023f9190610e5a565b90508091505090565b61025061093e565b6002600083815260200190815260200160002060405180610120016040529081600082016040518060800160405290816000820160009054906101000a900473ffffffffffffffffffffffffffffffffffffffff1673ffffffffffffffffffffffffffffffffffffffff1673ffffffffffffffffffffffffffffffffffffffff16815260200160018201548152602001600282015481526020016003820154815250508152602001600482016040518060600160405290816000820160009054906101000a900473ffffffffffffffffffffffffffffffffffffffff1673ffffffffffffffffffffffffffffffffffffffff1673ffffffffffffffffffffffffffffffffffffffff168152602001600182015481526020016002820160009054906101000a900460ff1615151515815250508152602001600782015481526020016008820154815260200160098201548152602001600a8201548152602001600b8201548152602001600c8201548152602001600d820160009054906101000a900460ff1660048111156103e7576103e6610c5a565b5b60048111156103f9576103f8610c5a565b5b815250509050919050565b60008073ffffffffffffffffffffffffffffffffffffffff168273ffffffffffffffffffffffffffffffffffffffff1603610474576040517f08c379a000000000000000000000000000000000000000000000000000000000815260040161046b90610ee4565b60405180910390fd5b816000806101000a81548173ffffffffffffffffffffffffffffffffffffffff021916908373ffffffffffffffffffffffffffffffffffffffff16021790555060019050919050565b6104c561093e565b6002600083815260200190815260200160002060405180610120016040529081600082016040518060800160405290816000820160009054906101000a900473ffffffffffffffffffffffffffffffffffffffff1673ffffffffffffffffffffffffffffffffffffffff1673ffffffffffffffffffffffffffffffffffffffff16815260200160018201548152602001600282015481526020016003820154815250508152602001600482016040518060600160405290816000820160009054906101000a900473ffffffffffffffffffffffffffffffffffffffff1673ffffffffffffffffffffffffffffffffffffffff1673ffffffffffffffffffffffffffffffffffffffff168152602001600182015481526020016002820160009054906101000a900460ff1615151515815250508152602001600782015481526020016008820154815260200160098201548152602001600a8201548152602001600b8201548152602001600c8201548152602001600d820160009054906101000a900460ff16600481111561065c5761065b610c5a565b5b600481111561066e5761066d610c5a565b5b815250509050919050565b6000610685600161081d565b60006106916001610833565b9050866002600083815260200190815260200160002060000160000160006101000a81548173ffffffffffffffffffffffffffffffffffffffff021916908373ffffffffffffffffffffffffffffffffffffffff16021790555085600260008381526020019081526020016000206007018190555060006107106101ad565b90508060026000848152602001908152602001600020600801819055506000610742878361084190919063ffffffff16565b90508060026000858152602001908152602001600020600901819055506000610774878461084190919063ffffffff16565b90508060026000868152602001908152602001600020600a0181905550600061079c83610884565b90508060026000878152602001908152602001600020600b01819055508660026000878152602001908152602001600020600c018190555060006107eb858a8d6108b49092919063ffffffff16565b905080600260008881526020019081526020016000206004016001018190555085965050505050505095945050505050565b6001816000016000828254019250508190555050565b600081600001549050919050565b600061087c606461086e61085f8560646108fc90919063ffffffff16565b8661091290919063ffffffff16565b61092890919063ffffffff16565b905092915050565b60006108ad606461089f60028561091290919063ffffffff16565b61092890919063ffffffff16565b9050919050565b6000806108ca848661091290919063ffffffff16565b90506108f260646108e4858461091290919063ffffffff16565b61092890919063ffffffff16565b9150509392505050565b6000818361090a9190610f33565b905092915050565b600081836109209190610f67565b905092915050565b600081836109369190610ff0565b905092915050565b6040518061012001604052806109526109a8565b815260200161095f6109e6565b8152602001600081526020016000815260200160008152602001600081526020016000815260200160008152602001600060048111156109a2576109a1610c5a565b5b81525090565b6040518060800160405280600073ffffffffffffffffffffffffffffffffffffffff1681526020016000815260200160008152602001600081525090565b6040518060600160405280600073ffffffffffffffffffffffffffffffffffffffff168152602001600081526020016000151581525090565b600080fd5b600073ffffffffffffffffffffffffffffffffffffffff82169050919050565b6000610a4f82610a24565b9050919050565b610a5f81610a44565b8114610a6a57600080fd5b50565b600081359050610a7c81610a56565b92915050565b6000819050919050565b610a9581610a82565b8114610aa057600080fd5b50565b600081359050610ab281610a8c565b92915050565b600080600080600060a08688031215610ad457610ad3610a1f565b5b6000610ae288828901610a6d565b9550506020610af388828901610aa3565b9450506040610b0488828901610aa3565b9350506060610b1588828901610aa3565b9250506080610b2688828901610aa3565b9150509295509295909350565b610b3c81610a82565b82525050565b6000602082019050610b576000830184610b33565b92915050565b600060208284031215610b7357610b72610a1f565b5b6000610b8184828501610aa3565b91505092915050565b610b9381610a44565b82525050565b610ba281610a82565b82525050565b608082016000820151610bbe6000850182610b8a565b506020820151610bd16020850182610b99565b506040820151610be46040850182610b99565b506060820151610bf76060850182610b99565b50505050565b60008115159050919050565b610c1281610bfd565b82525050565b606082016000820151610c2e6000850182610b8a565b506020820151610c416020850182610b99565b506040820151610c546040850182610c09565b50505050565b7f4e487b7100000000000000000000000000000000000000000000000000000000600052602160045260246000fd5b60058110610c9a57610c99610c5a565b5b50565b6000819050610cab82610c89565b919050565b6000610cbb82610c9d565b9050919050565b610ccb81610cb0565b82525050565b6101c082016000820151610ce86000850182610ba8565b506020820151610cfb6080850182610c18565b506040820151610d0e60e0850182610b99565b506060820151610d22610100850182610b99565b506080820151610d36610120850182610b99565b5060a0820151610d4a610140850182610b99565b5060c0820151610d5e610160850182610b99565b5060e0820151610d72610180850182610b99565b50610100820151610d876101a0850182610cc2565b50505050565b60006101c082019050610da36000830184610cd1565b92915050565b600060208284031215610dbf57610dbe610a1f565b5b6000610dcd84828501610a6d565b91505092915050565b610ddf81610bfd565b82525050565b6000602082019050610dfa6000830184610dd6565b92915050565b6000608082019050610e156000830187610b33565b610e226020830186610b33565b610e2f6040830185610b33565b610e3c6060830184610b33565b95945050505050565b600081519050610e5481610a8c565b92915050565b600060208284031215610e7057610e6f610a1f565b5b6000610e7e84828501610e45565b91505092915050565b600082825260208201905092915050565b7f496e76616c696420616464726573730000000000000000000000000000000000600082015250565b6000610ece600f83610e87565b9150610ed982610e98565b602082019050919050565b60006020820190508181036000830152610efd81610ec1565b9050919050565b7f4e487b7100000000000000000000000000000000000000000000000000000000600052601160045260246000fd5b6000610f3e82610a82565b9150610f4983610a82565b9250828203905081811115610f6157610f60610f04565b5b92915050565b6000610f7282610a82565b9150610f7d83610a82565b9250817fffffffffffffffffffffffffffffffffffffffffffffffffffffffffffffffff0483118215151615610fb657610fb5610f04565b5b828202905092915050565b7f4e487b7100000000000000000000000000000000000000000000000000000000600052601260045260246000fd5b6000610ffb82610a82565b915061100683610a82565b92508261101657611015610fc1565b5b82820490509291505056fea2646970667358221220fa3a79ccbb723e6a88ddc4b8698d323583764c0f2acca1f304f260e8e19411be64736f6c63430008100033",
  "immutableReferences": {},
  "source": "// SPDX-License-Identifier: MIT\npragma solidity ^0.8.7;\n\nimport './Swaps/Swaps.sol';\n\ncontract CDS is Swaps {\n  event MakeSwap(\n    address indexed buyer,\n    uint256 numBlocks,\n    uint256 claimPrice,\n    uint256 liquidationPrice,\n    uint256 expirationMonth\n  );\n\n  function makeSwap(\n    address _addr,\n    uint256 _numBlocks,\n    uint256 _claimRate,\n    uint256 _liquidationRate,\n    uint256 _expirationMonth\n  ) public returns (uint256) {\n    uint256 newSwapId = _makeSwap(\n      _addr,\n      _numBlocks,\n      _claimRate,\n      _liquidationRate,\n      _expirationMonth\n    );\n    emit MakeSwap(\n      _addr,\n      _numBlocks,\n      _claimRate,\n      _liquidationRate,\n      _expirationMonth\n    );\n    return newSwapId;\n  }\n\n  // function acceptSwap(address _addr) public returns (uint256) {\n  // }\n\n  function swap(uint256 swapId) public view returns (Swap memory) {\n    return _swaps[swapId];\n  }\n}\n",
  "sourcePath": "/Users/sdh/Study/BEB_07/projects/CDS/contract/contracts/CDS.sol",
  "compiler": {
    "name": "solc",
    "version": "0.8.16+commit.07a7930e.Emscripten.clang"
  },
  "schemaVersion": "3.4.9",
  "updatedAt": "2023-01-19T13:08:31.443Z",
  "devdoc": {
    "kind": "dev",
    "methods": {},
    "version": 1
  },
  "userdoc": {
    "kind": "user",
    "methods": {},
    "version": 1
  }
}