{
  "contractName": "CDS",
  "abi": [
    {
      "inputs": [
        {
          "internalType": "uint256",
          "name": "_initAssetPrice",
          "type": "uint256"
        },
        {
          "internalType": "uint256",
          "name": "_claimPrice",
          "type": "uint256"
        },
        {
          "internalType": "uint256",
          "name": "_liquidationPrice",
          "type": "uint256"
        },
        {
          "internalType": "uint256",
          "name": "_premium",
          "type": "uint256"
        },
        {
          "internalType": "uint256",
          "name": "_sellerDeposit",
          "type": "uint256"
        },
        {
          "internalType": "uint32",
          "name": "_rounds",
          "type": "uint32"
        },
        {
          "internalType": "uint32",
          "name": "_assetType",
          "type": "uint32"
        }
      ],
      "stateMutability": "nonpayable",
      "type": "constructor"
    },
    {
      "anonymous": false,
      "inputs": [
        {
          "indexed": true,
          "internalType": "address",
          "name": "previousOwner",
          "type": "address"
        },
        {
          "indexed": true,
          "internalType": "address",
          "name": "newOwner",
          "type": "address"
        }
      ],
      "name": "OwnershipTransferred",
      "type": "event"
    },
    {
      "inputs": [],
      "name": "amountOfAsset",
      "outputs": [
        {
          "internalType": "uint256",
          "name": "",
          "type": "uint256"
        }
      ],
      "stateMutability": "view",
      "type": "function"
    },
    {
      "inputs": [],
      "name": "assetType",
      "outputs": [
        {
          "internalType": "uint32",
          "name": "",
          "type": "uint32"
        }
      ],
      "stateMutability": "view",
      "type": "function"
    },
    {
      "inputs": [],
      "name": "claimPrice",
      "outputs": [
        {
          "internalType": "uint256",
          "name": "",
          "type": "uint256"
        }
      ],
      "stateMutability": "view",
      "type": "function"
    },
    {
      "inputs": [],
      "name": "getBTCPrice",
      "outputs": [
        {
          "internalType": "uint256",
          "name": "",
          "type": "uint256"
        }
      ],
      "stateMutability": "view",
      "type": "function"
    },
    {
      "inputs": [],
      "name": "getETHPrice",
      "outputs": [
        {
          "internalType": "uint256",
          "name": "",
          "type": "uint256"
        }
      ],
      "stateMutability": "view",
      "type": "function"
    },
    {
      "inputs": [],
      "name": "getLinkPrice",
      "outputs": [
        {
          "internalType": "uint256",
          "name": "",
          "type": "uint256"
        }
      ],
      "stateMutability": "view",
      "type": "function"
    },
    {
      "inputs": [],
      "name": "initAssetPrice",
      "outputs": [
        {
          "internalType": "uint256",
          "name": "",
          "type": "uint256"
        }
      ],
      "stateMutability": "view",
      "type": "function"
    },
    {
      "inputs": [],
      "name": "liquidationPrice",
      "outputs": [
        {
          "internalType": "uint256",
          "name": "",
          "type": "uint256"
        }
      ],
      "stateMutability": "view",
      "type": "function"
    },
    {
      "inputs": [],
      "name": "owner",
      "outputs": [
        {
          "internalType": "address",
          "name": "",
          "type": "address"
        }
      ],
      "stateMutability": "view",
      "type": "function"
    },
    {
      "inputs": [],
      "name": "premium",
      "outputs": [
        {
          "internalType": "uint256",
          "name": "",
          "type": "uint256"
        }
      ],
      "stateMutability": "view",
      "type": "function"
    },
    {
      "inputs": [],
      "name": "renounceOwnership",
      "outputs": [],
      "stateMutability": "nonpayable",
      "type": "function"
    },
    {
      "inputs": [],
      "name": "rounds",
      "outputs": [
        {
          "internalType": "uint32",
          "name": "",
          "type": "uint32"
        }
      ],
      "stateMutability": "view",
      "type": "function"
    },
    {
      "inputs": [],
      "name": "sellerDeposit",
      "outputs": [
        {
          "internalType": "uint256",
          "name": "",
          "type": "uint256"
        }
      ],
      "stateMutability": "view",
      "type": "function"
    },
    {
      "inputs": [],
      "name": "status",
      "outputs": [
        {
          "internalType": "enum CDS.Status",
          "name": "",
          "type": "uint8"
        }
      ],
      "stateMutability": "view",
      "type": "function"
    },
    {
      "inputs": [],
      "name": "totalRounds",
      "outputs": [
        {
          "internalType": "uint32",
          "name": "",
          "type": "uint32"
        }
      ],
      "stateMutability": "view",
      "type": "function"
    },
    {
      "inputs": [
        {
          "internalType": "address",
          "name": "newOwner",
          "type": "address"
        }
      ],
      "name": "transferOwnership",
      "outputs": [],
      "stateMutability": "nonpayable",
      "type": "function"
    },
    {
      "inputs": [],
      "name": "getPrices",
      "outputs": [
        {
          "internalType": "uint256[5]",
          "name": "",
          "type": "uint256[5]"
        }
      ],
      "stateMutability": "view",
      "type": "function"
    },
    {
      "inputs": [],
      "name": "getBuyer",
      "outputs": [
        {
          "internalType": "address",
          "name": "",
          "type": "address"
        }
      ],
      "stateMutability": "view",
      "type": "function"
    },
    {
      "inputs": [],
      "name": "getSeller",
      "outputs": [
        {
          "internalType": "address",
          "name": "",
          "type": "address"
        }
      ],
      "stateMutability": "view",
      "type": "function"
    },
    {
      "inputs": [],
      "name": "getClaimReward",
      "outputs": [
        {
          "internalType": "uint256",
          "name": "",
          "type": "uint256"
        }
      ],
      "stateMutability": "view",
      "type": "function"
    },
    {
      "inputs": [
        {
          "internalType": "uint256",
          "name": "_initAssetPrice",
          "type": "uint256"
        }
      ],
      "name": "setInitAssetPrice",
      "outputs": [
        {
          "internalType": "uint256",
          "name": "",
          "type": "uint256"
        }
      ],
      "stateMutability": "nonpayable",
      "type": "function"
    },
    {
      "inputs": [
        {
          "internalType": "enum CDS.Status",
          "name": "_status",
          "type": "uint8"
        }
      ],
      "name": "setStatus",
      "outputs": [
        {
          "internalType": "enum CDS.Status",
          "name": "",
          "type": "uint8"
        }
      ],
      "stateMutability": "nonpayable",
      "type": "function"
    },
    {
      "inputs": [
        {
          "internalType": "address",
          "name": "_participants",
          "type": "address"
        },
        {
          "internalType": "bool",
          "name": "_isBuyer",
          "type": "bool"
        }
      ],
      "name": "setParticipants",
      "outputs": [],
      "stateMutability": "nonpayable",
      "type": "function"
    },
    {
      "inputs": [
        {
          "internalType": "address",
          "name": "_buyer",
          "type": "address"
        }
      ],
      "name": "setBuyer",
      "outputs": [
        {
          "internalType": "address",
          "name": "",
          "type": "address"
        }
      ],
      "stateMutability": "nonpayable",
      "type": "function"
    },
    {
      "inputs": [
        {
          "internalType": "address",
          "name": "_seller",
          "type": "address"
        }
      ],
      "name": "setSeller",
      "outputs": [
        {
          "internalType": "address",
          "name": "",
          "type": "address"
        }
      ],
      "stateMutability": "nonpayable",
      "type": "function"
    },
    {
      "inputs": [
        {
          "internalType": "uint32",
          "name": "_rounds",
          "type": "uint32"
        }
      ],
      "name": "setRounds",
      "outputs": [
        {
          "internalType": "uint32",
          "name": "",
          "type": "uint32"
        }
      ],
      "stateMutability": "nonpayable",
      "type": "function"
    }
  ],
  "bytecode": "0x60806040523480156200001157600080fd5b5060405162001acf38038062001acf833981810160405281019062000037919062000444565b620000576200004b6200028960201b60201c565b6200029160201b60201c565b733c7a4a23f876452c92c89405874fd4118dcb9e06600160006101000a81548173ffffffffffffffffffffffffffffffffffffffff021916908373ffffffffffffffffffffffffffffffffffffffff160217905550866003819055508560048190555084600581905550836006819055508260078190555081600a60146101000a81548163ffffffff021916908363ffffffff16021790555081600a60186101000a81548163ffffffff021916908363ffffffff160217905550620001336005546007546003546200035560201b62000a7f179092919060201c565b60088190555060008163ffffffff16148062000155575060018163ffffffff16145b8062000167575060028163ffffffff16145b620001a9576040517f08c379a0000000000000000000000000000000000000000000000000000000008152600401620001a09062000558565b60405180910390fd5b80600a601c6101000a81548163ffffffff021916908363ffffffff1602179055506000600960006101000a81548173ffffffffffffffffffffffffffffffffffffffff021916908373ffffffffffffffffffffffffffffffffffffffff1602179055506000600a60006101000a81548173ffffffffffffffffffffffffffffffffffffffff021916908373ffffffffffffffffffffffffffffffffffffffff1602179055506001600260146101000a81548160ff021916908360048111156200027757620002766200057a565b5b0217905550505050505050506200067a565b600033905090565b60008060009054906101000a900473ffffffffffffffffffffffffffffffffffffffff169050816000806101000a81548173ffffffffffffffffffffffffffffffffffffffff021916908373ffffffffffffffffffffffffffffffffffffffff1602179055508173ffffffffffffffffffffffffffffffffffffffff168173ffffffffffffffffffffffffffffffffffffffff167f8be0079c531659141344cd1fd0a4f28419497f9722a3daafe3b4186f6b6457e060405160405180910390a35050565b60006200038a6200037584866200039360201b62000aaf1790919060201c565b83620003ab60201b62000ac51790919060201c565b90509392505050565b60008183620003a39190620005d8565b905092915050565b60008183620003bb919062000642565b905092915050565b600080fd5b6000819050919050565b620003dd81620003c8565b8114620003e957600080fd5b50565b600081519050620003fd81620003d2565b92915050565b600063ffffffff82169050919050565b6200041e8162000403565b81146200042a57600080fd5b50565b6000815190506200043e8162000413565b92915050565b600080600080600080600060e0888a031215620004665762000465620003c3565b5b6000620004768a828b01620003ec565b9750506020620004898a828b01620003ec565b96505060406200049c8a828b01620003ec565b9550506060620004af8a828b01620003ec565b9450506080620004c28a828b01620003ec565b93505060a0620004d58a828b016200042d565b92505060c0620004e88a828b016200042d565b91505092959891949750929550565b600082825260208201905092915050565b7f4254433a302c204554483a312c204c494e4b3a32000000000000000000000000600082015250565b600062000540601483620004f7565b91506200054d8262000508565b602082019050919050565b60006020820190508181036000830152620005738162000531565b9050919050565b7f4e487b7100000000000000000000000000000000000000000000000000000000600052602160045260246000fd5b7f4e487b7100000000000000000000000000000000000000000000000000000000600052601160045260246000fd5b6000620005e582620003c8565b9150620005f283620003c8565b92508282039050818111156200060d576200060c620005a9565b5b92915050565b7f4e487b7100000000000000000000000000000000000000000000000000000000600052601260045260246000fd5b60006200064f82620003c8565b91506200065c83620003c8565b9250826200066f576200066e62000613565b5b828204905092915050565b611445806200068a6000396000f3fe608060405234801561001057600080fd5b506004361061018e5760003560e01c8063a3f09ad6116100de578063d2895e9311610097578063e0a73a9311610071578063e0a73a9314610459578063e99d286614610477578063f26cc58e146104a7578063f2fde38b146104c55761018e565b8063d2895e93146103ed578063dbd0e1b61461041d578063dd22db801461043b5761018e565b8063a3f09ad614610317578063a607a8d914610347578063b6fc2d5f14610365578063bab215f814610383578063bd9a548b1461039f578063bef904e3146103bd5761018e565b8063603daf9a1161014b57806386be75b71161012557806386be75b71461029f5780638a568299146102bd5780638da5cb5b146102db578063a2e800ad146102f95761018e565b8063603daf9a14610259578063715018a614610277578063762db7ee146102815761018e565b806315d655c914610193578063200d2ed2146101b15780632dddd49c146101cf5780632e49d78b146101ed5780633fe3347a1461021d5780634c1786ea1461023b575b600080fd5b61019b6104e1565b6040516101a89190610dbe565b60405180910390f35b6101b96104e7565b6040516101c69190610e50565b60405180910390f35b6101d76104fa565b6040516101e49190610dbe565b60405180910390f35b61020760048036038101906102029190610e95565b610597565b6040516102149190610e50565b60405180910390f35b6102256105e2565b6040516102329190610ee1565b60405180910390f35b6102436105f8565b6040516102509190610dbe565b60405180910390f35b6102616105fe565b60405161026e9190610f3d565b60405180910390f35b61027f610628565b005b61028961063c565b6040516102969190610dbe565b60405180910390f35b6102a7610642565b6040516102b49190610dbe565b60405180910390f35b6102c5610648565b6040516102d29190610ee1565b60405180910390f35b6102e361065e565b6040516102f09190610f3d565b60405180910390f35b610301610687565b60405161030e9190610ee1565b60405180910390f35b610331600480360381019061032c9190610f84565b61069d565b60405161033e9190610f3d565b60405180910390f35b61034f610712565b60405161035c9190610dbe565b60405180910390f35b61036d6107af565b60405161037a9190610dbe565b60405180910390f35b61039d60048036038101906103989190610fe9565b6107b5565b005b6103a76107df565b6040516103b491906110d4565b60405180910390f35b6103d760048036038101906103d2919061111b565b61081d565b6040516103e49190610dbe565b60405180910390f35b61040760048036038101906104029190611174565b610830565b6040516104149190610ee1565b60405180910390f35b610425610875565b6040516104329190610f3d565b60405180910390f35b61044361089f565b6040516104509190610dbe565b60405180910390f35b61046161093c565b60405161046e9190610dbe565b60405180910390f35b610491600480360381019061048c9190610f84565b610942565b60405161049e9190610f3d565b60405180910390f35b6104af6109b7565b6040516104bc9190610dbe565b60405180910390f35b6104df60048036038101906104da9190610f84565b6109fc565b005b60045481565b600260149054906101000a900460ff1681565b600080600160009054906101000a900473ffffffffffffffffffffffffffffffffffffffff1673ffffffffffffffffffffffffffffffffffffffff16630cf785356040518163ffffffff1660e01b8152600401602060405180830381865afa15801561056a573d6000803e3d6000fd5b505050506040513d601f19601f8201168201806040525081019061058e91906111b6565b90508091505090565b60006105a1610adb565b81600260146101000a81548160ff021916908360048111156105c6576105c5610dd9565b5b0217905550600260149054906101000a900460ff169050919050565b600a601c9054906101000a900463ffffffff1681565b60075481565b6000600960009054906101000a900473ffffffffffffffffffffffffffffffffffffffff16905090565b610630610adb565b61063a6000610b59565b565b60085481565b60035481565b600a60189054906101000a900463ffffffff1681565b60008060009054906101000a900473ffffffffffffffffffffffffffffffffffffffff16905090565b600a60149054906101000a900463ffffffff1681565b60006106a7610adb565b81600960006101000a81548173ffffffffffffffffffffffffffffffffffffffff021916908373ffffffffffffffffffffffffffffffffffffffff160217905550600960009054906101000a900473ffffffffffffffffffffffffffffffffffffffff169050919050565b600080600160009054906101000a900473ffffffffffffffffffffffffffffffffffffffff1673ffffffffffffffffffffffffffffffffffffffff1663ff186b2e6040518163ffffffff1660e01b8152600401602060405180830381865afa158015610782573d6000803e3d6000fd5b505050506040513d601f19601f820116820180604052508101906107a691906111b6565b90508091505090565b60055481565b6107bd610adb565b806107d0576107cb82610942565b6107da565b6107d98261069d565b5b505050565b6107e7610d83565b6040518060a001604052806003548152602001600454815260200160055481526020016006548152602001600754815250905090565b6000816003819055506003549050919050565b600061083a610adb565b81600a60146101000a81548163ffffffff021916908363ffffffff160217905550600a60149054906101000a900463ffffffff169050919050565b6000600a60009054906101000a900473ffffffffffffffffffffffffffffffffffffffff16905090565b600080600160009054906101000a900473ffffffffffffffffffffffffffffffffffffffff1673ffffffffffffffffffffffffffffffffffffffff1663a8ad52d16040518163ffffffff1660e01b8152600401602060405180830381865afa15801561090f573d6000803e3d6000fd5b505050506040513d601f19601f8201168201806040525081019061093391906111b6565b90508091505090565b60065481565b600061094c610adb565b81600a60006101000a81548173ffffffffffffffffffffffffffffffffffffffff021916908373ffffffffffffffffffffffffffffffffffffffff160217905550600a60009054906101000a900473ffffffffffffffffffffffffffffffffffffffff169050919050565b6000806109c2610c1d565b90508060045410156109d85760009150506109f9565b6109f560055460035483600754610cf5909392919063ffffffff16565b9150505b90565b610a04610adb565b600073ffffffffffffffffffffffffffffffffffffffff168173ffffffffffffffffffffffffffffffffffffffff1603610a73576040517f08c379a0000000000000000000000000000000000000000000000000000000008152600401610a6a90611266565b60405180910390fd5b610a7c81610b59565b50565b6000610aa6610a978486610aaf90919063ffffffff16565b83610ac590919063ffffffff16565b90509392505050565b60008183610abd91906112b5565b905092915050565b60008183610ad39190611318565b905092915050565b610ae3610d65565b73ffffffffffffffffffffffffffffffffffffffff16610b0161065e565b73ffffffffffffffffffffffffffffffffffffffff1614610b57576040517f08c379a0000000000000000000000000000000000000000000000000000000008152600401610b4e90611395565b60405180910390fd5b565b60008060009054906101000a900473ffffffffffffffffffffffffffffffffffffffff169050816000806101000a81548173ffffffffffffffffffffffffffffffffffffffff021916908373ffffffffffffffffffffffffffffffffffffffff1602179055508173ffffffffffffffffffffffffffffffffffffffff168173ffffffffffffffffffffffffffffffffffffffff167f8be0079c531659141344cd1fd0a4f28419497f9722a3daafe3b4186f6b6457e060405160405180910390a35050565b600080600a601c9054906101000a900463ffffffff1663ffffffff1603610c6357610c5c6305f5e100610c4e61089f565b610ac590919063ffffffff16565b9050610cf2565b6001600a601c9054906101000a900463ffffffff1663ffffffff1603610ca857610ca16305f5e100610c93610712565b610ac590919063ffffffff16565b9050610cf2565b6002600a601c9054906101000a900463ffffffff1663ffffffff1603610ced57610ce66305f5e100610cd86104fa565b610ac590919063ffffffff16565b9050610cf2565b600090505b90565b600080828510610d0757859050610d59565b6000610d2e610d1f8787610aaf90919063ffffffff16565b88610ac590919063ffffffff16565b9050610d55610d468587610aaf90919063ffffffff16565b82610d6d90919063ffffffff16565b9150505b80915050949350505050565b600033905090565b60008183610d7b91906113b5565b905092915050565b6040518060a00160405280600590602082028036833780820191505090505090565b6000819050919050565b610db881610da5565b82525050565b6000602082019050610dd36000830184610daf565b92915050565b7f4e487b7100000000000000000000000000000000000000000000000000000000600052602160045260246000fd5b60058110610e1957610e18610dd9565b5b50565b6000819050610e2a82610e08565b919050565b6000610e3a82610e1c565b9050919050565b610e4a81610e2f565b82525050565b6000602082019050610e656000830184610e41565b92915050565b600080fd5b60058110610e7d57600080fd5b50565b600081359050610e8f81610e70565b92915050565b600060208284031215610eab57610eaa610e6b565b5b6000610eb984828501610e80565b91505092915050565b600063ffffffff82169050919050565b610edb81610ec2565b82525050565b6000602082019050610ef66000830184610ed2565b92915050565b600073ffffffffffffffffffffffffffffffffffffffff82169050919050565b6000610f2782610efc565b9050919050565b610f3781610f1c565b82525050565b6000602082019050610f526000830184610f2e565b92915050565b610f6181610f1c565b8114610f6c57600080fd5b50565b600081359050610f7e81610f58565b92915050565b600060208284031215610f9a57610f99610e6b565b5b6000610fa884828501610f6f565b91505092915050565b60008115159050919050565b610fc681610fb1565b8114610fd157600080fd5b50565b600081359050610fe381610fbd565b92915050565b6000806040838503121561100057610fff610e6b565b5b600061100e85828601610f6f565b925050602061101f85828601610fd4565b9150509250929050565b600060059050919050565b600081905092915050565b6000819050919050565b61105281610da5565b82525050565b60006110648383611049565b60208301905092915050565b6000602082019050919050565b61108681611029565b6110908184611034565b925061109b8261103f565b8060005b838110156110cc5781516110b38782611058565b96506110be83611070565b92505060018101905061109f565b505050505050565b600060a0820190506110e9600083018461107d565b92915050565b6110f881610da5565b811461110357600080fd5b50565b600081359050611115816110ef565b92915050565b60006020828403121561113157611130610e6b565b5b600061113f84828501611106565b91505092915050565b61115181610ec2565b811461115c57600080fd5b50565b60008135905061116e81611148565b92915050565b60006020828403121561118a57611189610e6b565b5b60006111988482850161115f565b91505092915050565b6000815190506111b0816110ef565b92915050565b6000602082840312156111cc576111cb610e6b565b5b60006111da848285016111a1565b91505092915050565b600082825260208201905092915050565b7f4f776e61626c653a206e6577206f776e657220697320746865207a65726f206160008201527f6464726573730000000000000000000000000000000000000000000000000000602082015250565b60006112506026836111e3565b915061125b826111f4565b604082019050919050565b6000602082019050818103600083015261127f81611243565b9050919050565b7f4e487b7100000000000000000000000000000000000000000000000000000000600052601160045260246000fd5b60006112c082610da5565b91506112cb83610da5565b92508282039050818111156112e3576112e2611286565b5b92915050565b7f4e487b7100000000000000000000000000000000000000000000000000000000600052601260045260246000fd5b600061132382610da5565b915061132e83610da5565b92508261133e5761133d6112e9565b5b828204905092915050565b7f4f776e61626c653a2063616c6c6572206973206e6f7420746865206f776e6572600082015250565b600061137f6020836111e3565b915061138a82611349565b602082019050919050565b600060208201905081810360008301526113ae81611372565b9050919050565b60006113c082610da5565b91506113cb83610da5565b9250817fffffffffffffffffffffffffffffffffffffffffffffffffffffffffffffffff048311821515161561140457611403611286565b5b82820290509291505056fea26469706673582212200575d17e436c11777bb3cc50d1ec7568b75d2e2273d6c519cf27a23f2b5c138264736f6c63430008100033",
  "immutableReferences": {},
  "source": "// SPDX-License-Identifier: MIT\npragma solidity ^0.8.7;\n\nimport './PriceConsumer.sol';\nimport '../libs/LibSwap.sol';\nimport '@openzeppelin/contracts/access/Ownable.sol';\nimport '@openzeppelin/contracts/utils/math/SafeMath.sol';\n\ncontract CDS is Ownable, PriceConsumer {\n  using SafeMath for uint256;\n  using LibSwap for uint256;\n\n  PriceOracleMock private priceOracle;\n\n  enum Status {\n    inactive,\n    pending,\n    active,\n    claimed,\n    expired\n  }\n  Status public status;\n\n  uint256 public initAssetPrice;\n  uint256 public claimPrice;\n  uint256 public liquidationPrice;\n  uint256 public premium;\n  uint256 public sellerDeposit;\n  uint256 public amountOfAsset;\n  address private buyer;\n  address private seller;\n  uint32 public rounds;\n  uint32 public totalRounds;\n  uint32 public assetType;\n\n  constructor(\n    uint256 _initAssetPrice,\n    uint256 _claimPrice,\n    uint256 _liquidationPrice,\n    uint256 _premium,\n    uint256 _sellerDeposit,\n    uint32 _rounds,\n    uint32 _assetType\n  ) {\n    initAssetPrice = _initAssetPrice;\n    claimPrice = _claimPrice;\n    liquidationPrice = _liquidationPrice;\n    premium = _premium;\n    sellerDeposit = _sellerDeposit;\n    rounds = _rounds;\n    totalRounds = _rounds;\n    amountOfAsset = initAssetPrice.calcAmountOfAsset(\n      liquidationPrice,\n      sellerDeposit\n    );\n    require(\n      _assetType == 0 || _assetType == 1 || _assetType == 2,\n      'BTC:0, ETH:1, LINK:2'\n    );\n    assetType = _assetType;\n\n    buyer = address(0);\n    seller = address(0);\n    status = Status.pending;\n  }\n\n  function getPrices() public view returns (uint256[5] memory) {\n    return [\n      initAssetPrice,\n      claimPrice,\n      liquidationPrice,\n      premium,\n      sellerDeposit\n    ];\n  }\n\n  function getBuyer() public view returns (address) {\n    return buyer;\n  }\n\n  function getSeller() public view returns (address) {\n    return seller;\n  }\n\n  function getClaimReward() public view returns (uint256) {\n    uint256 currPrice = getCurrPrice();\n    if (claimPrice < currPrice) {\n      return 0;\n    }\n    return\n      sellerDeposit.calcClaimReward(\n        liquidationPrice,\n        initAssetPrice,\n        currPrice\n      );\n  }\n\n  function setInitAssetPrice(uint256 _initAssetPrice) public returns (uint256) {\n    initAssetPrice = _initAssetPrice;\n    return initAssetPrice;\n  }\n\n  function setStatus(Status _status) public onlyOwner returns (Status) {\n    status = _status;\n    return status;\n  }\n\n  function setParticipants(address _participants, bool _isBuyer) public onlyOwner {\n    _isBuyer ? setBuyer(_participants) : setSeller(_participants);\n  }\n\n  function setBuyer(address _buyer) public onlyOwner returns (address) {\n    buyer = _buyer;\n    return buyer;\n  }\n\n  function setSeller(address _seller) public onlyOwner returns (address) {\n    seller = _seller;\n    return seller;\n  }\n\n  function setRounds(uint32 _rounds) public onlyOwner returns (uint32) {\n    rounds = _rounds;\n    return rounds;\n  }\n\n  function getCurrPrice() private view returns (uint256) {\n    if (assetType == 0) {\n      return getBTCPrice().div(10 ** 8);\n    } else if (assetType == 1) {\n      return getETHPrice().div(10 ** 8);\n    } else if (assetType == 2) {\n      return getLinkPrice().div(10 ** 8);\n    } else {\n      return 0;\n    }\n  }\n}\n",
  "sourcePath": "/Users/yoonsoo/codestates/BEB-07-final-CDS/contract/contracts/CDS/CDS.sol",
  "compiler": {
    "name": "solc",
    "version": "0.8.16+commit.07a7930e.Emscripten.clang"
  },
  "schemaVersion": "3.4.11",
  "updatedAt": "2023-03-19T06:36:12.807Z",
  "devdoc": {
    "kind": "dev",
    "methods": {
      "owner()": {
        "details": "Returns the address of the current owner."
      },
      "renounceOwnership()": {
        "details": "Leaves the contract without owner. It will not be possible to call `onlyOwner` functions anymore. Can only be called by the current owner. NOTE: Renouncing ownership will leave the contract without an owner, thereby removing any functionality that is only available to the owner."
      },
      "transferOwnership(address)": {
        "details": "Transfers ownership of the contract to a new account (`newOwner`). Can only be called by the current owner."
      }
    },
    "version": 1
  },
  "userdoc": {
    "kind": "user",
    "methods": {},
    "version": 1
  }
}