{
  "contractName": "CDS",
  "abi": [
    {
      "inputs": [],
      "stateMutability": "payable",
      "type": "constructor",
      "payable": true
    },
    {
      "anonymous": false,
      "inputs": [
        {
          "indexed": true,
          "internalType": "address",
          "name": "seller",
          "type": "address"
        },
        {
          "indexed": false,
          "internalType": "uint256",
          "name": "swapId",
          "type": "uint256"
        },
        {
          "indexed": false,
          "internalType": "uint256",
          "name": "sellerDeposit",
          "type": "uint256"
        }
      ],
      "name": "AcceptSwap",
      "type": "event"
    },
    {
      "anonymous": false,
      "inputs": [
        {
          "indexed": false,
          "internalType": "uint256",
          "name": "swapId",
          "type": "uint256"
        },
        {
          "indexed": false,
          "internalType": "address",
          "name": "buyer",
          "type": "address"
        }
      ],
      "name": "CancelSwap",
      "type": "event"
    },
    {
      "anonymous": false,
      "inputs": [
        {
          "indexed": true,
          "internalType": "address",
          "name": "buyer",
          "type": "address"
        },
        {
          "indexed": false,
          "internalType": "uint256",
          "name": "swapId",
          "type": "uint256"
        },
        {
          "indexed": false,
          "internalType": "uint256",
          "name": "initAssetPrice",
          "type": "uint256"
        },
        {
          "indexed": false,
          "internalType": "uint256",
          "name": "claimPrice",
          "type": "uint256"
        },
        {
          "indexed": false,
          "internalType": "uint256",
          "name": "liquidationPrice",
          "type": "uint256"
        },
        {
          "indexed": false,
          "internalType": "uint256",
          "name": "premium",
          "type": "uint256"
        },
        {
          "indexed": false,
          "internalType": "uint256",
          "name": "premiumInterval",
          "type": "uint256"
        },
        {
          "indexed": false,
          "internalType": "uint256",
          "name": "totalPremiumRounds",
          "type": "uint256"
        },
        {
          "indexed": false,
          "internalType": "uint256",
          "name": "buyerDeposit",
          "type": "uint256"
        }
      ],
      "name": "CreateSwap",
      "type": "event"
    },
    {
      "anonymous": false,
      "inputs": [
        {
          "indexed": true,
          "internalType": "address",
          "name": "previousOwner",
          "type": "address"
        },
        {
          "indexed": true,
          "internalType": "address",
          "name": "newOwner",
          "type": "address"
        }
      ],
      "name": "OwnershipTransferred",
      "type": "event"
    },
    {
      "inputs": [],
      "name": "getPriceFromOracle",
      "outputs": [
        {
          "internalType": "uint256",
          "name": "",
          "type": "uint256"
        }
      ],
      "stateMutability": "view",
      "type": "function",
      "constant": true
    },
    {
      "inputs": [],
      "name": "owner",
      "outputs": [
        {
          "internalType": "address",
          "name": "",
          "type": "address"
        }
      ],
      "stateMutability": "view",
      "type": "function",
      "constant": true
    },
    {
      "inputs": [],
      "name": "renounceOwnership",
      "outputs": [],
      "stateMutability": "nonpayable",
      "type": "function"
    },
    {
      "inputs": [
        {
          "internalType": "address",
          "name": "_priceOracleAddress",
          "type": "address"
        }
      ],
      "name": "setOracle",
      "outputs": [
        {
          "internalType": "bool",
          "name": "",
          "type": "bool"
        }
      ],
      "stateMutability": "nonpayable",
      "type": "function"
    },
    {
      "inputs": [
        {
          "internalType": "address",
          "name": "newOwner",
          "type": "address"
        }
      ],
      "name": "transferOwnership",
      "outputs": [],
      "stateMutability": "nonpayable",
      "type": "function"
    },
    {
      "stateMutability": "payable",
      "type": "receive",
      "payable": true
    },
    {
      "inputs": [
        {
          "internalType": "address",
          "name": "addr",
          "type": "address"
        },
        {
          "internalType": "uint256",
          "name": "initAssetPrice",
          "type": "uint256"
        },
        {
          "internalType": "uint256",
          "name": "claimPrice",
          "type": "uint256"
        },
        {
          "internalType": "uint256",
          "name": "liquidationPrice",
          "type": "uint256"
        },
        {
          "internalType": "uint256",
          "name": "sellerDeposit",
          "type": "uint256"
        },
        {
          "internalType": "uint256",
          "name": "premium",
          "type": "uint256"
        },
        {
          "internalType": "uint256",
          "name": "premiumInterval",
          "type": "uint256"
        },
        {
          "internalType": "uint256",
          "name": "totalPremiumRounds",
          "type": "uint256"
        }
      ],
      "name": "createSwap",
      "outputs": [
        {
          "internalType": "uint256",
          "name": "",
          "type": "uint256"
        }
      ],
      "stateMutability": "payable",
      "type": "function",
      "payable": true
    },
    {
      "inputs": [
        {
          "internalType": "address",
          "name": "addr",
          "type": "address"
        },
        {
          "internalType": "uint256",
          "name": "initAssetPrice",
          "type": "uint256"
        },
        {
          "internalType": "uint256",
          "name": "swapId",
          "type": "uint256"
        }
      ],
      "name": "acceptSwap",
      "outputs": [
        {
          "internalType": "uint256",
          "name": "",
          "type": "uint256"
        }
      ],
      "stateMutability": "payable",
      "type": "function",
      "payable": true
    },
    {
      "inputs": [
        {
          "internalType": "uint256",
          "name": "swapId",
          "type": "uint256"
        }
      ],
      "name": "cancelSwap",
      "outputs": [
        {
          "internalType": "bool",
          "name": "",
          "type": "bool"
        }
      ],
      "stateMutability": "nonpayable",
      "type": "function"
    },
    {
      "inputs": [
        {
          "internalType": "uint256",
          "name": "swapId",
          "type": "uint256"
        }
      ],
      "name": "getSwap",
      "outputs": [
        {
          "components": [
            {
              "components": [
                {
                  "internalType": "address",
                  "name": "addr",
                  "type": "address"
                },
                {
                  "internalType": "uint256",
                  "name": "deposit",
                  "type": "uint256"
                },
                {
                  "internalType": "uint256",
                  "name": "lastPayDate",
                  "type": "uint256"
                },
                {
                  "internalType": "uint256",
                  "name": "nextPayDate",
                  "type": "uint256"
                }
              ],
              "internalType": "struct Swaps.Buyer",
              "name": "buyer",
              "type": "tuple"
            },
            {
              "components": [
                {
                  "internalType": "address",
                  "name": "addr",
                  "type": "address"
                },
                {
                  "internalType": "uint256",
                  "name": "deposit",
                  "type": "uint256"
                },
                {
                  "internalType": "bool",
                  "name": "isDeposited",
                  "type": "bool"
                }
              ],
              "internalType": "struct Swaps.Seller",
              "name": "seller",
              "type": "tuple"
            },
            {
              "internalType": "uint256",
              "name": "initAssetPrice",
              "type": "uint256"
            },
            {
              "internalType": "uint256",
              "name": "claimPrice",
              "type": "uint256"
            },
            {
              "internalType": "uint256",
              "name": "liquidationPrice",
              "type": "uint256"
            },
            {
              "internalType": "uint256",
              "name": "premium",
              "type": "uint256"
            },
            {
              "internalType": "uint256",
              "name": "premiumInterval",
              "type": "uint256"
            },
            {
              "internalType": "uint256",
              "name": "totalPremiumRounds",
              "type": "uint256"
            },
            {
              "internalType": "enum Swaps.Status",
              "name": "status",
              "type": "uint8"
            }
          ],
          "internalType": "struct Swaps.Swap",
          "name": "",
          "type": "tuple"
        }
      ],
      "stateMutability": "view",
      "type": "function",
      "constant": true
    },
    {
      "inputs": [
        {
          "internalType": "uint256",
          "name": "swapId",
          "type": "uint256"
        }
      ],
      "name": "getBuyer",
      "outputs": [
        {
          "components": [
            {
              "internalType": "address",
              "name": "addr",
              "type": "address"
            },
            {
              "internalType": "uint256",
              "name": "deposit",
              "type": "uint256"
            },
            {
              "internalType": "uint256",
              "name": "lastPayDate",
              "type": "uint256"
            },
            {
              "internalType": "uint256",
              "name": "nextPayDate",
              "type": "uint256"
            }
          ],
          "internalType": "struct Swaps.Buyer",
          "name": "",
          "type": "tuple"
        }
      ],
      "stateMutability": "view",
      "type": "function",
      "constant": true
    },
    {
      "inputs": [
        {
          "internalType": "uint256",
          "name": "swapId",
          "type": "uint256"
        }
      ],
      "name": "getSeller",
      "outputs": [
        {
          "components": [
            {
              "internalType": "address",
              "name": "addr",
              "type": "address"
            },
            {
              "internalType": "uint256",
              "name": "deposit",
              "type": "uint256"
            },
            {
              "internalType": "bool",
              "name": "isDeposited",
              "type": "bool"
            }
          ],
          "internalType": "struct Swaps.Seller",
          "name": "",
          "type": "tuple"
        }
      ],
      "stateMutability": "view",
      "type": "function",
      "constant": true
    },
    {
      "inputs": [],
      "name": "getSwapId",
      "outputs": [
        {
          "components": [
            {
              "internalType": "uint256",
              "name": "_value",
              "type": "uint256"
            }
          ],
          "internalType": "struct Counters.Counter",
          "name": "",
          "type": "tuple"
        }
      ],
      "stateMutability": "view",
      "type": "function",
      "constant": true
    },
    {
      "inputs": [],
      "name": "getContractBalance",
      "outputs": [
        {
          "internalType": "uint256",
          "name": "",
          "type": "uint256"
        }
      ],
      "stateMutability": "view",
      "type": "function",
      "constant": true
    }
  ],
  "bytecode": "0x608060405261002061001561002560201b60201c565b61002d60201b60201c565b6100f3565b600033905090565b6000600360009054906101000a900473ffffffffffffffffffffffffffffffffffffffff16905081600360006101000a81548173ffffffffffffffffffffffffffffffffffffffff021916908373ffffffffffffffffffffffffffffffffffffffff1602179055508173ffffffffffffffffffffffffffffffffffffffff168173ffffffffffffffffffffffffffffffffffffffff167f8be0079c531659141344cd1fd0a4f28419497f9722a3daafe3b4186f6b6457e060405160405180910390a35050565b61202a806101026000396000f3fe6080604052600436106100c65760003560e01c8063715018a61161007f5780638d4e7f8d116100595780638d4e7f8d1461028e5780638da5cb5b146102be578063d6a9de51146102e9578063f2fde38b14610326576100cd565b8063715018a61461020a5780637adbf973146102215780637e0cb81a1461025e576100cd565b806338f5a491146100d2578063496ab39a146100fd5780634a0d89ba1461012857806354d6a2b7146101655780635bf608b8146101a25780636f9fb98a146101df576100cd565b366100cd57005b600080fd5b3480156100de57600080fd5b506100e761034f565b6040516100f491906114c4565b60405180910390f35b34801561010957600080fd5b506101126103ea565b60405161011f919061150a565b60405180910390f35b34801561013457600080fd5b5061014f600480360381019061014a9190611556565b61040e565b60405161015c91906117a9565b60405180910390f35b34801561017157600080fd5b5061018c60048036038101906101879190611556565b6105ca565b60405161019991906117d4565b60405180910390f35b3480156101ae57600080fd5b506101c960048036038101906101c49190611556565b6108fb565b6040516101d69190611844565b60405180910390f35b3480156101eb57600080fd5b506101f461099f565b60405161020191906114c4565b60405180910390f35b34801561021657600080fd5b5061021f6109a7565b005b34801561022d57600080fd5b506102486004803603810190610243919061188b565b6109bb565b60405161025591906117d4565b60405180910390f35b610278600480360381019061027391906118b8565b610a74565b60405161028591906114c4565b60405180910390f35b6102a860048036038101906102a3919061196e565b610c19565b6040516102b591906114c4565b60405180910390f35b3480156102ca57600080fd5b506102d3610dae565b6040516102e091906119d0565b60405180910390f35b3480156102f557600080fd5b50610310600480360381019061030b9190611556565b610dd8565b60405161031d9190611a2d565b60405180910390f35b34801561033257600080fd5b5061034d6004803603810190610348919061188b565b610e83565b005b60008060008054906101000a900473ffffffffffffffffffffffffffffffffffffffff1673ffffffffffffffffffffffffffffffffffffffff166398d5fdca6040518163ffffffff1660e01b8152600401602060405180830381865afa1580156103bd573d6000803e3d6000fd5b505050506040513d601f19601f820116820180604052508101906103e19190611a5d565b90508091505090565b6103f26113b7565b6001604051806020016040529081600082015481525050905090565b6104166113ca565b6002600083815260200190815260200160002060405180610120016040529081600082016040518060800160405290816000820160009054906101000a900473ffffffffffffffffffffffffffffffffffffffff1673ffffffffffffffffffffffffffffffffffffffff1673ffffffffffffffffffffffffffffffffffffffff16815260200160018201548152602001600282015481526020016003820154815250508152602001600482016040518060600160405290816000820160009054906101000a900473ffffffffffffffffffffffffffffffffffffffff1673ffffffffffffffffffffffffffffffffffffffff1673ffffffffffffffffffffffffffffffffffffffff168152602001600182015481526020016002820160009054906101000a900460ff1615151515815250508152602001600782015481526020016008820154815260200160098201548152602001600a8201548152602001600b8201548152602001600c8201548152602001600d820160009054906101000a900460ff1660038111156105ad576105ac611676565b5b60038111156105bf576105be611676565b5b815250509050919050565b60006105d4610dae565b73ffffffffffffffffffffffffffffffffffffffff163373ffffffffffffffffffffffffffffffffffffffff1603610641576040517f08c379a000000000000000000000000000000000000000000000000000000000815260040161063890611ae7565b60405180910390fd5b61064a82610f06565b5060006002600084815260200190815260200160002060405180610120016040529081600082016040518060800160405290816000820160009054906101000a900473ffffffffffffffffffffffffffffffffffffffff1673ffffffffffffffffffffffffffffffffffffffff1673ffffffffffffffffffffffffffffffffffffffff16815260200160018201548152602001600282015481526020016003820154815250508152602001600482016040518060600160405290816000820160009054906101000a900473ffffffffffffffffffffffffffffffffffffffff1673ffffffffffffffffffffffffffffffffffffffff1673ffffffffffffffffffffffffffffffffffffffff168152602001600182015481526020016002820160009054906101000a900460ff1615151515815250508152602001600782015481526020016008820154815260200160098201548152602001600a8201548152602001600b8201548152602001600c8201548152602001600d820160009054906101000a900460ff1660038111156107e4576107e3611676565b5b60038111156107f6576107f5611676565b5b81525050905060003373ffffffffffffffffffffffffffffffffffffffff1682600001516020015160405161082a90611b38565b60006040518083038185875af1925050503d8060008114610867576040519150601f19603f3d011682016040523d82523d6000602084013e61086c565b606091505b50509050806108b0576040517f08c379a00000000000000000000000000000000000000000000000000000000081526004016108a790611b99565b60405180910390fd5b7fedc1bfa27112bfbfbe944ffc70f825e8f4c270f9755fe15db1869082f61b474c848360000151600001516040516108e9929190611bb9565b60405180910390a18092505050919050565b610903611434565b600260008381526020019081526020016000206000016040518060800160405290816000820160009054906101000a900473ffffffffffffffffffffffffffffffffffffffff1673ffffffffffffffffffffffffffffffffffffffff1673ffffffffffffffffffffffffffffffffffffffff16815260200160018201548152602001600282015481526020016003820154815250509050919050565b600047905090565b6109af610fea565b6109b96000611068565b565b60008073ffffffffffffffffffffffffffffffffffffffff168273ffffffffffffffffffffffffffffffffffffffff1603610a2b576040517f08c379a0000000000000000000000000000000000000000000000000000000008152600401610a2290611c2e565b60405180910390fd5b816000806101000a81548173ffffffffffffffffffffffffffffffffffffffff021916908373ffffffffffffffffffffffffffffffffffffffff16021790555060019050919050565b6000610a7e610dae565b73ffffffffffffffffffffffffffffffffffffffff163373ffffffffffffffffffffffffffffffffffffffff1603610aeb576040517f08c379a0000000000000000000000000000000000000000000000000000000008152600401610ae290611ae7565b60405180910390fd5b60006001610b0360038761112e90919063ffffffff16565b610b0d9190611c7d565b9050348114610b51576040517f08c379a0000000000000000000000000000000000000000000000000000000008152600401610b4890611d23565b60405180910390fd5b3073ffffffffffffffffffffffffffffffffffffffff166108fc349081150290604051600060405180830381858888f19350505050158015610b97573d6000803e3d6000fd5b506000610baa8b8b8b8b8b8b8b8b611144565b90508a73ffffffffffffffffffffffffffffffffffffffff167f40ab55e8ea5ecbffe5ac3a98b066ca0181d54a3467b72091ae09313e68277bdc828c8c8c8b8b8b8a604051610c00989796959493929190611d43565b60405180910390a2809250505098975050505050505050565b6000610c23610dae565b73ffffffffffffffffffffffffffffffffffffffff163373ffffffffffffffffffffffffffffffffffffffff1603610c90576040517f08c379a0000000000000000000000000000000000000000000000000000000008152600401610c8790611ae7565b60405180910390fd5b600060016002600085815260200190815260200160002060040160010154610cb89190611c7d565b9050348114610cfc576040517f08c379a0000000000000000000000000000000000000000000000000000000008152600401610cf390611d23565b60405180910390fd5b3073ffffffffffffffffffffffffffffffffffffffff166108fc349081150290604051600060405180830381858888f19350505050158015610d42573d6000803e3d6000fd5b506000610d5086868661122d565b90508573ffffffffffffffffffffffffffffffffffffffff167fbf5d5a04310e5165179d0106e6b639639a6a9b1c293019f5ba0a10f6eb11cb8e8584604051610d9a929190611dc1565b60405180910390a280925050509392505050565b6000600360009054906101000a900473ffffffffffffffffffffffffffffffffffffffff16905090565b610de0611472565b600260008381526020019081526020016000206004016040518060600160405290816000820160009054906101000a900473ffffffffffffffffffffffffffffffffffffffff1673ffffffffffffffffffffffffffffffffffffffff1673ffffffffffffffffffffffffffffffffffffffff168152602001600182015481526020016002820160009054906101000a900460ff1615151515815250509050919050565b610e8b610fea565b600073ffffffffffffffffffffffffffffffffffffffff168173ffffffffffffffffffffffffffffffffffffffff1603610efa576040517f08c379a0000000000000000000000000000000000000000000000000000000008152600401610ef190611e5c565b60405180910390fd5b610f0381611068565b50565b6000806002600084815260200190815260200160002090508060000160000160009054906101000a900473ffffffffffffffffffffffffffffffffffffffff1673ffffffffffffffffffffffffffffffffffffffff163373ffffffffffffffffffffffffffffffffffffffff1614610fb3576040517f08c379a0000000000000000000000000000000000000000000000000000000008152600401610faa90611ec8565b60405180910390fd5b600281600d0160006101000a81548160ff02191690836003811115610fdb57610fda611676565b5b02179055506001915050919050565b610ff261138b565b73ffffffffffffffffffffffffffffffffffffffff16611010610dae565b73ffffffffffffffffffffffffffffffffffffffff1614611066576040517f08c379a000000000000000000000000000000000000000000000000000000000815260040161105d90611f34565b60405180910390fd5b565b6000600360009054906101000a900473ffffffffffffffffffffffffffffffffffffffff16905081600360006101000a81548173ffffffffffffffffffffffffffffffffffffffff021916908373ffffffffffffffffffffffffffffffffffffffff1602179055508173ffffffffffffffffffffffffffffffffffffffff168173ffffffffffffffffffffffffffffffffffffffff167f8be0079c531659141344cd1fd0a4f28419497f9722a3daafe3b4186f6b6457e060405160405180910390a35050565b6000818361113c9190611c7d565b905092915050565b60006111506001611393565b600061115c60016113a9565b905060006002600083815260200190815260200160002090508a8160000160000160006101000a81548173ffffffffffffffffffffffffffffffffffffffff021916908373ffffffffffffffffffffffffffffffffffffffff1602179055506111cf60038761112e90919063ffffffff16565b81600001600101819055508981600701819055508881600801819055508781600901819055508581600a01819055508481600b01819055508381600c0181905550868160040160010181905550819250505098975050505050505050565b6000806002600084815260200190815260200160002090506000600381111561125957611258611676565b5b81600d0160009054906101000a900460ff16600381111561127d5761127c611676565b5b146112bd576040517f08c379a00000000000000000000000000000000000000000000000000000000081526004016112b490611fa0565b60405180910390fd5b848160040160000160006101000a81548173ffffffffffffffffffffffffffffffffffffffff021916908373ffffffffffffffffffffffffffffffffffffffff16021790555083816007018190555060018160040160020160006101000a81548160ff02191690831515021790555042816000016002018190555080600b0154426113489190611fc0565b8160000160030181905550600181600d0160006101000a81548160ff0219169083600381111561137b5761137a611676565b5b0217905550829150509392505050565b600033905090565b6001816000016000828254019250508190555050565b600081600001549050919050565b6040518060200160405280600081525090565b6040518061012001604052806113de611434565b81526020016113eb611472565b81526020016000815260200160008152602001600081526020016000815260200160008152602001600081526020016000600381111561142e5761142d611676565b5b81525090565b6040518060800160405280600073ffffffffffffffffffffffffffffffffffffffff1681526020016000815260200160008152602001600081525090565b6040518060600160405280600073ffffffffffffffffffffffffffffffffffffffff168152602001600081526020016000151581525090565b6000819050919050565b6114be816114ab565b82525050565b60006020820190506114d960008301846114b5565b92915050565b6114e8816114ab565b82525050565b60208201600082015161150460008501826114df565b50505050565b600060208201905061151f60008301846114ee565b92915050565b600080fd5b611533816114ab565b811461153e57600080fd5b50565b6000813590506115508161152a565b92915050565b60006020828403121561156c5761156b611525565b5b600061157a84828501611541565b91505092915050565b600073ffffffffffffffffffffffffffffffffffffffff82169050919050565b60006115ae82611583565b9050919050565b6115be816115a3565b82525050565b6080820160008201516115da60008501826115b5565b5060208201516115ed60208501826114df565b50604082015161160060408501826114df565b50606082015161161360608501826114df565b50505050565b60008115159050919050565b61162e81611619565b82525050565b60608201600082015161164a60008501826115b5565b50602082015161165d60208501826114df565b5060408201516116706040850182611625565b50505050565b7f4e487b7100000000000000000000000000000000000000000000000000000000600052602160045260246000fd5b600481106116b6576116b5611676565b5b50565b60008190506116c7826116a5565b919050565b60006116d7826116b9565b9050919050565b6116e7816116cc565b82525050565b6101c08201600082015161170460008501826115c4565b5060208201516117176080850182611634565b50604082015161172a60e08501826114df565b50606082015161173e6101008501826114df565b5060808201516117526101208501826114df565b5060a08201516117666101408501826114df565b5060c082015161177a6101608501826114df565b5060e082015161178e6101808501826114df565b506101008201516117a36101a08501826116de565b50505050565b60006101c0820190506117bf60008301846116ed565b92915050565b6117ce81611619565b82525050565b60006020820190506117e960008301846117c5565b92915050565b60808201600082015161180560008501826115b5565b50602082015161181860208501826114df565b50604082015161182b60408501826114df565b50606082015161183e60608501826114df565b50505050565b600060808201905061185960008301846117ef565b92915050565b611868816115a3565b811461187357600080fd5b50565b6000813590506118858161185f565b92915050565b6000602082840312156118a1576118a0611525565b5b60006118af84828501611876565b91505092915050565b600080600080600080600080610100898b0312156118d9576118d8611525565b5b60006118e78b828c01611876565b98505060206118f88b828c01611541565b97505060406119098b828c01611541565b965050606061191a8b828c01611541565b955050608061192b8b828c01611541565b94505060a061193c8b828c01611541565b93505060c061194d8b828c01611541565b92505060e061195e8b828c01611541565b9150509295985092959890939650565b60008060006060848603121561198757611986611525565b5b600061199586828701611876565b93505060206119a686828701611541565b92505060406119b786828701611541565b9150509250925092565b6119ca816115a3565b82525050565b60006020820190506119e560008301846119c1565b92915050565b606082016000820151611a0160008501826115b5565b506020820151611a1460208501826114df565b506040820151611a276040850182611625565b50505050565b6000606082019050611a4260008301846119eb565b92915050565b600081519050611a578161152a565b92915050565b600060208284031215611a7357611a72611525565b5b6000611a8184828501611a48565b91505092915050565b600082825260208201905092915050565b7f4f776e65722063616e206e6f742063616c6c20746865206d6574686f64000000600082015250565b6000611ad1601d83611a8a565b9150611adc82611a9b565b602082019050919050565b60006020820190508181036000830152611b0081611ac4565b9050919050565b600081905092915050565b50565b6000611b22600083611b07565b9150611b2d82611b12565b600082019050919050565b6000611b4382611b15565b9150819050919050565b7f53656e64696e67206661696c6564000000000000000000000000000000000000600082015250565b6000611b83600e83611a8a565b9150611b8e82611b4d565b602082019050919050565b60006020820190508181036000830152611bb281611b76565b9050919050565b6000604082019050611bce60008301856114b5565b611bdb60208301846119c1565b9392505050565b7f496e76616c696420616464726573730000000000000000000000000000000000600082015250565b6000611c18600f83611a8a565b9150611c2382611be2565b602082019050919050565b60006020820190508181036000830152611c4781611c0b565b9050919050565b7f4e487b7100000000000000000000000000000000000000000000000000000000600052601160045260246000fd5b6000611c88826114ab565b9150611c93836114ab565b9250817fffffffffffffffffffffffffffffffffffffffffffffffffffffffffffffffff0483118215151615611ccc57611ccb611c4e565b5b828202905092915050565b7f496e76616c69642065746820616d6f756e740000000000000000000000000000600082015250565b6000611d0d601283611a8a565b9150611d1882611cd7565b602082019050919050565b60006020820190508181036000830152611d3c81611d00565b9050919050565b600061010082019050611d59600083018b6114b5565b611d66602083018a6114b5565b611d7360408301896114b5565b611d8060608301886114b5565b611d8d60808301876114b5565b611d9a60a08301866114b5565b611da760c08301856114b5565b611db460e08301846114b5565b9998505050505050505050565b6000604082019050611dd660008301856114b5565b611de360208301846114b5565b9392505050565b7f4f776e61626c653a206e6577206f776e657220697320746865207a65726f206160008201527f6464726573730000000000000000000000000000000000000000000000000000602082015250565b6000611e46602683611a8a565b9150611e5182611dea565b604082019050919050565b60006020820190508181036000830152611e7581611e39565b9050919050565b7f4f6e6c79206275796572206f6620746865204344532063616e2063616e63656c600082015250565b6000611eb2602083611a8a565b9150611ebd82611e7c565b602082019050919050565b60006020820190508181036000830152611ee181611ea5565b9050919050565b7f4f776e61626c653a2063616c6c6572206973206e6f7420746865206f776e6572600082015250565b6000611f1e602083611a8a565b9150611f2982611ee8565b602082019050919050565b60006020820190508181036000830152611f4d81611f11565b9050919050565b7f54686520434453206973206e6f742070656e64696e6720737461746500000000600082015250565b6000611f8a601c83611a8a565b9150611f9582611f54565b602082019050919050565b60006020820190508181036000830152611fb981611f7d565b9050919050565b6000611fcb826114ab565b9150611fd6836114ab565b9250828201905080821115611fee57611fed611c4e565b5b9291505056fea2646970667358221220b58decce1e982584420ce6a8899196fa0c6c2e3a184d4529b698b8dcf28da22b64736f6c63430008100033",
  "immutableReferences": {},
  "source": "// SPDX-License-Identifier: MIT\npragma solidity ^0.8.7;\n\nimport './Swaps/Swaps.sol';\nimport '@openzeppelin/contracts/access/Ownable.sol';\nimport '@openzeppelin/contracts/utils/math/SafeMath.sol';\n\ncontract CDS is Swaps, Ownable {\n  using SafeMath for uint256;\n\n  constructor() payable {}\n\n  receive() external payable {}\n\n  modifier isNotOwner() {\n    require(msg.sender != owner(), 'Owner can not call the method');\n    _;\n  }\n\n  event CreateSwap(\n    address indexed buyer,\n    uint256 swapId,\n    uint256 initAssetPrice,\n    uint256 claimPrice,\n    uint256 liquidationPrice,\n    uint256 premium,\n    uint256 premiumInterval,\n    uint256 totalPremiumRounds,\n    uint256 buyerDeposit\n  );\n  event AcceptSwap(\n    address indexed seller,\n    uint256 swapId,\n    uint256 sellerDeposit\n  );\n  event CancelSwap(uint256 swapId, address buyer);\n\n  function createSwap(\n    address addr,\n    uint256 initAssetPrice,\n    uint256 claimPrice,\n    uint256 liquidationPrice,\n    uint256 sellerDeposit,\n    uint256 premium,\n    uint256 premiumInterval,\n    uint256 totalPremiumRounds\n  ) public payable isNotOwner returns (uint256) {\n    uint256 buyerDeposit = premium.mul(3) * 1 wei;\n    require(buyerDeposit == msg.value, 'Invalid eth amount');\n    payable(address(this)).transfer(msg.value);\n\n    uint256 newSwapId = _createSwap(\n      addr,\n      initAssetPrice,\n      claimPrice,\n      liquidationPrice,\n      sellerDeposit,\n      premium,\n      premiumInterval,\n      totalPremiumRounds\n    );\n\n    emit CreateSwap(\n      addr,\n      newSwapId,\n      initAssetPrice,\n      claimPrice,\n      liquidationPrice,\n      premium,\n      premiumInterval,\n      totalPremiumRounds,\n      buyerDeposit\n    );\n\n    return newSwapId;\n  }\n\n  function acceptSwap(\n    address addr,\n    uint256 initAssetPrice,\n    uint256 swapId\n  ) public payable isNotOwner returns (uint256) {\n    uint256 sellerDeposit = _swaps[swapId].seller.deposit * 1 wei;\n    require(sellerDeposit == msg.value, 'Invalid eth amount');\n    payable(address(this)).transfer(msg.value);\n\n    uint256 acceptedSwapId = _acceptSwap(addr, initAssetPrice, swapId);\n    emit AcceptSwap(addr, swapId, sellerDeposit);\n    return acceptedSwapId;\n  }\n\n  function cancelSwap(uint256 swapId) public isNotOwner returns (bool) {\n    _cancelSwap(swapId);\n    Swap memory targetSwap = _swaps[swapId];\n    (bool sent, ) = msg.sender.call{value: targetSwap.buyer.deposit}('');\n    require(sent, 'Sending failed');\n    emit CancelSwap(swapId, targetSwap.buyer.addr); // check\n    return sent;\n  }\n\n  function getSwap(uint256 swapId) public view returns (Swap memory) {\n    return _swaps[swapId];\n  }\n\n  function getBuyer(uint256 swapId) public view returns (Buyer memory) {\n    return _swaps[swapId].buyer;\n  }\n\n  function getSeller(uint256 swapId) public view returns (Seller memory) {\n    return _swaps[swapId].seller;\n  }\n\n  function getSwapId() public view returns (Counters.Counter memory) {\n    return _swapId;\n  }\n\n  function getContractBalance() public view returns (uint256) {\n    return address(this).balance;\n  }\n}\n",
  "sourcePath": "/Users/yoonsoo/codestates/BEB-07-final-CDS/contract/contracts/CDS.sol",
  "compiler": {
    "name": "solc",
    "version": "0.8.16+commit.07a7930e.Emscripten.clang"
  },
  "schemaVersion": "3.4.11",
  "updatedAt": "2023-01-26T01:29:33.617Z",
  "networkType": "ethereum",
  "devdoc": {
    "kind": "dev",
    "methods": {
      "owner()": {
        "details": "Returns the address of the current owner."
      },
      "renounceOwnership()": {
        "details": "Leaves the contract without owner. It will not be possible to call `onlyOwner` functions anymore. Can only be called by the current owner. NOTE: Renouncing ownership will leave the contract without an owner, thereby removing any functionality that is only available to the owner."
      },
      "transferOwnership(address)": {
        "details": "Transfers ownership of the contract to a new account (`newOwner`). Can only be called by the current owner."
      }
    },
    "version": 1
  },
  "userdoc": {
    "kind": "user",
    "methods": {},
    "version": 1
  }
}