{
  "contractName": "CDS",
  "abi": [
    {
      "inputs": [],
      "stateMutability": "payable",
      "type": "constructor",
      "payable": true
    },
    {
      "anonymous": false,
      "inputs": [
        {
          "indexed": true,
          "internalType": "address",
          "name": "seller",
          "type": "address"
        },
        {
          "indexed": false,
          "internalType": "uint256",
          "name": "swapId",
          "type": "uint256"
        },
        {
          "indexed": false,
          "internalType": "uint256",
          "name": "sellerDeposit",
          "type": "uint256"
        }
      ],
      "name": "AcceptSwap",
      "type": "event"
    },
    {
      "anonymous": false,
      "inputs": [
        {
          "indexed": false,
          "internalType": "uint256",
          "name": "swapId",
          "type": "uint256"
        },
        {
          "indexed": false,
          "internalType": "address",
          "name": "buyer",
          "type": "address"
        }
      ],
      "name": "CancelSwap",
      "type": "event"
    },
    {
      "anonymous": false,
      "inputs": [
        {
          "indexed": false,
          "internalType": "uint256",
          "name": "swapId",
          "type": "uint256"
        },
        {
          "indexed": false,
          "internalType": "address",
          "name": "buyer",
          "type": "address"
        },
        {
          "indexed": false,
          "internalType": "address",
          "name": "seller",
          "type": "address"
        },
        {
          "indexed": false,
          "internalType": "uint256",
          "name": "claimReward",
          "type": "uint256"
        }
      ],
      "name": "ClaimSwap",
      "type": "event"
    },
    {
      "anonymous": false,
      "inputs": [
        {
          "indexed": true,
          "internalType": "address",
          "name": "buyer",
          "type": "address"
        },
        {
          "indexed": false,
          "internalType": "uint256",
          "name": "swapId",
          "type": "uint256"
        },
        {
          "indexed": false,
          "internalType": "uint256",
          "name": "initAssetPrice",
          "type": "uint256"
        },
        {
          "indexed": false,
          "internalType": "uint256",
          "name": "amountOfAssets",
          "type": "uint256"
        },
        {
          "indexed": false,
          "internalType": "uint256",
          "name": "claimPrice",
          "type": "uint256"
        },
        {
          "indexed": false,
          "internalType": "uint256",
          "name": "liquidationPrice",
          "type": "uint256"
        },
        {
          "indexed": false,
          "internalType": "uint256",
          "name": "premium",
          "type": "uint256"
        },
        {
          "indexed": false,
          "internalType": "uint256",
          "name": "premiumInterval",
          "type": "uint256"
        },
        {
          "indexed": false,
          "internalType": "uint256",
          "name": "totalPremiumRounds",
          "type": "uint256"
        },
        {
          "indexed": false,
          "internalType": "uint256",
          "name": "buyerDeposit",
          "type": "uint256"
        }
      ],
      "name": "CreateSwap",
      "type": "event"
    },
    {
      "anonymous": false,
      "inputs": [
        {
          "indexed": true,
          "internalType": "address",
          "name": "previousOwner",
          "type": "address"
        },
        {
          "indexed": true,
          "internalType": "address",
          "name": "newOwner",
          "type": "address"
        }
      ],
      "name": "OwnershipTransferred",
      "type": "event"
    },
    {
      "inputs": [],
      "name": "getPriceFromOracle",
      "outputs": [
        {
          "internalType": "uint256",
          "name": "",
          "type": "uint256"
        }
      ],
      "stateMutability": "view",
      "type": "function",
      "constant": true
    },
    {
      "inputs": [],
      "name": "owner",
      "outputs": [
        {
          "internalType": "address",
          "name": "",
          "type": "address"
        }
      ],
      "stateMutability": "view",
      "type": "function",
      "constant": true
    },
    {
      "inputs": [],
      "name": "renounceOwnership",
      "outputs": [],
      "stateMutability": "nonpayable",
      "type": "function"
    },
    {
      "inputs": [
        {
          "internalType": "address",
          "name": "_priceOracleAddress",
          "type": "address"
        }
      ],
      "name": "setOracle",
      "outputs": [
        {
          "internalType": "bool",
          "name": "",
          "type": "bool"
        }
      ],
      "stateMutability": "nonpayable",
      "type": "function"
    },
    {
      "inputs": [
        {
          "internalType": "address",
          "name": "newOwner",
          "type": "address"
        }
      ],
      "name": "transferOwnership",
      "outputs": [],
      "stateMutability": "nonpayable",
      "type": "function"
    },
    {
      "stateMutability": "payable",
      "type": "receive",
      "payable": true
    },
    {
      "inputs": [
        {
          "internalType": "address",
          "name": "addr",
          "type": "address"
        },
        {
          "internalType": "uint256",
          "name": "initAssetPrice",
          "type": "uint256"
        },
        {
          "internalType": "uint256",
          "name": "amountOfAssets",
          "type": "uint256"
        },
        {
          "internalType": "uint256",
          "name": "claimPrice",
          "type": "uint256"
        },
        {
          "internalType": "uint256",
          "name": "liquidationPrice",
          "type": "uint256"
        },
        {
          "internalType": "uint256",
          "name": "sellerDeposit",
          "type": "uint256"
        },
        {
          "internalType": "uint256",
          "name": "premium",
          "type": "uint256"
        },
        {
          "internalType": "uint256",
          "name": "premiumInterval",
          "type": "uint256"
        },
        {
          "internalType": "uint256",
          "name": "totalPremiumRounds",
          "type": "uint256"
        }
      ],
      "name": "createSwap",
      "outputs": [
        {
          "internalType": "uint256",
          "name": "",
          "type": "uint256"
        }
      ],
      "stateMutability": "payable",
      "type": "function",
      "payable": true
    },
    {
      "inputs": [
        {
          "internalType": "address",
          "name": "addr",
          "type": "address"
        },
        {
          "internalType": "uint256",
          "name": "initAssetPrice",
          "type": "uint256"
        },
        {
          "internalType": "uint256",
          "name": "swapId",
          "type": "uint256"
        }
      ],
      "name": "acceptSwap",
      "outputs": [
        {
          "internalType": "uint256",
          "name": "",
          "type": "uint256"
        }
      ],
      "stateMutability": "payable",
      "type": "function",
      "payable": true
    },
    {
      "inputs": [
        {
          "internalType": "uint256",
          "name": "swapId",
          "type": "uint256"
        }
      ],
      "name": "cancelSwap",
      "outputs": [
        {
          "internalType": "bool",
          "name": "",
          "type": "bool"
        }
      ],
      "stateMutability": "nonpayable",
      "type": "function"
    },
    {
      "inputs": [
        {
          "internalType": "uint256",
          "name": "swapId",
          "type": "uint256"
        }
      ],
      "name": "claimSwap",
      "outputs": [
        {
          "internalType": "bool",
          "name": "",
          "type": "bool"
        }
      ],
      "stateMutability": "nonpayable",
      "type": "function"
    },
    {
      "inputs": [
        {
          "internalType": "uint256",
          "name": "swapId",
          "type": "uint256"
        }
      ],
      "name": "getClaimReward",
      "outputs": [
        {
          "internalType": "uint256",
          "name": "",
          "type": "uint256"
        }
      ],
      "stateMutability": "view",
      "type": "function",
      "constant": true
    },
    {
      "inputs": [
        {
          "internalType": "uint256",
          "name": "swapId",
          "type": "uint256"
        }
      ],
      "name": "getSwap",
      "outputs": [
        {
          "components": [
            {
              "components": [
                {
                  "internalType": "address",
                  "name": "addr",
                  "type": "address"
                },
                {
                  "internalType": "uint256",
                  "name": "deposit",
                  "type": "uint256"
                },
                {
                  "internalType": "uint256",
                  "name": "lastPayDate",
                  "type": "uint256"
                },
                {
                  "internalType": "uint256",
                  "name": "nextPayDate",
                  "type": "uint256"
                }
              ],
              "internalType": "struct Swaps.Buyer",
              "name": "buyer",
              "type": "tuple"
            },
            {
              "components": [
                {
                  "internalType": "address",
                  "name": "addr",
                  "type": "address"
                },
                {
                  "internalType": "uint256",
                  "name": "deposit",
                  "type": "uint256"
                },
                {
                  "internalType": "bool",
                  "name": "isDeposited",
                  "type": "bool"
                }
              ],
              "internalType": "struct Swaps.Seller",
              "name": "seller",
              "type": "tuple"
            },
            {
              "internalType": "uint256",
              "name": "initAssetPrice",
              "type": "uint256"
            },
            {
              "internalType": "uint256",
              "name": "amountOfAssets",
              "type": "uint256"
            },
            {
              "internalType": "uint256",
              "name": "claimPrice",
              "type": "uint256"
            },
            {
              "internalType": "uint256",
              "name": "liquidationPrice",
              "type": "uint256"
            },
            {
              "internalType": "uint256",
              "name": "premium",
              "type": "uint256"
            },
            {
              "internalType": "uint256",
              "name": "premiumRate",
              "type": "uint256"
            },
            {
              "internalType": "uint256",
              "name": "premiumInterval",
              "type": "uint256"
            },
            {
              "internalType": "uint256",
              "name": "totalPremiumRounds",
              "type": "uint256"
            },
            {
              "internalType": "enum Swaps.Status",
              "name": "status",
              "type": "uint8"
            }
          ],
          "internalType": "struct Swaps.Swap",
          "name": "",
          "type": "tuple"
        }
      ],
      "stateMutability": "view",
      "type": "function",
      "constant": true
    },
    {
      "inputs": [
        {
          "internalType": "uint256",
          "name": "swapId",
          "type": "uint256"
        }
      ],
      "name": "getBuyer",
      "outputs": [
        {
          "components": [
            {
              "internalType": "address",
              "name": "addr",
              "type": "address"
            },
            {
              "internalType": "uint256",
              "name": "deposit",
              "type": "uint256"
            },
            {
              "internalType": "uint256",
              "name": "lastPayDate",
              "type": "uint256"
            },
            {
              "internalType": "uint256",
              "name": "nextPayDate",
              "type": "uint256"
            }
          ],
          "internalType": "struct Swaps.Buyer",
          "name": "",
          "type": "tuple"
        }
      ],
      "stateMutability": "view",
      "type": "function",
      "constant": true
    },
    {
      "inputs": [
        {
          "internalType": "uint256",
          "name": "swapId",
          "type": "uint256"
        }
      ],
      "name": "getSeller",
      "outputs": [
        {
          "components": [
            {
              "internalType": "address",
              "name": "addr",
              "type": "address"
            },
            {
              "internalType": "uint256",
              "name": "deposit",
              "type": "uint256"
            },
            {
              "internalType": "bool",
              "name": "isDeposited",
              "type": "bool"
            }
          ],
          "internalType": "struct Swaps.Seller",
          "name": "",
          "type": "tuple"
        }
      ],
      "stateMutability": "view",
      "type": "function",
      "constant": true
    },
    {
      "inputs": [],
      "name": "getSwapId",
      "outputs": [
        {
          "components": [
            {
              "internalType": "uint256",
              "name": "_value",
              "type": "uint256"
            }
          ],
          "internalType": "struct Counters.Counter",
          "name": "",
          "type": "tuple"
        }
      ],
      "stateMutability": "view",
      "type": "function",
      "constant": true
    },
    {
      "inputs": [],
      "name": "getContractBalance",
      "outputs": [
        {
          "internalType": "uint256",
          "name": "",
          "type": "uint256"
        }
      ],
      "stateMutability": "view",
      "type": "function",
      "constant": true
    }
  ],
  "bytecode": "0x608060405260026003819055506200002c620000206200003260201b60201c565b6200003a60201b60201c565b62000100565b600033905090565b6000600460009054906101000a900473ffffffffffffffffffffffffffffffffffffffff16905081600460006101000a81548173ffffffffffffffffffffffffffffffffffffffff021916908373ffffffffffffffffffffffffffffffffffffffff1602179055508173ffffffffffffffffffffffffffffffffffffffff168173ffffffffffffffffffffffffffffffffffffffff167f8be0079c531659141344cd1fd0a4f28419497f9722a3daafe3b4186f6b6457e060405160405180910390a35050565b612c6c80620001106000396000f3fe6080604052600436106100ec5760003560e01c8063715018a61161008a5780639671ea9f116100595780639671ea9f1461030f578063be06fba01461034c578063d6a9de5114610389578063f2fde38b146103c6576100f3565b8063715018a6146102605780637adbf973146102775780638d4e7f8d146102b45780638da5cb5b146102e4576100f3565b80634a0d89ba116100c65780634a0d89ba1461017e57806354d6a2b7146101bb5780635bf608b8146101f85780636f9fb98a14610235576100f3565b806338f5a491146100f8578063407baacb14610123578063496ab39a14610153576100f3565b366100f357005b600080fd5b34801561010457600080fd5b5061010d6103ef565b60405161011a9190611f1c565b60405180910390f35b61013d60048036038101906101389190611fc6565b61048a565b60405161014a9190611f1c565b60405180910390f35b34801561015f57600080fd5b50610168610633565b60405161017591906120bb565b60405180910390f35b34801561018a57600080fd5b506101a560048036038101906101a091906120d6565b610657565b6040516101b29190612321565b60405180910390f35b3480156101c757600080fd5b506101e260048036038101906101dd91906120d6565b610827565b6040516101ef919061234c565b60405180910390f35b34801561020457600080fd5b5061021f600480360381019061021a91906120d6565b610ca0565b60405161022c91906123bc565b60405180910390f35b34801561024157600080fd5b5061024a610d44565b6040516102579190611f1c565b60405180910390f35b34801561026c57600080fd5b50610275610d4c565b005b34801561028357600080fd5b5061029e600480360381019061029991906123d7565b610d60565b6040516102ab919061234c565b60405180910390f35b6102ce60048036038101906102c99190612404565b610e19565b6040516102db9190611f1c565b60405180910390f35b3480156102f057600080fd5b506102f961103a565b6040516103069190612466565b60405180910390f35b34801561031b57600080fd5b50610336600480360381019061033191906120d6565b611064565b604051610343919061234c565b60405180910390f35b34801561035857600080fd5b50610373600480360381019061036e91906120d6565b6115cf565b6040516103809190611f1c565b60405180910390f35b34801561039557600080fd5b506103b060048036038101906103ab91906120d6565b6117fb565b6040516103bd91906124c3565b60405180910390f35b3480156103d257600080fd5b506103ed60048036038101906103e891906123d7565b6118a6565b005b60008060008054906101000a900473ffffffffffffffffffffffffffffffffffffffff1673ffffffffffffffffffffffffffffffffffffffff166398d5fdca6040518163ffffffff1660e01b8152600401602060405180830381865afa15801561045d573d6000803e3d6000fd5b505050506040513d601f19601f8201168201806040525081019061048191906124f3565b90508091505090565b600061049461103a565b73ffffffffffffffffffffffffffffffffffffffff163373ffffffffffffffffffffffffffffffffffffffff1603610501576040517f08c379a00000000000000000000000000000000000000000000000000000000081526004016104f89061257d565b60405180910390fd5b6000600161051960038761192990919063ffffffff16565b61052391906125cc565b9050348114610567576040517f08c379a000000000000000000000000000000000000000000000000000000000815260040161055e90612672565b60405180910390fd5b3073ffffffffffffffffffffffffffffffffffffffff166108fc349081150290604051600060405180830381858888f193505050501580156105ad573d6000803e3d6000fd5b5060006105c18c8c8c8c8c8c8c8c8c61193f565b90508b73ffffffffffffffffffffffffffffffffffffffff167fee5875d6387d348fa5a6839c8c8b4c3cc785221b4fe58bd317508e1368840162828d8d8d8d8c8c8c8b60405161061999989796959493929190612692565b60405180910390a280925050509998505050505050505050565b61063b611e01565b6001604051806020016040529081600082015481525050905090565b61065f611e14565b6002600083815260200190815260200160002060405180610160016040529081600082016040518060800160405290816000820160009054906101000a900473ffffffffffffffffffffffffffffffffffffffff1673ffffffffffffffffffffffffffffffffffffffff1673ffffffffffffffffffffffffffffffffffffffff16815260200160018201548152602001600282015481526020016003820154815250508152602001600482016040518060600160405290816000820160009054906101000a900473ffffffffffffffffffffffffffffffffffffffff1673ffffffffffffffffffffffffffffffffffffffff1673ffffffffffffffffffffffffffffffffffffffff168152602001600182015481526020016002820160009054906101000a900460ff1615151515815250508152602001600782015481526020016008820154815260200160098201548152602001600a8201548152602001600b8201548152602001600c8201548152602001600d8201548152602001600e8201548152602001600f820160009054906101000a900460ff16600381111561080a576108096121c4565b5b600381111561081c5761081b6121c4565b5b815250509050919050565b600061083161103a565b73ffffffffffffffffffffffffffffffffffffffff163373ffffffffffffffffffffffffffffffffffffffff160361089e576040517f08c379a00000000000000000000000000000000000000000000000000000000081526004016108959061257d565b60405180910390fd5b816002600082815260200190815260200160002060000160000160009054906101000a900473ffffffffffffffffffffffffffffffffffffffff1673ffffffffffffffffffffffffffffffffffffffff163373ffffffffffffffffffffffffffffffffffffffff1614610946576040517f08c379a000000000000000000000000000000000000000000000000000000000815260040161093d9061276b565b60405180910390fd5b826001600381111561095b5761095a6121c4565b5b60026000838152602001908152602001600020600f0160009054906101000a900460ff166003811115610991576109906121c4565b5b146109d1576040517f08c379a00000000000000000000000000000000000000000000000000000000081526004016109c8906127fd565b60405180910390fd5b60006002600086815260200190815260200160002060405180610160016040529081600082016040518060800160405290816000820160009054906101000a900473ffffffffffffffffffffffffffffffffffffffff1673ffffffffffffffffffffffffffffffffffffffff1673ffffffffffffffffffffffffffffffffffffffff16815260200160018201548152602001600282015481526020016003820154815250508152602001600482016040518060600160405290816000820160009054906101000a900473ffffffffffffffffffffffffffffffffffffffff1673ffffffffffffffffffffffffffffffffffffffff1673ffffffffffffffffffffffffffffffffffffffff168152602001600182015481526020016002820160009054906101000a900460ff1615151515815250508152602001600782015481526020016008820154815260200160098201548152602001600a8201548152602001600b8201548152602001600c8201548152602001600d8201548152602001600e8201548152602001600f820160009054906101000a900460ff166003811115610b7e57610b7d6121c4565b5b6003811115610b9057610b8f6121c4565b5b81525050905060003373ffffffffffffffffffffffffffffffffffffffff16826000015160200151604051610bc49061284e565b60006040518083038185875af1925050503d8060008114610c01576040519150601f19603f3d011682016040523d82523d6000602084013e610c06565b606091505b5050905080610c4a576040517f08c379a0000000000000000000000000000000000000000000000000000000008152600401610c41906128af565b60405180910390fd5b610c5386611a6a565b7fedc1bfa27112bfbfbe944ffc70f825e8f4c270f9755fe15db1869082f61b474c86836000015160000151604051610c8c9291906128cf565b60405180910390a180945050505050919050565b610ca8611e8c565b600260008381526020019081526020016000206000016040518060800160405290816000820160009054906101000a900473ffffffffffffffffffffffffffffffffffffffff1673ffffffffffffffffffffffffffffffffffffffff1673ffffffffffffffffffffffffffffffffffffffff16815260200160018201548152602001600282015481526020016003820154815250509050919050565b600047905090565b610d54611abf565b610d5e6000611b3d565b565b60008073ffffffffffffffffffffffffffffffffffffffff168273ffffffffffffffffffffffffffffffffffffffff1603610dd0576040517f08c379a0000000000000000000000000000000000000000000000000000000008152600401610dc790612944565b60405180910390fd5b816000806101000a81548173ffffffffffffffffffffffffffffffffffffffff021916908373ffffffffffffffffffffffffffffffffffffffff16021790555060019050919050565b6000610e2361103a565b73ffffffffffffffffffffffffffffffffffffffff163373ffffffffffffffffffffffffffffffffffffffff1603610e90576040517f08c379a0000000000000000000000000000000000000000000000000000000008152600401610e879061257d565b60405180910390fd5b8160016003811115610ea557610ea46121c4565b5b60026000838152602001908152602001600020600f0160009054906101000a900460ff166003811115610edb57610eda6121c4565b5b14610f1b576040517f08c379a0000000000000000000000000000000000000000000000000000000008152600401610f12906127fd565b60405180910390fd5b600060016002600086815260200190815260200160002060040160010154610f4391906125cc565b9050348114610f87576040517f08c379a0000000000000000000000000000000000000000000000000000000008152600401610f7e90612672565b60405180910390fd5b3073ffffffffffffffffffffffffffffffffffffffff166108fc349081150290604051600060405180830381858888f19350505050158015610fcd573d6000803e3d6000fd5b506000610fdb878787611c03565b90508673ffffffffffffffffffffffffffffffffffffffff167fbf5d5a04310e5165179d0106e6b639639a6a9b1c293019f5ba0a10f6eb11cb8e8684604051611025929190612964565b60405180910390a28093505050509392505050565b6000600460009054906101000a900473ffffffffffffffffffffffffffffffffffffffff16905090565b600061106e61103a565b73ffffffffffffffffffffffffffffffffffffffff163373ffffffffffffffffffffffffffffffffffffffff16036110db576040517f08c379a00000000000000000000000000000000000000000000000000000000081526004016110d29061257d565b60405180910390fd5b816002600082815260200190815260200160002060000160000160009054906101000a900473ffffffffffffffffffffffffffffffffffffffff1673ffffffffffffffffffffffffffffffffffffffff163373ffffffffffffffffffffffffffffffffffffffff1614611183576040517f08c379a000000000000000000000000000000000000000000000000000000000815260040161117a9061276b565b60405180910390fd5b8260026003811115611198576111976121c4565b5b60026000838152602001908152602001600020600f0160009054906101000a900460ff1660038111156111ce576111cd6121c4565b5b1461120e576040517f08c379a0000000000000000000000000000000000000000000000000000000008152600401611205906127fd565b60405180910390fd5b6000611219856115cf565b90506000810361125e576040517f08c379a0000000000000000000000000000000000000000000000000000000008152600401611255906129ff565b60405180910390fd5b60006002600087815260200190815260200160002060405180610160016040529081600082016040518060800160405290816000820160009054906101000a900473ffffffffffffffffffffffffffffffffffffffff1673ffffffffffffffffffffffffffffffffffffffff1673ffffffffffffffffffffffffffffffffffffffff16815260200160018201548152602001600282015481526020016003820154815250508152602001600482016040518060600160405290816000820160009054906101000a900473ffffffffffffffffffffffffffffffffffffffff1673ffffffffffffffffffffffffffffffffffffffff1673ffffffffffffffffffffffffffffffffffffffff168152602001600182015481526020016002820160009054906101000a900460ff1615151515815250508152602001600782015481526020016008820154815260200160098201548152602001600a8201548152602001600b8201548152602001600c8201548152602001600d8201548152602001600e8201548152602001600f820160009054906101000a900460ff16600381111561140b5761140a6121c4565b5b600381111561141d5761141c6121c4565b5b81525050905060003373ffffffffffffffffffffffffffffffffffffffff16826000015160200151846114509190612a1f565b60405161145c9061284e565b60006040518083038185875af1925050503d8060008114611499576040519150601f19603f3d011682016040523d82523d6000602084013e61149e565b606091505b5050905060003373ffffffffffffffffffffffffffffffffffffffff16848460200151602001516114cf9190612a53565b6040516114db9061284e565b60006040518083038185875af1925050503d8060008114611518576040519150601f19603f3d011682016040523d82523d6000602084013e61151d565b606091505b5050905081801561152b5750805b61156a576040517f08c379a000000000000000000000000000000000000000000000000000000000815260040161156190612ad3565b60405180910390fd5b61157388611ce9565b7fb1d5f6c80b2138d4bb2dbda1c180eba2090137bfd92c5091db8e9d35b5aa14e288846000015160000151856020015160000151876040516115b89493929190612af3565b60405180910390a160019650505050505050919050565b6000806115da6103ef565b905060006002600085815260200190815260200160002060405180610160016040529081600082016040518060800160405290816000820160009054906101000a900473ffffffffffffffffffffffffffffffffffffffff1673ffffffffffffffffffffffffffffffffffffffff1673ffffffffffffffffffffffffffffffffffffffff16815260200160018201548152602001600282015481526020016003820154815250508152602001600482016040518060600160405290816000820160009054906101000a900473ffffffffffffffffffffffffffffffffffffffff1673ffffffffffffffffffffffffffffffffffffffff1673ffffffffffffffffffffffffffffffffffffffff168152602001600182015481526020016002820160009054906101000a900460ff1615151515815250508152602001600782015481526020016008820154815260200160098201548152602001600a8201548152602001600b8201548152602001600c8201548152602001600d8201548152602001600e8201548152602001600f820160009054906101000a900460ff166003811115611789576117886121c4565b5b600381111561179b5761179a6121c4565b5b81525050905081816080015110156117b8576000925050506117f6565b6000816020015160200151905060006117ec8360a00151846040015185606001518786611d7890949392919063ffffffff16565b9050809450505050505b919050565b611803611eca565b600260008381526020019081526020016000206004016040518060600160405290816000820160009054906101000a900473ffffffffffffffffffffffffffffffffffffffff1673ffffffffffffffffffffffffffffffffffffffff1673ffffffffffffffffffffffffffffffffffffffff168152602001600182015481526020016002820160009054906101000a900460ff1615151515815250509050919050565b6118ae611abf565b600073ffffffffffffffffffffffffffffffffffffffff168173ffffffffffffffffffffffffffffffffffffffff160361191d576040517f08c379a000000000000000000000000000000000000000000000000000000000815260040161191490612baa565b60405180910390fd5b61192681611b3d565b50565b6000818361193791906125cc565b905092915050565b600061194b6001611dbf565b60006119576001611dd5565b905060006002600083815260200190815260200160002090508b8160000160000160006101000a81548173ffffffffffffffffffffffffffffffffffffffff021916908373ffffffffffffffffffffffffffffffffffffffff1602179055506119ca60038761192990919063ffffffff16565b81600001600101819055508a81600701819055508981600801819055508881600901819055508781600a01819055508581600b018190555060035481600c01819055508481600d01819055508381600e0181905550600181600f0160006101000a81548160ff02191690836003811115611a4757611a466121c4565b5b021790555086816004016001018190555081925050509998505050505050505050565b600060026000838152602001908152602001600020905060008160000160010181905550600081600f0160006101000a81548160ff02191690836003811115611ab657611ab56121c4565b5b02179055505050565b611ac7611de3565b73ffffffffffffffffffffffffffffffffffffffff16611ae561103a565b73ffffffffffffffffffffffffffffffffffffffff1614611b3b576040517f08c379a0000000000000000000000000000000000000000000000000000000008152600401611b3290612c16565b60405180910390fd5b565b6000600460009054906101000a900473ffffffffffffffffffffffffffffffffffffffff16905081600460006101000a81548173ffffffffffffffffffffffffffffffffffffffff021916908373ffffffffffffffffffffffffffffffffffffffff1602179055508173ffffffffffffffffffffffffffffffffffffffff168173ffffffffffffffffffffffffffffffffffffffff167f8be0079c531659141344cd1fd0a4f28419497f9722a3daafe3b4186f6b6457e060405160405180910390a35050565b600080600260008481526020019081526020016000209050848160040160000160006101000a81548173ffffffffffffffffffffffffffffffffffffffff021916908373ffffffffffffffffffffffffffffffffffffffff16021790555083816007018190555060018160040160020160006101000a81548160ff02191690831515021790555042816000016002018190555080600d015442611ca69190612a1f565b8160000160030181905550600281600f0160006101000a81548160ff02191690836003811115611cd957611cd86121c4565b5b0217905550829150509392505050565b600060026000838152602001908152602001600020905060008160000160010181905550600081600001600301819055506000816004016001018190555060008160040160020160006101000a81548160ff021916908315150217905550600381600f0160006101000a81548160ff02191690836003811115611d6f57611d6e6121c4565b5b02179055505050565b600080828610611d8a57869050611db2565b611daf611da08487611deb90919063ffffffff16565b8561192990919063ffffffff16565b90505b8091505095945050505050565b6001816000016000828254019250508190555050565b600081600001549050919050565b600033905090565b60008183611df99190612a53565b905092915050565b6040518060200160405280600081525090565b604051806101600160405280611e28611e8c565b8152602001611e35611eca565b8152602001600081526020016000815260200160008152602001600081526020016000815260200160008152602001600081526020016000815260200160006003811115611e8657611e856121c4565b5b81525090565b6040518060800160405280600073ffffffffffffffffffffffffffffffffffffffff1681526020016000815260200160008152602001600081525090565b6040518060600160405280600073ffffffffffffffffffffffffffffffffffffffff168152602001600081526020016000151581525090565b6000819050919050565b611f1681611f03565b82525050565b6000602082019050611f316000830184611f0d565b92915050565b600080fd5b600073ffffffffffffffffffffffffffffffffffffffff82169050919050565b6000611f6782611f3c565b9050919050565b611f7781611f5c565b8114611f8257600080fd5b50565b600081359050611f9481611f6e565b92915050565b611fa381611f03565b8114611fae57600080fd5b50565b600081359050611fc081611f9a565b92915050565b60008060008060008060008060006101208a8c031215611fe957611fe8611f37565b5b6000611ff78c828d01611f85565b99505060206120088c828d01611fb1565b98505060406120198c828d01611fb1565b975050606061202a8c828d01611fb1565b965050608061203b8c828d01611fb1565b95505060a061204c8c828d01611fb1565b94505060c061205d8c828d01611fb1565b93505060e061206e8c828d01611fb1565b9250506101006120808c828d01611fb1565b9150509295985092959850929598565b61209981611f03565b82525050565b6020820160008201516120b56000850182612090565b50505050565b60006020820190506120d0600083018461209f565b92915050565b6000602082840312156120ec576120eb611f37565b5b60006120fa84828501611fb1565b91505092915050565b61210c81611f5c565b82525050565b6080820160008201516121286000850182612103565b50602082015161213b6020850182612090565b50604082015161214e6040850182612090565b5060608201516121616060850182612090565b50505050565b60008115159050919050565b61217c81612167565b82525050565b6060820160008201516121986000850182612103565b5060208201516121ab6020850182612090565b5060408201516121be6040850182612173565b50505050565b7f4e487b7100000000000000000000000000000000000000000000000000000000600052602160045260246000fd5b60048110612204576122036121c4565b5b50565b6000819050612215826121f3565b919050565b600061222582612207565b9050919050565b6122358161221a565b82525050565b610200820160008201516122526000850182612112565b5060208201516122656080850182612182565b50604082015161227860e0850182612090565b50606082015161228c610100850182612090565b5060808201516122a0610120850182612090565b5060a08201516122b4610140850182612090565b5060c08201516122c8610160850182612090565b5060e08201516122dc610180850182612090565b506101008201516122f16101a0850182612090565b506101208201516123066101c0850182612090565b5061014082015161231b6101e085018261222c565b50505050565b600061020082019050612337600083018461223b565b92915050565b61234681612167565b82525050565b6000602082019050612361600083018461233d565b92915050565b60808201600082015161237d6000850182612103565b5060208201516123906020850182612090565b5060408201516123a36040850182612090565b5060608201516123b66060850182612090565b50505050565b60006080820190506123d16000830184612367565b92915050565b6000602082840312156123ed576123ec611f37565b5b60006123fb84828501611f85565b91505092915050565b60008060006060848603121561241d5761241c611f37565b5b600061242b86828701611f85565b935050602061243c86828701611fb1565b925050604061244d86828701611fb1565b9150509250925092565b61246081611f5c565b82525050565b600060208201905061247b6000830184612457565b92915050565b6060820160008201516124976000850182612103565b5060208201516124aa6020850182612090565b5060408201516124bd6040850182612173565b50505050565b60006060820190506124d86000830184612481565b92915050565b6000815190506124ed81611f9a565b92915050565b60006020828403121561250957612508611f37565b5b6000612517848285016124de565b91505092915050565b600082825260208201905092915050565b7f4f776e65722063616e206e6f742063616c6c20746865206d6574686f64000000600082015250565b6000612567601d83612520565b915061257282612531565b602082019050919050565b600060208201905081810360008301526125968161255a565b9050919050565b7f4e487b7100000000000000000000000000000000000000000000000000000000600052601160045260246000fd5b60006125d782611f03565b91506125e283611f03565b9250817fffffffffffffffffffffffffffffffffffffffffffffffffffffffffffffffff048311821515161561261b5761261a61259d565b5b828202905092915050565b7f496e76616c69642065746820616d6f756e740000000000000000000000000000600082015250565b600061265c601283612520565b915061266782612626565b602082019050919050565b6000602082019050818103600083015261268b8161264f565b9050919050565b6000610120820190506126a8600083018c611f0d565b6126b5602083018b611f0d565b6126c2604083018a611f0d565b6126cf6060830189611f0d565b6126dc6080830188611f0d565b6126e960a0830187611f0d565b6126f660c0830186611f0d565b61270360e0830185611f0d565b612711610100830184611f0d565b9a9950505050505050505050565b7f4f6e6c79206275796572206f6620746865204344532063616e2063616c6c0000600082015250565b6000612755601e83612520565b91506127608261271f565b602082019050919050565b6000602082019050818103600083015261278481612748565b9050919050565b7f54686520737461747573206f6620746865204344532073686f756c642062652060008201527f70656e64696e6700000000000000000000000000000000000000000000000000602082015250565b60006127e7602783612520565b91506127f28261278b565b604082019050919050565b60006020820190508181036000830152612816816127da565b9050919050565b600081905092915050565b50565b600061283860008361281d565b915061284382612828565b600082019050919050565b60006128598261282b565b9150819050919050565b7f53656e64696e67206661696c6564000000000000000000000000000000000000600082015250565b6000612899600e83612520565b91506128a482612863565b602082019050919050565b600060208201905081810360008301526128c88161288c565b9050919050565b60006040820190506128e46000830185611f0d565b6128f16020830184612457565b9392505050565b7f496e76616c696420616464726573730000000000000000000000000000000000600082015250565b600061292e600f83612520565b9150612939826128f8565b602082019050919050565b6000602082019050818103600083015261295d81612921565b9050919050565b60006040820190506129796000830185611f0d565b6129866020830184611f0d565b9392505050565b7f436c61696d20707269636520696e204344532073686f756c642062652068696760008201527f686572207468616e2063757272656e74207072696365206f6620617373657400602082015250565b60006129e9603f83612520565b91506129f48261298d565b604082019050919050565b60006020820190508181036000830152612a18816129dc565b9050919050565b6000612a2a82611f03565b9150612a3583611f03565b9250828201905080821115612a4d57612a4c61259d565b5b92915050565b6000612a5e82611f03565b9150612a6983611f03565b9250828203905081811115612a8157612a8061259d565b5b92915050565b7f53656e64696e6720726577617264206661696c65640000000000000000000000600082015250565b6000612abd601583612520565b9150612ac882612a87565b602082019050919050565b60006020820190508181036000830152612aec81612ab0565b9050919050565b6000608082019050612b086000830187611f0d565b612b156020830186612457565b612b226040830185612457565b612b2f6060830184611f0d565b95945050505050565b7f4f776e61626c653a206e6577206f776e657220697320746865207a65726f206160008201527f6464726573730000000000000000000000000000000000000000000000000000602082015250565b6000612b94602683612520565b9150612b9f82612b38565b604082019050919050565b60006020820190508181036000830152612bc381612b87565b9050919050565b7f4f776e61626c653a2063616c6c6572206973206e6f7420746865206f776e6572600082015250565b6000612c00602083612520565b9150612c0b82612bca565b602082019050919050565b60006020820190508181036000830152612c2f81612bf3565b905091905056fea2646970667358221220f3fb892d84f3d54aa096f2b2b5d403bc883c7c22698dc6e66239df3f65f9c79a64736f6c63430008100033",
  "immutableReferences": {},
  "source": "// SPDX-License-Identifier: MIT\npragma solidity ^0.8.7;\n\nimport './Swaps/Swaps.sol';\nimport '@openzeppelin/contracts/access/Ownable.sol';\nimport '@openzeppelin/contracts/utils/math/SafeMath.sol';\nimport './libs/LibClaim.sol';\n\ncontract CDS is Swaps, Ownable {\n  using SafeMath for uint256;\n  using LibClaim for uint256;\n\n  constructor() payable {}\n\n  receive() external payable {}\n\n  modifier isNotOwner() {\n    require(msg.sender != owner(), 'Owner can not call the method');\n    _;\n  }\n\n  event CreateSwap(\n    address indexed buyer,\n    uint256 swapId,\n    uint256 initAssetPrice,\n    uint256 amountOfAssets,\n    uint256 claimPrice,\n    uint256 liquidationPrice,\n    uint256 premium,\n    uint256 premiumInterval,\n    uint256 totalPremiumRounds,\n    uint256 buyerDeposit\n  );\n  event AcceptSwap(\n    address indexed seller,\n    uint256 swapId,\n    uint256 sellerDeposit\n  );\n  event CancelSwap(uint256 swapId, address buyer);\n  event ClaimSwap(\n    uint256 swapId,\n    address buyer,\n    address seller,\n    uint256 claimReward\n  );\n\n  function createSwap(\n    address addr,\n    uint256 initAssetPrice,\n    uint256 amountOfAssets,\n    uint256 claimPrice,\n    uint256 liquidationPrice,\n    uint256 sellerDeposit,\n    uint256 premium,\n    uint256 premiumInterval,\n    uint256 totalPremiumRounds\n  ) external payable isNotOwner returns (uint256) {\n    uint256 buyerDeposit = premium.mul(3) * 1 wei;\n    require(buyerDeposit == msg.value, 'Invalid eth amount');\n    payable(address(this)).transfer(msg.value);\n\n    uint256 newSwapId = _createSwap(\n      addr,\n      initAssetPrice,\n      amountOfAssets,\n      claimPrice,\n      liquidationPrice,\n      sellerDeposit,\n      premium,\n      premiumInterval,\n      totalPremiumRounds\n    );\n\n    emit CreateSwap(\n      addr,\n      newSwapId,\n      initAssetPrice,\n      amountOfAssets,\n      claimPrice,\n      liquidationPrice,\n      premium,\n      premiumInterval,\n      totalPremiumRounds,\n      buyerDeposit\n    );\n\n    return newSwapId;\n  }\n\n  function acceptSwap(\n    address addr,\n    uint256 initAssetPrice,\n    uint256 swapId\n  ) external payable isNotOwner isPending(swapId) returns (uint256) {\n    uint256 sellerDeposit = _swaps[swapId].seller.deposit * 1 wei;\n    require(sellerDeposit == msg.value, 'Invalid eth amount');\n    payable(address(this)).transfer(msg.value);\n\n    uint256 acceptedSwapId = _acceptSwap(addr, initAssetPrice, swapId);\n    emit AcceptSwap(addr, swapId, sellerDeposit);\n    return acceptedSwapId;\n  }\n\n  function cancelSwap(\n    uint256 swapId\n  ) external isNotOwner isBuyer(swapId) isPending(swapId) returns (bool) {\n    Swap memory targetSwap = _swaps[swapId];\n    (bool sent, ) = msg.sender.call{value: targetSwap.buyer.deposit}('');\n    require(sent, 'Sending failed');\n    _cancelSwap(swapId);\n    emit CancelSwap(swapId, targetSwap.buyer.addr);\n    return sent;\n  }\n\n  function claimSwap(\n    uint256 swapId\n  ) external isNotOwner isBuyer(swapId) isActive(swapId) returns (bool) {\n    uint256 claimReward = getClaimReward(swapId);\n    require(\n      claimReward != 0,\n      'Claim price in CDS should be higher than current price of asset'\n    );\n    Swap memory targetSwap = _swaps[swapId];\n    (bool sentBuyer, ) = msg.sender.call{\n      value: (claimReward + targetSwap.buyer.deposit)\n    }('');\n    (bool sentSeller, ) = msg.sender.call{\n      value: (targetSwap.seller.deposit - claimReward)\n    }('');\n    require(sentBuyer && sentSeller, 'Sending reward failed');\n    _claimSwap(swapId);\n    emit ClaimSwap(\n      swapId,\n      targetSwap.buyer.addr,\n      targetSwap.seller.addr,\n      claimReward\n    );\n    return true;\n  }\n\n  function getClaimReward(uint256 swapId) public view returns (uint256) {\n    uint256 currPrice = getPriceFromOracle();\n    Swap memory targetSwap = _swaps[swapId];\n    if (targetSwap.claimPrice < currPrice) {\n      return 0;\n    }\n    uint256 sellerDeposit = targetSwap.seller.deposit;\n    uint256 claimReward = sellerDeposit.calcClaimReward(\n      targetSwap.liquidationPrice,\n      targetSwap.initAssetPrice,\n      targetSwap.amountOfAssets,\n      currPrice\n    );\n    return claimReward;\n  }\n\n  function getSwap(uint256 swapId) public view returns (Swap memory) {\n    return _swaps[swapId];\n  }\n\n  function getBuyer(uint256 swapId) public view returns (Buyer memory) {\n    return _swaps[swapId].buyer;\n  }\n\n  function getSeller(uint256 swapId) public view returns (Seller memory) {\n    return _swaps[swapId].seller;\n  }\n\n  function getSwapId() public view returns (Counters.Counter memory) {\n    return _swapId;\n  }\n\n  function getContractBalance() public view returns (uint256) {\n    return address(this).balance;\n  }\n}\n",
  "sourcePath": "/Users/sdh/Study/BEB_07/projects/CDS/contract/contracts/CDS.sol",
  "compiler": {
    "name": "solc",
    "version": "0.8.16+commit.07a7930e.Emscripten.clang"
  },
  "schemaVersion": "3.4.9",
  "updatedAt": "2023-01-27T04:59:08.183Z",
  "networkType": "ethereum",
  "devdoc": {
    "kind": "dev",
    "methods": {
      "owner()": {
        "details": "Returns the address of the current owner."
      },
      "renounceOwnership()": {
        "details": "Leaves the contract without owner. It will not be possible to call `onlyOwner` functions anymore. Can only be called by the current owner. NOTE: Renouncing ownership will leave the contract without an owner, thereby removing any functionality that is only available to the owner."
      },
      "transferOwnership(address)": {
        "details": "Transfers ownership of the contract to a new account (`newOwner`). Can only be called by the current owner."
      }
    },
    "version": 1
  },
  "userdoc": {
    "kind": "user",
    "methods": {},
    "version": 1
  }
}