{
  "contractName": "CDS",
  "abi": [
    {
      "inputs": [],
      "stateMutability": "payable",
      "type": "constructor"
    },
    {
      "anonymous": false,
      "inputs": [
        {
          "indexed": true,
          "internalType": "address",
          "name": "seller",
          "type": "address"
        },
        {
          "indexed": false,
          "internalType": "uint256",
          "name": "swapId",
          "type": "uint256"
        },
        {
          "indexed": false,
          "internalType": "uint256",
          "name": "sellerDeposit",
          "type": "uint256"
        }
      ],
      "name": "AcceptSwap",
      "type": "event"
    },
    {
      "anonymous": false,
      "inputs": [
        {
          "indexed": false,
          "internalType": "uint256",
          "name": "swapId",
          "type": "uint256"
        },
        {
          "indexed": false,
          "internalType": "address",
          "name": "buyer",
          "type": "address"
        }
      ],
      "name": "CancelSwap",
      "type": "event"
    },
    {
      "anonymous": false,
      "inputs": [
        {
          "indexed": false,
          "internalType": "uint256",
          "name": "swapId",
          "type": "uint256"
        },
        {
          "indexed": false,
          "internalType": "address",
          "name": "buyer",
          "type": "address"
        },
        {
          "indexed": false,
          "internalType": "address",
          "name": "seller",
          "type": "address"
        },
        {
          "indexed": false,
          "internalType": "uint256",
          "name": "claimReward",
          "type": "uint256"
        }
      ],
      "name": "ClaimSwap",
      "type": "event"
    },
    {
      "anonymous": false,
      "inputs": [
        {
          "indexed": true,
          "internalType": "address",
          "name": "buyer",
          "type": "address"
        },
        {
          "indexed": false,
          "internalType": "uint256",
          "name": "swapId",
          "type": "uint256"
        },
        {
          "indexed": false,
          "internalType": "uint256",
          "name": "initAssetPrice",
          "type": "uint256"
        },
        {
          "indexed": false,
          "internalType": "uint256",
          "name": "claimPrice",
          "type": "uint256"
        },
        {
          "indexed": false,
          "internalType": "uint256",
          "name": "liquidationPrice",
          "type": "uint256"
        },
        {
          "indexed": false,
          "internalType": "uint256",
          "name": "premium",
          "type": "uint256"
        },
        {
          "indexed": false,
          "internalType": "uint256",
          "name": "premiumInterval",
          "type": "uint256"
        },
        {
          "indexed": false,
          "internalType": "uint256",
          "name": "totalPremiumRounds",
          "type": "uint256"
        },
        {
          "indexed": false,
          "internalType": "uint256",
          "name": "buyerDeposit",
          "type": "uint256"
        }
      ],
      "name": "CreateSwap",
      "type": "event"
    },
    {
      "anonymous": false,
      "inputs": [
        {
          "indexed": true,
          "internalType": "address",
          "name": "previousOwner",
          "type": "address"
        },
        {
          "indexed": true,
          "internalType": "address",
          "name": "newOwner",
          "type": "address"
        }
      ],
      "name": "OwnershipTransferred",
      "type": "event"
    },
    {
      "inputs": [],
      "name": "getPriceFromOracle",
      "outputs": [
        {
          "internalType": "uint256",
          "name": "",
          "type": "uint256"
        }
      ],
      "stateMutability": "view",
      "type": "function"
    },
    {
      "inputs": [],
      "name": "owner",
      "outputs": [
        {
          "internalType": "address",
          "name": "",
          "type": "address"
        }
      ],
      "stateMutability": "view",
      "type": "function"
    },
    {
      "inputs": [],
      "name": "renounceOwnership",
      "outputs": [],
      "stateMutability": "nonpayable",
      "type": "function"
    },
    {
      "inputs": [
        {
          "internalType": "address",
          "name": "_priceOracleAddress",
          "type": "address"
        }
      ],
      "name": "setOracle",
      "outputs": [
        {
          "internalType": "bool",
          "name": "",
          "type": "bool"
        }
      ],
      "stateMutability": "nonpayable",
      "type": "function"
    },
    {
      "inputs": [
        {
          "internalType": "address",
          "name": "newOwner",
          "type": "address"
        }
      ],
      "name": "transferOwnership",
      "outputs": [],
      "stateMutability": "nonpayable",
      "type": "function"
    },
    {
      "stateMutability": "payable",
      "type": "receive"
    },
    {
      "inputs": [
        {
          "internalType": "address",
          "name": "addr",
          "type": "address"
        },
        {
          "internalType": "uint256",
          "name": "initAssetPrice",
          "type": "uint256"
        },
        {
          "internalType": "uint256",
          "name": "claimPrice",
          "type": "uint256"
        },
        {
          "internalType": "uint256",
          "name": "liquidationPrice",
          "type": "uint256"
        },
        {
          "internalType": "uint256",
          "name": "sellerDeposit",
          "type": "uint256"
        },
        {
          "internalType": "uint256",
          "name": "premium",
          "type": "uint256"
        },
        {
          "internalType": "uint256",
          "name": "premiumInterval",
          "type": "uint256"
        },
        {
          "internalType": "uint256",
          "name": "totalPremiumRounds",
          "type": "uint256"
        }
      ],
      "name": "createSwap",
      "outputs": [
        {
          "internalType": "uint256",
          "name": "",
          "type": "uint256"
        }
      ],
      "stateMutability": "payable",
      "type": "function"
    },
    {
      "inputs": [
        {
          "internalType": "address",
          "name": "addr",
          "type": "address"
        },
        {
          "internalType": "uint256",
          "name": "initAssetPrice",
          "type": "uint256"
        },
        {
          "internalType": "uint256",
          "name": "swapId",
          "type": "uint256"
        }
      ],
      "name": "acceptSwap",
      "outputs": [
        {
          "internalType": "uint256",
          "name": "",
          "type": "uint256"
        }
      ],
      "stateMutability": "payable",
      "type": "function"
    },
    {
      "inputs": [
        {
          "internalType": "uint256",
          "name": "swapId",
          "type": "uint256"
        }
      ],
      "name": "cancelSwap",
      "outputs": [
        {
          "internalType": "bool",
          "name": "",
          "type": "bool"
        }
      ],
      "stateMutability": "nonpayable",
      "type": "function"
    },
    {
      "inputs": [
        {
          "internalType": "uint256",
          "name": "swapId",
          "type": "uint256"
        }
      ],
      "name": "claimSwap",
      "outputs": [
        {
          "internalType": "bool",
          "name": "",
          "type": "bool"
        }
      ],
      "stateMutability": "nonpayable",
      "type": "function"
    },
    {
      "inputs": [
        {
          "internalType": "uint256",
          "name": "swapId",
          "type": "uint256"
        }
      ],
      "name": "getClaimReward",
      "outputs": [
        {
          "internalType": "uint256",
          "name": "",
          "type": "uint256"
        }
      ],
      "stateMutability": "view",
      "type": "function"
    },
    {
      "inputs": [
        {
          "internalType": "uint256",
          "name": "swapId",
          "type": "uint256"
        }
      ],
      "name": "getSwap",
      "outputs": [
        {
          "components": [
            {
              "components": [
                {
                  "internalType": "address",
                  "name": "addr",
                  "type": "address"
                },
                {
                  "internalType": "uint256",
                  "name": "deposit",
                  "type": "uint256"
                },
                {
                  "internalType": "uint256",
                  "name": "lastPayDate",
                  "type": "uint256"
                },
                {
                  "internalType": "uint256",
                  "name": "nextPayDate",
                  "type": "uint256"
                }
              ],
              "internalType": "struct Swaps.Buyer",
              "name": "buyer",
              "type": "tuple"
            },
            {
              "components": [
                {
                  "internalType": "address",
                  "name": "addr",
                  "type": "address"
                },
                {
                  "internalType": "uint256",
                  "name": "deposit",
                  "type": "uint256"
                },
                {
                  "internalType": "bool",
                  "name": "isDeposited",
                  "type": "bool"
                }
              ],
              "internalType": "struct Swaps.Seller",
              "name": "seller",
              "type": "tuple"
            },
            {
              "internalType": "uint256",
              "name": "initAssetPrice",
              "type": "uint256"
            },
            {
              "internalType": "uint256",
              "name": "claimPrice",
              "type": "uint256"
            },
            {
              "internalType": "uint256",
              "name": "liquidationPrice",
              "type": "uint256"
            },
            {
              "internalType": "uint256",
              "name": "premium",
              "type": "uint256"
            },
            {
              "internalType": "uint256",
              "name": "premiumInterval",
              "type": "uint256"
            },
            {
              "internalType": "uint256",
              "name": "totalPremiumRounds",
              "type": "uint256"
            },
            {
              "internalType": "enum Swaps.Status",
              "name": "status",
              "type": "uint8"
            }
          ],
          "internalType": "struct Swaps.Swap",
          "name": "",
          "type": "tuple"
        }
      ],
      "stateMutability": "view",
      "type": "function"
    },
    {
      "inputs": [
        {
          "internalType": "uint256",
          "name": "swapId",
          "type": "uint256"
        }
      ],
      "name": "getBuyer",
      "outputs": [
        {
          "components": [
            {
              "internalType": "address",
              "name": "addr",
              "type": "address"
            },
            {
              "internalType": "uint256",
              "name": "deposit",
              "type": "uint256"
            },
            {
              "internalType": "uint256",
              "name": "lastPayDate",
              "type": "uint256"
            },
            {
              "internalType": "uint256",
              "name": "nextPayDate",
              "type": "uint256"
            }
          ],
          "internalType": "struct Swaps.Buyer",
          "name": "",
          "type": "tuple"
        }
      ],
      "stateMutability": "view",
      "type": "function"
    },
    {
      "inputs": [
        {
          "internalType": "uint256",
          "name": "swapId",
          "type": "uint256"
        }
      ],
      "name": "getSeller",
      "outputs": [
        {
          "components": [
            {
              "internalType": "address",
              "name": "addr",
              "type": "address"
            },
            {
              "internalType": "uint256",
              "name": "deposit",
              "type": "uint256"
            },
            {
              "internalType": "bool",
              "name": "isDeposited",
              "type": "bool"
            }
          ],
          "internalType": "struct Swaps.Seller",
          "name": "",
          "type": "tuple"
        }
      ],
      "stateMutability": "view",
      "type": "function"
    },
    {
      "inputs": [],
      "name": "getSwapId",
      "outputs": [
        {
          "components": [
            {
              "internalType": "uint256",
              "name": "_value",
              "type": "uint256"
            }
          ],
          "internalType": "struct Counters.Counter",
          "name": "",
          "type": "tuple"
        }
      ],
      "stateMutability": "view",
      "type": "function"
    },
    {
      "inputs": [],
      "name": "getContractBalance",
      "outputs": [
        {
          "internalType": "uint256",
          "name": "",
          "type": "uint256"
        }
      ],
      "stateMutability": "view",
      "type": "function"
    }
  ],
  "bytecode": "0x608060405261002061001561002560201b60201c565b61002d60201b60201c565b6100f3565b600033905090565b6000600360009054906101000a900473ffffffffffffffffffffffffffffffffffffffff16905081600360006101000a81548173ffffffffffffffffffffffffffffffffffffffff021916908373ffffffffffffffffffffffffffffffffffffffff1602179055508173ffffffffffffffffffffffffffffffffffffffff168173ffffffffffffffffffffffffffffffffffffffff167f8be0079c531659141344cd1fd0a4f28419497f9722a3daafe3b4186f6b6457e060405160405180910390a35050565b612ac280620001036000396000f3fe6080604052600436106100ec5760003560e01c80637adbf9731161008a5780639671ea9f116100595780639671ea9f1461030f578063be06fba01461034c578063d6a9de5114610389578063f2fde38b146103c6576100f3565b80637adbf973146102475780637e0cb81a146102845780638d4e7f8d146102b45780638da5cb5b146102e4576100f3565b806354d6a2b7116100c657806354d6a2b71461018b5780635bf608b8146101c85780636f9fb98a14610205578063715018a614610230576100f3565b806338f5a491146100f8578063496ab39a146101235780634a0d89ba1461014e576100f3565b366100f357005b600080fd5b34801561010457600080fd5b5061010d6103ef565b60405161011a9190611d85565b60405180910390f35b34801561012f57600080fd5b5061013861048a565b6040516101459190611dcb565b60405180910390f35b34801561015a57600080fd5b5061017560048036038101906101709190611e17565b6104ae565b604051610182919061206a565b60405180910390f35b34801561019757600080fd5b506101b260048036038101906101ad9190611e17565b61066a565b6040516101bf9190612095565b60405180910390f35b3480156101d457600080fd5b506101ef60048036038101906101ea9190611e17565b610a43565b6040516101fc9190612105565b60405180910390f35b34801561021157600080fd5b5061021a610ae7565b6040516102279190611d85565b60405180910390f35b34801561023c57600080fd5b50610245610aef565b005b34801561025357600080fd5b5061026e6004803603810190610269919061214c565b610b03565b60405161027b9190612095565b60405180910390f35b61029e60048036038101906102999190612179565b610bbc565b6040516102ab9190611d85565b60405180910390f35b6102ce60048036038101906102c9919061222f565b610d61565b6040516102db9190611d85565b60405180910390f35b3480156102f057600080fd5b506102f9610ef6565b6040516103069190612291565b60405180910390f35b34801561031b57600080fd5b5061033660048036038101906103319190611e17565b610f20565b6040516103439190612095565b60405180910390f35b34801561035857600080fd5b50610373600480360381019061036e9190611e17565b6113eb565b6040516103809190611d85565b60405180910390f35b34801561039557600080fd5b506103b060048036038101906103ab9190611e17565b6115fd565b6040516103bd91906122ee565b60405180910390f35b3480156103d257600080fd5b506103ed60048036038101906103e8919061214c565b6116a8565b005b60008060008054906101000a900473ffffffffffffffffffffffffffffffffffffffff1673ffffffffffffffffffffffffffffffffffffffff166398d5fdca6040518163ffffffff1660e01b8152600401602060405180830381865afa15801561045d573d6000803e3d6000fd5b505050506040513d601f19601f82011682018060405250810190610481919061231e565b90508091505090565b610492611c78565b6001604051806020016040529081600082015481525050905090565b6104b6611c8b565b6002600083815260200190815260200160002060405180610120016040529081600082016040518060800160405290816000820160009054906101000a900473ffffffffffffffffffffffffffffffffffffffff1673ffffffffffffffffffffffffffffffffffffffff1673ffffffffffffffffffffffffffffffffffffffff16815260200160018201548152602001600282015481526020016003820154815250508152602001600482016040518060600160405290816000820160009054906101000a900473ffffffffffffffffffffffffffffffffffffffff1673ffffffffffffffffffffffffffffffffffffffff1673ffffffffffffffffffffffffffffffffffffffff168152602001600182015481526020016002820160009054906101000a900460ff1615151515815250508152602001600782015481526020016008820154815260200160098201548152602001600a8201548152602001600b8201548152602001600c8201548152602001600d820160009054906101000a900460ff16600381111561064d5761064c611f37565b5b600381111561065f5761065e611f37565b5b815250509050919050565b6000610674610ef6565b73ffffffffffffffffffffffffffffffffffffffff163373ffffffffffffffffffffffffffffffffffffffff16036106e1576040517f08c379a00000000000000000000000000000000000000000000000000000000081526004016106d8906123a8565b60405180910390fd5b816002600082815260200190815260200160002060000160000160009054906101000a900473ffffffffffffffffffffffffffffffffffffffff1673ffffffffffffffffffffffffffffffffffffffff163373ffffffffffffffffffffffffffffffffffffffff1614610789576040517f08c379a000000000000000000000000000000000000000000000000000000000815260040161078090612414565b60405180910390fd5b60006002600085815260200190815260200160002060405180610120016040529081600082016040518060800160405290816000820160009054906101000a900473ffffffffffffffffffffffffffffffffffffffff1673ffffffffffffffffffffffffffffffffffffffff1673ffffffffffffffffffffffffffffffffffffffff16815260200160018201548152602001600282015481526020016003820154815250508152602001600482016040518060600160405290816000820160009054906101000a900473ffffffffffffffffffffffffffffffffffffffff1673ffffffffffffffffffffffffffffffffffffffff1673ffffffffffffffffffffffffffffffffffffffff168152602001600182015481526020016002820160009054906101000a900460ff1615151515815250508152602001600782015481526020016008820154815260200160098201548152602001600a8201548152602001600b8201548152602001600c8201548152602001600d820160009054906101000a900460ff16600381111561092257610921611f37565b5b600381111561093457610933611f37565b5b81525050905060003373ffffffffffffffffffffffffffffffffffffffff1682600001516020015160405161096890612465565b60006040518083038185875af1925050503d80600081146109a5576040519150601f19603f3d011682016040523d82523d6000602084013e6109aa565b606091505b50509050806109ee576040517f08c379a00000000000000000000000000000000000000000000000000000000081526004016109e5906124c6565b60405180910390fd5b6109f78561172b565b7fedc1bfa27112bfbfbe944ffc70f825e8f4c270f9755fe15db1869082f61b474c85836000015160000151604051610a309291906124e6565b60405180910390a1809350505050919050565b610a4b611cf5565b600260008381526020019081526020016000206000016040518060800160405290816000820160009054906101000a900473ffffffffffffffffffffffffffffffffffffffff1673ffffffffffffffffffffffffffffffffffffffff1673ffffffffffffffffffffffffffffffffffffffff16815260200160018201548152602001600282015481526020016003820154815250509050919050565b600047905090565b610af7611780565b610b0160006117fe565b565b60008073ffffffffffffffffffffffffffffffffffffffff168273ffffffffffffffffffffffffffffffffffffffff1603610b73576040517f08c379a0000000000000000000000000000000000000000000000000000000008152600401610b6a9061255b565b60405180910390fd5b816000806101000a81548173ffffffffffffffffffffffffffffffffffffffff021916908373ffffffffffffffffffffffffffffffffffffffff16021790555060019050919050565b6000610bc6610ef6565b73ffffffffffffffffffffffffffffffffffffffff163373ffffffffffffffffffffffffffffffffffffffff1603610c33576040517f08c379a0000000000000000000000000000000000000000000000000000000008152600401610c2a906123a8565b60405180910390fd5b60006001610c4b6003876118c490919063ffffffff16565b610c5591906125aa565b9050348114610c99576040517f08c379a0000000000000000000000000000000000000000000000000000000008152600401610c9090612650565b60405180910390fd5b3073ffffffffffffffffffffffffffffffffffffffff166108fc349081150290604051600060405180830381858888f19350505050158015610cdf573d6000803e3d6000fd5b506000610cf28b8b8b8b8b8b8b8b6118da565b90508a73ffffffffffffffffffffffffffffffffffffffff167f40ab55e8ea5ecbffe5ac3a98b066ca0181d54a3467b72091ae09313e68277bdc828c8c8c8b8b8b8a604051610d48989796959493929190612670565b60405180910390a2809250505098975050505050505050565b6000610d6b610ef6565b73ffffffffffffffffffffffffffffffffffffffff163373ffffffffffffffffffffffffffffffffffffffff1603610dd8576040517f08c379a0000000000000000000000000000000000000000000000000000000008152600401610dcf906123a8565b60405180910390fd5b600060016002600085815260200190815260200160002060040160010154610e0091906125aa565b9050348114610e44576040517f08c379a0000000000000000000000000000000000000000000000000000000008152600401610e3b90612650565b60405180910390fd5b3073ffffffffffffffffffffffffffffffffffffffff166108fc349081150290604051600060405180830381858888f19350505050158015610e8a573d6000803e3d6000fd5b506000610e988686866119c3565b90508573ffffffffffffffffffffffffffffffffffffffff167fbf5d5a04310e5165179d0106e6b639639a6a9b1c293019f5ba0a10f6eb11cb8e8584604051610ee29291906126ee565b60405180910390a280925050509392505050565b6000600360009054906101000a900473ffffffffffffffffffffffffffffffffffffffff16905090565b6000610f2a610ef6565b73ffffffffffffffffffffffffffffffffffffffff163373ffffffffffffffffffffffffffffffffffffffff1603610f97576040517f08c379a0000000000000000000000000000000000000000000000000000000008152600401610f8e906123a8565b60405180910390fd5b816002600082815260200190815260200160002060000160000160009054906101000a900473ffffffffffffffffffffffffffffffffffffffff1673ffffffffffffffffffffffffffffffffffffffff163373ffffffffffffffffffffffffffffffffffffffff161461103f576040517f08c379a000000000000000000000000000000000000000000000000000000000815260040161103690612414565b60405180910390fd5b600061104a846113eb565b90506000810361108f576040517f08c379a000000000000000000000000000000000000000000000000000000000815260040161108690612789565b60405180910390fd5b60006002600086815260200190815260200160002060405180610120016040529081600082016040518060800160405290816000820160009054906101000a900473ffffffffffffffffffffffffffffffffffffffff1673ffffffffffffffffffffffffffffffffffffffff1673ffffffffffffffffffffffffffffffffffffffff16815260200160018201548152602001600282015481526020016003820154815250508152602001600482016040518060600160405290816000820160009054906101000a900473ffffffffffffffffffffffffffffffffffffffff1673ffffffffffffffffffffffffffffffffffffffff1673ffffffffffffffffffffffffffffffffffffffff168152602001600182015481526020016002820160009054906101000a900460ff1615151515815250508152602001600782015481526020016008820154815260200160098201548152602001600a8201548152602001600b8201548152602001600c8201548152602001600d820160009054906101000a900460ff16600381111561122857611227611f37565b5b600381111561123a57611239611f37565b5b81525050905060003373ffffffffffffffffffffffffffffffffffffffff168260000151602001518461126d91906127a9565b60405161127990612465565b60006040518083038185875af1925050503d80600081146112b6576040519150601f19603f3d011682016040523d82523d6000602084013e6112bb565b606091505b5050905060003373ffffffffffffffffffffffffffffffffffffffff16848460200151602001516112ec91906127dd565b6040516112f890612465565b60006040518083038185875af1925050503d8060008114611335576040519150601f19603f3d011682016040523d82523d6000602084013e61133a565b606091505b505090508180156113485750805b611387576040517f08c379a000000000000000000000000000000000000000000000000000000000815260040161137e9061285d565b60405180910390fd5b61139087611b21565b7fb1d5f6c80b2138d4bb2dbda1c180eba2090137bfd92c5091db8e9d35b5aa14e287846000015160000151856020015160000151876040516113d5949392919061287d565b60405180910390a1600195505050505050919050565b6000806113f66103ef565b905060006002600085815260200190815260200160002060405180610120016040529081600082016040518060800160405290816000820160009054906101000a900473ffffffffffffffffffffffffffffffffffffffff1673ffffffffffffffffffffffffffffffffffffffff1673ffffffffffffffffffffffffffffffffffffffff16815260200160018201548152602001600282015481526020016003820154815250508152602001600482016040518060600160405290816000820160009054906101000a900473ffffffffffffffffffffffffffffffffffffffff1673ffffffffffffffffffffffffffffffffffffffff1673ffffffffffffffffffffffffffffffffffffffff168152602001600182015481526020016002820160009054906101000a900460ff1615151515815250508152602001600782015481526020016008820154815260200160098201548152602001600a8201548152602001600b8201548152602001600c8201548152602001600d820160009054906101000a900460ff16600381111561159157611590611f37565b5b60038111156115a3576115a2611f37565b5b81525050905081816060015110156115c0576000925050506115f8565b6000816020015160200151905060006115ee836080015184604001518685611bb0909392919063ffffffff16565b9050809450505050505b919050565b611605611d33565b600260008381526020019081526020016000206004016040518060600160405290816000820160009054906101000a900473ffffffffffffffffffffffffffffffffffffffff1673ffffffffffffffffffffffffffffffffffffffff1673ffffffffffffffffffffffffffffffffffffffff168152602001600182015481526020016002820160009054906101000a900460ff1615151515815250509050919050565b6116b0611780565b600073ffffffffffffffffffffffffffffffffffffffff168173ffffffffffffffffffffffffffffffffffffffff160361171f576040517f08c379a000000000000000000000000000000000000000000000000000000000815260040161171690612934565b60405180910390fd5b611728816117fe565b50565b600060026000838152602001908152602001600020905060008160000160010181905550600281600d0160006101000a81548160ff0219169083600381111561177757611776611f37565b5b02179055505050565b611788611c20565b73ffffffffffffffffffffffffffffffffffffffff166117a6610ef6565b73ffffffffffffffffffffffffffffffffffffffff16146117fc576040517f08c379a00000000000000000000000000000000000000000000000000000000081526004016117f3906129a0565b60405180910390fd5b565b6000600360009054906101000a900473ffffffffffffffffffffffffffffffffffffffff16905081600360006101000a81548173ffffffffffffffffffffffffffffffffffffffff021916908373ffffffffffffffffffffffffffffffffffffffff1602179055508173ffffffffffffffffffffffffffffffffffffffff168173ffffffffffffffffffffffffffffffffffffffff167f8be0079c531659141344cd1fd0a4f28419497f9722a3daafe3b4186f6b6457e060405160405180910390a35050565b600081836118d291906125aa565b905092915050565b60006118e66001611c28565b60006118f26001611c3e565b905060006002600083815260200190815260200160002090508a8160000160000160006101000a81548173ffffffffffffffffffffffffffffffffffffffff021916908373ffffffffffffffffffffffffffffffffffffffff1602179055506119656003876118c490919063ffffffff16565b81600001600101819055508981600701819055508881600801819055508781600901819055508581600a01819055508481600b01819055508381600c0181905550868160040160010181905550819250505098975050505050505050565b600080600260008481526020019081526020016000209050600060038111156119ef576119ee611f37565b5b81600d0160009054906101000a900460ff166003811115611a1357611a12611f37565b5b14611a53576040517f08c379a0000000000000000000000000000000000000000000000000000000008152600401611a4a90612a0c565b60405180910390fd5b848160040160000160006101000a81548173ffffffffffffffffffffffffffffffffffffffff021916908373ffffffffffffffffffffffffffffffffffffffff16021790555083816007018190555060018160040160020160006101000a81548160ff02191690831515021790555042816000016002018190555080600b015442611ade91906127a9565b8160000160030181905550600181600d0160006101000a81548160ff02191690836003811115611b1157611b10611f37565b5b0217905550829150509392505050565b600060026000838152602001908152602001600020905060008160000160010181905550600081600001600301819055506000816004016001018190555060008160040160020160006101000a81548160ff021916908315150217905550600381600d0160006101000a81548160ff02191690836003811115611ba757611ba6611f37565b5b02179055505050565b600080828510611bc257859050611c14565b6000611be9611bda8787611c4c90919063ffffffff16565b88611c6290919063ffffffff16565b9050611c10611c018587611c4c90919063ffffffff16565b826118c490919063ffffffff16565b9150505b80915050949350505050565b600033905090565b6001816000016000828254019250508190555050565b600081600001549050919050565b60008183611c5a91906127dd565b905092915050565b60008183611c709190612a5b565b905092915050565b6040518060200160405280600081525090565b604051806101200160405280611c9f611cf5565b8152602001611cac611d33565b815260200160008152602001600081526020016000815260200160008152602001600081526020016000815260200160006003811115611cef57611cee611f37565b5b81525090565b6040518060800160405280600073ffffffffffffffffffffffffffffffffffffffff1681526020016000815260200160008152602001600081525090565b6040518060600160405280600073ffffffffffffffffffffffffffffffffffffffff168152602001600081526020016000151581525090565b6000819050919050565b611d7f81611d6c565b82525050565b6000602082019050611d9a6000830184611d76565b92915050565b611da981611d6c565b82525050565b602082016000820151611dc56000850182611da0565b50505050565b6000602082019050611de06000830184611daf565b92915050565b600080fd5b611df481611d6c565b8114611dff57600080fd5b50565b600081359050611e1181611deb565b92915050565b600060208284031215611e2d57611e2c611de6565b5b6000611e3b84828501611e02565b91505092915050565b600073ffffffffffffffffffffffffffffffffffffffff82169050919050565b6000611e6f82611e44565b9050919050565b611e7f81611e64565b82525050565b608082016000820151611e9b6000850182611e76565b506020820151611eae6020850182611da0565b506040820151611ec16040850182611da0565b506060820151611ed46060850182611da0565b50505050565b60008115159050919050565b611eef81611eda565b82525050565b606082016000820151611f0b6000850182611e76565b506020820151611f1e6020850182611da0565b506040820151611f316040850182611ee6565b50505050565b7f4e487b7100000000000000000000000000000000000000000000000000000000600052602160045260246000fd5b60048110611f7757611f76611f37565b5b50565b6000819050611f8882611f66565b919050565b6000611f9882611f7a565b9050919050565b611fa881611f8d565b82525050565b6101c082016000820151611fc56000850182611e85565b506020820151611fd86080850182611ef5565b506040820151611feb60e0850182611da0565b506060820151611fff610100850182611da0565b506080820151612013610120850182611da0565b5060a0820151612027610140850182611da0565b5060c082015161203b610160850182611da0565b5060e082015161204f610180850182611da0565b506101008201516120646101a0850182611f9f565b50505050565b60006101c0820190506120806000830184611fae565b92915050565b61208f81611eda565b82525050565b60006020820190506120aa6000830184612086565b92915050565b6080820160008201516120c66000850182611e76565b5060208201516120d96020850182611da0565b5060408201516120ec6040850182611da0565b5060608201516120ff6060850182611da0565b50505050565b600060808201905061211a60008301846120b0565b92915050565b61212981611e64565b811461213457600080fd5b50565b60008135905061214681612120565b92915050565b60006020828403121561216257612161611de6565b5b600061217084828501612137565b91505092915050565b600080600080600080600080610100898b03121561219a57612199611de6565b5b60006121a88b828c01612137565b98505060206121b98b828c01611e02565b97505060406121ca8b828c01611e02565b96505060606121db8b828c01611e02565b95505060806121ec8b828c01611e02565b94505060a06121fd8b828c01611e02565b93505060c061220e8b828c01611e02565b92505060e061221f8b828c01611e02565b9150509295985092959890939650565b60008060006060848603121561224857612247611de6565b5b600061225686828701612137565b935050602061226786828701611e02565b925050604061227886828701611e02565b9150509250925092565b61228b81611e64565b82525050565b60006020820190506122a66000830184612282565b92915050565b6060820160008201516122c26000850182611e76565b5060208201516122d56020850182611da0565b5060408201516122e86040850182611ee6565b50505050565b600060608201905061230360008301846122ac565b92915050565b60008151905061231881611deb565b92915050565b60006020828403121561233457612333611de6565b5b600061234284828501612309565b91505092915050565b600082825260208201905092915050565b7f4f776e65722063616e206e6f742063616c6c20746865206d6574686f64000000600082015250565b6000612392601d8361234b565b915061239d8261235c565b602082019050919050565b600060208201905081810360008301526123c181612385565b9050919050565b7f4f6e6c79206275796572206f6620746865204344532063616e2063616c6c0000600082015250565b60006123fe601e8361234b565b9150612409826123c8565b602082019050919050565b6000602082019050818103600083015261242d816123f1565b9050919050565b600081905092915050565b50565b600061244f600083612434565b915061245a8261243f565b600082019050919050565b600061247082612442565b9150819050919050565b7f53656e64696e67206661696c6564000000000000000000000000000000000000600082015250565b60006124b0600e8361234b565b91506124bb8261247a565b602082019050919050565b600060208201905081810360008301526124df816124a3565b9050919050565b60006040820190506124fb6000830185611d76565b6125086020830184612282565b9392505050565b7f496e76616c696420616464726573730000000000000000000000000000000000600082015250565b6000612545600f8361234b565b91506125508261250f565b602082019050919050565b6000602082019050818103600083015261257481612538565b9050919050565b7f4e487b7100000000000000000000000000000000000000000000000000000000600052601160045260246000fd5b60006125b582611d6c565b91506125c083611d6c565b9250817fffffffffffffffffffffffffffffffffffffffffffffffffffffffffffffffff04831182151516156125f9576125f861257b565b5b828202905092915050565b7f496e76616c69642065746820616d6f756e740000000000000000000000000000600082015250565b600061263a60128361234b565b915061264582612604565b602082019050919050565b600060208201905081810360008301526126698161262d565b9050919050565b600061010082019050612686600083018b611d76565b612693602083018a611d76565b6126a06040830189611d76565b6126ad6060830188611d76565b6126ba6080830187611d76565b6126c760a0830186611d76565b6126d460c0830185611d76565b6126e160e0830184611d76565b9998505050505050505050565b60006040820190506127036000830185611d76565b6127106020830184611d76565b9392505050565b7f436c61696d20707269636520696e204344532073686f756c642062652068696760008201527f686572207468616e2063757272656e74207072696365206f6620617373657400602082015250565b6000612773603f8361234b565b915061277e82612717565b604082019050919050565b600060208201905081810360008301526127a281612766565b9050919050565b60006127b482611d6c565b91506127bf83611d6c565b92508282019050808211156127d7576127d661257b565b5b92915050565b60006127e882611d6c565b91506127f383611d6c565b925082820390508181111561280b5761280a61257b565b5b92915050565b7f53656e64696e6720726577617264206661696c65640000000000000000000000600082015250565b600061284760158361234b565b915061285282612811565b602082019050919050565b600060208201905081810360008301526128768161283a565b9050919050565b60006080820190506128926000830187611d76565b61289f6020830186612282565b6128ac6040830185612282565b6128b96060830184611d76565b95945050505050565b7f4f776e61626c653a206e6577206f776e657220697320746865207a65726f206160008201527f6464726573730000000000000000000000000000000000000000000000000000602082015250565b600061291e60268361234b565b9150612929826128c2565b604082019050919050565b6000602082019050818103600083015261294d81612911565b9050919050565b7f4f776e61626c653a2063616c6c6572206973206e6f7420746865206f776e6572600082015250565b600061298a60208361234b565b915061299582612954565b602082019050919050565b600060208201905081810360008301526129b98161297d565b9050919050565b7f54686520434453206973206e6f742070656e64696e6720737461746500000000600082015250565b60006129f6601c8361234b565b9150612a01826129c0565b602082019050919050565b60006020820190508181036000830152612a25816129e9565b9050919050565b7f4e487b7100000000000000000000000000000000000000000000000000000000600052601260045260246000fd5b6000612a6682611d6c565b9150612a7183611d6c565b925082612a8157612a80612a2c565b5b82820490509291505056fea2646970667358221220bc25c9127b4a464946683b6e3acbc1c27b4fa708750abdd86907a4298d9ff55e64736f6c63430008100033",
  "immutableReferences": {},
  "source": "// SPDX-License-Identifier: MIT\npragma solidity ^0.8.7;\n\nimport './Swaps/Swaps.sol';\nimport '@openzeppelin/contracts/access/Ownable.sol';\nimport '@openzeppelin/contracts/utils/math/SafeMath.sol';\nimport './libs/LibClaim.sol';\n\ncontract CDS is Swaps, Ownable {\n  using SafeMath for uint256;\n  using LibClaim for uint256;\n\n  constructor() payable {}\n\n  receive() external payable {}\n\n  modifier isNotOwner() {\n    require(msg.sender != owner(), 'Owner can not call the method');\n    _;\n  }\n  modifier isBuyer(uint256 swapId) {\n    require(\n      msg.sender == _swaps[swapId].buyer.addr,\n      'Only buyer of the CDS can call'\n    );\n    _;\n  }\n\n  event CreateSwap(\n    address indexed buyer,\n    uint256 swapId,\n    uint256 initAssetPrice,\n    uint256 claimPrice,\n    uint256 liquidationPrice,\n    uint256 premium,\n    uint256 premiumInterval,\n    uint256 totalPremiumRounds,\n    uint256 buyerDeposit\n  );\n  event AcceptSwap(\n    address indexed seller,\n    uint256 swapId,\n    uint256 sellerDeposit\n  );\n  event CancelSwap(uint256 swapId, address buyer);\n  event ClaimSwap(\n    uint256 swapId,\n    address buyer,\n    address seller,\n    uint256 claimReward\n  );\n\n  function createSwap(\n    address addr,\n    uint256 initAssetPrice,\n    uint256 claimPrice,\n    uint256 liquidationPrice,\n    uint256 sellerDeposit,\n    uint256 premium,\n    uint256 premiumInterval,\n    uint256 totalPremiumRounds\n  ) external payable isNotOwner returns (uint256) {\n    uint256 buyerDeposit = premium.mul(3) * 1 wei;\n    require(buyerDeposit == msg.value, 'Invalid eth amount');\n    payable(address(this)).transfer(msg.value);\n\n    uint256 newSwapId = _createSwap(\n      addr,\n      initAssetPrice,\n      claimPrice,\n      liquidationPrice,\n      sellerDeposit,\n      premium,\n      premiumInterval,\n      totalPremiumRounds\n    );\n\n    emit CreateSwap(\n      addr,\n      newSwapId,\n      initAssetPrice,\n      claimPrice,\n      liquidationPrice,\n      premium,\n      premiumInterval,\n      totalPremiumRounds,\n      buyerDeposit\n    );\n\n    return newSwapId;\n  }\n\n  function acceptSwap(\n    address addr,\n    uint256 initAssetPrice,\n    uint256 swapId\n  ) external payable isNotOwner returns (uint256) {\n    uint256 sellerDeposit = _swaps[swapId].seller.deposit * 1 wei;\n    require(sellerDeposit == msg.value, 'Invalid eth amount');\n    payable(address(this)).transfer(msg.value);\n\n    uint256 acceptedSwapId = _acceptSwap(addr, initAssetPrice, swapId);\n    emit AcceptSwap(addr, swapId, sellerDeposit);\n    return acceptedSwapId;\n  }\n\n  function cancelSwap(\n    uint256 swapId\n  ) external isNotOwner isBuyer(swapId) returns (bool) {\n    Swap memory targetSwap = _swaps[swapId];\n    (bool sent, ) = msg.sender.call{value: targetSwap.buyer.deposit}('');\n    require(sent, 'Sending failed');\n    _cancelSwap(swapId);\n    emit CancelSwap(swapId, targetSwap.buyer.addr);\n    return sent;\n  }\n\n  function claimSwap(\n    uint256 swapId\n  ) external isNotOwner isBuyer(swapId) returns (bool) {\n    uint256 claimReward = getClaimReward(swapId);\n    require(\n      claimReward != 0,\n      'Claim price in CDS should be higher than current price of asset'\n    );\n    Swap memory targetSwap = _swaps[swapId];\n    (bool sentBuyer, ) = msg.sender.call{\n      value: (claimReward + targetSwap.buyer.deposit)\n    }('');\n    (bool sentSeller, ) = msg.sender.call{\n      value: (targetSwap.seller.deposit - claimReward)\n    }('');\n    require(sentBuyer && sentSeller, 'Sending reward failed');\n    _claimSwap(swapId);\n    emit ClaimSwap(\n      swapId,\n      targetSwap.buyer.addr,\n      targetSwap.seller.addr,\n      claimReward\n    );\n    return true;\n  }\n\n  function getClaimReward(uint256 swapId) public view returns (uint256) {\n    uint256 currPrice = getPriceFromOracle();\n    Swap memory targetSwap = _swaps[swapId];\n    if (targetSwap.claimPrice < currPrice) {\n      return 0;\n    }\n    uint256 sellerDeposit = targetSwap.seller.deposit;\n    uint256 claimReward = sellerDeposit.calcClaimReward(\n      targetSwap.liquidationPrice,\n      targetSwap.initAssetPrice,\n      currPrice\n    );\n    return claimReward;\n  }\n\n  function getSwap(uint256 swapId) public view returns (Swap memory) {\n    return _swaps[swapId];\n  }\n\n  function getBuyer(uint256 swapId) public view returns (Buyer memory) {\n    return _swaps[swapId].buyer;\n  }\n\n  function getSeller(uint256 swapId) public view returns (Seller memory) {\n    return _swaps[swapId].seller;\n  }\n\n  function getSwapId() public view returns (Counters.Counter memory) {\n    return _swapId;\n  }\n\n  function getContractBalance() public view returns (uint256) {\n    return address(this).balance;\n  }\n}\n",
  "sourcePath": "/Users/sdh/Study/BEB_07/projects/CDS/contract/contracts/CDS.sol",
  "compiler": {
    "name": "solc",
    "version": "0.8.16+commit.07a7930e.Emscripten.clang"
  },
  "schemaVersion": "3.4.9",
  "updatedAt": "2023-01-26T07:57:21.472Z",
  "devdoc": {
    "kind": "dev",
    "methods": {
      "owner()": {
        "details": "Returns the address of the current owner."
      },
      "renounceOwnership()": {
        "details": "Leaves the contract without owner. It will not be possible to call `onlyOwner` functions anymore. Can only be called by the current owner. NOTE: Renouncing ownership will leave the contract without an owner, thereby removing any functionality that is only available to the owner."
      },
      "transferOwnership(address)": {
        "details": "Transfers ownership of the contract to a new account (`newOwner`). Can only be called by the current owner."
      }
    },
    "version": 1
  },
  "userdoc": {
    "kind": "user",
    "methods": {},
    "version": 1
  }
}