{
  "contractName": "CDS",
  "abi": [
    {
      "inputs": [],
      "stateMutability": "payable",
      "type": "constructor",
      "payable": true
    },
    {
      "anonymous": false,
      "inputs": [
        {
          "indexed": true,
          "internalType": "address",
          "name": "seller",
          "type": "address"
        },
        {
          "indexed": false,
          "internalType": "uint256",
          "name": "swapId",
          "type": "uint256"
        },
        {
          "indexed": false,
          "internalType": "uint256",
          "name": "sellerDeposit",
          "type": "uint256"
        }
      ],
      "name": "AcceptSwap",
      "type": "event"
    },
    {
      "anonymous": false,
      "inputs": [
        {
          "indexed": false,
          "internalType": "uint256",
          "name": "swapId",
          "type": "uint256"
        },
        {
          "indexed": false,
          "internalType": "address",
          "name": "buyer",
          "type": "address"
        }
      ],
      "name": "CancelSwap",
      "type": "event"
    },
    {
      "anonymous": false,
      "inputs": [
        {
          "indexed": false,
          "internalType": "uint256",
          "name": "swapId",
          "type": "uint256"
        },
        {
          "indexed": false,
          "internalType": "address",
          "name": "buyer",
          "type": "address"
        },
        {
          "indexed": false,
          "internalType": "address",
          "name": "seller",
          "type": "address"
        },
        {
          "indexed": false,
          "internalType": "uint256",
          "name": "claimReward",
          "type": "uint256"
        }
      ],
      "name": "ClaimSwap",
      "type": "event"
    },
    {
      "anonymous": false,
      "inputs": [
        {
          "indexed": false,
          "internalType": "uint256",
          "name": "swapId",
          "type": "uint256"
        },
        {
          "indexed": false,
          "internalType": "address",
          "name": "buyer",
          "type": "address"
        },
        {
          "indexed": false,
          "internalType": "address",
          "name": "seller",
          "type": "address"
        }
      ],
      "name": "CloseSwap",
      "type": "event"
    },
    {
      "anonymous": false,
      "inputs": [
        {
          "indexed": true,
          "internalType": "address",
          "name": "buyer",
          "type": "address"
        },
        {
          "indexed": false,
          "internalType": "uint256",
          "name": "swapId",
          "type": "uint256"
        },
        {
          "indexed": false,
          "internalType": "uint256",
          "name": "initAssetPrice",
          "type": "uint256"
        },
        {
          "indexed": false,
          "internalType": "uint256",
          "name": "amountOfAssets",
          "type": "uint256"
        },
        {
          "indexed": false,
          "internalType": "uint256",
          "name": "claimPrice",
          "type": "uint256"
        },
        {
          "indexed": false,
          "internalType": "uint256",
          "name": "liquidationPrice",
          "type": "uint256"
        },
        {
          "indexed": false,
          "internalType": "uint256",
          "name": "premium",
          "type": "uint256"
        },
        {
          "indexed": false,
          "internalType": "uint256",
          "name": "premiumInterval",
          "type": "uint256"
        },
        {
          "indexed": false,
          "internalType": "uint256",
          "name": "totalPremiumRounds",
          "type": "uint256"
        },
        {
          "indexed": false,
          "internalType": "uint256",
          "name": "buyerDeposit",
          "type": "uint256"
        }
      ],
      "name": "CreateSwap",
      "type": "event"
    },
    {
      "anonymous": false,
      "inputs": [
        {
          "indexed": true,
          "internalType": "address",
          "name": "previousOwner",
          "type": "address"
        },
        {
          "indexed": true,
          "internalType": "address",
          "name": "newOwner",
          "type": "address"
        }
      ],
      "name": "OwnershipTransferred",
      "type": "event"
    },
    {
      "inputs": [],
      "name": "getPriceFromOracle",
      "outputs": [
        {
          "internalType": "uint256",
          "name": "",
          "type": "uint256"
        }
      ],
      "stateMutability": "view",
      "type": "function",
      "constant": true
    },
    {
      "inputs": [],
      "name": "owner",
      "outputs": [
        {
          "internalType": "address",
          "name": "",
          "type": "address"
        }
      ],
      "stateMutability": "view",
      "type": "function",
      "constant": true
    },
    {
      "inputs": [],
      "name": "renounceOwnership",
      "outputs": [],
      "stateMutability": "nonpayable",
      "type": "function"
    },
    {
      "inputs": [
        {
          "internalType": "address",
          "name": "_priceOracleAddress",
          "type": "address"
        }
      ],
      "name": "setOracle",
      "outputs": [
        {
          "internalType": "bool",
          "name": "",
          "type": "bool"
        }
      ],
      "stateMutability": "nonpayable",
      "type": "function"
    },
    {
      "inputs": [
        {
          "internalType": "address",
          "name": "newOwner",
          "type": "address"
        }
      ],
      "name": "transferOwnership",
      "outputs": [],
      "stateMutability": "nonpayable",
      "type": "function"
    },
    {
      "stateMutability": "payable",
      "type": "receive",
      "payable": true
    },
    {
      "inputs": [
        {
          "internalType": "address",
          "name": "addr",
          "type": "address"
        },
        {
          "internalType": "uint256",
          "name": "initAssetPrice",
          "type": "uint256"
        },
        {
          "internalType": "uint256",
          "name": "amountOfAssets",
          "type": "uint256"
        },
        {
          "internalType": "uint256",
          "name": "claimPrice",
          "type": "uint256"
        },
        {
          "internalType": "uint256",
          "name": "liquidationPrice",
          "type": "uint256"
        },
        {
          "internalType": "uint256",
          "name": "sellerDeposit",
          "type": "uint256"
        },
        {
          "internalType": "uint256",
          "name": "premium",
          "type": "uint256"
        },
        {
          "internalType": "uint256",
          "name": "premiumInterval",
          "type": "uint256"
        },
        {
          "internalType": "uint256",
          "name": "totalPremiumRounds",
          "type": "uint256"
        }
      ],
      "name": "createSwap",
      "outputs": [
        {
          "internalType": "uint256",
          "name": "",
          "type": "uint256"
        }
      ],
      "stateMutability": "payable",
      "type": "function",
      "payable": true
    },
    {
      "inputs": [
        {
          "internalType": "address",
          "name": "addr",
          "type": "address"
        },
        {
          "internalType": "uint256",
          "name": "initAssetPrice",
          "type": "uint256"
        },
        {
          "internalType": "uint256",
          "name": "swapId",
          "type": "uint256"
        }
      ],
      "name": "acceptSwap",
      "outputs": [
        {
          "internalType": "uint256",
          "name": "",
          "type": "uint256"
        }
      ],
      "stateMutability": "payable",
      "type": "function",
      "payable": true
    },
    {
      "inputs": [
        {
          "internalType": "uint256",
          "name": "swapId",
          "type": "uint256"
        }
      ],
      "name": "cancelSwap",
      "outputs": [
        {
          "internalType": "bool",
          "name": "",
          "type": "bool"
        }
      ],
      "stateMutability": "nonpayable",
      "type": "function"
    },
    {
      "inputs": [
        {
          "internalType": "uint256",
          "name": "swapId",
          "type": "uint256"
        }
      ],
      "name": "closeSwap",
      "outputs": [
        {
          "internalType": "bool",
          "name": "",
          "type": "bool"
        }
      ],
      "stateMutability": "nonpayable",
      "type": "function"
    },
    {
      "inputs": [
        {
          "internalType": "uint256",
          "name": "swapId",
          "type": "uint256"
        }
      ],
      "name": "payPremium",
      "outputs": [
        {
          "internalType": "bool",
          "name": "",
          "type": "bool"
        }
      ],
      "stateMutability": "payable",
      "type": "function",
      "payable": true
    },
    {
      "inputs": [
        {
          "internalType": "uint256",
          "name": "swapId",
          "type": "uint256"
        }
      ],
      "name": "claimSwap",
      "outputs": [
        {
          "internalType": "bool",
          "name": "",
          "type": "bool"
        }
      ],
      "stateMutability": "nonpayable",
      "type": "function"
    },
    {
      "inputs": [
        {
          "internalType": "uint256",
          "name": "swapId",
          "type": "uint256"
        }
      ],
      "name": "getClaimReward",
      "outputs": [
        {
          "internalType": "uint256",
          "name": "",
          "type": "uint256"
        }
      ],
      "stateMutability": "view",
      "type": "function",
      "constant": true
    },
    {
      "inputs": [
        {
          "internalType": "uint256",
          "name": "swapId",
          "type": "uint256"
        }
      ],
      "name": "getSwap",
      "outputs": [
        {
          "components": [
            {
              "components": [
                {
                  "internalType": "address",
                  "name": "addr",
                  "type": "address"
                },
                {
                  "internalType": "uint256",
                  "name": "deposit",
                  "type": "uint256"
                },
                {
                  "internalType": "uint256",
                  "name": "lastPayDate",
                  "type": "uint256"
                },
                {
                  "internalType": "uint256",
                  "name": "nextPayDate",
                  "type": "uint256"
                }
              ],
              "internalType": "struct Swaps.Buyer",
              "name": "buyer",
              "type": "tuple"
            },
            {
              "components": [
                {
                  "internalType": "address",
                  "name": "addr",
                  "type": "address"
                },
                {
                  "internalType": "uint256",
                  "name": "deposit",
                  "type": "uint256"
                },
                {
                  "internalType": "bool",
                  "name": "isDeposited",
                  "type": "bool"
                }
              ],
              "internalType": "struct Swaps.Seller",
              "name": "seller",
              "type": "tuple"
            },
            {
              "internalType": "uint256",
              "name": "initAssetPrice",
              "type": "uint256"
            },
            {
              "internalType": "uint256",
              "name": "amountOfAssets",
              "type": "uint256"
            },
            {
              "internalType": "uint256",
              "name": "claimPrice",
              "type": "uint256"
            },
            {
              "internalType": "uint256",
              "name": "liquidationPrice",
              "type": "uint256"
            },
            {
              "internalType": "uint256",
              "name": "premium",
              "type": "uint256"
            },
            {
              "internalType": "uint256",
              "name": "premiumRate",
              "type": "uint256"
            },
            {
              "internalType": "uint256",
              "name": "premiumInterval",
              "type": "uint256"
            },
            {
              "internalType": "uint256",
              "name": "totalPremiumRounds",
              "type": "uint256"
            },
            {
              "internalType": "enum Swaps.Status",
              "name": "status",
              "type": "uint8"
            }
          ],
          "internalType": "struct Swaps.Swap",
          "name": "",
          "type": "tuple"
        }
      ],
      "stateMutability": "view",
      "type": "function",
      "constant": true
    },
    {
      "inputs": [
        {
          "internalType": "uint256",
          "name": "swapId",
          "type": "uint256"
        }
      ],
      "name": "getBuyer",
      "outputs": [
        {
          "components": [
            {
              "internalType": "address",
              "name": "addr",
              "type": "address"
            },
            {
              "internalType": "uint256",
              "name": "deposit",
              "type": "uint256"
            },
            {
              "internalType": "uint256",
              "name": "lastPayDate",
              "type": "uint256"
            },
            {
              "internalType": "uint256",
              "name": "nextPayDate",
              "type": "uint256"
            }
          ],
          "internalType": "struct Swaps.Buyer",
          "name": "",
          "type": "tuple"
        }
      ],
      "stateMutability": "view",
      "type": "function",
      "constant": true
    },
    {
      "inputs": [
        {
          "internalType": "uint256",
          "name": "swapId",
          "type": "uint256"
        }
      ],
      "name": "getSeller",
      "outputs": [
        {
          "components": [
            {
              "internalType": "address",
              "name": "addr",
              "type": "address"
            },
            {
              "internalType": "uint256",
              "name": "deposit",
              "type": "uint256"
            },
            {
              "internalType": "bool",
              "name": "isDeposited",
              "type": "bool"
            }
          ],
          "internalType": "struct Swaps.Seller",
          "name": "",
          "type": "tuple"
        }
      ],
      "stateMutability": "view",
      "type": "function",
      "constant": true
    },
    {
      "inputs": [],
      "name": "getSwapId",
      "outputs": [
        {
          "components": [
            {
              "internalType": "uint256",
              "name": "_value",
              "type": "uint256"
            }
          ],
          "internalType": "struct Counters.Counter",
          "name": "",
          "type": "tuple"
        }
      ],
      "stateMutability": "view",
      "type": "function",
      "constant": true
    },
    {
      "inputs": [],
      "name": "getContractBalance",
      "outputs": [
        {
          "internalType": "uint256",
          "name": "",
          "type": "uint256"
        }
      ],
      "stateMutability": "view",
      "type": "function",
      "constant": true
    }
  ],
  "bytecode": "0x608060405260026003819055506200002c620000206200003260201b60201c565b6200003a60201b60201c565b62000100565b600033905090565b6000600460009054906101000a900473ffffffffffffffffffffffffffffffffffffffff16905081600460006101000a81548173ffffffffffffffffffffffffffffffffffffffff021916908373ffffffffffffffffffffffffffffffffffffffff1602179055508173ffffffffffffffffffffffffffffffffffffffff168173ffffffffffffffffffffffffffffffffffffffff167f8be0079c531659141344cd1fd0a4f28419497f9722a3daafe3b4186f6b6457e060405160405180910390a35050565b612eec80620001106000396000f3fe6080604052600436106101025760003560e01c8063715018a6116100955780639671ea9f116100645780639671ea9f14610355578063be06fba014610392578063d6a9de51146103cf578063e43c520d1461040c578063f2fde38b1461044957610109565b8063715018a6146102a65780637adbf973146102bd5780638d4e7f8d146102fa5780638da5cb5b1461032a57610109565b80634a0d89ba116100d15780634a0d89ba146101c457806354d6a2b7146102015780635bf608b81461023e5780636f9fb98a1461027b57610109565b806338f5a4911461010e578063407baacb146101395780634364b26e14610169578063496ab39a1461019957610109565b3661010957005b600080fd5b34801561011a57600080fd5b50610123610472565b6040516101309190611f8f565b60405180910390f35b610153600480360381019061014e9190612039565b61050d565b6040516101609190611f8f565b60405180910390f35b610183600480360381019061017e9190612103565b6106b6565b604051610190919061214b565b60405180910390f35b3480156101a557600080fd5b506101ae610906565b6040516101bb9190612191565b60405180910390f35b3480156101d057600080fd5b506101eb60048036038101906101e69190612103565b61092a565b6040516101f891906123be565b60405180910390f35b34801561020d57600080fd5b5061022860048036038101906102239190612103565b610afa565b604051610235919061214b565b60405180910390f35b34801561024a57600080fd5b5061026560048036038101906102609190612103565b610db5565b604051610272919061242f565b60405180910390f35b34801561028757600080fd5b50610290610dd1565b60405161029d9190611f8f565b60405180910390f35b3480156102b257600080fd5b506102bb610dd9565b005b3480156102c957600080fd5b506102e460048036038101906102df919061244a565b610ded565b6040516102f1919061214b565b60405180910390f35b610314600480360381019061030f9190612477565b610ea6565b6040516103219190611f8f565b60405180910390f35b34801561033657600080fd5b5061033f611134565b60405161034c91906124d9565b60405180910390f35b34801561036157600080fd5b5061037c60048036038101906103779190612103565b61115e565b604051610389919061214b565b60405180910390f35b34801561039e57600080fd5b506103b960048036038101906103b49190612103565b611513565b6040516103c69190611f8f565b60405180910390f35b3480156103db57600080fd5b506103f660048036038101906103f19190612103565b611587565b6040516104039190612536565b60405180910390f35b34801561041857600080fd5b50610433600480360381019061042e9190612103565b6115a3565b604051610440919061214b565b60405180910390f35b34801561045557600080fd5b50610470600480360381019061046b919061244a565b6118a1565b005b60008060008054906101000a900473ffffffffffffffffffffffffffffffffffffffff1673ffffffffffffffffffffffffffffffffffffffff166398d5fdca6040518163ffffffff1660e01b8152600401602060405180830381865afa1580156104e0573d6000803e3d6000fd5b505050506040513d601f19601f820116820180604052508101906105049190612566565b90508091505090565b6000610517611134565b73ffffffffffffffffffffffffffffffffffffffff163373ffffffffffffffffffffffffffffffffffffffff1603610584576040517f08c379a000000000000000000000000000000000000000000000000000000000815260040161057b906125f0565b60405180910390fd5b6000600161059c60038761192490919063ffffffff16565b6105a6919061263f565b90503481146105ea576040517f08c379a00000000000000000000000000000000000000000000000000000000081526004016105e1906126e5565b60405180910390fd5b3073ffffffffffffffffffffffffffffffffffffffff166108fc349081150290604051600060405180830381858888f19350505050158015610630573d6000803e3d6000fd5b5060006106448c8c8c8c8c8c8c8c8c61193a565b90508b73ffffffffffffffffffffffffffffffffffffffff167fee5875d6387d348fa5a6839c8c8b4c3cc785221b4fe58bd317508e1368840162828d8d8d8d8c8c8c8b60405161069c99989796959493929190612705565b60405180910390a280925050509998505050505050505050565b6000816002600082815260200190815260200160002060000160000160009054906101000a900473ffffffffffffffffffffffffffffffffffffffff1673ffffffffffffffffffffffffffffffffffffffff163373ffffffffffffffffffffffffffffffffffffffff1614610760576040517f08c379a0000000000000000000000000000000000000000000000000000000008152600401610757906127de565b60405180910390fd5b826002600381111561077557610774612261565b5b60026000838152602001908152602001600020600f0160009054906101000a900460ff1660038111156107ab576107aa612261565b5b146107eb576040517f08c379a00000000000000000000000000000000000000000000000000000000081526004016107e290612870565b60405180910390fd5b6107f48461092a565b60c001513414610839576040517f08c379a0000000000000000000000000000000000000000000000000000000008152600401610830906128dc565b60405180910390fd5b600061084485611587565b6000015173ffffffffffffffffffffffffffffffffffffffff163460405161086b9061292d565b60006040518083038185875af1925050503d80600081146108a8576040519150601f19603f3d011682016040523d82523d6000602084013e6108ad565b606091505b50509050806108f1576040517f08c379a00000000000000000000000000000000000000000000000000000000081526004016108e89061298e565b60405180910390fd5b6108fa85611a65565b60019350505050919050565b61090e611e74565b6001604051806020016040529081600082015481525050905090565b610932611e87565b6002600083815260200190815260200160002060405180610160016040529081600082016040518060800160405290816000820160009054906101000a900473ffffffffffffffffffffffffffffffffffffffff1673ffffffffffffffffffffffffffffffffffffffff1673ffffffffffffffffffffffffffffffffffffffff16815260200160018201548152602001600282015481526020016003820154815250508152602001600482016040518060600160405290816000820160009054906101000a900473ffffffffffffffffffffffffffffffffffffffff1673ffffffffffffffffffffffffffffffffffffffff1673ffffffffffffffffffffffffffffffffffffffff168152602001600182015481526020016002820160009054906101000a900460ff1615151515815250508152602001600782015481526020016008820154815260200160098201548152602001600a8201548152602001600b8201548152602001600c8201548152602001600d8201548152602001600e8201548152602001600f820160009054906101000a900460ff166003811115610add57610adc612261565b5b6003811115610aef57610aee612261565b5b815250509050919050565b6000610b04611134565b73ffffffffffffffffffffffffffffffffffffffff163373ffffffffffffffffffffffffffffffffffffffff1603610b71576040517f08c379a0000000000000000000000000000000000000000000000000000000008152600401610b68906125f0565b60405180910390fd5b816002600082815260200190815260200160002060000160000160009054906101000a900473ffffffffffffffffffffffffffffffffffffffff1673ffffffffffffffffffffffffffffffffffffffff163373ffffffffffffffffffffffffffffffffffffffff1614610c19576040517f08c379a0000000000000000000000000000000000000000000000000000000008152600401610c10906127de565b60405180910390fd5b8260016003811115610c2e57610c2d612261565b5b60026000838152602001908152602001600020600f0160009054906101000a900460ff166003811115610c6457610c63612261565b5b14610ca4576040517f08c379a0000000000000000000000000000000000000000000000000000000008152600401610c9b90612870565b60405180910390fd5b60003373ffffffffffffffffffffffffffffffffffffffff16610cc686610db5565b60200151604051610cd69061292d565b60006040518083038185875af1925050503d8060008114610d13576040519150601f19603f3d011682016040523d82523d6000602084013e610d18565b606091505b5050905080610d5c576040517f08c379a0000000000000000000000000000000000000000000000000000000008152600401610d53906129fa565b60405180910390fd5b610d6585611ad0565b7fedc1bfa27112bfbfbe944ffc70f825e8f4c270f9755fe15db1869082f61b474c85610d9087610db5565b60000151604051610da2929190612a1a565b60405180910390a1809350505050919050565b610dbd611eff565b610dc68261092a565b600001519050919050565b600047905090565b610de1611b32565b610deb6000611bb0565b565b60008073ffffffffffffffffffffffffffffffffffffffff168273ffffffffffffffffffffffffffffffffffffffff1603610e5d576040517f08c379a0000000000000000000000000000000000000000000000000000000008152600401610e5490612a8f565b60405180910390fd5b816000806101000a81548173ffffffffffffffffffffffffffffffffffffffff021916908373ffffffffffffffffffffffffffffffffffffffff16021790555060019050919050565b6000610eb0611134565b73ffffffffffffffffffffffffffffffffffffffff163373ffffffffffffffffffffffffffffffffffffffff1603610f1d576040517f08c379a0000000000000000000000000000000000000000000000000000000008152600401610f14906125f0565b60405180910390fd5b8160016003811115610f3257610f31612261565b5b60026000838152602001908152602001600020600f0160009054906101000a900460ff166003811115610f6857610f67612261565b5b14610fa8576040517f08c379a0000000000000000000000000000000000000000000000000000000008152600401610f9f90612870565b60405180910390fd5b610fb183610db5565b6000015173ffffffffffffffffffffffffffffffffffffffff163373ffffffffffffffffffffffffffffffffffffffff1603611022576040517f08c379a000000000000000000000000000000000000000000000000000000000815260040161101990612b21565b60405180910390fd5b6000600161102f85611587565b6020015161103d919061263f565b9050348114611081576040517f08c379a0000000000000000000000000000000000000000000000000000000008152600401611078906126e5565b60405180910390fd5b3073ffffffffffffffffffffffffffffffffffffffff166108fc349081150290604051600060405180830381858888f193505050501580156110c7573d6000803e3d6000fd5b5060006110d5878787611c76565b90508673ffffffffffffffffffffffffffffffffffffffff167fbf5d5a04310e5165179d0106e6b639639a6a9b1c293019f5ba0a10f6eb11cb8e828460405161111f929190612b41565b60405180910390a28093505050509392505050565b6000600460009054906101000a900473ffffffffffffffffffffffffffffffffffffffff16905090565b6000611168611134565b73ffffffffffffffffffffffffffffffffffffffff163373ffffffffffffffffffffffffffffffffffffffff16036111d5576040517f08c379a00000000000000000000000000000000000000000000000000000000081526004016111cc906125f0565b60405180910390fd5b816002600082815260200190815260200160002060000160000160009054906101000a900473ffffffffffffffffffffffffffffffffffffffff1673ffffffffffffffffffffffffffffffffffffffff163373ffffffffffffffffffffffffffffffffffffffff161461127d576040517f08c379a0000000000000000000000000000000000000000000000000000000008152600401611274906127de565b60405180910390fd5b826002600381111561129257611291612261565b5b60026000838152602001908152602001600020600f0160009054906101000a900460ff1660038111156112c8576112c7612261565b5b14611308576040517f08c379a00000000000000000000000000000000000000000000000000000000081526004016112ff90612870565b60405180910390fd5b600061131385611513565b905060008103611358576040517f08c379a000000000000000000000000000000000000000000000000000000000815260040161134f90612bdc565b60405180910390fd5b60003373ffffffffffffffffffffffffffffffffffffffff1661137a87610db5565b60200151836113899190612bfc565b6040516113959061292d565b60006040518083038185875af1925050503d80600081146113d2576040519150601f19603f3d011682016040523d82523d6000602084013e6113d7565b606091505b5050905060003373ffffffffffffffffffffffffffffffffffffffff16836113fe89611587565b6020015161140c9190612c30565b6040516114189061292d565b60006040518083038185875af1925050503d8060008114611455576040519150601f19603f3d011682016040523d82523d6000602084013e61145a565b606091505b505090508180156114685750805b6114a7576040517f08c379a000000000000000000000000000000000000000000000000000000000815260040161149e90612cb0565b60405180910390fd5b6114b087611d5c565b7fb1d5f6c80b2138d4bb2dbda1c180eba2090137bfd92c5091db8e9d35b5aa14e2876114db89610db5565b600001516114e88a611587565b60000151866040516114fd9493929190612cd0565b60405180910390a1600195505050505050919050565b60008061151e610472565b9050600061152b8461092a565b9050818160800151101561154457600092505050611582565b6000816020015160200151905060006115788360a00151846040015185606001518786611deb90949392919063ffffffff16565b9050809450505050505b919050565b61158f611f3d565b6115988261092a565b602001519050919050565b6000816002600082815260200190815260200160002060000160000160009054906101000a900473ffffffffffffffffffffffffffffffffffffffff1673ffffffffffffffffffffffffffffffffffffffff163373ffffffffffffffffffffffffffffffffffffffff161461164d576040517f08c379a0000000000000000000000000000000000000000000000000000000008152600401611644906127de565b60405180910390fd5b826002600381111561166257611661612261565b5b60026000838152602001908152602001600020600f0160009054906101000a900460ff16600381111561169857611697612261565b5b146116d8576040517f08c379a00000000000000000000000000000000000000000000000000000000081526004016116cf90612870565b60405180910390fd5b60006001905060006116e986610db5565b602001511461176b573373ffffffffffffffffffffffffffffffffffffffff1661171286610db5565b602001516040516117229061292d565b60006040518083038185875af1925050503d806000811461175f576040519150601f19603f3d011682016040523d82523d6000602084013e611764565b606091505b5050809150505b600061177686611587565b6000015173ffffffffffffffffffffffffffffffffffffffff1661179987611587565b602001516040516117a99061292d565b60006040518083038185875af1925050503d80600081146117e6576040519150601f19603f3d011682016040523d82523d6000602084013e6117eb565b606091505b505090508180156117f95750805b611838576040517f08c379a000000000000000000000000000000000000000000000000000000000815260040161182f90612d61565b60405180910390fd5b61184186611ad0565b7f499c65494d3528d43cc10198766ee94b527961839e55c7ee85eb750e5f90fb3f8661186c88610db5565b6000015161187989611587565b6000015160405161188c93929190612d81565b60405180910390a16001945050505050919050565b6118a9611b32565b600073ffffffffffffffffffffffffffffffffffffffff168173ffffffffffffffffffffffffffffffffffffffff1603611918576040517f08c379a000000000000000000000000000000000000000000000000000000000815260040161190f90612e2a565b60405180910390fd5b61192181611bb0565b50565b60008183611932919061263f565b905092915050565b60006119466001611e32565b60006119526001611e48565b905060006002600083815260200190815260200160002090508b8160000160000160006101000a81548173ffffffffffffffffffffffffffffffffffffffff021916908373ffffffffffffffffffffffffffffffffffffffff1602179055506119c560038761192490919063ffffffff16565b81600001600101819055508a81600701819055508981600801819055508881600901819055508781600a01819055508581600b018190555060035481600c01819055508481600d01819055508381600e0181905550600181600f0160006101000a81548160ff02191690836003811115611a4257611a41612261565b5b021790555086816004016001018190555081925050509998505050505050505050565b600060026000838152602001908152602001600020905042816000016002018190555080600d015442611a989190612bfc565b8160000160030181905550600081600e015414611acc57600181600e016000828254611ac49190612c30565b925050819055505b5050565b60006002600083815260200190815260200160002090506000816000016001018190555060008160040160010181905550600081600f0160006101000a81548160ff02191690836003811115611b2957611b28612261565b5b02179055505050565b611b3a611e56565b73ffffffffffffffffffffffffffffffffffffffff16611b58611134565b73ffffffffffffffffffffffffffffffffffffffff1614611bae576040517f08c379a0000000000000000000000000000000000000000000000000000000008152600401611ba590612e96565b60405180910390fd5b565b6000600460009054906101000a900473ffffffffffffffffffffffffffffffffffffffff16905081600460006101000a81548173ffffffffffffffffffffffffffffffffffffffff021916908373ffffffffffffffffffffffffffffffffffffffff1602179055508173ffffffffffffffffffffffffffffffffffffffff168173ffffffffffffffffffffffffffffffffffffffff167f8be0079c531659141344cd1fd0a4f28419497f9722a3daafe3b4186f6b6457e060405160405180910390a35050565b600080600260008481526020019081526020016000209050848160040160000160006101000a81548173ffffffffffffffffffffffffffffffffffffffff021916908373ffffffffffffffffffffffffffffffffffffffff16021790555083816007018190555060018160040160020160006101000a81548160ff02191690831515021790555042816000016002018190555080600d015442611d199190612bfc565b8160000160030181905550600281600f0160006101000a81548160ff02191690836003811115611d4c57611d4b612261565b5b0217905550829150509392505050565b600060026000838152602001908152602001600020905060008160000160010181905550600081600001600301819055506000816004016001018190555060008160040160020160006101000a81548160ff021916908315150217905550600381600f0160006101000a81548160ff02191690836003811115611de257611de1612261565b5b02179055505050565b600080828610611dfd57869050611e25565b611e22611e138487611e5e90919063ffffffff16565b8561192490919063ffffffff16565b90505b8091505095945050505050565b6001816000016000828254019250508190555050565b600081600001549050919050565b600033905090565b60008183611e6c9190612c30565b905092915050565b6040518060200160405280600081525090565b604051806101600160405280611e9b611eff565b8152602001611ea8611f3d565b8152602001600081526020016000815260200160008152602001600081526020016000815260200160008152602001600081526020016000815260200160006003811115611ef957611ef8612261565b5b81525090565b6040518060800160405280600073ffffffffffffffffffffffffffffffffffffffff1681526020016000815260200160008152602001600081525090565b6040518060600160405280600073ffffffffffffffffffffffffffffffffffffffff168152602001600081526020016000151581525090565b6000819050919050565b611f8981611f76565b82525050565b6000602082019050611fa46000830184611f80565b92915050565b600080fd5b600073ffffffffffffffffffffffffffffffffffffffff82169050919050565b6000611fda82611faf565b9050919050565b611fea81611fcf565b8114611ff557600080fd5b50565b60008135905061200781611fe1565b92915050565b61201681611f76565b811461202157600080fd5b50565b6000813590506120338161200d565b92915050565b60008060008060008060008060006101208a8c03121561205c5761205b611faa565b5b600061206a8c828d01611ff8565b995050602061207b8c828d01612024565b985050604061208c8c828d01612024565b975050606061209d8c828d01612024565b96505060806120ae8c828d01612024565b95505060a06120bf8c828d01612024565b94505060c06120d08c828d01612024565b93505060e06120e18c828d01612024565b9250506101006120f38c828d01612024565b9150509295985092959850929598565b60006020828403121561211957612118611faa565b5b600061212784828501612024565b91505092915050565b60008115159050919050565b61214581612130565b82525050565b6000602082019050612160600083018461213c565b92915050565b61216f81611f76565b82525050565b60208201600082015161218b6000850182612166565b50505050565b60006020820190506121a66000830184612175565b92915050565b6121b581611fcf565b82525050565b6080820160008201516121d160008501826121ac565b5060208201516121e46020850182612166565b5060408201516121f76040850182612166565b50606082015161220a6060850182612166565b50505050565b61221981612130565b82525050565b60608201600082015161223560008501826121ac565b5060208201516122486020850182612166565b50604082015161225b6040850182612210565b50505050565b7f4e487b7100000000000000000000000000000000000000000000000000000000600052602160045260246000fd5b600481106122a1576122a0612261565b5b50565b60008190506122b282612290565b919050565b60006122c2826122a4565b9050919050565b6122d2816122b7565b82525050565b610200820160008201516122ef60008501826121bb565b506020820151612302608085018261221f565b50604082015161231560e0850182612166565b506060820151612329610100850182612166565b50608082015161233d610120850182612166565b5060a0820151612351610140850182612166565b5060c0820151612365610160850182612166565b5060e0820151612379610180850182612166565b5061010082015161238e6101a0850182612166565b506101208201516123a36101c0850182612166565b506101408201516123b86101e08501826122c9565b50505050565b6000610200820190506123d460008301846122d8565b92915050565b6080820160008201516123f060008501826121ac565b5060208201516124036020850182612166565b5060408201516124166040850182612166565b5060608201516124296060850182612166565b50505050565b600060808201905061244460008301846123da565b92915050565b6000602082840312156124605761245f611faa565b5b600061246e84828501611ff8565b91505092915050565b6000806000606084860312156124905761248f611faa565b5b600061249e86828701611ff8565b93505060206124af86828701612024565b92505060406124c086828701612024565b9150509250925092565b6124d381611fcf565b82525050565b60006020820190506124ee60008301846124ca565b92915050565b60608201600082015161250a60008501826121ac565b50602082015161251d6020850182612166565b5060408201516125306040850182612210565b50505050565b600060608201905061254b60008301846124f4565b92915050565b6000815190506125608161200d565b92915050565b60006020828403121561257c5761257b611faa565b5b600061258a84828501612551565b91505092915050565b600082825260208201905092915050565b7f4f776e65722063616e206e6f742063616c6c20746865206d6574686f64000000600082015250565b60006125da601d83612593565b91506125e5826125a4565b602082019050919050565b60006020820190508181036000830152612609816125cd565b9050919050565b7f4e487b7100000000000000000000000000000000000000000000000000000000600052601160045260246000fd5b600061264a82611f76565b915061265583611f76565b9250817fffffffffffffffffffffffffffffffffffffffffffffffffffffffffffffffff048311821515161561268e5761268d612610565b5b828202905092915050565b7f496e76616c69642065746820616d6f756e740000000000000000000000000000600082015250565b60006126cf601283612593565b91506126da82612699565b602082019050919050565b600060208201905081810360008301526126fe816126c2565b9050919050565b60006101208201905061271b600083018c611f80565b612728602083018b611f80565b612735604083018a611f80565b6127426060830189611f80565b61274f6080830188611f80565b61275c60a0830187611f80565b61276960c0830186611f80565b61277660e0830185611f80565b612784610100830184611f80565b9a9950505050505050505050565b7f4f6e6c79206275796572206f6620746865204344532063616e2063616c6c0000600082015250565b60006127c8601e83612593565b91506127d382612792565b602082019050919050565b600060208201905081810360008301526127f7816127bb565b9050919050565b7f54686520737461747573206f6620746865204344532073686f756c642062652060008201527f70656e64696e6700000000000000000000000000000000000000000000000000602082015250565b600061285a602783612593565b9150612865826127fe565b604082019050919050565b600060208201905081810360008301526128898161284d565b9050919050565b7f496e76616c6964207072656d69756d0000000000000000000000000000000000600082015250565b60006128c6600f83612593565b91506128d182612890565b602082019050919050565b600060208201905081810360008301526128f5816128b9565b9050919050565b600081905092915050565b50565b60006129176000836128fc565b915061292282612907565b600082019050919050565b60006129388261290a565b9150819050919050565b7f53656e64696e67207072656d69756d206661696c656400000000000000000000600082015250565b6000612978601683612593565b915061298382612942565b602082019050919050565b600060208201905081810360008301526129a78161296b565b9050919050565b7f53656e64696e67206661696c6564000000000000000000000000000000000000600082015250565b60006129e4600e83612593565b91506129ef826129ae565b602082019050919050565b60006020820190508181036000830152612a13816129d7565b9050919050565b6000604082019050612a2f6000830185611f80565b612a3c60208301846124ca565b9392505050565b7f496e76616c696420616464726573730000000000000000000000000000000000600082015250565b6000612a79600f83612593565b9150612a8482612a43565b602082019050919050565b60006020820190508181036000830152612aa881612a6c565b9050919050565b7f5468652062757965722063616e206e6f742063616c6c20746865206d6574686f60008201527f6400000000000000000000000000000000000000000000000000000000000000602082015250565b6000612b0b602183612593565b9150612b1682612aaf565b604082019050919050565b60006020820190508181036000830152612b3a81612afe565b9050919050565b6000604082019050612b566000830185611f80565b612b636020830184611f80565b9392505050565b7f436c61696d20707269636520696e204344532073686f756c642062652068696760008201527f686572207468616e2063757272656e74207072696365206f6620617373657400602082015250565b6000612bc6603f83612593565b9150612bd182612b6a565b604082019050919050565b60006020820190508181036000830152612bf581612bb9565b9050919050565b6000612c0782611f76565b9150612c1283611f76565b9250828201905080821115612c2a57612c29612610565b5b92915050565b6000612c3b82611f76565b9150612c4683611f76565b9250828203905081811115612c5e57612c5d612610565b5b92915050565b7f53656e64696e6720726577617264206661696c65640000000000000000000000600082015250565b6000612c9a601583612593565b9150612ca582612c64565b602082019050919050565b60006020820190508181036000830152612cc981612c8d565b9050919050565b6000608082019050612ce56000830187611f80565b612cf260208301866124ca565b612cff60408301856124ca565b612d0c6060830184611f80565b95945050505050565b7f53656e64696e67206465706f736974206661696c656400000000000000000000600082015250565b6000612d4b601683612593565b9150612d5682612d15565b602082019050919050565b60006020820190508181036000830152612d7a81612d3e565b9050919050565b6000606082019050612d966000830186611f80565b612da360208301856124ca565b612db060408301846124ca565b949350505050565b7f4f776e61626c653a206e6577206f776e657220697320746865207a65726f206160008201527f6464726573730000000000000000000000000000000000000000000000000000602082015250565b6000612e14602683612593565b9150612e1f82612db8565b604082019050919050565b60006020820190508181036000830152612e4381612e07565b9050919050565b7f4f776e61626c653a2063616c6c6572206973206e6f7420746865206f776e6572600082015250565b6000612e80602083612593565b9150612e8b82612e4a565b602082019050919050565b60006020820190508181036000830152612eaf81612e73565b905091905056fea26469706673582212203d35a28d66413dd53d13f65e67e1d38f61bf8d65d6f0a43f05cb94c1aeefc6a564736f6c63430008100033",
  "immutableReferences": {},
  "source": "// SPDX-License-Identifier: MIT\npragma solidity ^0.8.7;\n\nimport './Swaps/Swaps.sol';\nimport '@openzeppelin/contracts/access/Ownable.sol';\nimport '@openzeppelin/contracts/utils/math/SafeMath.sol';\nimport './libs/LibClaim.sol';\n\ncontract CDS is Swaps, Ownable {\n  using SafeMath for uint256;\n  using LibClaim for uint256;\n\n  constructor() payable {}\n\n  receive() external payable {}\n\n  modifier isNotOwner() {\n    require(msg.sender != owner(), 'Owner can not call the method');\n    _;\n  }\n\n  event CreateSwap(\n    address indexed buyer,\n    uint256 swapId,\n    uint256 initAssetPrice,\n    uint256 amountOfAssets,\n    uint256 claimPrice,\n    uint256 liquidationPrice,\n    uint256 premium,\n    uint256 premiumInterval,\n    uint256 totalPremiumRounds,\n    uint256 buyerDeposit\n  );\n  event AcceptSwap(\n    address indexed seller,\n    uint256 swapId,\n    uint256 sellerDeposit\n  );\n  event CancelSwap(uint256 swapId, address buyer);\n  event ClaimSwap(\n    uint256 swapId,\n    address buyer,\n    address seller,\n    uint256 claimReward\n  );\n  event CloseSwap(uint256 swapId, address buyer, address seller);\n\n  function createSwap(\n    address addr,\n    uint256 initAssetPrice,\n    uint256 amountOfAssets,\n    uint256 claimPrice,\n    uint256 liquidationPrice,\n    uint256 sellerDeposit,\n    uint256 premium,\n    uint256 premiumInterval,\n    uint256 totalPremiumRounds\n  ) external payable isNotOwner returns (uint256) {\n    uint256 buyerDeposit = premium.mul(3) * 1 wei;\n    require(buyerDeposit == msg.value, 'Invalid eth amount');\n    payable(address(this)).transfer(msg.value);\n\n    uint256 newSwapId = _createSwap(\n      addr,\n      initAssetPrice,\n      amountOfAssets,\n      claimPrice,\n      liquidationPrice,\n      sellerDeposit,\n      premium,\n      premiumInterval,\n      totalPremiumRounds\n    );\n\n    emit CreateSwap(\n      addr,\n      newSwapId,\n      initAssetPrice,\n      amountOfAssets,\n      claimPrice,\n      liquidationPrice,\n      premium,\n      premiumInterval,\n      totalPremiumRounds,\n      buyerDeposit\n    );\n\n    return newSwapId;\n  }\n\n  function acceptSwap(\n    address addr,\n    uint256 initAssetPrice,\n    uint256 swapId\n  ) external payable isNotOwner isPending(swapId) returns (uint256) {\n    require(\n      msg.sender != getBuyer(swapId).addr,\n      'The buyer can not call the method'\n    );\n    uint256 sellerDeposit = getSeller(swapId).deposit * 1 wei;\n    require(sellerDeposit == msg.value, 'Invalid eth amount');\n    payable(address(this)).transfer(msg.value);\n\n    uint256 acceptedSwapId = _acceptSwap(addr, initAssetPrice, swapId);\n    emit AcceptSwap(addr, acceptedSwapId, sellerDeposit);\n    return acceptedSwapId;\n  }\n\n  function cancelSwap(\n    uint256 swapId\n  ) external isNotOwner isBuyer(swapId) isPending(swapId) returns (bool) {\n    (bool sent, ) = msg.sender.call{value: getBuyer(swapId).deposit}('');\n    require(sent, 'Sending failed');\n    _cancelSwap(swapId);\n    emit CancelSwap(swapId, getBuyer(swapId).addr);\n    return sent;\n  }\n\n  function closeSwap(\n    uint256 swapId\n  ) external isBuyer(swapId) isActive(swapId) returns (bool) {\n    bool sentBuyer = true;\n    if (getBuyer(swapId).deposit != 0) {\n      (sentBuyer, ) = msg.sender.call{value: getBuyer(swapId).deposit}('');\n    }\n    (bool sentSeller, ) = getSeller(swapId).addr.call{\n      value: getSeller(swapId).deposit\n    }('');\n    require(sentBuyer && sentSeller, 'Sending deposit failed');\n    // set status to closed or inactive\n    _cancelSwap(swapId);\n    emit CloseSwap(swapId, getBuyer(swapId).addr, getSeller(swapId).addr);\n    return true;\n  }\n\n  function payPremium(\n    uint256 swapId\n  ) external payable isBuyer(swapId) isActive(swapId) returns (bool) {\n    // date check\n    // require(_checkDate(swapId), 'Invalid date');\n\n    require(msg.value == getSwap(swapId).premium, 'Invalid premium');\n    (bool sent, ) = getSeller(swapId).addr.call{value: msg.value}('');\n    require(sent, 'Sending premium failed');\n    // status update\n    _payPremium(swapId);\n    return true;\n  }\n\n  function claimSwap(\n    uint256 swapId\n  ) external isNotOwner isBuyer(swapId) isActive(swapId) returns (bool) {\n    uint256 claimReward = getClaimReward(swapId);\n    require(\n      claimReward != 0,\n      'Claim price in CDS should be higher than current price of asset'\n    );\n    (bool sentBuyer, ) = msg.sender.call{\n      value: (claimReward + getBuyer(swapId).deposit)\n    }('');\n    (bool sentSeller, ) = msg.sender.call{\n      value: (getSeller(swapId).deposit - claimReward)\n    }('');\n    require(sentBuyer && sentSeller, 'Sending reward failed');\n    _claimSwap(swapId);\n    emit ClaimSwap(\n      swapId,\n      getBuyer(swapId).addr,\n      getSeller(swapId).addr,\n      claimReward\n    );\n    return true;\n  }\n\n  function getClaimReward(uint256 swapId) public view returns (uint256) {\n    uint256 currPrice = getPriceFromOracle();\n    Swap memory targetSwap = getSwap(swapId);\n    if (targetSwap.claimPrice < currPrice) {\n      return 0;\n    }\n    uint256 sellerDeposit = targetSwap.seller.deposit;\n    uint256 claimReward = sellerDeposit.calcClaimReward(\n      targetSwap.liquidationPrice,\n      targetSwap.initAssetPrice,\n      targetSwap.amountOfAssets,\n      currPrice\n    );\n    return claimReward;\n  }\n\n  function getSwap(uint256 swapId) public view returns (Swap memory) {\n    return _swaps[swapId];\n  }\n\n  function getBuyer(uint256 swapId) public view returns (Buyer memory) {\n    return getSwap(swapId).buyer;\n  }\n\n  function getSeller(uint256 swapId) public view returns (Seller memory) {\n    return getSwap(swapId).seller;\n  }\n\n  function getSwapId() public view returns (Counters.Counter memory) {\n    return _swapId;\n  }\n\n  function getContractBalance() public view returns (uint256) {\n    return address(this).balance;\n  }\n}\n",
  "sourcePath": "/Users/sdh/Study/BEB_07/projects/CDS/contract/contracts/CDS.sol",
  "compiler": {
    "name": "solc",
    "version": "0.8.16+commit.07a7930e.Emscripten.clang"
  },
  "schemaVersion": "3.4.9",
  "updatedAt": "2023-01-28T13:06:34.208Z",
  "networkType": "ethereum",
  "devdoc": {
    "kind": "dev",
    "methods": {
      "owner()": {
        "details": "Returns the address of the current owner."
      },
      "renounceOwnership()": {
        "details": "Leaves the contract without owner. It will not be possible to call `onlyOwner` functions anymore. Can only be called by the current owner. NOTE: Renouncing ownership will leave the contract without an owner, thereby removing any functionality that is only available to the owner."
      },
      "transferOwnership(address)": {
        "details": "Transfers ownership of the contract to a new account (`newOwner`). Can only be called by the current owner."
      }
    },
    "version": 1
  },
  "userdoc": {
    "kind": "user",
    "methods": {},
    "version": 1
  }
}