{
  "contractName": "CDS",
  "abi": [
    {
      "anonymous": false,
      "inputs": [
        {
          "indexed": true,
          "internalType": "address",
          "name": "guestAddr",
          "type": "address"
        },
        {
          "indexed": false,
          "internalType": "uint256",
          "name": "swapId",
          "type": "uint256"
        }
      ],
      "name": "Accept",
      "type": "event"
    },
    {
      "anonymous": false,
      "inputs": [
        {
          "indexed": false,
          "internalType": "uint256",
          "name": "swapId",
          "type": "uint256"
        }
      ],
      "name": "Cancel",
      "type": "event"
    },
    {
      "anonymous": false,
      "inputs": [
        {
          "indexed": false,
          "internalType": "uint256",
          "name": "swapId",
          "type": "uint256"
        },
        {
          "indexed": false,
          "internalType": "uint256",
          "name": "claimReward",
          "type": "uint256"
        }
      ],
      "name": "Claim",
      "type": "event"
    },
    {
      "anonymous": false,
      "inputs": [
        {
          "indexed": false,
          "internalType": "uint256",
          "name": "swapId",
          "type": "uint256"
        }
      ],
      "name": "Close",
      "type": "event"
    },
    {
      "anonymous": false,
      "inputs": [
        {
          "indexed": true,
          "internalType": "address",
          "name": "hostAddr",
          "type": "address"
        },
        {
          "indexed": false,
          "internalType": "bool",
          "name": "isBuyer",
          "type": "bool"
        },
        {
          "indexed": false,
          "internalType": "uint256",
          "name": "swapId",
          "type": "uint256"
        },
        {
          "indexed": false,
          "internalType": "address",
          "name": "swap",
          "type": "address"
        }
      ],
      "name": "Create",
      "type": "event"
    },
    {
      "anonymous": false,
      "inputs": [
        {
          "indexed": false,
          "internalType": "uint256",
          "name": "swapId",
          "type": "uint256"
        }
      ],
      "name": "Expire",
      "type": "event"
    },
    {
      "anonymous": false,
      "inputs": [
        {
          "indexed": true,
          "internalType": "address",
          "name": "previousOwner",
          "type": "address"
        },
        {
          "indexed": true,
          "internalType": "address",
          "name": "newOwner",
          "type": "address"
        }
      ],
      "name": "OwnershipTransferred",
      "type": "event"
    },
    {
      "anonymous": false,
      "inputs": [
        {
          "indexed": false,
          "internalType": "uint256",
          "name": "swapId",
          "type": "uint256"
        }
      ],
      "name": "PayPremium",
      "type": "event"
    },
    {
      "inputs": [
        {
          "internalType": "uint256",
          "name": "",
          "type": "uint256"
        },
        {
          "internalType": "uint256",
          "name": "",
          "type": "uint256"
        }
      ],
      "name": "deposits",
      "outputs": [
        {
          "internalType": "uint256",
          "name": "",
          "type": "uint256"
        }
      ],
      "stateMutability": "view",
      "type": "function"
    },
    {
      "inputs": [
        {
          "internalType": "uint256",
          "name": "swapId",
          "type": "uint256"
        }
      ],
      "name": "getBuyer",
      "outputs": [
        {
          "internalType": "address",
          "name": "",
          "type": "address"
        }
      ],
      "stateMutability": "view",
      "type": "function"
    },
    {
      "inputs": [
        {
          "internalType": "uint256",
          "name": "swapId",
          "type": "uint256"
        }
      ],
      "name": "getNextPayDate",
      "outputs": [
        {
          "internalType": "uint256",
          "name": "",
          "type": "uint256"
        }
      ],
      "stateMutability": "view",
      "type": "function"
    },
    {
      "inputs": [
        {
          "internalType": "uint256",
          "name": "swapId",
          "type": "uint256"
        }
      ],
      "name": "getPremium",
      "outputs": [
        {
          "internalType": "uint256",
          "name": "",
          "type": "uint256"
        }
      ],
      "stateMutability": "view",
      "type": "function"
    },
    {
      "inputs": [
        {
          "internalType": "uint256",
          "name": "swapId",
          "type": "uint256"
        }
      ],
      "name": "getPrices",
      "outputs": [
        {
          "internalType": "uint256[5]",
          "name": "",
          "type": "uint256[5]"
        }
      ],
      "stateMutability": "view",
      "type": "function"
    },
    {
      "inputs": [
        {
          "internalType": "uint256",
          "name": "swapId",
          "type": "uint256"
        }
      ],
      "name": "getRounds",
      "outputs": [
        {
          "internalType": "uint32",
          "name": "",
          "type": "uint32"
        }
      ],
      "stateMutability": "view",
      "type": "function"
    },
    {
      "inputs": [
        {
          "internalType": "uint256",
          "name": "swapId",
          "type": "uint256"
        }
      ],
      "name": "getSeller",
      "outputs": [
        {
          "internalType": "address",
          "name": "",
          "type": "address"
        }
      ],
      "stateMutability": "view",
      "type": "function"
    },
    {
      "inputs": [
        {
          "internalType": "uint256",
          "name": "swapId",
          "type": "uint256"
        }
      ],
      "name": "getSellerDeposit",
      "outputs": [
        {
          "internalType": "uint256",
          "name": "",
          "type": "uint256"
        }
      ],
      "stateMutability": "view",
      "type": "function"
    },
    {
      "inputs": [
        {
          "internalType": "uint256",
          "name": "swapId",
          "type": "uint256"
        }
      ],
      "name": "getStatus",
      "outputs": [
        {
          "internalType": "enum Swap.Status",
          "name": "",
          "type": "uint8"
        }
      ],
      "stateMutability": "view",
      "type": "function"
    },
    {
      "inputs": [
        {
          "internalType": "uint256",
          "name": "swapId",
          "type": "uint256"
        }
      ],
      "name": "getSwap",
      "outputs": [
        {
          "internalType": "contract Swap",
          "name": "",
          "type": "address"
        }
      ],
      "stateMutability": "view",
      "type": "function"
    },
    {
      "inputs": [],
      "name": "getSwapId",
      "outputs": [
        {
          "components": [
            {
              "internalType": "uint256",
              "name": "_value",
              "type": "uint256"
            }
          ],
          "internalType": "struct Counters.Counter",
          "name": "",
          "type": "tuple"
        }
      ],
      "stateMutability": "view",
      "type": "function"
    },
    {
      "inputs": [
        {
          "internalType": "uint256",
          "name": "swapId",
          "type": "uint256"
        }
      ],
      "name": "getTotalRounds",
      "outputs": [
        {
          "internalType": "uint32",
          "name": "",
          "type": "uint32"
        }
      ],
      "stateMutability": "view",
      "type": "function"
    },
    {
      "inputs": [],
      "name": "owner",
      "outputs": [
        {
          "internalType": "address",
          "name": "",
          "type": "address"
        }
      ],
      "stateMutability": "view",
      "type": "function"
    },
    {
      "inputs": [],
      "name": "priceOracle",
      "outputs": [
        {
          "internalType": "address",
          "name": "",
          "type": "address"
        }
      ],
      "stateMutability": "view",
      "type": "function"
    },
    {
      "inputs": [],
      "name": "renounceOwnership",
      "outputs": [],
      "stateMutability": "nonpayable",
      "type": "function"
    },
    {
      "inputs": [
        {
          "internalType": "address",
          "name": "_priceOracleAddress",
          "type": "address"
        }
      ],
      "name": "setOracle",
      "outputs": [
        {
          "internalType": "bool",
          "name": "",
          "type": "bool"
        }
      ],
      "stateMutability": "nonpayable",
      "type": "function"
    },
    {
      "inputs": [
        {
          "internalType": "address",
          "name": "_tokenAddress",
          "type": "address"
        }
      ],
      "name": "setToken",
      "outputs": [
        {
          "internalType": "bool",
          "name": "",
          "type": "bool"
        }
      ],
      "stateMutability": "nonpayable",
      "type": "function"
    },
    {
      "inputs": [],
      "name": "token",
      "outputs": [
        {
          "internalType": "contract IERC20",
          "name": "",
          "type": "address"
        }
      ],
      "stateMutability": "view",
      "type": "function"
    },
    {
      "inputs": [
        {
          "internalType": "address",
          "name": "newOwner",
          "type": "address"
        }
      ],
      "name": "transferOwnership",
      "outputs": [],
      "stateMutability": "nonpayable",
      "type": "function"
    },
    {
      "inputs": [
        {
          "internalType": "bool",
          "name": "isBuyer",
          "type": "bool"
        },
        {
          "internalType": "uint256",
          "name": "initAssetPrice",
          "type": "uint256"
        },
        {
          "internalType": "uint256",
          "name": "claimPrice",
          "type": "uint256"
        },
        {
          "internalType": "uint256",
          "name": "liquidationPrice",
          "type": "uint256"
        },
        {
          "internalType": "uint256",
          "name": "sellerDeposit",
          "type": "uint256"
        },
        {
          "internalType": "uint256",
          "name": "premium",
          "type": "uint256"
        },
        {
          "internalType": "uint32",
          "name": "totalRounds",
          "type": "uint32"
        }
      ],
      "name": "create",
      "outputs": [
        {
          "internalType": "uint256",
          "name": "",
          "type": "uint256"
        }
      ],
      "stateMutability": "nonpayable",
      "type": "function"
    },
    {
      "inputs": [
        {
          "internalType": "uint256",
          "name": "initAssetPrice",
          "type": "uint256"
        },
        {
          "internalType": "uint256",
          "name": "swapId",
          "type": "uint256"
        }
      ],
      "name": "accept",
      "outputs": [
        {
          "internalType": "uint256",
          "name": "",
          "type": "uint256"
        }
      ],
      "stateMutability": "nonpayable",
      "type": "function"
    },
    {
      "inputs": [
        {
          "internalType": "uint256",
          "name": "swapId",
          "type": "uint256"
        }
      ],
      "name": "cancel",
      "outputs": [
        {
          "internalType": "bool",
          "name": "",
          "type": "bool"
        }
      ],
      "stateMutability": "nonpayable",
      "type": "function"
    },
    {
      "inputs": [
        {
          "internalType": "uint256",
          "name": "swapId",
          "type": "uint256"
        }
      ],
      "name": "close",
      "outputs": [
        {
          "internalType": "bool",
          "name": "",
          "type": "bool"
        }
      ],
      "stateMutability": "nonpayable",
      "type": "function"
    },
    {
      "inputs": [
        {
          "internalType": "uint256",
          "name": "swapId",
          "type": "uint256"
        }
      ],
      "name": "claim",
      "outputs": [
        {
          "internalType": "bool",
          "name": "",
          "type": "bool"
        }
      ],
      "stateMutability": "nonpayable",
      "type": "function"
    },
    {
      "inputs": [
        {
          "internalType": "uint256",
          "name": "swapId",
          "type": "uint256"
        }
      ],
      "name": "expire",
      "outputs": [
        {
          "internalType": "bool",
          "name": "",
          "type": "bool"
        }
      ],
      "stateMutability": "nonpayable",
      "type": "function"
    },
    {
      "inputs": [
        {
          "internalType": "uint256",
          "name": "swapId",
          "type": "uint256"
        }
      ],
      "name": "payPremium",
      "outputs": [
        {
          "internalType": "bool",
          "name": "",
          "type": "bool"
        }
      ],
      "stateMutability": "nonpayable",
      "type": "function"
    },
    {
      "inputs": [
        {
          "internalType": "uint256",
          "name": "swapId",
          "type": "uint256"
        }
      ],
      "name": "payPremiumByDeposit",
      "outputs": [
        {
          "internalType": "bool",
          "name": "",
          "type": "bool"
        }
      ],
      "stateMutability": "nonpayable",
      "type": "function"
    }
  ],
  "bytecode": "0x60806040523480156200001157600080fd5b5062000032620000266200003860201b60201c565b6200004060201b60201c565b62000104565b600033905090565b60008060009054906101000a900473ffffffffffffffffffffffffffffffffffffffff169050816000806101000a81548173ffffffffffffffffffffffffffffffffffffffff021916908373ffffffffffffffffffffffffffffffffffffffff1602179055508173ffffffffffffffffffffffffffffffffffffffff168173ffffffffffffffffffffffffffffffffffffffff167f8be0079c531659141344cd1fd0a4f28419497f9722a3daafe3b4186f6b6457e060405160405180910390a35050565b615a1d80620001146000396000f3fe60806040523480156200001157600080fd5b5060043610620001d25760003560e01c80635bf608b811620001115780639149295611620000a5578063d6a9de51116200007b578063d6a9de51146200064b578063e58c784c1462000681578063f2fde38b14620006b7578063fc0c546a14620006d757620001d2565b80639149295614620005a9578063967fe6f114620005df578063bf81bf43146200061557620001d2565b80637adbf97311620000e75780637adbf97314620004e557806388106323146200051b5780638bfd13ae14620005515780638da5cb5b146200058757620001d2565b80635bf608b8146200046d5780635c622a0e14620004a3578063715018a614620004d957620001d2565b80632926ea2a116200018957806340e58ee5116200015f57806340e58ee514620003a95780634364b26e14620003df578063496ab39a14620004155780634a0d89ba146200043757620001d2565b80632926ea2a14620003075780632bd49780146200033d578063379607f5146200037357620001d2565b80630935847914620001d75780630aebeb4e146200020d57806313ef3dcc1462000243578063144fa6d714620002795780631bf1fffb14620002af5780632630c12f14620002e5575b600080fd5b620001f56004803603810190620001ef919062003145565b620006f9565b6040516200020491906200319d565b60405180910390f35b6200022b6004803603810190620002259190620031ba565b6200087d565b6040516200023a919062003209565b60405180910390f35b6200026160048036038101906200025b9190620031ba565b620008d8565b60405162000270919062003247565b60405180910390f35b620002976004803603810190620002919190620032c9565b62000986565b604051620002a6919062003209565b60405180910390f35b620002cd6004803603810190620002c79190620031ba565b62000a16565b604051620002dc91906200319d565b60405180910390f35b620002ef62000ac4565b604051620002fe91906200330c565b60405180910390f35b6200032560048036038101906200031f9190620031ba565b62000aea565b60405162000334919062003209565b60405180910390f35b6200035b600480360381019062000355919062003145565b62000b0a565b6040516200036a91906200319d565b60405180910390f35b6200039160048036038101906200038b9190620031ba565b62000b33565b604051620003a0919062003209565b60405180910390f35b620003c76004803603810190620003c19190620031ba565b62000c54565b604051620003d6919062003209565b60405180910390f35b620003fd6004803603810190620003f79190620031ba565b62000caf565b6040516200040c919062003209565b60405180910390f35b6200041f62000f06565b6040516200042e919062003358565b60405180910390f35b6200045560048036038101906200044f9190620031ba565b62000f2c565b604051620004649190620033e0565b60405180910390f35b6200048b6004803603810190620004859190620031ba565b62000f69565b6040516200049a91906200330c565b60405180910390f35b620004c16004803603810190620004bb9190620031ba565b62001017565b604051620004d091906200347d565b60405180910390f35b620004e3620010c5565b005b620005036004803603810190620004fd9190620032c9565b620010dd565b60405162000512919062003209565b60405180910390f35b620005396004803603810190620005339190620031ba565b6200119a565b6040516200054891906200319d565b60405180910390f35b6200056f6004803603810190620005699190620031ba565b62001248565b6040516200057e91906200319d565b60405180910390f35b6200059162001265565b604051620005a091906200330c565b60405180910390f35b620005c76004803603810190620005c19190620031ba565b6200128e565b604051620005d6919062003544565b60405180910390f35b620005fd6004803603810190620005f79190620031ba565b62001344565b6040516200060c919062003247565b60405180910390f35b6200063360048036038101906200062d9190620031ba565b620013f2565b60405162000642919062003209565b60405180910390f35b620006696004803603810190620006639190620031ba565b6200144d565b6040516200067891906200330c565b60405180910390f35b6200069f6004803603810190620006999190620035c3565b620014fb565b604051620006ae91906200319d565b60405180910390f35b620006d56004803603810190620006cf9190620032c9565b6200158b565b005b620006e162001615565b604051620006f091906200369b565b60405180910390f35b6000620007068262000f69565b73ffffffffffffffffffffffffffffffffffffffff163373ffffffffffffffffffffffffffffffffffffffff161415801562000778575062000748826200144d565b73ffffffffffffffffffffffffffffffffffffffff163373ffffffffffffffffffffffffffffffffffffffff1614155b620007ba576040517f08c379a0000000000000000000000000000000000000000000000000000000008152600401620007b19062003719565b60405180910390fd5b60008073ffffffffffffffffffffffffffffffffffffffff16620007de846200144d565b73ffffffffffffffffffffffffffffffffffffffff161490506000620008068286866200163b565b90506200081584831562001940565b50620008218462001d2f565b503373ffffffffffffffffffffffffffffffffffffffff167f68e07974e86f9190b39c5e1783e6ba66b3d0d7ccf507de51450f14e594d16868826040516200086a91906200319d565b60405180910390a2809250505092915050565b60006200088a8262001f2b565b6200089582620020b4565b507fbf67515a38ee520223d32c1266d52101c30d936ed1f3e436c8caeb0a43cb06bf82604051620008c791906200319d565b60405180910390a160019050919050565b60006002600083815260200190815260200160002060009054906101000a900473ffffffffffffffffffffffffffffffffffffffff1673ffffffffffffffffffffffffffffffffffffffff1663a2e800ad6040518163ffffffff1660e01b8152600401602060405180830381865afa15801562000959573d6000803e3d6000fd5b505050506040513d601f19601f820116820180604052508101906200097f919062003752565b9050919050565b600062000992620022b2565b600073ffffffffffffffffffffffffffffffffffffffff168273ffffffffffffffffffffffffffffffffffffffff1603620009cc57600080fd5b81600560006101000a81548173ffffffffffffffffffffffffffffffffffffffff021916908373ffffffffffffffffffffffffffffffffffffffff16021790555060019050919050565b60006002600083815260200190815260200160002060009054906101000a900473ffffffffffffffffffffffffffffffffffffffff1673ffffffffffffffffffffffffffffffffffffffff1663e0a73a936040518163ffffffff1660e01b8152600401602060405180830381865afa15801562000a97573d6000803e3d6000fd5b505050506040513d601f19601f8201168201806040525081019062000abd91906200379b565b9050919050565b600460009054906101000a900473ffffffffffffffffffffffffffffffffffffffff1681565b600062000af6620022b2565b62000b018262002337565b60019050919050565b6006602052816000526040600020816002811062000b2757600080fd5b01600091509150505481565b60008062000b418362000f2c565b73ffffffffffffffffffffffffffffffffffffffff1663f26cc58e6040518163ffffffff1660e01b8152600401602060405180830381865afa15801562000b8c573d6000803e3d6000fd5b505050506040513d601f19601f8201168201806040525081019062000bb291906200379b565b0362000bf5576040517f08c379a000000000000000000000000000000000000000000000000000000000815260040162000bec9062003843565b60405180910390fd5b62000c008262002506565b600062000c0d836200268f565b90507f022e3d29644ead4083349ca84d24bcac368b2461819b70f5921fea15de4dec4d838260405162000c4292919062003865565b60405180910390a16001915050919050565b600062000c618262002947565b62000c6c82620020b4565b507f8bf30e7ff26833413be5f69e1d373744864d600b664204b4a2f9844a8eedb9ed8260405162000c9e91906200319d565b60405180910390a160019050919050565b600062000cbc8262000a16565b600560009054906101000a900473ffffffffffffffffffffffffffffffffffffffff1673ffffffffffffffffffffffffffffffffffffffff1663dd62ed3e62000d058562000f69565b306040518363ffffffff1660e01b815260040162000d2592919062003892565b602060405180830381865afa15801562000d43573d6000803e3d6000fd5b505050506040513d601f19601f8201168201806040525081019062000d6991906200379b565b1462000dac576040517f08c379a000000000000000000000000000000000000000000000000000000000815260040162000da3906200390f565b60405180910390fd5b62000db78262002337565b6000600560009054906101000a900473ffffffffffffffffffffffffffffffffffffffff1673ffffffffffffffffffffffffffffffffffffffff166323b872dd62000e028562000f69565b62000e0d866200144d565b62000e188762000a16565b6040518463ffffffff1660e01b815260040162000e389392919062003931565b6020604051808303816000875af115801562000e58573d6000803e3d6000fd5b505050506040513d601f19601f8201168201806040525081019062000e7e919062003985565b90508062000ec3576040517f08c379a000000000000000000000000000000000000000000000000000000000815260040162000eba9062003a07565b60405180910390fd5b7f73fe46267e05ae56a3625c045df1b74c1b1736a7535eeadef3c57551bfd005998360405162000ef491906200319d565b60405180910390a16001915050919050565b62000f10620030b8565b6001604051806020016040529081600082015481525050905090565b60006002600083815260200190815260200160002060009054906101000a900473ffffffffffffffffffffffffffffffffffffffff169050919050565b60006002600083815260200190815260200160002060009054906101000a900473ffffffffffffffffffffffffffffffffffffffff1673ffffffffffffffffffffffffffffffffffffffff1663603daf9a6040518163ffffffff1660e01b8152600401602060405180830381865afa15801562000fea573d6000803e3d6000fd5b505050506040513d601f19601f8201168201806040525081019062001010919062003a40565b9050919050565b60006002600083815260200190815260200160002060009054906101000a900473ffffffffffffffffffffffffffffffffffffffff1673ffffffffffffffffffffffffffffffffffffffff1663200d2ed26040518163ffffffff1660e01b8152600401602060405180830381865afa15801562001098573d6000803e3d6000fd5b505050506040513d601f19601f82011682018060405250810190620010be919062003a9a565b9050919050565b620010cf620022b2565b620010db600062002b11565b565b60008073ffffffffffffffffffffffffffffffffffffffff168273ffffffffffffffffffffffffffffffffffffffff160362001150576040517f08c379a0000000000000000000000000000000000000000000000000000000008152600401620011479062003b1c565b60405180910390fd5b81600460006101000a81548173ffffffffffffffffffffffffffffffffffffffff021916908373ffffffffffffffffffffffffffffffffffffffff16021790555060019050919050565b60006002600083815260200190815260200160002060009054906101000a900473ffffffffffffffffffffffffffffffffffffffff1673ffffffffffffffffffffffffffffffffffffffff16634c1786ea6040518163ffffffff1660e01b8152600401602060405180830381865afa1580156200121b573d6000803e3d6000fd5b505050506040513d601f19601f820116820180604052508101906200124191906200379b565b9050919050565b600060036000838152602001908152602001600020549050919050565b60008060009054906101000a900473ffffffffffffffffffffffffffffffffffffffff16905090565b62001298620030cb565b6002600083815260200190815260200160002060009054906101000a900473ffffffffffffffffffffffffffffffffffffffff1673ffffffffffffffffffffffffffffffffffffffff1663bd9a548b6040518163ffffffff1660e01b815260040160a060405180830381865afa15801562001317573d6000803e3d6000fd5b505050506040513d601f19601f820116820180604052508101906200133d919062003ca1565b9050919050565b60006002600083815260200190815260200160002060009054906101000a900473ffffffffffffffffffffffffffffffffffffffff1673ffffffffffffffffffffffffffffffffffffffff16638a5682996040518163ffffffff1660e01b8152600401602060405180830381865afa158015620013c5573d6000803e3d6000fd5b505050506040513d601f19601f82011682018060405250810190620013eb919062003752565b9050919050565b6000620013ff8262002bd5565b6200140a82620020b4565b507fa33fd53ba34795ffefaea3759c71f87d38b89ae12e40bc434c826fae0ca53583826040516200143c91906200319d565b60405180910390a160019050919050565b60006002600083815260200190815260200160002060009054906101000a900473ffffffffffffffffffffffffffffffffffffffff1673ffffffffffffffffffffffffffffffffffffffff1663dbd0e1b66040518163ffffffff1660e01b8152600401602060405180830381865afa158015620014ce573d6000803e3d6000fd5b505050506040513d601f19601f82011682018060405250810190620014f4919062003a40565b9050919050565b6000806200150f8989898989898962002e24565b90506200151d818a62001940565b503373ffffffffffffffffffffffffffffffffffffffff167f6c2a7340e59986dcc425dbcafd9c0ca21e5589a9bed2e4be145cb7c06e8d54dd8a83620015638562000f2c565b604051620015749392919062003cd3565b60405180910390a280915050979650505050505050565b62001595620022b2565b600073ffffffffffffffffffffffffffffffffffffffff168173ffffffffffffffffffffffffffffffffffffffff160362001607576040517f08c379a0000000000000000000000000000000000000000000000000000000008152600401620015fe9062003d86565b60405180910390fd5b620016128162002b11565b50565b600560009054906101000a900473ffffffffffffffffffffffffffffffffffffffff1681565b60008160016004811115620016555762001654620033fd565b5b620016608262001017565b6004811115620016755762001674620033fd565b5b14620016b8576040517f08c379a0000000000000000000000000000000000000000000000000000000008152600401620016af9062003e1e565b60405180910390fd5b60006002600085815260200190815260200160002060009054906101000a900473ffffffffffffffffffffffffffffffffffffffff1690508073ffffffffffffffffffffffffffffffffffffffff1663bef904e3866040518263ffffffff1660e01b81526004016200172b91906200319d565b6020604051808303816000875af11580156200174b573d6000803e3d6000fd5b505050506040513d601f19601f820116820180604052508101906200177191906200379b565b5085620017ff578073ffffffffffffffffffffffffffffffffffffffff1663a3f09ad6336040518263ffffffff1660e01b8152600401620017b391906200330c565b6020604051808303816000875af1158015620017d3573d6000803e3d6000fd5b505050506040513d601f19601f82011682018060405250810190620017f9919062003a40565b62001881565b8073ffffffffffffffffffffffffffffffffffffffff1663e99d2866336040518263ffffffff1660e01b81526004016200183a91906200330c565b6020604051808303816000875af11580156200185a573d6000803e3d6000fd5b505050506040513d601f19601f8201168201806040525081019062001880919062003a40565b5b506224ea00600360008681526020019081526020016000206000828254620018aa919062003e6f565b925050819055508073ffffffffffffffffffffffffffffffffffffffff16632e49d78b60026040518263ffffffff1660e01b8152600401620018ed91906200347d565b6020604051808303816000875af11580156200190d573d6000803e3d6000fd5b505050506040513d601f19601f8201168201806040525081019062001933919062003a9a565b5083925050509392505050565b600080821562001b44576200196a60046200195b8662000a16565b6200301f90919063ffffffff16565b905080600560009054906101000a900473ffffffffffffffffffffffffffffffffffffffff1673ffffffffffffffffffffffffffffffffffffffff1663dd62ed3e620019b68762000f69565b306040518363ffffffff1660e01b8152600401620019d692919062003892565b602060405180830381865afa158015620019f4573d6000803e3d6000fd5b505050506040513d601f19601f8201168201806040525081019062001a1a91906200379b565b1462001a5d576040517f08c379a000000000000000000000000000000000000000000000000000000000815260040162001a549062003efa565b60405180910390fd5b600560009054906101000a900473ffffffffffffffffffffffffffffffffffffffff1673ffffffffffffffffffffffffffffffffffffffff166323b872dd62001aa68662000f69565b30846040518463ffffffff1660e01b815260040162001ac89392919062003931565b6020604051808303816000875af115801562001ae8573d6000803e3d6000fd5b505050506040513d601f19601f8201168201806040525081019062001b0e919062003985565b50806006600086815260200190815260200160002060006002811062001b395762001b3862003f1c565b5b018190555062001d24565b62001b4f846200119a565b905080600560009054906101000a900473ffffffffffffffffffffffffffffffffffffffff1673ffffffffffffffffffffffffffffffffffffffff1663dd62ed3e62001b9b876200144d565b306040518363ffffffff1660e01b815260040162001bbb92919062003892565b602060405180830381865afa15801562001bd9573d6000803e3d6000fd5b505050506040513d601f19601f8201168201806040525081019062001bff91906200379b565b1462001c42576040517f08c379a000000000000000000000000000000000000000000000000000000000815260040162001c399062003efa565b60405180910390fd5b600560009054906101000a900473ffffffffffffffffffffffffffffffffffffffff1673ffffffffffffffffffffffffffffffffffffffff166323b872dd62001c8b866200144d565b30846040518463ffffffff1660e01b815260040162001cad9392919062003931565b6020604051808303816000875af115801562001ccd573d6000803e3d6000fd5b505050506040513d601f19601f8201168201806040525081019062001cf3919062003985565b50806006600086815260200190815260200160002060016002811062001d1e5762001d1d62003f1c565b5b01819055505b600191505092915050565b600080600560009054906101000a900473ffffffffffffffffffffffffffffffffffffffff1673ffffffffffffffffffffffffffffffffffffffff1663a9059cbb62001d7b856200144d565b62001d868662000a16565b6040518363ffffffff1660e01b815260040162001da592919062003f4b565b6020604051808303816000875af115801562001dc5573d6000803e3d6000fd5b505050506040513d601f19601f8201168201806040525081019062001deb919062003985565b90508062001e30576040517f08c379a000000000000000000000000000000000000000000000000000000000815260040162001e279062003fc8565b60405180910390fd5b62001e3b8362000a16565b6006600085815260200190815260200160002060006002811062001e645762001e6362003f1c565b5b01600082825462001e76919062003fea565b9250508190555062001e888362000f2c565b73ffffffffffffffffffffffffffffffffffffffff1663d2895e93600162001eb086620008d8565b62001ebc919062004025565b6040518263ffffffff1660e01b815260040162001eda919062003247565b6020604051808303816000875af115801562001efa573d6000803e3d6000fd5b505050506040513d601f19601f8201168201806040525081019062001f20919062003752565b506001915050919050565b8062001f378162000f69565b73ffffffffffffffffffffffffffffffffffffffff163373ffffffffffffffffffffffffffffffffffffffff161462001fa7576040517f08c379a000000000000000000000000000000000000000000000000000000000815260040162001f9e90620040b4565b60405180910390fd5b816002600481111562001fbf5762001fbe620033fd565b5b62001fca8262001017565b600481111562001fdf5762001fde620033fd565b5b1462002022576040517f08c379a000000000000000000000000000000000000000000000000000000000815260040162002019906200414c565b60405180910390fd5b6200202d8362000f2c565b73ffffffffffffffffffffffffffffffffffffffff16632e49d78b60046040518263ffffffff1660e01b81526004016200206891906200347d565b6020604051808303816000875af115801562002088573d6000803e3d6000fd5b505050506040513d601f19601f82011682018060405250810190620020ae919062003a9a565b50505050565b6000806040518060400160405280620020cd8562000f69565b73ffffffffffffffffffffffffffffffffffffffff1673ffffffffffffffffffffffffffffffffffffffff16815260200162002109856200144d565b73ffffffffffffffffffffffffffffffffffffffff1673ffffffffffffffffffffffffffffffffffffffff16815250905060005b600181116200229c57600060066000868152602001908152602001600020826002811062002170576200216f62003f1c565b5b015490506000811462002285576000600560009054906101000a900473ffffffffffffffffffffffffffffffffffffffff1673ffffffffffffffffffffffffffffffffffffffff1663a9059cbb858560028110620021d357620021d262003f1c565b5b6020020151846040518363ffffffff1660e01b8152600401620021f892919062003f4b565b6020604051808303816000875af115801562002218573d6000803e3d6000fd5b505050506040513d601f19601f820116820180604052508101906200223e919062003985565b90508062002283576040517f08c379a00000000000000000000000000000000000000000000000000000000081526004016200227a90620041be565b60405180910390fd5b505b5080806200229390620041e0565b9150506200213d565b50620022a88362003037565b6001915050919050565b620022bc6200308c565b73ffffffffffffffffffffffffffffffffffffffff16620022dc62001265565b73ffffffffffffffffffffffffffffffffffffffff161462002335576040517f08c379a00000000000000000000000000000000000000000000000000000000081526004016200232c906200427d565b60405180910390fd5b565b80620023438162000f69565b73ffffffffffffffffffffffffffffffffffffffff163373ffffffffffffffffffffffffffffffffffffffff1614620023b3576040517f08c379a0000000000000000000000000000000000000000000000000000000008152600401620023aa90620040b4565b60405180910390fd5b8160026004811115620023cb57620023ca620033fd565b5b620023d68262001017565b6004811115620023eb57620023ea620033fd565b5b146200242e576040517f08c379a000000000000000000000000000000000000000000000000000000000815260040162002425906200414c565b60405180910390fd5b6224ea0060036000858152602001908152602001600020600082825462002456919062003e6f565b92505081905550620024688362000f2c565b73ffffffffffffffffffffffffffffffffffffffff1663d2895e9360016200249086620008d8565b6200249c919062004025565b6040518263ffffffff1660e01b8152600401620024ba919062003247565b6020604051808303816000875af1158015620024da573d6000803e3d6000fd5b505050506040513d601f19601f8201168201806040525081019062002500919062003752565b50505050565b80620025128162000f69565b73ffffffffffffffffffffffffffffffffffffffff163373ffffffffffffffffffffffffffffffffffffffff161462002582576040517f08c379a00000000000000000000000000000000000000000000000000000000081526004016200257990620040b4565b60405180910390fd5b81600260048111156200259a5762002599620033fd565b5b620025a58262001017565b6004811115620025ba57620025b9620033fd565b5b14620025fd576040517f08c379a0000000000000000000000000000000000000000000000000000000008152600401620025f4906200414c565b60405180910390fd5b620026088362000f2c565b73ffffffffffffffffffffffffffffffffffffffff16632e49d78b60036040518263ffffffff1660e01b81526004016200264391906200347d565b6020604051808303816000875af115801562002663573d6000803e3d6000fd5b505050506040513d601f19601f8201168201806040525081019062002689919062003a9a565b50505050565b6000806200269d8362000f2c565b73ffffffffffffffffffffffffffffffffffffffff1663f26cc58e6040518163ffffffff1660e01b8152600401602060405180830381865afa158015620026e8573d6000803e3d6000fd5b505050506040513d601f19601f820116820180604052508101906200270e91906200379b565b90506000600560009054906101000a900473ffffffffffffffffffffffffffffffffffffffff1673ffffffffffffffffffffffffffffffffffffffff1663a9059cbb6200275b8662000f69565b6006600088815260200190815260200160002060006002811062002784576200278362003f1c565b5b01548562002793919062003e6f565b6040518363ffffffff1660e01b8152600401620027b292919062003f4b565b6020604051808303816000875af1158015620027d2573d6000803e3d6000fd5b505050506040513d601f19601f82011682018060405250810190620027f8919062003985565b90506000600560009054906101000a900473ffffffffffffffffffffffffffffffffffffffff1673ffffffffffffffffffffffffffffffffffffffff1663a9059cbb62002845876200144d565b85600660008a81526020019081526020016000206001600281106200286f576200286e62003f1c565b5b01546200287d919062003fea565b6040518363ffffffff1660e01b81526004016200289c92919062003f4b565b6020604051808303816000875af1158015620028bc573d6000803e3d6000fd5b505050506040513d601f19601f82011682018060405250810190620028e2919062003985565b9050818015620028ef5750805b62002931576040517f08c379a00000000000000000000000000000000000000000000000000000000081526004016200292890620042ef565b60405180910390fd5b6200293c8562003037565b829350505050919050565b80620029538162000f69565b73ffffffffffffffffffffffffffffffffffffffff163373ffffffffffffffffffffffffffffffffffffffff161480620029c2575062002993816200144d565b73ffffffffffffffffffffffffffffffffffffffff163373ffffffffffffffffffffffffffffffffffffffff16145b62002a04576040517f08c379a0000000000000000000000000000000000000000000000000000000008152600401620029fb9062004387565b60405180910390fd5b816001600481111562002a1c5762002a1b620033fd565b5b62002a278262001017565b600481111562002a3c5762002a3b620033fd565b5b1462002a7f576040517f08c379a000000000000000000000000000000000000000000000000000000000815260040162002a769062003e1e565b60405180910390fd5b62002a8a8362000f2c565b73ffffffffffffffffffffffffffffffffffffffff16632e49d78b60006040518263ffffffff1660e01b815260040162002ac591906200347d565b6020604051808303816000875af115801562002ae5573d6000803e3d6000fd5b505050506040513d601f19601f8201168201806040525081019062002b0b919062003a9a565b50505050565b60008060009054906101000a900473ffffffffffffffffffffffffffffffffffffffff169050816000806101000a81548173ffffffffffffffffffffffffffffffffffffffff021916908373ffffffffffffffffffffffffffffffffffffffff1602179055508173ffffffffffffffffffffffffffffffffffffffff168173ffffffffffffffffffffffffffffffffffffffff167f8be0079c531659141344cd1fd0a4f28419497f9722a3daafe3b4186f6b6457e060405160405180910390a35050565b8062002be1816200144d565b73ffffffffffffffffffffffffffffffffffffffff163373ffffffffffffffffffffffffffffffffffffffff161462002c51576040517f08c379a000000000000000000000000000000000000000000000000000000000815260040162002c4890620043f9565b60405180910390fd5b816002600481111562002c695762002c68620033fd565b5b62002c748262001017565b600481111562002c895762002c88620033fd565b5b1462002ccc576040517f08c379a000000000000000000000000000000000000000000000000000000000815260040162002cc3906200414c565b60405180910390fd5b600062002cd98462001248565b421015801562002cf95750600062002cf18562001344565b63ffffffff16145b9050600062002d088562001248565b421015801562002d42575060006006600087815260200190815260200160002060006002811062002d3e5762002d3d62003f1c565b5b0154145b9050808062002d4e5750815b62002d90576040517f08c379a000000000000000000000000000000000000000000000000000000000815260040162002d87906200446b565b60405180910390fd5b62002d9b8562000f2c565b73ffffffffffffffffffffffffffffffffffffffff16632e49d78b60046040518263ffffffff1660e01b815260040162002dd691906200347d565b6020604051808303816000875af115801562002df6573d6000803e3d6000fd5b505050506040513d601f19601f8201168201806040525081019062002e1c919062003a9a565b505050505050565b600062002e32600162003094565b600062002e406001620030aa565b90506000888888878988600460009054906101000a900473ffffffffffffffffffffffffffffffffffffffff1660405162002e7b90620030ed565b62002e8d97969594939291906200448d565b604051809103906000f08015801562002eaa573d6000803e3d6000fd5b509050806002600084815260200190815260200160002060006101000a81548173ffffffffffffffffffffffffffffffffffffffff021916908373ffffffffffffffffffffffffffffffffffffffff1602179055508962002f8c578073ffffffffffffffffffffffffffffffffffffffff1663e99d2866336040518263ffffffff1660e01b815260040162002f4091906200330c565b6020604051808303816000875af115801562002f60573d6000803e3d6000fd5b505050506040513d601f19601f8201168201806040525081019062002f86919062003a40565b6200300e565b8073ffffffffffffffffffffffffffffffffffffffff1663a3f09ad6336040518263ffffffff1660e01b815260040162002fc791906200330c565b6020604051808303816000875af115801562002fe7573d6000803e3d6000fd5b505050506040513d601f19601f820116820180604052508101906200300d919062003a40565b5b508192505050979650505050505050565b600081836200302f91906200450a565b905092915050565b60005b60018111620030885760006006600084815260200190815260200160002082600281106200306d576200306c62003f1c565b5b018190555080806200307f90620041e0565b9150506200303a565b5050565b600033905090565b6001816000016000828254019250508190555050565b600081600001549050919050565b6040518060200160405280600081525090565b6040518060a00160405280600590602082028036833780820191505090505090565b61147c806200456c83390190565b6000604051905090565b600080fd5b6000819050919050565b6200311f816200310a565b81146200312b57600080fd5b50565b6000813590506200313f8162003114565b92915050565b600080604083850312156200315f576200315e62003105565b5b60006200316f858286016200312e565b925050602062003182858286016200312e565b9150509250929050565b62003197816200310a565b82525050565b6000602082019050620031b460008301846200318c565b92915050565b600060208284031215620031d357620031d262003105565b5b6000620031e3848285016200312e565b91505092915050565b60008115159050919050565b6200320381620031ec565b82525050565b6000602082019050620032206000830184620031f8565b92915050565b600063ffffffff82169050919050565b620032418162003226565b82525050565b60006020820190506200325e600083018462003236565b92915050565b600073ffffffffffffffffffffffffffffffffffffffff82169050919050565b6000620032918262003264565b9050919050565b620032a38162003284565b8114620032af57600080fd5b50565b600081359050620032c38162003298565b92915050565b600060208284031215620032e257620032e162003105565b5b6000620032f284828501620032b2565b91505092915050565b620033068162003284565b82525050565b6000602082019050620033236000830184620032fb565b92915050565b62003334816200310a565b82525050565b60208201600082015162003352600085018262003329565b50505050565b60006020820190506200336f60008301846200333a565b92915050565b6000819050919050565b6000620033a06200339a620033948462003264565b62003375565b62003264565b9050919050565b6000620033b4826200337f565b9050919050565b6000620033c882620033a7565b9050919050565b620033da81620033bb565b82525050565b6000602082019050620033f76000830184620033cf565b92915050565b7f4e487b7100000000000000000000000000000000000000000000000000000000600052602160045260246000fd5b6005811062003440576200343f620033fd565b5b50565b600081905062003453826200342c565b919050565b6000620034658262003443565b9050919050565b620034778162003458565b82525050565b60006020820190506200349460008301846200346c565b92915050565b600060059050919050565b600081905092915050565b6000819050919050565b6000620034c8838362003329565b60208301905092915050565b6000602082019050919050565b620034ec816200349a565b620034f88184620034a5565b92506200350582620034b0565b8060005b838110156200353c578151620035208782620034ba565b96506200352d83620034d4565b92505060018101905062003509565b505050505050565b600060a0820190506200355b6000830184620034e1565b92915050565b6200356c81620031ec565b81146200357857600080fd5b50565b6000813590506200358c8162003561565b92915050565b6200359d8162003226565b8114620035a957600080fd5b50565b600081359050620035bd8162003592565b92915050565b600080600080600080600060e0888a031215620035e557620035e462003105565b5b6000620035f58a828b016200357b565b9750506020620036088a828b016200312e565b96505060406200361b8a828b016200312e565b95505060606200362e8a828b016200312e565b9450506080620036418a828b016200312e565b93505060a0620036548a828b016200312e565b92505060c0620036678a828b01620035ac565b91505092959891949750929550565b60006200368382620033a7565b9050919050565b620036958162003676565b82525050565b6000602082019050620036b260008301846200368a565b92915050565b600082825260208201905092915050565b7f54686520686f73742063616e206e6f742063616c6c20746865206d6574686f64600082015250565b600062003701602083620036b8565b91506200370e82620036c9565b602082019050919050565b600060208201905081810360008301526200373481620036f2565b9050919050565b6000815190506200374c8162003592565b92915050565b6000602082840312156200376b576200376a62003105565b5b60006200377b848285016200373b565b91505092915050565b600081519050620037958162003114565b92915050565b600060208284031215620037b457620037b362003105565b5b6000620037c48482850162003784565b91505092915050565b7f436c61696d20707269636520696e204344532073686f756c642062652068696760008201527f686572207468616e2063757272656e74207072696365206f6620617373657400602082015250565b60006200382b603f83620036b8565b91506200383882620037cd565b604082019050919050565b600060208201905081810360008301526200385e816200381c565b9050919050565b60006040820190506200387c60008301856200318c565b6200388b60208301846200318c565b9392505050565b6000604082019050620038a96000830185620032fb565b620038b86020830184620032fb565b9392505050565b7f4e65656420616c6c6f77616e6365000000000000000000000000000000000000600082015250565b6000620038f7600e83620036b8565b91506200390482620038bf565b602082019050919050565b600060208201905081810360008301526200392a81620038e8565b9050919050565b6000606082019050620039486000830186620032fb565b620039576020830185620032fb565b6200396660408301846200318c565b949350505050565b6000815190506200397f8162003561565b92915050565b6000602082840312156200399e576200399d62003105565b5b6000620039ae848285016200396e565b91505092915050565b7f53656e64696e67207072656d69756d206661696c656400000000000000000000600082015250565b6000620039ef601683620036b8565b9150620039fc82620039b7565b602082019050919050565b6000602082019050818103600083015262003a2281620039e0565b9050919050565b60008151905062003a3a8162003298565b92915050565b60006020828403121562003a595762003a5862003105565b5b600062003a698482850162003a29565b91505092915050565b6005811062003a8057600080fd5b50565b60008151905062003a948162003a72565b92915050565b60006020828403121562003ab35762003ab262003105565b5b600062003ac38482850162003a83565b91505092915050565b7f496e76616c696420616464726573730000000000000000000000000000000000600082015250565b600062003b04600f83620036b8565b915062003b118262003acc565b602082019050919050565b6000602082019050818103600083015262003b378162003af5565b9050919050565b600080fd5b6000601f19601f8301169050919050565b7f4e487b7100000000000000000000000000000000000000000000000000000000600052604160045260246000fd5b62003b8e8262003b43565b810181811067ffffffffffffffff8211171562003bb05762003baf62003b54565b5b80604052505050565b600062003bc5620030fb565b905062003bd3828262003b83565b919050565b600067ffffffffffffffff82111562003bf65762003bf562003b54565b5b602082029050919050565b600080fd5b600062003c1d62003c178462003bd8565b62003bb9565b9050806020840283018581111562003c3a5762003c3962003c01565b5b835b8181101562003c67578062003c52888262003784565b84526020840193505060208101905062003c3c565b5050509392505050565b600082601f83011262003c895762003c8862003b3e565b5b600562003c9884828562003c06565b91505092915050565b600060a0828403121562003cba5762003cb962003105565b5b600062003cca8482850162003c71565b91505092915050565b600060608201905062003cea6000830186620031f8565b62003cf960208301856200318c565b62003d086040830184620032fb565b949350505050565b7f4f776e61626c653a206e6577206f776e657220697320746865207a65726f206160008201527f6464726573730000000000000000000000000000000000000000000000000000602082015250565b600062003d6e602683620036b8565b915062003d7b8262003d10565b604082019050919050565b6000602082019050818103600083015262003da18162003d5f565b9050919050565b7f54686520737461747573206f6620746865204344532073686f756c642062652060008201527f70656e64696e6700000000000000000000000000000000000000000000000000602082015250565b600062003e06602783620036b8565b915062003e138262003da8565b604082019050919050565b6000602082019050818103600083015262003e398162003df7565b9050919050565b7f4e487b7100000000000000000000000000000000000000000000000000000000600052601160045260246000fd5b600062003e7c826200310a565b915062003e89836200310a565b925082820190508082111562003ea45762003ea362003e40565b5b92915050565b7f496e76616c696420616c6c6f77616e636520666f72206465706f736974000000600082015250565b600062003ee2601d83620036b8565b915062003eef8262003eaa565b602082019050919050565b6000602082019050818103600083015262003f158162003ed3565b9050919050565b7f4e487b7100000000000000000000000000000000000000000000000000000000600052603260045260246000fd5b600060408201905062003f626000830185620032fb565b62003f7160208301846200318c565b9392505050565b7f53656e64696e67206669727374207072656d69756d206661696c656400000000600082015250565b600062003fb0601c83620036b8565b915062003fbd8262003f78565b602082019050919050565b6000602082019050818103600083015262003fe38162003fa1565b9050919050565b600062003ff7826200310a565b915062004004836200310a565b92508282039050818111156200401f576200401e62003e40565b5b92915050565b6000620040328262003226565b91506200403f8362003226565b9250828203905063ffffffff8111156200405e576200405d62003e40565b5b92915050565b7f4f6e6c79206275796572206f6620746865204344532063616e2063616c6c0000600082015250565b60006200409c601e83620036b8565b9150620040a98262004064565b602082019050919050565b60006020820190508181036000830152620040cf816200408d565b9050919050565b7f54686520737461747573206f6620746865204344532073686f756c642062652060008201527f6163746976650000000000000000000000000000000000000000000000000000602082015250565b600062004134602683620036b8565b91506200414182620040d6565b604082019050919050565b60006020820190508181036000830152620041678162004125565b9050919050565b7f53656e64696e67206465706f736974206261636b206661696c65640000000000600082015250565b6000620041a6601b83620036b8565b9150620041b3826200416e565b602082019050919050565b60006020820190508181036000830152620041d98162004197565b9050919050565b6000620041ed826200310a565b91507fffffffffffffffffffffffffffffffffffffffffffffffffffffffffffffffff820362004222576200422162003e40565b5b600182019050919050565b7f4f776e61626c653a2063616c6c6572206973206e6f7420746865206f776e6572600082015250565b600062004265602083620036b8565b915062004272826200422d565b602082019050919050565b60006020820190508181036000830152620042988162004256565b9050919050565b7f53656e64696e6720726577617264206661696c65640000000000000000000000600082015250565b6000620042d7601583620036b8565b9150620042e4826200429f565b602082019050919050565b600060208201905081810360008301526200430a81620042c8565b9050919050565b7f4f6e6c792062757965722f73656c6c6572206f6620746865204344532063616e60008201527f2063616c6c000000000000000000000000000000000000000000000000000000602082015250565b60006200436f602583620036b8565b91506200437c8262004311565b604082019050919050565b60006020820190508181036000830152620043a28162004360565b9050919050565b7f4f6e6c792073656c6c6572206f6620746865204344532063616e2063616c6c00600082015250565b6000620043e1601f83620036b8565b9150620043ee82620043a9565b602082019050919050565b600060208201905081810360008301526200441481620043d2565b9050919050565b7f4275796572206465706f736974202f20526f756e64732072656d61696e696e67600082015250565b600062004453602083620036b8565b915062004460826200441b565b602082019050919050565b60006020820190508181036000830152620044868162004444565b9050919050565b600060e082019050620044a4600083018a6200318c565b620044b360208301896200318c565b620044c260408301886200318c565b620044d160608301876200318c565b620044e060808301866200318c565b620044ef60a083018562003236565b620044fe60c0830184620032fb565b98975050505050505050565b600062004517826200310a565b915062004524836200310a565b9250817fffffffffffffffffffffffffffffffffffffffffffffffffffffffffffffffff048311821515161562004560576200455f62003e40565b5b82820290509291505056fe60806040523480156200001157600080fd5b506040516200147c3803806200147c83398181016040528101906200003791906200036d565b620000576200004b620001bb60201b60201c565b620001c360201b60201c565b866002819055508560038190555084600481905550836005819055508260068190555081600860146101000a81548163ffffffff021916908363ffffffff16021790555081600860186101000a81548163ffffffff021916908363ffffffff1602179055506000600760006101000a81548173ffffffffffffffffffffffffffffffffffffffff021916908373ffffffffffffffffffffffffffffffffffffffff1602179055506000600860006101000a81548173ffffffffffffffffffffffffffffffffffffffff021916908373ffffffffffffffffffffffffffffffffffffffff16021790555060018060146101000a81548160ff0219169083600481111562000168576200016762000420565b5b021790555080600160006101000a81548173ffffffffffffffffffffffffffffffffffffffff021916908373ffffffffffffffffffffffffffffffffffffffff160217905550505050505050506200044f565b600033905090565b60008060009054906101000a900473ffffffffffffffffffffffffffffffffffffffff169050816000806101000a81548173ffffffffffffffffffffffffffffffffffffffff021916908373ffffffffffffffffffffffffffffffffffffffff1602179055508173ffffffffffffffffffffffffffffffffffffffff168173ffffffffffffffffffffffffffffffffffffffff167f8be0079c531659141344cd1fd0a4f28419497f9722a3daafe3b4186f6b6457e060405160405180910390a35050565b600080fd5b6000819050919050565b620002a1816200028c565b8114620002ad57600080fd5b50565b600081519050620002c18162000296565b92915050565b600063ffffffff82169050919050565b620002e281620002c7565b8114620002ee57600080fd5b50565b6000815190506200030281620002d7565b92915050565b600073ffffffffffffffffffffffffffffffffffffffff82169050919050565b6000620003358262000308565b9050919050565b620003478162000328565b81146200035357600080fd5b50565b60008151905062000367816200033c565b92915050565b600080600080600080600060e0888a0312156200038f576200038e62000287565b5b60006200039f8a828b01620002b0565b9750506020620003b28a828b01620002b0565b9650506040620003c58a828b01620002b0565b9550506060620003d88a828b01620002b0565b9450506080620003eb8a828b01620002b0565b93505060a0620003fe8a828b01620002f1565b92505060c0620004118a828b0162000356565b91505092959891949750929550565b7f4e487b7100000000000000000000000000000000000000000000000000000000600052602160045260246000fd5b61101d806200045f6000396000f3fe608060405234801561001057600080fd5b506004361061012c5760003560e01c8063a3f09ad6116100ad578063dbd0e1b611610071578063dbd0e1b614610327578063e0a73a9314610345578063e99d286614610363578063f26cc58e14610393578063f2fde38b146103b15761012c565b8063a3f09ad61461025b578063b6fc2d5f1461028b578063bd9a548b146102a9578063bef904e3146102c7578063d2895e93146102f75761012c565b8063715018a6116100f4578063715018a6146101d957806386be75b7146101e35780638a568299146102015780638da5cb5b1461021f578063a2e800ad1461023d5761012c565b806315d655c914610131578063200d2ed21461014f5780632e49d78b1461016d5780634c1786ea1461019d578063603daf9a146101bb575b600080fd5b6101396103cd565b6040516101469190610a0e565b60405180910390f35b6101576103d3565b6040516101649190610aa0565b60405180910390f35b61018760048036038101906101829190610ae5565b6103e6565b6040516101949190610aa0565b60405180910390f35b6101a5610431565b6040516101b29190610a0e565b60405180910390f35b6101c3610437565b6040516101d09190610b53565b60405180910390f35b6101e1610461565b005b6101eb610475565b6040516101f89190610a0e565b60405180910390f35b61020961047b565b6040516102169190610b8d565b60405180910390f35b610227610491565b6040516102349190610b53565b60405180910390f35b6102456104ba565b6040516102529190610b8d565b60405180910390f35b61027560048036038101906102709190610bd4565b6104d0565b6040516102829190610b53565b60405180910390f35b610293610545565b6040516102a09190610a0e565b60405180910390f35b6102b161054b565b6040516102be9190610cac565b60405180910390f35b6102e160048036038101906102dc9190610cf3565b610589565b6040516102ee9190610a0e565b60405180910390f35b610311600480360381019061030c9190610d4c565b61059c565b60405161031e9190610b8d565b60405180910390f35b61032f6105e1565b60405161033c9190610b53565b60405180910390f35b61034d61060b565b60405161035a9190610a0e565b60405180910390f35b61037d60048036038101906103789190610bd4565b610611565b60405161038a9190610b53565b60405180910390f35b61039b610686565b6040516103a89190610a0e565b60405180910390f35b6103cb60048036038101906103c69190610bd4565b610754565b005b60035481565b600160149054906101000a900460ff1681565b60006103f06107d7565b81600160146101000a81548160ff0219169083600481111561041557610414610a29565b5b0217905550600160149054906101000a900460ff169050919050565b60065481565b6000600760009054906101000a900473ffffffffffffffffffffffffffffffffffffffff16905090565b6104696107d7565b6104736000610855565b565b60025481565b600860189054906101000a900463ffffffff1681565b60008060009054906101000a900473ffffffffffffffffffffffffffffffffffffffff16905090565b600860149054906101000a900463ffffffff1681565b60006104da6107d7565b81600760006101000a81548173ffffffffffffffffffffffffffffffffffffffff021916908373ffffffffffffffffffffffffffffffffffffffff160217905550600760009054906101000a900473ffffffffffffffffffffffffffffffffffffffff169050919050565b60045481565b6105536109d3565b6040518060a001604052806002548152602001600354815260200160045481526020016005548152602001600654815250905090565b6000816002819055506002549050919050565b60006105a66107d7565b81600860146101000a81548163ffffffff021916908363ffffffff160217905550600860149054906101000a900463ffffffff169050919050565b6000600860009054906101000a900473ffffffffffffffffffffffffffffffffffffffff16905090565b60055481565b600061061b6107d7565b81600860006101000a81548173ffffffffffffffffffffffffffffffffffffffff021916908373ffffffffffffffffffffffffffffffffffffffff160217905550600860009054906101000a900473ffffffffffffffffffffffffffffffffffffffff169050919050565b600080600160009054906101000a900473ffffffffffffffffffffffffffffffffffffffff1673ffffffffffffffffffffffffffffffffffffffff1663a035b1fe6040518163ffffffff1660e01b8152600401602060405180830381865afa1580156106f6573d6000803e3d6000fd5b505050506040513d601f19601f8201168201806040525081019061071a9190610d8e565b9050806003541015610730576000915050610751565b61074d60045460025483600654610919909392919063ffffffff16565b9150505b90565b61075c6107d7565b600073ffffffffffffffffffffffffffffffffffffffff168173ffffffffffffffffffffffffffffffffffffffff16036107cb576040517f08c379a00000000000000000000000000000000000000000000000000000000081526004016107c290610e3e565b60405180910390fd5b6107d481610855565b50565b6107df610989565b73ffffffffffffffffffffffffffffffffffffffff166107fd610491565b73ffffffffffffffffffffffffffffffffffffffff1614610853576040517f08c379a000000000000000000000000000000000000000000000000000000000815260040161084a90610eaa565b60405180910390fd5b565b60008060009054906101000a900473ffffffffffffffffffffffffffffffffffffffff169050816000806101000a81548173ffffffffffffffffffffffffffffffffffffffff021916908373ffffffffffffffffffffffffffffffffffffffff1602179055508173ffffffffffffffffffffffffffffffffffffffff168173ffffffffffffffffffffffffffffffffffffffff167f8be0079c531659141344cd1fd0a4f28419497f9722a3daafe3b4186f6b6457e060405160405180910390a35050565b60008082851061092b5785905061097d565b6000610952610943878761099190919063ffffffff16565b886109a790919063ffffffff16565b905061097961096a858761099190919063ffffffff16565b826109bd90919063ffffffff16565b9150505b80915050949350505050565b600033905090565b6000818361099f9190610ef9565b905092915050565b600081836109b59190610f5c565b905092915050565b600081836109cb9190610f8d565b905092915050565b6040518060a00160405280600590602082028036833780820191505090505090565b6000819050919050565b610a08816109f5565b82525050565b6000602082019050610a2360008301846109ff565b92915050565b7f4e487b7100000000000000000000000000000000000000000000000000000000600052602160045260246000fd5b60058110610a6957610a68610a29565b5b50565b6000819050610a7a82610a58565b919050565b6000610a8a82610a6c565b9050919050565b610a9a81610a7f565b82525050565b6000602082019050610ab56000830184610a91565b92915050565b600080fd5b60058110610acd57600080fd5b50565b600081359050610adf81610ac0565b92915050565b600060208284031215610afb57610afa610abb565b5b6000610b0984828501610ad0565b91505092915050565b600073ffffffffffffffffffffffffffffffffffffffff82169050919050565b6000610b3d82610b12565b9050919050565b610b4d81610b32565b82525050565b6000602082019050610b686000830184610b44565b92915050565b600063ffffffff82169050919050565b610b8781610b6e565b82525050565b6000602082019050610ba26000830184610b7e565b92915050565b610bb181610b32565b8114610bbc57600080fd5b50565b600081359050610bce81610ba8565b92915050565b600060208284031215610bea57610be9610abb565b5b6000610bf884828501610bbf565b91505092915050565b600060059050919050565b600081905092915050565b6000819050919050565b610c2a816109f5565b82525050565b6000610c3c8383610c21565b60208301905092915050565b6000602082019050919050565b610c5e81610c01565b610c688184610c0c565b9250610c7382610c17565b8060005b83811015610ca4578151610c8b8782610c30565b9650610c9683610c48565b925050600181019050610c77565b505050505050565b600060a082019050610cc16000830184610c55565b92915050565b610cd0816109f5565b8114610cdb57600080fd5b50565b600081359050610ced81610cc7565b92915050565b600060208284031215610d0957610d08610abb565b5b6000610d1784828501610cde565b91505092915050565b610d2981610b6e565b8114610d3457600080fd5b50565b600081359050610d4681610d20565b92915050565b600060208284031215610d6257610d61610abb565b5b6000610d7084828501610d37565b91505092915050565b600081519050610d8881610cc7565b92915050565b600060208284031215610da457610da3610abb565b5b6000610db284828501610d79565b91505092915050565b600082825260208201905092915050565b7f4f776e61626c653a206e6577206f776e657220697320746865207a65726f206160008201527f6464726573730000000000000000000000000000000000000000000000000000602082015250565b6000610e28602683610dbb565b9150610e3382610dcc565b604082019050919050565b60006020820190508181036000830152610e5781610e1b565b9050919050565b7f4f776e61626c653a2063616c6c6572206973206e6f7420746865206f776e6572600082015250565b6000610e94602083610dbb565b9150610e9f82610e5e565b602082019050919050565b60006020820190508181036000830152610ec381610e87565b9050919050565b7f4e487b7100000000000000000000000000000000000000000000000000000000600052601160045260246000fd5b6000610f04826109f5565b9150610f0f836109f5565b9250828203905081811115610f2757610f26610eca565b5b92915050565b7f4e487b7100000000000000000000000000000000000000000000000000000000600052601260045260246000fd5b6000610f67826109f5565b9150610f72836109f5565b925082610f8257610f81610f2d565b5b828204905092915050565b6000610f98826109f5565b9150610fa3836109f5565b9250817fffffffffffffffffffffffffffffffffffffffffffffffffffffffffffffffff0483118215151615610fdc57610fdb610eca565b5b82820290509291505056fea26469706673582212206305fe52ed4b5a6f2bf75a0abc904fcaad8447652d6ad006ec285158783c89e164736f6c63430008100033a2646970667358221220633fe46049656bb839feb5a7d505639cfc88da5cc06fb4c16024afbfb549590764736f6c63430008100033",
  "immutableReferences": {},
  "source": "// SPDX-License-Identifier: MIT\npragma solidity ^0.8.7;\n\nimport './Handler/AssetHandler.sol';\nimport '@openzeppelin/contracts/token/ERC20/ERC20.sol';\nimport '@openzeppelin/contracts/utils/math/SafeMath.sol';\n\ninterface CDSInterface {\n  function create(\n    bool isBuyer,\n    uint256 initAssetPrice,\n    uint256 claimPrice,\n    uint256 liquidationPrice,\n    uint256 sellerDeposit,\n    uint256 premium,\n    uint32 totalRounds\n  ) external returns (uint256);\n\n  function accept(\n    uint256 initAssetPrice,\n    uint256 swapId\n  ) external returns (uint256);\n\n  function cancel(uint256 swapId) external returns (bool);\n\n  function close(uint256 swapId) external returns (bool);\n\n  function claim(uint256 swapId) external returns (bool);\n\n  function expire(uint256 swapId) external returns (bool);\n\n  function payPremium(uint256 swapId) external returns (bool);\n\n  event Create(\n    address indexed hostAddr,\n    bool isBuyer,\n    uint256 swapId,\n    address swap\n  );\n  event Accept(address indexed guestAddr, uint256 swapId);\n  event Cancel(uint256 swapId);\n  event Claim(uint256 swapId, uint256 claimReward);\n  event Close(uint256 swapId);\n  event Expire(uint256 swapId);\n  event PayPremium(uint256 swapId);\n}\n\ncontract CDS is AssetHandler, CDSInterface {\n  // transactions\n  function create(\n    bool isBuyer,\n    uint256 initAssetPrice,\n    uint256 claimPrice,\n    uint256 liquidationPrice,\n    uint256 sellerDeposit,\n    uint256 premium,\n    uint32 totalRounds\n  ) external override returns (uint256) {\n    uint256 newSwapId = _create(\n      isBuyer,\n      initAssetPrice,\n      claimPrice,\n      liquidationPrice,\n      sellerDeposit,\n      premium,\n      totalRounds\n    );\n    _sendDeposit(newSwapId, isBuyer);\n    emit Create(msg.sender, isBuyer, newSwapId, address(getSwap(newSwapId)));\n    return newSwapId;\n  }\n\n  function accept(\n    uint256 initAssetPrice,\n    uint256 swapId\n  ) external override returns (uint256) {\n    require(\n      msg.sender != getBuyer(swapId) && msg.sender != getSeller(swapId),\n      'The host can not call the method'\n    );\n\n    bool isSeller = (getSeller(swapId) == address(0));\n    uint256 acceptedSwapId = _accept(isSeller, initAssetPrice, swapId);\n    _sendDeposit(swapId, !isSeller);\n    _sendFirstPremium(swapId);\n    emit Accept(msg.sender, acceptedSwapId);\n    return acceptedSwapId;\n  }\n\n  function cancel(uint256 swapId) external override returns (bool) {\n    _cancel(swapId);\n    _endSwap(swapId);\n    emit Cancel(swapId);\n    return true;\n  }\n\n  function close(uint256 swapId) external override returns (bool) {\n    _close(swapId);\n    _endSwap(swapId);\n    emit Close(swapId);\n    return true;\n  }\n\n  function claim(uint256 swapId) external override returns (bool) {\n    require(\n      getSwap(swapId).getClaimReward() != 0,\n      'Claim price in CDS should be higher than current price of asset'\n    );\n    _claim(swapId);\n    uint256 claimReward = _afterClaim(swapId);\n    emit Claim(swapId, claimReward);\n    return true;\n  }\n\n  // total Rounds  seller  =>  deposit .    claimable ?\n  // buyer Deposit = 0 , nextPayDate    seller  =>  deposit \n  function expire(uint256 swapId) external override returns (bool) {\n    _expire(swapId);\n    _endSwap(swapId);\n    emit Expire(swapId);\n    return true;\n  }\n\n  function payPremium(uint256 swapId) external override returns (bool) {\n    require(\n      token.allowance(getBuyer(swapId), address(this)) == getPremium(swapId),\n      'Need allowance'\n    );\n    _payPremium(swapId);\n    bool sent = token.transferFrom(\n      getBuyer(swapId),\n      getSeller(swapId),\n      getPremium(swapId)\n    );\n    require(sent, 'Sending premium failed');\n    emit PayPremium(swapId);\n    return true;\n  }\n\n  // called by server? seller?\n  function payPremiumByDeposit(\n    uint256 swapId\n  ) external onlyOwner returns (bool) {\n    _payPremium(swapId);\n    return true;\n  }\n}\n",
  "sourcePath": "/Users/sdh/Study/BEB_07/projects/CDS/contract/contracts/CDS.sol",
  "compiler": {
    "name": "solc",
    "version": "0.8.16+commit.07a7930e.Emscripten.clang"
  },
  "schemaVersion": "3.4.9",
  "updatedAt": "2023-02-08T12:35:28.669Z",
  "devdoc": {
    "kind": "dev",
    "methods": {
      "owner()": {
        "details": "Returns the address of the current owner."
      },
      "renounceOwnership()": {
        "details": "Leaves the contract without owner. It will not be possible to call `onlyOwner` functions anymore. Can only be called by the current owner. NOTE: Renouncing ownership will leave the contract without an owner, thereby removing any functionality that is only available to the owner."
      },
      "transferOwnership(address)": {
        "details": "Transfers ownership of the contract to a new account (`newOwner`). Can only be called by the current owner."
      }
    },
    "version": 1
  },
  "userdoc": {
    "kind": "user",
    "methods": {},
    "version": 1
  }
}