{
  "contractName": "CDS",
  "abi": [
    {
      "inputs": [],
      "stateMutability": "payable",
      "type": "constructor",
      "payable": true
    },
    {
      "anonymous": false,
      "inputs": [
        {
          "indexed": true,
          "internalType": "address",
          "name": "seller",
          "type": "address"
        },
        {
          "indexed": false,
          "internalType": "uint256",
          "name": "swapId",
          "type": "uint256"
        },
        {
          "indexed": false,
          "internalType": "uint256",
          "name": "sellerDeposit",
          "type": "uint256"
        }
      ],
      "name": "AcceptSwap",
      "type": "event"
    },
    {
      "anonymous": false,
      "inputs": [
        {
          "indexed": false,
          "internalType": "uint256",
          "name": "swapId",
          "type": "uint256"
        }
      ],
      "name": "Close",
      "type": "event"
    },
    {
      "anonymous": false,
      "inputs": [
        {
          "indexed": true,
          "internalType": "address",
          "name": "buyer",
          "type": "address"
        },
        {
          "indexed": false,
          "internalType": "uint256",
          "name": "swapId",
          "type": "uint256"
        },
        {
          "indexed": false,
          "internalType": "uint256",
          "name": "initAssetPrice",
          "type": "uint256"
        },
        {
          "indexed": false,
          "internalType": "uint256",
          "name": "claimPrice",
          "type": "uint256"
        },
        {
          "indexed": false,
          "internalType": "uint256",
          "name": "liquidationPrice",
          "type": "uint256"
        },
        {
          "indexed": false,
          "internalType": "uint256",
          "name": "premium",
          "type": "uint256"
        },
        {
          "indexed": false,
          "internalType": "uint256",
          "name": "premiumInterval",
          "type": "uint256"
        },
        {
          "indexed": false,
          "internalType": "uint256",
          "name": "totalPremiumRounds",
          "type": "uint256"
        },
        {
          "indexed": false,
          "internalType": "uint256",
          "name": "buyerDeposit",
          "type": "uint256"
        }
      ],
      "name": "CreateSwap",
      "type": "event"
    },
    {
      "anonymous": false,
      "inputs": [
        {
          "indexed": true,
          "internalType": "address",
          "name": "previousOwner",
          "type": "address"
        },
        {
          "indexed": true,
          "internalType": "address",
          "name": "newOwner",
          "type": "address"
        }
      ],
      "name": "OwnershipTransferred",
      "type": "event"
    },
    {
      "inputs": [],
      "name": "getPriceFromOracle",
      "outputs": [
        {
          "internalType": "uint256",
          "name": "",
          "type": "uint256"
        }
      ],
      "stateMutability": "view",
      "type": "function",
      "constant": true
    },
    {
      "inputs": [],
      "name": "owner",
      "outputs": [
        {
          "internalType": "address",
          "name": "",
          "type": "address"
        }
      ],
      "stateMutability": "view",
      "type": "function",
      "constant": true
    },
    {
      "inputs": [],
      "name": "renounceOwnership",
      "outputs": [],
      "stateMutability": "nonpayable",
      "type": "function"
    },
    {
      "inputs": [
        {
          "internalType": "address",
          "name": "_priceOracleAddress",
          "type": "address"
        }
      ],
      "name": "setOracle",
      "outputs": [
        {
          "internalType": "bool",
          "name": "",
          "type": "bool"
        }
      ],
      "stateMutability": "nonpayable",
      "type": "function"
    },
    {
      "inputs": [
        {
          "internalType": "address",
          "name": "newOwner",
          "type": "address"
        }
      ],
      "name": "transferOwnership",
      "outputs": [],
      "stateMutability": "nonpayable",
      "type": "function"
    },
    {
      "stateMutability": "payable",
      "type": "receive",
      "payable": true
    },
    {
      "inputs": [
        {
          "internalType": "address",
          "name": "addr",
          "type": "address"
        },
        {
          "internalType": "uint256",
          "name": "initAssetPrice",
          "type": "uint256"
        },
        {
          "internalType": "uint256",
          "name": "claimPrice",
          "type": "uint256"
        },
        {
          "internalType": "uint256",
          "name": "liquidationPrice",
          "type": "uint256"
        },
        {
          "internalType": "uint256",
          "name": "sellerDeposit",
          "type": "uint256"
        },
        {
          "internalType": "uint256",
          "name": "premium",
          "type": "uint256"
        },
        {
          "internalType": "uint256",
          "name": "premiumInterval",
          "type": "uint256"
        },
        {
          "internalType": "uint256",
          "name": "totalPremiumRounds",
          "type": "uint256"
        }
      ],
      "name": "createSwap",
      "outputs": [
        {
          "internalType": "uint256",
          "name": "",
          "type": "uint256"
        }
      ],
      "stateMutability": "payable",
      "type": "function",
      "payable": true
    },
    {
      "inputs": [
        {
          "internalType": "address",
          "name": "addr",
          "type": "address"
        },
        {
          "internalType": "uint256",
          "name": "initAssetPrice",
          "type": "uint256"
        },
        {
          "internalType": "uint256",
          "name": "swapId",
          "type": "uint256"
        }
      ],
      "name": "acceptSwap",
      "outputs": [
        {
          "internalType": "uint256",
          "name": "",
          "type": "uint256"
        }
      ],
      "stateMutability": "payable",
      "type": "function",
      "payable": true
    },
    {
      "inputs": [
        {
          "internalType": "uint256",
          "name": "swapId",
          "type": "uint256"
        }
      ],
      "name": "cancelSwap",
      "outputs": [
        {
          "internalType": "bool",
          "name": "",
          "type": "bool"
        }
      ],
      "stateMutability": "nonpayable",
      "type": "function"
    },
    {
      "inputs": [
        {
          "internalType": "uint256",
          "name": "swapId",
          "type": "uint256"
        }
      ],
      "name": "getSwap",
      "outputs": [
        {
          "components": [
            {
              "components": [
                {
                  "internalType": "address",
                  "name": "addr",
                  "type": "address"
                },
                {
                  "internalType": "uint256",
                  "name": "deposit",
                  "type": "uint256"
                },
                {
                  "internalType": "uint256",
                  "name": "lastPayDate",
                  "type": "uint256"
                },
                {
                  "internalType": "uint256",
                  "name": "nextPayDate",
                  "type": "uint256"
                }
              ],
              "internalType": "struct Swaps.Buyer",
              "name": "buyer",
              "type": "tuple"
            },
            {
              "components": [
                {
                  "internalType": "address",
                  "name": "addr",
                  "type": "address"
                },
                {
                  "internalType": "uint256",
                  "name": "deposit",
                  "type": "uint256"
                },
                {
                  "internalType": "bool",
                  "name": "isDeposited",
                  "type": "bool"
                }
              ],
              "internalType": "struct Swaps.Seller",
              "name": "seller",
              "type": "tuple"
            },
            {
              "internalType": "uint256",
              "name": "initAssetPrice",
              "type": "uint256"
            },
            {
              "internalType": "uint256",
              "name": "claimPrice",
              "type": "uint256"
            },
            {
              "internalType": "uint256",
              "name": "liquidationPrice",
              "type": "uint256"
            },
            {
              "internalType": "uint256",
              "name": "premium",
              "type": "uint256"
            },
            {
              "internalType": "uint256",
              "name": "premiumInterval",
              "type": "uint256"
            },
            {
              "internalType": "uint256",
              "name": "totalPremiumRounds",
              "type": "uint256"
            },
            {
              "internalType": "enum Swaps.Status",
              "name": "status",
              "type": "uint8"
            }
          ],
          "internalType": "struct Swaps.Swap",
          "name": "",
          "type": "tuple"
        }
      ],
      "stateMutability": "view",
      "type": "function",
      "constant": true
    },
    {
      "inputs": [
        {
          "internalType": "uint256",
          "name": "swapId",
          "type": "uint256"
        }
      ],
      "name": "getBuyer",
      "outputs": [
        {
          "components": [
            {
              "internalType": "address",
              "name": "addr",
              "type": "address"
            },
            {
              "internalType": "uint256",
              "name": "deposit",
              "type": "uint256"
            },
            {
              "internalType": "uint256",
              "name": "lastPayDate",
              "type": "uint256"
            },
            {
              "internalType": "uint256",
              "name": "nextPayDate",
              "type": "uint256"
            }
          ],
          "internalType": "struct Swaps.Buyer",
          "name": "",
          "type": "tuple"
        }
      ],
      "stateMutability": "view",
      "type": "function",
      "constant": true
    },
    {
      "inputs": [
        {
          "internalType": "uint256",
          "name": "swapId",
          "type": "uint256"
        }
      ],
      "name": "getSeller",
      "outputs": [
        {
          "components": [
            {
              "internalType": "address",
              "name": "addr",
              "type": "address"
            },
            {
              "internalType": "uint256",
              "name": "deposit",
              "type": "uint256"
            },
            {
              "internalType": "bool",
              "name": "isDeposited",
              "type": "bool"
            }
          ],
          "internalType": "struct Swaps.Seller",
          "name": "",
          "type": "tuple"
        }
      ],
      "stateMutability": "view",
      "type": "function",
      "constant": true
    },
    {
      "inputs": [],
      "name": "getSwapId",
      "outputs": [
        {
          "components": [
            {
              "internalType": "uint256",
              "name": "_value",
              "type": "uint256"
            }
          ],
          "internalType": "struct Counters.Counter",
          "name": "",
          "type": "tuple"
        }
      ],
      "stateMutability": "view",
      "type": "function",
      "constant": true
    },
    {
      "inputs": [],
      "name": "getContractBalance",
      "outputs": [
        {
          "internalType": "uint256",
          "name": "",
          "type": "uint256"
        }
      ],
      "stateMutability": "view",
      "type": "function",
      "constant": true
    }
  ],
  "bytecode": "0x608060405261002061001561002560201b60201c565b61002d60201b60201c565b6100f3565b600033905090565b6000600360009054906101000a900473ffffffffffffffffffffffffffffffffffffffff16905081600360006101000a81548173ffffffffffffffffffffffffffffffffffffffff021916908373ffffffffffffffffffffffffffffffffffffffff1602179055508173ffffffffffffffffffffffffffffffffffffffff168173ffffffffffffffffffffffffffffffffffffffff167f8be0079c531659141344cd1fd0a4f28419497f9722a3daafe3b4186f6b6457e060405160405180910390a35050565b611fc0806101026000396000f3fe6080604052600436106100c65760003560e01c8063715018a61161007f5780638d4e7f8d116100595780638d4e7f8d1461028e5780638da5cb5b146102be578063d6a9de51146102e9578063f2fde38b14610326576100cd565b8063715018a61461020a5780637adbf973146102215780637e0cb81a1461025e576100cd565b806338f5a491146100d2578063496ab39a146100fd5780634a0d89ba1461012857806354d6a2b7146101655780635bf608b8146101a25780636f9fb98a146101df576100cd565b366100cd57005b600080fd5b3480156100de57600080fd5b506100e761034f565b6040516100f49190611483565b60405180910390f35b34801561010957600080fd5b506101126103ea565b60405161011f91906114c9565b60405180910390f35b34801561013457600080fd5b5061014f600480360381019061014a9190611515565b61040e565b60405161015c9190611768565b60405180910390f35b34801561017157600080fd5b5061018c60048036038101906101879190611515565b6105ca565b6040516101999190611793565b60405180910390f35b3480156101ae57600080fd5b506101c960048036038101906101c49190611515565b6108ba565b6040516101d69190611803565b60405180910390f35b3480156101eb57600080fd5b506101f461095e565b6040516102019190611483565b60405180910390f35b34801561021657600080fd5b5061021f610966565b005b34801561022d57600080fd5b506102486004803603810190610243919061184a565b61097a565b6040516102559190611793565b60405180910390f35b61027860048036038101906102739190611877565b610a33565b6040516102859190611483565b60405180910390f35b6102a860048036038101906102a3919061192d565b610bd8565b6040516102b59190611483565b60405180910390f35b3480156102ca57600080fd5b506102d3610d6d565b6040516102e0919061198f565b60405180910390f35b3480156102f557600080fd5b50610310600480360381019061030b9190611515565b610d97565b60405161031d91906119ec565b60405180910390f35b34801561033257600080fd5b5061034d6004803603810190610348919061184a565b610e42565b005b60008060008054906101000a900473ffffffffffffffffffffffffffffffffffffffff1673ffffffffffffffffffffffffffffffffffffffff166398d5fdca6040518163ffffffff1660e01b8152600401602060405180830381865afa1580156103bd573d6000803e3d6000fd5b505050506040513d601f19601f820116820180604052508101906103e19190611a1c565b90508091505090565b6103f2611376565b6001604051806020016040529081600082015481525050905090565b610416611389565b6002600083815260200190815260200160002060405180610120016040529081600082016040518060800160405290816000820160009054906101000a900473ffffffffffffffffffffffffffffffffffffffff1673ffffffffffffffffffffffffffffffffffffffff1673ffffffffffffffffffffffffffffffffffffffff16815260200160018201548152602001600282015481526020016003820154815250508152602001600482016040518060600160405290816000820160009054906101000a900473ffffffffffffffffffffffffffffffffffffffff1673ffffffffffffffffffffffffffffffffffffffff1673ffffffffffffffffffffffffffffffffffffffff168152602001600182015481526020016002820160009054906101000a900460ff1615151515815250508152602001600782015481526020016008820154815260200160098201548152602001600a8201548152602001600b8201548152602001600c8201548152602001600d820160009054906101000a900460ff1660038111156105ad576105ac611635565b5b60038111156105bf576105be611635565b5b815250509050919050565b60006105d4610d6d565b73ffffffffffffffffffffffffffffffffffffffff163373ffffffffffffffffffffffffffffffffffffffff1603610641576040517f08c379a000000000000000000000000000000000000000000000000000000000815260040161063890611aa6565b60405180910390fd5b61064a82610ec5565b5060006002600084815260200190815260200160002060405180610120016040529081600082016040518060800160405290816000820160009054906101000a900473ffffffffffffffffffffffffffffffffffffffff1673ffffffffffffffffffffffffffffffffffffffff1673ffffffffffffffffffffffffffffffffffffffff16815260200160018201548152602001600282015481526020016003820154815250508152602001600482016040518060600160405290816000820160009054906101000a900473ffffffffffffffffffffffffffffffffffffffff1673ffffffffffffffffffffffffffffffffffffffff1673ffffffffffffffffffffffffffffffffffffffff168152602001600182015481526020016002820160009054906101000a900460ff1615151515815250508152602001600782015481526020016008820154815260200160098201548152602001600a8201548152602001600b8201548152602001600c8201548152602001600d820160009054906101000a900460ff1660038111156107e4576107e3611635565b5b60038111156107f6576107f5611635565b5b81525050905060003373ffffffffffffffffffffffffffffffffffffffff1682600001516020015160405161082a90611af7565b60006040518083038185875af1925050503d8060008114610867576040519150601f19603f3d011682016040523d82523d6000602084013e61086c565b606091505b50509050806108b0576040517f08c379a00000000000000000000000000000000000000000000000000000000081526004016108a790611b58565b60405180910390fd5b8092505050919050565b6108c26113f3565b600260008381526020019081526020016000206000016040518060800160405290816000820160009054906101000a900473ffffffffffffffffffffffffffffffffffffffff1673ffffffffffffffffffffffffffffffffffffffff1673ffffffffffffffffffffffffffffffffffffffff16815260200160018201548152602001600282015481526020016003820154815250509050919050565b600047905090565b61096e610fa9565b6109786000611027565b565b60008073ffffffffffffffffffffffffffffffffffffffff168273ffffffffffffffffffffffffffffffffffffffff16036109ea576040517f08c379a00000000000000000000000000000000000000000000000000000000081526004016109e190611bc4565b60405180910390fd5b816000806101000a81548173ffffffffffffffffffffffffffffffffffffffff021916908373ffffffffffffffffffffffffffffffffffffffff16021790555060019050919050565b6000610a3d610d6d565b73ffffffffffffffffffffffffffffffffffffffff163373ffffffffffffffffffffffffffffffffffffffff1603610aaa576040517f08c379a0000000000000000000000000000000000000000000000000000000008152600401610aa190611aa6565b60405180910390fd5b60006001610ac26003876110ed90919063ffffffff16565b610acc9190611c13565b9050348114610b10576040517f08c379a0000000000000000000000000000000000000000000000000000000008152600401610b0790611cb9565b60405180910390fd5b3073ffffffffffffffffffffffffffffffffffffffff166108fc349081150290604051600060405180830381858888f19350505050158015610b56573d6000803e3d6000fd5b506000610b698b8b8b8b8b8b8b8b611103565b90508a73ffffffffffffffffffffffffffffffffffffffff167f40ab55e8ea5ecbffe5ac3a98b066ca0181d54a3467b72091ae09313e68277bdc828c8c8c8b8b8b8a604051610bbf989796959493929190611cd9565b60405180910390a2809250505098975050505050505050565b6000610be2610d6d565b73ffffffffffffffffffffffffffffffffffffffff163373ffffffffffffffffffffffffffffffffffffffff1603610c4f576040517f08c379a0000000000000000000000000000000000000000000000000000000008152600401610c4690611aa6565b60405180910390fd5b600060016002600085815260200190815260200160002060040160010154610c779190611c13565b9050348114610cbb576040517f08c379a0000000000000000000000000000000000000000000000000000000008152600401610cb290611cb9565b60405180910390fd5b3073ffffffffffffffffffffffffffffffffffffffff166108fc349081150290604051600060405180830381858888f19350505050158015610d01573d6000803e3d6000fd5b506000610d0f8686866111ec565b90508573ffffffffffffffffffffffffffffffffffffffff167fbf5d5a04310e5165179d0106e6b639639a6a9b1c293019f5ba0a10f6eb11cb8e8584604051610d59929190611d57565b60405180910390a280925050509392505050565b6000600360009054906101000a900473ffffffffffffffffffffffffffffffffffffffff16905090565b610d9f611431565b600260008381526020019081526020016000206004016040518060600160405290816000820160009054906101000a900473ffffffffffffffffffffffffffffffffffffffff1673ffffffffffffffffffffffffffffffffffffffff1673ffffffffffffffffffffffffffffffffffffffff168152602001600182015481526020016002820160009054906101000a900460ff1615151515815250509050919050565b610e4a610fa9565b600073ffffffffffffffffffffffffffffffffffffffff168173ffffffffffffffffffffffffffffffffffffffff1603610eb9576040517f08c379a0000000000000000000000000000000000000000000000000000000008152600401610eb090611df2565b60405180910390fd5b610ec281611027565b50565b6000806002600084815260200190815260200160002090508060000160000160009054906101000a900473ffffffffffffffffffffffffffffffffffffffff1673ffffffffffffffffffffffffffffffffffffffff163373ffffffffffffffffffffffffffffffffffffffff1614610f72576040517f08c379a0000000000000000000000000000000000000000000000000000000008152600401610f6990611e5e565b60405180910390fd5b600281600d0160006101000a81548160ff02191690836003811115610f9a57610f99611635565b5b02179055506001915050919050565b610fb161134a565b73ffffffffffffffffffffffffffffffffffffffff16610fcf610d6d565b73ffffffffffffffffffffffffffffffffffffffff1614611025576040517f08c379a000000000000000000000000000000000000000000000000000000000815260040161101c90611eca565b60405180910390fd5b565b6000600360009054906101000a900473ffffffffffffffffffffffffffffffffffffffff16905081600360006101000a81548173ffffffffffffffffffffffffffffffffffffffff021916908373ffffffffffffffffffffffffffffffffffffffff1602179055508173ffffffffffffffffffffffffffffffffffffffff168173ffffffffffffffffffffffffffffffffffffffff167f8be0079c531659141344cd1fd0a4f28419497f9722a3daafe3b4186f6b6457e060405160405180910390a35050565b600081836110fb9190611c13565b905092915050565b600061110f6001611352565b600061111b6001611368565b905060006002600083815260200190815260200160002090508a8160000160000160006101000a81548173ffffffffffffffffffffffffffffffffffffffff021916908373ffffffffffffffffffffffffffffffffffffffff16021790555061118e6003876110ed90919063ffffffff16565b81600001600101819055508981600701819055508881600801819055508781600901819055508581600a01819055508481600b01819055508381600c0181905550868160040160010181905550819250505098975050505050505050565b6000806002600084815260200190815260200160002090506000600381111561121857611217611635565b5b81600d0160009054906101000a900460ff16600381111561123c5761123b611635565b5b1461127c576040517f08c379a000000000000000000000000000000000000000000000000000000000815260040161127390611f36565b60405180910390fd5b848160040160000160006101000a81548173ffffffffffffffffffffffffffffffffffffffff021916908373ffffffffffffffffffffffffffffffffffffffff16021790555083816007018190555060018160040160020160006101000a81548160ff02191690831515021790555042816000016002018190555080600b0154426113079190611f56565b8160000160030181905550600181600d0160006101000a81548160ff0219169083600381111561133a57611339611635565b5b0217905550829150509392505050565b600033905090565b6001816000016000828254019250508190555050565b600081600001549050919050565b6040518060200160405280600081525090565b60405180610120016040528061139d6113f3565b81526020016113aa611431565b8152602001600081526020016000815260200160008152602001600081526020016000815260200160008152602001600060038111156113ed576113ec611635565b5b81525090565b6040518060800160405280600073ffffffffffffffffffffffffffffffffffffffff1681526020016000815260200160008152602001600081525090565b6040518060600160405280600073ffffffffffffffffffffffffffffffffffffffff168152602001600081526020016000151581525090565b6000819050919050565b61147d8161146a565b82525050565b60006020820190506114986000830184611474565b92915050565b6114a78161146a565b82525050565b6020820160008201516114c3600085018261149e565b50505050565b60006020820190506114de60008301846114ad565b92915050565b600080fd5b6114f28161146a565b81146114fd57600080fd5b50565b60008135905061150f816114e9565b92915050565b60006020828403121561152b5761152a6114e4565b5b600061153984828501611500565b91505092915050565b600073ffffffffffffffffffffffffffffffffffffffff82169050919050565b600061156d82611542565b9050919050565b61157d81611562565b82525050565b6080820160008201516115996000850182611574565b5060208201516115ac602085018261149e565b5060408201516115bf604085018261149e565b5060608201516115d2606085018261149e565b50505050565b60008115159050919050565b6115ed816115d8565b82525050565b6060820160008201516116096000850182611574565b50602082015161161c602085018261149e565b50604082015161162f60408501826115e4565b50505050565b7f4e487b7100000000000000000000000000000000000000000000000000000000600052602160045260246000fd5b6004811061167557611674611635565b5b50565b600081905061168682611664565b919050565b600061169682611678565b9050919050565b6116a68161168b565b82525050565b6101c0820160008201516116c36000850182611583565b5060208201516116d660808501826115f3565b5060408201516116e960e085018261149e565b5060608201516116fd61010085018261149e565b50608082015161171161012085018261149e565b5060a082015161172561014085018261149e565b5060c082015161173961016085018261149e565b5060e082015161174d61018085018261149e565b506101008201516117626101a085018261169d565b50505050565b60006101c08201905061177e60008301846116ac565b92915050565b61178d816115d8565b82525050565b60006020820190506117a86000830184611784565b92915050565b6080820160008201516117c46000850182611574565b5060208201516117d7602085018261149e565b5060408201516117ea604085018261149e565b5060608201516117fd606085018261149e565b50505050565b600060808201905061181860008301846117ae565b92915050565b61182781611562565b811461183257600080fd5b50565b6000813590506118448161181e565b92915050565b6000602082840312156118605761185f6114e4565b5b600061186e84828501611835565b91505092915050565b600080600080600080600080610100898b031215611898576118976114e4565b5b60006118a68b828c01611835565b98505060206118b78b828c01611500565b97505060406118c88b828c01611500565b96505060606118d98b828c01611500565b95505060806118ea8b828c01611500565b94505060a06118fb8b828c01611500565b93505060c061190c8b828c01611500565b92505060e061191d8b828c01611500565b9150509295985092959890939650565b600080600060608486031215611946576119456114e4565b5b600061195486828701611835565b935050602061196586828701611500565b925050604061197686828701611500565b9150509250925092565b61198981611562565b82525050565b60006020820190506119a46000830184611980565b92915050565b6060820160008201516119c06000850182611574565b5060208201516119d3602085018261149e565b5060408201516119e660408501826115e4565b50505050565b6000606082019050611a0160008301846119aa565b92915050565b600081519050611a16816114e9565b92915050565b600060208284031215611a3257611a316114e4565b5b6000611a4084828501611a07565b91505092915050565b600082825260208201905092915050565b7f4f776e65722063616e206e6f742063616c6c20746865206d6574686f64000000600082015250565b6000611a90601d83611a49565b9150611a9b82611a5a565b602082019050919050565b60006020820190508181036000830152611abf81611a83565b9050919050565b600081905092915050565b50565b6000611ae1600083611ac6565b9150611aec82611ad1565b600082019050919050565b6000611b0282611ad4565b9150819050919050565b7f53656e64696e67206661696c6564000000000000000000000000000000000000600082015250565b6000611b42600e83611a49565b9150611b4d82611b0c565b602082019050919050565b60006020820190508181036000830152611b7181611b35565b9050919050565b7f496e76616c696420616464726573730000000000000000000000000000000000600082015250565b6000611bae600f83611a49565b9150611bb982611b78565b602082019050919050565b60006020820190508181036000830152611bdd81611ba1565b9050919050565b7f4e487b7100000000000000000000000000000000000000000000000000000000600052601160045260246000fd5b6000611c1e8261146a565b9150611c298361146a565b9250817fffffffffffffffffffffffffffffffffffffffffffffffffffffffffffffffff0483118215151615611c6257611c61611be4565b5b828202905092915050565b7f496e76616c69642065746820616d6f756e740000000000000000000000000000600082015250565b6000611ca3601283611a49565b9150611cae82611c6d565b602082019050919050565b60006020820190508181036000830152611cd281611c96565b9050919050565b600061010082019050611cef600083018b611474565b611cfc602083018a611474565b611d096040830189611474565b611d166060830188611474565b611d236080830187611474565b611d3060a0830186611474565b611d3d60c0830185611474565b611d4a60e0830184611474565b9998505050505050505050565b6000604082019050611d6c6000830185611474565b611d796020830184611474565b9392505050565b7f4f776e61626c653a206e6577206f776e657220697320746865207a65726f206160008201527f6464726573730000000000000000000000000000000000000000000000000000602082015250565b6000611ddc602683611a49565b9150611de782611d80565b604082019050919050565b60006020820190508181036000830152611e0b81611dcf565b9050919050565b7f4f6e6c79206275796572206f6620746865204344532063616e2063616e63656c600082015250565b6000611e48602083611a49565b9150611e5382611e12565b602082019050919050565b60006020820190508181036000830152611e7781611e3b565b9050919050565b7f4f776e61626c653a2063616c6c6572206973206e6f7420746865206f776e6572600082015250565b6000611eb4602083611a49565b9150611ebf82611e7e565b602082019050919050565b60006020820190508181036000830152611ee381611ea7565b9050919050565b7f54686520434453206973206e6f742070656e64696e6720737461746500000000600082015250565b6000611f20601c83611a49565b9150611f2b82611eea565b602082019050919050565b60006020820190508181036000830152611f4f81611f13565b9050919050565b6000611f618261146a565b9150611f6c8361146a565b9250828201905080821115611f8457611f83611be4565b5b9291505056fea26469706673582212205d2b64430919dbaa631c098760a36cf7e4410333a991b376e98d5542ed91503664736f6c63430008100033",
  "immutableReferences": {},
  "source": "// SPDX-License-Identifier: MIT\npragma solidity ^0.8.7;\n\nimport './Swaps/Swaps.sol';\nimport '@openzeppelin/contracts/access/Ownable.sol';\nimport '@openzeppelin/contracts/utils/math/SafeMath.sol';\n\ncontract CDS is Swaps, Ownable {\n  using SafeMath for uint256;\n\n  constructor() payable {}\n\n  receive() external payable {}\n\n  modifier isNotOwner() {\n    require(msg.sender != owner(), 'Owner can not call the method');\n    _;\n  }\n\n  event CreateSwap(\n    address indexed buyer,\n    uint256 swapId,\n    uint256 initAssetPrice,\n    uint256 claimPrice,\n    uint256 liquidationPrice,\n    uint256 premium,\n    uint256 premiumInterval,\n    uint256 totalPremiumRounds,\n    uint256 buyerDeposit\n  );\n  event AcceptSwap(\n    address indexed seller,\n    uint256 swapId,\n    uint256 sellerDeposit\n  );\n  event Close(uint256 swapId);\n\n  function createSwap(\n    address addr,\n    uint256 initAssetPrice,\n    uint256 claimPrice,\n    uint256 liquidationPrice,\n    uint256 sellerDeposit,\n    uint256 premium,\n    uint256 premiumInterval,\n    uint256 totalPremiumRounds\n  ) public payable isNotOwner returns (uint256) {\n    uint256 buyerDeposit = premium.mul(3) * 1 wei;\n    require(buyerDeposit == msg.value, 'Invalid eth amount');\n    payable(address(this)).transfer(msg.value);\n\n    uint256 newSwapId = _createSwap(\n      addr,\n      initAssetPrice,\n      claimPrice,\n      liquidationPrice,\n      sellerDeposit,\n      premium,\n      premiumInterval,\n      totalPremiumRounds\n    );\n\n    emit CreateSwap(\n      addr,\n      newSwapId,\n      initAssetPrice,\n      claimPrice,\n      liquidationPrice,\n      premium,\n      premiumInterval,\n      totalPremiumRounds,\n      buyerDeposit\n    );\n\n    return newSwapId;\n  }\n\n  function acceptSwap(\n    address addr,\n    uint256 initAssetPrice,\n    uint256 swapId\n  ) public payable isNotOwner returns (uint256) {\n    uint256 sellerDeposit = _swaps[swapId].seller.deposit * 1 wei;\n    require(sellerDeposit == msg.value, 'Invalid eth amount');\n    payable(address(this)).transfer(msg.value);\n\n    uint256 acceptedSwapId = _acceptSwap(addr, initAssetPrice, swapId);\n    emit AcceptSwap(addr, swapId, sellerDeposit);\n    return acceptedSwapId;\n  }\n\n  function cancelSwap(uint256 swapId) public isNotOwner returns (bool) {\n    _cancelSwap(swapId);\n    Swap memory targetSwap = _swaps[swapId];\n    (bool sent, ) = msg.sender.call{value: targetSwap.buyer.deposit}('');\n    require(sent, 'Sending failed');\n    return sent;\n  }\n\n  function getSwap(uint256 swapId) public view returns (Swap memory) {\n    return _swaps[swapId];\n  }\n\n  function getBuyer(uint256 swapId) public view returns (Buyer memory) {\n    return _swaps[swapId].buyer;\n  }\n\n  function getSeller(uint256 swapId) public view returns (Seller memory) {\n    return _swaps[swapId].seller;\n  }\n\n  function getSwapId() public view returns (Counters.Counter memory) {\n    return _swapId;\n  }\n\n  function getContractBalance() public view returns (uint256) {\n    return address(this).balance;\n  }\n}\n",
  "sourcePath": "/Users/sdh/Study/BEB_07/projects/CDS/contract/contracts/CDS.sol",
  "compiler": {
    "name": "solc",
    "version": "0.8.16+commit.07a7930e.Emscripten.clang"
  },
  "schemaVersion": "3.4.9",
  "updatedAt": "2023-01-26T01:47:49.778Z",
  "networkType": "ethereum",
  "devdoc": {
    "kind": "dev",
    "methods": {
      "owner()": {
        "details": "Returns the address of the current owner."
      },
      "renounceOwnership()": {
        "details": "Leaves the contract without owner. It will not be possible to call `onlyOwner` functions anymore. Can only be called by the current owner. NOTE: Renouncing ownership will leave the contract without an owner, thereby removing any functionality that is only available to the owner."
      },
      "transferOwnership(address)": {
        "details": "Transfers ownership of the contract to a new account (`newOwner`). Can only be called by the current owner."
      }
    },
    "version": 1
  },
  "userdoc": {
    "kind": "user",
    "methods": {},
    "version": 1
  }
}