{
  "contractName": "CDS",
  "abi": [
    {
      "inputs": [],
      "stateMutability": "payable",
      "type": "constructor"
    },
    {
      "anonymous": false,
      "inputs": [
        {
          "indexed": true,
          "internalType": "address",
          "name": "guestAddr",
          "type": "address"
        },
        {
          "indexed": false,
          "internalType": "uint256",
          "name": "swapId",
          "type": "uint256"
        }
      ],
      "name": "AcceptSwap",
      "type": "event"
    },
    {
      "anonymous": false,
      "inputs": [
        {
          "indexed": false,
          "internalType": "uint256",
          "name": "swapId",
          "type": "uint256"
        }
      ],
      "name": "CancelSwap",
      "type": "event"
    },
    {
      "anonymous": false,
      "inputs": [
        {
          "indexed": false,
          "internalType": "uint256",
          "name": "swapId",
          "type": "uint256"
        },
        {
          "indexed": false,
          "internalType": "uint256",
          "name": "claimReward",
          "type": "uint256"
        }
      ],
      "name": "ClaimSwap",
      "type": "event"
    },
    {
      "anonymous": false,
      "inputs": [
        {
          "indexed": false,
          "internalType": "uint256",
          "name": "swapId",
          "type": "uint256"
        }
      ],
      "name": "CloseSwap",
      "type": "event"
    },
    {
      "anonymous": false,
      "inputs": [
        {
          "indexed": true,
          "internalType": "address",
          "name": "hostAddr",
          "type": "address"
        },
        {
          "indexed": false,
          "internalType": "bool",
          "name": "isBuyer",
          "type": "bool"
        },
        {
          "indexed": false,
          "internalType": "uint256",
          "name": "swapId",
          "type": "uint256"
        },
        {
          "indexed": false,
          "internalType": "address",
          "name": "swap",
          "type": "address"
        }
      ],
      "name": "CreateSwap",
      "type": "event"
    },
    {
      "anonymous": false,
      "inputs": [
        {
          "indexed": true,
          "internalType": "address",
          "name": "previousOwner",
          "type": "address"
        },
        {
          "indexed": true,
          "internalType": "address",
          "name": "newOwner",
          "type": "address"
        }
      ],
      "name": "OwnershipTransferred",
      "type": "event"
    },
    {
      "anonymous": false,
      "inputs": [
        {
          "indexed": false,
          "internalType": "uint256",
          "name": "swapId",
          "type": "uint256"
        }
      ],
      "name": "PayPremium",
      "type": "event"
    },
    {
      "inputs": [
        {
          "internalType": "uint256",
          "name": "swapId",
          "type": "uint256"
        }
      ],
      "name": "getBuyer",
      "outputs": [
        {
          "internalType": "address",
          "name": "",
          "type": "address"
        }
      ],
      "stateMutability": "view",
      "type": "function"
    },
    {
      "inputs": [
        {
          "internalType": "uint256",
          "name": "swapId",
          "type": "uint256"
        }
      ],
      "name": "getClaimReward",
      "outputs": [
        {
          "internalType": "uint256",
          "name": "",
          "type": "uint256"
        }
      ],
      "stateMutability": "view",
      "type": "function"
    },
    {
      "inputs": [
        {
          "internalType": "uint256",
          "name": "swapId",
          "type": "uint256"
        }
      ],
      "name": "getDeposits",
      "outputs": [
        {
          "components": [
            {
              "internalType": "uint256",
              "name": "deposit",
              "type": "uint256"
            },
            {
              "internalType": "bool",
              "name": "isPaid",
              "type": "bool"
            }
          ],
          "internalType": "struct SwapHandler.Deposit[2]",
          "name": "",
          "type": "tuple[2]"
        }
      ],
      "stateMutability": "view",
      "type": "function"
    },
    {
      "inputs": [
        {
          "internalType": "uint256",
          "name": "swapId",
          "type": "uint256"
        }
      ],
      "name": "getInterval",
      "outputs": [
        {
          "internalType": "uint256",
          "name": "",
          "type": "uint256"
        }
      ],
      "stateMutability": "view",
      "type": "function"
    },
    {
      "inputs": [
        {
          "internalType": "uint256",
          "name": "swapId",
          "type": "uint256"
        }
      ],
      "name": "getPremium",
      "outputs": [
        {
          "internalType": "uint256",
          "name": "",
          "type": "uint256"
        }
      ],
      "stateMutability": "view",
      "type": "function"
    },
    {
      "inputs": [],
      "name": "getPriceFromOracle",
      "outputs": [
        {
          "internalType": "uint256",
          "name": "",
          "type": "uint256"
        }
      ],
      "stateMutability": "view",
      "type": "function"
    },
    {
      "inputs": [
        {
          "internalType": "uint256",
          "name": "swapId",
          "type": "uint256"
        }
      ],
      "name": "getPrices",
      "outputs": [
        {
          "internalType": "uint256[5]",
          "name": "",
          "type": "uint256[5]"
        }
      ],
      "stateMutability": "view",
      "type": "function"
    },
    {
      "inputs": [
        {
          "internalType": "uint256",
          "name": "swapId",
          "type": "uint256"
        }
      ],
      "name": "getRounds",
      "outputs": [
        {
          "internalType": "uint32",
          "name": "",
          "type": "uint32"
        }
      ],
      "stateMutability": "view",
      "type": "function"
    },
    {
      "inputs": [
        {
          "internalType": "uint256",
          "name": "swapId",
          "type": "uint256"
        }
      ],
      "name": "getSeller",
      "outputs": [
        {
          "internalType": "address",
          "name": "",
          "type": "address"
        }
      ],
      "stateMutability": "view",
      "type": "function"
    },
    {
      "inputs": [
        {
          "internalType": "uint256",
          "name": "swapId",
          "type": "uint256"
        }
      ],
      "name": "getSellerDeposit",
      "outputs": [
        {
          "internalType": "uint256",
          "name": "",
          "type": "uint256"
        }
      ],
      "stateMutability": "view",
      "type": "function"
    },
    {
      "inputs": [
        {
          "internalType": "uint256",
          "name": "swapId",
          "type": "uint256"
        }
      ],
      "name": "getStatus",
      "outputs": [
        {
          "internalType": "enum Swap.Status",
          "name": "",
          "type": "uint8"
        }
      ],
      "stateMutability": "view",
      "type": "function"
    },
    {
      "inputs": [
        {
          "internalType": "uint256",
          "name": "swapId",
          "type": "uint256"
        }
      ],
      "name": "getSwap",
      "outputs": [
        {
          "internalType": "contract Swap",
          "name": "",
          "type": "address"
        }
      ],
      "stateMutability": "view",
      "type": "function"
    },
    {
      "inputs": [],
      "name": "getSwapId",
      "outputs": [
        {
          "components": [
            {
              "internalType": "uint256",
              "name": "_value",
              "type": "uint256"
            }
          ],
          "internalType": "struct Counters.Counter",
          "name": "",
          "type": "tuple"
        }
      ],
      "stateMutability": "view",
      "type": "function"
    },
    {
      "inputs": [],
      "name": "owner",
      "outputs": [
        {
          "internalType": "address",
          "name": "",
          "type": "address"
        }
      ],
      "stateMutability": "view",
      "type": "function"
    },
    {
      "inputs": [],
      "name": "renounceOwnership",
      "outputs": [],
      "stateMutability": "nonpayable",
      "type": "function"
    },
    {
      "inputs": [
        {
          "internalType": "address",
          "name": "_priceOracleAddress",
          "type": "address"
        }
      ],
      "name": "setOracle",
      "outputs": [
        {
          "internalType": "bool",
          "name": "",
          "type": "bool"
        }
      ],
      "stateMutability": "nonpayable",
      "type": "function"
    },
    {
      "inputs": [
        {
          "internalType": "address",
          "name": "newOwner",
          "type": "address"
        }
      ],
      "name": "transferOwnership",
      "outputs": [],
      "stateMutability": "nonpayable",
      "type": "function"
    },
    {
      "stateMutability": "payable",
      "type": "receive"
    },
    {
      "inputs": [
        {
          "internalType": "bool",
          "name": "isBuyer",
          "type": "bool"
        },
        {
          "internalType": "uint256",
          "name": "initAssetPrice",
          "type": "uint256"
        },
        {
          "internalType": "uint256",
          "name": "claimPrice",
          "type": "uint256"
        },
        {
          "internalType": "uint256",
          "name": "liquidationPrice",
          "type": "uint256"
        },
        {
          "internalType": "uint256",
          "name": "sellerDeposit",
          "type": "uint256"
        },
        {
          "internalType": "uint256",
          "name": "premium",
          "type": "uint256"
        },
        {
          "internalType": "uint32",
          "name": "premiumInterval",
          "type": "uint32"
        },
        {
          "internalType": "uint32",
          "name": "totalRounds",
          "type": "uint32"
        }
      ],
      "name": "createSwap",
      "outputs": [
        {
          "internalType": "uint256",
          "name": "",
          "type": "uint256"
        }
      ],
      "stateMutability": "payable",
      "type": "function"
    },
    {
      "inputs": [
        {
          "internalType": "uint256",
          "name": "initAssetPrice",
          "type": "uint256"
        },
        {
          "internalType": "uint256",
          "name": "swapId",
          "type": "uint256"
        }
      ],
      "name": "acceptSwap",
      "outputs": [
        {
          "internalType": "uint256",
          "name": "",
          "type": "uint256"
        }
      ],
      "stateMutability": "payable",
      "type": "function"
    },
    {
      "inputs": [
        {
          "internalType": "uint256",
          "name": "swapId",
          "type": "uint256"
        }
      ],
      "name": "cancelSwap",
      "outputs": [
        {
          "internalType": "bool",
          "name": "",
          "type": "bool"
        }
      ],
      "stateMutability": "nonpayable",
      "type": "function"
    },
    {
      "inputs": [
        {
          "internalType": "uint256",
          "name": "swapId",
          "type": "uint256"
        }
      ],
      "name": "closeSwap",
      "outputs": [
        {
          "internalType": "bool",
          "name": "",
          "type": "bool"
        }
      ],
      "stateMutability": "nonpayable",
      "type": "function"
    },
    {
      "inputs": [
        {
          "internalType": "uint256",
          "name": "swapId",
          "type": "uint256"
        }
      ],
      "name": "payPremium",
      "outputs": [
        {
          "internalType": "bool",
          "name": "",
          "type": "bool"
        }
      ],
      "stateMutability": "payable",
      "type": "function"
    },
    {
      "inputs": [
        {
          "internalType": "uint256",
          "name": "swapId",
          "type": "uint256"
        }
      ],
      "name": "claimSwap",
      "outputs": [
        {
          "internalType": "bool",
          "name": "",
          "type": "bool"
        }
      ],
      "stateMutability": "nonpayable",
      "type": "function"
    },
    {
      "inputs": [
        {
          "internalType": "uint256",
          "name": "deposit",
          "type": "uint256"
        }
      ],
      "name": "_sendDeposit",
      "outputs": [
        {
          "internalType": "bool",
          "name": "",
          "type": "bool"
        }
      ],
      "stateMutability": "payable",
      "type": "function"
    },
    {
      "inputs": [],
      "name": "getContractBalance",
      "outputs": [
        {
          "internalType": "uint256",
          "name": "",
          "type": "uint256"
        }
      ],
      "stateMutability": "view",
      "type": "function"
    }
  ],
  "bytecode": "0x608060405262000024620000186200002a60201b60201c565b6200003260201b60201c565b620000f6565b600033905090565b60008060009054906101000a900473ffffffffffffffffffffffffffffffffffffffff169050816000806101000a81548173ffffffffffffffffffffffffffffffffffffffff021916908373ffffffffffffffffffffffffffffffffffffffff1602179055508173ffffffffffffffffffffffffffffffffffffffff168173ffffffffffffffffffffffffffffffffffffffff167f8be0079c531659141344cd1fd0a4f28419497f9722a3daafe3b4186f6b6457e060405160405180910390a35050565b61547580620001066000396000f3fe6080604052600436106200018d5760003560e01c8063616e9f8f11620000e5578063914929561162000097578063c6d30a86116200006d578063c6d30a86146200068a578063d6a9de5114620006c0578063e43c520d1462000704578063f2fde38b14620007485762000195565b80639149295614620005be5780639671ea9f1462000602578063be06fba014620006465762000195565b8063616e9f8f14620004785780636f9fb98a14620004bc578063715018a614620004ec5780637adbf973146200050657806388106323146200054a5780638da5cb5b146200058e5762000195565b80634364b26e116200013f5780634364b26e1462000302578063496ab39a14620003385780634a0d89ba146200036857806354d6a2b714620003ac5780635bf608b814620003f05780635c622a0e14620004345762000195565b8063085c967f146200019a57806313ef3dcc14620001de57806316f9baeb14620002225780631bf1fffb14620002585780631cfa8295146200029c57806338f5a49114620002d25762000195565b366200019557005b600080fd5b348015620001a757600080fd5b50620001c66004803603810190620001c0919062002f34565b62000776565b604051620001d5919062003071565b60405180910390f35b348015620001eb57600080fd5b506200020a600480360381019062000204919062002f34565b62000804565b604051620002199190620030af565b60405180910390f35b6200024060048036038101906200023a919062002f34565b620008b2565b6040516200024f9190620030dd565b60405180910390f35b3480156200026557600080fd5b506200028460048036038101906200027e919062002f34565b620009b6565b6040516200029391906200310b565b60405180910390f35b620002ba6004803603810190620002b4919062003128565b62000a64565b604051620002c991906200310b565b60405180910390f35b348015620002df57600080fd5b50620002ea62000d11565b604051620002f991906200310b565b60405180910390f35b6200032060048036038101906200031a919062002f34565b62000db1565b6040516200032f9190620030dd565b60405180910390f35b3480156200034557600080fd5b506200035062001006565b6040516200035f91906200318d565b60405180910390f35b3480156200037557600080fd5b506200039460048036038101906200038e919062002f34565b6200102c565b604051620003a3919062003235565b60405180910390f35b348015620003b957600080fd5b50620003d86004803603810190620003d2919062002f34565b62001069565b604051620003e79190620030dd565b60405180910390f35b348015620003fd57600080fd5b506200041c600480360381019062000416919062002f34565b620013c2565b6040516200042b919062003277565b60405180910390f35b3480156200044157600080fd5b506200046060048036038101906200045a919062002f34565b62001470565b6040516200046f919062003314565b60405180910390f35b3480156200048557600080fd5b50620004a460048036038101906200049e919062002f34565b6200151e565b604051620004b391906200310b565b60405180910390f35b348015620004c957600080fd5b50620004d4620015cc565b604051620004e391906200310b565b60405180910390f35b348015620004f957600080fd5b5062000504620015d4565b005b3480156200051357600080fd5b506200053260048036038101906200052c919062003362565b620015ec565b604051620005419190620030dd565b60405180910390f35b3480156200055757600080fd5b5062000576600480360381019062000570919062002f34565b620016a9565b6040516200058591906200310b565b60405180910390f35b3480156200059b57600080fd5b50620005a662001757565b604051620005b5919062003277565b60405180910390f35b348015620005cb57600080fd5b50620005ea6004803603810190620005e4919062002f34565b62001780565b604051620005f991906200343e565b60405180910390f35b3480156200060f57600080fd5b506200062e600480360381019062000628919062002f34565b62001836565b6040516200063d9190620030dd565b60405180910390f35b3480156200065357600080fd5b506200067260048036038101906200066c919062002f34565b62001beb565b6040516200068191906200310b565b60405180910390f35b620006a86004803603810190620006a29190620034bd565b62001dab565b604051620006b791906200310b565b60405180910390f35b348015620006cd57600080fd5b50620006ec6004803603810190620006e6919062002f34565b62001efe565b604051620006fb919062003277565b60405180910390f35b3480156200071157600080fd5b506200073060048036038101906200072a919062002f34565b62001fac565b6040516200073f9190620030dd565b60405180910390f35b3480156200075557600080fd5b506200077460048036038101906200076e919062003362565b620022b8565b005b6200078062002e5b565b60066000838152602001908152602001600020600280602002604051908101604052809291906000905b82821015620007f957838260020201604051806040016040529081600082015481526020016001820160009054906101000a900460ff16151515158152505081526020019060010190620007aa565b505050509050919050565b60006004600083815260200190815260200160002060009054906101000a900473ffffffffffffffffffffffffffffffffffffffff1673ffffffffffffffffffffffffffffffffffffffff1663a2e800ad6040518163ffffffff1660e01b8152600401602060405180830381865afa15801562000885573d6000803e3d6000fd5b505050506040513d601f19601f82011682018060405250810190620008ab91906200359d565b9050919050565b6000348214620008f9576040517f08c379a0000000000000000000000000000000000000000000000000000000008152600401620008f09062003630565b60405180910390fd5b60003073ffffffffffffffffffffffffffffffffffffffff1634604051620009219062003687565b60006040518083038185875af1925050503d806000811462000960576040519150601f19603f3d011682016040523d82523d6000602084013e62000965565b606091505b5050905080620009ac576040517f08c379a0000000000000000000000000000000000000000000000000000000008152600401620009a390620036ee565b60405180910390fd5b6001915050919050565b60006004600083815260200190815260200160002060009054906101000a900473ffffffffffffffffffffffffffffffffffffffff1673ffffffffffffffffffffffffffffffffffffffff1663e0a73a936040518163ffffffff1660e01b8152600401602060405180830381865afa15801562000a37573d6000803e3d6000fd5b505050506040513d601f19601f8201168201806040525081019062000a5d919062003727565b9050919050565b600062000a7062001757565b73ffffffffffffffffffffffffffffffffffffffff163373ffffffffffffffffffffffffffffffffffffffff160362000ae0576040517f08c379a000000000000000000000000000000000000000000000000000000000815260040162000ad790620037a9565b60405180910390fd5b816001600481111562000af85762000af762003294565b5b62000b038262001470565b600481111562000b185762000b1762003294565b5b1462000b5b576040517f08c379a000000000000000000000000000000000000000000000000000000000815260040162000b529062003841565b60405180910390fd5b62000b6683620013c2565b73ffffffffffffffffffffffffffffffffffffffff163373ffffffffffffffffffffffffffffffffffffffff161415801562000bd8575062000ba88362001efe565b73ffffffffffffffffffffffffffffffffffffffff163373ffffffffffffffffffffffffffffffffffffffff1614155b62000c1a576040517f08c379a000000000000000000000000000000000000000000000000000000000815260040162000c1190620038b3565b60405180910390fd5b60008073ffffffffffffffffffffffffffffffffffffffff1662000c3e8562001efe565b73ffffffffffffffffffffffffffffffffffffffff161490508062000c8d5762000c8762000c81600362000c7287620009b6565b6200234290919063ffffffff16565b620008b2565b62000ca3565b62000ca262000c9c85620016a9565b620008b2565b5b50600062000cb38287876200235a565b90503373ffffffffffffffffffffffffffffffffffffffff167f96a33d274168dd9f48db62d10e3a70d2a3d6b885f26deb52297a7db0d779aecd8260405162000cfd91906200310b565b60405180910390a280935050505092915050565b600080600160009054906101000a900473ffffffffffffffffffffffffffffffffffffffff1673ffffffffffffffffffffffffffffffffffffffff166398d5fdca6040518163ffffffff1660e01b8152600401602060405180830381865afa15801562000d82573d6000803e3d6000fd5b505050506040513d601f19601f8201168201806040525081019062000da8919062003727565b90508091505090565b60008162000dbf81620013c2565b73ffffffffffffffffffffffffffffffffffffffff163373ffffffffffffffffffffffffffffffffffffffff161462000e2f576040517f08c379a000000000000000000000000000000000000000000000000000000000815260040162000e269062003925565b60405180910390fd5b826002600481111562000e475762000e4662003294565b5b62000e528262001470565b600481111562000e675762000e6662003294565b5b1462000eaa576040517f08c379a000000000000000000000000000000000000000000000000000000000815260040162000ea190620039bd565b60405180910390fd5b62000eb584620009b6565b341462000ef9576040517f08c379a000000000000000000000000000000000000000000000000000000000815260040162000ef09062003a2f565b60405180910390fd5b600062000f068562001efe565b73ffffffffffffffffffffffffffffffffffffffff163460405162000f2b9062003687565b60006040518083038185875af1925050503d806000811462000f6a576040519150601f19603f3d011682016040523d82523d6000602084013e62000f6f565b606091505b505090508062000fb6576040517f08c379a000000000000000000000000000000000000000000000000000000000815260040162000fad9062003aa1565b60405180910390fd5b62000fc185620024f5565b7f73fe46267e05ae56a3625c045df1b74c1b1736a7535eeadef3c57551bfd005998560405162000ff291906200310b565b60405180910390a160019350505050919050565b6200101062002e8b565b6002604051806020016040529081600082015481525050905090565b60006004600083815260200190815260200160002060009054906101000a900473ffffffffffffffffffffffffffffffffffffffff169050919050565b60006200107562001757565b73ffffffffffffffffffffffffffffffffffffffff163373ffffffffffffffffffffffffffffffffffffffff1603620010e5576040517f08c379a0000000000000000000000000000000000000000000000000000000008152600401620010dc90620037a9565b60405180910390fd5b81620010f181620013c2565b73ffffffffffffffffffffffffffffffffffffffff163373ffffffffffffffffffffffffffffffffffffffff161480620011605750620011318162001efe565b73ffffffffffffffffffffffffffffffffffffffff163373ffffffffffffffffffffffffffffffffffffffff16145b620011a2576040517f08c379a0000000000000000000000000000000000000000000000000000000008152600401620011999062003b39565b60405180910390fd5b8260016004811115620011ba57620011b962003294565b5b620011c58262001470565b6004811115620011da57620011d962003294565b5b146200121d576040517f08c379a0000000000000000000000000000000000000000000000000000000008152600401620012149062003841565b60405180910390fd5b60006200122a85620013c2565b73ffffffffffffffffffffffffffffffffffffffff163373ffffffffffffffffffffffffffffffffffffffff16146200129057620012688562000776565b6001600281106200127e576200127d62003b5b565b5b602002015160000151905080620012be565b6200129b8562000776565b600060028110620012b157620012b062003b5b565b5b6020020151600001519050805b5060003373ffffffffffffffffffffffffffffffffffffffff1682604051620012e79062003687565b60006040518083038185875af1925050503d806000811462001326576040519150601f19603f3d011682016040523d82523d6000602084013e6200132b565b606091505b505090508062001372576040517f08c379a0000000000000000000000000000000000000000000000000000000008152600401620013699062003bda565b60405180910390fd5b6200137d86620025cb565b7fcc357eede946cd6e20dd870b5e54e608ab19a8d405c686dcfd469fbe4b09cead86604051620013ae91906200310b565b60405180910390a180945050505050919050565b60006004600083815260200190815260200160002060009054906101000a900473ffffffffffffffffffffffffffffffffffffffff1673ffffffffffffffffffffffffffffffffffffffff1663603daf9a6040518163ffffffff1660e01b8152600401602060405180830381865afa15801562001443573d6000803e3d6000fd5b505050506040513d601f19601f8201168201806040525081019062001469919062003c13565b9050919050565b60006004600083815260200190815260200160002060009054906101000a900473ffffffffffffffffffffffffffffffffffffffff1673ffffffffffffffffffffffffffffffffffffffff1663200d2ed26040518163ffffffff1660e01b8152600401602060405180830381865afa158015620014f1573d6000803e3d6000fd5b505050506040513d601f19601f8201168201806040525081019062001517919062003c6d565b9050919050565b60006004600083815260200190815260200160002060009054906101000a900473ffffffffffffffffffffffffffffffffffffffff1673ffffffffffffffffffffffffffffffffffffffff1663947a36fb6040518163ffffffff1660e01b8152600401602060405180830381865afa1580156200159f573d6000803e3d6000fd5b505050506040513d601f19601f82011682018060405250810190620015c5919062003727565b9050919050565b600047905090565b620015de6200268f565b620015ea600062002714565b565b60008073ffffffffffffffffffffffffffffffffffffffff168273ffffffffffffffffffffffffffffffffffffffff16036200165f576040517f08c379a0000000000000000000000000000000000000000000000000000000008152600401620016569062003cef565b60405180910390fd5b81600160006101000a81548173ffffffffffffffffffffffffffffffffffffffff021916908373ffffffffffffffffffffffffffffffffffffffff16021790555060019050919050565b60006004600083815260200190815260200160002060009054906101000a900473ffffffffffffffffffffffffffffffffffffffff1673ffffffffffffffffffffffffffffffffffffffff16634c1786ea6040518163ffffffff1660e01b8152600401602060405180830381865afa1580156200172a573d6000803e3d6000fd5b505050506040513d601f19601f8201168201806040525081019062001750919062003727565b9050919050565b60008060009054906101000a900473ffffffffffffffffffffffffffffffffffffffff16905090565b6200178a62002e9e565b6004600083815260200190815260200160002060009054906101000a900473ffffffffffffffffffffffffffffffffffffffff1673ffffffffffffffffffffffffffffffffffffffff1663bd9a548b6040518163ffffffff1660e01b815260040160a060405180830381865afa15801562001809573d6000803e3d6000fd5b505050506040513d601f19601f820116820180604052508101906200182f919062003e74565b9050919050565b60006200184262001757565b73ffffffffffffffffffffffffffffffffffffffff163373ffffffffffffffffffffffffffffffffffffffff1603620018b2576040517f08c379a0000000000000000000000000000000000000000000000000000000008152600401620018a990620037a9565b60405180910390fd5b81620018be81620013c2565b73ffffffffffffffffffffffffffffffffffffffff163373ffffffffffffffffffffffffffffffffffffffff16146200192e576040517f08c379a0000000000000000000000000000000000000000000000000000000008152600401620019259062003925565b60405180910390fd5b826002600481111562001946576200194562003294565b5b620019518262001470565b600481111562001966576200196562003294565b5b14620019a9576040517f08c379a0000000000000000000000000000000000000000000000000000000008152600401620019a090620039bd565b60405180910390fd5b6000620019b68562001beb565b905060008103620019fe576040517f08c379a0000000000000000000000000000000000000000000000000000000008152600401620019f59062003f1c565b60405180910390fd5b60003373ffffffffffffffffffffffffffffffffffffffff1662001a228762000776565b60006002811062001a385762001a3762003b5b565b5b6020020151600001518362001a4e919062003f6d565b60405162001a5c9062003687565b60006040518083038185875af1925050503d806000811462001a9b576040519150601f19603f3d011682016040523d82523d6000602084013e62001aa0565b606091505b5050905060003373ffffffffffffffffffffffffffffffffffffffff168362001ac98962000776565b60016002811062001adf5762001ade62003b5b565b5b60200201516000015162001af4919062003fa8565b60405162001b029062003687565b60006040518083038185875af1925050503d806000811462001b41576040519150601f19603f3d011682016040523d82523d6000602084013e62001b46565b606091505b5050905081801562001b555750805b62001b97576040517f08c379a000000000000000000000000000000000000000000000000000000000815260040162001b8e9062004033565b60405180910390fd5b62001ba287620027d8565b7f0b78f6443935f3b97aeb2d2a9c09081ac6faae8995a742fc2b4c9df114d4cc6c878460405162001bd592919062004055565b60405180910390a1600195505050505050919050565b60008062001bf862000d11565b90508062001c06846200102c565b73ffffffffffffffffffffffffffffffffffffffff166315d655c96040518163ffffffff1660e01b8152600401602060405180830381865afa15801562001c51573d6000803e3d6000fd5b505050506040513d601f19601f8201168201806040525081019062001c77919062003727565b101562001c8957600091505062001da6565b62001da262001c98846200102c565b73ffffffffffffffffffffffffffffffffffffffff1663b6fc2d5f6040518163ffffffff1660e01b8152600401602060405180830381865afa15801562001ce3573d6000803e3d6000fd5b505050506040513d601f19601f8201168201806040525081019062001d09919062003727565b62001d14856200102c565b73ffffffffffffffffffffffffffffffffffffffff166386be75b76040518163ffffffff1660e01b8152600401602060405180830381865afa15801562001d5f573d6000803e3d6000fd5b505050506040513d601f19601f8201168201806040525081019062001d85919062003727565b8362001d9187620016a9565b6200289c909392919063ffffffff16565b9150505b919050565b600062001db762001757565b73ffffffffffffffffffffffffffffffffffffffff163373ffffffffffffffffffffffffffffffffffffffff160362001e27576040517f08c379a000000000000000000000000000000000000000000000000000000000815260040162001e1e90620037a9565b60405180910390fd5b6000600162001e416003876200234290919063ffffffff16565b62001e4d919062004082565b90508962001e665762001e6086620008b2565b62001e72565b62001e7181620008b2565b5b50600062001e8d8b8b8b8b8b8b8b63ffffffff168b62002916565b90503373ffffffffffffffffffffffffffffffffffffffff167ffe0728f16b61ded19416fa941dc2fbb5f345c84d79e9da02bf47b9e669000d1d8c8362001ed4856200102c565b60405162001ee593929190620040e3565b60405180910390a2809250505098975050505050505050565b60006004600083815260200190815260200160002060009054906101000a900473ffffffffffffffffffffffffffffffffffffffff1673ffffffffffffffffffffffffffffffffffffffff1663dbd0e1b66040518163ffffffff1660e01b8152600401602060405180830381865afa15801562001f7f573d6000803e3d6000fd5b505050506040513d601f19601f8201168201806040525081019062001fa5919062003c13565b9050919050565b60008162001fba81620013c2565b73ffffffffffffffffffffffffffffffffffffffff163373ffffffffffffffffffffffffffffffffffffffff16146200202a576040517f08c379a0000000000000000000000000000000000000000000000000000000008152600401620020219062003925565b60405180910390fd5b826002600481111562002042576200204162003294565b5b6200204d8262001470565b600481111562002062576200206162003294565b5b14620020a5576040517f08c379a00000000000000000000000000000000000000000000000000000000081526004016200209c90620039bd565b60405180910390fd5b6000600190506000620020b88662000776565b600060028110620020ce57620020cd62003b5b565b5b6020020151600001511462002177573373ffffffffffffffffffffffffffffffffffffffff16620020ff8662000776565b60006002811062002115576200211462003b5b565b5b6020020151600001516040516200212c9062003687565b60006040518083038185875af1925050503d80600081146200216b576040519150601f19603f3d011682016040523d82523d6000602084013e62002170565b606091505b5050809150505b6000620021848662001efe565b73ffffffffffffffffffffffffffffffffffffffff16620021a58762000776565b600160028110620021bb57620021ba62003b5b565b5b602002015160000151604051620021d29062003687565b60006040518083038185875af1925050503d806000811462002211576040519150601f19603f3d011682016040523d82523d6000602084013e62002216565b606091505b50509050818015620022255750805b62002267576040517f08c379a00000000000000000000000000000000000000000000000000000000081526004016200225e90620036ee565b60405180910390fd5b620022728662002a03565b7fb9fa1a07f2c631058d244370b457f8cd1da0a6278005c7538516123cd620be3086604051620022a391906200310b565b60405180910390a16001945050505050919050565b620022c26200268f565b600073ffffffffffffffffffffffffffffffffffffffff168173ffffffffffffffffffffffffffffffffffffffff160362002334576040517f08c379a00000000000000000000000000000000000000000000000000000000081526004016200232b9062004196565b60405180910390fd5b6200233f8162002714565b50565b6000818362002352919062004082565b905092915050565b6000806004600084815260200190815260200160002060009054906101000a900473ffffffffffffffffffffffffffffffffffffffff1690508073ffffffffffffffffffffffffffffffffffffffff1663bef904e3856040518263ffffffff1660e01b8152600401620023ce91906200310b565b6020604051808303816000875af1158015620023ee573d6000803e3d6000fd5b505050506040513d601f19601f8201168201806040525081019062002414919062003727565b50846200242c57620024268362002ac7565b62002438565b620024378362002c1c565b5b62002443836200151e565b4262002450919062003f6d565b60056000858152602001908152602001600020819055508073ffffffffffffffffffffffffffffffffffffffff16632e49d78b60026040518263ffffffff1660e01b8152600401620024a3919062003314565b6020604051808303816000875af1158015620024c3573d6000803e3d6000fd5b505050506040513d601f19601f82011682018060405250810190620024e9919062003c6d565b50829150509392505050565b62002500816200151e565b426200250d919062003f6d565b60056000838152602001908152602001600020819055506200252f816200102c565b73ffffffffffffffffffffffffffffffffffffffff1663d2895e936001620025578462000804565b620025639190620041b8565b6040518263ffffffff1660e01b8152600401620025819190620030af565b6020604051808303816000875af1158015620025a1573d6000803e3d6000fd5b505050506040513d601f19601f82011682018060405250810190620025c791906200359d565b5050565b620025d68162002d5c565b6004600082815260200190815260200160002060009054906101000a900473ffffffffffffffffffffffffffffffffffffffff1673ffffffffffffffffffffffffffffffffffffffff16632e49d78b60006040518263ffffffff1660e01b815260040162002645919062003314565b6020604051808303816000875af115801562002665573d6000803e3d6000fd5b505050506040513d601f19601f820116820180604052508101906200268b919062003c6d565b5050565b6200269962002dff565b73ffffffffffffffffffffffffffffffffffffffff16620026b962001757565b73ffffffffffffffffffffffffffffffffffffffff161462002712576040517f08c379a0000000000000000000000000000000000000000000000000000000008152600401620027099062004247565b60405180910390fd5b565b60008060009054906101000a900473ffffffffffffffffffffffffffffffffffffffff169050816000806101000a81548173ffffffffffffffffffffffffffffffffffffffff021916908373ffffffffffffffffffffffffffffffffffffffff1602179055508173ffffffffffffffffffffffffffffffffffffffff168173ffffffffffffffffffffffffffffffffffffffff167f8be0079c531659141344cd1fd0a4f28419497f9722a3daafe3b4186f6b6457e060405160405180910390a35050565b620027e38162002d5c565b6004600082815260200190815260200160002060009054906101000a900473ffffffffffffffffffffffffffffffffffffffff1673ffffffffffffffffffffffffffffffffffffffff16632e49d78b60036040518263ffffffff1660e01b815260040162002852919062003314565b6020604051808303816000875af115801562002872573d6000803e3d6000fd5b505050506040513d601f19601f8201168201806040525081019062002898919062003c6d565b5050565b600080828510620028b0578590506200290a565b6000620028db620028cb878762002e0790919063ffffffff16565b8862002e1f90919063ffffffff16565b905062002906620028f6858762002e0790919063ffffffff16565b826200234290919063ffffffff16565b9150505b80915050949350505050565b600062002924600262002e37565b600062002932600262002e4d565b90506000898989888a89896040516200294b9062002ec0565b6200295d979695949392919062004269565b604051809103906000f0801580156200297a573d6000803e3d6000fd5b509050806004600084815260200190815260200160002060006101000a81548173ffffffffffffffffffffffffffffffffffffffff021916908373ffffffffffffffffffffffffffffffffffffffff1602179055508a620029e657620029e08262002c1c565b620029f2565b620029f18262002ac7565b5b819250505098975050505050505050565b62002a0e8162002d5c565b6004600082815260200190815260200160002060009054906101000a900473ffffffffffffffffffffffffffffffffffffffff1673ffffffffffffffffffffffffffffffffffffffff16632e49d78b60046040518263ffffffff1660e01b815260040162002a7d919062003314565b6020604051808303816000875af115801562002a9d573d6000803e3d6000fd5b505050506040513d601f19601f8201168201806040525081019062002ac3919062003c6d565b5050565b6004600082815260200190815260200160002060009054906101000a900473ffffffffffffffffffffffffffffffffffffffff1673ffffffffffffffffffffffffffffffffffffffff1663a3f09ad6336040518263ffffffff1660e01b815260040162002b35919062003277565b6020604051808303816000875af115801562002b55573d6000803e3d6000fd5b505050506040513d601f19601f8201168201806040525081019062002b7b919062003c13565b5062002b9c600362002b8d83620009b6565b6200234290919063ffffffff16565b6006600083815260200190815260200160002060006002811062002bc55762002bc462003b5b565b5b600202016000018190555060016006600083815260200190815260200160002060006002811062002bfb5762002bfa62003b5b565b5b6002020160010160006101000a81548160ff02191690831515021790555050565b6004600082815260200190815260200160002060009054906101000a900473ffffffffffffffffffffffffffffffffffffffff1673ffffffffffffffffffffffffffffffffffffffff1663e99d2866336040518263ffffffff1660e01b815260040162002c8a919062003277565b6020604051808303816000875af115801562002caa573d6000803e3d6000fd5b505050506040513d601f19601f8201168201806040525081019062002cd0919062003c13565b5062002cdc81620016a9565b6006600083815260200190815260200160002060016002811062002d055762002d0462003b5b565b5b600202016000018190555060016006600083815260200190815260200160002060016002811062002d3b5762002d3a62003b5b565b5b6002020160010160006101000a81548160ff02191690831515021790555050565b60005b6001811162002dfb57600060066000848152602001908152602001600020826002811062002d925762002d9162003b5b565b5b6002020160000181905550600060066000848152602001908152602001600020826002811062002dc75762002dc662003b5b565b5b6002020160010160006101000a81548160ff021916908315150217905550808062002df290620042e6565b91505062002d5f565b5050565b600033905090565b6000818362002e17919062003fa8565b905092915050565b6000818362002e2f919062004362565b905092915050565b6001816000016000828254019250508190555050565b600081600001549050919050565b60405180604001604052806002905b62002e7462002ece565b81526020019060019003908162002e6a5790505090565b6040518060200160405280600081525090565b6040518060a00160405280600590602082028036833780820191505090505090565b6110a5806200439b83390190565b6040518060400160405280600081526020016000151581525090565b6000604051905090565b600080fd5b6000819050919050565b62002f0e8162002ef9565b811462002f1a57600080fd5b50565b60008135905062002f2e8162002f03565b92915050565b60006020828403121562002f4d5762002f4c62002ef4565b5b600062002f5d8482850162002f1d565b91505092915050565b600060029050919050565b600081905092915050565b6000819050919050565b62002f918162002ef9565b82525050565b60008115159050919050565b62002fae8162002f97565b82525050565b60408201600082015162002fcc600085018262002f86565b50602082015162002fe1602085018262002fa3565b50505050565b600062002ff5838362002fb4565b60408301905092915050565b6000602082019050919050565b620030198162002f66565b62003025818462002f71565b9250620030328262002f7c565b8060005b83811015620030695781516200304d878262002fe7565b96506200305a8362003001565b92505060018101905062003036565b505050505050565b60006080820190506200308860008301846200300e565b92915050565b600063ffffffff82169050919050565b620030a9816200308e565b82525050565b6000602082019050620030c660008301846200309e565b92915050565b620030d78162002f97565b82525050565b6000602082019050620030f46000830184620030cc565b92915050565b620031058162002ef9565b82525050565b6000602082019050620031226000830184620030fa565b92915050565b6000806040838503121562003142576200314162002ef4565b5b6000620031528582860162002f1d565b9250506020620031658582860162002f1d565b9150509250929050565b60208201600082015162003187600085018262002f86565b50505050565b6000602082019050620031a460008301846200316f565b92915050565b600073ffffffffffffffffffffffffffffffffffffffff82169050919050565b6000819050919050565b6000620031f5620031ef620031e984620031aa565b620031ca565b620031aa565b9050919050565b60006200320982620031d4565b9050919050565b60006200321d82620031fc565b9050919050565b6200322f8162003210565b82525050565b60006020820190506200324c600083018462003224565b92915050565b60006200325f82620031aa565b9050919050565b620032718162003252565b82525050565b60006020820190506200328e600083018462003266565b92915050565b7f4e487b7100000000000000000000000000000000000000000000000000000000600052602160045260246000fd5b60058110620032d757620032d662003294565b5b50565b6000819050620032ea82620032c3565b919050565b6000620032fc82620032da565b9050919050565b6200330e81620032ef565b82525050565b60006020820190506200332b600083018462003303565b92915050565b6200333c8162003252565b81146200334857600080fd5b50565b6000813590506200335c8162003331565b92915050565b6000602082840312156200337b576200337a62002ef4565b5b60006200338b848285016200334b565b91505092915050565b600060059050919050565b600081905092915050565b6000819050919050565b6000620033c2838362002f86565b60208301905092915050565b6000602082019050919050565b620033e68162003394565b620033f281846200339f565b9250620033ff82620033aa565b8060005b83811015620034365781516200341a8782620033b4565b96506200342783620033ce565b92505060018101905062003403565b505050505050565b600060a082019050620034556000830184620033db565b92915050565b620034668162002f97565b81146200347257600080fd5b50565b60008135905062003486816200345b565b92915050565b62003497816200308e565b8114620034a357600080fd5b50565b600081359050620034b7816200348c565b92915050565b600080600080600080600080610100898b031215620034e157620034e062002ef4565b5b6000620034f18b828c0162003475565b9850506020620035048b828c0162002f1d565b9750506040620035178b828c0162002f1d565b96505060606200352a8b828c0162002f1d565b95505060806200353d8b828c0162002f1d565b94505060a0620035508b828c0162002f1d565b93505060c0620035638b828c01620034a6565b92505060e0620035768b828c01620034a6565b9150509295985092959890939650565b60008151905062003597816200348c565b92915050565b600060208284031215620035b657620035b562002ef4565b5b6000620035c68482850162003586565b91505092915050565b600082825260208201905092915050565b7f496e76616c69642065746820616d6f756e740000000000000000000000000000600082015250565b600062003618601283620035cf565b91506200362582620035e0565b602082019050919050565b600060208201905081810360008301526200364b8162003609565b9050919050565b600081905092915050565b50565b60006200366f60008362003652565b91506200367c826200365d565b600082019050919050565b6000620036948262003660565b9150819050919050565b7f53656e64696e67206465706f736974206661696c656400000000000000000000600082015250565b6000620036d6601683620035cf565b9150620036e3826200369e565b602082019050919050565b600060208201905081810360008301526200370981620036c7565b9050919050565b600081519050620037218162002f03565b92915050565b60006020828403121562003740576200373f62002ef4565b5b6000620037508482850162003710565b91505092915050565b7f4f776e65722063616e206e6f742063616c6c20746865206d6574686f64000000600082015250565b600062003791601d83620035cf565b91506200379e8262003759565b602082019050919050565b60006020820190508181036000830152620037c48162003782565b9050919050565b7f54686520737461747573206f6620746865204344532073686f756c642062652060008201527f70656e64696e6700000000000000000000000000000000000000000000000000602082015250565b600062003829602783620035cf565b91506200383682620037cb565b604082019050919050565b600060208201905081810360008301526200385c816200381a565b9050919050565b7f54686520686f73742063616e206e6f742063616c6c20746865206d6574686f64600082015250565b60006200389b602083620035cf565b9150620038a88262003863565b602082019050919050565b60006020820190508181036000830152620038ce816200388c565b9050919050565b7f4f6e6c79206275796572206f6620746865204344532063616e2063616c6c0000600082015250565b60006200390d601e83620035cf565b91506200391a82620038d5565b602082019050919050565b600060208201905081810360008301526200394081620038fe565b9050919050565b7f54686520737461747573206f6620746865204344532073686f756c642062652060008201527f6163746976650000000000000000000000000000000000000000000000000000602082015250565b6000620039a5602683620035cf565b9150620039b28262003947565b604082019050919050565b60006020820190508181036000830152620039d88162003996565b9050919050565b7f496e76616c6964207072656d69756d0000000000000000000000000000000000600082015250565b600062003a17600f83620035cf565b915062003a2482620039df565b602082019050919050565b6000602082019050818103600083015262003a4a8162003a08565b9050919050565b7f53656e64696e67207072656d69756d206661696c656400000000000000000000600082015250565b600062003a89601683620035cf565b915062003a968262003a51565b602082019050919050565b6000602082019050818103600083015262003abc8162003a7a565b9050919050565b7f4f6e6c792062757965722f73656c6c6572206f6620746865204344532063616e60008201527f2063616c6c000000000000000000000000000000000000000000000000000000602082015250565b600062003b21602583620035cf565b915062003b2e8262003ac3565b604082019050919050565b6000602082019050818103600083015262003b548162003b12565b9050919050565b7f4e487b7100000000000000000000000000000000000000000000000000000000600052603260045260246000fd5b7f53656e64696e67206661696c6564000000000000000000000000000000000000600082015250565b600062003bc2600e83620035cf565b915062003bcf8262003b8a565b602082019050919050565b6000602082019050818103600083015262003bf58162003bb3565b9050919050565b60008151905062003c0d8162003331565b92915050565b60006020828403121562003c2c5762003c2b62002ef4565b5b600062003c3c8482850162003bfc565b91505092915050565b6005811062003c5357600080fd5b50565b60008151905062003c678162003c45565b92915050565b60006020828403121562003c865762003c8562002ef4565b5b600062003c968482850162003c56565b91505092915050565b7f496e76616c696420616464726573730000000000000000000000000000000000600082015250565b600062003cd7600f83620035cf565b915062003ce48262003c9f565b602082019050919050565b6000602082019050818103600083015262003d0a8162003cc8565b9050919050565b600080fd5b6000601f19601f8301169050919050565b7f4e487b7100000000000000000000000000000000000000000000000000000000600052604160045260246000fd5b62003d618262003d16565b810181811067ffffffffffffffff8211171562003d835762003d8262003d27565b5b80604052505050565b600062003d9862002eea565b905062003da6828262003d56565b919050565b600067ffffffffffffffff82111562003dc95762003dc862003d27565b5b602082029050919050565b600080fd5b600062003df062003dea8462003dab565b62003d8c565b9050806020840283018581111562003e0d5762003e0c62003dd4565b5b835b8181101562003e3a578062003e25888262003710565b84526020840193505060208101905062003e0f565b5050509392505050565b600082601f83011262003e5c5762003e5b62003d11565b5b600562003e6b84828562003dd9565b91505092915050565b600060a0828403121562003e8d5762003e8c62002ef4565b5b600062003e9d8482850162003e44565b91505092915050565b7f436c61696d20707269636520696e204344532073686f756c642062652068696760008201527f686572207468616e2063757272656e74207072696365206f6620617373657400602082015250565b600062003f04603f83620035cf565b915062003f118262003ea6565b604082019050919050565b6000602082019050818103600083015262003f378162003ef5565b9050919050565b7f4e487b7100000000000000000000000000000000000000000000000000000000600052601160045260246000fd5b600062003f7a8262002ef9565b915062003f878362002ef9565b925082820190508082111562003fa25762003fa162003f3e565b5b92915050565b600062003fb58262002ef9565b915062003fc28362002ef9565b925082820390508181111562003fdd5762003fdc62003f3e565b5b92915050565b7f53656e64696e6720726577617264206661696c65640000000000000000000000600082015250565b60006200401b601583620035cf565b9150620040288262003fe3565b602082019050919050565b600060208201905081810360008301526200404e816200400c565b9050919050565b60006040820190506200406c6000830185620030fa565b6200407b6020830184620030fa565b9392505050565b60006200408f8262002ef9565b91506200409c8362002ef9565b9250817fffffffffffffffffffffffffffffffffffffffffffffffffffffffffffffffff0483118215151615620040d857620040d762003f3e565b5b828202905092915050565b6000606082019050620040fa6000830186620030cc565b620041096020830185620030fa565b62004118604083018462003266565b949350505050565b7f4f776e61626c653a206e6577206f776e657220697320746865207a65726f206160008201527f6464726573730000000000000000000000000000000000000000000000000000602082015250565b60006200417e602683620035cf565b91506200418b8262004120565b604082019050919050565b60006020820190508181036000830152620041b1816200416f565b9050919050565b6000620041c5826200308e565b9150620041d2836200308e565b9250828203905063ffffffff811115620041f157620041f062003f3e565b5b92915050565b7f4f776e61626c653a2063616c6c6572206973206e6f7420746865206f776e6572600082015250565b60006200422f602083620035cf565b91506200423c82620041f7565b602082019050919050565b60006020820190508181036000830152620042628162004220565b9050919050565b600060e08201905062004280600083018a620030fa565b6200428f6020830189620030fa565b6200429e6040830188620030fa565b620042ad6060830187620030fa565b620042bc6080830186620030fa565b620042cb60a0830185620030fa565b620042da60c08301846200309e565b98975050505050505050565b6000620042f38262002ef9565b91507fffffffffffffffffffffffffffffffffffffffffffffffffffffffffffffffff820362004328576200432762003f3e565b5b600182019050919050565b7f4e487b7100000000000000000000000000000000000000000000000000000000600052601260045260246000fd5b60006200436f8262002ef9565b91506200437c8362002ef9565b9250826200438f576200438e62004333565b5b82820490509291505056fe60806040523480156200001157600080fd5b50604051620010a5380380620010a58339818101604052810190620000379190620002ae565b620000576200004b6200016160201b60201c565b6200016960201b60201c565b86600381905550856004819055508460058190555083600681905550826007819055508160088190555080600960006101000a81548163ffffffff021916908363ffffffff1602179055506000600160006101000a81548173ffffffffffffffffffffffffffffffffffffffff021916908373ffffffffffffffffffffffffffffffffffffffff1602179055506000600260006101000a81548173ffffffffffffffffffffffffffffffffffffffff021916908373ffffffffffffffffffffffffffffffffffffffff1602179055506001600060146101000a81548160ff021916908360048111156200014f576200014e62000361565b5b02179055505050505050505062000390565b600033905090565b60008060009054906101000a900473ffffffffffffffffffffffffffffffffffffffff169050816000806101000a81548173ffffffffffffffffffffffffffffffffffffffff021916908373ffffffffffffffffffffffffffffffffffffffff1602179055508173ffffffffffffffffffffffffffffffffffffffff168173ffffffffffffffffffffffffffffffffffffffff167f8be0079c531659141344cd1fd0a4f28419497f9722a3daafe3b4186f6b6457e060405160405180910390a35050565b600080fd5b6000819050919050565b620002478162000232565b81146200025357600080fd5b50565b60008151905062000267816200023c565b92915050565b600063ffffffff82169050919050565b62000288816200026d565b81146200029457600080fd5b50565b600081519050620002a8816200027d565b92915050565b600080600080600080600060e0888a031215620002d057620002cf6200022d565b5b6000620002e08a828b0162000256565b9750506020620002f38a828b0162000256565b9650506040620003068a828b0162000256565b9550506060620003198a828b0162000256565b94505060806200032c8a828b0162000256565b93505060a06200033f8a828b0162000256565b92505060c0620003528a828b0162000297565b91505092959891949750929550565b7f4e487b7100000000000000000000000000000000000000000000000000000000600052602160045260246000fd5b610d0580620003a06000396000f3fe608060405234801561001057600080fd5b50600436106101215760003560e01c8063a2e800ad116100ad578063d2895e9311610071578063d2895e93146102ec578063dbd0e1b61461031c578063e0a73a931461033a578063e99d286614610358578063f2fde38b1461038857610121565b8063a2e800ad14610232578063a3f09ad614610250578063b6fc2d5f14610280578063bd9a548b1461029e578063bef904e3146102bc57610121565b8063603daf9a116100f4578063603daf9a146101b0578063715018a6146101ce57806386be75b7146101d85780638da5cb5b146101f6578063947a36fb1461021457610121565b806315d655c914610126578063200d2ed2146101445780632e49d78b146101625780634c1786ea14610192575b600080fd5b61012e6103a4565b60405161013b9190610855565b60405180910390f35b61014c6103aa565b60405161015991906108e7565b60405180910390f35b61017c6004803603810190610177919061092c565b6103bd565b60405161018991906108e7565b60405180910390f35b61019a610408565b6040516101a79190610855565b60405180910390f35b6101b861040e565b6040516101c5919061099a565b60405180910390f35b6101d6610438565b005b6101e061044c565b6040516101ed9190610855565b60405180910390f35b6101fe610452565b60405161020b919061099a565b60405180910390f35b61021c61047b565b6040516102299190610855565b60405180910390f35b61023a610481565b60405161024791906109d4565b60405180910390f35b61026a60048036038101906102659190610a1b565b610497565b604051610277919061099a565b60405180910390f35b61028861050c565b6040516102959190610855565b60405180910390f35b6102a6610512565b6040516102b39190610af3565b60405180910390f35b6102d660048036038101906102d19190610b3a565b610550565b6040516102e39190610855565b60405180910390f35b61030660048036038101906103019190610b93565b610563565b60405161031391906109d4565b60405180910390f35b6103246105a8565b604051610331919061099a565b60405180910390f35b6103426105d2565b60405161034f9190610855565b60405180910390f35b610372600480360381019061036d9190610a1b565b6105d8565b60405161037f919061099a565b60405180910390f35b6103a2600480360381019061039d9190610a1b565b61064d565b005b60045481565b600060149054906101000a900460ff1681565b60006103c76106d0565b81600060146101000a81548160ff021916908360048111156103ec576103eb610870565b5b0217905550600060149054906101000a900460ff169050919050565b60075481565b6000600160009054906101000a900473ffffffffffffffffffffffffffffffffffffffff16905090565b6104406106d0565b61044a600061074e565b565b60035481565b60008060009054906101000a900473ffffffffffffffffffffffffffffffffffffffff16905090565b60085481565b600960009054906101000a900463ffffffff1681565b60006104a16106d0565b81600160006101000a81548173ffffffffffffffffffffffffffffffffffffffff021916908373ffffffffffffffffffffffffffffffffffffffff160217905550600160009054906101000a900473ffffffffffffffffffffffffffffffffffffffff169050919050565b60055481565b61051a61081a565b6040518060a001604052806003548152602001600454815260200160055481526020016006548152602001600754815250905090565b6000816003819055506003549050919050565b600061056d6106d0565b81600960006101000a81548163ffffffff021916908363ffffffff160217905550600960009054906101000a900463ffffffff169050919050565b6000600260009054906101000a900473ffffffffffffffffffffffffffffffffffffffff16905090565b60065481565b60006105e26106d0565b81600260006101000a81548173ffffffffffffffffffffffffffffffffffffffff021916908373ffffffffffffffffffffffffffffffffffffffff160217905550600260009054906101000a900473ffffffffffffffffffffffffffffffffffffffff169050919050565b6106556106d0565b600073ffffffffffffffffffffffffffffffffffffffff168173ffffffffffffffffffffffffffffffffffffffff16036106c4576040517f08c379a00000000000000000000000000000000000000000000000000000000081526004016106bb90610c43565b60405180910390fd5b6106cd8161074e565b50565b6106d8610812565b73ffffffffffffffffffffffffffffffffffffffff166106f6610452565b73ffffffffffffffffffffffffffffffffffffffff161461074c576040517f08c379a000000000000000000000000000000000000000000000000000000000815260040161074390610caf565b60405180910390fd5b565b60008060009054906101000a900473ffffffffffffffffffffffffffffffffffffffff169050816000806101000a81548173ffffffffffffffffffffffffffffffffffffffff021916908373ffffffffffffffffffffffffffffffffffffffff1602179055508173ffffffffffffffffffffffffffffffffffffffff168173ffffffffffffffffffffffffffffffffffffffff167f8be0079c531659141344cd1fd0a4f28419497f9722a3daafe3b4186f6b6457e060405160405180910390a35050565b600033905090565b6040518060a00160405280600590602082028036833780820191505090505090565b6000819050919050565b61084f8161083c565b82525050565b600060208201905061086a6000830184610846565b92915050565b7f4e487b7100000000000000000000000000000000000000000000000000000000600052602160045260246000fd5b600581106108b0576108af610870565b5b50565b60008190506108c18261089f565b919050565b60006108d1826108b3565b9050919050565b6108e1816108c6565b82525050565b60006020820190506108fc60008301846108d8565b92915050565b600080fd5b6005811061091457600080fd5b50565b60008135905061092681610907565b92915050565b60006020828403121561094257610941610902565b5b600061095084828501610917565b91505092915050565b600073ffffffffffffffffffffffffffffffffffffffff82169050919050565b600061098482610959565b9050919050565b61099481610979565b82525050565b60006020820190506109af600083018461098b565b92915050565b600063ffffffff82169050919050565b6109ce816109b5565b82525050565b60006020820190506109e960008301846109c5565b92915050565b6109f881610979565b8114610a0357600080fd5b50565b600081359050610a15816109ef565b92915050565b600060208284031215610a3157610a30610902565b5b6000610a3f84828501610a06565b91505092915050565b600060059050919050565b600081905092915050565b6000819050919050565b610a718161083c565b82525050565b6000610a838383610a68565b60208301905092915050565b6000602082019050919050565b610aa581610a48565b610aaf8184610a53565b9250610aba82610a5e565b8060005b83811015610aeb578151610ad28782610a77565b9650610add83610a8f565b925050600181019050610abe565b505050505050565b600060a082019050610b086000830184610a9c565b92915050565b610b178161083c565b8114610b2257600080fd5b50565b600081359050610b3481610b0e565b92915050565b600060208284031215610b5057610b4f610902565b5b6000610b5e84828501610b25565b91505092915050565b610b70816109b5565b8114610b7b57600080fd5b50565b600081359050610b8d81610b67565b92915050565b600060208284031215610ba957610ba8610902565b5b6000610bb784828501610b7e565b91505092915050565b600082825260208201905092915050565b7f4f776e61626c653a206e6577206f776e657220697320746865207a65726f206160008201527f6464726573730000000000000000000000000000000000000000000000000000602082015250565b6000610c2d602683610bc0565b9150610c3882610bd1565b604082019050919050565b60006020820190508181036000830152610c5c81610c20565b9050919050565b7f4f776e61626c653a2063616c6c6572206973206e6f7420746865206f776e6572600082015250565b6000610c99602083610bc0565b9150610ca482610c63565b602082019050919050565b60006020820190508181036000830152610cc881610c8c565b905091905056fea2646970667358221220a05163996b76c30fd3b3d10afdc3ef807353b913d852bba76e0a167b34f7a92964736f6c63430008100033a26469706673582212207c0af9fff3c1aa6cdf95f96bd64c38c09b89f6889f396e1aa6e74ca99812512e64736f6c63430008100033",
  "immutableReferences": {},
  "source": "// SPDX-License-Identifier: MIT\npragma solidity ^0.8.7;\n\nimport './Handler/SwapHandler.sol';\nimport '@openzeppelin/contracts/access/Ownable.sol';\nimport '@openzeppelin/contracts/utils/math/SafeMath.sol';\n\ncontract CDS is Ownable, SwapHandler {\n  using SafeMath for uint256;\n\n  constructor() payable {}\n\n  receive() external payable {}\n\n  // events\n  event CreateSwap(\n    address indexed hostAddr,\n    bool isBuyer,\n    uint256 swapId,\n    address swap\n  );\n  event AcceptSwap(address indexed guestAddr, uint256 swapId);\n  event CancelSwap(uint256 swapId);\n  event ClaimSwap(uint256 swapId, uint256 claimReward);\n  event CloseSwap(uint256 swapId);\n  event PayPremium(uint256 swapId);\n\n  // transactions\n  function createSwap(\n    bool isBuyer,\n    uint256 initAssetPrice,\n    uint256 claimPrice,\n    uint256 liquidationPrice,\n    uint256 sellerDeposit,\n    uint256 premium,\n    uint32 premiumInterval,\n    uint32 totalRounds\n  ) external payable isNotOwner returns (uint256) {\n    uint256 buyerDeposit = premium.mul(3) * 1 wei;\n    isBuyer ? _sendDeposit(buyerDeposit) : _sendDeposit(sellerDeposit);\n\n    uint256 newSwapId = _createSwap(\n      isBuyer,\n      initAssetPrice,\n      claimPrice,\n      liquidationPrice,\n      sellerDeposit,\n      premium,\n      premiumInterval,\n      totalRounds\n    );\n    emit CreateSwap(\n      msg.sender,\n      isBuyer,\n      newSwapId,\n      address(getSwap(newSwapId))\n    );\n    return newSwapId;\n  }\n\n  function acceptSwap(\n    uint256 initAssetPrice,\n    uint256 swapId\n  ) external payable isNotOwner isPending(swapId) returns (uint256) {\n    require(\n      msg.sender != getBuyer(swapId) && msg.sender != getSeller(swapId),\n      'The host can not call the method'\n    );\n\n    bool isBuyerHost = (getSeller(swapId) == address(0));\n\n    isBuyerHost\n      ? _sendDeposit(getSellerDeposit(swapId))\n      : _sendDeposit(getPremium(swapId).mul(3));\n\n    uint256 acceptedSwapId = _acceptSwap(isBuyerHost, initAssetPrice, swapId);\n    emit AcceptSwap(msg.sender, acceptedSwapId);\n    return acceptedSwapId;\n  }\n\n  function cancelSwap(\n    uint256 swapId\n  )\n    external\n    isNotOwner\n    isParticipants(swapId)\n    isPending(swapId)\n    returns (bool)\n  {\n    uint256 deposit;\n    (msg.sender == getBuyer(swapId))\n      ? deposit = getDeposits(swapId)[0].deposit\n      : deposit = getDeposits(swapId)[1].deposit;\n    (bool sent, ) = msg.sender.call{value: deposit}('');\n    require(sent, 'Sending failed');\n    _cancelSwap(swapId);\n    emit CancelSwap(swapId);\n    return sent;\n  }\n\n  function closeSwap(\n    uint256 swapId\n  ) external isBuyer(swapId) isActive(swapId) returns (bool) {\n    //  sent   .\n    bool sentBuyer = true;\n    if (getDeposits(swapId)[0].deposit != 0) {\n      (sentBuyer, ) = msg.sender.call{value: getDeposits(swapId)[0].deposit}(\n        ''\n      );\n    }\n    (bool sentSeller, ) = getSeller(swapId).call{\n      value: getDeposits(swapId)[1].deposit\n    }('');\n    require(sentBuyer && sentSeller, 'Sending deposit failed');\n    _closeSwap(swapId);\n    emit CloseSwap(swapId);\n    return true;\n  }\n\n  function payPremium(\n    uint256 swapId\n  ) external payable isBuyer(swapId) isActive(swapId) returns (bool) {\n    // date check\n    // require(_checkDate(swapId), 'Invalid date');\n\n    require(msg.value == getPremium(swapId), 'Invalid premium');\n    (bool sent, ) = getSeller(swapId).call{value: msg.value}('');\n    require(sent, 'Sending premium failed');\n    // status update\n    _payPremium(swapId);\n    emit PayPremium(swapId);\n    return true;\n  }\n\n  function claimSwap(\n    uint256 swapId\n  ) external isNotOwner isBuyer(swapId) isActive(swapId) returns (bool) {\n    uint256 claimReward = getClaimReward(swapId);\n    require(\n      claimReward != 0,\n      'Claim price in CDS should be higher than current price of asset'\n    );\n    (bool sentBuyer, ) = msg.sender.call{\n      value: (claimReward + getDeposits(swapId)[0].deposit)\n    }('');\n    (bool sentSeller, ) = msg.sender.call{\n      value: (getDeposits(swapId)[1].deposit - claimReward)\n    }('');\n    require(sentBuyer && sentSeller, 'Sending reward failed');\n    _claimSwap(swapId);\n    emit ClaimSwap(swapId, claimReward);\n    return true;\n  }\n\n  function _sendDeposit(uint256 deposit) public payable returns (bool) {\n    require(deposit == msg.value, 'Invalid eth amount');\n    (bool sent, ) = payable(address(this)).call{value: msg.value}('');\n    require(sent, 'Sending deposit failed');\n    return true;\n  }\n\n  function getContractBalance() public view returns (uint256) {\n    return address(this).balance;\n  }\n\n  // modifiers\n  modifier isNotOwner() {\n    require(msg.sender != owner(), 'Owner can not call the method');\n    _;\n  }\n}\n",
  "sourcePath": "/Users/sdh/Study/BEB_07/projects/CDS/contract/contracts/CDS.sol",
  "compiler": {
    "name": "solc",
    "version": "0.8.16+commit.07a7930e.Emscripten.clang"
  },
  "schemaVersion": "3.4.9",
  "updatedAt": "2023-02-04T07:41:25.403Z",
  "devdoc": {
    "kind": "dev",
    "methods": {
      "owner()": {
        "details": "Returns the address of the current owner."
      },
      "renounceOwnership()": {
        "details": "Leaves the contract without owner. It will not be possible to call `onlyOwner` functions anymore. Can only be called by the current owner. NOTE: Renouncing ownership will leave the contract without an owner, thereby removing any functionality that is only available to the owner."
      },
      "transferOwnership(address)": {
        "details": "Transfers ownership of the contract to a new account (`newOwner`). Can only be called by the current owner."
      }
    },
    "version": 1
  },
  "userdoc": {
    "kind": "user",
    "methods": {},
    "version": 1
  }
}