{
  "contractName": "CDS",
  "abi": [
    {
      "anonymous": false,
      "inputs": [
        {
          "indexed": true,
          "internalType": "address",
          "name": "guestAddr",
          "type": "address"
        },
        {
          "indexed": false,
          "internalType": "uint256",
          "name": "swapId",
          "type": "uint256"
        }
      ],
      "name": "Accept",
      "type": "event"
    },
    {
      "anonymous": false,
      "inputs": [
        {
          "indexed": false,
          "internalType": "uint256",
          "name": "swapId",
          "type": "uint256"
        }
      ],
      "name": "Cancel",
      "type": "event"
    },
    {
      "anonymous": false,
      "inputs": [
        {
          "indexed": false,
          "internalType": "uint256",
          "name": "swapId",
          "type": "uint256"
        },
        {
          "indexed": false,
          "internalType": "uint256",
          "name": "claimReward",
          "type": "uint256"
        }
      ],
      "name": "Claim",
      "type": "event"
    },
    {
      "anonymous": false,
      "inputs": [
        {
          "indexed": false,
          "internalType": "uint256",
          "name": "swapId",
          "type": "uint256"
        }
      ],
      "name": "Close",
      "type": "event"
    },
    {
      "anonymous": false,
      "inputs": [
        {
          "indexed": true,
          "internalType": "address",
          "name": "hostAddr",
          "type": "address"
        },
        {
          "indexed": false,
          "internalType": "bool",
          "name": "isBuyer",
          "type": "bool"
        },
        {
          "indexed": false,
          "internalType": "uint256",
          "name": "swapId",
          "type": "uint256"
        },
        {
          "indexed": false,
          "internalType": "address",
          "name": "swap",
          "type": "address"
        }
      ],
      "name": "Create",
      "type": "event"
    },
    {
      "anonymous": false,
      "inputs": [
        {
          "indexed": false,
          "internalType": "uint256",
          "name": "swapId",
          "type": "uint256"
        }
      ],
      "name": "Expire",
      "type": "event"
    },
    {
      "anonymous": false,
      "inputs": [
        {
          "indexed": true,
          "internalType": "address",
          "name": "previousOwner",
          "type": "address"
        },
        {
          "indexed": true,
          "internalType": "address",
          "name": "newOwner",
          "type": "address"
        }
      ],
      "name": "OwnershipTransferred",
      "type": "event"
    },
    {
      "anonymous": false,
      "inputs": [
        {
          "indexed": false,
          "internalType": "uint256",
          "name": "swapId",
          "type": "uint256"
        }
      ],
      "name": "PayPremium",
      "type": "event"
    },
    {
      "inputs": [
        {
          "internalType": "uint256",
          "name": "",
          "type": "uint256"
        },
        {
          "internalType": "uint256",
          "name": "",
          "type": "uint256"
        }
      ],
      "name": "deposits",
      "outputs": [
        {
          "internalType": "uint256",
          "name": "",
          "type": "uint256"
        }
      ],
      "stateMutability": "view",
      "type": "function",
      "constant": true
    },
    {
      "inputs": [
        {
          "internalType": "uint256",
          "name": "swapId",
          "type": "uint256"
        }
      ],
      "name": "getBuyer",
      "outputs": [
        {
          "internalType": "address",
          "name": "",
          "type": "address"
        }
      ],
      "stateMutability": "view",
      "type": "function",
      "constant": true
    },
    {
      "inputs": [
        {
          "internalType": "uint256",
          "name": "swapId",
          "type": "uint256"
        }
      ],
      "name": "getInterval",
      "outputs": [
        {
          "internalType": "uint256",
          "name": "",
          "type": "uint256"
        }
      ],
      "stateMutability": "view",
      "type": "function",
      "constant": true
    },
    {
      "inputs": [
        {
          "internalType": "uint256",
          "name": "swapId",
          "type": "uint256"
        }
      ],
      "name": "getNextPayDate",
      "outputs": [
        {
          "internalType": "uint256",
          "name": "",
          "type": "uint256"
        }
      ],
      "stateMutability": "view",
      "type": "function",
      "constant": true
    },
    {
      "inputs": [
        {
          "internalType": "uint256",
          "name": "swapId",
          "type": "uint256"
        }
      ],
      "name": "getPremium",
      "outputs": [
        {
          "internalType": "uint256",
          "name": "",
          "type": "uint256"
        }
      ],
      "stateMutability": "view",
      "type": "function",
      "constant": true
    },
    {
      "inputs": [
        {
          "internalType": "uint256",
          "name": "swapId",
          "type": "uint256"
        }
      ],
      "name": "getPrices",
      "outputs": [
        {
          "internalType": "uint256[5]",
          "name": "",
          "type": "uint256[5]"
        }
      ],
      "stateMutability": "view",
      "type": "function",
      "constant": true
    },
    {
      "inputs": [
        {
          "internalType": "uint256",
          "name": "swapId",
          "type": "uint256"
        }
      ],
      "name": "getRounds",
      "outputs": [
        {
          "internalType": "uint32",
          "name": "",
          "type": "uint32"
        }
      ],
      "stateMutability": "view",
      "type": "function",
      "constant": true
    },
    {
      "inputs": [
        {
          "internalType": "uint256",
          "name": "swapId",
          "type": "uint256"
        }
      ],
      "name": "getSeller",
      "outputs": [
        {
          "internalType": "address",
          "name": "",
          "type": "address"
        }
      ],
      "stateMutability": "view",
      "type": "function",
      "constant": true
    },
    {
      "inputs": [
        {
          "internalType": "uint256",
          "name": "swapId",
          "type": "uint256"
        }
      ],
      "name": "getSellerDeposit",
      "outputs": [
        {
          "internalType": "uint256",
          "name": "",
          "type": "uint256"
        }
      ],
      "stateMutability": "view",
      "type": "function",
      "constant": true
    },
    {
      "inputs": [
        {
          "internalType": "uint256",
          "name": "swapId",
          "type": "uint256"
        }
      ],
      "name": "getStatus",
      "outputs": [
        {
          "internalType": "enum Swap.Status",
          "name": "",
          "type": "uint8"
        }
      ],
      "stateMutability": "view",
      "type": "function",
      "constant": true
    },
    {
      "inputs": [
        {
          "internalType": "uint256",
          "name": "swapId",
          "type": "uint256"
        }
      ],
      "name": "getSwap",
      "outputs": [
        {
          "internalType": "contract Swap",
          "name": "",
          "type": "address"
        }
      ],
      "stateMutability": "view",
      "type": "function",
      "constant": true
    },
    {
      "inputs": [],
      "name": "getSwapId",
      "outputs": [
        {
          "components": [
            {
              "internalType": "uint256",
              "name": "_value",
              "type": "uint256"
            }
          ],
          "internalType": "struct Counters.Counter",
          "name": "",
          "type": "tuple"
        }
      ],
      "stateMutability": "view",
      "type": "function",
      "constant": true
    },
    {
      "inputs": [
        {
          "internalType": "uint256",
          "name": "swapId",
          "type": "uint256"
        }
      ],
      "name": "getTotalRounds",
      "outputs": [
        {
          "internalType": "uint32",
          "name": "",
          "type": "uint32"
        }
      ],
      "stateMutability": "view",
      "type": "function",
      "constant": true
    },
    {
      "inputs": [],
      "name": "owner",
      "outputs": [
        {
          "internalType": "address",
          "name": "",
          "type": "address"
        }
      ],
      "stateMutability": "view",
      "type": "function",
      "constant": true
    },
    {
      "inputs": [],
      "name": "priceOracle",
      "outputs": [
        {
          "internalType": "address",
          "name": "",
          "type": "address"
        }
      ],
      "stateMutability": "view",
      "type": "function",
      "constant": true
    },
    {
      "inputs": [],
      "name": "renounceOwnership",
      "outputs": [],
      "stateMutability": "nonpayable",
      "type": "function"
    },
    {
      "inputs": [
        {
          "internalType": "address",
          "name": "_priceOracleAddress",
          "type": "address"
        }
      ],
      "name": "setOracle",
      "outputs": [
        {
          "internalType": "bool",
          "name": "",
          "type": "bool"
        }
      ],
      "stateMutability": "nonpayable",
      "type": "function"
    },
    {
      "inputs": [
        {
          "internalType": "address",
          "name": "_tokenAddress",
          "type": "address"
        }
      ],
      "name": "setToken",
      "outputs": [
        {
          "internalType": "bool",
          "name": "",
          "type": "bool"
        }
      ],
      "stateMutability": "nonpayable",
      "type": "function"
    },
    {
      "inputs": [],
      "name": "token",
      "outputs": [
        {
          "internalType": "contract IERC20",
          "name": "",
          "type": "address"
        }
      ],
      "stateMutability": "view",
      "type": "function",
      "constant": true
    },
    {
      "inputs": [
        {
          "internalType": "address",
          "name": "newOwner",
          "type": "address"
        }
      ],
      "name": "transferOwnership",
      "outputs": [],
      "stateMutability": "nonpayable",
      "type": "function"
    },
    {
      "inputs": [
        {
          "internalType": "bool",
          "name": "isBuyer",
          "type": "bool"
        },
        {
          "internalType": "uint256",
          "name": "initAssetPrice",
          "type": "uint256"
        },
        {
          "internalType": "uint256",
          "name": "claimPrice",
          "type": "uint256"
        },
        {
          "internalType": "uint256",
          "name": "liquidationPrice",
          "type": "uint256"
        },
        {
          "internalType": "uint256",
          "name": "sellerDeposit",
          "type": "uint256"
        },
        {
          "internalType": "uint256",
          "name": "premium",
          "type": "uint256"
        },
        {
          "internalType": "uint32",
          "name": "premiumInterval",
          "type": "uint32"
        },
        {
          "internalType": "uint32",
          "name": "totalRounds",
          "type": "uint32"
        }
      ],
      "name": "create",
      "outputs": [
        {
          "internalType": "uint256",
          "name": "",
          "type": "uint256"
        }
      ],
      "stateMutability": "nonpayable",
      "type": "function"
    },
    {
      "inputs": [
        {
          "internalType": "uint256",
          "name": "initAssetPrice",
          "type": "uint256"
        },
        {
          "internalType": "uint256",
          "name": "swapId",
          "type": "uint256"
        }
      ],
      "name": "accept",
      "outputs": [
        {
          "internalType": "uint256",
          "name": "",
          "type": "uint256"
        }
      ],
      "stateMutability": "nonpayable",
      "type": "function"
    },
    {
      "inputs": [
        {
          "internalType": "uint256",
          "name": "swapId",
          "type": "uint256"
        }
      ],
      "name": "cancel",
      "outputs": [
        {
          "internalType": "bool",
          "name": "",
          "type": "bool"
        }
      ],
      "stateMutability": "nonpayable",
      "type": "function"
    },
    {
      "inputs": [
        {
          "internalType": "uint256",
          "name": "swapId",
          "type": "uint256"
        }
      ],
      "name": "close",
      "outputs": [
        {
          "internalType": "bool",
          "name": "",
          "type": "bool"
        }
      ],
      "stateMutability": "nonpayable",
      "type": "function"
    },
    {
      "inputs": [
        {
          "internalType": "uint256",
          "name": "swapId",
          "type": "uint256"
        }
      ],
      "name": "claim",
      "outputs": [
        {
          "internalType": "bool",
          "name": "",
          "type": "bool"
        }
      ],
      "stateMutability": "nonpayable",
      "type": "function"
    },
    {
      "inputs": [
        {
          "internalType": "uint256",
          "name": "swapId",
          "type": "uint256"
        }
      ],
      "name": "expire",
      "outputs": [
        {
          "internalType": "bool",
          "name": "",
          "type": "bool"
        }
      ],
      "stateMutability": "nonpayable",
      "type": "function"
    },
    {
      "inputs": [
        {
          "internalType": "uint256",
          "name": "swapId",
          "type": "uint256"
        }
      ],
      "name": "payPremium",
      "outputs": [
        {
          "internalType": "bool",
          "name": "",
          "type": "bool"
        }
      ],
      "stateMutability": "nonpayable",
      "type": "function"
    },
    {
      "inputs": [
        {
          "internalType": "uint256",
          "name": "swapId",
          "type": "uint256"
        }
      ],
      "name": "payPremiumByDeposit",
      "outputs": [
        {
          "internalType": "bool",
          "name": "",
          "type": "bool"
        }
      ],
      "stateMutability": "nonpayable",
      "type": "function"
    }
  ],
  "bytecode": "0x60806040523480156200001157600080fd5b5062000032620000266200003860201b60201c565b6200004060201b60201c565b62000104565b600033905090565b60008060009054906101000a900473ffffffffffffffffffffffffffffffffffffffff169050816000806101000a81548173ffffffffffffffffffffffffffffffffffffffff021916908373ffffffffffffffffffffffffffffffffffffffff1602179055508173ffffffffffffffffffffffffffffffffffffffff168173ffffffffffffffffffffffffffffffffffffffff167f8be0079c531659141344cd1fd0a4f28419497f9722a3daafe3b4186f6b6457e060405160405180910390a35050565b615cad80620001146000396000f3fe60806040523480156200001157600080fd5b5060043610620001f05760003560e01c80635c622a0e11620001115780638da5cb5b11620000a5578063bf81bf43116200007b578063bf81bf43146200069f578063d6a9de5114620006d5578063f2fde38b146200070b578063fc0c546a146200072b57620001f0565b80638da5cb5b1462000611578063914929561462000633578063967fe6f1146200066957620001f0565b80637adbf97311620000e75780637adbf973146200053957806388106323146200056f5780638a614dd514620005a55780638bfd13ae14620005db57620001f0565b80635c622a0e14620004c1578063616e9f8f14620004f7578063715018a6146200052d57620001f0565b80632bd4978011620001895780634364b26e116200015f5780634364b26e14620003fd578063496ab39a14620004335780634a0d89ba14620004555780635bf608b8146200048b57620001f0565b80632bd49780146200035b578063379607f5146200039157806340e58ee514620003c757620001f0565b8063144fa6d711620001cb578063144fa6d714620002975780631bf1fffb14620002cd5780632630c12f14620003035780632926ea2a146200032557620001f0565b80630935847914620001f55780630aebeb4e146200022b57806313ef3dcc1462000261575b600080fd5b6200021360048036038101906200020d9190620032ef565b6200074d565b60405162000222919062003347565b60405180910390f35b62000249600480360381019062000243919062003364565b620008d1565b604051620002589190620033b3565b60405180910390f35b6200027f600480360381019062000279919062003364565b6200092c565b6040516200028e9190620033f1565b60405180910390f35b620002b56004803603810190620002af919062003473565b620009da565b604051620002c49190620033b3565b60405180910390f35b620002eb6004803603810190620002e5919062003364565b62000a6a565b604051620002fa919062003347565b60405180910390f35b6200030d62000b18565b6040516200031c9190620034b6565b60405180910390f35b6200034360048036038101906200033d919062003364565b62000b3e565b604051620003529190620033b3565b60405180910390f35b620003796004803603810190620003739190620032ef565b62000b5e565b60405162000388919062003347565b60405180910390f35b620003af6004803603810190620003a9919062003364565b62000b87565b604051620003be9190620033b3565b60405180910390f35b620003e56004803603810190620003df919062003364565b62000ca8565b604051620003f49190620033b3565b60405180910390f35b6200041b600480360381019062000415919062003364565b62000d03565b6040516200042a9190620033b3565b60405180910390f35b6200043d62000f5a565b6040516200044c919062003502565b60405180910390f35b6200047360048036038101906200046d919062003364565b62000f80565b6040516200048291906200358a565b60405180910390f35b620004a96004803603810190620004a3919062003364565b62000fbd565b604051620004b89190620034b6565b60405180910390f35b620004df6004803603810190620004d9919062003364565b6200106b565b604051620004ee919062003627565b60405180910390f35b6200051560048036038101906200050f919062003364565b62001119565b60405162000524919062003347565b60405180910390f35b62000537620011c7565b005b62000557600480360381019062000551919062003473565b620011df565b604051620005669190620033b3565b60405180910390f35b6200058d600480360381019062000587919062003364565b6200129c565b6040516200059c919062003347565b60405180910390f35b620005c36004803603810190620005bd9190620036a6565b6200134a565b604051620005d2919062003347565b60405180910390f35b620005f96004803603810190620005f3919062003364565b620013e2565b60405162000608919062003347565b60405180910390f35b6200061b620013ff565b6040516200062a9190620034b6565b60405180910390f35b6200065160048036038101906200064b919062003364565b62001428565b60405162000660919062003819565b60405180910390f35b62000687600480360381019062000681919062003364565b620014de565b604051620006969190620033f1565b60405180910390f35b620006bd6004803603810190620006b7919062003364565b6200158c565b604051620006cc9190620033b3565b60405180910390f35b620006f36004803603810190620006ed919062003364565b620015e7565b604051620007029190620034b6565b60405180910390f35b62000729600480360381019062000723919062003473565b62001695565b005b620007356200171f565b6040516200074491906200385b565b60405180910390f35b60006200075a8262000fbd565b73ffffffffffffffffffffffffffffffffffffffff163373ffffffffffffffffffffffffffffffffffffffff1614158015620007cc57506200079c82620015e7565b73ffffffffffffffffffffffffffffffffffffffff163373ffffffffffffffffffffffffffffffffffffffff1614155b6200080e576040517f08c379a00000000000000000000000000000000000000000000000000000000081526004016200080590620038d9565b60405180910390fd5b60008073ffffffffffffffffffffffffffffffffffffffff166200083284620015e7565b73ffffffffffffffffffffffffffffffffffffffff1614905060006200085a82868662001745565b90506200086984831562001a51565b50620008758462001e40565b503373ffffffffffffffffffffffffffffffffffffffff167f68e07974e86f9190b39c5e1783e6ba66b3d0d7ccf507de51450f14e594d1686882604051620008be919062003347565b60405180910390a2809250505092915050565b6000620008de826200203c565b620008e982620021c5565b507fbf67515a38ee520223d32c1266d52101c30d936ed1f3e436c8caeb0a43cb06bf826040516200091b919062003347565b60405180910390a160019050919050565b60006002600083815260200190815260200160002060009054906101000a900473ffffffffffffffffffffffffffffffffffffffff1673ffffffffffffffffffffffffffffffffffffffff1663a2e800ad6040518163ffffffff1660e01b8152600401602060405180830381865afa158015620009ad573d6000803e3d6000fd5b505050506040513d601f19601f82011682018060405250810190620009d3919062003912565b9050919050565b6000620009e6620023c3565b600073ffffffffffffffffffffffffffffffffffffffff168273ffffffffffffffffffffffffffffffffffffffff160362000a2057600080fd5b81600560006101000a81548173ffffffffffffffffffffffffffffffffffffffff021916908373ffffffffffffffffffffffffffffffffffffffff16021790555060019050919050565b60006002600083815260200190815260200160002060009054906101000a900473ffffffffffffffffffffffffffffffffffffffff1673ffffffffffffffffffffffffffffffffffffffff1663e0a73a936040518163ffffffff1660e01b8152600401602060405180830381865afa15801562000aeb573d6000803e3d6000fd5b505050506040513d601f19601f8201168201806040525081019062000b1191906200395b565b9050919050565b600460009054906101000a900473ffffffffffffffffffffffffffffffffffffffff1681565b600062000b4a620023c3565b62000b558262002448565b60019050919050565b6006602052816000526040600020816002811062000b7b57600080fd5b01600091509150505481565b60008062000b958362000f80565b73ffffffffffffffffffffffffffffffffffffffff1663f26cc58e6040518163ffffffff1660e01b8152600401602060405180830381865afa15801562000be0573d6000803e3d6000fd5b505050506040513d601f19601f8201168201806040525081019062000c0691906200395b565b0362000c49576040517f08c379a000000000000000000000000000000000000000000000000000000000815260040162000c409062003a03565b60405180910390fd5b62000c5482620026ad565b600062000c618362002836565b90507f022e3d29644ead4083349ca84d24bcac368b2461819b70f5921fea15de4dec4d838260405162000c9692919062003a25565b60405180910390a16001915050919050565b600062000cb58262002aee565b62000cc082620021c5565b507f8bf30e7ff26833413be5f69e1d373744864d600b664204b4a2f9844a8eedb9ed8260405162000cf2919062003347565b60405180910390a160019050919050565b600062000d108262000a6a565b600560009054906101000a900473ffffffffffffffffffffffffffffffffffffffff1673ffffffffffffffffffffffffffffffffffffffff1663dd62ed3e62000d598562000fbd565b306040518363ffffffff1660e01b815260040162000d7992919062003a52565b602060405180830381865afa15801562000d97573d6000803e3d6000fd5b505050506040513d601f19601f8201168201806040525081019062000dbd91906200395b565b1462000e00576040517f08c379a000000000000000000000000000000000000000000000000000000000815260040162000df79062003acf565b60405180910390fd5b62000e0b8262002448565b6000600560009054906101000a900473ffffffffffffffffffffffffffffffffffffffff1673ffffffffffffffffffffffffffffffffffffffff166323b872dd62000e568562000fbd565b62000e6186620015e7565b62000e6c8762000a6a565b6040518463ffffffff1660e01b815260040162000e8c9392919062003af1565b6020604051808303816000875af115801562000eac573d6000803e3d6000fd5b505050506040513d601f19601f8201168201806040525081019062000ed2919062003b45565b90508062000f17576040517f08c379a000000000000000000000000000000000000000000000000000000000815260040162000f0e9062003bc7565b60405180910390fd5b7f73fe46267e05ae56a3625c045df1b74c1b1736a7535eeadef3c57551bfd005998360405162000f48919062003347565b60405180910390a16001915050919050565b62000f6462003262565b6001604051806020016040529081600082015481525050905090565b60006002600083815260200190815260200160002060009054906101000a900473ffffffffffffffffffffffffffffffffffffffff169050919050565b60006002600083815260200190815260200160002060009054906101000a900473ffffffffffffffffffffffffffffffffffffffff1673ffffffffffffffffffffffffffffffffffffffff1663603daf9a6040518163ffffffff1660e01b8152600401602060405180830381865afa1580156200103e573d6000803e3d6000fd5b505050506040513d601f19601f8201168201806040525081019062001064919062003c00565b9050919050565b60006002600083815260200190815260200160002060009054906101000a900473ffffffffffffffffffffffffffffffffffffffff1673ffffffffffffffffffffffffffffffffffffffff1663200d2ed26040518163ffffffff1660e01b8152600401602060405180830381865afa158015620010ec573d6000803e3d6000fd5b505050506040513d601f19601f8201168201806040525081019062001112919062003c5a565b9050919050565b60006002600083815260200190815260200160002060009054906101000a900473ffffffffffffffffffffffffffffffffffffffff1673ffffffffffffffffffffffffffffffffffffffff1663947a36fb6040518163ffffffff1660e01b8152600401602060405180830381865afa1580156200119a573d6000803e3d6000fd5b505050506040513d601f19601f82011682018060405250810190620011c091906200395b565b9050919050565b620011d1620023c3565b620011dd600062002cb8565b565b60008073ffffffffffffffffffffffffffffffffffffffff168273ffffffffffffffffffffffffffffffffffffffff160362001252576040517f08c379a0000000000000000000000000000000000000000000000000000000008152600401620012499062003cdc565b60405180910390fd5b81600460006101000a81548173ffffffffffffffffffffffffffffffffffffffff021916908373ffffffffffffffffffffffffffffffffffffffff16021790555060019050919050565b60006002600083815260200190815260200160002060009054906101000a900473ffffffffffffffffffffffffffffffffffffffff1673ffffffffffffffffffffffffffffffffffffffff16634c1786ea6040518163ffffffff1660e01b8152600401602060405180830381865afa1580156200131d573d6000803e3d6000fd5b505050506040513d601f19601f820116820180604052508101906200134391906200395b565b9050919050565b600080620013658a8a8a8a8a8a8a63ffffffff168a62002d7c565b905062001373818b62001a51565b503373ffffffffffffffffffffffffffffffffffffffff167f6c2a7340e59986dcc425dbcafd9c0ca21e5589a9bed2e4be145cb7c06e8d54dd8b83620013b98562000f80565b604051620013ca9392919062003cfe565b60405180910390a28091505098975050505050505050565b600060036000838152602001908152602001600020549050919050565b60008060009054906101000a900473ffffffffffffffffffffffffffffffffffffffff16905090565b6200143262003275565b6002600083815260200190815260200160002060009054906101000a900473ffffffffffffffffffffffffffffffffffffffff1673ffffffffffffffffffffffffffffffffffffffff1663bd9a548b6040518163ffffffff1660e01b815260040160a060405180830381865afa158015620014b1573d6000803e3d6000fd5b505050506040513d601f19601f82011682018060405250810190620014d7919062003e9e565b9050919050565b60006002600083815260200190815260200160002060009054906101000a900473ffffffffffffffffffffffffffffffffffffffff1673ffffffffffffffffffffffffffffffffffffffff16638a5682996040518163ffffffff1660e01b8152600401602060405180830381865afa1580156200155f573d6000803e3d6000fd5b505050506040513d601f19601f8201168201806040525081019062001585919062003912565b9050919050565b6000620015998262002f7a565b620015a482620021c5565b507fa33fd53ba34795ffefaea3759c71f87d38b89ae12e40bc434c826fae0ca5358382604051620015d6919062003347565b60405180910390a160019050919050565b60006002600083815260200190815260200160002060009054906101000a900473ffffffffffffffffffffffffffffffffffffffff1673ffffffffffffffffffffffffffffffffffffffff1663dbd0e1b66040518163ffffffff1660e01b8152600401602060405180830381865afa15801562001668573d6000803e3d6000fd5b505050506040513d601f19601f820116820180604052508101906200168e919062003c00565b9050919050565b6200169f620023c3565b600073ffffffffffffffffffffffffffffffffffffffff168173ffffffffffffffffffffffffffffffffffffffff160362001711576040517f08c379a0000000000000000000000000000000000000000000000000000000008152600401620017089062003f46565b60405180910390fd5b6200171c8162002cb8565b50565b600560009054906101000a900473ffffffffffffffffffffffffffffffffffffffff1681565b600081600160048111156200175f576200175e620035a7565b5b6200176a826200106b565b60048111156200177f576200177e620035a7565b5b14620017c2576040517f08c379a0000000000000000000000000000000000000000000000000000000008152600401620017b99062003fde565b60405180910390fd5b60006002600085815260200190815260200160002060009054906101000a900473ffffffffffffffffffffffffffffffffffffffff1690508073ffffffffffffffffffffffffffffffffffffffff1663bef904e3866040518263ffffffff1660e01b815260040162001835919062003347565b6020604051808303816000875af115801562001855573d6000803e3d6000fd5b505050506040513d601f19601f820116820180604052508101906200187b91906200395b565b508562001909578073ffffffffffffffffffffffffffffffffffffffff1663a3f09ad6336040518263ffffffff1660e01b8152600401620018bd9190620034b6565b6020604051808303816000875af1158015620018dd573d6000803e3d6000fd5b505050506040513d601f19601f8201168201806040525081019062001903919062003c00565b6200198b565b8073ffffffffffffffffffffffffffffffffffffffff1663e99d2866336040518263ffffffff1660e01b8152600401620019449190620034b6565b6020604051808303816000875af115801562001964573d6000803e3d6000fd5b505050506040513d601f19601f820116820180604052508101906200198a919062003c00565b5b50620019978462001119565b600360008681526020019081526020016000206000828254620019bb91906200402f565b925050819055508073ffffffffffffffffffffffffffffffffffffffff16632e49d78b60026040518263ffffffff1660e01b8152600401620019fe919062003627565b6020604051808303816000875af115801562001a1e573d6000803e3d6000fd5b505050506040513d601f19601f8201168201806040525081019062001a44919062003c5a565b5083925050509392505050565b600080821562001c555762001a7b600462001a6c8662000a6a565b620031c990919063ffffffff16565b905080600560009054906101000a900473ffffffffffffffffffffffffffffffffffffffff1673ffffffffffffffffffffffffffffffffffffffff1663dd62ed3e62001ac78762000fbd565b306040518363ffffffff1660e01b815260040162001ae792919062003a52565b602060405180830381865afa15801562001b05573d6000803e3d6000fd5b505050506040513d601f19601f8201168201806040525081019062001b2b91906200395b565b1462001b6e576040517f08c379a000000000000000000000000000000000000000000000000000000000815260040162001b6590620040ba565b60405180910390fd5b600560009054906101000a900473ffffffffffffffffffffffffffffffffffffffff1673ffffffffffffffffffffffffffffffffffffffff166323b872dd62001bb78662000fbd565b30846040518463ffffffff1660e01b815260040162001bd99392919062003af1565b6020604051808303816000875af115801562001bf9573d6000803e3d6000fd5b505050506040513d601f19601f8201168201806040525081019062001c1f919062003b45565b50806006600086815260200190815260200160002060006002811062001c4a5762001c49620040dc565b5b018190555062001e35565b62001c60846200129c565b905080600560009054906101000a900473ffffffffffffffffffffffffffffffffffffffff1673ffffffffffffffffffffffffffffffffffffffff1663dd62ed3e62001cac87620015e7565b306040518363ffffffff1660e01b815260040162001ccc92919062003a52565b602060405180830381865afa15801562001cea573d6000803e3d6000fd5b505050506040513d601f19601f8201168201806040525081019062001d1091906200395b565b1462001d53576040517f08c379a000000000000000000000000000000000000000000000000000000000815260040162001d4a90620040ba565b60405180910390fd5b600560009054906101000a900473ffffffffffffffffffffffffffffffffffffffff1673ffffffffffffffffffffffffffffffffffffffff166323b872dd62001d9c86620015e7565b30846040518463ffffffff1660e01b815260040162001dbe9392919062003af1565b6020604051808303816000875af115801562001dde573d6000803e3d6000fd5b505050506040513d601f19601f8201168201806040525081019062001e04919062003b45565b50806006600086815260200190815260200160002060016002811062001e2f5762001e2e620040dc565b5b01819055505b600191505092915050565b600080600560009054906101000a900473ffffffffffffffffffffffffffffffffffffffff1673ffffffffffffffffffffffffffffffffffffffff1663a9059cbb62001e8c85620015e7565b62001e978662000a6a565b6040518363ffffffff1660e01b815260040162001eb69291906200410b565b6020604051808303816000875af115801562001ed6573d6000803e3d6000fd5b505050506040513d601f19601f8201168201806040525081019062001efc919062003b45565b90508062001f41576040517f08c379a000000000000000000000000000000000000000000000000000000000815260040162001f389062004188565b60405180910390fd5b62001f4c8362000a6a565b6006600085815260200190815260200160002060006002811062001f755762001f74620040dc565b5b01600082825462001f879190620041aa565b9250508190555062001f998362000f80565b73ffffffffffffffffffffffffffffffffffffffff1663d2895e93600162001fc1866200092c565b62001fcd9190620041e5565b6040518263ffffffff1660e01b815260040162001feb9190620033f1565b6020604051808303816000875af11580156200200b573d6000803e3d6000fd5b505050506040513d601f19601f8201168201806040525081019062002031919062003912565b506001915050919050565b80620020488162000fbd565b73ffffffffffffffffffffffffffffffffffffffff163373ffffffffffffffffffffffffffffffffffffffff1614620020b8576040517f08c379a0000000000000000000000000000000000000000000000000000000008152600401620020af9062004274565b60405180910390fd5b8160026004811115620020d057620020cf620035a7565b5b620020db826200106b565b6004811115620020f057620020ef620035a7565b5b1462002133576040517f08c379a00000000000000000000000000000000000000000000000000000000081526004016200212a906200430c565b60405180910390fd5b6200213e8362000f80565b73ffffffffffffffffffffffffffffffffffffffff16632e49d78b60046040518263ffffffff1660e01b815260040162002179919062003627565b6020604051808303816000875af115801562002199573d6000803e3d6000fd5b505050506040513d601f19601f82011682018060405250810190620021bf919062003c5a565b50505050565b6000806040518060400160405280620021de8562000fbd565b73ffffffffffffffffffffffffffffffffffffffff1673ffffffffffffffffffffffffffffffffffffffff1681526020016200221a85620015e7565b73ffffffffffffffffffffffffffffffffffffffff1673ffffffffffffffffffffffffffffffffffffffff16815250905060005b60018111620023ad576000600660008681526020019081526020016000208260028110620022815762002280620040dc565b5b015490506000811462002396576000600560009054906101000a900473ffffffffffffffffffffffffffffffffffffffff1673ffffffffffffffffffffffffffffffffffffffff1663a9059cbb858560028110620022e457620022e3620040dc565b5b6020020151846040518363ffffffff1660e01b8152600401620023099291906200410b565b6020604051808303816000875af115801562002329573d6000803e3d6000fd5b505050506040513d601f19601f820116820180604052508101906200234f919062003b45565b90508062002394576040517f08c379a00000000000000000000000000000000000000000000000000000000081526004016200238b906200437e565b60405180910390fd5b505b508080620023a490620043a0565b9150506200224e565b50620023b983620031e1565b6001915050919050565b620023cd62003236565b73ffffffffffffffffffffffffffffffffffffffff16620023ed620013ff565b73ffffffffffffffffffffffffffffffffffffffff161462002446576040517f08c379a00000000000000000000000000000000000000000000000000000000081526004016200243d906200443d565b60405180910390fd5b565b80620024548162000fbd565b73ffffffffffffffffffffffffffffffffffffffff163373ffffffffffffffffffffffffffffffffffffffff1614620024c4576040517f08c379a0000000000000000000000000000000000000000000000000000000008152600401620024bb9062004274565b60405180910390fd5b8160026004811115620024dc57620024db620035a7565b5b620024e7826200106b565b6004811115620024fc57620024fb620035a7565b5b146200253f576040517f08c379a000000000000000000000000000000000000000000000000000000000815260040162002536906200430c565b60405180910390fd5b600042905080620151806003600087815260200190815260200160002054620025699190620041aa565b111580156200258b575060036000858152602001908152602001600020548111155b620025cd576040517f08c379a0000000000000000000000000000000000000000000000000000000008152600401620025c490620044af565b60405180910390fd5b620025d88462001119565b600360008681526020019081526020016000206000828254620025fc91906200402f565b925050819055506200260e8462000f80565b73ffffffffffffffffffffffffffffffffffffffff1663d2895e93600162002636876200092c565b620026429190620041e5565b6040518263ffffffff1660e01b8152600401620026609190620033f1565b6020604051808303816000875af115801562002680573d6000803e3d6000fd5b505050506040513d601f19601f82011682018060405250810190620026a6919062003912565b5050505050565b80620026b98162000fbd565b73ffffffffffffffffffffffffffffffffffffffff163373ffffffffffffffffffffffffffffffffffffffff161462002729576040517f08c379a0000000000000000000000000000000000000000000000000000000008152600401620027209062004274565b60405180910390fd5b8160026004811115620027415762002740620035a7565b5b6200274c826200106b565b6004811115620027615762002760620035a7565b5b14620027a4576040517f08c379a00000000000000000000000000000000000000000000000000000000081526004016200279b906200430c565b60405180910390fd5b620027af8362000f80565b73ffffffffffffffffffffffffffffffffffffffff16632e49d78b60036040518263ffffffff1660e01b8152600401620027ea919062003627565b6020604051808303816000875af11580156200280a573d6000803e3d6000fd5b505050506040513d601f19601f8201168201806040525081019062002830919062003c5a565b50505050565b600080620028448362000f80565b73ffffffffffffffffffffffffffffffffffffffff1663f26cc58e6040518163ffffffff1660e01b8152600401602060405180830381865afa1580156200288f573d6000803e3d6000fd5b505050506040513d601f19601f82011682018060405250810190620028b591906200395b565b90506000600560009054906101000a900473ffffffffffffffffffffffffffffffffffffffff1673ffffffffffffffffffffffffffffffffffffffff1663a9059cbb620029028662000fbd565b600660008881526020019081526020016000206000600281106200292b576200292a620040dc565b5b0154856200293a91906200402f565b6040518363ffffffff1660e01b8152600401620029599291906200410b565b6020604051808303816000875af115801562002979573d6000803e3d6000fd5b505050506040513d601f19601f820116820180604052508101906200299f919062003b45565b90506000600560009054906101000a900473ffffffffffffffffffffffffffffffffffffffff1673ffffffffffffffffffffffffffffffffffffffff1663a9059cbb620029ec87620015e7565b85600660008a815260200190815260200160002060016002811062002a165762002a15620040dc565b5b015462002a249190620041aa565b6040518363ffffffff1660e01b815260040162002a439291906200410b565b6020604051808303816000875af115801562002a63573d6000803e3d6000fd5b505050506040513d601f19601f8201168201806040525081019062002a89919062003b45565b905081801562002a965750805b62002ad8576040517f08c379a000000000000000000000000000000000000000000000000000000000815260040162002acf9062004521565b60405180910390fd5b62002ae385620031e1565b829350505050919050565b8062002afa8162000fbd565b73ffffffffffffffffffffffffffffffffffffffff163373ffffffffffffffffffffffffffffffffffffffff16148062002b69575062002b3a81620015e7565b73ffffffffffffffffffffffffffffffffffffffff163373ffffffffffffffffffffffffffffffffffffffff16145b62002bab576040517f08c379a000000000000000000000000000000000000000000000000000000000815260040162002ba290620045b9565b60405180910390fd5b816001600481111562002bc35762002bc2620035a7565b5b62002bce826200106b565b600481111562002be35762002be2620035a7565b5b1462002c26576040517f08c379a000000000000000000000000000000000000000000000000000000000815260040162002c1d9062003fde565b60405180910390fd5b62002c318362000f80565b73ffffffffffffffffffffffffffffffffffffffff16632e49d78b60006040518263ffffffff1660e01b815260040162002c6c919062003627565b6020604051808303816000875af115801562002c8c573d6000803e3d6000fd5b505050506040513d601f19601f8201168201806040525081019062002cb2919062003c5a565b50505050565b60008060009054906101000a900473ffffffffffffffffffffffffffffffffffffffff169050816000806101000a81548173ffffffffffffffffffffffffffffffffffffffff021916908373ffffffffffffffffffffffffffffffffffffffff1602179055508173ffffffffffffffffffffffffffffffffffffffff168173ffffffffffffffffffffffffffffffffffffffff167f8be0079c531659141344cd1fd0a4f28419497f9722a3daafe3b4186f6b6457e060405160405180910390a35050565b600062002d8a60016200323e565b600062002d98600162003254565b90506000898989888a8989600460009054906101000a900473ffffffffffffffffffffffffffffffffffffffff1660405162002dd49062003297565b62002de7989796959493929190620045db565b604051809103906000f08015801562002e04573d6000803e3d6000fd5b509050806002600084815260200190815260200160002060006101000a81548173ffffffffffffffffffffffffffffffffffffffff021916908373ffffffffffffffffffffffffffffffffffffffff1602179055508a62002ee6578073ffffffffffffffffffffffffffffffffffffffff1663e99d2866336040518263ffffffff1660e01b815260040162002e9a9190620034b6565b6020604051808303816000875af115801562002eba573d6000803e3d6000fd5b505050506040513d601f19601f8201168201806040525081019062002ee0919062003c00565b62002f68565b8073ffffffffffffffffffffffffffffffffffffffff1663a3f09ad6336040518263ffffffff1660e01b815260040162002f219190620034b6565b6020604051808303816000875af115801562002f41573d6000803e3d6000fd5b505050506040513d601f19601f8201168201806040525081019062002f67919062003c00565b5b50819250505098975050505050505050565b8062002f8681620015e7565b73ffffffffffffffffffffffffffffffffffffffff163373ffffffffffffffffffffffffffffffffffffffff161462002ff6576040517f08c379a000000000000000000000000000000000000000000000000000000000815260040162002fed90620046b9565b60405180910390fd5b81600260048111156200300e576200300d620035a7565b5b62003019826200106b565b60048111156200302e576200302d620035a7565b5b1462003071576040517f08c379a000000000000000000000000000000000000000000000000000000000815260040162003068906200430c565b60405180910390fd5b60006200307e84620013e2565b42101580156200309e575060006200309685620014de565b63ffffffff16145b90506000620030ad85620013e2565b4210158015620030e75750600060066000878152602001908152602001600020600060028110620030e357620030e2620040dc565b5b0154145b90508080620030f35750815b62003135576040517f08c379a00000000000000000000000000000000000000000000000000000000081526004016200312c906200472b565b60405180910390fd5b620031408562000f80565b73ffffffffffffffffffffffffffffffffffffffff16632e49d78b60046040518263ffffffff1660e01b81526004016200317b919062003627565b6020604051808303816000875af11580156200319b573d6000803e3d6000fd5b505050506040513d601f19601f82011682018060405250810190620031c1919062003c5a565b505050505050565b60008183620031d991906200474d565b905092915050565b60005b6001811162003232576000600660008481526020019081526020016000208260028110620032175762003216620040dc565b5b018190555080806200322990620043a0565b915050620031e4565b5050565b600033905090565b6001816000016000828254019250508190555050565b600081600001549050919050565b6040518060200160405280600081525090565b6040518060a00160405280600590602082028036833780820191505090505090565b6114c980620047af83390190565b6000604051905090565b600080fd5b6000819050919050565b620032c981620032b4565b8114620032d557600080fd5b50565b600081359050620032e981620032be565b92915050565b60008060408385031215620033095762003308620032af565b5b60006200331985828601620032d8565b92505060206200332c85828601620032d8565b9150509250929050565b6200334181620032b4565b82525050565b60006020820190506200335e600083018462003336565b92915050565b6000602082840312156200337d576200337c620032af565b5b60006200338d84828501620032d8565b91505092915050565b60008115159050919050565b620033ad8162003396565b82525050565b6000602082019050620033ca6000830184620033a2565b92915050565b600063ffffffff82169050919050565b620033eb81620033d0565b82525050565b6000602082019050620034086000830184620033e0565b92915050565b600073ffffffffffffffffffffffffffffffffffffffff82169050919050565b60006200343b826200340e565b9050919050565b6200344d816200342e565b81146200345957600080fd5b50565b6000813590506200346d8162003442565b92915050565b6000602082840312156200348c576200348b620032af565b5b60006200349c848285016200345c565b91505092915050565b620034b0816200342e565b82525050565b6000602082019050620034cd6000830184620034a5565b92915050565b620034de81620032b4565b82525050565b602082016000820151620034fc6000850182620034d3565b50505050565b6000602082019050620035196000830184620034e4565b92915050565b6000819050919050565b60006200354a620035446200353e846200340e565b6200351f565b6200340e565b9050919050565b60006200355e8262003529565b9050919050565b6000620035728262003551565b9050919050565b620035848162003565565b82525050565b6000602082019050620035a1600083018462003579565b92915050565b7f4e487b7100000000000000000000000000000000000000000000000000000000600052602160045260246000fd5b60058110620035ea57620035e9620035a7565b5b50565b6000819050620035fd82620035d6565b919050565b60006200360f82620035ed565b9050919050565b620036218162003602565b82525050565b60006020820190506200363e600083018462003616565b92915050565b6200364f8162003396565b81146200365b57600080fd5b50565b6000813590506200366f8162003644565b92915050565b6200368081620033d0565b81146200368c57600080fd5b50565b600081359050620036a08162003675565b92915050565b600080600080600080600080610100898b031215620036ca57620036c9620032af565b5b6000620036da8b828c016200365e565b9850506020620036ed8b828c01620032d8565b9750506040620037008b828c01620032d8565b9650506060620037138b828c01620032d8565b9550506080620037268b828c01620032d8565b94505060a0620037398b828c01620032d8565b93505060c06200374c8b828c016200368f565b92505060e06200375f8b828c016200368f565b9150509295985092959890939650565b600060059050919050565b600081905092915050565b6000819050919050565b60006200379d8383620034d3565b60208301905092915050565b6000602082019050919050565b620037c1816200376f565b620037cd81846200377a565b9250620037da8262003785565b8060005b8381101562003811578151620037f587826200378f565b96506200380283620037a9565b925050600181019050620037de565b505050505050565b600060a082019050620038306000830184620037b6565b92915050565b6000620038438262003551565b9050919050565b620038558162003836565b82525050565b60006020820190506200387260008301846200384a565b92915050565b600082825260208201905092915050565b7f54686520686f73742063616e206e6f742063616c6c20746865206d6574686f64600082015250565b6000620038c160208362003878565b9150620038ce8262003889565b602082019050919050565b60006020820190508181036000830152620038f481620038b2565b9050919050565b6000815190506200390c8162003675565b92915050565b6000602082840312156200392b576200392a620032af565b5b60006200393b84828501620038fb565b91505092915050565b6000815190506200395581620032be565b92915050565b600060208284031215620039745762003973620032af565b5b6000620039848482850162003944565b91505092915050565b7f436c61696d20707269636520696e204344532073686f756c642062652068696760008201527f686572207468616e2063757272656e74207072696365206f6620617373657400602082015250565b6000620039eb603f8362003878565b9150620039f8826200398d565b604082019050919050565b6000602082019050818103600083015262003a1e81620039dc565b9050919050565b600060408201905062003a3c600083018562003336565b62003a4b602083018462003336565b9392505050565b600060408201905062003a696000830185620034a5565b62003a786020830184620034a5565b9392505050565b7f4e65656420616c6c6f77616e6365000000000000000000000000000000000000600082015250565b600062003ab7600e8362003878565b915062003ac48262003a7f565b602082019050919050565b6000602082019050818103600083015262003aea8162003aa8565b9050919050565b600060608201905062003b086000830186620034a5565b62003b176020830185620034a5565b62003b26604083018462003336565b949350505050565b60008151905062003b3f8162003644565b92915050565b60006020828403121562003b5e5762003b5d620032af565b5b600062003b6e8482850162003b2e565b91505092915050565b7f53656e64696e67207072656d69756d206661696c656400000000000000000000600082015250565b600062003baf60168362003878565b915062003bbc8262003b77565b602082019050919050565b6000602082019050818103600083015262003be28162003ba0565b9050919050565b60008151905062003bfa8162003442565b92915050565b60006020828403121562003c195762003c18620032af565b5b600062003c298482850162003be9565b91505092915050565b6005811062003c4057600080fd5b50565b60008151905062003c548162003c32565b92915050565b60006020828403121562003c735762003c72620032af565b5b600062003c838482850162003c43565b91505092915050565b7f496e76616c696420616464726573730000000000000000000000000000000000600082015250565b600062003cc4600f8362003878565b915062003cd18262003c8c565b602082019050919050565b6000602082019050818103600083015262003cf78162003cb5565b9050919050565b600060608201905062003d156000830186620033a2565b62003d24602083018562003336565b62003d336040830184620034a5565b949350505050565b600080fd5b6000601f19601f8301169050919050565b7f4e487b7100000000000000000000000000000000000000000000000000000000600052604160045260246000fd5b62003d8b8262003d40565b810181811067ffffffffffffffff8211171562003dad5762003dac62003d51565b5b80604052505050565b600062003dc2620032a5565b905062003dd0828262003d80565b919050565b600067ffffffffffffffff82111562003df35762003df262003d51565b5b602082029050919050565b600080fd5b600062003e1a62003e148462003dd5565b62003db6565b9050806020840283018581111562003e375762003e3662003dfe565b5b835b8181101562003e64578062003e4f888262003944565b84526020840193505060208101905062003e39565b5050509392505050565b600082601f83011262003e865762003e8562003d3b565b5b600562003e9584828562003e03565b91505092915050565b600060a0828403121562003eb75762003eb6620032af565b5b600062003ec78482850162003e6e565b91505092915050565b7f4f776e61626c653a206e6577206f776e657220697320746865207a65726f206160008201527f6464726573730000000000000000000000000000000000000000000000000000602082015250565b600062003f2e60268362003878565b915062003f3b8262003ed0565b604082019050919050565b6000602082019050818103600083015262003f618162003f1f565b9050919050565b7f54686520737461747573206f6620746865204344532073686f756c642062652060008201527f70656e64696e6700000000000000000000000000000000000000000000000000602082015250565b600062003fc660278362003878565b915062003fd38262003f68565b604082019050919050565b6000602082019050818103600083015262003ff98162003fb7565b9050919050565b7f4e487b7100000000000000000000000000000000000000000000000000000000600052601160045260246000fd5b60006200403c82620032b4565b91506200404983620032b4565b925082820190508082111562004064576200406362004000565b5b92915050565b7f496e76616c696420616c6c6f77616e636520666f72206465706f736974000000600082015250565b6000620040a2601d8362003878565b9150620040af826200406a565b602082019050919050565b60006020820190508181036000830152620040d58162004093565b9050919050565b7f4e487b7100000000000000000000000000000000000000000000000000000000600052603260045260246000fd5b6000604082019050620041226000830185620034a5565b62004131602083018462003336565b9392505050565b7f53656e64696e67206669727374207072656d69756d206661696c656400000000600082015250565b600062004170601c8362003878565b91506200417d8262004138565b602082019050919050565b60006020820190508181036000830152620041a38162004161565b9050919050565b6000620041b782620032b4565b9150620041c483620032b4565b9250828203905081811115620041df57620041de62004000565b5b92915050565b6000620041f282620033d0565b9150620041ff83620033d0565b9250828203905063ffffffff8111156200421e576200421d62004000565b5b92915050565b7f4f6e6c79206275796572206f6620746865204344532063616e2063616c6c0000600082015250565b60006200425c601e8362003878565b9150620042698262004224565b602082019050919050565b600060208201905081810360008301526200428f816200424d565b9050919050565b7f54686520737461747573206f6620746865204344532073686f756c642062652060008201527f6163746976650000000000000000000000000000000000000000000000000000602082015250565b6000620042f460268362003878565b9150620043018262004296565b604082019050919050565b600060208201905081810360008301526200432781620042e5565b9050919050565b7f53656e64696e67206465706f736974206261636b206661696c65640000000000600082015250565b600062004366601b8362003878565b915062004373826200432e565b602082019050919050565b60006020820190508181036000830152620043998162004357565b9050919050565b6000620043ad82620032b4565b91507fffffffffffffffffffffffffffffffffffffffffffffffffffffffffffffffff8203620043e257620043e162004000565b5b600182019050919050565b7f4f776e61626c653a2063616c6c6572206973206e6f7420746865206f776e6572600082015250565b60006200442560208362003878565b91506200443282620043ed565b602082019050919050565b60006020820190508181036000830152620044588162004416565b9050919050565b7f496e76616c696420706179206461746500000000000000000000000000000000600082015250565b60006200449760108362003878565b9150620044a4826200445f565b602082019050919050565b60006020820190508181036000830152620044ca8162004488565b9050919050565b7f53656e64696e6720726577617264206661696c65640000000000000000000000600082015250565b60006200450960158362003878565b91506200451682620044d1565b602082019050919050565b600060208201905081810360008301526200453c81620044fa565b9050919050565b7f4f6e6c792062757965722f73656c6c6572206f6620746865204344532063616e60008201527f2063616c6c000000000000000000000000000000000000000000000000000000602082015250565b6000620045a160258362003878565b9150620045ae8262004543565b604082019050919050565b60006020820190508181036000830152620045d48162004592565b9050919050565b600061010082019050620045f3600083018b62003336565b62004602602083018a62003336565b62004611604083018962003336565b62004620606083018862003336565b6200462f608083018762003336565b6200463e60a083018662003336565b6200464d60c0830185620033e0565b6200465c60e0830184620034a5565b9998505050505050505050565b7f4f6e6c792073656c6c6572206f6620746865204344532063616e2063616c6c00600082015250565b6000620046a1601f8362003878565b9150620046ae8262004669565b602082019050919050565b60006020820190508181036000830152620046d48162004692565b9050919050565b7f4275796572206465706f736974202f20526f756e64732072656d61696e696e67600082015250565b60006200471360208362003878565b91506200472082620046db565b602082019050919050565b60006020820190508181036000830152620047468162004704565b9050919050565b60006200475a82620032b4565b91506200476783620032b4565b9250817fffffffffffffffffffffffffffffffffffffffffffffffffffffffffffffffff0483118215151615620047a357620047a262004000565b5b82820290509291505056fe60806040523480156200001157600080fd5b50604051620014c9380380620014c9833981810160405281019062000037919062000375565b620000576200004b620001c360201b60201c565b620001cb60201b60201c565b87600281905550866003819055508560048190555084600581905550836006819055508260078190555081600960146101000a81548163ffffffff021916908363ffffffff16021790555081600960186101000a81548163ffffffff021916908363ffffffff1602179055506000600860006101000a81548173ffffffffffffffffffffffffffffffffffffffff021916908373ffffffffffffffffffffffffffffffffffffffff1602179055506000600960006101000a81548173ffffffffffffffffffffffffffffffffffffffff021916908373ffffffffffffffffffffffffffffffffffffffff16021790555060018060146101000a81548160ff021916908360048111156200016f576200016e6200043e565b5b021790555080600160006101000a81548173ffffffffffffffffffffffffffffffffffffffff021916908373ffffffffffffffffffffffffffffffffffffffff16021790555050505050505050506200046d565b600033905090565b60008060009054906101000a900473ffffffffffffffffffffffffffffffffffffffff169050816000806101000a81548173ffffffffffffffffffffffffffffffffffffffff021916908373ffffffffffffffffffffffffffffffffffffffff1602179055508173ffffffffffffffffffffffffffffffffffffffff168173ffffffffffffffffffffffffffffffffffffffff167f8be0079c531659141344cd1fd0a4f28419497f9722a3daafe3b4186f6b6457e060405160405180910390a35050565b600080fd5b6000819050919050565b620002a98162000294565b8114620002b557600080fd5b50565b600081519050620002c9816200029e565b92915050565b600063ffffffff82169050919050565b620002ea81620002cf565b8114620002f657600080fd5b50565b6000815190506200030a81620002df565b92915050565b600073ffffffffffffffffffffffffffffffffffffffff82169050919050565b60006200033d8262000310565b9050919050565b6200034f8162000330565b81146200035b57600080fd5b50565b6000815190506200036f8162000344565b92915050565b600080600080600080600080610100898b0312156200039957620003986200028f565b5b6000620003a98b828c01620002b8565b9850506020620003bc8b828c01620002b8565b9750506040620003cf8b828c01620002b8565b9650506060620003e28b828c01620002b8565b9550506080620003f58b828c01620002b8565b94505060a0620004088b828c01620002b8565b93505060c06200041b8b828c01620002f9565b92505060e06200042e8b828c016200035e565b9150509295985092959890939650565b7f4e487b7100000000000000000000000000000000000000000000000000000000600052602160045260246000fd5b61104c806200047d6000396000f3fe608060405234801561001057600080fd5b50600436106101375760003560e01c8063a2e800ad116100b8578063d2895e931161007c578063d2895e9314610320578063dbd0e1b614610350578063e0a73a931461036e578063e99d28661461038c578063f26cc58e146103bc578063f2fde38b146103da57610137565b8063a2e800ad14610266578063a3f09ad614610284578063b6fc2d5f146102b4578063bd9a548b146102d2578063bef904e3146102f057610137565b8063715018a6116100ff578063715018a6146101e457806386be75b7146101ee5780638a5682991461020c5780638da5cb5b1461022a578063947a36fb1461024857610137565b806315d655c91461013c578063200d2ed21461015a5780632e49d78b146101785780634c1786ea146101a8578063603daf9a146101c6575b600080fd5b6101446103f6565b6040516101519190610a3d565b60405180910390f35b6101626103fc565b60405161016f9190610acf565b60405180910390f35b610192600480360381019061018d9190610b14565b61040f565b60405161019f9190610acf565b60405180910390f35b6101b061045a565b6040516101bd9190610a3d565b60405180910390f35b6101ce610460565b6040516101db9190610b82565b60405180910390f35b6101ec61048a565b005b6101f661049e565b6040516102039190610a3d565b60405180910390f35b6102146104a4565b6040516102219190610bbc565b60405180910390f35b6102326104ba565b60405161023f9190610b82565b60405180910390f35b6102506104e3565b60405161025d9190610a3d565b60405180910390f35b61026e6104e9565b60405161027b9190610bbc565b60405180910390f35b61029e60048036038101906102999190610c03565b6104ff565b6040516102ab9190610b82565b60405180910390f35b6102bc610574565b6040516102c99190610a3d565b60405180910390f35b6102da61057a565b6040516102e79190610cdb565b60405180910390f35b61030a60048036038101906103059190610d22565b6105b8565b6040516103179190610a3d565b60405180910390f35b61033a60048036038101906103359190610d7b565b6105cb565b6040516103479190610bbc565b60405180910390f35b610358610610565b6040516103659190610b82565b60405180910390f35b61037661063a565b6040516103839190610a3d565b60405180910390f35b6103a660048036038101906103a19190610c03565b610640565b6040516103b39190610b82565b60405180910390f35b6103c46106b5565b6040516103d19190610a3d565b60405180910390f35b6103f460048036038101906103ef9190610c03565b610783565b005b60035481565b600160149054906101000a900460ff1681565b6000610419610806565b81600160146101000a81548160ff0219169083600481111561043e5761043d610a58565b5b0217905550600160149054906101000a900460ff169050919050565b60065481565b6000600860009054906101000a900473ffffffffffffffffffffffffffffffffffffffff16905090565b610492610806565b61049c6000610884565b565b60025481565b600960189054906101000a900463ffffffff1681565b60008060009054906101000a900473ffffffffffffffffffffffffffffffffffffffff16905090565b60075481565b600960149054906101000a900463ffffffff1681565b6000610509610806565b81600860006101000a81548173ffffffffffffffffffffffffffffffffffffffff021916908373ffffffffffffffffffffffffffffffffffffffff160217905550600860009054906101000a900473ffffffffffffffffffffffffffffffffffffffff169050919050565b60045481565b610582610a02565b6040518060a001604052806002548152602001600354815260200160045481526020016005548152602001600654815250905090565b6000816002819055506002549050919050565b60006105d5610806565b81600960146101000a81548163ffffffff021916908363ffffffff160217905550600960149054906101000a900463ffffffff169050919050565b6000600960009054906101000a900473ffffffffffffffffffffffffffffffffffffffff16905090565b60055481565b600061064a610806565b81600960006101000a81548173ffffffffffffffffffffffffffffffffffffffff021916908373ffffffffffffffffffffffffffffffffffffffff160217905550600960009054906101000a900473ffffffffffffffffffffffffffffffffffffffff169050919050565b600080600160009054906101000a900473ffffffffffffffffffffffffffffffffffffffff1673ffffffffffffffffffffffffffffffffffffffff1663a035b1fe6040518163ffffffff1660e01b8152600401602060405180830381865afa158015610725573d6000803e3d6000fd5b505050506040513d601f19601f820116820180604052508101906107499190610dbd565b905080600354101561075f576000915050610780565b61077c60045460025483600654610948909392919063ffffffff16565b9150505b90565b61078b610806565b600073ffffffffffffffffffffffffffffffffffffffff168173ffffffffffffffffffffffffffffffffffffffff16036107fa576040517f08c379a00000000000000000000000000000000000000000000000000000000081526004016107f190610e6d565b60405180910390fd5b61080381610884565b50565b61080e6109b8565b73ffffffffffffffffffffffffffffffffffffffff1661082c6104ba565b73ffffffffffffffffffffffffffffffffffffffff1614610882576040517f08c379a000000000000000000000000000000000000000000000000000000000815260040161087990610ed9565b60405180910390fd5b565b60008060009054906101000a900473ffffffffffffffffffffffffffffffffffffffff169050816000806101000a81548173ffffffffffffffffffffffffffffffffffffffff021916908373ffffffffffffffffffffffffffffffffffffffff1602179055508173ffffffffffffffffffffffffffffffffffffffff168173ffffffffffffffffffffffffffffffffffffffff167f8be0079c531659141344cd1fd0a4f28419497f9722a3daafe3b4186f6b6457e060405160405180910390a35050565b60008082851061095a578590506109ac565b600061098161097287876109c090919063ffffffff16565b886109d690919063ffffffff16565b90506109a861099985876109c090919063ffffffff16565b826109ec90919063ffffffff16565b9150505b80915050949350505050565b600033905090565b600081836109ce9190610f28565b905092915050565b600081836109e49190610f8b565b905092915050565b600081836109fa9190610fbc565b905092915050565b6040518060a00160405280600590602082028036833780820191505090505090565b6000819050919050565b610a3781610a24565b82525050565b6000602082019050610a526000830184610a2e565b92915050565b7f4e487b7100000000000000000000000000000000000000000000000000000000600052602160045260246000fd5b60058110610a9857610a97610a58565b5b50565b6000819050610aa982610a87565b919050565b6000610ab982610a9b565b9050919050565b610ac981610aae565b82525050565b6000602082019050610ae46000830184610ac0565b92915050565b600080fd5b60058110610afc57600080fd5b50565b600081359050610b0e81610aef565b92915050565b600060208284031215610b2a57610b29610aea565b5b6000610b3884828501610aff565b91505092915050565b600073ffffffffffffffffffffffffffffffffffffffff82169050919050565b6000610b6c82610b41565b9050919050565b610b7c81610b61565b82525050565b6000602082019050610b976000830184610b73565b92915050565b600063ffffffff82169050919050565b610bb681610b9d565b82525050565b6000602082019050610bd16000830184610bad565b92915050565b610be081610b61565b8114610beb57600080fd5b50565b600081359050610bfd81610bd7565b92915050565b600060208284031215610c1957610c18610aea565b5b6000610c2784828501610bee565b91505092915050565b600060059050919050565b600081905092915050565b6000819050919050565b610c5981610a24565b82525050565b6000610c6b8383610c50565b60208301905092915050565b6000602082019050919050565b610c8d81610c30565b610c978184610c3b565b9250610ca282610c46565b8060005b83811015610cd3578151610cba8782610c5f565b9650610cc583610c77565b925050600181019050610ca6565b505050505050565b600060a082019050610cf06000830184610c84565b92915050565b610cff81610a24565b8114610d0a57600080fd5b50565b600081359050610d1c81610cf6565b92915050565b600060208284031215610d3857610d37610aea565b5b6000610d4684828501610d0d565b91505092915050565b610d5881610b9d565b8114610d6357600080fd5b50565b600081359050610d7581610d4f565b92915050565b600060208284031215610d9157610d90610aea565b5b6000610d9f84828501610d66565b91505092915050565b600081519050610db781610cf6565b92915050565b600060208284031215610dd357610dd2610aea565b5b6000610de184828501610da8565b91505092915050565b600082825260208201905092915050565b7f4f776e61626c653a206e6577206f776e657220697320746865207a65726f206160008201527f6464726573730000000000000000000000000000000000000000000000000000602082015250565b6000610e57602683610dea565b9150610e6282610dfb565b604082019050919050565b60006020820190508181036000830152610e8681610e4a565b9050919050565b7f4f776e61626c653a2063616c6c6572206973206e6f7420746865206f776e6572600082015250565b6000610ec3602083610dea565b9150610ece82610e8d565b602082019050919050565b60006020820190508181036000830152610ef281610eb6565b9050919050565b7f4e487b7100000000000000000000000000000000000000000000000000000000600052601160045260246000fd5b6000610f3382610a24565b9150610f3e83610a24565b9250828203905081811115610f5657610f55610ef9565b5b92915050565b7f4e487b7100000000000000000000000000000000000000000000000000000000600052601260045260246000fd5b6000610f9682610a24565b9150610fa183610a24565b925082610fb157610fb0610f5c565b5b828204905092915050565b6000610fc782610a24565b9150610fd283610a24565b9250817fffffffffffffffffffffffffffffffffffffffffffffffffffffffffffffffff048311821515161561100b5761100a610ef9565b5b82820290509291505056fea2646970667358221220ed501b3af40163ea4d40f92cc9adf6baf6bf700beb8777d90ca28d92d1e1b2e764736f6c63430008100033a264697066735822122033f33f3a575269b7e089c4039f6288ffe70da394b289bae5c437452634a075ff64736f6c63430008100033",
  "immutableReferences": {},
  "source": "// SPDX-License-Identifier: MIT\npragma solidity ^0.8.7;\n\nimport './Handler/AssetHandler.sol';\nimport '@openzeppelin/contracts/token/ERC20/ERC20.sol';\nimport '@openzeppelin/contracts/utils/math/SafeMath.sol';\n\ninterface CDSInterface {\n  function create(\n    bool isBuyer,\n    uint256 initAssetPrice,\n    uint256 claimPrice,\n    uint256 liquidationPrice,\n    uint256 sellerDeposit,\n    uint256 premium,\n    uint32 premiumInterval,\n    uint32 totalRounds\n  ) external returns (uint256);\n\n  function accept(\n    uint256 initAssetPrice,\n    uint256 swapId\n  ) external returns (uint256);\n\n  function cancel(uint256 swapId) external returns (bool);\n\n  function close(uint256 swapId) external returns (bool);\n\n  function claim(uint256 swapId) external returns (bool);\n\n  function expire(uint256 swapId) external returns (bool);\n\n  function payPremium(uint256 swapId) external returns (bool);\n\n  event Create(\n    address indexed hostAddr,\n    bool isBuyer,\n    uint256 swapId,\n    address swap\n  );\n  event Accept(address indexed guestAddr, uint256 swapId);\n  event Cancel(uint256 swapId);\n  event Claim(uint256 swapId, uint256 claimReward);\n  event Close(uint256 swapId);\n  event Expire(uint256 swapId);\n  event PayPremium(uint256 swapId);\n}\n\ncontract CDS is AssetHandler, CDSInterface {\n  // transactions\n  function create(\n    bool isBuyer,\n    uint256 initAssetPrice,\n    uint256 claimPrice,\n    uint256 liquidationPrice,\n    uint256 sellerDeposit,\n    uint256 premium,\n    uint32 premiumInterval,\n    uint32 totalRounds\n  ) external override returns (uint256) {\n    uint256 newSwapId = _create(\n      isBuyer,\n      initAssetPrice,\n      claimPrice,\n      liquidationPrice,\n      sellerDeposit,\n      premium,\n      premiumInterval,\n      totalRounds\n    );\n    // *4  *3 deposit, *1  accept seller .\n    // _afterDeposit(newSwapId, isBuyer);\n    _sendDeposit(newSwapId, isBuyer);\n    emit Create(msg.sender, isBuyer, newSwapId, address(getSwap(newSwapId)));\n    return newSwapId;\n  }\n\n  function accept(\n    uint256 initAssetPrice,\n    uint256 swapId\n  ) external override returns (uint256) {\n    require(\n      msg.sender != getBuyer(swapId) && msg.sender != getSeller(swapId),\n      'The host can not call the method'\n    );\n\n    bool isSeller = (getSeller(swapId) == address(0));\n    uint256 acceptedSwapId = _accept(isSeller, initAssetPrice, swapId);\n    // _afterDeposit(swapId, !isSeller);\n    _sendDeposit(swapId, !isSeller);\n    _sendFirstPremium(swapId);\n    emit Accept(msg.sender, acceptedSwapId);\n    return acceptedSwapId;\n  }\n\n  function cancel(uint256 swapId) external override returns (bool) {\n    _cancel(swapId);\n    _endSwap(swapId);\n    emit Cancel(swapId);\n    return true;\n  }\n\n  function close(uint256 swapId) external override returns (bool) {\n    _close(swapId);\n    _endSwap(swapId);\n    emit Close(swapId);\n    return true;\n  }\n\n  function claim(uint256 swapId) external override returns (bool) {\n    require(\n      getSwap(swapId).getClaimReward() != 0,\n      'Claim price in CDS should be higher than current price of asset'\n    );\n    _claim(swapId);\n    uint256 claimReward = _afterClaim(swapId);\n    emit Claim(swapId, claimReward);\n    return true;\n  }\n\n  // total Rounds  seller  =>  deposit .    claimable ?\n  // buyer Deposit = 0 , nextPayDate    seller  =>  deposit \n  function expire(uint256 swapId) external override returns (bool) {\n    _expire(swapId);\n    _endSwap(swapId);\n    emit Expire(swapId);\n    return true;\n  }\n\n  // approve  . => allowance  \n  function payPremium(uint256 swapId) external override returns (bool) {\n    require(\n      token.allowance(getBuyer(swapId), address(this)) == getPremium(swapId),\n      'Need allowance'\n    );\n    _payPremium(swapId);\n    bool sent = token.transferFrom(\n      getBuyer(swapId),\n      getSeller(swapId),\n      getPremium(swapId)\n    );\n    require(sent, 'Sending premium failed');\n    emit PayPremium(swapId);\n    return true;\n  }\n\n  // called by server? seller?\n  function payPremiumByDeposit(\n    uint256 swapId\n  ) external onlyOwner returns (bool) {\n    _payPremium(swapId);\n    return true;\n  }\n\n  // modifiers\n  // modifier isNotOwner() {\n  //   require(msg.sender != owner(), 'Owner can not call the method');\n  //   _;\n  // }\n}\n",
  "sourcePath": "/Users/sdh/Study/BEB_07/projects/CDS/contract/contracts/CDS.sol",
  "compiler": {
    "name": "solc",
    "version": "0.8.16+commit.07a7930e.Emscripten.clang"
  },
  "schemaVersion": "3.4.9",
  "updatedAt": "2023-02-08T06:03:24.527Z",
  "networkType": "ethereum",
  "devdoc": {
    "kind": "dev",
    "methods": {
      "owner()": {
        "details": "Returns the address of the current owner."
      },
      "renounceOwnership()": {
        "details": "Leaves the contract without owner. It will not be possible to call `onlyOwner` functions anymore. Can only be called by the current owner. NOTE: Renouncing ownership will leave the contract without an owner, thereby removing any functionality that is only available to the owner."
      },
      "transferOwnership(address)": {
        "details": "Transfers ownership of the contract to a new account (`newOwner`). Can only be called by the current owner."
      }
    },
    "version": 1
  },
  "userdoc": {
    "kind": "user",
    "methods": {},
    "version": 1
  }
}