{
  "contractName": "CDS",
  "abi": [
    {
      "inputs": [],
      "stateMutability": "payable",
      "type": "constructor",
      "payable": true
    },
    {
      "anonymous": false,
      "inputs": [
        {
          "indexed": true,
          "internalType": "address",
          "name": "seller",
          "type": "address"
        },
        {
          "indexed": false,
          "internalType": "uint256",
          "name": "swapId",
          "type": "uint256"
        },
        {
          "indexed": false,
          "internalType": "uint256",
          "name": "sellerDeposit",
          "type": "uint256"
        }
      ],
      "name": "AcceptSwap",
      "type": "event"
    },
    {
      "anonymous": false,
      "inputs": [
        {
          "indexed": false,
          "internalType": "uint256",
          "name": "swapId",
          "type": "uint256"
        },
        {
          "indexed": false,
          "internalType": "address",
          "name": "buyer",
          "type": "address"
        }
      ],
      "name": "CancelSwap",
      "type": "event"
    },
    {
      "anonymous": false,
      "inputs": [
        {
          "indexed": false,
          "internalType": "uint256",
          "name": "swapId",
          "type": "uint256"
        },
        {
          "indexed": false,
          "internalType": "address",
          "name": "buyer",
          "type": "address"
        },
        {
          "indexed": false,
          "internalType": "address",
          "name": "seller",
          "type": "address"
        },
        {
          "indexed": false,
          "internalType": "uint256",
          "name": "claimReward",
          "type": "uint256"
        }
      ],
      "name": "ClaimSwap",
      "type": "event"
    },
    {
      "anonymous": false,
      "inputs": [
        {
          "indexed": false,
          "internalType": "uint256",
          "name": "swapId",
          "type": "uint256"
        },
        {
          "indexed": false,
          "internalType": "address",
          "name": "buyer",
          "type": "address"
        },
        {
          "indexed": false,
          "internalType": "address",
          "name": "seller",
          "type": "address"
        }
      ],
      "name": "CloseSwap",
      "type": "event"
    },
    {
      "anonymous": false,
      "inputs": [
        {
          "indexed": true,
          "internalType": "address",
          "name": "hostAddr",
          "type": "address"
        },
        {
          "indexed": false,
          "internalType": "bool",
          "name": "isBuyer",
          "type": "bool"
        },
        {
          "indexed": false,
          "internalType": "uint256",
          "name": "swapId",
          "type": "uint256"
        },
        {
          "indexed": false,
          "internalType": "uint256",
          "name": "initAssetPrice",
          "type": "uint256"
        },
        {
          "indexed": false,
          "internalType": "uint256",
          "name": "claimPrice",
          "type": "uint256"
        },
        {
          "indexed": false,
          "internalType": "uint256",
          "name": "liquidationPrice",
          "type": "uint256"
        },
        {
          "indexed": false,
          "internalType": "uint256",
          "name": "premium",
          "type": "uint256"
        },
        {
          "indexed": false,
          "internalType": "uint256",
          "name": "premiumInterval",
          "type": "uint256"
        },
        {
          "indexed": false,
          "internalType": "uint256",
          "name": "buyerDeposit",
          "type": "uint256"
        }
      ],
      "name": "CreateSwap",
      "type": "event"
    },
    {
      "anonymous": false,
      "inputs": [
        {
          "indexed": true,
          "internalType": "address",
          "name": "previousOwner",
          "type": "address"
        },
        {
          "indexed": true,
          "internalType": "address",
          "name": "newOwner",
          "type": "address"
        }
      ],
      "name": "OwnershipTransferred",
      "type": "event"
    },
    {
      "inputs": [
        {
          "internalType": "uint256",
          "name": "swapId",
          "type": "uint256"
        }
      ],
      "name": "getBuyer",
      "outputs": [
        {
          "components": [
            {
              "internalType": "address",
              "name": "addr",
              "type": "address"
            },
            {
              "internalType": "uint256",
              "name": "deposit",
              "type": "uint256"
            },
            {
              "internalType": "uint256",
              "name": "lastPayDate",
              "type": "uint256"
            },
            {
              "internalType": "uint256",
              "name": "nextPayDate",
              "type": "uint256"
            }
          ],
          "internalType": "struct Swaps.Buyer",
          "name": "",
          "type": "tuple"
        }
      ],
      "stateMutability": "view",
      "type": "function",
      "constant": true
    },
    {
      "inputs": [
        {
          "internalType": "uint256",
          "name": "swapId",
          "type": "uint256"
        }
      ],
      "name": "getClaimReward",
      "outputs": [
        {
          "internalType": "uint256",
          "name": "",
          "type": "uint256"
        }
      ],
      "stateMutability": "view",
      "type": "function",
      "constant": true
    },
    {
      "inputs": [],
      "name": "getPriceFromOracle",
      "outputs": [
        {
          "internalType": "uint256",
          "name": "",
          "type": "uint256"
        }
      ],
      "stateMutability": "view",
      "type": "function",
      "constant": true
    },
    {
      "inputs": [
        {
          "internalType": "uint256",
          "name": "swapId",
          "type": "uint256"
        }
      ],
      "name": "getSeller",
      "outputs": [
        {
          "components": [
            {
              "internalType": "address",
              "name": "addr",
              "type": "address"
            },
            {
              "internalType": "uint256",
              "name": "deposit",
              "type": "uint256"
            },
            {
              "internalType": "bool",
              "name": "isDeposited",
              "type": "bool"
            }
          ],
          "internalType": "struct Swaps.Seller",
          "name": "",
          "type": "tuple"
        }
      ],
      "stateMutability": "view",
      "type": "function",
      "constant": true
    },
    {
      "inputs": [
        {
          "internalType": "uint256",
          "name": "swapId",
          "type": "uint256"
        }
      ],
      "name": "getSwap",
      "outputs": [
        {
          "components": [
            {
              "components": [
                {
                  "internalType": "address",
                  "name": "addr",
                  "type": "address"
                },
                {
                  "internalType": "uint256",
                  "name": "deposit",
                  "type": "uint256"
                },
                {
                  "internalType": "uint256",
                  "name": "lastPayDate",
                  "type": "uint256"
                },
                {
                  "internalType": "uint256",
                  "name": "nextPayDate",
                  "type": "uint256"
                }
              ],
              "internalType": "struct Swaps.Buyer",
              "name": "buyer",
              "type": "tuple"
            },
            {
              "components": [
                {
                  "internalType": "address",
                  "name": "addr",
                  "type": "address"
                },
                {
                  "internalType": "uint256",
                  "name": "deposit",
                  "type": "uint256"
                },
                {
                  "internalType": "bool",
                  "name": "isDeposited",
                  "type": "bool"
                }
              ],
              "internalType": "struct Swaps.Seller",
              "name": "seller",
              "type": "tuple"
            },
            {
              "internalType": "uint256",
              "name": "initAssetPrice",
              "type": "uint256"
            },
            {
              "internalType": "uint256",
              "name": "claimPrice",
              "type": "uint256"
            },
            {
              "internalType": "uint256",
              "name": "liquidationPrice",
              "type": "uint256"
            },
            {
              "internalType": "uint256",
              "name": "premium",
              "type": "uint256"
            },
            {
              "internalType": "uint32",
              "name": "premiumInterval",
              "type": "uint32"
            }
          ],
          "internalType": "struct Swaps.Swap",
          "name": "",
          "type": "tuple"
        }
      ],
      "stateMutability": "view",
      "type": "function",
      "constant": true
    },
    {
      "inputs": [],
      "name": "getSwapId",
      "outputs": [
        {
          "components": [
            {
              "internalType": "uint256",
              "name": "_value",
              "type": "uint256"
            }
          ],
          "internalType": "struct Counters.Counter",
          "name": "",
          "type": "tuple"
        }
      ],
      "stateMutability": "view",
      "type": "function",
      "constant": true
    },
    {
      "inputs": [
        {
          "internalType": "uint256",
          "name": "swapId",
          "type": "uint256"
        }
      ],
      "name": "getSwapStatus",
      "outputs": [
        {
          "internalType": "enum Swaps.swapStatus",
          "name": "",
          "type": "uint8"
        }
      ],
      "stateMutability": "view",
      "type": "function",
      "constant": true
    },
    {
      "inputs": [],
      "name": "owner",
      "outputs": [
        {
          "internalType": "address",
          "name": "",
          "type": "address"
        }
      ],
      "stateMutability": "view",
      "type": "function",
      "constant": true
    },
    {
      "inputs": [],
      "name": "renounceOwnership",
      "outputs": [],
      "stateMutability": "nonpayable",
      "type": "function"
    },
    {
      "inputs": [
        {
          "internalType": "address",
          "name": "_priceOracleAddress",
          "type": "address"
        }
      ],
      "name": "setOracle",
      "outputs": [
        {
          "internalType": "bool",
          "name": "",
          "type": "bool"
        }
      ],
      "stateMutability": "nonpayable",
      "type": "function"
    },
    {
      "inputs": [
        {
          "internalType": "address",
          "name": "newOwner",
          "type": "address"
        }
      ],
      "name": "transferOwnership",
      "outputs": [],
      "stateMutability": "nonpayable",
      "type": "function"
    },
    {
      "stateMutability": "payable",
      "type": "receive",
      "payable": true
    },
    {
      "inputs": [
        {
          "internalType": "bool",
          "name": "isBuyer",
          "type": "bool"
        },
        {
          "internalType": "uint256",
          "name": "initAssetPrice",
          "type": "uint256"
        },
        {
          "internalType": "uint256",
          "name": "claimPrice",
          "type": "uint256"
        },
        {
          "internalType": "uint256",
          "name": "liquidationPrice",
          "type": "uint256"
        },
        {
          "internalType": "uint256",
          "name": "sellerDeposit",
          "type": "uint256"
        },
        {
          "internalType": "uint256",
          "name": "premium",
          "type": "uint256"
        },
        {
          "internalType": "uint32",
          "name": "premiumInterval",
          "type": "uint32"
        }
      ],
      "name": "createSwap",
      "outputs": [
        {
          "internalType": "uint256",
          "name": "",
          "type": "uint256"
        }
      ],
      "stateMutability": "payable",
      "type": "function",
      "payable": true
    },
    {
      "inputs": [
        {
          "internalType": "uint256",
          "name": "deposit",
          "type": "uint256"
        }
      ],
      "name": "_sendDeposit",
      "outputs": [
        {
          "internalType": "bool",
          "name": "",
          "type": "bool"
        }
      ],
      "stateMutability": "payable",
      "type": "function",
      "payable": true
    },
    {
      "inputs": [
        {
          "internalType": "uint256",
          "name": "initAssetPrice",
          "type": "uint256"
        },
        {
          "internalType": "uint256",
          "name": "swapId",
          "type": "uint256"
        }
      ],
      "name": "acceptSwap",
      "outputs": [
        {
          "internalType": "uint256",
          "name": "",
          "type": "uint256"
        }
      ],
      "stateMutability": "payable",
      "type": "function",
      "payable": true
    },
    {
      "inputs": [
        {
          "internalType": "uint256",
          "name": "swapId",
          "type": "uint256"
        }
      ],
      "name": "cancelSwap",
      "outputs": [
        {
          "internalType": "bool",
          "name": "",
          "type": "bool"
        }
      ],
      "stateMutability": "nonpayable",
      "type": "function"
    },
    {
      "inputs": [
        {
          "internalType": "uint256",
          "name": "swapId",
          "type": "uint256"
        }
      ],
      "name": "closeSwap",
      "outputs": [
        {
          "internalType": "bool",
          "name": "",
          "type": "bool"
        }
      ],
      "stateMutability": "nonpayable",
      "type": "function"
    },
    {
      "inputs": [
        {
          "internalType": "uint256",
          "name": "swapId",
          "type": "uint256"
        }
      ],
      "name": "payPremium",
      "outputs": [
        {
          "internalType": "bool",
          "name": "",
          "type": "bool"
        }
      ],
      "stateMutability": "payable",
      "type": "function",
      "payable": true
    },
    {
      "inputs": [
        {
          "internalType": "uint256",
          "name": "swapId",
          "type": "uint256"
        }
      ],
      "name": "claimSwap",
      "outputs": [
        {
          "internalType": "bool",
          "name": "",
          "type": "bool"
        }
      ],
      "stateMutability": "nonpayable",
      "type": "function"
    },
    {
      "inputs": [],
      "name": "getContractBalance",
      "outputs": [
        {
          "internalType": "uint256",
          "name": "",
          "type": "uint256"
        }
      ],
      "stateMutability": "view",
      "type": "function",
      "constant": true
    }
  ],
  "bytecode": "0x608060405262000024620000186200002a60201b60201c565b6200003260201b60201c565b620000f8565b600033905090565b6000600460009054906101000a900473ffffffffffffffffffffffffffffffffffffffff16905081600460006101000a81548173ffffffffffffffffffffffffffffffffffffffff021916908373ffffffffffffffffffffffffffffffffffffffff1602179055508173ffffffffffffffffffffffffffffffffffffffff168173ffffffffffffffffffffffffffffffffffffffff167f8be0079c531659141344cd1fd0a4f28419497f9722a3daafe3b4186f6b6457e060405160405180910390a35050565b61311680620001086000396000f3fe6080604052600436106101185760003560e01c8063715018a6116100a0578063be06fba011610064578063be06fba0146103d8578063d6a9de5114610415578063e43c520d14610452578063ee5966081461048f578063f2fde38b146104cc5761011f565b8063715018a6146102ec5780637adbf973146103035780638da5cb5b1461034057806390b15cf31461036b5780639671ea9f1461039b5761011f565b8063496ab39a116100e7578063496ab39a146101df5780634a0d89ba1461020a57806354d6a2b7146102475780635bf608b8146102845780636f9fb98a146102c15761011f565b806316f9baeb146101245780631cfa82951461015457806338f5a491146101845780634364b26e146101af5761011f565b3661011f57005b600080fd5b61013e60048036038101906101399190612171565b6104f5565b60405161014b91906121b9565b60405180910390f35b61016e600480360381019061016991906121d4565b6105ef565b60405161017b9190612223565b60405180910390f35b34801561019057600080fd5b506101996108c4565b6040516101a69190612223565b60405180910390f35b6101c960048036038101906101c49190612171565b61095f565b6040516101d691906121b9565b60405180910390f35b3480156101eb57600080fd5b506101f4610bac565b6040516102019190612269565b60405180910390f35b34801561021657600080fd5b50610231600480360381019061022c9190612171565b610bd0565b60405161023e919061241d565b60405180910390f35b34801561025357600080fd5b5061026e60048036038101906102699190612171565b610d62565b60405161027b91906121b9565b60405180910390f35b34801561029057600080fd5b506102ab60048036038101906102a69190612171565b61101a565b6040516102b8919061248e565b60405180910390f35b3480156102cd57600080fd5b506102d6611036565b6040516102e39190612223565b60405180910390f35b3480156102f857600080fd5b5061030161103e565b005b34801561030f57600080fd5b5061032a600480360381019061032591906124d5565b611052565b60405161033791906121b9565b60405180910390f35b34801561034c57600080fd5b5061035561110b565b6040516103629190612511565b60405180910390f35b61038560048036038101906103809190612584565b611135565b6040516103929190612223565b60405180910390f35b3480156103a757600080fd5b506103c260048036038101906103bd9190612171565b61126d565b6040516103cf91906121b9565b60405180910390f35b3480156103e457600080fd5b506103ff60048036038101906103fa9190612171565b61161f565b60405161040c9190612223565b60405180910390f35b34801561042157600080fd5b5061043c60048036038101906104379190612171565b61168d565b6040516104499190612668565b60405180910390f35b34801561045e57600080fd5b5061047960048036038101906104749190612171565b6116a9565b60405161048691906121b9565b60405180910390f35b34801561049b57600080fd5b506104b660048036038101906104b19190612171565b6119a4565b6040516104c391906126fa565b60405180910390f35b3480156104d857600080fd5b506104f360048036038101906104ee91906124d5565b6119ce565b005b6000348214610539576040517f08c379a000000000000000000000000000000000000000000000000000000000815260040161053090612772565b60405180910390fd5b60003073ffffffffffffffffffffffffffffffffffffffff163460405161055f906127c3565b60006040518083038185875af1925050503d806000811461059c576040519150601f19603f3d011682016040523d82523d6000602084013e6105a1565b606091505b50509050806105e5576040517f08c379a00000000000000000000000000000000000000000000000000000000081526004016105dc90612824565b60405180910390fd5b6001915050919050565b60006105f961110b565b73ffffffffffffffffffffffffffffffffffffffff163373ffffffffffffffffffffffffffffffffffffffff1603610666576040517f08c379a000000000000000000000000000000000000000000000000000000000815260040161065d90612890565b60405180910390fd5b816001600381111561067b5761067a612683565b5b6003600083815260200190815260200160002060009054906101000a900460ff1660038111156106ae576106ad612683565b5b146106ee576040517f08c379a00000000000000000000000000000000000000000000000000000000081526004016106e590612922565b60405180910390fd5b6106f78361101a565b6000015173ffffffffffffffffffffffffffffffffffffffff163373ffffffffffffffffffffffffffffffffffffffff161415801561076e575061073a8361168d565b6000015173ffffffffffffffffffffffffffffffffffffffff163373ffffffffffffffffffffffffffffffffffffffff1614155b6107ad576040517f08c379a00000000000000000000000000000000000000000000000000000000081526004016107a49061298e565b60405180910390fd5b60008073ffffffffffffffffffffffffffffffffffffffff166107cf8561168d565b6000015173ffffffffffffffffffffffffffffffffffffffff16149050600060016107f98661168d565b6020015161080791906129dd565b90506000600161082d600361081b89610bd0565b60a00151611a5190919063ffffffff16565b61083791906129dd565b90508261084c57610847816104f5565b610856565b610855826104f5565b5b506000610864848989611a67565b90503373ffffffffffffffffffffffffffffffffffffffff167fbf5d5a04310e5165179d0106e6b639639a6a9b1c293019f5ba0a10f6eb11cb8e82856040516108ae929190612a37565b60405180910390a2809550505050505092915050565b60008060008054906101000a900473ffffffffffffffffffffffffffffffffffffffff1673ffffffffffffffffffffffffffffffffffffffff166398d5fdca6040518163ffffffff1660e01b8152600401602060405180830381865afa158015610932573d6000803e3d6000fd5b505050506040513d601f19601f820116820180604052508101906109569190612a75565b90508091505090565b6000816002600082815260200190815260200160002060000160000160009054906101000a900473ffffffffffffffffffffffffffffffffffffffff1673ffffffffffffffffffffffffffffffffffffffff163373ffffffffffffffffffffffffffffffffffffffff1614610a09576040517f08c379a0000000000000000000000000000000000000000000000000000000008152600401610a0090612aee565b60405180910390fd5b8260026003811115610a1e57610a1d612683565b5b6003600083815260200190815260200160002060009054906101000a900460ff166003811115610a5157610a50612683565b5b14610a91576040517f08c379a0000000000000000000000000000000000000000000000000000000008152600401610a8890612922565b60405180910390fd5b610a9a84610bd0565b60a001513414610adf576040517f08c379a0000000000000000000000000000000000000000000000000000000008152600401610ad690612b5a565b60405180910390fd5b6000610aea8561168d565b6000015173ffffffffffffffffffffffffffffffffffffffff1634604051610b11906127c3565b60006040518083038185875af1925050503d8060008114610b4e576040519150601f19603f3d011682016040523d82523d6000602084013e610b53565b606091505b5050905080610b97576040517f08c379a0000000000000000000000000000000000000000000000000000000008152600401610b8e90612bc6565b60405180910390fd5b610ba085611b29565b60019350505050919050565b610bb461205d565b6001604051806020016040529081600082015481525050905090565b610bd8612070565b600260008381526020019081526020016000206040518060e0016040529081600082016040518060800160405290816000820160009054906101000a900473ffffffffffffffffffffffffffffffffffffffff1673ffffffffffffffffffffffffffffffffffffffff1673ffffffffffffffffffffffffffffffffffffffff16815260200160018201548152602001600282015481526020016003820154815250508152602001600482016040518060600160405290816000820160009054906101000a900473ffffffffffffffffffffffffffffffffffffffff1673ffffffffffffffffffffffffffffffffffffffff1673ffffffffffffffffffffffffffffffffffffffff168152602001600182015481526020016002820160009054906101000a900460ff1615151515815250508152602001600782015481526020016008820154815260200160098201548152602001600a8201548152602001600b820160009054906101000a900463ffffffff1663ffffffff1663ffffffff16815250509050919050565b6000610d6c61110b565b73ffffffffffffffffffffffffffffffffffffffff163373ffffffffffffffffffffffffffffffffffffffff1603610dd9576040517f08c379a0000000000000000000000000000000000000000000000000000000008152600401610dd090612890565b60405180910390fd5b816002600082815260200190815260200160002060000160000160009054906101000a900473ffffffffffffffffffffffffffffffffffffffff1673ffffffffffffffffffffffffffffffffffffffff163373ffffffffffffffffffffffffffffffffffffffff1614610e81576040517f08c379a0000000000000000000000000000000000000000000000000000000008152600401610e7890612aee565b60405180910390fd5b8260016003811115610e9657610e95612683565b5b6003600083815260200190815260200160002060009054906101000a900460ff166003811115610ec957610ec8612683565b5b14610f09576040517f08c379a0000000000000000000000000000000000000000000000000000000008152600401610f0090612922565b60405180910390fd5b60003373ffffffffffffffffffffffffffffffffffffffff16610f2b8661101a565b60200151604051610f3b906127c3565b60006040518083038185875af1925050503d8060008114610f78576040519150601f19603f3d011682016040523d82523d6000602084013e610f7d565b606091505b5050905080610fc1576040517f08c379a0000000000000000000000000000000000000000000000000000000008152600401610fb890612c32565b60405180910390fd5b610fca85611b81565b7fedc1bfa27112bfbfbe944ffc70f825e8f4c270f9755fe15db1869082f61b474c85610ff58761101a565b60000151604051611007929190612c52565b60405180910390a1809350505050919050565b6110226120bf565b61102b82610bd0565b600001519050919050565b600047905090565b611046611bf2565b6110506000611c70565b565b60008073ffffffffffffffffffffffffffffffffffffffff168273ffffffffffffffffffffffffffffffffffffffff16036110c2576040517f08c379a00000000000000000000000000000000000000000000000000000000081526004016110b990612cc7565b60405180910390fd5b816000806101000a81548173ffffffffffffffffffffffffffffffffffffffff021916908373ffffffffffffffffffffffffffffffffffffffff16021790555060019050919050565b6000600460009054906101000a900473ffffffffffffffffffffffffffffffffffffffff16905090565b600061113f61110b565b73ffffffffffffffffffffffffffffffffffffffff163373ffffffffffffffffffffffffffffffffffffffff16036111ac576040517f08c379a00000000000000000000000000000000000000000000000000000000081526004016111a390612890565b60405180910390fd5b600060016111c4600386611a5190919063ffffffff16565b6111ce91906129dd565b9050886111e3576111de856104f5565b6111ed565b6111ec816104f5565b5b5060006111ff8a8a8a8a8a8a8a611d36565b90503373ffffffffffffffffffffffffffffffffffffffff167fbf106128f1df3a3e14f51fb2a12099724b6abbb2a0f6dcc4467814fa989dbd698b838c8c8c8b8b8a604051611255989796959493929190612d22565b60405180910390a28092505050979650505050505050565b600061127761110b565b73ffffffffffffffffffffffffffffffffffffffff163373ffffffffffffffffffffffffffffffffffffffff16036112e4576040517f08c379a00000000000000000000000000000000000000000000000000000000081526004016112db90612890565b60405180910390fd5b816002600082815260200190815260200160002060000160000160009054906101000a900473ffffffffffffffffffffffffffffffffffffffff1673ffffffffffffffffffffffffffffffffffffffff163373ffffffffffffffffffffffffffffffffffffffff161461138c576040517f08c379a000000000000000000000000000000000000000000000000000000000815260040161138390612aee565b60405180910390fd5b82600260038111156113a1576113a0612683565b5b6003600083815260200190815260200160002060009054906101000a900460ff1660038111156113d4576113d3612683565b5b14611414576040517f08c379a000000000000000000000000000000000000000000000000000000000815260040161140b90612922565b60405180910390fd5b600061141f8561161f565b905060008103611464576040517f08c379a000000000000000000000000000000000000000000000000000000000815260040161145b90612e12565b60405180910390fd5b60003373ffffffffffffffffffffffffffffffffffffffff166114868761101a565b60200151836114959190612e32565b6040516114a1906127c3565b60006040518083038185875af1925050503d80600081146114de576040519150601f19603f3d011682016040523d82523d6000602084013e6114e3565b606091505b5050905060003373ffffffffffffffffffffffffffffffffffffffff168361150a8961168d565b602001516115189190612e66565b604051611524906127c3565b60006040518083038185875af1925050503d8060008114611561576040519150601f19603f3d011682016040523d82523d6000602084013e611566565b606091505b505090508180156115745750805b6115b3576040517f08c379a00000000000000000000000000000000000000000000000000000000081526004016115aa90612ee6565b60405180910390fd5b6115bc87611e23565b7fb1d5f6c80b2138d4bb2dbda1c180eba2090137bfd92c5091db8e9d35b5aa14e2876115e78961101a565b600001516115f48a61168d565b60000151866040516116099493929190612f06565b60405180910390a1600195505050505050919050565b60008061162a6108c4565b9050600061163784610bd0565b9050818160600151101561165057600092505050611688565b60008160200151602001519050600061167e836080015184604001518685611ec0909392919063ffffffff16565b9050809450505050505b919050565b6116956120fd565b61169e82610bd0565b602001519050919050565b6000816002600082815260200190815260200160002060000160000160009054906101000a900473ffffffffffffffffffffffffffffffffffffffff1673ffffffffffffffffffffffffffffffffffffffff163373ffffffffffffffffffffffffffffffffffffffff1614611753576040517f08c379a000000000000000000000000000000000000000000000000000000000815260040161174a90612aee565b60405180910390fd5b826002600381111561176857611767612683565b5b6003600083815260200190815260200160002060009054906101000a900460ff16600381111561179b5761179a612683565b5b146117db576040517f08c379a00000000000000000000000000000000000000000000000000000000081526004016117d290612922565b60405180910390fd5b60006001905060006117ec8661101a565b602001511461186e573373ffffffffffffffffffffffffffffffffffffffff166118158661101a565b60200151604051611825906127c3565b60006040518083038185875af1925050503d8060008114611862576040519150601f19603f3d011682016040523d82523d6000602084013e611867565b606091505b5050809150505b60006118798661168d565b6000015173ffffffffffffffffffffffffffffffffffffffff1661189c8761168d565b602001516040516118ac906127c3565b60006040518083038185875af1925050503d80600081146118e9576040519150601f19603f3d011682016040523d82523d6000602084013e6118ee565b606091505b505090508180156118fc5750805b61193b576040517f08c379a000000000000000000000000000000000000000000000000000000000815260040161193290612824565b60405180910390fd5b61194486611b81565b7f499c65494d3528d43cc10198766ee94b527961839e55c7ee85eb750e5f90fb3f8661196f8861101a565b6000015161197c8961168d565b6000015160405161198f93929190612f4b565b60405180910390a16001945050505050919050565b60006003600083815260200190815260200160002060009054906101000a900460ff169050919050565b6119d6611bf2565b600073ffffffffffffffffffffffffffffffffffffffff168173ffffffffffffffffffffffffffffffffffffffff1603611a45576040517f08c379a0000000000000000000000000000000000000000000000000000000008152600401611a3c90612ff4565b60405180910390fd5b611a4e81611c70565b50565b60008183611a5f91906129dd565b905092915050565b60008060026000848152602001908152602001600020905083816007018190555084611a9b57611a9681611f30565b611aa5565b611aa481611f9c565b5b42816000016002018190555080600b0160009054906101000a900463ffffffff1663ffffffff1642611ad79190612e32565b816000016003018190555060026003600085815260200190815260200160002060006101000a81548160ff02191690836003811115611b1957611b18612683565b5b0217905550829150509392505050565b600060026000838152602001908152602001600020905042816000016002018190555080600b0160009054906101000a900463ffffffff1663ffffffff1642611b729190612e32565b81600001600301819055505050565b6000600260008381526020019081526020016000209050600081600001600101819055506000816004016001018190555060006003600084815260200190815260200160002060006101000a81548160ff02191690836003811115611be957611be8612683565b5b02179055505050565b611bfa612005565b73ffffffffffffffffffffffffffffffffffffffff16611c1861110b565b73ffffffffffffffffffffffffffffffffffffffff1614611c6e576040517f08c379a0000000000000000000000000000000000000000000000000000000008152600401611c6590613060565b60405180910390fd5b565b6000600460009054906101000a900473ffffffffffffffffffffffffffffffffffffffff16905081600460006101000a81548173ffffffffffffffffffffffffffffffffffffffff021916908373ffffffffffffffffffffffffffffffffffffffff1602179055508173ffffffffffffffffffffffffffffffffffffffff168173ffffffffffffffffffffffffffffffffffffffff167f8be0079c531659141344cd1fd0a4f28419497f9722a3daafe3b4186f6b6457e060405160405180910390a35050565b6000611d42600161200d565b6000611d4e6001612023565b905060006002600083815260200190815260200160002090508881600701819055508781600801819055508681600901819055508481600a01819055508381600b0160006101000a81548163ffffffff021916908363ffffffff16021790555060016003600084815260200190815260200160002060006101000a81548160ff02191690836003811115611de557611de4612683565b5b021790555089611dfd57611df881611f9c565b611e07565b611e0681611f30565b5b8581600401600101819055508192505050979650505050505050565b600060026000838152602001908152602001600020905060008160000160010181905550600081600001600301819055506000816004016001018190555060008160040160020160006101000a81548160ff021916908315150217905550600380600084815260200190815260200160002060006101000a81548160ff02191690836003811115611eb757611eb6612683565b5b02179055505050565b600080828510611ed257859050611f24565b6000611ef9611eea878761203190919063ffffffff16565b8861204790919063ffffffff16565b9050611f20611f11858761203190919063ffffffff16565b82611a5190919063ffffffff16565b9150505b80915050949350505050565b338160000160000160006101000a81548173ffffffffffffffffffffffffffffffffffffffff021916908373ffffffffffffffffffffffffffffffffffffffff160217905550611f8e600382600a0154611a5190919063ffffffff16565b816000016001018190555050565b338160040160000160006101000a81548173ffffffffffffffffffffffffffffffffffffffff021916908373ffffffffffffffffffffffffffffffffffffffff16021790555060018160040160020160006101000a81548160ff02191690831515021790555050565b600033905090565b6001816000016000828254019250508190555050565b600081600001549050919050565b6000818361203f9190612e66565b905092915050565b6000818361205591906130af565b905092915050565b6040518060200160405280600081525090565b6040518060e001604052806120836120bf565b81526020016120906120fd565b815260200160008152602001600081526020016000815260200160008152602001600063ffffffff1681525090565b6040518060800160405280600073ffffffffffffffffffffffffffffffffffffffff1681526020016000815260200160008152602001600081525090565b6040518060600160405280600073ffffffffffffffffffffffffffffffffffffffff168152602001600081526020016000151581525090565b600080fd5b6000819050919050565b61214e8161213b565b811461215957600080fd5b50565b60008135905061216b81612145565b92915050565b60006020828403121561218757612186612136565b5b60006121958482850161215c565b91505092915050565b60008115159050919050565b6121b38161219e565b82525050565b60006020820190506121ce60008301846121aa565b92915050565b600080604083850312156121eb576121ea612136565b5b60006121f98582860161215c565b925050602061220a8582860161215c565b9150509250929050565b61221d8161213b565b82525050565b60006020820190506122386000830184612214565b92915050565b6122478161213b565b82525050565b602082016000820151612263600085018261223e565b50505050565b600060208201905061227e600083018461224d565b92915050565b600073ffffffffffffffffffffffffffffffffffffffff82169050919050565b60006122af82612284565b9050919050565b6122bf816122a4565b82525050565b6080820160008201516122db60008501826122b6565b5060208201516122ee602085018261223e565b506040820151612301604085018261223e565b506060820151612314606085018261223e565b50505050565b6123238161219e565b82525050565b60608201600082015161233f60008501826122b6565b506020820151612352602085018261223e565b506040820151612365604085018261231a565b50505050565b600063ffffffff82169050919050565b6123848161236b565b82525050565b610180820160008201516123a160008501826122c5565b5060208201516123b46080850182612329565b5060408201516123c760e085018261223e565b5060608201516123db61010085018261223e565b5060808201516123ef61012085018261223e565b5060a082015161240361014085018261223e565b5060c082015161241761016085018261237b565b50505050565b600061018082019050612433600083018461238a565b92915050565b60808201600082015161244f60008501826122b6565b506020820151612462602085018261223e565b506040820151612475604085018261223e565b506060820151612488606085018261223e565b50505050565b60006080820190506124a36000830184612439565b92915050565b6124b2816122a4565b81146124bd57600080fd5b50565b6000813590506124cf816124a9565b92915050565b6000602082840312156124eb576124ea612136565b5b60006124f9848285016124c0565b91505092915050565b61250b816122a4565b82525050565b60006020820190506125266000830184612502565b92915050565b6125358161219e565b811461254057600080fd5b50565b6000813590506125528161252c565b92915050565b6125618161236b565b811461256c57600080fd5b50565b60008135905061257e81612558565b92915050565b600080600080600080600060e0888a0312156125a3576125a2612136565b5b60006125b18a828b01612543565b97505060206125c28a828b0161215c565b96505060406125d38a828b0161215c565b95505060606125e48a828b0161215c565b94505060806125f58a828b0161215c565b93505060a06126068a828b0161215c565b92505060c06126178a828b0161256f565b91505092959891949750929550565b60608201600082015161263c60008501826122b6565b50602082015161264f602085018261223e565b506040820151612662604085018261231a565b50505050565b600060608201905061267d6000830184612626565b92915050565b7f4e487b7100000000000000000000000000000000000000000000000000000000600052602160045260246000fd5b600481106126c3576126c2612683565b5b50565b60008190506126d4826126b2565b919050565b60006126e4826126c6565b9050919050565b6126f4816126d9565b82525050565b600060208201905061270f60008301846126eb565b92915050565b600082825260208201905092915050565b7f496e76616c69642065746820616d6f756e740000000000000000000000000000600082015250565b600061275c601283612715565b915061276782612726565b602082019050919050565b6000602082019050818103600083015261278b8161274f565b9050919050565b600081905092915050565b50565b60006127ad600083612792565b91506127b88261279d565b600082019050919050565b60006127ce826127a0565b9150819050919050565b7f53656e64696e67206465706f736974206661696c656400000000000000000000600082015250565b600061280e601683612715565b9150612819826127d8565b602082019050919050565b6000602082019050818103600083015261283d81612801565b9050919050565b7f4f776e65722063616e206e6f742063616c6c20746865206d6574686f64000000600082015250565b600061287a601d83612715565b915061288582612844565b602082019050919050565b600060208201905081810360008301526128a98161286d565b9050919050565b7f54686520737461747573206f6620746865204344532073686f756c642062652060008201527f70656e64696e6700000000000000000000000000000000000000000000000000602082015250565b600061290c602783612715565b9150612917826128b0565b604082019050919050565b6000602082019050818103600083015261293b816128ff565b9050919050565b7f54686520686f73742063616e206e6f742063616c6c20746865206d6574686f64600082015250565b6000612978602083612715565b915061298382612942565b602082019050919050565b600060208201905081810360008301526129a78161296b565b9050919050565b7f4e487b7100000000000000000000000000000000000000000000000000000000600052601160045260246000fd5b60006129e88261213b565b91506129f38361213b565b9250817fffffffffffffffffffffffffffffffffffffffffffffffffffffffffffffffff0483118215151615612a2c57612a2b6129ae565b5b828202905092915050565b6000604082019050612a4c6000830185612214565b612a596020830184612214565b9392505050565b600081519050612a6f81612145565b92915050565b600060208284031215612a8b57612a8a612136565b5b6000612a9984828501612a60565b91505092915050565b7f4f6e6c79206275796572206f6620746865204344532063616e2063616c6c0000600082015250565b6000612ad8601e83612715565b9150612ae382612aa2565b602082019050919050565b60006020820190508181036000830152612b0781612acb565b9050919050565b7f496e76616c6964207072656d69756d0000000000000000000000000000000000600082015250565b6000612b44600f83612715565b9150612b4f82612b0e565b602082019050919050565b60006020820190508181036000830152612b7381612b37565b9050919050565b7f53656e64696e67207072656d69756d206661696c656400000000000000000000600082015250565b6000612bb0601683612715565b9150612bbb82612b7a565b602082019050919050565b60006020820190508181036000830152612bdf81612ba3565b9050919050565b7f53656e64696e67206661696c6564000000000000000000000000000000000000600082015250565b6000612c1c600e83612715565b9150612c2782612be6565b602082019050919050565b60006020820190508181036000830152612c4b81612c0f565b9050919050565b6000604082019050612c676000830185612214565b612c746020830184612502565b9392505050565b7f496e76616c696420616464726573730000000000000000000000000000000000600082015250565b6000612cb1600f83612715565b9150612cbc82612c7b565b602082019050919050565b60006020820190508181036000830152612ce081612ca4565b9050919050565b6000819050919050565b6000612d0c612d07612d028461236b565b612ce7565b61213b565b9050919050565b612d1c81612cf1565b82525050565b600061010082019050612d38600083018b6121aa565b612d45602083018a612214565b612d526040830189612214565b612d5f6060830188612214565b612d6c6080830187612214565b612d7960a0830186612214565b612d8660c0830185612d13565b612d9360e0830184612214565b9998505050505050505050565b7f436c61696d20707269636520696e204344532073686f756c642062652068696760008201527f686572207468616e2063757272656e74207072696365206f6620617373657400602082015250565b6000612dfc603f83612715565b9150612e0782612da0565b604082019050919050565b60006020820190508181036000830152612e2b81612def565b9050919050565b6000612e3d8261213b565b9150612e488361213b565b9250828201905080821115612e6057612e5f6129ae565b5b92915050565b6000612e718261213b565b9150612e7c8361213b565b9250828203905081811115612e9457612e936129ae565b5b92915050565b7f53656e64696e6720726577617264206661696c65640000000000000000000000600082015250565b6000612ed0601583612715565b9150612edb82612e9a565b602082019050919050565b60006020820190508181036000830152612eff81612ec3565b9050919050565b6000608082019050612f1b6000830187612214565b612f286020830186612502565b612f356040830185612502565b612f426060830184612214565b95945050505050565b6000606082019050612f606000830186612214565b612f6d6020830185612502565b612f7a6040830184612502565b949350505050565b7f4f776e61626c653a206e6577206f776e657220697320746865207a65726f206160008201527f6464726573730000000000000000000000000000000000000000000000000000602082015250565b6000612fde602683612715565b9150612fe982612f82565b604082019050919050565b6000602082019050818103600083015261300d81612fd1565b9050919050565b7f4f776e61626c653a2063616c6c6572206973206e6f7420746865206f776e6572600082015250565b600061304a602083612715565b915061305582613014565b602082019050919050565b600060208201905081810360008301526130798161303d565b9050919050565b7f4e487b7100000000000000000000000000000000000000000000000000000000600052601260045260246000fd5b60006130ba8261213b565b91506130c58361213b565b9250826130d5576130d4613080565b5b82820490509291505056fea26469706673582212207fdc2388969c9e10040b799224fccd0636d4129ecb575076ea7eee3581b7bd7f64736f6c63430008100033",
  "immutableReferences": {},
  "source": "// SPDX-License-Identifier: MIT\npragma solidity ^0.8.7;\n\nimport './Swaps/Swaps.sol';\nimport '@openzeppelin/contracts/access/Ownable.sol';\nimport '@openzeppelin/contracts/utils/math/SafeMath.sol';\n\ncontract CDS is Swaps, Ownable {\n  using SafeMath for uint256;\n\n  constructor() payable {}\n\n  receive() external payable {}\n\n  modifier isNotOwner() {\n    require(msg.sender != owner(), 'Owner can not call the method');\n    _;\n  }\n\n  event CreateSwap(\n    address indexed hostAddr,\n    bool isBuyer,\n    uint256 swapId,\n    uint256 initAssetPrice,\n    uint256 claimPrice,\n    uint256 liquidationPrice,\n    uint256 premium,\n    uint256 premiumInterval,\n    uint256 buyerDeposit\n  );\n  event AcceptSwap(\n    address indexed seller,\n    uint256 swapId,\n    uint256 sellerDeposit\n  );\n  event CancelSwap(uint256 swapId, address buyer);\n  event ClaimSwap(\n    uint256 swapId,\n    address buyer,\n    address seller,\n    uint256 claimReward\n  );\n  event CloseSwap(uint256 swapId, address buyer, address seller);\n\n  function createSwap(\n    bool isBuyer,\n    uint256 initAssetPrice,\n    uint256 claimPrice,\n    uint256 liquidationPrice,\n    uint256 sellerDeposit,\n    uint256 premium,\n    uint32 premiumInterval\n  ) external payable isNotOwner returns (uint256) {\n    uint256 buyerDeposit = premium.mul(3) * 1 wei;\n    isBuyer ? _sendDeposit(buyerDeposit) : _sendDeposit(sellerDeposit);\n\n    uint256 newSwapId = _createSwap(\n      isBuyer,\n      initAssetPrice,\n      claimPrice,\n      liquidationPrice,\n      sellerDeposit,\n      premium,\n      premiumInterval\n    );\n\n    emit CreateSwap(\n      msg.sender,\n      isBuyer,\n      newSwapId,\n      initAssetPrice,\n      claimPrice,\n      liquidationPrice,\n      premium,\n      premiumInterval,\n      buyerDeposit\n    );\n\n    return newSwapId;\n  }\n\n  // token => internal   .\n  function _sendDeposit(uint256 deposit) public payable returns (bool) {\n    require(deposit == msg.value, 'Invalid eth amount');\n    (bool sent, ) = payable(address(this)).call{value: msg.value}('');\n    require(sent, 'Sending deposit failed');\n    return true;\n  }\n\n  function acceptSwap(\n    uint256 initAssetPrice,\n    uint256 swapId\n  ) external payable isNotOwner isPending(swapId) returns (uint256) {\n    require(\n      msg.sender != getBuyer(swapId).addr &&\n        msg.sender != getSeller(swapId).addr,\n      'The host can not call the method'\n    );\n\n    bool isBuyerHost = (getSeller(swapId).addr == address(0));\n    uint256 sellerDeposit = getSeller(swapId).deposit * 1 wei;\n    uint256 buyerDeposit = getSwap(swapId).premium.mul(3) * 1 wei;\n    isBuyerHost ? _sendDeposit(sellerDeposit) : _sendDeposit(buyerDeposit);\n\n    uint256 acceptedSwapId = _acceptSwap(isBuyerHost, initAssetPrice, swapId);\n    emit AcceptSwap(msg.sender, acceptedSwapId, sellerDeposit);\n    return acceptedSwapId;\n  }\n\n  function cancelSwap(\n    uint256 swapId\n  ) external isNotOwner isBuyer(swapId) isPending(swapId) returns (bool) {\n    (bool sent, ) = msg.sender.call{value: getBuyer(swapId).deposit}('');\n    require(sent, 'Sending failed');\n    _cancelSwap(swapId);\n    emit CancelSwap(swapId, getBuyer(swapId).addr);\n    return sent;\n  }\n\n  function closeSwap(\n    uint256 swapId\n  ) external isBuyer(swapId) isActive(swapId) returns (bool) {\n    bool sentBuyer = true;\n    if (getBuyer(swapId).deposit != 0) {\n      (sentBuyer, ) = msg.sender.call{value: getBuyer(swapId).deposit}('');\n    }\n    (bool sentSeller, ) = getSeller(swapId).addr.call{\n      value: getSeller(swapId).deposit\n    }('');\n    require(sentBuyer && sentSeller, 'Sending deposit failed');\n    // set status to closed or inactive\n    _cancelSwap(swapId);\n    emit CloseSwap(swapId, getBuyer(swapId).addr, getSeller(swapId).addr);\n    return true;\n  }\n\n  /////\n  function payPremium(\n    uint256 swapId\n  ) external payable isBuyer(swapId) isActive(swapId) returns (bool) {\n    // date check\n    // require(_checkDate(swapId), 'Invalid date');\n\n    require(msg.value == getSwap(swapId).premium, 'Invalid premium');\n    (bool sent, ) = getSeller(swapId).addr.call{value: msg.value}('');\n    require(sent, 'Sending premium failed');\n    // status update\n    _payPremium(swapId);\n    return true;\n  }\n\n  function claimSwap(\n    uint256 swapId\n  ) external isNotOwner isBuyer(swapId) isActive(swapId) returns (bool) {\n    uint256 claimReward = getClaimReward(swapId);\n    require(\n      claimReward != 0,\n      'Claim price in CDS should be higher than current price of asset'\n    );\n    (bool sentBuyer, ) = msg.sender.call{\n      value: (claimReward + getBuyer(swapId).deposit)\n    }('');\n    (bool sentSeller, ) = msg.sender.call{\n      value: (getSeller(swapId).deposit - claimReward)\n    }('');\n    require(sentBuyer && sentSeller, 'Sending reward failed');\n    _claimSwap(swapId);\n    emit ClaimSwap(\n      swapId,\n      getBuyer(swapId).addr,\n      getSeller(swapId).addr,\n      claimReward\n    );\n    return true;\n  }\n\n  function getContractBalance() public view returns (uint256) {\n    return address(this).balance;\n  }\n}\n",
  "sourcePath": "/Users/sdh/Study/BEB_07/projects/CDS/contract/contracts/CDS.sol",
  "compiler": {
    "name": "solc",
    "version": "0.8.16+commit.07a7930e.Emscripten.clang"
  },
  "schemaVersion": "3.4.9",
  "updatedAt": "2023-02-01T03:31:24.171Z",
  "networkType": "ethereum",
  "devdoc": {
    "kind": "dev",
    "methods": {
      "owner()": {
        "details": "Returns the address of the current owner."
      },
      "renounceOwnership()": {
        "details": "Leaves the contract without owner. It will not be possible to call `onlyOwner` functions anymore. Can only be called by the current owner. NOTE: Renouncing ownership will leave the contract without an owner, thereby removing any functionality that is only available to the owner."
      },
      "transferOwnership(address)": {
        "details": "Transfers ownership of the contract to a new account (`newOwner`). Can only be called by the current owner."
      }
    },
    "version": 1
  },
  "userdoc": {
    "kind": "user",
    "methods": {},
    "version": 1
  }
}