{
  "contractName": "CDSBank",
  "abi": [
    {
      "inputs": [],
      "stateMutability": "nonpayable",
      "type": "constructor"
    },
    {
      "inputs": [
        {
          "internalType": "uint256",
          "name": "",
          "type": "uint256"
        },
        {
          "internalType": "uint256",
          "name": "",
          "type": "uint256"
        }
      ],
      "name": "deposits",
      "outputs": [
        {
          "internalType": "uint256",
          "name": "",
          "type": "uint256"
        }
      ],
      "stateMutability": "view",
      "type": "function"
    },
    {
      "inputs": [
        {
          "internalType": "uint256",
          "name": "cdsId",
          "type": "uint256"
        }
      ],
      "name": "getBuyer",
      "outputs": [
        {
          "internalType": "address",
          "name": "",
          "type": "address"
        }
      ],
      "stateMutability": "view",
      "type": "function"
    },
    {
      "inputs": [
        {
          "internalType": "uint256",
          "name": "cdsId",
          "type": "uint256"
        }
      ],
      "name": "getCDS",
      "outputs": [
        {
          "internalType": "contract CDS",
          "name": "",
          "type": "address"
        }
      ],
      "stateMutability": "view",
      "type": "function"
    },
    {
      "inputs": [],
      "name": "getCDSId",
      "outputs": [
        {
          "components": [
            {
              "internalType": "uint256",
              "name": "_value",
              "type": "uint256"
            }
          ],
          "internalType": "struct Counters.Counter",
          "name": "",
          "type": "tuple"
        }
      ],
      "stateMutability": "view",
      "type": "function"
    },
    {
      "inputs": [
        {
          "internalType": "uint256",
          "name": "cdsId",
          "type": "uint256"
        }
      ],
      "name": "getSeller",
      "outputs": [
        {
          "internalType": "address",
          "name": "",
          "type": "address"
        }
      ],
      "stateMutability": "view",
      "type": "function"
    },
    {
      "inputs": [
        {
          "internalType": "uint256",
          "name": "",
          "type": "uint256"
        }
      ],
      "name": "nextPayDate",
      "outputs": [
        {
          "internalType": "uint256",
          "name": "",
          "type": "uint256"
        }
      ],
      "stateMutability": "view",
      "type": "function"
    },
    {
      "inputs": [],
      "name": "token",
      "outputs": [
        {
          "internalType": "contract IERC20",
          "name": "",
          "type": "address"
        }
      ],
      "stateMutability": "view",
      "type": "function"
    }
  ],
  "bytecode": "0x608060405234801561001057600080fd5b5073609b8ced16a83cff90a3d3b3cbe7894931e7c382600360006101000a81548173ffffffffffffffffffffffffffffffffffffffff021916908373ffffffffffffffffffffffffffffffffffffffff160217905550610697806100756000396000f3fe608060405234801561001057600080fd5b506004361061007d5760003560e01c80635bf608b81161005b5780635bf608b814610112578063d0e5d95514610142578063d6a9de5114610160578063fc0c546a146101905761007d565b80632bd497801461008257806344a9d244146100b25780635af8d21c146100e2575b600080fd5b61009c60048036038101906100979190610419565b6101ae565b6040516100a99190610468565b60405180910390f35b6100cc60048036038101906100c79190610483565b6101d6565b6040516100d99190610468565b60405180910390f35b6100fc60048036038101906100f79190610483565b6101ee565b604051610109919061052f565b60405180910390f35b61012c60048036038101906101279190610483565b61022b565b604051610139919061056b565b60405180910390f35b61014a6102d6565b60405161015791906105b1565b60405180910390f35b61017a60048036038101906101759190610483565b6102fa565b604051610187919061056b565b60405180910390f35b6101986103a5565b6040516101a591906105ed565b60405180910390f35b600460205281600052604060002081600281106101ca57600080fd5b01600091509150505481565b60026020528060005260406000206000915090505481565b60006001600083815260200190815260200160002060009054906101000a900473ffffffffffffffffffffffffffffffffffffffff169050919050565b60006001600083815260200190815260200160002060009054906101000a900473ffffffffffffffffffffffffffffffffffffffff1673ffffffffffffffffffffffffffffffffffffffff1663603daf9a6040518163ffffffff1660e01b8152600401602060405180830381865afa1580156102ab573d6000803e3d6000fd5b505050506040513d601f19601f820116820180604052508101906102cf9190610634565b9050919050565b6102de6103cb565b6000604051806020016040529081600082015481525050905090565b60006001600083815260200190815260200160002060009054906101000a900473ffffffffffffffffffffffffffffffffffffffff1673ffffffffffffffffffffffffffffffffffffffff1663dbd0e1b66040518163ffffffff1660e01b8152600401602060405180830381865afa15801561037a573d6000803e3d6000fd5b505050506040513d601f19601f8201168201806040525081019061039e9190610634565b9050919050565b600360009054906101000a900473ffffffffffffffffffffffffffffffffffffffff1681565b6040518060200160405280600081525090565b600080fd5b6000819050919050565b6103f6816103e3565b811461040157600080fd5b50565b600081359050610413816103ed565b92915050565b600080604083850312156104305761042f6103de565b5b600061043e85828601610404565b925050602061044f85828601610404565b9150509250929050565b610462816103e3565b82525050565b600060208201905061047d6000830184610459565b92915050565b600060208284031215610499576104986103de565b5b60006104a784828501610404565b91505092915050565b600073ffffffffffffffffffffffffffffffffffffffff82169050919050565b6000819050919050565b60006104f56104f06104eb846104b0565b6104d0565b6104b0565b9050919050565b6000610507826104da565b9050919050565b6000610519826104fc565b9050919050565b6105298161050e565b82525050565b60006020820190506105446000830184610520565b92915050565b6000610555826104b0565b9050919050565b6105658161054a565b82525050565b6000602082019050610580600083018461055c565b92915050565b61058f816103e3565b82525050565b6020820160008201516105ab6000850182610586565b50505050565b60006020820190506105c66000830184610595565b92915050565b60006105d7826104fc565b9050919050565b6105e7816105cc565b82525050565b600060208201905061060260008301846105de565b92915050565b6106118161054a565b811461061c57600080fd5b50565b60008151905061062e81610608565b92915050565b60006020828403121561064a576106496103de565b5b60006106588482850161061f565b9150509291505056fea26469706673582212200212ca10a9d06e062246288cea5a99b9792032fb5983e9da714f91703be743b364736f6c63430008100033",
  "immutableReferences": {},
  "source": "// SPDX-License-Identifier: MIT\npragma solidity ^0.8.7;\n\nimport './CDSFactory.sol';\nimport '@openzeppelin/contracts/utils/math/SafeMath.sol';\nimport '@openzeppelin/contracts/token/ERC20/IERC20.sol';\n\ncontract CDSBank is CDSFactory {\n  using SafeMath for uint256;\n\n  IERC20 public token;\n\n  mapping(uint256 => uint256[2]) public deposits;\n\n  constructor() {\n    token = IERC20(0x609b8CED16A83cFf90a3D3b3Cbe7894931e7C382);\n  }\n\n  // function setToken\n\n  function _sendDeposit(\n    uint256 _cdsId,\n    bool _isBuyer\n  ) internal returns (bool) {\n    uint256 deposit;\n    if (_isBuyer) {\n      deposit = getCDS(_cdsId).premium().mul(4);\n      token.transferFrom(getBuyer(_cdsId), address(this), deposit);\n      deposits[_cdsId][0] = deposit;\n    } else {\n      deposit = getCDS(_cdsId).sellerDeposit();\n      token.transferFrom(getSeller(_cdsId), address(this), deposit);\n      deposits[_cdsId][1] = deposit;\n    }\n    return true;\n  }\n\n  function _sendFirstPremium(uint256 _cdsId) internal returns (bool) {\n    uint256 premium = getCDS(_cdsId).premium();\n    bool sent = token.transfer(getSeller(_cdsId), premium);\n    require(sent, 'Sending first premium failed');\n    deposits[_cdsId][0] -= premium;\n    uint32 currRounds = getCDS(_cdsId).rounds();\n    getCDS(_cdsId).setRounds(currRounds - 1);\n    return true;\n  }\n\n  function _endCDS(uint256 _cdsId) internal returns (bool) {\n    address[2] memory participants = [getBuyer(_cdsId), getSeller(_cdsId)];\n    for (uint i = 0; i <= 1; i++) {\n      uint256 deposit = deposits[_cdsId][i];\n      if (deposit != 0) {\n        bool sent = token.transfer(participants[i], deposit);\n        require(sent, 'Sending deposit back failed');\n      }\n    }\n    clearDeposit(_cdsId);\n    return true;\n  }\n\n  function _afterClaim(uint256 _cdsId) internal returns (uint256) {\n    uint256 claimReward = getCDS(_cdsId).getClaimReward();\n    bool sentBuyer = token.transfer(\n      getBuyer(_cdsId),\n      claimReward + deposits[_cdsId][0]\n    );\n    bool sentSeller = token.transfer(\n      getSeller(_cdsId),\n      deposits[_cdsId][1] - claimReward\n    );\n    require(sentBuyer && sentSeller, 'Sending reward failed');\n    clearDeposit(_cdsId);\n    return claimReward;\n  }\n\n// expire need isActive\n  function _expire(\n    uint256 _cdsId\n  ) internal isSeller(_cdsId) isActive(_cdsId) {\n    uint32 currRounds = getCDS(_cdsId).rounds();\n    bool byRounds = ((block.timestamp >= nextPayDate[_cdsId]) &&\n      (currRounds == 0));\n    bool byDeposit = ((block.timestamp >= nextPayDate[_cdsId]) &&\n      (deposits[_cdsId][0] == 0));\n    // bool byRounds = (currRounds == 0);\n    // bool byDeposit = (deposits[_cdsId][0] == 0);\n    require(byDeposit || byRounds, 'Buyer deposit / Rounds remaining');\n    getCDS(_cdsId).setStatus(CDS.Status.expired);\n  }\n\n  function _sendPremiumByDeposit(uint256 _cdsId) internal {\n    uint256 currTime = block.timestamp;\n    require(\n      (nextPayDate[_cdsId] <= currTime),\n      'Invalid date to pay premium by deposit '\n    );\n    uint256 premium = getCDS(_cdsId).premium();\n    require(deposits[_cdsId][0] >= premium, 'Not enough deposit');\n    bool sent = token.transfer(getSeller(_cdsId), premium);\n    require(sent, 'Sending premium failed');\n    deposits[_cdsId][0] -= premium;\n  }\n\n  function _sendPremium(uint256 _cdsId) internal {\n    uint256 currTime = block.timestamp;\n    require(\n      (nextPayDate[_cdsId] - 3 days <= currTime) &&\n        (currTime <= nextPayDate[_cdsId]),\n      'Invalid date to pay premium'\n    );\n    uint256 premium = getCDS(_cdsId).premium();\n    bool sent = token.transferFrom(\n      getBuyer(_cdsId),\n      getSeller(_cdsId),\n      premium\n    );\n    require(sent, 'Sending premium failed');\n  }\n\n  function clearDeposit(uint256 _cdsId) private {\n    for (uint i = 0; i <= 1; i++) {\n      deposits[_cdsId][i] = 0;\n    }\n  }\n\n  modifier isBuyer(uint256 cdsId) {\n    require(msg.sender == getBuyer(cdsId), 'Only buyer of the CDS can call');\n    _;\n  }\n\n  modifier isSeller(uint256 cdsId) {\n    require(msg.sender == getSeller(cdsId), 'Only seller of the CDS can call');\n    _;\n  }\n\n  modifier isParticipants(uint256 cdsId) {\n    require(\n      msg.sender == getBuyer(cdsId) || msg.sender == getSeller(cdsId),\n      'Only buyer/seller of the CDS can call'\n    );\n    _;\n  }\n}\n",
  "sourcePath": "/Users/yoonsoo/codestates/BEB-07-final-CDS/contract/contracts/Handler/CDSBank.sol",
  "compiler": {
    "name": "solc",
    "version": "0.8.16+commit.07a7930e.Emscripten.clang"
  },
  "schemaVersion": "3.4.11",
  "updatedAt": "2023-03-19T06:36:12.832Z",
  "devdoc": {
    "kind": "dev",
    "methods": {},
    "version": 1
  },
  "userdoc": {
    "kind": "user",
    "methods": {},
    "version": 1
  }
}