{
  "contractName": "CDSFactory",
  "abi": [
    {
      "inputs": [
        {
          "internalType": "uint256",
          "name": "",
          "type": "uint256"
        }
      ],
      "name": "nextPayDate",
      "outputs": [
        {
          "internalType": "uint256",
          "name": "",
          "type": "uint256"
        }
      ],
      "stateMutability": "view",
      "type": "function"
    },
    {
      "inputs": [],
      "name": "getCDSId",
      "outputs": [
        {
          "components": [
            {
              "internalType": "uint256",
              "name": "_value",
              "type": "uint256"
            }
          ],
          "internalType": "struct Counters.Counter",
          "name": "",
          "type": "tuple"
        }
      ],
      "stateMutability": "view",
      "type": "function"
    },
    {
      "inputs": [
        {
          "internalType": "uint256",
          "name": "cdsId",
          "type": "uint256"
        }
      ],
      "name": "getCDS",
      "outputs": [
        {
          "internalType": "contract CDS",
          "name": "",
          "type": "address"
        }
      ],
      "stateMutability": "view",
      "type": "function"
    },
    {
      "inputs": [
        {
          "internalType": "uint256",
          "name": "cdsId",
          "type": "uint256"
        }
      ],
      "name": "getBuyer",
      "outputs": [
        {
          "internalType": "address",
          "name": "",
          "type": "address"
        }
      ],
      "stateMutability": "view",
      "type": "function"
    },
    {
      "inputs": [
        {
          "internalType": "uint256",
          "name": "cdsId",
          "type": "uint256"
        }
      ],
      "name": "getSeller",
      "outputs": [
        {
          "internalType": "address",
          "name": "",
          "type": "address"
        }
      ],
      "stateMutability": "view",
      "type": "function"
    }
  ],
  "bytecode": "0x608060405234801561001057600080fd5b50610559806100206000396000f3fe608060405234801561001057600080fd5b50600436106100575760003560e01c806344a9d2441461005c5780635af8d21c1461008c5780635bf608b8146100bc578063d0e5d955146100ec578063d6a9de511461010a575b600080fd5b61007660048036038101906100719190610357565b61013a565b6040516100839190610393565b60405180910390f35b6100a660048036038101906100a19190610357565b610152565b6040516100b3919061042d565b60405180910390f35b6100d660048036038101906100d19190610357565b61018f565b6040516100e39190610469565b60405180910390f35b6100f461023a565b60405161010191906104af565b60405180910390f35b610124600480360381019061011f9190610357565b61025e565b6040516101319190610469565b60405180910390f35b60026020528060005260406000206000915090505481565b60006001600083815260200190815260200160002060009054906101000a900473ffffffffffffffffffffffffffffffffffffffff169050919050565b60006001600083815260200190815260200160002060009054906101000a900473ffffffffffffffffffffffffffffffffffffffff1673ffffffffffffffffffffffffffffffffffffffff1663603daf9a6040518163ffffffff1660e01b8152600401602060405180830381865afa15801561020f573d6000803e3d6000fd5b505050506040513d601f19601f8201168201806040525081019061023391906104f6565b9050919050565b610242610309565b6000604051806020016040529081600082015481525050905090565b60006001600083815260200190815260200160002060009054906101000a900473ffffffffffffffffffffffffffffffffffffffff1673ffffffffffffffffffffffffffffffffffffffff1663dbd0e1b66040518163ffffffff1660e01b8152600401602060405180830381865afa1580156102de573d6000803e3d6000fd5b505050506040513d601f19601f8201168201806040525081019061030291906104f6565b9050919050565b6040518060200160405280600081525090565b600080fd5b6000819050919050565b61033481610321565b811461033f57600080fd5b50565b6000813590506103518161032b565b92915050565b60006020828403121561036d5761036c61031c565b5b600061037b84828501610342565b91505092915050565b61038d81610321565b82525050565b60006020820190506103a86000830184610384565b92915050565b600073ffffffffffffffffffffffffffffffffffffffff82169050919050565b6000819050919050565b60006103f36103ee6103e9846103ae565b6103ce565b6103ae565b9050919050565b6000610405826103d8565b9050919050565b6000610417826103fa565b9050919050565b6104278161040c565b82525050565b6000602082019050610442600083018461041e565b92915050565b6000610453826103ae565b9050919050565b61046381610448565b82525050565b600060208201905061047e600083018461045a565b92915050565b61048d81610321565b82525050565b6020820160008201516104a96000850182610484565b50505050565b60006020820190506104c46000830184610493565b92915050565b6104d381610448565b81146104de57600080fd5b50565b6000815190506104f0816104ca565b92915050565b60006020828403121561050c5761050b61031c565b5b600061051a848285016104e1565b9150509291505056fea2646970667358221220c682df1d7cfdd3a9e56d323d82316a786af96afe4f92cc048342f32f2638e11964736f6c63430008100033",
  "immutableReferences": {},
  "source": "// SPDX-License-Identifier: MIT\npragma solidity ^0.8.7;\n\nimport '../CDS/CDS.sol';\nimport '@openzeppelin/contracts/utils/Counters.sol';\n\ncontract CDSFactory {\n  using Counters for Counters.Counter;\n  Counters.Counter internal _cdsId;\n\n  mapping(uint256 => CDS) private _cdsList;\n  // mapping(address => address[]) public _ownedCDS;\n  // delete mapping[key]\n  mapping(uint256 => uint256) public nextPayDate;\n\n  function _create(\n    bool _isBuyer,\n    uint256 _initAssetPrice,\n    uint256 _claimPrice,\n    uint256 _liquidationPrice,\n    uint256 _sellerDeposit,\n    uint256 _premium,\n    uint32 _totalRounds,\n    uint32 _assetType\n  ) internal returns (uint256) {\n    _cdsId.increment();\n    uint256 newCDSId = _cdsId.current();\n\n    CDS newCDS = new CDS(\n      _initAssetPrice,\n      _claimPrice,\n      _liquidationPrice,\n      _premium,\n      _sellerDeposit,\n      _totalRounds,\n      _assetType\n    );\n    _cdsList[newCDSId] = newCDS;\n    // _isBuyer ? newCDS.setBuyer(msg.sender) : newCDS.setSeller(msg.sender);\n    newCDS.setParticipants(msg.sender, _isBuyer);\n    return newCDSId;\n  }\n\n  function _accept(\n    bool _isBuyerHost,\n    uint256 _initAssetPrice,\n    uint256 _targetCDSId\n  ) internal isPending(_targetCDSId) returns (uint256) {\n    CDS targetCDS = _cdsList[_targetCDSId];\n    targetCDS.setInitAssetPrice(_initAssetPrice);\n\n    // _isBuyerHost\n    //   ? targetCDS.setSeller(msg.sender)\n    //   : targetCDS.setBuyer(msg.sender);\n    nextPayDate[_targetCDSId] = block.timestamp + 4 weeks;\n    targetCDS.setParticipants(msg.sender, !_isBuyerHost);\n    targetCDS.setStatus(CDS.Status.active);\n\n    // _ownedCDS[targetCDS.getBuyer()].push(address(targetCDS));\n    // _ownedCDS[targetCDS.getSeller()].push(address(targetCDS));\n\n    return _targetCDSId;\n  }\n\n  function _cancel(uint256 _targetCDSId) internal isPending(_targetCDSId) {\n    getCDS(_targetCDSId).setStatus(CDS.Status.inactive);\n  }\n\n  function _close(uint256 _targetCDSId) internal isActive(_targetCDSId) {\n    getCDS(_targetCDSId).setStatus(CDS.Status.expired);\n  }\n\n  function _payPremium(uint256 _targetCDSId) internal isActive(_targetCDSId) {\n    uint32 currRounds = _cdsList[_targetCDSId].rounds();\n    require(currRounds > 0, 'Round already ended');\n    nextPayDate[_targetCDSId] += 4 weeks;\n    getCDS(_targetCDSId).setRounds(currRounds - 1);\n  }\n\n  function _claim(uint256 _targetCDSId) internal isActive(_targetCDSId) {\n    getCDS(_targetCDSId).setStatus(CDS.Status.claimed);\n  }\n\n  // getter transactions\n  function getCDSId() public view returns (Counters.Counter memory) {\n    return _cdsId;\n  }\n\n  function getCDS(uint256 cdsId) public view returns (CDS) {\n    return _cdsList[cdsId];\n  }\n\n  function getBuyer(uint256 cdsId) public view returns (address) {\n    return _cdsList[cdsId].getBuyer();\n  }\n\n  function getSeller(uint256 cdsId) public view returns (address) {\n    return _cdsList[cdsId].getSeller();\n  }\n\n  // modifiers\n  modifier isPending(uint256 cdsId) {\n    require(\n      _cdsList[cdsId].status() == CDS.Status.pending,\n      'The status of the CDS should be pending'\n    );\n    _;\n  }\n\n  modifier isActive(uint256 cdsId) {\n    require(\n      _cdsList[cdsId].status() == CDS.Status.active,\n      'The status of the CDS should be active'\n    );\n    _;\n  }\n}\n",
  "sourcePath": "/Users/yoonsoo/codestates/BEB-07-final-CDS/contract/contracts/Handler/CDSFactory.sol",
  "compiler": {
    "name": "solc",
    "version": "0.8.16+commit.07a7930e.Emscripten.clang"
  },
  "schemaVersion": "3.4.11",
  "updatedAt": "2023-03-19T06:36:12.835Z",
  "devdoc": {
    "kind": "dev",
    "methods": {},
    "version": 1
  },
  "userdoc": {
    "kind": "user",
    "methods": {},
    "version": 1
  }
}