{
  "contractName": "CDSLounge",
  "abi": [
    {
      "anonymous": false,
      "inputs": [
        {
          "indexed": true,
          "internalType": "address",
          "name": "guestAddr",
          "type": "address"
        },
        {
          "indexed": false,
          "internalType": "uint256",
          "name": "cdsId",
          "type": "uint256"
        }
      ],
      "name": "Accept",
      "type": "event"
    },
    {
      "anonymous": false,
      "inputs": [
        {
          "indexed": false,
          "internalType": "uint256",
          "name": "cdsId",
          "type": "uint256"
        }
      ],
      "name": "Cancel",
      "type": "event"
    },
    {
      "anonymous": false,
      "inputs": [
        {
          "indexed": false,
          "internalType": "uint256",
          "name": "cdsId",
          "type": "uint256"
        },
        {
          "indexed": false,
          "internalType": "uint256",
          "name": "claimReward",
          "type": "uint256"
        }
      ],
      "name": "Claim",
      "type": "event"
    },
    {
      "anonymous": false,
      "inputs": [
        {
          "indexed": false,
          "internalType": "uint256",
          "name": "cdsId",
          "type": "uint256"
        }
      ],
      "name": "Close",
      "type": "event"
    },
    {
      "anonymous": false,
      "inputs": [
        {
          "indexed": true,
          "internalType": "address",
          "name": "hostAddr",
          "type": "address"
        },
        {
          "indexed": false,
          "internalType": "bool",
          "name": "isBuyer",
          "type": "bool"
        },
        {
          "indexed": false,
          "internalType": "uint256",
          "name": "cdsId",
          "type": "uint256"
        },
        {
          "indexed": false,
          "internalType": "uint32",
          "name": "assetType",
          "type": "uint32"
        },
        {
          "indexed": false,
          "internalType": "address",
          "name": "swap",
          "type": "address"
        }
      ],
      "name": "Create",
      "type": "event"
    },
    {
      "anonymous": false,
      "inputs": [
        {
          "indexed": false,
          "internalType": "uint256",
          "name": "cdsId",
          "type": "uint256"
        }
      ],
      "name": "Expire",
      "type": "event"
    },
    {
      "anonymous": false,
      "inputs": [
        {
          "indexed": true,
          "internalType": "address",
          "name": "previousOwner",
          "type": "address"
        },
        {
          "indexed": true,
          "internalType": "address",
          "name": "newOwner",
          "type": "address"
        }
      ],
      "name": "OwnershipTransferred",
      "type": "event"
    },
    {
      "anonymous": false,
      "inputs": [
        {
          "indexed": false,
          "internalType": "uint256",
          "name": "cdsId",
          "type": "uint256"
        }
      ],
      "name": "PayPremium",
      "type": "event"
    },
    {
      "inputs": [
        {
          "internalType": "uint256",
          "name": "",
          "type": "uint256"
        },
        {
          "internalType": "uint256",
          "name": "",
          "type": "uint256"
        }
      ],
      "name": "deposits",
      "outputs": [
        {
          "internalType": "uint256",
          "name": "",
          "type": "uint256"
        }
      ],
      "stateMutability": "view",
      "type": "function"
    },
    {
      "inputs": [
        {
          "internalType": "uint256",
          "name": "cdsId",
          "type": "uint256"
        }
      ],
      "name": "getBuyer",
      "outputs": [
        {
          "internalType": "address",
          "name": "",
          "type": "address"
        }
      ],
      "stateMutability": "view",
      "type": "function"
    },
    {
      "inputs": [
        {
          "internalType": "uint256",
          "name": "cdsId",
          "type": "uint256"
        }
      ],
      "name": "getCDS",
      "outputs": [
        {
          "internalType": "contract CDS",
          "name": "",
          "type": "address"
        }
      ],
      "stateMutability": "view",
      "type": "function"
    },
    {
      "inputs": [],
      "name": "getCDSId",
      "outputs": [
        {
          "components": [
            {
              "internalType": "uint256",
              "name": "_value",
              "type": "uint256"
            }
          ],
          "internalType": "struct Counters.Counter",
          "name": "",
          "type": "tuple"
        }
      ],
      "stateMutability": "view",
      "type": "function"
    },
    {
      "inputs": [
        {
          "internalType": "uint256",
          "name": "cdsId",
          "type": "uint256"
        }
      ],
      "name": "getSeller",
      "outputs": [
        {
          "internalType": "address",
          "name": "",
          "type": "address"
        }
      ],
      "stateMutability": "view",
      "type": "function"
    },
    {
      "inputs": [
        {
          "internalType": "uint256",
          "name": "",
          "type": "uint256"
        }
      ],
      "name": "nextPayDate",
      "outputs": [
        {
          "internalType": "uint256",
          "name": "",
          "type": "uint256"
        }
      ],
      "stateMutability": "view",
      "type": "function"
    },
    {
      "inputs": [],
      "name": "owner",
      "outputs": [
        {
          "internalType": "address",
          "name": "",
          "type": "address"
        }
      ],
      "stateMutability": "view",
      "type": "function"
    },
    {
      "inputs": [],
      "name": "renounceOwnership",
      "outputs": [],
      "stateMutability": "nonpayable",
      "type": "function"
    },
    {
      "inputs": [],
      "name": "token",
      "outputs": [
        {
          "internalType": "contract IERC20",
          "name": "",
          "type": "address"
        }
      ],
      "stateMutability": "view",
      "type": "function"
    },
    {
      "inputs": [
        {
          "internalType": "address",
          "name": "newOwner",
          "type": "address"
        }
      ],
      "name": "transferOwnership",
      "outputs": [],
      "stateMutability": "nonpayable",
      "type": "function"
    },
    {
      "inputs": [
        {
          "internalType": "bool",
          "name": "isBuyer",
          "type": "bool"
        },
        {
          "internalType": "uint256",
          "name": "initAssetPrice",
          "type": "uint256"
        },
        {
          "internalType": "uint256",
          "name": "claimPrice",
          "type": "uint256"
        },
        {
          "internalType": "uint256",
          "name": "liquidationPrice",
          "type": "uint256"
        },
        {
          "internalType": "uint256",
          "name": "sellerDeposit",
          "type": "uint256"
        },
        {
          "internalType": "uint256",
          "name": "premium",
          "type": "uint256"
        },
        {
          "internalType": "uint32",
          "name": "totalRounds",
          "type": "uint32"
        },
        {
          "internalType": "uint32",
          "name": "assetType",
          "type": "uint32"
        }
      ],
      "name": "create",
      "outputs": [
        {
          "internalType": "uint256",
          "name": "",
          "type": "uint256"
        }
      ],
      "stateMutability": "nonpayable",
      "type": "function"
    },
    {
      "inputs": [
        {
          "internalType": "uint256",
          "name": "initAssetPrice",
          "type": "uint256"
        },
        {
          "internalType": "uint256",
          "name": "cdsId",
          "type": "uint256"
        }
      ],
      "name": "accept",
      "outputs": [
        {
          "internalType": "uint256",
          "name": "",
          "type": "uint256"
        }
      ],
      "stateMutability": "nonpayable",
      "type": "function"
    },
    {
      "inputs": [
        {
          "internalType": "uint256",
          "name": "cdsId",
          "type": "uint256"
        }
      ],
      "name": "cancel",
      "outputs": [
        {
          "internalType": "bool",
          "name": "",
          "type": "bool"
        }
      ],
      "stateMutability": "nonpayable",
      "type": "function"
    },
    {
      "inputs": [
        {
          "internalType": "uint256",
          "name": "cdsId",
          "type": "uint256"
        }
      ],
      "name": "close",
      "outputs": [
        {
          "internalType": "bool",
          "name": "",
          "type": "bool"
        }
      ],
      "stateMutability": "nonpayable",
      "type": "function"
    },
    {
      "inputs": [
        {
          "internalType": "uint256",
          "name": "cdsId",
          "type": "uint256"
        }
      ],
      "name": "claim",
      "outputs": [
        {
          "internalType": "bool",
          "name": "",
          "type": "bool"
        }
      ],
      "stateMutability": "nonpayable",
      "type": "function"
    },
    {
      "inputs": [
        {
          "internalType": "uint256",
          "name": "cdsId",
          "type": "uint256"
        }
      ],
      "name": "expire",
      "outputs": [
        {
          "internalType": "bool",
          "name": "",
          "type": "bool"
        }
      ],
      "stateMutability": "nonpayable",
      "type": "function"
    },
    {
      "inputs": [
        {
          "internalType": "uint256",
          "name": "cdsId",
          "type": "uint256"
        }
      ],
      "name": "payPremium",
      "outputs": [
        {
          "internalType": "bool",
          "name": "",
          "type": "bool"
        }
      ],
      "stateMutability": "nonpayable",
      "type": "function"
    },
    {
      "inputs": [
        {
          "internalType": "uint256",
          "name": "cdsId",
          "type": "uint256"
        }
      ],
      "name": "payPremiumByDeposit",
      "outputs": [
        {
          "internalType": "bool",
          "name": "",
          "type": "bool"
        }
      ],
      "stateMutability": "nonpayable",
      "type": "function"
    },
    {
      "inputs": [
        {
          "internalType": "uint256",
          "name": "amount",
          "type": "uint256"
        }
      ],
      "name": "withdraw",
      "outputs": [
        {
          "internalType": "bool",
          "name": "",
          "type": "bool"
        }
      ],
      "stateMutability": "nonpayable",
      "type": "function"
    }
  ],
  "bytecode": "0x60806040523480156200001157600080fd5b5073609b8ced16a83cff90a3d3b3cbe7894931e7c382600360006101000a81548173ffffffffffffffffffffffffffffffffffffffff021916908373ffffffffffffffffffffffffffffffffffffffff160217905550620000876200007b6200008d60201b60201c565b6200009560201b60201c565b6200015b565b600033905090565b6000600560009054906101000a900473ffffffffffffffffffffffffffffffffffffffff16905081600560006101000a81548173ffffffffffffffffffffffffffffffffffffffff021916908373ffffffffffffffffffffffffffffffffffffffff1602179055508173ffffffffffffffffffffffffffffffffffffffff168173ffffffffffffffffffffffffffffffffffffffff167f8be0079c531659141344cd1fd0a4f28419497f9722a3daafe3b4186f6b6457e060405160405180910390a35050565b615e26806200016b6000396000f3fe60806040523480156200001157600080fd5b50600436106200013c5760003560e01c80635af8d21c11620000bd578063bf81bf43116200007b578063bf81bf4314620003f7578063d0e5d955146200042d578063d6a9de51146200044f578063f2fde38b1462000485578063fc0c546a14620004a5576200013c565b80635af8d21c14620003275780635bf608b8146200035d578063715018a614620003935780638a614dd5146200039f5780638da5cb5b14620003d5576200013c565b80632e1a7d4d116200010b5780632e1a7d4d1462000219578063379607f5146200024f57806340e58ee514620002855780634364b26e14620002bb57806344a9d24414620002f1576200013c565b80630935847914620001415780630aebeb4e14620001775780632926ea2a14620001ad5780632bd4978014620001e3575b600080fd5b6200015f600480360381019062000159919062003099565b620004c7565b6040516200016e9190620030f1565b60405180910390f35b6200019560048036038101906200018f91906200310e565b6200064b565b604051620001a491906200315d565b60405180910390f35b620001cb6004803603810190620001c591906200310e565b62000723565b604051620001da91906200315d565b60405180910390f35b620002016004803603810190620001fb919062003099565b62000787565b604051620002109190620030f1565b60405180910390f35b6200023760048036038101906200023191906200310e565b620007b0565b6040516200024691906200315d565b60405180910390f35b6200026d60048036038101906200026791906200310e565b62000874565b6040516200027c91906200315d565b60405180910390f35b620002a360048036038101906200029d91906200310e565b62000a13565b604051620002b291906200315d565b60405180910390f35b620002d96004803603810190620002d391906200310e565b62000b2c565b604051620002e891906200315d565b60405180910390f35b6200030f60048036038101906200030991906200310e565b62000c03565b6040516200031e9190620030f1565b60405180910390f35b6200034560048036038101906200033f91906200310e565b62000c1b565b60405162000354919062003205565b60405180910390f35b6200037b60048036038101906200037591906200310e565b62000c58565b6040516200038a919062003247565b60405180910390f35b6200039d62000d06565b005b620003bd6004803603810190620003b79190620032d6565b62000d1e565b604051620003cc9190620030f1565b60405180910390f35b620003df62000db2565b604051620003ee919062003247565b60405180910390f35b6200041560048036038101906200040f91906200310e565b62000ddc565b6040516200042491906200315d565b60405180910390f35b6200043762000e37565b604051620004469190620033ce565b60405180910390f35b6200046d60048036038101906200046791906200310e565b62000e5d565b6040516200047c919062003247565b60405180910390f35b620004a360048036038101906200049d91906200341c565b62000f0b565b005b620004af62000f95565b604051620004be919062003473565b60405180910390f35b6000620004d48262000c58565b73ffffffffffffffffffffffffffffffffffffffff163373ffffffffffffffffffffffffffffffffffffffff1614158015620005465750620005168262000e5d565b73ffffffffffffffffffffffffffffffffffffffff163373ffffffffffffffffffffffffffffffffffffffff1614155b62000588576040517f08c379a00000000000000000000000000000000000000000000000000000000081526004016200057f90620034f1565b60405180910390fd5b60008073ffffffffffffffffffffffffffffffffffffffff16620005ac8462000e5d565b73ffffffffffffffffffffffffffffffffffffffff161490506000620005d482868662000fbb565b9050620005e3848315620012b5565b50620005ef84620015a4565b503373ffffffffffffffffffffffffffffffffffffffff167f68e07974e86f9190b39c5e1783e6ba66b3d0d7ccf507de51450f14e594d1686882604051620006389190620030f1565b60405180910390a2809250505092915050565b600081620006598162000c58565b73ffffffffffffffffffffffffffffffffffffffff163373ffffffffffffffffffffffffffffffffffffffff1614620006c9576040517f08c379a0000000000000000000000000000000000000000000000000000000008152600401620006c09062003563565b60405180910390fd5b620006d48362001884565b620006df8362001a2a565b507fbf67515a38ee520223d32c1266d52101c30d936ed1f3e436c8caeb0a43cb06bf83604051620007119190620030f1565b60405180910390a16001915050919050565b60006200072f62001c28565b6200073a8262001cad565b620007458262001f85565b7f73fe46267e05ae56a3625c045df1b74c1b1736a7535eeadef3c57551bfd0059982604051620007769190620030f1565b60405180910390a160019050919050565b60046020528160005260406000208160028110620007a457600080fd5b01600091509150505481565b6000620007bc62001c28565b600360009054906101000a900473ffffffffffffffffffffffffffffffffffffffff1673ffffffffffffffffffffffffffffffffffffffff1663a9059cbb6200080462000db2565b846040518363ffffffff1660e01b81526004016200082492919062003585565b6020604051808303816000875af115801562000844573d6000803e3d6000fd5b505050506040513d601f19601f820116820180604052508101906200086a9190620035c9565b5060019050919050565b600081620008828162000c58565b73ffffffffffffffffffffffffffffffffffffffff163373ffffffffffffffffffffffffffffffffffffffff1614620008f2576040517f08c379a0000000000000000000000000000000000000000000000000000000008152600401620008e99062003563565b60405180910390fd5b6000620008ff8462000c1b565b73ffffffffffffffffffffffffffffffffffffffff1663f26cc58e6040518163ffffffff1660e01b8152600401602060405180830381865afa1580156200094a573d6000803e3d6000fd5b505050506040513d601f19601f8201168201806040525081019062000970919062003612565b03620009b3576040517f08c379a0000000000000000000000000000000000000000000000000000000008152600401620009aa90620036ba565b60405180910390fd5b620009be8362002212565b6000620009cb84620023b8565b90507f022e3d29644ead4083349ca84d24bcac368b2461819b70f5921fea15de4dec4d848260405162000a00929190620036dc565b60405180910390a1600192505050919050565b60008162000a218162000c58565b73ffffffffffffffffffffffffffffffffffffffff163373ffffffffffffffffffffffffffffffffffffffff16148062000a90575062000a618162000e5d565b73ffffffffffffffffffffffffffffffffffffffff163373ffffffffffffffffffffffffffffffffffffffff16145b62000ad2576040517f08c379a000000000000000000000000000000000000000000000000000000000815260040162000ac9906200377f565b60405180910390fd5b62000add8362002670565b62000ae88362001a2a565b507f8bf30e7ff26833413be5f69e1d373744864d600b664204b4a2f9844a8eedb9ed8360405162000b1a9190620030f1565b60405180910390a16001915050919050565b60008162000b3a8162000c58565b73ffffffffffffffffffffffffffffffffffffffff163373ffffffffffffffffffffffffffffffffffffffff161462000baa576040517f08c379a000000000000000000000000000000000000000000000000000000000815260040162000ba19062003563565b60405180910390fd5b62000bb58362001cad565b62000bc08362002816565b7f73fe46267e05ae56a3625c045df1b74c1b1736a7535eeadef3c57551bfd005998360405162000bf19190620030f1565b60405180910390a16001915050919050565b60026020528060005260406000206000915090505481565b60006001600083815260200190815260200160002060009054906101000a900473ffffffffffffffffffffffffffffffffffffffff169050919050565b60006001600083815260200190815260200160002060009054906101000a900473ffffffffffffffffffffffffffffffffffffffff1673ffffffffffffffffffffffffffffffffffffffff1663603daf9a6040518163ffffffff1660e01b8152600401602060405180830381865afa15801562000cd9573d6000803e3d6000fd5b505050506040513d601f19601f8201168201806040525081019062000cff9190620037b8565b9050919050565b62000d1062001c28565b62000d1c600062002a2c565b565b60008062000d338a8a8a8a8a8a8a8a62002af2565b905062000d41818b620012b5565b503373ffffffffffffffffffffffffffffffffffffffff167f9eab9cfac223c6527657a8d86c920796a5ab5038bc0f4497038958ac33fa8f838b838662000d888662000c1b565b60405162000d9a9493929190620037fb565b60405180910390a28091505098975050505050505050565b6000600560009054906101000a900473ffffffffffffffffffffffffffffffffffffffff16905090565b600062000de98262002c2d565b62000df48262001a2a565b507fa33fd53ba34795ffefaea3759c71f87d38b89ae12e40bc434c826fae0ca535838260405162000e269190620030f1565b60405180910390a160019050919050565b62000e4162003038565b6000604051806020016040529081600082015481525050905090565b60006001600083815260200190815260200160002060009054906101000a900473ffffffffffffffffffffffffffffffffffffffff1673ffffffffffffffffffffffffffffffffffffffff1663dbd0e1b66040518163ffffffff1660e01b8152600401602060405180830381865afa15801562000ede573d6000803e3d6000fd5b505050506040513d601f19601f8201168201806040525081019062000f049190620037b8565b9050919050565b62000f1562001c28565b600073ffffffffffffffffffffffffffffffffffffffff168173ffffffffffffffffffffffffffffffffffffffff160362000f87576040517f08c379a000000000000000000000000000000000000000000000000000000000815260040162000f7e90620038be565b60405180910390fd5b62000f928162002a2c565b50565b600360009054906101000a900473ffffffffffffffffffffffffffffffffffffffff1681565b6000816001600481111562000fd55762000fd4620038e0565b5b6001600083815260200190815260200160002060009054906101000a900473ffffffffffffffffffffffffffffffffffffffff1673ffffffffffffffffffffffffffffffffffffffff1663200d2ed26040518163ffffffff1660e01b8152600401602060405180830381865afa15801562001054573d6000803e3d6000fd5b505050506040513d601f19601f820116820180604052508101906200107a919062003937565b60048111156200108f576200108e620038e0565b5b14620010d2576040517f08c379a0000000000000000000000000000000000000000000000000000000008152600401620010c990620039df565b60405180910390fd5b60006001600085815260200190815260200160002060009054906101000a900473ffffffffffffffffffffffffffffffffffffffff1690508073ffffffffffffffffffffffffffffffffffffffff1663bef904e3866040518263ffffffff1660e01b8152600401620011459190620030f1565b6020604051808303816000875af115801562001165573d6000803e3d6000fd5b505050506040513d601f19601f820116820180604052508101906200118b919062003612565b506224ea00426200119d919062003a30565b60026000868152602001908152602001600020819055508073ffffffffffffffffffffffffffffffffffffffff1663bab215f83388156040518363ffffffff1660e01b8152600401620011f292919062003a6b565b600060405180830381600087803b1580156200120d57600080fd5b505af115801562001222573d6000803e3d6000fd5b505050508073ffffffffffffffffffffffffffffffffffffffff16632e49d78b60026040518263ffffffff1660e01b815260040162001262919062003ae9565b6020604051808303816000875af115801562001282573d6000803e3d6000fd5b505050506040513d601f19601f82011682018060405250810190620012a8919062003937565b5083925050509392505050565b60008082156200143957620013506004620012d08662000c1b565b73ffffffffffffffffffffffffffffffffffffffff1663e0a73a936040518163ffffffff1660e01b8152600401602060405180830381865afa1580156200131b573d6000803e3d6000fd5b505050506040513d601f19601f8201168201806040525081019062001341919062003612565b62002f9f90919063ffffffff16565b9050600360009054906101000a900473ffffffffffffffffffffffffffffffffffffffff1673ffffffffffffffffffffffffffffffffffffffff166323b872dd6200139b8662000c58565b30846040518463ffffffff1660e01b8152600401620013bd9392919062003b06565b6020604051808303816000875af1158015620013dd573d6000803e3d6000fd5b505050506040513d601f19601f82011682018060405250810190620014039190620035c9565b5080600460008681526020019081526020016000206000600281106200142e576200142d62003b43565b5b018190555062001599565b620014448462000c1b565b73ffffffffffffffffffffffffffffffffffffffff16634c1786ea6040518163ffffffff1660e01b8152600401602060405180830381865afa1580156200148f573d6000803e3d6000fd5b505050506040513d601f19601f82011682018060405250810190620014b5919062003612565b9050600360009054906101000a900473ffffffffffffffffffffffffffffffffffffffff1673ffffffffffffffffffffffffffffffffffffffff166323b872dd620015008662000e5d565b30846040518463ffffffff1660e01b8152600401620015229392919062003b06565b6020604051808303816000875af115801562001542573d6000803e3d6000fd5b505050506040513d601f19601f82011682018060405250810190620015689190620035c9565b50806004600086815260200190815260200160002060016002811062001593576200159262003b43565b5b01819055505b600191505092915050565b600080620015b28362000c1b565b73ffffffffffffffffffffffffffffffffffffffff1663e0a73a936040518163ffffffff1660e01b8152600401602060405180830381865afa158015620015fd573d6000803e3d6000fd5b505050506040513d601f19601f8201168201806040525081019062001623919062003612565b90506000600360009054906101000a900473ffffffffffffffffffffffffffffffffffffffff1673ffffffffffffffffffffffffffffffffffffffff1663a9059cbb620016708662000e5d565b846040518363ffffffff1660e01b81526004016200169092919062003585565b6020604051808303816000875af1158015620016b0573d6000803e3d6000fd5b505050506040513d601f19601f82011682018060405250810190620016d69190620035c9565b9050806200171b576040517f08c379a0000000000000000000000000000000000000000000000000000000008152600401620017129062003bc2565b60405180910390fd5b816004600086815260200190815260200160002060006002811062001745576200174462003b43565b5b01600082825462001757919062003be4565b9250508190555060006200176b8562000c1b565b73ffffffffffffffffffffffffffffffffffffffff1663a2e800ad6040518163ffffffff1660e01b8152600401602060405180830381865afa158015620017b6573d6000803e3d6000fd5b505050506040513d601f19601f82011682018060405250810190620017dc919062003c36565b9050620017e98562000c1b565b73ffffffffffffffffffffffffffffffffffffffff1663d2895e9360018362001813919062003c68565b6040518263ffffffff1660e01b815260040162001831919062003ca7565b6020604051808303816000875af115801562001851573d6000803e3d6000fd5b505050506040513d601f19601f8201168201806040525081019062001877919062003c36565b5060019350505050919050565b80600260048111156200189c576200189b620038e0565b5b6001600083815260200190815260200160002060009054906101000a900473ffffffffffffffffffffffffffffffffffffffff1673ffffffffffffffffffffffffffffffffffffffff1663200d2ed26040518163ffffffff1660e01b8152600401602060405180830381865afa1580156200191b573d6000803e3d6000fd5b505050506040513d601f19601f8201168201806040525081019062001941919062003937565b6004811115620019565762001955620038e0565b5b1462001999576040517f08c379a0000000000000000000000000000000000000000000000000000000008152600401620019909062003d3a565b60405180910390fd5b620019a48262000c1b565b73ffffffffffffffffffffffffffffffffffffffff16632e49d78b60046040518263ffffffff1660e01b8152600401620019df919062003ae9565b6020604051808303816000875af1158015620019ff573d6000803e3d6000fd5b505050506040513d601f19601f8201168201806040525081019062001a25919062003937565b505050565b600080604051806040016040528062001a438562000c58565b73ffffffffffffffffffffffffffffffffffffffff1673ffffffffffffffffffffffffffffffffffffffff16815260200162001a7f8562000e5d565b73ffffffffffffffffffffffffffffffffffffffff1673ffffffffffffffffffffffffffffffffffffffff16815250905060005b6001811162001c1257600060046000868152602001908152602001600020826002811062001ae65762001ae562003b43565b5b015490506000811462001bfb576000600360009054906101000a900473ffffffffffffffffffffffffffffffffffffffff1673ffffffffffffffffffffffffffffffffffffffff1663a9059cbb85856002811062001b495762001b4862003b43565b5b6020020151846040518363ffffffff1660e01b815260040162001b6e92919062003585565b6020604051808303816000875af115801562001b8e573d6000803e3d6000fd5b505050506040513d601f19601f8201168201806040525081019062001bb49190620035c9565b90508062001bf9576040517f08c379a000000000000000000000000000000000000000000000000000000000815260040162001bf09062003dac565b60405180910390fd5b505b50808062001c099062003dce565b91505062001ab3565b5062001c1e8362002fb7565b6001915050919050565b62001c326200300c565b73ffffffffffffffffffffffffffffffffffffffff1662001c5262000db2565b73ffffffffffffffffffffffffffffffffffffffff161462001cab576040517f08c379a000000000000000000000000000000000000000000000000000000000815260040162001ca29062003e6b565b60405180910390fd5b565b806002600481111562001cc55762001cc4620038e0565b5b6001600083815260200190815260200160002060009054906101000a900473ffffffffffffffffffffffffffffffffffffffff1673ffffffffffffffffffffffffffffffffffffffff1663200d2ed26040518163ffffffff1660e01b8152600401602060405180830381865afa15801562001d44573d6000803e3d6000fd5b505050506040513d601f19601f8201168201806040525081019062001d6a919062003937565b600481111562001d7f5762001d7e620038e0565b5b1462001dc2576040517f08c379a000000000000000000000000000000000000000000000000000000000815260040162001db99062003d3a565b60405180910390fd5b60006001600084815260200190815260200160002060009054906101000a900473ffffffffffffffffffffffffffffffffffffffff1673ffffffffffffffffffffffffffffffffffffffff1663a2e800ad6040518163ffffffff1660e01b8152600401602060405180830381865afa15801562001e43573d6000803e3d6000fd5b505050506040513d601f19601f8201168201806040525081019062001e69919062003c36565b905060008163ffffffff161162001eb7576040517f08c379a000000000000000000000000000000000000000000000000000000000815260040162001eae9062003edd565b60405180910390fd5b6224ea0060026000858152602001908152602001600020600082825462001edf919062003a30565b9250508190555062001ef18362000c1b565b73ffffffffffffffffffffffffffffffffffffffff1663d2895e9360018362001f1b919062003c68565b6040518263ffffffff1660e01b815260040162001f39919062003ca7565b6020604051808303816000875af115801562001f59573d6000803e3d6000fd5b505050506040513d601f19601f8201168201806040525081019062001f7f919062003c36565b50505050565b6000429050806002600084815260200190815260200160002054111562001fe3576040517f08c379a000000000000000000000000000000000000000000000000000000000815260040162001fda9062003f75565b60405180910390fd5b600062001ff08362000c1b565b73ffffffffffffffffffffffffffffffffffffffff1663e0a73a936040518163ffffffff1660e01b8152600401602060405180830381865afa1580156200203b573d6000803e3d6000fd5b505050506040513d601f19601f8201168201806040525081019062002061919062003612565b905080600460008581526020019081526020016000206000600281106200208d576200208c62003b43565b5b01541015620020d3576040517f08c379a0000000000000000000000000000000000000000000000000000000008152600401620020ca9062003fe7565b60405180910390fd5b6000600360009054906101000a900473ffffffffffffffffffffffffffffffffffffffff1673ffffffffffffffffffffffffffffffffffffffff1663a9059cbb6200211e8662000e5d565b846040518363ffffffff1660e01b81526004016200213e92919062003585565b6020604051808303816000875af11580156200215e573d6000803e3d6000fd5b505050506040513d601f19601f82011682018060405250810190620021849190620035c9565b905080620021c9576040517f08c379a0000000000000000000000000000000000000000000000000000000008152600401620021c09062004059565b60405180910390fd5b8160046000868152602001908152602001600020600060028110620021f357620021f262003b43565b5b01600082825462002205919062003be4565b9250508190555050505050565b80600260048111156200222a5762002229620038e0565b5b6001600083815260200190815260200160002060009054906101000a900473ffffffffffffffffffffffffffffffffffffffff1673ffffffffffffffffffffffffffffffffffffffff1663200d2ed26040518163ffffffff1660e01b8152600401602060405180830381865afa158015620022a9573d6000803e3d6000fd5b505050506040513d601f19601f82011682018060405250810190620022cf919062003937565b6004811115620022e457620022e3620038e0565b5b1462002327576040517f08c379a00000000000000000000000000000000000000000000000000000000081526004016200231e9062003d3a565b60405180910390fd5b620023328262000c1b565b73ffffffffffffffffffffffffffffffffffffffff16632e49d78b60036040518263ffffffff1660e01b81526004016200236d919062003ae9565b6020604051808303816000875af11580156200238d573d6000803e3d6000fd5b505050506040513d601f19601f82011682018060405250810190620023b3919062003937565b505050565b600080620023c68362000c1b565b73ffffffffffffffffffffffffffffffffffffffff1663f26cc58e6040518163ffffffff1660e01b8152600401602060405180830381865afa15801562002411573d6000803e3d6000fd5b505050506040513d601f19601f8201168201806040525081019062002437919062003612565b90506000600360009054906101000a900473ffffffffffffffffffffffffffffffffffffffff1673ffffffffffffffffffffffffffffffffffffffff1663a9059cbb620024848662000c58565b60046000888152602001908152602001600020600060028110620024ad57620024ac62003b43565b5b015485620024bc919062003a30565b6040518363ffffffff1660e01b8152600401620024db92919062003585565b6020604051808303816000875af1158015620024fb573d6000803e3d6000fd5b505050506040513d601f19601f82011682018060405250810190620025219190620035c9565b90506000600360009054906101000a900473ffffffffffffffffffffffffffffffffffffffff1673ffffffffffffffffffffffffffffffffffffffff1663a9059cbb6200256e8762000e5d565b85600460008a815260200190815260200160002060016002811062002598576200259762003b43565b5b0154620025a6919062003be4565b6040518363ffffffff1660e01b8152600401620025c592919062003585565b6020604051808303816000875af1158015620025e5573d6000803e3d6000fd5b505050506040513d601f19601f820116820180604052508101906200260b9190620035c9565b9050818015620026185750805b6200265a576040517f08c379a00000000000000000000000000000000000000000000000000000000081526004016200265190620040cb565b60405180910390fd5b620026658562002fb7565b829350505050919050565b8060016004811115620026885762002687620038e0565b5b6001600083815260200190815260200160002060009054906101000a900473ffffffffffffffffffffffffffffffffffffffff1673ffffffffffffffffffffffffffffffffffffffff1663200d2ed26040518163ffffffff1660e01b8152600401602060405180830381865afa15801562002707573d6000803e3d6000fd5b505050506040513d601f19601f820116820180604052508101906200272d919062003937565b6004811115620027425762002741620038e0565b5b1462002785576040517f08c379a00000000000000000000000000000000000000000000000000000000081526004016200277c90620039df565b60405180910390fd5b620027908262000c1b565b73ffffffffffffffffffffffffffffffffffffffff16632e49d78b60006040518263ffffffff1660e01b8152600401620027cb919062003ae9565b6020604051808303816000875af1158015620027eb573d6000803e3d6000fd5b505050506040513d601f19601f8201168201806040525081019062002811919062003937565b505050565b6000429050806203f480600260008581526020019081526020016000205462002840919062003be4565b1115801562002862575060026000838152602001908152602001600020548111155b620028a4576040517f08c379a00000000000000000000000000000000000000000000000000000000081526004016200289b906200413d565b60405180910390fd5b6000620028b18362000c1b565b73ffffffffffffffffffffffffffffffffffffffff1663e0a73a936040518163ffffffff1660e01b8152600401602060405180830381865afa158015620028fc573d6000803e3d6000fd5b505050506040513d601f19601f8201168201806040525081019062002922919062003612565b90506000600360009054906101000a900473ffffffffffffffffffffffffffffffffffffffff1673ffffffffffffffffffffffffffffffffffffffff166323b872dd6200296f8662000c58565b6200297a8762000e5d565b856040518463ffffffff1660e01b81526004016200299b9392919062003b06565b6020604051808303816000875af1158015620029bb573d6000803e3d6000fd5b505050506040513d601f19601f82011682018060405250810190620029e19190620035c9565b90508062002a26576040517f08c379a000000000000000000000000000000000000000000000000000000000815260040162002a1d9062004059565b60405180910390fd5b50505050565b6000600560009054906101000a900473ffffffffffffffffffffffffffffffffffffffff16905081600560006101000a81548173ffffffffffffffffffffffffffffffffffffffff021916908373ffffffffffffffffffffffffffffffffffffffff1602179055508173ffffffffffffffffffffffffffffffffffffffff168173ffffffffffffffffffffffffffffffffffffffff167f8be0079c531659141344cd1fd0a4f28419497f9722a3daafe3b4186f6b6457e060405160405180910390a35050565b600062002b00600062003014565b600062002b0e60006200302a565b90506000898989888a898960405162002b27906200304b565b62002b3997969594939291906200415f565b604051809103906000f08015801562002b56573d6000803e3d6000fd5b509050806001600084815260200190815260200160002060006101000a81548173ffffffffffffffffffffffffffffffffffffffff021916908373ffffffffffffffffffffffffffffffffffffffff1602179055508073ffffffffffffffffffffffffffffffffffffffff1663bab215f8338d6040518363ffffffff1660e01b815260040162002be892919062003a6b565b600060405180830381600087803b15801562002c0357600080fd5b505af115801562002c18573d6000803e3d6000fd5b50505050819250505098975050505050505050565b8062002c398162000e5d565b73ffffffffffffffffffffffffffffffffffffffff163373ffffffffffffffffffffffffffffffffffffffff161462002ca9576040517f08c379a000000000000000000000000000000000000000000000000000000000815260040162002ca0906200422c565b60405180910390fd5b816002600481111562002cc15762002cc0620038e0565b5b6001600083815260200190815260200160002060009054906101000a900473ffffffffffffffffffffffffffffffffffffffff1673ffffffffffffffffffffffffffffffffffffffff1663200d2ed26040518163ffffffff1660e01b8152600401602060405180830381865afa15801562002d40573d6000803e3d6000fd5b505050506040513d601f19601f8201168201806040525081019062002d66919062003937565b600481111562002d7b5762002d7a620038e0565b5b1462002dbe576040517f08c379a000000000000000000000000000000000000000000000000000000000815260040162002db59062003d3a565b60405180910390fd5b600062002dcb8462000c1b565b73ffffffffffffffffffffffffffffffffffffffff1663a2e800ad6040518163ffffffff1660e01b8152600401602060405180830381865afa15801562002e16573d6000803e3d6000fd5b505050506040513d601f19601f8201168201806040525081019062002e3c919062003c36565b905060006002600086815260200190815260200160002054421015801562002e6a575060008263ffffffff16145b905060006002600087815260200190815260200160002054421015801562002ebc575060006004600088815260200190815260200160002060006002811062002eb85762002eb762003b43565b5b0154145b9050808062002ec85750815b62002f0a576040517f08c379a000000000000000000000000000000000000000000000000000000000815260040162002f01906200429e565b60405180910390fd5b62002f158662000c1b565b73ffffffffffffffffffffffffffffffffffffffff16632e49d78b60046040518263ffffffff1660e01b815260040162002f50919062003ae9565b6020604051808303816000875af115801562002f70573d6000803e3d6000fd5b505050506040513d601f19601f8201168201806040525081019062002f96919062003937565b50505050505050565b6000818362002faf9190620042c0565b905092915050565b60005b600181116200300857600060046000848152602001908152602001600020826002811062002fed5762002fec62003b43565b5b0181905550808062002fff9062003dce565b91505062002fba565b5050565b600033905090565b6001816000016000828254019250508190555050565b600081600001549050919050565b6040518060200160405280600081525090565b611acf806200432283390190565b600080fd5b6000819050919050565b62003073816200305e565b81146200307f57600080fd5b50565b600081359050620030938162003068565b92915050565b60008060408385031215620030b357620030b262003059565b5b6000620030c38582860162003082565b9250506020620030d68582860162003082565b9150509250929050565b620030eb816200305e565b82525050565b6000602082019050620031086000830184620030e0565b92915050565b60006020828403121562003127576200312662003059565b5b6000620031378482850162003082565b91505092915050565b60008115159050919050565b620031578162003140565b82525050565b60006020820190506200317460008301846200314c565b92915050565b600073ffffffffffffffffffffffffffffffffffffffff82169050919050565b6000819050919050565b6000620031c5620031bf620031b9846200317a565b6200319a565b6200317a565b9050919050565b6000620031d982620031a4565b9050919050565b6000620031ed82620031cc565b9050919050565b620031ff81620031e0565b82525050565b60006020820190506200321c6000830184620031f4565b92915050565b60006200322f826200317a565b9050919050565b620032418162003222565b82525050565b60006020820190506200325e600083018462003236565b92915050565b6200326f8162003140565b81146200327b57600080fd5b50565b6000813590506200328f8162003264565b92915050565b600063ffffffff82169050919050565b620032b08162003295565b8114620032bc57600080fd5b50565b600081359050620032d081620032a5565b92915050565b600080600080600080600080610100898b031215620032fa57620032f962003059565b5b60006200330a8b828c016200327e565b98505060206200331d8b828c0162003082565b9750506040620033308b828c0162003082565b9650506060620033438b828c0162003082565b9550506080620033568b828c0162003082565b94505060a0620033698b828c0162003082565b93505060c06200337c8b828c01620032bf565b92505060e06200338f8b828c01620032bf565b9150509295985092959890939650565b620033aa816200305e565b82525050565b602082016000820151620033c860008501826200339f565b50505050565b6000602082019050620033e56000830184620033b0565b92915050565b620033f68162003222565b81146200340257600080fd5b50565b6000813590506200341681620033eb565b92915050565b60006020828403121562003435576200343462003059565b5b6000620034458482850162003405565b91505092915050565b60006200345b82620031cc565b9050919050565b6200346d816200344e565b82525050565b60006020820190506200348a600083018462003462565b92915050565b600082825260208201905092915050565b7f54686520686f73742063616e206e6f742063616c6c20746865206d6574686f64600082015250565b6000620034d960208362003490565b9150620034e682620034a1565b602082019050919050565b600060208201905081810360008301526200350c81620034ca565b9050919050565b7f4f6e6c79206275796572206f6620746865204344532063616e2063616c6c0000600082015250565b60006200354b601e8362003490565b9150620035588262003513565b602082019050919050565b600060208201905081810360008301526200357e816200353c565b9050919050565b60006040820190506200359c600083018562003236565b620035ab6020830184620030e0565b9392505050565b600081519050620035c38162003264565b92915050565b600060208284031215620035e257620035e162003059565b5b6000620035f284828501620035b2565b91505092915050565b6000815190506200360c8162003068565b92915050565b6000602082840312156200362b576200362a62003059565b5b60006200363b84828501620035fb565b91505092915050565b7f43757272656e7420707269636520697320686967686572207468616e2074686560008201527f20636c61696d20707269636520696e2043445300000000000000000000000000602082015250565b6000620036a260338362003490565b9150620036af8262003644565b604082019050919050565b60006020820190508181036000830152620036d58162003693565b9050919050565b6000604082019050620036f36000830185620030e0565b620037026020830184620030e0565b9392505050565b7f4f6e6c792062757965722f73656c6c6572206f6620746865204344532063616e60008201527f2063616c6c000000000000000000000000000000000000000000000000000000602082015250565b60006200376760258362003490565b9150620037748262003709565b604082019050919050565b600060208201905081810360008301526200379a8162003758565b9050919050565b600081519050620037b281620033eb565b92915050565b600060208284031215620037d157620037d062003059565b5b6000620037e184828501620037a1565b91505092915050565b620037f58162003295565b82525050565b60006080820190506200381260008301876200314c565b620038216020830186620030e0565b620038306040830185620037ea565b6200383f606083018462003236565b95945050505050565b7f4f776e61626c653a206e6577206f776e657220697320746865207a65726f206160008201527f6464726573730000000000000000000000000000000000000000000000000000602082015250565b6000620038a660268362003490565b9150620038b38262003848565b604082019050919050565b60006020820190508181036000830152620038d98162003897565b9050919050565b7f4e487b7100000000000000000000000000000000000000000000000000000000600052602160045260246000fd5b600581106200391d57600080fd5b50565b60008151905062003931816200390f565b92915050565b60006020828403121562003950576200394f62003059565b5b6000620039608482850162003920565b91505092915050565b7f54686520737461747573206f6620746865204344532073686f756c642062652060008201527f70656e64696e6700000000000000000000000000000000000000000000000000602082015250565b6000620039c760278362003490565b9150620039d48262003969565b604082019050919050565b60006020820190508181036000830152620039fa81620039b8565b9050919050565b7f4e487b7100000000000000000000000000000000000000000000000000000000600052601160045260246000fd5b600062003a3d826200305e565b915062003a4a836200305e565b925082820190508082111562003a655762003a6462003a01565b5b92915050565b600060408201905062003a82600083018562003236565b62003a9160208301846200314c565b9392505050565b6005811062003aac5762003aab620038e0565b5b50565b600081905062003abf8262003a98565b919050565b600062003ad18262003aaf565b9050919050565b62003ae38162003ac4565b82525050565b600060208201905062003b00600083018462003ad8565b92915050565b600060608201905062003b1d600083018662003236565b62003b2c602083018562003236565b62003b3b6040830184620030e0565b949350505050565b7f4e487b7100000000000000000000000000000000000000000000000000000000600052603260045260246000fd5b7f53656e64696e67206669727374207072656d69756d206661696c656400000000600082015250565b600062003baa601c8362003490565b915062003bb78262003b72565b602082019050919050565b6000602082019050818103600083015262003bdd8162003b9b565b9050919050565b600062003bf1826200305e565b915062003bfe836200305e565b925082820390508181111562003c195762003c1862003a01565b5b92915050565b60008151905062003c3081620032a5565b92915050565b60006020828403121562003c4f5762003c4e62003059565b5b600062003c5f8482850162003c1f565b91505092915050565b600062003c758262003295565b915062003c828362003295565b9250828203905063ffffffff81111562003ca15762003ca062003a01565b5b92915050565b600060208201905062003cbe6000830184620037ea565b92915050565b7f54686520737461747573206f6620746865204344532073686f756c642062652060008201527f6163746976650000000000000000000000000000000000000000000000000000602082015250565b600062003d2260268362003490565b915062003d2f8262003cc4565b604082019050919050565b6000602082019050818103600083015262003d558162003d13565b9050919050565b7f53656e64696e67206465706f736974206261636b206661696c65640000000000600082015250565b600062003d94601b8362003490565b915062003da18262003d5c565b602082019050919050565b6000602082019050818103600083015262003dc78162003d85565b9050919050565b600062003ddb826200305e565b91507fffffffffffffffffffffffffffffffffffffffffffffffffffffffffffffffff820362003e105762003e0f62003a01565b5b600182019050919050565b7f4f776e61626c653a2063616c6c6572206973206e6f7420746865206f776e6572600082015250565b600062003e5360208362003490565b915062003e608262003e1b565b602082019050919050565b6000602082019050818103600083015262003e868162003e44565b9050919050565b7f526f756e6420616c726561647920656e64656400000000000000000000000000600082015250565b600062003ec560138362003490565b915062003ed28262003e8d565b602082019050919050565b6000602082019050818103600083015262003ef88162003eb6565b9050919050565b7f496e76616c6964206461746520746f20706179207072656d69756d206279206460008201527f65706f7369742000000000000000000000000000000000000000000000000000602082015250565b600062003f5d60278362003490565b915062003f6a8262003eff565b604082019050919050565b6000602082019050818103600083015262003f908162003f4e565b9050919050565b7f4e6f7420656e6f756768206465706f7369740000000000000000000000000000600082015250565b600062003fcf60128362003490565b915062003fdc8262003f97565b602082019050919050565b60006020820190508181036000830152620040028162003fc0565b9050919050565b7f53656e64696e67207072656d69756d206661696c656400000000000000000000600082015250565b60006200404160168362003490565b91506200404e8262004009565b602082019050919050565b60006020820190508181036000830152620040748162004032565b9050919050565b7f53656e64696e6720726577617264206661696c65640000000000000000000000600082015250565b6000620040b360158362003490565b9150620040c0826200407b565b602082019050919050565b60006020820190508181036000830152620040e681620040a4565b9050919050565b7f496e76616c6964206461746520746f20706179207072656d69756d0000000000600082015250565b600062004125601b8362003490565b91506200413282620040ed565b602082019050919050565b60006020820190508181036000830152620041588162004116565b9050919050565b600060e08201905062004176600083018a620030e0565b620041856020830189620030e0565b620041946040830188620030e0565b620041a36060830187620030e0565b620041b26080830186620030e0565b620041c160a0830185620037ea565b620041d060c0830184620037ea565b98975050505050505050565b7f4f6e6c792073656c6c6572206f6620746865204344532063616e2063616c6c00600082015250565b600062004214601f8362003490565b91506200422182620041dc565b602082019050919050565b60006020820190508181036000830152620042478162004205565b9050919050565b7f4275796572206465706f736974202f20526f756e64732072656d61696e696e67600082015250565b60006200428660208362003490565b915062004293826200424e565b602082019050919050565b60006020820190508181036000830152620042b98162004277565b9050919050565b6000620042cd826200305e565b9150620042da836200305e565b9250817fffffffffffffffffffffffffffffffffffffffffffffffffffffffffffffffff048311821515161562004316576200431562003a01565b5b82820290509291505056fe60806040523480156200001157600080fd5b5060405162001acf38038062001acf833981810160405281019062000037919062000444565b620000576200004b6200028960201b60201c565b6200029160201b60201c565b733c7a4a23f876452c92c89405874fd4118dcb9e06600160006101000a81548173ffffffffffffffffffffffffffffffffffffffff021916908373ffffffffffffffffffffffffffffffffffffffff160217905550866003819055508560048190555084600581905550836006819055508260078190555081600a60146101000a81548163ffffffff021916908363ffffffff16021790555081600a60186101000a81548163ffffffff021916908363ffffffff160217905550620001336005546007546003546200035560201b62000a7f179092919060201c565b60088190555060008163ffffffff16148062000155575060018163ffffffff16145b8062000167575060028163ffffffff16145b620001a9576040517f08c379a0000000000000000000000000000000000000000000000000000000008152600401620001a09062000558565b60405180910390fd5b80600a601c6101000a81548163ffffffff021916908363ffffffff1602179055506000600960006101000a81548173ffffffffffffffffffffffffffffffffffffffff021916908373ffffffffffffffffffffffffffffffffffffffff1602179055506000600a60006101000a81548173ffffffffffffffffffffffffffffffffffffffff021916908373ffffffffffffffffffffffffffffffffffffffff1602179055506001600260146101000a81548160ff021916908360048111156200027757620002766200057a565b5b0217905550505050505050506200067a565b600033905090565b60008060009054906101000a900473ffffffffffffffffffffffffffffffffffffffff169050816000806101000a81548173ffffffffffffffffffffffffffffffffffffffff021916908373ffffffffffffffffffffffffffffffffffffffff1602179055508173ffffffffffffffffffffffffffffffffffffffff168173ffffffffffffffffffffffffffffffffffffffff167f8be0079c531659141344cd1fd0a4f28419497f9722a3daafe3b4186f6b6457e060405160405180910390a35050565b60006200038a6200037584866200039360201b62000aaf1790919060201c565b83620003ab60201b62000ac51790919060201c565b90509392505050565b60008183620003a39190620005d8565b905092915050565b60008183620003bb919062000642565b905092915050565b600080fd5b6000819050919050565b620003dd81620003c8565b8114620003e957600080fd5b50565b600081519050620003fd81620003d2565b92915050565b600063ffffffff82169050919050565b6200041e8162000403565b81146200042a57600080fd5b50565b6000815190506200043e8162000413565b92915050565b600080600080600080600060e0888a031215620004665762000465620003c3565b5b6000620004768a828b01620003ec565b9750506020620004898a828b01620003ec565b96505060406200049c8a828b01620003ec565b9550506060620004af8a828b01620003ec565b9450506080620004c28a828b01620003ec565b93505060a0620004d58a828b016200042d565b92505060c0620004e88a828b016200042d565b91505092959891949750929550565b600082825260208201905092915050565b7f4254433a302c204554483a312c204c494e4b3a32000000000000000000000000600082015250565b600062000540601483620004f7565b91506200054d8262000508565b602082019050919050565b60006020820190508181036000830152620005738162000531565b9050919050565b7f4e487b7100000000000000000000000000000000000000000000000000000000600052602160045260246000fd5b7f4e487b7100000000000000000000000000000000000000000000000000000000600052601160045260246000fd5b6000620005e582620003c8565b9150620005f283620003c8565b92508282039050818111156200060d576200060c620005a9565b5b92915050565b7f4e487b7100000000000000000000000000000000000000000000000000000000600052601260045260246000fd5b60006200064f82620003c8565b91506200065c83620003c8565b9250826200066f576200066e62000613565b5b828204905092915050565b611445806200068a6000396000f3fe608060405234801561001057600080fd5b506004361061018e5760003560e01c8063a3f09ad6116100de578063d2895e9311610097578063e0a73a9311610071578063e0a73a9314610459578063e99d286614610477578063f26cc58e146104a7578063f2fde38b146104c55761018e565b8063d2895e93146103ed578063dbd0e1b61461041d578063dd22db801461043b5761018e565b8063a3f09ad614610317578063a607a8d914610347578063b6fc2d5f14610365578063bab215f814610383578063bd9a548b1461039f578063bef904e3146103bd5761018e565b8063603daf9a1161014b57806386be75b71161012557806386be75b71461029f5780638a568299146102bd5780638da5cb5b146102db578063a2e800ad146102f95761018e565b8063603daf9a14610259578063715018a614610277578063762db7ee146102815761018e565b806315d655c914610193578063200d2ed2146101b15780632dddd49c146101cf5780632e49d78b146101ed5780633fe3347a1461021d5780634c1786ea1461023b575b600080fd5b61019b6104e1565b6040516101a89190610dbe565b60405180910390f35b6101b96104e7565b6040516101c69190610e50565b60405180910390f35b6101d76104fa565b6040516101e49190610dbe565b60405180910390f35b61020760048036038101906102029190610e95565b610597565b6040516102149190610e50565b60405180910390f35b6102256105e2565b6040516102329190610ee1565b60405180910390f35b6102436105f8565b6040516102509190610dbe565b60405180910390f35b6102616105fe565b60405161026e9190610f3d565b60405180910390f35b61027f610628565b005b61028961063c565b6040516102969190610dbe565b60405180910390f35b6102a7610642565b6040516102b49190610dbe565b60405180910390f35b6102c5610648565b6040516102d29190610ee1565b60405180910390f35b6102e361065e565b6040516102f09190610f3d565b60405180910390f35b610301610687565b60405161030e9190610ee1565b60405180910390f35b610331600480360381019061032c9190610f84565b61069d565b60405161033e9190610f3d565b60405180910390f35b61034f610712565b60405161035c9190610dbe565b60405180910390f35b61036d6107af565b60405161037a9190610dbe565b60405180910390f35b61039d60048036038101906103989190610fe9565b6107b5565b005b6103a76107df565b6040516103b491906110d4565b60405180910390f35b6103d760048036038101906103d2919061111b565b61081d565b6040516103e49190610dbe565b60405180910390f35b61040760048036038101906104029190611174565b610830565b6040516104149190610ee1565b60405180910390f35b610425610875565b6040516104329190610f3d565b60405180910390f35b61044361089f565b6040516104509190610dbe565b60405180910390f35b61046161093c565b60405161046e9190610dbe565b60405180910390f35b610491600480360381019061048c9190610f84565b610942565b60405161049e9190610f3d565b60405180910390f35b6104af6109b7565b6040516104bc9190610dbe565b60405180910390f35b6104df60048036038101906104da9190610f84565b6109fc565b005b60045481565b600260149054906101000a900460ff1681565b600080600160009054906101000a900473ffffffffffffffffffffffffffffffffffffffff1673ffffffffffffffffffffffffffffffffffffffff16630cf785356040518163ffffffff1660e01b8152600401602060405180830381865afa15801561056a573d6000803e3d6000fd5b505050506040513d601f19601f8201168201806040525081019061058e91906111b6565b90508091505090565b60006105a1610adb565b81600260146101000a81548160ff021916908360048111156105c6576105c5610dd9565b5b0217905550600260149054906101000a900460ff169050919050565b600a601c9054906101000a900463ffffffff1681565b60075481565b6000600960009054906101000a900473ffffffffffffffffffffffffffffffffffffffff16905090565b610630610adb565b61063a6000610b59565b565b60085481565b60035481565b600a60189054906101000a900463ffffffff1681565b60008060009054906101000a900473ffffffffffffffffffffffffffffffffffffffff16905090565b600a60149054906101000a900463ffffffff1681565b60006106a7610adb565b81600960006101000a81548173ffffffffffffffffffffffffffffffffffffffff021916908373ffffffffffffffffffffffffffffffffffffffff160217905550600960009054906101000a900473ffffffffffffffffffffffffffffffffffffffff169050919050565b600080600160009054906101000a900473ffffffffffffffffffffffffffffffffffffffff1673ffffffffffffffffffffffffffffffffffffffff1663ff186b2e6040518163ffffffff1660e01b8152600401602060405180830381865afa158015610782573d6000803e3d6000fd5b505050506040513d601f19601f820116820180604052508101906107a691906111b6565b90508091505090565b60055481565b6107bd610adb565b806107d0576107cb82610942565b6107da565b6107d98261069d565b5b505050565b6107e7610d83565b6040518060a001604052806003548152602001600454815260200160055481526020016006548152602001600754815250905090565b6000816003819055506003549050919050565b600061083a610adb565b81600a60146101000a81548163ffffffff021916908363ffffffff160217905550600a60149054906101000a900463ffffffff169050919050565b6000600a60009054906101000a900473ffffffffffffffffffffffffffffffffffffffff16905090565b600080600160009054906101000a900473ffffffffffffffffffffffffffffffffffffffff1673ffffffffffffffffffffffffffffffffffffffff1663a8ad52d16040518163ffffffff1660e01b8152600401602060405180830381865afa15801561090f573d6000803e3d6000fd5b505050506040513d601f19601f8201168201806040525081019061093391906111b6565b90508091505090565b60065481565b600061094c610adb565b81600a60006101000a81548173ffffffffffffffffffffffffffffffffffffffff021916908373ffffffffffffffffffffffffffffffffffffffff160217905550600a60009054906101000a900473ffffffffffffffffffffffffffffffffffffffff169050919050565b6000806109c2610c1d565b90508060045410156109d85760009150506109f9565b6109f560055460035483600754610cf5909392919063ffffffff16565b9150505b90565b610a04610adb565b600073ffffffffffffffffffffffffffffffffffffffff168173ffffffffffffffffffffffffffffffffffffffff1603610a73576040517f08c379a0000000000000000000000000000000000000000000000000000000008152600401610a6a90611266565b60405180910390fd5b610a7c81610b59565b50565b6000610aa6610a978486610aaf90919063ffffffff16565b83610ac590919063ffffffff16565b90509392505050565b60008183610abd91906112b5565b905092915050565b60008183610ad39190611318565b905092915050565b610ae3610d65565b73ffffffffffffffffffffffffffffffffffffffff16610b0161065e565b73ffffffffffffffffffffffffffffffffffffffff1614610b57576040517f08c379a0000000000000000000000000000000000000000000000000000000008152600401610b4e90611395565b60405180910390fd5b565b60008060009054906101000a900473ffffffffffffffffffffffffffffffffffffffff169050816000806101000a81548173ffffffffffffffffffffffffffffffffffffffff021916908373ffffffffffffffffffffffffffffffffffffffff1602179055508173ffffffffffffffffffffffffffffffffffffffff168173ffffffffffffffffffffffffffffffffffffffff167f8be0079c531659141344cd1fd0a4f28419497f9722a3daafe3b4186f6b6457e060405160405180910390a35050565b600080600a601c9054906101000a900463ffffffff1663ffffffff1603610c6357610c5c6305f5e100610c4e61089f565b610ac590919063ffffffff16565b9050610cf2565b6001600a601c9054906101000a900463ffffffff1663ffffffff1603610ca857610ca16305f5e100610c93610712565b610ac590919063ffffffff16565b9050610cf2565b6002600a601c9054906101000a900463ffffffff1663ffffffff1603610ced57610ce66305f5e100610cd86104fa565b610ac590919063ffffffff16565b9050610cf2565b600090505b90565b600080828510610d0757859050610d59565b6000610d2e610d1f8787610aaf90919063ffffffff16565b88610ac590919063ffffffff16565b9050610d55610d468587610aaf90919063ffffffff16565b82610d6d90919063ffffffff16565b9150505b80915050949350505050565b600033905090565b60008183610d7b91906113b5565b905092915050565b6040518060a00160405280600590602082028036833780820191505090505090565b6000819050919050565b610db881610da5565b82525050565b6000602082019050610dd36000830184610daf565b92915050565b7f4e487b7100000000000000000000000000000000000000000000000000000000600052602160045260246000fd5b60058110610e1957610e18610dd9565b5b50565b6000819050610e2a82610e08565b919050565b6000610e3a82610e1c565b9050919050565b610e4a81610e2f565b82525050565b6000602082019050610e656000830184610e41565b92915050565b600080fd5b60058110610e7d57600080fd5b50565b600081359050610e8f81610e70565b92915050565b600060208284031215610eab57610eaa610e6b565b5b6000610eb984828501610e80565b91505092915050565b600063ffffffff82169050919050565b610edb81610ec2565b82525050565b6000602082019050610ef66000830184610ed2565b92915050565b600073ffffffffffffffffffffffffffffffffffffffff82169050919050565b6000610f2782610efc565b9050919050565b610f3781610f1c565b82525050565b6000602082019050610f526000830184610f2e565b92915050565b610f6181610f1c565b8114610f6c57600080fd5b50565b600081359050610f7e81610f58565b92915050565b600060208284031215610f9a57610f99610e6b565b5b6000610fa884828501610f6f565b91505092915050565b60008115159050919050565b610fc681610fb1565b8114610fd157600080fd5b50565b600081359050610fe381610fbd565b92915050565b6000806040838503121561100057610fff610e6b565b5b600061100e85828601610f6f565b925050602061101f85828601610fd4565b9150509250929050565b600060059050919050565b600081905092915050565b6000819050919050565b61105281610da5565b82525050565b60006110648383611049565b60208301905092915050565b6000602082019050919050565b61108681611029565b6110908184611034565b925061109b8261103f565b8060005b838110156110cc5781516110b38782611058565b96506110be83611070565b92505060018101905061109f565b505050505050565b600060a0820190506110e9600083018461107d565b92915050565b6110f881610da5565b811461110357600080fd5b50565b600081359050611115816110ef565b92915050565b60006020828403121561113157611130610e6b565b5b600061113f84828501611106565b91505092915050565b61115181610ec2565b811461115c57600080fd5b50565b60008135905061116e81611148565b92915050565b60006020828403121561118a57611189610e6b565b5b60006111988482850161115f565b91505092915050565b6000815190506111b0816110ef565b92915050565b6000602082840312156111cc576111cb610e6b565b5b60006111da848285016111a1565b91505092915050565b600082825260208201905092915050565b7f4f776e61626c653a206e6577206f776e657220697320746865207a65726f206160008201527f6464726573730000000000000000000000000000000000000000000000000000602082015250565b60006112506026836111e3565b915061125b826111f4565b604082019050919050565b6000602082019050818103600083015261127f81611243565b9050919050565b7f4e487b7100000000000000000000000000000000000000000000000000000000600052601160045260246000fd5b60006112c082610da5565b91506112cb83610da5565b92508282039050818111156112e3576112e2611286565b5b92915050565b7f4e487b7100000000000000000000000000000000000000000000000000000000600052601260045260246000fd5b600061132382610da5565b915061132e83610da5565b92508261133e5761133d6112e9565b5b828204905092915050565b7f4f776e61626c653a2063616c6c6572206973206e6f7420746865206f776e6572600082015250565b600061137f6020836111e3565b915061138a82611349565b602082019050919050565b600060208201905081810360008301526113ae81611372565b9050919050565b60006113c082610da5565b91506113cb83610da5565b9250817fffffffffffffffffffffffffffffffffffffffffffffffffffffffffffffffff048311821515161561140457611403611286565b5b82820290509291505056fea26469706673582212200575d17e436c11777bb3cc50d1ec7568b75d2e2273d6c519cf27a23f2b5c138264736f6c63430008100033a2646970667358221220f816583dfc663273199ea743d25fe888577946ad1aa81324377f80c3671bfe3d64736f6c63430008100033",
  "immutableReferences": {},
  "source": "// SPDX-License-Identifier: MIT\npragma solidity ^0.8.7;\n\nimport '@openzeppelin/contracts/access/Ownable.sol';\nimport './Handler/CDSBank.sol';\n\ninterface CDSInterface {\n  function create(\n    bool isBuyer,\n    uint256 initAssetPrice,\n    uint256 claimPrice,\n    uint256 liquidationPrice,\n    uint256 sellerDeposit,\n    uint256 premium,\n    uint32 totalRounds,\n    uint32 assetType\n  ) external returns (uint256);\n\n  function accept(\n    uint256 initAssetPrice,\n    uint256 cdsId\n  ) external returns (uint256);\n\n  function cancel(uint256 cdsId) external returns (bool);\n\n  function close(uint256 cdsId) external returns (bool);\n\n  function claim(uint256 cdsId) external returns (bool);\n\n  function expire(uint256 cdsId) external returns (bool);\n\n  function payPremium(uint256 cdsId) external returns (bool);\n\n  function payPremiumByDeposit(\n    uint256 cdsId\n  ) external returns (bool);\n\n  function withdraw(uint256 amount) external returns (bool);\n\n  event Create(\n    address indexed hostAddr,\n    bool isBuyer,\n    uint256 cdsId,\n    uint32 assetType,\n    address swap\n  );\n  event Accept(address indexed guestAddr, uint256 cdsId);\n  event Cancel(uint256 cdsId);\n  event Claim(uint256 cdsId, uint256 claimReward);\n  event Close(uint256 cdsId);\n  event Expire(uint256 cdsId);\n  event PayPremium(uint256 cdsId);\n}\n\ncontract CDSLounge is CDSBank, Ownable, CDSInterface {\n  // transactions\n  function create(\n    bool isBuyer,\n    uint256 initAssetPrice,\n    uint256 claimPrice,\n    uint256 liquidationPrice,\n    uint256 sellerDeposit,\n    uint256 premium,\n    uint32 totalRounds,\n    uint32 assetType\n  ) external override returns (uint256) {\n    uint256 newCDSId = _create(\n      isBuyer,\n      initAssetPrice,\n      claimPrice,\n      liquidationPrice,\n      sellerDeposit,\n      premium,\n      totalRounds,\n      assetType\n    );\n    _sendDeposit(newCDSId, isBuyer);\n    emit Create(\n      msg.sender,\n      isBuyer,\n      newCDSId,\n      assetType,\n      address(getCDS(newCDSId))\n    );\n    return newCDSId;\n  }\n\n  function accept(\n    uint256 initAssetPrice,\n    uint256 cdsId\n  ) external override returns (uint256) {\n    require(\n      msg.sender != getBuyer(cdsId) && msg.sender != getSeller(cdsId),\n      'The host can not call the method'\n    );\n    bool isSeller = (getSeller(cdsId) == address(0));\n    uint256 acceptedcdsId = _accept(isSeller, initAssetPrice, cdsId);\n    _sendDeposit(cdsId, !isSeller);\n    _sendFirstPremium(cdsId);\n    emit Accept(msg.sender, acceptedcdsId);\n    return acceptedcdsId;\n  }\n\n  function cancel(\n    uint256 cdsId\n  ) external override isParticipants(cdsId) returns (bool) {\n    _cancel(cdsId);\n    _endCDS(cdsId);\n    emit Cancel(cdsId);\n    return true;\n  }\n\n  function close(\n    uint256 cdsId\n  ) external override isBuyer(cdsId) returns (bool) {\n    _close(cdsId);\n    _endCDS(cdsId);\n    emit Close(cdsId);\n    return true;\n  }\n\n  function claim(\n    uint256 cdsId\n  ) external override isBuyer(cdsId) returns (bool) {\n    require(\n      getCDS(cdsId).getClaimReward() != 0,\n      'Current price is higher than the claim price in CDS'\n    );\n    _claim(cdsId);\n    uint256 claimReward = _afterClaim(cdsId);\n    emit Claim(cdsId, claimReward);\n    return true;\n  }\n\n  function expire(uint256 cdsId) external override returns (bool) {\n    _expire(cdsId);\n    _endCDS(cdsId);\n    emit Expire(cdsId);\n    return true;\n  }\n\n  function payPremium(\n    uint256 cdsId\n  ) external override isBuyer(cdsId) returns (bool) {\n    _payPremium(cdsId);\n    _sendPremium(cdsId);\n    emit PayPremium(cdsId);\n    return true;\n  }\n\n  function payPremiumByDeposit(\n    uint256 cdsId\n  ) external override onlyOwner returns (bool) {\n    _payPremium(cdsId);\n    _sendPremiumByDeposit(cdsId);\n    emit PayPremium(cdsId);\n    return true;\n  }\n\n  function withdraw(uint256 amount) external override onlyOwner returns (bool) {\n    token.transfer(owner(), amount);\n    return true;\n  }\n}\n\n// lounge => factory => cds\n//  factory => crud \n// factory assembly-create2;  uniswapv2factory <=> uniswapv2pair\n//  lounge or factory \n//  cds  ?  approved factory or lounge ca   . owner buyer&seller\n// factory address cdsId(or address)  \n\n// buyer seller   \n// seller  buyer     =>   contract  ?\n",
  "sourcePath": "/Users/yoonsoo/codestates/BEB-07-final-CDS/contract/contracts/CDSLounge.sol",
  "compiler": {
    "name": "solc",
    "version": "0.8.16+commit.07a7930e.Emscripten.clang"
  },
  "schemaVersion": "3.4.11",
  "updatedAt": "2023-03-19T07:25:10.219Z",
  "networkType": "ethereum",
  "devdoc": {
    "kind": "dev",
    "methods": {
      "owner()": {
        "details": "Returns the address of the current owner."
      },
      "renounceOwnership()": {
        "details": "Leaves the contract without owner. It will not be possible to call `onlyOwner` functions anymore. Can only be called by the current owner. NOTE: Renouncing ownership will leave the contract without an owner, thereby removing any functionality that is only available to the owner."
      },
      "transferOwnership(address)": {
        "details": "Transfers ownership of the contract to a new account (`newOwner`). Can only be called by the current owner."
      }
    },
    "version": 1
  },
  "userdoc": {
    "kind": "user",
    "methods": {},
    "version": 1
  }
}