{
  "contractName": "PriceOracleMock",
  "abi": [
    {
      "inputs": [],
      "stateMutability": "nonpayable",
      "type": "constructor"
    },
    {
      "inputs": [],
      "name": "btcPrice",
      "outputs": [
        {
          "internalType": "uint256",
          "name": "",
          "type": "uint256"
        }
      ],
      "stateMutability": "view",
      "type": "function",
      "constant": true
    },
    {
      "inputs": [],
      "name": "ethPrice",
      "outputs": [
        {
          "internalType": "uint256",
          "name": "",
          "type": "uint256"
        }
      ],
      "stateMutability": "view",
      "type": "function",
      "constant": true
    },
    {
      "inputs": [],
      "name": "linkPrice",
      "outputs": [
        {
          "internalType": "uint256",
          "name": "",
          "type": "uint256"
        }
      ],
      "stateMutability": "view",
      "type": "function",
      "constant": true
    },
    {
      "inputs": [
        {
          "internalType": "uint256",
          "name": "_price",
          "type": "uint256"
        }
      ],
      "name": "setBTCPrice",
      "outputs": [
        {
          "internalType": "uint256",
          "name": "",
          "type": "uint256"
        }
      ],
      "stateMutability": "nonpayable",
      "type": "function"
    },
    {
      "inputs": [
        {
          "internalType": "uint256",
          "name": "_price",
          "type": "uint256"
        }
      ],
      "name": "setETHPrice",
      "outputs": [
        {
          "internalType": "uint256",
          "name": "",
          "type": "uint256"
        }
      ],
      "stateMutability": "nonpayable",
      "type": "function"
    },
    {
      "inputs": [
        {
          "internalType": "uint256",
          "name": "_price",
          "type": "uint256"
        }
      ],
      "name": "setLinkPrice",
      "outputs": [
        {
          "internalType": "uint256",
          "name": "",
          "type": "uint256"
        }
      ],
      "stateMutability": "nonpayable",
      "type": "function"
    }
  ],
  "bytecode": "0x608060405234801561001057600080fd5b50650246139ca800600081905550642540be4000600181905550632cb41780600281905550610264806100446000396000f3fe608060405234801561001057600080fd5b50600436106100625760003560e01c806309c7a25c146100675780630cf7853514610097578063a8ad52d1146100b5578063bc7dce06146100d3578063eea13ed814610103578063ff186b2e14610133575b600080fd5b610081600480360381019061007c91906101d7565b610151565b60405161008e9190610213565b60405180910390f35b61009f610164565b6040516100ac9190610213565b60405180910390f35b6100bd61016a565b6040516100ca9190610213565b60405180910390f35b6100ed60048036038101906100e891906101d7565b610170565b6040516100fa9190610213565b60405180910390f35b61011d600480360381019061011891906101d7565b610183565b60405161012a9190610213565b60405180910390f35b61013b610196565b6040516101489190610213565b60405180910390f35b6000816000819055506000549050919050565b60025481565b60005481565b6000816001819055506001549050919050565b6000816002819055506002549050919050565b60015481565b600080fd5b6000819050919050565b6101b4816101a1565b81146101bf57600080fd5b50565b6000813590506101d1816101ab565b92915050565b6000602082840312156101ed576101ec61019c565b5b60006101fb848285016101c2565b91505092915050565b61020d816101a1565b82525050565b60006020820190506102286000830184610204565b9291505056fea2646970667358221220d898d69e73bf1b584d08bf4eacbaf4c12236831db3c3a88492d27eb1d856912064736f6c63430008100033",
  "immutableReferences": {},
  "source": "// SPDX-License-Identifier: MIT\npragma solidity ^0.8.7;\n\ncontract PriceOracleMock {\n  uint256 public btcPrice;\n  uint256 public ethPrice;\n  uint256 public linkPrice;\n\n  constructor(\n  ) {\n    btcPrice = 2500000000000;\n    ethPrice = 160000000000;\n    linkPrice = 750000000;\n  }\n\n  function setBTCPrice(uint256 _price) public returns (uint256) {\n    btcPrice = _price;\n    return btcPrice;\n  }\n\n  function setETHPrice(uint256 _price) public returns (uint256) {\n    ethPrice = _price;\n    return ethPrice;\n  }\n\n  function setLinkPrice(uint256 _price) public returns (uint256) {\n    linkPrice = _price;\n    return linkPrice;\n  }\n}\n",
  "sourcePath": "/Users/yoonsoo/codestates/BEB-07-final-CDS/contract/contracts/Oracle/PriceOracleMock.sol",
  "compiler": {
    "name": "solc",
    "version": "0.8.16+commit.07a7930e.Emscripten.clang"
  },
  "schemaVersion": "3.4.11",
  "updatedAt": "2023-02-10T09:26:54.566Z",
  "networkType": "ethereum",
  "devdoc": {
    "kind": "dev",
    "methods": {},
    "version": 1
  },
  "userdoc": {
    "kind": "user",
    "methods": {},
    "version": 1
  }
}