{
  "contractName": "PriceOracleMock",
  "abi": [
    {
      "inputs": [
        {
          "internalType": "uint256",
          "name": "_initialPrice",
          "type": "uint256"
        }
      ],
      "stateMutability": "nonpayable",
      "type": "constructor"
    },
    {
      "inputs": [],
      "name": "getPrice",
      "outputs": [
        {
          "internalType": "uint256",
          "name": "",
          "type": "uint256"
        }
      ],
      "stateMutability": "view",
      "type": "function",
      "constant": true
    },
    {
      "inputs": [
        {
          "internalType": "uint256",
          "name": "_price",
          "type": "uint256"
        }
      ],
      "name": "setPrice",
      "outputs": [
        {
          "internalType": "uint256",
          "name": "",
          "type": "uint256"
        }
      ],
      "stateMutability": "nonpayable",
      "type": "function"
    }
  ],
  "bytecode": "0x608060405234801561001057600080fd5b506040516102233803806102238339818101604052810190610032919061007a565b80600081905550506100a7565b600080fd5b6000819050919050565b61005781610044565b811461006257600080fd5b50565b6000815190506100748161004e565b92915050565b6000602082840312156100905761008f61003f565b5b600061009e84828501610065565b91505092915050565b61016d806100b66000396000f3fe608060405234801561001057600080fd5b50600436106100365760003560e01c806391b7f5ed1461003b57806398d5fdca1461006b575b600080fd5b610055600480360381019061005091906100e0565b610089565b604051610062919061011c565b60405180910390f35b61007361009c565b604051610080919061011c565b60405180910390f35b6000816000819055506000549050919050565b60008054905090565b600080fd5b6000819050919050565b6100bd816100aa565b81146100c857600080fd5b50565b6000813590506100da816100b4565b92915050565b6000602082840312156100f6576100f56100a5565b5b6000610104848285016100cb565b91505092915050565b610116816100aa565b82525050565b6000602082019050610131600083018461010d565b9291505056fea26469706673582212207a81a506498336090352aef9511bcad8e20adda5980799e0351d2a1249e94df664736f6c63430008100033",
  "immutableReferences": {},
  "source": "// SPDX-License-Identifier: MIT\npragma solidity ^0.8.7;\n\ncontract PriceOracleMock {\n  uint256 price;\n\n  constructor(uint256 _initialPrice) {\n    price = _initialPrice;\n  }\n\n  function getPrice() public view returns (uint256) {\n    return price;\n  }\n\n  function setPrice(uint256 _price) public returns (uint256) {\n    price = _price;\n    return price;\n  }\n}\n",
  "sourcePath": "/Users/sdh/Study/BEB_07/projects/CDS/contract/contracts/Oracle/PriceOracleMock.sol",
  "compiler": {
    "name": "solc",
    "version": "0.8.16+commit.07a7930e.Emscripten.clang"
  },
  "schemaVersion": "3.4.11",
  "updatedAt": "2023-01-26T01:29:33.620Z",
  "networkType": "ethereum",
  "devdoc": {
    "kind": "dev",
    "methods": {},
    "version": 1
  },
  "userdoc": {
    "kind": "user",
    "methods": {},
    "version": 1
  }
}