{
  "contractName": "PriceOracleMock",
  "abi": [
    {
      "inputs": [
        {
          "internalType": "uint256",
          "name": "_initialPrice",
          "type": "uint256"
        }
      ],
      "stateMutability": "nonpayable",
      "type": "constructor"
    },
    {
      "inputs": [],
      "name": "price",
      "outputs": [
        {
          "internalType": "uint256",
          "name": "",
          "type": "uint256"
        }
      ],
      "stateMutability": "view",
      "type": "function",
      "constant": true
    },
    {
      "inputs": [],
      "name": "getPrice",
      "outputs": [
        {
          "internalType": "uint256",
          "name": "",
          "type": "uint256"
        }
      ],
      "stateMutability": "view",
      "type": "function",
      "constant": true
    },
    {
      "inputs": [
        {
          "internalType": "uint256",
          "name": "_price",
          "type": "uint256"
        }
      ],
      "name": "setPrice",
      "outputs": [
        {
          "internalType": "uint256",
          "name": "",
          "type": "uint256"
        }
      ],
      "stateMutability": "nonpayable",
      "type": "function"
    }
  ],
  "bytecode": "0x608060405234801561001057600080fd5b506040516102523803806102528339818101604052810190610032919061007a565b80600081905550506100a7565b600080fd5b6000819050919050565b61005781610044565b811461006257600080fd5b50565b6000815190506100748161004e565b92915050565b6000602082840312156100905761008f61003f565b5b600061009e84828501610065565b91505092915050565b61019c806100b66000396000f3fe608060405234801561001057600080fd5b50600436106100415760003560e01c806391b7f5ed1461004657806398d5fdca14610076578063a035b1fe14610094575b600080fd5b610060600480360381019061005b919061010f565b6100b2565b60405161006d919061014b565b60405180910390f35b61007e6100c5565b60405161008b919061014b565b60405180910390f35b61009c6100ce565b6040516100a9919061014b565b60405180910390f35b6000816000819055506000549050919050565b60008054905090565b60005481565b600080fd5b6000819050919050565b6100ec816100d9565b81146100f757600080fd5b50565b600081359050610109816100e3565b92915050565b600060208284031215610125576101246100d4565b5b6000610133848285016100fa565b91505092915050565b610145816100d9565b82525050565b6000602082019050610160600083018461013c565b9291505056fea26469706673582212200131f28995700eb687c1d3894661cd3be2da0e7faa8223ae92285c15571af80564736f6c63430008100033",
  "immutableReferences": {},
  "source": "// SPDX-License-Identifier: MIT\npragma solidity ^0.8.7;\n\ncontract PriceOracleMock {\n  uint256 public price;\n\n  constructor(uint256 _initialPrice) {\n    price = _initialPrice;\n  }\n\n  function getPrice() public view returns (uint256) {\n    return price;\n  }\n\n  function setPrice(uint256 _price) public returns (uint256) {\n    price = _price;\n    return price;\n  }\n}\n",
  "sourcePath": "/Users/sdh/Study/BEB_07/projects/CDS/contract/contracts/Oracle/PriceOracleMock.sol",
  "compiler": {
    "name": "solc",
    "version": "0.8.16+commit.07a7930e.Emscripten.clang"
  },
  "schemaVersion": "3.4.9",
  "updatedAt": "2023-02-08T07:21:34.958Z",
  "networkType": "ethereum",
  "devdoc": {
    "kind": "dev",
    "methods": {},
    "version": 1
  },
  "userdoc": {
    "kind": "user",
    "methods": {},
    "version": 1
  }
}