{
  "contractName": "Swap",
  "abi": [
    {
      "inputs": [
        {
          "internalType": "uint256",
          "name": "_initAssetPrice",
          "type": "uint256"
        },
        {
          "internalType": "uint256",
          "name": "_claimPrice",
          "type": "uint256"
        },
        {
          "internalType": "uint256",
          "name": "_liquidationPrice",
          "type": "uint256"
        },
        {
          "internalType": "uint256",
          "name": "_premium",
          "type": "uint256"
        },
        {
          "internalType": "uint256",
          "name": "_sellerDeposit",
          "type": "uint256"
        },
        {
          "internalType": "uint32",
          "name": "_rounds",
          "type": "uint32"
        },
        {
          "internalType": "address",
          "name": "priceOracleAddr",
          "type": "address"
        }
      ],
      "stateMutability": "nonpayable",
      "type": "constructor"
    },
    {
      "anonymous": false,
      "inputs": [
        {
          "indexed": true,
          "internalType": "address",
          "name": "previousOwner",
          "type": "address"
        },
        {
          "indexed": true,
          "internalType": "address",
          "name": "newOwner",
          "type": "address"
        }
      ],
      "name": "OwnershipTransferred",
      "type": "event"
    },
    {
      "inputs": [],
      "name": "claimPrice",
      "outputs": [
        {
          "internalType": "uint256",
          "name": "",
          "type": "uint256"
        }
      ],
      "stateMutability": "view",
      "type": "function"
    },
    {
      "inputs": [],
      "name": "initAssetPrice",
      "outputs": [
        {
          "internalType": "uint256",
          "name": "",
          "type": "uint256"
        }
      ],
      "stateMutability": "view",
      "type": "function"
    },
    {
      "inputs": [],
      "name": "liquidationPrice",
      "outputs": [
        {
          "internalType": "uint256",
          "name": "",
          "type": "uint256"
        }
      ],
      "stateMutability": "view",
      "type": "function"
    },
    {
      "inputs": [],
      "name": "owner",
      "outputs": [
        {
          "internalType": "address",
          "name": "",
          "type": "address"
        }
      ],
      "stateMutability": "view",
      "type": "function"
    },
    {
      "inputs": [],
      "name": "premium",
      "outputs": [
        {
          "internalType": "uint256",
          "name": "",
          "type": "uint256"
        }
      ],
      "stateMutability": "view",
      "type": "function"
    },
    {
      "inputs": [],
      "name": "renounceOwnership",
      "outputs": [],
      "stateMutability": "nonpayable",
      "type": "function"
    },
    {
      "inputs": [],
      "name": "rounds",
      "outputs": [
        {
          "internalType": "uint32",
          "name": "",
          "type": "uint32"
        }
      ],
      "stateMutability": "view",
      "type": "function"
    },
    {
      "inputs": [],
      "name": "sellerDeposit",
      "outputs": [
        {
          "internalType": "uint256",
          "name": "",
          "type": "uint256"
        }
      ],
      "stateMutability": "view",
      "type": "function"
    },
    {
      "inputs": [],
      "name": "status",
      "outputs": [
        {
          "internalType": "enum Swap.Status",
          "name": "",
          "type": "uint8"
        }
      ],
      "stateMutability": "view",
      "type": "function"
    },
    {
      "inputs": [],
      "name": "totalRounds",
      "outputs": [
        {
          "internalType": "uint32",
          "name": "",
          "type": "uint32"
        }
      ],
      "stateMutability": "view",
      "type": "function"
    },
    {
      "inputs": [
        {
          "internalType": "address",
          "name": "newOwner",
          "type": "address"
        }
      ],
      "name": "transferOwnership",
      "outputs": [],
      "stateMutability": "nonpayable",
      "type": "function"
    },
    {
      "inputs": [],
      "name": "getPrices",
      "outputs": [
        {
          "internalType": "uint256[5]",
          "name": "",
          "type": "uint256[5]"
        }
      ],
      "stateMutability": "view",
      "type": "function"
    },
    {
      "inputs": [],
      "name": "getBuyer",
      "outputs": [
        {
          "internalType": "address",
          "name": "",
          "type": "address"
        }
      ],
      "stateMutability": "view",
      "type": "function"
    },
    {
      "inputs": [],
      "name": "getSeller",
      "outputs": [
        {
          "internalType": "address",
          "name": "",
          "type": "address"
        }
      ],
      "stateMutability": "view",
      "type": "function"
    },
    {
      "inputs": [],
      "name": "getClaimReward",
      "outputs": [
        {
          "internalType": "uint256",
          "name": "",
          "type": "uint256"
        }
      ],
      "stateMutability": "view",
      "type": "function"
    },
    {
      "inputs": [
        {
          "internalType": "uint256",
          "name": "_initAssetPrice",
          "type": "uint256"
        }
      ],
      "name": "setInitAssetPrice",
      "outputs": [
        {
          "internalType": "uint256",
          "name": "",
          "type": "uint256"
        }
      ],
      "stateMutability": "nonpayable",
      "type": "function"
    },
    {
      "inputs": [
        {
          "internalType": "enum Swap.Status",
          "name": "_status",
          "type": "uint8"
        }
      ],
      "name": "setStatus",
      "outputs": [
        {
          "internalType": "enum Swap.Status",
          "name": "",
          "type": "uint8"
        }
      ],
      "stateMutability": "nonpayable",
      "type": "function"
    },
    {
      "inputs": [
        {
          "internalType": "address",
          "name": "_buyer",
          "type": "address"
        }
      ],
      "name": "setBuyer",
      "outputs": [
        {
          "internalType": "address",
          "name": "",
          "type": "address"
        }
      ],
      "stateMutability": "nonpayable",
      "type": "function"
    },
    {
      "inputs": [
        {
          "internalType": "address",
          "name": "_seller",
          "type": "address"
        }
      ],
      "name": "setSeller",
      "outputs": [
        {
          "internalType": "address",
          "name": "",
          "type": "address"
        }
      ],
      "stateMutability": "nonpayable",
      "type": "function"
    },
    {
      "inputs": [
        {
          "internalType": "uint32",
          "name": "_rounds",
          "type": "uint32"
        }
      ],
      "name": "setRounds",
      "outputs": [
        {
          "internalType": "uint32",
          "name": "",
          "type": "uint32"
        }
      ],
      "stateMutability": "nonpayable",
      "type": "function"
    }
  ],
  "bytecode": "0x60806040523480156200001157600080fd5b506040516200147c3803806200147c83398181016040528101906200003791906200036d565b620000576200004b620001bb60201b60201c565b620001c360201b60201c565b866002819055508560038190555084600481905550836005819055508260068190555081600860146101000a81548163ffffffff021916908363ffffffff16021790555081600860186101000a81548163ffffffff021916908363ffffffff1602179055506000600760006101000a81548173ffffffffffffffffffffffffffffffffffffffff021916908373ffffffffffffffffffffffffffffffffffffffff1602179055506000600860006101000a81548173ffffffffffffffffffffffffffffffffffffffff021916908373ffffffffffffffffffffffffffffffffffffffff16021790555060018060146101000a81548160ff0219169083600481111562000168576200016762000420565b5b021790555080600160006101000a81548173ffffffffffffffffffffffffffffffffffffffff021916908373ffffffffffffffffffffffffffffffffffffffff160217905550505050505050506200044f565b600033905090565b60008060009054906101000a900473ffffffffffffffffffffffffffffffffffffffff169050816000806101000a81548173ffffffffffffffffffffffffffffffffffffffff021916908373ffffffffffffffffffffffffffffffffffffffff1602179055508173ffffffffffffffffffffffffffffffffffffffff168173ffffffffffffffffffffffffffffffffffffffff167f8be0079c531659141344cd1fd0a4f28419497f9722a3daafe3b4186f6b6457e060405160405180910390a35050565b600080fd5b6000819050919050565b620002a1816200028c565b8114620002ad57600080fd5b50565b600081519050620002c18162000296565b92915050565b600063ffffffff82169050919050565b620002e281620002c7565b8114620002ee57600080fd5b50565b6000815190506200030281620002d7565b92915050565b600073ffffffffffffffffffffffffffffffffffffffff82169050919050565b6000620003358262000308565b9050919050565b620003478162000328565b81146200035357600080fd5b50565b60008151905062000367816200033c565b92915050565b600080600080600080600060e0888a0312156200038f576200038e62000287565b5b60006200039f8a828b01620002b0565b9750506020620003b28a828b01620002b0565b9650506040620003c58a828b01620002b0565b9550506060620003d88a828b01620002b0565b9450506080620003eb8a828b01620002b0565b93505060a0620003fe8a828b01620002f1565b92505060c0620004118a828b0162000356565b91505092959891949750929550565b7f4e487b7100000000000000000000000000000000000000000000000000000000600052602160045260246000fd5b61101d806200045f6000396000f3fe608060405234801561001057600080fd5b506004361061012c5760003560e01c8063a3f09ad6116100ad578063dbd0e1b611610071578063dbd0e1b614610327578063e0a73a9314610345578063e99d286614610363578063f26cc58e14610393578063f2fde38b146103b15761012c565b8063a3f09ad61461025b578063b6fc2d5f1461028b578063bd9a548b146102a9578063bef904e3146102c7578063d2895e93146102f75761012c565b8063715018a6116100f4578063715018a6146101d957806386be75b7146101e35780638a568299146102015780638da5cb5b1461021f578063a2e800ad1461023d5761012c565b806315d655c914610131578063200d2ed21461014f5780632e49d78b1461016d5780634c1786ea1461019d578063603daf9a146101bb575b600080fd5b6101396103cd565b6040516101469190610a0e565b60405180910390f35b6101576103d3565b6040516101649190610aa0565b60405180910390f35b61018760048036038101906101829190610ae5565b6103e6565b6040516101949190610aa0565b60405180910390f35b6101a5610431565b6040516101b29190610a0e565b60405180910390f35b6101c3610437565b6040516101d09190610b53565b60405180910390f35b6101e1610461565b005b6101eb610475565b6040516101f89190610a0e565b60405180910390f35b61020961047b565b6040516102169190610b8d565b60405180910390f35b610227610491565b6040516102349190610b53565b60405180910390f35b6102456104ba565b6040516102529190610b8d565b60405180910390f35b61027560048036038101906102709190610bd4565b6104d0565b6040516102829190610b53565b60405180910390f35b610293610545565b6040516102a09190610a0e565b60405180910390f35b6102b161054b565b6040516102be9190610cac565b60405180910390f35b6102e160048036038101906102dc9190610cf3565b610589565b6040516102ee9190610a0e565b60405180910390f35b610311600480360381019061030c9190610d4c565b61059c565b60405161031e9190610b8d565b60405180910390f35b61032f6105e1565b60405161033c9190610b53565b60405180910390f35b61034d61060b565b60405161035a9190610a0e565b60405180910390f35b61037d60048036038101906103789190610bd4565b610611565b60405161038a9190610b53565b60405180910390f35b61039b610686565b6040516103a89190610a0e565b60405180910390f35b6103cb60048036038101906103c69190610bd4565b610754565b005b60035481565b600160149054906101000a900460ff1681565b60006103f06107d7565b81600160146101000a81548160ff0219169083600481111561041557610414610a29565b5b0217905550600160149054906101000a900460ff169050919050565b60065481565b6000600760009054906101000a900473ffffffffffffffffffffffffffffffffffffffff16905090565b6104696107d7565b6104736000610855565b565b60025481565b600860189054906101000a900463ffffffff1681565b60008060009054906101000a900473ffffffffffffffffffffffffffffffffffffffff16905090565b600860149054906101000a900463ffffffff1681565b60006104da6107d7565b81600760006101000a81548173ffffffffffffffffffffffffffffffffffffffff021916908373ffffffffffffffffffffffffffffffffffffffff160217905550600760009054906101000a900473ffffffffffffffffffffffffffffffffffffffff169050919050565b60045481565b6105536109d3565b6040518060a001604052806002548152602001600354815260200160045481526020016005548152602001600654815250905090565b6000816002819055506002549050919050565b60006105a66107d7565b81600860146101000a81548163ffffffff021916908363ffffffff160217905550600860149054906101000a900463ffffffff169050919050565b6000600860009054906101000a900473ffffffffffffffffffffffffffffffffffffffff16905090565b60055481565b600061061b6107d7565b81600860006101000a81548173ffffffffffffffffffffffffffffffffffffffff021916908373ffffffffffffffffffffffffffffffffffffffff160217905550600860009054906101000a900473ffffffffffffffffffffffffffffffffffffffff169050919050565b600080600160009054906101000a900473ffffffffffffffffffffffffffffffffffffffff1673ffffffffffffffffffffffffffffffffffffffff1663a035b1fe6040518163ffffffff1660e01b8152600401602060405180830381865afa1580156106f6573d6000803e3d6000fd5b505050506040513d601f19601f8201168201806040525081019061071a9190610d8e565b9050806003541015610730576000915050610751565b61074d60045460025483600654610919909392919063ffffffff16565b9150505b90565b61075c6107d7565b600073ffffffffffffffffffffffffffffffffffffffff168173ffffffffffffffffffffffffffffffffffffffff16036107cb576040517f08c379a00000000000000000000000000000000000000000000000000000000081526004016107c290610e3e565b60405180910390fd5b6107d481610855565b50565b6107df610989565b73ffffffffffffffffffffffffffffffffffffffff166107fd610491565b73ffffffffffffffffffffffffffffffffffffffff1614610853576040517f08c379a000000000000000000000000000000000000000000000000000000000815260040161084a90610eaa565b60405180910390fd5b565b60008060009054906101000a900473ffffffffffffffffffffffffffffffffffffffff169050816000806101000a81548173ffffffffffffffffffffffffffffffffffffffff021916908373ffffffffffffffffffffffffffffffffffffffff1602179055508173ffffffffffffffffffffffffffffffffffffffff168173ffffffffffffffffffffffffffffffffffffffff167f8be0079c531659141344cd1fd0a4f28419497f9722a3daafe3b4186f6b6457e060405160405180910390a35050565b60008082851061092b5785905061097d565b6000610952610943878761099190919063ffffffff16565b886109a790919063ffffffff16565b905061097961096a858761099190919063ffffffff16565b826109bd90919063ffffffff16565b9150505b80915050949350505050565b600033905090565b6000818361099f9190610ef9565b905092915050565b600081836109b59190610f5c565b905092915050565b600081836109cb9190610f8d565b905092915050565b6040518060a00160405280600590602082028036833780820191505090505090565b6000819050919050565b610a08816109f5565b82525050565b6000602082019050610a2360008301846109ff565b92915050565b7f4e487b7100000000000000000000000000000000000000000000000000000000600052602160045260246000fd5b60058110610a6957610a68610a29565b5b50565b6000819050610a7a82610a58565b919050565b6000610a8a82610a6c565b9050919050565b610a9a81610a7f565b82525050565b6000602082019050610ab56000830184610a91565b92915050565b600080fd5b60058110610acd57600080fd5b50565b600081359050610adf81610ac0565b92915050565b600060208284031215610afb57610afa610abb565b5b6000610b0984828501610ad0565b91505092915050565b600073ffffffffffffffffffffffffffffffffffffffff82169050919050565b6000610b3d82610b12565b9050919050565b610b4d81610b32565b82525050565b6000602082019050610b686000830184610b44565b92915050565b600063ffffffff82169050919050565b610b8781610b6e565b82525050565b6000602082019050610ba26000830184610b7e565b92915050565b610bb181610b32565b8114610bbc57600080fd5b50565b600081359050610bce81610ba8565b92915050565b600060208284031215610bea57610be9610abb565b5b6000610bf884828501610bbf565b91505092915050565b600060059050919050565b600081905092915050565b6000819050919050565b610c2a816109f5565b82525050565b6000610c3c8383610c21565b60208301905092915050565b6000602082019050919050565b610c5e81610c01565b610c688184610c0c565b9250610c7382610c17565b8060005b83811015610ca4578151610c8b8782610c30565b9650610c9683610c48565b925050600181019050610c77565b505050505050565b600060a082019050610cc16000830184610c55565b92915050565b610cd0816109f5565b8114610cdb57600080fd5b50565b600081359050610ced81610cc7565b92915050565b600060208284031215610d0957610d08610abb565b5b6000610d1784828501610cde565b91505092915050565b610d2981610b6e565b8114610d3457600080fd5b50565b600081359050610d4681610d20565b92915050565b600060208284031215610d6257610d61610abb565b5b6000610d7084828501610d37565b91505092915050565b600081519050610d8881610cc7565b92915050565b600060208284031215610da457610da3610abb565b5b6000610db284828501610d79565b91505092915050565b600082825260208201905092915050565b7f4f776e61626c653a206e6577206f776e657220697320746865207a65726f206160008201527f6464726573730000000000000000000000000000000000000000000000000000602082015250565b6000610e28602683610dbb565b9150610e3382610dcc565b604082019050919050565b60006020820190508181036000830152610e5781610e1b565b9050919050565b7f4f776e61626c653a2063616c6c6572206973206e6f7420746865206f776e6572600082015250565b6000610e94602083610dbb565b9150610e9f82610e5e565b602082019050919050565b60006020820190508181036000830152610ec381610e87565b9050919050565b7f4e487b7100000000000000000000000000000000000000000000000000000000600052601160045260246000fd5b6000610f04826109f5565b9150610f0f836109f5565b9250828203905081811115610f2757610f26610eca565b5b92915050565b7f4e487b7100000000000000000000000000000000000000000000000000000000600052601260045260246000fd5b6000610f67826109f5565b9150610f72836109f5565b925082610f8257610f81610f2d565b5b828204905092915050565b6000610f98826109f5565b9150610fa3836109f5565b9250817fffffffffffffffffffffffffffffffffffffffffffffffffffffffffffffffff0483118215151615610fdc57610fdb610eca565b5b82820290509291505056fea26469706673582212206305fe52ed4b5a6f2bf75a0abc904fcaad8447652d6ad006ec285158783c89e164736f6c63430008100033",
  "immutableReferences": {},
  "source": "// SPDX-License-Identifier: MIT\npragma solidity ^0.8.7;\n\nimport '../Oracle/PriceOracleMock.sol';\nimport '../libs/LibClaim.sol';\nimport '@openzeppelin/contracts/access/Ownable.sol';\nimport '@openzeppelin/contracts/utils/math/SafeMath.sol';\n\ncontract Swap is Ownable {\n  using SafeMath for uint256;\n  using LibClaim for uint256;\n\n  PriceOracleMock private priceOracle;\n\n  enum Status {\n    inactive,\n    pending,\n    active,\n    claimed,\n    expired\n  }\n  Status public status;\n\n  uint256 public initAssetPrice;\n  uint256 public claimPrice;\n  uint256 public liquidationPrice;\n  uint256 public premium;\n  uint256 public sellerDeposit;\n  address private buyer;\n  address private seller;\n  uint32 public rounds;\n  uint32 public totalRounds;\n\n  constructor(\n    uint256 _initAssetPrice,\n    uint256 _claimPrice,\n    uint256 _liquidationPrice,\n    uint256 _premium,\n    uint256 _sellerDeposit,\n    uint32 _rounds,\n    address priceOracleAddr\n  ) {\n    initAssetPrice = _initAssetPrice;\n    claimPrice = _claimPrice;\n    liquidationPrice = _liquidationPrice;\n    premium = _premium;\n    sellerDeposit = _sellerDeposit;\n    rounds = _rounds;\n    totalRounds = _rounds;\n\n    buyer = address(0);\n    seller = address(0);\n    status = Status.pending;\n\n    priceOracle = PriceOracleMock(priceOracleAddr);\n  }\n\n  function getPrices() public view returns (uint256[5] memory) {\n    return [\n      initAssetPrice,\n      claimPrice,\n      liquidationPrice,\n      premium,\n      sellerDeposit\n    ];\n  }\n\n  function getBuyer() public view returns (address) {\n    return buyer;\n  }\n\n  function getSeller() public view returns (address) {\n    return seller;\n  }\n\n  function getClaimReward() public view returns (uint256) {\n    uint256 currPrice = priceOracle.price();\n    if (claimPrice < currPrice) {\n      return 0;\n    }\n    return\n      sellerDeposit.calcClaimReward(\n        liquidationPrice,\n        initAssetPrice,\n        currPrice\n      );\n  }\n\n  function setInitAssetPrice(uint256 _initAssetPrice) public returns (uint256) {\n    initAssetPrice = _initAssetPrice;\n    return initAssetPrice;\n  }\n\n  function setStatus(Status _status) public onlyOwner returns (Status) {\n    status = _status;\n    return status;\n  }\n\n  function setBuyer(address _buyer) public onlyOwner returns (address) {\n    buyer = _buyer;\n    return buyer;\n  }\n\n  function setSeller(address _seller) public onlyOwner returns (address) {\n    seller = _seller;\n    return seller;\n  }\n\n  function setRounds(uint32 _rounds) public onlyOwner returns (uint32) {\n    rounds = _rounds;\n    return rounds;\n  }\n}\n",
  "sourcePath": "/Users/sdh/Study/BEB_07/projects/CDS/contract/contracts/Swaps/Swap.sol",
  "compiler": {
    "name": "solc",
    "version": "0.8.16+commit.07a7930e.Emscripten.clang"
  },
  "schemaVersion": "3.4.9",
  "updatedAt": "2023-02-08T07:56:03.865Z",
  "devdoc": {
    "kind": "dev",
    "methods": {
      "owner()": {
        "details": "Returns the address of the current owner."
      },
      "renounceOwnership()": {
        "details": "Leaves the contract without owner. It will not be possible to call `onlyOwner` functions anymore. Can only be called by the current owner. NOTE: Renouncing ownership will leave the contract without an owner, thereby removing any functionality that is only available to the owner."
      },
      "transferOwnership(address)": {
        "details": "Transfers ownership of the contract to a new account (`newOwner`). Can only be called by the current owner."
      }
    },
    "version": 1
  },
  "userdoc": {
    "kind": "user",
    "methods": {},
    "version": 1
  }
}