{
  "contractName": "SwapHandler",
  "abi": [
    {
      "inputs": [],
      "stateMutability": "nonpayable",
      "type": "constructor"
    },
    {
      "inputs": [],
      "name": "priceOracle",
      "outputs": [
        {
          "internalType": "address",
          "name": "",
          "type": "address"
        }
      ],
      "stateMutability": "view",
      "type": "function"
    },
    {
      "inputs": [
        {
          "internalType": "address",
          "name": "_priceOracleAddress",
          "type": "address"
        }
      ],
      "name": "setOracle",
      "outputs": [
        {
          "internalType": "bool",
          "name": "",
          "type": "bool"
        }
      ],
      "stateMutability": "nonpayable",
      "type": "function"
    },
    {
      "inputs": [],
      "name": "getSwapId",
      "outputs": [
        {
          "components": [
            {
              "internalType": "uint256",
              "name": "_value",
              "type": "uint256"
            }
          ],
          "internalType": "struct Counters.Counter",
          "name": "",
          "type": "tuple"
        }
      ],
      "stateMutability": "view",
      "type": "function"
    },
    {
      "inputs": [
        {
          "internalType": "uint256",
          "name": "swapId",
          "type": "uint256"
        }
      ],
      "name": "getSwap",
      "outputs": [
        {
          "internalType": "contract Swap",
          "name": "",
          "type": "address"
        }
      ],
      "stateMutability": "view",
      "type": "function"
    },
    {
      "inputs": [
        {
          "internalType": "uint256",
          "name": "swapId",
          "type": "uint256"
        }
      ],
      "name": "getPrices",
      "outputs": [
        {
          "internalType": "uint256[5]",
          "name": "",
          "type": "uint256[5]"
        }
      ],
      "stateMutability": "view",
      "type": "function"
    },
    {
      "inputs": [
        {
          "internalType": "uint256",
          "name": "swapId",
          "type": "uint256"
        }
      ],
      "name": "getPremium",
      "outputs": [
        {
          "internalType": "uint256",
          "name": "",
          "type": "uint256"
        }
      ],
      "stateMutability": "view",
      "type": "function"
    },
    {
      "inputs": [
        {
          "internalType": "uint256",
          "name": "swapId",
          "type": "uint256"
        }
      ],
      "name": "getSellerDeposit",
      "outputs": [
        {
          "internalType": "uint256",
          "name": "",
          "type": "uint256"
        }
      ],
      "stateMutability": "view",
      "type": "function"
    },
    {
      "inputs": [
        {
          "internalType": "uint256",
          "name": "swapId",
          "type": "uint256"
        }
      ],
      "name": "getStatus",
      "outputs": [
        {
          "internalType": "enum Swap.Status",
          "name": "",
          "type": "uint8"
        }
      ],
      "stateMutability": "view",
      "type": "function"
    },
    {
      "inputs": [
        {
          "internalType": "uint256",
          "name": "swapId",
          "type": "uint256"
        }
      ],
      "name": "getRounds",
      "outputs": [
        {
          "internalType": "uint32",
          "name": "",
          "type": "uint32"
        }
      ],
      "stateMutability": "view",
      "type": "function"
    },
    {
      "inputs": [
        {
          "internalType": "uint256",
          "name": "swapId",
          "type": "uint256"
        }
      ],
      "name": "getBuyer",
      "outputs": [
        {
          "internalType": "address",
          "name": "",
          "type": "address"
        }
      ],
      "stateMutability": "view",
      "type": "function"
    },
    {
      "inputs": [
        {
          "internalType": "uint256",
          "name": "swapId",
          "type": "uint256"
        }
      ],
      "name": "getSeller",
      "outputs": [
        {
          "internalType": "address",
          "name": "",
          "type": "address"
        }
      ],
      "stateMutability": "view",
      "type": "function"
    },
    {
      "inputs": [
        {
          "internalType": "uint256",
          "name": "swapId",
          "type": "uint256"
        }
      ],
      "name": "getNextPayDate",
      "outputs": [
        {
          "internalType": "uint256",
          "name": "",
          "type": "uint256"
        }
      ],
      "stateMutability": "view",
      "type": "function"
    },
    {
      "inputs": [
        {
          "internalType": "uint256",
          "name": "swapId",
          "type": "uint256"
        }
      ],
      "name": "getTotalRounds",
      "outputs": [
        {
          "internalType": "uint32",
          "name": "",
          "type": "uint32"
        }
      ],
      "stateMutability": "view",
      "type": "function"
    }
  ],
  "bytecode": "0x608060405234801561001057600080fd5b50611131806100206000396000f3fe608060405234801561001057600080fd5b50600436106100cf5760003560e01c80635c622a0e1161008c5780638bfd13ae116100665780638bfd13ae146102605780639149295614610290578063967fe6f1146102c0578063d6a9de51146102f0576100cf565b80635c622a0e146101d05780637adbf973146102005780638810632314610230576100cf565b806313ef3dcc146100d45780631bf1fffb146101045780632630c12f14610134578063496ab39a146101525780634a0d89ba146101705780635bf608b8146101a0575b600080fd5b6100ee60048036038101906100e99190610a56565b610320565b6040516100fb9190610aa2565b60405180910390f35b61011e60048036038101906101199190610a56565b6103cb565b60405161012b9190610acc565b60405180910390f35b61013c610476565b6040516101499190610b28565b60405180910390f35b61015a61049c565b6040516101679190610b6e565b60405180910390f35b61018a60048036038101906101859190610a56565b6104c0565b6040516101979190610be8565b60405180910390f35b6101ba60048036038101906101b59190610a56565b6104fd565b6040516101c79190610b28565b60405180910390f35b6101ea60048036038101906101e59190610a56565b6105a8565b6040516101f79190610c7a565b60405180910390f35b61021a60048036038101906102159190610cc1565b610653565b6040516102279190610d09565b60405180910390f35b61024a60048036038101906102459190610a56565b61070d565b6040516102579190610acc565b60405180910390f35b61027a60048036038101906102759190610a56565b6107b8565b6040516102879190610acc565b60405180910390f35b6102aa60048036038101906102a59190610a56565b6107d5565b6040516102b79190610dc0565b60405180910390f35b6102da60048036038101906102d59190610a56565b610886565b6040516102e79190610aa2565b60405180910390f35b61030a60048036038101906103059190610a56565b610931565b6040516103179190610b28565b60405180910390f35b60006001600083815260200190815260200160002060009054906101000a900473ffffffffffffffffffffffffffffffffffffffff1673ffffffffffffffffffffffffffffffffffffffff1663a2e800ad6040518163ffffffff1660e01b8152600401602060405180830381865afa1580156103a0573d6000803e3d6000fd5b505050506040513d601f19601f820116820180604052508101906103c49190610e07565b9050919050565b60006001600083815260200190815260200160002060009054906101000a900473ffffffffffffffffffffffffffffffffffffffff1673ffffffffffffffffffffffffffffffffffffffff1663e0a73a936040518163ffffffff1660e01b8152600401602060405180830381865afa15801561044b573d6000803e3d6000fd5b505050506040513d601f19601f8201168201806040525081019061046f9190610e49565b9050919050565b600360009054906101000a900473ffffffffffffffffffffffffffffffffffffffff1681565b6104a46109dc565b6000604051806020016040529081600082015481525050905090565b60006001600083815260200190815260200160002060009054906101000a900473ffffffffffffffffffffffffffffffffffffffff169050919050565b60006001600083815260200190815260200160002060009054906101000a900473ffffffffffffffffffffffffffffffffffffffff1673ffffffffffffffffffffffffffffffffffffffff1663603daf9a6040518163ffffffff1660e01b8152600401602060405180830381865afa15801561057d573d6000803e3d6000fd5b505050506040513d601f19601f820116820180604052508101906105a19190610e8b565b9050919050565b60006001600083815260200190815260200160002060009054906101000a900473ffffffffffffffffffffffffffffffffffffffff1673ffffffffffffffffffffffffffffffffffffffff1663200d2ed26040518163ffffffff1660e01b8152600401602060405180830381865afa158015610628573d6000803e3d6000fd5b505050506040513d601f19601f8201168201806040525081019061064c9190610edd565b9050919050565b60008073ffffffffffffffffffffffffffffffffffffffff168273ffffffffffffffffffffffffffffffffffffffff16036106c3576040517f08c379a00000000000000000000000000000000000000000000000000000000081526004016106ba90610f67565b60405180910390fd5b81600360006101000a81548173ffffffffffffffffffffffffffffffffffffffff021916908373ffffffffffffffffffffffffffffffffffffffff16021790555060019050919050565b60006001600083815260200190815260200160002060009054906101000a900473ffffffffffffffffffffffffffffffffffffffff1673ffffffffffffffffffffffffffffffffffffffff16634c1786ea6040518163ffffffff1660e01b8152600401602060405180830381865afa15801561078d573d6000803e3d6000fd5b505050506040513d601f19601f820116820180604052508101906107b19190610e49565b9050919050565b600060026000838152602001908152602001600020549050919050565b6107dd6109ef565b6001600083815260200190815260200160002060009054906101000a900473ffffffffffffffffffffffffffffffffffffffff1673ffffffffffffffffffffffffffffffffffffffff1663bd9a548b6040518163ffffffff1660e01b815260040160a060405180830381865afa15801561085b573d6000803e3d6000fd5b505050506040513d601f19601f8201168201806040525081019061087f91906110ce565b9050919050565b60006001600083815260200190815260200160002060009054906101000a900473ffffffffffffffffffffffffffffffffffffffff1673ffffffffffffffffffffffffffffffffffffffff16638a5682996040518163ffffffff1660e01b8152600401602060405180830381865afa158015610906573d6000803e3d6000fd5b505050506040513d601f19601f8201168201806040525081019061092a9190610e07565b9050919050565b60006001600083815260200190815260200160002060009054906101000a900473ffffffffffffffffffffffffffffffffffffffff1673ffffffffffffffffffffffffffffffffffffffff1663dbd0e1b66040518163ffffffff1660e01b8152600401602060405180830381865afa1580156109b1573d6000803e3d6000fd5b505050506040513d601f19601f820116820180604052508101906109d59190610e8b565b9050919050565b6040518060200160405280600081525090565b6040518060a00160405280600590602082028036833780820191505090505090565b6000604051905090565b600080fd5b6000819050919050565b610a3381610a20565b8114610a3e57600080fd5b50565b600081359050610a5081610a2a565b92915050565b600060208284031215610a6c57610a6b610a1b565b5b6000610a7a84828501610a41565b91505092915050565b600063ffffffff82169050919050565b610a9c81610a83565b82525050565b6000602082019050610ab76000830184610a93565b92915050565b610ac681610a20565b82525050565b6000602082019050610ae16000830184610abd565b92915050565b600073ffffffffffffffffffffffffffffffffffffffff82169050919050565b6000610b1282610ae7565b9050919050565b610b2281610b07565b82525050565b6000602082019050610b3d6000830184610b19565b92915050565b610b4c81610a20565b82525050565b602082016000820151610b686000850182610b43565b50505050565b6000602082019050610b836000830184610b52565b92915050565b6000819050919050565b6000610bae610ba9610ba484610ae7565b610b89565b610ae7565b9050919050565b6000610bc082610b93565b9050919050565b6000610bd282610bb5565b9050919050565b610be281610bc7565b82525050565b6000602082019050610bfd6000830184610bd9565b92915050565b7f4e487b7100000000000000000000000000000000000000000000000000000000600052602160045260246000fd5b60058110610c4357610c42610c03565b5b50565b6000819050610c5482610c32565b919050565b6000610c6482610c46565b9050919050565b610c7481610c59565b82525050565b6000602082019050610c8f6000830184610c6b565b92915050565b610c9e81610b07565b8114610ca957600080fd5b50565b600081359050610cbb81610c95565b92915050565b600060208284031215610cd757610cd6610a1b565b5b6000610ce584828501610cac565b91505092915050565b60008115159050919050565b610d0381610cee565b82525050565b6000602082019050610d1e6000830184610cfa565b92915050565b600060059050919050565b600081905092915050565b6000819050919050565b6000610d508383610b43565b60208301905092915050565b6000602082019050919050565b610d7281610d24565b610d7c8184610d2f565b9250610d8782610d3a565b8060005b83811015610db8578151610d9f8782610d44565b9650610daa83610d5c565b925050600181019050610d8b565b505050505050565b600060a082019050610dd56000830184610d69565b92915050565b610de481610a83565b8114610def57600080fd5b50565b600081519050610e0181610ddb565b92915050565b600060208284031215610e1d57610e1c610a1b565b5b6000610e2b84828501610df2565b91505092915050565b600081519050610e4381610a2a565b92915050565b600060208284031215610e5f57610e5e610a1b565b5b6000610e6d84828501610e34565b91505092915050565b600081519050610e8581610c95565b92915050565b600060208284031215610ea157610ea0610a1b565b5b6000610eaf84828501610e76565b91505092915050565b60058110610ec557600080fd5b50565b600081519050610ed781610eb8565b92915050565b600060208284031215610ef357610ef2610a1b565b5b6000610f0184828501610ec8565b91505092915050565b600082825260208201905092915050565b7f496e76616c696420616464726573730000000000000000000000000000000000600082015250565b6000610f51600f83610f0a565b9150610f5c82610f1b565b602082019050919050565b60006020820190508181036000830152610f8081610f44565b9050919050565b600080fd5b6000601f19601f8301169050919050565b7f4e487b7100000000000000000000000000000000000000000000000000000000600052604160045260246000fd5b610fd582610f8c565b810181811067ffffffffffffffff82111715610ff457610ff3610f9d565b5b80604052505050565b6000611007610a11565b90506110138282610fcc565b919050565b600067ffffffffffffffff82111561103357611032610f9d565b5b602082029050919050565b600080fd5b600061105661105184611018565b610ffd565b905080602084028301858111156110705761106f61103e565b5b835b8181101561109957806110858882610e34565b845260208401935050602081019050611072565b5050509392505050565b600082601f8301126110b8576110b7610f87565b5b60056110c5848285611043565b91505092915050565b600060a082840312156110e4576110e3610a1b565b5b60006110f2848285016110a3565b9150509291505056fea26469706673582212207a9f2e407f8543c6091ddc3c94bb57c4d025b1d287d5846df451582010362f3164736f6c63430008100033",
  "immutableReferences": {},
  "source": "// SPDX-License-Identifier: MIT\npragma solidity ^0.8.7;\n\nimport '../Swaps/Swap.sol';\nimport '@openzeppelin/contracts/utils/Counters.sol';\n\ncontract SwapHandler {\n  using Counters for Counters.Counter;\n  Counters.Counter internal _swapId;\n\n  mapping(uint256 => Swap) private _swaps;\n\n  mapping(uint256 => uint256) private _nextPayDate;\n\n  address public priceOracle;\n  \n  constructor () {}\n\n  //  oracle      Swap getPrice.sol \n  function setOracle(address _priceOracleAddress) public returns (bool) {\n    require(_priceOracleAddress != address(0x0), 'Invalid address');\n    priceOracle = _priceOracleAddress;\n    return true;\n  }\n\n  function _create(\n    bool _isBuyer,\n    uint256 _initAssetPrice,\n    uint256 _claimPrice,\n    uint256 _liquidationPrice,\n    uint256 _sellerDeposit,\n    uint256 _premium,\n    uint32 _totalRounds\n  ) internal returns (uint256) {\n    _swapId.increment();\n    uint256 newSwapId = _swapId.current();\n\n    Swap newSwap = new Swap(\n      _initAssetPrice,\n      _claimPrice,\n      _liquidationPrice,\n      _premium,\n      _sellerDeposit,\n      _totalRounds,\n      priceOracle\n    );\n    _swaps[newSwapId] = newSwap;\n\n    _isBuyer ? newSwap.setBuyer(msg.sender) : newSwap.setSeller(msg.sender);\n\n    return newSwapId;\n  }\n\n  function _accept(\n    bool _isBuyerHost,\n    uint256 _initAssetPrice,\n    uint256 _acceptedSwapId\n  ) internal isPending(_acceptedSwapId) returns (uint256) {\n    Swap targetSwap = _swaps[_acceptedSwapId];\n    targetSwap.setInitAssetPrice(_initAssetPrice);\n\n    _isBuyerHost\n      ? targetSwap.setSeller(msg.sender)\n      : targetSwap.setBuyer(msg.sender);\n\n    // check =>      .\n    _nextPayDate[_acceptedSwapId] += 4 weeks;\n\n    targetSwap.setStatus(Swap.Status.active);\n\n    return _acceptedSwapId;\n  }\n\n  function _cancel(\n    uint256 _targetSwapId\n  ) internal isParticipants(_targetSwapId) isPending(_targetSwapId) {\n    getSwap(_targetSwapId).setStatus(Swap.Status.inactive);\n  }\n\n  function _close(\n    uint256 _targetSwapId\n  ) internal isBuyer(_targetSwapId) isActive(_targetSwapId) {\n    getSwap(_targetSwapId).setStatus(Swap.Status.expired);\n  }\n\n  function _payPremium(\n    uint256 _targetSwapId\n  ) internal isBuyer(_targetSwapId) isActive(_targetSwapId) {\n    // uint256 currTime = block.timestamp;\n    // require(\n    //   (_nextPayDate[_targetSwapId] - 1 days <= currTime) &&\n    //     (currTime <= _nextPayDate[_targetSwapId]),\n    //   'Invalid pay date'\n    // );\n    _nextPayDate[_targetSwapId] += 4 weeks;\n    getSwap(_targetSwapId).setRounds(getRounds(_targetSwapId) - 1);\n  }\n\n  function _claim(\n    uint256 _targetSwapId\n  ) internal isBuyer(_targetSwapId) isActive(_targetSwapId) {\n    getSwap(_targetSwapId).setStatus(Swap.Status.claimed);\n  }\n\n  // getter transactions\n  function getSwapId() public view returns (Counters.Counter memory) {\n    return _swapId;\n  }\n\n  function getSwap(uint256 swapId) public view returns (Swap) {\n    return _swaps[swapId];\n  }\n\n  function getPrices(uint256 swapId) public view returns (uint256[5] memory) {\n    return _swaps[swapId].getPrices();\n  }\n\n  function getPremium(uint256 swapId) public view returns (uint256) {\n    return _swaps[swapId].premium();\n  }\n\n  function getSellerDeposit(uint256 swapId) public view returns (uint256) {\n    return _swaps[swapId].sellerDeposit();\n  }\n\n  function getStatus(uint256 swapId) public view returns (Swap.Status) {\n    return _swaps[swapId].status();\n  }\n\n  function getRounds(uint256 swapId) public view returns (uint32) {\n    return _swaps[swapId].rounds();\n  }\n\n  function getBuyer(uint256 swapId) public view returns (address) {\n    return _swaps[swapId].getBuyer();\n  }\n\n  function getSeller(uint256 swapId) public view returns (address) {\n    return _swaps[swapId].getSeller();\n  }\n\n  function getNextPayDate(uint256 swapId) public view returns (uint256) {\n    return _nextPayDate[swapId];\n  }\n\n  function getTotalRounds(uint256 swapId) public view returns (uint32) {\n    return _swaps[swapId].totalRounds();\n  }\n\n  // modifiers\n  modifier isBuyer(uint256 swapId) {\n    require(msg.sender == getBuyer(swapId), 'Only buyer of the CDS can call');\n    _;\n  }\n\n  modifier isSeller(uint256 swapId) {\n    require(msg.sender == getSeller(swapId), 'Only seller of the CDS can call');\n    _;\n  }\n\n  modifier isParticipants(uint256 swapId) {\n    require(\n      msg.sender == getBuyer(swapId) || msg.sender == getSeller(swapId),\n      'Only buyer/seller of the CDS can call'\n    );\n    _;\n  }\n\n  modifier isPending(uint256 swapId) {\n    require(\n      getStatus(swapId) == Swap.Status.pending,\n      'The status of the CDS should be pending'\n    );\n    _;\n  }\n\n  modifier isActive(uint256 swapId) {\n    require(\n      getStatus(swapId) == Swap.Status.active,\n      'The status of the CDS should be active'\n    );\n    _;\n  }\n}\n",
  "sourcePath": "/Users/sdh/Study/BEB_07/projects/CDS/contract/contracts/Handler/SwapHandler.sol",
  "compiler": {
    "name": "solc",
    "version": "0.8.16+commit.07a7930e.Emscripten.clang"
  },
  "schemaVersion": "3.4.9",
  "updatedAt": "2023-02-08T12:35:28.691Z",
  "devdoc": {
    "kind": "dev",
    "methods": {},
    "version": 1
  },
  "userdoc": {
    "kind": "user",
    "methods": {},
    "version": 1
  }
}