{
  "contractName": "SwapHandler",
  "abi": [
    {
      "anonymous": false,
      "inputs": [
        {
          "indexed": true,
          "internalType": "address",
          "name": "previousOwner",
          "type": "address"
        },
        {
          "indexed": true,
          "internalType": "address",
          "name": "newOwner",
          "type": "address"
        }
      ],
      "name": "OwnershipTransferred",
      "type": "event"
    },
    {
      "inputs": [
        {
          "internalType": "uint256",
          "name": "",
          "type": "uint256"
        }
      ],
      "name": "nextPayDate",
      "outputs": [
        {
          "internalType": "uint256",
          "name": "",
          "type": "uint256"
        }
      ],
      "stateMutability": "view",
      "type": "function"
    },
    {
      "inputs": [],
      "name": "owner",
      "outputs": [
        {
          "internalType": "address",
          "name": "",
          "type": "address"
        }
      ],
      "stateMutability": "view",
      "type": "function"
    },
    {
      "inputs": [],
      "name": "renounceOwnership",
      "outputs": [],
      "stateMutability": "nonpayable",
      "type": "function"
    },
    {
      "inputs": [
        {
          "internalType": "address",
          "name": "newOwner",
          "type": "address"
        }
      ],
      "name": "transferOwnership",
      "outputs": [],
      "stateMutability": "nonpayable",
      "type": "function"
    },
    {
      "inputs": [],
      "name": "getSwapId",
      "outputs": [
        {
          "components": [
            {
              "internalType": "uint256",
              "name": "_value",
              "type": "uint256"
            }
          ],
          "internalType": "struct Counters.Counter",
          "name": "",
          "type": "tuple"
        }
      ],
      "stateMutability": "view",
      "type": "function"
    },
    {
      "inputs": [
        {
          "internalType": "uint256",
          "name": "swapId",
          "type": "uint256"
        }
      ],
      "name": "getSwap",
      "outputs": [
        {
          "internalType": "contract Swap",
          "name": "",
          "type": "address"
        }
      ],
      "stateMutability": "view",
      "type": "function"
    },
    {
      "inputs": [
        {
          "internalType": "uint256",
          "name": "swapId",
          "type": "uint256"
        }
      ],
      "name": "getPrices",
      "outputs": [
        {
          "internalType": "uint256[5]",
          "name": "",
          "type": "uint256[5]"
        }
      ],
      "stateMutability": "view",
      "type": "function"
    },
    {
      "inputs": [
        {
          "internalType": "uint256",
          "name": "swapId",
          "type": "uint256"
        }
      ],
      "name": "getPremium",
      "outputs": [
        {
          "internalType": "uint256",
          "name": "",
          "type": "uint256"
        }
      ],
      "stateMutability": "view",
      "type": "function"
    },
    {
      "inputs": [
        {
          "internalType": "uint256",
          "name": "swapId",
          "type": "uint256"
        }
      ],
      "name": "getSellerDeposit",
      "outputs": [
        {
          "internalType": "uint256",
          "name": "",
          "type": "uint256"
        }
      ],
      "stateMutability": "view",
      "type": "function"
    },
    {
      "inputs": [
        {
          "internalType": "uint256",
          "name": "swapId",
          "type": "uint256"
        }
      ],
      "name": "getStatus",
      "outputs": [
        {
          "internalType": "enum Swap.Status",
          "name": "",
          "type": "uint8"
        }
      ],
      "stateMutability": "view",
      "type": "function"
    },
    {
      "inputs": [
        {
          "internalType": "uint256",
          "name": "swapId",
          "type": "uint256"
        }
      ],
      "name": "getRounds",
      "outputs": [
        {
          "internalType": "uint32",
          "name": "",
          "type": "uint32"
        }
      ],
      "stateMutability": "view",
      "type": "function"
    },
    {
      "inputs": [
        {
          "internalType": "uint256",
          "name": "swapId",
          "type": "uint256"
        }
      ],
      "name": "getBuyer",
      "outputs": [
        {
          "internalType": "address",
          "name": "",
          "type": "address"
        }
      ],
      "stateMutability": "view",
      "type": "function"
    },
    {
      "inputs": [
        {
          "internalType": "uint256",
          "name": "swapId",
          "type": "uint256"
        }
      ],
      "name": "getSeller",
      "outputs": [
        {
          "internalType": "address",
          "name": "",
          "type": "address"
        }
      ],
      "stateMutability": "view",
      "type": "function"
    }
  ],
  "bytecode": "0x608060405234801561001057600080fd5b5061002d61002261003260201b60201c565b61003a60201b60201c565b6100fe565b600033905090565b60008060009054906101000a900473ffffffffffffffffffffffffffffffffffffffff169050816000806101000a81548173ffffffffffffffffffffffffffffffffffffffff021916908373ffffffffffffffffffffffffffffffffffffffff1602179055508173ffffffffffffffffffffffffffffffffffffffff168173ffffffffffffffffffffffffffffffffffffffff167f8be0079c531659141344cd1fd0a4f28419497f9722a3daafe3b4186f6b6457e060405160405180910390a35050565b6111cd8061010d6000396000f3fe608060405234801561001057600080fd5b50600436106100cf5760003560e01c80635c622a0e1161008c5780638da5cb5b116100665780638da5cb5b1461024c578063914929561461026a578063d6a9de511461029a578063f2fde38b146102ca576100cf565b80635c622a0e146101e2578063715018a614610212578063881063231461021c576100cf565b806313ef3dcc146100d45780631bf1fffb1461010457806344a9d24414610134578063496ab39a146101645780634a0d89ba146101825780635bf608b8146101b2575b600080fd5b6100ee60048036038101906100e99190610a96565b6102e6565b6040516100fb9190610ae2565b60405180910390f35b61011e60048036038101906101199190610a96565b610391565b60405161012b9190610b0c565b60405180910390f35b61014e60048036038101906101499190610a96565b61043c565b60405161015b9190610b0c565b60405180910390f35b61016c610454565b6040516101799190610b52565b60405180910390f35b61019c60048036038101906101979190610a96565b610478565b6040516101a99190610bec565b60405180910390f35b6101cc60048036038101906101c79190610a96565b6104b5565b6040516101d99190610c28565b60405180910390f35b6101fc60048036038101906101f79190610a96565b610560565b6040516102099190610cba565b60405180910390f35b61021a61060b565b005b61023660048036038101906102319190610a96565b61061f565b6040516102439190610b0c565b60405180910390f35b6102546106ca565b6040516102619190610c28565b60405180910390f35b610284600480360381019061027f9190610a96565b6106f3565b6040516102919190610d71565b60405180910390f35b6102b460048036038101906102af9190610a96565b6107a4565b6040516102c19190610c28565b60405180910390f35b6102e460048036038101906102df9190610db8565b61084f565b005b60006002600083815260200190815260200160002060009054906101000a900473ffffffffffffffffffffffffffffffffffffffff1673ffffffffffffffffffffffffffffffffffffffff1663a2e800ad6040518163ffffffff1660e01b8152600401602060405180830381865afa158015610366573d6000803e3d6000fd5b505050506040513d601f19601f8201168201806040525081019061038a9190610e11565b9050919050565b60006002600083815260200190815260200160002060009054906101000a900473ffffffffffffffffffffffffffffffffffffffff1673ffffffffffffffffffffffffffffffffffffffff1663e0a73a936040518163ffffffff1660e01b8152600401602060405180830381865afa158015610411573d6000803e3d6000fd5b505050506040513d601f19601f820116820180604052508101906104359190610e53565b9050919050565b60036020528060005260406000206000915090505481565b61045c610a1c565b6001604051806020016040529081600082015481525050905090565b60006002600083815260200190815260200160002060009054906101000a900473ffffffffffffffffffffffffffffffffffffffff169050919050565b60006002600083815260200190815260200160002060009054906101000a900473ffffffffffffffffffffffffffffffffffffffff1673ffffffffffffffffffffffffffffffffffffffff1663603daf9a6040518163ffffffff1660e01b8152600401602060405180830381865afa158015610535573d6000803e3d6000fd5b505050506040513d601f19601f820116820180604052508101906105599190610e95565b9050919050565b60006002600083815260200190815260200160002060009054906101000a900473ffffffffffffffffffffffffffffffffffffffff1673ffffffffffffffffffffffffffffffffffffffff1663200d2ed26040518163ffffffff1660e01b8152600401602060405180830381865afa1580156105e0573d6000803e3d6000fd5b505050506040513d601f19601f820116820180604052508101906106049190610ee7565b9050919050565b6106136108d2565b61061d6000610950565b565b60006002600083815260200190815260200160002060009054906101000a900473ffffffffffffffffffffffffffffffffffffffff1673ffffffffffffffffffffffffffffffffffffffff16634c1786ea6040518163ffffffff1660e01b8152600401602060405180830381865afa15801561069f573d6000803e3d6000fd5b505050506040513d601f19601f820116820180604052508101906106c39190610e53565b9050919050565b60008060009054906101000a900473ffffffffffffffffffffffffffffffffffffffff16905090565b6106fb610a2f565b6002600083815260200190815260200160002060009054906101000a900473ffffffffffffffffffffffffffffffffffffffff1673ffffffffffffffffffffffffffffffffffffffff1663bd9a548b6040518163ffffffff1660e01b815260040160a060405180830381865afa158015610779573d6000803e3d6000fd5b505050506040513d601f19601f8201168201806040525081019061079d919061105b565b9050919050565b60006002600083815260200190815260200160002060009054906101000a900473ffffffffffffffffffffffffffffffffffffffff1673ffffffffffffffffffffffffffffffffffffffff1663dbd0e1b66040518163ffffffff1660e01b8152600401602060405180830381865afa158015610824573d6000803e3d6000fd5b505050506040513d601f19601f820116820180604052508101906108489190610e95565b9050919050565b6108576108d2565b600073ffffffffffffffffffffffffffffffffffffffff168173ffffffffffffffffffffffffffffffffffffffff16036108c6576040517f08c379a00000000000000000000000000000000000000000000000000000000081526004016108bd9061110b565b60405180910390fd5b6108cf81610950565b50565b6108da610a14565b73ffffffffffffffffffffffffffffffffffffffff166108f86106ca565b73ffffffffffffffffffffffffffffffffffffffff161461094e576040517f08c379a000000000000000000000000000000000000000000000000000000000815260040161094590611177565b60405180910390fd5b565b60008060009054906101000a900473ffffffffffffffffffffffffffffffffffffffff169050816000806101000a81548173ffffffffffffffffffffffffffffffffffffffff021916908373ffffffffffffffffffffffffffffffffffffffff1602179055508173ffffffffffffffffffffffffffffffffffffffff168173ffffffffffffffffffffffffffffffffffffffff167f8be0079c531659141344cd1fd0a4f28419497f9722a3daafe3b4186f6b6457e060405160405180910390a35050565b600033905090565b6040518060200160405280600081525090565b6040518060a00160405280600590602082028036833780820191505090505090565b6000604051905090565b600080fd5b6000819050919050565b610a7381610a60565b8114610a7e57600080fd5b50565b600081359050610a9081610a6a565b92915050565b600060208284031215610aac57610aab610a5b565b5b6000610aba84828501610a81565b91505092915050565b600063ffffffff82169050919050565b610adc81610ac3565b82525050565b6000602082019050610af76000830184610ad3565b92915050565b610b0681610a60565b82525050565b6000602082019050610b216000830184610afd565b92915050565b610b3081610a60565b82525050565b602082016000820151610b4c6000850182610b27565b50505050565b6000602082019050610b676000830184610b36565b92915050565b600073ffffffffffffffffffffffffffffffffffffffff82169050919050565b6000819050919050565b6000610bb2610bad610ba884610b6d565b610b8d565b610b6d565b9050919050565b6000610bc482610b97565b9050919050565b6000610bd682610bb9565b9050919050565b610be681610bcb565b82525050565b6000602082019050610c016000830184610bdd565b92915050565b6000610c1282610b6d565b9050919050565b610c2281610c07565b82525050565b6000602082019050610c3d6000830184610c19565b92915050565b7f4e487b7100000000000000000000000000000000000000000000000000000000600052602160045260246000fd5b60058110610c8357610c82610c43565b5b50565b6000819050610c9482610c72565b919050565b6000610ca482610c86565b9050919050565b610cb481610c99565b82525050565b6000602082019050610ccf6000830184610cab565b92915050565b600060059050919050565b600081905092915050565b6000819050919050565b6000610d018383610b27565b60208301905092915050565b6000602082019050919050565b610d2381610cd5565b610d2d8184610ce0565b9250610d3882610ceb565b8060005b83811015610d69578151610d508782610cf5565b9650610d5b83610d0d565b925050600181019050610d3c565b505050505050565b600060a082019050610d866000830184610d1a565b92915050565b610d9581610c07565b8114610da057600080fd5b50565b600081359050610db281610d8c565b92915050565b600060208284031215610dce57610dcd610a5b565b5b6000610ddc84828501610da3565b91505092915050565b610dee81610ac3565b8114610df957600080fd5b50565b600081519050610e0b81610de5565b92915050565b600060208284031215610e2757610e26610a5b565b5b6000610e3584828501610dfc565b91505092915050565b600081519050610e4d81610a6a565b92915050565b600060208284031215610e6957610e68610a5b565b5b6000610e7784828501610e3e565b91505092915050565b600081519050610e8f81610d8c565b92915050565b600060208284031215610eab57610eaa610a5b565b5b6000610eb984828501610e80565b91505092915050565b60058110610ecf57600080fd5b50565b600081519050610ee181610ec2565b92915050565b600060208284031215610efd57610efc610a5b565b5b6000610f0b84828501610ed2565b91505092915050565b600080fd5b6000601f19601f8301169050919050565b7f4e487b7100000000000000000000000000000000000000000000000000000000600052604160045260246000fd5b610f6282610f19565b810181811067ffffffffffffffff82111715610f8157610f80610f2a565b5b80604052505050565b6000610f94610a51565b9050610fa08282610f59565b919050565b600067ffffffffffffffff821115610fc057610fbf610f2a565b5b602082029050919050565b600080fd5b6000610fe3610fde84610fa5565b610f8a565b90508060208402830185811115610ffd57610ffc610fcb565b5b835b8181101561102657806110128882610e3e565b845260208401935050602081019050610fff565b5050509392505050565b600082601f83011261104557611044610f14565b5b6005611052848285610fd0565b91505092915050565b600060a0828403121561107157611070610a5b565b5b600061107f84828501611030565b91505092915050565b600082825260208201905092915050565b7f4f776e61626c653a206e6577206f776e657220697320746865207a65726f206160008201527f6464726573730000000000000000000000000000000000000000000000000000602082015250565b60006110f5602683611088565b915061110082611099565b604082019050919050565b60006020820190508181036000830152611124816110e8565b9050919050565b7f4f776e61626c653a2063616c6c6572206973206e6f7420746865206f776e6572600082015250565b6000611161602083611088565b915061116c8261112b565b602082019050919050565b6000602082019050818103600083015261119081611154565b905091905056fea26469706673582212207c7598d15e1910991a105afd2e953150086f28fd3e7c1598a998b514253acee164736f6c63430008100033",
  "immutableReferences": {},
  "source": "// SPDX-License-Identifier: MIT\npragma solidity ^0.8.7;\n\nimport '../Swap/Swap.sol';\nimport '@openzeppelin/contracts/access/Ownable.sol';\nimport '@openzeppelin/contracts/utils/Counters.sol';\n\ncontract SwapHandler is Ownable {\n  using Counters for Counters.Counter;\n  Counters.Counter internal _swapId;\n\n  mapping(uint256 => Swap) private _swaps;\n\n  mapping(uint256 => uint256) public nextPayDate;\n\n  // address public priceOracle;\n\n  //  oracle      Swap getPrice.sol \n  // function setOracle(address _priceOracleAddress) public returns (bool) {\n  //   require(_priceOracleAddress != address(0x0), 'Invalid address');\n  //   priceOracle = _priceOracleAddress;\n  //   return true;\n  // }\n\n  function _create(\n    bool _isBuyer,\n    uint256 _initAssetPrice,\n    uint256 _claimPrice,\n    uint256 _liquidationPrice,\n    uint256 _sellerDeposit,\n    uint256 _premium,\n    uint32 _totalRounds,\n    uint32 _assetType\n  ) internal returns (uint256) {\n    _swapId.increment();\n    uint256 newSwapId = _swapId.current();\n\n    Swap newSwap = new Swap(\n      _initAssetPrice,\n      _claimPrice,\n      _liquidationPrice,\n      _premium,\n      _sellerDeposit,\n      _totalRounds,\n      _assetType\n    );\n    _swaps[newSwapId] = newSwap;\n\n    _isBuyer ? newSwap.setBuyer(msg.sender) : newSwap.setSeller(msg.sender);\n\n    return newSwapId;\n  }\n\n  function _accept(\n    bool _isBuyerHost,\n    uint256 _initAssetPrice,\n    uint256 _acceptedSwapId\n  ) internal isPending(_acceptedSwapId) returns (uint256) {\n    Swap targetSwap = _swaps[_acceptedSwapId];\n    targetSwap.setInitAssetPrice(_initAssetPrice);\n\n    _isBuyerHost\n      ? targetSwap.setSeller(msg.sender)\n      : targetSwap.setBuyer(msg.sender);\n\n    nextPayDate[_acceptedSwapId] = block.timestamp + 4 weeks;\n\n    targetSwap.setStatus(Swap.Status.active);\n\n    return _acceptedSwapId;\n  }\n\n  function _cancel(uint256 _targetSwapId) internal isPending(_targetSwapId) {\n    getSwap(_targetSwapId).setStatus(Swap.Status.inactive);\n  }\n\n  function _close(uint256 _targetSwapId) internal isActive(_targetSwapId) {\n    getSwap(_targetSwapId).setStatus(Swap.Status.expired);\n  }\n\n  function _payPremium(uint256 _targetSwapId) internal isActive(_targetSwapId) {\n    require(getRounds(_targetSwapId) > 0, 'Round already ended');\n    nextPayDate[_targetSwapId] += 4 weeks;\n    getSwap(_targetSwapId).setRounds(getRounds(_targetSwapId) - 1);\n  }\n\n  function _claim(uint256 _targetSwapId) internal isActive(_targetSwapId) {\n    getSwap(_targetSwapId).setStatus(Swap.Status.claimed);\n  }\n\n  // getter transactions\n  function getSwapId() public view returns (Counters.Counter memory) {\n    return _swapId;\n  }\n\n  function getSwap(uint256 swapId) public view returns (Swap) {\n    return _swaps[swapId];\n  }\n\n  function getPrices(uint256 swapId) public view returns (uint256[5] memory) {\n    return _swaps[swapId].getPrices();\n  }\n\n  function getPremium(uint256 swapId) public view returns (uint256) {\n    return _swaps[swapId].premium();\n  }\n\n  function getSellerDeposit(uint256 swapId) public view returns (uint256) {\n    return _swaps[swapId].sellerDeposit();\n  }\n\n  function getStatus(uint256 swapId) public view returns (Swap.Status) {\n    return _swaps[swapId].status();\n  }\n\n  function getRounds(uint256 swapId) public view returns (uint32) {\n    return _swaps[swapId].rounds();\n  }\n\n  function getBuyer(uint256 swapId) public view returns (address) {\n    return _swaps[swapId].getBuyer();\n  }\n\n  function getSeller(uint256 swapId) public view returns (address) {\n    return _swaps[swapId].getSeller();\n  }\n\n  // function getTotalRounds(uint256 swapId) public view returns (uint32) {\n  //   return _swaps[swapId].totalRounds();\n  // }\n\n  // modifiers\n  modifier isBuyer(uint256 swapId) {\n    require(msg.sender == getBuyer(swapId), 'Only buyer of the CDS can call');\n    _;\n  }\n\n  modifier isSeller(uint256 swapId) {\n    require(msg.sender == getSeller(swapId), 'Only seller of the CDS can call');\n    _;\n  }\n\n  modifier isParticipants(uint256 swapId) {\n    require(\n      msg.sender == getBuyer(swapId) || msg.sender == getSeller(swapId),\n      'Only buyer/seller of the CDS can call'\n    );\n    _;\n  }\n\n  modifier isPending(uint256 swapId) {\n    require(\n      getStatus(swapId) == Swap.Status.pending,\n      'The status of the CDS should be pending'\n    );\n    _;\n  }\n\n  modifier isActive(uint256 swapId) {\n    require(\n      getStatus(swapId) == Swap.Status.active,\n      'The status of the CDS should be active'\n    );\n    _;\n  }\n}\n",
  "sourcePath": "/Users/sdh/Study/BEB_07/projects/CDS/contract/contracts/Handler/SwapHandler.sol",
  "compiler": {
    "name": "solc",
    "version": "0.8.16+commit.07a7930e.Emscripten.clang"
  },
  "schemaVersion": "3.4.9",
  "updatedAt": "2023-02-10T08:42:30.264Z",
  "devdoc": {
    "kind": "dev",
    "methods": {
      "owner()": {
        "details": "Returns the address of the current owner."
      },
      "renounceOwnership()": {
        "details": "Leaves the contract without owner. It will not be possible to call `onlyOwner` functions anymore. Can only be called by the current owner. NOTE: Renouncing ownership will leave the contract without an owner, thereby removing any functionality that is only available to the owner."
      },
      "transferOwnership(address)": {
        "details": "Transfers ownership of the contract to a new account (`newOwner`). Can only be called by the current owner."
      }
    },
    "version": 1
  },
  "userdoc": {
    "kind": "user",
    "methods": {},
    "version": 1
  }
}