{
  "contractName": "Swap",
  "abi": [
    {
      "inputs": [
        {
          "internalType": "uint256",
          "name": "_initAssetPrice",
          "type": "uint256"
        },
        {
          "internalType": "uint256",
          "name": "_claimPrice",
          "type": "uint256"
        },
        {
          "internalType": "uint256",
          "name": "_liquidationPrice",
          "type": "uint256"
        },
        {
          "internalType": "uint256",
          "name": "_premium",
          "type": "uint256"
        },
        {
          "internalType": "uint256",
          "name": "_sellerDeposit",
          "type": "uint256"
        },
        {
          "internalType": "uint256",
          "name": "_interval",
          "type": "uint256"
        },
        {
          "internalType": "uint32",
          "name": "_rounds",
          "type": "uint32"
        },
        {
          "internalType": "address",
          "name": "priceOracleAddr",
          "type": "address"
        }
      ],
      "stateMutability": "nonpayable",
      "type": "constructor"
    },
    {
      "anonymous": false,
      "inputs": [
        {
          "indexed": true,
          "internalType": "address",
          "name": "previousOwner",
          "type": "address"
        },
        {
          "indexed": true,
          "internalType": "address",
          "name": "newOwner",
          "type": "address"
        }
      ],
      "name": "OwnershipTransferred",
      "type": "event"
    },
    {
      "inputs": [],
      "name": "claimPrice",
      "outputs": [
        {
          "internalType": "uint256",
          "name": "",
          "type": "uint256"
        }
      ],
      "stateMutability": "view",
      "type": "function"
    },
    {
      "inputs": [],
      "name": "initAssetPrice",
      "outputs": [
        {
          "internalType": "uint256",
          "name": "",
          "type": "uint256"
        }
      ],
      "stateMutability": "view",
      "type": "function"
    },
    {
      "inputs": [],
      "name": "interval",
      "outputs": [
        {
          "internalType": "uint256",
          "name": "",
          "type": "uint256"
        }
      ],
      "stateMutability": "view",
      "type": "function"
    },
    {
      "inputs": [],
      "name": "liquidationPrice",
      "outputs": [
        {
          "internalType": "uint256",
          "name": "",
          "type": "uint256"
        }
      ],
      "stateMutability": "view",
      "type": "function"
    },
    {
      "inputs": [],
      "name": "owner",
      "outputs": [
        {
          "internalType": "address",
          "name": "",
          "type": "address"
        }
      ],
      "stateMutability": "view",
      "type": "function"
    },
    {
      "inputs": [],
      "name": "premium",
      "outputs": [
        {
          "internalType": "uint256",
          "name": "",
          "type": "uint256"
        }
      ],
      "stateMutability": "view",
      "type": "function"
    },
    {
      "inputs": [],
      "name": "renounceOwnership",
      "outputs": [],
      "stateMutability": "nonpayable",
      "type": "function"
    },
    {
      "inputs": [],
      "name": "rounds",
      "outputs": [
        {
          "internalType": "uint32",
          "name": "",
          "type": "uint32"
        }
      ],
      "stateMutability": "view",
      "type": "function"
    },
    {
      "inputs": [],
      "name": "sellerDeposit",
      "outputs": [
        {
          "internalType": "uint256",
          "name": "",
          "type": "uint256"
        }
      ],
      "stateMutability": "view",
      "type": "function"
    },
    {
      "inputs": [],
      "name": "status",
      "outputs": [
        {
          "internalType": "enum Swap.Status",
          "name": "",
          "type": "uint8"
        }
      ],
      "stateMutability": "view",
      "type": "function"
    },
    {
      "inputs": [],
      "name": "totalRounds",
      "outputs": [
        {
          "internalType": "uint32",
          "name": "",
          "type": "uint32"
        }
      ],
      "stateMutability": "view",
      "type": "function"
    },
    {
      "inputs": [
        {
          "internalType": "address",
          "name": "newOwner",
          "type": "address"
        }
      ],
      "name": "transferOwnership",
      "outputs": [],
      "stateMutability": "nonpayable",
      "type": "function"
    },
    {
      "inputs": [],
      "name": "getPrices",
      "outputs": [
        {
          "internalType": "uint256[5]",
          "name": "",
          "type": "uint256[5]"
        }
      ],
      "stateMutability": "view",
      "type": "function"
    },
    {
      "inputs": [],
      "name": "getBuyer",
      "outputs": [
        {
          "internalType": "address",
          "name": "",
          "type": "address"
        }
      ],
      "stateMutability": "view",
      "type": "function"
    },
    {
      "inputs": [],
      "name": "getSeller",
      "outputs": [
        {
          "internalType": "address",
          "name": "",
          "type": "address"
        }
      ],
      "stateMutability": "view",
      "type": "function"
    },
    {
      "inputs": [],
      "name": "getClaimReward",
      "outputs": [
        {
          "internalType": "uint256",
          "name": "",
          "type": "uint256"
        }
      ],
      "stateMutability": "view",
      "type": "function"
    },
    {
      "inputs": [
        {
          "internalType": "uint256",
          "name": "_initAssetPrice",
          "type": "uint256"
        }
      ],
      "name": "setInitAssetPrice",
      "outputs": [
        {
          "internalType": "uint256",
          "name": "",
          "type": "uint256"
        }
      ],
      "stateMutability": "nonpayable",
      "type": "function"
    },
    {
      "inputs": [
        {
          "internalType": "enum Swap.Status",
          "name": "_status",
          "type": "uint8"
        }
      ],
      "name": "setStatus",
      "outputs": [
        {
          "internalType": "enum Swap.Status",
          "name": "",
          "type": "uint8"
        }
      ],
      "stateMutability": "nonpayable",
      "type": "function"
    },
    {
      "inputs": [
        {
          "internalType": "address",
          "name": "_buyer",
          "type": "address"
        }
      ],
      "name": "setBuyer",
      "outputs": [
        {
          "internalType": "address",
          "name": "",
          "type": "address"
        }
      ],
      "stateMutability": "nonpayable",
      "type": "function"
    },
    {
      "inputs": [
        {
          "internalType": "address",
          "name": "_seller",
          "type": "address"
        }
      ],
      "name": "setSeller",
      "outputs": [
        {
          "internalType": "address",
          "name": "",
          "type": "address"
        }
      ],
      "stateMutability": "nonpayable",
      "type": "function"
    },
    {
      "inputs": [
        {
          "internalType": "uint32",
          "name": "_rounds",
          "type": "uint32"
        }
      ],
      "name": "setRounds",
      "outputs": [
        {
          "internalType": "uint32",
          "name": "",
          "type": "uint32"
        }
      ],
      "stateMutability": "nonpayable",
      "type": "function"
    }
  ],
  "bytecode": "0x60806040523480156200001157600080fd5b50604051620014c9380380620014c9833981810160405281019062000037919062000375565b620000576200004b620001c360201b60201c565b620001cb60201b60201c565b87600281905550866003819055508560048190555084600581905550836006819055508260078190555081600960146101000a81548163ffffffff021916908363ffffffff16021790555081600960186101000a81548163ffffffff021916908363ffffffff1602179055506000600860006101000a81548173ffffffffffffffffffffffffffffffffffffffff021916908373ffffffffffffffffffffffffffffffffffffffff1602179055506000600960006101000a81548173ffffffffffffffffffffffffffffffffffffffff021916908373ffffffffffffffffffffffffffffffffffffffff16021790555060018060146101000a81548160ff021916908360048111156200016f576200016e6200043e565b5b021790555080600160006101000a81548173ffffffffffffffffffffffffffffffffffffffff021916908373ffffffffffffffffffffffffffffffffffffffff16021790555050505050505050506200046d565b600033905090565b60008060009054906101000a900473ffffffffffffffffffffffffffffffffffffffff169050816000806101000a81548173ffffffffffffffffffffffffffffffffffffffff021916908373ffffffffffffffffffffffffffffffffffffffff1602179055508173ffffffffffffffffffffffffffffffffffffffff168173ffffffffffffffffffffffffffffffffffffffff167f8be0079c531659141344cd1fd0a4f28419497f9722a3daafe3b4186f6b6457e060405160405180910390a35050565b600080fd5b6000819050919050565b620002a98162000294565b8114620002b557600080fd5b50565b600081519050620002c9816200029e565b92915050565b600063ffffffff82169050919050565b620002ea81620002cf565b8114620002f657600080fd5b50565b6000815190506200030a81620002df565b92915050565b600073ffffffffffffffffffffffffffffffffffffffff82169050919050565b60006200033d8262000310565b9050919050565b6200034f8162000330565b81146200035b57600080fd5b50565b6000815190506200036f8162000344565b92915050565b600080600080600080600080610100898b0312156200039957620003986200028f565b5b6000620003a98b828c01620002b8565b9850506020620003bc8b828c01620002b8565b9750506040620003cf8b828c01620002b8565b9650506060620003e28b828c01620002b8565b9550506080620003f58b828c01620002b8565b94505060a0620004088b828c01620002b8565b93505060c06200041b8b828c01620002f9565b92505060e06200042e8b828c016200035e565b9150509295985092959890939650565b7f4e487b7100000000000000000000000000000000000000000000000000000000600052602160045260246000fd5b61104c806200047d6000396000f3fe608060405234801561001057600080fd5b50600436106101375760003560e01c8063a2e800ad116100b8578063d2895e931161007c578063d2895e9314610320578063dbd0e1b614610350578063e0a73a931461036e578063e99d28661461038c578063f26cc58e146103bc578063f2fde38b146103da57610137565b8063a2e800ad14610266578063a3f09ad614610284578063b6fc2d5f146102b4578063bd9a548b146102d2578063bef904e3146102f057610137565b8063715018a6116100ff578063715018a6146101e457806386be75b7146101ee5780638a5682991461020c5780638da5cb5b1461022a578063947a36fb1461024857610137565b806315d655c91461013c578063200d2ed21461015a5780632e49d78b146101785780634c1786ea146101a8578063603daf9a146101c6575b600080fd5b6101446103f6565b6040516101519190610a3d565b60405180910390f35b6101626103fc565b60405161016f9190610acf565b60405180910390f35b610192600480360381019061018d9190610b14565b61040f565b60405161019f9190610acf565b60405180910390f35b6101b061045a565b6040516101bd9190610a3d565b60405180910390f35b6101ce610460565b6040516101db9190610b82565b60405180910390f35b6101ec61048a565b005b6101f661049e565b6040516102039190610a3d565b60405180910390f35b6102146104a4565b6040516102219190610bbc565b60405180910390f35b6102326104ba565b60405161023f9190610b82565b60405180910390f35b6102506104e3565b60405161025d9190610a3d565b60405180910390f35b61026e6104e9565b60405161027b9190610bbc565b60405180910390f35b61029e60048036038101906102999190610c03565b6104ff565b6040516102ab9190610b82565b60405180910390f35b6102bc610574565b6040516102c99190610a3d565b60405180910390f35b6102da61057a565b6040516102e79190610cdb565b60405180910390f35b61030a60048036038101906103059190610d22565b6105b8565b6040516103179190610a3d565b60405180910390f35b61033a60048036038101906103359190610d7b565b6105cb565b6040516103479190610bbc565b60405180910390f35b610358610610565b6040516103659190610b82565b60405180910390f35b61037661063a565b6040516103839190610a3d565b60405180910390f35b6103a660048036038101906103a19190610c03565b610640565b6040516103b39190610b82565b60405180910390f35b6103c46106b5565b6040516103d19190610a3d565b60405180910390f35b6103f460048036038101906103ef9190610c03565b610783565b005b60035481565b600160149054906101000a900460ff1681565b6000610419610806565b81600160146101000a81548160ff0219169083600481111561043e5761043d610a58565b5b0217905550600160149054906101000a900460ff169050919050565b60065481565b6000600860009054906101000a900473ffffffffffffffffffffffffffffffffffffffff16905090565b610492610806565b61049c6000610884565b565b60025481565b600960189054906101000a900463ffffffff1681565b60008060009054906101000a900473ffffffffffffffffffffffffffffffffffffffff16905090565b60075481565b600960149054906101000a900463ffffffff1681565b6000610509610806565b81600860006101000a81548173ffffffffffffffffffffffffffffffffffffffff021916908373ffffffffffffffffffffffffffffffffffffffff160217905550600860009054906101000a900473ffffffffffffffffffffffffffffffffffffffff169050919050565b60045481565b610582610a02565b6040518060a001604052806002548152602001600354815260200160045481526020016005548152602001600654815250905090565b6000816002819055506002549050919050565b60006105d5610806565b81600960146101000a81548163ffffffff021916908363ffffffff160217905550600960149054906101000a900463ffffffff169050919050565b6000600960009054906101000a900473ffffffffffffffffffffffffffffffffffffffff16905090565b60055481565b600061064a610806565b81600960006101000a81548173ffffffffffffffffffffffffffffffffffffffff021916908373ffffffffffffffffffffffffffffffffffffffff160217905550600960009054906101000a900473ffffffffffffffffffffffffffffffffffffffff169050919050565b600080600160009054906101000a900473ffffffffffffffffffffffffffffffffffffffff1673ffffffffffffffffffffffffffffffffffffffff1663a035b1fe6040518163ffffffff1660e01b8152600401602060405180830381865afa158015610725573d6000803e3d6000fd5b505050506040513d601f19601f820116820180604052508101906107499190610dbd565b905080600354101561075f576000915050610780565b61077c60045460025483600654610948909392919063ffffffff16565b9150505b90565b61078b610806565b600073ffffffffffffffffffffffffffffffffffffffff168173ffffffffffffffffffffffffffffffffffffffff16036107fa576040517f08c379a00000000000000000000000000000000000000000000000000000000081526004016107f190610e6d565b60405180910390fd5b61080381610884565b50565b61080e6109b8565b73ffffffffffffffffffffffffffffffffffffffff1661082c6104ba565b73ffffffffffffffffffffffffffffffffffffffff1614610882576040517f08c379a000000000000000000000000000000000000000000000000000000000815260040161087990610ed9565b60405180910390fd5b565b60008060009054906101000a900473ffffffffffffffffffffffffffffffffffffffff169050816000806101000a81548173ffffffffffffffffffffffffffffffffffffffff021916908373ffffffffffffffffffffffffffffffffffffffff1602179055508173ffffffffffffffffffffffffffffffffffffffff168173ffffffffffffffffffffffffffffffffffffffff167f8be0079c531659141344cd1fd0a4f28419497f9722a3daafe3b4186f6b6457e060405160405180910390a35050565b60008082851061095a578590506109ac565b600061098161097287876109c090919063ffffffff16565b886109d690919063ffffffff16565b90506109a861099985876109c090919063ffffffff16565b826109ec90919063ffffffff16565b9150505b80915050949350505050565b600033905090565b600081836109ce9190610f28565b905092915050565b600081836109e49190610f8b565b905092915050565b600081836109fa9190610fbc565b905092915050565b6040518060a00160405280600590602082028036833780820191505090505090565b6000819050919050565b610a3781610a24565b82525050565b6000602082019050610a526000830184610a2e565b92915050565b7f4e487b7100000000000000000000000000000000000000000000000000000000600052602160045260246000fd5b60058110610a9857610a97610a58565b5b50565b6000819050610aa982610a87565b919050565b6000610ab982610a9b565b9050919050565b610ac981610aae565b82525050565b6000602082019050610ae46000830184610ac0565b92915050565b600080fd5b60058110610afc57600080fd5b50565b600081359050610b0e81610aef565b92915050565b600060208284031215610b2a57610b29610aea565b5b6000610b3884828501610aff565b91505092915050565b600073ffffffffffffffffffffffffffffffffffffffff82169050919050565b6000610b6c82610b41565b9050919050565b610b7c81610b61565b82525050565b6000602082019050610b976000830184610b73565b92915050565b600063ffffffff82169050919050565b610bb681610b9d565b82525050565b6000602082019050610bd16000830184610bad565b92915050565b610be081610b61565b8114610beb57600080fd5b50565b600081359050610bfd81610bd7565b92915050565b600060208284031215610c1957610c18610aea565b5b6000610c2784828501610bee565b91505092915050565b600060059050919050565b600081905092915050565b6000819050919050565b610c5981610a24565b82525050565b6000610c6b8383610c50565b60208301905092915050565b6000602082019050919050565b610c8d81610c30565b610c978184610c3b565b9250610ca282610c46565b8060005b83811015610cd3578151610cba8782610c5f565b9650610cc583610c77565b925050600181019050610ca6565b505050505050565b600060a082019050610cf06000830184610c84565b92915050565b610cff81610a24565b8114610d0a57600080fd5b50565b600081359050610d1c81610cf6565b92915050565b600060208284031215610d3857610d37610aea565b5b6000610d4684828501610d0d565b91505092915050565b610d5881610b9d565b8114610d6357600080fd5b50565b600081359050610d7581610d4f565b92915050565b600060208284031215610d9157610d90610aea565b5b6000610d9f84828501610d66565b91505092915050565b600081519050610db781610cf6565b92915050565b600060208284031215610dd357610dd2610aea565b5b6000610de184828501610da8565b91505092915050565b600082825260208201905092915050565b7f4f776e61626c653a206e6577206f776e657220697320746865207a65726f206160008201527f6464726573730000000000000000000000000000000000000000000000000000602082015250565b6000610e57602683610dea565b9150610e6282610dfb565b604082019050919050565b60006020820190508181036000830152610e8681610e4a565b9050919050565b7f4f776e61626c653a2063616c6c6572206973206e6f7420746865206f776e6572600082015250565b6000610ec3602083610dea565b9150610ece82610e8d565b602082019050919050565b60006020820190508181036000830152610ef281610eb6565b9050919050565b7f4e487b7100000000000000000000000000000000000000000000000000000000600052601160045260246000fd5b6000610f3382610a24565b9150610f3e83610a24565b9250828203905081811115610f5657610f55610ef9565b5b92915050565b7f4e487b7100000000000000000000000000000000000000000000000000000000600052601260045260246000fd5b6000610f9682610a24565b9150610fa183610a24565b925082610fb157610fb0610f5c565b5b828204905092915050565b6000610fc782610a24565b9150610fd283610a24565b9250817fffffffffffffffffffffffffffffffffffffffffffffffffffffffffffffffff048311821515161561100b5761100a610ef9565b5b82820290509291505056fea2646970667358221220ed501b3af40163ea4d40f92cc9adf6baf6bf700beb8777d90ca28d92d1e1b2e764736f6c63430008100033",
  "immutableReferences": {},
  "source": "// SPDX-License-Identifier: MIT\npragma solidity ^0.8.7;\n\nimport '../Oracle/PriceOracleMock.sol';\nimport '../libs/LibClaim.sol';\nimport '@openzeppelin/contracts/access/Ownable.sol';\nimport '@openzeppelin/contracts/utils/math/SafeMath.sol';\n\ncontract Swap is Ownable {\n  using SafeMath for uint256;\n  using LibClaim for uint256;\n\n  PriceOracleMock private priceOracle;\n\n  enum Status {\n    inactive,\n    pending,\n    active,\n    claimed,\n    expired\n  }\n  Status public status;\n\n  uint256 public initAssetPrice;\n  uint256 public claimPrice;\n  uint256 public liquidationPrice;\n  uint256 public premium;\n  uint256 public sellerDeposit;\n  uint256 public interval;\n  address private buyer;\n  address private seller;\n  uint32 public rounds;\n  uint32 public totalRounds;\n\n  constructor(\n    uint256 _initAssetPrice,\n    uint256 _claimPrice,\n    uint256 _liquidationPrice,\n    uint256 _premium,\n    uint256 _sellerDeposit,\n    uint256 _interval,\n    uint32 _rounds,\n    address priceOracleAddr\n  ) {\n    initAssetPrice = _initAssetPrice;\n    claimPrice = _claimPrice;\n    liquidationPrice = _liquidationPrice;\n    premium = _premium;\n    sellerDeposit = _sellerDeposit;\n    interval = _interval;\n    rounds = _rounds;\n    totalRounds = _rounds;\n\n    buyer = address(0);\n    seller = address(0);\n    status = Status.pending;\n\n    priceOracle = PriceOracleMock(priceOracleAddr);\n  }\n\n  function getPrices() public view returns (uint256[5] memory) {\n    return [\n      initAssetPrice,\n      claimPrice,\n      liquidationPrice,\n      premium,\n      sellerDeposit\n    ];\n  }\n\n  function getBuyer() public view returns (address) {\n    return buyer;\n  }\n\n  function getSeller() public view returns (address) {\n    return seller;\n  }\n\n  function getClaimReward() public view returns (uint256) {\n    uint256 currPrice = priceOracle.price();\n    if (claimPrice < currPrice) {\n      return 0;\n    }\n    return\n      sellerDeposit.calcClaimReward(\n        liquidationPrice,\n        initAssetPrice,\n        currPrice\n      );\n  }\n\n  function setInitAssetPrice(uint256 _initAssetPrice) public returns (uint256) {\n    initAssetPrice = _initAssetPrice;\n    return initAssetPrice;\n  }\n\n  function setStatus(Status _status) public onlyOwner returns (Status) {\n    status = _status;\n    return status;\n  }\n\n  function setBuyer(address _buyer) public onlyOwner returns (address) {\n    buyer = _buyer;\n    return buyer;\n  }\n\n  function setSeller(address _seller) public onlyOwner returns (address) {\n    seller = _seller;\n    return seller;\n  }\n\n  function setRounds(uint32 _rounds) public onlyOwner returns (uint32) {\n    rounds = _rounds;\n    return rounds;\n  }\n}\n",
  "sourcePath": "/Users/sdh/Study/BEB_07/projects/CDS/contract/contracts/Swaps/Swap.sol",
  "compiler": {
    "name": "solc",
    "version": "0.8.16+commit.07a7930e.Emscripten.clang"
  },
  "schemaVersion": "3.4.9",
  "updatedAt": "2023-02-08T05:58:46.217Z",
  "devdoc": {
    "kind": "dev",
    "methods": {
      "owner()": {
        "details": "Returns the address of the current owner."
      },
      "renounceOwnership()": {
        "details": "Leaves the contract without owner. It will not be possible to call `onlyOwner` functions anymore. Can only be called by the current owner. NOTE: Renouncing ownership will leave the contract without an owner, thereby removing any functionality that is only available to the owner."
      },
      "transferOwnership(address)": {
        "details": "Transfers ownership of the contract to a new account (`newOwner`). Can only be called by the current owner."
      }
    },
    "version": 1
  },
  "userdoc": {
    "kind": "user",
    "methods": {},
    "version": 1
  }
}