{
  "contractName": "Swaps",
  "abi": [
    {
      "inputs": [],
      "stateMutability": "nonpayable",
      "type": "constructor"
    },
    {
      "inputs": [],
      "name": "getPriceFromOracle",
      "outputs": [
        {
          "internalType": "uint256",
          "name": "",
          "type": "uint256"
        }
      ],
      "stateMutability": "view",
      "type": "function"
    },
    {
      "inputs": [
        {
          "internalType": "address",
          "name": "_priceOracleAddress",
          "type": "address"
        }
      ],
      "name": "setOracle",
      "outputs": [
        {
          "internalType": "bool",
          "name": "",
          "type": "bool"
        }
      ],
      "stateMutability": "nonpayable",
      "type": "function"
    },
    {
      "inputs": [
        {
          "internalType": "uint256",
          "name": "swapId",
          "type": "uint256"
        }
      ],
      "name": "getClaimReward",
      "outputs": [
        {
          "internalType": "uint256",
          "name": "",
          "type": "uint256"
        }
      ],
      "stateMutability": "view",
      "type": "function"
    },
    {
      "inputs": [
        {
          "internalType": "uint256",
          "name": "swapId",
          "type": "uint256"
        }
      ],
      "name": "getSwap",
      "outputs": [
        {
          "components": [
            {
              "internalType": "uint256",
              "name": "initAssetPrice",
              "type": "uint256"
            },
            {
              "internalType": "uint256",
              "name": "claimPrice",
              "type": "uint256"
            },
            {
              "internalType": "uint256",
              "name": "liquidationPrice",
              "type": "uint256"
            },
            {
              "internalType": "uint256",
              "name": "premium",
              "type": "uint256"
            },
            {
              "internalType": "uint256",
              "name": "sellerDeposit",
              "type": "uint256"
            }
          ],
          "internalType": "struct Swaps.Swap",
          "name": "",
          "type": "tuple"
        }
      ],
      "stateMutability": "view",
      "type": "function"
    },
    {
      "inputs": [
        {
          "internalType": "uint256",
          "name": "swapId",
          "type": "uint256"
        }
      ],
      "name": "getBuyer",
      "outputs": [
        {
          "internalType": "address",
          "name": "",
          "type": "address"
        }
      ],
      "stateMutability": "view",
      "type": "function"
    },
    {
      "inputs": [
        {
          "internalType": "uint256",
          "name": "swapId",
          "type": "uint256"
        }
      ],
      "name": "getSeller",
      "outputs": [
        {
          "internalType": "address",
          "name": "",
          "type": "address"
        }
      ],
      "stateMutability": "view",
      "type": "function"
    },
    {
      "inputs": [],
      "name": "getSwapId",
      "outputs": [
        {
          "components": [
            {
              "internalType": "uint256",
              "name": "_value",
              "type": "uint256"
            }
          ],
          "internalType": "struct Counters.Counter",
          "name": "",
          "type": "tuple"
        }
      ],
      "stateMutability": "view",
      "type": "function"
    },
    {
      "inputs": [
        {
          "internalType": "uint256",
          "name": "swapId",
          "type": "uint256"
        }
      ],
      "name": "getDeposits",
      "outputs": [
        {
          "components": [
            {
              "internalType": "uint256",
              "name": "deposit",
              "type": "uint256"
            },
            {
              "internalType": "bool",
              "name": "isPaid",
              "type": "bool"
            }
          ],
          "internalType": "struct Swaps.Deposit[2]",
          "name": "",
          "type": "tuple[2]"
        }
      ],
      "stateMutability": "view",
      "type": "function"
    },
    {
      "inputs": [
        {
          "internalType": "uint256",
          "name": "swapId",
          "type": "uint256"
        }
      ],
      "name": "getSwapStatus",
      "outputs": [
        {
          "internalType": "enum Swaps.swapStatus",
          "name": "",
          "type": "uint8"
        }
      ],
      "stateMutability": "view",
      "type": "function"
    },
    {
      "inputs": [
        {
          "internalType": "uint256",
          "name": "swapId",
          "type": "uint256"
        }
      ],
      "name": "getRoundsLeft",
      "outputs": [
        {
          "internalType": "uint32",
          "name": "",
          "type": "uint32"
        }
      ],
      "stateMutability": "view",
      "type": "function"
    },
    {
      "inputs": [
        {
          "internalType": "uint256",
          "name": "swapId",
          "type": "uint256"
        }
      ],
      "name": "getInterval",
      "outputs": [
        {
          "internalType": "uint256",
          "name": "",
          "type": "uint256"
        }
      ],
      "stateMutability": "view",
      "type": "function"
    }
  ],
  "bytecode": "0x608060405234801561001057600080fd5b50610dfa806100206000396000f3fe608060405234801561001057600080fd5b50600436106100a95760003560e01c80635d78e9f2116100715780635d78e9f21461017a578063616e9f8f146101aa5780637adbf973146101da578063be06fba01461020a578063d6a9de511461023a578063ee5966081461026a576100a9565b8063085c967f146100ae57806338f5a491146100de578063496ab39a146100fc5780634a0d89ba1461011a5780635bf608b81461014a575b600080fd5b6100c860048036038101906100c391906107ed565b61029a565b6040516100d5919061090f565b60405180910390f35b6100e6610324565b6040516100f39190610939565b60405180910390f35b6101046103bf565b6040516101119190610970565b60405180910390f35b610134600480360381019061012f91906107ed565b6103e3565b60405161014191906109f3565b60405180910390f35b610164600480360381019061015f91906107ed565b610442565b6040516101719190610a4f565b60405180910390f35b610194600480360381019061018f91906107ed565b610493565b6040516101a19190610a89565b60405180910390f35b6101c460048036038101906101bf91906107ed565b6104c0565b6040516101d19190610939565b60405180910390f35b6101f460048036038101906101ef9190610ad0565b6104dd565b6040516102019190610b0c565b60405180910390f35b610224600480360381019061021f91906107ed565b610596565b6040516102319190610939565b60405180910390f35b610254600480360381019061024f91906107ed565b6105fa565b6040516102619190610a4f565b60405180910390f35b610284600480360381019061027f91906107ed565b61064b565b6040516102919190610b9e565b60405180910390f35b6102a2610727565b60076000838152602001908152602001600020600280602002604051908101604052809291906000905b8282101561031957838260020201604051806040016040529081600082015481526020016001820160009054906101000a900460ff161515151581525050815260200190600101906102cc565b505050509050919050565b60008060008054906101000a900473ffffffffffffffffffffffffffffffffffffffff1673ffffffffffffffffffffffffffffffffffffffff166398d5fdca6040518163ffffffff1660e01b8152600401602060405180830381865afa158015610392573d6000803e3d6000fd5b505050506040513d601f19601f820116820180604052508101906103b69190610bce565b90508091505090565b6103c7610754565b6001604051806020016040529081600082015481525050905090565b6103eb610767565b600260008381526020019081526020016000206040518060a0016040529081600082015481526020016001820154815260200160028201548152602001600382015481526020016004820154815250509050919050565b60006006600083815260200190815260200160002060006002811061046a57610469610bfb565b5b0160009054906101000a900473ffffffffffffffffffffffffffffffffffffffff169050919050565b60006004600083815260200190815260200160002060009054906101000a900463ffffffff169050919050565b600060086000838152602001908152602001600020549050919050565b60008073ffffffffffffffffffffffffffffffffffffffff168273ffffffffffffffffffffffffffffffffffffffff160361054d576040517f08c379a000000000000000000000000000000000000000000000000000000000815260040161054490610c87565b60405180910390fd5b816000806101000a81548173ffffffffffffffffffffffffffffffffffffffff021916908373ffffffffffffffffffffffffffffffffffffffff16021790555060019050919050565b6000806105a1610324565b905060006105ae846103e3565b905081816020015110156105c7576000925050506105f5565b60006105ec82604001518360000151858560800151610675909392919063ffffffff16565b90508093505050505b919050565b60006006600083815260200190815260200160002060016002811061062257610621610bfb565b5b0160009054906101000a900473ffffffffffffffffffffffffffffffffffffffff169050919050565b60006003600083815260200190815260200160002060009054906101000a900460ff169050919050565b600080828510610687578590506106d9565b60006106ae61069f87876106e590919063ffffffff16565b886106fb90919063ffffffff16565b90506106d56106c685876106e590919063ffffffff16565b8261071190919063ffffffff16565b9150505b80915050949350505050565b600081836106f39190610cd6565b905092915050565b600081836107099190610d39565b905092915050565b6000818361071f9190610d6a565b905092915050565b60405180604001604052806002905b61073e610796565b8152602001906001900390816107365790505090565b6040518060200160405280600081525090565b6040518060a0016040528060008152602001600081526020016000815260200160008152602001600081525090565b6040518060400160405280600081526020016000151581525090565b600080fd5b6000819050919050565b6107ca816107b7565b81146107d557600080fd5b50565b6000813590506107e7816107c1565b92915050565b600060208284031215610803576108026107b2565b5b6000610811848285016107d8565b91505092915050565b600060029050919050565b600081905092915050565b6000819050919050565b610843816107b7565b82525050565b60008115159050919050565b61085e81610849565b82525050565b60408201600082015161087a600085018261083a565b50602082015161088d6020850182610855565b50505050565b600061089f8383610864565b60408301905092915050565b6000602082019050919050565b6108c18161081a565b6108cb8184610825565b92506108d682610830565b8060005b838110156109075781516108ee8782610893565b96506108f9836108ab565b9250506001810190506108da565b505050505050565b600060808201905061092460008301846108b8565b92915050565b610933816107b7565b82525050565b600060208201905061094e600083018461092a565b92915050565b60208201600082015161096a600085018261083a565b50505050565b60006020820190506109856000830184610954565b92915050565b60a0820160008201516109a1600085018261083a565b5060208201516109b4602085018261083a565b5060408201516109c7604085018261083a565b5060608201516109da606085018261083a565b5060808201516109ed608085018261083a565b50505050565b600060a082019050610a08600083018461098b565b92915050565b600073ffffffffffffffffffffffffffffffffffffffff82169050919050565b6000610a3982610a0e565b9050919050565b610a4981610a2e565b82525050565b6000602082019050610a646000830184610a40565b92915050565b600063ffffffff82169050919050565b610a8381610a6a565b82525050565b6000602082019050610a9e6000830184610a7a565b92915050565b610aad81610a2e565b8114610ab857600080fd5b50565b600081359050610aca81610aa4565b92915050565b600060208284031215610ae657610ae56107b2565b5b6000610af484828501610abb565b91505092915050565b610b0681610849565b82525050565b6000602082019050610b216000830184610afd565b92915050565b7f4e487b7100000000000000000000000000000000000000000000000000000000600052602160045260246000fd5b60048110610b6757610b66610b27565b5b50565b6000819050610b7882610b56565b919050565b6000610b8882610b6a565b9050919050565b610b9881610b7d565b82525050565b6000602082019050610bb36000830184610b8f565b92915050565b600081519050610bc8816107c1565b92915050565b600060208284031215610be457610be36107b2565b5b6000610bf284828501610bb9565b91505092915050565b7f4e487b7100000000000000000000000000000000000000000000000000000000600052603260045260246000fd5b600082825260208201905092915050565b7f496e76616c696420616464726573730000000000000000000000000000000000600082015250565b6000610c71600f83610c2a565b9150610c7c82610c3b565b602082019050919050565b60006020820190508181036000830152610ca081610c64565b9050919050565b7f4e487b7100000000000000000000000000000000000000000000000000000000600052601160045260246000fd5b6000610ce1826107b7565b9150610cec836107b7565b9250828203905081811115610d0457610d03610ca7565b5b92915050565b7f4e487b7100000000000000000000000000000000000000000000000000000000600052601260045260246000fd5b6000610d44826107b7565b9150610d4f836107b7565b925082610d5f57610d5e610d0a565b5b828204905092915050565b6000610d75826107b7565b9150610d80836107b7565b9250817fffffffffffffffffffffffffffffffffffffffffffffffffffffffffffffffff0483118215151615610db957610db8610ca7565b5b82820290509291505056fea26469706673582212203442f233aeb9c88e4724940040ee72cc7e3ad039778d820e48f3b4791d8efce464736f6c63430008100033",
  "immutableReferences": {},
  "source": "// SPDX-License-Identifier: MIT\npragma solidity ^0.8.7;\n\nimport '../Oracle/PriceConsumer.sol';\nimport '../libs/LibClaim.sol';\nimport '@openzeppelin/contracts/utils/Counters.sol';\nimport '@openzeppelin/contracts/utils/math/SafeMath.sol';\n\ncontract Swaps is PriceConsumer {\n  using Counters for Counters.Counter;\n  using LibClaim for uint256;\n  using SafeMath for uint256;\n  Counters.Counter internal _swapId;\n\n  struct Swap {\n    uint256 initAssetPrice;\n    uint256 claimPrice;\n    uint256 liquidationPrice;\n    uint256 premium;\n    uint256 sellerDeposit;\n  }\n\n  struct Deposit {\n    uint256 deposit;\n    bool isPaid;\n  }\n\n  enum swapStatus {\n    inactive,\n    pending,\n    active,\n    claimed\n  }\n\n  // mappings\n\n  // key-value entity that maps the ID of the swap to detail infos about price.\n  mapping(uint256 => Swap) private _swaps;\n\n  // key-value entity that maps the ID of the swap to the status of the swap.\n  mapping(uint256 => swapStatus) private _swapsStatus;\n\n  // key-value entity that maps the ID of the swap to the rounds left.\n  mapping(uint256 => uint32) private _rounds;\n\n  // key-value entity that maps the ID of the swap to next date to pay premium.\n  mapping(uint256 => uint256) private _nextPayDate;\n\n  // key-value entity that maps the ID of the swap to buyer/seller.\n  // _particpants[swapId][0] => buyer's address\n  // _particpants[swapId][1] => seller's address\n  mapping(uint256 => address[2]) private _participants;\n\n  // key-value entity that maps the ID of the swap to the detail of buyer/seller's deposits.\n  // _particpants[swapId][0] => buyer's deposit\n  // _particpants[swapId][1] => seller's deposit\n  mapping(uint256 => Deposit[2]) private _deposits;\n\n  // key-value entity that maps the ID of the swap to premium interval.\n  mapping(uint256 => uint256) private _intervals;\n\n  // modifiers\n\n  modifier isBuyer(uint256 swapId) {\n    require(\n      msg.sender == _participants[swapId][0],\n      'Only buyer of the CDS can call'\n    );\n    _;\n  }\n\n  modifier isPending(uint256 swapId) {\n    require(\n      _swapsStatus[swapId] == swapStatus.pending,\n      'The status of the CDS should be pending'\n    );\n    _;\n  }\n\n  modifier isActive(uint256 swapId) {\n    require(\n      _swapsStatus[swapId] == swapStatus.active,\n      'The status of the CDS should be pending'\n    );\n    _;\n  }\n\n  constructor() {}\n\n  // transactions\n\n  function _createSwap(\n    bool _isBuyer,\n    uint256 _initAssetPrice,\n    uint256 _claimPrice,\n    uint256 _liquidationPrice,\n    uint256 _sellerDeposit,\n    uint256 _premium,\n    uint32 _premiumInterval,\n    uint32 _totalRounds\n  ) internal returns (uint256) {\n    _swapId.increment();\n    uint256 newSwapId = _swapId.current();\n    Swap storage newSwap = _swaps[newSwapId];\n\n    newSwap.initAssetPrice = _initAssetPrice;\n    newSwap.claimPrice = _claimPrice;\n    newSwap.liquidationPrice = _liquidationPrice;\n    newSwap.premium = _premium;\n    newSwap.sellerDeposit = _sellerDeposit;\n\n    _intervals[newSwapId] = _premiumInterval;\n\n    _rounds[newSwapId] = _totalRounds;\n\n    _swapsStatus[newSwapId] = swapStatus.pending;\n\n    _isBuyer ? _createSwapByBuyer(newSwapId) : _createSwapBySeller(newSwapId);\n    return newSwapId;\n  }\n\n  function _acceptSwap(\n    bool _isBuyerHost,\n    uint256 _initAssetPrice,\n    uint256 _acceptedSwapId\n  ) internal returns (uint256) {\n    Swap storage aSwap = _swaps[_acceptedSwapId];\n    aSwap.initAssetPrice = _initAssetPrice;\n\n    _isBuyerHost\n      ? _createSwapBySeller(_acceptedSwapId)\n      : _createSwapByBuyer(_acceptedSwapId);\n\n    // check\n    _nextPayDate[_acceptedSwapId] =\n      block.timestamp +\n      _intervals[_acceptedSwapId];\n\n    _swapsStatus[_acceptedSwapId] = swapStatus.active;\n\n    return _acceptedSwapId;\n  }\n\n  function _cancelSwap(uint256 _targetSwapId) internal {\n    _clearDeposit(_targetSwapId);\n    _swapsStatus[_targetSwapId] = swapStatus.inactive;\n  }\n\n  function _claimSwap(uint256 _targetSwapId) internal {\n    _clearDeposit(_targetSwapId);\n    _swapsStatus[_targetSwapId] = swapStatus.claimed;\n  }\n\n  function _payPremium(uint256 _targetSwapId) internal {\n    _nextPayDate[_targetSwapId] = block.timestamp + _intervals[_targetSwapId];\n    _rounds[_targetSwapId] -= 1;\n  }\n\n  function getClaimReward(uint256 swapId) public view returns (uint256) {\n    uint256 currPrice = getPriceFromOracle();\n    Swap memory targetSwap = getSwap(swapId);\n    if (targetSwap.claimPrice < currPrice) {\n      return 0;\n    }\n    uint256 claimReward = targetSwap.sellerDeposit.calcClaimReward(\n      targetSwap.liquidationPrice,\n      targetSwap.initAssetPrice,\n      currPrice\n    );\n    return claimReward;\n  }\n\n  function getSwap(uint256 swapId) public view returns (Swap memory) {\n    return _swaps[swapId];\n  }\n\n  function getBuyer(uint256 swapId) public view returns (address) {\n    return _participants[swapId][0];\n  }\n\n  function getSeller(uint256 swapId) public view returns (address) {\n    return _participants[swapId][1];\n  }\n\n  function getSwapId() public view returns (Counters.Counter memory) {\n    return _swapId;\n  }\n\n  function getDeposits(uint256 swapId) public view returns (Deposit[2] memory) {\n    return _deposits[swapId];\n  }\n\n  function getSwapStatus(uint256 swapId) public view returns (swapStatus) {\n    return _swapsStatus[swapId];\n  }\n\n  function getRoundsLeft(uint256 swapId) public view returns (uint32) {\n    return _rounds[swapId];\n  }\n\n  function getInterval(uint256 swapId) public view returns (uint256) {\n    return _intervals[swapId];\n  }\n\n  function _createSwapByBuyer(uint256 swapId) private {\n    _participants[swapId][0] = msg.sender;\n    _deposits[swapId][0].deposit = getSwap(swapId).premium.mul(3);\n    _deposits[swapId][0].isPaid = true;\n  }\n\n  function _createSwapBySeller(uint256 swapId) private {\n    _participants[swapId][1] = msg.sender;\n    _deposits[swapId][1].deposit = getSwap(swapId).sellerDeposit;\n    _deposits[swapId][1].isPaid = true;\n  }\n\n  function _clearDeposit(uint256 swapId) private {\n    for (uint i = 0; i <= 1; i++) {\n      _deposits[swapId][i].deposit = 0;\n      _deposits[swapId][i].isPaid = false;\n    }\n  }\n}\n",
  "sourcePath": "/Users/sdh/Study/BEB_07/projects/CDS/contract/contracts/Swaps/Swaps.sol",
  "compiler": {
    "name": "solc",
    "version": "0.8.16+commit.07a7930e.Emscripten.clang"
  },
  "schemaVersion": "3.4.9",
  "updatedAt": "2023-02-01T12:20:16.319Z",
  "devdoc": {
    "kind": "dev",
    "methods": {},
    "version": 1
  },
  "userdoc": {
    "kind": "user",
    "methods": {},
    "version": 1
  }
}