{
  "contractName": "SwapHandler",
  "abi": [
    {
      "inputs": [],
      "stateMutability": "nonpayable",
      "type": "constructor"
    },
    {
      "inputs": [],
      "name": "priceOracle",
      "outputs": [
        {
          "internalType": "address",
          "name": "",
          "type": "address"
        }
      ],
      "stateMutability": "view",
      "type": "function"
    },
    {
      "inputs": [
        {
          "internalType": "address",
          "name": "_priceOracleAddress",
          "type": "address"
        }
      ],
      "name": "setOracle",
      "outputs": [
        {
          "internalType": "bool",
          "name": "",
          "type": "bool"
        }
      ],
      "stateMutability": "nonpayable",
      "type": "function"
    },
    {
      "inputs": [],
      "name": "getSwapId",
      "outputs": [
        {
          "components": [
            {
              "internalType": "uint256",
              "name": "_value",
              "type": "uint256"
            }
          ],
          "internalType": "struct Counters.Counter",
          "name": "",
          "type": "tuple"
        }
      ],
      "stateMutability": "view",
      "type": "function"
    },
    {
      "inputs": [
        {
          "internalType": "uint256",
          "name": "swapId",
          "type": "uint256"
        }
      ],
      "name": "getSwap",
      "outputs": [
        {
          "internalType": "contract Swap",
          "name": "",
          "type": "address"
        }
      ],
      "stateMutability": "view",
      "type": "function"
    },
    {
      "inputs": [
        {
          "internalType": "uint256",
          "name": "swapId",
          "type": "uint256"
        }
      ],
      "name": "getPrices",
      "outputs": [
        {
          "internalType": "uint256[5]",
          "name": "",
          "type": "uint256[5]"
        }
      ],
      "stateMutability": "view",
      "type": "function"
    },
    {
      "inputs": [
        {
          "internalType": "uint256",
          "name": "swapId",
          "type": "uint256"
        }
      ],
      "name": "getPremium",
      "outputs": [
        {
          "internalType": "uint256",
          "name": "",
          "type": "uint256"
        }
      ],
      "stateMutability": "view",
      "type": "function"
    },
    {
      "inputs": [
        {
          "internalType": "uint256",
          "name": "swapId",
          "type": "uint256"
        }
      ],
      "name": "getSellerDeposit",
      "outputs": [
        {
          "internalType": "uint256",
          "name": "",
          "type": "uint256"
        }
      ],
      "stateMutability": "view",
      "type": "function"
    },
    {
      "inputs": [
        {
          "internalType": "uint256",
          "name": "swapId",
          "type": "uint256"
        }
      ],
      "name": "getStatus",
      "outputs": [
        {
          "internalType": "enum Swap.Status",
          "name": "",
          "type": "uint8"
        }
      ],
      "stateMutability": "view",
      "type": "function"
    },
    {
      "inputs": [
        {
          "internalType": "uint256",
          "name": "swapId",
          "type": "uint256"
        }
      ],
      "name": "getRounds",
      "outputs": [
        {
          "internalType": "uint32",
          "name": "",
          "type": "uint32"
        }
      ],
      "stateMutability": "view",
      "type": "function"
    },
    {
      "inputs": [
        {
          "internalType": "uint256",
          "name": "swapId",
          "type": "uint256"
        }
      ],
      "name": "getInterval",
      "outputs": [
        {
          "internalType": "uint256",
          "name": "",
          "type": "uint256"
        }
      ],
      "stateMutability": "view",
      "type": "function"
    },
    {
      "inputs": [
        {
          "internalType": "uint256",
          "name": "swapId",
          "type": "uint256"
        }
      ],
      "name": "getBuyer",
      "outputs": [
        {
          "internalType": "address",
          "name": "",
          "type": "address"
        }
      ],
      "stateMutability": "view",
      "type": "function"
    },
    {
      "inputs": [
        {
          "internalType": "uint256",
          "name": "swapId",
          "type": "uint256"
        }
      ],
      "name": "getSeller",
      "outputs": [
        {
          "internalType": "address",
          "name": "",
          "type": "address"
        }
      ],
      "stateMutability": "view",
      "type": "function"
    },
    {
      "inputs": [
        {
          "internalType": "uint256",
          "name": "swapId",
          "type": "uint256"
        }
      ],
      "name": "getNextPayDate",
      "outputs": [
        {
          "internalType": "uint256",
          "name": "",
          "type": "uint256"
        }
      ],
      "stateMutability": "view",
      "type": "function"
    },
    {
      "inputs": [
        {
          "internalType": "uint256",
          "name": "swapId",
          "type": "uint256"
        }
      ],
      "name": "getTotalRounds",
      "outputs": [
        {
          "internalType": "uint32",
          "name": "",
          "type": "uint32"
        }
      ],
      "stateMutability": "view",
      "type": "function"
    }
  ],
  "bytecode": "0x608060405234801561001057600080fd5b50611227806100206000396000f3fe608060405234801561001057600080fd5b50600436106100ea5760003560e01c8063616e9f8f1161008c5780638bfd13ae116100665780638bfd13ae146102ab57806391492956146102db578063967fe6f11461030b578063d6a9de511461033b576100ea565b8063616e9f8f1461021b5780637adbf9731461024b578063881063231461027b576100ea565b8063496ab39a116100c8578063496ab39a1461016d5780634a0d89ba1461018b5780635bf608b8146101bb5780635c622a0e146101eb576100ea565b806313ef3dcc146100ef5780631bf1fffb1461011f5780632630c12f1461014f575b600080fd5b61010960048036038101906101049190610b4c565b61036b565b6040516101169190610b98565b60405180910390f35b61013960048036038101906101349190610b4c565b610416565b6040516101469190610bc2565b60405180910390f35b6101576104c1565b6040516101649190610c1e565b60405180910390f35b6101756104e7565b6040516101829190610c64565b60405180910390f35b6101a560048036038101906101a09190610b4c565b61050b565b6040516101b29190610cde565b60405180910390f35b6101d560048036038101906101d09190610b4c565b610548565b6040516101e29190610c1e565b60405180910390f35b61020560048036038101906102009190610b4c565b6105f3565b6040516102129190610d70565b60405180910390f35b61023560048036038101906102309190610b4c565b61069e565b6040516102429190610bc2565b60405180910390f35b61026560048036038101906102609190610db7565b610749565b6040516102729190610dff565b60405180910390f35b61029560048036038101906102909190610b4c565b610803565b6040516102a29190610bc2565b60405180910390f35b6102c560048036038101906102c09190610b4c565b6108ae565b6040516102d29190610bc2565b60405180910390f35b6102f560048036038101906102f09190610b4c565b6108cb565b6040516103029190610eb6565b60405180910390f35b61032560048036038101906103209190610b4c565b61097c565b6040516103329190610b98565b60405180910390f35b61035560048036038101906103509190610b4c565b610a27565b6040516103629190610c1e565b60405180910390f35b60006001600083815260200190815260200160002060009054906101000a900473ffffffffffffffffffffffffffffffffffffffff1673ffffffffffffffffffffffffffffffffffffffff1663a2e800ad6040518163ffffffff1660e01b8152600401602060405180830381865afa1580156103eb573d6000803e3d6000fd5b505050506040513d601f19601f8201168201806040525081019061040f9190610efd565b9050919050565b60006001600083815260200190815260200160002060009054906101000a900473ffffffffffffffffffffffffffffffffffffffff1673ffffffffffffffffffffffffffffffffffffffff1663e0a73a936040518163ffffffff1660e01b8152600401602060405180830381865afa158015610496573d6000803e3d6000fd5b505050506040513d601f19601f820116820180604052508101906104ba9190610f3f565b9050919050565b600360009054906101000a900473ffffffffffffffffffffffffffffffffffffffff1681565b6104ef610ad2565b6000604051806020016040529081600082015481525050905090565b60006001600083815260200190815260200160002060009054906101000a900473ffffffffffffffffffffffffffffffffffffffff169050919050565b60006001600083815260200190815260200160002060009054906101000a900473ffffffffffffffffffffffffffffffffffffffff1673ffffffffffffffffffffffffffffffffffffffff1663603daf9a6040518163ffffffff1660e01b8152600401602060405180830381865afa1580156105c8573d6000803e3d6000fd5b505050506040513d601f19601f820116820180604052508101906105ec9190610f81565b9050919050565b60006001600083815260200190815260200160002060009054906101000a900473ffffffffffffffffffffffffffffffffffffffff1673ffffffffffffffffffffffffffffffffffffffff1663200d2ed26040518163ffffffff1660e01b8152600401602060405180830381865afa158015610673573d6000803e3d6000fd5b505050506040513d601f19601f820116820180604052508101906106979190610fd3565b9050919050565b60006001600083815260200190815260200160002060009054906101000a900473ffffffffffffffffffffffffffffffffffffffff1673ffffffffffffffffffffffffffffffffffffffff1663947a36fb6040518163ffffffff1660e01b8152600401602060405180830381865afa15801561071e573d6000803e3d6000fd5b505050506040513d601f19601f820116820180604052508101906107429190610f3f565b9050919050565b60008073ffffffffffffffffffffffffffffffffffffffff168273ffffffffffffffffffffffffffffffffffffffff16036107b9576040517f08c379a00000000000000000000000000000000000000000000000000000000081526004016107b09061105d565b60405180910390fd5b81600360006101000a81548173ffffffffffffffffffffffffffffffffffffffff021916908373ffffffffffffffffffffffffffffffffffffffff16021790555060019050919050565b60006001600083815260200190815260200160002060009054906101000a900473ffffffffffffffffffffffffffffffffffffffff1673ffffffffffffffffffffffffffffffffffffffff16634c1786ea6040518163ffffffff1660e01b8152600401602060405180830381865afa158015610883573d6000803e3d6000fd5b505050506040513d601f19601f820116820180604052508101906108a79190610f3f565b9050919050565b600060026000838152602001908152602001600020549050919050565b6108d3610ae5565b6001600083815260200190815260200160002060009054906101000a900473ffffffffffffffffffffffffffffffffffffffff1673ffffffffffffffffffffffffffffffffffffffff1663bd9a548b6040518163ffffffff1660e01b815260040160a060405180830381865afa158015610951573d6000803e3d6000fd5b505050506040513d601f19601f8201168201806040525081019061097591906111c4565b9050919050565b60006001600083815260200190815260200160002060009054906101000a900473ffffffffffffffffffffffffffffffffffffffff1673ffffffffffffffffffffffffffffffffffffffff16638a5682996040518163ffffffff1660e01b8152600401602060405180830381865afa1580156109fc573d6000803e3d6000fd5b505050506040513d601f19601f82011682018060405250810190610a209190610efd565b9050919050565b60006001600083815260200190815260200160002060009054906101000a900473ffffffffffffffffffffffffffffffffffffffff1673ffffffffffffffffffffffffffffffffffffffff1663dbd0e1b66040518163ffffffff1660e01b8152600401602060405180830381865afa158015610aa7573d6000803e3d6000fd5b505050506040513d601f19601f82011682018060405250810190610acb9190610f81565b9050919050565b6040518060200160405280600081525090565b6040518060a00160405280600590602082028036833780820191505090505090565b6000604051905090565b600080fd5b6000819050919050565b610b2981610b16565b8114610b3457600080fd5b50565b600081359050610b4681610b20565b92915050565b600060208284031215610b6257610b61610b11565b5b6000610b7084828501610b37565b91505092915050565b600063ffffffff82169050919050565b610b9281610b79565b82525050565b6000602082019050610bad6000830184610b89565b92915050565b610bbc81610b16565b82525050565b6000602082019050610bd76000830184610bb3565b92915050565b600073ffffffffffffffffffffffffffffffffffffffff82169050919050565b6000610c0882610bdd565b9050919050565b610c1881610bfd565b82525050565b6000602082019050610c336000830184610c0f565b92915050565b610c4281610b16565b82525050565b602082016000820151610c5e6000850182610c39565b50505050565b6000602082019050610c796000830184610c48565b92915050565b6000819050919050565b6000610ca4610c9f610c9a84610bdd565b610c7f565b610bdd565b9050919050565b6000610cb682610c89565b9050919050565b6000610cc882610cab565b9050919050565b610cd881610cbd565b82525050565b6000602082019050610cf36000830184610ccf565b92915050565b7f4e487b7100000000000000000000000000000000000000000000000000000000600052602160045260246000fd5b60058110610d3957610d38610cf9565b5b50565b6000819050610d4a82610d28565b919050565b6000610d5a82610d3c565b9050919050565b610d6a81610d4f565b82525050565b6000602082019050610d856000830184610d61565b92915050565b610d9481610bfd565b8114610d9f57600080fd5b50565b600081359050610db181610d8b565b92915050565b600060208284031215610dcd57610dcc610b11565b5b6000610ddb84828501610da2565b91505092915050565b60008115159050919050565b610df981610de4565b82525050565b6000602082019050610e146000830184610df0565b92915050565b600060059050919050565b600081905092915050565b6000819050919050565b6000610e468383610c39565b60208301905092915050565b6000602082019050919050565b610e6881610e1a565b610e728184610e25565b9250610e7d82610e30565b8060005b83811015610eae578151610e958782610e3a565b9650610ea083610e52565b925050600181019050610e81565b505050505050565b600060a082019050610ecb6000830184610e5f565b92915050565b610eda81610b79565b8114610ee557600080fd5b50565b600081519050610ef781610ed1565b92915050565b600060208284031215610f1357610f12610b11565b5b6000610f2184828501610ee8565b91505092915050565b600081519050610f3981610b20565b92915050565b600060208284031215610f5557610f54610b11565b5b6000610f6384828501610f2a565b91505092915050565b600081519050610f7b81610d8b565b92915050565b600060208284031215610f9757610f96610b11565b5b6000610fa584828501610f6c565b91505092915050565b60058110610fbb57600080fd5b50565b600081519050610fcd81610fae565b92915050565b600060208284031215610fe957610fe8610b11565b5b6000610ff784828501610fbe565b91505092915050565b600082825260208201905092915050565b7f496e76616c696420616464726573730000000000000000000000000000000000600082015250565b6000611047600f83611000565b915061105282611011565b602082019050919050565b600060208201905081810360008301526110768161103a565b9050919050565b600080fd5b6000601f19601f8301169050919050565b7f4e487b7100000000000000000000000000000000000000000000000000000000600052604160045260246000fd5b6110cb82611082565b810181811067ffffffffffffffff821117156110ea576110e9611093565b5b80604052505050565b60006110fd610b07565b905061110982826110c2565b919050565b600067ffffffffffffffff82111561112957611128611093565b5b602082029050919050565b600080fd5b600061114c6111478461110e565b6110f3565b9050806020840283018581111561116657611165611134565b5b835b8181101561118f578061117b8882610f2a565b845260208401935050602081019050611168565b5050509392505050565b600082601f8301126111ae576111ad61107d565b5b60056111bb848285611139565b91505092915050565b600060a082840312156111da576111d9610b11565b5b60006111e884828501611199565b9150509291505056fea26469706673582212209bdc53196b96382bbfa9d25f493eaf476684bb310a07dc91f37d7d50bfb7eeae64736f6c63430008100033",
  "immutableReferences": {},
  "source": "// SPDX-License-Identifier: MIT\npragma solidity ^0.8.7;\n\nimport '../Swaps/Swap.sol';\nimport '@openzeppelin/contracts/utils/Counters.sol';\n\ncontract SwapHandler {\n  using Counters for Counters.Counter;\n  Counters.Counter internal _swapId;\n\n  mapping(uint256 => Swap) private _swaps;\n\n  mapping(uint256 => uint256) private _nextPayDate;\n\n  address public priceOracle;\n  \n  constructor () {}\n\n  //  oracle      Swap getPrice.sol \n  function setOracle(address _priceOracleAddress) public returns (bool) {\n    require(_priceOracleAddress != address(0x0), 'Invalid address');\n    priceOracle = _priceOracleAddress;\n    return true;\n  }\n\n  function _create(\n    bool _isBuyer,\n    uint256 _initAssetPrice,\n    uint256 _claimPrice,\n    uint256 _liquidationPrice,\n    uint256 _sellerDeposit,\n    uint256 _premium,\n    uint256 _premiumInterval,\n    uint32 _totalRounds\n  ) internal returns (uint256) {\n    _swapId.increment();\n    uint256 newSwapId = _swapId.current();\n\n    Swap newSwap = new Swap(\n      _initAssetPrice,\n      _claimPrice,\n      _liquidationPrice,\n      _premium,\n      _sellerDeposit,\n      _premiumInterval,\n      _totalRounds,\n      priceOracle\n    );\n    _swaps[newSwapId] = newSwap;\n\n    _isBuyer ? newSwap.setBuyer(msg.sender) : newSwap.setSeller(msg.sender);\n\n    return newSwapId;\n  }\n\n  function _accept(\n    bool _isBuyerHost,\n    uint256 _initAssetPrice,\n    uint256 _acceptedSwapId\n  ) internal isPending(_acceptedSwapId) returns (uint256) {\n    Swap targetSwap = _swaps[_acceptedSwapId];\n    targetSwap.setInitAssetPrice(_initAssetPrice);\n\n    _isBuyerHost\n      ? targetSwap.setSeller(msg.sender)\n      : targetSwap.setBuyer(msg.sender);\n\n    // check =>      .\n    _nextPayDate[_acceptedSwapId] += getInterval(_acceptedSwapId);\n\n    targetSwap.setStatus(Swap.Status.active);\n\n    return _acceptedSwapId;\n  }\n\n  function _cancel(\n    uint256 _targetSwapId\n  ) internal isParticipants(_targetSwapId) isPending(_targetSwapId) {\n    getSwap(_targetSwapId).setStatus(Swap.Status.inactive);\n  }\n\n  function _close(\n    uint256 _targetSwapId\n  ) internal isBuyer(_targetSwapId) isActive(_targetSwapId) {\n    getSwap(_targetSwapId).setStatus(Swap.Status.expired);\n  }\n\n  function _payPremium(\n    uint256 _targetSwapId\n  ) internal isBuyer(_targetSwapId) isActive(_targetSwapId) {\n    // rqr   for 1day term\n    uint256 currTime = block.timestamp;\n    require(\n      (_nextPayDate[_targetSwapId] - 1 days <= currTime) &&\n        (currTime <= _nextPayDate[_targetSwapId]),\n      'Invalid pay date'\n    );\n    _nextPayDate[_targetSwapId] += getInterval(_targetSwapId);\n    getSwap(_targetSwapId).setRounds(getRounds(_targetSwapId) - 1);\n  }\n\n  function _claim(\n    uint256 _targetSwapId\n  ) internal isBuyer(_targetSwapId) isActive(_targetSwapId) {\n    getSwap(_targetSwapId).setStatus(Swap.Status.claimed);\n  }\n\n  // getter transactions\n  function getSwapId() public view returns (Counters.Counter memory) {\n    return _swapId;\n  }\n\n  function getSwap(uint256 swapId) public view returns (Swap) {\n    return _swaps[swapId];\n  }\n\n  function getPrices(uint256 swapId) public view returns (uint256[5] memory) {\n    return _swaps[swapId].getPrices();\n  }\n\n  function getPremium(uint256 swapId) public view returns (uint256) {\n    return _swaps[swapId].premium();\n  }\n\n  function getSellerDeposit(uint256 swapId) public view returns (uint256) {\n    return _swaps[swapId].sellerDeposit();\n  }\n\n  function getStatus(uint256 swapId) public view returns (Swap.Status) {\n    return _swaps[swapId].status();\n  }\n\n  function getRounds(uint256 swapId) public view returns (uint32) {\n    return _swaps[swapId].rounds();\n  }\n\n  function getInterval(uint256 swapId) public view returns (uint256) {\n    return _swaps[swapId].interval();\n  }\n\n  function getBuyer(uint256 swapId) public view returns (address) {\n    return _swaps[swapId].getBuyer();\n  }\n\n  function getSeller(uint256 swapId) public view returns (address) {\n    return _swaps[swapId].getSeller();\n  }\n\n  function getNextPayDate(uint256 swapId) public view returns (uint256) {\n    return _nextPayDate[swapId];\n  }\n\n  function getTotalRounds(uint256 swapId) public view returns (uint32) {\n    return _swaps[swapId].totalRounds();\n  }\n\n  // modifiers\n  modifier isBuyer(uint256 swapId) {\n    require(msg.sender == getBuyer(swapId), 'Only buyer of the CDS can call');\n    _;\n  }\n\n  modifier isSeller(uint256 swapId) {\n    require(msg.sender == getSeller(swapId), 'Only seller of the CDS can call');\n    _;\n  }\n\n  modifier isParticipants(uint256 swapId) {\n    require(\n      msg.sender == getBuyer(swapId) || msg.sender == getSeller(swapId),\n      'Only buyer/seller of the CDS can call'\n    );\n    _;\n  }\n\n  modifier isPending(uint256 swapId) {\n    require(\n      getStatus(swapId) == Swap.Status.pending,\n      'The status of the CDS should be pending'\n    );\n    _;\n  }\n\n  modifier isActive(uint256 swapId) {\n    require(\n      getStatus(swapId) == Swap.Status.active,\n      'The status of the CDS should be active'\n    );\n    _;\n  }\n}\n",
  "sourcePath": "/Users/sdh/Study/BEB_07/projects/CDS/contract/contracts/Handler/SwapHandler.sol",
  "compiler": {
    "name": "solc",
    "version": "0.8.16+commit.07a7930e.Emscripten.clang"
  },
  "schemaVersion": "3.4.9",
  "updatedAt": "2023-02-08T05:58:46.207Z",
  "devdoc": {
    "kind": "dev",
    "methods": {},
    "version": 1
  },
  "userdoc": {
    "kind": "user",
    "methods": {},
    "version": 1
  }
}