{
  "contractName": "Swaps",
  "abi": [
    {
      "inputs": [],
      "stateMutability": "nonpayable",
      "type": "constructor"
    },
    {
      "inputs": [],
      "name": "getPriceFromOracle",
      "outputs": [
        {
          "internalType": "uint256",
          "name": "",
          "type": "uint256"
        }
      ],
      "stateMutability": "view",
      "type": "function"
    },
    {
      "inputs": [
        {
          "internalType": "address",
          "name": "_priceOracleAddress",
          "type": "address"
        }
      ],
      "name": "setOracle",
      "outputs": [
        {
          "internalType": "bool",
          "name": "",
          "type": "bool"
        }
      ],
      "stateMutability": "nonpayable",
      "type": "function"
    }
  ],
  "bytecode": "0x608060405234801561001057600080fd5b5060026003819055506103e3806100286000396000f3fe608060405234801561001057600080fd5b50600436106100365760003560e01c806338f5a4911461003b5780637adbf97314610059575b600080fd5b610043610089565b60405161005091906101f6565b60405180910390f35b610073600480360381019061006e9190610274565b610124565b60405161008091906102bc565b60405180910390f35b60008060008054906101000a900473ffffffffffffffffffffffffffffffffffffffff1673ffffffffffffffffffffffffffffffffffffffff166398d5fdca6040518163ffffffff1660e01b8152600401602060405180830381865afa1580156100f7573d6000803e3d6000fd5b505050506040513d601f19601f8201168201806040525081019061011b9190610303565b90508091505090565b60008073ffffffffffffffffffffffffffffffffffffffff168273ffffffffffffffffffffffffffffffffffffffff1603610194576040517f08c379a000000000000000000000000000000000000000000000000000000000815260040161018b9061038d565b60405180910390fd5b816000806101000a81548173ffffffffffffffffffffffffffffffffffffffff021916908373ffffffffffffffffffffffffffffffffffffffff16021790555060019050919050565b6000819050919050565b6101f0816101dd565b82525050565b600060208201905061020b60008301846101e7565b92915050565b600080fd5b600073ffffffffffffffffffffffffffffffffffffffff82169050919050565b600061024182610216565b9050919050565b61025181610236565b811461025c57600080fd5b50565b60008135905061026e81610248565b92915050565b60006020828403121561028a57610289610211565b5b60006102988482850161025f565b91505092915050565b60008115159050919050565b6102b6816102a1565b82525050565b60006020820190506102d160008301846102ad565b92915050565b6102e0816101dd565b81146102eb57600080fd5b50565b6000815190506102fd816102d7565b92915050565b60006020828403121561031957610318610211565b5b6000610327848285016102ee565b91505092915050565b600082825260208201905092915050565b7f496e76616c696420616464726573730000000000000000000000000000000000600082015250565b6000610377600f83610330565b915061038282610341565b602082019050919050565b600060208201905081810360008301526103a68161036a565b905091905056fea264697066735822122019bd0fe7caf83d4cecc04866868cb95bc6ef2a2e0751edfb19493289253273fe64736f6c63430008100033",
  "immutableReferences": {},
  "source": "// SPDX-License-Identifier: MIT\npragma solidity ^0.8.7;\n\nimport '../Oracle/PriceConsumer.sol';\nimport '@openzeppelin/contracts/utils/Counters.sol';\nimport '@openzeppelin/contracts/utils/math/SafeMath.sol';\n\ncontract Swaps is PriceConsumer {\n  using Counters for Counters.Counter;\n  using SafeMath for uint256;\n  Counters.Counter internal _swapId;\n\n  enum Status {\n    inactive,\n    pending,\n    active,\n    claimed\n  }\n\n  mapping(uint256 => Swap) internal _swaps;\n\n  struct Buyer {\n    address addr;\n    uint256 deposit;\n    uint256 lastPayDate;\n    uint256 nextPayDate;\n  }\n\n  struct Seller {\n    address addr;\n    uint256 deposit;\n    bool isDeposited;\n  }\n\n  struct Swap {\n    Buyer buyer;\n    Seller seller;\n    uint256 initAssetPrice;\n    uint256 amountOfAssets;\n    uint256 claimPrice;\n    uint256 liquidationPrice;\n    uint256 premium;\n    uint256 premiumRate;\n    uint256 premiumInterval;\n    uint256 totalPremiumRounds;\n    Status status;\n  }\n\n  modifier isBuyer(uint256 swapId) {\n    require(\n      msg.sender == _swaps[swapId].buyer.addr,\n      'Only buyer of the CDS can call'\n    );\n    _;\n  }\n\n  modifier isPending(uint256 swapId) {\n    require(\n      _swaps[swapId].status == Status.pending,\n      'The status of the CDS should be pending'\n    );\n    _;\n  }\n\n  modifier isActive(uint256 swapId) {\n    require(\n      _swaps[swapId].status == Status.active,\n      'The status of the CDS should be pending'\n    );\n    _;\n  }\n\n  uint256 private _premiumRate;\n\n  constructor() {\n    _premiumRate = 2;\n  }\n\n  function _createSwap(\n    address _addr,\n    uint256 _initAssetPrice,\n    uint256 _amountOfAssets,\n    uint256 _claimPrice,\n    uint256 _liquidationPrice,\n    uint256 _sellerDeposit,\n    uint256 _premium,\n    uint256 _premiumInterval,\n    uint256 _totalPremiumRounds\n  ) internal returns (uint256) {\n    _swapId.increment();\n    uint256 newSwapId = _swapId.current();\n    Swap storage newSwap = _swaps[newSwapId];\n\n    newSwap.buyer.addr = _addr;\n    newSwap.buyer.deposit = _premium.mul(3);\n\n    newSwap.initAssetPrice = _initAssetPrice;\n    newSwap.amountOfAssets = _amountOfAssets;\n    newSwap.claimPrice = _claimPrice;\n    newSwap.liquidationPrice = _liquidationPrice;\n    newSwap.premium = _premium;\n    newSwap.premiumRate = _premiumRate;\n    newSwap.premiumInterval = _premiumInterval;\n    newSwap.totalPremiumRounds = _totalPremiumRounds;\n    newSwap.status = Status.pending;\n\n    newSwap.seller.deposit = _sellerDeposit;\n\n    return newSwapId;\n  }\n\n  function _acceptSwap(\n    address _addr,\n    uint256 _initAssetPrice,\n    uint256 _acceptedSwapId\n  ) internal returns (uint256) {\n    Swap storage aSwap = _swaps[_acceptedSwapId];\n\n    aSwap.seller.addr = _addr;\n    aSwap.initAssetPrice = _initAssetPrice;\n\n    aSwap.seller.isDeposited = true;\n\n    aSwap.buyer.lastPayDate = block.timestamp;\n    aSwap.buyer.nextPayDate = block.timestamp + aSwap.premiumInterval;\n\n    aSwap.status = Status.active;\n\n    return _acceptedSwapId;\n  }\n\n  function _cancelSwap(uint256 _targetSwapId) internal {\n    Swap storage targetSwap = _swaps[_targetSwapId];\n    targetSwap.buyer.deposit = 0;\n    targetSwap.seller.deposit = 0;\n    targetSwap.status = Status.inactive;\n  }\n\n  function _claimSwap(uint256 _targetSwapId) internal {\n    Swap storage targetSwap = _swaps[_targetSwapId];\n    // buyer\n    targetSwap.buyer.deposit = 0;\n    targetSwap.buyer.nextPayDate = 0;\n\n    // seller\n    targetSwap.seller.deposit = 0;\n    targetSwap.seller.isDeposited = false;\n\n    targetSwap.status = Status.claimed;\n  }\n\n  function _payPremium(uint256 _targetSwapId) internal {\n    Swap storage targetSwap = _swaps[_targetSwapId];\n    // date \n    targetSwap.buyer.lastPayDate = block.timestamp;\n    targetSwap.buyer.nextPayDate = block.timestamp + targetSwap.premiumInterval;\n\n    //    0.  +@.   0?   ...\n    if (targetSwap.totalPremiumRounds != 0) {\n      targetSwap.totalPremiumRounds -= 1;\n    }\n  }\n\n  // function _checkDate(uint256 _targetSwapId) internal returns (bool) {\n  //   return true;\n  // }\n}\n",
  "sourcePath": "/Users/sdh/Study/BEB_07/projects/CDS/contract/contracts/Swaps/Swaps.sol",
  "compiler": {
    "name": "solc",
    "version": "0.8.16+commit.07a7930e.Emscripten.clang"
  },
  "schemaVersion": "3.4.9",
  "updatedAt": "2023-01-28T12:45:54.954Z",
  "devdoc": {
    "kind": "dev",
    "methods": {},
    "version": 1
  },
  "userdoc": {
    "kind": "user",
    "methods": {},
    "version": 1
  }
}