{
  "contractName": "SwapHandler",
  "abi": [
    {
      "inputs": [],
      "stateMutability": "nonpayable",
      "type": "constructor"
    },
    {
      "inputs": [],
      "name": "getPriceFromOracle",
      "outputs": [
        {
          "internalType": "uint256",
          "name": "",
          "type": "uint256"
        }
      ],
      "stateMutability": "view",
      "type": "function"
    },
    {
      "inputs": [
        {
          "internalType": "address",
          "name": "_priceOracleAddress",
          "type": "address"
        }
      ],
      "name": "setOracle",
      "outputs": [
        {
          "internalType": "bool",
          "name": "",
          "type": "bool"
        }
      ],
      "stateMutability": "nonpayable",
      "type": "function"
    },
    {
      "inputs": [],
      "name": "getSwapId",
      "outputs": [
        {
          "components": [
            {
              "internalType": "uint256",
              "name": "_value",
              "type": "uint256"
            }
          ],
          "internalType": "struct Counters.Counter",
          "name": "",
          "type": "tuple"
        }
      ],
      "stateMutability": "view",
      "type": "function"
    },
    {
      "inputs": [
        {
          "internalType": "uint256",
          "name": "swapId",
          "type": "uint256"
        }
      ],
      "name": "getSwap",
      "outputs": [
        {
          "internalType": "contract Swap",
          "name": "",
          "type": "address"
        }
      ],
      "stateMutability": "view",
      "type": "function"
    },
    {
      "inputs": [
        {
          "internalType": "uint256",
          "name": "swapId",
          "type": "uint256"
        }
      ],
      "name": "getPrices",
      "outputs": [
        {
          "internalType": "uint256[5]",
          "name": "",
          "type": "uint256[5]"
        }
      ],
      "stateMutability": "view",
      "type": "function"
    },
    {
      "inputs": [
        {
          "internalType": "uint256",
          "name": "swapId",
          "type": "uint256"
        }
      ],
      "name": "getClaimReward",
      "outputs": [
        {
          "internalType": "uint256",
          "name": "",
          "type": "uint256"
        }
      ],
      "stateMutability": "view",
      "type": "function"
    },
    {
      "inputs": [
        {
          "internalType": "uint256",
          "name": "swapId",
          "type": "uint256"
        }
      ],
      "name": "getPremium",
      "outputs": [
        {
          "internalType": "uint256",
          "name": "",
          "type": "uint256"
        }
      ],
      "stateMutability": "view",
      "type": "function"
    },
    {
      "inputs": [
        {
          "internalType": "uint256",
          "name": "swapId",
          "type": "uint256"
        }
      ],
      "name": "getSellerDeposit",
      "outputs": [
        {
          "internalType": "uint256",
          "name": "",
          "type": "uint256"
        }
      ],
      "stateMutability": "view",
      "type": "function"
    },
    {
      "inputs": [
        {
          "internalType": "uint256",
          "name": "swapId",
          "type": "uint256"
        }
      ],
      "name": "getStatus",
      "outputs": [
        {
          "internalType": "enum Swap.Status",
          "name": "",
          "type": "uint8"
        }
      ],
      "stateMutability": "view",
      "type": "function"
    },
    {
      "inputs": [
        {
          "internalType": "uint256",
          "name": "swapId",
          "type": "uint256"
        }
      ],
      "name": "getRounds",
      "outputs": [
        {
          "internalType": "uint32",
          "name": "",
          "type": "uint32"
        }
      ],
      "stateMutability": "view",
      "type": "function"
    },
    {
      "inputs": [
        {
          "internalType": "uint256",
          "name": "swapId",
          "type": "uint256"
        }
      ],
      "name": "getInterval",
      "outputs": [
        {
          "internalType": "uint256",
          "name": "",
          "type": "uint256"
        }
      ],
      "stateMutability": "view",
      "type": "function"
    },
    {
      "inputs": [
        {
          "internalType": "uint256",
          "name": "swapId",
          "type": "uint256"
        }
      ],
      "name": "getBuyer",
      "outputs": [
        {
          "internalType": "address",
          "name": "",
          "type": "address"
        }
      ],
      "stateMutability": "view",
      "type": "function"
    },
    {
      "inputs": [
        {
          "internalType": "uint256",
          "name": "swapId",
          "type": "uint256"
        }
      ],
      "name": "getSeller",
      "outputs": [
        {
          "internalType": "address",
          "name": "",
          "type": "address"
        }
      ],
      "stateMutability": "view",
      "type": "function"
    },
    {
      "inputs": [
        {
          "internalType": "uint256",
          "name": "swapId",
          "type": "uint256"
        }
      ],
      "name": "getDeposits",
      "outputs": [
        {
          "components": [
            {
              "internalType": "uint256",
              "name": "deposit",
              "type": "uint256"
            },
            {
              "internalType": "bool",
              "name": "isPaid",
              "type": "bool"
            }
          ],
          "internalType": "struct SwapHandler.Deposit[2]",
          "name": "",
          "type": "tuple[2]"
        }
      ],
      "stateMutability": "view",
      "type": "function"
    }
  ],
  "bytecode": "0x608060405234801561001057600080fd5b50611713806100206000396000f3fe608060405234801561001057600080fd5b50600436106100ea5760003560e01c80635c622a0e1161008c578063881063231161006657806388106323146102ab57806391492956146102db578063be06fba01461030b578063d6a9de511461033b576100ea565b80635c622a0e1461021b578063616e9f8f1461024b5780637adbf9731461027b576100ea565b806338f5a491116100c857806338f5a4911461017f578063496ab39a1461019d5780634a0d89ba146101bb5780635bf608b8146101eb576100ea565b8063085c967f146100ef57806313ef3dcc1461011f5780631bf1fffb1461014f575b600080fd5b61010960048036038101906101049190610e26565b61036b565b6040516101169190610f48565b60405180910390f35b61013960048036038101906101349190610e26565b6103f5565b6040516101469190610f82565b60405180910390f35b61016960048036038101906101649190610e26565b6104a0565b6040516101769190610fac565b60405180910390f35b61018761054b565b6040516101949190610fac565b60405180910390f35b6101a56105e6565b6040516101b29190610fe3565b60405180910390f35b6101d560048036038101906101d09190610e26565b61060a565b6040516101e2919061107d565b60405180910390f35b61020560048036038101906102009190610e26565b610647565b60405161021291906110b9565b60405180910390f35b61023560048036038101906102309190610e26565b6106f2565b604051610242919061114b565b60405180910390f35b61026560048036038101906102609190610e26565b61079d565b6040516102729190610fac565b60405180910390f35b61029560048036038101906102909190611192565b610848565b6040516102a291906111ce565b60405180910390f35b6102c560048036038101906102c09190610e26565b610901565b6040516102d29190610fac565b60405180910390f35b6102f560048036038101906102f09190610e26565b6109ac565b6040516103029190611285565b60405180910390f35b61032560048036038101906103209190610e26565b610a5d565b6040516103329190610fac565b60405180910390f35b61035560048036038101906103509190610e26565b610c06565b60405161036291906110b9565b60405180910390f35b610373610d63565b60056000838152602001908152602001600020600280602002604051908101604052809291906000905b828210156103ea57838260020201604051806040016040529081600082015481526020016001820160009054906101000a900460ff1615151515815250508152602001906001019061039d565b505050509050919050565b60006003600083815260200190815260200160002060009054906101000a900473ffffffffffffffffffffffffffffffffffffffff1673ffffffffffffffffffffffffffffffffffffffff1663a2e800ad6040518163ffffffff1660e01b8152600401602060405180830381865afa158015610475573d6000803e3d6000fd5b505050506040513d601f19601f8201168201806040525081019061049991906112cc565b9050919050565b60006003600083815260200190815260200160002060009054906101000a900473ffffffffffffffffffffffffffffffffffffffff1673ffffffffffffffffffffffffffffffffffffffff1663e0a73a936040518163ffffffff1660e01b8152600401602060405180830381865afa158015610520573d6000803e3d6000fd5b505050506040513d601f19601f82011682018060405250810190610544919061130e565b9050919050565b60008060008054906101000a900473ffffffffffffffffffffffffffffffffffffffff1673ffffffffffffffffffffffffffffffffffffffff166398d5fdca6040518163ffffffff1660e01b8152600401602060405180830381865afa1580156105b9573d6000803e3d6000fd5b505050506040513d601f19601f820116820180604052508101906105dd919061130e565b90508091505090565b6105ee610d90565b6001604051806020016040529081600082015481525050905090565b60006003600083815260200190815260200160002060009054906101000a900473ffffffffffffffffffffffffffffffffffffffff169050919050565b60006003600083815260200190815260200160002060009054906101000a900473ffffffffffffffffffffffffffffffffffffffff1673ffffffffffffffffffffffffffffffffffffffff1663603daf9a6040518163ffffffff1660e01b8152600401602060405180830381865afa1580156106c7573d6000803e3d6000fd5b505050506040513d601f19601f820116820180604052508101906106eb9190611350565b9050919050565b60006003600083815260200190815260200160002060009054906101000a900473ffffffffffffffffffffffffffffffffffffffff1673ffffffffffffffffffffffffffffffffffffffff1663200d2ed26040518163ffffffff1660e01b8152600401602060405180830381865afa158015610772573d6000803e3d6000fd5b505050506040513d601f19601f8201168201806040525081019061079691906113a2565b9050919050565b60006003600083815260200190815260200160002060009054906101000a900473ffffffffffffffffffffffffffffffffffffffff1673ffffffffffffffffffffffffffffffffffffffff1663947a36fb6040518163ffffffff1660e01b8152600401602060405180830381865afa15801561081d573d6000803e3d6000fd5b505050506040513d601f19601f82011682018060405250810190610841919061130e565b9050919050565b60008073ffffffffffffffffffffffffffffffffffffffff168273ffffffffffffffffffffffffffffffffffffffff16036108b8576040517f08c379a00000000000000000000000000000000000000000000000000000000081526004016108af9061142c565b60405180910390fd5b816000806101000a81548173ffffffffffffffffffffffffffffffffffffffff021916908373ffffffffffffffffffffffffffffffffffffffff16021790555060019050919050565b60006003600083815260200190815260200160002060009054906101000a900473ffffffffffffffffffffffffffffffffffffffff1673ffffffffffffffffffffffffffffffffffffffff16634c1786ea6040518163ffffffff1660e01b8152600401602060405180830381865afa158015610981573d6000803e3d6000fd5b505050506040513d601f19601f820116820180604052508101906109a5919061130e565b9050919050565b6109b4610da3565b6003600083815260200190815260200160002060009054906101000a900473ffffffffffffffffffffffffffffffffffffffff1673ffffffffffffffffffffffffffffffffffffffff1663bd9a548b6040518163ffffffff1660e01b815260040160a060405180830381865afa158015610a32573d6000803e3d6000fd5b505050506040513d601f19601f82011682018060405250810190610a569190611593565b9050919050565b600080610a6861054b565b905080610a748461060a565b73ffffffffffffffffffffffffffffffffffffffff166315d655c96040518163ffffffff1660e01b8152600401602060405180830381865afa158015610abe573d6000803e3d6000fd5b505050506040513d601f19601f82011682018060405250810190610ae2919061130e565b1015610af2576000915050610c01565b610bfd610afe8461060a565b73ffffffffffffffffffffffffffffffffffffffff1663b6fc2d5f6040518163ffffffff1660e01b8152600401602060405180830381865afa158015610b48573d6000803e3d6000fd5b505050506040513d601f19601f82011682018060405250810190610b6c919061130e565b610b758561060a565b73ffffffffffffffffffffffffffffffffffffffff166386be75b76040518163ffffffff1660e01b8152600401602060405180830381865afa158015610bbf573d6000803e3d6000fd5b505050506040513d601f19601f82011682018060405250810190610be3919061130e565b83610bed87610901565b610cb1909392919063ffffffff16565b9150505b919050565b60006003600083815260200190815260200160002060009054906101000a900473ffffffffffffffffffffffffffffffffffffffff1673ffffffffffffffffffffffffffffffffffffffff1663dbd0e1b66040518163ffffffff1660e01b8152600401602060405180830381865afa158015610c86573d6000803e3d6000fd5b505050506040513d601f19601f82011682018060405250810190610caa9190611350565b9050919050565b600080828510610cc357859050610d15565b6000610cea610cdb8787610d2190919063ffffffff16565b88610d3790919063ffffffff16565b9050610d11610d028587610d2190919063ffffffff16565b82610d4d90919063ffffffff16565b9150505b80915050949350505050565b60008183610d2f91906115ef565b905092915050565b60008183610d459190611652565b905092915050565b60008183610d5b9190611683565b905092915050565b60405180604001604052806002905b610d7a610dc5565b815260200190600190039081610d725790505090565b6040518060200160405280600081525090565b6040518060a00160405280600590602082028036833780820191505090505090565b6040518060400160405280600081526020016000151581525090565b6000604051905090565b600080fd5b6000819050919050565b610e0381610df0565b8114610e0e57600080fd5b50565b600081359050610e2081610dfa565b92915050565b600060208284031215610e3c57610e3b610deb565b5b6000610e4a84828501610e11565b91505092915050565b600060029050919050565b600081905092915050565b6000819050919050565b610e7c81610df0565b82525050565b60008115159050919050565b610e9781610e82565b82525050565b604082016000820151610eb36000850182610e73565b506020820151610ec66020850182610e8e565b50505050565b6000610ed88383610e9d565b60408301905092915050565b6000602082019050919050565b610efa81610e53565b610f048184610e5e565b9250610f0f82610e69565b8060005b83811015610f40578151610f278782610ecc565b9650610f3283610ee4565b925050600181019050610f13565b505050505050565b6000608082019050610f5d6000830184610ef1565b92915050565b600063ffffffff82169050919050565b610f7c81610f63565b82525050565b6000602082019050610f976000830184610f73565b92915050565b610fa681610df0565b82525050565b6000602082019050610fc16000830184610f9d565b92915050565b602082016000820151610fdd6000850182610e73565b50505050565b6000602082019050610ff86000830184610fc7565b92915050565b600073ffffffffffffffffffffffffffffffffffffffff82169050919050565b6000819050919050565b600061104361103e61103984610ffe565b61101e565b610ffe565b9050919050565b600061105582611028565b9050919050565b60006110678261104a565b9050919050565b6110778161105c565b82525050565b6000602082019050611092600083018461106e565b92915050565b60006110a382610ffe565b9050919050565b6110b381611098565b82525050565b60006020820190506110ce60008301846110aa565b92915050565b7f4e487b7100000000000000000000000000000000000000000000000000000000600052602160045260246000fd5b60058110611114576111136110d4565b5b50565b600081905061112582611103565b919050565b600061113582611117565b9050919050565b6111458161112a565b82525050565b6000602082019050611160600083018461113c565b92915050565b61116f81611098565b811461117a57600080fd5b50565b60008135905061118c81611166565b92915050565b6000602082840312156111a8576111a7610deb565b5b60006111b68482850161117d565b91505092915050565b6111c881610e82565b82525050565b60006020820190506111e360008301846111bf565b92915050565b600060059050919050565b600081905092915050565b6000819050919050565b60006112158383610e73565b60208301905092915050565b6000602082019050919050565b611237816111e9565b61124181846111f4565b925061124c826111ff565b8060005b8381101561127d5781516112648782611209565b965061126f83611221565b925050600181019050611250565b505050505050565b600060a08201905061129a600083018461122e565b92915050565b6112a981610f63565b81146112b457600080fd5b50565b6000815190506112c6816112a0565b92915050565b6000602082840312156112e2576112e1610deb565b5b60006112f0848285016112b7565b91505092915050565b60008151905061130881610dfa565b92915050565b60006020828403121561132457611323610deb565b5b6000611332848285016112f9565b91505092915050565b60008151905061134a81611166565b92915050565b60006020828403121561136657611365610deb565b5b60006113748482850161133b565b91505092915050565b6005811061138a57600080fd5b50565b60008151905061139c8161137d565b92915050565b6000602082840312156113b8576113b7610deb565b5b60006113c68482850161138d565b91505092915050565b600082825260208201905092915050565b7f496e76616c696420616464726573730000000000000000000000000000000000600082015250565b6000611416600f836113cf565b9150611421826113e0565b602082019050919050565b6000602082019050818103600083015261144581611409565b9050919050565b600080fd5b6000601f19601f8301169050919050565b7f4e487b7100000000000000000000000000000000000000000000000000000000600052604160045260246000fd5b61149a82611451565b810181811067ffffffffffffffff821117156114b9576114b8611462565b5b80604052505050565b60006114cc610de1565b90506114d88282611491565b919050565b600067ffffffffffffffff8211156114f8576114f7611462565b5b602082029050919050565b600080fd5b600061151b611516846114dd565b6114c2565b9050806020840283018581111561153557611534611503565b5b835b8181101561155e578061154a88826112f9565b845260208401935050602081019050611537565b5050509392505050565b600082601f83011261157d5761157c61144c565b5b600561158a848285611508565b91505092915050565b600060a082840312156115a9576115a8610deb565b5b60006115b784828501611568565b91505092915050565b7f4e487b7100000000000000000000000000000000000000000000000000000000600052601160045260246000fd5b60006115fa82610df0565b915061160583610df0565b925082820390508181111561161d5761161c6115c0565b5b92915050565b7f4e487b7100000000000000000000000000000000000000000000000000000000600052601260045260246000fd5b600061165d82610df0565b915061166883610df0565b92508261167857611677611623565b5b828204905092915050565b600061168e82610df0565b915061169983610df0565b9250817fffffffffffffffffffffffffffffffffffffffffffffffffffffffffffffffff04831182151516156116d2576116d16115c0565b5b82820290509291505056fea2646970667358221220b75f1040ead7f05e5e100630764d1126f1c7e06b9c42dba5f8c85ad776f66f2d64736f6c63430008100033",
  "immutableReferences": {},
  "source": "// SPDX-License-Identifier: MIT\npragma solidity ^0.8.7;\n\nimport '../Swaps/Swap.sol';\nimport '../Oracle/PriceConsumer.sol';\nimport '../libs/LibClaim.sol';\nimport '@openzeppelin/contracts/utils/math/SafeMath.sol';\nimport '@openzeppelin/contracts/utils/Counters.sol';\n\ncontract SwapHandler is PriceConsumer {\n  using Counters for Counters.Counter;\n  using SafeMath for uint256;\n  using LibClaim for uint256;\n  Counters.Counter internal _swapId;\n\n  Swap private swap;\n\n  struct Deposit {\n    uint256 deposit;\n    bool isPaid;\n  }\n\n  mapping(uint256 => Swap) private _swaps;\n\n  mapping(uint256 => uint256) private _nextPayDate;\n\n  mapping(uint256 => Deposit[2]) private _deposits;\n\n  constructor() {}\n\n  function _createSwap(\n    bool _isBuyer,\n    uint256 _initAssetPrice,\n    uint256 _claimPrice,\n    uint256 _liquidationPrice,\n    uint256 _sellerDeposit,\n    uint256 _premium,\n    uint256 _premiumInterval,\n    uint32 _totalRounds\n  ) internal returns (uint256) {\n    _swapId.increment();\n    uint256 newSwapId = _swapId.current();\n\n    Swap newSwap = new Swap(\n      _initAssetPrice,\n      _claimPrice,\n      _liquidationPrice,\n      _premium,\n      _sellerDeposit,\n      _premiumInterval,\n      _totalRounds\n    );\n    _swaps[newSwapId] = newSwap;\n\n    // newSwap.setStatus(Swap.Status.pending);\n\n    _isBuyer ? setSwapForBuyer(newSwapId) : setSwapForSeller(newSwapId);\n\n    return newSwapId;\n  }\n\n  function _acceptSwap(\n    bool _isBuyerHost,\n    uint256 _initAssetPrice,\n    uint256 _acceptedSwapId\n  ) internal returns (uint256) {\n    Swap targetSwap = _swaps[_acceptedSwapId];\n    targetSwap.setInitAssetPrice(_initAssetPrice);\n\n    _isBuyerHost\n      ? setSwapForSeller(_acceptedSwapId)\n      : setSwapForBuyer(_acceptedSwapId);\n\n    // check =>      .\n    _nextPayDate[_acceptedSwapId] =\n      block.timestamp +\n      getInterval(_acceptedSwapId);\n\n    targetSwap.setStatus(Swap.Status.active);\n\n    return _acceptedSwapId;\n  }\n\n  function _cancelSwap(uint256 _targetSwapId) internal {\n    clearDeposit(_targetSwapId);\n    _swaps[_targetSwapId].setStatus(Swap.Status.inactive);\n  }\n\n  function _closeSwap(uint256 _targetSwapId) internal {\n    clearDeposit(_targetSwapId);\n    _swaps[_targetSwapId].setStatus(Swap.Status.expired);\n  }\n\n  function _payPremium(uint256 _targetSwapId) internal {\n    _nextPayDate[_targetSwapId] = block.timestamp + getInterval(_targetSwapId);\n    getSwap(_targetSwapId).setRounds(getRounds(_targetSwapId) - 1);\n  }\n\n  function _claimSwap(uint256 _targetSwapId) internal {\n    clearDeposit(_targetSwapId);\n    _swaps[_targetSwapId].setStatus(Swap.Status.claimed);\n  }\n\n  function getSwapId() public view returns (Counters.Counter memory) {\n    return _swapId;\n  }\n\n  function getSwap(uint256 swapId) public view returns (Swap) {\n    return _swaps[swapId];\n  }\n\n  function getPrices(uint256 swapId) public view returns (uint256[5] memory) {\n    return _swaps[swapId].getPrices();\n  }\n\n  function getClaimReward(uint256 swapId) public view returns (uint256) {\n    uint256 currPrice = getPriceFromOracle();\n    if (getSwap(swapId).claimPrice() < currPrice) {\n      return 0;\n    }\n    return\n      getSellerDeposit(swapId).calcClaimReward(\n        getSwap(swapId).liquidationPrice(),\n        getSwap(swapId).initAssetPrice(),\n        currPrice\n      );\n  }\n\n  function getPremium(uint256 swapId) public view returns (uint256) {\n    return _swaps[swapId].premium();\n  }\n\n  function getSellerDeposit(uint256 swapId) public view returns (uint256) {\n    return _swaps[swapId].sellerDeposit();\n  }\n\n  function getStatus(uint256 swapId) public view returns (Swap.Status) {\n    return _swaps[swapId].status();\n  }\n\n  function getRounds(uint256 swapId) public view returns (uint32) {\n    return _swaps[swapId].rounds();\n  }\n\n  function getInterval(uint256 swapId) public view returns (uint256) {\n    return _swaps[swapId].interval();\n  }\n\n  function getBuyer(uint256 swapId) public view returns (address) {\n    return _swaps[swapId].getBuyer();\n  }\n\n  function getSeller(uint256 swapId) public view returns (address) {\n    return _swaps[swapId].getSeller();\n  }\n\n  function getDeposits(uint256 swapId) public view returns (Deposit[2] memory) {\n    return _deposits[swapId];\n  }\n\n  function setSwapForBuyer(uint256 swapId) private {\n    _swaps[swapId].setBuyer(msg.sender);\n    _deposits[swapId][0].deposit = getPremium(swapId).mul(3);\n    _deposits[swapId][0].isPaid = true;\n  }\n\n  function setSwapForSeller(uint256 swapId) private {\n    _swaps[swapId].setSeller(msg.sender);\n    _deposits[swapId][1].deposit = getSellerDeposit(swapId);\n    _deposits[swapId][1].isPaid = true;\n  }\n\n  function clearDeposit(uint256 swapId) private {\n    for (uint i = 0; i <= 1; i++) {\n      _deposits[swapId][i].deposit = 0;\n      _deposits[swapId][i].isPaid = false;\n    }\n  }\n\n  // modifiers\n  modifier isBuyer(uint256 swapId) {\n    require(msg.sender == getBuyer(swapId), 'Only buyer of the CDS can call');\n    _;\n  }\n\n  modifier isParticipants(uint256 swapId) {\n    require(\n      msg.sender == getBuyer(swapId) || msg.sender == getSeller(swapId),\n      'Only buyer/seller of the CDS can call'\n    );\n    _;\n  }\n\n  modifier isPending(uint256 swapId) {\n    require(\n      getStatus(swapId) == Swap.Status.pending,\n      'The status of the CDS should be pending'\n    );\n    _;\n  }\n\n  modifier isActive(uint256 swapId) {\n    require(\n      getStatus(swapId) == Swap.Status.active,\n      'The status of the CDS should be active'\n    );\n    _;\n  }\n}\n",
  "sourcePath": "/Users/sdh/Study/BEB_07/projects/CDS/contract/contracts/Handler/SwapHandler.sol",
  "compiler": {
    "name": "solc",
    "version": "0.8.16+commit.07a7930e.Emscripten.clang"
  },
  "schemaVersion": "3.4.9",
  "updatedAt": "2023-02-04T07:41:25.410Z",
  "devdoc": {
    "kind": "dev",
    "methods": {},
    "version": 1
  },
  "userdoc": {
    "kind": "user",
    "methods": {},
    "version": 1
  }
}