{
  "contractName": "Swaps",
  "abi": [
    {
      "inputs": [],
      "stateMutability": "nonpayable",
      "type": "constructor"
    },
    {
      "inputs": [],
      "name": "getPriceFromOracle",
      "outputs": [
        {
          "internalType": "uint256",
          "name": "",
          "type": "uint256"
        }
      ],
      "stateMutability": "view",
      "type": "function"
    },
    {
      "inputs": [
        {
          "internalType": "address",
          "name": "_priceOracleAddress",
          "type": "address"
        }
      ],
      "name": "setOracle",
      "outputs": [
        {
          "internalType": "bool",
          "name": "",
          "type": "bool"
        }
      ],
      "stateMutability": "nonpayable",
      "type": "function"
    },
    {
      "inputs": [
        {
          "internalType": "uint256",
          "name": "swapId",
          "type": "uint256"
        }
      ],
      "name": "getClaimReward",
      "outputs": [
        {
          "internalType": "uint256",
          "name": "",
          "type": "uint256"
        }
      ],
      "stateMutability": "view",
      "type": "function"
    },
    {
      "inputs": [
        {
          "internalType": "uint256",
          "name": "swapId",
          "type": "uint256"
        }
      ],
      "name": "getSwap",
      "outputs": [
        {
          "components": [
            {
              "components": [
                {
                  "internalType": "address",
                  "name": "addr",
                  "type": "address"
                },
                {
                  "internalType": "uint256",
                  "name": "deposit",
                  "type": "uint256"
                },
                {
                  "internalType": "uint256",
                  "name": "lastPayDate",
                  "type": "uint256"
                },
                {
                  "internalType": "uint256",
                  "name": "nextPayDate",
                  "type": "uint256"
                }
              ],
              "internalType": "struct Swaps.Buyer",
              "name": "buyer",
              "type": "tuple"
            },
            {
              "components": [
                {
                  "internalType": "address",
                  "name": "addr",
                  "type": "address"
                },
                {
                  "internalType": "uint256",
                  "name": "deposit",
                  "type": "uint256"
                },
                {
                  "internalType": "bool",
                  "name": "isDeposited",
                  "type": "bool"
                }
              ],
              "internalType": "struct Swaps.Seller",
              "name": "seller",
              "type": "tuple"
            },
            {
              "internalType": "uint256",
              "name": "initAssetPrice",
              "type": "uint256"
            },
            {
              "internalType": "uint256",
              "name": "claimPrice",
              "type": "uint256"
            },
            {
              "internalType": "uint256",
              "name": "liquidationPrice",
              "type": "uint256"
            },
            {
              "internalType": "uint256",
              "name": "premium",
              "type": "uint256"
            },
            {
              "internalType": "uint32",
              "name": "premiumInterval",
              "type": "uint32"
            }
          ],
          "internalType": "struct Swaps.Swap",
          "name": "",
          "type": "tuple"
        }
      ],
      "stateMutability": "view",
      "type": "function"
    },
    {
      "inputs": [
        {
          "internalType": "uint256",
          "name": "swapId",
          "type": "uint256"
        }
      ],
      "name": "getBuyer",
      "outputs": [
        {
          "components": [
            {
              "internalType": "address",
              "name": "addr",
              "type": "address"
            },
            {
              "internalType": "uint256",
              "name": "deposit",
              "type": "uint256"
            },
            {
              "internalType": "uint256",
              "name": "lastPayDate",
              "type": "uint256"
            },
            {
              "internalType": "uint256",
              "name": "nextPayDate",
              "type": "uint256"
            }
          ],
          "internalType": "struct Swaps.Buyer",
          "name": "",
          "type": "tuple"
        }
      ],
      "stateMutability": "view",
      "type": "function"
    },
    {
      "inputs": [
        {
          "internalType": "uint256",
          "name": "swapId",
          "type": "uint256"
        }
      ],
      "name": "getSeller",
      "outputs": [
        {
          "components": [
            {
              "internalType": "address",
              "name": "addr",
              "type": "address"
            },
            {
              "internalType": "uint256",
              "name": "deposit",
              "type": "uint256"
            },
            {
              "internalType": "bool",
              "name": "isDeposited",
              "type": "bool"
            }
          ],
          "internalType": "struct Swaps.Seller",
          "name": "",
          "type": "tuple"
        }
      ],
      "stateMutability": "view",
      "type": "function"
    },
    {
      "inputs": [],
      "name": "getSwapId",
      "outputs": [
        {
          "components": [
            {
              "internalType": "uint256",
              "name": "_value",
              "type": "uint256"
            }
          ],
          "internalType": "struct Counters.Counter",
          "name": "",
          "type": "tuple"
        }
      ],
      "stateMutability": "view",
      "type": "function"
    },
    {
      "inputs": [
        {
          "internalType": "uint256",
          "name": "swapId",
          "type": "uint256"
        }
      ],
      "name": "getSwapStatus",
      "outputs": [
        {
          "internalType": "enum Swaps.swapStatus",
          "name": "",
          "type": "uint8"
        }
      ],
      "stateMutability": "view",
      "type": "function"
    }
  ],
  "bytecode": "0x608060405234801561001057600080fd5b50610ddb806100206000396000f3fe608060405234801561001057600080fd5b50600436106100885760003560e01c80637adbf9731161005b5780637adbf97314610129578063be06fba014610159578063d6a9de5114610189578063ee596608146101b957610088565b806338f5a4911461008d578063496ab39a146100ab5780634a0d89ba146100c95780635bf608b8146100f9575b600080fd5b6100956101e9565b6040516100a29190610767565b60405180910390f35b6100b3610284565b6040516100c091906107ad565b60405180910390f35b6100e360048036038101906100de91906107f9565b6102a8565b6040516100f091906109cb565b60405180910390f35b610113600480360381019061010e91906107f9565b61043a565b6040516101209190610a3c565b60405180910390f35b610143600480360381019061013e9190610a83565b610456565b6040516101509190610abf565b60405180910390f35b610173600480360381019061016e91906107f9565b61050f565b6040516101809190610767565b60405180910390f35b6101a3600480360381019061019e91906107f9565b61057d565b6040516101b09190610b1c565b60405180910390f35b6101d360048036038101906101ce91906107f9565b610599565b6040516101e09190610bae565b60405180910390f35b60008060008054906101000a900473ffffffffffffffffffffffffffffffffffffffff1673ffffffffffffffffffffffffffffffffffffffff166398d5fdca6040518163ffffffff1660e01b8152600401602060405180830381865afa158015610257573d6000803e3d6000fd5b505050506040513d601f19601f8201168201806040525081019061027b9190610bde565b90508091505090565b61028c610675565b6001604051806020016040529081600082015481525050905090565b6102b0610688565b600260008381526020019081526020016000206040518060e0016040529081600082016040518060800160405290816000820160009054906101000a900473ffffffffffffffffffffffffffffffffffffffff1673ffffffffffffffffffffffffffffffffffffffff1673ffffffffffffffffffffffffffffffffffffffff16815260200160018201548152602001600282015481526020016003820154815250508152602001600482016040518060600160405290816000820160009054906101000a900473ffffffffffffffffffffffffffffffffffffffff1673ffffffffffffffffffffffffffffffffffffffff1673ffffffffffffffffffffffffffffffffffffffff168152602001600182015481526020016002820160009054906101000a900460ff1615151515815250508152602001600782015481526020016008820154815260200160098201548152602001600a8201548152602001600b820160009054906101000a900463ffffffff1663ffffffff1663ffffffff16815250509050919050565b6104426106d7565b61044b826102a8565b600001519050919050565b60008073ffffffffffffffffffffffffffffffffffffffff168273ffffffffffffffffffffffffffffffffffffffff16036104c6576040517f08c379a00000000000000000000000000000000000000000000000000000000081526004016104bd90610c68565b60405180910390fd5b816000806101000a81548173ffffffffffffffffffffffffffffffffffffffff021916908373ffffffffffffffffffffffffffffffffffffffff16021790555060019050919050565b60008061051a6101e9565b90506000610527846102a8565b9050818160600151101561054057600092505050610578565b60008160200151602001519050600061056e8360800151846040015186856105c3909392919063ffffffff16565b9050809450505050505b919050565b610585610715565b61058e826102a8565b602001519050919050565b60006003600083815260200190815260200160002060009054906101000a900460ff169050919050565b6000808285106105d557859050610627565b60006105fc6105ed878761063390919063ffffffff16565b8861064990919063ffffffff16565b9050610623610614858761063390919063ffffffff16565b8261065f90919063ffffffff16565b9150505b80915050949350505050565b600081836106419190610cb7565b905092915050565b600081836106579190610d1a565b905092915050565b6000818361066d9190610d4b565b905092915050565b6040518060200160405280600081525090565b6040518060e0016040528061069b6106d7565b81526020016106a8610715565b815260200160008152602001600081526020016000815260200160008152602001600063ffffffff1681525090565b6040518060800160405280600073ffffffffffffffffffffffffffffffffffffffff1681526020016000815260200160008152602001600081525090565b6040518060600160405280600073ffffffffffffffffffffffffffffffffffffffff168152602001600081526020016000151581525090565b6000819050919050565b6107618161074e565b82525050565b600060208201905061077c6000830184610758565b92915050565b61078b8161074e565b82525050565b6020820160008201516107a76000850182610782565b50505050565b60006020820190506107c26000830184610791565b92915050565b600080fd5b6107d68161074e565b81146107e157600080fd5b50565b6000813590506107f3816107cd565b92915050565b60006020828403121561080f5761080e6107c8565b5b600061081d848285016107e4565b91505092915050565b600073ffffffffffffffffffffffffffffffffffffffff82169050919050565b600061085182610826565b9050919050565b61086181610846565b82525050565b60808201600082015161087d6000850182610858565b5060208201516108906020850182610782565b5060408201516108a36040850182610782565b5060608201516108b66060850182610782565b50505050565b60008115159050919050565b6108d1816108bc565b82525050565b6060820160008201516108ed6000850182610858565b5060208201516109006020850182610782565b50604082015161091360408501826108c8565b50505050565b600063ffffffff82169050919050565b61093281610919565b82525050565b6101808201600082015161094f6000850182610867565b50602082015161096260808501826108d7565b50604082015161097560e0850182610782565b506060820151610989610100850182610782565b50608082015161099d610120850182610782565b5060a08201516109b1610140850182610782565b5060c08201516109c5610160850182610929565b50505050565b6000610180820190506109e16000830184610938565b92915050565b6080820160008201516109fd6000850182610858565b506020820151610a106020850182610782565b506040820151610a236040850182610782565b506060820151610a366060850182610782565b50505050565b6000608082019050610a5160008301846109e7565b92915050565b610a6081610846565b8114610a6b57600080fd5b50565b600081359050610a7d81610a57565b92915050565b600060208284031215610a9957610a986107c8565b5b6000610aa784828501610a6e565b91505092915050565b610ab9816108bc565b82525050565b6000602082019050610ad46000830184610ab0565b92915050565b606082016000820151610af06000850182610858565b506020820151610b036020850182610782565b506040820151610b1660408501826108c8565b50505050565b6000606082019050610b316000830184610ada565b92915050565b7f4e487b7100000000000000000000000000000000000000000000000000000000600052602160045260246000fd5b60048110610b7757610b76610b37565b5b50565b6000819050610b8882610b66565b919050565b6000610b9882610b7a565b9050919050565b610ba881610b8d565b82525050565b6000602082019050610bc36000830184610b9f565b92915050565b600081519050610bd8816107cd565b92915050565b600060208284031215610bf457610bf36107c8565b5b6000610c0284828501610bc9565b91505092915050565b600082825260208201905092915050565b7f496e76616c696420616464726573730000000000000000000000000000000000600082015250565b6000610c52600f83610c0b565b9150610c5d82610c1c565b602082019050919050565b60006020820190508181036000830152610c8181610c45565b9050919050565b7f4e487b7100000000000000000000000000000000000000000000000000000000600052601160045260246000fd5b6000610cc28261074e565b9150610ccd8361074e565b9250828203905081811115610ce557610ce4610c88565b5b92915050565b7f4e487b7100000000000000000000000000000000000000000000000000000000600052601260045260246000fd5b6000610d258261074e565b9150610d308361074e565b925082610d4057610d3f610ceb565b5b828204905092915050565b6000610d568261074e565b9150610d618361074e565b9250817fffffffffffffffffffffffffffffffffffffffffffffffffffffffffffffffff0483118215151615610d9a57610d99610c88565b5b82820290509291505056fea264697066735822122019b7783c0ea0d88ec9425f36d4b8c0678d24b332ee1ebc42efba57da75341ead64736f6c63430008100033",
  "immutableReferences": {},
  "source": "// SPDX-License-Identifier: MIT\npragma solidity ^0.8.7;\n\nimport '../Oracle/PriceConsumer.sol';\nimport '../libs/LibClaim.sol';\nimport '@openzeppelin/contracts/utils/Counters.sol';\nimport '@openzeppelin/contracts/utils/math/SafeMath.sol';\n\ncontract Swaps is PriceConsumer {\n  using Counters for Counters.Counter;\n  using LibClaim for uint256;\n  using SafeMath for uint256;\n  Counters.Counter internal _swapId;\n\n  struct Buyer {\n    address addr;\n    uint256 deposit;\n    uint256 lastPayDate;\n    uint256 nextPayDate;\n  }\n\n  struct Seller {\n    address addr;\n    uint256 deposit;\n    bool isDeposited;\n  }\n\n  struct Swap {\n    Buyer buyer;\n    Seller seller;\n    uint256 initAssetPrice;\n    uint256 claimPrice;\n    uint256 liquidationPrice;\n    uint256 premium;\n    uint32 premiumInterval;\n  }\n\n  enum swapStatus {\n    inactive,\n    pending,\n    active,\n    claimed\n  }\n\n  mapping(uint256 => Swap) internal _swaps;\n\n  mapping(uint256 => swapStatus) internal _swapsStatus;\n\n  modifier isBuyer(uint256 swapId) {\n    require(\n      msg.sender == _swaps[swapId].buyer.addr,\n      'Only buyer of the CDS can call'\n    );\n    _;\n  }\n\n  modifier isPending(uint256 swapId) {\n    require(\n      _swapsStatus[swapId] == swapStatus.pending,\n      'The status of the CDS should be pending'\n    );\n    _;\n  }\n\n  modifier isActive(uint256 swapId) {\n    require(\n      _swapsStatus[swapId] == swapStatus.active,\n      'The status of the CDS should be pending'\n    );\n    _;\n  }\n\n  constructor() {}\n\n  function _createSwap(\n    bool _isBuyer,\n    uint256 _initAssetPrice,\n    uint256 _claimPrice,\n    uint256 _liquidationPrice,\n    uint256 _sellerDeposit,\n    uint256 _premium,\n    uint32 _premiumInterval\n  ) internal returns (uint256) {\n    _swapId.increment();\n    uint256 newSwapId = _swapId.current();\n    Swap storage newSwap = _swaps[newSwapId];\n\n    newSwap.initAssetPrice = _initAssetPrice;\n    newSwap.claimPrice = _claimPrice;\n    newSwap.liquidationPrice = _liquidationPrice;\n    newSwap.premium = _premium;\n    newSwap.premiumInterval = _premiumInterval;\n    _swapsStatus[newSwapId] = swapStatus.pending;\n\n    _isBuyer ? _createSwapByBuyer(newSwap) : _createSwapBySeller(newSwap);\n\n    newSwap.seller.deposit = _sellerDeposit;\n\n    return newSwapId;\n  }\n\n  function _createSwapByBuyer(Swap storage swap) private {\n    swap.buyer.addr = msg.sender;\n    swap.buyer.deposit = swap.premium.mul(3);\n  }\n\n  function _createSwapBySeller(Swap storage swap) private {\n    swap.seller.addr = msg.sender;\n    swap.seller.isDeposited = true;\n  }\n\n  function _acceptSwap(\n    bool _isBuyerHost,\n    uint256 _initAssetPrice,\n    uint256 _acceptedSwapId\n  ) internal returns (uint256) {\n    Swap storage aSwap = _swaps[_acceptedSwapId];\n    aSwap.initAssetPrice = _initAssetPrice;\n\n    _isBuyerHost ? _createSwapBySeller(aSwap) : _createSwapByBuyer(aSwap);\n\n    aSwap.buyer.lastPayDate = block.timestamp;\n    aSwap.buyer.nextPayDate = block.timestamp + aSwap.premiumInterval;\n\n    _swapsStatus[_acceptedSwapId] = swapStatus.active;\n\n    return _acceptedSwapId;\n  }\n\n  function _cancelSwap(uint256 _targetSwapId) internal {\n    Swap storage targetSwap = _swaps[_targetSwapId];\n    targetSwap.buyer.deposit = 0;\n    targetSwap.seller.deposit = 0;\n    _swapsStatus[_targetSwapId] = swapStatus.inactive;\n  }\n\n  function _claimSwap(uint256 _targetSwapId) internal {\n    Swap storage targetSwap = _swaps[_targetSwapId];\n    // buyer\n    targetSwap.buyer.deposit = 0;\n    targetSwap.buyer.nextPayDate = 0;\n\n    // seller\n    targetSwap.seller.deposit = 0;\n    targetSwap.seller.isDeposited = false;\n\n    _swapsStatus[_targetSwapId] = swapStatus.claimed;\n  }\n\n  function _payPremium(uint256 _targetSwapId) internal {\n    Swap storage targetSwap = _swaps[_targetSwapId];\n    // date \n    targetSwap.buyer.lastPayDate = block.timestamp;\n    targetSwap.buyer.nextPayDate = block.timestamp + targetSwap.premiumInterval;\n  }\n\n  function getClaimReward(uint256 swapId) public view returns (uint256) {\n    uint256 currPrice = getPriceFromOracle();\n    Swap memory targetSwap = getSwap(swapId);\n    if (targetSwap.claimPrice < currPrice) {\n      return 0;\n    }\n    uint256 sellerDeposit = targetSwap.seller.deposit;\n    uint256 claimReward = sellerDeposit.calcClaimReward(\n      targetSwap.liquidationPrice,\n      targetSwap.initAssetPrice,\n      currPrice\n    );\n    return claimReward;\n  }\n\n  function getSwap(uint256 swapId) public view returns (Swap memory) {\n    return _swaps[swapId];\n  }\n\n  function getBuyer(uint256 swapId) public view returns (Buyer memory) {\n    return getSwap(swapId).buyer;\n  }\n\n  function getSeller(uint256 swapId) public view returns (Seller memory) {\n    return getSwap(swapId).seller;\n  }\n\n  function getSwapId() public view returns (Counters.Counter memory) {\n    return _swapId;\n  }\n\n  function getSwapStatus(uint256 swapId) public view returns (swapStatus) {\n    return _swapsStatus[swapId];\n  }\n}\n",
  "sourcePath": "/Users/sdh/Study/BEB_07/projects/CDS/contract/contracts/Swaps/Swaps.sol",
  "compiler": {
    "name": "solc",
    "version": "0.8.16+commit.07a7930e.Emscripten.clang"
  },
  "schemaVersion": "3.4.9",
  "updatedAt": "2023-02-01T03:31:09.642Z",
  "devdoc": {
    "kind": "dev",
    "methods": {},
    "version": 1
  },
  "userdoc": {
    "kind": "user",
    "methods": {},
    "version": 1
  }
}