{
  "contractName": "Swap",
  "abi": [
    {
      "inputs": [
        {
          "internalType": "uint256",
          "name": "_initAssetPrice",
          "type": "uint256"
        },
        {
          "internalType": "uint256",
          "name": "_claimPrice",
          "type": "uint256"
        },
        {
          "internalType": "uint256",
          "name": "_liquidationPrice",
          "type": "uint256"
        },
        {
          "internalType": "uint256",
          "name": "_premium",
          "type": "uint256"
        },
        {
          "internalType": "uint256",
          "name": "_sellerDeposit",
          "type": "uint256"
        },
        {
          "internalType": "uint256",
          "name": "_interval",
          "type": "uint256"
        },
        {
          "internalType": "uint32",
          "name": "_rounds",
          "type": "uint32"
        }
      ],
      "stateMutability": "nonpayable",
      "type": "constructor"
    },
    {
      "anonymous": false,
      "inputs": [
        {
          "indexed": true,
          "internalType": "address",
          "name": "previousOwner",
          "type": "address"
        },
        {
          "indexed": true,
          "internalType": "address",
          "name": "newOwner",
          "type": "address"
        }
      ],
      "name": "OwnershipTransferred",
      "type": "event"
    },
    {
      "inputs": [],
      "name": "claimPrice",
      "outputs": [
        {
          "internalType": "uint256",
          "name": "",
          "type": "uint256"
        }
      ],
      "stateMutability": "view",
      "type": "function"
    },
    {
      "inputs": [],
      "name": "initAssetPrice",
      "outputs": [
        {
          "internalType": "uint256",
          "name": "",
          "type": "uint256"
        }
      ],
      "stateMutability": "view",
      "type": "function"
    },
    {
      "inputs": [],
      "name": "interval",
      "outputs": [
        {
          "internalType": "uint256",
          "name": "",
          "type": "uint256"
        }
      ],
      "stateMutability": "view",
      "type": "function"
    },
    {
      "inputs": [],
      "name": "liquidationPrice",
      "outputs": [
        {
          "internalType": "uint256",
          "name": "",
          "type": "uint256"
        }
      ],
      "stateMutability": "view",
      "type": "function"
    },
    {
      "inputs": [],
      "name": "owner",
      "outputs": [
        {
          "internalType": "address",
          "name": "",
          "type": "address"
        }
      ],
      "stateMutability": "view",
      "type": "function"
    },
    {
      "inputs": [],
      "name": "premium",
      "outputs": [
        {
          "internalType": "uint256",
          "name": "",
          "type": "uint256"
        }
      ],
      "stateMutability": "view",
      "type": "function"
    },
    {
      "inputs": [],
      "name": "renounceOwnership",
      "outputs": [],
      "stateMutability": "nonpayable",
      "type": "function"
    },
    {
      "inputs": [],
      "name": "rounds",
      "outputs": [
        {
          "internalType": "uint32",
          "name": "",
          "type": "uint32"
        }
      ],
      "stateMutability": "view",
      "type": "function"
    },
    {
      "inputs": [],
      "name": "sellerDeposit",
      "outputs": [
        {
          "internalType": "uint256",
          "name": "",
          "type": "uint256"
        }
      ],
      "stateMutability": "view",
      "type": "function"
    },
    {
      "inputs": [],
      "name": "status",
      "outputs": [
        {
          "internalType": "enum Swap.Status",
          "name": "",
          "type": "uint8"
        }
      ],
      "stateMutability": "view",
      "type": "function"
    },
    {
      "inputs": [
        {
          "internalType": "address",
          "name": "newOwner",
          "type": "address"
        }
      ],
      "name": "transferOwnership",
      "outputs": [],
      "stateMutability": "nonpayable",
      "type": "function"
    },
    {
      "inputs": [],
      "name": "getPrices",
      "outputs": [
        {
          "internalType": "uint256[5]",
          "name": "",
          "type": "uint256[5]"
        }
      ],
      "stateMutability": "view",
      "type": "function"
    },
    {
      "inputs": [],
      "name": "getBuyer",
      "outputs": [
        {
          "internalType": "address",
          "name": "",
          "type": "address"
        }
      ],
      "stateMutability": "view",
      "type": "function"
    },
    {
      "inputs": [],
      "name": "getSeller",
      "outputs": [
        {
          "internalType": "address",
          "name": "",
          "type": "address"
        }
      ],
      "stateMutability": "view",
      "type": "function"
    },
    {
      "inputs": [
        {
          "internalType": "uint256",
          "name": "_initAssetPrice",
          "type": "uint256"
        }
      ],
      "name": "setInitAssetPrice",
      "outputs": [
        {
          "internalType": "uint256",
          "name": "",
          "type": "uint256"
        }
      ],
      "stateMutability": "nonpayable",
      "type": "function"
    },
    {
      "inputs": [
        {
          "internalType": "enum Swap.Status",
          "name": "_status",
          "type": "uint8"
        }
      ],
      "name": "setStatus",
      "outputs": [
        {
          "internalType": "enum Swap.Status",
          "name": "",
          "type": "uint8"
        }
      ],
      "stateMutability": "nonpayable",
      "type": "function"
    },
    {
      "inputs": [
        {
          "internalType": "address",
          "name": "_buyer",
          "type": "address"
        }
      ],
      "name": "setBuyer",
      "outputs": [
        {
          "internalType": "address",
          "name": "",
          "type": "address"
        }
      ],
      "stateMutability": "nonpayable",
      "type": "function"
    },
    {
      "inputs": [
        {
          "internalType": "address",
          "name": "_seller",
          "type": "address"
        }
      ],
      "name": "setSeller",
      "outputs": [
        {
          "internalType": "address",
          "name": "",
          "type": "address"
        }
      ],
      "stateMutability": "nonpayable",
      "type": "function"
    },
    {
      "inputs": [
        {
          "internalType": "uint32",
          "name": "_rounds",
          "type": "uint32"
        }
      ],
      "name": "setRounds",
      "outputs": [
        {
          "internalType": "uint32",
          "name": "",
          "type": "uint32"
        }
      ],
      "stateMutability": "nonpayable",
      "type": "function"
    }
  ],
  "bytecode": "0x60806040523480156200001157600080fd5b50604051620010a5380380620010a58339818101604052810190620000379190620002ae565b620000576200004b6200016160201b60201c565b6200016960201b60201c565b86600381905550856004819055508460058190555083600681905550826007819055508160088190555080600960006101000a81548163ffffffff021916908363ffffffff1602179055506000600160006101000a81548173ffffffffffffffffffffffffffffffffffffffff021916908373ffffffffffffffffffffffffffffffffffffffff1602179055506000600260006101000a81548173ffffffffffffffffffffffffffffffffffffffff021916908373ffffffffffffffffffffffffffffffffffffffff1602179055506001600060146101000a81548160ff021916908360048111156200014f576200014e62000361565b5b02179055505050505050505062000390565b600033905090565b60008060009054906101000a900473ffffffffffffffffffffffffffffffffffffffff169050816000806101000a81548173ffffffffffffffffffffffffffffffffffffffff021916908373ffffffffffffffffffffffffffffffffffffffff1602179055508173ffffffffffffffffffffffffffffffffffffffff168173ffffffffffffffffffffffffffffffffffffffff167f8be0079c531659141344cd1fd0a4f28419497f9722a3daafe3b4186f6b6457e060405160405180910390a35050565b600080fd5b6000819050919050565b620002478162000232565b81146200025357600080fd5b50565b60008151905062000267816200023c565b92915050565b600063ffffffff82169050919050565b62000288816200026d565b81146200029457600080fd5b50565b600081519050620002a8816200027d565b92915050565b600080600080600080600060e0888a031215620002d057620002cf6200022d565b5b6000620002e08a828b0162000256565b9750506020620002f38a828b0162000256565b9650506040620003068a828b0162000256565b9550506060620003198a828b0162000256565b94505060806200032c8a828b0162000256565b93505060a06200033f8a828b0162000256565b92505060c0620003528a828b0162000297565b91505092959891949750929550565b7f4e487b7100000000000000000000000000000000000000000000000000000000600052602160045260246000fd5b610d0580620003a06000396000f3fe608060405234801561001057600080fd5b50600436106101215760003560e01c8063a2e800ad116100ad578063d2895e9311610071578063d2895e93146102ec578063dbd0e1b61461031c578063e0a73a931461033a578063e99d286614610358578063f2fde38b1461038857610121565b8063a2e800ad14610232578063a3f09ad614610250578063b6fc2d5f14610280578063bd9a548b1461029e578063bef904e3146102bc57610121565b8063603daf9a116100f4578063603daf9a146101b0578063715018a6146101ce57806386be75b7146101d85780638da5cb5b146101f6578063947a36fb1461021457610121565b806315d655c914610126578063200d2ed2146101445780632e49d78b146101625780634c1786ea14610192575b600080fd5b61012e6103a4565b60405161013b9190610855565b60405180910390f35b61014c6103aa565b60405161015991906108e7565b60405180910390f35b61017c6004803603810190610177919061092c565b6103bd565b60405161018991906108e7565b60405180910390f35b61019a610408565b6040516101a79190610855565b60405180910390f35b6101b861040e565b6040516101c5919061099a565b60405180910390f35b6101d6610438565b005b6101e061044c565b6040516101ed9190610855565b60405180910390f35b6101fe610452565b60405161020b919061099a565b60405180910390f35b61021c61047b565b6040516102299190610855565b60405180910390f35b61023a610481565b60405161024791906109d4565b60405180910390f35b61026a60048036038101906102659190610a1b565b610497565b604051610277919061099a565b60405180910390f35b61028861050c565b6040516102959190610855565b60405180910390f35b6102a6610512565b6040516102b39190610af3565b60405180910390f35b6102d660048036038101906102d19190610b3a565b610550565b6040516102e39190610855565b60405180910390f35b61030660048036038101906103019190610b93565b610563565b60405161031391906109d4565b60405180910390f35b6103246105a8565b604051610331919061099a565b60405180910390f35b6103426105d2565b60405161034f9190610855565b60405180910390f35b610372600480360381019061036d9190610a1b565b6105d8565b60405161037f919061099a565b60405180910390f35b6103a2600480360381019061039d9190610a1b565b61064d565b005b60045481565b600060149054906101000a900460ff1681565b60006103c76106d0565b81600060146101000a81548160ff021916908360048111156103ec576103eb610870565b5b0217905550600060149054906101000a900460ff169050919050565b60075481565b6000600160009054906101000a900473ffffffffffffffffffffffffffffffffffffffff16905090565b6104406106d0565b61044a600061074e565b565b60035481565b60008060009054906101000a900473ffffffffffffffffffffffffffffffffffffffff16905090565b60085481565b600960009054906101000a900463ffffffff1681565b60006104a16106d0565b81600160006101000a81548173ffffffffffffffffffffffffffffffffffffffff021916908373ffffffffffffffffffffffffffffffffffffffff160217905550600160009054906101000a900473ffffffffffffffffffffffffffffffffffffffff169050919050565b60055481565b61051a61081a565b6040518060a001604052806003548152602001600454815260200160055481526020016006548152602001600754815250905090565b6000816003819055506003549050919050565b600061056d6106d0565b81600960006101000a81548163ffffffff021916908363ffffffff160217905550600960009054906101000a900463ffffffff169050919050565b6000600260009054906101000a900473ffffffffffffffffffffffffffffffffffffffff16905090565b60065481565b60006105e26106d0565b81600260006101000a81548173ffffffffffffffffffffffffffffffffffffffff021916908373ffffffffffffffffffffffffffffffffffffffff160217905550600260009054906101000a900473ffffffffffffffffffffffffffffffffffffffff169050919050565b6106556106d0565b600073ffffffffffffffffffffffffffffffffffffffff168173ffffffffffffffffffffffffffffffffffffffff16036106c4576040517f08c379a00000000000000000000000000000000000000000000000000000000081526004016106bb90610c43565b60405180910390fd5b6106cd8161074e565b50565b6106d8610812565b73ffffffffffffffffffffffffffffffffffffffff166106f6610452565b73ffffffffffffffffffffffffffffffffffffffff161461074c576040517f08c379a000000000000000000000000000000000000000000000000000000000815260040161074390610caf565b60405180910390fd5b565b60008060009054906101000a900473ffffffffffffffffffffffffffffffffffffffff169050816000806101000a81548173ffffffffffffffffffffffffffffffffffffffff021916908373ffffffffffffffffffffffffffffffffffffffff1602179055508173ffffffffffffffffffffffffffffffffffffffff168173ffffffffffffffffffffffffffffffffffffffff167f8be0079c531659141344cd1fd0a4f28419497f9722a3daafe3b4186f6b6457e060405160405180910390a35050565b600033905090565b6040518060a00160405280600590602082028036833780820191505090505090565b6000819050919050565b61084f8161083c565b82525050565b600060208201905061086a6000830184610846565b92915050565b7f4e487b7100000000000000000000000000000000000000000000000000000000600052602160045260246000fd5b600581106108b0576108af610870565b5b50565b60008190506108c18261089f565b919050565b60006108d1826108b3565b9050919050565b6108e1816108c6565b82525050565b60006020820190506108fc60008301846108d8565b92915050565b600080fd5b6005811061091457600080fd5b50565b60008135905061092681610907565b92915050565b60006020828403121561094257610941610902565b5b600061095084828501610917565b91505092915050565b600073ffffffffffffffffffffffffffffffffffffffff82169050919050565b600061098482610959565b9050919050565b61099481610979565b82525050565b60006020820190506109af600083018461098b565b92915050565b600063ffffffff82169050919050565b6109ce816109b5565b82525050565b60006020820190506109e960008301846109c5565b92915050565b6109f881610979565b8114610a0357600080fd5b50565b600081359050610a15816109ef565b92915050565b600060208284031215610a3157610a30610902565b5b6000610a3f84828501610a06565b91505092915050565b600060059050919050565b600081905092915050565b6000819050919050565b610a718161083c565b82525050565b6000610a838383610a68565b60208301905092915050565b6000602082019050919050565b610aa581610a48565b610aaf8184610a53565b9250610aba82610a5e565b8060005b83811015610aeb578151610ad28782610a77565b9650610add83610a8f565b925050600181019050610abe565b505050505050565b600060a082019050610b086000830184610a9c565b92915050565b610b178161083c565b8114610b2257600080fd5b50565b600081359050610b3481610b0e565b92915050565b600060208284031215610b5057610b4f610902565b5b6000610b5e84828501610b25565b91505092915050565b610b70816109b5565b8114610b7b57600080fd5b50565b600081359050610b8d81610b67565b92915050565b600060208284031215610ba957610ba8610902565b5b6000610bb784828501610b7e565b91505092915050565b600082825260208201905092915050565b7f4f776e61626c653a206e6577206f776e657220697320746865207a65726f206160008201527f6464726573730000000000000000000000000000000000000000000000000000602082015250565b6000610c2d602683610bc0565b9150610c3882610bd1565b604082019050919050565b60006020820190508181036000830152610c5c81610c20565b9050919050565b7f4f776e61626c653a2063616c6c6572206973206e6f7420746865206f776e6572600082015250565b6000610c99602083610bc0565b9150610ca482610c63565b602082019050919050565b60006020820190508181036000830152610cc881610c8c565b905091905056fea2646970667358221220a05163996b76c30fd3b3d10afdc3ef807353b913d852bba76e0a167b34f7a92964736f6c63430008100033",
  "immutableReferences": {},
  "source": "// SPDX-License-Identifier: MIT\npragma solidity ^0.8.7;\n\nimport '@openzeppelin/contracts/access/Ownable.sol';\nimport '@openzeppelin/contracts/utils/math/SafeMath.sol';\n\ncontract Swap is Ownable {\n  using SafeMath for uint256;\n\n  enum Status {\n    inactive,\n    pending,\n    active,\n    claimed,\n    expired\n  }\n  Status public status;\n\n  address private buyer;\n  address private seller;\n\n  uint256 public initAssetPrice;\n  uint256 public claimPrice;\n  uint256 public liquidationPrice;\n  uint256 public premium;\n  uint256 public sellerDeposit;\n\n  uint256 public interval;\n  uint32 public rounds;\n\n  constructor(\n    uint256 _initAssetPrice,\n    uint256 _claimPrice,\n    uint256 _liquidationPrice,\n    uint256 _premium,\n    uint256 _sellerDeposit,\n    uint256 _interval,\n    uint32 _rounds\n  ) {\n    initAssetPrice = _initAssetPrice;\n    claimPrice = _claimPrice;\n    liquidationPrice = _liquidationPrice;\n    premium = _premium;\n    sellerDeposit = _sellerDeposit;\n    interval = _interval;\n    rounds = _rounds;\n\n    buyer = address(0);\n    seller = address(0);\n    status = Status.pending;\n  }\n\n  function getPrices() public view returns (uint256[5] memory) {\n    return [\n      initAssetPrice,\n      claimPrice,\n      liquidationPrice,\n      premium,\n      sellerDeposit\n    ];\n  }\n\n  function getBuyer() public view returns (address) {\n    return buyer;\n  }\n\n  function getSeller() public view returns (address) {\n    return seller;\n  }\n\n  function setInitAssetPrice(uint256 _initAssetPrice) public returns (uint256) {\n    initAssetPrice = _initAssetPrice;\n    return initAssetPrice;\n  }\n\n  function setStatus(Status _status) public onlyOwner returns (Status) {\n    status = _status;\n    return status;\n  }\n\n  function setBuyer(address _buyer) public onlyOwner returns (address) {\n    buyer = _buyer;\n    return buyer;\n  }\n\n  function setSeller(address _seller) public onlyOwner returns (address) {\n    seller = _seller;\n    return seller;\n  }\n\n  function setRounds(uint32 _rounds) public onlyOwner returns (uint32) {\n    rounds = _rounds;\n    return rounds;\n  }\n}\n",
  "sourcePath": "/Users/sdh/Study/BEB_07/projects/CDS/contract/contracts/Swaps/Swap.sol",
  "compiler": {
    "name": "solc",
    "version": "0.8.16+commit.07a7930e.Emscripten.clang"
  },
  "schemaVersion": "3.4.9",
  "updatedAt": "2023-02-04T07:41:25.414Z",
  "devdoc": {
    "kind": "dev",
    "methods": {
      "owner()": {
        "details": "Returns the address of the current owner."
      },
      "renounceOwnership()": {
        "details": "Leaves the contract without owner. It will not be possible to call `onlyOwner` functions anymore. Can only be called by the current owner. NOTE: Renouncing ownership will leave the contract without an owner, thereby removing any functionality that is only available to the owner."
      },
      "transferOwnership(address)": {
        "details": "Transfers ownership of the contract to a new account (`newOwner`). Can only be called by the current owner."
      }
    },
    "version": 1
  },
  "userdoc": {
    "kind": "user",
    "methods": {},
    "version": 1
  }
}