{
  "contractName": "Swaps",
  "abi": [
    {
      "inputs": [],
      "name": "getPriceFromOracle",
      "outputs": [
        {
          "internalType": "uint256",
          "name": "",
          "type": "uint256"
        }
      ],
      "stateMutability": "view",
      "type": "function"
    },
    {
      "inputs": [
        {
          "internalType": "address",
          "name": "_priceOracleAddress",
          "type": "address"
        }
      ],
      "name": "setOracle",
      "outputs": [
        {
          "internalType": "bool",
          "name": "",
          "type": "bool"
        }
      ],
      "stateMutability": "nonpayable",
      "type": "function"
    },
    {
      "inputs": [
        {
          "internalType": "uint256",
          "name": "_swapId",
          "type": "uint256"
        }
      ],
      "name": "getSwap",
      "outputs": [
        {
          "components": [
            {
              "components": [
                {
                  "internalType": "address",
                  "name": "addr",
                  "type": "address"
                },
                {
                  "internalType": "uint256",
                  "name": "deposit",
                  "type": "uint256"
                },
                {
                  "internalType": "uint256",
                  "name": "lastPayDate",
                  "type": "uint256"
                },
                {
                  "internalType": "uint256",
                  "name": "nextPayDate",
                  "type": "uint256"
                }
              ],
              "internalType": "struct Swaps.Buyer",
              "name": "buyer",
              "type": "tuple"
            },
            {
              "components": [
                {
                  "internalType": "address",
                  "name": "addr",
                  "type": "address"
                },
                {
                  "internalType": "uint256",
                  "name": "deposit",
                  "type": "uint256"
                },
                {
                  "internalType": "bool",
                  "name": "isDeposited",
                  "type": "bool"
                }
              ],
              "internalType": "struct Swaps.Seller",
              "name": "seller",
              "type": "tuple"
            },
            {
              "internalType": "uint256",
              "name": "numBlocks",
              "type": "uint256"
            },
            {
              "internalType": "uint256",
              "name": "priceOfAsset",
              "type": "uint256"
            },
            {
              "internalType": "uint256",
              "name": "claimPrice",
              "type": "uint256"
            },
            {
              "internalType": "uint256",
              "name": "liquidationPrice",
              "type": "uint256"
            },
            {
              "internalType": "uint256",
              "name": "premium",
              "type": "uint256"
            },
            {
              "internalType": "uint256",
              "name": "expirationMonth",
              "type": "uint256"
            },
            {
              "internalType": "enum Swaps.Status",
              "name": "status",
              "type": "uint8"
            }
          ],
          "internalType": "struct Swaps.Swap",
          "name": "",
          "type": "tuple"
        }
      ],
      "stateMutability": "view",
      "type": "function"
    }
  ],
  "bytecode": "0x608060405234801561001057600080fd5b50610910806100206000396000f3fe608060405234801561001057600080fd5b50600436106100415760003560e01c806338f5a491146100465780634a0d89ba146100645780637adbf97314610094575b600080fd5b61004e6100c4565b60405161005b91906104ce565b60405180910390f35b61007e6004803603810190610079919061051a565b61015f565b60405161008b919061077c565b60405180910390f35b6100ae60048036038101906100a991906107c4565b61031b565b6040516100bb9190610800565b60405180910390f35b60008060008054906101000a900473ffffffffffffffffffffffffffffffffffffffff1673ffffffffffffffffffffffffffffffffffffffff166398d5fdca6040518163ffffffff1660e01b8152600401602060405180830381865afa158015610132573d6000803e3d6000fd5b505050506040513d601f19601f820116820180604052508101906101569190610830565b90508091505090565b6101676103d4565b6002600083815260200190815260200160002060405180610120016040529081600082016040518060800160405290816000820160009054906101000a900473ffffffffffffffffffffffffffffffffffffffff1673ffffffffffffffffffffffffffffffffffffffff1673ffffffffffffffffffffffffffffffffffffffff16815260200160018201548152602001600282015481526020016003820154815250508152602001600482016040518060600160405290816000820160009054906101000a900473ffffffffffffffffffffffffffffffffffffffff1673ffffffffffffffffffffffffffffffffffffffff1673ffffffffffffffffffffffffffffffffffffffff168152602001600182015481526020016002820160009054906101000a900460ff1615151515815250508152602001600782015481526020016008820154815260200160098201548152602001600a8201548152602001600b8201548152602001600c8201548152602001600d820160009054906101000a900460ff1660048111156102fe576102fd610649565b5b60048111156103105761030f610649565b5b815250509050919050565b60008073ffffffffffffffffffffffffffffffffffffffff168273ffffffffffffffffffffffffffffffffffffffff160361038b576040517f08c379a0000000000000000000000000000000000000000000000000000000008152600401610382906108ba565b60405180910390fd5b816000806101000a81548173ffffffffffffffffffffffffffffffffffffffff021916908373ffffffffffffffffffffffffffffffffffffffff16021790555060019050919050565b6040518061012001604052806103e861043e565b81526020016103f561047c565b81526020016000815260200160008152602001600081526020016000815260200160008152602001600081526020016000600481111561043857610437610649565b5b81525090565b6040518060800160405280600073ffffffffffffffffffffffffffffffffffffffff1681526020016000815260200160008152602001600081525090565b6040518060600160405280600073ffffffffffffffffffffffffffffffffffffffff168152602001600081526020016000151581525090565b6000819050919050565b6104c8816104b5565b82525050565b60006020820190506104e360008301846104bf565b92915050565b600080fd5b6104f7816104b5565b811461050257600080fd5b50565b600081359050610514816104ee565b92915050565b6000602082840312156105305761052f6104e9565b5b600061053e84828501610505565b91505092915050565b600073ffffffffffffffffffffffffffffffffffffffff82169050919050565b600061057282610547565b9050919050565b61058281610567565b82525050565b610591816104b5565b82525050565b6080820160008201516105ad6000850182610579565b5060208201516105c06020850182610588565b5060408201516105d36040850182610588565b5060608201516105e66060850182610588565b50505050565b60008115159050919050565b610601816105ec565b82525050565b60608201600082015161061d6000850182610579565b5060208201516106306020850182610588565b50604082015161064360408501826105f8565b50505050565b7f4e487b7100000000000000000000000000000000000000000000000000000000600052602160045260246000fd5b6005811061068957610688610649565b5b50565b600081905061069a82610678565b919050565b60006106aa8261068c565b9050919050565b6106ba8161069f565b82525050565b6101c0820160008201516106d76000850182610597565b5060208201516106ea6080850182610607565b5060408201516106fd60e0850182610588565b506060820151610711610100850182610588565b506080820151610725610120850182610588565b5060a0820151610739610140850182610588565b5060c082015161074d610160850182610588565b5060e0820151610761610180850182610588565b506101008201516107766101a08501826106b1565b50505050565b60006101c08201905061079260008301846106c0565b92915050565b6107a181610567565b81146107ac57600080fd5b50565b6000813590506107be81610798565b92915050565b6000602082840312156107da576107d96104e9565b5b60006107e8848285016107af565b91505092915050565b6107fa816105ec565b82525050565b600060208201905061081560008301846107f1565b92915050565b60008151905061082a816104ee565b92915050565b600060208284031215610846576108456104e9565b5b60006108548482850161081b565b91505092915050565b600082825260208201905092915050565b7f496e76616c696420616464726573730000000000000000000000000000000000600082015250565b60006108a4600f8361085d565b91506108af8261086e565b602082019050919050565b600060208201905081810360008301526108d381610897565b905091905056fea2646970667358221220402b0b48970200b37e66665ceab5f2e7fc130d5137940901be190d6dc9e88e5164736f6c63430008100033",
  "immutableReferences": {},
  "source": "// SPDX-License-Identifier: MIT\npragma solidity ^0.8.7;\n\nimport '../Oracle/PriceConsumer.sol';\nimport '../libs/LibSwapCalc.sol';\nimport '@openzeppelin/contracts/utils/Counters.sol';\n\ncontract Swaps is PriceConsumer {\n  using Counters for Counters.Counter;\n  using LibSwapCalc for uint256;\n  Counters.Counter private _swapId;\n\n  enum Status {\n    pending,\n    active,\n    claimable,\n    expired,\n    liquidated\n  }\n  mapping(uint256 => Swap) internal _swaps;\n\n  struct Buyer {\n    address addr;\n    uint256 deposit;\n    uint256 lastPayDate;\n    uint256 nextPayDate;\n  }\n\n  struct Seller {\n    address addr;\n    uint256 deposit;\n    bool isDeposited;\n  }\n\n  struct Swap {\n    Buyer buyer;\n    Seller seller;\n    uint256 numBlocks;\n    uint256 priceOfAsset;\n    uint256 claimPrice;\n    uint256 liquidationPrice;\n    uint256 premium;\n    uint256 expirationMonth;\n    Status status;\n  }\n\n  function _makeSwap(\n    address _addr,\n    uint256 _numBlocks,\n    uint256 _claimRate,\n    uint256 _liquidationRate,\n    uint256 _expirationMonth\n  ) internal returns (uint256) {\n    _swapId.increment();\n    uint256 newSwapId = _swapId.current();\n\n    _swaps[newSwapId].buyer.addr = _addr;\n    _swaps[newSwapId].numBlocks = _numBlocks;\n\n    uint256 _priceOfAsset = getPriceFromOracle();\n    _swaps[newSwapId].priceOfAsset = _priceOfAsset;\n\n    uint256 _claimPrice = _priceOfAsset.calcPrice(_claimRate);\n    _swaps[newSwapId].claimPrice = _claimPrice;\n    uint256 _liquidationPrice = _priceOfAsset.calcPrice(_liquidationRate);\n    _swaps[newSwapId].liquidationPrice = _liquidationPrice;\n    uint256 _premium = _claimPrice.calcPremium();\n    _swaps[newSwapId].premium = _premium;\n\n    _swaps[newSwapId].expirationMonth = _expirationMonth;\n\n    uint256 _sellerDeposit = _numBlocks.calcTotalLiquidationPrice(\n      _priceOfAsset,\n      _liquidationRate\n    );\n    _swaps[newSwapId].seller.deposit = _sellerDeposit;\n\n    return newSwapId;\n  }\n\n  function getSwap(uint256 _swapId) external view returns (Swap memory) {\n    return _swaps[_swapId];\n  }\n\n  // function _offerSwap(uint256 _offerSwapId) {}\n\n  // function _acceptSwap(address _addr, uint256 _acceptedSwapId) public returns (uint256) {\n  //     _swaps[_acceptedSwapId].seller.addr = _addr;\n\n  //     _swaps[_acceptedSwapId].status = Status.active;\n  //     return _acceptedSwapId;\n  // }\n}\n",
  "sourcePath": "/Users/sdh/Study/BEB_07/projects/CDS/contract/contracts/Swaps/Swaps.sol",
  "compiler": {
    "name": "solc",
    "version": "0.8.16+commit.07a7930e.Emscripten.clang"
  },
  "schemaVersion": "3.4.9",
  "updatedAt": "2023-01-19T13:08:31.447Z",
  "devdoc": {
    "kind": "dev",
    "methods": {},
    "version": 1
  },
  "userdoc": {
    "kind": "user",
    "methods": {},
    "version": 1
  }
}