{
	"data": {
		"bytecode": {
			"linkReferences": {},
			"object": "608060405234801561001057600080fd5b506139ac806100206000396000f3fe60806040523480156200001157600080fd5b5060043610620001185760003560e01c80635bf608b811620000a55780638bfd13ae116200006f5780638bfd13ae146200033957806391492956146200036f578063d6a9de5114620003a5578063f566edac14620003db5762000118565b80635bf608b814620002615780635c622a0e14620002975780638810632314620002cd5780638a614dd514620003035762000118565b806340e58ee511620000e757806340e58ee514620001c95780634364b26e14620001e9578063496ab39a14620002095780634a0d89ba146200022b5762000118565b80630aebeb4e146200011d57806313ef3dcc146200013d5780631bf1fffb1462000173578063379607f514620001a9575b600080fd5b6200013b600480360381019062000135919062001774565b62000411565b005b6200015b600480360381019062000155919062001774565b6200052d565b6040516200016a919062001b11565b60405180910390f35b6200019160048036038101906200018b919062001774565b620005eb565b604051620001a0919062001a77565b60405180910390f35b620001c76004803603810190620001c1919062001774565b620006a9565b005b620001e76004803603810190620001e1919062001774565b620007c5565b005b62000207600480360381019062000201919062001774565b620008e1565b005b6200021362000a99565b60405162000222919062001a5a565b60405180910390f35b62000249600480360381019062000243919062001774565b62000abf565b604051620002589190620019ba565b60405180910390f35b6200027f600480360381019062000279919062001774565b62000afc565b6040516200028e919062001980565b60405180910390f35b620002b56004803603810190620002af919062001774565b62000bba565b604051620002c49190620019d7565b60405180910390f35b620002eb6004803603810190620002e5919062001774565b62000c78565b604051620002fa919062001a77565b60405180910390f35b6200032160048036038101906200031b919062001679565b62000d36565b60405162000330919062001a77565b60405180910390f35b62000357600480360381019062000351919062001774565b62000f30565b60405162000366919062001a77565b60405180910390f35b6200038d600480360381019062000387919062001774565b62000f4d565b6040516200039c91906200199d565b60405180910390f35b620003c36004803603810190620003bd919062001774565b62001013565b604051620003d2919062001980565b60405180910390f35b620003f96004803603810190620003f391906200161d565b620010d1565b60405162000408919062001a77565b60405180910390f35b806002600481111562000429576200042862001d7a565b5b620004348262000bba565b600481111562000449576200044862001d7a565b5b146200048c576040517f08c379a0000000000000000000000000000000000000000000000000000000008152600401620004839062001a16565b60405180910390fd5b620004978262000abf565b73ffffffffffffffffffffffffffffffffffffffff16632e49d78b60046040518263ffffffff1660e01b8152600401620004d29190620019d7565b602060405180830381600087803b158015620004ed57600080fd5b505af115801562000502573d6000803e3d6000fd5b505050506040513d601f19601f8201168201806040525081019062000528919062001742565b505050565b60006001600083815260200190815260200160002060009054906101000a900473ffffffffffffffffffffffffffffffffffffffff1673ffffffffffffffffffffffffffffffffffffffff1663a2e800ad6040518163ffffffff1660e01b815260040160206040518083038186803b158015620005a957600080fd5b505afa158015620005be573d6000803e3d6000fd5b505050506040513d601f19601f82011682018060405250810190620005e49190620017d8565b9050919050565b60006001600083815260200190815260200160002060009054906101000a900473ffffffffffffffffffffffffffffffffffffffff1673ffffffffffffffffffffffffffffffffffffffff1663e0a73a936040518163ffffffff1660e01b815260040160206040518083038186803b1580156200066757600080fd5b505afa1580156200067c573d6000803e3d6000fd5b505050506040513d601f19601f82011682018060405250810190620006a29190620017a6565b9050919050565b8060026004811115620006c157620006c062001d7a565b5b620006cc8262000bba565b6004811115620006e157620006e062001d7a565b5b1462000724576040517f08c379a00000000000000000000000000000000000000000000000000000000081526004016200071b9062001a16565b60405180910390fd5b6200072f8262000abf565b73ffffffffffffffffffffffffffffffffffffffff16632e49d78b60036040518263ffffffff1660e01b81526004016200076a9190620019d7565b602060405180830381600087803b1580156200078557600080fd5b505af11580156200079a573d6000803e3d6000fd5b505050506040513d601f19601f82011682018060405250810190620007c0919062001742565b505050565b8060016004811115620007dd57620007dc62001d7a565b5b620007e88262000bba565b6004811115620007fd57620007fc62001d7a565b5b1462000840576040517f08c379a00000000000000000000000000000000000000000000000000000000081526004016200083790620019f4565b60405180910390fd5b6200084b8262000abf565b73ffffffffffffffffffffffffffffffffffffffff16632e49d78b60006040518263ffffffff1660e01b8152600401620008869190620019d7565b602060405180830381600087803b158015620008a157600080fd5b505af1158015620008b6573d6000803e3d6000fd5b505050506040513d601f19601f82011682018060405250810190620008dc919062001742565b505050565b8060026004811115620008f957620008f862001d7a565b5b620009048262000bba565b600481111562000919576200091862001d7a565b5b146200095c576040517f08c379a0000000000000000000000000000000000000000000000000000000008152600401620009539062001a16565b60405180910390fd5b600062000969836200052d565b63ffffffff1611620009b2576040517f08c379a0000000000000000000000000000000000000000000000000000000008152600401620009a99062001a38565b60405180910390fd5b6224ea00600260008481526020019081526020016000206000828254620009da919062001bbe565b92505081905550620009ec8262000abf565b73ffffffffffffffffffffffffffffffffffffffff1663d2895e93600162000a14856200052d565b62000a20919062001c1b565b6040518263ffffffff1660e01b815260040162000a3e919062001b11565b602060405180830381600087803b15801562000a5957600080fd5b505af115801562000a6e573d6000803e3d6000fd5b505050506040513d601f19601f8201168201806040525081019062000a949190620017d8565b505050565b62000aa362001433565b6000604051806020016040529081600082015481525050905090565b60006001600083815260200190815260200160002060009054906101000a900473ffffffffffffffffffffffffffffffffffffffff169050919050565b60006001600083815260200190815260200160002060009054906101000a900473ffffffffffffffffffffffffffffffffffffffff1673ffffffffffffffffffffffffffffffffffffffff1663603daf9a6040518163ffffffff1660e01b815260040160206040518083038186803b15801562000b7857600080fd5b505afa15801562000b8d573d6000803e3d6000fd5b505050506040513d601f19601f8201168201806040525081019062000bb39190620015b9565b9050919050565b60006001600083815260200190815260200160002060009054906101000a900473ffffffffffffffffffffffffffffffffffffffff1673ffffffffffffffffffffffffffffffffffffffff1663200d2ed26040518163ffffffff1660e01b815260040160206040518083038186803b15801562000c3657600080fd5b505afa15801562000c4b573d6000803e3d6000fd5b505050506040513d601f19601f8201168201806040525081019062000c71919062001742565b9050919050565b60006001600083815260200190815260200160002060009054906101000a900473ffffffffffffffffffffffffffffffffffffffff1673ffffffffffffffffffffffffffffffffffffffff16634c1786ea6040518163ffffffff1660e01b815260040160206040518083038186803b15801562000cf457600080fd5b505afa15801562000d09573d6000803e3d6000fd5b505050506040513d601f19601f8201168201806040525081019062000d2f9190620017a6565b9050919050565b600062000d4460006200140f565b600062000d52600062001425565b90506000898989888a898960405162000d6b9062001446565b62000d7d979695949392919062001a94565b604051809103906000f08015801562000d9a573d6000803e3d6000fd5b509050806001600084815260200190815260200160002060006101000a81548173ffffffffffffffffffffffffffffffffffffffff021916908373ffffffffffffffffffffffffffffffffffffffff1602179055508a62000e8c578073ffffffffffffffffffffffffffffffffffffffff1663e99d2866336040518263ffffffff1660e01b815260040162000e30919062001980565b602060405180830381600087803b15801562000e4b57600080fd5b505af115801562000e60573d6000803e3d6000fd5b505050506040513d601f19601f8201168201806040525081019062000e869190620015b9565b62000f1e565b8073ffffffffffffffffffffffffffffffffffffffff1663a3f09ad6336040518263ffffffff1660e01b815260040162000ec7919062001980565b602060405180830381600087803b15801562000ee257600080fd5b505af115801562000ef7573d6000803e3d6000fd5b505050506040513d601f19601f8201168201806040525081019062000f1d9190620015b9565b5b50819250505098975050505050505050565b600060026000838152602001908152602001600020549050919050565b62000f5762001454565b6001600083815260200190815260200160002060009054906101000a900473ffffffffffffffffffffffffffffffffffffffff1673ffffffffffffffffffffffffffffffffffffffff1663bd9a548b6040518163ffffffff1660e01b815260040160a06040518083038186803b15801562000fd157600080fd5b505afa15801562000fe6573d6000803e3d6000fd5b505050506040513d601f19601f820116820180604052508101906200100c9190620015eb565b9050919050565b60006001600083815260200190815260200160002060009054906101000a900473ffffffffffffffffffffffffffffffffffffffff1673ffffffffffffffffffffffffffffffffffffffff1663dbd0e1b66040518163ffffffff1660e01b815260040160206040518083038186803b1580156200108f57600080fd5b505afa158015620010a4573d6000803e3d6000fd5b505050506040513d601f19601f82011682018060405250810190620010ca9190620015b9565b9050919050565b60008160016004811115620010eb57620010ea62001d7a565b5b620010f68262000bba565b60048111156200110b576200110a62001d7a565b5b146200114e576040517f08c379a00000000000000000000000000000000000000000000000000000000081526004016200114590620019f4565b60405180910390fd5b60006001600085815260200190815260200160002060009054906101000a900473ffffffffffffffffffffffffffffffffffffffff1690508073ffffffffffffffffffffffffffffffffffffffff1663bef904e3866040518263ffffffff1660e01b8152600401620011c1919062001a77565b602060405180830381600087803b158015620011dc57600080fd5b505af1158015620011f1573d6000803e3d6000fd5b505050506040513d601f19601f82011682018060405250810190620012179190620017a6565b5085620012b5578073ffffffffffffffffffffffffffffffffffffffff1663a3f09ad6336040518263ffffffff1660e01b815260040162001259919062001980565b602060405180830381600087803b1580156200127457600080fd5b505af115801562001289573d6000803e3d6000fd5b505050506040513d601f19601f82011682018060405250810190620012af9190620015b9565b62001347565b8073ffffffffffffffffffffffffffffffffffffffff1663e99d2866336040518263ffffffff1660e01b8152600401620012f0919062001980565b602060405180830381600087803b1580156200130b57600080fd5b505af115801562001320573d6000803e3d6000fd5b505050506040513d601f19601f82011682018060405250810190620013469190620015b9565b5b506224ea004262001359919062001bbe565b60026000868152602001908152602001600020819055508073ffffffffffffffffffffffffffffffffffffffff16632e49d78b60026040518263ffffffff1660e01b8152600401620013ac9190620019d7565b602060405180830381600087803b158015620013c757600080fd5b505af1158015620013dc573d6000803e3d6000fd5b505050506040513d601f19601f8201168201806040525081019062001402919062001742565b5083925050509392505050565b6001816000016000828254019250508190555050565b600081600001549050919050565b6040518060200160405280600081525090565b611a278062001f5083390190565b6040518060a00160405280600590602082028036833780820191505090505090565b60006200148d620014878462001b57565b62001b2e565b90508082856020860282011115620014aa57620014a962001ddd565b5b60005b85811015620014de5781620014c3888262001574565b845260208401935060208301925050600181019050620014ad565b5050509392505050565b600081519050620014f98162001ed6565b92915050565b600082601f83011262001517576200151662001dd8565b5b60056200152684828562001476565b91505092915050565b600081359050620015408162001ef0565b92915050565b600081519050620015578162001f0a565b92915050565b6000813590506200156e8162001f1b565b92915050565b600081519050620015858162001f1b565b92915050565b6000813590506200159c8162001f35565b92915050565b600081519050620015b38162001f35565b92915050565b600060208284031215620015d257620015d162001de2565b5b6000620015e284828501620014e8565b91505092915050565b600060a0828403121562001604576200160362001de2565b5b60006200161484828501620014ff565b91505092915050565b60008060006060848603121562001639576200163862001de2565b5b600062001649868287016200152f565b93505060206200165c868287016200155d565b92505060406200166f868287016200155d565b9150509250925092565b600080600080600080600080610100898b0312156200169d576200169c62001de2565b5b6000620016ad8b828c016200152f565b9850506020620016c08b828c016200155d565b9750506040620016d38b828c016200155d565b9650506060620016e68b828c016200155d565b9550506080620016f98b828c016200155d565b94505060a06200170c8b828c016200155d565b93505060c06200171f8b828c016200158b565b92505060e0620017328b828c016200158b565b9150509295985092959890939650565b6000602082840312156200175b576200175a62001de2565b5b60006200176b8482850162001546565b91505092915050565b6000602082840312156200178d576200178c62001de2565b5b60006200179d848285016200155d565b91505092915050565b600060208284031215620017bf57620017be62001de2565b5b6000620017cf8482850162001574565b91505092915050565b600060208284031215620017f157620017f062001de2565b5b60006200180184828501620015a2565b91505092915050565b60006200181883836200194d565b60208301905092915050565b6200182f8162001c56565b82525050565b620018408162001b8a565b6200184c818462001ba2565b9250620018598262001b80565b8060005b83811015620018905781516200187487826200180a565b9650620018818362001b95565b9250506001810190506200185d565b505050505050565b620018a38162001cc5565b82525050565b620018b48162001cd9565b82525050565b6000620018c960278362001bad565b9150620018d68262001df8565b604082019050919050565b6000620018f060268362001bad565b9150620018fd8262001e47565b604082019050919050565b60006200191760138362001bad565b9150620019248262001e96565b602082019050919050565b6020820160008201516200194760008501826200194d565b50505050565b620019588162001cab565b82525050565b620019698162001cab565b82525050565b6200197a8162001cb5565b82525050565b600060208201905062001997600083018462001824565b92915050565b600060a082019050620019b4600083018462001835565b92915050565b6000602082019050620019d1600083018462001898565b92915050565b6000602082019050620019ee6000830184620018a9565b92915050565b6000602082019050818103600083015262001a0f81620018ba565b9050919050565b6000602082019050818103600083015262001a3181620018e1565b9050919050565b6000602082019050818103600083015262001a538162001908565b9050919050565b600060208201905062001a7160008301846200192f565b92915050565b600060208201905062001a8e60008301846200195e565b92915050565b600060e08201905062001aab600083018a6200195e565b62001aba60208301896200195e565b62001ac960408301886200195e565b62001ad860608301876200195e565b62001ae760808301866200195e565b62001af660a08301856200196f565b62001b0560c08301846200196f565b98975050505050505050565b600060208201905062001b2860008301846200196f565b92915050565b600062001b3a62001b4d565b905062001b48828262001d15565b919050565b6000604051905090565b600067ffffffffffffffff82111562001b755762001b7462001da9565b5b602082029050919050565b6000819050919050565b600060059050919050565b6000602082019050919050565b600081905092915050565b600082825260208201905092915050565b600062001bcb8262001cab565b915062001bd88362001cab565b9250827fffffffffffffffffffffffffffffffffffffffffffffffffffffffffffffffff0382111562001c105762001c0f62001d4b565b5b828201905092915050565b600062001c288262001cb5565b915062001c358362001cb5565b92508282101562001c4b5762001c4a62001d4b565b5b828203905092915050565b600062001c638262001c8b565b9050919050565b60008115159050919050565b600081905062001c868262001ebf565b919050565b600073ffffffffffffffffffffffffffffffffffffffff82169050919050565b6000819050919050565b600063ffffffff82169050919050565b600062001cd28262001ced565b9050919050565b600062001ce68262001c76565b9050919050565b600062001cfa8262001d01565b9050919050565b600062001d0e8262001c8b565b9050919050565b62001d208262001de7565b810181811067ffffffffffffffff8211171562001d425762001d4162001da9565b5b80604052505050565b7f4e487b7100000000000000000000000000000000000000000000000000000000600052601160045260246000fd5b7f4e487b7100000000000000000000000000000000000000000000000000000000600052602160045260246000fd5b7f4e487b7100000000000000000000000000000000000000000000000000000000600052604160045260246000fd5b600080fd5b600080fd5b600080fd5b6000601f19601f8301169050919050565b7f54686520737461747573206f6620746865204344532073686f756c642062652060008201527f70656e64696e6700000000000000000000000000000000000000000000000000602082015250565b7f54686520737461747573206f6620746865204344532073686f756c642062652060008201527f6163746976650000000000000000000000000000000000000000000000000000602082015250565b7f526f756e6420616c726561647920656e64656400000000000000000000000000600082015250565b6005811062001ed35762001ed262001d7a565b5b50565b62001ee18162001c56565b811462001eed57600080fd5b50565b62001efb8162001c6a565b811462001f0757600080fd5b50565b6005811062001f1857600080fd5b50565b62001f268162001cab565b811462001f3257600080fd5b50565b62001f408162001cb5565b811462001f4c57600080fd5b5056fe60806040523480156200001157600080fd5b5060405162001a2738038062001a278339818101604052810190620000379190620003f1565b620000576200004b6200028960201b60201c565b6200029160201b60201c565b733e0e765c10497bb01f562b2f9af50c621ab8eda4600160006101000a81548173ffffffffffffffffffffffffffffffffffffffff021916908373ffffffffffffffffffffffffffffffffffffffff160217905550866003819055508560048190555084600581905550836006819055508260078190555081600a60146101000a81548163ffffffff021916908363ffffffff16021790555081600a60186101000a81548163ffffffff021916908363ffffffff160217905550620001336005546007546003546200035560201b62000a4c179092919060201c565b60088190555060008163ffffffff16148062000155575060018163ffffffff16145b8062000167575060028163ffffffff16145b620001a9576040517f08c379a0000000000000000000000000000000000000000000000000000000008152600401620001a090620004cb565b60405180910390fd5b80600a601c6101000a81548163ffffffff021916908363ffffffff1602179055506000600960006101000a81548173ffffffffffffffffffffffffffffffffffffffff021916908373ffffffffffffffffffffffffffffffffffffffff1602179055506000600a60006101000a81548173ffffffffffffffffffffffffffffffffffffffff021916908373ffffffffffffffffffffffffffffffffffffffff1602179055506001600260146101000a81548160ff02191690836004811115620002775762000276620005e9565b5b0217905550505050505050506200067a565b600033905090565b60008060009054906101000a900473ffffffffffffffffffffffffffffffffffffffff169050816000806101000a81548173ffffffffffffffffffffffffffffffffffffffff021916908373ffffffffffffffffffffffffffffffffffffffff1602179055508173ffffffffffffffffffffffffffffffffffffffff168173ffffffffffffffffffffffffffffffffffffffff167f8be0079c531659141344cd1fd0a4f28419497f9722a3daafe3b4186f6b6457e060405160405180910390a35050565b60006200038a6200037584866200039360201b62000a7c1790919060201c565b83620003ab60201b62000a921790919060201c565b90509392505050565b60008183620003a3919062000536565b905092915050565b60008183620003bb9190620004fe565b905092915050565b600081519050620003d48162000646565b92915050565b600081519050620003eb8162000660565b92915050565b600080600080600080600060e0888a03121562000413576200041262000618565b5b6000620004238a828b01620003c3565b9750506020620004368a828b01620003c3565b9650506040620004498a828b01620003c3565b95505060606200045c8a828b01620003c3565b94505060806200046f8a828b01620003c3565b93505060a0620004828a828b01620003da565b92505060c0620004958a828b01620003da565b91505092959891949750929550565b6000620004b3601483620004ed565b9150620004c0826200061d565b602082019050919050565b60006020820190508181036000830152620004e681620004a4565b9050919050565b600082825260208201905092915050565b60006200050b8262000571565b9150620005188362000571565b9250826200052b576200052a620005ba565b5b828204905092915050565b6000620005438262000571565b9150620005508362000571565b9250828210156200056657620005656200058b565b5b828203905092915050565b6000819050919050565b600063ffffffff82169050919050565b7f4e487b7100000000000000000000000000000000000000000000000000000000600052601160045260246000fd5b7f4e487b7100000000000000000000000000000000000000000000000000000000600052601260045260246000fd5b7f4e487b7100000000000000000000000000000000000000000000000000000000600052602160045260246000fd5b600080fd5b7f4254433a302c204554483a312c204c494e4b3a32000000000000000000000000600082015250565b620006518162000571565b81146200065d57600080fd5b50565b6200066b816200057b565b81146200067757600080fd5b50565b61139d806200068a6000396000f3fe608060405234801561001057600080fd5b50600436106101735760003560e01c8063a2e800ad116100de578063d2895e9311610097578063e0a73a9311610071578063e0a73a9314610422578063e99d286614610440578063f26cc58e14610470578063f2fde38b1461048e57610173565b8063d2895e93146103b6578063dbd0e1b6146103e6578063dd22db801461040457610173565b8063a2e800ad146102de578063a3f09ad6146102fc578063a607a8d91461032c578063b6fc2d5f1461034a578063bd9a548b14610368578063bef904e31461038657610173565b8063603daf9a11610130578063603daf9a1461023e578063715018a61461025c578063762db7ee1461026657806386be75b7146102845780638a568299146102a25780638da5cb5b146102c057610173565b806315d655c914610178578063200d2ed2146101965780632dddd49c146101b45780632e49d78b146101d25780633fe3347a146102025780634c1786ea14610220575b600080fd5b6101806104aa565b60405161018d9190611050565b60405180910390f35b61019e6104b0565b6040516101ab9190610ff5565b60405180910390f35b6101bc6104c3565b6040516101c99190611050565b60405180910390f35b6101ec60048036038101906101e79190610e0b565b61056f565b6040516101f99190610ff5565b60405180910390f35b61020a6105ba565b604051610217919061106b565b60405180910390f35b6102286105d0565b6040516102359190611050565b60405180910390f35b6102466105d6565b6040516102539190610fbf565b60405180910390f35b610264610600565b005b61026e610614565b60405161027b9190611050565b60405180910390f35b61028c61061a565b6040516102999190611050565b60405180910390f35b6102aa610620565b6040516102b7919061106b565b60405180910390f35b6102c8610636565b6040516102d59190610fbf565b60405180910390f35b6102e661065f565b6040516102f3919061106b565b60405180910390f35b61031660048036038101906103119190610dde565b610675565b6040516103239190610fbf565b60405180910390f35b6103346106ea565b6040516103419190611050565b60405180910390f35b610352610796565b60405161035f9190611050565b60405180910390f35b61037061079c565b60405161037d9190610fda565b60405180910390f35b6103a0600480360381019061039b9190610e38565b6107da565b6040516103ad9190611050565b60405180910390f35b6103d060048036038101906103cb9190610e92565b6107ed565b6040516103dd919061106b565b60405180910390f35b6103ee610832565b6040516103fb9190610fbf565b60405180910390f35b61040c61085c565b6040516104199190611050565b60405180910390f35b61042a610908565b6040516104379190611050565b60405180910390f35b61045a60048036038101906104559190610dde565b61090e565b6040516104679190610fbf565b60405180910390f35b610478610983565b6040516104859190611050565b60405180910390f35b6104a860048036038101906104a39190610dde565b6109c8565b005b60045481565b600260149054906101000a900460ff1681565b600080600160009054906101000a900473ffffffffffffffffffffffffffffffffffffffff1673ffffffffffffffffffffffffffffffffffffffff16630cf785356040518163ffffffff1660e01b815260040160206040518083038186803b15801561052e57600080fd5b505afa158015610542573d6000803e3d6000fd5b505050506040513d601f19601f820116820180604052508101906105669190610e65565b90508091505090565b6000610579610aa8565b81600260146101000a81548160ff0219169083600481111561059e5761059d611252565b5b0217905550600260149054906101000a900460ff169050919050565b600a601c9054906101000a900463ffffffff1681565b60075481565b6000600960009054906101000a900473ffffffffffffffffffffffffffffffffffffffff16905090565b610608610aa8565b6106126000610b26565b565b60085481565b60035481565b600a60189054906101000a900463ffffffff1681565b60008060009054906101000a900473ffffffffffffffffffffffffffffffffffffffff16905090565b600a60149054906101000a900463ffffffff1681565b600061067f610aa8565b81600960006101000a81548173ffffffffffffffffffffffffffffffffffffffff021916908373ffffffffffffffffffffffffffffffffffffffff160217905550600960009054906101000a900473ffffffffffffffffffffffffffffffffffffffff169050919050565b600080600160009054906101000a900473ffffffffffffffffffffffffffffffffffffffff1673ffffffffffffffffffffffffffffffffffffffff1663ff186b2e6040518163ffffffff1660e01b815260040160206040518083038186803b15801561075557600080fd5b505afa158015610769573d6000803e3d6000fd5b505050506040513d601f19601f8201168201806040525081019061078d9190610e65565b90508091505090565b60055481565b6107a4610d53565b6040518060a001604052806003548152602001600454815260200160055481526020016006548152602001600754815250905090565b6000816003819055506003549050919050565b60006107f7610aa8565b81600a60146101000a81548163ffffffff021916908363ffffffff160217905550600a60149054906101000a900463ffffffff169050919050565b6000600a60009054906101000a900473ffffffffffffffffffffffffffffffffffffffff16905090565b600080600160009054906101000a900473ffffffffffffffffffffffffffffffffffffffff1673ffffffffffffffffffffffffffffffffffffffff1663a8ad52d16040518163ffffffff1660e01b815260040160206040518083038186803b1580156108c757600080fd5b505afa1580156108db573d6000803e3d6000fd5b505050506040513d601f19601f820116820180604052508101906108ff9190610e65565b90508091505090565b60065481565b6000610918610aa8565b81600a60006101000a81548173ffffffffffffffffffffffffffffffffffffffff021916908373ffffffffffffffffffffffffffffffffffffffff160217905550600a60009054906101000a900473ffffffffffffffffffffffffffffffffffffffff169050919050565b60008061098e610bea565b90508060045410156109a45760009150506109c5565b6109c160055460035483600754610cc5909392919063ffffffff16565b9150505b90565b6109d0610aa8565b600073ffffffffffffffffffffffffffffffffffffffff168173ffffffffffffffffffffffffffffffffffffffff161415610a40576040517f08c379a0000000000000000000000000000000000000000000000000000000008152600401610a3790611010565b60405180910390fd5b610a4981610b26565b50565b6000610a73610a648486610a7c90919063ffffffff16565b83610a9290919063ffffffff16565b90509392505050565b60008183610a8a919061114f565b905092915050565b60008183610aa091906110c4565b905092915050565b610ab0610d35565b73ffffffffffffffffffffffffffffffffffffffff16610ace610636565b73ffffffffffffffffffffffffffffffffffffffff1614610b24576040517f08c379a0000000000000000000000000000000000000000000000000000000008152600401610b1b90611030565b60405180910390fd5b565b60008060009054906101000a900473ffffffffffffffffffffffffffffffffffffffff169050816000806101000a81548173ffffffffffffffffffffffffffffffffffffffff021916908373ffffffffffffffffffffffffffffffffffffffff1602179055508173ffffffffffffffffffffffffffffffffffffffff168173ffffffffffffffffffffffffffffffffffffffff167f8be0079c531659141344cd1fd0a4f28419497f9722a3daafe3b4186f6b6457e060405160405180910390a35050565b600080600a601c9054906101000a900463ffffffff1663ffffffff161415610c3157610c2a6305f5e100610c1c61085c565b610a9290919063ffffffff16565b9050610cc2565b6001600a601c9054906101000a900463ffffffff1663ffffffff161415610c7757610c706305f5e100610c626106ea565b610a9290919063ffffffff16565b9050610cc2565b6002600a601c9054906101000a900463ffffffff1663ffffffff161415610cbd57610cb66305f5e100610ca86104c3565b610a9290919063ffffffff16565b9050610cc2565b600090505b90565b600080828510610cd757859050610d29565b6000610cfe610cef8787610a7c90919063ffffffff16565b88610a9290919063ffffffff16565b9050610d25610d168587610a7c90919063ffffffff16565b82610d3d90919063ffffffff16565b9150505b80915050949350505050565b600033905090565b60008183610d4b91906110f5565b905092915050565b6040518060a00160405280600590602082028036833780820191505090505090565b600081359050610d8481611312565b92915050565b600081359050610d9981611329565b92915050565b600081359050610dae81611339565b92915050565b600081519050610dc381611339565b92915050565b600081359050610dd881611350565b92915050565b600060208284031215610df457610df3611281565b5b6000610e0284828501610d75565b91505092915050565b600060208284031215610e2157610e20611281565b5b6000610e2f84828501610d8a565b91505092915050565b600060208284031215610e4e57610e4d611281565b5b6000610e5c84828501610d9f565b91505092915050565b600060208284031215610e7b57610e7a611281565b5b6000610e8984828501610db4565b91505092915050565b600060208284031215610ea857610ea7611281565b5b6000610eb684828501610dc9565b91505092915050565b6000610ecb8383610f92565b60208301905092915050565b610ee081611183565b82525050565b610eef81611090565b610ef981846110a8565b9250610f0482611086565b8060005b83811015610f35578151610f1c8782610ebf565b9650610f278361109b565b925050600181019050610f08565b505050505050565b610f46816111e2565b82525050565b6000610f596026836110b3565b9150610f6482611286565b604082019050919050565b6000610f7c6020836110b3565b9150610f87826112d5565b602082019050919050565b610f9b816111c8565b82525050565b610faa816111c8565b82525050565b610fb9816111d2565b82525050565b6000602082019050610fd46000830184610ed7565b92915050565b600060a082019050610fef6000830184610ee6565b92915050565b600060208201905061100a6000830184610f3d565b92915050565b6000602082019050818103600083015261102981610f4c565b9050919050565b6000602082019050818103600083015261104981610f6f565b9050919050565b60006020820190506110656000830184610fa1565b92915050565b60006020820190506110806000830184610fb0565b92915050565b6000819050919050565b600060059050919050565b6000602082019050919050565b600081905092915050565b600082825260208201905092915050565b60006110cf826111c8565b91506110da836111c8565b9250826110ea576110e9611223565b5b828204905092915050565b6000611100826111c8565b915061110b836111c8565b9250817fffffffffffffffffffffffffffffffffffffffffffffffffffffffffffffffff0483118215151615611144576111436111f4565b5b828202905092915050565b600061115a826111c8565b9150611165836111c8565b925082821015611178576111776111f4565b5b828203905092915050565b600061118e826111a8565b9050919050565b60008190506111a3826112fe565b919050565b600073ffffffffffffffffffffffffffffffffffffffff82169050919050565b6000819050919050565b600063ffffffff82169050919050565b60006111ed82611195565b9050919050565b7f4e487b7100000000000000000000000000000000000000000000000000000000600052601160045260246000fd5b7f4e487b7100000000000000000000000000000000000000000000000000000000600052601260045260246000fd5b7f4e487b7100000000000000000000000000000000000000000000000000000000600052602160045260246000fd5b600080fd5b7f4f776e61626c653a206e6577206f776e657220697320746865207a65726f206160008201527f6464726573730000000000000000000000000000000000000000000000000000602082015250565b7f4f776e61626c653a2063616c6c6572206973206e6f7420746865206f776e6572600082015250565b6005811061130f5761130e611252565b5b50565b61131b81611183565b811461132657600080fd5b50565b6005811061133657600080fd5b50565b611342816111c8565b811461134d57600080fd5b50565b611359816111d2565b811461136457600080fd5b5056fea26469706673582212207d137514ce3b0d2c869c398724d3828158c0cf47d8ce8178946b659ac013b39a64736f6c63430008070033a26469706673582212203fc6840b9a32c83c3a2791ab937b004daf774fd5805833b2cb30e7f0796ab7be64736f6c63430008070033",
			"opcodes": "PUSH1 0x80 PUSH1 0x40 MSTORE CALLVALUE DUP1 ISZERO PUSH2 0x10 JUMPI PUSH1 0x0 DUP1 REVERT JUMPDEST POP PUSH2 0x39AC DUP1 PUSH2 0x20 PUSH1 0x0 CODECOPY PUSH1 0x0 RETURN INVALID PUSH1 0x80 PUSH1 0x40 MSTORE CALLVALUE DUP1 ISZERO PUSH3 0x11 JUMPI PUSH1 0x0 DUP1 REVERT JUMPDEST POP PUSH1 0x4 CALLDATASIZE LT PUSH3 0x118 JUMPI PUSH1 0x0 CALLDATALOAD PUSH1 0xE0 SHR DUP1 PUSH4 0x5BF608B8 GT PUSH3 0xA5 JUMPI DUP1 PUSH4 0x8BFD13AE GT PUSH3 0x6F JUMPI DUP1 PUSH4 0x8BFD13AE EQ PUSH3 0x339 JUMPI DUP1 PUSH4 0x91492956 EQ PUSH3 0x36F JUMPI DUP1 PUSH4 0xD6A9DE51 EQ PUSH3 0x3A5 JUMPI DUP1 PUSH4 0xF566EDAC EQ PUSH3 0x3DB JUMPI PUSH3 0x118 JUMP JUMPDEST DUP1 PUSH4 0x5BF608B8 EQ PUSH3 0x261 JUMPI DUP1 PUSH4 0x5C622A0E EQ PUSH3 0x297 JUMPI DUP1 PUSH4 0x88106323 EQ PUSH3 0x2CD JUMPI DUP1 PUSH4 0x8A614DD5 EQ PUSH3 0x303 JUMPI PUSH3 0x118 JUMP JUMPDEST DUP1 PUSH4 0x40E58EE5 GT PUSH3 0xE7 JUMPI DUP1 PUSH4 0x40E58EE5 EQ PUSH3 0x1C9 JUMPI DUP1 PUSH4 0x4364B26E EQ PUSH3 0x1E9 JUMPI DUP1 PUSH4 0x496AB39A EQ PUSH3 0x209 JUMPI DUP1 PUSH4 0x4A0D89BA EQ PUSH3 0x22B JUMPI PUSH3 0x118 JUMP JUMPDEST DUP1 PUSH4 0xAEBEB4E EQ PUSH3 0x11D JUMPI DUP1 PUSH4 0x13EF3DCC EQ PUSH3 0x13D JUMPI DUP1 PUSH4 0x1BF1FFFB EQ PUSH3 0x173 JUMPI DUP1 PUSH4 0x379607F5 EQ PUSH3 0x1A9 JUMPI JUMPDEST PUSH1 0x0 DUP1 REVERT JUMPDEST PUSH3 0x13B PUSH1 0x4 DUP1 CALLDATASIZE SUB DUP2 ADD SWAP1 PUSH3 0x135 SWAP2 SWAP1 PUSH3 0x1774 JUMP JUMPDEST PUSH3 0x411 JUMP JUMPDEST STOP JUMPDEST PUSH3 0x15B PUSH1 0x4 DUP1 CALLDATASIZE SUB DUP2 ADD SWAP1 PUSH3 0x155 SWAP2 SWAP1 PUSH3 0x1774 JUMP JUMPDEST PUSH3 0x52D JUMP JUMPDEST PUSH1 0x40 MLOAD PUSH3 0x16A SWAP2 SWAP1 PUSH3 0x1B11 JUMP JUMPDEST PUSH1 0x40 MLOAD DUP1 SWAP2 SUB SWAP1 RETURN JUMPDEST PUSH3 0x191 PUSH1 0x4 DUP1 CALLDATASIZE SUB DUP2 ADD SWAP1 PUSH3 0x18B SWAP2 SWAP1 PUSH3 0x1774 JUMP JUMPDEST PUSH3 0x5EB JUMP JUMPDEST PUSH1 0x40 MLOAD PUSH3 0x1A0 SWAP2 SWAP1 PUSH3 0x1A77 JUMP JUMPDEST PUSH1 0x40 MLOAD DUP1 SWAP2 SUB SWAP1 RETURN JUMPDEST PUSH3 0x1C7 PUSH1 0x4 DUP1 CALLDATASIZE SUB DUP2 ADD SWAP1 PUSH3 0x1C1 SWAP2 SWAP1 PUSH3 0x1774 JUMP JUMPDEST PUSH3 0x6A9 JUMP JUMPDEST STOP JUMPDEST PUSH3 0x1E7 PUSH1 0x4 DUP1 CALLDATASIZE SUB DUP2 ADD SWAP1 PUSH3 0x1E1 SWAP2 SWAP1 PUSH3 0x1774 JUMP JUMPDEST PUSH3 0x7C5 JUMP JUMPDEST STOP JUMPDEST PUSH3 0x207 PUSH1 0x4 DUP1 CALLDATASIZE SUB DUP2 ADD SWAP1 PUSH3 0x201 SWAP2 SWAP1 PUSH3 0x1774 JUMP JUMPDEST PUSH3 0x8E1 JUMP JUMPDEST STOP JUMPDEST PUSH3 0x213 PUSH3 0xA99 JUMP JUMPDEST PUSH1 0x40 MLOAD PUSH3 0x222 SWAP2 SWAP1 PUSH3 0x1A5A JUMP JUMPDEST PUSH1 0x40 MLOAD DUP1 SWAP2 SUB SWAP1 RETURN JUMPDEST PUSH3 0x249 PUSH1 0x4 DUP1 CALLDATASIZE SUB DUP2 ADD SWAP1 PUSH3 0x243 SWAP2 SWAP1 PUSH3 0x1774 JUMP JUMPDEST PUSH3 0xABF JUMP JUMPDEST PUSH1 0x40 MLOAD PUSH3 0x258 SWAP2 SWAP1 PUSH3 0x19BA JUMP JUMPDEST PUSH1 0x40 MLOAD DUP1 SWAP2 SUB SWAP1 RETURN JUMPDEST PUSH3 0x27F PUSH1 0x4 DUP1 CALLDATASIZE SUB DUP2 ADD SWAP1 PUSH3 0x279 SWAP2 SWAP1 PUSH3 0x1774 JUMP JUMPDEST PUSH3 0xAFC JUMP JUMPDEST PUSH1 0x40 MLOAD PUSH3 0x28E SWAP2 SWAP1 PUSH3 0x1980 JUMP JUMPDEST PUSH1 0x40 MLOAD DUP1 SWAP2 SUB SWAP1 RETURN JUMPDEST PUSH3 0x2B5 PUSH1 0x4 DUP1 CALLDATASIZE SUB DUP2 ADD SWAP1 PUSH3 0x2AF SWAP2 SWAP1 PUSH3 0x1774 JUMP JUMPDEST PUSH3 0xBBA JUMP JUMPDEST PUSH1 0x40 MLOAD PUSH3 0x2C4 SWAP2 SWAP1 PUSH3 0x19D7 JUMP JUMPDEST PUSH1 0x40 MLOAD DUP1 SWAP2 SUB SWAP1 RETURN JUMPDEST PUSH3 0x2EB PUSH1 0x4 DUP1 CALLDATASIZE SUB DUP2 ADD SWAP1 PUSH3 0x2E5 SWAP2 SWAP1 PUSH3 0x1774 JUMP JUMPDEST PUSH3 0xC78 JUMP JUMPDEST PUSH1 0x40 MLOAD PUSH3 0x2FA SWAP2 SWAP1 PUSH3 0x1A77 JUMP JUMPDEST PUSH1 0x40 MLOAD DUP1 SWAP2 SUB SWAP1 RETURN JUMPDEST PUSH3 0x321 PUSH1 0x4 DUP1 CALLDATASIZE SUB DUP2 ADD SWAP1 PUSH3 0x31B SWAP2 SWAP1 PUSH3 0x1679 JUMP JUMPDEST PUSH3 0xD36 JUMP JUMPDEST PUSH1 0x40 MLOAD PUSH3 0x330 SWAP2 SWAP1 PUSH3 0x1A77 JUMP JUMPDEST PUSH1 0x40 MLOAD DUP1 SWAP2 SUB SWAP1 RETURN JUMPDEST PUSH3 0x357 PUSH1 0x4 DUP1 CALLDATASIZE SUB DUP2 ADD SWAP1 PUSH3 0x351 SWAP2 SWAP1 PUSH3 0x1774 JUMP JUMPDEST PUSH3 0xF30 JUMP JUMPDEST PUSH1 0x40 MLOAD PUSH3 0x366 SWAP2 SWAP1 PUSH3 0x1A77 JUMP JUMPDEST PUSH1 0x40 MLOAD DUP1 SWAP2 SUB SWAP1 RETURN JUMPDEST PUSH3 0x38D PUSH1 0x4 DUP1 CALLDATASIZE SUB DUP2 ADD SWAP1 PUSH3 0x387 SWAP2 SWAP1 PUSH3 0x1774 JUMP JUMPDEST PUSH3 0xF4D JUMP JUMPDEST PUSH1 0x40 MLOAD PUSH3 0x39C SWAP2 SWAP1 PUSH3 0x199D JUMP JUMPDEST PUSH1 0x40 MLOAD DUP1 SWAP2 SUB SWAP1 RETURN JUMPDEST PUSH3 0x3C3 PUSH1 0x4 DUP1 CALLDATASIZE SUB DUP2 ADD SWAP1 PUSH3 0x3BD SWAP2 SWAP1 PUSH3 0x1774 JUMP JUMPDEST PUSH3 0x1013 JUMP JUMPDEST PUSH1 0x40 MLOAD PUSH3 0x3D2 SWAP2 SWAP1 PUSH3 0x1980 JUMP JUMPDEST PUSH1 0x40 MLOAD DUP1 SWAP2 SUB SWAP1 RETURN JUMPDEST PUSH3 0x3F9 PUSH1 0x4 DUP1 CALLDATASIZE SUB DUP2 ADD SWAP1 PUSH3 0x3F3 SWAP2 SWAP1 PUSH3 0x161D JUMP JUMPDEST PUSH3 0x10D1 JUMP JUMPDEST PUSH1 0x40 MLOAD PUSH3 0x408 SWAP2 SWAP1 PUSH3 0x1A77 JUMP JUMPDEST PUSH1 0x40 MLOAD DUP1 SWAP2 SUB SWAP1 RETURN JUMPDEST DUP1 PUSH1 0x2 PUSH1 0x4 DUP2 GT ISZERO PUSH3 0x429 JUMPI PUSH3 0x428 PUSH3 0x1D7A JUMP JUMPDEST JUMPDEST PUSH3 0x434 DUP3 PUSH3 0xBBA JUMP JUMPDEST PUSH1 0x4 DUP2 GT ISZERO PUSH3 0x449 JUMPI PUSH3 0x448 PUSH3 0x1D7A JUMP JUMPDEST JUMPDEST EQ PUSH3 0x48C JUMPI PUSH1 0x40 MLOAD PUSH32 0x8C379A000000000000000000000000000000000000000000000000000000000 DUP2 MSTORE PUSH1 0x4 ADD PUSH3 0x483 SWAP1 PUSH3 0x1A16 JUMP JUMPDEST PUSH1 0x40 MLOAD DUP1 SWAP2 SUB SWAP1 REVERT JUMPDEST PUSH3 0x497 DUP3 PUSH3 0xABF JUMP JUMPDEST PUSH20 0xFFFFFFFFFFFFFFFFFFFFFFFFFFFFFFFFFFFFFFFF AND PUSH4 0x2E49D78B PUSH1 0x4 PUSH1 0x40 MLOAD DUP3 PUSH4 0xFFFFFFFF AND PUSH1 0xE0 SHL DUP2 MSTORE PUSH1 0x4 ADD PUSH3 0x4D2 SWAP2 SWAP1 PUSH3 0x19D7 JUMP JUMPDEST PUSH1 0x20 PUSH1 0x40 MLOAD DUP1 DUP4 SUB DUP2 PUSH1 0x0 DUP8 DUP1 EXTCODESIZE ISZERO DUP1 ISZERO PUSH3 0x4ED JUMPI PUSH1 0x0 DUP1 REVERT JUMPDEST POP GAS CALL ISZERO DUP1 ISZERO PUSH3 0x502 JUMPI RETURNDATASIZE PUSH1 0x0 DUP1 RETURNDATACOPY RETURNDATASIZE PUSH1 0x0 REVERT JUMPDEST POP POP POP POP PUSH1 0x40 MLOAD RETURNDATASIZE PUSH1 0x1F NOT PUSH1 0x1F DUP3 ADD AND DUP3 ADD DUP1 PUSH1 0x40 MSTORE POP DUP2 ADD SWAP1 PUSH3 0x528 SWAP2 SWAP1 PUSH3 0x1742 JUMP JUMPDEST POP POP POP JUMP JUMPDEST PUSH1 0x0 PUSH1 0x1 PUSH1 0x0 DUP4 DUP2 MSTORE PUSH1 0x20 ADD SWAP1 DUP2 MSTORE PUSH1 0x20 ADD PUSH1 0x0 KECCAK256 PUSH1 0x0 SWAP1 SLOAD SWAP1 PUSH2 0x100 EXP SWAP1 DIV PUSH20 0xFFFFFFFFFFFFFFFFFFFFFFFFFFFFFFFFFFFFFFFF AND PUSH20 0xFFFFFFFFFFFFFFFFFFFFFFFFFFFFFFFFFFFFFFFF AND PUSH4 0xA2E800AD PUSH1 0x40 MLOAD DUP2 PUSH4 0xFFFFFFFF AND PUSH1 0xE0 SHL DUP2 MSTORE PUSH1 0x4 ADD PUSH1 0x20 PUSH1 0x40 MLOAD DUP1 DUP4 SUB DUP2 DUP7 DUP1 EXTCODESIZE ISZERO DUP1 ISZERO PUSH3 0x5A9 JUMPI PUSH1 0x0 DUP1 REVERT JUMPDEST POP GAS STATICCALL ISZERO DUP1 ISZERO PUSH3 0x5BE JUMPI RETURNDATASIZE PUSH1 0x0 DUP1 RETURNDATACOPY RETURNDATASIZE PUSH1 0x0 REVERT JUMPDEST POP POP POP POP PUSH1 0x40 MLOAD RETURNDATASIZE PUSH1 0x1F NOT PUSH1 0x1F DUP3 ADD AND DUP3 ADD DUP1 PUSH1 0x40 MSTORE POP DUP2 ADD SWAP1 PUSH3 0x5E4 SWAP2 SWAP1 PUSH3 0x17D8 JUMP JUMPDEST SWAP1 POP SWAP2 SWAP1 POP JUMP JUMPDEST PUSH1 0x0 PUSH1 0x1 PUSH1 0x0 DUP4 DUP2 MSTORE PUSH1 0x20 ADD SWAP1 DUP2 MSTORE PUSH1 0x20 ADD PUSH1 0x0 KECCAK256 PUSH1 0x0 SWAP1 SLOAD SWAP1 PUSH2 0x100 EXP SWAP1 DIV PUSH20 0xFFFFFFFFFFFFFFFFFFFFFFFFFFFFFFFFFFFFFFFF AND PUSH20 0xFFFFFFFFFFFFFFFFFFFFFFFFFFFFFFFFFFFFFFFF AND PUSH4 0xE0A73A93 PUSH1 0x40 MLOAD DUP2 PUSH4 0xFFFFFFFF AND PUSH1 0xE0 SHL DUP2 MSTORE PUSH1 0x4 ADD PUSH1 0x20 PUSH1 0x40 MLOAD DUP1 DUP4 SUB DUP2 DUP7 DUP1 EXTCODESIZE ISZERO DUP1 ISZERO PUSH3 0x667 JUMPI PUSH1 0x0 DUP1 REVERT JUMPDEST POP GAS STATICCALL ISZERO DUP1 ISZERO PUSH3 0x67C JUMPI RETURNDATASIZE PUSH1 0x0 DUP1 RETURNDATACOPY RETURNDATASIZE PUSH1 0x0 REVERT JUMPDEST POP POP POP POP PUSH1 0x40 MLOAD RETURNDATASIZE PUSH1 0x1F NOT PUSH1 0x1F DUP3 ADD AND DUP3 ADD DUP1 PUSH1 0x40 MSTORE POP DUP2 ADD SWAP1 PUSH3 0x6A2 SWAP2 SWAP1 PUSH3 0x17A6 JUMP JUMPDEST SWAP1 POP SWAP2 SWAP1 POP JUMP JUMPDEST DUP1 PUSH1 0x2 PUSH1 0x4 DUP2 GT ISZERO PUSH3 0x6C1 JUMPI PUSH3 0x6C0 PUSH3 0x1D7A JUMP JUMPDEST JUMPDEST PUSH3 0x6CC DUP3 PUSH3 0xBBA JUMP JUMPDEST PUSH1 0x4 DUP2 GT ISZERO PUSH3 0x6E1 JUMPI PUSH3 0x6E0 PUSH3 0x1D7A JUMP JUMPDEST JUMPDEST EQ PUSH3 0x724 JUMPI PUSH1 0x40 MLOAD PUSH32 0x8C379A000000000000000000000000000000000000000000000000000000000 DUP2 MSTORE PUSH1 0x4 ADD PUSH3 0x71B SWAP1 PUSH3 0x1A16 JUMP JUMPDEST PUSH1 0x40 MLOAD DUP1 SWAP2 SUB SWAP1 REVERT JUMPDEST PUSH3 0x72F DUP3 PUSH3 0xABF JUMP JUMPDEST PUSH20 0xFFFFFFFFFFFFFFFFFFFFFFFFFFFFFFFFFFFFFFFF AND PUSH4 0x2E49D78B PUSH1 0x3 PUSH1 0x40 MLOAD DUP3 PUSH4 0xFFFFFFFF AND PUSH1 0xE0 SHL DUP2 MSTORE PUSH1 0x4 ADD PUSH3 0x76A SWAP2 SWAP1 PUSH3 0x19D7 JUMP JUMPDEST PUSH1 0x20 PUSH1 0x40 MLOAD DUP1 DUP4 SUB DUP2 PUSH1 0x0 DUP8 DUP1 EXTCODESIZE ISZERO DUP1 ISZERO PUSH3 0x785 JUMPI PUSH1 0x0 DUP1 REVERT JUMPDEST POP GAS CALL ISZERO DUP1 ISZERO PUSH3 0x79A JUMPI RETURNDATASIZE PUSH1 0x0 DUP1 RETURNDATACOPY RETURNDATASIZE PUSH1 0x0 REVERT JUMPDEST POP POP POP POP PUSH1 0x40 MLOAD RETURNDATASIZE PUSH1 0x1F NOT PUSH1 0x1F DUP3 ADD AND DUP3 ADD DUP1 PUSH1 0x40 MSTORE POP DUP2 ADD SWAP1 PUSH3 0x7C0 SWAP2 SWAP1 PUSH3 0x1742 JUMP JUMPDEST POP POP POP JUMP JUMPDEST DUP1 PUSH1 0x1 PUSH1 0x4 DUP2 GT ISZERO PUSH3 0x7DD JUMPI PUSH3 0x7DC PUSH3 0x1D7A JUMP JUMPDEST JUMPDEST PUSH3 0x7E8 DUP3 PUSH3 0xBBA JUMP JUMPDEST PUSH1 0x4 DUP2 GT ISZERO PUSH3 0x7FD JUMPI PUSH3 0x7FC PUSH3 0x1D7A JUMP JUMPDEST JUMPDEST EQ PUSH3 0x840 JUMPI PUSH1 0x40 MLOAD PUSH32 0x8C379A000000000000000000000000000000000000000000000000000000000 DUP2 MSTORE PUSH1 0x4 ADD PUSH3 0x837 SWAP1 PUSH3 0x19F4 JUMP JUMPDEST PUSH1 0x40 MLOAD DUP1 SWAP2 SUB SWAP1 REVERT JUMPDEST PUSH3 0x84B DUP3 PUSH3 0xABF JUMP JUMPDEST PUSH20 0xFFFFFFFFFFFFFFFFFFFFFFFFFFFFFFFFFFFFFFFF AND PUSH4 0x2E49D78B PUSH1 0x0 PUSH1 0x40 MLOAD DUP3 PUSH4 0xFFFFFFFF AND PUSH1 0xE0 SHL DUP2 MSTORE PUSH1 0x4 ADD PUSH3 0x886 SWAP2 SWAP1 PUSH3 0x19D7 JUMP JUMPDEST PUSH1 0x20 PUSH1 0x40 MLOAD DUP1 DUP4 SUB DUP2 PUSH1 0x0 DUP8 DUP1 EXTCODESIZE ISZERO DUP1 ISZERO PUSH3 0x8A1 JUMPI PUSH1 0x0 DUP1 REVERT JUMPDEST POP GAS CALL ISZERO DUP1 ISZERO PUSH3 0x8B6 JUMPI RETURNDATASIZE PUSH1 0x0 DUP1 RETURNDATACOPY RETURNDATASIZE PUSH1 0x0 REVERT JUMPDEST POP POP POP POP PUSH1 0x40 MLOAD RETURNDATASIZE PUSH1 0x1F NOT PUSH1 0x1F DUP3 ADD AND DUP3 ADD DUP1 PUSH1 0x40 MSTORE POP DUP2 ADD SWAP1 PUSH3 0x8DC SWAP2 SWAP1 PUSH3 0x1742 JUMP JUMPDEST POP POP POP JUMP JUMPDEST DUP1 PUSH1 0x2 PUSH1 0x4 DUP2 GT ISZERO PUSH3 0x8F9 JUMPI PUSH3 0x8F8 PUSH3 0x1D7A JUMP JUMPDEST JUMPDEST PUSH3 0x904 DUP3 PUSH3 0xBBA JUMP JUMPDEST PUSH1 0x4 DUP2 GT ISZERO PUSH3 0x919 JUMPI PUSH3 0x918 PUSH3 0x1D7A JUMP JUMPDEST JUMPDEST EQ PUSH3 0x95C JUMPI PUSH1 0x40 MLOAD PUSH32 0x8C379A000000000000000000000000000000000000000000000000000000000 DUP2 MSTORE PUSH1 0x4 ADD PUSH3 0x953 SWAP1 PUSH3 0x1A16 JUMP JUMPDEST PUSH1 0x40 MLOAD DUP1 SWAP2 SUB SWAP1 REVERT JUMPDEST PUSH1 0x0 PUSH3 0x969 DUP4 PUSH3 0x52D JUMP JUMPDEST PUSH4 0xFFFFFFFF AND GT PUSH3 0x9B2 JUMPI PUSH1 0x40 MLOAD PUSH32 0x8C379A000000000000000000000000000000000000000000000000000000000 DUP2 MSTORE PUSH1 0x4 ADD PUSH3 0x9A9 SWAP1 PUSH3 0x1A38 JUMP JUMPDEST PUSH1 0x40 MLOAD DUP1 SWAP2 SUB SWAP1 REVERT JUMPDEST PUSH3 0x24EA00 PUSH1 0x2 PUSH1 0x0 DUP5 DUP2 MSTORE PUSH1 0x20 ADD SWAP1 DUP2 MSTORE PUSH1 0x20 ADD PUSH1 0x0 KECCAK256 PUSH1 0x0 DUP3 DUP3 SLOAD PUSH3 0x9DA SWAP2 SWAP1 PUSH3 0x1BBE JUMP JUMPDEST SWAP3 POP POP DUP2 SWAP1 SSTORE POP PUSH3 0x9EC DUP3 PUSH3 0xABF JUMP JUMPDEST PUSH20 0xFFFFFFFFFFFFFFFFFFFFFFFFFFFFFFFFFFFFFFFF AND PUSH4 0xD2895E93 PUSH1 0x1 PUSH3 0xA14 DUP6 PUSH3 0x52D JUMP JUMPDEST PUSH3 0xA20 SWAP2 SWAP1 PUSH3 0x1C1B JUMP JUMPDEST PUSH1 0x40 MLOAD DUP3 PUSH4 0xFFFFFFFF AND PUSH1 0xE0 SHL DUP2 MSTORE PUSH1 0x4 ADD PUSH3 0xA3E SWAP2 SWAP1 PUSH3 0x1B11 JUMP JUMPDEST PUSH1 0x20 PUSH1 0x40 MLOAD DUP1 DUP4 SUB DUP2 PUSH1 0x0 DUP8 DUP1 EXTCODESIZE ISZERO DUP1 ISZERO PUSH3 0xA59 JUMPI PUSH1 0x0 DUP1 REVERT JUMPDEST POP GAS CALL ISZERO DUP1 ISZERO PUSH3 0xA6E JUMPI RETURNDATASIZE PUSH1 0x0 DUP1 RETURNDATACOPY RETURNDATASIZE PUSH1 0x0 REVERT JUMPDEST POP POP POP POP PUSH1 0x40 MLOAD RETURNDATASIZE PUSH1 0x1F NOT PUSH1 0x1F DUP3 ADD AND DUP3 ADD DUP1 PUSH1 0x40 MSTORE POP DUP2 ADD SWAP1 PUSH3 0xA94 SWAP2 SWAP1 PUSH3 0x17D8 JUMP JUMPDEST POP POP POP JUMP JUMPDEST PUSH3 0xAA3 PUSH3 0x1433 JUMP JUMPDEST PUSH1 0x0 PUSH1 0x40 MLOAD DUP1 PUSH1 0x20 ADD PUSH1 0x40 MSTORE SWAP1 DUP2 PUSH1 0x0 DUP3 ADD SLOAD DUP2 MSTORE POP POP SWAP1 POP SWAP1 JUMP JUMPDEST PUSH1 0x0 PUSH1 0x1 PUSH1 0x0 DUP4 DUP2 MSTORE PUSH1 0x20 ADD SWAP1 DUP2 MSTORE PUSH1 0x20 ADD PUSH1 0x0 KECCAK256 PUSH1 0x0 SWAP1 SLOAD SWAP1 PUSH2 0x100 EXP SWAP1 DIV PUSH20 0xFFFFFFFFFFFFFFFFFFFFFFFFFFFFFFFFFFFFFFFF AND SWAP1 POP SWAP2 SWAP1 POP JUMP JUMPDEST PUSH1 0x0 PUSH1 0x1 PUSH1 0x0 DUP4 DUP2 MSTORE PUSH1 0x20 ADD SWAP1 DUP2 MSTORE PUSH1 0x20 ADD PUSH1 0x0 KECCAK256 PUSH1 0x0 SWAP1 SLOAD SWAP1 PUSH2 0x100 EXP SWAP1 DIV PUSH20 0xFFFFFFFFFFFFFFFFFFFFFFFFFFFFFFFFFFFFFFFF AND PUSH20 0xFFFFFFFFFFFFFFFFFFFFFFFFFFFFFFFFFFFFFFFF AND PUSH4 0x603DAF9A PUSH1 0x40 MLOAD DUP2 PUSH4 0xFFFFFFFF AND PUSH1 0xE0 SHL DUP2 MSTORE PUSH1 0x4 ADD PUSH1 0x20 PUSH1 0x40 MLOAD DUP1 DUP4 SUB DUP2 DUP7 DUP1 EXTCODESIZE ISZERO DUP1 ISZERO PUSH3 0xB78 JUMPI PUSH1 0x0 DUP1 REVERT JUMPDEST POP GAS STATICCALL ISZERO DUP1 ISZERO PUSH3 0xB8D JUMPI RETURNDATASIZE PUSH1 0x0 DUP1 RETURNDATACOPY RETURNDATASIZE PUSH1 0x0 REVERT JUMPDEST POP POP POP POP PUSH1 0x40 MLOAD RETURNDATASIZE PUSH1 0x1F NOT PUSH1 0x1F DUP3 ADD AND DUP3 ADD DUP1 PUSH1 0x40 MSTORE POP DUP2 ADD SWAP1 PUSH3 0xBB3 SWAP2 SWAP1 PUSH3 0x15B9 JUMP JUMPDEST SWAP1 POP SWAP2 SWAP1 POP JUMP JUMPDEST PUSH1 0x0 PUSH1 0x1 PUSH1 0x0 DUP4 DUP2 MSTORE PUSH1 0x20 ADD SWAP1 DUP2 MSTORE PUSH1 0x20 ADD PUSH1 0x0 KECCAK256 PUSH1 0x0 SWAP1 SLOAD SWAP1 PUSH2 0x100 EXP SWAP1 DIV PUSH20 0xFFFFFFFFFFFFFFFFFFFFFFFFFFFFFFFFFFFFFFFF AND PUSH20 0xFFFFFFFFFFFFFFFFFFFFFFFFFFFFFFFFFFFFFFFF AND PUSH4 0x200D2ED2 PUSH1 0x40 MLOAD DUP2 PUSH4 0xFFFFFFFF AND PUSH1 0xE0 SHL DUP2 MSTORE PUSH1 0x4 ADD PUSH1 0x20 PUSH1 0x40 MLOAD DUP1 DUP4 SUB DUP2 DUP7 DUP1 EXTCODESIZE ISZERO DUP1 ISZERO PUSH3 0xC36 JUMPI PUSH1 0x0 DUP1 REVERT JUMPDEST POP GAS STATICCALL ISZERO DUP1 ISZERO PUSH3 0xC4B JUMPI RETURNDATASIZE PUSH1 0x0 DUP1 RETURNDATACOPY RETURNDATASIZE PUSH1 0x0 REVERT JUMPDEST POP POP POP POP PUSH1 0x40 MLOAD RETURNDATASIZE PUSH1 0x1F NOT PUSH1 0x1F DUP3 ADD AND DUP3 ADD DUP1 PUSH1 0x40 MSTORE POP DUP2 ADD SWAP1 PUSH3 0xC71 SWAP2 SWAP1 PUSH3 0x1742 JUMP JUMPDEST SWAP1 POP SWAP2 SWAP1 POP JUMP JUMPDEST PUSH1 0x0 PUSH1 0x1 PUSH1 0x0 DUP4 DUP2 MSTORE PUSH1 0x20 ADD SWAP1 DUP2 MSTORE PUSH1 0x20 ADD PUSH1 0x0 KECCAK256 PUSH1 0x0 SWAP1 SLOAD SWAP1 PUSH2 0x100 EXP SWAP1 DIV PUSH20 0xFFFFFFFFFFFFFFFFFFFFFFFFFFFFFFFFFFFFFFFF AND PUSH20 0xFFFFFFFFFFFFFFFFFFFFFFFFFFFFFFFFFFFFFFFF AND PUSH4 0x4C1786EA PUSH1 0x40 MLOAD DUP2 PUSH4 0xFFFFFFFF AND PUSH1 0xE0 SHL DUP2 MSTORE PUSH1 0x4 ADD PUSH1 0x20 PUSH1 0x40 MLOAD DUP1 DUP4 SUB DUP2 DUP7 DUP1 EXTCODESIZE ISZERO DUP1 ISZERO PUSH3 0xCF4 JUMPI PUSH1 0x0 DUP1 REVERT JUMPDEST POP GAS STATICCALL ISZERO DUP1 ISZERO PUSH3 0xD09 JUMPI RETURNDATASIZE PUSH1 0x0 DUP1 RETURNDATACOPY RETURNDATASIZE PUSH1 0x0 REVERT JUMPDEST POP POP POP POP PUSH1 0x40 MLOAD RETURNDATASIZE PUSH1 0x1F NOT PUSH1 0x1F DUP3 ADD AND DUP3 ADD DUP1 PUSH1 0x40 MSTORE POP DUP2 ADD SWAP1 PUSH3 0xD2F SWAP2 SWAP1 PUSH3 0x17A6 JUMP JUMPDEST SWAP1 POP SWAP2 SWAP1 POP JUMP JUMPDEST PUSH1 0x0 PUSH3 0xD44 PUSH1 0x0 PUSH3 0x140F JUMP JUMPDEST PUSH1 0x0 PUSH3 0xD52 PUSH1 0x0 PUSH3 0x1425 JUMP JUMPDEST SWAP1 POP PUSH1 0x0 DUP10 DUP10 DUP10 DUP9 DUP11 DUP10 DUP10 PUSH1 0x40 MLOAD PUSH3 0xD6B SWAP1 PUSH3 0x1446 JUMP JUMPDEST PUSH3 0xD7D SWAP8 SWAP7 SWAP6 SWAP5 SWAP4 SWAP3 SWAP2 SWAP1 PUSH3 0x1A94 JUMP JUMPDEST PUSH1 0x40 MLOAD DUP1 SWAP2 SUB SWAP1 PUSH1 0x0 CREATE DUP1 ISZERO DUP1 ISZERO PUSH3 0xD9A JUMPI RETURNDATASIZE PUSH1 0x0 DUP1 RETURNDATACOPY RETURNDATASIZE PUSH1 0x0 REVERT JUMPDEST POP SWAP1 POP DUP1 PUSH1 0x1 PUSH1 0x0 DUP5 DUP2 MSTORE PUSH1 0x20 ADD SWAP1 DUP2 MSTORE PUSH1 0x20 ADD PUSH1 0x0 KECCAK256 PUSH1 0x0 PUSH2 0x100 EXP DUP2 SLOAD DUP2 PUSH20 0xFFFFFFFFFFFFFFFFFFFFFFFFFFFFFFFFFFFFFFFF MUL NOT AND SWAP1 DUP4 PUSH20 0xFFFFFFFFFFFFFFFFFFFFFFFFFFFFFFFFFFFFFFFF AND MUL OR SWAP1 SSTORE POP DUP11 PUSH3 0xE8C JUMPI DUP1 PUSH20 0xFFFFFFFFFFFFFFFFFFFFFFFFFFFFFFFFFFFFFFFF AND PUSH4 0xE99D2866 CALLER PUSH1 0x40 MLOAD DUP3 PUSH4 0xFFFFFFFF AND PUSH1 0xE0 SHL DUP2 MSTORE PUSH1 0x4 ADD PUSH3 0xE30 SWAP2 SWAP1 PUSH3 0x1980 JUMP JUMPDEST PUSH1 0x20 PUSH1 0x40 MLOAD DUP1 DUP4 SUB DUP2 PUSH1 0x0 DUP8 DUP1 EXTCODESIZE ISZERO DUP1 ISZERO PUSH3 0xE4B JUMPI PUSH1 0x0 DUP1 REVERT JUMPDEST POP GAS CALL ISZERO DUP1 ISZERO PUSH3 0xE60 JUMPI RETURNDATASIZE PUSH1 0x0 DUP1 RETURNDATACOPY RETURNDATASIZE PUSH1 0x0 REVERT JUMPDEST POP POP POP POP PUSH1 0x40 MLOAD RETURNDATASIZE PUSH1 0x1F NOT PUSH1 0x1F DUP3 ADD AND DUP3 ADD DUP1 PUSH1 0x40 MSTORE POP DUP2 ADD SWAP1 PUSH3 0xE86 SWAP2 SWAP1 PUSH3 0x15B9 JUMP JUMPDEST PUSH3 0xF1E JUMP JUMPDEST DUP1 PUSH20 0xFFFFFFFFFFFFFFFFFFFFFFFFFFFFFFFFFFFFFFFF AND PUSH4 0xA3F09AD6 CALLER PUSH1 0x40 MLOAD DUP3 PUSH4 0xFFFFFFFF AND PUSH1 0xE0 SHL DUP2 MSTORE PUSH1 0x4 ADD PUSH3 0xEC7 SWAP2 SWAP1 PUSH3 0x1980 JUMP JUMPDEST PUSH1 0x20 PUSH1 0x40 MLOAD DUP1 DUP4 SUB DUP2 PUSH1 0x0 DUP8 DUP1 EXTCODESIZE ISZERO DUP1 ISZERO PUSH3 0xEE2 JUMPI PUSH1 0x0 DUP1 REVERT JUMPDEST POP GAS CALL ISZERO DUP1 ISZERO PUSH3 0xEF7 JUMPI RETURNDATASIZE PUSH1 0x0 DUP1 RETURNDATACOPY RETURNDATASIZE PUSH1 0x0 REVERT JUMPDEST POP POP POP POP PUSH1 0x40 MLOAD RETURNDATASIZE PUSH1 0x1F NOT PUSH1 0x1F DUP3 ADD AND DUP3 ADD DUP1 PUSH1 0x40 MSTORE POP DUP2 ADD SWAP1 PUSH3 0xF1D SWAP2 SWAP1 PUSH3 0x15B9 JUMP JUMPDEST JUMPDEST POP DUP2 SWAP3 POP POP POP SWAP9 SWAP8 POP POP POP POP POP POP POP POP JUMP JUMPDEST PUSH1 0x0 PUSH1 0x2 PUSH1 0x0 DUP4 DUP2 MSTORE PUSH1 0x20 ADD SWAP1 DUP2 MSTORE PUSH1 0x20 ADD PUSH1 0x0 KECCAK256 SLOAD SWAP1 POP SWAP2 SWAP1 POP JUMP JUMPDEST PUSH3 0xF57 PUSH3 0x1454 JUMP JUMPDEST PUSH1 0x1 PUSH1 0x0 DUP4 DUP2 MSTORE PUSH1 0x20 ADD SWAP1 DUP2 MSTORE PUSH1 0x20 ADD PUSH1 0x0 KECCAK256 PUSH1 0x0 SWAP1 SLOAD SWAP1 PUSH2 0x100 EXP SWAP1 DIV PUSH20 0xFFFFFFFFFFFFFFFFFFFFFFFFFFFFFFFFFFFFFFFF AND PUSH20 0xFFFFFFFFFFFFFFFFFFFFFFFFFFFFFFFFFFFFFFFF AND PUSH4 0xBD9A548B PUSH1 0x40 MLOAD DUP2 PUSH4 0xFFFFFFFF AND PUSH1 0xE0 SHL DUP2 MSTORE PUSH1 0x4 ADD PUSH1 0xA0 PUSH1 0x40 MLOAD DUP1 DUP4 SUB DUP2 DUP7 DUP1 EXTCODESIZE ISZERO DUP1 ISZERO PUSH3 0xFD1 JUMPI PUSH1 0x0 DUP1 REVERT JUMPDEST POP GAS STATICCALL ISZERO DUP1 ISZERO PUSH3 0xFE6 JUMPI RETURNDATASIZE PUSH1 0x0 DUP1 RETURNDATACOPY RETURNDATASIZE PUSH1 0x0 REVERT JUMPDEST POP POP POP POP PUSH1 0x40 MLOAD RETURNDATASIZE PUSH1 0x1F NOT PUSH1 0x1F DUP3 ADD AND DUP3 ADD DUP1 PUSH1 0x40 MSTORE POP DUP2 ADD SWAP1 PUSH3 0x100C SWAP2 SWAP1 PUSH3 0x15EB JUMP JUMPDEST SWAP1 POP SWAP2 SWAP1 POP JUMP JUMPDEST PUSH1 0x0 PUSH1 0x1 PUSH1 0x0 DUP4 DUP2 MSTORE PUSH1 0x20 ADD SWAP1 DUP2 MSTORE PUSH1 0x20 ADD PUSH1 0x0 KECCAK256 PUSH1 0x0 SWAP1 SLOAD SWAP1 PUSH2 0x100 EXP SWAP1 DIV PUSH20 0xFFFFFFFFFFFFFFFFFFFFFFFFFFFFFFFFFFFFFFFF AND PUSH20 0xFFFFFFFFFFFFFFFFFFFFFFFFFFFFFFFFFFFFFFFF AND PUSH4 0xDBD0E1B6 PUSH1 0x40 MLOAD DUP2 PUSH4 0xFFFFFFFF AND PUSH1 0xE0 SHL DUP2 MSTORE PUSH1 0x4 ADD PUSH1 0x20 PUSH1 0x40 MLOAD DUP1 DUP4 SUB DUP2 DUP7 DUP1 EXTCODESIZE ISZERO DUP1 ISZERO PUSH3 0x108F JUMPI PUSH1 0x0 DUP1 REVERT JUMPDEST POP GAS STATICCALL ISZERO DUP1 ISZERO PUSH3 0x10A4 JUMPI RETURNDATASIZE PUSH1 0x0 DUP1 RETURNDATACOPY RETURNDATASIZE PUSH1 0x0 REVERT JUMPDEST POP POP POP POP PUSH1 0x40 MLOAD RETURNDATASIZE PUSH1 0x1F NOT PUSH1 0x1F DUP3 ADD AND DUP3 ADD DUP1 PUSH1 0x40 MSTORE POP DUP2 ADD SWAP1 PUSH3 0x10CA SWAP2 SWAP1 PUSH3 0x15B9 JUMP JUMPDEST SWAP1 POP SWAP2 SWAP1 POP JUMP JUMPDEST PUSH1 0x0 DUP2 PUSH1 0x1 PUSH1 0x4 DUP2 GT ISZERO PUSH3 0x10EB JUMPI PUSH3 0x10EA PUSH3 0x1D7A JUMP JUMPDEST JUMPDEST PUSH3 0x10F6 DUP3 PUSH3 0xBBA JUMP JUMPDEST PUSH1 0x4 DUP2 GT ISZERO PUSH3 0x110B JUMPI PUSH3 0x110A PUSH3 0x1D7A JUMP JUMPDEST JUMPDEST EQ PUSH3 0x114E JUMPI PUSH1 0x40 MLOAD PUSH32 0x8C379A000000000000000000000000000000000000000000000000000000000 DUP2 MSTORE PUSH1 0x4 ADD PUSH3 0x1145 SWAP1 PUSH3 0x19F4 JUMP JUMPDEST PUSH1 0x40 MLOAD DUP1 SWAP2 SUB SWAP1 REVERT JUMPDEST PUSH1 0x0 PUSH1 0x1 PUSH1 0x0 DUP6 DUP2 MSTORE PUSH1 0x20 ADD SWAP1 DUP2 MSTORE PUSH1 0x20 ADD PUSH1 0x0 KECCAK256 PUSH1 0x0 SWAP1 SLOAD SWAP1 PUSH2 0x100 EXP SWAP1 DIV PUSH20 0xFFFFFFFFFFFFFFFFFFFFFFFFFFFFFFFFFFFFFFFF AND SWAP1 POP DUP1 PUSH20 0xFFFFFFFFFFFFFFFFFFFFFFFFFFFFFFFFFFFFFFFF AND PUSH4 0xBEF904E3 DUP7 PUSH1 0x40 MLOAD DUP3 PUSH4 0xFFFFFFFF AND PUSH1 0xE0 SHL DUP2 MSTORE PUSH1 0x4 ADD PUSH3 0x11C1 SWAP2 SWAP1 PUSH3 0x1A77 JUMP JUMPDEST PUSH1 0x20 PUSH1 0x40 MLOAD DUP1 DUP4 SUB DUP2 PUSH1 0x0 DUP8 DUP1 EXTCODESIZE ISZERO DUP1 ISZERO PUSH3 0x11DC JUMPI PUSH1 0x0 DUP1 REVERT JUMPDEST POP GAS CALL ISZERO DUP1 ISZERO PUSH3 0x11F1 JUMPI RETURNDATASIZE PUSH1 0x0 DUP1 RETURNDATACOPY RETURNDATASIZE PUSH1 0x0 REVERT JUMPDEST POP POP POP POP PUSH1 0x40 MLOAD RETURNDATASIZE PUSH1 0x1F NOT PUSH1 0x1F DUP3 ADD AND DUP3 ADD DUP1 PUSH1 0x40 MSTORE POP DUP2 ADD SWAP1 PUSH3 0x1217 SWAP2 SWAP1 PUSH3 0x17A6 JUMP JUMPDEST POP DUP6 PUSH3 0x12B5 JUMPI DUP1 PUSH20 0xFFFFFFFFFFFFFFFFFFFFFFFFFFFFFFFFFFFFFFFF AND PUSH4 0xA3F09AD6 CALLER PUSH1 0x40 MLOAD DUP3 PUSH4 0xFFFFFFFF AND PUSH1 0xE0 SHL DUP2 MSTORE PUSH1 0x4 ADD PUSH3 0x1259 SWAP2 SWAP1 PUSH3 0x1980 JUMP JUMPDEST PUSH1 0x20 PUSH1 0x40 MLOAD DUP1 DUP4 SUB DUP2 PUSH1 0x0 DUP8 DUP1 EXTCODESIZE ISZERO DUP1 ISZERO PUSH3 0x1274 JUMPI PUSH1 0x0 DUP1 REVERT JUMPDEST POP GAS CALL ISZERO DUP1 ISZERO PUSH3 0x1289 JUMPI RETURNDATASIZE PUSH1 0x0 DUP1 RETURNDATACOPY RETURNDATASIZE PUSH1 0x0 REVERT JUMPDEST POP POP POP POP PUSH1 0x40 MLOAD RETURNDATASIZE PUSH1 0x1F NOT PUSH1 0x1F DUP3 ADD AND DUP3 ADD DUP1 PUSH1 0x40 MSTORE POP DUP2 ADD SWAP1 PUSH3 0x12AF SWAP2 SWAP1 PUSH3 0x15B9 JUMP JUMPDEST PUSH3 0x1347 JUMP JUMPDEST DUP1 PUSH20 0xFFFFFFFFFFFFFFFFFFFFFFFFFFFFFFFFFFFFFFFF AND PUSH4 0xE99D2866 CALLER PUSH1 0x40 MLOAD DUP3 PUSH4 0xFFFFFFFF AND PUSH1 0xE0 SHL DUP2 MSTORE PUSH1 0x4 ADD PUSH3 0x12F0 SWAP2 SWAP1 PUSH3 0x1980 JUMP JUMPDEST PUSH1 0x20 PUSH1 0x40 MLOAD DUP1 DUP4 SUB DUP2 PUSH1 0x0 DUP8 DUP1 EXTCODESIZE ISZERO DUP1 ISZERO PUSH3 0x130B JUMPI PUSH1 0x0 DUP1 REVERT JUMPDEST POP GAS CALL ISZERO DUP1 ISZERO PUSH3 0x1320 JUMPI RETURNDATASIZE PUSH1 0x0 DUP1 RETURNDATACOPY RETURNDATASIZE PUSH1 0x0 REVERT JUMPDEST POP POP POP POP PUSH1 0x40 MLOAD RETURNDATASIZE PUSH1 0x1F NOT PUSH1 0x1F DUP3 ADD AND DUP3 ADD DUP1 PUSH1 0x40 MSTORE POP DUP2 ADD SWAP1 PUSH3 0x1346 SWAP2 SWAP1 PUSH3 0x15B9 JUMP JUMPDEST JUMPDEST POP PUSH3 0x24EA00 TIMESTAMP PUSH3 0x1359 SWAP2 SWAP1 PUSH3 0x1BBE JUMP JUMPDEST PUSH1 0x2 PUSH1 0x0 DUP7 DUP2 MSTORE PUSH1 0x20 ADD SWAP1 DUP2 MSTORE PUSH1 0x20 ADD PUSH1 0x0 KECCAK256 DUP2 SWAP1 SSTORE POP DUP1 PUSH20 0xFFFFFFFFFFFFFFFFFFFFFFFFFFFFFFFFFFFFFFFF AND PUSH4 0x2E49D78B PUSH1 0x2 PUSH1 0x40 MLOAD DUP3 PUSH4 0xFFFFFFFF AND PUSH1 0xE0 SHL DUP2 MSTORE PUSH1 0x4 ADD PUSH3 0x13AC SWAP2 SWAP1 PUSH3 0x19D7 JUMP JUMPDEST PUSH1 0x20 PUSH1 0x40 MLOAD DUP1 DUP4 SUB DUP2 PUSH1 0x0 DUP8 DUP1 EXTCODESIZE ISZERO DUP1 ISZERO PUSH3 0x13C7 JUMPI PUSH1 0x0 DUP1 REVERT JUMPDEST POP GAS CALL ISZERO DUP1 ISZERO PUSH3 0x13DC JUMPI RETURNDATASIZE PUSH1 0x0 DUP1 RETURNDATACOPY RETURNDATASIZE PUSH1 0x0 REVERT JUMPDEST POP POP POP POP PUSH1 0x40 MLOAD RETURNDATASIZE PUSH1 0x1F NOT PUSH1 0x1F DUP3 ADD AND DUP3 ADD DUP1 PUSH1 0x40 MSTORE POP DUP2 ADD SWAP1 PUSH3 0x1402 SWAP2 SWAP1 PUSH3 0x1742 JUMP JUMPDEST POP DUP4 SWAP3 POP POP POP SWAP4 SWAP3 POP POP POP JUMP JUMPDEST PUSH1 0x1 DUP2 PUSH1 0x0 ADD PUSH1 0x0 DUP3 DUP3 SLOAD ADD SWAP3 POP POP DUP2 SWAP1 SSTORE POP POP JUMP JUMPDEST PUSH1 0x0 DUP2 PUSH1 0x0 ADD SLOAD SWAP1 POP SWAP2 SWAP1 POP JUMP JUMPDEST PUSH1 0x40 MLOAD DUP1 PUSH1 0x20 ADD PUSH1 0x40 MSTORE DUP1 PUSH1 0x0 DUP2 MSTORE POP SWAP1 JUMP JUMPDEST PUSH2 0x1A27 DUP1 PUSH3 0x1F50 DUP4 CODECOPY ADD SWAP1 JUMP JUMPDEST PUSH1 0x40 MLOAD DUP1 PUSH1 0xA0 ADD PUSH1 0x40 MSTORE DUP1 PUSH1 0x5 SWAP1 PUSH1 0x20 DUP3 MUL DUP1 CALLDATASIZE DUP4 CALLDATACOPY DUP1 DUP3 ADD SWAP2 POP POP SWAP1 POP POP SWAP1 JUMP JUMPDEST PUSH1 0x0 PUSH3 0x148D PUSH3 0x1487 DUP5 PUSH3 0x1B57 JUMP JUMPDEST PUSH3 0x1B2E JUMP JUMPDEST SWAP1 POP DUP1 DUP3 DUP6 PUSH1 0x20 DUP7 MUL DUP3 ADD GT ISZERO PUSH3 0x14AA JUMPI PUSH3 0x14A9 PUSH3 0x1DDD JUMP JUMPDEST JUMPDEST PUSH1 0x0 JUMPDEST DUP6 DUP2 LT ISZERO PUSH3 0x14DE JUMPI DUP2 PUSH3 0x14C3 DUP9 DUP3 PUSH3 0x1574 JUMP JUMPDEST DUP5 MSTORE PUSH1 0x20 DUP5 ADD SWAP4 POP PUSH1 0x20 DUP4 ADD SWAP3 POP POP PUSH1 0x1 DUP2 ADD SWAP1 POP PUSH3 0x14AD JUMP JUMPDEST POP POP POP SWAP4 SWAP3 POP POP POP JUMP JUMPDEST PUSH1 0x0 DUP2 MLOAD SWAP1 POP PUSH3 0x14F9 DUP2 PUSH3 0x1ED6 JUMP JUMPDEST SWAP3 SWAP2 POP POP JUMP JUMPDEST PUSH1 0x0 DUP3 PUSH1 0x1F DUP4 ADD SLT PUSH3 0x1517 JUMPI PUSH3 0x1516 PUSH3 0x1DD8 JUMP JUMPDEST JUMPDEST PUSH1 0x5 PUSH3 0x1526 DUP5 DUP3 DUP6 PUSH3 0x1476 JUMP JUMPDEST SWAP2 POP POP SWAP3 SWAP2 POP POP JUMP JUMPDEST PUSH1 0x0 DUP2 CALLDATALOAD SWAP1 POP PUSH3 0x1540 DUP2 PUSH3 0x1EF0 JUMP JUMPDEST SWAP3 SWAP2 POP POP JUMP JUMPDEST PUSH1 0x0 DUP2 MLOAD SWAP1 POP PUSH3 0x1557 DUP2 PUSH3 0x1F0A JUMP JUMPDEST SWAP3 SWAP2 POP POP JUMP JUMPDEST PUSH1 0x0 DUP2 CALLDATALOAD SWAP1 POP PUSH3 0x156E DUP2 PUSH3 0x1F1B JUMP JUMPDEST SWAP3 SWAP2 POP POP JUMP JUMPDEST PUSH1 0x0 DUP2 MLOAD SWAP1 POP PUSH3 0x1585 DUP2 PUSH3 0x1F1B JUMP JUMPDEST SWAP3 SWAP2 POP POP JUMP JUMPDEST PUSH1 0x0 DUP2 CALLDATALOAD SWAP1 POP PUSH3 0x159C DUP2 PUSH3 0x1F35 JUMP JUMPDEST SWAP3 SWAP2 POP POP JUMP JUMPDEST PUSH1 0x0 DUP2 MLOAD SWAP1 POP PUSH3 0x15B3 DUP2 PUSH3 0x1F35 JUMP JUMPDEST SWAP3 SWAP2 POP POP JUMP JUMPDEST PUSH1 0x0 PUSH1 0x20 DUP3 DUP5 SUB SLT ISZERO PUSH3 0x15D2 JUMPI PUSH3 0x15D1 PUSH3 0x1DE2 JUMP JUMPDEST JUMPDEST PUSH1 0x0 PUSH3 0x15E2 DUP5 DUP3 DUP6 ADD PUSH3 0x14E8 JUMP JUMPDEST SWAP2 POP POP SWAP3 SWAP2 POP POP JUMP JUMPDEST PUSH1 0x0 PUSH1 0xA0 DUP3 DUP5 SUB SLT ISZERO PUSH3 0x1604 JUMPI PUSH3 0x1603 PUSH3 0x1DE2 JUMP JUMPDEST JUMPDEST PUSH1 0x0 PUSH3 0x1614 DUP5 DUP3 DUP6 ADD PUSH3 0x14FF JUMP JUMPDEST SWAP2 POP POP SWAP3 SWAP2 POP POP JUMP JUMPDEST PUSH1 0x0 DUP1 PUSH1 0x0 PUSH1 0x60 DUP5 DUP7 SUB SLT ISZERO PUSH3 0x1639 JUMPI PUSH3 0x1638 PUSH3 0x1DE2 JUMP JUMPDEST JUMPDEST PUSH1 0x0 PUSH3 0x1649 DUP7 DUP3 DUP8 ADD PUSH3 0x152F JUMP JUMPDEST SWAP4 POP POP PUSH1 0x20 PUSH3 0x165C DUP7 DUP3 DUP8 ADD PUSH3 0x155D JUMP JUMPDEST SWAP3 POP POP PUSH1 0x40 PUSH3 0x166F DUP7 DUP3 DUP8 ADD PUSH3 0x155D JUMP JUMPDEST SWAP2 POP POP SWAP3 POP SWAP3 POP SWAP3 JUMP JUMPDEST PUSH1 0x0 DUP1 PUSH1 0x0 DUP1 PUSH1 0x0 DUP1 PUSH1 0x0 DUP1 PUSH2 0x100 DUP10 DUP12 SUB SLT ISZERO PUSH3 0x169D JUMPI PUSH3 0x169C PUSH3 0x1DE2 JUMP JUMPDEST JUMPDEST PUSH1 0x0 PUSH3 0x16AD DUP12 DUP3 DUP13 ADD PUSH3 0x152F JUMP JUMPDEST SWAP9 POP POP PUSH1 0x20 PUSH3 0x16C0 DUP12 DUP3 DUP13 ADD PUSH3 0x155D JUMP JUMPDEST SWAP8 POP POP PUSH1 0x40 PUSH3 0x16D3 DUP12 DUP3 DUP13 ADD PUSH3 0x155D JUMP JUMPDEST SWAP7 POP POP PUSH1 0x60 PUSH3 0x16E6 DUP12 DUP3 DUP13 ADD PUSH3 0x155D JUMP JUMPDEST SWAP6 POP POP PUSH1 0x80 PUSH3 0x16F9 DUP12 DUP3 DUP13 ADD PUSH3 0x155D JUMP JUMPDEST SWAP5 POP POP PUSH1 0xA0 PUSH3 0x170C DUP12 DUP3 DUP13 ADD PUSH3 0x155D JUMP JUMPDEST SWAP4 POP POP PUSH1 0xC0 PUSH3 0x171F DUP12 DUP3 DUP13 ADD PUSH3 0x158B JUMP JUMPDEST SWAP3 POP POP PUSH1 0xE0 PUSH3 0x1732 DUP12 DUP3 DUP13 ADD PUSH3 0x158B JUMP JUMPDEST SWAP2 POP POP SWAP3 SWAP6 SWAP9 POP SWAP3 SWAP6 SWAP9 SWAP1 SWAP4 SWAP7 POP JUMP JUMPDEST PUSH1 0x0 PUSH1 0x20 DUP3 DUP5 SUB SLT ISZERO PUSH3 0x175B JUMPI PUSH3 0x175A PUSH3 0x1DE2 JUMP JUMPDEST JUMPDEST PUSH1 0x0 PUSH3 0x176B DUP5 DUP3 DUP6 ADD PUSH3 0x1546 JUMP JUMPDEST SWAP2 POP POP SWAP3 SWAP2 POP POP JUMP JUMPDEST PUSH1 0x0 PUSH1 0x20 DUP3 DUP5 SUB SLT ISZERO PUSH3 0x178D JUMPI PUSH3 0x178C PUSH3 0x1DE2 JUMP JUMPDEST JUMPDEST PUSH1 0x0 PUSH3 0x179D DUP5 DUP3 DUP6 ADD PUSH3 0x155D JUMP JUMPDEST SWAP2 POP POP SWAP3 SWAP2 POP POP JUMP JUMPDEST PUSH1 0x0 PUSH1 0x20 DUP3 DUP5 SUB SLT ISZERO PUSH3 0x17BF JUMPI PUSH3 0x17BE PUSH3 0x1DE2 JUMP JUMPDEST JUMPDEST PUSH1 0x0 PUSH3 0x17CF DUP5 DUP3 DUP6 ADD PUSH3 0x1574 JUMP JUMPDEST SWAP2 POP POP SWAP3 SWAP2 POP POP JUMP JUMPDEST PUSH1 0x0 PUSH1 0x20 DUP3 DUP5 SUB SLT ISZERO PUSH3 0x17F1 JUMPI PUSH3 0x17F0 PUSH3 0x1DE2 JUMP JUMPDEST JUMPDEST PUSH1 0x0 PUSH3 0x1801 DUP5 DUP3 DUP6 ADD PUSH3 0x15A2 JUMP JUMPDEST SWAP2 POP POP SWAP3 SWAP2 POP POP JUMP JUMPDEST PUSH1 0x0 PUSH3 0x1818 DUP4 DUP4 PUSH3 0x194D JUMP JUMPDEST PUSH1 0x20 DUP4 ADD SWAP1 POP SWAP3 SWAP2 POP POP JUMP JUMPDEST PUSH3 0x182F DUP2 PUSH3 0x1C56 JUMP JUMPDEST DUP3 MSTORE POP POP JUMP JUMPDEST PUSH3 0x1840 DUP2 PUSH3 0x1B8A JUMP JUMPDEST PUSH3 0x184C DUP2 DUP5 PUSH3 0x1BA2 JUMP JUMPDEST SWAP3 POP PUSH3 0x1859 DUP3 PUSH3 0x1B80 JUMP JUMPDEST DUP1 PUSH1 0x0 JUMPDEST DUP4 DUP2 LT ISZERO PUSH3 0x1890 JUMPI DUP2 MLOAD PUSH3 0x1874 DUP8 DUP3 PUSH3 0x180A JUMP JUMPDEST SWAP7 POP PUSH3 0x1881 DUP4 PUSH3 0x1B95 JUMP JUMPDEST SWAP3 POP POP PUSH1 0x1 DUP2 ADD SWAP1 POP PUSH3 0x185D JUMP JUMPDEST POP POP POP POP POP POP JUMP JUMPDEST PUSH3 0x18A3 DUP2 PUSH3 0x1CC5 JUMP JUMPDEST DUP3 MSTORE POP POP JUMP JUMPDEST PUSH3 0x18B4 DUP2 PUSH3 0x1CD9 JUMP JUMPDEST DUP3 MSTORE POP POP JUMP JUMPDEST PUSH1 0x0 PUSH3 0x18C9 PUSH1 0x27 DUP4 PUSH3 0x1BAD JUMP JUMPDEST SWAP2 POP PUSH3 0x18D6 DUP3 PUSH3 0x1DF8 JUMP JUMPDEST PUSH1 0x40 DUP3 ADD SWAP1 POP SWAP2 SWAP1 POP JUMP JUMPDEST PUSH1 0x0 PUSH3 0x18F0 PUSH1 0x26 DUP4 PUSH3 0x1BAD JUMP JUMPDEST SWAP2 POP PUSH3 0x18FD DUP3 PUSH3 0x1E47 JUMP JUMPDEST PUSH1 0x40 DUP3 ADD SWAP1 POP SWAP2 SWAP1 POP JUMP JUMPDEST PUSH1 0x0 PUSH3 0x1917 PUSH1 0x13 DUP4 PUSH3 0x1BAD JUMP JUMPDEST SWAP2 POP PUSH3 0x1924 DUP3 PUSH3 0x1E96 JUMP JUMPDEST PUSH1 0x20 DUP3 ADD SWAP1 POP SWAP2 SWAP1 POP JUMP JUMPDEST PUSH1 0x20 DUP3 ADD PUSH1 0x0 DUP3 ADD MLOAD PUSH3 0x1947 PUSH1 0x0 DUP6 ADD DUP3 PUSH3 0x194D JUMP JUMPDEST POP POP POP POP JUMP JUMPDEST PUSH3 0x1958 DUP2 PUSH3 0x1CAB JUMP JUMPDEST DUP3 MSTORE POP POP JUMP JUMPDEST PUSH3 0x1969 DUP2 PUSH3 0x1CAB JUMP JUMPDEST DUP3 MSTORE POP POP JUMP JUMPDEST PUSH3 0x197A DUP2 PUSH3 0x1CB5 JUMP JUMPDEST DUP3 MSTORE POP POP JUMP JUMPDEST PUSH1 0x0 PUSH1 0x20 DUP3 ADD SWAP1 POP PUSH3 0x1997 PUSH1 0x0 DUP4 ADD DUP5 PUSH3 0x1824 JUMP JUMPDEST SWAP3 SWAP2 POP POP JUMP JUMPDEST PUSH1 0x0 PUSH1 0xA0 DUP3 ADD SWAP1 POP PUSH3 0x19B4 PUSH1 0x0 DUP4 ADD DUP5 PUSH3 0x1835 JUMP JUMPDEST SWAP3 SWAP2 POP POP JUMP JUMPDEST PUSH1 0x0 PUSH1 0x20 DUP3 ADD SWAP1 POP PUSH3 0x19D1 PUSH1 0x0 DUP4 ADD DUP5 PUSH3 0x1898 JUMP JUMPDEST SWAP3 SWAP2 POP POP JUMP JUMPDEST PUSH1 0x0 PUSH1 0x20 DUP3 ADD SWAP1 POP PUSH3 0x19EE PUSH1 0x0 DUP4 ADD DUP5 PUSH3 0x18A9 JUMP JUMPDEST SWAP3 SWAP2 POP POP JUMP JUMPDEST PUSH1 0x0 PUSH1 0x20 DUP3 ADD SWAP1 POP DUP2 DUP2 SUB PUSH1 0x0 DUP4 ADD MSTORE PUSH3 0x1A0F DUP2 PUSH3 0x18BA JUMP JUMPDEST SWAP1 POP SWAP2 SWAP1 POP JUMP JUMPDEST PUSH1 0x0 PUSH1 0x20 DUP3 ADD SWAP1 POP DUP2 DUP2 SUB PUSH1 0x0 DUP4 ADD MSTORE PUSH3 0x1A31 DUP2 PUSH3 0x18E1 JUMP JUMPDEST SWAP1 POP SWAP2 SWAP1 POP JUMP JUMPDEST PUSH1 0x0 PUSH1 0x20 DUP3 ADD SWAP1 POP DUP2 DUP2 SUB PUSH1 0x0 DUP4 ADD MSTORE PUSH3 0x1A53 DUP2 PUSH3 0x1908 JUMP JUMPDEST SWAP1 POP SWAP2 SWAP1 POP JUMP JUMPDEST PUSH1 0x0 PUSH1 0x20 DUP3 ADD SWAP1 POP PUSH3 0x1A71 PUSH1 0x0 DUP4 ADD DUP5 PUSH3 0x192F JUMP JUMPDEST SWAP3 SWAP2 POP POP JUMP JUMPDEST PUSH1 0x0 PUSH1 0x20 DUP3 ADD SWAP1 POP PUSH3 0x1A8E PUSH1 0x0 DUP4 ADD DUP5 PUSH3 0x195E JUMP JUMPDEST SWAP3 SWAP2 POP POP JUMP JUMPDEST PUSH1 0x0 PUSH1 0xE0 DUP3 ADD SWAP1 POP PUSH3 0x1AAB PUSH1 0x0 DUP4 ADD DUP11 PUSH3 0x195E JUMP JUMPDEST PUSH3 0x1ABA PUSH1 0x20 DUP4 ADD DUP10 PUSH3 0x195E JUMP JUMPDEST PUSH3 0x1AC9 PUSH1 0x40 DUP4 ADD DUP9 PUSH3 0x195E JUMP JUMPDEST PUSH3 0x1AD8 PUSH1 0x60 DUP4 ADD DUP8 PUSH3 0x195E JUMP JUMPDEST PUSH3 0x1AE7 PUSH1 0x80 DUP4 ADD DUP7 PUSH3 0x195E JUMP JUMPDEST PUSH3 0x1AF6 PUSH1 0xA0 DUP4 ADD DUP6 PUSH3 0x196F JUMP JUMPDEST PUSH3 0x1B05 PUSH1 0xC0 DUP4 ADD DUP5 PUSH3 0x196F JUMP JUMPDEST SWAP9 SWAP8 POP POP POP POP POP POP POP POP JUMP JUMPDEST PUSH1 0x0 PUSH1 0x20 DUP3 ADD SWAP1 POP PUSH3 0x1B28 PUSH1 0x0 DUP4 ADD DUP5 PUSH3 0x196F JUMP JUMPDEST SWAP3 SWAP2 POP POP JUMP JUMPDEST PUSH1 0x0 PUSH3 0x1B3A PUSH3 0x1B4D JUMP JUMPDEST SWAP1 POP PUSH3 0x1B48 DUP3 DUP3 PUSH3 0x1D15 JUMP JUMPDEST SWAP2 SWAP1 POP JUMP JUMPDEST PUSH1 0x0 PUSH1 0x40 MLOAD SWAP1 POP SWAP1 JUMP JUMPDEST PUSH1 0x0 PUSH8 0xFFFFFFFFFFFFFFFF DUP3 GT ISZERO PUSH3 0x1B75 JUMPI PUSH3 0x1B74 PUSH3 0x1DA9 JUMP JUMPDEST JUMPDEST PUSH1 0x20 DUP3 MUL SWAP1 POP SWAP2 SWAP1 POP JUMP JUMPDEST PUSH1 0x0 DUP2 SWAP1 POP SWAP2 SWAP1 POP JUMP JUMPDEST PUSH1 0x0 PUSH1 0x5 SWAP1 POP SWAP2 SWAP1 POP JUMP JUMPDEST PUSH1 0x0 PUSH1 0x20 DUP3 ADD SWAP1 POP SWAP2 SWAP1 POP JUMP JUMPDEST PUSH1 0x0 DUP2 SWAP1 POP SWAP3 SWAP2 POP POP JUMP JUMPDEST PUSH1 0x0 DUP3 DUP3 MSTORE PUSH1 0x20 DUP3 ADD SWAP1 POP SWAP3 SWAP2 POP POP JUMP JUMPDEST PUSH1 0x0 PUSH3 0x1BCB DUP3 PUSH3 0x1CAB JUMP JUMPDEST SWAP2 POP PUSH3 0x1BD8 DUP4 PUSH3 0x1CAB JUMP JUMPDEST SWAP3 POP DUP3 PUSH32 0xFFFFFFFFFFFFFFFFFFFFFFFFFFFFFFFFFFFFFFFFFFFFFFFFFFFFFFFFFFFFFFFF SUB DUP3 GT ISZERO PUSH3 0x1C10 JUMPI PUSH3 0x1C0F PUSH3 0x1D4B JUMP JUMPDEST JUMPDEST DUP3 DUP3 ADD SWAP1 POP SWAP3 SWAP2 POP POP JUMP JUMPDEST PUSH1 0x0 PUSH3 0x1C28 DUP3 PUSH3 0x1CB5 JUMP JUMPDEST SWAP2 POP PUSH3 0x1C35 DUP4 PUSH3 0x1CB5 JUMP JUMPDEST SWAP3 POP DUP3 DUP3 LT ISZERO PUSH3 0x1C4B JUMPI PUSH3 0x1C4A PUSH3 0x1D4B JUMP JUMPDEST JUMPDEST DUP3 DUP3 SUB SWAP1 POP SWAP3 SWAP2 POP POP JUMP JUMPDEST PUSH1 0x0 PUSH3 0x1C63 DUP3 PUSH3 0x1C8B JUMP JUMPDEST SWAP1 POP SWAP2 SWAP1 POP JUMP JUMPDEST PUSH1 0x0 DUP2 ISZERO ISZERO SWAP1 POP SWAP2 SWAP1 POP JUMP JUMPDEST PUSH1 0x0 DUP2 SWAP1 POP PUSH3 0x1C86 DUP3 PUSH3 0x1EBF JUMP JUMPDEST SWAP2 SWAP1 POP JUMP JUMPDEST PUSH1 0x0 PUSH20 0xFFFFFFFFFFFFFFFFFFFFFFFFFFFFFFFFFFFFFFFF DUP3 AND SWAP1 POP SWAP2 SWAP1 POP JUMP JUMPDEST PUSH1 0x0 DUP2 SWAP1 POP SWAP2 SWAP1 POP JUMP JUMPDEST PUSH1 0x0 PUSH4 0xFFFFFFFF DUP3 AND SWAP1 POP SWAP2 SWAP1 POP JUMP JUMPDEST PUSH1 0x0 PUSH3 0x1CD2 DUP3 PUSH3 0x1CED JUMP JUMPDEST SWAP1 POP SWAP2 SWAP1 POP JUMP JUMPDEST PUSH1 0x0 PUSH3 0x1CE6 DUP3 PUSH3 0x1C76 JUMP JUMPDEST SWAP1 POP SWAP2 SWAP1 POP JUMP JUMPDEST PUSH1 0x0 PUSH3 0x1CFA DUP3 PUSH3 0x1D01 JUMP JUMPDEST SWAP1 POP SWAP2 SWAP1 POP JUMP JUMPDEST PUSH1 0x0 PUSH3 0x1D0E DUP3 PUSH3 0x1C8B JUMP JUMPDEST SWAP1 POP SWAP2 SWAP1 POP JUMP JUMPDEST PUSH3 0x1D20 DUP3 PUSH3 0x1DE7 JUMP JUMPDEST DUP2 ADD DUP2 DUP2 LT PUSH8 0xFFFFFFFFFFFFFFFF DUP3 GT OR ISZERO PUSH3 0x1D42 JUMPI PUSH3 0x1D41 PUSH3 0x1DA9 JUMP JUMPDEST JUMPDEST DUP1 PUSH1 0x40 MSTORE POP POP POP JUMP JUMPDEST PUSH32 0x4E487B7100000000000000000000000000000000000000000000000000000000 PUSH1 0x0 MSTORE PUSH1 0x11 PUSH1 0x4 MSTORE PUSH1 0x24 PUSH1 0x0 REVERT JUMPDEST PUSH32 0x4E487B7100000000000000000000000000000000000000000000000000000000 PUSH1 0x0 MSTORE PUSH1 0x21 PUSH1 0x4 MSTORE PUSH1 0x24 PUSH1 0x0 REVERT JUMPDEST PUSH32 0x4E487B7100000000000000000000000000000000000000000000000000000000 PUSH1 0x0 MSTORE PUSH1 0x41 PUSH1 0x4 MSTORE PUSH1 0x24 PUSH1 0x0 REVERT JUMPDEST PUSH1 0x0 DUP1 REVERT JUMPDEST PUSH1 0x0 DUP1 REVERT JUMPDEST PUSH1 0x0 DUP1 REVERT JUMPDEST PUSH1 0x0 PUSH1 0x1F NOT PUSH1 0x1F DUP4 ADD AND SWAP1 POP SWAP2 SWAP1 POP JUMP JUMPDEST PUSH32 0x54686520737461747573206F6620746865204344532073686F756C6420626520 PUSH1 0x0 DUP3 ADD MSTORE PUSH32 0x70656E64696E6700000000000000000000000000000000000000000000000000 PUSH1 0x20 DUP3 ADD MSTORE POP JUMP JUMPDEST PUSH32 0x54686520737461747573206F6620746865204344532073686F756C6420626520 PUSH1 0x0 DUP3 ADD MSTORE PUSH32 0x6163746976650000000000000000000000000000000000000000000000000000 PUSH1 0x20 DUP3 ADD MSTORE POP JUMP JUMPDEST PUSH32 0x526F756E6420616C726561647920656E64656400000000000000000000000000 PUSH1 0x0 DUP3 ADD MSTORE POP JUMP JUMPDEST PUSH1 0x5 DUP2 LT PUSH3 0x1ED3 JUMPI PUSH3 0x1ED2 PUSH3 0x1D7A JUMP JUMPDEST JUMPDEST POP JUMP JUMPDEST PUSH3 0x1EE1 DUP2 PUSH3 0x1C56 JUMP JUMPDEST DUP2 EQ PUSH3 0x1EED JUMPI PUSH1 0x0 DUP1 REVERT JUMPDEST POP JUMP JUMPDEST PUSH3 0x1EFB DUP2 PUSH3 0x1C6A JUMP JUMPDEST DUP2 EQ PUSH3 0x1F07 JUMPI PUSH1 0x0 DUP1 REVERT JUMPDEST POP JUMP JUMPDEST PUSH1 0x5 DUP2 LT PUSH3 0x1F18 JUMPI PUSH1 0x0 DUP1 REVERT JUMPDEST POP JUMP JUMPDEST PUSH3 0x1F26 DUP2 PUSH3 0x1CAB JUMP JUMPDEST DUP2 EQ PUSH3 0x1F32 JUMPI PUSH1 0x0 DUP1 REVERT JUMPDEST POP JUMP JUMPDEST PUSH3 0x1F40 DUP2 PUSH3 0x1CB5 JUMP JUMPDEST DUP2 EQ PUSH3 0x1F4C JUMPI PUSH1 0x0 DUP1 REVERT JUMPDEST POP JUMP INVALID PUSH1 0x80 PUSH1 0x40 MSTORE CALLVALUE DUP1 ISZERO PUSH3 0x11 JUMPI PUSH1 0x0 DUP1 REVERT JUMPDEST POP PUSH1 0x40 MLOAD PUSH3 0x1A27 CODESIZE SUB DUP1 PUSH3 0x1A27 DUP4 CODECOPY DUP2 DUP2 ADD PUSH1 0x40 MSTORE DUP2 ADD SWAP1 PUSH3 0x37 SWAP2 SWAP1 PUSH3 0x3F1 JUMP JUMPDEST PUSH3 0x57 PUSH3 0x4B PUSH3 0x289 PUSH1 0x20 SHL PUSH1 0x20 SHR JUMP JUMPDEST PUSH3 0x291 PUSH1 0x20 SHL PUSH1 0x20 SHR JUMP JUMPDEST PUSH20 0x3E0E765C10497BB01F562B2F9AF50C621AB8EDA4 PUSH1 0x1 PUSH1 0x0 PUSH2 0x100 EXP DUP2 SLOAD DUP2 PUSH20 0xFFFFFFFFFFFFFFFFFFFFFFFFFFFFFFFFFFFFFFFF MUL NOT AND SWAP1 DUP4 PUSH20 0xFFFFFFFFFFFFFFFFFFFFFFFFFFFFFFFFFFFFFFFF AND MUL OR SWAP1 SSTORE POP DUP7 PUSH1 0x3 DUP2 SWAP1 SSTORE POP DUP6 PUSH1 0x4 DUP2 SWAP1 SSTORE POP DUP5 PUSH1 0x5 DUP2 SWAP1 SSTORE POP DUP4 PUSH1 0x6 DUP2 SWAP1 SSTORE POP DUP3 PUSH1 0x7 DUP2 SWAP1 SSTORE POP DUP2 PUSH1 0xA PUSH1 0x14 PUSH2 0x100 EXP DUP2 SLOAD DUP2 PUSH4 0xFFFFFFFF MUL NOT AND SWAP1 DUP4 PUSH4 0xFFFFFFFF AND MUL OR SWAP1 SSTORE POP DUP2 PUSH1 0xA PUSH1 0x18 PUSH2 0x100 EXP DUP2 SLOAD DUP2 PUSH4 0xFFFFFFFF MUL NOT AND SWAP1 DUP4 PUSH4 0xFFFFFFFF AND MUL OR SWAP1 SSTORE POP PUSH3 0x133 PUSH1 0x5 SLOAD PUSH1 0x7 SLOAD PUSH1 0x3 SLOAD PUSH3 0x355 PUSH1 0x20 SHL PUSH3 0xA4C OR SWAP1 SWAP3 SWAP2 SWAP1 PUSH1 0x20 SHR JUMP JUMPDEST PUSH1 0x8 DUP2 SWAP1 SSTORE POP PUSH1 0x0 DUP2 PUSH4 0xFFFFFFFF AND EQ DUP1 PUSH3 0x155 JUMPI POP PUSH1 0x1 DUP2 PUSH4 0xFFFFFFFF AND EQ JUMPDEST DUP1 PUSH3 0x167 JUMPI POP PUSH1 0x2 DUP2 PUSH4 0xFFFFFFFF AND EQ JUMPDEST PUSH3 0x1A9 JUMPI PUSH1 0x40 MLOAD PUSH32 0x8C379A000000000000000000000000000000000000000000000000000000000 DUP2 MSTORE PUSH1 0x4 ADD PUSH3 0x1A0 SWAP1 PUSH3 0x4CB JUMP JUMPDEST PUSH1 0x40 MLOAD DUP1 SWAP2 SUB SWAP1 REVERT JUMPDEST DUP1 PUSH1 0xA PUSH1 0x1C PUSH2 0x100 EXP DUP2 SLOAD DUP2 PUSH4 0xFFFFFFFF MUL NOT AND SWAP1 DUP4 PUSH4 0xFFFFFFFF AND MUL OR SWAP1 SSTORE POP PUSH1 0x0 PUSH1 0x9 PUSH1 0x0 PUSH2 0x100 EXP DUP2 SLOAD DUP2 PUSH20 0xFFFFFFFFFFFFFFFFFFFFFFFFFFFFFFFFFFFFFFFF MUL NOT AND SWAP1 DUP4 PUSH20 0xFFFFFFFFFFFFFFFFFFFFFFFFFFFFFFFFFFFFFFFF AND MUL OR SWAP1 SSTORE POP PUSH1 0x0 PUSH1 0xA PUSH1 0x0 PUSH2 0x100 EXP DUP2 SLOAD DUP2 PUSH20 0xFFFFFFFFFFFFFFFFFFFFFFFFFFFFFFFFFFFFFFFF MUL NOT AND SWAP1 DUP4 PUSH20 0xFFFFFFFFFFFFFFFFFFFFFFFFFFFFFFFFFFFFFFFF AND MUL OR SWAP1 SSTORE POP PUSH1 0x1 PUSH1 0x2 PUSH1 0x14 PUSH2 0x100 EXP DUP2 SLOAD DUP2 PUSH1 0xFF MUL NOT AND SWAP1 DUP4 PUSH1 0x4 DUP2 GT ISZERO PUSH3 0x277 JUMPI PUSH3 0x276 PUSH3 0x5E9 JUMP JUMPDEST JUMPDEST MUL OR SWAP1 SSTORE POP POP POP POP POP POP POP POP PUSH3 0x67A JUMP JUMPDEST PUSH1 0x0 CALLER SWAP1 POP SWAP1 JUMP JUMPDEST PUSH1 0x0 DUP1 PUSH1 0x0 SWAP1 SLOAD SWAP1 PUSH2 0x100 EXP SWAP1 DIV PUSH20 0xFFFFFFFFFFFFFFFFFFFFFFFFFFFFFFFFFFFFFFFF AND SWAP1 POP DUP2 PUSH1 0x0 DUP1 PUSH2 0x100 EXP DUP2 SLOAD DUP2 PUSH20 0xFFFFFFFFFFFFFFFFFFFFFFFFFFFFFFFFFFFFFFFF MUL NOT AND SWAP1 DUP4 PUSH20 0xFFFFFFFFFFFFFFFFFFFFFFFFFFFFFFFFFFFFFFFF AND MUL OR SWAP1 SSTORE POP DUP2 PUSH20 0xFFFFFFFFFFFFFFFFFFFFFFFFFFFFFFFFFFFFFFFF AND DUP2 PUSH20 0xFFFFFFFFFFFFFFFFFFFFFFFFFFFFFFFFFFFFFFFF AND PUSH32 0x8BE0079C531659141344CD1FD0A4F28419497F9722A3DAAFE3B4186F6B6457E0 PUSH1 0x40 MLOAD PUSH1 0x40 MLOAD DUP1 SWAP2 SUB SWAP1 LOG3 POP POP JUMP JUMPDEST PUSH1 0x0 PUSH3 0x38A PUSH3 0x375 DUP5 DUP7 PUSH3 0x393 PUSH1 0x20 SHL PUSH3 0xA7C OR SWAP1 SWAP2 SWAP1 PUSH1 0x20 SHR JUMP JUMPDEST DUP4 PUSH3 0x3AB PUSH1 0x20 SHL PUSH3 0xA92 OR SWAP1 SWAP2 SWAP1 PUSH1 0x20 SHR JUMP JUMPDEST SWAP1 POP SWAP4 SWAP3 POP POP POP JUMP JUMPDEST PUSH1 0x0 DUP2 DUP4 PUSH3 0x3A3 SWAP2 SWAP1 PUSH3 0x536 JUMP JUMPDEST SWAP1 POP SWAP3 SWAP2 POP POP JUMP JUMPDEST PUSH1 0x0 DUP2 DUP4 PUSH3 0x3BB SWAP2 SWAP1 PUSH3 0x4FE JUMP JUMPDEST SWAP1 POP SWAP3 SWAP2 POP POP JUMP JUMPDEST PUSH1 0x0 DUP2 MLOAD SWAP1 POP PUSH3 0x3D4 DUP2 PUSH3 0x646 JUMP JUMPDEST SWAP3 SWAP2 POP POP JUMP JUMPDEST PUSH1 0x0 DUP2 MLOAD SWAP1 POP PUSH3 0x3EB DUP2 PUSH3 0x660 JUMP JUMPDEST SWAP3 SWAP2 POP POP JUMP JUMPDEST PUSH1 0x0 DUP1 PUSH1 0x0 DUP1 PUSH1 0x0 DUP1 PUSH1 0x0 PUSH1 0xE0 DUP9 DUP11 SUB SLT ISZERO PUSH3 0x413 JUMPI PUSH3 0x412 PUSH3 0x618 JUMP JUMPDEST JUMPDEST PUSH1 0x0 PUSH3 0x423 DUP11 DUP3 DUP12 ADD PUSH3 0x3C3 JUMP JUMPDEST SWAP8 POP POP PUSH1 0x20 PUSH3 0x436 DUP11 DUP3 DUP12 ADD PUSH3 0x3C3 JUMP JUMPDEST SWAP7 POP POP PUSH1 0x40 PUSH3 0x449 DUP11 DUP3 DUP12 ADD PUSH3 0x3C3 JUMP JUMPDEST SWAP6 POP POP PUSH1 0x60 PUSH3 0x45C DUP11 DUP3 DUP12 ADD PUSH3 0x3C3 JUMP JUMPDEST SWAP5 POP POP PUSH1 0x80 PUSH3 0x46F DUP11 DUP3 DUP12 ADD PUSH3 0x3C3 JUMP JUMPDEST SWAP4 POP POP PUSH1 0xA0 PUSH3 0x482 DUP11 DUP3 DUP12 ADD PUSH3 0x3DA JUMP JUMPDEST SWAP3 POP POP PUSH1 0xC0 PUSH3 0x495 DUP11 DUP3 DUP12 ADD PUSH3 0x3DA JUMP JUMPDEST SWAP2 POP POP SWAP3 SWAP6 SWAP9 SWAP2 SWAP5 SWAP8 POP SWAP3 SWAP6 POP JUMP JUMPDEST PUSH1 0x0 PUSH3 0x4B3 PUSH1 0x14 DUP4 PUSH3 0x4ED JUMP JUMPDEST SWAP2 POP PUSH3 0x4C0 DUP3 PUSH3 0x61D JUMP JUMPDEST PUSH1 0x20 DUP3 ADD SWAP1 POP SWAP2 SWAP1 POP JUMP JUMPDEST PUSH1 0x0 PUSH1 0x20 DUP3 ADD SWAP1 POP DUP2 DUP2 SUB PUSH1 0x0 DUP4 ADD MSTORE PUSH3 0x4E6 DUP2 PUSH3 0x4A4 JUMP JUMPDEST SWAP1 POP SWAP2 SWAP1 POP JUMP JUMPDEST PUSH1 0x0 DUP3 DUP3 MSTORE PUSH1 0x20 DUP3 ADD SWAP1 POP SWAP3 SWAP2 POP POP JUMP JUMPDEST PUSH1 0x0 PUSH3 0x50B DUP3 PUSH3 0x571 JUMP JUMPDEST SWAP2 POP PUSH3 0x518 DUP4 PUSH3 0x571 JUMP JUMPDEST SWAP3 POP DUP3 PUSH3 0x52B JUMPI PUSH3 0x52A PUSH3 0x5BA JUMP JUMPDEST JUMPDEST DUP3 DUP3 DIV SWAP1 POP SWAP3 SWAP2 POP POP JUMP JUMPDEST PUSH1 0x0 PUSH3 0x543 DUP3 PUSH3 0x571 JUMP JUMPDEST SWAP2 POP PUSH3 0x550 DUP4 PUSH3 0x571 JUMP JUMPDEST SWAP3 POP DUP3 DUP3 LT ISZERO PUSH3 0x566 JUMPI PUSH3 0x565 PUSH3 0x58B JUMP JUMPDEST JUMPDEST DUP3 DUP3 SUB SWAP1 POP SWAP3 SWAP2 POP POP JUMP JUMPDEST PUSH1 0x0 DUP2 SWAP1 POP SWAP2 SWAP1 POP JUMP JUMPDEST PUSH1 0x0 PUSH4 0xFFFFFFFF DUP3 AND SWAP1 POP SWAP2 SWAP1 POP JUMP JUMPDEST PUSH32 0x4E487B7100000000000000000000000000000000000000000000000000000000 PUSH1 0x0 MSTORE PUSH1 0x11 PUSH1 0x4 MSTORE PUSH1 0x24 PUSH1 0x0 REVERT JUMPDEST PUSH32 0x4E487B7100000000000000000000000000000000000000000000000000000000 PUSH1 0x0 MSTORE PUSH1 0x12 PUSH1 0x4 MSTORE PUSH1 0x24 PUSH1 0x0 REVERT JUMPDEST PUSH32 0x4E487B7100000000000000000000000000000000000000000000000000000000 PUSH1 0x0 MSTORE PUSH1 0x21 PUSH1 0x4 MSTORE PUSH1 0x24 PUSH1 0x0 REVERT JUMPDEST PUSH1 0x0 DUP1 REVERT JUMPDEST PUSH32 0x4254433A302C204554483A312C204C494E4B3A32000000000000000000000000 PUSH1 0x0 DUP3 ADD MSTORE POP JUMP JUMPDEST PUSH3 0x651 DUP2 PUSH3 0x571 JUMP JUMPDEST DUP2 EQ PUSH3 0x65D JUMPI PUSH1 0x0 DUP1 REVERT JUMPDEST POP JUMP JUMPDEST PUSH3 0x66B DUP2 PUSH3 0x57B JUMP JUMPDEST DUP2 EQ PUSH3 0x677 JUMPI PUSH1 0x0 DUP1 REVERT JUMPDEST POP JUMP JUMPDEST PUSH2 0x139D DUP1 PUSH3 0x68A PUSH1 0x0 CODECOPY PUSH1 0x0 RETURN INVALID PUSH1 0x80 PUSH1 0x40 MSTORE CALLVALUE DUP1 ISZERO PUSH2 0x10 JUMPI PUSH1 0x0 DUP1 REVERT JUMPDEST POP PUSH1 0x4 CALLDATASIZE LT PUSH2 0x173 JUMPI PUSH1 0x0 CALLDATALOAD PUSH1 0xE0 SHR DUP1 PUSH4 0xA2E800AD GT PUSH2 0xDE JUMPI DUP1 PUSH4 0xD2895E93 GT PUSH2 0x97 JUMPI DUP1 PUSH4 0xE0A73A93 GT PUSH2 0x71 JUMPI DUP1 PUSH4 0xE0A73A93 EQ PUSH2 0x422 JUMPI DUP1 PUSH4 0xE99D2866 EQ PUSH2 0x440 JUMPI DUP1 PUSH4 0xF26CC58E EQ PUSH2 0x470 JUMPI DUP1 PUSH4 0xF2FDE38B EQ PUSH2 0x48E JUMPI PUSH2 0x173 JUMP JUMPDEST DUP1 PUSH4 0xD2895E93 EQ PUSH2 0x3B6 JUMPI DUP1 PUSH4 0xDBD0E1B6 EQ PUSH2 0x3E6 JUMPI DUP1 PUSH4 0xDD22DB80 EQ PUSH2 0x404 JUMPI PUSH2 0x173 JUMP JUMPDEST DUP1 PUSH4 0xA2E800AD EQ PUSH2 0x2DE JUMPI DUP1 PUSH4 0xA3F09AD6 EQ PUSH2 0x2FC JUMPI DUP1 PUSH4 0xA607A8D9 EQ PUSH2 0x32C JUMPI DUP1 PUSH4 0xB6FC2D5F EQ PUSH2 0x34A JUMPI DUP1 PUSH4 0xBD9A548B EQ PUSH2 0x368 JUMPI DUP1 PUSH4 0xBEF904E3 EQ PUSH2 0x386 JUMPI PUSH2 0x173 JUMP JUMPDEST DUP1 PUSH4 0x603DAF9A GT PUSH2 0x130 JUMPI DUP1 PUSH4 0x603DAF9A EQ PUSH2 0x23E JUMPI DUP1 PUSH4 0x715018A6 EQ PUSH2 0x25C JUMPI DUP1 PUSH4 0x762DB7EE EQ PUSH2 0x266 JUMPI DUP1 PUSH4 0x86BE75B7 EQ PUSH2 0x284 JUMPI DUP1 PUSH4 0x8A568299 EQ PUSH2 0x2A2 JUMPI DUP1 PUSH4 0x8DA5CB5B EQ PUSH2 0x2C0 JUMPI PUSH2 0x173 JUMP JUMPDEST DUP1 PUSH4 0x15D655C9 EQ PUSH2 0x178 JUMPI DUP1 PUSH4 0x200D2ED2 EQ PUSH2 0x196 JUMPI DUP1 PUSH4 0x2DDDD49C EQ PUSH2 0x1B4 JUMPI DUP1 PUSH4 0x2E49D78B EQ PUSH2 0x1D2 JUMPI DUP1 PUSH4 0x3FE3347A EQ PUSH2 0x202 JUMPI DUP1 PUSH4 0x4C1786EA EQ PUSH2 0x220 JUMPI JUMPDEST PUSH1 0x0 DUP1 REVERT JUMPDEST PUSH2 0x180 PUSH2 0x4AA JUMP JUMPDEST PUSH1 0x40 MLOAD PUSH2 0x18D SWAP2 SWAP1 PUSH2 0x1050 JUMP JUMPDEST PUSH1 0x40 MLOAD DUP1 SWAP2 SUB SWAP1 RETURN JUMPDEST PUSH2 0x19E PUSH2 0x4B0 JUMP JUMPDEST PUSH1 0x40 MLOAD PUSH2 0x1AB SWAP2 SWAP1 PUSH2 0xFF5 JUMP JUMPDEST PUSH1 0x40 MLOAD DUP1 SWAP2 SUB SWAP1 RETURN JUMPDEST PUSH2 0x1BC PUSH2 0x4C3 JUMP JUMPDEST PUSH1 0x40 MLOAD PUSH2 0x1C9 SWAP2 SWAP1 PUSH2 0x1050 JUMP JUMPDEST PUSH1 0x40 MLOAD DUP1 SWAP2 SUB SWAP1 RETURN JUMPDEST PUSH2 0x1EC PUSH1 0x4 DUP1 CALLDATASIZE SUB DUP2 ADD SWAP1 PUSH2 0x1E7 SWAP2 SWAP1 PUSH2 0xE0B JUMP JUMPDEST PUSH2 0x56F JUMP JUMPDEST PUSH1 0x40 MLOAD PUSH2 0x1F9 SWAP2 SWAP1 PUSH2 0xFF5 JUMP JUMPDEST PUSH1 0x40 MLOAD DUP1 SWAP2 SUB SWAP1 RETURN JUMPDEST PUSH2 0x20A PUSH2 0x5BA JUMP JUMPDEST PUSH1 0x40 MLOAD PUSH2 0x217 SWAP2 SWAP1 PUSH2 0x106B JUMP JUMPDEST PUSH1 0x40 MLOAD DUP1 SWAP2 SUB SWAP1 RETURN JUMPDEST PUSH2 0x228 PUSH2 0x5D0 JUMP JUMPDEST PUSH1 0x40 MLOAD PUSH2 0x235 SWAP2 SWAP1 PUSH2 0x1050 JUMP JUMPDEST PUSH1 0x40 MLOAD DUP1 SWAP2 SUB SWAP1 RETURN JUMPDEST PUSH2 0x246 PUSH2 0x5D6 JUMP JUMPDEST PUSH1 0x40 MLOAD PUSH2 0x253 SWAP2 SWAP1 PUSH2 0xFBF JUMP JUMPDEST PUSH1 0x40 MLOAD DUP1 SWAP2 SUB SWAP1 RETURN JUMPDEST PUSH2 0x264 PUSH2 0x600 JUMP JUMPDEST STOP JUMPDEST PUSH2 0x26E PUSH2 0x614 JUMP JUMPDEST PUSH1 0x40 MLOAD PUSH2 0x27B SWAP2 SWAP1 PUSH2 0x1050 JUMP JUMPDEST PUSH1 0x40 MLOAD DUP1 SWAP2 SUB SWAP1 RETURN JUMPDEST PUSH2 0x28C PUSH2 0x61A JUMP JUMPDEST PUSH1 0x40 MLOAD PUSH2 0x299 SWAP2 SWAP1 PUSH2 0x1050 JUMP JUMPDEST PUSH1 0x40 MLOAD DUP1 SWAP2 SUB SWAP1 RETURN JUMPDEST PUSH2 0x2AA PUSH2 0x620 JUMP JUMPDEST PUSH1 0x40 MLOAD PUSH2 0x2B7 SWAP2 SWAP1 PUSH2 0x106B JUMP JUMPDEST PUSH1 0x40 MLOAD DUP1 SWAP2 SUB SWAP1 RETURN JUMPDEST PUSH2 0x2C8 PUSH2 0x636 JUMP JUMPDEST PUSH1 0x40 MLOAD PUSH2 0x2D5 SWAP2 SWAP1 PUSH2 0xFBF JUMP JUMPDEST PUSH1 0x40 MLOAD DUP1 SWAP2 SUB SWAP1 RETURN JUMPDEST PUSH2 0x2E6 PUSH2 0x65F JUMP JUMPDEST PUSH1 0x40 MLOAD PUSH2 0x2F3 SWAP2 SWAP1 PUSH2 0x106B JUMP JUMPDEST PUSH1 0x40 MLOAD DUP1 SWAP2 SUB SWAP1 RETURN JUMPDEST PUSH2 0x316 PUSH1 0x4 DUP1 CALLDATASIZE SUB DUP2 ADD SWAP1 PUSH2 0x311 SWAP2 SWAP1 PUSH2 0xDDE JUMP JUMPDEST PUSH2 0x675 JUMP JUMPDEST PUSH1 0x40 MLOAD PUSH2 0x323 SWAP2 SWAP1 PUSH2 0xFBF JUMP JUMPDEST PUSH1 0x40 MLOAD DUP1 SWAP2 SUB SWAP1 RETURN JUMPDEST PUSH2 0x334 PUSH2 0x6EA JUMP JUMPDEST PUSH1 0x40 MLOAD PUSH2 0x341 SWAP2 SWAP1 PUSH2 0x1050 JUMP JUMPDEST PUSH1 0x40 MLOAD DUP1 SWAP2 SUB SWAP1 RETURN JUMPDEST PUSH2 0x352 PUSH2 0x796 JUMP JUMPDEST PUSH1 0x40 MLOAD PUSH2 0x35F SWAP2 SWAP1 PUSH2 0x1050 JUMP JUMPDEST PUSH1 0x40 MLOAD DUP1 SWAP2 SUB SWAP1 RETURN JUMPDEST PUSH2 0x370 PUSH2 0x79C JUMP JUMPDEST PUSH1 0x40 MLOAD PUSH2 0x37D SWAP2 SWAP1 PUSH2 0xFDA JUMP JUMPDEST PUSH1 0x40 MLOAD DUP1 SWAP2 SUB SWAP1 RETURN JUMPDEST PUSH2 0x3A0 PUSH1 0x4 DUP1 CALLDATASIZE SUB DUP2 ADD SWAP1 PUSH2 0x39B SWAP2 SWAP1 PUSH2 0xE38 JUMP JUMPDEST PUSH2 0x7DA JUMP JUMPDEST PUSH1 0x40 MLOAD PUSH2 0x3AD SWAP2 SWAP1 PUSH2 0x1050 JUMP JUMPDEST PUSH1 0x40 MLOAD DUP1 SWAP2 SUB SWAP1 RETURN JUMPDEST PUSH2 0x3D0 PUSH1 0x4 DUP1 CALLDATASIZE SUB DUP2 ADD SWAP1 PUSH2 0x3CB SWAP2 SWAP1 PUSH2 0xE92 JUMP JUMPDEST PUSH2 0x7ED JUMP JUMPDEST PUSH1 0x40 MLOAD PUSH2 0x3DD SWAP2 SWAP1 PUSH2 0x106B JUMP JUMPDEST PUSH1 0x40 MLOAD DUP1 SWAP2 SUB SWAP1 RETURN JUMPDEST PUSH2 0x3EE PUSH2 0x832 JUMP JUMPDEST PUSH1 0x40 MLOAD PUSH2 0x3FB SWAP2 SWAP1 PUSH2 0xFBF JUMP JUMPDEST PUSH1 0x40 MLOAD DUP1 SWAP2 SUB SWAP1 RETURN JUMPDEST PUSH2 0x40C PUSH2 0x85C JUMP JUMPDEST PUSH1 0x40 MLOAD PUSH2 0x419 SWAP2 SWAP1 PUSH2 0x1050 JUMP JUMPDEST PUSH1 0x40 MLOAD DUP1 SWAP2 SUB SWAP1 RETURN JUMPDEST PUSH2 0x42A PUSH2 0x908 JUMP JUMPDEST PUSH1 0x40 MLOAD PUSH2 0x437 SWAP2 SWAP1 PUSH2 0x1050 JUMP JUMPDEST PUSH1 0x40 MLOAD DUP1 SWAP2 SUB SWAP1 RETURN JUMPDEST PUSH2 0x45A PUSH1 0x4 DUP1 CALLDATASIZE SUB DUP2 ADD SWAP1 PUSH2 0x455 SWAP2 SWAP1 PUSH2 0xDDE JUMP JUMPDEST PUSH2 0x90E JUMP JUMPDEST PUSH1 0x40 MLOAD PUSH2 0x467 SWAP2 SWAP1 PUSH2 0xFBF JUMP JUMPDEST PUSH1 0x40 MLOAD DUP1 SWAP2 SUB SWAP1 RETURN JUMPDEST PUSH2 0x478 PUSH2 0x983 JUMP JUMPDEST PUSH1 0x40 MLOAD PUSH2 0x485 SWAP2 SWAP1 PUSH2 0x1050 JUMP JUMPDEST PUSH1 0x40 MLOAD DUP1 SWAP2 SUB SWAP1 RETURN JUMPDEST PUSH2 0x4A8 PUSH1 0x4 DUP1 CALLDATASIZE SUB DUP2 ADD SWAP1 PUSH2 0x4A3 SWAP2 SWAP1 PUSH2 0xDDE JUMP JUMPDEST PUSH2 0x9C8 JUMP JUMPDEST STOP JUMPDEST PUSH1 0x4 SLOAD DUP2 JUMP JUMPDEST PUSH1 0x2 PUSH1 0x14 SWAP1 SLOAD SWAP1 PUSH2 0x100 EXP SWAP1 DIV PUSH1 0xFF AND DUP2 JUMP JUMPDEST PUSH1 0x0 DUP1 PUSH1 0x1 PUSH1 0x0 SWAP1 SLOAD SWAP1 PUSH2 0x100 EXP SWAP1 DIV PUSH20 0xFFFFFFFFFFFFFFFFFFFFFFFFFFFFFFFFFFFFFFFF AND PUSH20 0xFFFFFFFFFFFFFFFFFFFFFFFFFFFFFFFFFFFFFFFF AND PUSH4 0xCF78535 PUSH1 0x40 MLOAD DUP2 PUSH4 0xFFFFFFFF AND PUSH1 0xE0 SHL DUP2 MSTORE PUSH1 0x4 ADD PUSH1 0x20 PUSH1 0x40 MLOAD DUP1 DUP4 SUB DUP2 DUP7 DUP1 EXTCODESIZE ISZERO DUP1 ISZERO PUSH2 0x52E JUMPI PUSH1 0x0 DUP1 REVERT JUMPDEST POP GAS STATICCALL ISZERO DUP1 ISZERO PUSH2 0x542 JUMPI RETURNDATASIZE PUSH1 0x0 DUP1 RETURNDATACOPY RETURNDATASIZE PUSH1 0x0 REVERT JUMPDEST POP POP POP POP PUSH1 0x40 MLOAD RETURNDATASIZE PUSH1 0x1F NOT PUSH1 0x1F DUP3 ADD AND DUP3 ADD DUP1 PUSH1 0x40 MSTORE POP DUP2 ADD SWAP1 PUSH2 0x566 SWAP2 SWAP1 PUSH2 0xE65 JUMP JUMPDEST SWAP1 POP DUP1 SWAP2 POP POP SWAP1 JUMP JUMPDEST PUSH1 0x0 PUSH2 0x579 PUSH2 0xAA8 JUMP JUMPDEST DUP2 PUSH1 0x2 PUSH1 0x14 PUSH2 0x100 EXP DUP2 SLOAD DUP2 PUSH1 0xFF MUL NOT AND SWAP1 DUP4 PUSH1 0x4 DUP2 GT ISZERO PUSH2 0x59E JUMPI PUSH2 0x59D PUSH2 0x1252 JUMP JUMPDEST JUMPDEST MUL OR SWAP1 SSTORE POP PUSH1 0x2 PUSH1 0x14 SWAP1 SLOAD SWAP1 PUSH2 0x100 EXP SWAP1 DIV PUSH1 0xFF AND SWAP1 POP SWAP2 SWAP1 POP JUMP JUMPDEST PUSH1 0xA PUSH1 0x1C SWAP1 SLOAD SWAP1 PUSH2 0x100 EXP SWAP1 DIV PUSH4 0xFFFFFFFF AND DUP2 JUMP JUMPDEST PUSH1 0x7 SLOAD DUP2 JUMP JUMPDEST PUSH1 0x0 PUSH1 0x9 PUSH1 0x0 SWAP1 SLOAD SWAP1 PUSH2 0x100 EXP SWAP1 DIV PUSH20 0xFFFFFFFFFFFFFFFFFFFFFFFFFFFFFFFFFFFFFFFF AND SWAP1 POP SWAP1 JUMP JUMPDEST PUSH2 0x608 PUSH2 0xAA8 JUMP JUMPDEST PUSH2 0x612 PUSH1 0x0 PUSH2 0xB26 JUMP JUMPDEST JUMP JUMPDEST PUSH1 0x8 SLOAD DUP2 JUMP JUMPDEST PUSH1 0x3 SLOAD DUP2 JUMP JUMPDEST PUSH1 0xA PUSH1 0x18 SWAP1 SLOAD SWAP1 PUSH2 0x100 EXP SWAP1 DIV PUSH4 0xFFFFFFFF AND DUP2 JUMP JUMPDEST PUSH1 0x0 DUP1 PUSH1 0x0 SWAP1 SLOAD SWAP1 PUSH2 0x100 EXP SWAP1 DIV PUSH20 0xFFFFFFFFFFFFFFFFFFFFFFFFFFFFFFFFFFFFFFFF AND SWAP1 POP SWAP1 JUMP JUMPDEST PUSH1 0xA PUSH1 0x14 SWAP1 SLOAD SWAP1 PUSH2 0x100 EXP SWAP1 DIV PUSH4 0xFFFFFFFF AND DUP2 JUMP JUMPDEST PUSH1 0x0 PUSH2 0x67F PUSH2 0xAA8 JUMP JUMPDEST DUP2 PUSH1 0x9 PUSH1 0x0 PUSH2 0x100 EXP DUP2 SLOAD DUP2 PUSH20 0xFFFFFFFFFFFFFFFFFFFFFFFFFFFFFFFFFFFFFFFF MUL NOT AND SWAP1 DUP4 PUSH20 0xFFFFFFFFFFFFFFFFFFFFFFFFFFFFFFFFFFFFFFFF AND MUL OR SWAP1 SSTORE POP PUSH1 0x9 PUSH1 0x0 SWAP1 SLOAD SWAP1 PUSH2 0x100 EXP SWAP1 DIV PUSH20 0xFFFFFFFFFFFFFFFFFFFFFFFFFFFFFFFFFFFFFFFF AND SWAP1 POP SWAP2 SWAP1 POP JUMP JUMPDEST PUSH1 0x0 DUP1 PUSH1 0x1 PUSH1 0x0 SWAP1 SLOAD SWAP1 PUSH2 0x100 EXP SWAP1 DIV PUSH20 0xFFFFFFFFFFFFFFFFFFFFFFFFFFFFFFFFFFFFFFFF AND PUSH20 0xFFFFFFFFFFFFFFFFFFFFFFFFFFFFFFFFFFFFFFFF AND PUSH4 0xFF186B2E PUSH1 0x40 MLOAD DUP2 PUSH4 0xFFFFFFFF AND PUSH1 0xE0 SHL DUP2 MSTORE PUSH1 0x4 ADD PUSH1 0x20 PUSH1 0x40 MLOAD DUP1 DUP4 SUB DUP2 DUP7 DUP1 EXTCODESIZE ISZERO DUP1 ISZERO PUSH2 0x755 JUMPI PUSH1 0x0 DUP1 REVERT JUMPDEST POP GAS STATICCALL ISZERO DUP1 ISZERO PUSH2 0x769 JUMPI RETURNDATASIZE PUSH1 0x0 DUP1 RETURNDATACOPY RETURNDATASIZE PUSH1 0x0 REVERT JUMPDEST POP POP POP POP PUSH1 0x40 MLOAD RETURNDATASIZE PUSH1 0x1F NOT PUSH1 0x1F DUP3 ADD AND DUP3 ADD DUP1 PUSH1 0x40 MSTORE POP DUP2 ADD SWAP1 PUSH2 0x78D SWAP2 SWAP1 PUSH2 0xE65 JUMP JUMPDEST SWAP1 POP DUP1 SWAP2 POP POP SWAP1 JUMP JUMPDEST PUSH1 0x5 SLOAD DUP2 JUMP JUMPDEST PUSH2 0x7A4 PUSH2 0xD53 JUMP JUMPDEST PUSH1 0x40 MLOAD DUP1 PUSH1 0xA0 ADD PUSH1 0x40 MSTORE DUP1 PUSH1 0x3 SLOAD DUP2 MSTORE PUSH1 0x20 ADD PUSH1 0x4 SLOAD DUP2 MSTORE PUSH1 0x20 ADD PUSH1 0x5 SLOAD DUP2 MSTORE PUSH1 0x20 ADD PUSH1 0x6 SLOAD DUP2 MSTORE PUSH1 0x20 ADD PUSH1 0x7 SLOAD DUP2 MSTORE POP SWAP1 POP SWAP1 JUMP JUMPDEST PUSH1 0x0 DUP2 PUSH1 0x3 DUP2 SWAP1 SSTORE POP PUSH1 0x3 SLOAD SWAP1 POP SWAP2 SWAP1 POP JUMP JUMPDEST PUSH1 0x0 PUSH2 0x7F7 PUSH2 0xAA8 JUMP JUMPDEST DUP2 PUSH1 0xA PUSH1 0x14 PUSH2 0x100 EXP DUP2 SLOAD DUP2 PUSH4 0xFFFFFFFF MUL NOT AND SWAP1 DUP4 PUSH4 0xFFFFFFFF AND MUL OR SWAP1 SSTORE POP PUSH1 0xA PUSH1 0x14 SWAP1 SLOAD SWAP1 PUSH2 0x100 EXP SWAP1 DIV PUSH4 0xFFFFFFFF AND SWAP1 POP SWAP2 SWAP1 POP JUMP JUMPDEST PUSH1 0x0 PUSH1 0xA PUSH1 0x0 SWAP1 SLOAD SWAP1 PUSH2 0x100 EXP SWAP1 DIV PUSH20 0xFFFFFFFFFFFFFFFFFFFFFFFFFFFFFFFFFFFFFFFF AND SWAP1 POP SWAP1 JUMP JUMPDEST PUSH1 0x0 DUP1 PUSH1 0x1 PUSH1 0x0 SWAP1 SLOAD SWAP1 PUSH2 0x100 EXP SWAP1 DIV PUSH20 0xFFFFFFFFFFFFFFFFFFFFFFFFFFFFFFFFFFFFFFFF AND PUSH20 0xFFFFFFFFFFFFFFFFFFFFFFFFFFFFFFFFFFFFFFFF AND PUSH4 0xA8AD52D1 PUSH1 0x40 MLOAD DUP2 PUSH4 0xFFFFFFFF AND PUSH1 0xE0 SHL DUP2 MSTORE PUSH1 0x4 ADD PUSH1 0x20 PUSH1 0x40 MLOAD DUP1 DUP4 SUB DUP2 DUP7 DUP1 EXTCODESIZE ISZERO DUP1 ISZERO PUSH2 0x8C7 JUMPI PUSH1 0x0 DUP1 REVERT JUMPDEST POP GAS STATICCALL ISZERO DUP1 ISZERO PUSH2 0x8DB JUMPI RETURNDATASIZE PUSH1 0x0 DUP1 RETURNDATACOPY RETURNDATASIZE PUSH1 0x0 REVERT JUMPDEST POP POP POP POP PUSH1 0x40 MLOAD RETURNDATASIZE PUSH1 0x1F NOT PUSH1 0x1F DUP3 ADD AND DUP3 ADD DUP1 PUSH1 0x40 MSTORE POP DUP2 ADD SWAP1 PUSH2 0x8FF SWAP2 SWAP1 PUSH2 0xE65 JUMP JUMPDEST SWAP1 POP DUP1 SWAP2 POP POP SWAP1 JUMP JUMPDEST PUSH1 0x6 SLOAD DUP2 JUMP JUMPDEST PUSH1 0x0 PUSH2 0x918 PUSH2 0xAA8 JUMP JUMPDEST DUP2 PUSH1 0xA PUSH1 0x0 PUSH2 0x100 EXP DUP2 SLOAD DUP2 PUSH20 0xFFFFFFFFFFFFFFFFFFFFFFFFFFFFFFFFFFFFFFFF MUL NOT AND SWAP1 DUP4 PUSH20 0xFFFFFFFFFFFFFFFFFFFFFFFFFFFFFFFFFFFFFFFF AND MUL OR SWAP1 SSTORE POP PUSH1 0xA PUSH1 0x0 SWAP1 SLOAD SWAP1 PUSH2 0x100 EXP SWAP1 DIV PUSH20 0xFFFFFFFFFFFFFFFFFFFFFFFFFFFFFFFFFFFFFFFF AND SWAP1 POP SWAP2 SWAP1 POP JUMP JUMPDEST PUSH1 0x0 DUP1 PUSH2 0x98E PUSH2 0xBEA JUMP JUMPDEST SWAP1 POP DUP1 PUSH1 0x4 SLOAD LT ISZERO PUSH2 0x9A4 JUMPI PUSH1 0x0 SWAP2 POP POP PUSH2 0x9C5 JUMP JUMPDEST PUSH2 0x9C1 PUSH1 0x5 SLOAD PUSH1 0x3 SLOAD DUP4 PUSH1 0x7 SLOAD PUSH2 0xCC5 SWAP1 SWAP4 SWAP3 SWAP2 SWAP1 PUSH4 0xFFFFFFFF AND JUMP JUMPDEST SWAP2 POP POP JUMPDEST SWAP1 JUMP JUMPDEST PUSH2 0x9D0 PUSH2 0xAA8 JUMP JUMPDEST PUSH1 0x0 PUSH20 0xFFFFFFFFFFFFFFFFFFFFFFFFFFFFFFFFFFFFFFFF AND DUP2 PUSH20 0xFFFFFFFFFFFFFFFFFFFFFFFFFFFFFFFFFFFFFFFF AND EQ ISZERO PUSH2 0xA40 JUMPI PUSH1 0x40 MLOAD PUSH32 0x8C379A000000000000000000000000000000000000000000000000000000000 DUP2 MSTORE PUSH1 0x4 ADD PUSH2 0xA37 SWAP1 PUSH2 0x1010 JUMP JUMPDEST PUSH1 0x40 MLOAD DUP1 SWAP2 SUB SWAP1 REVERT JUMPDEST PUSH2 0xA49 DUP2 PUSH2 0xB26 JUMP JUMPDEST POP JUMP JUMPDEST PUSH1 0x0 PUSH2 0xA73 PUSH2 0xA64 DUP5 DUP7 PUSH2 0xA7C SWAP1 SWAP2 SWAP1 PUSH4 0xFFFFFFFF AND JUMP JUMPDEST DUP4 PUSH2 0xA92 SWAP1 SWAP2 SWAP1 PUSH4 0xFFFFFFFF AND JUMP JUMPDEST SWAP1 POP SWAP4 SWAP3 POP POP POP JUMP JUMPDEST PUSH1 0x0 DUP2 DUP4 PUSH2 0xA8A SWAP2 SWAP1 PUSH2 0x114F JUMP JUMPDEST SWAP1 POP SWAP3 SWAP2 POP POP JUMP JUMPDEST PUSH1 0x0 DUP2 DUP4 PUSH2 0xAA0 SWAP2 SWAP1 PUSH2 0x10C4 JUMP JUMPDEST SWAP1 POP SWAP3 SWAP2 POP POP JUMP JUMPDEST PUSH2 0xAB0 PUSH2 0xD35 JUMP JUMPDEST PUSH20 0xFFFFFFFFFFFFFFFFFFFFFFFFFFFFFFFFFFFFFFFF AND PUSH2 0xACE PUSH2 0x636 JUMP JUMPDEST PUSH20 0xFFFFFFFFFFFFFFFFFFFFFFFFFFFFFFFFFFFFFFFF AND EQ PUSH2 0xB24 JUMPI PUSH1 0x40 MLOAD PUSH32 0x8C379A000000000000000000000000000000000000000000000000000000000 DUP2 MSTORE PUSH1 0x4 ADD PUSH2 0xB1B SWAP1 PUSH2 0x1030 JUMP JUMPDEST PUSH1 0x40 MLOAD DUP1 SWAP2 SUB SWAP1 REVERT JUMPDEST JUMP JUMPDEST PUSH1 0x0 DUP1 PUSH1 0x0 SWAP1 SLOAD SWAP1 PUSH2 0x100 EXP SWAP1 DIV PUSH20 0xFFFFFFFFFFFFFFFFFFFFFFFFFFFFFFFFFFFFFFFF AND SWAP1 POP DUP2 PUSH1 0x0 DUP1 PUSH2 0x100 EXP DUP2 SLOAD DUP2 PUSH20 0xFFFFFFFFFFFFFFFFFFFFFFFFFFFFFFFFFFFFFFFF MUL NOT AND SWAP1 DUP4 PUSH20 0xFFFFFFFFFFFFFFFFFFFFFFFFFFFFFFFFFFFFFFFF AND MUL OR SWAP1 SSTORE POP DUP2 PUSH20 0xFFFFFFFFFFFFFFFFFFFFFFFFFFFFFFFFFFFFFFFF AND DUP2 PUSH20 0xFFFFFFFFFFFFFFFFFFFFFFFFFFFFFFFFFFFFFFFF AND PUSH32 0x8BE0079C531659141344CD1FD0A4F28419497F9722A3DAAFE3B4186F6B6457E0 PUSH1 0x40 MLOAD PUSH1 0x40 MLOAD DUP1 SWAP2 SUB SWAP1 LOG3 POP POP JUMP JUMPDEST PUSH1 0x0 DUP1 PUSH1 0xA PUSH1 0x1C SWAP1 SLOAD SWAP1 PUSH2 0x100 EXP SWAP1 DIV PUSH4 0xFFFFFFFF AND PUSH4 0xFFFFFFFF AND EQ ISZERO PUSH2 0xC31 JUMPI PUSH2 0xC2A PUSH4 0x5F5E100 PUSH2 0xC1C PUSH2 0x85C JUMP JUMPDEST PUSH2 0xA92 SWAP1 SWAP2 SWAP1 PUSH4 0xFFFFFFFF AND JUMP JUMPDEST SWAP1 POP PUSH2 0xCC2 JUMP JUMPDEST PUSH1 0x1 PUSH1 0xA PUSH1 0x1C SWAP1 SLOAD SWAP1 PUSH2 0x100 EXP SWAP1 DIV PUSH4 0xFFFFFFFF AND PUSH4 0xFFFFFFFF AND EQ ISZERO PUSH2 0xC77 JUMPI PUSH2 0xC70 PUSH4 0x5F5E100 PUSH2 0xC62 PUSH2 0x6EA JUMP JUMPDEST PUSH2 0xA92 SWAP1 SWAP2 SWAP1 PUSH4 0xFFFFFFFF AND JUMP JUMPDEST SWAP1 POP PUSH2 0xCC2 JUMP JUMPDEST PUSH1 0x2 PUSH1 0xA PUSH1 0x1C SWAP1 SLOAD SWAP1 PUSH2 0x100 EXP SWAP1 DIV PUSH4 0xFFFFFFFF AND PUSH4 0xFFFFFFFF AND EQ ISZERO PUSH2 0xCBD JUMPI PUSH2 0xCB6 PUSH4 0x5F5E100 PUSH2 0xCA8 PUSH2 0x4C3 JUMP JUMPDEST PUSH2 0xA92 SWAP1 SWAP2 SWAP1 PUSH4 0xFFFFFFFF AND JUMP JUMPDEST SWAP1 POP PUSH2 0xCC2 JUMP JUMPDEST PUSH1 0x0 SWAP1 POP JUMPDEST SWAP1 JUMP JUMPDEST PUSH1 0x0 DUP1 DUP3 DUP6 LT PUSH2 0xCD7 JUMPI DUP6 SWAP1 POP PUSH2 0xD29 JUMP JUMPDEST PUSH1 0x0 PUSH2 0xCFE PUSH2 0xCEF DUP8 DUP8 PUSH2 0xA7C SWAP1 SWAP2 SWAP1 PUSH4 0xFFFFFFFF AND JUMP JUMPDEST DUP9 PUSH2 0xA92 SWAP1 SWAP2 SWAP1 PUSH4 0xFFFFFFFF AND JUMP JUMPDEST SWAP1 POP PUSH2 0xD25 PUSH2 0xD16 DUP6 DUP8 PUSH2 0xA7C SWAP1 SWAP2 SWAP1 PUSH4 0xFFFFFFFF AND JUMP JUMPDEST DUP3 PUSH2 0xD3D SWAP1 SWAP2 SWAP1 PUSH4 0xFFFFFFFF AND JUMP JUMPDEST SWAP2 POP POP JUMPDEST DUP1 SWAP2 POP POP SWAP5 SWAP4 POP POP POP POP JUMP JUMPDEST PUSH1 0x0 CALLER SWAP1 POP SWAP1 JUMP JUMPDEST PUSH1 0x0 DUP2 DUP4 PUSH2 0xD4B SWAP2 SWAP1 PUSH2 0x10F5 JUMP JUMPDEST SWAP1 POP SWAP3 SWAP2 POP POP JUMP JUMPDEST PUSH1 0x40 MLOAD DUP1 PUSH1 0xA0 ADD PUSH1 0x40 MSTORE DUP1 PUSH1 0x5 SWAP1 PUSH1 0x20 DUP3 MUL DUP1 CALLDATASIZE DUP4 CALLDATACOPY DUP1 DUP3 ADD SWAP2 POP POP SWAP1 POP POP SWAP1 JUMP JUMPDEST PUSH1 0x0 DUP2 CALLDATALOAD SWAP1 POP PUSH2 0xD84 DUP2 PUSH2 0x1312 JUMP JUMPDEST SWAP3 SWAP2 POP POP JUMP JUMPDEST PUSH1 0x0 DUP2 CALLDATALOAD SWAP1 POP PUSH2 0xD99 DUP2 PUSH2 0x1329 JUMP JUMPDEST SWAP3 SWAP2 POP POP JUMP JUMPDEST PUSH1 0x0 DUP2 CALLDATALOAD SWAP1 POP PUSH2 0xDAE DUP2 PUSH2 0x1339 JUMP JUMPDEST SWAP3 SWAP2 POP POP JUMP JUMPDEST PUSH1 0x0 DUP2 MLOAD SWAP1 POP PUSH2 0xDC3 DUP2 PUSH2 0x1339 JUMP JUMPDEST SWAP3 SWAP2 POP POP JUMP JUMPDEST PUSH1 0x0 DUP2 CALLDATALOAD SWAP1 POP PUSH2 0xDD8 DUP2 PUSH2 0x1350 JUMP JUMPDEST SWAP3 SWAP2 POP POP JUMP JUMPDEST PUSH1 0x0 PUSH1 0x20 DUP3 DUP5 SUB SLT ISZERO PUSH2 0xDF4 JUMPI PUSH2 0xDF3 PUSH2 0x1281 JUMP JUMPDEST JUMPDEST PUSH1 0x0 PUSH2 0xE02 DUP5 DUP3 DUP6 ADD PUSH2 0xD75 JUMP JUMPDEST SWAP2 POP POP SWAP3 SWAP2 POP POP JUMP JUMPDEST PUSH1 0x0 PUSH1 0x20 DUP3 DUP5 SUB SLT ISZERO PUSH2 0xE21 JUMPI PUSH2 0xE20 PUSH2 0x1281 JUMP JUMPDEST JUMPDEST PUSH1 0x0 PUSH2 0xE2F DUP5 DUP3 DUP6 ADD PUSH2 0xD8A JUMP JUMPDEST SWAP2 POP POP SWAP3 SWAP2 POP POP JUMP JUMPDEST PUSH1 0x0 PUSH1 0x20 DUP3 DUP5 SUB SLT ISZERO PUSH2 0xE4E JUMPI PUSH2 0xE4D PUSH2 0x1281 JUMP JUMPDEST JUMPDEST PUSH1 0x0 PUSH2 0xE5C DUP5 DUP3 DUP6 ADD PUSH2 0xD9F JUMP JUMPDEST SWAP2 POP POP SWAP3 SWAP2 POP POP JUMP JUMPDEST PUSH1 0x0 PUSH1 0x20 DUP3 DUP5 SUB SLT ISZERO PUSH2 0xE7B JUMPI PUSH2 0xE7A PUSH2 0x1281 JUMP JUMPDEST JUMPDEST PUSH1 0x0 PUSH2 0xE89 DUP5 DUP3 DUP6 ADD PUSH2 0xDB4 JUMP JUMPDEST SWAP2 POP POP SWAP3 SWAP2 POP POP JUMP JUMPDEST PUSH1 0x0 PUSH1 0x20 DUP3 DUP5 SUB SLT ISZERO PUSH2 0xEA8 JUMPI PUSH2 0xEA7 PUSH2 0x1281 JUMP JUMPDEST JUMPDEST PUSH1 0x0 PUSH2 0xEB6 DUP5 DUP3 DUP6 ADD PUSH2 0xDC9 JUMP JUMPDEST SWAP2 POP POP SWAP3 SWAP2 POP POP JUMP JUMPDEST PUSH1 0x0 PUSH2 0xECB DUP4 DUP4 PUSH2 0xF92 JUMP JUMPDEST PUSH1 0x20 DUP4 ADD SWAP1 POP SWAP3 SWAP2 POP POP JUMP JUMPDEST PUSH2 0xEE0 DUP2 PUSH2 0x1183 JUMP JUMPDEST DUP3 MSTORE POP POP JUMP JUMPDEST PUSH2 0xEEF DUP2 PUSH2 0x1090 JUMP JUMPDEST PUSH2 0xEF9 DUP2 DUP5 PUSH2 0x10A8 JUMP JUMPDEST SWAP3 POP PUSH2 0xF04 DUP3 PUSH2 0x1086 JUMP JUMPDEST DUP1 PUSH1 0x0 JUMPDEST DUP4 DUP2 LT ISZERO PUSH2 0xF35 JUMPI DUP2 MLOAD PUSH2 0xF1C DUP8 DUP3 PUSH2 0xEBF JUMP JUMPDEST SWAP7 POP PUSH2 0xF27 DUP4 PUSH2 0x109B JUMP JUMPDEST SWAP3 POP POP PUSH1 0x1 DUP2 ADD SWAP1 POP PUSH2 0xF08 JUMP JUMPDEST POP POP POP POP POP POP JUMP JUMPDEST PUSH2 0xF46 DUP2 PUSH2 0x11E2 JUMP JUMPDEST DUP3 MSTORE POP POP JUMP JUMPDEST PUSH1 0x0 PUSH2 0xF59 PUSH1 0x26 DUP4 PUSH2 0x10B3 JUMP JUMPDEST SWAP2 POP PUSH2 0xF64 DUP3 PUSH2 0x1286 JUMP JUMPDEST PUSH1 0x40 DUP3 ADD SWAP1 POP SWAP2 SWAP1 POP JUMP JUMPDEST PUSH1 0x0 PUSH2 0xF7C PUSH1 0x20 DUP4 PUSH2 0x10B3 JUMP JUMPDEST SWAP2 POP PUSH2 0xF87 DUP3 PUSH2 0x12D5 JUMP JUMPDEST PUSH1 0x20 DUP3 ADD SWAP1 POP SWAP2 SWAP1 POP JUMP JUMPDEST PUSH2 0xF9B DUP2 PUSH2 0x11C8 JUMP JUMPDEST DUP3 MSTORE POP POP JUMP JUMPDEST PUSH2 0xFAA DUP2 PUSH2 0x11C8 JUMP JUMPDEST DUP3 MSTORE POP POP JUMP JUMPDEST PUSH2 0xFB9 DUP2 PUSH2 0x11D2 JUMP JUMPDEST DUP3 MSTORE POP POP JUMP JUMPDEST PUSH1 0x0 PUSH1 0x20 DUP3 ADD SWAP1 POP PUSH2 0xFD4 PUSH1 0x0 DUP4 ADD DUP5 PUSH2 0xED7 JUMP JUMPDEST SWAP3 SWAP2 POP POP JUMP JUMPDEST PUSH1 0x0 PUSH1 0xA0 DUP3 ADD SWAP1 POP PUSH2 0xFEF PUSH1 0x0 DUP4 ADD DUP5 PUSH2 0xEE6 JUMP JUMPDEST SWAP3 SWAP2 POP POP JUMP JUMPDEST PUSH1 0x0 PUSH1 0x20 DUP3 ADD SWAP1 POP PUSH2 0x100A PUSH1 0x0 DUP4 ADD DUP5 PUSH2 0xF3D JUMP JUMPDEST SWAP3 SWAP2 POP POP JUMP JUMPDEST PUSH1 0x0 PUSH1 0x20 DUP3 ADD SWAP1 POP DUP2 DUP2 SUB PUSH1 0x0 DUP4 ADD MSTORE PUSH2 0x1029 DUP2 PUSH2 0xF4C JUMP JUMPDEST SWAP1 POP SWAP2 SWAP1 POP JUMP JUMPDEST PUSH1 0x0 PUSH1 0x20 DUP3 ADD SWAP1 POP DUP2 DUP2 SUB PUSH1 0x0 DUP4 ADD MSTORE PUSH2 0x1049 DUP2 PUSH2 0xF6F JUMP JUMPDEST SWAP1 POP SWAP2 SWAP1 POP JUMP JUMPDEST PUSH1 0x0 PUSH1 0x20 DUP3 ADD SWAP1 POP PUSH2 0x1065 PUSH1 0x0 DUP4 ADD DUP5 PUSH2 0xFA1 JUMP JUMPDEST SWAP3 SWAP2 POP POP JUMP JUMPDEST PUSH1 0x0 PUSH1 0x20 DUP3 ADD SWAP1 POP PUSH2 0x1080 PUSH1 0x0 DUP4 ADD DUP5 PUSH2 0xFB0 JUMP JUMPDEST SWAP3 SWAP2 POP POP JUMP JUMPDEST PUSH1 0x0 DUP2 SWAP1 POP SWAP2 SWAP1 POP JUMP JUMPDEST PUSH1 0x0 PUSH1 0x5 SWAP1 POP SWAP2 SWAP1 POP JUMP JUMPDEST PUSH1 0x0 PUSH1 0x20 DUP3 ADD SWAP1 POP SWAP2 SWAP1 POP JUMP JUMPDEST PUSH1 0x0 DUP2 SWAP1 POP SWAP3 SWAP2 POP POP JUMP JUMPDEST PUSH1 0x0 DUP3 DUP3 MSTORE PUSH1 0x20 DUP3 ADD SWAP1 POP SWAP3 SWAP2 POP POP JUMP JUMPDEST PUSH1 0x0 PUSH2 0x10CF DUP3 PUSH2 0x11C8 JUMP JUMPDEST SWAP2 POP PUSH2 0x10DA DUP4 PUSH2 0x11C8 JUMP JUMPDEST SWAP3 POP DUP3 PUSH2 0x10EA JUMPI PUSH2 0x10E9 PUSH2 0x1223 JUMP JUMPDEST JUMPDEST DUP3 DUP3 DIV SWAP1 POP SWAP3 SWAP2 POP POP JUMP JUMPDEST PUSH1 0x0 PUSH2 0x1100 DUP3 PUSH2 0x11C8 JUMP JUMPDEST SWAP2 POP PUSH2 0x110B DUP4 PUSH2 0x11C8 JUMP JUMPDEST SWAP3 POP DUP2 PUSH32 0xFFFFFFFFFFFFFFFFFFFFFFFFFFFFFFFFFFFFFFFFFFFFFFFFFFFFFFFFFFFFFFFF DIV DUP4 GT DUP3 ISZERO ISZERO AND ISZERO PUSH2 0x1144 JUMPI PUSH2 0x1143 PUSH2 0x11F4 JUMP JUMPDEST JUMPDEST DUP3 DUP3 MUL SWAP1 POP SWAP3 SWAP2 POP POP JUMP JUMPDEST PUSH1 0x0 PUSH2 0x115A DUP3 PUSH2 0x11C8 JUMP JUMPDEST SWAP2 POP PUSH2 0x1165 DUP4 PUSH2 0x11C8 JUMP JUMPDEST SWAP3 POP DUP3 DUP3 LT ISZERO PUSH2 0x1178 JUMPI PUSH2 0x1177 PUSH2 0x11F4 JUMP JUMPDEST JUMPDEST DUP3 DUP3 SUB SWAP1 POP SWAP3 SWAP2 POP POP JUMP JUMPDEST PUSH1 0x0 PUSH2 0x118E DUP3 PUSH2 0x11A8 JUMP JUMPDEST SWAP1 POP SWAP2 SWAP1 POP JUMP JUMPDEST PUSH1 0x0 DUP2 SWAP1 POP PUSH2 0x11A3 DUP3 PUSH2 0x12FE JUMP JUMPDEST SWAP2 SWAP1 POP JUMP JUMPDEST PUSH1 0x0 PUSH20 0xFFFFFFFFFFFFFFFFFFFFFFFFFFFFFFFFFFFFFFFF DUP3 AND SWAP1 POP SWAP2 SWAP1 POP JUMP JUMPDEST PUSH1 0x0 DUP2 SWAP1 POP SWAP2 SWAP1 POP JUMP JUMPDEST PUSH1 0x0 PUSH4 0xFFFFFFFF DUP3 AND SWAP1 POP SWAP2 SWAP1 POP JUMP JUMPDEST PUSH1 0x0 PUSH2 0x11ED DUP3 PUSH2 0x1195 JUMP JUMPDEST SWAP1 POP SWAP2 SWAP1 POP JUMP JUMPDEST PUSH32 0x4E487B7100000000000000000000000000000000000000000000000000000000 PUSH1 0x0 MSTORE PUSH1 0x11 PUSH1 0x4 MSTORE PUSH1 0x24 PUSH1 0x0 REVERT JUMPDEST PUSH32 0x4E487B7100000000000000000000000000000000000000000000000000000000 PUSH1 0x0 MSTORE PUSH1 0x12 PUSH1 0x4 MSTORE PUSH1 0x24 PUSH1 0x0 REVERT JUMPDEST PUSH32 0x4E487B7100000000000000000000000000000000000000000000000000000000 PUSH1 0x0 MSTORE PUSH1 0x21 PUSH1 0x4 MSTORE PUSH1 0x24 PUSH1 0x0 REVERT JUMPDEST PUSH1 0x0 DUP1 REVERT JUMPDEST PUSH32 0x4F776E61626C653A206E6577206F776E657220697320746865207A65726F2061 PUSH1 0x0 DUP3 ADD MSTORE PUSH32 0x6464726573730000000000000000000000000000000000000000000000000000 PUSH1 0x20 DUP3 ADD MSTORE POP JUMP JUMPDEST PUSH32 0x4F776E61626C653A2063616C6C6572206973206E6F7420746865206F776E6572 PUSH1 0x0 DUP3 ADD MSTORE POP JUMP JUMPDEST PUSH1 0x5 DUP2 LT PUSH2 0x130F JUMPI PUSH2 0x130E PUSH2 0x1252 JUMP JUMPDEST JUMPDEST POP JUMP JUMPDEST PUSH2 0x131B DUP2 PUSH2 0x1183 JUMP JUMPDEST DUP2 EQ PUSH2 0x1326 JUMPI PUSH1 0x0 DUP1 REVERT JUMPDEST POP JUMP JUMPDEST PUSH1 0x5 DUP2 LT PUSH2 0x1336 JUMPI PUSH1 0x0 DUP1 REVERT JUMPDEST POP JUMP JUMPDEST PUSH2 0x1342 DUP2 PUSH2 0x11C8 JUMP JUMPDEST DUP2 EQ PUSH2 0x134D JUMPI PUSH1 0x0 DUP1 REVERT JUMPDEST POP JUMP JUMPDEST PUSH2 0x1359 DUP2 PUSH2 0x11D2 JUMP JUMPDEST DUP2 EQ PUSH2 0x1364 JUMPI PUSH1 0x0 DUP1 REVERT JUMPDEST POP JUMP INVALID LOG2 PUSH5 0x6970667358 0x22 SLT KECCAK256 PUSH30 0x137514CE3B0D2C869C398724D3828158C0CF47D8CE8178946B659AC013B3 SWAP11 PUSH5 0x736F6C6343 STOP ADDMOD SMOD STOP CALLER LOG2 PUSH5 0x6970667358 0x22 SLT KECCAK256 EXTCODEHASH 0xC6 DUP5 SIGNEXTEND SWAP11 ORIGIN 0xC8 EXTCODECOPY GASPRICE 0x27 SWAP2 0xAB SWAP4 PUSH28 0x4DAF774FD5805833B2CB30E7F0796AB7BE64736F6C634300080700 CALLER "
		},
		"gasEstimates": {
			"creation": {
				"codeDepositCost": "2952800",
				"executionCost": "3239",
				"totalCost": "2956039"
			},
			"external": {
				"accept(bool,uint256,uint256)": "infinite",
				"cancel(uint256)": "infinite",
				"claim(uint256)": "infinite",
				"close(uint256)": "infinite",
				"create(bool,uint256,uint256,uint256,uint256,uint256,uint32,uint32)": "infinite",
				"getBuyer(uint256)": "infinite",
				"getNextPayDate(uint256)": "infinite",
				"getPremium(uint256)": "infinite",
				"getPrices(uint256)": "infinite",
				"getRounds(uint256)": "infinite",
				"getSeller(uint256)": "infinite",
				"getSellerDeposit(uint256)": "infinite",
				"getStatus(uint256)": "infinite",
				"getSwap(uint256)": "3040",
				"getSwapId()": "2680",
				"payPremium(uint256)": "infinite"
			}
		},
		"methodIdentifiers": {
			"accept(bool,uint256,uint256)": "f566edac",
			"cancel(uint256)": "40e58ee5",
			"claim(uint256)": "379607f5",
			"close(uint256)": "0aebeb4e",
			"create(bool,uint256,uint256,uint256,uint256,uint256,uint32,uint32)": "8a614dd5",
			"getBuyer(uint256)": "5bf608b8",
			"getNextPayDate(uint256)": "8bfd13ae",
			"getPremium(uint256)": "1bf1fffb",
			"getPrices(uint256)": "91492956",
			"getRounds(uint256)": "13ef3dcc",
			"getSeller(uint256)": "d6a9de51",
			"getSellerDeposit(uint256)": "88106323",
			"getStatus(uint256)": "5c622a0e",
			"getSwap(uint256)": "4a0d89ba",
			"getSwapId()": "496ab39a",
			"payPremium(uint256)": "4364b26e"
		}
	},
	"abi": [
		{
			"inputs": [
				{
					"internalType": "bool",
					"name": "_isBuyerHost",
					"type": "bool"
				},
				{
					"internalType": "uint256",
					"name": "_initAssetPrice",
					"type": "uint256"
				},
				{
					"internalType": "uint256",
					"name": "_acceptedSwapId",
					"type": "uint256"
				}
			],
			"name": "accept",
			"outputs": [
				{
					"internalType": "uint256",
					"name": "",
					"type": "uint256"
				}
			],
			"stateMutability": "nonpayable",
			"type": "function"
		},
		{
			"inputs": [
				{
					"internalType": "uint256",
					"name": "_targetSwapId",
					"type": "uint256"
				}
			],
			"name": "cancel",
			"outputs": [],
			"stateMutability": "nonpayable",
			"type": "function"
		},
		{
			"inputs": [
				{
					"internalType": "uint256",
					"name": "_targetSwapId",
					"type": "uint256"
				}
			],
			"name": "claim",
			"outputs": [],
			"stateMutability": "nonpayable",
			"type": "function"
		},
		{
			"inputs": [
				{
					"internalType": "uint256",
					"name": "_targetSwapId",
					"type": "uint256"
				}
			],
			"name": "close",
			"outputs": [],
			"stateMutability": "nonpayable",
			"type": "function"
		},
		{
			"inputs": [
				{
					"internalType": "bool",
					"name": "_isBuyer",
					"type": "bool"
				},
				{
					"internalType": "uint256",
					"name": "_initAssetPrice",
					"type": "uint256"
				},
				{
					"internalType": "uint256",
					"name": "_claimPrice",
					"type": "uint256"
				},
				{
					"internalType": "uint256",
					"name": "_liquidationPrice",
					"type": "uint256"
				},
				{
					"internalType": "uint256",
					"name": "_sellerDeposit",
					"type": "uint256"
				},
				{
					"internalType": "uint256",
					"name": "_premium",
					"type": "uint256"
				},
				{
					"internalType": "uint32",
					"name": "_totalRounds",
					"type": "uint32"
				},
				{
					"internalType": "uint32",
					"name": "_assetType",
					"type": "uint32"
				}
			],
			"name": "create",
			"outputs": [
				{
					"internalType": "uint256",
					"name": "",
					"type": "uint256"
				}
			],
			"stateMutability": "nonpayable",
			"type": "function"
		},
		{
			"inputs": [
				{
					"internalType": "uint256",
					"name": "swapId",
					"type": "uint256"
				}
			],
			"name": "getBuyer",
			"outputs": [
				{
					"internalType": "address",
					"name": "",
					"type": "address"
				}
			],
			"stateMutability": "view",
			"type": "function"
		},
		{
			"inputs": [
				{
					"internalType": "uint256",
					"name": "swapId",
					"type": "uint256"
				}
			],
			"name": "getNextPayDate",
			"outputs": [
				{
					"internalType": "uint256",
					"name": "",
					"type": "uint256"
				}
			],
			"stateMutability": "view",
			"type": "function"
		},
		{
			"inputs": [
				{
					"internalType": "uint256",
					"name": "swapId",
					"type": "uint256"
				}
			],
			"name": "getPremium",
			"outputs": [
				{
					"internalType": "uint256",
					"name": "",
					"type": "uint256"
				}
			],
			"stateMutability": "view",
			"type": "function"
		},
		{
			"inputs": [
				{
					"internalType": "uint256",
					"name": "swapId",
					"type": "uint256"
				}
			],
			"name": "getPrices",
			"outputs": [
				{
					"internalType": "uint256[5]",
					"name": "",
					"type": "uint256[5]"
				}
			],
			"stateMutability": "view",
			"type": "function"
		},
		{
			"inputs": [
				{
					"internalType": "uint256",
					"name": "swapId",
					"type": "uint256"
				}
			],
			"name": "getRounds",
			"outputs": [
				{
					"internalType": "uint32",
					"name": "",
					"type": "uint32"
				}
			],
			"stateMutability": "view",
			"type": "function"
		},
		{
			"inputs": [
				{
					"internalType": "uint256",
					"name": "swapId",
					"type": "uint256"
				}
			],
			"name": "getSeller",
			"outputs": [
				{
					"internalType": "address",
					"name": "",
					"type": "address"
				}
			],
			"stateMutability": "view",
			"type": "function"
		},
		{
			"inputs": [
				{
					"internalType": "uint256",
					"name": "swapId",
					"type": "uint256"
				}
			],
			"name": "getSellerDeposit",
			"outputs": [
				{
					"internalType": "uint256",
					"name": "",
					"type": "uint256"
				}
			],
			"stateMutability": "view",
			"type": "function"
		},
		{
			"inputs": [
				{
					"internalType": "uint256",
					"name": "swapId",
					"type": "uint256"
				}
			],
			"name": "getStatus",
			"outputs": [
				{
					"internalType": "enum Swap.Status",
					"name": "",
					"type": "uint8"
				}
			],
			"stateMutability": "view",
			"type": "function"
		},
		{
			"inputs": [
				{
					"internalType": "uint256",
					"name": "swapId",
					"type": "uint256"
				}
			],
			"name": "getSwap",
			"outputs": [
				{
					"internalType": "contract Swap",
					"name": "",
					"type": "address"
				}
			],
			"stateMutability": "view",
			"type": "function"
		},
		{
			"inputs": [],
			"name": "getSwapId",
			"outputs": [
				{
					"components": [
						{
							"internalType": "uint256",
							"name": "_value",
							"type": "uint256"
						}
					],
					"internalType": "struct Counters.Counter",
					"name": "",
					"type": "tuple"
				}
			],
			"stateMutability": "view",
			"type": "function"
		},
		{
			"inputs": [
				{
					"internalType": "uint256",
					"name": "_targetSwapId",
					"type": "uint256"
				}
			],
			"name": "payPremium",
			"outputs": [],
			"stateMutability": "nonpayable",
			"type": "function"
		}
	]
}