{
	"contracts/CDS/CDS.sol": {
		"CDS": {
			"abi": [
				{
					"inputs": [
						{
							"internalType": "uint256",
							"name": "_initAssetPrice",
							"type": "uint256"
						},
						{
							"internalType": "uint256",
							"name": "_claimPrice",
							"type": "uint256"
						},
						{
							"internalType": "uint256",
							"name": "_liquidationPrice",
							"type": "uint256"
						},
						{
							"internalType": "uint256",
							"name": "_premium",
							"type": "uint256"
						},
						{
							"internalType": "uint256",
							"name": "_sellerDeposit",
							"type": "uint256"
						},
						{
							"internalType": "uint32",
							"name": "_rounds",
							"type": "uint32"
						},
						{
							"internalType": "uint32",
							"name": "_assetType",
							"type": "uint32"
						}
					],
					"stateMutability": "nonpayable",
					"type": "constructor"
				},
				{
					"anonymous": false,
					"inputs": [
						{
							"indexed": true,
							"internalType": "address",
							"name": "previousOwner",
							"type": "address"
						},
						{
							"indexed": true,
							"internalType": "address",
							"name": "newOwner",
							"type": "address"
						}
					],
					"name": "OwnershipTransferred",
					"type": "event"
				},
				{
					"inputs": [],
					"name": "amountOfAsset",
					"outputs": [
						{
							"internalType": "uint256",
							"name": "",
							"type": "uint256"
						}
					],
					"stateMutability": "view",
					"type": "function"
				},
				{
					"inputs": [],
					"name": "assetType",
					"outputs": [
						{
							"internalType": "uint32",
							"name": "",
							"type": "uint32"
						}
					],
					"stateMutability": "view",
					"type": "function"
				},
				{
					"inputs": [],
					"name": "claimPrice",
					"outputs": [
						{
							"internalType": "uint256",
							"name": "",
							"type": "uint256"
						}
					],
					"stateMutability": "view",
					"type": "function"
				},
				{
					"inputs": [],
					"name": "getBuyer",
					"outputs": [
						{
							"internalType": "address",
							"name": "",
							"type": "address"
						}
					],
					"stateMutability": "view",
					"type": "function"
				},
				{
					"inputs": [],
					"name": "getClaimReward",
					"outputs": [
						{
							"internalType": "uint256",
							"name": "",
							"type": "uint256"
						}
					],
					"stateMutability": "view",
					"type": "function"
				},
				{
					"inputs": [
						{
							"internalType": "uint32",
							"name": "_assetType",
							"type": "uint32"
						}
					],
					"name": "getCurrPrice",
					"outputs": [
						{
							"internalType": "uint256",
							"name": "",
							"type": "uint256"
						}
					],
					"stateMutability": "view",
					"type": "function"
				},
				{
					"inputs": [],
					"name": "getPrices",
					"outputs": [
						{
							"internalType": "uint256[5]",
							"name": "",
							"type": "uint256[5]"
						}
					],
					"stateMutability": "view",
					"type": "function"
				},
				{
					"inputs": [],
					"name": "getSeller",
					"outputs": [
						{
							"internalType": "address",
							"name": "",
							"type": "address"
						}
					],
					"stateMutability": "view",
					"type": "function"
				},
				{
					"inputs": [],
					"name": "initAssetPrice",
					"outputs": [
						{
							"internalType": "uint256",
							"name": "",
							"type": "uint256"
						}
					],
					"stateMutability": "view",
					"type": "function"
				},
				{
					"inputs": [],
					"name": "liquidationPrice",
					"outputs": [
						{
							"internalType": "uint256",
							"name": "",
							"type": "uint256"
						}
					],
					"stateMutability": "view",
					"type": "function"
				},
				{
					"inputs": [],
					"name": "owner",
					"outputs": [
						{
							"internalType": "address",
							"name": "",
							"type": "address"
						}
					],
					"stateMutability": "view",
					"type": "function"
				},
				{
					"inputs": [],
					"name": "premium",
					"outputs": [
						{
							"internalType": "uint256",
							"name": "",
							"type": "uint256"
						}
					],
					"stateMutability": "view",
					"type": "function"
				},
				{
					"inputs": [],
					"name": "renounceOwnership",
					"outputs": [],
					"stateMutability": "nonpayable",
					"type": "function"
				},
				{
					"inputs": [],
					"name": "rounds",
					"outputs": [
						{
							"internalType": "uint32",
							"name": "",
							"type": "uint32"
						}
					],
					"stateMutability": "view",
					"type": "function"
				},
				{
					"inputs": [],
					"name": "sellerDeposit",
					"outputs": [
						{
							"internalType": "uint256",
							"name": "",
							"type": "uint256"
						}
					],
					"stateMutability": "view",
					"type": "function"
				},
				{
					"inputs": [
						{
							"internalType": "address",
							"name": "_buyer",
							"type": "address"
						}
					],
					"name": "setBuyer",
					"outputs": [
						{
							"internalType": "address",
							"name": "",
							"type": "address"
						}
					],
					"stateMutability": "nonpayable",
					"type": "function"
				},
				{
					"inputs": [
						{
							"internalType": "uint256",
							"name": "_initAssetPrice",
							"type": "uint256"
						}
					],
					"name": "setInitAssetPrice",
					"outputs": [
						{
							"internalType": "uint256",
							"name": "",
							"type": "uint256"
						}
					],
					"stateMutability": "nonpayable",
					"type": "function"
				},
				{
					"inputs": [
						{
							"internalType": "address",
							"name": "_participants",
							"type": "address"
						},
						{
							"internalType": "bool",
							"name": "_isBuyer",
							"type": "bool"
						}
					],
					"name": "setParticipants",
					"outputs": [],
					"stateMutability": "nonpayable",
					"type": "function"
				},
				{
					"inputs": [
						{
							"internalType": "uint32",
							"name": "_rounds",
							"type": "uint32"
						}
					],
					"name": "setRounds",
					"outputs": [
						{
							"internalType": "uint32",
							"name": "",
							"type": "uint32"
						}
					],
					"stateMutability": "nonpayable",
					"type": "function"
				},
				{
					"inputs": [
						{
							"internalType": "address",
							"name": "_seller",
							"type": "address"
						}
					],
					"name": "setSeller",
					"outputs": [
						{
							"internalType": "address",
							"name": "",
							"type": "address"
						}
					],
					"stateMutability": "nonpayable",
					"type": "function"
				},
				{
					"inputs": [
						{
							"internalType": "enum CDS.Status",
							"name": "_status",
							"type": "uint8"
						}
					],
					"name": "setStatus",
					"outputs": [
						{
							"internalType": "enum CDS.Status",
							"name": "",
							"type": "uint8"
						}
					],
					"stateMutability": "nonpayable",
					"type": "function"
				},
				{
					"inputs": [],
					"name": "status",
					"outputs": [
						{
							"internalType": "enum CDS.Status",
							"name": "",
							"type": "uint8"
						}
					],
					"stateMutability": "view",
					"type": "function"
				},
				{
					"inputs": [],
					"name": "totalRounds",
					"outputs": [
						{
							"internalType": "uint32",
							"name": "",
							"type": "uint32"
						}
					],
					"stateMutability": "view",
					"type": "function"
				},
				{
					"inputs": [
						{
							"internalType": "address",
							"name": "newOwner",
							"type": "address"
						}
					],
					"name": "transferOwnership",
					"outputs": [],
					"stateMutability": "nonpayable",
					"type": "function"
				}
			],
			"devdoc": {
				"kind": "dev",
				"methods": {
					"owner()": {
						"details": "Returns the address of the current owner."
					},
					"renounceOwnership()": {
						"details": "Leaves the contract without owner. It will not be possible to call `onlyOwner` functions anymore. Can only be called by the current owner. NOTE: Renouncing ownership will leave the contract without an owner, thereby removing any functionality that is only available to the owner."
					},
					"transferOwnership(address)": {
						"details": "Transfers ownership of the contract to a new account (`newOwner`). Can only be called by the current owner."
					}
				},
				"version": 1
			},
			"evm": {
				"assembly": "    /* \"contracts/CDS/CDS.sol\":208:2957  contract CDS is Ownable, PriceConsumer(0xF2A3Fa0266A0fEFFA87DA45F0D3C45aC66FE05c5) {... */\n  mstore(0x40, 0x80)\n    /* \"contracts/CDS/CDS.sol\":793:1533  constructor(... */\n  callvalue\n  dup1\n  iszero\n  tag_1\n  jumpi\n  0x00\n  dup1\n  revert\ntag_1:\n  pop\n  mload(0x40)\n  sub(codesize, bytecodeSize)\n  dup1\n  bytecodeSize\n  dup4\n  codecopy\n  dup2\n  dup2\n  add\n  0x40\n  mstore\n  dup2\n  add\n  swap1\n  tag_2\n  swap2\n  swap1\n  tag_3\n  jump\t// in\ntag_2:\n    /* \"contracts/CDS/CDS.sol\":247:289  0xF2A3Fa0266A0fEFFA87DA45F0D3C45aC66FE05c5 */\n  0xf2a3fa0266a0feffa87da45f0d3c45ac66fe05c5\n    /* \"@openzeppelin/contracts/access/Ownable.sol\":936:968  _transferOwnership(_msgSender()) */\n  tag_8\n    /* \"@openzeppelin/contracts/access/Ownable.sol\":955:967  _msgSender() */\n  tag_9\n    /* \"@openzeppelin/contracts/access/Ownable.sol\":955:965  _msgSender */\n  shl(0x20, tag_10)\n    /* \"@openzeppelin/contracts/access/Ownable.sol\":955:967  _msgSender() */\n  0x20\n  shr\n  jump\t// in\ntag_9:\n    /* \"@openzeppelin/contracts/access/Ownable.sol\":936:954  _transferOwnership */\n  shl(0x20, tag_11)\n    /* \"@openzeppelin/contracts/access/Ownable.sol\":936:968  _transferOwnership(_msgSender()) */\n  0x20\n  shr\n  jump\t// in\ntag_8:\n    /* \"contracts/CDS/PriceConsumer.sol\":321:329  _address */\n  dup1\n    /* \"contracts/CDS/PriceConsumer.sol\":291:302  priceOracle */\n  0x01\n  0x00\n    /* \"contracts/CDS/PriceConsumer.sol\":291:330  priceOracle = PriceOracleMock(_address) */\n  0x0100\n  exp\n  dup2\n  sload\n  dup2\n  0xffffffffffffffffffffffffffffffffffffffff\n  mul\n  not\n  and\n  swap1\n  dup4\n  0xffffffffffffffffffffffffffffffffffffffff\n  and\n  mul\n  or\n  swap1\n  sstore\n  pop\n    /* \"contracts/CDS/PriceConsumer.sol\":255:335  constructor(address _address) {... */\n  pop\n    /* \"contracts/CDS/CDS.sol\":1010:1025  _initAssetPrice */\n  dup7\n    /* \"contracts/CDS/CDS.sol\":993:1007  initAssetPrice */\n  0x03\n    /* \"contracts/CDS/CDS.sol\":993:1025  initAssetPrice = _initAssetPrice */\n  dup2\n  swap1\n  sstore\n  pop\n    /* \"contracts/CDS/CDS.sol\":1044:1055  _claimPrice */\n  dup6\n    /* \"contracts/CDS/CDS.sol\":1031:1041  claimPrice */\n  0x04\n    /* \"contracts/CDS/CDS.sol\":1031:1055  claimPrice = _claimPrice */\n  dup2\n  swap1\n  sstore\n  pop\n    /* \"contracts/CDS/CDS.sol\":1080:1097  _liquidationPrice */\n  dup5\n    /* \"contracts/CDS/CDS.sol\":1061:1077  liquidationPrice */\n  0x05\n    /* \"contracts/CDS/CDS.sol\":1061:1097  liquidationPrice = _liquidationPrice */\n  dup2\n  swap1\n  sstore\n  pop\n    /* \"contracts/CDS/CDS.sol\":1113:1121  _premium */\n  dup4\n    /* \"contracts/CDS/CDS.sol\":1103:1110  premium */\n  0x06\n    /* \"contracts/CDS/CDS.sol\":1103:1121  premium = _premium */\n  dup2\n  swap1\n  sstore\n  pop\n    /* \"contracts/CDS/CDS.sol\":1143:1157  _sellerDeposit */\n  dup3\n    /* \"contracts/CDS/CDS.sol\":1127:1140  sellerDeposit */\n  0x07\n    /* \"contracts/CDS/CDS.sol\":1127:1157  sellerDeposit = _sellerDeposit */\n  dup2\n  swap1\n  sstore\n  pop\n    /* \"contracts/CDS/CDS.sol\":1172:1179  _rounds */\n  dup2\n    /* \"contracts/CDS/CDS.sol\":1163:1169  rounds */\n  0x0a\n  0x14\n    /* \"contracts/CDS/CDS.sol\":1163:1179  rounds = _rounds */\n  0x0100\n  exp\n  dup2\n  sload\n  dup2\n  0xffffffff\n  mul\n  not\n  and\n  swap1\n  dup4\n  0xffffffff\n  and\n  mul\n  or\n  swap1\n  sstore\n  pop\n    /* \"contracts/CDS/CDS.sol\":1199:1206  _rounds */\n  dup2\n    /* \"contracts/CDS/CDS.sol\":1185:1196  totalRounds */\n  0x0a\n  0x18\n    /* \"contracts/CDS/CDS.sol\":1185:1206  totalRounds = _rounds */\n  0x0100\n  exp\n  dup2\n  sload\n  dup2\n  0xffffffff\n  mul\n  not\n  and\n  swap1\n  dup4\n  0xffffffff\n  and\n  mul\n  or\n  swap1\n  sstore\n  pop\n    /* \"contracts/CDS/CDS.sol\":1228:1311  initAssetPrice.calcAmountOfAsset(... */\n  tag_14\n    /* \"contracts/CDS/CDS.sol\":1268:1284  liquidationPrice */\n  sload(0x05)\n    /* \"contracts/CDS/CDS.sol\":1292:1305  sellerDeposit */\n  sload(0x07)\n    /* \"contracts/CDS/CDS.sol\":1228:1242  initAssetPrice */\n  sload(0x03)\n    /* \"contracts/CDS/CDS.sol\":1228:1260  initAssetPrice.calcAmountOfAsset */\n  or(tag_0_117, shl(0x20, tag_15))\n  swap1\n    /* \"contracts/CDS/CDS.sol\":1228:1311  initAssetPrice.calcAmountOfAsset(... */\n  swap3\n  swap2\n  swap1\n  0x20\n  shr\n  jump\t// in\ntag_14:\n    /* \"contracts/CDS/CDS.sol\":1212:1225  amountOfAsset */\n  0x08\n    /* \"contracts/CDS/CDS.sol\":1212:1311  amountOfAsset = initAssetPrice.calcAmountOfAsset(... */\n  dup2\n  swap1\n  sstore\n  pop\n    /* \"contracts/CDS/CDS.sol\":1346:1347  0 */\n  0x00\n    /* \"contracts/CDS/CDS.sol\":1332:1342  _assetType */\n  dup2\n    /* \"contracts/CDS/CDS.sol\":1332:1347  _assetType == 0 */\n  0xffffffff\n  and\n  eq\n    /* \"contracts/CDS/CDS.sol\":1332:1366  _assetType == 0 || _assetType == 1 */\n  dup1\n  tag_16\n  jumpi\n  pop\n    /* \"contracts/CDS/CDS.sol\":1365:1366  1 */\n  0x01\n    /* \"contracts/CDS/CDS.sol\":1351:1361  _assetType */\n  dup2\n    /* \"contracts/CDS/CDS.sol\":1351:1366  _assetType == 1 */\n  0xffffffff\n  and\n  eq\n    /* \"contracts/CDS/CDS.sol\":1332:1366  _assetType == 0 || _assetType == 1 */\ntag_16:\n    /* \"contracts/CDS/CDS.sol\":1332:1385  _assetType == 0 || _assetType == 1 || _assetType == 2 */\n  dup1\n  tag_17\n  jumpi\n  pop\n    /* \"contracts/CDS/CDS.sol\":1384:1385  2 */\n  0x02\n    /* \"contracts/CDS/CDS.sol\":1370:1380  _assetType */\n  dup2\n    /* \"contracts/CDS/CDS.sol\":1370:1385  _assetType == 2 */\n  0xffffffff\n  and\n  eq\n    /* \"contracts/CDS/CDS.sol\":1332:1385  _assetType == 0 || _assetType == 1 || _assetType == 2 */\ntag_17:\n    /* \"contracts/CDS/CDS.sol\":1317:1421  require(... */\n  tag_18\n  jumpi\n  mload(0x40)\n  0x08c379a000000000000000000000000000000000000000000000000000000000\n  dup2\n  mstore\n  0x04\n  add\n  tag_19\n  swap1\n  tag_20\n  jump\t// in\ntag_19:\n  mload(0x40)\n  dup1\n  swap2\n  sub\n  swap1\n  revert\ntag_18:\n    /* \"contracts/CDS/CDS.sol\":1439:1449  _assetType */\n  dup1\n    /* \"contracts/CDS/CDS.sol\":1427:1436  assetType */\n  0x0a\n  0x1c\n    /* \"contracts/CDS/CDS.sol\":1427:1449  assetType = _assetType */\n  0x0100\n  exp\n  dup2\n  sload\n  dup2\n  0xffffffff\n  mul\n  not\n  and\n  swap1\n  dup4\n  0xffffffff\n  and\n  mul\n  or\n  swap1\n  sstore\n  pop\n    /* \"contracts/CDS/CDS.sol\":1472:1473  0 */\n  0x00\n    /* \"contracts/CDS/CDS.sol\":1456:1461  buyer */\n  0x09\n  0x00\n    /* \"contracts/CDS/CDS.sol\":1456:1474  buyer = address(0) */\n  0x0100\n  exp\n  dup2\n  sload\n  dup2\n  0xffffffffffffffffffffffffffffffffffffffff\n  mul\n  not\n  and\n  swap1\n  dup4\n  0xffffffffffffffffffffffffffffffffffffffff\n  and\n  mul\n  or\n  swap1\n  sstore\n  pop\n    /* \"contracts/CDS/CDS.sol\":1497:1498  0 */\n  0x00\n    /* \"contracts/CDS/CDS.sol\":1480:1486  seller */\n  0x0a\n  0x00\n    /* \"contracts/CDS/CDS.sol\":1480:1499  seller = address(0) */\n  0x0100\n  exp\n  dup2\n  sload\n  dup2\n  0xffffffffffffffffffffffffffffffffffffffff\n  mul\n  not\n  and\n  swap1\n  dup4\n  0xffffffffffffffffffffffffffffffffffffffff\n  and\n  mul\n  or\n  swap1\n  sstore\n  pop\n    /* \"contracts/CDS/CDS.sol\":1514:1528  Status.pending */\n  0x01\n    /* \"contracts/CDS/CDS.sol\":1505:1511  status */\n  0x02\n  0x14\n    /* \"contracts/CDS/CDS.sol\":1505:1528  status = Status.pending */\n  0x0100\n  exp\n  dup2\n  sload\n  dup2\n  0xff\n  mul\n  not\n  and\n  swap1\n  dup4\n  0x04\n  dup2\n  gt\n  iszero\n  tag_21\n  jumpi\n  tag_22\n  tag_23\n  jump\t// in\ntag_22:\ntag_21:\n  mul\n  or\n  swap1\n  sstore\n  pop\n    /* \"contracts/CDS/CDS.sol\":793:1533  constructor(... */\n  pop\n  pop\n  pop\n  pop\n  pop\n  pop\n  pop\n    /* \"contracts/CDS/CDS.sol\":208:2957  contract CDS is Ownable, PriceConsumer(0xF2A3Fa0266A0fEFFA87DA45F0D3C45aC66FE05c5) {... */\n  jump(tag_24)\n    /* \"@openzeppelin/contracts/utils/Context.sol\":640:736  function _msgSender() internal view virtual returns (address) {... */\ntag_10:\n    /* \"@openzeppelin/contracts/utils/Context.sol\":693:700  address */\n  0x00\n    /* \"@openzeppelin/contracts/utils/Context.sol\":719:729  msg.sender */\n  caller\n    /* \"@openzeppelin/contracts/utils/Context.sol\":712:729  return msg.sender */\n  swap1\n  pop\n    /* \"@openzeppelin/contracts/utils/Context.sol\":640:736  function _msgSender() internal view virtual returns (address) {... */\n  swap1\n  jump\t// out\n    /* \"@openzeppelin/contracts/access/Ownable.sol\":2433:2620  function _transferOwnership(address newOwner) internal virtual {... */\ntag_11:\n    /* \"@openzeppelin/contracts/access/Ownable.sol\":2506:2522  address oldOwner */\n  0x00\n    /* \"@openzeppelin/contracts/access/Ownable.sol\":2525:2531  _owner */\n  dup1\n  0x00\n  swap1\n  sload\n  swap1\n  0x0100\n  exp\n  swap1\n  div\n  0xffffffffffffffffffffffffffffffffffffffff\n  and\n    /* \"@openzeppelin/contracts/access/Ownable.sol\":2506:2531  address oldOwner = _owner */\n  swap1\n  pop\n    /* \"@openzeppelin/contracts/access/Ownable.sol\":2550:2558  newOwner */\n  dup2\n    /* \"@openzeppelin/contracts/access/Ownable.sol\":2541:2547  _owner */\n  0x00\n  dup1\n    /* \"@openzeppelin/contracts/access/Ownable.sol\":2541:2558  _owner = newOwner */\n  0x0100\n  exp\n  dup2\n  sload\n  dup2\n  0xffffffffffffffffffffffffffffffffffffffff\n  mul\n  not\n  and\n  swap1\n  dup4\n  0xffffffffffffffffffffffffffffffffffffffff\n  and\n  mul\n  or\n  swap1\n  sstore\n  pop\n    /* \"@openzeppelin/contracts/access/Ownable.sol\":2604:2612  newOwner */\n  dup2\n    /* \"@openzeppelin/contracts/access/Ownable.sol\":2573:2613  OwnershipTransferred(oldOwner, newOwner) */\n  0xffffffffffffffffffffffffffffffffffffffff\n  and\n    /* \"@openzeppelin/contracts/access/Ownable.sol\":2594:2602  oldOwner */\n  dup2\n    /* \"@openzeppelin/contracts/access/Ownable.sol\":2573:2613  OwnershipTransferred(oldOwner, newOwner) */\n  0xffffffffffffffffffffffffffffffffffffffff\n  and\n  0x8be0079c531659141344cd1fd0a4f28419497f9722a3daafe3b4186f6b6457e0\n  mload(0x40)\n  mload(0x40)\n  dup1\n  swap2\n  sub\n  swap1\n  log3\n    /* \"@openzeppelin/contracts/access/Ownable.sol\":2496:2620  {... */\n  pop\n    /* \"@openzeppelin/contracts/access/Ownable.sol\":2433:2620  function _transferOwnership(address newOwner) internal virtual {... */\n  pop\n  jump\t// out\n    /* \"contracts/libs/LibSwap.sol\":592:795  function calcAmountOfAsset(... */\ntag_15:\n    /* \"contracts/libs/LibSwap.sol\":722:729  uint256 */\n  0x00\n    /* \"contracts/libs/LibSwap.sol\":744:790  _sellerDeposit.div(_initial.sub(_liquidation)) */\n  tag_28\n    /* \"contracts/libs/LibSwap.sol\":763:789  _initial.sub(_liquidation) */\n  tag_29\n    /* \"contracts/libs/LibSwap.sol\":776:788  _liquidation */\n  dup5\n    /* \"contracts/libs/LibSwap.sol\":763:771  _initial */\n  dup7\n    /* \"contracts/libs/LibSwap.sol\":763:775  _initial.sub */\n  or(tag_0_118, shl(0x20, tag_30))\n  swap1\n    /* \"contracts/libs/LibSwap.sol\":763:789  _initial.sub(_liquidation) */\n  swap2\n  swap1\n  0x20\n  shr\n  jump\t// in\ntag_29:\n    /* \"contracts/libs/LibSwap.sol\":744:758  _sellerDeposit */\n  dup4\n    /* \"contracts/libs/LibSwap.sol\":744:762  _sellerDeposit.div */\n  or(tag_0_119, shl(0x20, tag_31))\n  swap1\n    /* \"contracts/libs/LibSwap.sol\":744:790  _sellerDeposit.div(_initial.sub(_liquidation)) */\n  swap2\n  swap1\n  0x20\n  shr\n  jump\t// in\ntag_28:\n    /* \"contracts/libs/LibSwap.sol\":737:790  return _sellerDeposit.div(_initial.sub(_liquidation)) */\n  swap1\n  pop\n    /* \"contracts/libs/LibSwap.sol\":592:795  function calcAmountOfAsset(... */\n  swap4\n  swap3\n  pop\n  pop\n  pop\n  jump\t// out\n    /* \"@openzeppelin/contracts/utils/math/SafeMath.sol\":3122:3218  function sub(uint256 a, uint256 b) internal pure returns (uint256) {... */\ntag_30:\n    /* \"@openzeppelin/contracts/utils/math/SafeMath.sol\":3180:3187  uint256 */\n  0x00\n    /* \"@openzeppelin/contracts/utils/math/SafeMath.sol\":3210:3211  b */\n  dup2\n    /* \"@openzeppelin/contracts/utils/math/SafeMath.sol\":3206:3207  a */\n  dup4\n    /* \"@openzeppelin/contracts/utils/math/SafeMath.sol\":3206:3211  a - b */\n  tag_33\n  swap2\n  swap1\n  tag_34\n  jump\t// in\ntag_33:\n    /* \"@openzeppelin/contracts/utils/math/SafeMath.sol\":3199:3211  return a - b */\n  swap1\n  pop\n    /* \"@openzeppelin/contracts/utils/math/SafeMath.sol\":3122:3218  function sub(uint256 a, uint256 b) internal pure returns (uint256) {... */\n  swap3\n  swap2\n  pop\n  pop\n  jump\t// out\n    /* \"@openzeppelin/contracts/utils/math/SafeMath.sol\":3850:3946  function div(uint256 a, uint256 b) internal pure returns (uint256) {... */\ntag_31:\n    /* \"@openzeppelin/contracts/utils/math/SafeMath.sol\":3908:3915  uint256 */\n  0x00\n    /* \"@openzeppelin/contracts/utils/math/SafeMath.sol\":3938:3939  b */\n  dup2\n    /* \"@openzeppelin/contracts/utils/math/SafeMath.sol\":3934:3935  a */\n  dup4\n    /* \"@openzeppelin/contracts/utils/math/SafeMath.sol\":3934:3939  a / b */\n  tag_36\n  swap2\n  swap1\n  tag_37\n  jump\t// in\ntag_36:\n    /* \"@openzeppelin/contracts/utils/math/SafeMath.sol\":3927:3939  return a / b */\n  swap1\n  pop\n    /* \"@openzeppelin/contracts/utils/math/SafeMath.sol\":3850:3946  function div(uint256 a, uint256 b) internal pure returns (uint256) {... */\n  swap3\n  swap2\n  pop\n  pop\n  jump\t// out\n    /* \"#utility.yul\":88:205   */\ntag_39:\n    /* \"#utility.yul\":197:198   */\n  0x00\n    /* \"#utility.yul\":194:195   */\n  dup1\n    /* \"#utility.yul\":187:199   */\n  revert\n    /* \"#utility.yul\":334:411   */\ntag_41:\n    /* \"#utility.yul\":371:378   */\n  0x00\n    /* \"#utility.yul\":400:405   */\n  dup2\n    /* \"#utility.yul\":389:405   */\n  swap1\n  pop\n    /* \"#utility.yul\":334:411   */\n  swap2\n  swap1\n  pop\n  jump\t// out\n    /* \"#utility.yul\":417:539   */\ntag_42:\n    /* \"#utility.yul\":490:514   */\n  tag_58\n    /* \"#utility.yul\":508:513   */\n  dup2\n    /* \"#utility.yul\":490:514   */\n  tag_41\n  jump\t// in\ntag_58:\n    /* \"#utility.yul\":483:488   */\n  dup2\n    /* \"#utility.yul\":480:515   */\n  eq\n    /* \"#utility.yul\":470:533   */\n  tag_59\n  jumpi\n    /* \"#utility.yul\":529:530   */\n  0x00\n    /* \"#utility.yul\":526:527   */\n  dup1\n    /* \"#utility.yul\":519:531   */\n  revert\n    /* \"#utility.yul\":470:533   */\ntag_59:\n    /* \"#utility.yul\":417:539   */\n  pop\n  jump\t// out\n    /* \"#utility.yul\":545:688   */\ntag_43:\n    /* \"#utility.yul\":602:607   */\n  0x00\n    /* \"#utility.yul\":633:639   */\n  dup2\n    /* \"#utility.yul\":627:640   */\n  mload\n    /* \"#utility.yul\":618:640   */\n  swap1\n  pop\n    /* \"#utility.yul\":649:682   */\n  tag_61\n    /* \"#utility.yul\":676:681   */\n  dup2\n    /* \"#utility.yul\":649:682   */\n  tag_42\n  jump\t// in\ntag_61:\n    /* \"#utility.yul\":545:688   */\n  swap3\n  swap2\n  pop\n  pop\n  jump\t// out\n    /* \"#utility.yul\":694:787   */\ntag_44:\n    /* \"#utility.yul\":730:737   */\n  0x00\n    /* \"#utility.yul\":770:780   */\n  0xffffffff\n    /* \"#utility.yul\":763:768   */\n  dup3\n    /* \"#utility.yul\":759:781   */\n  and\n    /* \"#utility.yul\":748:781   */\n  swap1\n  pop\n    /* \"#utility.yul\":694:787   */\n  swap2\n  swap1\n  pop\n  jump\t// out\n    /* \"#utility.yul\":793:913   */\ntag_45:\n    /* \"#utility.yul\":865:888   */\n  tag_64\n    /* \"#utility.yul\":882:887   */\n  dup2\n    /* \"#utility.yul\":865:888   */\n  tag_44\n  jump\t// in\ntag_64:\n    /* \"#utility.yul\":858:863   */\n  dup2\n    /* \"#utility.yul\":855:889   */\n  eq\n    /* \"#utility.yul\":845:907   */\n  tag_65\n  jumpi\n    /* \"#utility.yul\":903:904   */\n  0x00\n    /* \"#utility.yul\":900:901   */\n  dup1\n    /* \"#utility.yul\":893:905   */\n  revert\n    /* \"#utility.yul\":845:907   */\ntag_65:\n    /* \"#utility.yul\":793:913   */\n  pop\n  jump\t// out\n    /* \"#utility.yul\":919:1060   */\ntag_46:\n    /* \"#utility.yul\":975:980   */\n  0x00\n    /* \"#utility.yul\":1006:1012   */\n  dup2\n    /* \"#utility.yul\":1000:1013   */\n  mload\n    /* \"#utility.yul\":991:1013   */\n  swap1\n  pop\n    /* \"#utility.yul\":1022:1054   */\n  tag_67\n    /* \"#utility.yul\":1048:1053   */\n  dup2\n    /* \"#utility.yul\":1022:1054   */\n  tag_45\n  jump\t// in\ntag_67:\n    /* \"#utility.yul\":919:1060   */\n  swap3\n  swap2\n  pop\n  pop\n  jump\t// out\n    /* \"#utility.yul\":1066:2353   */\ntag_3:\n    /* \"#utility.yul\":1188:1194   */\n  0x00\n    /* \"#utility.yul\":1196:1202   */\n  dup1\n    /* \"#utility.yul\":1204:1210   */\n  0x00\n    /* \"#utility.yul\":1212:1218   */\n  dup1\n    /* \"#utility.yul\":1220:1226   */\n  0x00\n    /* \"#utility.yul\":1228:1234   */\n  dup1\n    /* \"#utility.yul\":1236:1242   */\n  0x00\n    /* \"#utility.yul\":1285:1288   */\n  0xe0\n    /* \"#utility.yul\":1273:1282   */\n  dup9\n    /* \"#utility.yul\":1264:1271   */\n  dup11\n    /* \"#utility.yul\":1260:1283   */\n  sub\n    /* \"#utility.yul\":1256:1289   */\n  slt\n    /* \"#utility.yul\":1253:1373   */\n  iszero\n  tag_69\n  jumpi\n    /* \"#utility.yul\":1292:1371   */\n  tag_70\n  tag_39\n  jump\t// in\ntag_70:\n    /* \"#utility.yul\":1253:1373   */\ntag_69:\n    /* \"#utility.yul\":1412:1413   */\n  0x00\n    /* \"#utility.yul\":1437:1501   */\n  tag_71\n    /* \"#utility.yul\":1493:1500   */\n  dup11\n    /* \"#utility.yul\":1484:1490   */\n  dup3\n    /* \"#utility.yul\":1473:1482   */\n  dup12\n    /* \"#utility.yul\":1469:1491   */\n  add\n    /* \"#utility.yul\":1437:1501   */\n  tag_43\n  jump\t// in\ntag_71:\n    /* \"#utility.yul\":1427:1501   */\n  swap8\n  pop\n    /* \"#utility.yul\":1383:1511   */\n  pop\n    /* \"#utility.yul\":1550:1552   */\n  0x20\n    /* \"#utility.yul\":1576:1640   */\n  tag_72\n    /* \"#utility.yul\":1632:1639   */\n  dup11\n    /* \"#utility.yul\":1623:1629   */\n  dup3\n    /* \"#utility.yul\":1612:1621   */\n  dup12\n    /* \"#utility.yul\":1608:1630   */\n  add\n    /* \"#utility.yul\":1576:1640   */\n  tag_43\n  jump\t// in\ntag_72:\n    /* \"#utility.yul\":1566:1640   */\n  swap7\n  pop\n    /* \"#utility.yul\":1521:1650   */\n  pop\n    /* \"#utility.yul\":1689:1691   */\n  0x40\n    /* \"#utility.yul\":1715:1779   */\n  tag_73\n    /* \"#utility.yul\":1771:1778   */\n  dup11\n    /* \"#utility.yul\":1762:1768   */\n  dup3\n    /* \"#utility.yul\":1751:1760   */\n  dup12\n    /* \"#utility.yul\":1747:1769   */\n  add\n    /* \"#utility.yul\":1715:1779   */\n  tag_43\n  jump\t// in\ntag_73:\n    /* \"#utility.yul\":1705:1779   */\n  swap6\n  pop\n    /* \"#utility.yul\":1660:1789   */\n  pop\n    /* \"#utility.yul\":1828:1830   */\n  0x60\n    /* \"#utility.yul\":1854:1918   */\n  tag_74\n    /* \"#utility.yul\":1910:1917   */\n  dup11\n    /* \"#utility.yul\":1901:1907   */\n  dup3\n    /* \"#utility.yul\":1890:1899   */\n  dup12\n    /* \"#utility.yul\":1886:1908   */\n  add\n    /* \"#utility.yul\":1854:1918   */\n  tag_43\n  jump\t// in\ntag_74:\n    /* \"#utility.yul\":1844:1918   */\n  swap5\n  pop\n    /* \"#utility.yul\":1799:1928   */\n  pop\n    /* \"#utility.yul\":1967:1970   */\n  0x80\n    /* \"#utility.yul\":1994:2058   */\n  tag_75\n    /* \"#utility.yul\":2050:2057   */\n  dup11\n    /* \"#utility.yul\":2041:2047   */\n  dup3\n    /* \"#utility.yul\":2030:2039   */\n  dup12\n    /* \"#utility.yul\":2026:2048   */\n  add\n    /* \"#utility.yul\":1994:2058   */\n  tag_43\n  jump\t// in\ntag_75:\n    /* \"#utility.yul\":1984:2058   */\n  swap4\n  pop\n    /* \"#utility.yul\":1938:2068   */\n  pop\n    /* \"#utility.yul\":2107:2110   */\n  0xa0\n    /* \"#utility.yul\":2134:2197   */\n  tag_76\n    /* \"#utility.yul\":2189:2196   */\n  dup11\n    /* \"#utility.yul\":2180:2186   */\n  dup3\n    /* \"#utility.yul\":2169:2178   */\n  dup12\n    /* \"#utility.yul\":2165:2187   */\n  add\n    /* \"#utility.yul\":2134:2197   */\n  tag_46\n  jump\t// in\ntag_76:\n    /* \"#utility.yul\":2124:2197   */\n  swap3\n  pop\n    /* \"#utility.yul\":2078:2207   */\n  pop\n    /* \"#utility.yul\":2246:2249   */\n  0xc0\n    /* \"#utility.yul\":2273:2336   */\n  tag_77\n    /* \"#utility.yul\":2328:2335   */\n  dup11\n    /* \"#utility.yul\":2319:2325   */\n  dup3\n    /* \"#utility.yul\":2308:2317   */\n  dup12\n    /* \"#utility.yul\":2304:2326   */\n  add\n    /* \"#utility.yul\":2273:2336   */\n  tag_46\n  jump\t// in\ntag_77:\n    /* \"#utility.yul\":2263:2336   */\n  swap2\n  pop\n    /* \"#utility.yul\":2217:2346   */\n  pop\n    /* \"#utility.yul\":1066:2353   */\n  swap3\n  swap6\n  swap9\n  swap2\n  swap5\n  swap8\n  pop\n  swap3\n  swap6\n  pop\n  jump\t// out\n    /* \"#utility.yul\":2359:2528   */\ntag_47:\n    /* \"#utility.yul\":2443:2454   */\n  0x00\n    /* \"#utility.yul\":2477:2483   */\n  dup3\n    /* \"#utility.yul\":2472:2475   */\n  dup3\n    /* \"#utility.yul\":2465:2484   */\n  mstore\n    /* \"#utility.yul\":2517:2521   */\n  0x20\n    /* \"#utility.yul\":2512:2515   */\n  dup3\n    /* \"#utility.yul\":2508:2522   */\n  add\n    /* \"#utility.yul\":2493:2522   */\n  swap1\n  pop\n    /* \"#utility.yul\":2359:2528   */\n  swap3\n  swap2\n  pop\n  pop\n  jump\t// out\n    /* \"#utility.yul\":2534:2704   */\ntag_48:\n    /* \"#utility.yul\":2674:2696   */\n  0x4254433a302c204554483a312c204c494e4b3a32000000000000000000000000\n    /* \"#utility.yul\":2670:2671   */\n  0x00\n    /* \"#utility.yul\":2662:2668   */\n  dup3\n    /* \"#utility.yul\":2658:2672   */\n  add\n    /* \"#utility.yul\":2651:2697   */\n  mstore\n    /* \"#utility.yul\":2534:2704   */\n  pop\n  jump\t// out\n    /* \"#utility.yul\":2710:3076   */\ntag_49:\n    /* \"#utility.yul\":2852:2855   */\n  0x00\n    /* \"#utility.yul\":2873:2940   */\n  tag_81\n    /* \"#utility.yul\":2937:2939   */\n  0x14\n    /* \"#utility.yul\":2932:2935   */\n  dup4\n    /* \"#utility.yul\":2873:2940   */\n  tag_47\n  jump\t// in\ntag_81:\n    /* \"#utility.yul\":2866:2940   */\n  swap2\n  pop\n    /* \"#utility.yul\":2949:3042   */\n  tag_82\n    /* \"#utility.yul\":3038:3041   */\n  dup3\n    /* \"#utility.yul\":2949:3042   */\n  tag_48\n  jump\t// in\ntag_82:\n    /* \"#utility.yul\":3067:3069   */\n  0x20\n    /* \"#utility.yul\":3062:3065   */\n  dup3\n    /* \"#utility.yul\":3058:3070   */\n  add\n    /* \"#utility.yul\":3051:3070   */\n  swap1\n  pop\n    /* \"#utility.yul\":2710:3076   */\n  swap2\n  swap1\n  pop\n  jump\t// out\n    /* \"#utility.yul\":3082:3501   */\ntag_20:\n    /* \"#utility.yul\":3248:3252   */\n  0x00\n    /* \"#utility.yul\":3286:3288   */\n  0x20\n    /* \"#utility.yul\":3275:3284   */\n  dup3\n    /* \"#utility.yul\":3271:3289   */\n  add\n    /* \"#utility.yul\":3263:3289   */\n  swap1\n  pop\n    /* \"#utility.yul\":3335:3344   */\n  dup2\n    /* \"#utility.yul\":3329:3333   */\n  dup2\n    /* \"#utility.yul\":3325:3345   */\n  sub\n    /* \"#utility.yul\":3321:3322   */\n  0x00\n    /* \"#utility.yul\":3310:3319   */\n  dup4\n    /* \"#utility.yul\":3306:3323   */\n  add\n    /* \"#utility.yul\":3299:3346   */\n  mstore\n    /* \"#utility.yul\":3363:3494   */\n  tag_84\n    /* \"#utility.yul\":3489:3493   */\n  dup2\n    /* \"#utility.yul\":3363:3494   */\n  tag_49\n  jump\t// in\ntag_84:\n    /* \"#utility.yul\":3355:3494   */\n  swap1\n  pop\n    /* \"#utility.yul\":3082:3501   */\n  swap2\n  swap1\n  pop\n  jump\t// out\n    /* \"#utility.yul\":3507:3687   */\ntag_23:\n    /* \"#utility.yul\":3555:3632   */\n  0x4e487b7100000000000000000000000000000000000000000000000000000000\n    /* \"#utility.yul\":3552:3553   */\n  0x00\n    /* \"#utility.yul\":3545:3633   */\n  mstore\n    /* \"#utility.yul\":3652:3656   */\n  0x21\n    /* \"#utility.yul\":3649:3650   */\n  0x04\n    /* \"#utility.yul\":3642:3657   */\n  mstore\n    /* \"#utility.yul\":3676:3680   */\n  0x24\n    /* \"#utility.yul\":3673:3674   */\n  0x00\n    /* \"#utility.yul\":3666:3681   */\n  revert\n    /* \"#utility.yul\":3693:3873   */\ntag_50:\n    /* \"#utility.yul\":3741:3818   */\n  0x4e487b7100000000000000000000000000000000000000000000000000000000\n    /* \"#utility.yul\":3738:3739   */\n  0x00\n    /* \"#utility.yul\":3731:3819   */\n  mstore\n    /* \"#utility.yul\":3838:3842   */\n  0x11\n    /* \"#utility.yul\":3835:3836   */\n  0x04\n    /* \"#utility.yul\":3828:3843   */\n  mstore\n    /* \"#utility.yul\":3862:3866   */\n  0x24\n    /* \"#utility.yul\":3859:3860   */\n  0x00\n    /* \"#utility.yul\":3852:3867   */\n  revert\n    /* \"#utility.yul\":3879:4070   */\ntag_34:\n    /* \"#utility.yul\":3919:3923   */\n  0x00\n    /* \"#utility.yul\":3939:3959   */\n  tag_88\n    /* \"#utility.yul\":3957:3958   */\n  dup3\n    /* \"#utility.yul\":3939:3959   */\n  tag_41\n  jump\t// in\ntag_88:\n    /* \"#utility.yul\":3934:3959   */\n  swap2\n  pop\n    /* \"#utility.yul\":3973:3993   */\n  tag_89\n    /* \"#utility.yul\":3991:3992   */\n  dup4\n    /* \"#utility.yul\":3973:3993   */\n  tag_41\n  jump\t// in\ntag_89:\n    /* \"#utility.yul\":3968:3993   */\n  swap3\n  pop\n    /* \"#utility.yul\":4012:4013   */\n  dup3\n    /* \"#utility.yul\":4009:4010   */\n  dup3\n    /* \"#utility.yul\":4006:4014   */\n  lt\n    /* \"#utility.yul\":4003:4037   */\n  iszero\n  tag_90\n  jumpi\n    /* \"#utility.yul\":4017:4035   */\n  tag_91\n  tag_50\n  jump\t// in\ntag_91:\n    /* \"#utility.yul\":4003:4037   */\ntag_90:\n    /* \"#utility.yul\":4062:4063   */\n  dup3\n    /* \"#utility.yul\":4059:4060   */\n  dup3\n    /* \"#utility.yul\":4055:4064   */\n  sub\n    /* \"#utility.yul\":4047:4064   */\n  swap1\n  pop\n    /* \"#utility.yul\":3879:4070   */\n  swap3\n  swap2\n  pop\n  pop\n  jump\t// out\n    /* \"#utility.yul\":4076:4256   */\ntag_51:\n    /* \"#utility.yul\":4124:4201   */\n  0x4e487b7100000000000000000000000000000000000000000000000000000000\n    /* \"#utility.yul\":4121:4122   */\n  0x00\n    /* \"#utility.yul\":4114:4202   */\n  mstore\n    /* \"#utility.yul\":4221:4225   */\n  0x12\n    /* \"#utility.yul\":4218:4219   */\n  0x04\n    /* \"#utility.yul\":4211:4226   */\n  mstore\n    /* \"#utility.yul\":4245:4249   */\n  0x24\n    /* \"#utility.yul\":4242:4243   */\n  0x00\n    /* \"#utility.yul\":4235:4250   */\n  revert\n    /* \"#utility.yul\":4262:4447   */\ntag_37:\n    /* \"#utility.yul\":4302:4303   */\n  0x00\n    /* \"#utility.yul\":4319:4339   */\n  tag_94\n    /* \"#utility.yul\":4337:4338   */\n  dup3\n    /* \"#utility.yul\":4319:4339   */\n  tag_41\n  jump\t// in\ntag_94:\n    /* \"#utility.yul\":4314:4339   */\n  swap2\n  pop\n    /* \"#utility.yul\":4353:4373   */\n  tag_95\n    /* \"#utility.yul\":4371:4372   */\n  dup4\n    /* \"#utility.yul\":4353:4373   */\n  tag_41\n  jump\t// in\ntag_95:\n    /* \"#utility.yul\":4348:4373   */\n  swap3\n  pop\n    /* \"#utility.yul\":4392:4393   */\n  dup3\n    /* \"#utility.yul\":4382:4417   */\n  tag_96\n  jumpi\n    /* \"#utility.yul\":4397:4415   */\n  tag_97\n  tag_51\n  jump\t// in\ntag_97:\n    /* \"#utility.yul\":4382:4417   */\ntag_96:\n    /* \"#utility.yul\":4439:4440   */\n  dup3\n    /* \"#utility.yul\":4436:4437   */\n  dup3\n    /* \"#utility.yul\":4432:4441   */\n  div\n    /* \"#utility.yul\":4427:4441   */\n  swap1\n  pop\n    /* \"#utility.yul\":4262:4447   */\n  swap3\n  swap2\n  pop\n  pop\n  jump\t// out\n    /* \"contracts/CDS/CDS.sol\":208:2957  contract CDS is Ownable, PriceConsumer(0xF2A3Fa0266A0fEFFA87DA45F0D3C45aC66FE05c5) {... */\ntag_24:\n  dataSize(sub_0)\n  dup1\n  dataOffset(sub_0)\n  0x00\n  codecopy\n  0x00\n  return\nstop\n\nsub_0: assembly {\n        /* \"contracts/CDS/CDS.sol\":208:2957  contract CDS is Ownable, PriceConsumer(0xF2A3Fa0266A0fEFFA87DA45F0D3C45aC66FE05c5) {... */\n      mstore(0x40, 0x80)\n      callvalue\n      dup1\n      iszero\n      tag_1\n      jumpi\n      0x00\n      dup1\n      revert\n    tag_1:\n      pop\n      jumpi(tag_2, lt(calldatasize, 0x04))\n      shr(0xe0, calldataload(0x00))\n      dup1\n      0xa3f09ad6\n      gt\n      tag_27\n      jumpi\n      dup1\n      0xd2895e93\n      gt\n      tag_28\n      jumpi\n      dup1\n      0xd2895e93\n      eq\n      tag_21\n      jumpi\n      dup1\n      0xdbd0e1b6\n      eq\n      tag_22\n      jumpi\n      dup1\n      0xe0a73a93\n      eq\n      tag_23\n      jumpi\n      dup1\n      0xe99d2866\n      eq\n      tag_24\n      jumpi\n      dup1\n      0xf26cc58e\n      eq\n      tag_25\n      jumpi\n      dup1\n      0xf2fde38b\n      eq\n      tag_26\n      jumpi\n      jump(tag_2)\n    tag_28:\n      dup1\n      0xa3f09ad6\n      eq\n      tag_15\n      jumpi\n      dup1\n      0xb6fc2d5f\n      eq\n      tag_16\n      jumpi\n      dup1\n      0xbab215f8\n      eq\n      tag_17\n      jumpi\n      dup1\n      0xbd9a548b\n      eq\n      tag_18\n      jumpi\n      dup1\n      0xbef904e3\n      eq\n      tag_19\n      jumpi\n      dup1\n      0xcbed2449\n      eq\n      tag_20\n      jumpi\n      jump(tag_2)\n    tag_27:\n      dup1\n      0x715018a6\n      gt\n      tag_29\n      jumpi\n      dup1\n      0x715018a6\n      eq\n      tag_9\n      jumpi\n      dup1\n      0x762db7ee\n      eq\n      tag_10\n      jumpi\n      dup1\n      0x86be75b7\n      eq\n      tag_11\n      jumpi\n      dup1\n      0x8a568299\n      eq\n      tag_12\n      jumpi\n      dup1\n      0x8da5cb5b\n      eq\n      tag_13\n      jumpi\n      dup1\n      0xa2e800ad\n      eq\n      tag_14\n      jumpi\n      jump(tag_2)\n    tag_29:\n      dup1\n      0x15d655c9\n      eq\n      tag_3\n      jumpi\n      dup1\n      0x200d2ed2\n      eq\n      tag_4\n      jumpi\n      dup1\n      0x2e49d78b\n      eq\n      tag_5\n      jumpi\n      dup1\n      0x3fe3347a\n      eq\n      tag_6\n      jumpi\n      dup1\n      0x4c1786ea\n      eq\n      tag_7\n      jumpi\n      dup1\n      0x603daf9a\n      eq\n      tag_8\n      jumpi\n    tag_2:\n      0x00\n      dup1\n      revert\n        /* \"contracts/CDS/CDS.sol\":507:532  uint256 public claimPrice */\n    tag_3:\n      tag_30\n      tag_31\n      jump\t// in\n    tag_30:\n      mload(0x40)\n      tag_32\n      swap2\n      swap1\n      tag_33\n      jump\t// in\n    tag_32:\n      mload(0x40)\n      dup1\n      swap2\n      sub\n      swap1\n      return\n        /* \"contracts/CDS/CDS.sol\":449:469  Status public status */\n    tag_4:\n      tag_34\n      tag_35\n      jump\t// in\n    tag_34:\n      mload(0x40)\n      tag_36\n      swap2\n      swap1\n      tag_37\n      jump\t// in\n    tag_36:\n      mload(0x40)\n      dup1\n      swap2\n      sub\n      swap1\n      return\n        /* \"contracts/CDS/CDS.sol\":2328:2443  function setStatus(Status _status) public onlyOwner returns (Status) {... */\n    tag_5:\n      tag_38\n      0x04\n      dup1\n      calldatasize\n      sub\n      dup2\n      add\n      swap1\n      tag_39\n      swap2\n      swap1\n      tag_40\n      jump\t// in\n    tag_39:\n      tag_41\n      jump\t// in\n    tag_38:\n      mload(0x40)\n      tag_42\n      swap2\n      swap1\n      tag_37\n      jump\t// in\n    tag_42:\n      mload(0x40)\n      dup1\n      swap2\n      sub\n      swap1\n      return\n        /* \"contracts/CDS/CDS.sol\":765:788  uint32 public assetType */\n    tag_6:\n      tag_43\n      tag_44\n      jump\t// in\n    tag_43:\n      mload(0x40)\n      tag_45\n      swap2\n      swap1\n      tag_46\n      jump\t// in\n    tag_45:\n      mload(0x40)\n      dup1\n      swap2\n      sub\n      swap1\n      return\n        /* \"contracts/CDS/CDS.sol\":597:625  uint256 public sellerDeposit */\n    tag_7:\n      tag_47\n      tag_48\n      jump\t// in\n    tag_47:\n      mload(0x40)\n      tag_49\n      swap2\n      swap1\n      tag_33\n      jump\t// in\n    tag_49:\n      mload(0x40)\n      dup1\n      swap2\n      sub\n      swap1\n      return\n        /* \"contracts/CDS/CDS.sol\":1726:1799  function getBuyer() public view returns (address) {... */\n    tag_8:\n      tag_50\n      tag_51\n      jump\t// in\n    tag_50:\n      mload(0x40)\n      tag_52\n      swap2\n      swap1\n      tag_53\n      jump\t// in\n    tag_52:\n      mload(0x40)\n      dup1\n      swap2\n      sub\n      swap1\n      return\n        /* \"@openzeppelin/contracts/access/Ownable.sol\":1831:1932  function renounceOwnership() public virtual onlyOwner {... */\n    tag_9:\n      tag_54\n      tag_55\n      jump\t// in\n    tag_54:\n      stop\n        /* \"contracts/CDS/CDS.sol\":629:657  uint256 public amountOfAsset */\n    tag_10:\n      tag_56\n      tag_57\n      jump\t// in\n    tag_56:\n      mload(0x40)\n      tag_58\n      swap2\n      swap1\n      tag_33\n      jump\t// in\n    tag_58:\n      mload(0x40)\n      dup1\n      swap2\n      sub\n      swap1\n      return\n        /* \"contracts/CDS/CDS.sol\":474:503  uint256 public initAssetPrice */\n    tag_11:\n      tag_59\n      tag_60\n      jump\t// in\n    tag_59:\n      mload(0x40)\n      tag_61\n      swap2\n      swap1\n      tag_33\n      jump\t// in\n    tag_61:\n      mload(0x40)\n      dup1\n      swap2\n      sub\n      swap1\n      return\n        /* \"contracts/CDS/CDS.sol\":736:761  uint32 public totalRounds */\n    tag_12:\n      tag_62\n      tag_63\n      jump\t// in\n    tag_62:\n      mload(0x40)\n      tag_64\n      swap2\n      swap1\n      tag_46\n      jump\t// in\n    tag_64:\n      mload(0x40)\n      dup1\n      swap2\n      sub\n      swap1\n      return\n        /* \"@openzeppelin/contracts/access/Ownable.sol\":1201:1286  function owner() public view virtual returns (address) {... */\n    tag_13:\n      tag_65\n      tag_66\n      jump\t// in\n    tag_65:\n      mload(0x40)\n      tag_67\n      swap2\n      swap1\n      tag_53\n      jump\t// in\n    tag_67:\n      mload(0x40)\n      dup1\n      swap2\n      sub\n      swap1\n      return\n        /* \"contracts/CDS/CDS.sol\":712:732  uint32 public rounds */\n    tag_14:\n      tag_68\n      tag_69\n      jump\t// in\n    tag_68:\n      mload(0x40)\n      tag_70\n      swap2\n      swap1\n      tag_46\n      jump\t// in\n    tag_70:\n      mload(0x40)\n      dup1\n      swap2\n      sub\n      swap1\n      return\n        /* \"contracts/CDS/CDS.sol\":2603:2715  function setBuyer(address _buyer) public onlyOwner returns (address) {... */\n    tag_15:\n      tag_71\n      0x04\n      dup1\n      calldatasize\n      sub\n      dup2\n      add\n      swap1\n      tag_72\n      swap2\n      swap1\n      tag_73\n      jump\t// in\n    tag_72:\n      tag_74\n      jump\t// in\n    tag_71:\n      mload(0x40)\n      tag_75\n      swap2\n      swap1\n      tag_53\n      jump\t// in\n    tag_75:\n      mload(0x40)\n      dup1\n      swap2\n      sub\n      swap1\n      return\n        /* \"contracts/CDS/CDS.sol\":536:567  uint256 public liquidationPrice */\n    tag_16:\n      tag_76\n      tag_77\n      jump\t// in\n    tag_76:\n      mload(0x40)\n      tag_78\n      swap2\n      swap1\n      tag_33\n      jump\t// in\n    tag_78:\n      mload(0x40)\n      dup1\n      swap2\n      sub\n      swap1\n      return\n        /* \"contracts/CDS/CDS.sol\":2447:2599  function setParticipants(address _participants, bool _isBuyer) public onlyOwner {... */\n    tag_17:\n      tag_79\n      0x04\n      dup1\n      calldatasize\n      sub\n      dup2\n      add\n      swap1\n      tag_80\n      swap2\n      swap1\n      tag_81\n      jump\t// in\n    tag_80:\n      tag_82\n      jump\t// in\n    tag_79:\n      stop\n        /* \"contracts/CDS/CDS.sol\":1537:1722  function getPrices() public view returns (uint256[5] memory) {... */\n    tag_18:\n      tag_83\n      tag_84\n      jump\t// in\n    tag_83:\n      mload(0x40)\n      tag_85\n      swap2\n      swap1\n      tag_86\n      jump\t// in\n    tag_85:\n      mload(0x40)\n      dup1\n      swap2\n      sub\n      swap1\n      return\n        /* \"contracts/CDS/CDS.sol\":2177:2324  function setInitAssetPrice(uint256 _initAssetPrice) public returns (uint256) {... */\n    tag_19:\n      tag_87\n      0x04\n      dup1\n      calldatasize\n      sub\n      dup2\n      add\n      swap1\n      tag_88\n      swap2\n      swap1\n      tag_89\n      jump\t// in\n    tag_88:\n      tag_90\n      jump\t// in\n    tag_87:\n      mload(0x40)\n      tag_91\n      swap2\n      swap1\n      tag_33\n      jump\t// in\n    tag_91:\n      mload(0x40)\n      dup1\n      swap2\n      sub\n      swap1\n      return\n        /* \"contracts/CDS/PriceConsumer.sol\":339:707  function getCurrPrice(uint32 _assetType) public view returns (uint256) {... */\n    tag_20:\n      tag_92\n      0x04\n      dup1\n      calldatasize\n      sub\n      dup2\n      add\n      swap1\n      tag_93\n      swap2\n      swap1\n      tag_94\n      jump\t// in\n    tag_93:\n      tag_95\n      jump\t// in\n    tag_92:\n      mload(0x40)\n      tag_96\n      swap2\n      swap1\n      tag_33\n      jump\t// in\n    tag_96:\n      mload(0x40)\n      dup1\n      swap2\n      sub\n      swap1\n      return\n        /* \"contracts/CDS/CDS.sol\":2840:2955  function setRounds(uint32 _rounds) public onlyOwner returns (uint32) {... */\n    tag_21:\n      tag_97\n      0x04\n      dup1\n      calldatasize\n      sub\n      dup2\n      add\n      swap1\n      tag_98\n      swap2\n      swap1\n      tag_94\n      jump\t// in\n    tag_98:\n      tag_99\n      jump\t// in\n    tag_97:\n      mload(0x40)\n      tag_100\n      swap2\n      swap1\n      tag_46\n      jump\t// in\n    tag_100:\n      mload(0x40)\n      dup1\n      swap2\n      sub\n      swap1\n      return\n        /* \"contracts/CDS/CDS.sol\":1803:1878  function getSeller() public view returns (address) {... */\n    tag_22:\n      tag_101\n      tag_102\n      jump\t// in\n    tag_101:\n      mload(0x40)\n      tag_103\n      swap2\n      swap1\n      tag_53\n      jump\t// in\n    tag_103:\n      mload(0x40)\n      dup1\n      swap2\n      sub\n      swap1\n      return\n        /* \"contracts/CDS/CDS.sol\":571:593  uint256 public premium */\n    tag_23:\n      tag_104\n      tag_105\n      jump\t// in\n    tag_104:\n      mload(0x40)\n      tag_106\n      swap2\n      swap1\n      tag_33\n      jump\t// in\n    tag_106:\n      mload(0x40)\n      dup1\n      swap2\n      sub\n      swap1\n      return\n        /* \"contracts/CDS/CDS.sol\":2719:2836  function setSeller(address _seller) public onlyOwner returns (address) {... */\n    tag_24:\n      tag_107\n      0x04\n      dup1\n      calldatasize\n      sub\n      dup2\n      add\n      swap1\n      tag_108\n      swap2\n      swap1\n      tag_73\n      jump\t// in\n    tag_108:\n      tag_109\n      jump\t// in\n    tag_107:\n      mload(0x40)\n      tag_110\n      swap2\n      swap1\n      tag_53\n      jump\t// in\n    tag_110:\n      mload(0x40)\n      dup1\n      swap2\n      sub\n      swap1\n      return\n        /* \"contracts/CDS/CDS.sol\":1882:2173  function getClaimReward() public view returns (uint256) {... */\n    tag_25:\n      tag_111\n      tag_112\n      jump\t// in\n    tag_111:\n      mload(0x40)\n      tag_113\n      swap2\n      swap1\n      tag_33\n      jump\t// in\n    tag_113:\n      mload(0x40)\n      dup1\n      swap2\n      sub\n      swap1\n      return\n        /* \"@openzeppelin/contracts/access/Ownable.sol\":2081:2279  function transferOwnership(address newOwner) public virtual onlyOwner {... */\n    tag_26:\n      tag_114\n      0x04\n      dup1\n      calldatasize\n      sub\n      dup2\n      add\n      swap1\n      tag_115\n      swap2\n      swap1\n      tag_73\n      jump\t// in\n    tag_115:\n      tag_116\n      jump\t// in\n    tag_114:\n      stop\n        /* \"contracts/CDS/CDS.sol\":507:532  uint256 public claimPrice */\n    tag_31:\n      sload(0x04)\n      dup2\n      jump\t// out\n        /* \"contracts/CDS/CDS.sol\":449:469  Status public status */\n    tag_35:\n      0x02\n      0x14\n      swap1\n      sload\n      swap1\n      0x0100\n      exp\n      swap1\n      div\n      0xff\n      and\n      dup2\n      jump\t// out\n        /* \"contracts/CDS/CDS.sol\":2328:2443  function setStatus(Status _status) public onlyOwner returns (Status) {... */\n    tag_41:\n        /* \"contracts/CDS/CDS.sol\":2389:2395  Status */\n      0x00\n        /* \"@openzeppelin/contracts/access/Ownable.sol\":1094:1107  _checkOwner() */\n      tag_121\n        /* \"@openzeppelin/contracts/access/Ownable.sol\":1094:1105  _checkOwner */\n      tag_122\n        /* \"@openzeppelin/contracts/access/Ownable.sol\":1094:1107  _checkOwner() */\n      jump\t// in\n    tag_121:\n        /* \"contracts/CDS/CDS.sol\":2412:2419  _status */\n      dup2\n        /* \"contracts/CDS/CDS.sol\":2403:2409  status */\n      0x02\n      0x14\n        /* \"contracts/CDS/CDS.sol\":2403:2419  status = _status */\n      0x0100\n      exp\n      dup2\n      sload\n      dup2\n      0xff\n      mul\n      not\n      and\n      swap1\n      dup4\n      0x04\n      dup2\n      gt\n      iszero\n      tag_124\n      jumpi\n      tag_125\n      tag_126\n      jump\t// in\n    tag_125:\n    tag_124:\n      mul\n      or\n      swap1\n      sstore\n      pop\n        /* \"contracts/CDS/CDS.sol\":2432:2438  status */\n      0x02\n      0x14\n      swap1\n      sload\n      swap1\n      0x0100\n      exp\n      swap1\n      div\n      0xff\n      and\n        /* \"contracts/CDS/CDS.sol\":2425:2438  return status */\n      swap1\n      pop\n        /* \"contracts/CDS/CDS.sol\":2328:2443  function setStatus(Status _status) public onlyOwner returns (Status) {... */\n      swap2\n      swap1\n      pop\n      jump\t// out\n        /* \"contracts/CDS/CDS.sol\":765:788  uint32 public assetType */\n    tag_44:\n      0x0a\n      0x1c\n      swap1\n      sload\n      swap1\n      0x0100\n      exp\n      swap1\n      div\n      0xffffffff\n      and\n      dup2\n      jump\t// out\n        /* \"contracts/CDS/CDS.sol\":597:625  uint256 public sellerDeposit */\n    tag_48:\n      sload(0x07)\n      dup2\n      jump\t// out\n        /* \"contracts/CDS/CDS.sol\":1726:1799  function getBuyer() public view returns (address) {... */\n    tag_51:\n        /* \"contracts/CDS/CDS.sol\":1767:1774  address */\n      0x00\n        /* \"contracts/CDS/CDS.sol\":1789:1794  buyer */\n      0x09\n      0x00\n      swap1\n      sload\n      swap1\n      0x0100\n      exp\n      swap1\n      div\n      0xffffffffffffffffffffffffffffffffffffffff\n      and\n        /* \"contracts/CDS/CDS.sol\":1782:1794  return buyer */\n      swap1\n      pop\n        /* \"contracts/CDS/CDS.sol\":1726:1799  function getBuyer() public view returns (address) {... */\n      swap1\n      jump\t// out\n        /* \"@openzeppelin/contracts/access/Ownable.sol\":1831:1932  function renounceOwnership() public virtual onlyOwner {... */\n    tag_55:\n        /* \"@openzeppelin/contracts/access/Ownable.sol\":1094:1107  _checkOwner() */\n      tag_129\n        /* \"@openzeppelin/contracts/access/Ownable.sol\":1094:1105  _checkOwner */\n      tag_122\n        /* \"@openzeppelin/contracts/access/Ownable.sol\":1094:1107  _checkOwner() */\n      jump\t// in\n    tag_129:\n        /* \"@openzeppelin/contracts/access/Ownable.sol\":1895:1925  _transferOwnership(address(0)) */\n      tag_131\n        /* \"@openzeppelin/contracts/access/Ownable.sol\":1922:1923  0 */\n      0x00\n        /* \"@openzeppelin/contracts/access/Ownable.sol\":1895:1913  _transferOwnership */\n      tag_132\n        /* \"@openzeppelin/contracts/access/Ownable.sol\":1895:1925  _transferOwnership(address(0)) */\n      jump\t// in\n    tag_131:\n        /* \"@openzeppelin/contracts/access/Ownable.sol\":1831:1932  function renounceOwnership() public virtual onlyOwner {... */\n      jump\t// out\n        /* \"contracts/CDS/CDS.sol\":629:657  uint256 public amountOfAsset */\n    tag_57:\n      sload(0x08)\n      dup2\n      jump\t// out\n        /* \"contracts/CDS/CDS.sol\":474:503  uint256 public initAssetPrice */\n    tag_60:\n      sload(0x03)\n      dup2\n      jump\t// out\n        /* \"contracts/CDS/CDS.sol\":736:761  uint32 public totalRounds */\n    tag_63:\n      0x0a\n      0x18\n      swap1\n      sload\n      swap1\n      0x0100\n      exp\n      swap1\n      div\n      0xffffffff\n      and\n      dup2\n      jump\t// out\n        /* \"@openzeppelin/contracts/access/Ownable.sol\":1201:1286  function owner() public view virtual returns (address) {... */\n    tag_66:\n        /* \"@openzeppelin/contracts/access/Ownable.sol\":1247:1254  address */\n      0x00\n        /* \"@openzeppelin/contracts/access/Ownable.sol\":1273:1279  _owner */\n      dup1\n      0x00\n      swap1\n      sload\n      swap1\n      0x0100\n      exp\n      swap1\n      div\n      0xffffffffffffffffffffffffffffffffffffffff\n      and\n        /* \"@openzeppelin/contracts/access/Ownable.sol\":1266:1279  return _owner */\n      swap1\n      pop\n        /* \"@openzeppelin/contracts/access/Ownable.sol\":1201:1286  function owner() public view virtual returns (address) {... */\n      swap1\n      jump\t// out\n        /* \"contracts/CDS/CDS.sol\":712:732  uint32 public rounds */\n    tag_69:\n      0x0a\n      0x14\n      swap1\n      sload\n      swap1\n      0x0100\n      exp\n      swap1\n      div\n      0xffffffff\n      and\n      dup2\n      jump\t// out\n        /* \"contracts/CDS/CDS.sol\":2603:2715  function setBuyer(address _buyer) public onlyOwner returns (address) {... */\n    tag_74:\n        /* \"contracts/CDS/CDS.sol\":2663:2670  address */\n      0x00\n        /* \"@openzeppelin/contracts/access/Ownable.sol\":1094:1107  _checkOwner() */\n      tag_135\n        /* \"@openzeppelin/contracts/access/Ownable.sol\":1094:1105  _checkOwner */\n      tag_122\n        /* \"@openzeppelin/contracts/access/Ownable.sol\":1094:1107  _checkOwner() */\n      jump\t// in\n    tag_135:\n        /* \"contracts/CDS/CDS.sol\":2686:2692  _buyer */\n      dup2\n        /* \"contracts/CDS/CDS.sol\":2678:2683  buyer */\n      0x09\n      0x00\n        /* \"contracts/CDS/CDS.sol\":2678:2692  buyer = _buyer */\n      0x0100\n      exp\n      dup2\n      sload\n      dup2\n      0xffffffffffffffffffffffffffffffffffffffff\n      mul\n      not\n      and\n      swap1\n      dup4\n      0xffffffffffffffffffffffffffffffffffffffff\n      and\n      mul\n      or\n      swap1\n      sstore\n      pop\n        /* \"contracts/CDS/CDS.sol\":2705:2710  buyer */\n      0x09\n      0x00\n      swap1\n      sload\n      swap1\n      0x0100\n      exp\n      swap1\n      div\n      0xffffffffffffffffffffffffffffffffffffffff\n      and\n        /* \"contracts/CDS/CDS.sol\":2698:2710  return buyer */\n      swap1\n      pop\n        /* \"contracts/CDS/CDS.sol\":2603:2715  function setBuyer(address _buyer) public onlyOwner returns (address) {... */\n      swap2\n      swap1\n      pop\n      jump\t// out\n        /* \"contracts/CDS/CDS.sol\":536:567  uint256 public liquidationPrice */\n    tag_77:\n      sload(0x05)\n      dup2\n      jump\t// out\n        /* \"contracts/CDS/CDS.sol\":2447:2599  function setParticipants(address _participants, bool _isBuyer) public onlyOwner {... */\n    tag_82:\n        /* \"@openzeppelin/contracts/access/Ownable.sol\":1094:1107  _checkOwner() */\n      tag_138\n        /* \"@openzeppelin/contracts/access/Ownable.sol\":1094:1105  _checkOwner */\n      tag_122\n        /* \"@openzeppelin/contracts/access/Ownable.sol\":1094:1107  _checkOwner() */\n      jump\t// in\n    tag_138:\n        /* \"contracts/CDS/CDS.sol\":2533:2541  _isBuyer */\n      dup1\n        /* \"contracts/CDS/CDS.sol\":2533:2594  _isBuyer ? setBuyer(_participants) : setSeller(_participants) */\n      tag_140\n      jumpi\n        /* \"contracts/CDS/CDS.sol\":2570:2594  setSeller(_participants) */\n      tag_141\n        /* \"contracts/CDS/CDS.sol\":2580:2593  _participants */\n      dup3\n        /* \"contracts/CDS/CDS.sol\":2570:2579  setSeller */\n      tag_109\n        /* \"contracts/CDS/CDS.sol\":2570:2594  setSeller(_participants) */\n      jump\t// in\n    tag_141:\n        /* \"contracts/CDS/CDS.sol\":2533:2594  _isBuyer ? setBuyer(_participants) : setSeller(_participants) */\n      jump(tag_142)\n    tag_140:\n        /* \"contracts/CDS/CDS.sol\":2544:2567  setBuyer(_participants) */\n      tag_143\n        /* \"contracts/CDS/CDS.sol\":2553:2566  _participants */\n      dup3\n        /* \"contracts/CDS/CDS.sol\":2544:2552  setBuyer */\n      tag_74\n        /* \"contracts/CDS/CDS.sol\":2544:2567  setBuyer(_participants) */\n      jump\t// in\n    tag_143:\n        /* \"contracts/CDS/CDS.sol\":2533:2594  _isBuyer ? setBuyer(_participants) : setSeller(_participants) */\n    tag_142:\n      pop\n        /* \"contracts/CDS/CDS.sol\":2447:2599  function setParticipants(address _participants, bool _isBuyer) public onlyOwner {... */\n      pop\n      pop\n      jump\t// out\n        /* \"contracts/CDS/CDS.sol\":1537:1722  function getPrices() public view returns (uint256[5] memory) {... */\n    tag_84:\n        /* \"contracts/CDS/CDS.sol\":1579:1596  uint256[5] memory */\n      tag_144\n      tag_145\n      jump\t// in\n    tag_144:\n        /* \"contracts/CDS/CDS.sol\":1604:1717  return [... */\n      mload(0x40)\n      dup1\n      0xa0\n      add\n      0x40\n      mstore\n      dup1\n        /* \"contracts/CDS/CDS.sol\":1619:1633  initAssetPrice */\n      sload(0x03)\n        /* \"contracts/CDS/CDS.sol\":1604:1717  return [... */\n      dup2\n      mstore\n      0x20\n      add\n        /* \"contracts/CDS/CDS.sol\":1641:1651  claimPrice */\n      sload(0x04)\n        /* \"contracts/CDS/CDS.sol\":1604:1717  return [... */\n      dup2\n      mstore\n      0x20\n      add\n        /* \"contracts/CDS/CDS.sol\":1659:1675  liquidationPrice */\n      sload(0x05)\n        /* \"contracts/CDS/CDS.sol\":1604:1717  return [... */\n      dup2\n      mstore\n      0x20\n      add\n        /* \"contracts/CDS/CDS.sol\":1683:1690  premium */\n      sload(0x06)\n        /* \"contracts/CDS/CDS.sol\":1604:1717  return [... */\n      dup2\n      mstore\n      0x20\n      add\n        /* \"contracts/CDS/CDS.sol\":1698:1711  sellerDeposit */\n      sload(0x07)\n        /* \"contracts/CDS/CDS.sol\":1604:1717  return [... */\n      dup2\n      mstore\n      pop\n      swap1\n      pop\n        /* \"contracts/CDS/CDS.sol\":1537:1722  function getPrices() public view returns (uint256[5] memory) {... */\n      swap1\n      jump\t// out\n        /* \"contracts/CDS/CDS.sol\":2177:2324  function setInitAssetPrice(uint256 _initAssetPrice) public returns (uint256) {... */\n    tag_90:\n        /* \"contracts/CDS/CDS.sol\":2245:2252  uint256 */\n      0x00\n        /* \"contracts/CDS/CDS.sol\":2277:2292  _initAssetPrice */\n      dup2\n        /* \"contracts/CDS/CDS.sol\":2260:2274  initAssetPrice */\n      0x03\n        /* \"contracts/CDS/CDS.sol\":2260:2292  initAssetPrice = _initAssetPrice */\n      dup2\n      swap1\n      sstore\n      pop\n        /* \"contracts/CDS/CDS.sol\":2305:2319  initAssetPrice */\n      sload(0x03)\n        /* \"contracts/CDS/CDS.sol\":2298:2319  return initAssetPrice */\n      swap1\n      pop\n        /* \"contracts/CDS/CDS.sol\":2177:2324  function setInitAssetPrice(uint256 _initAssetPrice) public returns (uint256) {... */\n      swap2\n      swap1\n      pop\n      jump\t// out\n        /* \"contracts/CDS/PriceConsumer.sol\":339:707  function getCurrPrice(uint32 _assetType) public view returns (uint256) {... */\n    tag_95:\n        /* \"contracts/CDS/PriceConsumer.sol\":401:408  uint256 */\n      0x00\n        /* \"contracts/CDS/PriceConsumer.sol\":416:429  uint256 price */\n      dup1\n        /* \"contracts/CDS/PriceConsumer.sol\":453:454  0 */\n      0x00\n        /* \"contracts/CDS/PriceConsumer.sol\":439:449  _assetType */\n      dup4\n        /* \"contracts/CDS/PriceConsumer.sol\":439:454  _assetType == 0 */\n      0xffffffff\n      and\n      eq\n        /* \"contracts/CDS/PriceConsumer.sol\":435:685  if (_assetType == 0) {... */\n      iszero\n      tag_149\n      jumpi\n        /* \"contracts/CDS/PriceConsumer.sol\":472:507  priceOracle.btcPrice().div(10 ** 8) */\n      tag_150\n        /* \"contracts/CDS/PriceConsumer.sol\":499:506  10 ** 8 */\n      0x05f5e100\n        /* \"contracts/CDS/PriceConsumer.sol\":472:483  priceOracle */\n      0x01\n      0x00\n      swap1\n      sload\n      swap1\n      0x0100\n      exp\n      swap1\n      div\n      0xffffffffffffffffffffffffffffffffffffffff\n      and\n        /* \"contracts/CDS/PriceConsumer.sol\":472:492  priceOracle.btcPrice */\n      0xffffffffffffffffffffffffffffffffffffffff\n      and\n      0xa8ad52d1\n        /* \"contracts/CDS/PriceConsumer.sol\":472:494  priceOracle.btcPrice() */\n      mload(0x40)\n      dup2\n      0xffffffff\n      and\n      0xe0\n      shl\n      dup2\n      mstore\n      0x04\n      add\n      0x20\n      mload(0x40)\n      dup1\n      dup4\n      sub\n      dup2\n      dup7\n      gas\n      staticcall\n      iszero\n      dup1\n      iszero\n      tag_152\n      jumpi\n      returndatasize\n      0x00\n      dup1\n      returndatacopy\n      revert(0x00, returndatasize)\n    tag_152:\n      pop\n      pop\n      pop\n      pop\n      mload(0x40)\n      returndatasize\n      not(0x1f)\n      0x1f\n      dup3\n      add\n      and\n      dup3\n      add\n      dup1\n      0x40\n      mstore\n      pop\n      dup2\n      add\n      swap1\n      tag_153\n      swap2\n      swap1\n      tag_154\n      jump\t// in\n    tag_153:\n        /* \"contracts/CDS/PriceConsumer.sol\":472:498  priceOracle.btcPrice().div */\n      tag_119\n      swap1\n        /* \"contracts/CDS/PriceConsumer.sol\":472:507  priceOracle.btcPrice().div(10 ** 8) */\n      swap2\n      swap1\n      0xffffffff\n      and\n      jump\t// in\n    tag_150:\n        /* \"contracts/CDS/PriceConsumer.sol\":464:507  price = priceOracle.btcPrice().div(10 ** 8) */\n      swap1\n      pop\n        /* \"contracts/CDS/PriceConsumer.sol\":435:685  if (_assetType == 0) {... */\n      jump(tag_155)\n    tag_149:\n        /* \"contracts/CDS/PriceConsumer.sol\":538:539  1 */\n      0x01\n        /* \"contracts/CDS/PriceConsumer.sol\":524:534  _assetType */\n      dup4\n        /* \"contracts/CDS/PriceConsumer.sol\":524:539  _assetType == 1 */\n      0xffffffff\n      and\n      eq\n        /* \"contracts/CDS/PriceConsumer.sol\":520:685  if (_assetType == 1) {... */\n      iszero\n      tag_156\n      jumpi\n        /* \"contracts/CDS/PriceConsumer.sol\":557:592  priceOracle.ethPrice().div(10 ** 8) */\n      tag_157\n        /* \"contracts/CDS/PriceConsumer.sol\":584:591  10 ** 8 */\n      0x05f5e100\n        /* \"contracts/CDS/PriceConsumer.sol\":557:568  priceOracle */\n      0x01\n      0x00\n      swap1\n      sload\n      swap1\n      0x0100\n      exp\n      swap1\n      div\n      0xffffffffffffffffffffffffffffffffffffffff\n      and\n        /* \"contracts/CDS/PriceConsumer.sol\":557:577  priceOracle.ethPrice */\n      0xffffffffffffffffffffffffffffffffffffffff\n      and\n      0xff186b2e\n        /* \"contracts/CDS/PriceConsumer.sol\":557:579  priceOracle.ethPrice() */\n      mload(0x40)\n      dup2\n      0xffffffff\n      and\n      0xe0\n      shl\n      dup2\n      mstore\n      0x04\n      add\n      0x20\n      mload(0x40)\n      dup1\n      dup4\n      sub\n      dup2\n      dup7\n      gas\n      staticcall\n      iszero\n      dup1\n      iszero\n      tag_159\n      jumpi\n      returndatasize\n      0x00\n      dup1\n      returndatacopy\n      revert(0x00, returndatasize)\n    tag_159:\n      pop\n      pop\n      pop\n      pop\n      mload(0x40)\n      returndatasize\n      not(0x1f)\n      0x1f\n      dup3\n      add\n      and\n      dup3\n      add\n      dup1\n      0x40\n      mstore\n      pop\n      dup2\n      add\n      swap1\n      tag_160\n      swap2\n      swap1\n      tag_154\n      jump\t// in\n    tag_160:\n        /* \"contracts/CDS/PriceConsumer.sol\":557:583  priceOracle.ethPrice().div */\n      tag_119\n      swap1\n        /* \"contracts/CDS/PriceConsumer.sol\":557:592  priceOracle.ethPrice().div(10 ** 8) */\n      swap2\n      swap1\n      0xffffffff\n      and\n      jump\t// in\n    tag_157:\n        /* \"contracts/CDS/PriceConsumer.sol\":549:592  price = priceOracle.ethPrice().div(10 ** 8) */\n      swap1\n      pop\n        /* \"contracts/CDS/PriceConsumer.sol\":520:685  if (_assetType == 1) {... */\n      jump(tag_161)\n    tag_156:\n        /* \"contracts/CDS/PriceConsumer.sol\":623:624  2 */\n      0x02\n        /* \"contracts/CDS/PriceConsumer.sol\":609:619  _assetType */\n      dup4\n        /* \"contracts/CDS/PriceConsumer.sol\":609:624  _assetType == 2 */\n      0xffffffff\n      and\n      eq\n        /* \"contracts/CDS/PriceConsumer.sol\":605:685  if (_assetType == 2) {... */\n      iszero\n      tag_162\n      jumpi\n        /* \"contracts/CDS/PriceConsumer.sol\":642:678  priceOracle.linkPrice().div(10 ** 8) */\n      tag_163\n        /* \"contracts/CDS/PriceConsumer.sol\":670:677  10 ** 8 */\n      0x05f5e100\n        /* \"contracts/CDS/PriceConsumer.sol\":642:653  priceOracle */\n      0x01\n      0x00\n      swap1\n      sload\n      swap1\n      0x0100\n      exp\n      swap1\n      div\n      0xffffffffffffffffffffffffffffffffffffffff\n      and\n        /* \"contracts/CDS/PriceConsumer.sol\":642:663  priceOracle.linkPrice */\n      0xffffffffffffffffffffffffffffffffffffffff\n      and\n      0x0cf78535\n        /* \"contracts/CDS/PriceConsumer.sol\":642:665  priceOracle.linkPrice() */\n      mload(0x40)\n      dup2\n      0xffffffff\n      and\n      0xe0\n      shl\n      dup2\n      mstore\n      0x04\n      add\n      0x20\n      mload(0x40)\n      dup1\n      dup4\n      sub\n      dup2\n      dup7\n      gas\n      staticcall\n      iszero\n      dup1\n      iszero\n      tag_165\n      jumpi\n      returndatasize\n      0x00\n      dup1\n      returndatacopy\n      revert(0x00, returndatasize)\n    tag_165:\n      pop\n      pop\n      pop\n      pop\n      mload(0x40)\n      returndatasize\n      not(0x1f)\n      0x1f\n      dup3\n      add\n      and\n      dup3\n      add\n      dup1\n      0x40\n      mstore\n      pop\n      dup2\n      add\n      swap1\n      tag_166\n      swap2\n      swap1\n      tag_154\n      jump\t// in\n    tag_166:\n        /* \"contracts/CDS/PriceConsumer.sol\":642:669  priceOracle.linkPrice().div */\n      tag_119\n      swap1\n        /* \"contracts/CDS/PriceConsumer.sol\":642:678  priceOracle.linkPrice().div(10 ** 8) */\n      swap2\n      swap1\n      0xffffffff\n      and\n      jump\t// in\n    tag_163:\n        /* \"contracts/CDS/PriceConsumer.sol\":634:678  price = priceOracle.linkPrice().div(10 ** 8) */\n      swap1\n      pop\n        /* \"contracts/CDS/PriceConsumer.sol\":605:685  if (_assetType == 2) {... */\n    tag_162:\n        /* \"contracts/CDS/PriceConsumer.sol\":520:685  if (_assetType == 1) {... */\n    tag_161:\n        /* \"contracts/CDS/PriceConsumer.sol\":435:685  if (_assetType == 0) {... */\n    tag_155:\n        /* \"contracts/CDS/PriceConsumer.sol\":697:702  price */\n      dup1\n        /* \"contracts/CDS/PriceConsumer.sol\":690:702  return price */\n      swap2\n      pop\n      pop\n        /* \"contracts/CDS/PriceConsumer.sol\":339:707  function getCurrPrice(uint32 _assetType) public view returns (uint256) {... */\n      swap2\n      swap1\n      pop\n      jump\t// out\n        /* \"contracts/CDS/CDS.sol\":2840:2955  function setRounds(uint32 _rounds) public onlyOwner returns (uint32) {... */\n    tag_99:\n        /* \"contracts/CDS/CDS.sol\":2901:2907  uint32 */\n      0x00\n        /* \"@openzeppelin/contracts/access/Ownable.sol\":1094:1107  _checkOwner() */\n      tag_168\n        /* \"@openzeppelin/contracts/access/Ownable.sol\":1094:1105  _checkOwner */\n      tag_122\n        /* \"@openzeppelin/contracts/access/Ownable.sol\":1094:1107  _checkOwner() */\n      jump\t// in\n    tag_168:\n        /* \"contracts/CDS/CDS.sol\":2924:2931  _rounds */\n      dup2\n        /* \"contracts/CDS/CDS.sol\":2915:2921  rounds */\n      0x0a\n      0x14\n        /* \"contracts/CDS/CDS.sol\":2915:2931  rounds = _rounds */\n      0x0100\n      exp\n      dup2\n      sload\n      dup2\n      0xffffffff\n      mul\n      not\n      and\n      swap1\n      dup4\n      0xffffffff\n      and\n      mul\n      or\n      swap1\n      sstore\n      pop\n        /* \"contracts/CDS/CDS.sol\":2944:2950  rounds */\n      0x0a\n      0x14\n      swap1\n      sload\n      swap1\n      0x0100\n      exp\n      swap1\n      div\n      0xffffffff\n      and\n        /* \"contracts/CDS/CDS.sol\":2937:2950  return rounds */\n      swap1\n      pop\n        /* \"contracts/CDS/CDS.sol\":2840:2955  function setRounds(uint32 _rounds) public onlyOwner returns (uint32) {... */\n      swap2\n      swap1\n      pop\n      jump\t// out\n        /* \"contracts/CDS/CDS.sol\":1803:1878  function getSeller() public view returns (address) {... */\n    tag_102:\n        /* \"contracts/CDS/CDS.sol\":1845:1852  address */\n      0x00\n        /* \"contracts/CDS/CDS.sol\":1867:1873  seller */\n      0x0a\n      0x00\n      swap1\n      sload\n      swap1\n      0x0100\n      exp\n      swap1\n      div\n      0xffffffffffffffffffffffffffffffffffffffff\n      and\n        /* \"contracts/CDS/CDS.sol\":1860:1873  return seller */\n      swap1\n      pop\n        /* \"contracts/CDS/CDS.sol\":1803:1878  function getSeller() public view returns (address) {... */\n      swap1\n      jump\t// out\n        /* \"contracts/CDS/CDS.sol\":571:593  uint256 public premium */\n    tag_105:\n      sload(0x06)\n      dup2\n      jump\t// out\n        /* \"contracts/CDS/CDS.sol\":2719:2836  function setSeller(address _seller) public onlyOwner returns (address) {... */\n    tag_109:\n        /* \"contracts/CDS/CDS.sol\":2781:2788  address */\n      0x00\n        /* \"@openzeppelin/contracts/access/Ownable.sol\":1094:1107  _checkOwner() */\n      tag_172\n        /* \"@openzeppelin/contracts/access/Ownable.sol\":1094:1105  _checkOwner */\n      tag_122\n        /* \"@openzeppelin/contracts/access/Ownable.sol\":1094:1107  _checkOwner() */\n      jump\t// in\n    tag_172:\n        /* \"contracts/CDS/CDS.sol\":2805:2812  _seller */\n      dup2\n        /* \"contracts/CDS/CDS.sol\":2796:2802  seller */\n      0x0a\n      0x00\n        /* \"contracts/CDS/CDS.sol\":2796:2812  seller = _seller */\n      0x0100\n      exp\n      dup2\n      sload\n      dup2\n      0xffffffffffffffffffffffffffffffffffffffff\n      mul\n      not\n      and\n      swap1\n      dup4\n      0xffffffffffffffffffffffffffffffffffffffff\n      and\n      mul\n      or\n      swap1\n      sstore\n      pop\n        /* \"contracts/CDS/CDS.sol\":2825:2831  seller */\n      0x0a\n      0x00\n      swap1\n      sload\n      swap1\n      0x0100\n      exp\n      swap1\n      div\n      0xffffffffffffffffffffffffffffffffffffffff\n      and\n        /* \"contracts/CDS/CDS.sol\":2818:2831  return seller */\n      swap1\n      pop\n        /* \"contracts/CDS/CDS.sol\":2719:2836  function setSeller(address _seller) public onlyOwner returns (address) {... */\n      swap2\n      swap1\n      pop\n      jump\t// out\n        /* \"contracts/CDS/CDS.sol\":1882:2173  function getClaimReward() public view returns (uint256) {... */\n    tag_112:\n        /* \"contracts/CDS/CDS.sol\":1929:1936  uint256 */\n      0x00\n        /* \"contracts/CDS/CDS.sol\":1944:1961  uint256 currPrice */\n      dup1\n        /* \"contracts/CDS/CDS.sol\":1964:1987  getCurrPrice(assetType) */\n      tag_175\n        /* \"contracts/CDS/CDS.sol\":1977:1986  assetType */\n      0x0a\n      0x1c\n      swap1\n      sload\n      swap1\n      0x0100\n      exp\n      swap1\n      div\n      0xffffffff\n      and\n        /* \"contracts/CDS/CDS.sol\":1964:1976  getCurrPrice */\n      tag_95\n        /* \"contracts/CDS/CDS.sol\":1964:1987  getCurrPrice(assetType) */\n      jump\t// in\n    tag_175:\n        /* \"contracts/CDS/CDS.sol\":1944:1987  uint256 currPrice = getCurrPrice(assetType) */\n      swap1\n      pop\n        /* \"contracts/CDS/CDS.sol\":2010:2019  currPrice */\n      dup1\n        /* \"contracts/CDS/CDS.sol\":1997:2007  claimPrice */\n      sload(0x04)\n        /* \"contracts/CDS/CDS.sol\":1997:2019  claimPrice < currPrice */\n      lt\n        /* \"contracts/CDS/CDS.sol\":1993:2044  if (claimPrice < currPrice) {... */\n      iszero\n      tag_176\n      jumpi\n        /* \"contracts/CDS/CDS.sol\":2036:2037  0 */\n      0x00\n        /* \"contracts/CDS/CDS.sol\":2029:2037  return 0 */\n      swap2\n      pop\n      pop\n      jump(tag_174)\n        /* \"contracts/CDS/CDS.sol\":1993:2044  if (claimPrice < currPrice) {... */\n    tag_176:\n        /* \"contracts/CDS/CDS.sol\":2062:2168  sellerDeposit.calcClaimReward(... */\n      tag_177\n        /* \"contracts/CDS/CDS.sol\":2101:2117  liquidationPrice */\n      sload(0x05)\n        /* \"contracts/CDS/CDS.sol\":2127:2141  initAssetPrice */\n      sload(0x03)\n        /* \"contracts/CDS/CDS.sol\":2151:2160  currPrice */\n      dup4\n        /* \"contracts/CDS/CDS.sol\":2062:2075  sellerDeposit */\n      sload(0x07)\n        /* \"contracts/CDS/CDS.sol\":2062:2091  sellerDeposit.calcClaimReward */\n      tag_178\n      swap1\n        /* \"contracts/CDS/CDS.sol\":2062:2168  sellerDeposit.calcClaimReward(... */\n      swap4\n      swap3\n      swap2\n      swap1\n      0xffffffff\n      and\n      jump\t// in\n    tag_177:\n        /* \"contracts/CDS/CDS.sol\":2049:2168  return... */\n      swap2\n      pop\n      pop\n        /* \"contracts/CDS/CDS.sol\":1882:2173  function getClaimReward() public view returns (uint256) {... */\n    tag_174:\n      swap1\n      jump\t// out\n        /* \"@openzeppelin/contracts/access/Ownable.sol\":2081:2279  function transferOwnership(address newOwner) public virtual onlyOwner {... */\n    tag_116:\n        /* \"@openzeppelin/contracts/access/Ownable.sol\":1094:1107  _checkOwner() */\n      tag_180\n        /* \"@openzeppelin/contracts/access/Ownable.sol\":1094:1105  _checkOwner */\n      tag_122\n        /* \"@openzeppelin/contracts/access/Ownable.sol\":1094:1107  _checkOwner() */\n      jump\t// in\n    tag_180:\n        /* \"@openzeppelin/contracts/access/Ownable.sol\":2189:2190  0 */\n      0x00\n        /* \"@openzeppelin/contracts/access/Ownable.sol\":2169:2191  newOwner != address(0) */\n      0xffffffffffffffffffffffffffffffffffffffff\n      and\n        /* \"@openzeppelin/contracts/access/Ownable.sol\":2169:2177  newOwner */\n      dup2\n        /* \"@openzeppelin/contracts/access/Ownable.sol\":2169:2191  newOwner != address(0) */\n      0xffffffffffffffffffffffffffffffffffffffff\n      and\n      eq\n      iszero\n        /* \"@openzeppelin/contracts/access/Ownable.sol\":2161:2234  require(newOwner != address(0), \"Ownable: new owner is the zero address\") */\n      tag_182\n      jumpi\n      mload(0x40)\n      0x08c379a000000000000000000000000000000000000000000000000000000000\n      dup2\n      mstore\n      0x04\n      add\n      tag_183\n      swap1\n      tag_184\n      jump\t// in\n    tag_183:\n      mload(0x40)\n      dup1\n      swap2\n      sub\n      swap1\n      revert\n    tag_182:\n        /* \"@openzeppelin/contracts/access/Ownable.sol\":2244:2272  _transferOwnership(newOwner) */\n      tag_185\n        /* \"@openzeppelin/contracts/access/Ownable.sol\":2263:2271  newOwner */\n      dup2\n        /* \"@openzeppelin/contracts/access/Ownable.sol\":2244:2262  _transferOwnership */\n      tag_132\n        /* \"@openzeppelin/contracts/access/Ownable.sol\":2244:2272  _transferOwnership(newOwner) */\n      jump\t// in\n    tag_185:\n        /* \"@openzeppelin/contracts/access/Ownable.sol\":2081:2279  function transferOwnership(address newOwner) public virtual onlyOwner {... */\n      pop\n      jump\t// out\n        /* \"contracts/libs/LibSwap.sol\":592:795  function calcAmountOfAsset(... */\n    tag_117:\n        /* \"contracts/libs/LibSwap.sol\":722:729  uint256 */\n      0x00\n        /* \"contracts/libs/LibSwap.sol\":744:790  _sellerDeposit.div(_initial.sub(_liquidation)) */\n      tag_187\n        /* \"contracts/libs/LibSwap.sol\":763:789  _initial.sub(_liquidation) */\n      tag_188\n        /* \"contracts/libs/LibSwap.sol\":776:788  _liquidation */\n      dup5\n        /* \"contracts/libs/LibSwap.sol\":763:771  _initial */\n      dup7\n        /* \"contracts/libs/LibSwap.sol\":763:775  _initial.sub */\n      tag_118\n      swap1\n        /* \"contracts/libs/LibSwap.sol\":763:789  _initial.sub(_liquidation) */\n      swap2\n      swap1\n      0xffffffff\n      and\n      jump\t// in\n    tag_188:\n        /* \"contracts/libs/LibSwap.sol\":744:758  _sellerDeposit */\n      dup4\n        /* \"contracts/libs/LibSwap.sol\":744:762  _sellerDeposit.div */\n      tag_119\n      swap1\n        /* \"contracts/libs/LibSwap.sol\":744:790  _sellerDeposit.div(_initial.sub(_liquidation)) */\n      swap2\n      swap1\n      0xffffffff\n      and\n      jump\t// in\n    tag_187:\n        /* \"contracts/libs/LibSwap.sol\":737:790  return _sellerDeposit.div(_initial.sub(_liquidation)) */\n      swap1\n      pop\n        /* \"contracts/libs/LibSwap.sol\":592:795  function calcAmountOfAsset(... */\n      swap4\n      swap3\n      pop\n      pop\n      pop\n      jump\t// out\n        /* \"@openzeppelin/contracts/utils/math/SafeMath.sol\":3122:3218  function sub(uint256 a, uint256 b) internal pure returns (uint256) {... */\n    tag_118:\n        /* \"@openzeppelin/contracts/utils/math/SafeMath.sol\":3180:3187  uint256 */\n      0x00\n        /* \"@openzeppelin/contracts/utils/math/SafeMath.sol\":3210:3211  b */\n      dup2\n        /* \"@openzeppelin/contracts/utils/math/SafeMath.sol\":3206:3207  a */\n      dup4\n        /* \"@openzeppelin/contracts/utils/math/SafeMath.sol\":3206:3211  a - b */\n      tag_190\n      swap2\n      swap1\n      tag_191\n      jump\t// in\n    tag_190:\n        /* \"@openzeppelin/contracts/utils/math/SafeMath.sol\":3199:3211  return a - b */\n      swap1\n      pop\n        /* \"@openzeppelin/contracts/utils/math/SafeMath.sol\":3122:3218  function sub(uint256 a, uint256 b) internal pure returns (uint256) {... */\n      swap3\n      swap2\n      pop\n      pop\n      jump\t// out\n        /* \"@openzeppelin/contracts/utils/math/SafeMath.sol\":3850:3946  function div(uint256 a, uint256 b) internal pure returns (uint256) {... */\n    tag_119:\n        /* \"@openzeppelin/contracts/utils/math/SafeMath.sol\":3908:3915  uint256 */\n      0x00\n        /* \"@openzeppelin/contracts/utils/math/SafeMath.sol\":3938:3939  b */\n      dup2\n        /* \"@openzeppelin/contracts/utils/math/SafeMath.sol\":3934:3935  a */\n      dup4\n        /* \"@openzeppelin/contracts/utils/math/SafeMath.sol\":3934:3939  a / b */\n      tag_193\n      swap2\n      swap1\n      tag_194\n      jump\t// in\n    tag_193:\n        /* \"@openzeppelin/contracts/utils/math/SafeMath.sol\":3927:3939  return a / b */\n      swap1\n      pop\n        /* \"@openzeppelin/contracts/utils/math/SafeMath.sol\":3850:3946  function div(uint256 a, uint256 b) internal pure returns (uint256) {... */\n      swap3\n      swap2\n      pop\n      pop\n      jump\t// out\n        /* \"@openzeppelin/contracts/access/Ownable.sol\":1359:1489  function _checkOwner() internal view virtual {... */\n    tag_122:\n        /* \"@openzeppelin/contracts/access/Ownable.sol\":1433:1445  _msgSender() */\n      tag_196\n        /* \"@openzeppelin/contracts/access/Ownable.sol\":1433:1443  _msgSender */\n      tag_197\n        /* \"@openzeppelin/contracts/access/Ownable.sol\":1433:1445  _msgSender() */\n      jump\t// in\n    tag_196:\n        /* \"@openzeppelin/contracts/access/Ownable.sol\":1422:1445  owner() == _msgSender() */\n      0xffffffffffffffffffffffffffffffffffffffff\n      and\n        /* \"@openzeppelin/contracts/access/Ownable.sol\":1422:1429  owner() */\n      tag_198\n        /* \"@openzeppelin/contracts/access/Ownable.sol\":1422:1427  owner */\n      tag_66\n        /* \"@openzeppelin/contracts/access/Ownable.sol\":1422:1429  owner() */\n      jump\t// in\n    tag_198:\n        /* \"@openzeppelin/contracts/access/Ownable.sol\":1422:1445  owner() == _msgSender() */\n      0xffffffffffffffffffffffffffffffffffffffff\n      and\n      eq\n        /* \"@openzeppelin/contracts/access/Ownable.sol\":1414:1482  require(owner() == _msgSender(), \"Ownable: caller is not the owner\") */\n      tag_199\n      jumpi\n      mload(0x40)\n      0x08c379a000000000000000000000000000000000000000000000000000000000\n      dup2\n      mstore\n      0x04\n      add\n      tag_200\n      swap1\n      tag_201\n      jump\t// in\n    tag_200:\n      mload(0x40)\n      dup1\n      swap2\n      sub\n      swap1\n      revert\n    tag_199:\n        /* \"@openzeppelin/contracts/access/Ownable.sol\":1359:1489  function _checkOwner() internal view virtual {... */\n      jump\t// out\n        /* \"@openzeppelin/contracts/access/Ownable.sol\":2433:2620  function _transferOwnership(address newOwner) internal virtual {... */\n    tag_132:\n        /* \"@openzeppelin/contracts/access/Ownable.sol\":2506:2522  address oldOwner */\n      0x00\n        /* \"@openzeppelin/contracts/access/Ownable.sol\":2525:2531  _owner */\n      dup1\n      0x00\n      swap1\n      sload\n      swap1\n      0x0100\n      exp\n      swap1\n      div\n      0xffffffffffffffffffffffffffffffffffffffff\n      and\n        /* \"@openzeppelin/contracts/access/Ownable.sol\":2506:2531  address oldOwner = _owner */\n      swap1\n      pop\n        /* \"@openzeppelin/contracts/access/Ownable.sol\":2550:2558  newOwner */\n      dup2\n        /* \"@openzeppelin/contracts/access/Ownable.sol\":2541:2547  _owner */\n      0x00\n      dup1\n        /* \"@openzeppelin/contracts/access/Ownable.sol\":2541:2558  _owner = newOwner */\n      0x0100\n      exp\n      dup2\n      sload\n      dup2\n      0xffffffffffffffffffffffffffffffffffffffff\n      mul\n      not\n      and\n      swap1\n      dup4\n      0xffffffffffffffffffffffffffffffffffffffff\n      and\n      mul\n      or\n      swap1\n      sstore\n      pop\n        /* \"@openzeppelin/contracts/access/Ownable.sol\":2604:2612  newOwner */\n      dup2\n        /* \"@openzeppelin/contracts/access/Ownable.sol\":2573:2613  OwnershipTransferred(oldOwner, newOwner) */\n      0xffffffffffffffffffffffffffffffffffffffff\n      and\n        /* \"@openzeppelin/contracts/access/Ownable.sol\":2594:2602  oldOwner */\n      dup2\n        /* \"@openzeppelin/contracts/access/Ownable.sol\":2573:2613  OwnershipTransferred(oldOwner, newOwner) */\n      0xffffffffffffffffffffffffffffffffffffffff\n      and\n      0x8be0079c531659141344cd1fd0a4f28419497f9722a3daafe3b4186f6b6457e0\n      mload(0x40)\n      mload(0x40)\n      dup1\n      swap2\n      sub\n      swap1\n      log3\n        /* \"@openzeppelin/contracts/access/Ownable.sol\":2496:2620  {... */\n      pop\n        /* \"@openzeppelin/contracts/access/Ownable.sol\":2433:2620  function _transferOwnership(address newOwner) internal virtual {... */\n      pop\n      jump\t// out\n        /* \"contracts/libs/LibSwap.sol\":167:588  function calcClaimReward(... */\n    tag_178:\n        /* \"contracts/libs/LibSwap.sol\":311:318  uint256 */\n      0x00\n        /* \"contracts/libs/LibSwap.sol\":326:345  uint256 claimReward */\n      dup1\n        /* \"contracts/libs/LibSwap.sol\":371:379  _current */\n      dup3\n        /* \"contracts/libs/LibSwap.sol\":355:367  _liquidation */\n      dup6\n        /* \"contracts/libs/LibSwap.sol\":355:379  _liquidation >= _current */\n      lt\n        /* \"contracts/libs/LibSwap.sol\":351:560  if (_liquidation >= _current) {... */\n      tag_204\n      jumpi\n        /* \"contracts/libs/LibSwap.sol\":403:411  _deposit */\n      dup6\n        /* \"contracts/libs/LibSwap.sol\":389:411  claimReward = _deposit */\n      swap1\n      pop\n        /* \"contracts/libs/LibSwap.sol\":351:560  if (_liquidation >= _current) {... */\n      jump(tag_205)\n    tag_204:\n        /* \"contracts/libs/LibSwap.sol\":432:450  uint256 numOfAsset */\n      0x00\n        /* \"contracts/libs/LibSwap.sol\":453:493  _deposit.div(_initial.sub(_liquidation)) */\n      tag_206\n        /* \"contracts/libs/LibSwap.sol\":466:492  _initial.sub(_liquidation) */\n      tag_207\n        /* \"contracts/libs/LibSwap.sol\":479:491  _liquidation */\n      dup8\n        /* \"contracts/libs/LibSwap.sol\":466:474  _initial */\n      dup8\n        /* \"contracts/libs/LibSwap.sol\":466:478  _initial.sub */\n      tag_118\n      swap1\n        /* \"contracts/libs/LibSwap.sol\":466:492  _initial.sub(_liquidation) */\n      swap2\n      swap1\n      0xffffffff\n      and\n      jump\t// in\n    tag_207:\n        /* \"contracts/libs/LibSwap.sol\":453:461  _deposit */\n      dup9\n        /* \"contracts/libs/LibSwap.sol\":453:465  _deposit.div */\n      tag_119\n      swap1\n        /* \"contracts/libs/LibSwap.sol\":453:493  _deposit.div(_initial.sub(_liquidation)) */\n      swap2\n      swap1\n      0xffffffff\n      and\n      jump\t// in\n    tag_206:\n        /* \"contracts/libs/LibSwap.sol\":432:493  uint256 numOfAsset = _deposit.div(_initial.sub(_liquidation)) */\n      swap1\n      pop\n        /* \"contracts/libs/LibSwap.sol\":515:553  numOfAsset.mul(_initial.sub(_current)) */\n      tag_208\n        /* \"contracts/libs/LibSwap.sol\":530:552  _initial.sub(_current) */\n      tag_209\n        /* \"contracts/libs/LibSwap.sol\":543:551  _current */\n      dup6\n        /* \"contracts/libs/LibSwap.sol\":530:538  _initial */\n      dup8\n        /* \"contracts/libs/LibSwap.sol\":530:542  _initial.sub */\n      tag_118\n      swap1\n        /* \"contracts/libs/LibSwap.sol\":530:552  _initial.sub(_current) */\n      swap2\n      swap1\n      0xffffffff\n      and\n      jump\t// in\n    tag_209:\n        /* \"contracts/libs/LibSwap.sol\":515:525  numOfAsset */\n      dup3\n        /* \"contracts/libs/LibSwap.sol\":515:529  numOfAsset.mul */\n      tag_210\n      swap1\n        /* \"contracts/libs/LibSwap.sol\":515:553  numOfAsset.mul(_initial.sub(_current)) */\n      swap2\n      swap1\n      0xffffffff\n      and\n      jump\t// in\n    tag_208:\n        /* \"contracts/libs/LibSwap.sol\":501:553  claimReward = numOfAsset.mul(_initial.sub(_current)) */\n      swap2\n      pop\n        /* \"contracts/libs/LibSwap.sol\":424:560  {... */\n      pop\n        /* \"contracts/libs/LibSwap.sol\":351:560  if (_liquidation >= _current) {... */\n    tag_205:\n        /* \"contracts/libs/LibSwap.sol\":572:583  claimReward */\n      dup1\n        /* \"contracts/libs/LibSwap.sol\":565:583  return claimReward */\n      swap2\n      pop\n      pop\n        /* \"contracts/libs/LibSwap.sol\":167:588  function calcClaimReward(... */\n      swap5\n      swap4\n      pop\n      pop\n      pop\n      pop\n      jump\t// out\n        /* \"@openzeppelin/contracts/utils/Context.sol\":640:736  function _msgSender() internal view virtual returns (address) {... */\n    tag_197:\n        /* \"@openzeppelin/contracts/utils/Context.sol\":693:700  address */\n      0x00\n        /* \"@openzeppelin/contracts/utils/Context.sol\":719:729  msg.sender */\n      caller\n        /* \"@openzeppelin/contracts/utils/Context.sol\":712:729  return msg.sender */\n      swap1\n      pop\n        /* \"@openzeppelin/contracts/utils/Context.sol\":640:736  function _msgSender() internal view virtual returns (address) {... */\n      swap1\n      jump\t// out\n        /* \"@openzeppelin/contracts/utils/math/SafeMath.sol\":3465:3561  function mul(uint256 a, uint256 b) internal pure returns (uint256) {... */\n    tag_210:\n        /* \"@openzeppelin/contracts/utils/math/SafeMath.sol\":3523:3530  uint256 */\n      0x00\n        /* \"@openzeppelin/contracts/utils/math/SafeMath.sol\":3553:3554  b */\n      dup2\n        /* \"@openzeppelin/contracts/utils/math/SafeMath.sol\":3549:3550  a */\n      dup4\n        /* \"@openzeppelin/contracts/utils/math/SafeMath.sol\":3549:3554  a * b */\n      tag_213\n      swap2\n      swap1\n      tag_214\n      jump\t// in\n    tag_213:\n        /* \"@openzeppelin/contracts/utils/math/SafeMath.sol\":3542:3554  return a * b */\n      swap1\n      pop\n        /* \"@openzeppelin/contracts/utils/math/SafeMath.sol\":3465:3561  function mul(uint256 a, uint256 b) internal pure returns (uint256) {... */\n      swap3\n      swap2\n      pop\n      pop\n      jump\t// out\n    tag_145:\n      mload(0x40)\n      dup1\n      0xa0\n      add\n      0x40\n      mstore\n      dup1\n      0x05\n      swap1\n      0x20\n      dup3\n      mul\n      dup1\n      calldatasize\n      dup4\n      calldatacopy\n      dup1\n      dup3\n      add\n      swap2\n      pop\n      pop\n      swap1\n      pop\n      pop\n      swap1\n      jump\t// out\n        /* \"#utility.yul\":7:84   */\n    tag_215:\n        /* \"#utility.yul\":44:51   */\n      0x00\n        /* \"#utility.yul\":73:78   */\n      dup2\n        /* \"#utility.yul\":62:78   */\n      swap1\n      pop\n        /* \"#utility.yul\":7:84   */\n      swap2\n      swap1\n      pop\n      jump\t// out\n        /* \"#utility.yul\":90:208   */\n    tag_216:\n        /* \"#utility.yul\":177:201   */\n      tag_258\n        /* \"#utility.yul\":195:200   */\n      dup2\n        /* \"#utility.yul\":177:201   */\n      tag_215\n      jump\t// in\n    tag_258:\n        /* \"#utility.yul\":172:175   */\n      dup3\n        /* \"#utility.yul\":165:202   */\n      mstore\n        /* \"#utility.yul\":90:208   */\n      pop\n      pop\n      jump\t// out\n        /* \"#utility.yul\":214:436   */\n    tag_33:\n        /* \"#utility.yul\":307:311   */\n      0x00\n        /* \"#utility.yul\":345:347   */\n      0x20\n        /* \"#utility.yul\":334:343   */\n      dup3\n        /* \"#utility.yul\":330:348   */\n      add\n        /* \"#utility.yul\":322:348   */\n      swap1\n      pop\n        /* \"#utility.yul\":358:429   */\n      tag_260\n        /* \"#utility.yul\":426:427   */\n      0x00\n        /* \"#utility.yul\":415:424   */\n      dup4\n        /* \"#utility.yul\":411:428   */\n      add\n        /* \"#utility.yul\":402:408   */\n      dup5\n        /* \"#utility.yul\":358:429   */\n      tag_216\n      jump\t// in\n    tag_260:\n        /* \"#utility.yul\":214:436   */\n      swap3\n      swap2\n      pop\n      pop\n      jump\t// out\n        /* \"#utility.yul\":442:622   */\n    tag_126:\n        /* \"#utility.yul\":490:567   */\n      0x4e487b7100000000000000000000000000000000000000000000000000000000\n        /* \"#utility.yul\":487:488   */\n      0x00\n        /* \"#utility.yul\":480:568   */\n      mstore\n        /* \"#utility.yul\":587:591   */\n      0x21\n        /* \"#utility.yul\":584:585   */\n      0x04\n        /* \"#utility.yul\":577:592   */\n      mstore\n        /* \"#utility.yul\":611:615   */\n      0x24\n        /* \"#utility.yul\":608:609   */\n      0x00\n        /* \"#utility.yul\":601:616   */\n      revert\n        /* \"#utility.yul\":628:743   */\n    tag_217:\n        /* \"#utility.yul\":711:712   */\n      0x05\n        /* \"#utility.yul\":704:709   */\n      dup2\n        /* \"#utility.yul\":701:713   */\n      lt\n        /* \"#utility.yul\":691:737   */\n      tag_263\n      jumpi\n        /* \"#utility.yul\":717:735   */\n      tag_264\n      tag_126\n      jump\t// in\n    tag_264:\n        /* \"#utility.yul\":691:737   */\n    tag_263:\n        /* \"#utility.yul\":628:743   */\n      pop\n      jump\t// out\n        /* \"#utility.yul\":749:880   */\n    tag_218:\n        /* \"#utility.yul\":796:803   */\n      0x00\n        /* \"#utility.yul\":825:830   */\n      dup2\n        /* \"#utility.yul\":814:830   */\n      swap1\n      pop\n        /* \"#utility.yul\":831:874   */\n      tag_266\n        /* \"#utility.yul\":868:873   */\n      dup3\n        /* \"#utility.yul\":831:874   */\n      tag_217\n      jump\t// in\n    tag_266:\n        /* \"#utility.yul\":749:880   */\n      swap2\n      swap1\n      pop\n      jump\t// out\n        /* \"#utility.yul\":886:1017   */\n    tag_219:\n        /* \"#utility.yul\":944:953   */\n      0x00\n        /* \"#utility.yul\":977:1011   */\n      tag_268\n        /* \"#utility.yul\":1005:1010   */\n      dup3\n        /* \"#utility.yul\":977:1011   */\n      tag_218\n      jump\t// in\n    tag_268:\n        /* \"#utility.yul\":964:1011   */\n      swap1\n      pop\n        /* \"#utility.yul\":886:1017   */\n      swap2\n      swap1\n      pop\n      jump\t// out\n        /* \"#utility.yul\":1023:1170   */\n    tag_220:\n        /* \"#utility.yul\":1118:1163   */\n      tag_270\n        /* \"#utility.yul\":1157:1162   */\n      dup2\n        /* \"#utility.yul\":1118:1163   */\n      tag_219\n      jump\t// in\n    tag_270:\n        /* \"#utility.yul\":1113:1116   */\n      dup3\n        /* \"#utility.yul\":1106:1164   */\n      mstore\n        /* \"#utility.yul\":1023:1170   */\n      pop\n      pop\n      jump\t// out\n        /* \"#utility.yul\":1176:1414   */\n    tag_37:\n        /* \"#utility.yul\":1277:1281   */\n      0x00\n        /* \"#utility.yul\":1315:1317   */\n      0x20\n        /* \"#utility.yul\":1304:1313   */\n      dup3\n        /* \"#utility.yul\":1300:1318   */\n      add\n        /* \"#utility.yul\":1292:1318   */\n      swap1\n      pop\n        /* \"#utility.yul\":1328:1407   */\n      tag_272\n        /* \"#utility.yul\":1404:1405   */\n      0x00\n        /* \"#utility.yul\":1393:1402   */\n      dup4\n        /* \"#utility.yul\":1389:1406   */\n      add\n        /* \"#utility.yul\":1380:1386   */\n      dup5\n        /* \"#utility.yul\":1328:1407   */\n      tag_220\n      jump\t// in\n    tag_272:\n        /* \"#utility.yul\":1176:1414   */\n      swap3\n      swap2\n      pop\n      pop\n      jump\t// out\n        /* \"#utility.yul\":1501:1618   */\n    tag_222:\n        /* \"#utility.yul\":1610:1611   */\n      0x00\n        /* \"#utility.yul\":1607:1608   */\n      dup1\n        /* \"#utility.yul\":1600:1612   */\n      revert\n        /* \"#utility.yul\":1747:1856   */\n    tag_224:\n        /* \"#utility.yul\":1830:1831   */\n      0x05\n        /* \"#utility.yul\":1823:1828   */\n      dup2\n        /* \"#utility.yul\":1820:1832   */\n      lt\n        /* \"#utility.yul\":1810:1850   */\n      tag_277\n      jumpi\n        /* \"#utility.yul\":1846:1847   */\n      0x00\n        /* \"#utility.yul\":1843:1844   */\n      dup1\n        /* \"#utility.yul\":1836:1848   */\n      revert\n        /* \"#utility.yul\":1810:1850   */\n    tag_277:\n        /* \"#utility.yul\":1747:1856   */\n      pop\n      jump\t// out\n        /* \"#utility.yul\":1862:2021   */\n    tag_225:\n        /* \"#utility.yul\":1918:1923   */\n      0x00\n        /* \"#utility.yul\":1956:1962   */\n      dup2\n        /* \"#utility.yul\":1943:1963   */\n      calldataload\n        /* \"#utility.yul\":1934:1963   */\n      swap1\n      pop\n        /* \"#utility.yul\":1972:2015   */\n      tag_279\n        /* \"#utility.yul\":2009:2014   */\n      dup2\n        /* \"#utility.yul\":1972:2015   */\n      tag_224\n      jump\t// in\n    tag_279:\n        /* \"#utility.yul\":1862:2021   */\n      swap3\n      swap2\n      pop\n      pop\n      jump\t// out\n        /* \"#utility.yul\":2027:2376   */\n    tag_40:\n        /* \"#utility.yul\":2096:2102   */\n      0x00\n        /* \"#utility.yul\":2145:2147   */\n      0x20\n        /* \"#utility.yul\":2133:2142   */\n      dup3\n        /* \"#utility.yul\":2124:2131   */\n      dup5\n        /* \"#utility.yul\":2120:2143   */\n      sub\n        /* \"#utility.yul\":2116:2148   */\n      slt\n        /* \"#utility.yul\":2113:2232   */\n      iszero\n      tag_281\n      jumpi\n        /* \"#utility.yul\":2151:2230   */\n      tag_282\n      tag_222\n      jump\t// in\n    tag_282:\n        /* \"#utility.yul\":2113:2232   */\n    tag_281:\n        /* \"#utility.yul\":2271:2272   */\n      0x00\n        /* \"#utility.yul\":2296:2359   */\n      tag_283\n        /* \"#utility.yul\":2351:2358   */\n      dup5\n        /* \"#utility.yul\":2342:2348   */\n      dup3\n        /* \"#utility.yul\":2331:2340   */\n      dup6\n        /* \"#utility.yul\":2327:2349   */\n      add\n        /* \"#utility.yul\":2296:2359   */\n      tag_225\n      jump\t// in\n    tag_283:\n        /* \"#utility.yul\":2286:2359   */\n      swap2\n      pop\n        /* \"#utility.yul\":2242:2369   */\n      pop\n        /* \"#utility.yul\":2027:2376   */\n      swap3\n      swap2\n      pop\n      pop\n      jump\t// out\n        /* \"#utility.yul\":2382:2475   */\n    tag_226:\n        /* \"#utility.yul\":2418:2425   */\n      0x00\n        /* \"#utility.yul\":2458:2468   */\n      0xffffffff\n        /* \"#utility.yul\":2451:2456   */\n      dup3\n        /* \"#utility.yul\":2447:2469   */\n      and\n        /* \"#utility.yul\":2436:2469   */\n      swap1\n      pop\n        /* \"#utility.yul\":2382:2475   */\n      swap2\n      swap1\n      pop\n      jump\t// out\n        /* \"#utility.yul\":2481:2596   */\n    tag_227:\n        /* \"#utility.yul\":2566:2589   */\n      tag_286\n        /* \"#utility.yul\":2583:2588   */\n      dup2\n        /* \"#utility.yul\":2566:2589   */\n      tag_226\n      jump\t// in\n    tag_286:\n        /* \"#utility.yul\":2561:2564   */\n      dup3\n        /* \"#utility.yul\":2554:2590   */\n      mstore\n        /* \"#utility.yul\":2481:2596   */\n      pop\n      pop\n      jump\t// out\n        /* \"#utility.yul\":2602:2820   */\n    tag_46:\n        /* \"#utility.yul\":2693:2697   */\n      0x00\n        /* \"#utility.yul\":2731:2733   */\n      0x20\n        /* \"#utility.yul\":2720:2729   */\n      dup3\n        /* \"#utility.yul\":2716:2734   */\n      add\n        /* \"#utility.yul\":2708:2734   */\n      swap1\n      pop\n        /* \"#utility.yul\":2744:2813   */\n      tag_288\n        /* \"#utility.yul\":2810:2811   */\n      0x00\n        /* \"#utility.yul\":2799:2808   */\n      dup4\n        /* \"#utility.yul\":2795:2812   */\n      add\n        /* \"#utility.yul\":2786:2792   */\n      dup5\n        /* \"#utility.yul\":2744:2813   */\n      tag_227\n      jump\t// in\n    tag_288:\n        /* \"#utility.yul\":2602:2820   */\n      swap3\n      swap2\n      pop\n      pop\n      jump\t// out\n        /* \"#utility.yul\":2826:2952   */\n    tag_228:\n        /* \"#utility.yul\":2863:2870   */\n      0x00\n        /* \"#utility.yul\":2903:2945   */\n      0xffffffffffffffffffffffffffffffffffffffff\n        /* \"#utility.yul\":2896:2901   */\n      dup3\n        /* \"#utility.yul\":2892:2946   */\n      and\n        /* \"#utility.yul\":2881:2946   */\n      swap1\n      pop\n        /* \"#utility.yul\":2826:2952   */\n      swap2\n      swap1\n      pop\n      jump\t// out\n        /* \"#utility.yul\":2958:3054   */\n    tag_229:\n        /* \"#utility.yul\":2995:3002   */\n      0x00\n        /* \"#utility.yul\":3024:3048   */\n      tag_291\n        /* \"#utility.yul\":3042:3047   */\n      dup3\n        /* \"#utility.yul\":3024:3048   */\n      tag_228\n      jump\t// in\n    tag_291:\n        /* \"#utility.yul\":3013:3048   */\n      swap1\n      pop\n        /* \"#utility.yul\":2958:3054   */\n      swap2\n      swap1\n      pop\n      jump\t// out\n        /* \"#utility.yul\":3060:3178   */\n    tag_230:\n        /* \"#utility.yul\":3147:3171   */\n      tag_293\n        /* \"#utility.yul\":3165:3170   */\n      dup2\n        /* \"#utility.yul\":3147:3171   */\n      tag_229\n      jump\t// in\n    tag_293:\n        /* \"#utility.yul\":3142:3145   */\n      dup3\n        /* \"#utility.yul\":3135:3172   */\n      mstore\n        /* \"#utility.yul\":3060:3178   */\n      pop\n      pop\n      jump\t// out\n        /* \"#utility.yul\":3184:3406   */\n    tag_53:\n        /* \"#utility.yul\":3277:3281   */\n      0x00\n        /* \"#utility.yul\":3315:3317   */\n      0x20\n        /* \"#utility.yul\":3304:3313   */\n      dup3\n        /* \"#utility.yul\":3300:3318   */\n      add\n        /* \"#utility.yul\":3292:3318   */\n      swap1\n      pop\n        /* \"#utility.yul\":3328:3399   */\n      tag_295\n        /* \"#utility.yul\":3396:3397   */\n      0x00\n        /* \"#utility.yul\":3385:3394   */\n      dup4\n        /* \"#utility.yul\":3381:3398   */\n      add\n        /* \"#utility.yul\":3372:3378   */\n      dup5\n        /* \"#utility.yul\":3328:3399   */\n      tag_230\n      jump\t// in\n    tag_295:\n        /* \"#utility.yul\":3184:3406   */\n      swap3\n      swap2\n      pop\n      pop\n      jump\t// out\n        /* \"#utility.yul\":3412:3534   */\n    tag_231:\n        /* \"#utility.yul\":3485:3509   */\n      tag_297\n        /* \"#utility.yul\":3503:3508   */\n      dup2\n        /* \"#utility.yul\":3485:3509   */\n      tag_229\n      jump\t// in\n    tag_297:\n        /* \"#utility.yul\":3478:3483   */\n      dup2\n        /* \"#utility.yul\":3475:3510   */\n      eq\n        /* \"#utility.yul\":3465:3528   */\n      tag_298\n      jumpi\n        /* \"#utility.yul\":3524:3525   */\n      0x00\n        /* \"#utility.yul\":3521:3522   */\n      dup1\n        /* \"#utility.yul\":3514:3526   */\n      revert\n        /* \"#utility.yul\":3465:3528   */\n    tag_298:\n        /* \"#utility.yul\":3412:3534   */\n      pop\n      jump\t// out\n        /* \"#utility.yul\":3540:3679   */\n    tag_232:\n        /* \"#utility.yul\":3586:3591   */\n      0x00\n        /* \"#utility.yul\":3624:3630   */\n      dup2\n        /* \"#utility.yul\":3611:3631   */\n      calldataload\n        /* \"#utility.yul\":3602:3631   */\n      swap1\n      pop\n        /* \"#utility.yul\":3640:3673   */\n      tag_300\n        /* \"#utility.yul\":3667:3672   */\n      dup2\n        /* \"#utility.yul\":3640:3673   */\n      tag_231\n      jump\t// in\n    tag_300:\n        /* \"#utility.yul\":3540:3679   */\n      swap3\n      swap2\n      pop\n      pop\n      jump\t// out\n        /* \"#utility.yul\":3685:4014   */\n    tag_73:\n        /* \"#utility.yul\":3744:3750   */\n      0x00\n        /* \"#utility.yul\":3793:3795   */\n      0x20\n        /* \"#utility.yul\":3781:3790   */\n      dup3\n        /* \"#utility.yul\":3772:3779   */\n      dup5\n        /* \"#utility.yul\":3768:3791   */\n      sub\n        /* \"#utility.yul\":3764:3796   */\n      slt\n        /* \"#utility.yul\":3761:3880   */\n      iszero\n      tag_302\n      jumpi\n        /* \"#utility.yul\":3799:3878   */\n      tag_303\n      tag_222\n      jump\t// in\n    tag_303:\n        /* \"#utility.yul\":3761:3880   */\n    tag_302:\n        /* \"#utility.yul\":3919:3920   */\n      0x00\n        /* \"#utility.yul\":3944:3997   */\n      tag_304\n        /* \"#utility.yul\":3989:3996   */\n      dup5\n        /* \"#utility.yul\":3980:3986   */\n      dup3\n        /* \"#utility.yul\":3969:3978   */\n      dup6\n        /* \"#utility.yul\":3965:3987   */\n      add\n        /* \"#utility.yul\":3944:3997   */\n      tag_232\n      jump\t// in\n    tag_304:\n        /* \"#utility.yul\":3934:3997   */\n      swap2\n      pop\n        /* \"#utility.yul\":3890:4007   */\n      pop\n        /* \"#utility.yul\":3685:4014   */\n      swap3\n      swap2\n      pop\n      pop\n      jump\t// out\n        /* \"#utility.yul\":4020:4110   */\n    tag_233:\n        /* \"#utility.yul\":4054:4061   */\n      0x00\n        /* \"#utility.yul\":4097:4102   */\n      dup2\n        /* \"#utility.yul\":4090:4103   */\n      iszero\n        /* \"#utility.yul\":4083:4104   */\n      iszero\n        /* \"#utility.yul\":4072:4104   */\n      swap1\n      pop\n        /* \"#utility.yul\":4020:4110   */\n      swap2\n      swap1\n      pop\n      jump\t// out\n        /* \"#utility.yul\":4116:4232   */\n    tag_234:\n        /* \"#utility.yul\":4186:4207   */\n      tag_307\n        /* \"#utility.yul\":4201:4206   */\n      dup2\n        /* \"#utility.yul\":4186:4207   */\n      tag_233\n      jump\t// in\n    tag_307:\n        /* \"#utility.yul\":4179:4184   */\n      dup2\n        /* \"#utility.yul\":4176:4208   */\n      eq\n        /* \"#utility.yul\":4166:4226   */\n      tag_308\n      jumpi\n        /* \"#utility.yul\":4222:4223   */\n      0x00\n        /* \"#utility.yul\":4219:4220   */\n      dup1\n        /* \"#utility.yul\":4212:4224   */\n      revert\n        /* \"#utility.yul\":4166:4226   */\n    tag_308:\n        /* \"#utility.yul\":4116:4232   */\n      pop\n      jump\t// out\n        /* \"#utility.yul\":4238:4371   */\n    tag_235:\n        /* \"#utility.yul\":4281:4286   */\n      0x00\n        /* \"#utility.yul\":4319:4325   */\n      dup2\n        /* \"#utility.yul\":4306:4326   */\n      calldataload\n        /* \"#utility.yul\":4297:4326   */\n      swap1\n      pop\n        /* \"#utility.yul\":4335:4365   */\n      tag_310\n        /* \"#utility.yul\":4359:4364   */\n      dup2\n        /* \"#utility.yul\":4335:4365   */\n      tag_234\n      jump\t// in\n    tag_310:\n        /* \"#utility.yul\":4238:4371   */\n      swap3\n      swap2\n      pop\n      pop\n      jump\t// out\n        /* \"#utility.yul\":4377:4845   */\n    tag_81:\n        /* \"#utility.yul\":4442:4448   */\n      0x00\n        /* \"#utility.yul\":4450:4456   */\n      dup1\n        /* \"#utility.yul\":4499:4501   */\n      0x40\n        /* \"#utility.yul\":4487:4496   */\n      dup4\n        /* \"#utility.yul\":4478:4485   */\n      dup6\n        /* \"#utility.yul\":4474:4497   */\n      sub\n        /* \"#utility.yul\":4470:4502   */\n      slt\n        /* \"#utility.yul\":4467:4586   */\n      iszero\n      tag_312\n      jumpi\n        /* \"#utility.yul\":4505:4584   */\n      tag_313\n      tag_222\n      jump\t// in\n    tag_313:\n        /* \"#utility.yul\":4467:4586   */\n    tag_312:\n        /* \"#utility.yul\":4625:4626   */\n      0x00\n        /* \"#utility.yul\":4650:4703   */\n      tag_314\n        /* \"#utility.yul\":4695:4702   */\n      dup6\n        /* \"#utility.yul\":4686:4692   */\n      dup3\n        /* \"#utility.yul\":4675:4684   */\n      dup7\n        /* \"#utility.yul\":4671:4693   */\n      add\n        /* \"#utility.yul\":4650:4703   */\n      tag_232\n      jump\t// in\n    tag_314:\n        /* \"#utility.yul\":4640:4703   */\n      swap3\n      pop\n        /* \"#utility.yul\":4596:4713   */\n      pop\n        /* \"#utility.yul\":4752:4754   */\n      0x20\n        /* \"#utility.yul\":4778:4828   */\n      tag_315\n        /* \"#utility.yul\":4820:4827   */\n      dup6\n        /* \"#utility.yul\":4811:4817   */\n      dup3\n        /* \"#utility.yul\":4800:4809   */\n      dup7\n        /* \"#utility.yul\":4796:4818   */\n      add\n        /* \"#utility.yul\":4778:4828   */\n      tag_235\n      jump\t// in\n    tag_315:\n        /* \"#utility.yul\":4768:4828   */\n      swap2\n      pop\n        /* \"#utility.yul\":4723:4838   */\n      pop\n        /* \"#utility.yul\":4377:4845   */\n      swap3\n      pop\n      swap3\n      swap1\n      pop\n      jump\t// out\n        /* \"#utility.yul\":4851:4955   */\n    tag_236:\n        /* \"#utility.yul\":4916:4922   */\n      0x00\n        /* \"#utility.yul\":4944:4948   */\n      0x05\n        /* \"#utility.yul\":4934:4948   */\n      swap1\n      pop\n        /* \"#utility.yul\":4851:4955   */\n      swap2\n      swap1\n      pop\n      jump\t// out\n        /* \"#utility.yul\":4961:5104   */\n    tag_237:\n        /* \"#utility.yul\":5058:5069   */\n      0x00\n        /* \"#utility.yul\":5095:5098   */\n      dup2\n        /* \"#utility.yul\":5080:5098   */\n      swap1\n      pop\n        /* \"#utility.yul\":4961:5104   */\n      swap3\n      swap2\n      pop\n      pop\n      jump\t// out\n        /* \"#utility.yul\":5110:5208   */\n    tag_238:\n        /* \"#utility.yul\":5175:5179   */\n      0x00\n        /* \"#utility.yul\":5198:5201   */\n      dup2\n        /* \"#utility.yul\":5190:5201   */\n      swap1\n      pop\n        /* \"#utility.yul\":5110:5208   */\n      swap2\n      swap1\n      pop\n      jump\t// out\n        /* \"#utility.yul\":5214:5322   */\n    tag_239:\n        /* \"#utility.yul\":5291:5315   */\n      tag_320\n        /* \"#utility.yul\":5309:5314   */\n      dup2\n        /* \"#utility.yul\":5291:5315   */\n      tag_215\n      jump\t// in\n    tag_320:\n        /* \"#utility.yul\":5286:5289   */\n      dup3\n        /* \"#utility.yul\":5279:5316   */\n      mstore\n        /* \"#utility.yul\":5214:5322   */\n      pop\n      pop\n      jump\t// out\n        /* \"#utility.yul\":5328:5507   */\n    tag_240:\n        /* \"#utility.yul\":5397:5407   */\n      0x00\n        /* \"#utility.yul\":5418:5464   */\n      tag_322\n        /* \"#utility.yul\":5460:5463   */\n      dup4\n        /* \"#utility.yul\":5452:5458   */\n      dup4\n        /* \"#utility.yul\":5418:5464   */\n      tag_239\n      jump\t// in\n    tag_322:\n        /* \"#utility.yul\":5496:5500   */\n      0x20\n        /* \"#utility.yul\":5491:5494   */\n      dup4\n        /* \"#utility.yul\":5487:5501   */\n      add\n        /* \"#utility.yul\":5473:5501   */\n      swap1\n      pop\n        /* \"#utility.yul\":5328:5507   */\n      swap3\n      swap2\n      pop\n      pop\n      jump\t// out\n        /* \"#utility.yul\":5513:5624   */\n    tag_241:\n        /* \"#utility.yul\":5581:5585   */\n      0x00\n        /* \"#utility.yul\":5613:5617   */\n      0x20\n        /* \"#utility.yul\":5608:5611   */\n      dup3\n        /* \"#utility.yul\":5604:5618   */\n      add\n        /* \"#utility.yul\":5596:5618   */\n      swap1\n      pop\n        /* \"#utility.yul\":5513:5624   */\n      swap2\n      swap1\n      pop\n      jump\t// out\n        /* \"#utility.yul\":5662:6356   */\n    tag_242:\n        /* \"#utility.yul\":5798:5850   */\n      tag_325\n        /* \"#utility.yul\":5844:5849   */\n      dup2\n        /* \"#utility.yul\":5798:5850   */\n      tag_236\n      jump\t// in\n    tag_325:\n        /* \"#utility.yul\":5866:5950   */\n      tag_326\n        /* \"#utility.yul\":5943:5949   */\n      dup2\n        /* \"#utility.yul\":5938:5941   */\n      dup5\n        /* \"#utility.yul\":5866:5950   */\n      tag_237\n      jump\t// in\n    tag_326:\n        /* \"#utility.yul\":5859:5950   */\n      swap3\n      pop\n        /* \"#utility.yul\":5974:6028   */\n      tag_327\n        /* \"#utility.yul\":6022:6027   */\n      dup3\n        /* \"#utility.yul\":5974:6028   */\n      tag_238\n      jump\t// in\n    tag_327:\n        /* \"#utility.yul\":6051:6058   */\n      dup1\n        /* \"#utility.yul\":6082:6083   */\n      0x00\n        /* \"#utility.yul\":6067:6349   */\n    tag_328:\n        /* \"#utility.yul\":6092:6098   */\n      dup4\n        /* \"#utility.yul\":6089:6090   */\n      dup2\n        /* \"#utility.yul\":6086:6099   */\n      lt\n        /* \"#utility.yul\":6067:6349   */\n      iszero\n      tag_330\n      jumpi\n        /* \"#utility.yul\":6168:6174   */\n      dup2\n        /* \"#utility.yul\":6162:6175   */\n      mload\n        /* \"#utility.yul\":6195:6258   */\n      tag_331\n        /* \"#utility.yul\":6254:6257   */\n      dup8\n        /* \"#utility.yul\":6239:6252   */\n      dup3\n        /* \"#utility.yul\":6195:6258   */\n      tag_240\n      jump\t// in\n    tag_331:\n        /* \"#utility.yul\":6188:6258   */\n      swap7\n      pop\n        /* \"#utility.yul\":6281:6339   */\n      tag_332\n        /* \"#utility.yul\":6332:6338   */\n      dup4\n        /* \"#utility.yul\":6281:6339   */\n      tag_241\n      jump\t// in\n    tag_332:\n        /* \"#utility.yul\":6271:6339   */\n      swap3\n      pop\n        /* \"#utility.yul\":6127:6349   */\n      pop\n        /* \"#utility.yul\":6114:6115   */\n      0x01\n        /* \"#utility.yul\":6111:6112   */\n      dup2\n        /* \"#utility.yul\":6107:6116   */\n      add\n        /* \"#utility.yul\":6102:6116   */\n      swap1\n      pop\n        /* \"#utility.yul\":6067:6349   */\n      jump(tag_328)\n    tag_330:\n        /* \"#utility.yul\":6071:6085   */\n      pop\n        /* \"#utility.yul\":5774:6356   */\n      pop\n      pop\n      pop\n        /* \"#utility.yul\":5662:6356   */\n      pop\n      pop\n      jump\t// out\n        /* \"#utility.yul\":6362:6677   */\n    tag_86:\n        /* \"#utility.yul\":6501:6505   */\n      0x00\n        /* \"#utility.yul\":6539:6542   */\n      0xa0\n        /* \"#utility.yul\":6528:6537   */\n      dup3\n        /* \"#utility.yul\":6524:6543   */\n      add\n        /* \"#utility.yul\":6516:6543   */\n      swap1\n      pop\n        /* \"#utility.yul\":6553:6670   */\n      tag_334\n        /* \"#utility.yul\":6667:6668   */\n      0x00\n        /* \"#utility.yul\":6656:6665   */\n      dup4\n        /* \"#utility.yul\":6652:6669   */\n      add\n        /* \"#utility.yul\":6643:6649   */\n      dup5\n        /* \"#utility.yul\":6553:6670   */\n      tag_242\n      jump\t// in\n    tag_334:\n        /* \"#utility.yul\":6362:6677   */\n      swap3\n      swap2\n      pop\n      pop\n      jump\t// out\n        /* \"#utility.yul\":6683:6805   */\n    tag_243:\n        /* \"#utility.yul\":6756:6780   */\n      tag_336\n        /* \"#utility.yul\":6774:6779   */\n      dup2\n        /* \"#utility.yul\":6756:6780   */\n      tag_215\n      jump\t// in\n    tag_336:\n        /* \"#utility.yul\":6749:6754   */\n      dup2\n        /* \"#utility.yul\":6746:6781   */\n      eq\n        /* \"#utility.yul\":6736:6799   */\n      tag_337\n      jumpi\n        /* \"#utility.yul\":6795:6796   */\n      0x00\n        /* \"#utility.yul\":6792:6793   */\n      dup1\n        /* \"#utility.yul\":6785:6797   */\n      revert\n        /* \"#utility.yul\":6736:6799   */\n    tag_337:\n        /* \"#utility.yul\":6683:6805   */\n      pop\n      jump\t// out\n        /* \"#utility.yul\":6811:6950   */\n    tag_244:\n        /* \"#utility.yul\":6857:6862   */\n      0x00\n        /* \"#utility.yul\":6895:6901   */\n      dup2\n        /* \"#utility.yul\":6882:6902   */\n      calldataload\n        /* \"#utility.yul\":6873:6902   */\n      swap1\n      pop\n        /* \"#utility.yul\":6911:6944   */\n      tag_339\n        /* \"#utility.yul\":6938:6943   */\n      dup2\n        /* \"#utility.yul\":6911:6944   */\n      tag_243\n      jump\t// in\n    tag_339:\n        /* \"#utility.yul\":6811:6950   */\n      swap3\n      swap2\n      pop\n      pop\n      jump\t// out\n        /* \"#utility.yul\":6956:7285   */\n    tag_89:\n        /* \"#utility.yul\":7015:7021   */\n      0x00\n        /* \"#utility.yul\":7064:7066   */\n      0x20\n        /* \"#utility.yul\":7052:7061   */\n      dup3\n        /* \"#utility.yul\":7043:7050   */\n      dup5\n        /* \"#utility.yul\":7039:7062   */\n      sub\n        /* \"#utility.yul\":7035:7067   */\n      slt\n        /* \"#utility.yul\":7032:7151   */\n      iszero\n      tag_341\n      jumpi\n        /* \"#utility.yul\":7070:7149   */\n      tag_342\n      tag_222\n      jump\t// in\n    tag_342:\n        /* \"#utility.yul\":7032:7151   */\n    tag_341:\n        /* \"#utility.yul\":7190:7191   */\n      0x00\n        /* \"#utility.yul\":7215:7268   */\n      tag_343\n        /* \"#utility.yul\":7260:7267   */\n      dup5\n        /* \"#utility.yul\":7251:7257   */\n      dup3\n        /* \"#utility.yul\":7240:7249   */\n      dup6\n        /* \"#utility.yul\":7236:7258   */\n      add\n        /* \"#utility.yul\":7215:7268   */\n      tag_244\n      jump\t// in\n    tag_343:\n        /* \"#utility.yul\":7205:7268   */\n      swap2\n      pop\n        /* \"#utility.yul\":7161:7278   */\n      pop\n        /* \"#utility.yul\":6956:7285   */\n      swap3\n      swap2\n      pop\n      pop\n      jump\t// out\n        /* \"#utility.yul\":7291:7411   */\n    tag_245:\n        /* \"#utility.yul\":7363:7386   */\n      tag_345\n        /* \"#utility.yul\":7380:7385   */\n      dup2\n        /* \"#utility.yul\":7363:7386   */\n      tag_226\n      jump\t// in\n    tag_345:\n        /* \"#utility.yul\":7356:7361   */\n      dup2\n        /* \"#utility.yul\":7353:7387   */\n      eq\n        /* \"#utility.yul\":7343:7405   */\n      tag_346\n      jumpi\n        /* \"#utility.yul\":7401:7402   */\n      0x00\n        /* \"#utility.yul\":7398:7399   */\n      dup1\n        /* \"#utility.yul\":7391:7403   */\n      revert\n        /* \"#utility.yul\":7343:7405   */\n    tag_346:\n        /* \"#utility.yul\":7291:7411   */\n      pop\n      jump\t// out\n        /* \"#utility.yul\":7417:7554   */\n    tag_246:\n        /* \"#utility.yul\":7462:7467   */\n      0x00\n        /* \"#utility.yul\":7500:7506   */\n      dup2\n        /* \"#utility.yul\":7487:7507   */\n      calldataload\n        /* \"#utility.yul\":7478:7507   */\n      swap1\n      pop\n        /* \"#utility.yul\":7516:7548   */\n      tag_348\n        /* \"#utility.yul\":7542:7547   */\n      dup2\n        /* \"#utility.yul\":7516:7548   */\n      tag_245\n      jump\t// in\n    tag_348:\n        /* \"#utility.yul\":7417:7554   */\n      swap3\n      swap2\n      pop\n      pop\n      jump\t// out\n        /* \"#utility.yul\":7560:7887   */\n    tag_94:\n        /* \"#utility.yul\":7618:7624   */\n      0x00\n        /* \"#utility.yul\":7667:7669   */\n      0x20\n        /* \"#utility.yul\":7655:7664   */\n      dup3\n        /* \"#utility.yul\":7646:7653   */\n      dup5\n        /* \"#utility.yul\":7642:7665   */\n      sub\n        /* \"#utility.yul\":7638:7670   */\n      slt\n        /* \"#utility.yul\":7635:7754   */\n      iszero\n      tag_350\n      jumpi\n        /* \"#utility.yul\":7673:7752   */\n      tag_351\n      tag_222\n      jump\t// in\n    tag_351:\n        /* \"#utility.yul\":7635:7754   */\n    tag_350:\n        /* \"#utility.yul\":7793:7794   */\n      0x00\n        /* \"#utility.yul\":7818:7870   */\n      tag_352\n        /* \"#utility.yul\":7862:7869   */\n      dup5\n        /* \"#utility.yul\":7853:7859   */\n      dup3\n        /* \"#utility.yul\":7842:7851   */\n      dup6\n        /* \"#utility.yul\":7838:7860   */\n      add\n        /* \"#utility.yul\":7818:7870   */\n      tag_246\n      jump\t// in\n    tag_352:\n        /* \"#utility.yul\":7808:7870   */\n      swap2\n      pop\n        /* \"#utility.yul\":7764:7880   */\n      pop\n        /* \"#utility.yul\":7560:7887   */\n      swap3\n      swap2\n      pop\n      pop\n      jump\t// out\n        /* \"#utility.yul\":7893:8036   */\n    tag_247:\n        /* \"#utility.yul\":7950:7955   */\n      0x00\n        /* \"#utility.yul\":7981:7987   */\n      dup2\n        /* \"#utility.yul\":7975:7988   */\n      mload\n        /* \"#utility.yul\":7966:7988   */\n      swap1\n      pop\n        /* \"#utility.yul\":7997:8030   */\n      tag_354\n        /* \"#utility.yul\":8024:8029   */\n      dup2\n        /* \"#utility.yul\":7997:8030   */\n      tag_243\n      jump\t// in\n    tag_354:\n        /* \"#utility.yul\":7893:8036   */\n      swap3\n      swap2\n      pop\n      pop\n      jump\t// out\n        /* \"#utility.yul\":8042:8393   */\n    tag_154:\n        /* \"#utility.yul\":8112:8118   */\n      0x00\n        /* \"#utility.yul\":8161:8163   */\n      0x20\n        /* \"#utility.yul\":8149:8158   */\n      dup3\n        /* \"#utility.yul\":8140:8147   */\n      dup5\n        /* \"#utility.yul\":8136:8159   */\n      sub\n        /* \"#utility.yul\":8132:8164   */\n      slt\n        /* \"#utility.yul\":8129:8248   */\n      iszero\n      tag_356\n      jumpi\n        /* \"#utility.yul\":8167:8246   */\n      tag_357\n      tag_222\n      jump\t// in\n    tag_357:\n        /* \"#utility.yul\":8129:8248   */\n    tag_356:\n        /* \"#utility.yul\":8287:8288   */\n      0x00\n        /* \"#utility.yul\":8312:8376   */\n      tag_358\n        /* \"#utility.yul\":8368:8375   */\n      dup5\n        /* \"#utility.yul\":8359:8365   */\n      dup3\n        /* \"#utility.yul\":8348:8357   */\n      dup6\n        /* \"#utility.yul\":8344:8366   */\n      add\n        /* \"#utility.yul\":8312:8376   */\n      tag_247\n      jump\t// in\n    tag_358:\n        /* \"#utility.yul\":8302:8376   */\n      swap2\n      pop\n        /* \"#utility.yul\":8258:8386   */\n      pop\n        /* \"#utility.yul\":8042:8393   */\n      swap3\n      swap2\n      pop\n      pop\n      jump\t// out\n        /* \"#utility.yul\":8399:8568   */\n    tag_248:\n        /* \"#utility.yul\":8483:8494   */\n      0x00\n        /* \"#utility.yul\":8517:8523   */\n      dup3\n        /* \"#utility.yul\":8512:8515   */\n      dup3\n        /* \"#utility.yul\":8505:8524   */\n      mstore\n        /* \"#utility.yul\":8557:8561   */\n      0x20\n        /* \"#utility.yul\":8552:8555   */\n      dup3\n        /* \"#utility.yul\":8548:8562   */\n      add\n        /* \"#utility.yul\":8533:8562   */\n      swap1\n      pop\n        /* \"#utility.yul\":8399:8568   */\n      swap3\n      swap2\n      pop\n      pop\n      jump\t// out\n        /* \"#utility.yul\":8574:8799   */\n    tag_249:\n        /* \"#utility.yul\":8714:8748   */\n      0x4f776e61626c653a206e6577206f776e657220697320746865207a65726f2061\n        /* \"#utility.yul\":8710:8711   */\n      0x00\n        /* \"#utility.yul\":8702:8708   */\n      dup3\n        /* \"#utility.yul\":8698:8712   */\n      add\n        /* \"#utility.yul\":8691:8749   */\n      mstore\n        /* \"#utility.yul\":8783:8791   */\n      0x6464726573730000000000000000000000000000000000000000000000000000\n        /* \"#utility.yul\":8778:8780   */\n      0x20\n        /* \"#utility.yul\":8770:8776   */\n      dup3\n        /* \"#utility.yul\":8766:8781   */\n      add\n        /* \"#utility.yul\":8759:8792   */\n      mstore\n        /* \"#utility.yul\":8574:8799   */\n      pop\n      jump\t// out\n        /* \"#utility.yul\":8805:9171   */\n    tag_250:\n        /* \"#utility.yul\":8947:8950   */\n      0x00\n        /* \"#utility.yul\":8968:9035   */\n      tag_362\n        /* \"#utility.yul\":9032:9034   */\n      0x26\n        /* \"#utility.yul\":9027:9030   */\n      dup4\n        /* \"#utility.yul\":8968:9035   */\n      tag_248\n      jump\t// in\n    tag_362:\n        /* \"#utility.yul\":8961:9035   */\n      swap2\n      pop\n        /* \"#utility.yul\":9044:9137   */\n      tag_363\n        /* \"#utility.yul\":9133:9136   */\n      dup3\n        /* \"#utility.yul\":9044:9137   */\n      tag_249\n      jump\t// in\n    tag_363:\n        /* \"#utility.yul\":9162:9164   */\n      0x40\n        /* \"#utility.yul\":9157:9160   */\n      dup3\n        /* \"#utility.yul\":9153:9165   */\n      add\n        /* \"#utility.yul\":9146:9165   */\n      swap1\n      pop\n        /* \"#utility.yul\":8805:9171   */\n      swap2\n      swap1\n      pop\n      jump\t// out\n        /* \"#utility.yul\":9177:9596   */\n    tag_184:\n        /* \"#utility.yul\":9343:9347   */\n      0x00\n        /* \"#utility.yul\":9381:9383   */\n      0x20\n        /* \"#utility.yul\":9370:9379   */\n      dup3\n        /* \"#utility.yul\":9366:9384   */\n      add\n        /* \"#utility.yul\":9358:9384   */\n      swap1\n      pop\n        /* \"#utility.yul\":9430:9439   */\n      dup2\n        /* \"#utility.yul\":9424:9428   */\n      dup2\n        /* \"#utility.yul\":9420:9440   */\n      sub\n        /* \"#utility.yul\":9416:9417   */\n      0x00\n        /* \"#utility.yul\":9405:9414   */\n      dup4\n        /* \"#utility.yul\":9401:9418   */\n      add\n        /* \"#utility.yul\":9394:9441   */\n      mstore\n        /* \"#utility.yul\":9458:9589   */\n      tag_365\n        /* \"#utility.yul\":9584:9588   */\n      dup2\n        /* \"#utility.yul\":9458:9589   */\n      tag_250\n      jump\t// in\n    tag_365:\n        /* \"#utility.yul\":9450:9589   */\n      swap1\n      pop\n        /* \"#utility.yul\":9177:9596   */\n      swap2\n      swap1\n      pop\n      jump\t// out\n        /* \"#utility.yul\":9602:9782   */\n    tag_251:\n        /* \"#utility.yul\":9650:9727   */\n      0x4e487b7100000000000000000000000000000000000000000000000000000000\n        /* \"#utility.yul\":9647:9648   */\n      0x00\n        /* \"#utility.yul\":9640:9728   */\n      mstore\n        /* \"#utility.yul\":9747:9751   */\n      0x11\n        /* \"#utility.yul\":9744:9745   */\n      0x04\n        /* \"#utility.yul\":9737:9752   */\n      mstore\n        /* \"#utility.yul\":9771:9775   */\n      0x24\n        /* \"#utility.yul\":9768:9769   */\n      0x00\n        /* \"#utility.yul\":9761:9776   */\n      revert\n        /* \"#utility.yul\":9788:9979   */\n    tag_191:\n        /* \"#utility.yul\":9828:9832   */\n      0x00\n        /* \"#utility.yul\":9848:9868   */\n      tag_368\n        /* \"#utility.yul\":9866:9867   */\n      dup3\n        /* \"#utility.yul\":9848:9868   */\n      tag_215\n      jump\t// in\n    tag_368:\n        /* \"#utility.yul\":9843:9868   */\n      swap2\n      pop\n        /* \"#utility.yul\":9882:9902   */\n      tag_369\n        /* \"#utility.yul\":9900:9901   */\n      dup4\n        /* \"#utility.yul\":9882:9902   */\n      tag_215\n      jump\t// in\n    tag_369:\n        /* \"#utility.yul\":9877:9902   */\n      swap3\n      pop\n        /* \"#utility.yul\":9921:9922   */\n      dup3\n        /* \"#utility.yul\":9918:9919   */\n      dup3\n        /* \"#utility.yul\":9915:9923   */\n      lt\n        /* \"#utility.yul\":9912:9946   */\n      iszero\n      tag_370\n      jumpi\n        /* \"#utility.yul\":9926:9944   */\n      tag_371\n      tag_251\n      jump\t// in\n    tag_371:\n        /* \"#utility.yul\":9912:9946   */\n    tag_370:\n        /* \"#utility.yul\":9971:9972   */\n      dup3\n        /* \"#utility.yul\":9968:9969   */\n      dup3\n        /* \"#utility.yul\":9964:9973   */\n      sub\n        /* \"#utility.yul\":9956:9973   */\n      swap1\n      pop\n        /* \"#utility.yul\":9788:9979   */\n      swap3\n      swap2\n      pop\n      pop\n      jump\t// out\n        /* \"#utility.yul\":9985:10165   */\n    tag_252:\n        /* \"#utility.yul\":10033:10110   */\n      0x4e487b7100000000000000000000000000000000000000000000000000000000\n        /* \"#utility.yul\":10030:10031   */\n      0x00\n        /* \"#utility.yul\":10023:10111   */\n      mstore\n        /* \"#utility.yul\":10130:10134   */\n      0x12\n        /* \"#utility.yul\":10127:10128   */\n      0x04\n        /* \"#utility.yul\":10120:10135   */\n      mstore\n        /* \"#utility.yul\":10154:10158   */\n      0x24\n        /* \"#utility.yul\":10151:10152   */\n      0x00\n        /* \"#utility.yul\":10144:10159   */\n      revert\n        /* \"#utility.yul\":10171:10356   */\n    tag_194:\n        /* \"#utility.yul\":10211:10212   */\n      0x00\n        /* \"#utility.yul\":10228:10248   */\n      tag_374\n        /* \"#utility.yul\":10246:10247   */\n      dup3\n        /* \"#utility.yul\":10228:10248   */\n      tag_215\n      jump\t// in\n    tag_374:\n        /* \"#utility.yul\":10223:10248   */\n      swap2\n      pop\n        /* \"#utility.yul\":10262:10282   */\n      tag_375\n        /* \"#utility.yul\":10280:10281   */\n      dup4\n        /* \"#utility.yul\":10262:10282   */\n      tag_215\n      jump\t// in\n    tag_375:\n        /* \"#utility.yul\":10257:10282   */\n      swap3\n      pop\n        /* \"#utility.yul\":10301:10302   */\n      dup3\n        /* \"#utility.yul\":10291:10326   */\n      tag_376\n      jumpi\n        /* \"#utility.yul\":10306:10324   */\n      tag_377\n      tag_252\n      jump\t// in\n    tag_377:\n        /* \"#utility.yul\":10291:10326   */\n    tag_376:\n        /* \"#utility.yul\":10348:10349   */\n      dup3\n        /* \"#utility.yul\":10345:10346   */\n      dup3\n        /* \"#utility.yul\":10341:10350   */\n      div\n        /* \"#utility.yul\":10336:10350   */\n      swap1\n      pop\n        /* \"#utility.yul\":10171:10356   */\n      swap3\n      swap2\n      pop\n      pop\n      jump\t// out\n        /* \"#utility.yul\":10362:10544   */\n    tag_253:\n        /* \"#utility.yul\":10502:10536   */\n      0x4f776e61626c653a2063616c6c6572206973206e6f7420746865206f776e6572\n        /* \"#utility.yul\":10498:10499   */\n      0x00\n        /* \"#utility.yul\":10490:10496   */\n      dup3\n        /* \"#utility.yul\":10486:10500   */\n      add\n        /* \"#utility.yul\":10479:10537   */\n      mstore\n        /* \"#utility.yul\":10362:10544   */\n      pop\n      jump\t// out\n        /* \"#utility.yul\":10550:10916   */\n    tag_254:\n        /* \"#utility.yul\":10692:10695   */\n      0x00\n        /* \"#utility.yul\":10713:10780   */\n      tag_380\n        /* \"#utility.yul\":10777:10779   */\n      0x20\n        /* \"#utility.yul\":10772:10775   */\n      dup4\n        /* \"#utility.yul\":10713:10780   */\n      tag_248\n      jump\t// in\n    tag_380:\n        /* \"#utility.yul\":10706:10780   */\n      swap2\n      pop\n        /* \"#utility.yul\":10789:10882   */\n      tag_381\n        /* \"#utility.yul\":10878:10881   */\n      dup3\n        /* \"#utility.yul\":10789:10882   */\n      tag_253\n      jump\t// in\n    tag_381:\n        /* \"#utility.yul\":10907:10909   */\n      0x20\n        /* \"#utility.yul\":10902:10905   */\n      dup3\n        /* \"#utility.yul\":10898:10910   */\n      add\n        /* \"#utility.yul\":10891:10910   */\n      swap1\n      pop\n        /* \"#utility.yul\":10550:10916   */\n      swap2\n      swap1\n      pop\n      jump\t// out\n        /* \"#utility.yul\":10922:11341   */\n    tag_201:\n        /* \"#utility.yul\":11088:11092   */\n      0x00\n        /* \"#utility.yul\":11126:11128   */\n      0x20\n        /* \"#utility.yul\":11115:11124   */\n      dup3\n        /* \"#utility.yul\":11111:11129   */\n      add\n        /* \"#utility.yul\":11103:11129   */\n      swap1\n      pop\n        /* \"#utility.yul\":11175:11184   */\n      dup2\n        /* \"#utility.yul\":11169:11173   */\n      dup2\n        /* \"#utility.yul\":11165:11185   */\n      sub\n        /* \"#utility.yul\":11161:11162   */\n      0x00\n        /* \"#utility.yul\":11150:11159   */\n      dup4\n        /* \"#utility.yul\":11146:11163   */\n      add\n        /* \"#utility.yul\":11139:11186   */\n      mstore\n        /* \"#utility.yul\":11203:11334   */\n      tag_383\n        /* \"#utility.yul\":11329:11333   */\n      dup2\n        /* \"#utility.yul\":11203:11334   */\n      tag_254\n      jump\t// in\n    tag_383:\n        /* \"#utility.yul\":11195:11334   */\n      swap1\n      pop\n        /* \"#utility.yul\":10922:11341   */\n      swap2\n      swap1\n      pop\n      jump\t// out\n        /* \"#utility.yul\":11347:11695   */\n    tag_214:\n        /* \"#utility.yul\":11387:11394   */\n      0x00\n        /* \"#utility.yul\":11410:11430   */\n      tag_385\n        /* \"#utility.yul\":11428:11429   */\n      dup3\n        /* \"#utility.yul\":11410:11430   */\n      tag_215\n      jump\t// in\n    tag_385:\n        /* \"#utility.yul\":11405:11430   */\n      swap2\n      pop\n        /* \"#utility.yul\":11444:11464   */\n      tag_386\n        /* \"#utility.yul\":11462:11463   */\n      dup4\n        /* \"#utility.yul\":11444:11464   */\n      tag_215\n      jump\t// in\n    tag_386:\n        /* \"#utility.yul\":11439:11464   */\n      swap3\n      pop\n        /* \"#utility.yul\":11632:11633   */\n      dup2\n        /* \"#utility.yul\":11564:11630   */\n      0xffffffffffffffffffffffffffffffffffffffffffffffffffffffffffffffff\n        /* \"#utility.yul\":11560:11634   */\n      div\n        /* \"#utility.yul\":11557:11558   */\n      dup4\n        /* \"#utility.yul\":11554:11635   */\n      gt\n        /* \"#utility.yul\":11549:11550   */\n      dup3\n        /* \"#utility.yul\":11542:11551   */\n      iszero\n        /* \"#utility.yul\":11535:11552   */\n      iszero\n        /* \"#utility.yul\":11531:11636   */\n      and\n        /* \"#utility.yul\":11528:11659   */\n      iszero\n      tag_387\n      jumpi\n        /* \"#utility.yul\":11639:11657   */\n      tag_388\n      tag_251\n      jump\t// in\n    tag_388:\n        /* \"#utility.yul\":11528:11659   */\n    tag_387:\n        /* \"#utility.yul\":11687:11688   */\n      dup3\n        /* \"#utility.yul\":11684:11685   */\n      dup3\n        /* \"#utility.yul\":11680:11689   */\n      mul\n        /* \"#utility.yul\":11669:11689   */\n      swap1\n      pop\n        /* \"#utility.yul\":11347:11695   */\n      swap3\n      swap2\n      pop\n      pop\n      jump\t// out\n\n    auxdata: 0xa2646970667358221220fc59a868dc75531b9051ad931d0ec0445ccd16e2a8f06987917cfbda2668dedb64736f6c634300080a0033\n}\n",
				"bytecode": {
					"linkReferences": {},
					"object": "60806040523480156200001157600080fd5b5060405162001a1738038062001a17833981810160405281019062000037919062000446565b73f2a3fa0266a0feffa87da45f0d3c45ac66fe05c56200006c620000606200028b60201b60201c565b6200029360201b60201c565b80600160006101000a81548173ffffffffffffffffffffffffffffffffffffffff021916908373ffffffffffffffffffffffffffffffffffffffff16021790555050866003819055508560048190555084600581905550836006819055508260078190555081600a60146101000a81548163ffffffff021916908363ffffffff16021790555081600a60186101000a81548163ffffffff021916908363ffffffff160217905550620001356005546007546003546200035760201b62000a9d179092919060201c565b60088190555060008163ffffffff16148062000157575060018163ffffffff16145b8062000169575060028163ffffffff16145b620001ab576040517f08c379a0000000000000000000000000000000000000000000000000000000008152600401620001a2906200055a565b60405180910390fd5b80600a601c6101000a81548163ffffffff021916908363ffffffff1602179055506000600960006101000a81548173ffffffffffffffffffffffffffffffffffffffff021916908373ffffffffffffffffffffffffffffffffffffffff1602179055506000600a60006101000a81548173ffffffffffffffffffffffffffffffffffffffff021916908373ffffffffffffffffffffffffffffffffffffffff1602179055506001600260146101000a81548160ff021916908360048111156200027957620002786200057c565b5b0217905550505050505050506200067c565b600033905090565b60008060009054906101000a900473ffffffffffffffffffffffffffffffffffffffff169050816000806101000a81548173ffffffffffffffffffffffffffffffffffffffff021916908373ffffffffffffffffffffffffffffffffffffffff1602179055508173ffffffffffffffffffffffffffffffffffffffff168173ffffffffffffffffffffffffffffffffffffffff167f8be0079c531659141344cd1fd0a4f28419497f9722a3daafe3b4186f6b6457e060405160405180910390a35050565b60006200038c6200037784866200039560201b62000acd1790919060201c565b83620003ad60201b62000ae31790919060201c565b90509392505050565b60008183620003a59190620005da565b905092915050565b60008183620003bd919062000644565b905092915050565b600080fd5b6000819050919050565b620003df81620003ca565b8114620003eb57600080fd5b50565b600081519050620003ff81620003d4565b92915050565b600063ffffffff82169050919050565b620004208162000405565b81146200042c57600080fd5b50565b600081519050620004408162000415565b92915050565b600080600080600080600060e0888a031215620004685762000467620003c5565b5b6000620004788a828b01620003ee565b97505060206200048b8a828b01620003ee565b96505060406200049e8a828b01620003ee565b9550506060620004b18a828b01620003ee565b9450506080620004c48a828b01620003ee565b93505060a0620004d78a828b016200042f565b92505060c0620004ea8a828b016200042f565b91505092959891949750929550565b600082825260208201905092915050565b7f4254433a302c204554483a312c204c494e4b3a32000000000000000000000000600082015250565b600062000542601483620004f9565b91506200054f826200050a565b602082019050919050565b60006020820190508181036000830152620005758162000533565b9050919050565b7f4e487b7100000000000000000000000000000000000000000000000000000000600052602160045260246000fd5b7f4e487b7100000000000000000000000000000000000000000000000000000000600052601160045260246000fd5b6000620005e782620003ca565b9150620005f483620003ca565b9250828210156200060a5762000609620005ab565b5b828203905092915050565b7f4e487b7100000000000000000000000000000000000000000000000000000000600052601260045260246000fd5b60006200065182620003ca565b91506200065e83620003ca565b92508262000671576200067062000615565b5b828204905092915050565b61138b806200068c6000396000f3fe608060405234801561001057600080fd5b50600436106101585760003560e01c8063a3f09ad6116100c3578063d2895e931161007c578063d2895e93146103ab578063dbd0e1b6146103db578063e0a73a93146103f9578063e99d286614610417578063f26cc58e14610447578063f2fde38b1461046557610158565b8063a3f09ad6146102c3578063b6fc2d5f146102f3578063bab215f814610311578063bd9a548b1461032d578063bef904e31461034b578063cbed24491461037b57610158565b8063715018a611610115578063715018a614610223578063762db7ee1461022d57806386be75b71461024b5780638a568299146102695780638da5cb5b14610287578063a2e800ad146102a557610158565b806315d655c91461015d578063200d2ed21461017b5780632e49d78b146101995780633fe3347a146101c95780634c1786ea146101e7578063603daf9a14610205575b600080fd5b610165610481565b6040516101729190610d04565b60405180910390f35b610183610487565b6040516101909190610d96565b60405180910390f35b6101b360048036038101906101ae9190610ddb565b61049a565b6040516101c09190610d96565b60405180910390f35b6101d16104e5565b6040516101de9190610e27565b60405180910390f35b6101ef6104fb565b6040516101fc9190610d04565b60405180910390f35b61020d610501565b60405161021a9190610e83565b60405180910390f35b61022b61052b565b005b61023561053f565b6040516102429190610d04565b60405180910390f35b610253610545565b6040516102609190610d04565b60405180910390f35b61027161054b565b60405161027e9190610e27565b60405180910390f35b61028f610561565b60405161029c9190610e83565b60405180910390f35b6102ad61058a565b6040516102ba9190610e27565b60405180910390f35b6102dd60048036038101906102d89190610eca565b6105a0565b6040516102ea9190610e83565b60405180910390f35b6102fb610615565b6040516103089190610d04565b60405180910390f35b61032b60048036038101906103269190610f2f565b61061b565b005b610335610645565b604051610342919061101a565b60405180910390f35b61036560048036038101906103609190611061565b610683565b6040516103729190610d04565b60405180910390f35b610395600480360381019061039091906110ba565b610696565b6040516103a29190610d04565b60405180910390f35b6103c560048036038101906103c091906110ba565b6108d7565b6040516103d29190610e27565b60405180910390f35b6103e361091c565b6040516103f09190610e83565b60405180910390f35b610401610946565b60405161040e9190610d04565b60405180910390f35b610431600480360381019061042c9190610eca565b61094c565b60405161043e9190610e83565b60405180910390f35b61044f6109c1565b60405161045c9190610d04565b60405180910390f35b61047f600480360381019061047a9190610eca565b610a19565b005b60045481565b600260149054906101000a900460ff1681565b60006104a4610af9565b81600260146101000a81548160ff021916908360048111156104c9576104c8610d1f565b5b0217905550600260149054906101000a900460ff169050919050565b600a601c9054906101000a900463ffffffff1681565b60075481565b6000600960009054906101000a900473ffffffffffffffffffffffffffffffffffffffff16905090565b610533610af9565b61053d6000610b77565b565b60085481565b60035481565b600a60189054906101000a900463ffffffff1681565b60008060009054906101000a900473ffffffffffffffffffffffffffffffffffffffff16905090565b600a60149054906101000a900463ffffffff1681565b60006105aa610af9565b81600960006101000a81548173ffffffffffffffffffffffffffffffffffffffff021916908373ffffffffffffffffffffffffffffffffffffffff160217905550600960009054906101000a900473ffffffffffffffffffffffffffffffffffffffff169050919050565b60055481565b610623610af9565b80610636576106318261094c565b610640565b61063f826105a0565b5b505050565b61064d610cc9565b6040518060a001604052806003548152602001600454815260200160055481526020016006548152602001600754815250905090565b6000816003819055506003549050919050565b60008060008363ffffffff1614156107565761074f6305f5e100600160009054906101000a900473ffffffffffffffffffffffffffffffffffffffff1673ffffffffffffffffffffffffffffffffffffffff1663a8ad52d16040518163ffffffff1660e01b8152600401602060405180830381865afa15801561071d573d6000803e3d6000fd5b505050506040513d601f19601f8201168201806040525081019061074191906110fc565b610ae390919063ffffffff16565b90506108ce565b60018363ffffffff1614156108135761080c6305f5e100600160009054906101000a900473ffffffffffffffffffffffffffffffffffffffff1673ffffffffffffffffffffffffffffffffffffffff1663ff186b2e6040518163ffffffff1660e01b8152600401602060405180830381865afa1580156107da573d6000803e3d6000fd5b505050506040513d601f19601f820116820180604052508101906107fe91906110fc565b610ae390919063ffffffff16565b90506108cd565b60028363ffffffff1614156108cc576108c96305f5e100600160009054906101000a900473ffffffffffffffffffffffffffffffffffffffff1673ffffffffffffffffffffffffffffffffffffffff16630cf785356040518163ffffffff1660e01b8152600401602060405180830381865afa158015610897573d6000803e3d6000fd5b505050506040513d601f19601f820116820180604052508101906108bb91906110fc565b610ae390919063ffffffff16565b90505b5b5b80915050919050565b60006108e1610af9565b81600a60146101000a81548163ffffffff021916908363ffffffff160217905550600a60149054906101000a900463ffffffff169050919050565b6000600a60009054906101000a900473ffffffffffffffffffffffffffffffffffffffff16905090565b60065481565b6000610956610af9565b81600a60006101000a81548173ffffffffffffffffffffffffffffffffffffffff021916908373ffffffffffffffffffffffffffffffffffffffff160217905550600a60009054906101000a900473ffffffffffffffffffffffffffffffffffffffff169050919050565b6000806109df600a601c9054906101000a900463ffffffff16610696565b90508060045410156109f5576000915050610a16565b610a1260055460035483600754610c3b909392919063ffffffff16565b9150505b90565b610a21610af9565b600073ffffffffffffffffffffffffffffffffffffffff168173ffffffffffffffffffffffffffffffffffffffff161415610a91576040517f08c379a0000000000000000000000000000000000000000000000000000000008152600401610a88906111ac565b60405180910390fd5b610a9a81610b77565b50565b6000610ac4610ab58486610acd90919063ffffffff16565b83610ae390919063ffffffff16565b90509392505050565b60008183610adb91906111fb565b905092915050565b60008183610af1919061125e565b905092915050565b610b01610cab565b73ffffffffffffffffffffffffffffffffffffffff16610b1f610561565b73ffffffffffffffffffffffffffffffffffffffff1614610b75576040517f08c379a0000000000000000000000000000000000000000000000000000000008152600401610b6c906112db565b60405180910390fd5b565b60008060009054906101000a900473ffffffffffffffffffffffffffffffffffffffff169050816000806101000a81548173ffffffffffffffffffffffffffffffffffffffff021916908373ffffffffffffffffffffffffffffffffffffffff1602179055508173ffffffffffffffffffffffffffffffffffffffff168173ffffffffffffffffffffffffffffffffffffffff167f8be0079c531659141344cd1fd0a4f28419497f9722a3daafe3b4186f6b6457e060405160405180910390a35050565b600080828510610c4d57859050610c9f565b6000610c74610c658787610acd90919063ffffffff16565b88610ae390919063ffffffff16565b9050610c9b610c8c8587610acd90919063ffffffff16565b82610cb390919063ffffffff16565b9150505b80915050949350505050565b600033905090565b60008183610cc191906112fb565b905092915050565b6040518060a00160405280600590602082028036833780820191505090505090565b6000819050919050565b610cfe81610ceb565b82525050565b6000602082019050610d196000830184610cf5565b92915050565b7f4e487b7100000000000000000000000000000000000000000000000000000000600052602160045260246000fd5b60058110610d5f57610d5e610d1f565b5b50565b6000819050610d7082610d4e565b919050565b6000610d8082610d62565b9050919050565b610d9081610d75565b82525050565b6000602082019050610dab6000830184610d87565b92915050565b600080fd5b60058110610dc357600080fd5b50565b600081359050610dd581610db6565b92915050565b600060208284031215610df157610df0610db1565b5b6000610dff84828501610dc6565b91505092915050565b600063ffffffff82169050919050565b610e2181610e08565b82525050565b6000602082019050610e3c6000830184610e18565b92915050565b600073ffffffffffffffffffffffffffffffffffffffff82169050919050565b6000610e6d82610e42565b9050919050565b610e7d81610e62565b82525050565b6000602082019050610e986000830184610e74565b92915050565b610ea781610e62565b8114610eb257600080fd5b50565b600081359050610ec481610e9e565b92915050565b600060208284031215610ee057610edf610db1565b5b6000610eee84828501610eb5565b91505092915050565b60008115159050919050565b610f0c81610ef7565b8114610f1757600080fd5b50565b600081359050610f2981610f03565b92915050565b60008060408385031215610f4657610f45610db1565b5b6000610f5485828601610eb5565b9250506020610f6585828601610f1a565b9150509250929050565b600060059050919050565b600081905092915050565b6000819050919050565b610f9881610ceb565b82525050565b6000610faa8383610f8f565b60208301905092915050565b6000602082019050919050565b610fcc81610f6f565b610fd68184610f7a565b9250610fe182610f85565b8060005b83811015611012578151610ff98782610f9e565b965061100483610fb6565b925050600181019050610fe5565b505050505050565b600060a08201905061102f6000830184610fc3565b92915050565b61103e81610ceb565b811461104957600080fd5b50565b60008135905061105b81611035565b92915050565b60006020828403121561107757611076610db1565b5b60006110858482850161104c565b91505092915050565b61109781610e08565b81146110a257600080fd5b50565b6000813590506110b48161108e565b92915050565b6000602082840312156110d0576110cf610db1565b5b60006110de848285016110a5565b91505092915050565b6000815190506110f681611035565b92915050565b60006020828403121561111257611111610db1565b5b6000611120848285016110e7565b91505092915050565b600082825260208201905092915050565b7f4f776e61626c653a206e6577206f776e657220697320746865207a65726f206160008201527f6464726573730000000000000000000000000000000000000000000000000000602082015250565b6000611196602683611129565b91506111a18261113a565b604082019050919050565b600060208201905081810360008301526111c581611189565b9050919050565b7f4e487b7100000000000000000000000000000000000000000000000000000000600052601160045260246000fd5b600061120682610ceb565b915061121183610ceb565b925082821015611224576112236111cc565b5b828203905092915050565b7f4e487b7100000000000000000000000000000000000000000000000000000000600052601260045260246000fd5b600061126982610ceb565b915061127483610ceb565b9250826112845761128361122f565b5b828204905092915050565b7f4f776e61626c653a2063616c6c6572206973206e6f7420746865206f776e6572600082015250565b60006112c5602083611129565b91506112d08261128f565b602082019050919050565b600060208201905081810360008301526112f4816112b8565b9050919050565b600061130682610ceb565b915061131183610ceb565b9250817fffffffffffffffffffffffffffffffffffffffffffffffffffffffffffffffff048311821515161561134a576113496111cc565b5b82820290509291505056fea2646970667358221220fc59a868dc75531b9051ad931d0ec0445ccd16e2a8f06987917cfbda2668dedb64736f6c634300080a0033",
					"opcodes": "PUSH1 0x80 PUSH1 0x40 MSTORE CALLVALUE DUP1 ISZERO PUSH3 0x11 JUMPI PUSH1 0x0 DUP1 REVERT JUMPDEST POP PUSH1 0x40 MLOAD PUSH3 0x1A17 CODESIZE SUB DUP1 PUSH3 0x1A17 DUP4 CODECOPY DUP2 DUP2 ADD PUSH1 0x40 MSTORE DUP2 ADD SWAP1 PUSH3 0x37 SWAP2 SWAP1 PUSH3 0x446 JUMP JUMPDEST PUSH20 0xF2A3FA0266A0FEFFA87DA45F0D3C45AC66FE05C5 PUSH3 0x6C PUSH3 0x60 PUSH3 0x28B PUSH1 0x20 SHL PUSH1 0x20 SHR JUMP JUMPDEST PUSH3 0x293 PUSH1 0x20 SHL PUSH1 0x20 SHR JUMP JUMPDEST DUP1 PUSH1 0x1 PUSH1 0x0 PUSH2 0x100 EXP DUP2 SLOAD DUP2 PUSH20 0xFFFFFFFFFFFFFFFFFFFFFFFFFFFFFFFFFFFFFFFF MUL NOT AND SWAP1 DUP4 PUSH20 0xFFFFFFFFFFFFFFFFFFFFFFFFFFFFFFFFFFFFFFFF AND MUL OR SWAP1 SSTORE POP POP DUP7 PUSH1 0x3 DUP2 SWAP1 SSTORE POP DUP6 PUSH1 0x4 DUP2 SWAP1 SSTORE POP DUP5 PUSH1 0x5 DUP2 SWAP1 SSTORE POP DUP4 PUSH1 0x6 DUP2 SWAP1 SSTORE POP DUP3 PUSH1 0x7 DUP2 SWAP1 SSTORE POP DUP2 PUSH1 0xA PUSH1 0x14 PUSH2 0x100 EXP DUP2 SLOAD DUP2 PUSH4 0xFFFFFFFF MUL NOT AND SWAP1 DUP4 PUSH4 0xFFFFFFFF AND MUL OR SWAP1 SSTORE POP DUP2 PUSH1 0xA PUSH1 0x18 PUSH2 0x100 EXP DUP2 SLOAD DUP2 PUSH4 0xFFFFFFFF MUL NOT AND SWAP1 DUP4 PUSH4 0xFFFFFFFF AND MUL OR SWAP1 SSTORE POP PUSH3 0x135 PUSH1 0x5 SLOAD PUSH1 0x7 SLOAD PUSH1 0x3 SLOAD PUSH3 0x357 PUSH1 0x20 SHL PUSH3 0xA9D OR SWAP1 SWAP3 SWAP2 SWAP1 PUSH1 0x20 SHR JUMP JUMPDEST PUSH1 0x8 DUP2 SWAP1 SSTORE POP PUSH1 0x0 DUP2 PUSH4 0xFFFFFFFF AND EQ DUP1 PUSH3 0x157 JUMPI POP PUSH1 0x1 DUP2 PUSH4 0xFFFFFFFF AND EQ JUMPDEST DUP1 PUSH3 0x169 JUMPI POP PUSH1 0x2 DUP2 PUSH4 0xFFFFFFFF AND EQ JUMPDEST PUSH3 0x1AB JUMPI PUSH1 0x40 MLOAD PUSH32 0x8C379A000000000000000000000000000000000000000000000000000000000 DUP2 MSTORE PUSH1 0x4 ADD PUSH3 0x1A2 SWAP1 PUSH3 0x55A JUMP JUMPDEST PUSH1 0x40 MLOAD DUP1 SWAP2 SUB SWAP1 REVERT JUMPDEST DUP1 PUSH1 0xA PUSH1 0x1C PUSH2 0x100 EXP DUP2 SLOAD DUP2 PUSH4 0xFFFFFFFF MUL NOT AND SWAP1 DUP4 PUSH4 0xFFFFFFFF AND MUL OR SWAP1 SSTORE POP PUSH1 0x0 PUSH1 0x9 PUSH1 0x0 PUSH2 0x100 EXP DUP2 SLOAD DUP2 PUSH20 0xFFFFFFFFFFFFFFFFFFFFFFFFFFFFFFFFFFFFFFFF MUL NOT AND SWAP1 DUP4 PUSH20 0xFFFFFFFFFFFFFFFFFFFFFFFFFFFFFFFFFFFFFFFF AND MUL OR SWAP1 SSTORE POP PUSH1 0x0 PUSH1 0xA PUSH1 0x0 PUSH2 0x100 EXP DUP2 SLOAD DUP2 PUSH20 0xFFFFFFFFFFFFFFFFFFFFFFFFFFFFFFFFFFFFFFFF MUL NOT AND SWAP1 DUP4 PUSH20 0xFFFFFFFFFFFFFFFFFFFFFFFFFFFFFFFFFFFFFFFF AND MUL OR SWAP1 SSTORE POP PUSH1 0x1 PUSH1 0x2 PUSH1 0x14 PUSH2 0x100 EXP DUP2 SLOAD DUP2 PUSH1 0xFF MUL NOT AND SWAP1 DUP4 PUSH1 0x4 DUP2 GT ISZERO PUSH3 0x279 JUMPI PUSH3 0x278 PUSH3 0x57C JUMP JUMPDEST JUMPDEST MUL OR SWAP1 SSTORE POP POP POP POP POP POP POP POP PUSH3 0x67C JUMP JUMPDEST PUSH1 0x0 CALLER SWAP1 POP SWAP1 JUMP JUMPDEST PUSH1 0x0 DUP1 PUSH1 0x0 SWAP1 SLOAD SWAP1 PUSH2 0x100 EXP SWAP1 DIV PUSH20 0xFFFFFFFFFFFFFFFFFFFFFFFFFFFFFFFFFFFFFFFF AND SWAP1 POP DUP2 PUSH1 0x0 DUP1 PUSH2 0x100 EXP DUP2 SLOAD DUP2 PUSH20 0xFFFFFFFFFFFFFFFFFFFFFFFFFFFFFFFFFFFFFFFF MUL NOT AND SWAP1 DUP4 PUSH20 0xFFFFFFFFFFFFFFFFFFFFFFFFFFFFFFFFFFFFFFFF AND MUL OR SWAP1 SSTORE POP DUP2 PUSH20 0xFFFFFFFFFFFFFFFFFFFFFFFFFFFFFFFFFFFFFFFF AND DUP2 PUSH20 0xFFFFFFFFFFFFFFFFFFFFFFFFFFFFFFFFFFFFFFFF AND PUSH32 0x8BE0079C531659141344CD1FD0A4F28419497F9722A3DAAFE3B4186F6B6457E0 PUSH1 0x40 MLOAD PUSH1 0x40 MLOAD DUP1 SWAP2 SUB SWAP1 LOG3 POP POP JUMP JUMPDEST PUSH1 0x0 PUSH3 0x38C PUSH3 0x377 DUP5 DUP7 PUSH3 0x395 PUSH1 0x20 SHL PUSH3 0xACD OR SWAP1 SWAP2 SWAP1 PUSH1 0x20 SHR JUMP JUMPDEST DUP4 PUSH3 0x3AD PUSH1 0x20 SHL PUSH3 0xAE3 OR SWAP1 SWAP2 SWAP1 PUSH1 0x20 SHR JUMP JUMPDEST SWAP1 POP SWAP4 SWAP3 POP POP POP JUMP JUMPDEST PUSH1 0x0 DUP2 DUP4 PUSH3 0x3A5 SWAP2 SWAP1 PUSH3 0x5DA JUMP JUMPDEST SWAP1 POP SWAP3 SWAP2 POP POP JUMP JUMPDEST PUSH1 0x0 DUP2 DUP4 PUSH3 0x3BD SWAP2 SWAP1 PUSH3 0x644 JUMP JUMPDEST SWAP1 POP SWAP3 SWAP2 POP POP JUMP JUMPDEST PUSH1 0x0 DUP1 REVERT JUMPDEST PUSH1 0x0 DUP2 SWAP1 POP SWAP2 SWAP1 POP JUMP JUMPDEST PUSH3 0x3DF DUP2 PUSH3 0x3CA JUMP JUMPDEST DUP2 EQ PUSH3 0x3EB JUMPI PUSH1 0x0 DUP1 REVERT JUMPDEST POP JUMP JUMPDEST PUSH1 0x0 DUP2 MLOAD SWAP1 POP PUSH3 0x3FF DUP2 PUSH3 0x3D4 JUMP JUMPDEST SWAP3 SWAP2 POP POP JUMP JUMPDEST PUSH1 0x0 PUSH4 0xFFFFFFFF DUP3 AND SWAP1 POP SWAP2 SWAP1 POP JUMP JUMPDEST PUSH3 0x420 DUP2 PUSH3 0x405 JUMP JUMPDEST DUP2 EQ PUSH3 0x42C JUMPI PUSH1 0x0 DUP1 REVERT JUMPDEST POP JUMP JUMPDEST PUSH1 0x0 DUP2 MLOAD SWAP1 POP PUSH3 0x440 DUP2 PUSH3 0x415 JUMP JUMPDEST SWAP3 SWAP2 POP POP JUMP JUMPDEST PUSH1 0x0 DUP1 PUSH1 0x0 DUP1 PUSH1 0x0 DUP1 PUSH1 0x0 PUSH1 0xE0 DUP9 DUP11 SUB SLT ISZERO PUSH3 0x468 JUMPI PUSH3 0x467 PUSH3 0x3C5 JUMP JUMPDEST JUMPDEST PUSH1 0x0 PUSH3 0x478 DUP11 DUP3 DUP12 ADD PUSH3 0x3EE JUMP JUMPDEST SWAP8 POP POP PUSH1 0x20 PUSH3 0x48B DUP11 DUP3 DUP12 ADD PUSH3 0x3EE JUMP JUMPDEST SWAP7 POP POP PUSH1 0x40 PUSH3 0x49E DUP11 DUP3 DUP12 ADD PUSH3 0x3EE JUMP JUMPDEST SWAP6 POP POP PUSH1 0x60 PUSH3 0x4B1 DUP11 DUP3 DUP12 ADD PUSH3 0x3EE JUMP JUMPDEST SWAP5 POP POP PUSH1 0x80 PUSH3 0x4C4 DUP11 DUP3 DUP12 ADD PUSH3 0x3EE JUMP JUMPDEST SWAP4 POP POP PUSH1 0xA0 PUSH3 0x4D7 DUP11 DUP3 DUP12 ADD PUSH3 0x42F JUMP JUMPDEST SWAP3 POP POP PUSH1 0xC0 PUSH3 0x4EA DUP11 DUP3 DUP12 ADD PUSH3 0x42F JUMP JUMPDEST SWAP2 POP POP SWAP3 SWAP6 SWAP9 SWAP2 SWAP5 SWAP8 POP SWAP3 SWAP6 POP JUMP JUMPDEST PUSH1 0x0 DUP3 DUP3 MSTORE PUSH1 0x20 DUP3 ADD SWAP1 POP SWAP3 SWAP2 POP POP JUMP JUMPDEST PUSH32 0x4254433A302C204554483A312C204C494E4B3A32000000000000000000000000 PUSH1 0x0 DUP3 ADD MSTORE POP JUMP JUMPDEST PUSH1 0x0 PUSH3 0x542 PUSH1 0x14 DUP4 PUSH3 0x4F9 JUMP JUMPDEST SWAP2 POP PUSH3 0x54F DUP3 PUSH3 0x50A JUMP JUMPDEST PUSH1 0x20 DUP3 ADD SWAP1 POP SWAP2 SWAP1 POP JUMP JUMPDEST PUSH1 0x0 PUSH1 0x20 DUP3 ADD SWAP1 POP DUP2 DUP2 SUB PUSH1 0x0 DUP4 ADD MSTORE PUSH3 0x575 DUP2 PUSH3 0x533 JUMP JUMPDEST SWAP1 POP SWAP2 SWAP1 POP JUMP JUMPDEST PUSH32 0x4E487B7100000000000000000000000000000000000000000000000000000000 PUSH1 0x0 MSTORE PUSH1 0x21 PUSH1 0x4 MSTORE PUSH1 0x24 PUSH1 0x0 REVERT JUMPDEST PUSH32 0x4E487B7100000000000000000000000000000000000000000000000000000000 PUSH1 0x0 MSTORE PUSH1 0x11 PUSH1 0x4 MSTORE PUSH1 0x24 PUSH1 0x0 REVERT JUMPDEST PUSH1 0x0 PUSH3 0x5E7 DUP3 PUSH3 0x3CA JUMP JUMPDEST SWAP2 POP PUSH3 0x5F4 DUP4 PUSH3 0x3CA JUMP JUMPDEST SWAP3 POP DUP3 DUP3 LT ISZERO PUSH3 0x60A JUMPI PUSH3 0x609 PUSH3 0x5AB JUMP JUMPDEST JUMPDEST DUP3 DUP3 SUB SWAP1 POP SWAP3 SWAP2 POP POP JUMP JUMPDEST PUSH32 0x4E487B7100000000000000000000000000000000000000000000000000000000 PUSH1 0x0 MSTORE PUSH1 0x12 PUSH1 0x4 MSTORE PUSH1 0x24 PUSH1 0x0 REVERT JUMPDEST PUSH1 0x0 PUSH3 0x651 DUP3 PUSH3 0x3CA JUMP JUMPDEST SWAP2 POP PUSH3 0x65E DUP4 PUSH3 0x3CA JUMP JUMPDEST SWAP3 POP DUP3 PUSH3 0x671 JUMPI PUSH3 0x670 PUSH3 0x615 JUMP JUMPDEST JUMPDEST DUP3 DUP3 DIV SWAP1 POP SWAP3 SWAP2 POP POP JUMP JUMPDEST PUSH2 0x138B DUP1 PUSH3 0x68C PUSH1 0x0 CODECOPY PUSH1 0x0 RETURN INVALID PUSH1 0x80 PUSH1 0x40 MSTORE CALLVALUE DUP1 ISZERO PUSH2 0x10 JUMPI PUSH1 0x0 DUP1 REVERT JUMPDEST POP PUSH1 0x4 CALLDATASIZE LT PUSH2 0x158 JUMPI PUSH1 0x0 CALLDATALOAD PUSH1 0xE0 SHR DUP1 PUSH4 0xA3F09AD6 GT PUSH2 0xC3 JUMPI DUP1 PUSH4 0xD2895E93 GT PUSH2 0x7C JUMPI DUP1 PUSH4 0xD2895E93 EQ PUSH2 0x3AB JUMPI DUP1 PUSH4 0xDBD0E1B6 EQ PUSH2 0x3DB JUMPI DUP1 PUSH4 0xE0A73A93 EQ PUSH2 0x3F9 JUMPI DUP1 PUSH4 0xE99D2866 EQ PUSH2 0x417 JUMPI DUP1 PUSH4 0xF26CC58E EQ PUSH2 0x447 JUMPI DUP1 PUSH4 0xF2FDE38B EQ PUSH2 0x465 JUMPI PUSH2 0x158 JUMP JUMPDEST DUP1 PUSH4 0xA3F09AD6 EQ PUSH2 0x2C3 JUMPI DUP1 PUSH4 0xB6FC2D5F EQ PUSH2 0x2F3 JUMPI DUP1 PUSH4 0xBAB215F8 EQ PUSH2 0x311 JUMPI DUP1 PUSH4 0xBD9A548B EQ PUSH2 0x32D JUMPI DUP1 PUSH4 0xBEF904E3 EQ PUSH2 0x34B JUMPI DUP1 PUSH4 0xCBED2449 EQ PUSH2 0x37B JUMPI PUSH2 0x158 JUMP JUMPDEST DUP1 PUSH4 0x715018A6 GT PUSH2 0x115 JUMPI DUP1 PUSH4 0x715018A6 EQ PUSH2 0x223 JUMPI DUP1 PUSH4 0x762DB7EE EQ PUSH2 0x22D JUMPI DUP1 PUSH4 0x86BE75B7 EQ PUSH2 0x24B JUMPI DUP1 PUSH4 0x8A568299 EQ PUSH2 0x269 JUMPI DUP1 PUSH4 0x8DA5CB5B EQ PUSH2 0x287 JUMPI DUP1 PUSH4 0xA2E800AD EQ PUSH2 0x2A5 JUMPI PUSH2 0x158 JUMP JUMPDEST DUP1 PUSH4 0x15D655C9 EQ PUSH2 0x15D JUMPI DUP1 PUSH4 0x200D2ED2 EQ PUSH2 0x17B JUMPI DUP1 PUSH4 0x2E49D78B EQ PUSH2 0x199 JUMPI DUP1 PUSH4 0x3FE3347A EQ PUSH2 0x1C9 JUMPI DUP1 PUSH4 0x4C1786EA EQ PUSH2 0x1E7 JUMPI DUP1 PUSH4 0x603DAF9A EQ PUSH2 0x205 JUMPI JUMPDEST PUSH1 0x0 DUP1 REVERT JUMPDEST PUSH2 0x165 PUSH2 0x481 JUMP JUMPDEST PUSH1 0x40 MLOAD PUSH2 0x172 SWAP2 SWAP1 PUSH2 0xD04 JUMP JUMPDEST PUSH1 0x40 MLOAD DUP1 SWAP2 SUB SWAP1 RETURN JUMPDEST PUSH2 0x183 PUSH2 0x487 JUMP JUMPDEST PUSH1 0x40 MLOAD PUSH2 0x190 SWAP2 SWAP1 PUSH2 0xD96 JUMP JUMPDEST PUSH1 0x40 MLOAD DUP1 SWAP2 SUB SWAP1 RETURN JUMPDEST PUSH2 0x1B3 PUSH1 0x4 DUP1 CALLDATASIZE SUB DUP2 ADD SWAP1 PUSH2 0x1AE SWAP2 SWAP1 PUSH2 0xDDB JUMP JUMPDEST PUSH2 0x49A JUMP JUMPDEST PUSH1 0x40 MLOAD PUSH2 0x1C0 SWAP2 SWAP1 PUSH2 0xD96 JUMP JUMPDEST PUSH1 0x40 MLOAD DUP1 SWAP2 SUB SWAP1 RETURN JUMPDEST PUSH2 0x1D1 PUSH2 0x4E5 JUMP JUMPDEST PUSH1 0x40 MLOAD PUSH2 0x1DE SWAP2 SWAP1 PUSH2 0xE27 JUMP JUMPDEST PUSH1 0x40 MLOAD DUP1 SWAP2 SUB SWAP1 RETURN JUMPDEST PUSH2 0x1EF PUSH2 0x4FB JUMP JUMPDEST PUSH1 0x40 MLOAD PUSH2 0x1FC SWAP2 SWAP1 PUSH2 0xD04 JUMP JUMPDEST PUSH1 0x40 MLOAD DUP1 SWAP2 SUB SWAP1 RETURN JUMPDEST PUSH2 0x20D PUSH2 0x501 JUMP JUMPDEST PUSH1 0x40 MLOAD PUSH2 0x21A SWAP2 SWAP1 PUSH2 0xE83 JUMP JUMPDEST PUSH1 0x40 MLOAD DUP1 SWAP2 SUB SWAP1 RETURN JUMPDEST PUSH2 0x22B PUSH2 0x52B JUMP JUMPDEST STOP JUMPDEST PUSH2 0x235 PUSH2 0x53F JUMP JUMPDEST PUSH1 0x40 MLOAD PUSH2 0x242 SWAP2 SWAP1 PUSH2 0xD04 JUMP JUMPDEST PUSH1 0x40 MLOAD DUP1 SWAP2 SUB SWAP1 RETURN JUMPDEST PUSH2 0x253 PUSH2 0x545 JUMP JUMPDEST PUSH1 0x40 MLOAD PUSH2 0x260 SWAP2 SWAP1 PUSH2 0xD04 JUMP JUMPDEST PUSH1 0x40 MLOAD DUP1 SWAP2 SUB SWAP1 RETURN JUMPDEST PUSH2 0x271 PUSH2 0x54B JUMP JUMPDEST PUSH1 0x40 MLOAD PUSH2 0x27E SWAP2 SWAP1 PUSH2 0xE27 JUMP JUMPDEST PUSH1 0x40 MLOAD DUP1 SWAP2 SUB SWAP1 RETURN JUMPDEST PUSH2 0x28F PUSH2 0x561 JUMP JUMPDEST PUSH1 0x40 MLOAD PUSH2 0x29C SWAP2 SWAP1 PUSH2 0xE83 JUMP JUMPDEST PUSH1 0x40 MLOAD DUP1 SWAP2 SUB SWAP1 RETURN JUMPDEST PUSH2 0x2AD PUSH2 0x58A JUMP JUMPDEST PUSH1 0x40 MLOAD PUSH2 0x2BA SWAP2 SWAP1 PUSH2 0xE27 JUMP JUMPDEST PUSH1 0x40 MLOAD DUP1 SWAP2 SUB SWAP1 RETURN JUMPDEST PUSH2 0x2DD PUSH1 0x4 DUP1 CALLDATASIZE SUB DUP2 ADD SWAP1 PUSH2 0x2D8 SWAP2 SWAP1 PUSH2 0xECA JUMP JUMPDEST PUSH2 0x5A0 JUMP JUMPDEST PUSH1 0x40 MLOAD PUSH2 0x2EA SWAP2 SWAP1 PUSH2 0xE83 JUMP JUMPDEST PUSH1 0x40 MLOAD DUP1 SWAP2 SUB SWAP1 RETURN JUMPDEST PUSH2 0x2FB PUSH2 0x615 JUMP JUMPDEST PUSH1 0x40 MLOAD PUSH2 0x308 SWAP2 SWAP1 PUSH2 0xD04 JUMP JUMPDEST PUSH1 0x40 MLOAD DUP1 SWAP2 SUB SWAP1 RETURN JUMPDEST PUSH2 0x32B PUSH1 0x4 DUP1 CALLDATASIZE SUB DUP2 ADD SWAP1 PUSH2 0x326 SWAP2 SWAP1 PUSH2 0xF2F JUMP JUMPDEST PUSH2 0x61B JUMP JUMPDEST STOP JUMPDEST PUSH2 0x335 PUSH2 0x645 JUMP JUMPDEST PUSH1 0x40 MLOAD PUSH2 0x342 SWAP2 SWAP1 PUSH2 0x101A JUMP JUMPDEST PUSH1 0x40 MLOAD DUP1 SWAP2 SUB SWAP1 RETURN JUMPDEST PUSH2 0x365 PUSH1 0x4 DUP1 CALLDATASIZE SUB DUP2 ADD SWAP1 PUSH2 0x360 SWAP2 SWAP1 PUSH2 0x1061 JUMP JUMPDEST PUSH2 0x683 JUMP JUMPDEST PUSH1 0x40 MLOAD PUSH2 0x372 SWAP2 SWAP1 PUSH2 0xD04 JUMP JUMPDEST PUSH1 0x40 MLOAD DUP1 SWAP2 SUB SWAP1 RETURN JUMPDEST PUSH2 0x395 PUSH1 0x4 DUP1 CALLDATASIZE SUB DUP2 ADD SWAP1 PUSH2 0x390 SWAP2 SWAP1 PUSH2 0x10BA JUMP JUMPDEST PUSH2 0x696 JUMP JUMPDEST PUSH1 0x40 MLOAD PUSH2 0x3A2 SWAP2 SWAP1 PUSH2 0xD04 JUMP JUMPDEST PUSH1 0x40 MLOAD DUP1 SWAP2 SUB SWAP1 RETURN JUMPDEST PUSH2 0x3C5 PUSH1 0x4 DUP1 CALLDATASIZE SUB DUP2 ADD SWAP1 PUSH2 0x3C0 SWAP2 SWAP1 PUSH2 0x10BA JUMP JUMPDEST PUSH2 0x8D7 JUMP JUMPDEST PUSH1 0x40 MLOAD PUSH2 0x3D2 SWAP2 SWAP1 PUSH2 0xE27 JUMP JUMPDEST PUSH1 0x40 MLOAD DUP1 SWAP2 SUB SWAP1 RETURN JUMPDEST PUSH2 0x3E3 PUSH2 0x91C JUMP JUMPDEST PUSH1 0x40 MLOAD PUSH2 0x3F0 SWAP2 SWAP1 PUSH2 0xE83 JUMP JUMPDEST PUSH1 0x40 MLOAD DUP1 SWAP2 SUB SWAP1 RETURN JUMPDEST PUSH2 0x401 PUSH2 0x946 JUMP JUMPDEST PUSH1 0x40 MLOAD PUSH2 0x40E SWAP2 SWAP1 PUSH2 0xD04 JUMP JUMPDEST PUSH1 0x40 MLOAD DUP1 SWAP2 SUB SWAP1 RETURN JUMPDEST PUSH2 0x431 PUSH1 0x4 DUP1 CALLDATASIZE SUB DUP2 ADD SWAP1 PUSH2 0x42C SWAP2 SWAP1 PUSH2 0xECA JUMP JUMPDEST PUSH2 0x94C JUMP JUMPDEST PUSH1 0x40 MLOAD PUSH2 0x43E SWAP2 SWAP1 PUSH2 0xE83 JUMP JUMPDEST PUSH1 0x40 MLOAD DUP1 SWAP2 SUB SWAP1 RETURN JUMPDEST PUSH2 0x44F PUSH2 0x9C1 JUMP JUMPDEST PUSH1 0x40 MLOAD PUSH2 0x45C SWAP2 SWAP1 PUSH2 0xD04 JUMP JUMPDEST PUSH1 0x40 MLOAD DUP1 SWAP2 SUB SWAP1 RETURN JUMPDEST PUSH2 0x47F PUSH1 0x4 DUP1 CALLDATASIZE SUB DUP2 ADD SWAP1 PUSH2 0x47A SWAP2 SWAP1 PUSH2 0xECA JUMP JUMPDEST PUSH2 0xA19 JUMP JUMPDEST STOP JUMPDEST PUSH1 0x4 SLOAD DUP2 JUMP JUMPDEST PUSH1 0x2 PUSH1 0x14 SWAP1 SLOAD SWAP1 PUSH2 0x100 EXP SWAP1 DIV PUSH1 0xFF AND DUP2 JUMP JUMPDEST PUSH1 0x0 PUSH2 0x4A4 PUSH2 0xAF9 JUMP JUMPDEST DUP2 PUSH1 0x2 PUSH1 0x14 PUSH2 0x100 EXP DUP2 SLOAD DUP2 PUSH1 0xFF MUL NOT AND SWAP1 DUP4 PUSH1 0x4 DUP2 GT ISZERO PUSH2 0x4C9 JUMPI PUSH2 0x4C8 PUSH2 0xD1F JUMP JUMPDEST JUMPDEST MUL OR SWAP1 SSTORE POP PUSH1 0x2 PUSH1 0x14 SWAP1 SLOAD SWAP1 PUSH2 0x100 EXP SWAP1 DIV PUSH1 0xFF AND SWAP1 POP SWAP2 SWAP1 POP JUMP JUMPDEST PUSH1 0xA PUSH1 0x1C SWAP1 SLOAD SWAP1 PUSH2 0x100 EXP SWAP1 DIV PUSH4 0xFFFFFFFF AND DUP2 JUMP JUMPDEST PUSH1 0x7 SLOAD DUP2 JUMP JUMPDEST PUSH1 0x0 PUSH1 0x9 PUSH1 0x0 SWAP1 SLOAD SWAP1 PUSH2 0x100 EXP SWAP1 DIV PUSH20 0xFFFFFFFFFFFFFFFFFFFFFFFFFFFFFFFFFFFFFFFF AND SWAP1 POP SWAP1 JUMP JUMPDEST PUSH2 0x533 PUSH2 0xAF9 JUMP JUMPDEST PUSH2 0x53D PUSH1 0x0 PUSH2 0xB77 JUMP JUMPDEST JUMP JUMPDEST PUSH1 0x8 SLOAD DUP2 JUMP JUMPDEST PUSH1 0x3 SLOAD DUP2 JUMP JUMPDEST PUSH1 0xA PUSH1 0x18 SWAP1 SLOAD SWAP1 PUSH2 0x100 EXP SWAP1 DIV PUSH4 0xFFFFFFFF AND DUP2 JUMP JUMPDEST PUSH1 0x0 DUP1 PUSH1 0x0 SWAP1 SLOAD SWAP1 PUSH2 0x100 EXP SWAP1 DIV PUSH20 0xFFFFFFFFFFFFFFFFFFFFFFFFFFFFFFFFFFFFFFFF AND SWAP1 POP SWAP1 JUMP JUMPDEST PUSH1 0xA PUSH1 0x14 SWAP1 SLOAD SWAP1 PUSH2 0x100 EXP SWAP1 DIV PUSH4 0xFFFFFFFF AND DUP2 JUMP JUMPDEST PUSH1 0x0 PUSH2 0x5AA PUSH2 0xAF9 JUMP JUMPDEST DUP2 PUSH1 0x9 PUSH1 0x0 PUSH2 0x100 EXP DUP2 SLOAD DUP2 PUSH20 0xFFFFFFFFFFFFFFFFFFFFFFFFFFFFFFFFFFFFFFFF MUL NOT AND SWAP1 DUP4 PUSH20 0xFFFFFFFFFFFFFFFFFFFFFFFFFFFFFFFFFFFFFFFF AND MUL OR SWAP1 SSTORE POP PUSH1 0x9 PUSH1 0x0 SWAP1 SLOAD SWAP1 PUSH2 0x100 EXP SWAP1 DIV PUSH20 0xFFFFFFFFFFFFFFFFFFFFFFFFFFFFFFFFFFFFFFFF AND SWAP1 POP SWAP2 SWAP1 POP JUMP JUMPDEST PUSH1 0x5 SLOAD DUP2 JUMP JUMPDEST PUSH2 0x623 PUSH2 0xAF9 JUMP JUMPDEST DUP1 PUSH2 0x636 JUMPI PUSH2 0x631 DUP3 PUSH2 0x94C JUMP JUMPDEST PUSH2 0x640 JUMP JUMPDEST PUSH2 0x63F DUP3 PUSH2 0x5A0 JUMP JUMPDEST JUMPDEST POP POP POP JUMP JUMPDEST PUSH2 0x64D PUSH2 0xCC9 JUMP JUMPDEST PUSH1 0x40 MLOAD DUP1 PUSH1 0xA0 ADD PUSH1 0x40 MSTORE DUP1 PUSH1 0x3 SLOAD DUP2 MSTORE PUSH1 0x20 ADD PUSH1 0x4 SLOAD DUP2 MSTORE PUSH1 0x20 ADD PUSH1 0x5 SLOAD DUP2 MSTORE PUSH1 0x20 ADD PUSH1 0x6 SLOAD DUP2 MSTORE PUSH1 0x20 ADD PUSH1 0x7 SLOAD DUP2 MSTORE POP SWAP1 POP SWAP1 JUMP JUMPDEST PUSH1 0x0 DUP2 PUSH1 0x3 DUP2 SWAP1 SSTORE POP PUSH1 0x3 SLOAD SWAP1 POP SWAP2 SWAP1 POP JUMP JUMPDEST PUSH1 0x0 DUP1 PUSH1 0x0 DUP4 PUSH4 0xFFFFFFFF AND EQ ISZERO PUSH2 0x756 JUMPI PUSH2 0x74F PUSH4 0x5F5E100 PUSH1 0x1 PUSH1 0x0 SWAP1 SLOAD SWAP1 PUSH2 0x100 EXP SWAP1 DIV PUSH20 0xFFFFFFFFFFFFFFFFFFFFFFFFFFFFFFFFFFFFFFFF AND PUSH20 0xFFFFFFFFFFFFFFFFFFFFFFFFFFFFFFFFFFFFFFFF AND PUSH4 0xA8AD52D1 PUSH1 0x40 MLOAD DUP2 PUSH4 0xFFFFFFFF AND PUSH1 0xE0 SHL DUP2 MSTORE PUSH1 0x4 ADD PUSH1 0x20 PUSH1 0x40 MLOAD DUP1 DUP4 SUB DUP2 DUP7 GAS STATICCALL ISZERO DUP1 ISZERO PUSH2 0x71D JUMPI RETURNDATASIZE PUSH1 0x0 DUP1 RETURNDATACOPY RETURNDATASIZE PUSH1 0x0 REVERT JUMPDEST POP POP POP POP PUSH1 0x40 MLOAD RETURNDATASIZE PUSH1 0x1F NOT PUSH1 0x1F DUP3 ADD AND DUP3 ADD DUP1 PUSH1 0x40 MSTORE POP DUP2 ADD SWAP1 PUSH2 0x741 SWAP2 SWAP1 PUSH2 0x10FC JUMP JUMPDEST PUSH2 0xAE3 SWAP1 SWAP2 SWAP1 PUSH4 0xFFFFFFFF AND JUMP JUMPDEST SWAP1 POP PUSH2 0x8CE JUMP JUMPDEST PUSH1 0x1 DUP4 PUSH4 0xFFFFFFFF AND EQ ISZERO PUSH2 0x813 JUMPI PUSH2 0x80C PUSH4 0x5F5E100 PUSH1 0x1 PUSH1 0x0 SWAP1 SLOAD SWAP1 PUSH2 0x100 EXP SWAP1 DIV PUSH20 0xFFFFFFFFFFFFFFFFFFFFFFFFFFFFFFFFFFFFFFFF AND PUSH20 0xFFFFFFFFFFFFFFFFFFFFFFFFFFFFFFFFFFFFFFFF AND PUSH4 0xFF186B2E PUSH1 0x40 MLOAD DUP2 PUSH4 0xFFFFFFFF AND PUSH1 0xE0 SHL DUP2 MSTORE PUSH1 0x4 ADD PUSH1 0x20 PUSH1 0x40 MLOAD DUP1 DUP4 SUB DUP2 DUP7 GAS STATICCALL ISZERO DUP1 ISZERO PUSH2 0x7DA JUMPI RETURNDATASIZE PUSH1 0x0 DUP1 RETURNDATACOPY RETURNDATASIZE PUSH1 0x0 REVERT JUMPDEST POP POP POP POP PUSH1 0x40 MLOAD RETURNDATASIZE PUSH1 0x1F NOT PUSH1 0x1F DUP3 ADD AND DUP3 ADD DUP1 PUSH1 0x40 MSTORE POP DUP2 ADD SWAP1 PUSH2 0x7FE SWAP2 SWAP1 PUSH2 0x10FC JUMP JUMPDEST PUSH2 0xAE3 SWAP1 SWAP2 SWAP1 PUSH4 0xFFFFFFFF AND JUMP JUMPDEST SWAP1 POP PUSH2 0x8CD JUMP JUMPDEST PUSH1 0x2 DUP4 PUSH4 0xFFFFFFFF AND EQ ISZERO PUSH2 0x8CC JUMPI PUSH2 0x8C9 PUSH4 0x5F5E100 PUSH1 0x1 PUSH1 0x0 SWAP1 SLOAD SWAP1 PUSH2 0x100 EXP SWAP1 DIV PUSH20 0xFFFFFFFFFFFFFFFFFFFFFFFFFFFFFFFFFFFFFFFF AND PUSH20 0xFFFFFFFFFFFFFFFFFFFFFFFFFFFFFFFFFFFFFFFF AND PUSH4 0xCF78535 PUSH1 0x40 MLOAD DUP2 PUSH4 0xFFFFFFFF AND PUSH1 0xE0 SHL DUP2 MSTORE PUSH1 0x4 ADD PUSH1 0x20 PUSH1 0x40 MLOAD DUP1 DUP4 SUB DUP2 DUP7 GAS STATICCALL ISZERO DUP1 ISZERO PUSH2 0x897 JUMPI RETURNDATASIZE PUSH1 0x0 DUP1 RETURNDATACOPY RETURNDATASIZE PUSH1 0x0 REVERT JUMPDEST POP POP POP POP PUSH1 0x40 MLOAD RETURNDATASIZE PUSH1 0x1F NOT PUSH1 0x1F DUP3 ADD AND DUP3 ADD DUP1 PUSH1 0x40 MSTORE POP DUP2 ADD SWAP1 PUSH2 0x8BB SWAP2 SWAP1 PUSH2 0x10FC JUMP JUMPDEST PUSH2 0xAE3 SWAP1 SWAP2 SWAP1 PUSH4 0xFFFFFFFF AND JUMP JUMPDEST SWAP1 POP JUMPDEST JUMPDEST JUMPDEST DUP1 SWAP2 POP POP SWAP2 SWAP1 POP JUMP JUMPDEST PUSH1 0x0 PUSH2 0x8E1 PUSH2 0xAF9 JUMP JUMPDEST DUP2 PUSH1 0xA PUSH1 0x14 PUSH2 0x100 EXP DUP2 SLOAD DUP2 PUSH4 0xFFFFFFFF MUL NOT AND SWAP1 DUP4 PUSH4 0xFFFFFFFF AND MUL OR SWAP1 SSTORE POP PUSH1 0xA PUSH1 0x14 SWAP1 SLOAD SWAP1 PUSH2 0x100 EXP SWAP1 DIV PUSH4 0xFFFFFFFF AND SWAP1 POP SWAP2 SWAP1 POP JUMP JUMPDEST PUSH1 0x0 PUSH1 0xA PUSH1 0x0 SWAP1 SLOAD SWAP1 PUSH2 0x100 EXP SWAP1 DIV PUSH20 0xFFFFFFFFFFFFFFFFFFFFFFFFFFFFFFFFFFFFFFFF AND SWAP1 POP SWAP1 JUMP JUMPDEST PUSH1 0x6 SLOAD DUP2 JUMP JUMPDEST PUSH1 0x0 PUSH2 0x956 PUSH2 0xAF9 JUMP JUMPDEST DUP2 PUSH1 0xA PUSH1 0x0 PUSH2 0x100 EXP DUP2 SLOAD DUP2 PUSH20 0xFFFFFFFFFFFFFFFFFFFFFFFFFFFFFFFFFFFFFFFF MUL NOT AND SWAP1 DUP4 PUSH20 0xFFFFFFFFFFFFFFFFFFFFFFFFFFFFFFFFFFFFFFFF AND MUL OR SWAP1 SSTORE POP PUSH1 0xA PUSH1 0x0 SWAP1 SLOAD SWAP1 PUSH2 0x100 EXP SWAP1 DIV PUSH20 0xFFFFFFFFFFFFFFFFFFFFFFFFFFFFFFFFFFFFFFFF AND SWAP1 POP SWAP2 SWAP1 POP JUMP JUMPDEST PUSH1 0x0 DUP1 PUSH2 0x9DF PUSH1 0xA PUSH1 0x1C SWAP1 SLOAD SWAP1 PUSH2 0x100 EXP SWAP1 DIV PUSH4 0xFFFFFFFF AND PUSH2 0x696 JUMP JUMPDEST SWAP1 POP DUP1 PUSH1 0x4 SLOAD LT ISZERO PUSH2 0x9F5 JUMPI PUSH1 0x0 SWAP2 POP POP PUSH2 0xA16 JUMP JUMPDEST PUSH2 0xA12 PUSH1 0x5 SLOAD PUSH1 0x3 SLOAD DUP4 PUSH1 0x7 SLOAD PUSH2 0xC3B SWAP1 SWAP4 SWAP3 SWAP2 SWAP1 PUSH4 0xFFFFFFFF AND JUMP JUMPDEST SWAP2 POP POP JUMPDEST SWAP1 JUMP JUMPDEST PUSH2 0xA21 PUSH2 0xAF9 JUMP JUMPDEST PUSH1 0x0 PUSH20 0xFFFFFFFFFFFFFFFFFFFFFFFFFFFFFFFFFFFFFFFF AND DUP2 PUSH20 0xFFFFFFFFFFFFFFFFFFFFFFFFFFFFFFFFFFFFFFFF AND EQ ISZERO PUSH2 0xA91 JUMPI PUSH1 0x40 MLOAD PUSH32 0x8C379A000000000000000000000000000000000000000000000000000000000 DUP2 MSTORE PUSH1 0x4 ADD PUSH2 0xA88 SWAP1 PUSH2 0x11AC JUMP JUMPDEST PUSH1 0x40 MLOAD DUP1 SWAP2 SUB SWAP1 REVERT JUMPDEST PUSH2 0xA9A DUP2 PUSH2 0xB77 JUMP JUMPDEST POP JUMP JUMPDEST PUSH1 0x0 PUSH2 0xAC4 PUSH2 0xAB5 DUP5 DUP7 PUSH2 0xACD SWAP1 SWAP2 SWAP1 PUSH4 0xFFFFFFFF AND JUMP JUMPDEST DUP4 PUSH2 0xAE3 SWAP1 SWAP2 SWAP1 PUSH4 0xFFFFFFFF AND JUMP JUMPDEST SWAP1 POP SWAP4 SWAP3 POP POP POP JUMP JUMPDEST PUSH1 0x0 DUP2 DUP4 PUSH2 0xADB SWAP2 SWAP1 PUSH2 0x11FB JUMP JUMPDEST SWAP1 POP SWAP3 SWAP2 POP POP JUMP JUMPDEST PUSH1 0x0 DUP2 DUP4 PUSH2 0xAF1 SWAP2 SWAP1 PUSH2 0x125E JUMP JUMPDEST SWAP1 POP SWAP3 SWAP2 POP POP JUMP JUMPDEST PUSH2 0xB01 PUSH2 0xCAB JUMP JUMPDEST PUSH20 0xFFFFFFFFFFFFFFFFFFFFFFFFFFFFFFFFFFFFFFFF AND PUSH2 0xB1F PUSH2 0x561 JUMP JUMPDEST PUSH20 0xFFFFFFFFFFFFFFFFFFFFFFFFFFFFFFFFFFFFFFFF AND EQ PUSH2 0xB75 JUMPI PUSH1 0x40 MLOAD PUSH32 0x8C379A000000000000000000000000000000000000000000000000000000000 DUP2 MSTORE PUSH1 0x4 ADD PUSH2 0xB6C SWAP1 PUSH2 0x12DB JUMP JUMPDEST PUSH1 0x40 MLOAD DUP1 SWAP2 SUB SWAP1 REVERT JUMPDEST JUMP JUMPDEST PUSH1 0x0 DUP1 PUSH1 0x0 SWAP1 SLOAD SWAP1 PUSH2 0x100 EXP SWAP1 DIV PUSH20 0xFFFFFFFFFFFFFFFFFFFFFFFFFFFFFFFFFFFFFFFF AND SWAP1 POP DUP2 PUSH1 0x0 DUP1 PUSH2 0x100 EXP DUP2 SLOAD DUP2 PUSH20 0xFFFFFFFFFFFFFFFFFFFFFFFFFFFFFFFFFFFFFFFF MUL NOT AND SWAP1 DUP4 PUSH20 0xFFFFFFFFFFFFFFFFFFFFFFFFFFFFFFFFFFFFFFFF AND MUL OR SWAP1 SSTORE POP DUP2 PUSH20 0xFFFFFFFFFFFFFFFFFFFFFFFFFFFFFFFFFFFFFFFF AND DUP2 PUSH20 0xFFFFFFFFFFFFFFFFFFFFFFFFFFFFFFFFFFFFFFFF AND PUSH32 0x8BE0079C531659141344CD1FD0A4F28419497F9722A3DAAFE3B4186F6B6457E0 PUSH1 0x40 MLOAD PUSH1 0x40 MLOAD DUP1 SWAP2 SUB SWAP1 LOG3 POP POP JUMP JUMPDEST PUSH1 0x0 DUP1 DUP3 DUP6 LT PUSH2 0xC4D JUMPI DUP6 SWAP1 POP PUSH2 0xC9F JUMP JUMPDEST PUSH1 0x0 PUSH2 0xC74 PUSH2 0xC65 DUP8 DUP8 PUSH2 0xACD SWAP1 SWAP2 SWAP1 PUSH4 0xFFFFFFFF AND JUMP JUMPDEST DUP9 PUSH2 0xAE3 SWAP1 SWAP2 SWAP1 PUSH4 0xFFFFFFFF AND JUMP JUMPDEST SWAP1 POP PUSH2 0xC9B PUSH2 0xC8C DUP6 DUP8 PUSH2 0xACD SWAP1 SWAP2 SWAP1 PUSH4 0xFFFFFFFF AND JUMP JUMPDEST DUP3 PUSH2 0xCB3 SWAP1 SWAP2 SWAP1 PUSH4 0xFFFFFFFF AND JUMP JUMPDEST SWAP2 POP POP JUMPDEST DUP1 SWAP2 POP POP SWAP5 SWAP4 POP POP POP POP JUMP JUMPDEST PUSH1 0x0 CALLER SWAP1 POP SWAP1 JUMP JUMPDEST PUSH1 0x0 DUP2 DUP4 PUSH2 0xCC1 SWAP2 SWAP1 PUSH2 0x12FB JUMP JUMPDEST SWAP1 POP SWAP3 SWAP2 POP POP JUMP JUMPDEST PUSH1 0x40 MLOAD DUP1 PUSH1 0xA0 ADD PUSH1 0x40 MSTORE DUP1 PUSH1 0x5 SWAP1 PUSH1 0x20 DUP3 MUL DUP1 CALLDATASIZE DUP4 CALLDATACOPY DUP1 DUP3 ADD SWAP2 POP POP SWAP1 POP POP SWAP1 JUMP JUMPDEST PUSH1 0x0 DUP2 SWAP1 POP SWAP2 SWAP1 POP JUMP JUMPDEST PUSH2 0xCFE DUP2 PUSH2 0xCEB JUMP JUMPDEST DUP3 MSTORE POP POP JUMP JUMPDEST PUSH1 0x0 PUSH1 0x20 DUP3 ADD SWAP1 POP PUSH2 0xD19 PUSH1 0x0 DUP4 ADD DUP5 PUSH2 0xCF5 JUMP JUMPDEST SWAP3 SWAP2 POP POP JUMP JUMPDEST PUSH32 0x4E487B7100000000000000000000000000000000000000000000000000000000 PUSH1 0x0 MSTORE PUSH1 0x21 PUSH1 0x4 MSTORE PUSH1 0x24 PUSH1 0x0 REVERT JUMPDEST PUSH1 0x5 DUP2 LT PUSH2 0xD5F JUMPI PUSH2 0xD5E PUSH2 0xD1F JUMP JUMPDEST JUMPDEST POP JUMP JUMPDEST PUSH1 0x0 DUP2 SWAP1 POP PUSH2 0xD70 DUP3 PUSH2 0xD4E JUMP JUMPDEST SWAP2 SWAP1 POP JUMP JUMPDEST PUSH1 0x0 PUSH2 0xD80 DUP3 PUSH2 0xD62 JUMP JUMPDEST SWAP1 POP SWAP2 SWAP1 POP JUMP JUMPDEST PUSH2 0xD90 DUP2 PUSH2 0xD75 JUMP JUMPDEST DUP3 MSTORE POP POP JUMP JUMPDEST PUSH1 0x0 PUSH1 0x20 DUP3 ADD SWAP1 POP PUSH2 0xDAB PUSH1 0x0 DUP4 ADD DUP5 PUSH2 0xD87 JUMP JUMPDEST SWAP3 SWAP2 POP POP JUMP JUMPDEST PUSH1 0x0 DUP1 REVERT JUMPDEST PUSH1 0x5 DUP2 LT PUSH2 0xDC3 JUMPI PUSH1 0x0 DUP1 REVERT JUMPDEST POP JUMP JUMPDEST PUSH1 0x0 DUP2 CALLDATALOAD SWAP1 POP PUSH2 0xDD5 DUP2 PUSH2 0xDB6 JUMP JUMPDEST SWAP3 SWAP2 POP POP JUMP JUMPDEST PUSH1 0x0 PUSH1 0x20 DUP3 DUP5 SUB SLT ISZERO PUSH2 0xDF1 JUMPI PUSH2 0xDF0 PUSH2 0xDB1 JUMP JUMPDEST JUMPDEST PUSH1 0x0 PUSH2 0xDFF DUP5 DUP3 DUP6 ADD PUSH2 0xDC6 JUMP JUMPDEST SWAP2 POP POP SWAP3 SWAP2 POP POP JUMP JUMPDEST PUSH1 0x0 PUSH4 0xFFFFFFFF DUP3 AND SWAP1 POP SWAP2 SWAP1 POP JUMP JUMPDEST PUSH2 0xE21 DUP2 PUSH2 0xE08 JUMP JUMPDEST DUP3 MSTORE POP POP JUMP JUMPDEST PUSH1 0x0 PUSH1 0x20 DUP3 ADD SWAP1 POP PUSH2 0xE3C PUSH1 0x0 DUP4 ADD DUP5 PUSH2 0xE18 JUMP JUMPDEST SWAP3 SWAP2 POP POP JUMP JUMPDEST PUSH1 0x0 PUSH20 0xFFFFFFFFFFFFFFFFFFFFFFFFFFFFFFFFFFFFFFFF DUP3 AND SWAP1 POP SWAP2 SWAP1 POP JUMP JUMPDEST PUSH1 0x0 PUSH2 0xE6D DUP3 PUSH2 0xE42 JUMP JUMPDEST SWAP1 POP SWAP2 SWAP1 POP JUMP JUMPDEST PUSH2 0xE7D DUP2 PUSH2 0xE62 JUMP JUMPDEST DUP3 MSTORE POP POP JUMP JUMPDEST PUSH1 0x0 PUSH1 0x20 DUP3 ADD SWAP1 POP PUSH2 0xE98 PUSH1 0x0 DUP4 ADD DUP5 PUSH2 0xE74 JUMP JUMPDEST SWAP3 SWAP2 POP POP JUMP JUMPDEST PUSH2 0xEA7 DUP2 PUSH2 0xE62 JUMP JUMPDEST DUP2 EQ PUSH2 0xEB2 JUMPI PUSH1 0x0 DUP1 REVERT JUMPDEST POP JUMP JUMPDEST PUSH1 0x0 DUP2 CALLDATALOAD SWAP1 POP PUSH2 0xEC4 DUP2 PUSH2 0xE9E JUMP JUMPDEST SWAP3 SWAP2 POP POP JUMP JUMPDEST PUSH1 0x0 PUSH1 0x20 DUP3 DUP5 SUB SLT ISZERO PUSH2 0xEE0 JUMPI PUSH2 0xEDF PUSH2 0xDB1 JUMP JUMPDEST JUMPDEST PUSH1 0x0 PUSH2 0xEEE DUP5 DUP3 DUP6 ADD PUSH2 0xEB5 JUMP JUMPDEST SWAP2 POP POP SWAP3 SWAP2 POP POP JUMP JUMPDEST PUSH1 0x0 DUP2 ISZERO ISZERO SWAP1 POP SWAP2 SWAP1 POP JUMP JUMPDEST PUSH2 0xF0C DUP2 PUSH2 0xEF7 JUMP JUMPDEST DUP2 EQ PUSH2 0xF17 JUMPI PUSH1 0x0 DUP1 REVERT JUMPDEST POP JUMP JUMPDEST PUSH1 0x0 DUP2 CALLDATALOAD SWAP1 POP PUSH2 0xF29 DUP2 PUSH2 0xF03 JUMP JUMPDEST SWAP3 SWAP2 POP POP JUMP JUMPDEST PUSH1 0x0 DUP1 PUSH1 0x40 DUP4 DUP6 SUB SLT ISZERO PUSH2 0xF46 JUMPI PUSH2 0xF45 PUSH2 0xDB1 JUMP JUMPDEST JUMPDEST PUSH1 0x0 PUSH2 0xF54 DUP6 DUP3 DUP7 ADD PUSH2 0xEB5 JUMP JUMPDEST SWAP3 POP POP PUSH1 0x20 PUSH2 0xF65 DUP6 DUP3 DUP7 ADD PUSH2 0xF1A JUMP JUMPDEST SWAP2 POP POP SWAP3 POP SWAP3 SWAP1 POP JUMP JUMPDEST PUSH1 0x0 PUSH1 0x5 SWAP1 POP SWAP2 SWAP1 POP JUMP JUMPDEST PUSH1 0x0 DUP2 SWAP1 POP SWAP3 SWAP2 POP POP JUMP JUMPDEST PUSH1 0x0 DUP2 SWAP1 POP SWAP2 SWAP1 POP JUMP JUMPDEST PUSH2 0xF98 DUP2 PUSH2 0xCEB JUMP JUMPDEST DUP3 MSTORE POP POP JUMP JUMPDEST PUSH1 0x0 PUSH2 0xFAA DUP4 DUP4 PUSH2 0xF8F JUMP JUMPDEST PUSH1 0x20 DUP4 ADD SWAP1 POP SWAP3 SWAP2 POP POP JUMP JUMPDEST PUSH1 0x0 PUSH1 0x20 DUP3 ADD SWAP1 POP SWAP2 SWAP1 POP JUMP JUMPDEST PUSH2 0xFCC DUP2 PUSH2 0xF6F JUMP JUMPDEST PUSH2 0xFD6 DUP2 DUP5 PUSH2 0xF7A JUMP JUMPDEST SWAP3 POP PUSH2 0xFE1 DUP3 PUSH2 0xF85 JUMP JUMPDEST DUP1 PUSH1 0x0 JUMPDEST DUP4 DUP2 LT ISZERO PUSH2 0x1012 JUMPI DUP2 MLOAD PUSH2 0xFF9 DUP8 DUP3 PUSH2 0xF9E JUMP JUMPDEST SWAP7 POP PUSH2 0x1004 DUP4 PUSH2 0xFB6 JUMP JUMPDEST SWAP3 POP POP PUSH1 0x1 DUP2 ADD SWAP1 POP PUSH2 0xFE5 JUMP JUMPDEST POP POP POP POP POP POP JUMP JUMPDEST PUSH1 0x0 PUSH1 0xA0 DUP3 ADD SWAP1 POP PUSH2 0x102F PUSH1 0x0 DUP4 ADD DUP5 PUSH2 0xFC3 JUMP JUMPDEST SWAP3 SWAP2 POP POP JUMP JUMPDEST PUSH2 0x103E DUP2 PUSH2 0xCEB JUMP JUMPDEST DUP2 EQ PUSH2 0x1049 JUMPI PUSH1 0x0 DUP1 REVERT JUMPDEST POP JUMP JUMPDEST PUSH1 0x0 DUP2 CALLDATALOAD SWAP1 POP PUSH2 0x105B DUP2 PUSH2 0x1035 JUMP JUMPDEST SWAP3 SWAP2 POP POP JUMP JUMPDEST PUSH1 0x0 PUSH1 0x20 DUP3 DUP5 SUB SLT ISZERO PUSH2 0x1077 JUMPI PUSH2 0x1076 PUSH2 0xDB1 JUMP JUMPDEST JUMPDEST PUSH1 0x0 PUSH2 0x1085 DUP5 DUP3 DUP6 ADD PUSH2 0x104C JUMP JUMPDEST SWAP2 POP POP SWAP3 SWAP2 POP POP JUMP JUMPDEST PUSH2 0x1097 DUP2 PUSH2 0xE08 JUMP JUMPDEST DUP2 EQ PUSH2 0x10A2 JUMPI PUSH1 0x0 DUP1 REVERT JUMPDEST POP JUMP JUMPDEST PUSH1 0x0 DUP2 CALLDATALOAD SWAP1 POP PUSH2 0x10B4 DUP2 PUSH2 0x108E JUMP JUMPDEST SWAP3 SWAP2 POP POP JUMP JUMPDEST PUSH1 0x0 PUSH1 0x20 DUP3 DUP5 SUB SLT ISZERO PUSH2 0x10D0 JUMPI PUSH2 0x10CF PUSH2 0xDB1 JUMP JUMPDEST JUMPDEST PUSH1 0x0 PUSH2 0x10DE DUP5 DUP3 DUP6 ADD PUSH2 0x10A5 JUMP JUMPDEST SWAP2 POP POP SWAP3 SWAP2 POP POP JUMP JUMPDEST PUSH1 0x0 DUP2 MLOAD SWAP1 POP PUSH2 0x10F6 DUP2 PUSH2 0x1035 JUMP JUMPDEST SWAP3 SWAP2 POP POP JUMP JUMPDEST PUSH1 0x0 PUSH1 0x20 DUP3 DUP5 SUB SLT ISZERO PUSH2 0x1112 JUMPI PUSH2 0x1111 PUSH2 0xDB1 JUMP JUMPDEST JUMPDEST PUSH1 0x0 PUSH2 0x1120 DUP5 DUP3 DUP6 ADD PUSH2 0x10E7 JUMP JUMPDEST SWAP2 POP POP SWAP3 SWAP2 POP POP JUMP JUMPDEST PUSH1 0x0 DUP3 DUP3 MSTORE PUSH1 0x20 DUP3 ADD SWAP1 POP SWAP3 SWAP2 POP POP JUMP JUMPDEST PUSH32 0x4F776E61626C653A206E6577206F776E657220697320746865207A65726F2061 PUSH1 0x0 DUP3 ADD MSTORE PUSH32 0x6464726573730000000000000000000000000000000000000000000000000000 PUSH1 0x20 DUP3 ADD MSTORE POP JUMP JUMPDEST PUSH1 0x0 PUSH2 0x1196 PUSH1 0x26 DUP4 PUSH2 0x1129 JUMP JUMPDEST SWAP2 POP PUSH2 0x11A1 DUP3 PUSH2 0x113A JUMP JUMPDEST PUSH1 0x40 DUP3 ADD SWAP1 POP SWAP2 SWAP1 POP JUMP JUMPDEST PUSH1 0x0 PUSH1 0x20 DUP3 ADD SWAP1 POP DUP2 DUP2 SUB PUSH1 0x0 DUP4 ADD MSTORE PUSH2 0x11C5 DUP2 PUSH2 0x1189 JUMP JUMPDEST SWAP1 POP SWAP2 SWAP1 POP JUMP JUMPDEST PUSH32 0x4E487B7100000000000000000000000000000000000000000000000000000000 PUSH1 0x0 MSTORE PUSH1 0x11 PUSH1 0x4 MSTORE PUSH1 0x24 PUSH1 0x0 REVERT JUMPDEST PUSH1 0x0 PUSH2 0x1206 DUP3 PUSH2 0xCEB JUMP JUMPDEST SWAP2 POP PUSH2 0x1211 DUP4 PUSH2 0xCEB JUMP JUMPDEST SWAP3 POP DUP3 DUP3 LT ISZERO PUSH2 0x1224 JUMPI PUSH2 0x1223 PUSH2 0x11CC JUMP JUMPDEST JUMPDEST DUP3 DUP3 SUB SWAP1 POP SWAP3 SWAP2 POP POP JUMP JUMPDEST PUSH32 0x4E487B7100000000000000000000000000000000000000000000000000000000 PUSH1 0x0 MSTORE PUSH1 0x12 PUSH1 0x4 MSTORE PUSH1 0x24 PUSH1 0x0 REVERT JUMPDEST PUSH1 0x0 PUSH2 0x1269 DUP3 PUSH2 0xCEB JUMP JUMPDEST SWAP2 POP PUSH2 0x1274 DUP4 PUSH2 0xCEB JUMP JUMPDEST SWAP3 POP DUP3 PUSH2 0x1284 JUMPI PUSH2 0x1283 PUSH2 0x122F JUMP JUMPDEST JUMPDEST DUP3 DUP3 DIV SWAP1 POP SWAP3 SWAP2 POP POP JUMP JUMPDEST PUSH32 0x4F776E61626C653A2063616C6C6572206973206E6F7420746865206F776E6572 PUSH1 0x0 DUP3 ADD MSTORE POP JUMP JUMPDEST PUSH1 0x0 PUSH2 0x12C5 PUSH1 0x20 DUP4 PUSH2 0x1129 JUMP JUMPDEST SWAP2 POP PUSH2 0x12D0 DUP3 PUSH2 0x128F JUMP JUMPDEST PUSH1 0x20 DUP3 ADD SWAP1 POP SWAP2 SWAP1 POP JUMP JUMPDEST PUSH1 0x0 PUSH1 0x20 DUP3 ADD SWAP1 POP DUP2 DUP2 SUB PUSH1 0x0 DUP4 ADD MSTORE PUSH2 0x12F4 DUP2 PUSH2 0x12B8 JUMP JUMPDEST SWAP1 POP SWAP2 SWAP1 POP JUMP JUMPDEST PUSH1 0x0 PUSH2 0x1306 DUP3 PUSH2 0xCEB JUMP JUMPDEST SWAP2 POP PUSH2 0x1311 DUP4 PUSH2 0xCEB JUMP JUMPDEST SWAP3 POP DUP2 PUSH32 0xFFFFFFFFFFFFFFFFFFFFFFFFFFFFFFFFFFFFFFFFFFFFFFFFFFFFFFFFFFFFFFFF DIV DUP4 GT DUP3 ISZERO ISZERO AND ISZERO PUSH2 0x134A JUMPI PUSH2 0x1349 PUSH2 0x11CC JUMP JUMPDEST JUMPDEST DUP3 DUP3 MUL SWAP1 POP SWAP3 SWAP2 POP POP JUMP INVALID LOG2 PUSH5 0x6970667358 0x22 SLT KECCAK256 0xFC MSIZE 0xA8 PUSH9 0xDC75531B9051AD931D 0xE 0xC0 DIFFICULTY 0x5C 0xCD AND 0xE2 0xA8 CREATE PUSH10 0x87917CFBDA2668DEDB64 PUSH20 0x6F6C634300080A00330000000000000000000000 "
				},
				"gasEstimates": {
					"creation": {
						"codeDepositCost": "1000600",
						"executionCost": "infinite",
						"totalCost": "infinite"
					},
					"external": {
						"amountOfAsset()": "2474",
						"assetType()": "2611",
						"claimPrice()": "2453",
						"getBuyer()": "2656",
						"getClaimReward()": "infinite",
						"getCurrPrice(uint32)": "infinite",
						"getPrices()": "infinite",
						"getSeller()": "2566",
						"initAssetPrice()": "2496",
						"liquidationPrice()": "2474",
						"owner()": "2633",
						"premium()": "2495",
						"renounceOwnership()": "30421",
						"rounds()": "2654",
						"sellerDeposit()": "2541",
						"setBuyer(address)": "infinite",
						"setInitAssetPrice(uint256)": "infinite",
						"setParticipants(address,bool)": "infinite",
						"setRounds(uint32)": "infinite",
						"setSeller(address)": "infinite",
						"setStatus(uint8)": "29509",
						"status()": "2656",
						"totalRounds()": "2610",
						"transferOwnership(address)": "30879"
					}
				},
				"methodIdentifiers": {
					"amountOfAsset()": "762db7ee",
					"assetType()": "3fe3347a",
					"claimPrice()": "15d655c9",
					"getBuyer()": "603daf9a",
					"getClaimReward()": "f26cc58e",
					"getCurrPrice(uint32)": "cbed2449",
					"getPrices()": "bd9a548b",
					"getSeller()": "dbd0e1b6",
					"initAssetPrice()": "86be75b7",
					"liquidationPrice()": "b6fc2d5f",
					"owner()": "8da5cb5b",
					"premium()": "e0a73a93",
					"renounceOwnership()": "715018a6",
					"rounds()": "a2e800ad",
					"sellerDeposit()": "4c1786ea",
					"setBuyer(address)": "a3f09ad6",
					"setInitAssetPrice(uint256)": "bef904e3",
					"setParticipants(address,bool)": "bab215f8",
					"setRounds(uint32)": "d2895e93",
					"setSeller(address)": "e99d2866",
					"setStatus(uint8)": "2e49d78b",
					"status()": "200d2ed2",
					"totalRounds()": "8a568299",
					"transferOwnership(address)": "f2fde38b"
				}
			},
			"storageLayout": {
				"storage": [
					{
						"astId": 7,
						"contract": "contracts/CDS/CDS.sol:CDS",
						"label": "_owner",
						"offset": 0,
						"slot": "0",
						"type": "t_address"
					},
					{
						"astId": 752,
						"contract": "contracts/CDS/CDS.sol:CDS",
						"label": "priceOracle",
						"offset": 0,
						"slot": "1",
						"type": "t_contract(PriceOracleMock)893"
					},
					{
						"astId": 462,
						"contract": "contracts/CDS/CDS.sol:CDS",
						"label": "priceOracle",
						"offset": 0,
						"slot": "2",
						"type": "t_contract(PriceOracleMock)893"
					},
					{
						"astId": 471,
						"contract": "contracts/CDS/CDS.sol:CDS",
						"label": "status",
						"offset": 20,
						"slot": "2",
						"type": "t_enum(Status)468"
					},
					{
						"astId": 473,
						"contract": "contracts/CDS/CDS.sol:CDS",
						"label": "initAssetPrice",
						"offset": 0,
						"slot": "3",
						"type": "t_uint256"
					},
					{
						"astId": 475,
						"contract": "contracts/CDS/CDS.sol:CDS",
						"label": "claimPrice",
						"offset": 0,
						"slot": "4",
						"type": "t_uint256"
					},
					{
						"astId": 477,
						"contract": "contracts/CDS/CDS.sol:CDS",
						"label": "liquidationPrice",
						"offset": 0,
						"slot": "5",
						"type": "t_uint256"
					},
					{
						"astId": 479,
						"contract": "contracts/CDS/CDS.sol:CDS",
						"label": "premium",
						"offset": 0,
						"slot": "6",
						"type": "t_uint256"
					},
					{
						"astId": 481,
						"contract": "contracts/CDS/CDS.sol:CDS",
						"label": "sellerDeposit",
						"offset": 0,
						"slot": "7",
						"type": "t_uint256"
					},
					{
						"astId": 483,
						"contract": "contracts/CDS/CDS.sol:CDS",
						"label": "amountOfAsset",
						"offset": 0,
						"slot": "8",
						"type": "t_uint256"
					},
					{
						"astId": 485,
						"contract": "contracts/CDS/CDS.sol:CDS",
						"label": "buyer",
						"offset": 0,
						"slot": "9",
						"type": "t_address"
					},
					{
						"astId": 487,
						"contract": "contracts/CDS/CDS.sol:CDS",
						"label": "seller",
						"offset": 0,
						"slot": "10",
						"type": "t_address"
					},
					{
						"astId": 489,
						"contract": "contracts/CDS/CDS.sol:CDS",
						"label": "rounds",
						"offset": 20,
						"slot": "10",
						"type": "t_uint32"
					},
					{
						"astId": 491,
						"contract": "contracts/CDS/CDS.sol:CDS",
						"label": "totalRounds",
						"offset": 24,
						"slot": "10",
						"type": "t_uint32"
					},
					{
						"astId": 493,
						"contract": "contracts/CDS/CDS.sol:CDS",
						"label": "assetType",
						"offset": 28,
						"slot": "10",
						"type": "t_uint32"
					}
				],
				"types": {
					"t_address": {
						"encoding": "inplace",
						"label": "address",
						"numberOfBytes": "20"
					},
					"t_contract(PriceOracleMock)893": {
						"encoding": "inplace",
						"label": "contract PriceOracleMock",
						"numberOfBytes": "20"
					},
					"t_enum(Status)468": {
						"encoding": "inplace",
						"label": "enum CDS.Status",
						"numberOfBytes": "1"
					},
					"t_uint256": {
						"encoding": "inplace",
						"label": "uint256",
						"numberOfBytes": "32"
					},
					"t_uint32": {
						"encoding": "inplace",
						"label": "uint32",
						"numberOfBytes": "4"
					}
				}
			},
			"userdoc": {
				"kind": "user",
				"methods": {},
				"version": 1
			}
		}
	}
}