{
	"contracts/Oracle/PriceOracleMock.sol": {
		"PriceOracleMock": {
			"abi": [
				{
					"inputs": [],
					"stateMutability": "nonpayable",
					"type": "constructor"
				},
				{
					"inputs": [],
					"name": "btcPrice",
					"outputs": [
						{
							"internalType": "uint256",
							"name": "",
							"type": "uint256"
						}
					],
					"stateMutability": "view",
					"type": "function"
				},
				{
					"inputs": [],
					"name": "ethPrice",
					"outputs": [
						{
							"internalType": "uint256",
							"name": "",
							"type": "uint256"
						}
					],
					"stateMutability": "view",
					"type": "function"
				},
				{
					"inputs": [],
					"name": "linkPrice",
					"outputs": [
						{
							"internalType": "uint256",
							"name": "",
							"type": "uint256"
						}
					],
					"stateMutability": "view",
					"type": "function"
				},
				{
					"inputs": [
						{
							"internalType": "uint256",
							"name": "_price",
							"type": "uint256"
						}
					],
					"name": "setBTCPrice",
					"outputs": [
						{
							"internalType": "uint256",
							"name": "",
							"type": "uint256"
						}
					],
					"stateMutability": "nonpayable",
					"type": "function"
				},
				{
					"inputs": [
						{
							"internalType": "uint256",
							"name": "_price",
							"type": "uint256"
						}
					],
					"name": "setETHPrice",
					"outputs": [
						{
							"internalType": "uint256",
							"name": "",
							"type": "uint256"
						}
					],
					"stateMutability": "nonpayable",
					"type": "function"
				},
				{
					"inputs": [
						{
							"internalType": "uint256",
							"name": "_price",
							"type": "uint256"
						}
					],
					"name": "setLinkPrice",
					"outputs": [
						{
							"internalType": "uint256",
							"name": "",
							"type": "uint256"
						}
					],
					"stateMutability": "nonpayable",
					"type": "function"
				}
			],
			"devdoc": {
				"kind": "dev",
				"methods": {},
				"version": 1
			},
			"evm": {
				"assembly": "    /* \"contracts/Oracle/PriceOracleMock.sol\":57:627  contract PriceOracleMock {... */\n  mstore(0x40, 0x80)\n    /* \"contracts/Oracle/PriceOracleMock.sol\":169:277  constructor(... */\n  callvalue\n  dup1\n  iszero\n  tag_1\n  jumpi\n  0x00\n  dup1\n  revert\ntag_1:\n  pop\n    /* \"contracts/Oracle/PriceOracleMock.sol\":203:216  2500000000000 */\n  0x0246139ca800\n    /* \"contracts/Oracle/PriceOracleMock.sol\":192:200  btcPrice */\n  0x00\n    /* \"contracts/Oracle/PriceOracleMock.sol\":192:216  btcPrice = 2500000000000 */\n  dup2\n  swap1\n  sstore\n  pop\n    /* \"contracts/Oracle/PriceOracleMock.sol\":233:245  160000000000 */\n  0x2540be4000\n    /* \"contracts/Oracle/PriceOracleMock.sol\":222:230  ethPrice */\n  0x01\n    /* \"contracts/Oracle/PriceOracleMock.sol\":222:245  ethPrice = 160000000000 */\n  dup2\n  swap1\n  sstore\n  pop\n    /* \"contracts/Oracle/PriceOracleMock.sol\":263:272  750000000 */\n  0x2cb41780\n    /* \"contracts/Oracle/PriceOracleMock.sol\":251:260  linkPrice */\n  0x02\n    /* \"contracts/Oracle/PriceOracleMock.sol\":251:272  linkPrice = 750000000 */\n  dup2\n  swap1\n  sstore\n  pop\n    /* \"contracts/Oracle/PriceOracleMock.sol\":57:627  contract PriceOracleMock {... */\n  dataSize(sub_0)\n  dup1\n  dataOffset(sub_0)\n  0x00\n  codecopy\n  0x00\n  return\nstop\n\nsub_0: assembly {\n        /* \"contracts/Oracle/PriceOracleMock.sol\":57:627  contract PriceOracleMock {... */\n      mstore(0x40, 0x80)\n      callvalue\n      dup1\n      iszero\n      tag_1\n      jumpi\n      0x00\n      dup1\n      revert\n    tag_1:\n      pop\n      jumpi(tag_2, lt(calldatasize, 0x04))\n      shr(0xe0, calldataload(0x00))\n      dup1\n      0x09c7a25c\n      eq\n      tag_3\n      jumpi\n      dup1\n      0x0cf78535\n      eq\n      tag_4\n      jumpi\n      dup1\n      0xa8ad52d1\n      eq\n      tag_5\n      jumpi\n      dup1\n      0xbc7dce06\n      eq\n      tag_6\n      jumpi\n      dup1\n      0xeea13ed8\n      eq\n      tag_7\n      jumpi\n      dup1\n      0xff186b2e\n      eq\n      tag_8\n      jumpi\n    tag_2:\n      0x00\n      dup1\n      revert\n        /* \"contracts/Oracle/PriceOracleMock.sol\":281:392  function setBTCPrice(uint256 _price) public returns (uint256) {... */\n    tag_3:\n      tag_9\n      0x04\n      dup1\n      calldatasize\n      sub\n      dup2\n      add\n      swap1\n      tag_10\n      swap2\n      swap1\n      tag_11\n      jump\t// in\n    tag_10:\n      tag_12\n      jump\t// in\n    tag_9:\n      mload(0x40)\n      tag_13\n      swap2\n      swap1\n      tag_14\n      jump\t// in\n    tag_13:\n      mload(0x40)\n      dup1\n      swap2\n      sub\n      swap1\n      return\n        /* \"contracts/Oracle/PriceOracleMock.sol\":140:164  uint256 public linkPrice */\n    tag_4:\n      tag_15\n      tag_16\n      jump\t// in\n    tag_15:\n      mload(0x40)\n      tag_17\n      swap2\n      swap1\n      tag_14\n      jump\t// in\n    tag_17:\n      mload(0x40)\n      dup1\n      swap2\n      sub\n      swap1\n      return\n        /* \"contracts/Oracle/PriceOracleMock.sol\":86:109  uint256 public btcPrice */\n    tag_5:\n      tag_18\n      tag_19\n      jump\t// in\n    tag_18:\n      mload(0x40)\n      tag_20\n      swap2\n      swap1\n      tag_14\n      jump\t// in\n    tag_20:\n      mload(0x40)\n      dup1\n      swap2\n      sub\n      swap1\n      return\n        /* \"contracts/Oracle/PriceOracleMock.sol\":396:507  function setETHPrice(uint256 _price) public returns (uint256) {... */\n    tag_6:\n      tag_21\n      0x04\n      dup1\n      calldatasize\n      sub\n      dup2\n      add\n      swap1\n      tag_22\n      swap2\n      swap1\n      tag_11\n      jump\t// in\n    tag_22:\n      tag_23\n      jump\t// in\n    tag_21:\n      mload(0x40)\n      tag_24\n      swap2\n      swap1\n      tag_14\n      jump\t// in\n    tag_24:\n      mload(0x40)\n      dup1\n      swap2\n      sub\n      swap1\n      return\n        /* \"contracts/Oracle/PriceOracleMock.sol\":511:625  function setLinkPrice(uint256 _price) public returns (uint256) {... */\n    tag_7:\n      tag_25\n      0x04\n      dup1\n      calldatasize\n      sub\n      dup2\n      add\n      swap1\n      tag_26\n      swap2\n      swap1\n      tag_11\n      jump\t// in\n    tag_26:\n      tag_27\n      jump\t// in\n    tag_25:\n      mload(0x40)\n      tag_28\n      swap2\n      swap1\n      tag_14\n      jump\t// in\n    tag_28:\n      mload(0x40)\n      dup1\n      swap2\n      sub\n      swap1\n      return\n        /* \"contracts/Oracle/PriceOracleMock.sol\":113:136  uint256 public ethPrice */\n    tag_8:\n      tag_29\n      tag_30\n      jump\t// in\n    tag_29:\n      mload(0x40)\n      tag_31\n      swap2\n      swap1\n      tag_14\n      jump\t// in\n    tag_31:\n      mload(0x40)\n      dup1\n      swap2\n      sub\n      swap1\n      return\n        /* \"contracts/Oracle/PriceOracleMock.sol\":281:392  function setBTCPrice(uint256 _price) public returns (uint256) {... */\n    tag_12:\n        /* \"contracts/Oracle/PriceOracleMock.sol\":334:341  uint256 */\n      0x00\n        /* \"contracts/Oracle/PriceOracleMock.sol\":360:366  _price */\n      dup2\n        /* \"contracts/Oracle/PriceOracleMock.sol\":349:357  btcPrice */\n      0x00\n        /* \"contracts/Oracle/PriceOracleMock.sol\":349:366  btcPrice = _price */\n      dup2\n      swap1\n      sstore\n      pop\n        /* \"contracts/Oracle/PriceOracleMock.sol\":379:387  btcPrice */\n      sload(0x00)\n        /* \"contracts/Oracle/PriceOracleMock.sol\":372:387  return btcPrice */\n      swap1\n      pop\n        /* \"contracts/Oracle/PriceOracleMock.sol\":281:392  function setBTCPrice(uint256 _price) public returns (uint256) {... */\n      swap2\n      swap1\n      pop\n      jump\t// out\n        /* \"contracts/Oracle/PriceOracleMock.sol\":140:164  uint256 public linkPrice */\n    tag_16:\n      sload(0x02)\n      dup2\n      jump\t// out\n        /* \"contracts/Oracle/PriceOracleMock.sol\":86:109  uint256 public btcPrice */\n    tag_19:\n      sload(0x00)\n      dup2\n      jump\t// out\n        /* \"contracts/Oracle/PriceOracleMock.sol\":396:507  function setETHPrice(uint256 _price) public returns (uint256) {... */\n    tag_23:\n        /* \"contracts/Oracle/PriceOracleMock.sol\":449:456  uint256 */\n      0x00\n        /* \"contracts/Oracle/PriceOracleMock.sol\":475:481  _price */\n      dup2\n        /* \"contracts/Oracle/PriceOracleMock.sol\":464:472  ethPrice */\n      0x01\n        /* \"contracts/Oracle/PriceOracleMock.sol\":464:481  ethPrice = _price */\n      dup2\n      swap1\n      sstore\n      pop\n        /* \"contracts/Oracle/PriceOracleMock.sol\":494:502  ethPrice */\n      sload(0x01)\n        /* \"contracts/Oracle/PriceOracleMock.sol\":487:502  return ethPrice */\n      swap1\n      pop\n        /* \"contracts/Oracle/PriceOracleMock.sol\":396:507  function setETHPrice(uint256 _price) public returns (uint256) {... */\n      swap2\n      swap1\n      pop\n      jump\t// out\n        /* \"contracts/Oracle/PriceOracleMock.sol\":511:625  function setLinkPrice(uint256 _price) public returns (uint256) {... */\n    tag_27:\n        /* \"contracts/Oracle/PriceOracleMock.sol\":565:572  uint256 */\n      0x00\n        /* \"contracts/Oracle/PriceOracleMock.sol\":592:598  _price */\n      dup2\n        /* \"contracts/Oracle/PriceOracleMock.sol\":580:589  linkPrice */\n      0x02\n        /* \"contracts/Oracle/PriceOracleMock.sol\":580:598  linkPrice = _price */\n      dup2\n      swap1\n      sstore\n      pop\n        /* \"contracts/Oracle/PriceOracleMock.sol\":611:620  linkPrice */\n      sload(0x02)\n        /* \"contracts/Oracle/PriceOracleMock.sol\":604:620  return linkPrice */\n      swap1\n      pop\n        /* \"contracts/Oracle/PriceOracleMock.sol\":511:625  function setLinkPrice(uint256 _price) public returns (uint256) {... */\n      swap2\n      swap1\n      pop\n      jump\t// out\n        /* \"contracts/Oracle/PriceOracleMock.sol\":113:136  uint256 public ethPrice */\n    tag_30:\n      sload(0x01)\n      dup2\n      jump\t// out\n        /* \"#utility.yul\":88:205   */\n    tag_36:\n        /* \"#utility.yul\":197:198   */\n      0x00\n        /* \"#utility.yul\":194:195   */\n      dup1\n        /* \"#utility.yul\":187:199   */\n      revert\n        /* \"#utility.yul\":334:411   */\n    tag_38:\n        /* \"#utility.yul\":371:378   */\n      0x00\n        /* \"#utility.yul\":400:405   */\n      dup2\n        /* \"#utility.yul\":389:405   */\n      swap1\n      pop\n        /* \"#utility.yul\":334:411   */\n      swap2\n      swap1\n      pop\n      jump\t// out\n        /* \"#utility.yul\":417:539   */\n    tag_39:\n        /* \"#utility.yul\":490:514   */\n      tag_48\n        /* \"#utility.yul\":508:513   */\n      dup2\n        /* \"#utility.yul\":490:514   */\n      tag_38\n      jump\t// in\n    tag_48:\n        /* \"#utility.yul\":483:488   */\n      dup2\n        /* \"#utility.yul\":480:515   */\n      eq\n        /* \"#utility.yul\":470:533   */\n      tag_49\n      jumpi\n        /* \"#utility.yul\":529:530   */\n      0x00\n        /* \"#utility.yul\":526:527   */\n      dup1\n        /* \"#utility.yul\":519:531   */\n      revert\n        /* \"#utility.yul\":470:533   */\n    tag_49:\n        /* \"#utility.yul\":417:539   */\n      pop\n      jump\t// out\n        /* \"#utility.yul\":545:684   */\n    tag_40:\n        /* \"#utility.yul\":591:596   */\n      0x00\n        /* \"#utility.yul\":629:635   */\n      dup2\n        /* \"#utility.yul\":616:636   */\n      calldataload\n        /* \"#utility.yul\":607:636   */\n      swap1\n      pop\n        /* \"#utility.yul\":645:678   */\n      tag_51\n        /* \"#utility.yul\":672:677   */\n      dup2\n        /* \"#utility.yul\":645:678   */\n      tag_39\n      jump\t// in\n    tag_51:\n        /* \"#utility.yul\":545:684   */\n      swap3\n      swap2\n      pop\n      pop\n      jump\t// out\n        /* \"#utility.yul\":690:1019   */\n    tag_11:\n        /* \"#utility.yul\":749:755   */\n      0x00\n        /* \"#utility.yul\":798:800   */\n      0x20\n        /* \"#utility.yul\":786:795   */\n      dup3\n        /* \"#utility.yul\":777:784   */\n      dup5\n        /* \"#utility.yul\":773:796   */\n      sub\n        /* \"#utility.yul\":769:801   */\n      slt\n        /* \"#utility.yul\":766:885   */\n      iszero\n      tag_53\n      jumpi\n        /* \"#utility.yul\":804:883   */\n      tag_54\n      tag_36\n      jump\t// in\n    tag_54:\n        /* \"#utility.yul\":766:885   */\n    tag_53:\n        /* \"#utility.yul\":924:925   */\n      0x00\n        /* \"#utility.yul\":949:1002   */\n      tag_55\n        /* \"#utility.yul\":994:1001   */\n      dup5\n        /* \"#utility.yul\":985:991   */\n      dup3\n        /* \"#utility.yul\":974:983   */\n      dup6\n        /* \"#utility.yul\":970:992   */\n      add\n        /* \"#utility.yul\":949:1002   */\n      tag_40\n      jump\t// in\n    tag_55:\n        /* \"#utility.yul\":939:1002   */\n      swap2\n      pop\n        /* \"#utility.yul\":895:1012   */\n      pop\n        /* \"#utility.yul\":690:1019   */\n      swap3\n      swap2\n      pop\n      pop\n      jump\t// out\n        /* \"#utility.yul\":1025:1143   */\n    tag_41:\n        /* \"#utility.yul\":1112:1136   */\n      tag_57\n        /* \"#utility.yul\":1130:1135   */\n      dup2\n        /* \"#utility.yul\":1112:1136   */\n      tag_38\n      jump\t// in\n    tag_57:\n        /* \"#utility.yul\":1107:1110   */\n      dup3\n        /* \"#utility.yul\":1100:1137   */\n      mstore\n        /* \"#utility.yul\":1025:1143   */\n      pop\n      pop\n      jump\t// out\n        /* \"#utility.yul\":1149:1371   */\n    tag_14:\n        /* \"#utility.yul\":1242:1246   */\n      0x00\n        /* \"#utility.yul\":1280:1282   */\n      0x20\n        /* \"#utility.yul\":1269:1278   */\n      dup3\n        /* \"#utility.yul\":1265:1283   */\n      add\n        /* \"#utility.yul\":1257:1283   */\n      swap1\n      pop\n        /* \"#utility.yul\":1293:1364   */\n      tag_59\n        /* \"#utility.yul\":1361:1362   */\n      0x00\n        /* \"#utility.yul\":1350:1359   */\n      dup4\n        /* \"#utility.yul\":1346:1363   */\n      add\n        /* \"#utility.yul\":1337:1343   */\n      dup5\n        /* \"#utility.yul\":1293:1364   */\n      tag_41\n      jump\t// in\n    tag_59:\n        /* \"#utility.yul\":1149:1371   */\n      swap3\n      swap2\n      pop\n      pop\n      jump\t// out\n\n    auxdata: 0xa26469706673582212200de439b57d36aca65bebaaeda5cffaff0e13fbda0be9f41d1e5cdabf8391fdca64736f6c634300080a0033\n}\n",
				"bytecode": {
					"linkReferences": {},
					"object": "608060405234801561001057600080fd5b50650246139ca800600081905550642540be4000600181905550632cb41780600281905550610264806100446000396000f3fe608060405234801561001057600080fd5b50600436106100625760003560e01c806309c7a25c146100675780630cf7853514610097578063a8ad52d1146100b5578063bc7dce06146100d3578063eea13ed814610103578063ff186b2e14610133575b600080fd5b610081600480360381019061007c91906101d7565b610151565b60405161008e9190610213565b60405180910390f35b61009f610164565b6040516100ac9190610213565b60405180910390f35b6100bd61016a565b6040516100ca9190610213565b60405180910390f35b6100ed60048036038101906100e891906101d7565b610170565b6040516100fa9190610213565b60405180910390f35b61011d600480360381019061011891906101d7565b610183565b60405161012a9190610213565b60405180910390f35b61013b610196565b6040516101489190610213565b60405180910390f35b6000816000819055506000549050919050565b60025481565b60005481565b6000816001819055506001549050919050565b6000816002819055506002549050919050565b60015481565b600080fd5b6000819050919050565b6101b4816101a1565b81146101bf57600080fd5b50565b6000813590506101d1816101ab565b92915050565b6000602082840312156101ed576101ec61019c565b5b60006101fb848285016101c2565b91505092915050565b61020d816101a1565b82525050565b60006020820190506102286000830184610204565b9291505056fea26469706673582212200de439b57d36aca65bebaaeda5cffaff0e13fbda0be9f41d1e5cdabf8391fdca64736f6c634300080a0033",
					"opcodes": "PUSH1 0x80 PUSH1 0x40 MSTORE CALLVALUE DUP1 ISZERO PUSH2 0x10 JUMPI PUSH1 0x0 DUP1 REVERT JUMPDEST POP PUSH6 0x246139CA800 PUSH1 0x0 DUP2 SWAP1 SSTORE POP PUSH5 0x2540BE4000 PUSH1 0x1 DUP2 SWAP1 SSTORE POP PUSH4 0x2CB41780 PUSH1 0x2 DUP2 SWAP1 SSTORE POP PUSH2 0x264 DUP1 PUSH2 0x44 PUSH1 0x0 CODECOPY PUSH1 0x0 RETURN INVALID PUSH1 0x80 PUSH1 0x40 MSTORE CALLVALUE DUP1 ISZERO PUSH2 0x10 JUMPI PUSH1 0x0 DUP1 REVERT JUMPDEST POP PUSH1 0x4 CALLDATASIZE LT PUSH2 0x62 JUMPI PUSH1 0x0 CALLDATALOAD PUSH1 0xE0 SHR DUP1 PUSH4 0x9C7A25C EQ PUSH2 0x67 JUMPI DUP1 PUSH4 0xCF78535 EQ PUSH2 0x97 JUMPI DUP1 PUSH4 0xA8AD52D1 EQ PUSH2 0xB5 JUMPI DUP1 PUSH4 0xBC7DCE06 EQ PUSH2 0xD3 JUMPI DUP1 PUSH4 0xEEA13ED8 EQ PUSH2 0x103 JUMPI DUP1 PUSH4 0xFF186B2E EQ PUSH2 0x133 JUMPI JUMPDEST PUSH1 0x0 DUP1 REVERT JUMPDEST PUSH2 0x81 PUSH1 0x4 DUP1 CALLDATASIZE SUB DUP2 ADD SWAP1 PUSH2 0x7C SWAP2 SWAP1 PUSH2 0x1D7 JUMP JUMPDEST PUSH2 0x151 JUMP JUMPDEST PUSH1 0x40 MLOAD PUSH2 0x8E SWAP2 SWAP1 PUSH2 0x213 JUMP JUMPDEST PUSH1 0x40 MLOAD DUP1 SWAP2 SUB SWAP1 RETURN JUMPDEST PUSH2 0x9F PUSH2 0x164 JUMP JUMPDEST PUSH1 0x40 MLOAD PUSH2 0xAC SWAP2 SWAP1 PUSH2 0x213 JUMP JUMPDEST PUSH1 0x40 MLOAD DUP1 SWAP2 SUB SWAP1 RETURN JUMPDEST PUSH2 0xBD PUSH2 0x16A JUMP JUMPDEST PUSH1 0x40 MLOAD PUSH2 0xCA SWAP2 SWAP1 PUSH2 0x213 JUMP JUMPDEST PUSH1 0x40 MLOAD DUP1 SWAP2 SUB SWAP1 RETURN JUMPDEST PUSH2 0xED PUSH1 0x4 DUP1 CALLDATASIZE SUB DUP2 ADD SWAP1 PUSH2 0xE8 SWAP2 SWAP1 PUSH2 0x1D7 JUMP JUMPDEST PUSH2 0x170 JUMP JUMPDEST PUSH1 0x40 MLOAD PUSH2 0xFA SWAP2 SWAP1 PUSH2 0x213 JUMP JUMPDEST PUSH1 0x40 MLOAD DUP1 SWAP2 SUB SWAP1 RETURN JUMPDEST PUSH2 0x11D PUSH1 0x4 DUP1 CALLDATASIZE SUB DUP2 ADD SWAP1 PUSH2 0x118 SWAP2 SWAP1 PUSH2 0x1D7 JUMP JUMPDEST PUSH2 0x183 JUMP JUMPDEST PUSH1 0x40 MLOAD PUSH2 0x12A SWAP2 SWAP1 PUSH2 0x213 JUMP JUMPDEST PUSH1 0x40 MLOAD DUP1 SWAP2 SUB SWAP1 RETURN JUMPDEST PUSH2 0x13B PUSH2 0x196 JUMP JUMPDEST PUSH1 0x40 MLOAD PUSH2 0x148 SWAP2 SWAP1 PUSH2 0x213 JUMP JUMPDEST PUSH1 0x40 MLOAD DUP1 SWAP2 SUB SWAP1 RETURN JUMPDEST PUSH1 0x0 DUP2 PUSH1 0x0 DUP2 SWAP1 SSTORE POP PUSH1 0x0 SLOAD SWAP1 POP SWAP2 SWAP1 POP JUMP JUMPDEST PUSH1 0x2 SLOAD DUP2 JUMP JUMPDEST PUSH1 0x0 SLOAD DUP2 JUMP JUMPDEST PUSH1 0x0 DUP2 PUSH1 0x1 DUP2 SWAP1 SSTORE POP PUSH1 0x1 SLOAD SWAP1 POP SWAP2 SWAP1 POP JUMP JUMPDEST PUSH1 0x0 DUP2 PUSH1 0x2 DUP2 SWAP1 SSTORE POP PUSH1 0x2 SLOAD SWAP1 POP SWAP2 SWAP1 POP JUMP JUMPDEST PUSH1 0x1 SLOAD DUP2 JUMP JUMPDEST PUSH1 0x0 DUP1 REVERT JUMPDEST PUSH1 0x0 DUP2 SWAP1 POP SWAP2 SWAP1 POP JUMP JUMPDEST PUSH2 0x1B4 DUP2 PUSH2 0x1A1 JUMP JUMPDEST DUP2 EQ PUSH2 0x1BF JUMPI PUSH1 0x0 DUP1 REVERT JUMPDEST POP JUMP JUMPDEST PUSH1 0x0 DUP2 CALLDATALOAD SWAP1 POP PUSH2 0x1D1 DUP2 PUSH2 0x1AB JUMP JUMPDEST SWAP3 SWAP2 POP POP JUMP JUMPDEST PUSH1 0x0 PUSH1 0x20 DUP3 DUP5 SUB SLT ISZERO PUSH2 0x1ED JUMPI PUSH2 0x1EC PUSH2 0x19C JUMP JUMPDEST JUMPDEST PUSH1 0x0 PUSH2 0x1FB DUP5 DUP3 DUP6 ADD PUSH2 0x1C2 JUMP JUMPDEST SWAP2 POP POP SWAP3 SWAP2 POP POP JUMP JUMPDEST PUSH2 0x20D DUP2 PUSH2 0x1A1 JUMP JUMPDEST DUP3 MSTORE POP POP JUMP JUMPDEST PUSH1 0x0 PUSH1 0x20 DUP3 ADD SWAP1 POP PUSH2 0x228 PUSH1 0x0 DUP4 ADD DUP5 PUSH2 0x204 JUMP JUMPDEST SWAP3 SWAP2 POP POP JUMP INVALID LOG2 PUSH5 0x6970667358 0x22 SLT KECCAK256 0xD 0xE4 CODECOPY 0xB5 PUSH30 0x36ACA65BEBAAEDA5CFFAFF0E13FBDA0BE9F41D1E5CDABF8391FDCA64736F PUSH13 0x634300080A0033000000000000 "
				},
				"gasEstimates": {
					"creation": {
						"codeDepositCost": "122400",
						"executionCost": "66513",
						"totalCost": "188913"
					},
					"external": {
						"btcPrice()": "2451",
						"ethPrice()": "2517",
						"linkPrice()": "2429",
						"setBTCPrice(uint256)": "infinite",
						"setETHPrice(uint256)": "infinite",
						"setLinkPrice(uint256)": "infinite"
					}
				},
				"methodIdentifiers": {
					"btcPrice()": "a8ad52d1",
					"ethPrice()": "ff186b2e",
					"linkPrice()": "0cf78535",
					"setBTCPrice(uint256)": "09c7a25c",
					"setETHPrice(uint256)": "bc7dce06",
					"setLinkPrice(uint256)": "eea13ed8"
				}
			},
			"storageLayout": {
				"storage": [
					{
						"astId": 399,
						"contract": "contracts/Oracle/PriceOracleMock.sol:PriceOracleMock",
						"label": "btcPrice",
						"offset": 0,
						"slot": "0",
						"type": "t_uint256"
					},
					{
						"astId": 401,
						"contract": "contracts/Oracle/PriceOracleMock.sol:PriceOracleMock",
						"label": "ethPrice",
						"offset": 0,
						"slot": "1",
						"type": "t_uint256"
					},
					{
						"astId": 403,
						"contract": "contracts/Oracle/PriceOracleMock.sol:PriceOracleMock",
						"label": "linkPrice",
						"offset": 0,
						"slot": "2",
						"type": "t_uint256"
					}
				],
				"types": {
					"t_uint256": {
						"encoding": "inplace",
						"label": "uint256",
						"numberOfBytes": "32"
					}
				}
			},
			"userdoc": {
				"kind": "user",
				"methods": {},
				"version": 1
			}
		}
	}
}