{
    "contractName": "CDS",
    "abi": [
        {
            "anonymous": false,
            "inputs": [
                {
                    "indexed": true,
                    "internalType": "address",
                    "name": "guestAddr",
                    "type": "address"
                },
                {
                    "indexed": false,
                    "internalType": "uint256",
                    "name": "swapId",
                    "type": "uint256"
                }
            ],
            "name": "Accept",
            "type": "event"
        },
        {
            "anonymous": false,
            "inputs": [
                {
                    "indexed": false,
                    "internalType": "uint256",
                    "name": "swapId",
                    "type": "uint256"
                }
            ],
            "name": "Cancel",
            "type": "event"
        },
        {
            "anonymous": false,
            "inputs": [
                {
                    "indexed": false,
                    "internalType": "uint256",
                    "name": "swapId",
                    "type": "uint256"
                },
                {
                    "indexed": false,
                    "internalType": "uint256",
                    "name": "claimReward",
                    "type": "uint256"
                }
            ],
            "name": "Claim",
            "type": "event"
        },
        {
            "anonymous": false,
            "inputs": [
                {
                    "indexed": false,
                    "internalType": "uint256",
                    "name": "swapId",
                    "type": "uint256"
                }
            ],
            "name": "Close",
            "type": "event"
        },
        {
            "anonymous": false,
            "inputs": [
                {
                    "indexed": true,
                    "internalType": "address",
                    "name": "hostAddr",
                    "type": "address"
                },
                {
                    "indexed": false,
                    "internalType": "bool",
                    "name": "isBuyer",
                    "type": "bool"
                },
                {
                    "indexed": false,
                    "internalType": "uint256",
                    "name": "swapId",
                    "type": "uint256"
                },
                {
                    "indexed": false,
                    "internalType": "uint32",
                    "name": "assetType",
                    "type": "uint32"
                },
                {
                    "indexed": false,
                    "internalType": "address",
                    "name": "swap",
                    "type": "address"
                }
            ],
            "name": "Create",
            "type": "event"
        },
        {
            "anonymous": false,
            "inputs": [
                {
                    "indexed": false,
                    "internalType": "uint256",
                    "name": "swapId",
                    "type": "uint256"
                }
            ],
            "name": "Expire",
            "type": "event"
        },
        {
            "anonymous": false,
            "inputs": [
                {
                    "indexed": true,
                    "internalType": "address",
                    "name": "previousOwner",
                    "type": "address"
                },
                {
                    "indexed": true,
                    "internalType": "address",
                    "name": "newOwner",
                    "type": "address"
                }
            ],
            "name": "OwnershipTransferred",
            "type": "event"
        },
        {
            "anonymous": false,
            "inputs": [
                {
                    "indexed": false,
                    "internalType": "uint256",
                    "name": "swapId",
                    "type": "uint256"
                }
            ],
            "name": "PayPremium",
            "type": "event"
        },
        {
            "inputs": [
                {
                    "internalType": "uint256",
                    "name": "",
                    "type": "uint256"
                },
                {
                    "internalType": "uint256",
                    "name": "",
                    "type": "uint256"
                }
            ],
            "name": "deposits",
            "outputs": [
                {
                    "internalType": "uint256",
                    "name": "",
                    "type": "uint256"
                }
            ],
            "stateMutability": "view",
            "type": "function"
        },
        {
            "inputs": [
                {
                    "internalType": "uint256",
                    "name": "swapId",
                    "type": "uint256"
                }
            ],
            "name": "getBuyer",
            "outputs": [
                {
                    "internalType": "address",
                    "name": "",
                    "type": "address"
                }
            ],
            "stateMutability": "view",
            "type": "function"
        },
        {
            "inputs": [
                {
                    "internalType": "uint256",
                    "name": "swapId",
                    "type": "uint256"
                }
            ],
            "name": "getPremium",
            "outputs": [
                {
                    "internalType": "uint256",
                    "name": "",
                    "type": "uint256"
                }
            ],
            "stateMutability": "view",
            "type": "function"
        },
        {
            "inputs": [
                {
                    "internalType": "uint256",
                    "name": "swapId",
                    "type": "uint256"
                }
            ],
            "name": "getPrices",
            "outputs": [
                {
                    "internalType": "uint256[5]",
                    "name": "",
                    "type": "uint256[5]"
                }
            ],
            "stateMutability": "view",
            "type": "function"
        },
        {
            "inputs": [
                {
                    "internalType": "uint256",
                    "name": "swapId",
                    "type": "uint256"
                }
            ],
            "name": "getRounds",
            "outputs": [
                {
                    "internalType": "uint32",
                    "name": "",
                    "type": "uint32"
                }
            ],
            "stateMutability": "view",
            "type": "function"
        },
        {
            "inputs": [
                {
                    "internalType": "uint256",
                    "name": "swapId",
                    "type": "uint256"
                }
            ],
            "name": "getSeller",
            "outputs": [
                {
                    "internalType": "address",
                    "name": "",
                    "type": "address"
                }
            ],
            "stateMutability": "view",
            "type": "function"
        },
        {
            "inputs": [
                {
                    "internalType": "uint256",
                    "name": "swapId",
                    "type": "uint256"
                }
            ],
            "name": "getSellerDeposit",
            "outputs": [
                {
                    "internalType": "uint256",
                    "name": "",
                    "type": "uint256"
                }
            ],
            "stateMutability": "view",
            "type": "function"
        },
        {
            "inputs": [
                {
                    "internalType": "uint256",
                    "name": "swapId",
                    "type": "uint256"
                }
            ],
            "name": "getStatus",
            "outputs": [
                {
                    "internalType": "enum Swap.Status",
                    "name": "",
                    "type": "uint8"
                }
            ],
            "stateMutability": "view",
            "type": "function"
        },
        {
            "inputs": [
                {
                    "internalType": "uint256",
                    "name": "swapId",
                    "type": "uint256"
                }
            ],
            "name": "getSwap",
            "outputs": [
                {
                    "internalType": "contract Swap",
                    "name": "",
                    "type": "address"
                }
            ],
            "stateMutability": "view",
            "type": "function"
        },
        {
            "inputs": [],
            "name": "getSwapId",
            "outputs": [
                {
                    "components": [
                        {
                            "internalType": "uint256",
                            "name": "_value",
                            "type": "uint256"
                        }
                    ],
                    "internalType": "struct Counters.Counter",
                    "name": "",
                    "type": "tuple"
                }
            ],
            "stateMutability": "view",
            "type": "function"
        },
        {
            "inputs": [
                {
                    "internalType": "uint256",
                    "name": "",
                    "type": "uint256"
                }
            ],
            "name": "nextPayDate",
            "outputs": [
                {
                    "internalType": "uint256",
                    "name": "",
                    "type": "uint256"
                }
            ],
            "stateMutability": "view",
            "type": "function"
        },
        {
            "inputs": [],
            "name": "owner",
            "outputs": [
                {
                    "internalType": "address",
                    "name": "",
                    "type": "address"
                }
            ],
            "stateMutability": "view",
            "type": "function"
        },
        {
            "inputs": [],
            "name": "renounceOwnership",
            "outputs": [],
            "stateMutability": "nonpayable",
            "type": "function"
        },
        {
            "inputs": [],
            "name": "token",
            "outputs": [
                {
                    "internalType": "contract IERC20",
                    "name": "",
                    "type": "address"
                }
            ],
            "stateMutability": "view",
            "type": "function"
        },
        {
            "inputs": [
                {
                    "internalType": "address",
                    "name": "newOwner",
                    "type": "address"
                }
            ],
            "name": "transferOwnership",
            "outputs": [],
            "stateMutability": "nonpayable",
            "type": "function"
        },
        {
            "inputs": [
                {
                    "internalType": "bool",
                    "name": "isBuyer",
                    "type": "bool"
                },
                {
                    "internalType": "uint256",
                    "name": "initAssetPrice",
                    "type": "uint256"
                },
                {
                    "internalType": "uint256",
                    "name": "claimPrice",
                    "type": "uint256"
                },
                {
                    "internalType": "uint256",
                    "name": "liquidationPrice",
                    "type": "uint256"
                },
                {
                    "internalType": "uint256",
                    "name": "sellerDeposit",
                    "type": "uint256"
                },
                {
                    "internalType": "uint256",
                    "name": "premium",
                    "type": "uint256"
                },
                {
                    "internalType": "uint32",
                    "name": "totalRounds",
                    "type": "uint32"
                },
                {
                    "internalType": "uint32",
                    "name": "assetType",
                    "type": "uint32"
                }
            ],
            "name": "create",
            "outputs": [
                {
                    "internalType": "uint256",
                    "name": "",
                    "type": "uint256"
                }
            ],
            "stateMutability": "nonpayable",
            "type": "function"
        },
        {
            "inputs": [
                {
                    "internalType": "uint256",
                    "name": "initAssetPrice",
                    "type": "uint256"
                },
                {
                    "internalType": "uint256",
                    "name": "swapId",
                    "type": "uint256"
                }
            ],
            "name": "accept",
            "outputs": [
                {
                    "internalType": "uint256",
                    "name": "",
                    "type": "uint256"
                }
            ],
            "stateMutability": "nonpayable",
            "type": "function"
        },
        {
            "inputs": [
                {
                    "internalType": "uint256",
                    "name": "swapId",
                    "type": "uint256"
                }
            ],
            "name": "cancel",
            "outputs": [
                {
                    "internalType": "bool",
                    "name": "",
                    "type": "bool"
                }
            ],
            "stateMutability": "nonpayable",
            "type": "function"
        },
        {
            "inputs": [
                {
                    "internalType": "uint256",
                    "name": "swapId",
                    "type": "uint256"
                }
            ],
            "name": "close",
            "outputs": [
                {
                    "internalType": "bool",
                    "name": "",
                    "type": "bool"
                }
            ],
            "stateMutability": "nonpayable",
            "type": "function"
        },
        {
            "inputs": [
                {
                    "internalType": "uint256",
                    "name": "swapId",
                    "type": "uint256"
                }
            ],
            "name": "claim",
            "outputs": [
                {
                    "internalType": "bool",
                    "name": "",
                    "type": "bool"
                }
            ],
            "stateMutability": "nonpayable",
            "type": "function"
        },
        {
            "inputs": [
                {
                    "internalType": "uint256",
                    "name": "swapId",
                    "type": "uint256"
                }
            ],
            "name": "expire",
            "outputs": [
                {
                    "internalType": "bool",
                    "name": "",
                    "type": "bool"
                }
            ],
            "stateMutability": "nonpayable",
            "type": "function"
        },
        {
            "inputs": [
                {
                    "internalType": "uint256",
                    "name": "swapId",
                    "type": "uint256"
                }
            ],
            "name": "payPremium",
            "outputs": [
                {
                    "internalType": "bool",
                    "name": "",
                    "type": "bool"
                }
            ],
            "stateMutability": "nonpayable",
            "type": "function"
        },
        {
            "inputs": [
                {
                    "internalType": "uint256",
                    "name": "swapId",
                    "type": "uint256"
                }
            ],
            "name": "payPremiumByDeposit",
            "outputs": [
                {
                    "internalType": "bool",
                    "name": "",
                    "type": "bool"
                }
            ],
            "stateMutability": "nonpayable",
            "type": "function"
        },
        {
            "inputs": [
                {
                    "internalType": "uint256",
                    "name": "amount",
                    "type": "uint256"
                }
            ],
            "name": "withdraw",
            "outputs": [
                {
                    "internalType": "bool",
                    "name": "",
                    "type": "bool"
                }
            ],
            "stateMutability": "nonpayable",
            "type": "function"
        }
    ],
    "bytecode": "0x60806040523480156200001157600080fd5b5062000032620000266200008d60201b60201c565b6200009560201b60201c565b73be4983558f83cf015be7a68f7f3fe591c151c2b9600460006101000a81548173ffffffffffffffffffffffffffffffffffffffff021916908373ffffffffffffffffffffffffffffffffffffffff16021790555062000159565b600033905090565b60008060009054906101000a900473ffffffffffffffffffffffffffffffffffffffff169050816000806101000a81548173ffffffffffffffffffffffffffffffffffffffff021916908373ffffffffffffffffffffffffffffffffffffffff1602179055508173ffffffffffffffffffffffffffffffffffffffff168173ffffffffffffffffffffffffffffffffffffffff167f8be0079c531659141344cd1fd0a4f28419497f9722a3daafe3b4186f6b6457e060405160405180910390a35050565b615c1780620001696000396000f3fe60806040523480156200001157600080fd5b5060043610620001785760003560e01c80634a0d89ba11620000d55780638da5cb5b11620000875780638da5cb5b146200050b57806391492956146200052d578063bf81bf431462000563578063d6a9de511462000599578063f2fde38b14620005cf578063fc0c546a14620005ef5762000178565b80634a0d89ba14620003f15780635bf608b814620004275780635c622a0e146200045d578063715018a6146200049357806388106323146200049f5780638a614dd514620004d55762000178565b80632e1a7d4d116200012f5780632e1a7d4d14620002c1578063379607f514620002f757806340e58ee5146200032d5780634364b26e146200036357806344a9d2441462000399578063496ab39a14620003cf5762000178565b806309358479146200017d5780630aebeb4e14620001b357806313ef3dcc14620001e95780631bf1fffb146200021f5780632926ea2a14620002555780632bd49780146200028b575b600080fd5b6200019b600480360381019062000195919062002e3e565b62000611565b604051620001aa919062002e96565b60405180910390f35b620001d16004803603810190620001cb919062002eb3565b62000795565b604051620001e0919062002f02565b60405180910390f35b62000207600480360381019062000201919062002eb3565b6200086d565b60405162000216919062002f40565b60405180910390f35b6200023d600480360381019062000237919062002eb3565b6200091b565b6040516200024c919062002e96565b60405180910390f35b6200027360048036038101906200026d919062002eb3565b620009c9565b60405162000282919062002f02565b60405180910390f35b620002a96004803603810190620002a3919062002e3e565b62000a2d565b604051620002b8919062002e96565b60405180910390f35b620002df6004803603810190620002d9919062002eb3565b62000a56565b604051620002ee919062002f02565b60405180910390f35b6200031560048036038101906200030f919062002eb3565b62000b1a565b60405162000324919062002f02565b60405180910390f35b6200034b600480360381019062000345919062002eb3565b62000cb9565b6040516200035a919062002f02565b60405180910390f35b6200038160048036038101906200037b919062002eb3565b62000dd2565b60405162000390919062002f02565b60405180910390f35b620003b76004803603810190620003b1919062002eb3565b62000ea9565b604051620003c6919062002e96565b60405180910390f35b620003d962000ec1565b604051620003e8919062002f8c565b60405180910390f35b6200040f600480360381019062000409919062002eb3565b62000ee7565b6040516200041e919062003034565b60405180910390f35b6200044560048036038101906200043f919062002eb3565b62000f24565b60405162000454919062003076565b60405180910390f35b6200047b600480360381019062000475919062002eb3565b62000fd2565b6040516200048a919062003113565b60405180910390f35b6200049d62001080565b005b620004bd6004803603810190620004b7919062002eb3565b62001098565b604051620004cc919062002e96565b60405180910390f35b620004f36004803603810190620004ed919062003192565b62001146565b60405162000502919062002e96565b60405180910390f35b62000515620011da565b60405162000524919062003076565b60405180910390f35b6200054b600480360381019062000545919062002eb3565b62001203565b6040516200055a919062003305565b60405180910390f35b6200058160048036038101906200057b919062002eb3565b620012b9565b60405162000590919062002f02565b60405180910390f35b620005b76004803603810190620005b1919062002eb3565b62001314565b604051620005c6919062003076565b60405180910390f35b620005ed6004803603810190620005e7919062003353565b620013c2565b005b620005f96200144c565b604051620006089190620033aa565b60405180910390f35b60006200061e8262000f24565b73ffffffffffffffffffffffffffffffffffffffff163373ffffffffffffffffffffffffffffffffffffffff1614158015620006905750620006608262001314565b73ffffffffffffffffffffffffffffffffffffffff163373ffffffffffffffffffffffffffffffffffffffff1614155b620006d2576040517f08c379a0000000000000000000000000000000000000000000000000000000008152600401620006c99062003428565b60405180910390fd5b60008073ffffffffffffffffffffffffffffffffffffffff16620006f68462001314565b73ffffffffffffffffffffffffffffffffffffffff1614905060006200071e82868662001472565b90506200072d84831562001770565b5062000739846200197d565b503373ffffffffffffffffffffffffffffffffffffffff167f68e07974e86f9190b39c5e1783e6ba66b3d0d7ccf507de51450f14e594d168688260405162000782919062002e96565b60405180910390a2809250505092915050565b600081620007a38162000f24565b73ffffffffffffffffffffffffffffffffffffffff163373ffffffffffffffffffffffffffffffffffffffff161462000813576040517f08c379a00000000000000000000000000000000000000000000000000000000081526004016200080a906200349a565b60405180910390fd5b6200081e8362001b79565b620008298362001c85565b507fbf67515a38ee520223d32c1266d52101c30d936ed1f3e436c8caeb0a43cb06bf836040516200085b919062002e96565b60405180910390a16001915050919050565b60006002600083815260200190815260200160002060009054906101000a900473ffffffffffffffffffffffffffffffffffffffff1673ffffffffffffffffffffffffffffffffffffffff1663a2e800ad6040518163ffffffff1660e01b8152600401602060405180830381865afa158015620008ee573d6000803e3d6000fd5b505050506040513d601f19601f82011682018060405250810190620009149190620034d3565b9050919050565b60006002600083815260200190815260200160002060009054906101000a900473ffffffffffffffffffffffffffffffffffffffff1673ffffffffffffffffffffffffffffffffffffffff1663e0a73a936040518163ffffffff1660e01b8152600401602060405180830381865afa1580156200099c573d6000803e3d6000fd5b505050506040513d601f19601f82011682018060405250810190620009c291906200351c565b9050919050565b6000620009d562001e83565b620009e08262001f08565b620009eb82620020b0565b7f73fe46267e05ae56a3625c045df1b74c1b1736a7535eeadef3c57551bfd005998260405162000a1c919062002e96565b60405180910390a160019050919050565b6005602052816000526040600020816002811062000a4a57600080fd5b01600091509150505481565b600062000a6262001e83565b600460009054906101000a900473ffffffffffffffffffffffffffffffffffffffff1673ffffffffffffffffffffffffffffffffffffffff1663a9059cbb62000aaa620011da565b846040518363ffffffff1660e01b815260040162000aca9291906200354e565b6020604051808303816000875af115801562000aea573d6000803e3d6000fd5b505050506040513d601f19601f8201168201806040525081019062000b10919062003592565b5060019050919050565b60008162000b288162000f24565b73ffffffffffffffffffffffffffffffffffffffff163373ffffffffffffffffffffffffffffffffffffffff161462000b98576040517f08c379a000000000000000000000000000000000000000000000000000000000815260040162000b8f906200349a565b60405180910390fd5b600062000ba58462000ee7565b73ffffffffffffffffffffffffffffffffffffffff1663f26cc58e6040518163ffffffff1660e01b8152600401602060405180830381865afa15801562000bf0573d6000803e3d6000fd5b505050506040513d601f19601f8201168201806040525081019062000c1691906200351c565b0362000c59576040517f08c379a000000000000000000000000000000000000000000000000000000000815260040162000c50906200363a565b60405180910390fd5b62000c64836200227b565b600062000c718462002387565b90507f022e3d29644ead4083349ca84d24bcac368b2461819b70f5921fea15de4dec4d848260405162000ca69291906200365c565b60405180910390a1600192505050919050565b60008162000cc78162000f24565b73ffffffffffffffffffffffffffffffffffffffff163373ffffffffffffffffffffffffffffffffffffffff16148062000d36575062000d078162001314565b73ffffffffffffffffffffffffffffffffffffffff163373ffffffffffffffffffffffffffffffffffffffff16145b62000d78576040517f08c379a000000000000000000000000000000000000000000000000000000000815260040162000d6f90620036ff565b60405180910390fd5b62000d83836200263f565b62000d8e8362001c85565b507f8bf30e7ff26833413be5f69e1d373744864d600b664204b4a2f9844a8eedb9ed8360405162000dc0919062002e96565b60405180910390a16001915050919050565b60008162000de08162000f24565b73ffffffffffffffffffffffffffffffffffffffff163373ffffffffffffffffffffffffffffffffffffffff161462000e50576040517f08c379a000000000000000000000000000000000000000000000000000000000815260040162000e47906200349a565b60405180910390fd5b62000e5b8362001f08565b62000e66836200274b565b7f73fe46267e05ae56a3625c045df1b74c1b1736a7535eeadef3c57551bfd005998360405162000e97919062002e96565b60405180910390a16001915050919050565b60036020528060005260406000206000915090505481565b62000ecb62002db1565b6001604051806020016040529081600082015481525050905090565b60006002600083815260200190815260200160002060009054906101000a900473ffffffffffffffffffffffffffffffffffffffff169050919050565b60006002600083815260200190815260200160002060009054906101000a900473ffffffffffffffffffffffffffffffffffffffff1673ffffffffffffffffffffffffffffffffffffffff1663603daf9a6040518163ffffffff1660e01b8152600401602060405180830381865afa15801562000fa5573d6000803e3d6000fd5b505050506040513d601f19601f8201168201806040525081019062000fcb919062003738565b9050919050565b60006002600083815260200190815260200160002060009054906101000a900473ffffffffffffffffffffffffffffffffffffffff1673ffffffffffffffffffffffffffffffffffffffff1663200d2ed26040518163ffffffff1660e01b8152600401602060405180830381865afa15801562001053573d6000803e3d6000fd5b505050506040513d601f19601f8201168201806040525081019062001079919062003792565b9050919050565b6200108a62001e83565b6200109660006200285b565b565b60006002600083815260200190815260200160002060009054906101000a900473ffffffffffffffffffffffffffffffffffffffff1673ffffffffffffffffffffffffffffffffffffffff16634c1786ea6040518163ffffffff1660e01b8152600401602060405180830381865afa15801562001119573d6000803e3d6000fd5b505050506040513d601f19601f820116820180604052508101906200113f91906200351c565b9050919050565b6000806200115b8a8a8a8a8a8a8a8a6200291f565b905062001169818b62001770565b503373ffffffffffffffffffffffffffffffffffffffff167f9eab9cfac223c6527657a8d86c920796a5ab5038bc0f4497038958ac33fa8f838b8386620011b08662000ee7565b604051620011c29493929190620037c4565b60405180910390a28091505098975050505050505050565b60008060009054906101000a900473ffffffffffffffffffffffffffffffffffffffff16905090565b6200120d62002dc4565b6002600083815260200190815260200160002060009054906101000a900473ffffffffffffffffffffffffffffffffffffffff1673ffffffffffffffffffffffffffffffffffffffff1663bd9a548b6040518163ffffffff1660e01b815260040160a060405180830381865afa1580156200128c573d6000803e3d6000fd5b505050506040513d601f19601f82011682018060405250810190620012b2919062003974565b9050919050565b6000620012c68262002af9565b620012d18262001c85565b507fa33fd53ba34795ffefaea3759c71f87d38b89ae12e40bc434c826fae0ca535838260405162001303919062002e96565b60405180910390a160019050919050565b60006002600083815260200190815260200160002060009054906101000a900473ffffffffffffffffffffffffffffffffffffffff1673ffffffffffffffffffffffffffffffffffffffff1663dbd0e1b66040518163ffffffff1660e01b8152600401602060405180830381865afa15801562001395573d6000803e3d6000fd5b505050506040513d601f19601f82011682018060405250810190620013bb919062003738565b9050919050565b620013cc62001e83565b600073ffffffffffffffffffffffffffffffffffffffff168173ffffffffffffffffffffffffffffffffffffffff16036200143e576040517f08c379a0000000000000000000000000000000000000000000000000000000008152600401620014359062003a1c565b60405180910390fd5b62001449816200285b565b50565b600460009054906101000a900473ffffffffffffffffffffffffffffffffffffffff1681565b600081600160048111156200148c576200148b62003093565b5b620014978262000fd2565b6004811115620014ac57620014ab62003093565b5b14620014ef576040517f08c379a0000000000000000000000000000000000000000000000000000000008152600401620014e69062003ab4565b60405180910390fd5b60006002600085815260200190815260200160002060009054906101000a900473ffffffffffffffffffffffffffffffffffffffff1690508073ffffffffffffffffffffffffffffffffffffffff1663bef904e3866040518263ffffffff1660e01b815260040162001562919062002e96565b6020604051808303816000875af115801562001582573d6000803e3d6000fd5b505050506040513d601f19601f82011682018060405250810190620015a891906200351c565b508562001636578073ffffffffffffffffffffffffffffffffffffffff1663a3f09ad6336040518263ffffffff1660e01b8152600401620015ea919062003076565b6020604051808303816000875af11580156200160a573d6000803e3d6000fd5b505050506040513d601f19601f8201168201806040525081019062001630919062003738565b620016b8565b8073ffffffffffffffffffffffffffffffffffffffff1663e99d2866336040518263ffffffff1660e01b815260040162001671919062003076565b6020604051808303816000875af115801562001691573d6000803e3d6000fd5b505050506040513d601f19601f82011682018060405250810190620016b7919062003738565b5b506224ea0042620016ca919062003b05565b60036000868152602001908152602001600020819055508073ffffffffffffffffffffffffffffffffffffffff16632e49d78b60026040518263ffffffff1660e01b81526004016200171d919062003113565b6020604051808303816000875af11580156200173d573d6000803e3d6000fd5b505050506040513d601f19601f8201168201806040525081019062001763919062003792565b5083925050509392505050565b600080821562001883576200179a60046200178b866200091b565b62002d1890919063ffffffff16565b9050600460009054906101000a900473ffffffffffffffffffffffffffffffffffffffff1673ffffffffffffffffffffffffffffffffffffffff166323b872dd620017e58662000f24565b30846040518463ffffffff1660e01b8152600401620018079392919062003b40565b6020604051808303816000875af115801562001827573d6000803e3d6000fd5b505050506040513d601f19601f820116820180604052508101906200184d919062003592565b50806005600086815260200190815260200160002060006002811062001878576200187762003b7d565b5b018190555062001972565b6200188e8462001098565b9050600460009054906101000a900473ffffffffffffffffffffffffffffffffffffffff1673ffffffffffffffffffffffffffffffffffffffff166323b872dd620018d98662001314565b30846040518463ffffffff1660e01b8152600401620018fb9392919062003b40565b6020604051808303816000875af11580156200191b573d6000803e3d6000fd5b505050506040513d601f19601f8201168201806040525081019062001941919062003592565b5080600560008681526020019081526020016000206001600281106200196c576200196b62003b7d565b5b01819055505b600191505092915050565b600080600460009054906101000a900473ffffffffffffffffffffffffffffffffffffffff1673ffffffffffffffffffffffffffffffffffffffff1663a9059cbb620019c98562001314565b620019d4866200091b565b6040518363ffffffff1660e01b8152600401620019f39291906200354e565b6020604051808303816000875af115801562001a13573d6000803e3d6000fd5b505050506040513d601f19601f8201168201806040525081019062001a39919062003592565b90508062001a7e576040517f08c379a000000000000000000000000000000000000000000000000000000000815260040162001a759062003bfc565b60405180910390fd5b62001a89836200091b565b6005600085815260200190815260200160002060006002811062001ab25762001ab162003b7d565b5b01600082825462001ac4919062003c1e565b9250508190555062001ad68362000ee7565b73ffffffffffffffffffffffffffffffffffffffff1663d2895e93600162001afe866200086d565b62001b0a919062003c59565b6040518263ffffffff1660e01b815260040162001b28919062002f40565b6020604051808303816000875af115801562001b48573d6000803e3d6000fd5b505050506040513d601f19601f8201168201806040525081019062001b6e9190620034d3565b506001915050919050565b806002600481111562001b915762001b9062003093565b5b62001b9c8262000fd2565b600481111562001bb15762001bb062003093565b5b1462001bf4576040517f08c379a000000000000000000000000000000000000000000000000000000000815260040162001beb9062003d0e565b60405180910390fd5b62001bff8262000ee7565b73ffffffffffffffffffffffffffffffffffffffff16632e49d78b60046040518263ffffffff1660e01b815260040162001c3a919062003113565b6020604051808303816000875af115801562001c5a573d6000803e3d6000fd5b505050506040513d601f19601f8201168201806040525081019062001c80919062003792565b505050565b600080604051806040016040528062001c9e8562000f24565b73ffffffffffffffffffffffffffffffffffffffff1673ffffffffffffffffffffffffffffffffffffffff16815260200162001cda8562001314565b73ffffffffffffffffffffffffffffffffffffffff1673ffffffffffffffffffffffffffffffffffffffff16815250905060005b6001811162001e6d57600060056000868152602001908152602001600020826002811062001d415762001d4062003b7d565b5b015490506000811462001e56576000600460009054906101000a900473ffffffffffffffffffffffffffffffffffffffff1673ffffffffffffffffffffffffffffffffffffffff1663a9059cbb85856002811062001da45762001da362003b7d565b5b6020020151846040518363ffffffff1660e01b815260040162001dc99291906200354e565b6020604051808303816000875af115801562001de9573d6000803e3d6000fd5b505050506040513d601f19601f8201168201806040525081019062001e0f919062003592565b90508062001e54576040517f08c379a000000000000000000000000000000000000000000000000000000000815260040162001e4b9062003d80565b60405180910390fd5b505b50808062001e649062003da2565b91505062001d0e565b5062001e798362002d30565b6001915050919050565b62001e8d62002d85565b73ffffffffffffffffffffffffffffffffffffffff1662001ead620011da565b73ffffffffffffffffffffffffffffffffffffffff161462001f06576040517f08c379a000000000000000000000000000000000000000000000000000000000815260040162001efd9062003e3f565b60405180910390fd5b565b806002600481111562001f205762001f1f62003093565b5b62001f2b8262000fd2565b600481111562001f405762001f3f62003093565b5b1462001f83576040517f08c379a000000000000000000000000000000000000000000000000000000000815260040162001f7a9062003d0e565b60405180910390fd5b600062001f90836200086d565b63ffffffff161162001fd9576040517f08c379a000000000000000000000000000000000000000000000000000000000815260040162001fd09062003eb1565b60405180910390fd5b6224ea0060036000848152602001908152602001600020600082825462002001919062003b05565b92505081905550620020138262000ee7565b73ffffffffffffffffffffffffffffffffffffffff1663d2895e9360016200203b856200086d565b62002047919062003c59565b6040518263ffffffff1660e01b815260040162002065919062002f40565b6020604051808303816000875af115801562002085573d6000803e3d6000fd5b505050506040513d601f19601f82011682018060405250810190620020ab9190620034d3565b505050565b620020bb816200091b565b60056000838152602001908152602001600020600060028110620020e457620020e362003b7d565b5b015410156200212a576040517f08c379a0000000000000000000000000000000000000000000000000000000008152600401620021219062003f23565b60405180910390fd5b6000600460009054906101000a900473ffffffffffffffffffffffffffffffffffffffff1673ffffffffffffffffffffffffffffffffffffffff1663a9059cbb620021758462001314565b62002180856200091b565b6040518363ffffffff1660e01b81526004016200219f9291906200354e565b6020604051808303816000875af1158015620021bf573d6000803e3d6000fd5b505050506040513d601f19601f82011682018060405250810190620021e5919062003592565b9050806200222a576040517f08c379a0000000000000000000000000000000000000000000000000000000008152600401620022219062003f95565b60405180910390fd5b62002235826200091b565b600560008481526020019081526020016000206000600281106200225e576200225d62003b7d565b5b01600082825462002270919062003c1e565b925050819055505050565b806002600481111562002293576200229262003093565b5b6200229e8262000fd2565b6004811115620022b357620022b262003093565b5b14620022f6576040517f08c379a0000000000000000000000000000000000000000000000000000000008152600401620022ed9062003d0e565b60405180910390fd5b620023018262000ee7565b73ffffffffffffffffffffffffffffffffffffffff16632e49d78b60036040518263ffffffff1660e01b81526004016200233c919062003113565b6020604051808303816000875af11580156200235c573d6000803e3d6000fd5b505050506040513d601f19601f8201168201806040525081019062002382919062003792565b505050565b600080620023958362000ee7565b73ffffffffffffffffffffffffffffffffffffffff1663f26cc58e6040518163ffffffff1660e01b8152600401602060405180830381865afa158015620023e0573d6000803e3d6000fd5b505050506040513d601f19601f820116820180604052508101906200240691906200351c565b90506000600460009054906101000a900473ffffffffffffffffffffffffffffffffffffffff1673ffffffffffffffffffffffffffffffffffffffff1663a9059cbb620024538662000f24565b600560008881526020019081526020016000206000600281106200247c576200247b62003b7d565b5b0154856200248b919062003b05565b6040518363ffffffff1660e01b8152600401620024aa9291906200354e565b6020604051808303816000875af1158015620024ca573d6000803e3d6000fd5b505050506040513d601f19601f82011682018060405250810190620024f0919062003592565b90506000600460009054906101000a900473ffffffffffffffffffffffffffffffffffffffff1673ffffffffffffffffffffffffffffffffffffffff1663a9059cbb6200253d8762001314565b85600560008a815260200190815260200160002060016002811062002567576200256662003b7d565b5b015462002575919062003c1e565b6040518363ffffffff1660e01b8152600401620025949291906200354e565b6020604051808303816000875af1158015620025b4573d6000803e3d6000fd5b505050506040513d601f19601f82011682018060405250810190620025da919062003592565b9050818015620025e75750805b62002629576040517f08c379a0000000000000000000000000000000000000000000000000000000008152600401620026209062004007565b60405180910390fd5b620026348562002d30565b829350505050919050565b806001600481111562002657576200265662003093565b5b620026628262000fd2565b600481111562002677576200267662003093565b5b14620026ba576040517f08c379a0000000000000000000000000000000000000000000000000000000008152600401620026b19062003ab4565b60405180910390fd5b620026c58262000ee7565b73ffffffffffffffffffffffffffffffffffffffff16632e49d78b60006040518263ffffffff1660e01b815260040162002700919062003113565b6020604051808303816000875af115801562002720573d6000803e3d6000fd5b505050506040513d601f19601f8201168201806040525081019062002746919062003792565b505050565b6000600460009054906101000a900473ffffffffffffffffffffffffffffffffffffffff1673ffffffffffffffffffffffffffffffffffffffff166323b872dd620027968462000f24565b620027a18562001314565b620027ac866200091b565b6040518463ffffffff1660e01b8152600401620027cc9392919062003b40565b6020604051808303816000875af1158015620027ec573d6000803e3d6000fd5b505050506040513d601f19601f8201168201806040525081019062002812919062003592565b90508062002857576040517f08c379a00000000000000000000000000000000000000000000000000000000081526004016200284e9062003f95565b60405180910390fd5b5050565b60008060009054906101000a900473ffffffffffffffffffffffffffffffffffffffff169050816000806101000a81548173ffffffffffffffffffffffffffffffffffffffff021916908373ffffffffffffffffffffffffffffffffffffffff1602179055508173ffffffffffffffffffffffffffffffffffffffff168173ffffffffffffffffffffffffffffffffffffffff167f8be0079c531659141344cd1fd0a4f28419497f9722a3daafe3b4186f6b6457e060405160405180910390a35050565b60006200292d600162002d8d565b60006200293b600162002da3565b90506000898989888a8989604051620029549062002de6565b62002966979695949392919062004029565b604051809103906000f08015801562002983573d6000803e3d6000fd5b509050806002600084815260200190815260200160002060006101000a81548173ffffffffffffffffffffffffffffffffffffffff021916908373ffffffffffffffffffffffffffffffffffffffff1602179055508a62002a65578073ffffffffffffffffffffffffffffffffffffffff1663e99d2866336040518263ffffffff1660e01b815260040162002a19919062003076565b6020604051808303816000875af115801562002a39573d6000803e3d6000fd5b505050506040513d601f19601f8201168201806040525081019062002a5f919062003738565b62002ae7565b8073ffffffffffffffffffffffffffffffffffffffff1663a3f09ad6336040518263ffffffff1660e01b815260040162002aa0919062003076565b6020604051808303816000875af115801562002ac0573d6000803e3d6000fd5b505050506040513d601f19601f8201168201806040525081019062002ae6919062003738565b5b50819250505098975050505050505050565b8062002b058162001314565b73ffffffffffffffffffffffffffffffffffffffff163373ffffffffffffffffffffffffffffffffffffffff161462002b75576040517f08c379a000000000000000000000000000000000000000000000000000000000815260040162002b6c90620040f6565b60405180910390fd5b816002600481111562002b8d5762002b8c62003093565b5b62002b988262000fd2565b600481111562002bad5762002bac62003093565b5b1462002bf0576040517f08c379a000000000000000000000000000000000000000000000000000000000815260040162002be79062003d0e565b60405180910390fd5b60008062002bfe856200086d565b63ffffffff161490506000806005600087815260200190815260200160002060006002811062002c335762002c3262003b7d565b5b0154149050808062002c425750815b62002c84576040517f08c379a000000000000000000000000000000000000000000000000000000000815260040162002c7b9062004168565b60405180910390fd5b62002c8f8562000ee7565b73ffffffffffffffffffffffffffffffffffffffff16632e49d78b60046040518263ffffffff1660e01b815260040162002cca919062003113565b6020604051808303816000875af115801562002cea573d6000803e3d6000fd5b505050506040513d601f19601f8201168201806040525081019062002d10919062003792565b505050505050565b6000818362002d2891906200418a565b905092915050565b60005b6001811162002d8157600060056000848152602001908152602001600020826002811062002d665762002d6562003b7d565b5b0181905550808062002d789062003da2565b91505062002d33565b5050565b600033905090565b6001816000016000828254019250508190555050565b600081600001549050919050565b6040518060200160405280600081525090565b6040518060a00160405280600590602082028036833780820191505090505090565b6119f680620041ec83390190565b6000604051905090565b600080fd5b6000819050919050565b62002e188162002e03565b811462002e2457600080fd5b50565b60008135905062002e388162002e0d565b92915050565b6000806040838503121562002e585762002e5762002dfe565b5b600062002e688582860162002e27565b925050602062002e7b8582860162002e27565b9150509250929050565b62002e908162002e03565b82525050565b600060208201905062002ead600083018462002e85565b92915050565b60006020828403121562002ecc5762002ecb62002dfe565b5b600062002edc8482850162002e27565b91505092915050565b60008115159050919050565b62002efc8162002ee5565b82525050565b600060208201905062002f19600083018462002ef1565b92915050565b600063ffffffff82169050919050565b62002f3a8162002f1f565b82525050565b600060208201905062002f57600083018462002f2f565b92915050565b62002f688162002e03565b82525050565b60208201600082015162002f86600085018262002f5d565b50505050565b600060208201905062002fa3600083018462002f6e565b92915050565b600073ffffffffffffffffffffffffffffffffffffffff82169050919050565b6000819050919050565b600062002ff462002fee62002fe88462002fa9565b62002fc9565b62002fa9565b9050919050565b6000620030088262002fd3565b9050919050565b60006200301c8262002ffb565b9050919050565b6200302e816200300f565b82525050565b60006020820190506200304b600083018462003023565b92915050565b60006200305e8262002fa9565b9050919050565b620030708162003051565b82525050565b60006020820190506200308d600083018462003065565b92915050565b7f4e487b7100000000000000000000000000000000000000000000000000000000600052602160045260246000fd5b60058110620030d657620030d562003093565b5b50565b6000819050620030e982620030c2565b919050565b6000620030fb82620030d9565b9050919050565b6200310d81620030ee565b82525050565b60006020820190506200312a600083018462003102565b92915050565b6200313b8162002ee5565b81146200314757600080fd5b50565b6000813590506200315b8162003130565b92915050565b6200316c8162002f1f565b81146200317857600080fd5b50565b6000813590506200318c8162003161565b92915050565b600080600080600080600080610100898b031215620031b657620031b562002dfe565b5b6000620031c68b828c016200314a565b9850506020620031d98b828c0162002e27565b9750506040620031ec8b828c0162002e27565b9650506060620031ff8b828c0162002e27565b9550506080620032128b828c0162002e27565b94505060a0620032258b828c0162002e27565b93505060c0620032388b828c016200317b565b92505060e06200324b8b828c016200317b565b9150509295985092959890939650565b600060059050919050565b600081905092915050565b6000819050919050565b600062003289838362002f5d565b60208301905092915050565b6000602082019050919050565b620032ad816200325b565b620032b9818462003266565b9250620032c68262003271565b8060005b83811015620032fd578151620032e187826200327b565b9650620032ee8362003295565b925050600181019050620032ca565b505050505050565b600060a0820190506200331c6000830184620032a2565b92915050565b6200332d8162003051565b81146200333957600080fd5b50565b6000813590506200334d8162003322565b92915050565b6000602082840312156200336c576200336b62002dfe565b5b60006200337c848285016200333c565b91505092915050565b6000620033928262002ffb565b9050919050565b620033a48162003385565b82525050565b6000602082019050620033c1600083018462003399565b92915050565b600082825260208201905092915050565b7f54686520686f73742063616e206e6f742063616c6c20746865206d6574686f64600082015250565b600062003410602083620033c7565b91506200341d82620033d8565b602082019050919050565b60006020820190508181036000830152620034438162003401565b9050919050565b7f4f6e6c79206275796572206f6620746865204344532063616e2063616c6c0000600082015250565b600062003482601e83620033c7565b91506200348f826200344a565b602082019050919050565b60006020820190508181036000830152620034b58162003473565b9050919050565b600081519050620034cd8162003161565b92915050565b600060208284031215620034ec57620034eb62002dfe565b5b6000620034fc84828501620034bc565b91505092915050565b600081519050620035168162002e0d565b92915050565b60006020828403121562003535576200353462002dfe565b5b6000620035458482850162003505565b91505092915050565b600060408201905062003565600083018562003065565b62003574602083018462002e85565b9392505050565b6000815190506200358c8162003130565b92915050565b600060208284031215620035ab57620035aa62002dfe565b5b6000620035bb848285016200357b565b91505092915050565b7f43757272656e7420707269636520697320686967686572207468616e2074686560008201527f20636c61696d20707269636520696e2043445300000000000000000000000000602082015250565b600062003622603383620033c7565b91506200362f82620035c4565b604082019050919050565b60006020820190508181036000830152620036558162003613565b9050919050565b600060408201905062003673600083018562002e85565b62003682602083018462002e85565b9392505050565b7f4f6e6c792062757965722f73656c6c6572206f6620746865204344532063616e60008201527f2063616c6c000000000000000000000000000000000000000000000000000000602082015250565b6000620036e7602583620033c7565b9150620036f48262003689565b604082019050919050565b600060208201905081810360008301526200371a81620036d8565b9050919050565b600081519050620037328162003322565b92915050565b60006020828403121562003751576200375062002dfe565b5b6000620037618482850162003721565b91505092915050565b600581106200377857600080fd5b50565b6000815190506200378c816200376a565b92915050565b600060208284031215620037ab57620037aa62002dfe565b5b6000620037bb848285016200377b565b91505092915050565b6000608082019050620037db600083018762002ef1565b620037ea602083018662002e85565b620037f9604083018562002f2f565b62003808606083018462003065565b95945050505050565b600080fd5b6000601f19601f8301169050919050565b7f4e487b7100000000000000000000000000000000000000000000000000000000600052604160045260246000fd5b620038618262003816565b810181811067ffffffffffffffff8211171562003883576200388262003827565b5b80604052505050565b60006200389862002df4565b9050620038a6828262003856565b919050565b600067ffffffffffffffff821115620038c957620038c862003827565b5b602082029050919050565b600080fd5b6000620038f0620038ea84620038ab565b6200388c565b905080602084028301858111156200390d576200390c620038d4565b5b835b818110156200393a578062003925888262003505565b8452602084019350506020810190506200390f565b5050509392505050565b600082601f8301126200395c576200395b62003811565b5b60056200396b848285620038d9565b91505092915050565b600060a082840312156200398d576200398c62002dfe565b5b60006200399d8482850162003944565b91505092915050565b7f4f776e61626c653a206e6577206f776e657220697320746865207a65726f206160008201527f6464726573730000000000000000000000000000000000000000000000000000602082015250565b600062003a04602683620033c7565b915062003a1182620039a6565b604082019050919050565b6000602082019050818103600083015262003a3781620039f5565b9050919050565b7f54686520737461747573206f6620746865204344532073686f756c642062652060008201527f70656e64696e6700000000000000000000000000000000000000000000000000602082015250565b600062003a9c602783620033c7565b915062003aa98262003a3e565b604082019050919050565b6000602082019050818103600083015262003acf8162003a8d565b9050919050565b7f4e487b7100000000000000000000000000000000000000000000000000000000600052601160045260246000fd5b600062003b128262002e03565b915062003b1f8362002e03565b925082820190508082111562003b3a5762003b3962003ad6565b5b92915050565b600060608201905062003b57600083018662003065565b62003b66602083018562003065565b62003b75604083018462002e85565b949350505050565b7f4e487b7100000000000000000000000000000000000000000000000000000000600052603260045260246000fd5b7f53656e64696e67206669727374207072656d69756d206661696c656400000000600082015250565b600062003be4601c83620033c7565b915062003bf18262003bac565b602082019050919050565b6000602082019050818103600083015262003c178162003bd5565b9050919050565b600062003c2b8262002e03565b915062003c388362002e03565b925082820390508181111562003c535762003c5262003ad6565b5b92915050565b600062003c668262002f1f565b915062003c738362002f1f565b9250828203905063ffffffff81111562003c925762003c9162003ad6565b5b92915050565b7f54686520737461747573206f6620746865204344532073686f756c642062652060008201527f6163746976650000000000000000000000000000000000000000000000000000602082015250565b600062003cf6602683620033c7565b915062003d038262003c98565b604082019050919050565b6000602082019050818103600083015262003d298162003ce7565b9050919050565b7f53656e64696e67206465706f736974206261636b206661696c65640000000000600082015250565b600062003d68601b83620033c7565b915062003d758262003d30565b602082019050919050565b6000602082019050818103600083015262003d9b8162003d59565b9050919050565b600062003daf8262002e03565b91507fffffffffffffffffffffffffffffffffffffffffffffffffffffffffffffffff820362003de45762003de362003ad6565b5b600182019050919050565b7f4f776e61626c653a2063616c6c6572206973206e6f7420746865206f776e6572600082015250565b600062003e27602083620033c7565b915062003e348262003def565b602082019050919050565b6000602082019050818103600083015262003e5a8162003e18565b9050919050565b7f526f756e6420616c726561647920656e64656400000000000000000000000000600082015250565b600062003e99601383620033c7565b915062003ea68262003e61565b602082019050919050565b6000602082019050818103600083015262003ecc8162003e8a565b9050919050565b7f4e6f7420656e6f756768206465706f7369740000000000000000000000000000600082015250565b600062003f0b601283620033c7565b915062003f188262003ed3565b602082019050919050565b6000602082019050818103600083015262003f3e8162003efc565b9050919050565b7f53656e64696e67207072656d69756d206661696c656400000000000000000000600082015250565b600062003f7d601683620033c7565b915062003f8a8262003f45565b602082019050919050565b6000602082019050818103600083015262003fb08162003f6e565b9050919050565b7f53656e64696e6720726577617264206661696c65640000000000000000000000600082015250565b600062003fef601583620033c7565b915062003ffc8262003fb7565b602082019050919050565b60006020820190508181036000830152620040228162003fe0565b9050919050565b600060e08201905062004040600083018a62002e85565b6200404f602083018962002e85565b6200405e604083018862002e85565b6200406d606083018762002e85565b6200407c608083018662002e85565b6200408b60a083018562002f2f565b6200409a60c083018462002f2f565b98975050505050505050565b7f4f6e6c792073656c6c6572206f6620746865204344532063616e2063616c6c00600082015250565b6000620040de601f83620033c7565b9150620040eb82620040a6565b602082019050919050565b600060208201905081810360008301526200411181620040cf565b9050919050565b7f4275796572206465706f736974202f20526f756e64732072656d61696e696e67600082015250565b600062004150602083620033c7565b91506200415d8262004118565b602082019050919050565b60006020820190508181036000830152620041838162004141565b9050919050565b6000620041978262002e03565b9150620041a48362002e03565b9250817fffffffffffffffffffffffffffffffffffffffffffffffffffffffffffffffff0483118215151615620041e057620041df62003ad6565b5b82820290509291505056fe60806040523480156200001157600080fd5b50604051620019f6380380620019f6833981810160405281019062000037919062000444565b620000576200004b6200028960201b60201c565b6200029160201b60201c565b7363aee035a950875179befa3d298948b0f6061acf600160006101000a81548173ffffffffffffffffffffffffffffffffffffffff021916908373ffffffffffffffffffffffffffffffffffffffff160217905550866003819055508560048190555084600581905550836006819055508260078190555081600a60146101000a81548163ffffffff021916908363ffffffff16021790555081600a60186101000a81548163ffffffff021916908363ffffffff160217905550620001336005546007546003546200035560201b62000a1e179092919060201c565b60088190555060008163ffffffff16148062000155575060018163ffffffff16145b8062000167575060028163ffffffff16145b620001a9576040517f08c379a0000000000000000000000000000000000000000000000000000000008152600401620001a09062000558565b60405180910390fd5b80600a601c6101000a81548163ffffffff021916908363ffffffff1602179055506000600960006101000a81548173ffffffffffffffffffffffffffffffffffffffff021916908373ffffffffffffffffffffffffffffffffffffffff1602179055506000600a60006101000a81548173ffffffffffffffffffffffffffffffffffffffff021916908373ffffffffffffffffffffffffffffffffffffffff1602179055506001600260146101000a81548160ff021916908360048111156200027757620002766200057a565b5b0217905550505050505050506200067a565b600033905090565b60008060009054906101000a900473ffffffffffffffffffffffffffffffffffffffff169050816000806101000a81548173ffffffffffffffffffffffffffffffffffffffff021916908373ffffffffffffffffffffffffffffffffffffffff1602179055508173ffffffffffffffffffffffffffffffffffffffff168173ffffffffffffffffffffffffffffffffffffffff167f8be0079c531659141344cd1fd0a4f28419497f9722a3daafe3b4186f6b6457e060405160405180910390a35050565b60006200038a6200037584866200039360201b62000a4e1790919060201c565b83620003ab60201b62000a641790919060201c565b90509392505050565b60008183620003a39190620005d8565b905092915050565b60008183620003bb919062000642565b905092915050565b600080fd5b6000819050919050565b620003dd81620003c8565b8114620003e957600080fd5b50565b600081519050620003fd81620003d2565b92915050565b600063ffffffff82169050919050565b6200041e8162000403565b81146200042a57600080fd5b50565b6000815190506200043e8162000413565b92915050565b600080600080600080600060e0888a031215620004665762000465620003c3565b5b6000620004768a828b01620003ec565b9750506020620004898a828b01620003ec565b96505060406200049c8a828b01620003ec565b9550506060620004af8a828b01620003ec565b9450506080620004c28a828b01620003ec565b93505060a0620004d58a828b016200042d565b92505060c0620004e88a828b016200042d565b91505092959891949750929550565b600082825260208201905092915050565b7f4254433a302c204554483a312c204c494e4b3a32000000000000000000000000600082015250565b600062000540601483620004f7565b91506200054d8262000508565b602082019050919050565b60006020820190508181036000830152620005738162000531565b9050919050565b7f4e487b7100000000000000000000000000000000000000000000000000000000600052602160045260246000fd5b7f4e487b7100000000000000000000000000000000000000000000000000000000600052601160045260246000fd5b6000620005e582620003c8565b9150620005f283620003c8565b92508282039050818111156200060d576200060c620005a9565b5b92915050565b7f4e487b7100000000000000000000000000000000000000000000000000000000600052601260045260246000fd5b60006200064f82620003c8565b91506200065c83620003c8565b9250826200066f576200066e62000613565b5b828204905092915050565b61136c806200068a6000396000f3fe608060405234801561001057600080fd5b50600436106101735760003560e01c8063a2e800ad116100de578063d2895e9311610097578063e0a73a9311610071578063e0a73a9314610422578063e99d286614610440578063f26cc58e14610470578063f2fde38b1461048e57610173565b8063d2895e93146103b6578063dbd0e1b6146103e6578063dd22db801461040457610173565b8063a2e800ad146102de578063a3f09ad6146102fc578063a607a8d91461032c578063b6fc2d5f1461034a578063bd9a548b14610368578063bef904e31461038657610173565b8063603daf9a11610130578063603daf9a1461023e578063715018a61461025c578063762db7ee1461026657806386be75b7146102845780638a568299146102a25780638da5cb5b146102c057610173565b806315d655c914610178578063200d2ed2146101965780632dddd49c146101b45780632e49d78b146101d25780633fe3347a146102025780634c1786ea14610220575b600080fd5b6101806104aa565b60405161018d9190610d5d565b60405180910390f35b61019e6104b0565b6040516101ab9190610def565b60405180910390f35b6101bc6104c3565b6040516101c99190610d5d565b60405180910390f35b6101ec60048036038101906101e79190610e34565b610560565b6040516101f99190610def565b60405180910390f35b61020a6105ab565b6040516102179190610e80565b60405180910390f35b6102286105c1565b6040516102359190610d5d565b60405180910390f35b6102466105c7565b6040516102539190610edc565b60405180910390f35b6102646105f1565b005b61026e610605565b60405161027b9190610d5d565b60405180910390f35b61028c61060b565b6040516102999190610d5d565b60405180910390f35b6102aa610611565b6040516102b79190610e80565b60405180910390f35b6102c8610627565b6040516102d59190610edc565b60405180910390f35b6102e6610650565b6040516102f39190610e80565b60405180910390f35b61031660048036038101906103119190610f23565b610666565b6040516103239190610edc565b60405180910390f35b6103346106db565b6040516103419190610d5d565b60405180910390f35b610352610778565b60405161035f9190610d5d565b60405180910390f35b61037061077e565b60405161037d9190610ffb565b60405180910390f35b6103a0600480360381019061039b9190611042565b6107bc565b6040516103ad9190610d5d565b60405180910390f35b6103d060048036038101906103cb919061109b565b6107cf565b6040516103dd9190610e80565b60405180910390f35b6103ee610814565b6040516103fb9190610edc565b60405180910390f35b61040c61083e565b6040516104199190610d5d565b60405180910390f35b61042a6108db565b6040516104379190610d5d565b60405180910390f35b61045a60048036038101906104559190610f23565b6108e1565b6040516104679190610edc565b60405180910390f35b610478610956565b6040516104859190610d5d565b60405180910390f35b6104a860048036038101906104a39190610f23565b61099b565b005b60045481565b600260149054906101000a900460ff1681565b600080600160009054906101000a900473ffffffffffffffffffffffffffffffffffffffff1673ffffffffffffffffffffffffffffffffffffffff16630cf785356040518163ffffffff1660e01b8152600401602060405180830381865afa158015610533573d6000803e3d6000fd5b505050506040513d601f19601f8201168201806040525081019061055791906110dd565b90508091505090565b600061056a610a7a565b81600260146101000a81548160ff0219169083600481111561058f5761058e610d78565b5b0217905550600260149054906101000a900460ff169050919050565b600a601c9054906101000a900463ffffffff1681565b60075481565b6000600960009054906101000a900473ffffffffffffffffffffffffffffffffffffffff16905090565b6105f9610a7a565b6106036000610af8565b565b60085481565b60035481565b600a60189054906101000a900463ffffffff1681565b60008060009054906101000a900473ffffffffffffffffffffffffffffffffffffffff16905090565b600a60149054906101000a900463ffffffff1681565b6000610670610a7a565b81600960006101000a81548173ffffffffffffffffffffffffffffffffffffffff021916908373ffffffffffffffffffffffffffffffffffffffff160217905550600960009054906101000a900473ffffffffffffffffffffffffffffffffffffffff169050919050565b600080600160009054906101000a900473ffffffffffffffffffffffffffffffffffffffff1673ffffffffffffffffffffffffffffffffffffffff1663ff186b2e6040518163ffffffff1660e01b8152600401602060405180830381865afa15801561074b573d6000803e3d6000fd5b505050506040513d601f19601f8201168201806040525081019061076f91906110dd565b90508091505090565b60055481565b610786610d22565b6040518060a001604052806003548152602001600454815260200160055481526020016006548152602001600754815250905090565b6000816003819055506003549050919050565b60006107d9610a7a565b81600a60146101000a81548163ffffffff021916908363ffffffff160217905550600a60149054906101000a900463ffffffff169050919050565b6000600a60009054906101000a900473ffffffffffffffffffffffffffffffffffffffff16905090565b600080600160009054906101000a900473ffffffffffffffffffffffffffffffffffffffff1673ffffffffffffffffffffffffffffffffffffffff1663a8ad52d16040518163ffffffff1660e01b8152600401602060405180830381865afa1580156108ae573d6000803e3d6000fd5b505050506040513d601f19601f820116820180604052508101906108d291906110dd565b90508091505090565b60065481565b60006108eb610a7a565b81600a60006101000a81548173ffffffffffffffffffffffffffffffffffffffff021916908373ffffffffffffffffffffffffffffffffffffffff160217905550600a60009054906101000a900473ffffffffffffffffffffffffffffffffffffffff169050919050565b600080610961610bbc565b9050806004541015610977576000915050610998565b61099460055460035483600754610c94909392919063ffffffff16565b9150505b90565b6109a3610a7a565b600073ffffffffffffffffffffffffffffffffffffffff168173ffffffffffffffffffffffffffffffffffffffff1603610a12576040517f08c379a0000000000000000000000000000000000000000000000000000000008152600401610a099061118d565b60405180910390fd5b610a1b81610af8565b50565b6000610a45610a368486610a4e90919063ffffffff16565b83610a6490919063ffffffff16565b90509392505050565b60008183610a5c91906111dc565b905092915050565b60008183610a72919061123f565b905092915050565b610a82610d04565b73ffffffffffffffffffffffffffffffffffffffff16610aa0610627565b73ffffffffffffffffffffffffffffffffffffffff1614610af6576040517f08c379a0000000000000000000000000000000000000000000000000000000008152600401610aed906112bc565b60405180910390fd5b565b60008060009054906101000a900473ffffffffffffffffffffffffffffffffffffffff169050816000806101000a81548173ffffffffffffffffffffffffffffffffffffffff021916908373ffffffffffffffffffffffffffffffffffffffff1602179055508173ffffffffffffffffffffffffffffffffffffffff168173ffffffffffffffffffffffffffffffffffffffff167f8be0079c531659141344cd1fd0a4f28419497f9722a3daafe3b4186f6b6457e060405160405180910390a35050565b600080600a601c9054906101000a900463ffffffff1663ffffffff1603610c0257610bfb6305f5e100610bed61083e565b610a6490919063ffffffff16565b9050610c91565b6001600a601c9054906101000a900463ffffffff1663ffffffff1603610c4757610c406305f5e100610c326106db565b610a6490919063ffffffff16565b9050610c91565b6002600a601c9054906101000a900463ffffffff1663ffffffff1603610c8c57610c856305f5e100610c776104c3565b610a6490919063ffffffff16565b9050610c91565b600090505b90565b600080828510610ca657859050610cf8565b6000610ccd610cbe8787610a4e90919063ffffffff16565b88610a6490919063ffffffff16565b9050610cf4610ce58587610a4e90919063ffffffff16565b82610d0c90919063ffffffff16565b9150505b80915050949350505050565b600033905090565b60008183610d1a91906112dc565b905092915050565b6040518060a00160405280600590602082028036833780820191505090505090565b6000819050919050565b610d5781610d44565b82525050565b6000602082019050610d726000830184610d4e565b92915050565b7f4e487b7100000000000000000000000000000000000000000000000000000000600052602160045260246000fd5b60058110610db857610db7610d78565b5b50565b6000819050610dc982610da7565b919050565b6000610dd982610dbb565b9050919050565b610de981610dce565b82525050565b6000602082019050610e046000830184610de0565b92915050565b600080fd5b60058110610e1c57600080fd5b50565b600081359050610e2e81610e0f565b92915050565b600060208284031215610e4a57610e49610e0a565b5b6000610e5884828501610e1f565b91505092915050565b600063ffffffff82169050919050565b610e7a81610e61565b82525050565b6000602082019050610e956000830184610e71565b92915050565b600073ffffffffffffffffffffffffffffffffffffffff82169050919050565b6000610ec682610e9b565b9050919050565b610ed681610ebb565b82525050565b6000602082019050610ef16000830184610ecd565b92915050565b610f0081610ebb565b8114610f0b57600080fd5b50565b600081359050610f1d81610ef7565b92915050565b600060208284031215610f3957610f38610e0a565b5b6000610f4784828501610f0e565b91505092915050565b600060059050919050565b600081905092915050565b6000819050919050565b610f7981610d44565b82525050565b6000610f8b8383610f70565b60208301905092915050565b6000602082019050919050565b610fad81610f50565b610fb78184610f5b565b9250610fc282610f66565b8060005b83811015610ff3578151610fda8782610f7f565b9650610fe583610f97565b925050600181019050610fc6565b505050505050565b600060a0820190506110106000830184610fa4565b92915050565b61101f81610d44565b811461102a57600080fd5b50565b60008135905061103c81611016565b92915050565b60006020828403121561105857611057610e0a565b5b60006110668482850161102d565b91505092915050565b61107881610e61565b811461108357600080fd5b50565b6000813590506110958161106f565b92915050565b6000602082840312156110b1576110b0610e0a565b5b60006110bf84828501611086565b91505092915050565b6000815190506110d781611016565b92915050565b6000602082840312156110f3576110f2610e0a565b5b6000611101848285016110c8565b91505092915050565b600082825260208201905092915050565b7f4f776e61626c653a206e6577206f776e657220697320746865207a65726f206160008201527f6464726573730000000000000000000000000000000000000000000000000000602082015250565b600061117760268361110a565b91506111828261111b565b604082019050919050565b600060208201905081810360008301526111a68161116a565b9050919050565b7f4e487b7100000000000000000000000000000000000000000000000000000000600052601160045260246000fd5b60006111e782610d44565b91506111f283610d44565b925082820390508181111561120a576112096111ad565b5b92915050565b7f4e487b7100000000000000000000000000000000000000000000000000000000600052601260045260246000fd5b600061124a82610d44565b915061125583610d44565b92508261126557611264611210565b5b828204905092915050565b7f4f776e61626c653a2063616c6c6572206973206e6f7420746865206f776e6572600082015250565b60006112a660208361110a565b91506112b182611270565b602082019050919050565b600060208201905081810360008301526112d581611299565b9050919050565b60006112e782610d44565b91506112f283610d44565b9250817fffffffffffffffffffffffffffffffffffffffffffffffffffffffffffffffff048311821515161561132b5761132a6111ad565b5b82820290509291505056fea2646970667358221220eea5be427ddfcff1f801f7b144e68f3e95b277e8c05eb76904ce134961b66c5864736f6c63430008100033a264697066735822122072d9a6ac233269dc1bc7b2ed67477515582717a714c628b5e6eb567d8d8155e564736f6c63430008100033",
    "immutableReferences": {},
    "source": "// SPDX-License-Identifier: MIT\npragma solidity ^0.8.7;\n\nimport './Handler/AssetHandler.sol';\n\ninterface CDSInterface {\n  function create(\n    bool isBuyer,\n    uint256 initAssetPrice,\n    uint256 claimPrice,\n    uint256 liquidationPrice,\n    uint256 sellerDeposit,\n    uint256 premium,\n    uint32 totalRounds,\n    uint32 assetType\n  ) external returns (uint256);\n\n  function accept(\n    uint256 initAssetPrice,\n    uint256 swapId\n  ) external returns (uint256);\n\n  function cancel(uint256 swapId) external returns (bool);\n\n  function close(uint256 swapId) external returns (bool);\n\n  function claim(uint256 swapId) external returns (bool);\n\n  function expire(uint256 swapId) external returns (bool);\n\n  function payPremium(uint256 swapId) external returns (bool);\n\n  function payPremiumByDeposit(\n    uint256 swapId\n  ) external returns (bool);\n\n  function withdraw(uint256 amount) external returns (bool);\n\n  event Create(\n    address indexed hostAddr,\n    bool isBuyer,\n    uint256 swapId,\n    uint32 assetType,\n    address swap\n  );\n  event Accept(address indexed guestAddr, uint256 swapId);\n  event Cancel(uint256 swapId);\n  event Claim(uint256 swapId, uint256 claimReward);\n  event Close(uint256 swapId);\n  event Expire(uint256 swapId);\n  event PayPremium(uint256 swapId);\n}\n\ncontract CDS is AssetHandler, CDSInterface {\n  // transactions\n  function create(\n    bool isBuyer,\n    uint256 initAssetPrice,\n    uint256 claimPrice,\n    uint256 liquidationPrice,\n    uint256 sellerDeposit,\n    uint256 premium,\n    uint32 totalRounds,\n    uint32 assetType\n  ) external override returns (uint256) {\n    uint256 newSwapId = _create(\n      isBuyer,\n      initAssetPrice,\n      claimPrice,\n      liquidationPrice,\n      sellerDeposit,\n      premium,\n      totalRounds,\n      assetType\n    );\n    _sendDeposit(newSwapId, isBuyer);\n    emit Create(\n      msg.sender,\n      isBuyer,\n      newSwapId,\n      assetType,\n      address(getSwap(newSwapId))\n    );\n    return newSwapId;\n  }\n\n  function accept(\n    uint256 initAssetPrice,\n    uint256 swapId\n  ) external override returns (uint256) {\n    require(\n      msg.sender != getBuyer(swapId) && msg.sender != getSeller(swapId),\n      'The host can not call the method'\n    );\n    bool isSeller = (getSeller(swapId) == address(0));\n    uint256 acceptedSwapId = _accept(isSeller, initAssetPrice, swapId);\n    _sendDeposit(swapId, !isSeller);\n    _sendFirstPremium(swapId);\n    emit Accept(msg.sender, acceptedSwapId);\n    return acceptedSwapId;\n  }\n\n  function cancel(\n    uint256 swapId\n  ) external override isParticipants(swapId) returns (bool) {\n    _cancel(swapId);\n    _endSwap(swapId);\n    emit Cancel(swapId);\n    return true;\n  }\n\n  function close(\n    uint256 swapId\n  ) external override isBuyer(swapId) returns (bool) {\n    _close(swapId);\n    _endSwap(swapId);\n    emit Close(swapId);\n    return true;\n  }\n\n  function claim(\n    uint256 swapId\n  ) external override isBuyer(swapId) returns (bool) {\n    require(\n      getSwap(swapId).getClaimReward() != 0,\n      'Current price is higher than the claim price in CDS'\n    );\n    _claim(swapId);\n    uint256 claimReward = _afterClaim(swapId);\n    emit Claim(swapId, claimReward);\n    return true;\n  }\n\n  function expire(uint256 swapId) external override returns (bool) {\n    _expire(swapId);\n    _endSwap(swapId);\n    emit Expire(swapId);\n    return true;\n  }\n\n  function payPremium(\n    uint256 swapId\n  ) external override isBuyer(swapId) returns (bool) {\n    _payPremium(swapId);\n    _sendPremium(swapId);\n    emit PayPremium(swapId);\n    return true;\n  }\n\n  function payPremiumByDeposit(\n    uint256 swapId\n  ) external override onlyOwner returns (bool) {\n    _payPremium(swapId);\n    _sendPremiumByDeposit(swapId);\n    emit PayPremium(swapId);\n    return true;\n  }\n\n  function withdraw(uint256 amount) external override onlyOwner returns (bool) {\n    token.transfer(owner(), amount);\n    return true;\n  }\n}\n",
    "sourcePath": "/Users/sdh/Study/BEB_07/projects/CDS/contract/contracts/CDS.sol",
    "compiler": {
        "name": "solc",
        "version": "0.8.16+commit.07a7930e.Emscripten.clang"
    },
    "schemaVersion": "3.4.9",
    "updatedAt": "2023-02-10T09:57:24.972Z",
    "devdoc": {
        "kind": "dev",
        "methods": {
            "owner()": {
                "details": "Returns the address of the current owner."
            },
            "renounceOwnership()": {
                "details": "Leaves the contract without owner. It will not be possible to call `onlyOwner` functions anymore. Can only be called by the current owner. NOTE: Renouncing ownership will leave the contract without an owner, thereby removing any functionality that is only available to the owner."
            },
            "transferOwnership(address)": {
                "details": "Transfers ownership of the contract to a new account (`newOwner`). Can only be called by the current owner."
            }
        },
        "version": 1
    },
    "userdoc": {
        "kind": "user",
        "methods": {},
        "version": 1
    }
}