{
	"contracts/Handler/SwapFactory.sol": {
		"SwapHandler": {
			"abi": [
				{
					"anonymous": false,
					"inputs": [
						{
							"indexed": true,
							"internalType": "address",
							"name": "previousOwner",
							"type": "address"
						},
						{
							"indexed": true,
							"internalType": "address",
							"name": "newOwner",
							"type": "address"
						}
					],
					"name": "OwnershipTransferred",
					"type": "event"
				},
				{
					"inputs": [
						{
							"internalType": "uint256",
							"name": "swapId",
							"type": "uint256"
						}
					],
					"name": "getBuyer",
					"outputs": [
						{
							"internalType": "address",
							"name": "",
							"type": "address"
						}
					],
					"stateMutability": "view",
					"type": "function"
				},
				{
					"inputs": [
						{
							"internalType": "uint256",
							"name": "swapId",
							"type": "uint256"
						}
					],
					"name": "getPremium",
					"outputs": [
						{
							"internalType": "uint256",
							"name": "",
							"type": "uint256"
						}
					],
					"stateMutability": "view",
					"type": "function"
				},
				{
					"inputs": [
						{
							"internalType": "uint256",
							"name": "swapId",
							"type": "uint256"
						}
					],
					"name": "getPrices",
					"outputs": [
						{
							"internalType": "uint256[5]",
							"name": "",
							"type": "uint256[5]"
						}
					],
					"stateMutability": "view",
					"type": "function"
				},
				{
					"inputs": [
						{
							"internalType": "uint256",
							"name": "swapId",
							"type": "uint256"
						}
					],
					"name": "getRounds",
					"outputs": [
						{
							"internalType": "uint32",
							"name": "",
							"type": "uint32"
						}
					],
					"stateMutability": "view",
					"type": "function"
				},
				{
					"inputs": [
						{
							"internalType": "uint256",
							"name": "swapId",
							"type": "uint256"
						}
					],
					"name": "getSeller",
					"outputs": [
						{
							"internalType": "address",
							"name": "",
							"type": "address"
						}
					],
					"stateMutability": "view",
					"type": "function"
				},
				{
					"inputs": [
						{
							"internalType": "uint256",
							"name": "swapId",
							"type": "uint256"
						}
					],
					"name": "getSellerDeposit",
					"outputs": [
						{
							"internalType": "uint256",
							"name": "",
							"type": "uint256"
						}
					],
					"stateMutability": "view",
					"type": "function"
				},
				{
					"inputs": [
						{
							"internalType": "uint256",
							"name": "swapId",
							"type": "uint256"
						}
					],
					"name": "getStatus",
					"outputs": [
						{
							"internalType": "enum Swap.Status",
							"name": "",
							"type": "uint8"
						}
					],
					"stateMutability": "view",
					"type": "function"
				},
				{
					"inputs": [
						{
							"internalType": "uint256",
							"name": "swapId",
							"type": "uint256"
						}
					],
					"name": "getSwap",
					"outputs": [
						{
							"internalType": "contract Swap",
							"name": "",
							"type": "address"
						}
					],
					"stateMutability": "view",
					"type": "function"
				},
				{
					"inputs": [],
					"name": "getSwapId",
					"outputs": [
						{
							"components": [
								{
									"internalType": "uint256",
									"name": "_value",
									"type": "uint256"
								}
							],
							"internalType": "struct Counters.Counter",
							"name": "",
							"type": "tuple"
						}
					],
					"stateMutability": "view",
					"type": "function"
				},
				{
					"inputs": [
						{
							"internalType": "uint256",
							"name": "",
							"type": "uint256"
						}
					],
					"name": "nextPayDate",
					"outputs": [
						{
							"internalType": "uint256",
							"name": "",
							"type": "uint256"
						}
					],
					"stateMutability": "view",
					"type": "function"
				},
				{
					"inputs": [],
					"name": "owner",
					"outputs": [
						{
							"internalType": "address",
							"name": "",
							"type": "address"
						}
					],
					"stateMutability": "view",
					"type": "function"
				},
				{
					"inputs": [],
					"name": "renounceOwnership",
					"outputs": [],
					"stateMutability": "nonpayable",
					"type": "function"
				},
				{
					"inputs": [
						{
							"internalType": "address",
							"name": "newOwner",
							"type": "address"
						}
					],
					"name": "transferOwnership",
					"outputs": [],
					"stateMutability": "nonpayable",
					"type": "function"
				}
			],
			"devdoc": {
				"kind": "dev",
				"methods": {
					"owner()": {
						"details": "Returns the address of the current owner."
					},
					"renounceOwnership()": {
						"details": "Leaves the contract without owner. It will not be possible to call `onlyOwner` functions anymore. Can only be called by the current owner. NOTE: Renouncing ownership will leave the contract without an owner, thereby removing any functionality that is only available to the owner."
					},
					"transferOwnership(address)": {
						"details": "Transfers ownership of the contract to a new account (`newOwner`). Can only be called by the current owner."
					}
				},
				"version": 1
			},
			"evm": {
				"assembly": "    /* \"contracts/Handler/SwapFactory.sol\":191:3968  contract SwapHandler is Ownable {... */\n  mstore(0x40, 0x80)\n  callvalue\n  dup1\n  iszero\n  tag_1\n  jumpi\n  0x00\n  dup1\n  revert\ntag_1:\n  pop\n    /* \"@openzeppelin/contracts/access/Ownable.sol\":936:968  _transferOwnership(_msgSender()) */\n  tag_4\n    /* \"@openzeppelin/contracts/access/Ownable.sol\":955:967  _msgSender() */\n  tag_5\n    /* \"@openzeppelin/contracts/access/Ownable.sol\":955:965  _msgSender */\n  shl(0x20, tag_6)\n    /* \"@openzeppelin/contracts/access/Ownable.sol\":955:967  _msgSender() */\n  0x20\n  shr\n  jump\t// in\ntag_5:\n    /* \"@openzeppelin/contracts/access/Ownable.sol\":936:954  _transferOwnership */\n  shl(0x20, tag_7)\n    /* \"@openzeppelin/contracts/access/Ownable.sol\":936:968  _transferOwnership(_msgSender()) */\n  0x20\n  shr\n  jump\t// in\ntag_4:\n    /* \"contracts/Handler/SwapFactory.sol\":191:3968  contract SwapHandler is Ownable {... */\n  jump(tag_8)\n    /* \"@openzeppelin/contracts/utils/Context.sol\":640:736  function _msgSender() internal view virtual returns (address) {... */\ntag_6:\n    /* \"@openzeppelin/contracts/utils/Context.sol\":693:700  address */\n  0x00\n    /* \"@openzeppelin/contracts/utils/Context.sol\":719:729  msg.sender */\n  caller\n    /* \"@openzeppelin/contracts/utils/Context.sol\":712:729  return msg.sender */\n  swap1\n  pop\n    /* \"@openzeppelin/contracts/utils/Context.sol\":640:736  function _msgSender() internal view virtual returns (address) {... */\n  swap1\n  jump\t// out\n    /* \"@openzeppelin/contracts/access/Ownable.sol\":2433:2620  function _transferOwnership(address newOwner) internal virtual {... */\ntag_7:\n    /* \"@openzeppelin/contracts/access/Ownable.sol\":2506:2522  address oldOwner */\n  0x00\n    /* \"@openzeppelin/contracts/access/Ownable.sol\":2525:2531  _owner */\n  dup1\n  0x00\n  swap1\n  sload\n  swap1\n  0x0100\n  exp\n  swap1\n  div\n  0xffffffffffffffffffffffffffffffffffffffff\n  and\n    /* \"@openzeppelin/contracts/access/Ownable.sol\":2506:2531  address oldOwner = _owner */\n  swap1\n  pop\n    /* \"@openzeppelin/contracts/access/Ownable.sol\":2550:2558  newOwner */\n  dup2\n    /* \"@openzeppelin/contracts/access/Ownable.sol\":2541:2547  _owner */\n  0x00\n  dup1\n    /* \"@openzeppelin/contracts/access/Ownable.sol\":2541:2558  _owner = newOwner */\n  0x0100\n  exp\n  dup2\n  sload\n  dup2\n  0xffffffffffffffffffffffffffffffffffffffff\n  mul\n  not\n  and\n  swap1\n  dup4\n  0xffffffffffffffffffffffffffffffffffffffff\n  and\n  mul\n  or\n  swap1\n  sstore\n  pop\n    /* \"@openzeppelin/contracts/access/Ownable.sol\":2604:2612  newOwner */\n  dup2\n    /* \"@openzeppelin/contracts/access/Ownable.sol\":2573:2613  OwnershipTransferred(oldOwner, newOwner) */\n  0xffffffffffffffffffffffffffffffffffffffff\n  and\n    /* \"@openzeppelin/contracts/access/Ownable.sol\":2594:2602  oldOwner */\n  dup2\n    /* \"@openzeppelin/contracts/access/Ownable.sol\":2573:2613  OwnershipTransferred(oldOwner, newOwner) */\n  0xffffffffffffffffffffffffffffffffffffffff\n  and\n  0x8be0079c531659141344cd1fd0a4f28419497f9722a3daafe3b4186f6b6457e0\n  mload(0x40)\n  mload(0x40)\n  dup1\n  swap2\n  sub\n  swap1\n  log3\n    /* \"@openzeppelin/contracts/access/Ownable.sol\":2496:2620  {... */\n  pop\n    /* \"@openzeppelin/contracts/access/Ownable.sol\":2433:2620  function _transferOwnership(address newOwner) internal virtual {... */\n  pop\n  jump\t// out\n    /* \"contracts/Handler/SwapFactory.sol\":191:3968  contract SwapHandler is Ownable {... */\ntag_8:\n  dataSize(sub_0)\n  dup1\n  dataOffset(sub_0)\n  0x00\n  codecopy\n  0x00\n  return\nstop\n\nsub_0: assembly {\n        /* \"contracts/Handler/SwapFactory.sol\":191:3968  contract SwapHandler is Ownable {... */\n      mstore(0x40, 0x80)\n      callvalue\n      dup1\n      iszero\n      tag_1\n      jumpi\n      0x00\n      dup1\n      revert\n    tag_1:\n      pop\n      jumpi(tag_2, lt(calldatasize, 0x04))\n      shr(0xe0, calldataload(0x00))\n      dup1\n      0x5c622a0e\n      gt\n      tag_16\n      jumpi\n      dup1\n      0x8da5cb5b\n      gt\n      tag_17\n      jumpi\n      dup1\n      0x8da5cb5b\n      eq\n      tag_12\n      jumpi\n      dup1\n      0x91492956\n      eq\n      tag_13\n      jumpi\n      dup1\n      0xd6a9de51\n      eq\n      tag_14\n      jumpi\n      dup1\n      0xf2fde38b\n      eq\n      tag_15\n      jumpi\n      jump(tag_2)\n    tag_17:\n      dup1\n      0x5c622a0e\n      eq\n      tag_9\n      jumpi\n      dup1\n      0x715018a6\n      eq\n      tag_10\n      jumpi\n      dup1\n      0x88106323\n      eq\n      tag_11\n      jumpi\n      jump(tag_2)\n    tag_16:\n      dup1\n      0x13ef3dcc\n      eq\n      tag_3\n      jumpi\n      dup1\n      0x1bf1fffb\n      eq\n      tag_4\n      jumpi\n      dup1\n      0x44a9d244\n      eq\n      tag_5\n      jumpi\n      dup1\n      0x496ab39a\n      eq\n      tag_6\n      jumpi\n      dup1\n      0x4a0d89ba\n      eq\n      tag_7\n      jumpi\n      dup1\n      0x5bf608b8\n      eq\n      tag_8\n      jumpi\n    tag_2:\n      0x00\n      dup1\n      revert\n        /* \"contracts/Handler/SwapFactory.sol\":2837:2942  function getRounds(uint256 swapId) public view returns (uint32) {... */\n    tag_3:\n      tag_18\n      0x04\n      dup1\n      calldatasize\n      sub\n      dup2\n      add\n      swap1\n      tag_19\n      swap2\n      swap1\n      tag_20\n      jump\t// in\n    tag_19:\n      tag_21\n      jump\t// in\n    tag_18:\n      mload(0x40)\n      tag_22\n      swap2\n      swap1\n      tag_23\n      jump\t// in\n    tag_22:\n      mload(0x40)\n      dup1\n      swap2\n      sub\n      swap1\n      return\n        /* \"contracts/Handler/SwapFactory.sol\":2487:2595  function getPremium(uint256 swapId) public view returns (uint256) {... */\n    tag_4:\n      tag_24\n      0x04\n      dup1\n      calldatasize\n      sub\n      dup2\n      add\n      swap1\n      tag_25\n      swap2\n      swap1\n      tag_20\n      jump\t// in\n    tag_25:\n      tag_26\n      jump\t// in\n    tag_24:\n      mload(0x40)\n      tag_27\n      swap2\n      swap1\n      tag_28\n      jump\t// in\n    tag_27:\n      mload(0x40)\n      dup1\n      swap2\n      sub\n      swap1\n      return\n        /* \"contracts/Handler/SwapFactory.sol\":348:394  mapping(uint256 => uint256) public nextPayDate */\n    tag_5:\n      tag_29\n      0x04\n      dup1\n      calldatasize\n      sub\n      dup2\n      add\n      swap1\n      tag_30\n      swap2\n      swap1\n      tag_20\n      jump\t// in\n    tag_30:\n      tag_31\n      jump\t// in\n    tag_29:\n      mload(0x40)\n      tag_32\n      swap2\n      swap1\n      tag_28\n      jump\t// in\n    tag_32:\n      mload(0x40)\n      dup1\n      swap2\n      sub\n      swap1\n      return\n        /* \"contracts/Handler/SwapFactory.sol\":2172:2264  function getSwapId() public view returns (Counters.Counter memory) {... */\n    tag_6:\n      tag_33\n      tag_34\n      jump\t// in\n    tag_33:\n      mload(0x40)\n      tag_35\n      swap2\n      swap1\n      tag_36\n      jump\t// in\n    tag_35:\n      mload(0x40)\n      dup1\n      swap2\n      sub\n      swap1\n      return\n        /* \"contracts/Handler/SwapFactory.sol\":2268:2360  function getSwap(uint256 swapId) public view returns (Swap) {... */\n    tag_7:\n      tag_37\n      0x04\n      dup1\n      calldatasize\n      sub\n      dup2\n      add\n      swap1\n      tag_38\n      swap2\n      swap1\n      tag_20\n      jump\t// in\n    tag_38:\n      tag_39\n      jump\t// in\n    tag_37:\n      mload(0x40)\n      tag_40\n      swap2\n      swap1\n      tag_41\n      jump\t// in\n    tag_40:\n      mload(0x40)\n      dup1\n      swap2\n      sub\n      swap1\n      return\n        /* \"contracts/Handler/SwapFactory.sol\":2946:3053  function getBuyer(uint256 swapId) public view returns (address) {... */\n    tag_8:\n      tag_42\n      0x04\n      dup1\n      calldatasize\n      sub\n      dup2\n      add\n      swap1\n      tag_43\n      swap2\n      swap1\n      tag_20\n      jump\t// in\n    tag_43:\n      tag_44\n      jump\t// in\n    tag_42:\n      mload(0x40)\n      tag_45\n      swap2\n      swap1\n      tag_46\n      jump\t// in\n    tag_45:\n      mload(0x40)\n      dup1\n      swap2\n      sub\n      swap1\n      return\n        /* \"contracts/Handler/SwapFactory.sol\":2723:2833  function getStatus(uint256 swapId) public view returns (Swap.Status) {... */\n    tag_9:\n      tag_47\n      0x04\n      dup1\n      calldatasize\n      sub\n      dup2\n      add\n      swap1\n      tag_48\n      swap2\n      swap1\n      tag_20\n      jump\t// in\n    tag_48:\n      tag_49\n      jump\t// in\n    tag_47:\n      mload(0x40)\n      tag_50\n      swap2\n      swap1\n      tag_51\n      jump\t// in\n    tag_50:\n      mload(0x40)\n      dup1\n      swap2\n      sub\n      swap1\n      return\n        /* \"@openzeppelin/contracts/access/Ownable.sol\":1831:1932  function renounceOwnership() public virtual onlyOwner {... */\n    tag_10:\n      tag_52\n      tag_53\n      jump\t// in\n    tag_52:\n      stop\n        /* \"contracts/Handler/SwapFactory.sol\":2599:2719  function getSellerDeposit(uint256 swapId) public view returns (uint256) {... */\n    tag_11:\n      tag_54\n      0x04\n      dup1\n      calldatasize\n      sub\n      dup2\n      add\n      swap1\n      tag_55\n      swap2\n      swap1\n      tag_20\n      jump\t// in\n    tag_55:\n      tag_56\n      jump\t// in\n    tag_54:\n      mload(0x40)\n      tag_57\n      swap2\n      swap1\n      tag_28\n      jump\t// in\n    tag_57:\n      mload(0x40)\n      dup1\n      swap2\n      sub\n      swap1\n      return\n        /* \"@openzeppelin/contracts/access/Ownable.sol\":1201:1286  function owner() public view virtual returns (address) {... */\n    tag_12:\n      tag_58\n      tag_59\n      jump\t// in\n    tag_58:\n      mload(0x40)\n      tag_60\n      swap2\n      swap1\n      tag_46\n      jump\t// in\n    tag_60:\n      mload(0x40)\n      dup1\n      swap2\n      sub\n      swap1\n      return\n        /* \"contracts/Handler/SwapFactory.sol\":2364:2483  function getPrices(uint256 swapId) public view returns (uint256[5] memory) {... */\n    tag_13:\n      tag_61\n      0x04\n      dup1\n      calldatasize\n      sub\n      dup2\n      add\n      swap1\n      tag_62\n      swap2\n      swap1\n      tag_20\n      jump\t// in\n    tag_62:\n      tag_63\n      jump\t// in\n    tag_61:\n      mload(0x40)\n      tag_64\n      swap2\n      swap1\n      tag_65\n      jump\t// in\n    tag_64:\n      mload(0x40)\n      dup1\n      swap2\n      sub\n      swap1\n      return\n        /* \"contracts/Handler/SwapFactory.sol\":3057:3166  function getSeller(uint256 swapId) public view returns (address) {... */\n    tag_14:\n      tag_66\n      0x04\n      dup1\n      calldatasize\n      sub\n      dup2\n      add\n      swap1\n      tag_67\n      swap2\n      swap1\n      tag_20\n      jump\t// in\n    tag_67:\n      tag_68\n      jump\t// in\n    tag_66:\n      mload(0x40)\n      tag_69\n      swap2\n      swap1\n      tag_46\n      jump\t// in\n    tag_69:\n      mload(0x40)\n      dup1\n      swap2\n      sub\n      swap1\n      return\n        /* \"@openzeppelin/contracts/access/Ownable.sol\":2081:2279  function transferOwnership(address newOwner) public virtual onlyOwner {... */\n    tag_15:\n      tag_70\n      0x04\n      dup1\n      calldatasize\n      sub\n      dup2\n      add\n      swap1\n      tag_71\n      swap2\n      swap1\n      tag_72\n      jump\t// in\n    tag_71:\n      tag_73\n      jump\t// in\n    tag_70:\n      stop\n        /* \"contracts/Handler/SwapFactory.sol\":2837:2942  function getRounds(uint256 swapId) public view returns (uint32) {... */\n    tag_21:\n        /* \"contracts/Handler/SwapFactory.sol\":2893:2899  uint32 */\n      0x00\n        /* \"contracts/Handler/SwapFactory.sol\":2914:2920  _swaps */\n      0x02\n        /* \"contracts/Handler/SwapFactory.sol\":2914:2928  _swaps[swapId] */\n      0x00\n        /* \"contracts/Handler/SwapFactory.sol\":2921:2927  swapId */\n      dup4\n        /* \"contracts/Handler/SwapFactory.sol\":2914:2928  _swaps[swapId] */\n      dup2\n      mstore\n      0x20\n      add\n      swap1\n      dup2\n      mstore\n      0x20\n      add\n      0x00\n      keccak256\n      0x00\n      swap1\n      sload\n      swap1\n      0x0100\n      exp\n      swap1\n      div\n      0xffffffffffffffffffffffffffffffffffffffff\n      and\n        /* \"contracts/Handler/SwapFactory.sol\":2914:2935  _swaps[swapId].rounds */\n      0xffffffffffffffffffffffffffffffffffffffff\n      and\n      0xa2e800ad\n        /* \"contracts/Handler/SwapFactory.sol\":2914:2937  _swaps[swapId].rounds() */\n      mload(0x40)\n      dup2\n      0xffffffff\n      and\n      0xe0\n      shl\n      dup2\n      mstore\n      0x04\n      add\n      0x20\n      mload(0x40)\n      dup1\n      dup4\n      sub\n      dup2\n      dup7\n      dup1\n      extcodesize\n      iszero\n      dup1\n      iszero\n      tag_75\n      jumpi\n      0x00\n      dup1\n      revert\n    tag_75:\n      pop\n      gas\n      staticcall\n      iszero\n      dup1\n      iszero\n      tag_77\n      jumpi\n      returndatasize\n      0x00\n      dup1\n      returndatacopy\n      revert(0x00, returndatasize)\n    tag_77:\n      pop\n      pop\n      pop\n      pop\n      mload(0x40)\n      returndatasize\n      not(0x1f)\n      0x1f\n      dup3\n      add\n      and\n      dup3\n      add\n      dup1\n      0x40\n      mstore\n      pop\n      dup2\n      add\n      swap1\n      tag_78\n      swap2\n      swap1\n      tag_79\n      jump\t// in\n    tag_78:\n        /* \"contracts/Handler/SwapFactory.sol\":2907:2937  return _swaps[swapId].rounds() */\n      swap1\n      pop\n        /* \"contracts/Handler/SwapFactory.sol\":2837:2942  function getRounds(uint256 swapId) public view returns (uint32) {... */\n      swap2\n      swap1\n      pop\n      jump\t// out\n        /* \"contracts/Handler/SwapFactory.sol\":2487:2595  function getPremium(uint256 swapId) public view returns (uint256) {... */\n    tag_26:\n        /* \"contracts/Handler/SwapFactory.sol\":2544:2551  uint256 */\n      0x00\n        /* \"contracts/Handler/SwapFactory.sol\":2566:2572  _swaps */\n      0x02\n        /* \"contracts/Handler/SwapFactory.sol\":2566:2580  _swaps[swapId] */\n      0x00\n        /* \"contracts/Handler/SwapFactory.sol\":2573:2579  swapId */\n      dup4\n        /* \"contracts/Handler/SwapFactory.sol\":2566:2580  _swaps[swapId] */\n      dup2\n      mstore\n      0x20\n      add\n      swap1\n      dup2\n      mstore\n      0x20\n      add\n      0x00\n      keccak256\n      0x00\n      swap1\n      sload\n      swap1\n      0x0100\n      exp\n      swap1\n      div\n      0xffffffffffffffffffffffffffffffffffffffff\n      and\n        /* \"contracts/Handler/SwapFactory.sol\":2566:2588  _swaps[swapId].premium */\n      0xffffffffffffffffffffffffffffffffffffffff\n      and\n      0xe0a73a93\n        /* \"contracts/Handler/SwapFactory.sol\":2566:2590  _swaps[swapId].premium() */\n      mload(0x40)\n      dup2\n      0xffffffff\n      and\n      0xe0\n      shl\n      dup2\n      mstore\n      0x04\n      add\n      0x20\n      mload(0x40)\n      dup1\n      dup4\n      sub\n      dup2\n      dup7\n      dup1\n      extcodesize\n      iszero\n      dup1\n      iszero\n      tag_81\n      jumpi\n      0x00\n      dup1\n      revert\n    tag_81:\n      pop\n      gas\n      staticcall\n      iszero\n      dup1\n      iszero\n      tag_83\n      jumpi\n      returndatasize\n      0x00\n      dup1\n      returndatacopy\n      revert(0x00, returndatasize)\n    tag_83:\n      pop\n      pop\n      pop\n      pop\n      mload(0x40)\n      returndatasize\n      not(0x1f)\n      0x1f\n      dup3\n      add\n      and\n      dup3\n      add\n      dup1\n      0x40\n      mstore\n      pop\n      dup2\n      add\n      swap1\n      tag_84\n      swap2\n      swap1\n      tag_85\n      jump\t// in\n    tag_84:\n        /* \"contracts/Handler/SwapFactory.sol\":2559:2590  return _swaps[swapId].premium() */\n      swap1\n      pop\n        /* \"contracts/Handler/SwapFactory.sol\":2487:2595  function getPremium(uint256 swapId) public view returns (uint256) {... */\n      swap2\n      swap1\n      pop\n      jump\t// out\n        /* \"contracts/Handler/SwapFactory.sol\":348:394  mapping(uint256 => uint256) public nextPayDate */\n    tag_31:\n      mstore(0x20, 0x03)\n      dup1\n      0x00\n      mstore\n      keccak256(0x00, 0x40)\n      0x00\n      swap2\n      pop\n      swap1\n      pop\n      sload\n      dup2\n      jump\t// out\n        /* \"contracts/Handler/SwapFactory.sol\":2172:2264  function getSwapId() public view returns (Counters.Counter memory) {... */\n    tag_34:\n        /* \"contracts/Handler/SwapFactory.sol\":2214:2237  Counters.Counter memory */\n      tag_86\n      tag_87\n      jump\t// in\n    tag_86:\n        /* \"contracts/Handler/SwapFactory.sol\":2252:2259  _swapId */\n      0x01\n        /* \"contracts/Handler/SwapFactory.sol\":2245:2259  return _swapId */\n      mload(0x40)\n      dup1\n      0x20\n      add\n      0x40\n      mstore\n      swap1\n      dup2\n      0x00\n      dup3\n      add\n      sload\n      dup2\n      mstore\n      pop\n      pop\n      swap1\n      pop\n        /* \"contracts/Handler/SwapFactory.sol\":2172:2264  function getSwapId() public view returns (Counters.Counter memory) {... */\n      swap1\n      jump\t// out\n        /* \"contracts/Handler/SwapFactory.sol\":2268:2360  function getSwap(uint256 swapId) public view returns (Swap) {... */\n    tag_39:\n        /* \"contracts/Handler/SwapFactory.sol\":2322:2326  Swap */\n      0x00\n        /* \"contracts/Handler/SwapFactory.sol\":2341:2347  _swaps */\n      0x02\n        /* \"contracts/Handler/SwapFactory.sol\":2341:2355  _swaps[swapId] */\n      0x00\n        /* \"contracts/Handler/SwapFactory.sol\":2348:2354  swapId */\n      dup4\n        /* \"contracts/Handler/SwapFactory.sol\":2341:2355  _swaps[swapId] */\n      dup2\n      mstore\n      0x20\n      add\n      swap1\n      dup2\n      mstore\n      0x20\n      add\n      0x00\n      keccak256\n      0x00\n      swap1\n      sload\n      swap1\n      0x0100\n      exp\n      swap1\n      div\n      0xffffffffffffffffffffffffffffffffffffffff\n      and\n        /* \"contracts/Handler/SwapFactory.sol\":2334:2355  return _swaps[swapId] */\n      swap1\n      pop\n        /* \"contracts/Handler/SwapFactory.sol\":2268:2360  function getSwap(uint256 swapId) public view returns (Swap) {... */\n      swap2\n      swap1\n      pop\n      jump\t// out\n        /* \"contracts/Handler/SwapFactory.sol\":2946:3053  function getBuyer(uint256 swapId) public view returns (address) {... */\n    tag_44:\n        /* \"contracts/Handler/SwapFactory.sol\":3001:3008  address */\n      0x00\n        /* \"contracts/Handler/SwapFactory.sol\":3023:3029  _swaps */\n      0x02\n        /* \"contracts/Handler/SwapFactory.sol\":3023:3037  _swaps[swapId] */\n      0x00\n        /* \"contracts/Handler/SwapFactory.sol\":3030:3036  swapId */\n      dup4\n        /* \"contracts/Handler/SwapFactory.sol\":3023:3037  _swaps[swapId] */\n      dup2\n      mstore\n      0x20\n      add\n      swap1\n      dup2\n      mstore\n      0x20\n      add\n      0x00\n      keccak256\n      0x00\n      swap1\n      sload\n      swap1\n      0x0100\n      exp\n      swap1\n      div\n      0xffffffffffffffffffffffffffffffffffffffff\n      and\n        /* \"contracts/Handler/SwapFactory.sol\":3023:3046  _swaps[swapId].getBuyer */\n      0xffffffffffffffffffffffffffffffffffffffff\n      and\n      0x603daf9a\n        /* \"contracts/Handler/SwapFactory.sol\":3023:3048  _swaps[swapId].getBuyer() */\n      mload(0x40)\n      dup2\n      0xffffffff\n      and\n      0xe0\n      shl\n      dup2\n      mstore\n      0x04\n      add\n      0x20\n      mload(0x40)\n      dup1\n      dup4\n      sub\n      dup2\n      dup7\n      dup1\n      extcodesize\n      iszero\n      dup1\n      iszero\n      tag_91\n      jumpi\n      0x00\n      dup1\n      revert\n    tag_91:\n      pop\n      gas\n      staticcall\n      iszero\n      dup1\n      iszero\n      tag_93\n      jumpi\n      returndatasize\n      0x00\n      dup1\n      returndatacopy\n      revert(0x00, returndatasize)\n    tag_93:\n      pop\n      pop\n      pop\n      pop\n      mload(0x40)\n      returndatasize\n      not(0x1f)\n      0x1f\n      dup3\n      add\n      and\n      dup3\n      add\n      dup1\n      0x40\n      mstore\n      pop\n      dup2\n      add\n      swap1\n      tag_94\n      swap2\n      swap1\n      tag_95\n      jump\t// in\n    tag_94:\n        /* \"contracts/Handler/SwapFactory.sol\":3016:3048  return _swaps[swapId].getBuyer() */\n      swap1\n      pop\n        /* \"contracts/Handler/SwapFactory.sol\":2946:3053  function getBuyer(uint256 swapId) public view returns (address) {... */\n      swap2\n      swap1\n      pop\n      jump\t// out\n        /* \"contracts/Handler/SwapFactory.sol\":2723:2833  function getStatus(uint256 swapId) public view returns (Swap.Status) {... */\n    tag_49:\n        /* \"contracts/Handler/SwapFactory.sol\":2779:2790  Swap.Status */\n      0x00\n        /* \"contracts/Handler/SwapFactory.sol\":2805:2811  _swaps */\n      0x02\n        /* \"contracts/Handler/SwapFactory.sol\":2805:2819  _swaps[swapId] */\n      0x00\n        /* \"contracts/Handler/SwapFactory.sol\":2812:2818  swapId */\n      dup4\n        /* \"contracts/Handler/SwapFactory.sol\":2805:2819  _swaps[swapId] */\n      dup2\n      mstore\n      0x20\n      add\n      swap1\n      dup2\n      mstore\n      0x20\n      add\n      0x00\n      keccak256\n      0x00\n      swap1\n      sload\n      swap1\n      0x0100\n      exp\n      swap1\n      div\n      0xffffffffffffffffffffffffffffffffffffffff\n      and\n        /* \"contracts/Handler/SwapFactory.sol\":2805:2826  _swaps[swapId].status */\n      0xffffffffffffffffffffffffffffffffffffffff\n      and\n      0x200d2ed2\n        /* \"contracts/Handler/SwapFactory.sol\":2805:2828  _swaps[swapId].status() */\n      mload(0x40)\n      dup2\n      0xffffffff\n      and\n      0xe0\n      shl\n      dup2\n      mstore\n      0x04\n      add\n      0x20\n      mload(0x40)\n      dup1\n      dup4\n      sub\n      dup2\n      dup7\n      dup1\n      extcodesize\n      iszero\n      dup1\n      iszero\n      tag_97\n      jumpi\n      0x00\n      dup1\n      revert\n    tag_97:\n      pop\n      gas\n      staticcall\n      iszero\n      dup1\n      iszero\n      tag_99\n      jumpi\n      returndatasize\n      0x00\n      dup1\n      returndatacopy\n      revert(0x00, returndatasize)\n    tag_99:\n      pop\n      pop\n      pop\n      pop\n      mload(0x40)\n      returndatasize\n      not(0x1f)\n      0x1f\n      dup3\n      add\n      and\n      dup3\n      add\n      dup1\n      0x40\n      mstore\n      pop\n      dup2\n      add\n      swap1\n      tag_100\n      swap2\n      swap1\n      tag_101\n      jump\t// in\n    tag_100:\n        /* \"contracts/Handler/SwapFactory.sol\":2798:2828  return _swaps[swapId].status() */\n      swap1\n      pop\n        /* \"contracts/Handler/SwapFactory.sol\":2723:2833  function getStatus(uint256 swapId) public view returns (Swap.Status) {... */\n      swap2\n      swap1\n      pop\n      jump\t// out\n        /* \"@openzeppelin/contracts/access/Ownable.sol\":1831:1932  function renounceOwnership() public virtual onlyOwner {... */\n    tag_53:\n        /* \"@openzeppelin/contracts/access/Ownable.sol\":1094:1107  _checkOwner() */\n      tag_103\n        /* \"@openzeppelin/contracts/access/Ownable.sol\":1094:1105  _checkOwner */\n      tag_104\n        /* \"@openzeppelin/contracts/access/Ownable.sol\":1094:1107  _checkOwner() */\n      jump\t// in\n    tag_103:\n        /* \"@openzeppelin/contracts/access/Ownable.sol\":1895:1925  _transferOwnership(address(0)) */\n      tag_106\n        /* \"@openzeppelin/contracts/access/Ownable.sol\":1922:1923  0 */\n      0x00\n        /* \"@openzeppelin/contracts/access/Ownable.sol\":1895:1913  _transferOwnership */\n      tag_107\n        /* \"@openzeppelin/contracts/access/Ownable.sol\":1895:1925  _transferOwnership(address(0)) */\n      jump\t// in\n    tag_106:\n        /* \"@openzeppelin/contracts/access/Ownable.sol\":1831:1932  function renounceOwnership() public virtual onlyOwner {... */\n      jump\t// out\n        /* \"contracts/Handler/SwapFactory.sol\":2599:2719  function getSellerDeposit(uint256 swapId) public view returns (uint256) {... */\n    tag_56:\n        /* \"contracts/Handler/SwapFactory.sol\":2662:2669  uint256 */\n      0x00\n        /* \"contracts/Handler/SwapFactory.sol\":2684:2690  _swaps */\n      0x02\n        /* \"contracts/Handler/SwapFactory.sol\":2684:2698  _swaps[swapId] */\n      0x00\n        /* \"contracts/Handler/SwapFactory.sol\":2691:2697  swapId */\n      dup4\n        /* \"contracts/Handler/SwapFactory.sol\":2684:2698  _swaps[swapId] */\n      dup2\n      mstore\n      0x20\n      add\n      swap1\n      dup2\n      mstore\n      0x20\n      add\n      0x00\n      keccak256\n      0x00\n      swap1\n      sload\n      swap1\n      0x0100\n      exp\n      swap1\n      div\n      0xffffffffffffffffffffffffffffffffffffffff\n      and\n        /* \"contracts/Handler/SwapFactory.sol\":2684:2712  _swaps[swapId].sellerDeposit */\n      0xffffffffffffffffffffffffffffffffffffffff\n      and\n      0x4c1786ea\n        /* \"contracts/Handler/SwapFactory.sol\":2684:2714  _swaps[swapId].sellerDeposit() */\n      mload(0x40)\n      dup2\n      0xffffffff\n      and\n      0xe0\n      shl\n      dup2\n      mstore\n      0x04\n      add\n      0x20\n      mload(0x40)\n      dup1\n      dup4\n      sub\n      dup2\n      dup7\n      dup1\n      extcodesize\n      iszero\n      dup1\n      iszero\n      tag_109\n      jumpi\n      0x00\n      dup1\n      revert\n    tag_109:\n      pop\n      gas\n      staticcall\n      iszero\n      dup1\n      iszero\n      tag_111\n      jumpi\n      returndatasize\n      0x00\n      dup1\n      returndatacopy\n      revert(0x00, returndatasize)\n    tag_111:\n      pop\n      pop\n      pop\n      pop\n      mload(0x40)\n      returndatasize\n      not(0x1f)\n      0x1f\n      dup3\n      add\n      and\n      dup3\n      add\n      dup1\n      0x40\n      mstore\n      pop\n      dup2\n      add\n      swap1\n      tag_112\n      swap2\n      swap1\n      tag_85\n      jump\t// in\n    tag_112:\n        /* \"contracts/Handler/SwapFactory.sol\":2677:2714  return _swaps[swapId].sellerDeposit() */\n      swap1\n      pop\n        /* \"contracts/Handler/SwapFactory.sol\":2599:2719  function getSellerDeposit(uint256 swapId) public view returns (uint256) {... */\n      swap2\n      swap1\n      pop\n      jump\t// out\n        /* \"@openzeppelin/contracts/access/Ownable.sol\":1201:1286  function owner() public view virtual returns (address) {... */\n    tag_59:\n        /* \"@openzeppelin/contracts/access/Ownable.sol\":1247:1254  address */\n      0x00\n        /* \"@openzeppelin/contracts/access/Ownable.sol\":1273:1279  _owner */\n      dup1\n      0x00\n      swap1\n      sload\n      swap1\n      0x0100\n      exp\n      swap1\n      div\n      0xffffffffffffffffffffffffffffffffffffffff\n      and\n        /* \"@openzeppelin/contracts/access/Ownable.sol\":1266:1279  return _owner */\n      swap1\n      pop\n        /* \"@openzeppelin/contracts/access/Ownable.sol\":1201:1286  function owner() public view virtual returns (address) {... */\n      swap1\n      jump\t// out\n        /* \"contracts/Handler/SwapFactory.sol\":2364:2483  function getPrices(uint256 swapId) public view returns (uint256[5] memory) {... */\n    tag_63:\n        /* \"contracts/Handler/SwapFactory.sol\":2420:2437  uint256[5] memory */\n      tag_114\n      tag_115\n      jump\t// in\n    tag_114:\n        /* \"contracts/Handler/SwapFactory.sol\":2452:2458  _swaps */\n      0x02\n        /* \"contracts/Handler/SwapFactory.sol\":2452:2466  _swaps[swapId] */\n      0x00\n        /* \"contracts/Handler/SwapFactory.sol\":2459:2465  swapId */\n      dup4\n        /* \"contracts/Handler/SwapFactory.sol\":2452:2466  _swaps[swapId] */\n      dup2\n      mstore\n      0x20\n      add\n      swap1\n      dup2\n      mstore\n      0x20\n      add\n      0x00\n      keccak256\n      0x00\n      swap1\n      sload\n      swap1\n      0x0100\n      exp\n      swap1\n      div\n      0xffffffffffffffffffffffffffffffffffffffff\n      and\n        /* \"contracts/Handler/SwapFactory.sol\":2452:2476  _swaps[swapId].getPrices */\n      0xffffffffffffffffffffffffffffffffffffffff\n      and\n      0xbd9a548b\n        /* \"contracts/Handler/SwapFactory.sol\":2452:2478  _swaps[swapId].getPrices() */\n      mload(0x40)\n      dup2\n      0xffffffff\n      and\n      0xe0\n      shl\n      dup2\n      mstore\n      0x04\n      add\n      0xa0\n      mload(0x40)\n      dup1\n      dup4\n      sub\n      dup2\n      dup7\n      dup1\n      extcodesize\n      iszero\n      dup1\n      iszero\n      tag_117\n      jumpi\n      0x00\n      dup1\n      revert\n    tag_117:\n      pop\n      gas\n      staticcall\n      iszero\n      dup1\n      iszero\n      tag_119\n      jumpi\n      returndatasize\n      0x00\n      dup1\n      returndatacopy\n      revert(0x00, returndatasize)\n    tag_119:\n      pop\n      pop\n      pop\n      pop\n      mload(0x40)\n      returndatasize\n      not(0x1f)\n      0x1f\n      dup3\n      add\n      and\n      dup3\n      add\n      dup1\n      0x40\n      mstore\n      pop\n      dup2\n      add\n      swap1\n      tag_120\n      swap2\n      swap1\n      tag_121\n      jump\t// in\n    tag_120:\n        /* \"contracts/Handler/SwapFactory.sol\":2445:2478  return _swaps[swapId].getPrices() */\n      swap1\n      pop\n        /* \"contracts/Handler/SwapFactory.sol\":2364:2483  function getPrices(uint256 swapId) public view returns (uint256[5] memory) {... */\n      swap2\n      swap1\n      pop\n      jump\t// out\n        /* \"contracts/Handler/SwapFactory.sol\":3057:3166  function getSeller(uint256 swapId) public view returns (address) {... */\n    tag_68:\n        /* \"contracts/Handler/SwapFactory.sol\":3113:3120  address */\n      0x00\n        /* \"contracts/Handler/SwapFactory.sol\":3135:3141  _swaps */\n      0x02\n        /* \"contracts/Handler/SwapFactory.sol\":3135:3149  _swaps[swapId] */\n      0x00\n        /* \"contracts/Handler/SwapFactory.sol\":3142:3148  swapId */\n      dup4\n        /* \"contracts/Handler/SwapFactory.sol\":3135:3149  _swaps[swapId] */\n      dup2\n      mstore\n      0x20\n      add\n      swap1\n      dup2\n      mstore\n      0x20\n      add\n      0x00\n      keccak256\n      0x00\n      swap1\n      sload\n      swap1\n      0x0100\n      exp\n      swap1\n      div\n      0xffffffffffffffffffffffffffffffffffffffff\n      and\n        /* \"contracts/Handler/SwapFactory.sol\":3135:3159  _swaps[swapId].getSeller */\n      0xffffffffffffffffffffffffffffffffffffffff\n      and\n      0xdbd0e1b6\n        /* \"contracts/Handler/SwapFactory.sol\":3135:3161  _swaps[swapId].getSeller() */\n      mload(0x40)\n      dup2\n      0xffffffff\n      and\n      0xe0\n      shl\n      dup2\n      mstore\n      0x04\n      add\n      0x20\n      mload(0x40)\n      dup1\n      dup4\n      sub\n      dup2\n      dup7\n      dup1\n      extcodesize\n      iszero\n      dup1\n      iszero\n      tag_123\n      jumpi\n      0x00\n      dup1\n      revert\n    tag_123:\n      pop\n      gas\n      staticcall\n      iszero\n      dup1\n      iszero\n      tag_125\n      jumpi\n      returndatasize\n      0x00\n      dup1\n      returndatacopy\n      revert(0x00, returndatasize)\n    tag_125:\n      pop\n      pop\n      pop\n      pop\n      mload(0x40)\n      returndatasize\n      not(0x1f)\n      0x1f\n      dup3\n      add\n      and\n      dup3\n      add\n      dup1\n      0x40\n      mstore\n      pop\n      dup2\n      add\n      swap1\n      tag_126\n      swap2\n      swap1\n      tag_95\n      jump\t// in\n    tag_126:\n        /* \"contracts/Handler/SwapFactory.sol\":3128:3161  return _swaps[swapId].getSeller() */\n      swap1\n      pop\n        /* \"contracts/Handler/SwapFactory.sol\":3057:3166  function getSeller(uint256 swapId) public view returns (address) {... */\n      swap2\n      swap1\n      pop\n      jump\t// out\n        /* \"@openzeppelin/contracts/access/Ownable.sol\":2081:2279  function transferOwnership(address newOwner) public virtual onlyOwner {... */\n    tag_73:\n        /* \"@openzeppelin/contracts/access/Ownable.sol\":1094:1107  _checkOwner() */\n      tag_128\n        /* \"@openzeppelin/contracts/access/Ownable.sol\":1094:1105  _checkOwner */\n      tag_104\n        /* \"@openzeppelin/contracts/access/Ownable.sol\":1094:1107  _checkOwner() */\n      jump\t// in\n    tag_128:\n        /* \"@openzeppelin/contracts/access/Ownable.sol\":2189:2190  0 */\n      0x00\n        /* \"@openzeppelin/contracts/access/Ownable.sol\":2169:2191  newOwner != address(0) */\n      0xffffffffffffffffffffffffffffffffffffffff\n      and\n        /* \"@openzeppelin/contracts/access/Ownable.sol\":2169:2177  newOwner */\n      dup2\n        /* \"@openzeppelin/contracts/access/Ownable.sol\":2169:2191  newOwner != address(0) */\n      0xffffffffffffffffffffffffffffffffffffffff\n      and\n      eq\n      iszero\n        /* \"@openzeppelin/contracts/access/Ownable.sol\":2161:2234  require(newOwner != address(0), \"Ownable: new owner is the zero address\") */\n      tag_130\n      jumpi\n      mload(0x40)\n      0x08c379a000000000000000000000000000000000000000000000000000000000\n      dup2\n      mstore\n      0x04\n      add\n      tag_131\n      swap1\n      tag_132\n      jump\t// in\n    tag_131:\n      mload(0x40)\n      dup1\n      swap2\n      sub\n      swap1\n      revert\n    tag_130:\n        /* \"@openzeppelin/contracts/access/Ownable.sol\":2244:2272  _transferOwnership(newOwner) */\n      tag_133\n        /* \"@openzeppelin/contracts/access/Ownable.sol\":2263:2271  newOwner */\n      dup2\n        /* \"@openzeppelin/contracts/access/Ownable.sol\":2244:2262  _transferOwnership */\n      tag_107\n        /* \"@openzeppelin/contracts/access/Ownable.sol\":2244:2272  _transferOwnership(newOwner) */\n      jump\t// in\n    tag_133:\n        /* \"@openzeppelin/contracts/access/Ownable.sol\":2081:2279  function transferOwnership(address newOwner) public virtual onlyOwner {... */\n      pop\n      jump\t// out\n        /* \"@openzeppelin/contracts/access/Ownable.sol\":1359:1489  function _checkOwner() internal view virtual {... */\n    tag_104:\n        /* \"@openzeppelin/contracts/access/Ownable.sol\":1433:1445  _msgSender() */\n      tag_135\n        /* \"@openzeppelin/contracts/access/Ownable.sol\":1433:1443  _msgSender */\n      tag_136\n        /* \"@openzeppelin/contracts/access/Ownable.sol\":1433:1445  _msgSender() */\n      jump\t// in\n    tag_135:\n        /* \"@openzeppelin/contracts/access/Ownable.sol\":1422:1445  owner() == _msgSender() */\n      0xffffffffffffffffffffffffffffffffffffffff\n      and\n        /* \"@openzeppelin/contracts/access/Ownable.sol\":1422:1429  owner() */\n      tag_137\n        /* \"@openzeppelin/contracts/access/Ownable.sol\":1422:1427  owner */\n      tag_59\n        /* \"@openzeppelin/contracts/access/Ownable.sol\":1422:1429  owner() */\n      jump\t// in\n    tag_137:\n        /* \"@openzeppelin/contracts/access/Ownable.sol\":1422:1445  owner() == _msgSender() */\n      0xffffffffffffffffffffffffffffffffffffffff\n      and\n      eq\n        /* \"@openzeppelin/contracts/access/Ownable.sol\":1414:1482  require(owner() == _msgSender(), \"Ownable: caller is not the owner\") */\n      tag_138\n      jumpi\n      mload(0x40)\n      0x08c379a000000000000000000000000000000000000000000000000000000000\n      dup2\n      mstore\n      0x04\n      add\n      tag_139\n      swap1\n      tag_140\n      jump\t// in\n    tag_139:\n      mload(0x40)\n      dup1\n      swap2\n      sub\n      swap1\n      revert\n    tag_138:\n        /* \"@openzeppelin/contracts/access/Ownable.sol\":1359:1489  function _checkOwner() internal view virtual {... */\n      jump\t// out\n        /* \"@openzeppelin/contracts/access/Ownable.sol\":2433:2620  function _transferOwnership(address newOwner) internal virtual {... */\n    tag_107:\n        /* \"@openzeppelin/contracts/access/Ownable.sol\":2506:2522  address oldOwner */\n      0x00\n        /* \"@openzeppelin/contracts/access/Ownable.sol\":2525:2531  _owner */\n      dup1\n      0x00\n      swap1\n      sload\n      swap1\n      0x0100\n      exp\n      swap1\n      div\n      0xffffffffffffffffffffffffffffffffffffffff\n      and\n        /* \"@openzeppelin/contracts/access/Ownable.sol\":2506:2531  address oldOwner = _owner */\n      swap1\n      pop\n        /* \"@openzeppelin/contracts/access/Ownable.sol\":2550:2558  newOwner */\n      dup2\n        /* \"@openzeppelin/contracts/access/Ownable.sol\":2541:2547  _owner */\n      0x00\n      dup1\n        /* \"@openzeppelin/contracts/access/Ownable.sol\":2541:2558  _owner = newOwner */\n      0x0100\n      exp\n      dup2\n      sload\n      dup2\n      0xffffffffffffffffffffffffffffffffffffffff\n      mul\n      not\n      and\n      swap1\n      dup4\n      0xffffffffffffffffffffffffffffffffffffffff\n      and\n      mul\n      or\n      swap1\n      sstore\n      pop\n        /* \"@openzeppelin/contracts/access/Ownable.sol\":2604:2612  newOwner */\n      dup2\n        /* \"@openzeppelin/contracts/access/Ownable.sol\":2573:2613  OwnershipTransferred(oldOwner, newOwner) */\n      0xffffffffffffffffffffffffffffffffffffffff\n      and\n        /* \"@openzeppelin/contracts/access/Ownable.sol\":2594:2602  oldOwner */\n      dup2\n        /* \"@openzeppelin/contracts/access/Ownable.sol\":2573:2613  OwnershipTransferred(oldOwner, newOwner) */\n      0xffffffffffffffffffffffffffffffffffffffff\n      and\n      0x8be0079c531659141344cd1fd0a4f28419497f9722a3daafe3b4186f6b6457e0\n      mload(0x40)\n      mload(0x40)\n      dup1\n      swap2\n      sub\n      swap1\n      log3\n        /* \"@openzeppelin/contracts/access/Ownable.sol\":2496:2620  {... */\n      pop\n        /* \"@openzeppelin/contracts/access/Ownable.sol\":2433:2620  function _transferOwnership(address newOwner) internal virtual {... */\n      pop\n      jump\t// out\n        /* \"@openzeppelin/contracts/utils/Context.sol\":640:736  function _msgSender() internal view virtual returns (address) {... */\n    tag_136:\n        /* \"@openzeppelin/contracts/utils/Context.sol\":693:700  address */\n      0x00\n        /* \"@openzeppelin/contracts/utils/Context.sol\":719:729  msg.sender */\n      caller\n        /* \"@openzeppelin/contracts/utils/Context.sol\":712:729  return msg.sender */\n      swap1\n      pop\n        /* \"@openzeppelin/contracts/utils/Context.sol\":640:736  function _msgSender() internal view virtual returns (address) {... */\n      swap1\n      jump\t// out\n    tag_87:\n      mload(0x40)\n      dup1\n      0x20\n      add\n      0x40\n      mstore\n      dup1\n      0x00\n      dup2\n      mstore\n      pop\n      swap1\n      jump\t// out\n    tag_115:\n      mload(0x40)\n      dup1\n      0xa0\n      add\n      0x40\n      mstore\n      dup1\n      0x05\n      swap1\n      0x20\n      dup3\n      mul\n      dup1\n      calldatasize\n      dup4\n      calldatacopy\n      dup1\n      dup3\n      add\n      swap2\n      pop\n      pop\n      swap1\n      pop\n      pop\n      swap1\n      jump\t// out\n        /* \"#utility.yul\":25:702   */\n    tag_144:\n        /* \"#utility.yul\":130:135   */\n      0x00\n        /* \"#utility.yul\":155:234   */\n      tag_146\n        /* \"#utility.yul\":171:233   */\n      tag_147\n        /* \"#utility.yul\":226:232   */\n      dup5\n        /* \"#utility.yul\":171:233   */\n      tag_148\n      jump\t// in\n    tag_147:\n        /* \"#utility.yul\":155:234   */\n      tag_149\n      jump\t// in\n    tag_146:\n        /* \"#utility.yul\":146:234   */\n      swap1\n      pop\n        /* \"#utility.yul\":254:259   */\n      dup1\n        /* \"#utility.yul\":280:286   */\n      dup3\n        /* \"#utility.yul\":330:333   */\n      dup6\n        /* \"#utility.yul\":322:326   */\n      0x20\n        /* \"#utility.yul\":314:320   */\n      dup7\n        /* \"#utility.yul\":310:327   */\n      mul\n        /* \"#utility.yul\":305:308   */\n      dup3\n        /* \"#utility.yul\":301:328   */\n      add\n        /* \"#utility.yul\":298:334   */\n      gt\n        /* \"#utility.yul\":295:438   */\n      iszero\n      tag_150\n      jumpi\n        /* \"#utility.yul\":349:428   */\n      tag_151\n      tag_152\n      jump\t// in\n    tag_151:\n        /* \"#utility.yul\":295:438   */\n    tag_150:\n        /* \"#utility.yul\":462:463   */\n      0x00\n        /* \"#utility.yul\":447:696   */\n    tag_153:\n        /* \"#utility.yul\":472:478   */\n      dup6\n        /* \"#utility.yul\":469:470   */\n      dup2\n        /* \"#utility.yul\":466:479   */\n      lt\n        /* \"#utility.yul\":447:696   */\n      iszero\n      tag_155\n      jumpi\n        /* \"#utility.yul\":540:543   */\n      dup2\n        /* \"#utility.yul\":569:617   */\n      tag_156\n        /* \"#utility.yul\":613:616   */\n      dup9\n        /* \"#utility.yul\":601:611   */\n      dup3\n        /* \"#utility.yul\":569:617   */\n      tag_157\n      jump\t// in\n    tag_156:\n        /* \"#utility.yul\":564:567   */\n      dup5\n        /* \"#utility.yul\":557:618   */\n      mstore\n        /* \"#utility.yul\":647:651   */\n      0x20\n        /* \"#utility.yul\":642:645   */\n      dup5\n        /* \"#utility.yul\":638:652   */\n      add\n        /* \"#utility.yul\":631:652   */\n      swap4\n      pop\n        /* \"#utility.yul\":681:685   */\n      0x20\n        /* \"#utility.yul\":676:679   */\n      dup4\n        /* \"#utility.yul\":672:686   */\n      add\n        /* \"#utility.yul\":665:686   */\n      swap3\n      pop\n        /* \"#utility.yul\":507:696   */\n      pop\n        /* \"#utility.yul\":494:495   */\n      0x01\n        /* \"#utility.yul\":491:492   */\n      dup2\n        /* \"#utility.yul\":487:496   */\n      add\n        /* \"#utility.yul\":482:496   */\n      swap1\n      pop\n        /* \"#utility.yul\":447:696   */\n      jump(tag_153)\n    tag_155:\n        /* \"#utility.yul\":451:465   */\n      pop\n        /* \"#utility.yul\":136:702   */\n      pop\n      pop\n        /* \"#utility.yul\":25:702   */\n      swap4\n      swap3\n      pop\n      pop\n      pop\n      jump\t// out\n        /* \"#utility.yul\":708:847   */\n    tag_158:\n        /* \"#utility.yul\":754:759   */\n      0x00\n        /* \"#utility.yul\":792:798   */\n      dup2\n        /* \"#utility.yul\":779:799   */\n      calldataload\n        /* \"#utility.yul\":770:799   */\n      swap1\n      pop\n        /* \"#utility.yul\":808:841   */\n      tag_160\n        /* \"#utility.yul\":835:840   */\n      dup2\n        /* \"#utility.yul\":808:841   */\n      tag_161\n      jump\t// in\n    tag_160:\n        /* \"#utility.yul\":708:847   */\n      swap3\n      swap2\n      pop\n      pop\n      jump\t// out\n        /* \"#utility.yul\":853:996   */\n    tag_162:\n        /* \"#utility.yul\":910:915   */\n      0x00\n        /* \"#utility.yul\":941:947   */\n      dup2\n        /* \"#utility.yul\":935:948   */\n      mload\n        /* \"#utility.yul\":926:948   */\n      swap1\n      pop\n        /* \"#utility.yul\":957:990   */\n      tag_164\n        /* \"#utility.yul\":984:989   */\n      dup2\n        /* \"#utility.yul\":957:990   */\n      tag_161\n      jump\t// in\n    tag_164:\n        /* \"#utility.yul\":853:996   */\n      swap3\n      swap2\n      pop\n      pop\n      jump\t// out\n        /* \"#utility.yul\":1020:1381   */\n    tag_165:\n        /* \"#utility.yul\":1100:1105   */\n      0x00\n        /* \"#utility.yul\":1149:1152   */\n      dup3\n        /* \"#utility.yul\":1142:1146   */\n      0x1f\n        /* \"#utility.yul\":1134:1140   */\n      dup4\n        /* \"#utility.yul\":1130:1147   */\n      add\n        /* \"#utility.yul\":1126:1153   */\n      slt\n        /* \"#utility.yul\":1116:1238   */\n      tag_167\n      jumpi\n        /* \"#utility.yul\":1157:1236   */\n      tag_168\n      tag_169\n      jump\t// in\n    tag_168:\n        /* \"#utility.yul\":1116:1238   */\n    tag_167:\n        /* \"#utility.yul\":1261:1265   */\n      0x05\n        /* \"#utility.yul\":1283:1375   */\n      tag_170\n        /* \"#utility.yul\":1371:1374   */\n      dup5\n        /* \"#utility.yul\":1363:1369   */\n      dup3\n        /* \"#utility.yul\":1355:1361   */\n      dup6\n        /* \"#utility.yul\":1283:1375   */\n      tag_144\n      jump\t// in\n    tag_170:\n        /* \"#utility.yul\":1274:1375   */\n      swap2\n      pop\n        /* \"#utility.yul\":1106:1381   */\n      pop\n        /* \"#utility.yul\":1020:1381   */\n      swap3\n      swap2\n      pop\n      pop\n      jump\t// out\n        /* \"#utility.yul\":1387:1552   */\n    tag_171:\n        /* \"#utility.yul\":1455:1460   */\n      0x00\n        /* \"#utility.yul\":1486:1492   */\n      dup2\n        /* \"#utility.yul\":1480:1493   */\n      mload\n        /* \"#utility.yul\":1471:1493   */\n      swap1\n      pop\n        /* \"#utility.yul\":1502:1546   */\n      tag_173\n        /* \"#utility.yul\":1540:1545   */\n      dup2\n        /* \"#utility.yul\":1502:1546   */\n      tag_174\n      jump\t// in\n    tag_173:\n        /* \"#utility.yul\":1387:1552   */\n      swap3\n      swap2\n      pop\n      pop\n      jump\t// out\n        /* \"#utility.yul\":1558:1697   */\n    tag_175:\n        /* \"#utility.yul\":1604:1609   */\n      0x00\n        /* \"#utility.yul\":1642:1648   */\n      dup2\n        /* \"#utility.yul\":1629:1649   */\n      calldataload\n        /* \"#utility.yul\":1620:1649   */\n      swap1\n      pop\n        /* \"#utility.yul\":1658:1691   */\n      tag_177\n        /* \"#utility.yul\":1685:1690   */\n      dup2\n        /* \"#utility.yul\":1658:1691   */\n      tag_178\n      jump\t// in\n    tag_177:\n        /* \"#utility.yul\":1558:1697   */\n      swap3\n      swap2\n      pop\n      pop\n      jump\t// out\n        /* \"#utility.yul\":1703:1846   */\n    tag_157:\n        /* \"#utility.yul\":1760:1765   */\n      0x00\n        /* \"#utility.yul\":1791:1797   */\n      dup2\n        /* \"#utility.yul\":1785:1798   */\n      mload\n        /* \"#utility.yul\":1776:1798   */\n      swap1\n      pop\n        /* \"#utility.yul\":1807:1840   */\n      tag_180\n        /* \"#utility.yul\":1834:1839   */\n      dup2\n        /* \"#utility.yul\":1807:1840   */\n      tag_178\n      jump\t// in\n    tag_180:\n        /* \"#utility.yul\":1703:1846   */\n      swap3\n      swap2\n      pop\n      pop\n      jump\t// out\n        /* \"#utility.yul\":1852:1993   */\n    tag_181:\n        /* \"#utility.yul\":1908:1913   */\n      0x00\n        /* \"#utility.yul\":1939:1945   */\n      dup2\n        /* \"#utility.yul\":1933:1946   */\n      mload\n        /* \"#utility.yul\":1924:1946   */\n      swap1\n      pop\n        /* \"#utility.yul\":1955:1987   */\n      tag_183\n        /* \"#utility.yul\":1981:1986   */\n      dup2\n        /* \"#utility.yul\":1955:1987   */\n      tag_184\n      jump\t// in\n    tag_183:\n        /* \"#utility.yul\":1852:1993   */\n      swap3\n      swap2\n      pop\n      pop\n      jump\t// out\n        /* \"#utility.yul\":1999:2328   */\n    tag_72:\n        /* \"#utility.yul\":2058:2064   */\n      0x00\n        /* \"#utility.yul\":2107:2109   */\n      0x20\n        /* \"#utility.yul\":2095:2104   */\n      dup3\n        /* \"#utility.yul\":2086:2093   */\n      dup5\n        /* \"#utility.yul\":2082:2105   */\n      sub\n        /* \"#utility.yul\":2078:2110   */\n      slt\n        /* \"#utility.yul\":2075:2194   */\n      iszero\n      tag_186\n      jumpi\n        /* \"#utility.yul\":2113:2192   */\n      tag_187\n      tag_188\n      jump\t// in\n    tag_187:\n        /* \"#utility.yul\":2075:2194   */\n    tag_186:\n        /* \"#utility.yul\":2233:2234   */\n      0x00\n        /* \"#utility.yul\":2258:2311   */\n      tag_189\n        /* \"#utility.yul\":2303:2310   */\n      dup5\n        /* \"#utility.yul\":2294:2300   */\n      dup3\n        /* \"#utility.yul\":2283:2292   */\n      dup6\n        /* \"#utility.yul\":2279:2301   */\n      add\n        /* \"#utility.yul\":2258:2311   */\n      tag_158\n      jump\t// in\n    tag_189:\n        /* \"#utility.yul\":2248:2311   */\n      swap2\n      pop\n        /* \"#utility.yul\":2204:2321   */\n      pop\n        /* \"#utility.yul\":1999:2328   */\n      swap3\n      swap2\n      pop\n      pop\n      jump\t// out\n        /* \"#utility.yul\":2334:2685   */\n    tag_95:\n        /* \"#utility.yul\":2404:2410   */\n      0x00\n        /* \"#utility.yul\":2453:2455   */\n      0x20\n        /* \"#utility.yul\":2441:2450   */\n      dup3\n        /* \"#utility.yul\":2432:2439   */\n      dup5\n        /* \"#utility.yul\":2428:2451   */\n      sub\n        /* \"#utility.yul\":2424:2456   */\n      slt\n        /* \"#utility.yul\":2421:2540   */\n      iszero\n      tag_191\n      jumpi\n        /* \"#utility.yul\":2459:2538   */\n      tag_192\n      tag_188\n      jump\t// in\n    tag_192:\n        /* \"#utility.yul\":2421:2540   */\n    tag_191:\n        /* \"#utility.yul\":2579:2580   */\n      0x00\n        /* \"#utility.yul\":2604:2668   */\n      tag_193\n        /* \"#utility.yul\":2660:2667   */\n      dup5\n        /* \"#utility.yul\":2651:2657   */\n      dup3\n        /* \"#utility.yul\":2640:2649   */\n      dup6\n        /* \"#utility.yul\":2636:2658   */\n      add\n        /* \"#utility.yul\":2604:2668   */\n      tag_162\n      jump\t// in\n    tag_193:\n        /* \"#utility.yul\":2594:2668   */\n      swap2\n      pop\n        /* \"#utility.yul\":2550:2678   */\n      pop\n        /* \"#utility.yul\":2334:2685   */\n      swap3\n      swap2\n      pop\n      pop\n      jump\t// out\n        /* \"#utility.yul\":2691:3089   */\n    tag_121:\n        /* \"#utility.yul\":2784:2790   */\n      0x00\n        /* \"#utility.yul\":2833:2836   */\n      0xa0\n        /* \"#utility.yul\":2821:2830   */\n      dup3\n        /* \"#utility.yul\":2812:2819   */\n      dup5\n        /* \"#utility.yul\":2808:2831   */\n      sub\n        /* \"#utility.yul\":2804:2837   */\n      slt\n        /* \"#utility.yul\":2801:2921   */\n      iszero\n      tag_195\n      jumpi\n        /* \"#utility.yul\":2840:2919   */\n      tag_196\n      tag_188\n      jump\t// in\n    tag_196:\n        /* \"#utility.yul\":2801:2921   */\n    tag_195:\n        /* \"#utility.yul\":2960:2961   */\n      0x00\n        /* \"#utility.yul\":2985:3072   */\n      tag_197\n        /* \"#utility.yul\":3064:3071   */\n      dup5\n        /* \"#utility.yul\":3055:3061   */\n      dup3\n        /* \"#utility.yul\":3044:3053   */\n      dup6\n        /* \"#utility.yul\":3040:3062   */\n      add\n        /* \"#utility.yul\":2985:3072   */\n      tag_165\n      jump\t// in\n    tag_197:\n        /* \"#utility.yul\":2975:3072   */\n      swap2\n      pop\n        /* \"#utility.yul\":2931:3082   */\n      pop\n        /* \"#utility.yul\":2691:3089   */\n      swap3\n      swap2\n      pop\n      pop\n      jump\t// out\n        /* \"#utility.yul\":3095:3468   */\n    tag_101:\n        /* \"#utility.yul\":3176:3182   */\n      0x00\n        /* \"#utility.yul\":3225:3227   */\n      0x20\n        /* \"#utility.yul\":3213:3222   */\n      dup3\n        /* \"#utility.yul\":3204:3211   */\n      dup5\n        /* \"#utility.yul\":3200:3223   */\n      sub\n        /* \"#utility.yul\":3196:3228   */\n      slt\n        /* \"#utility.yul\":3193:3312   */\n      iszero\n      tag_199\n      jumpi\n        /* \"#utility.yul\":3231:3310   */\n      tag_200\n      tag_188\n      jump\t// in\n    tag_200:\n        /* \"#utility.yul\":3193:3312   */\n    tag_199:\n        /* \"#utility.yul\":3351:3352   */\n      0x00\n        /* \"#utility.yul\":3376:3451   */\n      tag_201\n        /* \"#utility.yul\":3443:3450   */\n      dup5\n        /* \"#utility.yul\":3434:3440   */\n      dup3\n        /* \"#utility.yul\":3423:3432   */\n      dup6\n        /* \"#utility.yul\":3419:3441   */\n      add\n        /* \"#utility.yul\":3376:3451   */\n      tag_171\n      jump\t// in\n    tag_201:\n        /* \"#utility.yul\":3366:3451   */\n      swap2\n      pop\n        /* \"#utility.yul\":3322:3461   */\n      pop\n        /* \"#utility.yul\":3095:3468   */\n      swap3\n      swap2\n      pop\n      pop\n      jump\t// out\n        /* \"#utility.yul\":3474:3803   */\n    tag_20:\n        /* \"#utility.yul\":3533:3539   */\n      0x00\n        /* \"#utility.yul\":3582:3584   */\n      0x20\n        /* \"#utility.yul\":3570:3579   */\n      dup3\n        /* \"#utility.yul\":3561:3568   */\n      dup5\n        /* \"#utility.yul\":3557:3580   */\n      sub\n        /* \"#utility.yul\":3553:3585   */\n      slt\n        /* \"#utility.yul\":3550:3669   */\n      iszero\n      tag_203\n      jumpi\n        /* \"#utility.yul\":3588:3667   */\n      tag_204\n      tag_188\n      jump\t// in\n    tag_204:\n        /* \"#utility.yul\":3550:3669   */\n    tag_203:\n        /* \"#utility.yul\":3708:3709   */\n      0x00\n        /* \"#utility.yul\":3733:3786   */\n      tag_205\n        /* \"#utility.yul\":3778:3785   */\n      dup5\n        /* \"#utility.yul\":3769:3775   */\n      dup3\n        /* \"#utility.yul\":3758:3767   */\n      dup6\n        /* \"#utility.yul\":3754:3776   */\n      add\n        /* \"#utility.yul\":3733:3786   */\n      tag_175\n      jump\t// in\n    tag_205:\n        /* \"#utility.yul\":3723:3786   */\n      swap2\n      pop\n        /* \"#utility.yul\":3679:3796   */\n      pop\n        /* \"#utility.yul\":3474:3803   */\n      swap3\n      swap2\n      pop\n      pop\n      jump\t// out\n        /* \"#utility.yul\":3809:4160   */\n    tag_85:\n        /* \"#utility.yul\":3879:3885   */\n      0x00\n        /* \"#utility.yul\":3928:3930   */\n      0x20\n        /* \"#utility.yul\":3916:3925   */\n      dup3\n        /* \"#utility.yul\":3907:3914   */\n      dup5\n        /* \"#utility.yul\":3903:3926   */\n      sub\n        /* \"#utility.yul\":3899:3931   */\n      slt\n        /* \"#utility.yul\":3896:4015   */\n      iszero\n      tag_207\n      jumpi\n        /* \"#utility.yul\":3934:4013   */\n      tag_208\n      tag_188\n      jump\t// in\n    tag_208:\n        /* \"#utility.yul\":3896:4015   */\n    tag_207:\n        /* \"#utility.yul\":4054:4055   */\n      0x00\n        /* \"#utility.yul\":4079:4143   */\n      tag_209\n        /* \"#utility.yul\":4135:4142   */\n      dup5\n        /* \"#utility.yul\":4126:4132   */\n      dup3\n        /* \"#utility.yul\":4115:4124   */\n      dup6\n        /* \"#utility.yul\":4111:4133   */\n      add\n        /* \"#utility.yul\":4079:4143   */\n      tag_157\n      jump\t// in\n    tag_209:\n        /* \"#utility.yul\":4069:4143   */\n      swap2\n      pop\n        /* \"#utility.yul\":4025:4153   */\n      pop\n        /* \"#utility.yul\":3809:4160   */\n      swap3\n      swap2\n      pop\n      pop\n      jump\t// out\n        /* \"#utility.yul\":4166:4515   */\n    tag_79:\n        /* \"#utility.yul\":4235:4241   */\n      0x00\n        /* \"#utility.yul\":4284:4286   */\n      0x20\n        /* \"#utility.yul\":4272:4281   */\n      dup3\n        /* \"#utility.yul\":4263:4270   */\n      dup5\n        /* \"#utility.yul\":4259:4282   */\n      sub\n        /* \"#utility.yul\":4255:4287   */\n      slt\n        /* \"#utility.yul\":4252:4371   */\n      iszero\n      tag_211\n      jumpi\n        /* \"#utility.yul\":4290:4369   */\n      tag_212\n      tag_188\n      jump\t// in\n    tag_212:\n        /* \"#utility.yul\":4252:4371   */\n    tag_211:\n        /* \"#utility.yul\":4410:4411   */\n      0x00\n        /* \"#utility.yul\":4435:4498   */\n      tag_213\n        /* \"#utility.yul\":4490:4497   */\n      dup5\n        /* \"#utility.yul\":4481:4487   */\n      dup3\n        /* \"#utility.yul\":4470:4479   */\n      dup6\n        /* \"#utility.yul\":4466:4488   */\n      add\n        /* \"#utility.yul\":4435:4498   */\n      tag_181\n      jump\t// in\n    tag_213:\n        /* \"#utility.yul\":4425:4498   */\n      swap2\n      pop\n        /* \"#utility.yul\":4381:4508   */\n      pop\n        /* \"#utility.yul\":4166:4515   */\n      swap3\n      swap2\n      pop\n      pop\n      jump\t// out\n        /* \"#utility.yul\":4521:4700   */\n    tag_214:\n        /* \"#utility.yul\":4590:4600   */\n      0x00\n        /* \"#utility.yul\":4611:4657   */\n      tag_216\n        /* \"#utility.yul\":4653:4656   */\n      dup4\n        /* \"#utility.yul\":4645:4651   */\n      dup4\n        /* \"#utility.yul\":4611:4657   */\n      tag_217\n      jump\t// in\n    tag_216:\n        /* \"#utility.yul\":4689:4693   */\n      0x20\n        /* \"#utility.yul\":4684:4687   */\n      dup4\n        /* \"#utility.yul\":4680:4694   */\n      add\n        /* \"#utility.yul\":4666:4694   */\n      swap1\n      pop\n        /* \"#utility.yul\":4521:4700   */\n      swap3\n      swap2\n      pop\n      pop\n      jump\t// out\n        /* \"#utility.yul\":4706:4824   */\n    tag_218:\n        /* \"#utility.yul\":4793:4817   */\n      tag_220\n        /* \"#utility.yul\":4811:4816   */\n      dup2\n        /* \"#utility.yul\":4793:4817   */\n      tag_221\n      jump\t// in\n    tag_220:\n        /* \"#utility.yul\":4788:4791   */\n      dup3\n        /* \"#utility.yul\":4781:4818   */\n      mstore\n        /* \"#utility.yul\":4706:4824   */\n      pop\n      pop\n      jump\t// out\n        /* \"#utility.yul\":4862:5556   */\n    tag_222:\n        /* \"#utility.yul\":4998:5050   */\n      tag_224\n        /* \"#utility.yul\":5044:5049   */\n      dup2\n        /* \"#utility.yul\":4998:5050   */\n      tag_225\n      jump\t// in\n    tag_224:\n        /* \"#utility.yul\":5066:5150   */\n      tag_226\n        /* \"#utility.yul\":5143:5149   */\n      dup2\n        /* \"#utility.yul\":5138:5141   */\n      dup5\n        /* \"#utility.yul\":5066:5150   */\n      tag_227\n      jump\t// in\n    tag_226:\n        /* \"#utility.yul\":5059:5150   */\n      swap3\n      pop\n        /* \"#utility.yul\":5174:5228   */\n      tag_228\n        /* \"#utility.yul\":5222:5227   */\n      dup3\n        /* \"#utility.yul\":5174:5228   */\n      tag_229\n      jump\t// in\n    tag_228:\n        /* \"#utility.yul\":5251:5258   */\n      dup1\n        /* \"#utility.yul\":5282:5283   */\n      0x00\n        /* \"#utility.yul\":5267:5549   */\n    tag_230:\n        /* \"#utility.yul\":5292:5298   */\n      dup4\n        /* \"#utility.yul\":5289:5290   */\n      dup2\n        /* \"#utility.yul\":5286:5299   */\n      lt\n        /* \"#utility.yul\":5267:5549   */\n      iszero\n      tag_232\n      jumpi\n        /* \"#utility.yul\":5368:5374   */\n      dup2\n        /* \"#utility.yul\":5362:5375   */\n      mload\n        /* \"#utility.yul\":5395:5458   */\n      tag_233\n        /* \"#utility.yul\":5454:5457   */\n      dup8\n        /* \"#utility.yul\":5439:5452   */\n      dup3\n        /* \"#utility.yul\":5395:5458   */\n      tag_214\n      jump\t// in\n    tag_233:\n        /* \"#utility.yul\":5388:5458   */\n      swap7\n      pop\n        /* \"#utility.yul\":5481:5539   */\n      tag_234\n        /* \"#utility.yul\":5532:5538   */\n      dup4\n        /* \"#utility.yul\":5481:5539   */\n      tag_235\n      jump\t// in\n    tag_234:\n        /* \"#utility.yul\":5471:5539   */\n      swap3\n      pop\n        /* \"#utility.yul\":5327:5549   */\n      pop\n        /* \"#utility.yul\":5314:5315   */\n      0x01\n        /* \"#utility.yul\":5311:5312   */\n      dup2\n        /* \"#utility.yul\":5307:5316   */\n      add\n        /* \"#utility.yul\":5302:5316   */\n      swap1\n      pop\n        /* \"#utility.yul\":5267:5549   */\n      jump(tag_230)\n    tag_232:\n        /* \"#utility.yul\":5271:5285   */\n      pop\n        /* \"#utility.yul\":4974:5556   */\n      pop\n      pop\n      pop\n        /* \"#utility.yul\":4862:5556   */\n      pop\n      pop\n      jump\t// out\n        /* \"#utility.yul\":5562:5719   */\n    tag_236:\n        /* \"#utility.yul\":5662:5712   */\n      tag_238\n        /* \"#utility.yul\":5706:5711   */\n      dup2\n        /* \"#utility.yul\":5662:5712   */\n      tag_239\n      jump\t// in\n    tag_238:\n        /* \"#utility.yul\":5657:5660   */\n      dup3\n        /* \"#utility.yul\":5650:5713   */\n      mstore\n        /* \"#utility.yul\":5562:5719   */\n      pop\n      pop\n      jump\t// out\n        /* \"#utility.yul\":5725:5874   */\n    tag_240:\n        /* \"#utility.yul\":5821:5867   */\n      tag_242\n        /* \"#utility.yul\":5861:5866   */\n      dup2\n        /* \"#utility.yul\":5821:5867   */\n      tag_243\n      jump\t// in\n    tag_242:\n        /* \"#utility.yul\":5816:5819   */\n      dup3\n        /* \"#utility.yul\":5809:5868   */\n      mstore\n        /* \"#utility.yul\":5725:5874   */\n      pop\n      pop\n      jump\t// out\n        /* \"#utility.yul\":5880:6246   */\n    tag_244:\n        /* \"#utility.yul\":6022:6025   */\n      0x00\n        /* \"#utility.yul\":6043:6110   */\n      tag_246\n        /* \"#utility.yul\":6107:6109   */\n      0x26\n        /* \"#utility.yul\":6102:6105   */\n      dup4\n        /* \"#utility.yul\":6043:6110   */\n      tag_247\n      jump\t// in\n    tag_246:\n        /* \"#utility.yul\":6036:6110   */\n      swap2\n      pop\n        /* \"#utility.yul\":6119:6212   */\n      tag_248\n        /* \"#utility.yul\":6208:6211   */\n      dup3\n        /* \"#utility.yul\":6119:6212   */\n      tag_249\n      jump\t// in\n    tag_248:\n        /* \"#utility.yul\":6237:6239   */\n      0x40\n        /* \"#utility.yul\":6232:6235   */\n      dup3\n        /* \"#utility.yul\":6228:6240   */\n      add\n        /* \"#utility.yul\":6221:6240   */\n      swap1\n      pop\n        /* \"#utility.yul\":5880:6246   */\n      swap2\n      swap1\n      pop\n      jump\t// out\n        /* \"#utility.yul\":6252:6618   */\n    tag_250:\n        /* \"#utility.yul\":6394:6397   */\n      0x00\n        /* \"#utility.yul\":6415:6482   */\n      tag_252\n        /* \"#utility.yul\":6479:6481   */\n      0x20\n        /* \"#utility.yul\":6474:6477   */\n      dup4\n        /* \"#utility.yul\":6415:6482   */\n      tag_247\n      jump\t// in\n    tag_252:\n        /* \"#utility.yul\":6408:6482   */\n      swap2\n      pop\n        /* \"#utility.yul\":6491:6584   */\n      tag_253\n        /* \"#utility.yul\":6580:6583   */\n      dup3\n        /* \"#utility.yul\":6491:6584   */\n      tag_254\n      jump\t// in\n    tag_253:\n        /* \"#utility.yul\":6609:6611   */\n      0x20\n        /* \"#utility.yul\":6604:6607   */\n      dup3\n        /* \"#utility.yul\":6600:6612   */\n      add\n        /* \"#utility.yul\":6593:6612   */\n      swap1\n      pop\n        /* \"#utility.yul\":6252:6618   */\n      swap2\n      swap1\n      pop\n      jump\t// out\n        /* \"#utility.yul\":6682:7015   */\n    tag_255:\n        /* \"#utility.yul\":6827:6831   */\n      0x20\n        /* \"#utility.yul\":6822:6825   */\n      dup3\n        /* \"#utility.yul\":6818:6832   */\n      add\n        /* \"#utility.yul\":6916:6920   */\n      0x00\n        /* \"#utility.yul\":6909:6914   */\n      dup3\n        /* \"#utility.yul\":6905:6921   */\n      add\n        /* \"#utility.yul\":6899:6922   */\n      mload\n        /* \"#utility.yul\":6935:6998   */\n      tag_257\n        /* \"#utility.yul\":6992:6996   */\n      0x00\n        /* \"#utility.yul\":6987:6990   */\n      dup6\n        /* \"#utility.yul\":6983:6997   */\n      add\n        /* \"#utility.yul\":6969:6981   */\n      dup3\n        /* \"#utility.yul\":6935:6998   */\n      tag_217\n      jump\t// in\n    tag_257:\n        /* \"#utility.yul\":6842:7008   */\n      pop\n        /* \"#utility.yul\":6796:7015   */\n      pop\n        /* \"#utility.yul\":6682:7015   */\n      pop\n      pop\n      jump\t// out\n        /* \"#utility.yul\":7021:7129   */\n    tag_217:\n        /* \"#utility.yul\":7098:7122   */\n      tag_259\n        /* \"#utility.yul\":7116:7121   */\n      dup2\n        /* \"#utility.yul\":7098:7122   */\n      tag_260\n      jump\t// in\n    tag_259:\n        /* \"#utility.yul\":7093:7096   */\n      dup3\n        /* \"#utility.yul\":7086:7123   */\n      mstore\n        /* \"#utility.yul\":7021:7129   */\n      pop\n      pop\n      jump\t// out\n        /* \"#utility.yul\":7135:7253   */\n    tag_261:\n        /* \"#utility.yul\":7222:7246   */\n      tag_263\n        /* \"#utility.yul\":7240:7245   */\n      dup2\n        /* \"#utility.yul\":7222:7246   */\n      tag_260\n      jump\t// in\n    tag_263:\n        /* \"#utility.yul\":7217:7220   */\n      dup3\n        /* \"#utility.yul\":7210:7247   */\n      mstore\n        /* \"#utility.yul\":7135:7253   */\n      pop\n      pop\n      jump\t// out\n        /* \"#utility.yul\":7259:7374   */\n    tag_264:\n        /* \"#utility.yul\":7344:7367   */\n      tag_266\n        /* \"#utility.yul\":7361:7366   */\n      dup2\n        /* \"#utility.yul\":7344:7367   */\n      tag_267\n      jump\t// in\n    tag_266:\n        /* \"#utility.yul\":7339:7342   */\n      dup3\n        /* \"#utility.yul\":7332:7368   */\n      mstore\n        /* \"#utility.yul\":7259:7374   */\n      pop\n      pop\n      jump\t// out\n        /* \"#utility.yul\":7380:7602   */\n    tag_46:\n        /* \"#utility.yul\":7473:7477   */\n      0x00\n        /* \"#utility.yul\":7511:7513   */\n      0x20\n        /* \"#utility.yul\":7500:7509   */\n      dup3\n        /* \"#utility.yul\":7496:7514   */\n      add\n        /* \"#utility.yul\":7488:7514   */\n      swap1\n      pop\n        /* \"#utility.yul\":7524:7595   */\n      tag_269\n        /* \"#utility.yul\":7592:7593   */\n      0x00\n        /* \"#utility.yul\":7581:7590   */\n      dup4\n        /* \"#utility.yul\":7577:7594   */\n      add\n        /* \"#utility.yul\":7568:7574   */\n      dup5\n        /* \"#utility.yul\":7524:7595   */\n      tag_218\n      jump\t// in\n    tag_269:\n        /* \"#utility.yul\":7380:7602   */\n      swap3\n      swap2\n      pop\n      pop\n      jump\t// out\n        /* \"#utility.yul\":7608:7923   */\n    tag_65:\n        /* \"#utility.yul\":7747:7751   */\n      0x00\n        /* \"#utility.yul\":7785:7788   */\n      0xa0\n        /* \"#utility.yul\":7774:7783   */\n      dup3\n        /* \"#utility.yul\":7770:7789   */\n      add\n        /* \"#utility.yul\":7762:7789   */\n      swap1\n      pop\n        /* \"#utility.yul\":7799:7916   */\n      tag_271\n        /* \"#utility.yul\":7913:7914   */\n      0x00\n        /* \"#utility.yul\":7902:7911   */\n      dup4\n        /* \"#utility.yul\":7898:7915   */\n      add\n        /* \"#utility.yul\":7889:7895   */\n      dup5\n        /* \"#utility.yul\":7799:7916   */\n      tag_222\n      jump\t// in\n    tag_271:\n        /* \"#utility.yul\":7608:7923   */\n      swap3\n      swap2\n      pop\n      pop\n      jump\t// out\n        /* \"#utility.yul\":7929:8177   */\n    tag_41:\n        /* \"#utility.yul\":8035:8039   */\n      0x00\n        /* \"#utility.yul\":8073:8075   */\n      0x20\n        /* \"#utility.yul\":8062:8071   */\n      dup3\n        /* \"#utility.yul\":8058:8076   */\n      add\n        /* \"#utility.yul\":8050:8076   */\n      swap1\n      pop\n        /* \"#utility.yul\":8086:8170   */\n      tag_273\n        /* \"#utility.yul\":8167:8168   */\n      0x00\n        /* \"#utility.yul\":8156:8165   */\n      dup4\n        /* \"#utility.yul\":8152:8169   */\n      add\n        /* \"#utility.yul\":8143:8149   */\n      dup5\n        /* \"#utility.yul\":8086:8170   */\n      tag_236\n      jump\t// in\n    tag_273:\n        /* \"#utility.yul\":7929:8177   */\n      swap3\n      swap2\n      pop\n      pop\n      jump\t// out\n        /* \"#utility.yul\":8183:8423   */\n    tag_51:\n        /* \"#utility.yul\":8285:8289   */\n      0x00\n        /* \"#utility.yul\":8323:8325   */\n      0x20\n        /* \"#utility.yul\":8312:8321   */\n      dup3\n        /* \"#utility.yul\":8308:8326   */\n      add\n        /* \"#utility.yul\":8300:8326   */\n      swap1\n      pop\n        /* \"#utility.yul\":8336:8416   */\n      tag_275\n        /* \"#utility.yul\":8413:8414   */\n      0x00\n        /* \"#utility.yul\":8402:8411   */\n      dup4\n        /* \"#utility.yul\":8398:8415   */\n      add\n        /* \"#utility.yul\":8389:8395   */\n      dup5\n        /* \"#utility.yul\":8336:8416   */\n      tag_240\n      jump\t// in\n    tag_275:\n        /* \"#utility.yul\":8183:8423   */\n      swap3\n      swap2\n      pop\n      pop\n      jump\t// out\n        /* \"#utility.yul\":8429:8848   */\n    tag_132:\n        /* \"#utility.yul\":8595:8599   */\n      0x00\n        /* \"#utility.yul\":8633:8635   */\n      0x20\n        /* \"#utility.yul\":8622:8631   */\n      dup3\n        /* \"#utility.yul\":8618:8636   */\n      add\n        /* \"#utility.yul\":8610:8636   */\n      swap1\n      pop\n        /* \"#utility.yul\":8682:8691   */\n      dup2\n        /* \"#utility.yul\":8676:8680   */\n      dup2\n        /* \"#utility.yul\":8672:8692   */\n      sub\n        /* \"#utility.yul\":8668:8669   */\n      0x00\n        /* \"#utility.yul\":8657:8666   */\n      dup4\n        /* \"#utility.yul\":8653:8670   */\n      add\n        /* \"#utility.yul\":8646:8693   */\n      mstore\n        /* \"#utility.yul\":8710:8841   */\n      tag_277\n        /* \"#utility.yul\":8836:8840   */\n      dup2\n        /* \"#utility.yul\":8710:8841   */\n      tag_244\n      jump\t// in\n    tag_277:\n        /* \"#utility.yul\":8702:8841   */\n      swap1\n      pop\n        /* \"#utility.yul\":8429:8848   */\n      swap2\n      swap1\n      pop\n      jump\t// out\n        /* \"#utility.yul\":8854:9273   */\n    tag_140:\n        /* \"#utility.yul\":9020:9024   */\n      0x00\n        /* \"#utility.yul\":9058:9060   */\n      0x20\n        /* \"#utility.yul\":9047:9056   */\n      dup3\n        /* \"#utility.yul\":9043:9061   */\n      add\n        /* \"#utility.yul\":9035:9061   */\n      swap1\n      pop\n        /* \"#utility.yul\":9107:9116   */\n      dup2\n        /* \"#utility.yul\":9101:9105   */\n      dup2\n        /* \"#utility.yul\":9097:9117   */\n      sub\n        /* \"#utility.yul\":9093:9094   */\n      0x00\n        /* \"#utility.yul\":9082:9091   */\n      dup4\n        /* \"#utility.yul\":9078:9095   */\n      add\n        /* \"#utility.yul\":9071:9118   */\n      mstore\n        /* \"#utility.yul\":9135:9266   */\n      tag_279\n        /* \"#utility.yul\":9261:9265   */\n      dup2\n        /* \"#utility.yul\":9135:9266   */\n      tag_250\n      jump\t// in\n    tag_279:\n        /* \"#utility.yul\":9127:9266   */\n      swap1\n      pop\n        /* \"#utility.yul\":8854:9273   */\n      swap2\n      swap1\n      pop\n      jump\t// out\n        /* \"#utility.yul\":9279:9597   */\n    tag_36:\n        /* \"#utility.yul\":9420:9424   */\n      0x00\n        /* \"#utility.yul\":9458:9460   */\n      0x20\n        /* \"#utility.yul\":9447:9456   */\n      dup3\n        /* \"#utility.yul\":9443:9461   */\n      add\n        /* \"#utility.yul\":9435:9461   */\n      swap1\n      pop\n        /* \"#utility.yul\":9471:9590   */\n      tag_281\n        /* \"#utility.yul\":9587:9588   */\n      0x00\n        /* \"#utility.yul\":9576:9585   */\n      dup4\n        /* \"#utility.yul\":9572:9589   */\n      add\n        /* \"#utility.yul\":9563:9569   */\n      dup5\n        /* \"#utility.yul\":9471:9590   */\n      tag_255\n      jump\t// in\n    tag_281:\n        /* \"#utility.yul\":9279:9597   */\n      swap3\n      swap2\n      pop\n      pop\n      jump\t// out\n        /* \"#utility.yul\":9603:9825   */\n    tag_28:\n        /* \"#utility.yul\":9696:9700   */\n      0x00\n        /* \"#utility.yul\":9734:9736   */\n      0x20\n        /* \"#utility.yul\":9723:9732   */\n      dup3\n        /* \"#utility.yul\":9719:9737   */\n      add\n        /* \"#utility.yul\":9711:9737   */\n      swap1\n      pop\n        /* \"#utility.yul\":9747:9818   */\n      tag_283\n        /* \"#utility.yul\":9815:9816   */\n      0x00\n        /* \"#utility.yul\":9804:9813   */\n      dup4\n        /* \"#utility.yul\":9800:9817   */\n      add\n        /* \"#utility.yul\":9791:9797   */\n      dup5\n        /* \"#utility.yul\":9747:9818   */\n      tag_261\n      jump\t// in\n    tag_283:\n        /* \"#utility.yul\":9603:9825   */\n      swap3\n      swap2\n      pop\n      pop\n      jump\t// out\n        /* \"#utility.yul\":9831:10049   */\n    tag_23:\n        /* \"#utility.yul\":9922:9926   */\n      0x00\n        /* \"#utility.yul\":9960:9962   */\n      0x20\n        /* \"#utility.yul\":9949:9958   */\n      dup3\n        /* \"#utility.yul\":9945:9963   */\n      add\n        /* \"#utility.yul\":9937:9963   */\n      swap1\n      pop\n        /* \"#utility.yul\":9973:10042   */\n      tag_285\n        /* \"#utility.yul\":10039:10040   */\n      0x00\n        /* \"#utility.yul\":10028:10037   */\n      dup4\n        /* \"#utility.yul\":10024:10041   */\n      add\n        /* \"#utility.yul\":10015:10021   */\n      dup5\n        /* \"#utility.yul\":9973:10042   */\n      tag_264\n      jump\t// in\n    tag_285:\n        /* \"#utility.yul\":9831:10049   */\n      swap3\n      swap2\n      pop\n      pop\n      jump\t// out\n        /* \"#utility.yul\":10055:10184   */\n    tag_149:\n        /* \"#utility.yul\":10089:10095   */\n      0x00\n        /* \"#utility.yul\":10116:10136   */\n      tag_287\n      tag_288\n      jump\t// in\n    tag_287:\n        /* \"#utility.yul\":10106:10136   */\n      swap1\n      pop\n        /* \"#utility.yul\":10145:10178   */\n      tag_289\n        /* \"#utility.yul\":10173:10177   */\n      dup3\n        /* \"#utility.yul\":10165:10171   */\n      dup3\n        /* \"#utility.yul\":10145:10178   */\n      tag_290\n      jump\t// in\n    tag_289:\n        /* \"#utility.yul\":10055:10184   */\n      swap2\n      swap1\n      pop\n      jump\t// out\n        /* \"#utility.yul\":10190:10265   */\n    tag_288:\n        /* \"#utility.yul\":10223:10229   */\n      0x00\n        /* \"#utility.yul\":10256:10258   */\n      0x40\n        /* \"#utility.yul\":10250:10259   */\n      mload\n        /* \"#utility.yul\":10240:10259   */\n      swap1\n      pop\n        /* \"#utility.yul\":10190:10265   */\n      swap1\n      jump\t// out\n        /* \"#utility.yul\":10271:10520   */\n    tag_148:\n        /* \"#utility.yul\":10346:10350   */\n      0x00\n        /* \"#utility.yul\":10436:10454   */\n      0xffffffffffffffff\n        /* \"#utility.yul\":10428:10434   */\n      dup3\n        /* \"#utility.yul\":10425:10455   */\n      gt\n        /* \"#utility.yul\":10422:10478   */\n      iszero\n      tag_293\n      jumpi\n        /* \"#utility.yul\":10458:10476   */\n      tag_294\n      tag_295\n      jump\t// in\n    tag_294:\n        /* \"#utility.yul\":10422:10478   */\n    tag_293:\n        /* \"#utility.yul\":10508:10512   */\n      0x20\n        /* \"#utility.yul\":10500:10506   */\n      dup3\n        /* \"#utility.yul\":10496:10513   */\n      mul\n        /* \"#utility.yul\":10488:10513   */\n      swap1\n      pop\n        /* \"#utility.yul\":10271:10520   */\n      swap2\n      swap1\n      pop\n      jump\t// out\n        /* \"#utility.yul\":10526:10624   */\n    tag_229:\n        /* \"#utility.yul\":10591:10595   */\n      0x00\n        /* \"#utility.yul\":10614:10617   */\n      dup2\n        /* \"#utility.yul\":10606:10617   */\n      swap1\n      pop\n        /* \"#utility.yul\":10526:10624   */\n      swap2\n      swap1\n      pop\n      jump\t// out\n        /* \"#utility.yul\":10630:10734   */\n    tag_225:\n        /* \"#utility.yul\":10695:10701   */\n      0x00\n        /* \"#utility.yul\":10723:10727   */\n      0x05\n        /* \"#utility.yul\":10713:10727   */\n      swap1\n      pop\n        /* \"#utility.yul\":10630:10734   */\n      swap2\n      swap1\n      pop\n      jump\t// out\n        /* \"#utility.yul\":10740:10851   */\n    tag_235:\n        /* \"#utility.yul\":10808:10812   */\n      0x00\n        /* \"#utility.yul\":10840:10844   */\n      0x20\n        /* \"#utility.yul\":10835:10838   */\n      dup3\n        /* \"#utility.yul\":10831:10845   */\n      add\n        /* \"#utility.yul\":10823:10845   */\n      swap1\n      pop\n        /* \"#utility.yul\":10740:10851   */\n      swap2\n      swap1\n      pop\n      jump\t// out\n        /* \"#utility.yul\":10857:11000   */\n    tag_227:\n        /* \"#utility.yul\":10954:10965   */\n      0x00\n        /* \"#utility.yul\":10991:10994   */\n      dup2\n        /* \"#utility.yul\":10976:10994   */\n      swap1\n      pop\n        /* \"#utility.yul\":10857:11000   */\n      swap3\n      swap2\n      pop\n      pop\n      jump\t// out\n        /* \"#utility.yul\":11006:11175   */\n    tag_247:\n        /* \"#utility.yul\":11090:11101   */\n      0x00\n        /* \"#utility.yul\":11124:11130   */\n      dup3\n        /* \"#utility.yul\":11119:11122   */\n      dup3\n        /* \"#utility.yul\":11112:11131   */\n      mstore\n        /* \"#utility.yul\":11164:11168   */\n      0x20\n        /* \"#utility.yul\":11159:11162   */\n      dup3\n        /* \"#utility.yul\":11155:11169   */\n      add\n        /* \"#utility.yul\":11140:11169   */\n      swap1\n      pop\n        /* \"#utility.yul\":11006:11175   */\n      swap3\n      swap2\n      pop\n      pop\n      jump\t// out\n        /* \"#utility.yul\":11181:11277   */\n    tag_221:\n        /* \"#utility.yul\":11218:11225   */\n      0x00\n        /* \"#utility.yul\":11247:11271   */\n      tag_302\n        /* \"#utility.yul\":11265:11270   */\n      dup3\n        /* \"#utility.yul\":11247:11271   */\n      tag_303\n      jump\t// in\n    tag_302:\n        /* \"#utility.yul\":11236:11271   */\n      swap1\n      pop\n        /* \"#utility.yul\":11181:11277   */\n      swap2\n      swap1\n      pop\n      jump\t// out\n        /* \"#utility.yul\":11283:11416   */\n    tag_304:\n        /* \"#utility.yul\":11331:11338   */\n      0x00\n        /* \"#utility.yul\":11360:11365   */\n      dup2\n        /* \"#utility.yul\":11349:11365   */\n      swap1\n      pop\n        /* \"#utility.yul\":11366:11410   */\n      tag_306\n        /* \"#utility.yul\":11404:11409   */\n      dup3\n        /* \"#utility.yul\":11366:11410   */\n      tag_307\n      jump\t// in\n    tag_306:\n        /* \"#utility.yul\":11283:11416   */\n      swap2\n      swap1\n      pop\n      jump\t// out\n        /* \"#utility.yul\":11422:11548   */\n    tag_303:\n        /* \"#utility.yul\":11459:11466   */\n      0x00\n        /* \"#utility.yul\":11499:11541   */\n      0xffffffffffffffffffffffffffffffffffffffff\n        /* \"#utility.yul\":11492:11497   */\n      dup3\n        /* \"#utility.yul\":11488:11542   */\n      and\n        /* \"#utility.yul\":11477:11542   */\n      swap1\n      pop\n        /* \"#utility.yul\":11422:11548   */\n      swap2\n      swap1\n      pop\n      jump\t// out\n        /* \"#utility.yul\":11554:11631   */\n    tag_260:\n        /* \"#utility.yul\":11591:11598   */\n      0x00\n        /* \"#utility.yul\":11620:11625   */\n      dup2\n        /* \"#utility.yul\":11609:11625   */\n      swap1\n      pop\n        /* \"#utility.yul\":11554:11631   */\n      swap2\n      swap1\n      pop\n      jump\t// out\n        /* \"#utility.yul\":11637:11730   */\n    tag_267:\n        /* \"#utility.yul\":11673:11680   */\n      0x00\n        /* \"#utility.yul\":11713:11723   */\n      0xffffffff\n        /* \"#utility.yul\":11706:11711   */\n      dup3\n        /* \"#utility.yul\":11702:11724   */\n      and\n        /* \"#utility.yul\":11691:11724   */\n      swap1\n      pop\n        /* \"#utility.yul\":11637:11730   */\n      swap2\n      swap1\n      pop\n      jump\t// out\n        /* \"#utility.yul\":11736:11875   */\n    tag_239:\n        /* \"#utility.yul\":11799:11808   */\n      0x00\n        /* \"#utility.yul\":11832:11869   */\n      tag_312\n        /* \"#utility.yul\":11863:11868   */\n      dup3\n        /* \"#utility.yul\":11832:11869   */\n      tag_313\n      jump\t// in\n    tag_312:\n        /* \"#utility.yul\":11819:11869   */\n      swap1\n      pop\n        /* \"#utility.yul\":11736:11875   */\n      swap2\n      swap1\n      pop\n      jump\t// out\n        /* \"#utility.yul\":11881:12014   */\n    tag_243:\n        /* \"#utility.yul\":11940:11949   */\n      0x00\n        /* \"#utility.yul\":11973:12008   */\n      tag_315\n        /* \"#utility.yul\":12002:12007   */\n      dup3\n        /* \"#utility.yul\":11973:12008   */\n      tag_304\n      jump\t// in\n    tag_315:\n        /* \"#utility.yul\":11960:12008   */\n      swap1\n      pop\n        /* \"#utility.yul\":11881:12014   */\n      swap2\n      swap1\n      pop\n      jump\t// out\n        /* \"#utility.yul\":12020:12146   */\n    tag_313:\n        /* \"#utility.yul\":12070:12079   */\n      0x00\n        /* \"#utility.yul\":12103:12140   */\n      tag_317\n        /* \"#utility.yul\":12134:12139   */\n      dup3\n        /* \"#utility.yul\":12103:12140   */\n      tag_318\n      jump\t// in\n    tag_317:\n        /* \"#utility.yul\":12090:12140   */\n      swap1\n      pop\n        /* \"#utility.yul\":12020:12146   */\n      swap2\n      swap1\n      pop\n      jump\t// out\n        /* \"#utility.yul\":12152:12265   */\n    tag_318:\n        /* \"#utility.yul\":12202:12211   */\n      0x00\n        /* \"#utility.yul\":12235:12259   */\n      tag_320\n        /* \"#utility.yul\":12253:12258   */\n      dup3\n        /* \"#utility.yul\":12235:12259   */\n      tag_303\n      jump\t// in\n    tag_320:\n        /* \"#utility.yul\":12222:12259   */\n      swap1\n      pop\n        /* \"#utility.yul\":12152:12265   */\n      swap2\n      swap1\n      pop\n      jump\t// out\n        /* \"#utility.yul\":12271:12552   */\n    tag_290:\n        /* \"#utility.yul\":12354:12381   */\n      tag_322\n        /* \"#utility.yul\":12376:12380   */\n      dup3\n        /* \"#utility.yul\":12354:12381   */\n      tag_323\n      jump\t// in\n    tag_322:\n        /* \"#utility.yul\":12346:12352   */\n      dup2\n        /* \"#utility.yul\":12342:12382   */\n      add\n        /* \"#utility.yul\":12484:12490   */\n      dup2\n        /* \"#utility.yul\":12472:12482   */\n      dup2\n        /* \"#utility.yul\":12469:12491   */\n      lt\n        /* \"#utility.yul\":12448:12466   */\n      0xffffffffffffffff\n        /* \"#utility.yul\":12436:12446   */\n      dup3\n        /* \"#utility.yul\":12433:12467   */\n      gt\n        /* \"#utility.yul\":12430:12492   */\n      or\n        /* \"#utility.yul\":12427:12515   */\n      iszero\n      tag_324\n      jumpi\n        /* \"#utility.yul\":12495:12513   */\n      tag_325\n      tag_295\n      jump\t// in\n    tag_325:\n        /* \"#utility.yul\":12427:12515   */\n    tag_324:\n        /* \"#utility.yul\":12535:12545   */\n      dup1\n        /* \"#utility.yul\":12531:12533   */\n      0x40\n        /* \"#utility.yul\":12524:12546   */\n      mstore\n        /* \"#utility.yul\":12314:12552   */\n      pop\n        /* \"#utility.yul\":12271:12552   */\n      pop\n      pop\n      jump\t// out\n        /* \"#utility.yul\":12558:12738   */\n    tag_326:\n        /* \"#utility.yul\":12606:12683   */\n      0x4e487b7100000000000000000000000000000000000000000000000000000000\n        /* \"#utility.yul\":12603:12604   */\n      0x00\n        /* \"#utility.yul\":12596:12684   */\n      mstore\n        /* \"#utility.yul\":12703:12707   */\n      0x21\n        /* \"#utility.yul\":12700:12701   */\n      0x04\n        /* \"#utility.yul\":12693:12708   */\n      mstore\n        /* \"#utility.yul\":12727:12731   */\n      0x24\n        /* \"#utility.yul\":12724:12725   */\n      0x00\n        /* \"#utility.yul\":12717:12732   */\n      revert\n        /* \"#utility.yul\":12744:12924   */\n    tag_295:\n        /* \"#utility.yul\":12792:12869   */\n      0x4e487b7100000000000000000000000000000000000000000000000000000000\n        /* \"#utility.yul\":12789:12790   */\n      0x00\n        /* \"#utility.yul\":12782:12870   */\n      mstore\n        /* \"#utility.yul\":12889:12893   */\n      0x41\n        /* \"#utility.yul\":12886:12887   */\n      0x04\n        /* \"#utility.yul\":12879:12894   */\n      mstore\n        /* \"#utility.yul\":12913:12917   */\n      0x24\n        /* \"#utility.yul\":12910:12911   */\n      0x00\n        /* \"#utility.yul\":12903:12918   */\n      revert\n        /* \"#utility.yul\":12930:13047   */\n    tag_169:\n        /* \"#utility.yul\":13039:13040   */\n      0x00\n        /* \"#utility.yul\":13036:13037   */\n      dup1\n        /* \"#utility.yul\":13029:13041   */\n      revert\n        /* \"#utility.yul\":13053:13170   */\n    tag_152:\n        /* \"#utility.yul\":13162:13163   */\n      0x00\n        /* \"#utility.yul\":13159:13160   */\n      dup1\n        /* \"#utility.yul\":13152:13164   */\n      revert\n        /* \"#utility.yul\":13299:13416   */\n    tag_188:\n        /* \"#utility.yul\":13408:13409   */\n      0x00\n        /* \"#utility.yul\":13405:13406   */\n      dup1\n        /* \"#utility.yul\":13398:13410   */\n      revert\n        /* \"#utility.yul\":13422:13524   */\n    tag_323:\n        /* \"#utility.yul\":13463:13469   */\n      0x00\n        /* \"#utility.yul\":13514:13516   */\n      0x1f\n        /* \"#utility.yul\":13510:13517   */\n      not\n        /* \"#utility.yul\":13505:13507   */\n      0x1f\n        /* \"#utility.yul\":13498:13503   */\n      dup4\n        /* \"#utility.yul\":13494:13508   */\n      add\n        /* \"#utility.yul\":13490:13518   */\n      and\n        /* \"#utility.yul\":13480:13518   */\n      swap1\n      pop\n        /* \"#utility.yul\":13422:13524   */\n      swap2\n      swap1\n      pop\n      jump\t// out\n        /* \"#utility.yul\":13530:13755   */\n    tag_249:\n        /* \"#utility.yul\":13670:13704   */\n      0x4f776e61626c653a206e6577206f776e657220697320746865207a65726f2061\n        /* \"#utility.yul\":13666:13667   */\n      0x00\n        /* \"#utility.yul\":13658:13664   */\n      dup3\n        /* \"#utility.yul\":13654:13668   */\n      add\n        /* \"#utility.yul\":13647:13705   */\n      mstore\n        /* \"#utility.yul\":13739:13747   */\n      0x6464726573730000000000000000000000000000000000000000000000000000\n        /* \"#utility.yul\":13734:13736   */\n      0x20\n        /* \"#utility.yul\":13726:13732   */\n      dup3\n        /* \"#utility.yul\":13722:13737   */\n      add\n        /* \"#utility.yul\":13715:13748   */\n      mstore\n        /* \"#utility.yul\":13530:13755   */\n      pop\n      jump\t// out\n        /* \"#utility.yul\":13761:13943   */\n    tag_254:\n        /* \"#utility.yul\":13901:13935   */\n      0x4f776e61626c653a2063616c6c6572206973206e6f7420746865206f776e6572\n        /* \"#utility.yul\":13897:13898   */\n      0x00\n        /* \"#utility.yul\":13889:13895   */\n      dup3\n        /* \"#utility.yul\":13885:13899   */\n      add\n        /* \"#utility.yul\":13878:13936   */\n      mstore\n        /* \"#utility.yul\":13761:13943   */\n      pop\n      jump\t// out\n        /* \"#utility.yul\":13949:14065   */\n    tag_307:\n        /* \"#utility.yul\":14033:14034   */\n      0x05\n        /* \"#utility.yul\":14026:14031   */\n      dup2\n        /* \"#utility.yul\":14023:14035   */\n      lt\n        /* \"#utility.yul\":14013:14059   */\n      tag_338\n      jumpi\n        /* \"#utility.yul\":14039:14057   */\n      tag_339\n      tag_326\n      jump\t// in\n    tag_339:\n        /* \"#utility.yul\":14013:14059   */\n    tag_338:\n        /* \"#utility.yul\":13949:14065   */\n      pop\n      jump\t// out\n        /* \"#utility.yul\":14071:14193   */\n    tag_161:\n        /* \"#utility.yul\":14144:14168   */\n      tag_341\n        /* \"#utility.yul\":14162:14167   */\n      dup2\n        /* \"#utility.yul\":14144:14168   */\n      tag_221\n      jump\t// in\n    tag_341:\n        /* \"#utility.yul\":14137:14142   */\n      dup2\n        /* \"#utility.yul\":14134:14169   */\n      eq\n        /* \"#utility.yul\":14124:14187   */\n      tag_342\n      jumpi\n        /* \"#utility.yul\":14183:14184   */\n      0x00\n        /* \"#utility.yul\":14180:14181   */\n      dup1\n        /* \"#utility.yul\":14173:14185   */\n      revert\n        /* \"#utility.yul\":14124:14187   */\n    tag_342:\n        /* \"#utility.yul\":14071:14193   */\n      pop\n      jump\t// out\n        /* \"#utility.yul\":14199:14309   */\n    tag_174:\n        /* \"#utility.yul\":14283:14284   */\n      0x05\n        /* \"#utility.yul\":14276:14281   */\n      dup2\n        /* \"#utility.yul\":14273:14285   */\n      lt\n        /* \"#utility.yul\":14263:14303   */\n      tag_344\n      jumpi\n        /* \"#utility.yul\":14299:14300   */\n      0x00\n        /* \"#utility.yul\":14296:14297   */\n      dup1\n        /* \"#utility.yul\":14289:14301   */\n      revert\n        /* \"#utility.yul\":14263:14303   */\n    tag_344:\n        /* \"#utility.yul\":14199:14309   */\n      pop\n      jump\t// out\n        /* \"#utility.yul\":14315:14437   */\n    tag_178:\n        /* \"#utility.yul\":14388:14412   */\n      tag_346\n        /* \"#utility.yul\":14406:14411   */\n      dup2\n        /* \"#utility.yul\":14388:14412   */\n      tag_260\n      jump\t// in\n    tag_346:\n        /* \"#utility.yul\":14381:14386   */\n      dup2\n        /* \"#utility.yul\":14378:14413   */\n      eq\n        /* \"#utility.yul\":14368:14431   */\n      tag_347\n      jumpi\n        /* \"#utility.yul\":14427:14428   */\n      0x00\n        /* \"#utility.yul\":14424:14425   */\n      dup1\n        /* \"#utility.yul\":14417:14429   */\n      revert\n        /* \"#utility.yul\":14368:14431   */\n    tag_347:\n        /* \"#utility.yul\":14315:14437   */\n      pop\n      jump\t// out\n        /* \"#utility.yul\":14443:14563   */\n    tag_184:\n        /* \"#utility.yul\":14515:14538   */\n      tag_349\n        /* \"#utility.yul\":14532:14537   */\n      dup2\n        /* \"#utility.yul\":14515:14538   */\n      tag_267\n      jump\t// in\n    tag_349:\n        /* \"#utility.yul\":14508:14513   */\n      dup2\n        /* \"#utility.yul\":14505:14539   */\n      eq\n        /* \"#utility.yul\":14495:14557   */\n      tag_350\n      jumpi\n        /* \"#utility.yul\":14553:14554   */\n      0x00\n        /* \"#utility.yul\":14550:14551   */\n      dup1\n        /* \"#utility.yul\":14543:14555   */\n      revert\n        /* \"#utility.yul\":14495:14557   */\n    tag_350:\n        /* \"#utility.yul\":14443:14563   */\n      pop\n      jump\t// out\n\n    auxdata: 0xa264697066735822122069c64b7061b5829e70c8cf854bb40ead96e2e5b467c9215aa63b6406610bcb6764736f6c63430008070033\n}\n",
				"bytecode": {
					"linkReferences": {},
					"object": "608060405234801561001057600080fd5b5061002d61002261003260201b60201c565b61003a60201b60201c565b6100fe565b600033905090565b60008060009054906101000a900473ffffffffffffffffffffffffffffffffffffffff169050816000806101000a81548173ffffffffffffffffffffffffffffffffffffffff021916908373ffffffffffffffffffffffffffffffffffffffff1602179055508173ffffffffffffffffffffffffffffffffffffffff168173ffffffffffffffffffffffffffffffffffffffff167f8be0079c531659141344cd1fd0a4f28419497f9722a3daafe3b4186f6b6457e060405160405180910390a35050565b6112248061010d6000396000f3fe608060405234801561001057600080fd5b50600436106100cf5760003560e01c80635c622a0e1161008c5780638da5cb5b116100665780638da5cb5b1461024c578063914929561461026a578063d6a9de511461029a578063f2fde38b146102ca576100cf565b80635c622a0e146101e2578063715018a614610212578063881063231461021c576100cf565b806313ef3dcc146100d45780631bf1fffb1461010457806344a9d24414610134578063496ab39a146101645780634a0d89ba146101825780635bf608b8146101b2575b600080fd5b6100ee60048036038101906100e99190610c7f565b6102e6565b6040516100fb9190610f13565b60405180910390f35b61011e60048036038101906101199190610c7f565b6103a0565b60405161012b9190610ef8565b60405180910390f35b61014e60048036038101906101499190610c7f565b61045a565b60405161015b9190610ef8565b60405180910390f35b61016c610472565b6040516101799190610edd565b60405180910390f35b61019c60048036038101906101979190610c7f565b610496565b6040516101a99190610e67565b60405180910390f35b6101cc60048036038101906101c79190610c7f565b6104d3565b6040516101d99190610e31565b60405180910390f35b6101fc60048036038101906101f79190610c7f565b61058d565b6040516102099190610e82565b60405180910390f35b61021a610647565b005b61023660048036038101906102319190610c7f565b61065b565b6040516102439190610ef8565b60405180910390f35b610254610715565b6040516102619190610e31565b60405180910390f35b610284600480360381019061027f9190610c7f565b61073e565b6040516102919190610e4c565b60405180910390f35b6102b460048036038101906102af9190610c7f565b6107fe565b6040516102c19190610e31565b60405180910390f35b6102e460048036038101906102df9190610bcb565b6108b8565b005b60006002600083815260200190815260200160002060009054906101000a900473ffffffffffffffffffffffffffffffffffffffff1673ffffffffffffffffffffffffffffffffffffffff1663a2e800ad6040518163ffffffff1660e01b815260040160206040518083038186803b15801561036157600080fd5b505afa158015610375573d6000803e3d6000fd5b505050506040513d601f19601f820116820180604052508101906103999190610cd9565b9050919050565b60006002600083815260200190815260200160002060009054906101000a900473ffffffffffffffffffffffffffffffffffffffff1673ffffffffffffffffffffffffffffffffffffffff1663e0a73a936040518163ffffffff1660e01b815260040160206040518083038186803b15801561041b57600080fd5b505afa15801561042f573d6000803e3d6000fd5b505050506040513d601f19601f820116820180604052508101906104539190610cac565b9050919050565b60036020528060005260406000206000915090505481565b61047a610a86565b6001604051806020016040529081600082015481525050905090565b60006002600083815260200190815260200160002060009054906101000a900473ffffffffffffffffffffffffffffffffffffffff169050919050565b60006002600083815260200190815260200160002060009054906101000a900473ffffffffffffffffffffffffffffffffffffffff1673ffffffffffffffffffffffffffffffffffffffff1663603daf9a6040518163ffffffff1660e01b815260040160206040518083038186803b15801561054e57600080fd5b505afa158015610562573d6000803e3d6000fd5b505050506040513d601f19601f820116820180604052508101906105869190610bf8565b9050919050565b60006002600083815260200190815260200160002060009054906101000a900473ffffffffffffffffffffffffffffffffffffffff1673ffffffffffffffffffffffffffffffffffffffff1663200d2ed26040518163ffffffff1660e01b815260040160206040518083038186803b15801561060857600080fd5b505afa15801561061c573d6000803e3d6000fd5b505050506040513d601f19601f820116820180604052508101906106409190610c52565b9050919050565b61064f61093c565b61065960006109ba565b565b60006002600083815260200190815260200160002060009054906101000a900473ffffffffffffffffffffffffffffffffffffffff1673ffffffffffffffffffffffffffffffffffffffff16634c1786ea6040518163ffffffff1660e01b815260040160206040518083038186803b1580156106d657600080fd5b505afa1580156106ea573d6000803e3d6000fd5b505050506040513d601f19601f8201168201806040525081019061070e9190610cac565b9050919050565b60008060009054906101000a900473ffffffffffffffffffffffffffffffffffffffff16905090565b610746610a99565b6002600083815260200190815260200160002060009054906101000a900473ffffffffffffffffffffffffffffffffffffffff1673ffffffffffffffffffffffffffffffffffffffff1663bd9a548b6040518163ffffffff1660e01b815260040160a06040518083038186803b1580156107bf57600080fd5b505afa1580156107d3573d6000803e3d6000fd5b505050506040513d601f19601f820116820180604052508101906107f79190610c25565b9050919050565b60006002600083815260200190815260200160002060009054906101000a900473ffffffffffffffffffffffffffffffffffffffff1673ffffffffffffffffffffffffffffffffffffffff1663dbd0e1b66040518163ffffffff1660e01b815260040160206040518083038186803b15801561087957600080fd5b505afa15801561088d573d6000803e3d6000fd5b505050506040513d601f19601f820116820180604052508101906108b19190610bf8565b9050919050565b6108c061093c565b600073ffffffffffffffffffffffffffffffffffffffff168173ffffffffffffffffffffffffffffffffffffffff161415610930576040517f08c379a000000000000000000000000000000000000000000000000000000000815260040161092790610e9d565b60405180910390fd5b610939816109ba565b50565b610944610a7e565b73ffffffffffffffffffffffffffffffffffffffff16610962610715565b73ffffffffffffffffffffffffffffffffffffffff16146109b8576040517f08c379a00000000000000000000000000000000000000000000000000000000081526004016109af90610ebd565b60405180910390fd5b565b60008060009054906101000a900473ffffffffffffffffffffffffffffffffffffffff169050816000806101000a81548173ffffffffffffffffffffffffffffffffffffffff021916908373ffffffffffffffffffffffffffffffffffffffff1602179055508173ffffffffffffffffffffffffffffffffffffffff168173ffffffffffffffffffffffffffffffffffffffff167f8be0079c531659141344cd1fd0a4f28419497f9722a3daafe3b4186f6b6457e060405160405180910390a35050565b600033905090565b6040518060200160405280600081525090565b6040518060a00160405280600590602082028036833780820191505090505090565b6000610ace610ac984610f53565b610f2e565b90508082856020860282011115610ae857610ae76110f2565b5b60005b85811015610b185781610afe8882610ba1565b845260208401935060208301925050600181019050610aeb565b5050509392505050565b600081359050610b3181611199565b92915050565b600081519050610b4681611199565b92915050565b600082601f830112610b6157610b606110ed565b5b6005610b6e848285610abb565b91505092915050565b600081519050610b86816111b0565b92915050565b600081359050610b9b816111c0565b92915050565b600081519050610bb0816111c0565b92915050565b600081519050610bc5816111d7565b92915050565b600060208284031215610be157610be06110f7565b5b6000610bef84828501610b22565b91505092915050565b600060208284031215610c0e57610c0d6110f7565b5b6000610c1c84828501610b37565b91505092915050565b600060a08284031215610c3b57610c3a6110f7565b5b6000610c4984828501610b4c565b91505092915050565b600060208284031215610c6857610c676110f7565b5b6000610c7684828501610b77565b91505092915050565b600060208284031215610c9557610c946110f7565b5b6000610ca384828501610b8c565b91505092915050565b600060208284031215610cc257610cc16110f7565b5b6000610cd084828501610ba1565b91505092915050565b600060208284031215610cef57610cee6110f7565b5b6000610cfd84828501610bb6565b91505092915050565b6000610d128383610e04565b60208301905092915050565b610d2781610fb7565b82525050565b610d3681610f83565b610d408184610f9b565b9250610d4b82610f79565b8060005b83811015610d7c578151610d638782610d06565b9650610d6e83610f8e565b925050600181019050610d4f565b505050505050565b610d8d81611016565b82525050565b610d9c81611028565b82525050565b6000610daf602683610fa6565b9150610dba8261110d565b604082019050919050565b6000610dd2602083610fa6565b9150610ddd8261115c565b602082019050919050565b602082016000820151610dfe6000850182610e04565b50505050565b610e0d81610ffc565b82525050565b610e1c81610ffc565b82525050565b610e2b81611006565b82525050565b6000602082019050610e466000830184610d1e565b92915050565b600060a082019050610e616000830184610d2d565b92915050565b6000602082019050610e7c6000830184610d84565b92915050565b6000602082019050610e976000830184610d93565b92915050565b60006020820190508181036000830152610eb681610da2565b9050919050565b60006020820190508181036000830152610ed681610dc5565b9050919050565b6000602082019050610ef26000830184610de8565b92915050565b6000602082019050610f0d6000830184610e13565b92915050565b6000602082019050610f286000830184610e22565b92915050565b6000610f38610f49565b9050610f44828261105e565b919050565b6000604051905090565b600067ffffffffffffffff821115610f6e57610f6d6110be565b5b602082029050919050565b6000819050919050565b600060059050919050565b6000602082019050919050565b600081905092915050565b600082825260208201905092915050565b6000610fc282610fdc565b9050919050565b6000819050610fd782611185565b919050565b600073ffffffffffffffffffffffffffffffffffffffff82169050919050565b6000819050919050565b600063ffffffff82169050919050565b60006110218261103a565b9050919050565b600061103382610fc9565b9050919050565b60006110458261104c565b9050919050565b600061105782610fdc565b9050919050565b611067826110fc565b810181811067ffffffffffffffff82111715611086576110856110be565b5b80604052505050565b7f4e487b7100000000000000000000000000000000000000000000000000000000600052602160045260246000fd5b7f4e487b7100000000000000000000000000000000000000000000000000000000600052604160045260246000fd5b600080fd5b600080fd5b600080fd5b6000601f19601f8301169050919050565b7f4f776e61626c653a206e6577206f776e657220697320746865207a65726f206160008201527f6464726573730000000000000000000000000000000000000000000000000000602082015250565b7f4f776e61626c653a2063616c6c6572206973206e6f7420746865206f776e6572600082015250565b600581106111965761119561108f565b5b50565b6111a281610fb7565b81146111ad57600080fd5b50565b600581106111bd57600080fd5b50565b6111c981610ffc565b81146111d457600080fd5b50565b6111e081611006565b81146111eb57600080fd5b5056fea264697066735822122069c64b7061b5829e70c8cf854bb40ead96e2e5b467c9215aa63b6406610bcb6764736f6c63430008070033",
					"opcodes": "PUSH1 0x80 PUSH1 0x40 MSTORE CALLVALUE DUP1 ISZERO PUSH2 0x10 JUMPI PUSH1 0x0 DUP1 REVERT JUMPDEST POP PUSH2 0x2D PUSH2 0x22 PUSH2 0x32 PUSH1 0x20 SHL PUSH1 0x20 SHR JUMP JUMPDEST PUSH2 0x3A PUSH1 0x20 SHL PUSH1 0x20 SHR JUMP JUMPDEST PUSH2 0xFE JUMP JUMPDEST PUSH1 0x0 CALLER SWAP1 POP SWAP1 JUMP JUMPDEST PUSH1 0x0 DUP1 PUSH1 0x0 SWAP1 SLOAD SWAP1 PUSH2 0x100 EXP SWAP1 DIV PUSH20 0xFFFFFFFFFFFFFFFFFFFFFFFFFFFFFFFFFFFFFFFF AND SWAP1 POP DUP2 PUSH1 0x0 DUP1 PUSH2 0x100 EXP DUP2 SLOAD DUP2 PUSH20 0xFFFFFFFFFFFFFFFFFFFFFFFFFFFFFFFFFFFFFFFF MUL NOT AND SWAP1 DUP4 PUSH20 0xFFFFFFFFFFFFFFFFFFFFFFFFFFFFFFFFFFFFFFFF AND MUL OR SWAP1 SSTORE POP DUP2 PUSH20 0xFFFFFFFFFFFFFFFFFFFFFFFFFFFFFFFFFFFFFFFF AND DUP2 PUSH20 0xFFFFFFFFFFFFFFFFFFFFFFFFFFFFFFFFFFFFFFFF AND PUSH32 0x8BE0079C531659141344CD1FD0A4F28419497F9722A3DAAFE3B4186F6B6457E0 PUSH1 0x40 MLOAD PUSH1 0x40 MLOAD DUP1 SWAP2 SUB SWAP1 LOG3 POP POP JUMP JUMPDEST PUSH2 0x1224 DUP1 PUSH2 0x10D PUSH1 0x0 CODECOPY PUSH1 0x0 RETURN INVALID PUSH1 0x80 PUSH1 0x40 MSTORE CALLVALUE DUP1 ISZERO PUSH2 0x10 JUMPI PUSH1 0x0 DUP1 REVERT JUMPDEST POP PUSH1 0x4 CALLDATASIZE LT PUSH2 0xCF JUMPI PUSH1 0x0 CALLDATALOAD PUSH1 0xE0 SHR DUP1 PUSH4 0x5C622A0E GT PUSH2 0x8C JUMPI DUP1 PUSH4 0x8DA5CB5B GT PUSH2 0x66 JUMPI DUP1 PUSH4 0x8DA5CB5B EQ PUSH2 0x24C JUMPI DUP1 PUSH4 0x91492956 EQ PUSH2 0x26A JUMPI DUP1 PUSH4 0xD6A9DE51 EQ PUSH2 0x29A JUMPI DUP1 PUSH4 0xF2FDE38B EQ PUSH2 0x2CA JUMPI PUSH2 0xCF JUMP JUMPDEST DUP1 PUSH4 0x5C622A0E EQ PUSH2 0x1E2 JUMPI DUP1 PUSH4 0x715018A6 EQ PUSH2 0x212 JUMPI DUP1 PUSH4 0x88106323 EQ PUSH2 0x21C JUMPI PUSH2 0xCF JUMP JUMPDEST DUP1 PUSH4 0x13EF3DCC EQ PUSH2 0xD4 JUMPI DUP1 PUSH4 0x1BF1FFFB EQ PUSH2 0x104 JUMPI DUP1 PUSH4 0x44A9D244 EQ PUSH2 0x134 JUMPI DUP1 PUSH4 0x496AB39A EQ PUSH2 0x164 JUMPI DUP1 PUSH4 0x4A0D89BA EQ PUSH2 0x182 JUMPI DUP1 PUSH4 0x5BF608B8 EQ PUSH2 0x1B2 JUMPI JUMPDEST PUSH1 0x0 DUP1 REVERT JUMPDEST PUSH2 0xEE PUSH1 0x4 DUP1 CALLDATASIZE SUB DUP2 ADD SWAP1 PUSH2 0xE9 SWAP2 SWAP1 PUSH2 0xC7F JUMP JUMPDEST PUSH2 0x2E6 JUMP JUMPDEST PUSH1 0x40 MLOAD PUSH2 0xFB SWAP2 SWAP1 PUSH2 0xF13 JUMP JUMPDEST PUSH1 0x40 MLOAD DUP1 SWAP2 SUB SWAP1 RETURN JUMPDEST PUSH2 0x11E PUSH1 0x4 DUP1 CALLDATASIZE SUB DUP2 ADD SWAP1 PUSH2 0x119 SWAP2 SWAP1 PUSH2 0xC7F JUMP JUMPDEST PUSH2 0x3A0 JUMP JUMPDEST PUSH1 0x40 MLOAD PUSH2 0x12B SWAP2 SWAP1 PUSH2 0xEF8 JUMP JUMPDEST PUSH1 0x40 MLOAD DUP1 SWAP2 SUB SWAP1 RETURN JUMPDEST PUSH2 0x14E PUSH1 0x4 DUP1 CALLDATASIZE SUB DUP2 ADD SWAP1 PUSH2 0x149 SWAP2 SWAP1 PUSH2 0xC7F JUMP JUMPDEST PUSH2 0x45A JUMP JUMPDEST PUSH1 0x40 MLOAD PUSH2 0x15B SWAP2 SWAP1 PUSH2 0xEF8 JUMP JUMPDEST PUSH1 0x40 MLOAD DUP1 SWAP2 SUB SWAP1 RETURN JUMPDEST PUSH2 0x16C PUSH2 0x472 JUMP JUMPDEST PUSH1 0x40 MLOAD PUSH2 0x179 SWAP2 SWAP1 PUSH2 0xEDD JUMP JUMPDEST PUSH1 0x40 MLOAD DUP1 SWAP2 SUB SWAP1 RETURN JUMPDEST PUSH2 0x19C PUSH1 0x4 DUP1 CALLDATASIZE SUB DUP2 ADD SWAP1 PUSH2 0x197 SWAP2 SWAP1 PUSH2 0xC7F JUMP JUMPDEST PUSH2 0x496 JUMP JUMPDEST PUSH1 0x40 MLOAD PUSH2 0x1A9 SWAP2 SWAP1 PUSH2 0xE67 JUMP JUMPDEST PUSH1 0x40 MLOAD DUP1 SWAP2 SUB SWAP1 RETURN JUMPDEST PUSH2 0x1CC PUSH1 0x4 DUP1 CALLDATASIZE SUB DUP2 ADD SWAP1 PUSH2 0x1C7 SWAP2 SWAP1 PUSH2 0xC7F JUMP JUMPDEST PUSH2 0x4D3 JUMP JUMPDEST PUSH1 0x40 MLOAD PUSH2 0x1D9 SWAP2 SWAP1 PUSH2 0xE31 JUMP JUMPDEST PUSH1 0x40 MLOAD DUP1 SWAP2 SUB SWAP1 RETURN JUMPDEST PUSH2 0x1FC PUSH1 0x4 DUP1 CALLDATASIZE SUB DUP2 ADD SWAP1 PUSH2 0x1F7 SWAP2 SWAP1 PUSH2 0xC7F JUMP JUMPDEST PUSH2 0x58D JUMP JUMPDEST PUSH1 0x40 MLOAD PUSH2 0x209 SWAP2 SWAP1 PUSH2 0xE82 JUMP JUMPDEST PUSH1 0x40 MLOAD DUP1 SWAP2 SUB SWAP1 RETURN JUMPDEST PUSH2 0x21A PUSH2 0x647 JUMP JUMPDEST STOP JUMPDEST PUSH2 0x236 PUSH1 0x4 DUP1 CALLDATASIZE SUB DUP2 ADD SWAP1 PUSH2 0x231 SWAP2 SWAP1 PUSH2 0xC7F JUMP JUMPDEST PUSH2 0x65B JUMP JUMPDEST PUSH1 0x40 MLOAD PUSH2 0x243 SWAP2 SWAP1 PUSH2 0xEF8 JUMP JUMPDEST PUSH1 0x40 MLOAD DUP1 SWAP2 SUB SWAP1 RETURN JUMPDEST PUSH2 0x254 PUSH2 0x715 JUMP JUMPDEST PUSH1 0x40 MLOAD PUSH2 0x261 SWAP2 SWAP1 PUSH2 0xE31 JUMP JUMPDEST PUSH1 0x40 MLOAD DUP1 SWAP2 SUB SWAP1 RETURN JUMPDEST PUSH2 0x284 PUSH1 0x4 DUP1 CALLDATASIZE SUB DUP2 ADD SWAP1 PUSH2 0x27F SWAP2 SWAP1 PUSH2 0xC7F JUMP JUMPDEST PUSH2 0x73E JUMP JUMPDEST PUSH1 0x40 MLOAD PUSH2 0x291 SWAP2 SWAP1 PUSH2 0xE4C JUMP JUMPDEST PUSH1 0x40 MLOAD DUP1 SWAP2 SUB SWAP1 RETURN JUMPDEST PUSH2 0x2B4 PUSH1 0x4 DUP1 CALLDATASIZE SUB DUP2 ADD SWAP1 PUSH2 0x2AF SWAP2 SWAP1 PUSH2 0xC7F JUMP JUMPDEST PUSH2 0x7FE JUMP JUMPDEST PUSH1 0x40 MLOAD PUSH2 0x2C1 SWAP2 SWAP1 PUSH2 0xE31 JUMP JUMPDEST PUSH1 0x40 MLOAD DUP1 SWAP2 SUB SWAP1 RETURN JUMPDEST PUSH2 0x2E4 PUSH1 0x4 DUP1 CALLDATASIZE SUB DUP2 ADD SWAP1 PUSH2 0x2DF SWAP2 SWAP1 PUSH2 0xBCB JUMP JUMPDEST PUSH2 0x8B8 JUMP JUMPDEST STOP JUMPDEST PUSH1 0x0 PUSH1 0x2 PUSH1 0x0 DUP4 DUP2 MSTORE PUSH1 0x20 ADD SWAP1 DUP2 MSTORE PUSH1 0x20 ADD PUSH1 0x0 KECCAK256 PUSH1 0x0 SWAP1 SLOAD SWAP1 PUSH2 0x100 EXP SWAP1 DIV PUSH20 0xFFFFFFFFFFFFFFFFFFFFFFFFFFFFFFFFFFFFFFFF AND PUSH20 0xFFFFFFFFFFFFFFFFFFFFFFFFFFFFFFFFFFFFFFFF AND PUSH4 0xA2E800AD PUSH1 0x40 MLOAD DUP2 PUSH4 0xFFFFFFFF AND PUSH1 0xE0 SHL DUP2 MSTORE PUSH1 0x4 ADD PUSH1 0x20 PUSH1 0x40 MLOAD DUP1 DUP4 SUB DUP2 DUP7 DUP1 EXTCODESIZE ISZERO DUP1 ISZERO PUSH2 0x361 JUMPI PUSH1 0x0 DUP1 REVERT JUMPDEST POP GAS STATICCALL ISZERO DUP1 ISZERO PUSH2 0x375 JUMPI RETURNDATASIZE PUSH1 0x0 DUP1 RETURNDATACOPY RETURNDATASIZE PUSH1 0x0 REVERT JUMPDEST POP POP POP POP PUSH1 0x40 MLOAD RETURNDATASIZE PUSH1 0x1F NOT PUSH1 0x1F DUP3 ADD AND DUP3 ADD DUP1 PUSH1 0x40 MSTORE POP DUP2 ADD SWAP1 PUSH2 0x399 SWAP2 SWAP1 PUSH2 0xCD9 JUMP JUMPDEST SWAP1 POP SWAP2 SWAP1 POP JUMP JUMPDEST PUSH1 0x0 PUSH1 0x2 PUSH1 0x0 DUP4 DUP2 MSTORE PUSH1 0x20 ADD SWAP1 DUP2 MSTORE PUSH1 0x20 ADD PUSH1 0x0 KECCAK256 PUSH1 0x0 SWAP1 SLOAD SWAP1 PUSH2 0x100 EXP SWAP1 DIV PUSH20 0xFFFFFFFFFFFFFFFFFFFFFFFFFFFFFFFFFFFFFFFF AND PUSH20 0xFFFFFFFFFFFFFFFFFFFFFFFFFFFFFFFFFFFFFFFF AND PUSH4 0xE0A73A93 PUSH1 0x40 MLOAD DUP2 PUSH4 0xFFFFFFFF AND PUSH1 0xE0 SHL DUP2 MSTORE PUSH1 0x4 ADD PUSH1 0x20 PUSH1 0x40 MLOAD DUP1 DUP4 SUB DUP2 DUP7 DUP1 EXTCODESIZE ISZERO DUP1 ISZERO PUSH2 0x41B JUMPI PUSH1 0x0 DUP1 REVERT JUMPDEST POP GAS STATICCALL ISZERO DUP1 ISZERO PUSH2 0x42F JUMPI RETURNDATASIZE PUSH1 0x0 DUP1 RETURNDATACOPY RETURNDATASIZE PUSH1 0x0 REVERT JUMPDEST POP POP POP POP PUSH1 0x40 MLOAD RETURNDATASIZE PUSH1 0x1F NOT PUSH1 0x1F DUP3 ADD AND DUP3 ADD DUP1 PUSH1 0x40 MSTORE POP DUP2 ADD SWAP1 PUSH2 0x453 SWAP2 SWAP1 PUSH2 0xCAC JUMP JUMPDEST SWAP1 POP SWAP2 SWAP1 POP JUMP JUMPDEST PUSH1 0x3 PUSH1 0x20 MSTORE DUP1 PUSH1 0x0 MSTORE PUSH1 0x40 PUSH1 0x0 KECCAK256 PUSH1 0x0 SWAP2 POP SWAP1 POP SLOAD DUP2 JUMP JUMPDEST PUSH2 0x47A PUSH2 0xA86 JUMP JUMPDEST PUSH1 0x1 PUSH1 0x40 MLOAD DUP1 PUSH1 0x20 ADD PUSH1 0x40 MSTORE SWAP1 DUP2 PUSH1 0x0 DUP3 ADD SLOAD DUP2 MSTORE POP POP SWAP1 POP SWAP1 JUMP JUMPDEST PUSH1 0x0 PUSH1 0x2 PUSH1 0x0 DUP4 DUP2 MSTORE PUSH1 0x20 ADD SWAP1 DUP2 MSTORE PUSH1 0x20 ADD PUSH1 0x0 KECCAK256 PUSH1 0x0 SWAP1 SLOAD SWAP1 PUSH2 0x100 EXP SWAP1 DIV PUSH20 0xFFFFFFFFFFFFFFFFFFFFFFFFFFFFFFFFFFFFFFFF AND SWAP1 POP SWAP2 SWAP1 POP JUMP JUMPDEST PUSH1 0x0 PUSH1 0x2 PUSH1 0x0 DUP4 DUP2 MSTORE PUSH1 0x20 ADD SWAP1 DUP2 MSTORE PUSH1 0x20 ADD PUSH1 0x0 KECCAK256 PUSH1 0x0 SWAP1 SLOAD SWAP1 PUSH2 0x100 EXP SWAP1 DIV PUSH20 0xFFFFFFFFFFFFFFFFFFFFFFFFFFFFFFFFFFFFFFFF AND PUSH20 0xFFFFFFFFFFFFFFFFFFFFFFFFFFFFFFFFFFFFFFFF AND PUSH4 0x603DAF9A PUSH1 0x40 MLOAD DUP2 PUSH4 0xFFFFFFFF AND PUSH1 0xE0 SHL DUP2 MSTORE PUSH1 0x4 ADD PUSH1 0x20 PUSH1 0x40 MLOAD DUP1 DUP4 SUB DUP2 DUP7 DUP1 EXTCODESIZE ISZERO DUP1 ISZERO PUSH2 0x54E JUMPI PUSH1 0x0 DUP1 REVERT JUMPDEST POP GAS STATICCALL ISZERO DUP1 ISZERO PUSH2 0x562 JUMPI RETURNDATASIZE PUSH1 0x0 DUP1 RETURNDATACOPY RETURNDATASIZE PUSH1 0x0 REVERT JUMPDEST POP POP POP POP PUSH1 0x40 MLOAD RETURNDATASIZE PUSH1 0x1F NOT PUSH1 0x1F DUP3 ADD AND DUP3 ADD DUP1 PUSH1 0x40 MSTORE POP DUP2 ADD SWAP1 PUSH2 0x586 SWAP2 SWAP1 PUSH2 0xBF8 JUMP JUMPDEST SWAP1 POP SWAP2 SWAP1 POP JUMP JUMPDEST PUSH1 0x0 PUSH1 0x2 PUSH1 0x0 DUP4 DUP2 MSTORE PUSH1 0x20 ADD SWAP1 DUP2 MSTORE PUSH1 0x20 ADD PUSH1 0x0 KECCAK256 PUSH1 0x0 SWAP1 SLOAD SWAP1 PUSH2 0x100 EXP SWAP1 DIV PUSH20 0xFFFFFFFFFFFFFFFFFFFFFFFFFFFFFFFFFFFFFFFF AND PUSH20 0xFFFFFFFFFFFFFFFFFFFFFFFFFFFFFFFFFFFFFFFF AND PUSH4 0x200D2ED2 PUSH1 0x40 MLOAD DUP2 PUSH4 0xFFFFFFFF AND PUSH1 0xE0 SHL DUP2 MSTORE PUSH1 0x4 ADD PUSH1 0x20 PUSH1 0x40 MLOAD DUP1 DUP4 SUB DUP2 DUP7 DUP1 EXTCODESIZE ISZERO DUP1 ISZERO PUSH2 0x608 JUMPI PUSH1 0x0 DUP1 REVERT JUMPDEST POP GAS STATICCALL ISZERO DUP1 ISZERO PUSH2 0x61C JUMPI RETURNDATASIZE PUSH1 0x0 DUP1 RETURNDATACOPY RETURNDATASIZE PUSH1 0x0 REVERT JUMPDEST POP POP POP POP PUSH1 0x40 MLOAD RETURNDATASIZE PUSH1 0x1F NOT PUSH1 0x1F DUP3 ADD AND DUP3 ADD DUP1 PUSH1 0x40 MSTORE POP DUP2 ADD SWAP1 PUSH2 0x640 SWAP2 SWAP1 PUSH2 0xC52 JUMP JUMPDEST SWAP1 POP SWAP2 SWAP1 POP JUMP JUMPDEST PUSH2 0x64F PUSH2 0x93C JUMP JUMPDEST PUSH2 0x659 PUSH1 0x0 PUSH2 0x9BA JUMP JUMPDEST JUMP JUMPDEST PUSH1 0x0 PUSH1 0x2 PUSH1 0x0 DUP4 DUP2 MSTORE PUSH1 0x20 ADD SWAP1 DUP2 MSTORE PUSH1 0x20 ADD PUSH1 0x0 KECCAK256 PUSH1 0x0 SWAP1 SLOAD SWAP1 PUSH2 0x100 EXP SWAP1 DIV PUSH20 0xFFFFFFFFFFFFFFFFFFFFFFFFFFFFFFFFFFFFFFFF AND PUSH20 0xFFFFFFFFFFFFFFFFFFFFFFFFFFFFFFFFFFFFFFFF AND PUSH4 0x4C1786EA PUSH1 0x40 MLOAD DUP2 PUSH4 0xFFFFFFFF AND PUSH1 0xE0 SHL DUP2 MSTORE PUSH1 0x4 ADD PUSH1 0x20 PUSH1 0x40 MLOAD DUP1 DUP4 SUB DUP2 DUP7 DUP1 EXTCODESIZE ISZERO DUP1 ISZERO PUSH2 0x6D6 JUMPI PUSH1 0x0 DUP1 REVERT JUMPDEST POP GAS STATICCALL ISZERO DUP1 ISZERO PUSH2 0x6EA JUMPI RETURNDATASIZE PUSH1 0x0 DUP1 RETURNDATACOPY RETURNDATASIZE PUSH1 0x0 REVERT JUMPDEST POP POP POP POP PUSH1 0x40 MLOAD RETURNDATASIZE PUSH1 0x1F NOT PUSH1 0x1F DUP3 ADD AND DUP3 ADD DUP1 PUSH1 0x40 MSTORE POP DUP2 ADD SWAP1 PUSH2 0x70E SWAP2 SWAP1 PUSH2 0xCAC JUMP JUMPDEST SWAP1 POP SWAP2 SWAP1 POP JUMP JUMPDEST PUSH1 0x0 DUP1 PUSH1 0x0 SWAP1 SLOAD SWAP1 PUSH2 0x100 EXP SWAP1 DIV PUSH20 0xFFFFFFFFFFFFFFFFFFFFFFFFFFFFFFFFFFFFFFFF AND SWAP1 POP SWAP1 JUMP JUMPDEST PUSH2 0x746 PUSH2 0xA99 JUMP JUMPDEST PUSH1 0x2 PUSH1 0x0 DUP4 DUP2 MSTORE PUSH1 0x20 ADD SWAP1 DUP2 MSTORE PUSH1 0x20 ADD PUSH1 0x0 KECCAK256 PUSH1 0x0 SWAP1 SLOAD SWAP1 PUSH2 0x100 EXP SWAP1 DIV PUSH20 0xFFFFFFFFFFFFFFFFFFFFFFFFFFFFFFFFFFFFFFFF AND PUSH20 0xFFFFFFFFFFFFFFFFFFFFFFFFFFFFFFFFFFFFFFFF AND PUSH4 0xBD9A548B PUSH1 0x40 MLOAD DUP2 PUSH4 0xFFFFFFFF AND PUSH1 0xE0 SHL DUP2 MSTORE PUSH1 0x4 ADD PUSH1 0xA0 PUSH1 0x40 MLOAD DUP1 DUP4 SUB DUP2 DUP7 DUP1 EXTCODESIZE ISZERO DUP1 ISZERO PUSH2 0x7BF JUMPI PUSH1 0x0 DUP1 REVERT JUMPDEST POP GAS STATICCALL ISZERO DUP1 ISZERO PUSH2 0x7D3 JUMPI RETURNDATASIZE PUSH1 0x0 DUP1 RETURNDATACOPY RETURNDATASIZE PUSH1 0x0 REVERT JUMPDEST POP POP POP POP PUSH1 0x40 MLOAD RETURNDATASIZE PUSH1 0x1F NOT PUSH1 0x1F DUP3 ADD AND DUP3 ADD DUP1 PUSH1 0x40 MSTORE POP DUP2 ADD SWAP1 PUSH2 0x7F7 SWAP2 SWAP1 PUSH2 0xC25 JUMP JUMPDEST SWAP1 POP SWAP2 SWAP1 POP JUMP JUMPDEST PUSH1 0x0 PUSH1 0x2 PUSH1 0x0 DUP4 DUP2 MSTORE PUSH1 0x20 ADD SWAP1 DUP2 MSTORE PUSH1 0x20 ADD PUSH1 0x0 KECCAK256 PUSH1 0x0 SWAP1 SLOAD SWAP1 PUSH2 0x100 EXP SWAP1 DIV PUSH20 0xFFFFFFFFFFFFFFFFFFFFFFFFFFFFFFFFFFFFFFFF AND PUSH20 0xFFFFFFFFFFFFFFFFFFFFFFFFFFFFFFFFFFFFFFFF AND PUSH4 0xDBD0E1B6 PUSH1 0x40 MLOAD DUP2 PUSH4 0xFFFFFFFF AND PUSH1 0xE0 SHL DUP2 MSTORE PUSH1 0x4 ADD PUSH1 0x20 PUSH1 0x40 MLOAD DUP1 DUP4 SUB DUP2 DUP7 DUP1 EXTCODESIZE ISZERO DUP1 ISZERO PUSH2 0x879 JUMPI PUSH1 0x0 DUP1 REVERT JUMPDEST POP GAS STATICCALL ISZERO DUP1 ISZERO PUSH2 0x88D JUMPI RETURNDATASIZE PUSH1 0x0 DUP1 RETURNDATACOPY RETURNDATASIZE PUSH1 0x0 REVERT JUMPDEST POP POP POP POP PUSH1 0x40 MLOAD RETURNDATASIZE PUSH1 0x1F NOT PUSH1 0x1F DUP3 ADD AND DUP3 ADD DUP1 PUSH1 0x40 MSTORE POP DUP2 ADD SWAP1 PUSH2 0x8B1 SWAP2 SWAP1 PUSH2 0xBF8 JUMP JUMPDEST SWAP1 POP SWAP2 SWAP1 POP JUMP JUMPDEST PUSH2 0x8C0 PUSH2 0x93C JUMP JUMPDEST PUSH1 0x0 PUSH20 0xFFFFFFFFFFFFFFFFFFFFFFFFFFFFFFFFFFFFFFFF AND DUP2 PUSH20 0xFFFFFFFFFFFFFFFFFFFFFFFFFFFFFFFFFFFFFFFF AND EQ ISZERO PUSH2 0x930 JUMPI PUSH1 0x40 MLOAD PUSH32 0x8C379A000000000000000000000000000000000000000000000000000000000 DUP2 MSTORE PUSH1 0x4 ADD PUSH2 0x927 SWAP1 PUSH2 0xE9D JUMP JUMPDEST PUSH1 0x40 MLOAD DUP1 SWAP2 SUB SWAP1 REVERT JUMPDEST PUSH2 0x939 DUP2 PUSH2 0x9BA JUMP JUMPDEST POP JUMP JUMPDEST PUSH2 0x944 PUSH2 0xA7E JUMP JUMPDEST PUSH20 0xFFFFFFFFFFFFFFFFFFFFFFFFFFFFFFFFFFFFFFFF AND PUSH2 0x962 PUSH2 0x715 JUMP JUMPDEST PUSH20 0xFFFFFFFFFFFFFFFFFFFFFFFFFFFFFFFFFFFFFFFF AND EQ PUSH2 0x9B8 JUMPI PUSH1 0x40 MLOAD PUSH32 0x8C379A000000000000000000000000000000000000000000000000000000000 DUP2 MSTORE PUSH1 0x4 ADD PUSH2 0x9AF SWAP1 PUSH2 0xEBD JUMP JUMPDEST PUSH1 0x40 MLOAD DUP1 SWAP2 SUB SWAP1 REVERT JUMPDEST JUMP JUMPDEST PUSH1 0x0 DUP1 PUSH1 0x0 SWAP1 SLOAD SWAP1 PUSH2 0x100 EXP SWAP1 DIV PUSH20 0xFFFFFFFFFFFFFFFFFFFFFFFFFFFFFFFFFFFFFFFF AND SWAP1 POP DUP2 PUSH1 0x0 DUP1 PUSH2 0x100 EXP DUP2 SLOAD DUP2 PUSH20 0xFFFFFFFFFFFFFFFFFFFFFFFFFFFFFFFFFFFFFFFF MUL NOT AND SWAP1 DUP4 PUSH20 0xFFFFFFFFFFFFFFFFFFFFFFFFFFFFFFFFFFFFFFFF AND MUL OR SWAP1 SSTORE POP DUP2 PUSH20 0xFFFFFFFFFFFFFFFFFFFFFFFFFFFFFFFFFFFFFFFF AND DUP2 PUSH20 0xFFFFFFFFFFFFFFFFFFFFFFFFFFFFFFFFFFFFFFFF AND PUSH32 0x8BE0079C531659141344CD1FD0A4F28419497F9722A3DAAFE3B4186F6B6457E0 PUSH1 0x40 MLOAD PUSH1 0x40 MLOAD DUP1 SWAP2 SUB SWAP1 LOG3 POP POP JUMP JUMPDEST PUSH1 0x0 CALLER SWAP1 POP SWAP1 JUMP JUMPDEST PUSH1 0x40 MLOAD DUP1 PUSH1 0x20 ADD PUSH1 0x40 MSTORE DUP1 PUSH1 0x0 DUP2 MSTORE POP SWAP1 JUMP JUMPDEST PUSH1 0x40 MLOAD DUP1 PUSH1 0xA0 ADD PUSH1 0x40 MSTORE DUP1 PUSH1 0x5 SWAP1 PUSH1 0x20 DUP3 MUL DUP1 CALLDATASIZE DUP4 CALLDATACOPY DUP1 DUP3 ADD SWAP2 POP POP SWAP1 POP POP SWAP1 JUMP JUMPDEST PUSH1 0x0 PUSH2 0xACE PUSH2 0xAC9 DUP5 PUSH2 0xF53 JUMP JUMPDEST PUSH2 0xF2E JUMP JUMPDEST SWAP1 POP DUP1 DUP3 DUP6 PUSH1 0x20 DUP7 MUL DUP3 ADD GT ISZERO PUSH2 0xAE8 JUMPI PUSH2 0xAE7 PUSH2 0x10F2 JUMP JUMPDEST JUMPDEST PUSH1 0x0 JUMPDEST DUP6 DUP2 LT ISZERO PUSH2 0xB18 JUMPI DUP2 PUSH2 0xAFE DUP9 DUP3 PUSH2 0xBA1 JUMP JUMPDEST DUP5 MSTORE PUSH1 0x20 DUP5 ADD SWAP4 POP PUSH1 0x20 DUP4 ADD SWAP3 POP POP PUSH1 0x1 DUP2 ADD SWAP1 POP PUSH2 0xAEB JUMP JUMPDEST POP POP POP SWAP4 SWAP3 POP POP POP JUMP JUMPDEST PUSH1 0x0 DUP2 CALLDATALOAD SWAP1 POP PUSH2 0xB31 DUP2 PUSH2 0x1199 JUMP JUMPDEST SWAP3 SWAP2 POP POP JUMP JUMPDEST PUSH1 0x0 DUP2 MLOAD SWAP1 POP PUSH2 0xB46 DUP2 PUSH2 0x1199 JUMP JUMPDEST SWAP3 SWAP2 POP POP JUMP JUMPDEST PUSH1 0x0 DUP3 PUSH1 0x1F DUP4 ADD SLT PUSH2 0xB61 JUMPI PUSH2 0xB60 PUSH2 0x10ED JUMP JUMPDEST JUMPDEST PUSH1 0x5 PUSH2 0xB6E DUP5 DUP3 DUP6 PUSH2 0xABB JUMP JUMPDEST SWAP2 POP POP SWAP3 SWAP2 POP POP JUMP JUMPDEST PUSH1 0x0 DUP2 MLOAD SWAP1 POP PUSH2 0xB86 DUP2 PUSH2 0x11B0 JUMP JUMPDEST SWAP3 SWAP2 POP POP JUMP JUMPDEST PUSH1 0x0 DUP2 CALLDATALOAD SWAP1 POP PUSH2 0xB9B DUP2 PUSH2 0x11C0 JUMP JUMPDEST SWAP3 SWAP2 POP POP JUMP JUMPDEST PUSH1 0x0 DUP2 MLOAD SWAP1 POP PUSH2 0xBB0 DUP2 PUSH2 0x11C0 JUMP JUMPDEST SWAP3 SWAP2 POP POP JUMP JUMPDEST PUSH1 0x0 DUP2 MLOAD SWAP1 POP PUSH2 0xBC5 DUP2 PUSH2 0x11D7 JUMP JUMPDEST SWAP3 SWAP2 POP POP JUMP JUMPDEST PUSH1 0x0 PUSH1 0x20 DUP3 DUP5 SUB SLT ISZERO PUSH2 0xBE1 JUMPI PUSH2 0xBE0 PUSH2 0x10F7 JUMP JUMPDEST JUMPDEST PUSH1 0x0 PUSH2 0xBEF DUP5 DUP3 DUP6 ADD PUSH2 0xB22 JUMP JUMPDEST SWAP2 POP POP SWAP3 SWAP2 POP POP JUMP JUMPDEST PUSH1 0x0 PUSH1 0x20 DUP3 DUP5 SUB SLT ISZERO PUSH2 0xC0E JUMPI PUSH2 0xC0D PUSH2 0x10F7 JUMP JUMPDEST JUMPDEST PUSH1 0x0 PUSH2 0xC1C DUP5 DUP3 DUP6 ADD PUSH2 0xB37 JUMP JUMPDEST SWAP2 POP POP SWAP3 SWAP2 POP POP JUMP JUMPDEST PUSH1 0x0 PUSH1 0xA0 DUP3 DUP5 SUB SLT ISZERO PUSH2 0xC3B JUMPI PUSH2 0xC3A PUSH2 0x10F7 JUMP JUMPDEST JUMPDEST PUSH1 0x0 PUSH2 0xC49 DUP5 DUP3 DUP6 ADD PUSH2 0xB4C JUMP JUMPDEST SWAP2 POP POP SWAP3 SWAP2 POP POP JUMP JUMPDEST PUSH1 0x0 PUSH1 0x20 DUP3 DUP5 SUB SLT ISZERO PUSH2 0xC68 JUMPI PUSH2 0xC67 PUSH2 0x10F7 JUMP JUMPDEST JUMPDEST PUSH1 0x0 PUSH2 0xC76 DUP5 DUP3 DUP6 ADD PUSH2 0xB77 JUMP JUMPDEST SWAP2 POP POP SWAP3 SWAP2 POP POP JUMP JUMPDEST PUSH1 0x0 PUSH1 0x20 DUP3 DUP5 SUB SLT ISZERO PUSH2 0xC95 JUMPI PUSH2 0xC94 PUSH2 0x10F7 JUMP JUMPDEST JUMPDEST PUSH1 0x0 PUSH2 0xCA3 DUP5 DUP3 DUP6 ADD PUSH2 0xB8C JUMP JUMPDEST SWAP2 POP POP SWAP3 SWAP2 POP POP JUMP JUMPDEST PUSH1 0x0 PUSH1 0x20 DUP3 DUP5 SUB SLT ISZERO PUSH2 0xCC2 JUMPI PUSH2 0xCC1 PUSH2 0x10F7 JUMP JUMPDEST JUMPDEST PUSH1 0x0 PUSH2 0xCD0 DUP5 DUP3 DUP6 ADD PUSH2 0xBA1 JUMP JUMPDEST SWAP2 POP POP SWAP3 SWAP2 POP POP JUMP JUMPDEST PUSH1 0x0 PUSH1 0x20 DUP3 DUP5 SUB SLT ISZERO PUSH2 0xCEF JUMPI PUSH2 0xCEE PUSH2 0x10F7 JUMP JUMPDEST JUMPDEST PUSH1 0x0 PUSH2 0xCFD DUP5 DUP3 DUP6 ADD PUSH2 0xBB6 JUMP JUMPDEST SWAP2 POP POP SWAP3 SWAP2 POP POP JUMP JUMPDEST PUSH1 0x0 PUSH2 0xD12 DUP4 DUP4 PUSH2 0xE04 JUMP JUMPDEST PUSH1 0x20 DUP4 ADD SWAP1 POP SWAP3 SWAP2 POP POP JUMP JUMPDEST PUSH2 0xD27 DUP2 PUSH2 0xFB7 JUMP JUMPDEST DUP3 MSTORE POP POP JUMP JUMPDEST PUSH2 0xD36 DUP2 PUSH2 0xF83 JUMP JUMPDEST PUSH2 0xD40 DUP2 DUP5 PUSH2 0xF9B JUMP JUMPDEST SWAP3 POP PUSH2 0xD4B DUP3 PUSH2 0xF79 JUMP JUMPDEST DUP1 PUSH1 0x0 JUMPDEST DUP4 DUP2 LT ISZERO PUSH2 0xD7C JUMPI DUP2 MLOAD PUSH2 0xD63 DUP8 DUP3 PUSH2 0xD06 JUMP JUMPDEST SWAP7 POP PUSH2 0xD6E DUP4 PUSH2 0xF8E JUMP JUMPDEST SWAP3 POP POP PUSH1 0x1 DUP2 ADD SWAP1 POP PUSH2 0xD4F JUMP JUMPDEST POP POP POP POP POP POP JUMP JUMPDEST PUSH2 0xD8D DUP2 PUSH2 0x1016 JUMP JUMPDEST DUP3 MSTORE POP POP JUMP JUMPDEST PUSH2 0xD9C DUP2 PUSH2 0x1028 JUMP JUMPDEST DUP3 MSTORE POP POP JUMP JUMPDEST PUSH1 0x0 PUSH2 0xDAF PUSH1 0x26 DUP4 PUSH2 0xFA6 JUMP JUMPDEST SWAP2 POP PUSH2 0xDBA DUP3 PUSH2 0x110D JUMP JUMPDEST PUSH1 0x40 DUP3 ADD SWAP1 POP SWAP2 SWAP1 POP JUMP JUMPDEST PUSH1 0x0 PUSH2 0xDD2 PUSH1 0x20 DUP4 PUSH2 0xFA6 JUMP JUMPDEST SWAP2 POP PUSH2 0xDDD DUP3 PUSH2 0x115C JUMP JUMPDEST PUSH1 0x20 DUP3 ADD SWAP1 POP SWAP2 SWAP1 POP JUMP JUMPDEST PUSH1 0x20 DUP3 ADD PUSH1 0x0 DUP3 ADD MLOAD PUSH2 0xDFE PUSH1 0x0 DUP6 ADD DUP3 PUSH2 0xE04 JUMP JUMPDEST POP POP POP POP JUMP JUMPDEST PUSH2 0xE0D DUP2 PUSH2 0xFFC JUMP JUMPDEST DUP3 MSTORE POP POP JUMP JUMPDEST PUSH2 0xE1C DUP2 PUSH2 0xFFC JUMP JUMPDEST DUP3 MSTORE POP POP JUMP JUMPDEST PUSH2 0xE2B DUP2 PUSH2 0x1006 JUMP JUMPDEST DUP3 MSTORE POP POP JUMP JUMPDEST PUSH1 0x0 PUSH1 0x20 DUP3 ADD SWAP1 POP PUSH2 0xE46 PUSH1 0x0 DUP4 ADD DUP5 PUSH2 0xD1E JUMP JUMPDEST SWAP3 SWAP2 POP POP JUMP JUMPDEST PUSH1 0x0 PUSH1 0xA0 DUP3 ADD SWAP1 POP PUSH2 0xE61 PUSH1 0x0 DUP4 ADD DUP5 PUSH2 0xD2D JUMP JUMPDEST SWAP3 SWAP2 POP POP JUMP JUMPDEST PUSH1 0x0 PUSH1 0x20 DUP3 ADD SWAP1 POP PUSH2 0xE7C PUSH1 0x0 DUP4 ADD DUP5 PUSH2 0xD84 JUMP JUMPDEST SWAP3 SWAP2 POP POP JUMP JUMPDEST PUSH1 0x0 PUSH1 0x20 DUP3 ADD SWAP1 POP PUSH2 0xE97 PUSH1 0x0 DUP4 ADD DUP5 PUSH2 0xD93 JUMP JUMPDEST SWAP3 SWAP2 POP POP JUMP JUMPDEST PUSH1 0x0 PUSH1 0x20 DUP3 ADD SWAP1 POP DUP2 DUP2 SUB PUSH1 0x0 DUP4 ADD MSTORE PUSH2 0xEB6 DUP2 PUSH2 0xDA2 JUMP JUMPDEST SWAP1 POP SWAP2 SWAP1 POP JUMP JUMPDEST PUSH1 0x0 PUSH1 0x20 DUP3 ADD SWAP1 POP DUP2 DUP2 SUB PUSH1 0x0 DUP4 ADD MSTORE PUSH2 0xED6 DUP2 PUSH2 0xDC5 JUMP JUMPDEST SWAP1 POP SWAP2 SWAP1 POP JUMP JUMPDEST PUSH1 0x0 PUSH1 0x20 DUP3 ADD SWAP1 POP PUSH2 0xEF2 PUSH1 0x0 DUP4 ADD DUP5 PUSH2 0xDE8 JUMP JUMPDEST SWAP3 SWAP2 POP POP JUMP JUMPDEST PUSH1 0x0 PUSH1 0x20 DUP3 ADD SWAP1 POP PUSH2 0xF0D PUSH1 0x0 DUP4 ADD DUP5 PUSH2 0xE13 JUMP JUMPDEST SWAP3 SWAP2 POP POP JUMP JUMPDEST PUSH1 0x0 PUSH1 0x20 DUP3 ADD SWAP1 POP PUSH2 0xF28 PUSH1 0x0 DUP4 ADD DUP5 PUSH2 0xE22 JUMP JUMPDEST SWAP3 SWAP2 POP POP JUMP JUMPDEST PUSH1 0x0 PUSH2 0xF38 PUSH2 0xF49 JUMP JUMPDEST SWAP1 POP PUSH2 0xF44 DUP3 DUP3 PUSH2 0x105E JUMP JUMPDEST SWAP2 SWAP1 POP JUMP JUMPDEST PUSH1 0x0 PUSH1 0x40 MLOAD SWAP1 POP SWAP1 JUMP JUMPDEST PUSH1 0x0 PUSH8 0xFFFFFFFFFFFFFFFF DUP3 GT ISZERO PUSH2 0xF6E JUMPI PUSH2 0xF6D PUSH2 0x10BE JUMP JUMPDEST JUMPDEST PUSH1 0x20 DUP3 MUL SWAP1 POP SWAP2 SWAP1 POP JUMP JUMPDEST PUSH1 0x0 DUP2 SWAP1 POP SWAP2 SWAP1 POP JUMP JUMPDEST PUSH1 0x0 PUSH1 0x5 SWAP1 POP SWAP2 SWAP1 POP JUMP JUMPDEST PUSH1 0x0 PUSH1 0x20 DUP3 ADD SWAP1 POP SWAP2 SWAP1 POP JUMP JUMPDEST PUSH1 0x0 DUP2 SWAP1 POP SWAP3 SWAP2 POP POP JUMP JUMPDEST PUSH1 0x0 DUP3 DUP3 MSTORE PUSH1 0x20 DUP3 ADD SWAP1 POP SWAP3 SWAP2 POP POP JUMP JUMPDEST PUSH1 0x0 PUSH2 0xFC2 DUP3 PUSH2 0xFDC JUMP JUMPDEST SWAP1 POP SWAP2 SWAP1 POP JUMP JUMPDEST PUSH1 0x0 DUP2 SWAP1 POP PUSH2 0xFD7 DUP3 PUSH2 0x1185 JUMP JUMPDEST SWAP2 SWAP1 POP JUMP JUMPDEST PUSH1 0x0 PUSH20 0xFFFFFFFFFFFFFFFFFFFFFFFFFFFFFFFFFFFFFFFF DUP3 AND SWAP1 POP SWAP2 SWAP1 POP JUMP JUMPDEST PUSH1 0x0 DUP2 SWAP1 POP SWAP2 SWAP1 POP JUMP JUMPDEST PUSH1 0x0 PUSH4 0xFFFFFFFF DUP3 AND SWAP1 POP SWAP2 SWAP1 POP JUMP JUMPDEST PUSH1 0x0 PUSH2 0x1021 DUP3 PUSH2 0x103A JUMP JUMPDEST SWAP1 POP SWAP2 SWAP1 POP JUMP JUMPDEST PUSH1 0x0 PUSH2 0x1033 DUP3 PUSH2 0xFC9 JUMP JUMPDEST SWAP1 POP SWAP2 SWAP1 POP JUMP JUMPDEST PUSH1 0x0 PUSH2 0x1045 DUP3 PUSH2 0x104C JUMP JUMPDEST SWAP1 POP SWAP2 SWAP1 POP JUMP JUMPDEST PUSH1 0x0 PUSH2 0x1057 DUP3 PUSH2 0xFDC JUMP JUMPDEST SWAP1 POP SWAP2 SWAP1 POP JUMP JUMPDEST PUSH2 0x1067 DUP3 PUSH2 0x10FC JUMP JUMPDEST DUP2 ADD DUP2 DUP2 LT PUSH8 0xFFFFFFFFFFFFFFFF DUP3 GT OR ISZERO PUSH2 0x1086 JUMPI PUSH2 0x1085 PUSH2 0x10BE JUMP JUMPDEST JUMPDEST DUP1 PUSH1 0x40 MSTORE POP POP POP JUMP JUMPDEST PUSH32 0x4E487B7100000000000000000000000000000000000000000000000000000000 PUSH1 0x0 MSTORE PUSH1 0x21 PUSH1 0x4 MSTORE PUSH1 0x24 PUSH1 0x0 REVERT JUMPDEST PUSH32 0x4E487B7100000000000000000000000000000000000000000000000000000000 PUSH1 0x0 MSTORE PUSH1 0x41 PUSH1 0x4 MSTORE PUSH1 0x24 PUSH1 0x0 REVERT JUMPDEST PUSH1 0x0 DUP1 REVERT JUMPDEST PUSH1 0x0 DUP1 REVERT JUMPDEST PUSH1 0x0 DUP1 REVERT JUMPDEST PUSH1 0x0 PUSH1 0x1F NOT PUSH1 0x1F DUP4 ADD AND SWAP1 POP SWAP2 SWAP1 POP JUMP JUMPDEST PUSH32 0x4F776E61626C653A206E6577206F776E657220697320746865207A65726F2061 PUSH1 0x0 DUP3 ADD MSTORE PUSH32 0x6464726573730000000000000000000000000000000000000000000000000000 PUSH1 0x20 DUP3 ADD MSTORE POP JUMP JUMPDEST PUSH32 0x4F776E61626C653A2063616C6C6572206973206E6F7420746865206F776E6572 PUSH1 0x0 DUP3 ADD MSTORE POP JUMP JUMPDEST PUSH1 0x5 DUP2 LT PUSH2 0x1196 JUMPI PUSH2 0x1195 PUSH2 0x108F JUMP JUMPDEST JUMPDEST POP JUMP JUMPDEST PUSH2 0x11A2 DUP2 PUSH2 0xFB7 JUMP JUMPDEST DUP2 EQ PUSH2 0x11AD JUMPI PUSH1 0x0 DUP1 REVERT JUMPDEST POP JUMP JUMPDEST PUSH1 0x5 DUP2 LT PUSH2 0x11BD JUMPI PUSH1 0x0 DUP1 REVERT JUMPDEST POP JUMP JUMPDEST PUSH2 0x11C9 DUP2 PUSH2 0xFFC JUMP JUMPDEST DUP2 EQ PUSH2 0x11D4 JUMPI PUSH1 0x0 DUP1 REVERT JUMPDEST POP JUMP JUMPDEST PUSH2 0x11E0 DUP2 PUSH2 0x1006 JUMP JUMPDEST DUP2 EQ PUSH2 0x11EB JUMPI PUSH1 0x0 DUP1 REVERT JUMPDEST POP JUMP INVALID LOG2 PUSH5 0x6970667358 0x22 SLT KECCAK256 PUSH10 0xC64B7061B5829E70C8CF DUP6 0x4B 0xB4 0xE 0xAD SWAP7 0xE2 0xE5 0xB4 PUSH8 0xC9215AA63B640661 SIGNEXTEND 0xCB PUSH8 0x64736F6C63430008 SMOD STOP CALLER "
				},
				"gasEstimates": {
					"creation": {
						"codeDepositCost": "928800",
						"executionCost": "infinite",
						"totalCost": "infinite"
					},
					"external": {
						"getBuyer(uint256)": "infinite",
						"getPremium(uint256)": "infinite",
						"getPrices(uint256)": "infinite",
						"getRounds(uint256)": "infinite",
						"getSeller(uint256)": "infinite",
						"getSellerDeposit(uint256)": "infinite",
						"getStatus(uint256)": "infinite",
						"getSwap(uint256)": "3040",
						"getSwapId()": "2680",
						"nextPayDate(uint256)": "infinite",
						"owner()": "2544",
						"renounceOwnership()": "30443",
						"transferOwnership(address)": "30835"
					},
					"internal": {
						"_accept(bool,uint256)": "infinite",
						"_cancel(uint256)": "infinite",
						"_claim(uint256)": "infinite",
						"_close(uint256)": "infinite",
						"_create(bool,uint256,uint256,uint256,uint256,uint256,uint32,uint32)": "infinite",
						"_payPremium(uint256)": "infinite"
					}
				},
				"methodIdentifiers": {
					"getBuyer(uint256)": "5bf608b8",
					"getPremium(uint256)": "1bf1fffb",
					"getPrices(uint256)": "91492956",
					"getRounds(uint256)": "13ef3dcc",
					"getSeller(uint256)": "d6a9de51",
					"getSellerDeposit(uint256)": "88106323",
					"getStatus(uint256)": "5c622a0e",
					"getSwap(uint256)": "4a0d89ba",
					"getSwapId()": "496ab39a",
					"nextPayDate(uint256)": "44a9d244",
					"owner()": "8da5cb5b",
					"renounceOwnership()": "715018a6",
					"transferOwnership(address)": "f2fde38b"
				}
			},
			"storageLayout": {
				"storage": [
					{
						"astId": 53,
						"contract": "contracts/Handler/SwapFactory.sol:SwapHandler",
						"label": "_owner",
						"offset": 0,
						"slot": "0",
						"type": "t_address"
					},
					{
						"astId": 580,
						"contract": "contracts/Handler/SwapFactory.sol:SwapHandler",
						"label": "_swapId",
						"offset": 0,
						"slot": "1",
						"type": "t_struct(Counter)186_storage"
					},
					{
						"astId": 585,
						"contract": "contracts/Handler/SwapFactory.sol:SwapHandler",
						"label": "_swaps",
						"offset": 0,
						"slot": "2",
						"type": "t_mapping(t_uint256,t_contract(Swap)1431)"
					},
					{
						"astId": 589,
						"contract": "contracts/Handler/SwapFactory.sol:SwapHandler",
						"label": "nextPayDate",
						"offset": 0,
						"slot": "3",
						"type": "t_mapping(t_uint256,t_uint256)"
					}
				],
				"types": {
					"t_address": {
						"encoding": "inplace",
						"label": "address",
						"numberOfBytes": "20"
					},
					"t_contract(Swap)1431": {
						"encoding": "inplace",
						"label": "contract Swap",
						"numberOfBytes": "20"
					},
					"t_mapping(t_uint256,t_contract(Swap)1431)": {
						"encoding": "mapping",
						"key": "t_uint256",
						"label": "mapping(uint256 => contract Swap)",
						"numberOfBytes": "32",
						"value": "t_contract(Swap)1431"
					},
					"t_mapping(t_uint256,t_uint256)": {
						"encoding": "mapping",
						"key": "t_uint256",
						"label": "mapping(uint256 => uint256)",
						"numberOfBytes": "32",
						"value": "t_uint256"
					},
					"t_struct(Counter)186_storage": {
						"encoding": "inplace",
						"label": "struct Counters.Counter",
						"members": [
							{
								"astId": 185,
								"contract": "contracts/Handler/SwapFactory.sol:SwapHandler",
								"label": "_value",
								"offset": 0,
								"slot": "0",
								"type": "t_uint256"
							}
						],
						"numberOfBytes": "32"
					},
					"t_uint256": {
						"encoding": "inplace",
						"label": "uint256",
						"numberOfBytes": "32"
					}
				}
			},
			"userdoc": {
				"kind": "user",
				"methods": {},
				"version": 1
			}
		}
	}
}