{
	"contracts/Swap/Swap.sol": {
		"Swap": {
			"abi": [
				{
					"inputs": [
						{
							"internalType": "uint256",
							"name": "_initAssetPrice",
							"type": "uint256"
						},
						{
							"internalType": "uint256",
							"name": "_claimPrice",
							"type": "uint256"
						},
						{
							"internalType": "uint256",
							"name": "_liquidationPrice",
							"type": "uint256"
						},
						{
							"internalType": "uint256",
							"name": "_premium",
							"type": "uint256"
						},
						{
							"internalType": "uint256",
							"name": "_sellerDeposit",
							"type": "uint256"
						},
						{
							"internalType": "uint32",
							"name": "_rounds",
							"type": "uint32"
						},
						{
							"internalType": "uint32",
							"name": "_assetType",
							"type": "uint32"
						}
					],
					"stateMutability": "nonpayable",
					"type": "constructor"
				},
				{
					"anonymous": false,
					"inputs": [
						{
							"indexed": true,
							"internalType": "address",
							"name": "previousOwner",
							"type": "address"
						},
						{
							"indexed": true,
							"internalType": "address",
							"name": "newOwner",
							"type": "address"
						}
					],
					"name": "OwnershipTransferred",
					"type": "event"
				},
				{
					"inputs": [],
					"name": "amountOfAsset",
					"outputs": [
						{
							"internalType": "uint256",
							"name": "",
							"type": "uint256"
						}
					],
					"stateMutability": "view",
					"type": "function"
				},
				{
					"inputs": [],
					"name": "assetType",
					"outputs": [
						{
							"internalType": "uint32",
							"name": "",
							"type": "uint32"
						}
					],
					"stateMutability": "view",
					"type": "function"
				},
				{
					"inputs": [],
					"name": "claimPrice",
					"outputs": [
						{
							"internalType": "uint256",
							"name": "",
							"type": "uint256"
						}
					],
					"stateMutability": "view",
					"type": "function"
				},
				{
					"inputs": [],
					"name": "getBTCPrice",
					"outputs": [
						{
							"internalType": "uint256",
							"name": "",
							"type": "uint256"
						}
					],
					"stateMutability": "view",
					"type": "function"
				},
				{
					"inputs": [],
					"name": "getBuyer",
					"outputs": [
						{
							"internalType": "address",
							"name": "",
							"type": "address"
						}
					],
					"stateMutability": "view",
					"type": "function"
				},
				{
					"inputs": [],
					"name": "getClaimReward",
					"outputs": [
						{
							"internalType": "uint256",
							"name": "",
							"type": "uint256"
						}
					],
					"stateMutability": "view",
					"type": "function"
				},
				{
					"inputs": [],
					"name": "getETHPrice",
					"outputs": [
						{
							"internalType": "uint256",
							"name": "",
							"type": "uint256"
						}
					],
					"stateMutability": "view",
					"type": "function"
				},
				{
					"inputs": [],
					"name": "getLinkPrice",
					"outputs": [
						{
							"internalType": "uint256",
							"name": "",
							"type": "uint256"
						}
					],
					"stateMutability": "view",
					"type": "function"
				},
				{
					"inputs": [],
					"name": "getPrices",
					"outputs": [
						{
							"internalType": "uint256[5]",
							"name": "",
							"type": "uint256[5]"
						}
					],
					"stateMutability": "view",
					"type": "function"
				},
				{
					"inputs": [],
					"name": "getSeller",
					"outputs": [
						{
							"internalType": "address",
							"name": "",
							"type": "address"
						}
					],
					"stateMutability": "view",
					"type": "function"
				},
				{
					"inputs": [],
					"name": "initAssetPrice",
					"outputs": [
						{
							"internalType": "uint256",
							"name": "",
							"type": "uint256"
						}
					],
					"stateMutability": "view",
					"type": "function"
				},
				{
					"inputs": [],
					"name": "liquidationPrice",
					"outputs": [
						{
							"internalType": "uint256",
							"name": "",
							"type": "uint256"
						}
					],
					"stateMutability": "view",
					"type": "function"
				},
				{
					"inputs": [],
					"name": "owner",
					"outputs": [
						{
							"internalType": "address",
							"name": "",
							"type": "address"
						}
					],
					"stateMutability": "view",
					"type": "function"
				},
				{
					"inputs": [],
					"name": "premium",
					"outputs": [
						{
							"internalType": "uint256",
							"name": "",
							"type": "uint256"
						}
					],
					"stateMutability": "view",
					"type": "function"
				},
				{
					"inputs": [],
					"name": "renounceOwnership",
					"outputs": [],
					"stateMutability": "nonpayable",
					"type": "function"
				},
				{
					"inputs": [],
					"name": "rounds",
					"outputs": [
						{
							"internalType": "uint32",
							"name": "",
							"type": "uint32"
						}
					],
					"stateMutability": "view",
					"type": "function"
				},
				{
					"inputs": [],
					"name": "sellerDeposit",
					"outputs": [
						{
							"internalType": "uint256",
							"name": "",
							"type": "uint256"
						}
					],
					"stateMutability": "view",
					"type": "function"
				},
				{
					"inputs": [
						{
							"internalType": "address",
							"name": "_buyer",
							"type": "address"
						}
					],
					"name": "setBuyer",
					"outputs": [
						{
							"internalType": "address",
							"name": "",
							"type": "address"
						}
					],
					"stateMutability": "nonpayable",
					"type": "function"
				},
				{
					"inputs": [
						{
							"internalType": "uint256",
							"name": "_initAssetPrice",
							"type": "uint256"
						}
					],
					"name": "setInitAssetPrice",
					"outputs": [
						{
							"internalType": "uint256",
							"name": "",
							"type": "uint256"
						}
					],
					"stateMutability": "nonpayable",
					"type": "function"
				},
				{
					"inputs": [
						{
							"internalType": "uint32",
							"name": "_rounds",
							"type": "uint32"
						}
					],
					"name": "setRounds",
					"outputs": [
						{
							"internalType": "uint32",
							"name": "",
							"type": "uint32"
						}
					],
					"stateMutability": "nonpayable",
					"type": "function"
				},
				{
					"inputs": [
						{
							"internalType": "address",
							"name": "_seller",
							"type": "address"
						}
					],
					"name": "setSeller",
					"outputs": [
						{
							"internalType": "address",
							"name": "",
							"type": "address"
						}
					],
					"stateMutability": "nonpayable",
					"type": "function"
				},
				{
					"inputs": [
						{
							"internalType": "enum Swap.Status",
							"name": "_status",
							"type": "uint8"
						}
					],
					"name": "setStatus",
					"outputs": [
						{
							"internalType": "enum Swap.Status",
							"name": "",
							"type": "uint8"
						}
					],
					"stateMutability": "nonpayable",
					"type": "function"
				},
				{
					"inputs": [],
					"name": "status",
					"outputs": [
						{
							"internalType": "enum Swap.Status",
							"name": "",
							"type": "uint8"
						}
					],
					"stateMutability": "view",
					"type": "function"
				},
				{
					"inputs": [],
					"name": "totalRounds",
					"outputs": [
						{
							"internalType": "uint32",
							"name": "",
							"type": "uint32"
						}
					],
					"stateMutability": "view",
					"type": "function"
				},
				{
					"inputs": [
						{
							"internalType": "address",
							"name": "newOwner",
							"type": "address"
						}
					],
					"name": "transferOwnership",
					"outputs": [],
					"stateMutability": "nonpayable",
					"type": "function"
				}
			],
			"devdoc": {
				"kind": "dev",
				"methods": {
					"owner()": {
						"details": "Returns the address of the current owner."
					},
					"renounceOwnership()": {
						"details": "Leaves the contract without owner. It will not be possible to call `onlyOwner` functions anymore. Can only be called by the current owner. NOTE: Renouncing ownership will leave the contract without an owner, thereby removing any functionality that is only available to the owner."
					},
					"transferOwnership(address)": {
						"details": "Transfers ownership of the contract to a new account (`newOwner`). Can only be called by the current owner."
					}
				},
				"version": 1
			},
			"evm": {
				"assembly": "    /* \"contracts/Swap/Swap.sol\":235:3087  contract Swap is Ownable, PriceConsumerGoerli {... */\n  mstore(0x40, 0x80)\n    /* \"contracts/Swap/Swap.sol\":773:1513  constructor(... */\n  callvalue\n  dup1\n  iszero\n  tag_1\n  jumpi\n  0x00\n  dup1\n  revert\ntag_1:\n  pop\n  mload(0x40)\n  sub(codesize, bytecodeSize)\n  dup1\n  bytecodeSize\n  dup4\n  codecopy\n  dup2\n  dup2\n  add\n  0x40\n  mstore\n  dup2\n  add\n  swap1\n  tag_2\n  swap2\n  swap1\n  tag_3\n  jump\t// in\ntag_2:\n    /* \"@openzeppelin/contracts/access/Ownable.sol\":936:968  _transferOwnership(_msgSender()) */\n  tag_8\n    /* \"@openzeppelin/contracts/access/Ownable.sol\":955:967  _msgSender() */\n  tag_9\n    /* \"@openzeppelin/contracts/access/Ownable.sol\":955:965  _msgSender */\n  shl(0x20, tag_10)\n    /* \"@openzeppelin/contracts/access/Ownable.sol\":955:967  _msgSender() */\n  0x20\n  shr\n  jump\t// in\ntag_9:\n    /* \"@openzeppelin/contracts/access/Ownable.sol\":936:954  _transferOwnership */\n  shl(0x20, tag_11)\n    /* \"@openzeppelin/contracts/access/Ownable.sol\":936:968  _transferOwnership(_msgSender()) */\n  0x20\n  shr\n  jump\t// in\ntag_8:\n    /* \"contracts/Swap/PriceConsumerGoerli.sol\":299:341  0xA39434A63A52E749F02807ae27335515BA4b07F7 */\n  0xa39434a63a52e749f02807ae27335515ba4b07f7\n    /* \"contracts/Swap/PriceConsumerGoerli.sol\":252:264  _aggregators */\n  0x01\n    /* \"contracts/Swap/PriceConsumerGoerli.sol\":252:267  _aggregators[0] */\n  0x00\n    /* \"contracts/Swap/PriceConsumerGoerli.sol\":265:266  0 */\n  dup1\n    /* \"contracts/Swap/PriceConsumerGoerli.sol\":252:267  _aggregators[0] */\n  dup2\n  mstore\n  0x20\n  add\n  swap1\n  dup2\n  mstore\n  0x20\n  add\n  0x00\n  keccak256\n  0x00\n    /* \"contracts/Swap/PriceConsumerGoerli.sol\":252:347  _aggregators[0] = AggregatorV3Interface(... */\n  0x0100\n  exp\n  dup2\n  sload\n  dup2\n  0xffffffffffffffffffffffffffffffffffffffff\n  mul\n  not\n  and\n  swap1\n  dup4\n  0xffffffffffffffffffffffffffffffffffffffff\n  and\n  mul\n  or\n  swap1\n  sstore\n  pop\n    /* \"contracts/Swap/PriceConsumerGoerli.sol\":400:442  0xD4a33860578De61DBAbDc8BFdb98FD742fA7028e */\n  0xd4a33860578de61dbabdc8bfdb98fd742fa7028e\n    /* \"contracts/Swap/PriceConsumerGoerli.sol\":353:365  _aggregators */\n  0x01\n    /* \"contracts/Swap/PriceConsumerGoerli.sol\":353:368  _aggregators[1] */\n  0x00\n    /* \"contracts/Swap/PriceConsumerGoerli.sol\":366:367  1 */\n  0x01\n    /* \"contracts/Swap/PriceConsumerGoerli.sol\":353:368  _aggregators[1] */\n  dup2\n  mstore\n  0x20\n  add\n  swap1\n  dup2\n  mstore\n  0x20\n  add\n  0x00\n  keccak256\n  0x00\n    /* \"contracts/Swap/PriceConsumerGoerli.sol\":353:448  _aggregators[1] = AggregatorV3Interface(... */\n  0x0100\n  exp\n  dup2\n  sload\n  dup2\n  0xffffffffffffffffffffffffffffffffffffffff\n  mul\n  not\n  and\n  swap1\n  dup4\n  0xffffffffffffffffffffffffffffffffffffffff\n  and\n  mul\n  or\n  swap1\n  sstore\n  pop\n    /* \"contracts/Swap/PriceConsumerGoerli.sol\":501:543  0x48731cF7e84dc94C5f84577882c14Be11a5B7456 */\n  0x48731cf7e84dc94c5f84577882c14be11a5b7456\n    /* \"contracts/Swap/PriceConsumerGoerli.sol\":454:466  _aggregators */\n  0x01\n    /* \"contracts/Swap/PriceConsumerGoerli.sol\":454:469  _aggregators[2] */\n  0x00\n    /* \"contracts/Swap/PriceConsumerGoerli.sol\":467:468  2 */\n  0x02\n    /* \"contracts/Swap/PriceConsumerGoerli.sol\":454:469  _aggregators[2] */\n  dup2\n  mstore\n  0x20\n  add\n  swap1\n  dup2\n  mstore\n  0x20\n  add\n  0x00\n  keccak256\n  0x00\n    /* \"contracts/Swap/PriceConsumerGoerli.sol\":454:549  _aggregators[2] = AggregatorV3Interface(... */\n  0x0100\n  exp\n  dup2\n  sload\n  dup2\n  0xffffffffffffffffffffffffffffffffffffffff\n  mul\n  not\n  and\n  swap1\n  dup4\n  0xffffffffffffffffffffffffffffffffffffffff\n  and\n  mul\n  or\n  swap1\n  sstore\n  pop\n    /* \"contracts/Swap/Swap.sol\":990:1005  _initAssetPrice */\n  dup7\n    /* \"contracts/Swap/Swap.sol\":973:987  initAssetPrice */\n  0x03\n    /* \"contracts/Swap/Swap.sol\":973:1005  initAssetPrice = _initAssetPrice */\n  dup2\n  swap1\n  sstore\n  pop\n    /* \"contracts/Swap/Swap.sol\":1024:1035  _claimPrice */\n  dup6\n    /* \"contracts/Swap/Swap.sol\":1011:1021  claimPrice */\n  0x04\n    /* \"contracts/Swap/Swap.sol\":1011:1035  claimPrice = _claimPrice */\n  dup2\n  swap1\n  sstore\n  pop\n    /* \"contracts/Swap/Swap.sol\":1060:1077  _liquidationPrice */\n  dup5\n    /* \"contracts/Swap/Swap.sol\":1041:1057  liquidationPrice */\n  0x05\n    /* \"contracts/Swap/Swap.sol\":1041:1077  liquidationPrice = _liquidationPrice */\n  dup2\n  swap1\n  sstore\n  pop\n    /* \"contracts/Swap/Swap.sol\":1093:1101  _premium */\n  dup4\n    /* \"contracts/Swap/Swap.sol\":1083:1090  premium */\n  0x06\n    /* \"contracts/Swap/Swap.sol\":1083:1101  premium = _premium */\n  dup2\n  swap1\n  sstore\n  pop\n    /* \"contracts/Swap/Swap.sol\":1123:1137  _sellerDeposit */\n  dup3\n    /* \"contracts/Swap/Swap.sol\":1107:1120  sellerDeposit */\n  0x07\n    /* \"contracts/Swap/Swap.sol\":1107:1137  sellerDeposit = _sellerDeposit */\n  dup2\n  swap1\n  sstore\n  pop\n    /* \"contracts/Swap/Swap.sol\":1152:1159  _rounds */\n  dup2\n    /* \"contracts/Swap/Swap.sol\":1143:1149  rounds */\n  0x0a\n  0x14\n    /* \"contracts/Swap/Swap.sol\":1143:1159  rounds = _rounds */\n  0x0100\n  exp\n  dup2\n  sload\n  dup2\n  0xffffffff\n  mul\n  not\n  and\n  swap1\n  dup4\n  0xffffffff\n  and\n  mul\n  or\n  swap1\n  sstore\n  pop\n    /* \"contracts/Swap/Swap.sol\":1179:1186  _rounds */\n  dup2\n    /* \"contracts/Swap/Swap.sol\":1165:1176  totalRounds */\n  0x0a\n  0x18\n    /* \"contracts/Swap/Swap.sol\":1165:1186  totalRounds = _rounds */\n  0x0100\n  exp\n  dup2\n  sload\n  dup2\n  0xffffffff\n  mul\n  not\n  and\n  swap1\n  dup4\n  0xffffffff\n  and\n  mul\n  or\n  swap1\n  sstore\n  pop\n    /* \"contracts/Swap/Swap.sol\":1208:1291  initAssetPrice.calcAmountOfAsset(... */\n  tag_14\n    /* \"contracts/Swap/Swap.sol\":1248:1264  liquidationPrice */\n  sload(0x05)\n    /* \"contracts/Swap/Swap.sol\":1272:1285  sellerDeposit */\n  sload(0x07)\n    /* \"contracts/Swap/Swap.sol\":1208:1222  initAssetPrice */\n  sload(0x03)\n    /* \"contracts/Swap/Swap.sol\":1208:1240  initAssetPrice.calcAmountOfAsset */\n  or(tag_0_120, shl(0x20, tag_15))\n  swap1\n    /* \"contracts/Swap/Swap.sol\":1208:1291  initAssetPrice.calcAmountOfAsset(... */\n  swap3\n  swap2\n  swap1\n  0x20\n  shr\n  jump\t// in\ntag_14:\n    /* \"contracts/Swap/Swap.sol\":1192:1205  amountOfAsset */\n  0x08\n    /* \"contracts/Swap/Swap.sol\":1192:1291  amountOfAsset = initAssetPrice.calcAmountOfAsset(... */\n  dup2\n  swap1\n  sstore\n  pop\n    /* \"contracts/Swap/Swap.sol\":1326:1327  0 */\n  0x00\n    /* \"contracts/Swap/Swap.sol\":1312:1322  _assetType */\n  dup2\n    /* \"contracts/Swap/Swap.sol\":1312:1327  _assetType == 0 */\n  0xffffffff\n  and\n  eq\n    /* \"contracts/Swap/Swap.sol\":1312:1346  _assetType == 0 || _assetType == 1 */\n  dup1\n  tag_16\n  jumpi\n  pop\n    /* \"contracts/Swap/Swap.sol\":1345:1346  1 */\n  0x01\n    /* \"contracts/Swap/Swap.sol\":1331:1341  _assetType */\n  dup2\n    /* \"contracts/Swap/Swap.sol\":1331:1346  _assetType == 1 */\n  0xffffffff\n  and\n  eq\n    /* \"contracts/Swap/Swap.sol\":1312:1346  _assetType == 0 || _assetType == 1 */\ntag_16:\n    /* \"contracts/Swap/Swap.sol\":1312:1365  _assetType == 0 || _assetType == 1 || _assetType == 2 */\n  dup1\n  tag_17\n  jumpi\n  pop\n    /* \"contracts/Swap/Swap.sol\":1364:1365  2 */\n  0x02\n    /* \"contracts/Swap/Swap.sol\":1350:1360  _assetType */\n  dup2\n    /* \"contracts/Swap/Swap.sol\":1350:1365  _assetType == 2 */\n  0xffffffff\n  and\n  eq\n    /* \"contracts/Swap/Swap.sol\":1312:1365  _assetType == 0 || _assetType == 1 || _assetType == 2 */\ntag_17:\n    /* \"contracts/Swap/Swap.sol\":1297:1401  require(... */\n  tag_18\n  jumpi\n  mload(0x40)\n  0x08c379a000000000000000000000000000000000000000000000000000000000\n  dup2\n  mstore\n  0x04\n  add\n  tag_19\n  swap1\n  tag_20\n  jump\t// in\ntag_19:\n  mload(0x40)\n  dup1\n  swap2\n  sub\n  swap1\n  revert\ntag_18:\n    /* \"contracts/Swap/Swap.sol\":1419:1429  _assetType */\n  dup1\n    /* \"contracts/Swap/Swap.sol\":1407:1416  assetType */\n  0x0a\n  0x1c\n    /* \"contracts/Swap/Swap.sol\":1407:1429  assetType = _assetType */\n  0x0100\n  exp\n  dup2\n  sload\n  dup2\n  0xffffffff\n  mul\n  not\n  and\n  swap1\n  dup4\n  0xffffffff\n  and\n  mul\n  or\n  swap1\n  sstore\n  pop\n    /* \"contracts/Swap/Swap.sol\":1452:1453  0 */\n  0x00\n    /* \"contracts/Swap/Swap.sol\":1436:1441  buyer */\n  0x09\n  0x00\n    /* \"contracts/Swap/Swap.sol\":1436:1454  buyer = address(0) */\n  0x0100\n  exp\n  dup2\n  sload\n  dup2\n  0xffffffffffffffffffffffffffffffffffffffff\n  mul\n  not\n  and\n  swap1\n  dup4\n  0xffffffffffffffffffffffffffffffffffffffff\n  and\n  mul\n  or\n  swap1\n  sstore\n  pop\n    /* \"contracts/Swap/Swap.sol\":1477:1478  0 */\n  0x00\n    /* \"contracts/Swap/Swap.sol\":1460:1466  seller */\n  0x0a\n  0x00\n    /* \"contracts/Swap/Swap.sol\":1460:1479  seller = address(0) */\n  0x0100\n  exp\n  dup2\n  sload\n  dup2\n  0xffffffffffffffffffffffffffffffffffffffff\n  mul\n  not\n  and\n  swap1\n  dup4\n  0xffffffffffffffffffffffffffffffffffffffff\n  and\n  mul\n  or\n  swap1\n  sstore\n  pop\n    /* \"contracts/Swap/Swap.sol\":1494:1508  Status.pending */\n  0x01\n    /* \"contracts/Swap/Swap.sol\":1485:1491  status */\n  0x02\n  0x00\n    /* \"contracts/Swap/Swap.sol\":1485:1508  status = Status.pending */\n  0x0100\n  exp\n  dup2\n  sload\n  dup2\n  0xff\n  mul\n  not\n  and\n  swap1\n  dup4\n  0x04\n  dup2\n  gt\n  iszero\n  tag_21\n  jumpi\n  tag_22\n  tag_23\n  jump\t// in\ntag_22:\ntag_21:\n  mul\n  or\n  swap1\n  sstore\n  pop\n    /* \"contracts/Swap/Swap.sol\":773:1513  constructor(... */\n  pop\n  pop\n  pop\n  pop\n  pop\n  pop\n  pop\n    /* \"contracts/Swap/Swap.sol\":235:3087  contract Swap is Ownable, PriceConsumerGoerli {... */\n  jump(tag_24)\n    /* \"@openzeppelin/contracts/utils/Context.sol\":640:736  function _msgSender() internal view virtual returns (address) {... */\ntag_10:\n    /* \"@openzeppelin/contracts/utils/Context.sol\":693:700  address */\n  0x00\n    /* \"@openzeppelin/contracts/utils/Context.sol\":719:729  msg.sender */\n  caller\n    /* \"@openzeppelin/contracts/utils/Context.sol\":712:729  return msg.sender */\n  swap1\n  pop\n    /* \"@openzeppelin/contracts/utils/Context.sol\":640:736  function _msgSender() internal view virtual returns (address) {... */\n  swap1\n  jump\t// out\n    /* \"@openzeppelin/contracts/access/Ownable.sol\":2433:2620  function _transferOwnership(address newOwner) internal virtual {... */\ntag_11:\n    /* \"@openzeppelin/contracts/access/Ownable.sol\":2506:2522  address oldOwner */\n  0x00\n    /* \"@openzeppelin/contracts/access/Ownable.sol\":2525:2531  _owner */\n  dup1\n  0x00\n  swap1\n  sload\n  swap1\n  0x0100\n  exp\n  swap1\n  div\n  0xffffffffffffffffffffffffffffffffffffffff\n  and\n    /* \"@openzeppelin/contracts/access/Ownable.sol\":2506:2531  address oldOwner = _owner */\n  swap1\n  pop\n    /* \"@openzeppelin/contracts/access/Ownable.sol\":2550:2558  newOwner */\n  dup2\n    /* \"@openzeppelin/contracts/access/Ownable.sol\":2541:2547  _owner */\n  0x00\n  dup1\n    /* \"@openzeppelin/contracts/access/Ownable.sol\":2541:2558  _owner = newOwner */\n  0x0100\n  exp\n  dup2\n  sload\n  dup2\n  0xffffffffffffffffffffffffffffffffffffffff\n  mul\n  not\n  and\n  swap1\n  dup4\n  0xffffffffffffffffffffffffffffffffffffffff\n  and\n  mul\n  or\n  swap1\n  sstore\n  pop\n    /* \"@openzeppelin/contracts/access/Ownable.sol\":2604:2612  newOwner */\n  dup2\n    /* \"@openzeppelin/contracts/access/Ownable.sol\":2573:2613  OwnershipTransferred(oldOwner, newOwner) */\n  0xffffffffffffffffffffffffffffffffffffffff\n  and\n    /* \"@openzeppelin/contracts/access/Ownable.sol\":2594:2602  oldOwner */\n  dup2\n    /* \"@openzeppelin/contracts/access/Ownable.sol\":2573:2613  OwnershipTransferred(oldOwner, newOwner) */\n  0xffffffffffffffffffffffffffffffffffffffff\n  and\n  0x8be0079c531659141344cd1fd0a4f28419497f9722a3daafe3b4186f6b6457e0\n  mload(0x40)\n  mload(0x40)\n  dup1\n  swap2\n  sub\n  swap1\n  log3\n    /* \"@openzeppelin/contracts/access/Ownable.sol\":2496:2620  {... */\n  pop\n    /* \"@openzeppelin/contracts/access/Ownable.sol\":2433:2620  function _transferOwnership(address newOwner) internal virtual {... */\n  pop\n  jump\t// out\n    /* \"contracts/libs/LibSwap.sol\":592:795  function calcAmountOfAsset(... */\ntag_15:\n    /* \"contracts/libs/LibSwap.sol\":722:729  uint256 */\n  0x00\n    /* \"contracts/libs/LibSwap.sol\":744:790  _sellerDeposit.div(_initial.sub(_liquidation)) */\n  tag_28\n    /* \"contracts/libs/LibSwap.sol\":763:789  _initial.sub(_liquidation) */\n  tag_29\n    /* \"contracts/libs/LibSwap.sol\":776:788  _liquidation */\n  dup5\n    /* \"contracts/libs/LibSwap.sol\":763:771  _initial */\n  dup7\n    /* \"contracts/libs/LibSwap.sol\":763:775  _initial.sub */\n  or(tag_0_121, shl(0x20, tag_30))\n  swap1\n    /* \"contracts/libs/LibSwap.sol\":763:789  _initial.sub(_liquidation) */\n  swap2\n  swap1\n  0x20\n  shr\n  jump\t// in\ntag_29:\n    /* \"contracts/libs/LibSwap.sol\":744:758  _sellerDeposit */\n  dup4\n    /* \"contracts/libs/LibSwap.sol\":744:762  _sellerDeposit.div */\n  or(tag_0_122, shl(0x20, tag_31))\n  swap1\n    /* \"contracts/libs/LibSwap.sol\":744:790  _sellerDeposit.div(_initial.sub(_liquidation)) */\n  swap2\n  swap1\n  0x20\n  shr\n  jump\t// in\ntag_28:\n    /* \"contracts/libs/LibSwap.sol\":737:790  return _sellerDeposit.div(_initial.sub(_liquidation)) */\n  swap1\n  pop\n    /* \"contracts/libs/LibSwap.sol\":592:795  function calcAmountOfAsset(... */\n  swap4\n  swap3\n  pop\n  pop\n  pop\n  jump\t// out\n    /* \"@openzeppelin/contracts/utils/math/SafeMath.sol\":3122:3218  function sub(uint256 a, uint256 b) internal pure returns (uint256) {... */\ntag_30:\n    /* \"@openzeppelin/contracts/utils/math/SafeMath.sol\":3180:3187  uint256 */\n  0x00\n    /* \"@openzeppelin/contracts/utils/math/SafeMath.sol\":3210:3211  b */\n  dup2\n    /* \"@openzeppelin/contracts/utils/math/SafeMath.sol\":3206:3207  a */\n  dup4\n    /* \"@openzeppelin/contracts/utils/math/SafeMath.sol\":3206:3211  a - b */\n  tag_33\n  swap2\n  swap1\n  tag_34\n  jump\t// in\ntag_33:\n    /* \"@openzeppelin/contracts/utils/math/SafeMath.sol\":3199:3211  return a - b */\n  swap1\n  pop\n    /* \"@openzeppelin/contracts/utils/math/SafeMath.sol\":3122:3218  function sub(uint256 a, uint256 b) internal pure returns (uint256) {... */\n  swap3\n  swap2\n  pop\n  pop\n  jump\t// out\n    /* \"@openzeppelin/contracts/utils/math/SafeMath.sol\":3850:3946  function div(uint256 a, uint256 b) internal pure returns (uint256) {... */\ntag_31:\n    /* \"@openzeppelin/contracts/utils/math/SafeMath.sol\":3908:3915  uint256 */\n  0x00\n    /* \"@openzeppelin/contracts/utils/math/SafeMath.sol\":3938:3939  b */\n  dup2\n    /* \"@openzeppelin/contracts/utils/math/SafeMath.sol\":3934:3935  a */\n  dup4\n    /* \"@openzeppelin/contracts/utils/math/SafeMath.sol\":3934:3939  a / b */\n  tag_36\n  swap2\n  swap1\n  tag_37\n  jump\t// in\ntag_36:\n    /* \"@openzeppelin/contracts/utils/math/SafeMath.sol\":3927:3939  return a / b */\n  swap1\n  pop\n    /* \"@openzeppelin/contracts/utils/math/SafeMath.sol\":3850:3946  function div(uint256 a, uint256 b) internal pure returns (uint256) {... */\n  swap3\n  swap2\n  pop\n  pop\n  jump\t// out\n    /* \"#utility.yul\":7:150   */\ntag_39:\n    /* \"#utility.yul\":64:69   */\n  0x00\n    /* \"#utility.yul\":95:101   */\n  dup2\n    /* \"#utility.yul\":89:102   */\n  mload\n    /* \"#utility.yul\":80:102   */\n  swap1\n  pop\n    /* \"#utility.yul\":111:144   */\n  tag_41\n    /* \"#utility.yul\":138:143   */\n  dup2\n    /* \"#utility.yul\":111:144   */\n  tag_42\n  jump\t// in\ntag_41:\n    /* \"#utility.yul\":7:150   */\n  swap3\n  swap2\n  pop\n  pop\n  jump\t// out\n    /* \"#utility.yul\":156:297   */\ntag_43:\n    /* \"#utility.yul\":212:217   */\n  0x00\n    /* \"#utility.yul\":243:249   */\n  dup2\n    /* \"#utility.yul\":237:250   */\n  mload\n    /* \"#utility.yul\":228:250   */\n  swap1\n  pop\n    /* \"#utility.yul\":259:291   */\n  tag_45\n    /* \"#utility.yul\":285:290   */\n  dup2\n    /* \"#utility.yul\":259:291   */\n  tag_46\n  jump\t// in\ntag_45:\n    /* \"#utility.yul\":156:297   */\n  swap3\n  swap2\n  pop\n  pop\n  jump\t// out\n    /* \"#utility.yul\":303:1590   */\ntag_3:\n    /* \"#utility.yul\":425:431   */\n  0x00\n    /* \"#utility.yul\":433:439   */\n  dup1\n    /* \"#utility.yul\":441:447   */\n  0x00\n    /* \"#utility.yul\":449:455   */\n  dup1\n    /* \"#utility.yul\":457:463   */\n  0x00\n    /* \"#utility.yul\":465:471   */\n  dup1\n    /* \"#utility.yul\":473:479   */\n  0x00\n    /* \"#utility.yul\":522:525   */\n  0xe0\n    /* \"#utility.yul\":510:519   */\n  dup9\n    /* \"#utility.yul\":501:508   */\n  dup11\n    /* \"#utility.yul\":497:520   */\n  sub\n    /* \"#utility.yul\":493:526   */\n  slt\n    /* \"#utility.yul\":490:610   */\n  iszero\n  tag_48\n  jumpi\n    /* \"#utility.yul\":529:608   */\n  tag_49\n  tag_50\n  jump\t// in\ntag_49:\n    /* \"#utility.yul\":490:610   */\ntag_48:\n    /* \"#utility.yul\":649:650   */\n  0x00\n    /* \"#utility.yul\":674:738   */\n  tag_51\n    /* \"#utility.yul\":730:737   */\n  dup11\n    /* \"#utility.yul\":721:727   */\n  dup3\n    /* \"#utility.yul\":710:719   */\n  dup12\n    /* \"#utility.yul\":706:728   */\n  add\n    /* \"#utility.yul\":674:738   */\n  tag_39\n  jump\t// in\ntag_51:\n    /* \"#utility.yul\":664:738   */\n  swap8\n  pop\n    /* \"#utility.yul\":620:748   */\n  pop\n    /* \"#utility.yul\":787:789   */\n  0x20\n    /* \"#utility.yul\":813:877   */\n  tag_52\n    /* \"#utility.yul\":869:876   */\n  dup11\n    /* \"#utility.yul\":860:866   */\n  dup3\n    /* \"#utility.yul\":849:858   */\n  dup12\n    /* \"#utility.yul\":845:867   */\n  add\n    /* \"#utility.yul\":813:877   */\n  tag_39\n  jump\t// in\ntag_52:\n    /* \"#utility.yul\":803:877   */\n  swap7\n  pop\n    /* \"#utility.yul\":758:887   */\n  pop\n    /* \"#utility.yul\":926:928   */\n  0x40\n    /* \"#utility.yul\":952:1016   */\n  tag_53\n    /* \"#utility.yul\":1008:1015   */\n  dup11\n    /* \"#utility.yul\":999:1005   */\n  dup3\n    /* \"#utility.yul\":988:997   */\n  dup12\n    /* \"#utility.yul\":984:1006   */\n  add\n    /* \"#utility.yul\":952:1016   */\n  tag_39\n  jump\t// in\ntag_53:\n    /* \"#utility.yul\":942:1016   */\n  swap6\n  pop\n    /* \"#utility.yul\":897:1026   */\n  pop\n    /* \"#utility.yul\":1065:1067   */\n  0x60\n    /* \"#utility.yul\":1091:1155   */\n  tag_54\n    /* \"#utility.yul\":1147:1154   */\n  dup11\n    /* \"#utility.yul\":1138:1144   */\n  dup3\n    /* \"#utility.yul\":1127:1136   */\n  dup12\n    /* \"#utility.yul\":1123:1145   */\n  add\n    /* \"#utility.yul\":1091:1155   */\n  tag_39\n  jump\t// in\ntag_54:\n    /* \"#utility.yul\":1081:1155   */\n  swap5\n  pop\n    /* \"#utility.yul\":1036:1165   */\n  pop\n    /* \"#utility.yul\":1204:1207   */\n  0x80\n    /* \"#utility.yul\":1231:1295   */\n  tag_55\n    /* \"#utility.yul\":1287:1294   */\n  dup11\n    /* \"#utility.yul\":1278:1284   */\n  dup3\n    /* \"#utility.yul\":1267:1276   */\n  dup12\n    /* \"#utility.yul\":1263:1285   */\n  add\n    /* \"#utility.yul\":1231:1295   */\n  tag_39\n  jump\t// in\ntag_55:\n    /* \"#utility.yul\":1221:1295   */\n  swap4\n  pop\n    /* \"#utility.yul\":1175:1305   */\n  pop\n    /* \"#utility.yul\":1344:1347   */\n  0xa0\n    /* \"#utility.yul\":1371:1434   */\n  tag_56\n    /* \"#utility.yul\":1426:1433   */\n  dup11\n    /* \"#utility.yul\":1417:1423   */\n  dup3\n    /* \"#utility.yul\":1406:1415   */\n  dup12\n    /* \"#utility.yul\":1402:1424   */\n  add\n    /* \"#utility.yul\":1371:1434   */\n  tag_43\n  jump\t// in\ntag_56:\n    /* \"#utility.yul\":1361:1434   */\n  swap3\n  pop\n    /* \"#utility.yul\":1315:1444   */\n  pop\n    /* \"#utility.yul\":1483:1486   */\n  0xc0\n    /* \"#utility.yul\":1510:1573   */\n  tag_57\n    /* \"#utility.yul\":1565:1572   */\n  dup11\n    /* \"#utility.yul\":1556:1562   */\n  dup3\n    /* \"#utility.yul\":1545:1554   */\n  dup12\n    /* \"#utility.yul\":1541:1563   */\n  add\n    /* \"#utility.yul\":1510:1573   */\n  tag_43\n  jump\t// in\ntag_57:\n    /* \"#utility.yul\":1500:1573   */\n  swap2\n  pop\n    /* \"#utility.yul\":1454:1583   */\n  pop\n    /* \"#utility.yul\":303:1590   */\n  swap3\n  swap6\n  swap9\n  swap2\n  swap5\n  swap8\n  pop\n  swap3\n  swap6\n  pop\n  jump\t// out\n    /* \"#utility.yul\":1596:1962   */\ntag_58:\n    /* \"#utility.yul\":1738:1741   */\n  0x00\n    /* \"#utility.yul\":1759:1826   */\n  tag_60\n    /* \"#utility.yul\":1823:1825   */\n  0x14\n    /* \"#utility.yul\":1818:1821   */\n  dup4\n    /* \"#utility.yul\":1759:1826   */\n  tag_61\n  jump\t// in\ntag_60:\n    /* \"#utility.yul\":1752:1826   */\n  swap2\n  pop\n    /* \"#utility.yul\":1835:1928   */\n  tag_62\n    /* \"#utility.yul\":1924:1927   */\n  dup3\n    /* \"#utility.yul\":1835:1928   */\n  tag_63\n  jump\t// in\ntag_62:\n    /* \"#utility.yul\":1953:1955   */\n  0x20\n    /* \"#utility.yul\":1948:1951   */\n  dup3\n    /* \"#utility.yul\":1944:1956   */\n  add\n    /* \"#utility.yul\":1937:1956   */\n  swap1\n  pop\n    /* \"#utility.yul\":1596:1962   */\n  swap2\n  swap1\n  pop\n  jump\t// out\n    /* \"#utility.yul\":1968:2387   */\ntag_20:\n    /* \"#utility.yul\":2134:2138   */\n  0x00\n    /* \"#utility.yul\":2172:2174   */\n  0x20\n    /* \"#utility.yul\":2161:2170   */\n  dup3\n    /* \"#utility.yul\":2157:2175   */\n  add\n    /* \"#utility.yul\":2149:2175   */\n  swap1\n  pop\n    /* \"#utility.yul\":2221:2230   */\n  dup2\n    /* \"#utility.yul\":2215:2219   */\n  dup2\n    /* \"#utility.yul\":2211:2231   */\n  sub\n    /* \"#utility.yul\":2207:2208   */\n  0x00\n    /* \"#utility.yul\":2196:2205   */\n  dup4\n    /* \"#utility.yul\":2192:2209   */\n  add\n    /* \"#utility.yul\":2185:2232   */\n  mstore\n    /* \"#utility.yul\":2249:2380   */\n  tag_65\n    /* \"#utility.yul\":2375:2379   */\n  dup2\n    /* \"#utility.yul\":2249:2380   */\n  tag_58\n  jump\t// in\ntag_65:\n    /* \"#utility.yul\":2241:2380   */\n  swap1\n  pop\n    /* \"#utility.yul\":1968:2387   */\n  swap2\n  swap1\n  pop\n  jump\t// out\n    /* \"#utility.yul\":2474:2643   */\ntag_61:\n    /* \"#utility.yul\":2558:2569   */\n  0x00\n    /* \"#utility.yul\":2592:2598   */\n  dup3\n    /* \"#utility.yul\":2587:2590   */\n  dup3\n    /* \"#utility.yul\":2580:2599   */\n  mstore\n    /* \"#utility.yul\":2632:2636   */\n  0x20\n    /* \"#utility.yul\":2627:2630   */\n  dup3\n    /* \"#utility.yul\":2623:2637   */\n  add\n    /* \"#utility.yul\":2608:2637   */\n  swap1\n  pop\n    /* \"#utility.yul\":2474:2643   */\n  swap3\n  swap2\n  pop\n  pop\n  jump\t// out\n    /* \"#utility.yul\":2649:2834   */\ntag_37:\n    /* \"#utility.yul\":2689:2690   */\n  0x00\n    /* \"#utility.yul\":2706:2726   */\n  tag_70\n    /* \"#utility.yul\":2724:2725   */\n  dup3\n    /* \"#utility.yul\":2706:2726   */\n  tag_71\n  jump\t// in\ntag_70:\n    /* \"#utility.yul\":2701:2726   */\n  swap2\n  pop\n    /* \"#utility.yul\":2740:2760   */\n  tag_72\n    /* \"#utility.yul\":2758:2759   */\n  dup4\n    /* \"#utility.yul\":2740:2760   */\n  tag_71\n  jump\t// in\ntag_72:\n    /* \"#utility.yul\":2735:2760   */\n  swap3\n  pop\n    /* \"#utility.yul\":2779:2780   */\n  dup3\n    /* \"#utility.yul\":2769:2804   */\n  tag_73\n  jumpi\n    /* \"#utility.yul\":2784:2802   */\n  tag_74\n  tag_75\n  jump\t// in\ntag_74:\n    /* \"#utility.yul\":2769:2804   */\ntag_73:\n    /* \"#utility.yul\":2826:2827   */\n  dup3\n    /* \"#utility.yul\":2823:2824   */\n  dup3\n    /* \"#utility.yul\":2819:2828   */\n  div\n    /* \"#utility.yul\":2814:2828   */\n  swap1\n  pop\n    /* \"#utility.yul\":2649:2834   */\n  swap3\n  swap2\n  pop\n  pop\n  jump\t// out\n    /* \"#utility.yul\":2840:3031   */\ntag_34:\n    /* \"#utility.yul\":2880:2884   */\n  0x00\n    /* \"#utility.yul\":2900:2920   */\n  tag_77\n    /* \"#utility.yul\":2918:2919   */\n  dup3\n    /* \"#utility.yul\":2900:2920   */\n  tag_71\n  jump\t// in\ntag_77:\n    /* \"#utility.yul\":2895:2920   */\n  swap2\n  pop\n    /* \"#utility.yul\":2934:2954   */\n  tag_78\n    /* \"#utility.yul\":2952:2953   */\n  dup4\n    /* \"#utility.yul\":2934:2954   */\n  tag_71\n  jump\t// in\ntag_78:\n    /* \"#utility.yul\":2929:2954   */\n  swap3\n  pop\n    /* \"#utility.yul\":2973:2974   */\n  dup3\n    /* \"#utility.yul\":2970:2971   */\n  dup3\n    /* \"#utility.yul\":2967:2975   */\n  lt\n    /* \"#utility.yul\":2964:2998   */\n  iszero\n  tag_79\n  jumpi\n    /* \"#utility.yul\":2978:2996   */\n  tag_80\n  tag_81\n  jump\t// in\ntag_80:\n    /* \"#utility.yul\":2964:2998   */\ntag_79:\n    /* \"#utility.yul\":3023:3024   */\n  dup3\n    /* \"#utility.yul\":3020:3021   */\n  dup3\n    /* \"#utility.yul\":3016:3025   */\n  sub\n    /* \"#utility.yul\":3008:3025   */\n  swap1\n  pop\n    /* \"#utility.yul\":2840:3031   */\n  swap3\n  swap2\n  pop\n  pop\n  jump\t// out\n    /* \"#utility.yul\":3037:3114   */\ntag_71:\n    /* \"#utility.yul\":3074:3081   */\n  0x00\n    /* \"#utility.yul\":3103:3108   */\n  dup2\n    /* \"#utility.yul\":3092:3108   */\n  swap1\n  pop\n    /* \"#utility.yul\":3037:3114   */\n  swap2\n  swap1\n  pop\n  jump\t// out\n    /* \"#utility.yul\":3120:3213   */\ntag_83:\n    /* \"#utility.yul\":3156:3163   */\n  0x00\n    /* \"#utility.yul\":3196:3206   */\n  0xffffffff\n    /* \"#utility.yul\":3189:3194   */\n  dup3\n    /* \"#utility.yul\":3185:3207   */\n  and\n    /* \"#utility.yul\":3174:3207   */\n  swap1\n  pop\n    /* \"#utility.yul\":3120:3213   */\n  swap2\n  swap1\n  pop\n  jump\t// out\n    /* \"#utility.yul\":3219:3399   */\ntag_81:\n    /* \"#utility.yul\":3267:3344   */\n  0x4e487b7100000000000000000000000000000000000000000000000000000000\n    /* \"#utility.yul\":3264:3265   */\n  0x00\n    /* \"#utility.yul\":3257:3345   */\n  mstore\n    /* \"#utility.yul\":3364:3368   */\n  0x11\n    /* \"#utility.yul\":3361:3362   */\n  0x04\n    /* \"#utility.yul\":3354:3369   */\n  mstore\n    /* \"#utility.yul\":3388:3392   */\n  0x24\n    /* \"#utility.yul\":3385:3386   */\n  0x00\n    /* \"#utility.yul\":3378:3393   */\n  revert\n    /* \"#utility.yul\":3405:3585   */\ntag_75:\n    /* \"#utility.yul\":3453:3530   */\n  0x4e487b7100000000000000000000000000000000000000000000000000000000\n    /* \"#utility.yul\":3450:3451   */\n  0x00\n    /* \"#utility.yul\":3443:3531   */\n  mstore\n    /* \"#utility.yul\":3550:3554   */\n  0x12\n    /* \"#utility.yul\":3547:3548   */\n  0x04\n    /* \"#utility.yul\":3540:3555   */\n  mstore\n    /* \"#utility.yul\":3574:3578   */\n  0x24\n    /* \"#utility.yul\":3571:3572   */\n  0x00\n    /* \"#utility.yul\":3564:3579   */\n  revert\n    /* \"#utility.yul\":3591:3771   */\ntag_23:\n    /* \"#utility.yul\":3639:3716   */\n  0x4e487b7100000000000000000000000000000000000000000000000000000000\n    /* \"#utility.yul\":3636:3637   */\n  0x00\n    /* \"#utility.yul\":3629:3717   */\n  mstore\n    /* \"#utility.yul\":3736:3740   */\n  0x21\n    /* \"#utility.yul\":3733:3734   */\n  0x04\n    /* \"#utility.yul\":3726:3741   */\n  mstore\n    /* \"#utility.yul\":3760:3764   */\n  0x24\n    /* \"#utility.yul\":3757:3758   */\n  0x00\n    /* \"#utility.yul\":3750:3765   */\n  revert\n    /* \"#utility.yul\":3900:4017   */\ntag_50:\n    /* \"#utility.yul\":4009:4010   */\n  0x00\n    /* \"#utility.yul\":4006:4007   */\n  dup1\n    /* \"#utility.yul\":3999:4011   */\n  revert\n    /* \"#utility.yul\":4023:4193   */\ntag_63:\n    /* \"#utility.yul\":4163:4185   */\n  0x4254433a302c204554483a312c204c494e4b3a32000000000000000000000000\n    /* \"#utility.yul\":4159:4160   */\n  0x00\n    /* \"#utility.yul\":4151:4157   */\n  dup3\n    /* \"#utility.yul\":4147:4161   */\n  add\n    /* \"#utility.yul\":4140:4186   */\n  mstore\n    /* \"#utility.yul\":4023:4193   */\n  pop\n  jump\t// out\n    /* \"#utility.yul\":4199:4321   */\ntag_42:\n    /* \"#utility.yul\":4272:4296   */\n  tag_93\n    /* \"#utility.yul\":4290:4295   */\n  dup2\n    /* \"#utility.yul\":4272:4296   */\n  tag_71\n  jump\t// in\ntag_93:\n    /* \"#utility.yul\":4265:4270   */\n  dup2\n    /* \"#utility.yul\":4262:4297   */\n  eq\n    /* \"#utility.yul\":4252:4315   */\n  tag_94\n  jumpi\n    /* \"#utility.yul\":4311:4312   */\n  0x00\n    /* \"#utility.yul\":4308:4309   */\n  dup1\n    /* \"#utility.yul\":4301:4313   */\n  revert\n    /* \"#utility.yul\":4252:4315   */\ntag_94:\n    /* \"#utility.yul\":4199:4321   */\n  pop\n  jump\t// out\n    /* \"#utility.yul\":4327:4447   */\ntag_46:\n    /* \"#utility.yul\":4399:4422   */\n  tag_96\n    /* \"#utility.yul\":4416:4421   */\n  dup2\n    /* \"#utility.yul\":4399:4422   */\n  tag_83\n  jump\t// in\ntag_96:\n    /* \"#utility.yul\":4392:4397   */\n  dup2\n    /* \"#utility.yul\":4389:4423   */\n  eq\n    /* \"#utility.yul\":4379:4441   */\n  tag_97\n  jumpi\n    /* \"#utility.yul\":4437:4438   */\n  0x00\n    /* \"#utility.yul\":4434:4435   */\n  dup1\n    /* \"#utility.yul\":4427:4439   */\n  revert\n    /* \"#utility.yul\":4379:4441   */\ntag_97:\n    /* \"#utility.yul\":4327:4447   */\n  pop\n  jump\t// out\n    /* \"contracts/Swap/Swap.sol\":235:3087  contract Swap is Ownable, PriceConsumerGoerli {... */\ntag_24:\n  dataSize(sub_0)\n  dup1\n  dataOffset(sub_0)\n  0x00\n  codecopy\n  0x00\n  return\nstop\n\nsub_0: assembly {\n        /* \"contracts/Swap/Swap.sol\":235:3087  contract Swap is Ownable, PriceConsumerGoerli {... */\n      mstore(0x40, 0x80)\n      callvalue\n      dup1\n      iszero\n      tag_1\n      jumpi\n      0x00\n      dup1\n      revert\n    tag_1:\n      pop\n      jumpi(tag_2, lt(calldatasize, 0x04))\n      shr(0xe0, calldataload(0x00))\n      dup1\n      0xa2e800ad\n      gt\n      tag_28\n      jumpi\n      dup1\n      0xd2895e93\n      gt\n      tag_29\n      jumpi\n      dup1\n      0xe0a73a93\n      gt\n      tag_30\n      jumpi\n      dup1\n      0xe0a73a93\n      eq\n      tag_24\n      jumpi\n      dup1\n      0xe99d2866\n      eq\n      tag_25\n      jumpi\n      dup1\n      0xf26cc58e\n      eq\n      tag_26\n      jumpi\n      dup1\n      0xf2fde38b\n      eq\n      tag_27\n      jumpi\n      jump(tag_2)\n    tag_30:\n      dup1\n      0xd2895e93\n      eq\n      tag_21\n      jumpi\n      dup1\n      0xdbd0e1b6\n      eq\n      tag_22\n      jumpi\n      dup1\n      0xdd22db80\n      eq\n      tag_23\n      jumpi\n      jump(tag_2)\n    tag_29:\n      dup1\n      0xa2e800ad\n      eq\n      tag_15\n      jumpi\n      dup1\n      0xa3f09ad6\n      eq\n      tag_16\n      jumpi\n      dup1\n      0xa607a8d9\n      eq\n      tag_17\n      jumpi\n      dup1\n      0xb6fc2d5f\n      eq\n      tag_18\n      jumpi\n      dup1\n      0xbd9a548b\n      eq\n      tag_19\n      jumpi\n      dup1\n      0xbef904e3\n      eq\n      tag_20\n      jumpi\n      jump(tag_2)\n    tag_28:\n      dup1\n      0x603daf9a\n      gt\n      tag_31\n      jumpi\n      dup1\n      0x603daf9a\n      eq\n      tag_9\n      jumpi\n      dup1\n      0x715018a6\n      eq\n      tag_10\n      jumpi\n      dup1\n      0x762db7ee\n      eq\n      tag_11\n      jumpi\n      dup1\n      0x86be75b7\n      eq\n      tag_12\n      jumpi\n      dup1\n      0x8a568299\n      eq\n      tag_13\n      jumpi\n      dup1\n      0x8da5cb5b\n      eq\n      tag_14\n      jumpi\n      jump(tag_2)\n    tag_31:\n      dup1\n      0x15d655c9\n      eq\n      tag_3\n      jumpi\n      dup1\n      0x200d2ed2\n      eq\n      tag_4\n      jumpi\n      dup1\n      0x2dddd49c\n      eq\n      tag_5\n      jumpi\n      dup1\n      0x2e49d78b\n      eq\n      tag_6\n      jumpi\n      dup1\n      0x3fe3347a\n      eq\n      tag_7\n      jumpi\n      dup1\n      0x4c1786ea\n      eq\n      tag_8\n      jumpi\n    tag_2:\n      0x00\n      dup1\n      revert\n        /* \"contracts/Swap/Swap.sol\":487:512  uint256 public claimPrice */\n    tag_3:\n      tag_32\n      tag_33\n      jump\t// in\n    tag_32:\n      mload(0x40)\n      tag_34\n      swap2\n      swap1\n      tag_35\n      jump\t// in\n    tag_34:\n      mload(0x40)\n      dup1\n      swap2\n      sub\n      swap1\n      return\n        /* \"contracts/Swap/Swap.sol\":429:449  Status public status */\n    tag_4:\n      tag_36\n      tag_37\n      jump\t// in\n    tag_36:\n      mload(0x40)\n      tag_38\n      swap2\n      swap1\n      tag_39\n      jump\t// in\n    tag_38:\n      mload(0x40)\n      dup1\n      swap2\n      sub\n      swap1\n      return\n        /* \"contracts/Swap/PriceConsumerGoerli.sol\":896:1041  function getLinkPrice() public view returns (uint256) {... */\n    tag_5:\n      tag_40\n      tag_41\n      jump\t// in\n    tag_40:\n      mload(0x40)\n      tag_42\n      swap2\n      swap1\n      tag_35\n      jump\t// in\n    tag_42:\n      mload(0x40)\n      dup1\n      swap2\n      sub\n      swap1\n      return\n        /* \"contracts/Swap/Swap.sol\":2299:2414  function setStatus(Status _status) public onlyOwner returns (Status) {... */\n    tag_6:\n      tag_43\n      0x04\n      dup1\n      calldatasize\n      sub\n      dup2\n      add\n      swap1\n      tag_44\n      swap2\n      swap1\n      tag_45\n      jump\t// in\n    tag_44:\n      tag_46\n      jump\t// in\n    tag_43:\n      mload(0x40)\n      tag_47\n      swap2\n      swap1\n      tag_39\n      jump\t// in\n    tag_47:\n      mload(0x40)\n      dup1\n      swap2\n      sub\n      swap1\n      return\n        /* \"contracts/Swap/Swap.sol\":745:768  uint32 public assetType */\n    tag_7:\n      tag_48\n      tag_49\n      jump\t// in\n    tag_48:\n      mload(0x40)\n      tag_50\n      swap2\n      swap1\n      tag_51\n      jump\t// in\n    tag_50:\n      mload(0x40)\n      dup1\n      swap2\n      sub\n      swap1\n      return\n        /* \"contracts/Swap/Swap.sol\":577:605  uint256 public sellerDeposit */\n    tag_8:\n      tag_52\n      tag_53\n      jump\t// in\n    tag_52:\n      mload(0x40)\n      tag_54\n      swap2\n      swap1\n      tag_35\n      jump\t// in\n    tag_54:\n      mload(0x40)\n      dup1\n      swap2\n      sub\n      swap1\n      return\n        /* \"contracts/Swap/Swap.sol\":1706:1779  function getBuyer() public view returns (address) {... */\n    tag_9:\n      tag_55\n      tag_56\n      jump\t// in\n    tag_55:\n      mload(0x40)\n      tag_57\n      swap2\n      swap1\n      tag_58\n      jump\t// in\n    tag_57:\n      mload(0x40)\n      dup1\n      swap2\n      sub\n      swap1\n      return\n        /* \"@openzeppelin/contracts/access/Ownable.sol\":1831:1932  function renounceOwnership() public virtual onlyOwner {... */\n    tag_10:\n      tag_59\n      tag_60\n      jump\t// in\n    tag_59:\n      stop\n        /* \"contracts/Swap/Swap.sol\":609:637  uint256 public amountOfAsset */\n    tag_11:\n      tag_61\n      tag_62\n      jump\t// in\n    tag_61:\n      mload(0x40)\n      tag_63\n      swap2\n      swap1\n      tag_35\n      jump\t// in\n    tag_63:\n      mload(0x40)\n      dup1\n      swap2\n      sub\n      swap1\n      return\n        /* \"contracts/Swap/Swap.sol\":454:483  uint256 public initAssetPrice */\n    tag_12:\n      tag_64\n      tag_65\n      jump\t// in\n    tag_64:\n      mload(0x40)\n      tag_66\n      swap2\n      swap1\n      tag_35\n      jump\t// in\n    tag_66:\n      mload(0x40)\n      dup1\n      swap2\n      sub\n      swap1\n      return\n        /* \"contracts/Swap/Swap.sol\":716:741  uint32 public totalRounds */\n    tag_13:\n      tag_67\n      tag_68\n      jump\t// in\n    tag_67:\n      mload(0x40)\n      tag_69\n      swap2\n      swap1\n      tag_51\n      jump\t// in\n    tag_69:\n      mload(0x40)\n      dup1\n      swap2\n      sub\n      swap1\n      return\n        /* \"@openzeppelin/contracts/access/Ownable.sol\":1201:1286  function owner() public view virtual returns (address) {... */\n    tag_14:\n      tag_70\n      tag_71\n      jump\t// in\n    tag_70:\n      mload(0x40)\n      tag_72\n      swap2\n      swap1\n      tag_58\n      jump\t// in\n    tag_72:\n      mload(0x40)\n      dup1\n      swap2\n      sub\n      swap1\n      return\n        /* \"contracts/Swap/Swap.sol\":692:712  uint32 public rounds */\n    tag_15:\n      tag_73\n      tag_74\n      jump\t// in\n    tag_73:\n      mload(0x40)\n      tag_75\n      swap2\n      swap1\n      tag_51\n      jump\t// in\n    tag_75:\n      mload(0x40)\n      dup1\n      swap2\n      sub\n      swap1\n      return\n        /* \"contracts/Swap/Swap.sol\":2418:2530  function setBuyer(address _buyer) public onlyOwner returns (address) {... */\n    tag_16:\n      tag_76\n      0x04\n      dup1\n      calldatasize\n      sub\n      dup2\n      add\n      swap1\n      tag_77\n      swap2\n      swap1\n      tag_78\n      jump\t// in\n    tag_77:\n      tag_79\n      jump\t// in\n    tag_76:\n      mload(0x40)\n      tag_80\n      swap2\n      swap1\n      tag_58\n      jump\t// in\n    tag_80:\n      mload(0x40)\n      dup1\n      swap2\n      sub\n      swap1\n      return\n        /* \"contracts/Swap/PriceConsumerGoerli.sol\":748:892  function getETHPrice() public view returns (uint256) {... */\n    tag_17:\n      tag_81\n      tag_82\n      jump\t// in\n    tag_81:\n      mload(0x40)\n      tag_83\n      swap2\n      swap1\n      tag_35\n      jump\t// in\n    tag_83:\n      mload(0x40)\n      dup1\n      swap2\n      sub\n      swap1\n      return\n        /* \"contracts/Swap/Swap.sol\":516:547  uint256 public liquidationPrice */\n    tag_18:\n      tag_84\n      tag_85\n      jump\t// in\n    tag_84:\n      mload(0x40)\n      tag_86\n      swap2\n      swap1\n      tag_35\n      jump\t// in\n    tag_86:\n      mload(0x40)\n      dup1\n      swap2\n      sub\n      swap1\n      return\n        /* \"contracts/Swap/Swap.sol\":1517:1702  function getPrices() public view returns (uint256[5] memory) {... */\n    tag_19:\n      tag_87\n      tag_88\n      jump\t// in\n    tag_87:\n      mload(0x40)\n      tag_89\n      swap2\n      swap1\n      tag_90\n      jump\t// in\n    tag_89:\n      mload(0x40)\n      dup1\n      swap2\n      sub\n      swap1\n      return\n        /* \"contracts/Swap/Swap.sol\":2148:2295  function setInitAssetPrice(uint256 _initAssetPrice) public returns (uint256) {... */\n    tag_20:\n      tag_91\n      0x04\n      dup1\n      calldatasize\n      sub\n      dup2\n      add\n      swap1\n      tag_92\n      swap2\n      swap1\n      tag_93\n      jump\t// in\n    tag_92:\n      tag_94\n      jump\t// in\n    tag_91:\n      mload(0x40)\n      tag_95\n      swap2\n      swap1\n      tag_35\n      jump\t// in\n    tag_95:\n      mload(0x40)\n      dup1\n      swap2\n      sub\n      swap1\n      return\n        /* \"contracts/Swap/Swap.sol\":2655:2770  function setRounds(uint32 _rounds) public onlyOwner returns (uint32) {... */\n    tag_21:\n      tag_96\n      0x04\n      dup1\n      calldatasize\n      sub\n      dup2\n      add\n      swap1\n      tag_97\n      swap2\n      swap1\n      tag_98\n      jump\t// in\n    tag_97:\n      tag_99\n      jump\t// in\n    tag_96:\n      mload(0x40)\n      tag_100\n      swap2\n      swap1\n      tag_51\n      jump\t// in\n    tag_100:\n      mload(0x40)\n      dup1\n      swap2\n      sub\n      swap1\n      return\n        /* \"contracts/Swap/Swap.sol\":1783:1858  function getSeller() public view returns (address) {... */\n    tag_22:\n      tag_101\n      tag_102\n      jump\t// in\n    tag_101:\n      mload(0x40)\n      tag_103\n      swap2\n      swap1\n      tag_58\n      jump\t// in\n    tag_103:\n      mload(0x40)\n      dup1\n      swap2\n      sub\n      swap1\n      return\n        /* \"contracts/Swap/PriceConsumerGoerli.sol\":600:744  function getBTCPrice() public view returns (uint256) {... */\n    tag_23:\n      tag_104\n      tag_105\n      jump\t// in\n    tag_104:\n      mload(0x40)\n      tag_106\n      swap2\n      swap1\n      tag_35\n      jump\t// in\n    tag_106:\n      mload(0x40)\n      dup1\n      swap2\n      sub\n      swap1\n      return\n        /* \"contracts/Swap/Swap.sol\":551:573  uint256 public premium */\n    tag_24:\n      tag_107\n      tag_108\n      jump\t// in\n    tag_107:\n      mload(0x40)\n      tag_109\n      swap2\n      swap1\n      tag_35\n      jump\t// in\n    tag_109:\n      mload(0x40)\n      dup1\n      swap2\n      sub\n      swap1\n      return\n        /* \"contracts/Swap/Swap.sol\":2534:2651  function setSeller(address _seller) public onlyOwner returns (address) {... */\n    tag_25:\n      tag_110\n      0x04\n      dup1\n      calldatasize\n      sub\n      dup2\n      add\n      swap1\n      tag_111\n      swap2\n      swap1\n      tag_78\n      jump\t// in\n    tag_111:\n      tag_112\n      jump\t// in\n    tag_110:\n      mload(0x40)\n      tag_113\n      swap2\n      swap1\n      tag_58\n      jump\t// in\n    tag_113:\n      mload(0x40)\n      dup1\n      swap2\n      sub\n      swap1\n      return\n        /* \"contracts/Swap/Swap.sol\":1862:2144  function getClaimReward() public view returns (uint256) {... */\n    tag_26:\n      tag_114\n      tag_115\n      jump\t// in\n    tag_114:\n      mload(0x40)\n      tag_116\n      swap2\n      swap1\n      tag_35\n      jump\t// in\n    tag_116:\n      mload(0x40)\n      dup1\n      swap2\n      sub\n      swap1\n      return\n        /* \"@openzeppelin/contracts/access/Ownable.sol\":2081:2279  function transferOwnership(address newOwner) public virtual onlyOwner {... */\n    tag_27:\n      tag_117\n      0x04\n      dup1\n      calldatasize\n      sub\n      dup2\n      add\n      swap1\n      tag_118\n      swap2\n      swap1\n      tag_78\n      jump\t// in\n    tag_118:\n      tag_119\n      jump\t// in\n    tag_117:\n      stop\n        /* \"contracts/Swap/Swap.sol\":487:512  uint256 public claimPrice */\n    tag_33:\n      sload(0x04)\n      dup2\n      jump\t// out\n        /* \"contracts/Swap/Swap.sol\":429:449  Status public status */\n    tag_37:\n      0x02\n      0x00\n      swap1\n      sload\n      swap1\n      0x0100\n      exp\n      swap1\n      div\n      0xff\n      and\n      dup2\n      jump\t// out\n        /* \"contracts/Swap/PriceConsumerGoerli.sol\":896:1041  function getLinkPrice() public view returns (uint256) {... */\n    tag_41:\n        /* \"contracts/Swap/PriceConsumerGoerli.sol\":941:948  uint256 */\n      0x00\n        /* \"contracts/Swap/PriceConsumerGoerli.sol\":959:968  int price */\n      dup1\n        /* \"contracts/Swap/PriceConsumerGoerli.sol\":978:990  _aggregators */\n      0x01\n        /* \"contracts/Swap/PriceConsumerGoerli.sol\":978:993  _aggregators[2] */\n      0x00\n        /* \"contracts/Swap/PriceConsumerGoerli.sol\":991:992  2 */\n      0x02\n        /* \"contracts/Swap/PriceConsumerGoerli.sol\":978:993  _aggregators[2] */\n      dup2\n      mstore\n      0x20\n      add\n      swap1\n      dup2\n      mstore\n      0x20\n      add\n      0x00\n      keccak256\n      0x00\n      swap1\n      sload\n      swap1\n      0x0100\n      exp\n      swap1\n      div\n      0xffffffffffffffffffffffffffffffffffffffff\n      and\n        /* \"contracts/Swap/PriceConsumerGoerli.sol\":978:1009  _aggregators[2].latestRoundData */\n      0xffffffffffffffffffffffffffffffffffffffff\n      and\n      0xfeaf968c\n        /* \"contracts/Swap/PriceConsumerGoerli.sol\":978:1011  _aggregators[2].latestRoundData() */\n      mload(0x40)\n      dup2\n      0xffffffff\n      and\n      0xe0\n      shl\n      dup2\n      mstore\n      0x04\n      add\n      0xa0\n      mload(0x40)\n      dup1\n      dup4\n      sub\n      dup2\n      dup7\n      dup1\n      extcodesize\n      iszero\n      dup1\n      iszero\n      tag_124\n      jumpi\n      0x00\n      dup1\n      revert\n    tag_124:\n      pop\n      gas\n      staticcall\n      iszero\n      dup1\n      iszero\n      tag_126\n      jumpi\n      returndatasize\n      0x00\n      dup1\n      returndatacopy\n      revert(0x00, returndatasize)\n    tag_126:\n      pop\n      pop\n      pop\n      pop\n      mload(0x40)\n      returndatasize\n      not(0x1f)\n      0x1f\n      dup3\n      add\n      and\n      dup3\n      add\n      dup1\n      0x40\n      mstore\n      pop\n      dup2\n      add\n      swap1\n      tag_127\n      swap2\n      swap1\n      tag_128\n      jump\t// in\n    tag_127:\n        /* \"contracts/Swap/PriceConsumerGoerli.sol\":956:1011  (, int price, , , ) = _aggregators[2].latestRoundData() */\n      pop\n      pop\n      pop\n      swap2\n      pop\n      pop\n        /* \"contracts/Swap/PriceConsumerGoerli.sol\":1030:1035  price */\n      dup1\n        /* \"contracts/Swap/PriceConsumerGoerli.sol\":1018:1036  return uint(price) */\n      swap2\n      pop\n      pop\n        /* \"contracts/Swap/PriceConsumerGoerli.sol\":896:1041  function getLinkPrice() public view returns (uint256) {... */\n      swap1\n      jump\t// out\n        /* \"contracts/Swap/Swap.sol\":2299:2414  function setStatus(Status _status) public onlyOwner returns (Status) {... */\n    tag_46:\n        /* \"contracts/Swap/Swap.sol\":2360:2366  Status */\n      0x00\n        /* \"@openzeppelin/contracts/access/Ownable.sol\":1094:1107  _checkOwner() */\n      tag_130\n        /* \"@openzeppelin/contracts/access/Ownable.sol\":1094:1105  _checkOwner */\n      tag_131\n        /* \"@openzeppelin/contracts/access/Ownable.sol\":1094:1107  _checkOwner() */\n      jump\t// in\n    tag_130:\n        /* \"contracts/Swap/Swap.sol\":2383:2390  _status */\n      dup2\n        /* \"contracts/Swap/Swap.sol\":2374:2380  status */\n      0x02\n      0x00\n        /* \"contracts/Swap/Swap.sol\":2374:2390  status = _status */\n      0x0100\n      exp\n      dup2\n      sload\n      dup2\n      0xff\n      mul\n      not\n      and\n      swap1\n      dup4\n      0x04\n      dup2\n      gt\n      iszero\n      tag_133\n      jumpi\n      tag_134\n      tag_135\n      jump\t// in\n    tag_134:\n    tag_133:\n      mul\n      or\n      swap1\n      sstore\n      pop\n        /* \"contracts/Swap/Swap.sol\":2403:2409  status */\n      0x02\n      0x00\n      swap1\n      sload\n      swap1\n      0x0100\n      exp\n      swap1\n      div\n      0xff\n      and\n        /* \"contracts/Swap/Swap.sol\":2396:2409  return status */\n      swap1\n      pop\n        /* \"contracts/Swap/Swap.sol\":2299:2414  function setStatus(Status _status) public onlyOwner returns (Status) {... */\n      swap2\n      swap1\n      pop\n      jump\t// out\n        /* \"contracts/Swap/Swap.sol\":745:768  uint32 public assetType */\n    tag_49:\n      0x0a\n      0x1c\n      swap1\n      sload\n      swap1\n      0x0100\n      exp\n      swap1\n      div\n      0xffffffff\n      and\n      dup2\n      jump\t// out\n        /* \"contracts/Swap/Swap.sol\":577:605  uint256 public sellerDeposit */\n    tag_53:\n      sload(0x07)\n      dup2\n      jump\t// out\n        /* \"contracts/Swap/Swap.sol\":1706:1779  function getBuyer() public view returns (address) {... */\n    tag_56:\n        /* \"contracts/Swap/Swap.sol\":1747:1754  address */\n      0x00\n        /* \"contracts/Swap/Swap.sol\":1769:1774  buyer */\n      0x09\n      0x00\n      swap1\n      sload\n      swap1\n      0x0100\n      exp\n      swap1\n      div\n      0xffffffffffffffffffffffffffffffffffffffff\n      and\n        /* \"contracts/Swap/Swap.sol\":1762:1774  return buyer */\n      swap1\n      pop\n        /* \"contracts/Swap/Swap.sol\":1706:1779  function getBuyer() public view returns (address) {... */\n      swap1\n      jump\t// out\n        /* \"@openzeppelin/contracts/access/Ownable.sol\":1831:1932  function renounceOwnership() public virtual onlyOwner {... */\n    tag_60:\n        /* \"@openzeppelin/contracts/access/Ownable.sol\":1094:1107  _checkOwner() */\n      tag_138\n        /* \"@openzeppelin/contracts/access/Ownable.sol\":1094:1105  _checkOwner */\n      tag_131\n        /* \"@openzeppelin/contracts/access/Ownable.sol\":1094:1107  _checkOwner() */\n      jump\t// in\n    tag_138:\n        /* \"@openzeppelin/contracts/access/Ownable.sol\":1895:1925  _transferOwnership(address(0)) */\n      tag_140\n        /* \"@openzeppelin/contracts/access/Ownable.sol\":1922:1923  0 */\n      0x00\n        /* \"@openzeppelin/contracts/access/Ownable.sol\":1895:1913  _transferOwnership */\n      tag_141\n        /* \"@openzeppelin/contracts/access/Ownable.sol\":1895:1925  _transferOwnership(address(0)) */\n      jump\t// in\n    tag_140:\n        /* \"@openzeppelin/contracts/access/Ownable.sol\":1831:1932  function renounceOwnership() public virtual onlyOwner {... */\n      jump\t// out\n        /* \"contracts/Swap/Swap.sol\":609:637  uint256 public amountOfAsset */\n    tag_62:\n      sload(0x08)\n      dup2\n      jump\t// out\n        /* \"contracts/Swap/Swap.sol\":454:483  uint256 public initAssetPrice */\n    tag_65:\n      sload(0x03)\n      dup2\n      jump\t// out\n        /* \"contracts/Swap/Swap.sol\":716:741  uint32 public totalRounds */\n    tag_68:\n      0x0a\n      0x18\n      swap1\n      sload\n      swap1\n      0x0100\n      exp\n      swap1\n      div\n      0xffffffff\n      and\n      dup2\n      jump\t// out\n        /* \"@openzeppelin/contracts/access/Ownable.sol\":1201:1286  function owner() public view virtual returns (address) {... */\n    tag_71:\n        /* \"@openzeppelin/contracts/access/Ownable.sol\":1247:1254  address */\n      0x00\n        /* \"@openzeppelin/contracts/access/Ownable.sol\":1273:1279  _owner */\n      dup1\n      0x00\n      swap1\n      sload\n      swap1\n      0x0100\n      exp\n      swap1\n      div\n      0xffffffffffffffffffffffffffffffffffffffff\n      and\n        /* \"@openzeppelin/contracts/access/Ownable.sol\":1266:1279  return _owner */\n      swap1\n      pop\n        /* \"@openzeppelin/contracts/access/Ownable.sol\":1201:1286  function owner() public view virtual returns (address) {... */\n      swap1\n      jump\t// out\n        /* \"contracts/Swap/Swap.sol\":692:712  uint32 public rounds */\n    tag_74:\n      0x0a\n      0x14\n      swap1\n      sload\n      swap1\n      0x0100\n      exp\n      swap1\n      div\n      0xffffffff\n      and\n      dup2\n      jump\t// out\n        /* \"contracts/Swap/Swap.sol\":2418:2530  function setBuyer(address _buyer) public onlyOwner returns (address) {... */\n    tag_79:\n        /* \"contracts/Swap/Swap.sol\":2478:2485  address */\n      0x00\n        /* \"@openzeppelin/contracts/access/Ownable.sol\":1094:1107  _checkOwner() */\n      tag_144\n        /* \"@openzeppelin/contracts/access/Ownable.sol\":1094:1105  _checkOwner */\n      tag_131\n        /* \"@openzeppelin/contracts/access/Ownable.sol\":1094:1107  _checkOwner() */\n      jump\t// in\n    tag_144:\n        /* \"contracts/Swap/Swap.sol\":2501:2507  _buyer */\n      dup2\n        /* \"contracts/Swap/Swap.sol\":2493:2498  buyer */\n      0x09\n      0x00\n        /* \"contracts/Swap/Swap.sol\":2493:2507  buyer = _buyer */\n      0x0100\n      exp\n      dup2\n      sload\n      dup2\n      0xffffffffffffffffffffffffffffffffffffffff\n      mul\n      not\n      and\n      swap1\n      dup4\n      0xffffffffffffffffffffffffffffffffffffffff\n      and\n      mul\n      or\n      swap1\n      sstore\n      pop\n        /* \"contracts/Swap/Swap.sol\":2520:2525  buyer */\n      0x09\n      0x00\n      swap1\n      sload\n      swap1\n      0x0100\n      exp\n      swap1\n      div\n      0xffffffffffffffffffffffffffffffffffffffff\n      and\n        /* \"contracts/Swap/Swap.sol\":2513:2525  return buyer */\n      swap1\n      pop\n        /* \"contracts/Swap/Swap.sol\":2418:2530  function setBuyer(address _buyer) public onlyOwner returns (address) {... */\n      swap2\n      swap1\n      pop\n      jump\t// out\n        /* \"contracts/Swap/PriceConsumerGoerli.sol\":748:892  function getETHPrice() public view returns (uint256) {... */\n    tag_82:\n        /* \"contracts/Swap/PriceConsumerGoerli.sol\":792:799  uint256 */\n      0x00\n        /* \"contracts/Swap/PriceConsumerGoerli.sol\":810:819  int price */\n      dup1\n        /* \"contracts/Swap/PriceConsumerGoerli.sol\":829:841  _aggregators */\n      0x01\n        /* \"contracts/Swap/PriceConsumerGoerli.sol\":829:844  _aggregators[1] */\n      0x00\n        /* \"contracts/Swap/PriceConsumerGoerli.sol\":842:843  1 */\n      0x01\n        /* \"contracts/Swap/PriceConsumerGoerli.sol\":829:844  _aggregators[1] */\n      dup2\n      mstore\n      0x20\n      add\n      swap1\n      dup2\n      mstore\n      0x20\n      add\n      0x00\n      keccak256\n      0x00\n      swap1\n      sload\n      swap1\n      0x0100\n      exp\n      swap1\n      div\n      0xffffffffffffffffffffffffffffffffffffffff\n      and\n        /* \"contracts/Swap/PriceConsumerGoerli.sol\":829:860  _aggregators[1].latestRoundData */\n      0xffffffffffffffffffffffffffffffffffffffff\n      and\n      0xfeaf968c\n        /* \"contracts/Swap/PriceConsumerGoerli.sol\":829:862  _aggregators[1].latestRoundData() */\n      mload(0x40)\n      dup2\n      0xffffffff\n      and\n      0xe0\n      shl\n      dup2\n      mstore\n      0x04\n      add\n      0xa0\n      mload(0x40)\n      dup1\n      dup4\n      sub\n      dup2\n      dup7\n      dup1\n      extcodesize\n      iszero\n      dup1\n      iszero\n      tag_147\n      jumpi\n      0x00\n      dup1\n      revert\n    tag_147:\n      pop\n      gas\n      staticcall\n      iszero\n      dup1\n      iszero\n      tag_149\n      jumpi\n      returndatasize\n      0x00\n      dup1\n      returndatacopy\n      revert(0x00, returndatasize)\n    tag_149:\n      pop\n      pop\n      pop\n      pop\n      mload(0x40)\n      returndatasize\n      not(0x1f)\n      0x1f\n      dup3\n      add\n      and\n      dup3\n      add\n      dup1\n      0x40\n      mstore\n      pop\n      dup2\n      add\n      swap1\n      tag_150\n      swap2\n      swap1\n      tag_128\n      jump\t// in\n    tag_150:\n        /* \"contracts/Swap/PriceConsumerGoerli.sol\":807:862  (, int price, , , ) = _aggregators[1].latestRoundData() */\n      pop\n      pop\n      pop\n      swap2\n      pop\n      pop\n        /* \"contracts/Swap/PriceConsumerGoerli.sol\":881:886  price */\n      dup1\n        /* \"contracts/Swap/PriceConsumerGoerli.sol\":869:887  return uint(price) */\n      swap2\n      pop\n      pop\n        /* \"contracts/Swap/PriceConsumerGoerli.sol\":748:892  function getETHPrice() public view returns (uint256) {... */\n      swap1\n      jump\t// out\n        /* \"contracts/Swap/Swap.sol\":516:547  uint256 public liquidationPrice */\n    tag_85:\n      sload(0x05)\n      dup2\n      jump\t// out\n        /* \"contracts/Swap/Swap.sol\":1517:1702  function getPrices() public view returns (uint256[5] memory) {... */\n    tag_88:\n        /* \"contracts/Swap/Swap.sol\":1559:1576  uint256[5] memory */\n      tag_151\n      tag_152\n      jump\t// in\n    tag_151:\n        /* \"contracts/Swap/Swap.sol\":1584:1697  return [... */\n      mload(0x40)\n      dup1\n      0xa0\n      add\n      0x40\n      mstore\n      dup1\n        /* \"contracts/Swap/Swap.sol\":1599:1613  initAssetPrice */\n      sload(0x03)\n        /* \"contracts/Swap/Swap.sol\":1584:1697  return [... */\n      dup2\n      mstore\n      0x20\n      add\n        /* \"contracts/Swap/Swap.sol\":1621:1631  claimPrice */\n      sload(0x04)\n        /* \"contracts/Swap/Swap.sol\":1584:1697  return [... */\n      dup2\n      mstore\n      0x20\n      add\n        /* \"contracts/Swap/Swap.sol\":1639:1655  liquidationPrice */\n      sload(0x05)\n        /* \"contracts/Swap/Swap.sol\":1584:1697  return [... */\n      dup2\n      mstore\n      0x20\n      add\n        /* \"contracts/Swap/Swap.sol\":1663:1670  premium */\n      sload(0x06)\n        /* \"contracts/Swap/Swap.sol\":1584:1697  return [... */\n      dup2\n      mstore\n      0x20\n      add\n        /* \"contracts/Swap/Swap.sol\":1678:1691  sellerDeposit */\n      sload(0x07)\n        /* \"contracts/Swap/Swap.sol\":1584:1697  return [... */\n      dup2\n      mstore\n      pop\n      swap1\n      pop\n        /* \"contracts/Swap/Swap.sol\":1517:1702  function getPrices() public view returns (uint256[5] memory) {... */\n      swap1\n      jump\t// out\n        /* \"contracts/Swap/Swap.sol\":2148:2295  function setInitAssetPrice(uint256 _initAssetPrice) public returns (uint256) {... */\n    tag_94:\n        /* \"contracts/Swap/Swap.sol\":2216:2223  uint256 */\n      0x00\n        /* \"contracts/Swap/Swap.sol\":2248:2263  _initAssetPrice */\n      dup2\n        /* \"contracts/Swap/Swap.sol\":2231:2245  initAssetPrice */\n      0x03\n        /* \"contracts/Swap/Swap.sol\":2231:2263  initAssetPrice = _initAssetPrice */\n      dup2\n      swap1\n      sstore\n      pop\n        /* \"contracts/Swap/Swap.sol\":2276:2290  initAssetPrice */\n      sload(0x03)\n        /* \"contracts/Swap/Swap.sol\":2269:2290  return initAssetPrice */\n      swap1\n      pop\n        /* \"contracts/Swap/Swap.sol\":2148:2295  function setInitAssetPrice(uint256 _initAssetPrice) public returns (uint256) {... */\n      swap2\n      swap1\n      pop\n      jump\t// out\n        /* \"contracts/Swap/Swap.sol\":2655:2770  function setRounds(uint32 _rounds) public onlyOwner returns (uint32) {... */\n    tag_99:\n        /* \"contracts/Swap/Swap.sol\":2716:2722  uint32 */\n      0x00\n        /* \"@openzeppelin/contracts/access/Ownable.sol\":1094:1107  _checkOwner() */\n      tag_156\n        /* \"@openzeppelin/contracts/access/Ownable.sol\":1094:1105  _checkOwner */\n      tag_131\n        /* \"@openzeppelin/contracts/access/Ownable.sol\":1094:1107  _checkOwner() */\n      jump\t// in\n    tag_156:\n        /* \"contracts/Swap/Swap.sol\":2739:2746  _rounds */\n      dup2\n        /* \"contracts/Swap/Swap.sol\":2730:2736  rounds */\n      0x0a\n      0x14\n        /* \"contracts/Swap/Swap.sol\":2730:2746  rounds = _rounds */\n      0x0100\n      exp\n      dup2\n      sload\n      dup2\n      0xffffffff\n      mul\n      not\n      and\n      swap1\n      dup4\n      0xffffffff\n      and\n      mul\n      or\n      swap1\n      sstore\n      pop\n        /* \"contracts/Swap/Swap.sol\":2759:2765  rounds */\n      0x0a\n      0x14\n      swap1\n      sload\n      swap1\n      0x0100\n      exp\n      swap1\n      div\n      0xffffffff\n      and\n        /* \"contracts/Swap/Swap.sol\":2752:2765  return rounds */\n      swap1\n      pop\n        /* \"contracts/Swap/Swap.sol\":2655:2770  function setRounds(uint32 _rounds) public onlyOwner returns (uint32) {... */\n      swap2\n      swap1\n      pop\n      jump\t// out\n        /* \"contracts/Swap/Swap.sol\":1783:1858  function getSeller() public view returns (address) {... */\n    tag_102:\n        /* \"contracts/Swap/Swap.sol\":1825:1832  address */\n      0x00\n        /* \"contracts/Swap/Swap.sol\":1847:1853  seller */\n      0x0a\n      0x00\n      swap1\n      sload\n      swap1\n      0x0100\n      exp\n      swap1\n      div\n      0xffffffffffffffffffffffffffffffffffffffff\n      and\n        /* \"contracts/Swap/Swap.sol\":1840:1853  return seller */\n      swap1\n      pop\n        /* \"contracts/Swap/Swap.sol\":1783:1858  function getSeller() public view returns (address) {... */\n      swap1\n      jump\t// out\n        /* \"contracts/Swap/PriceConsumerGoerli.sol\":600:744  function getBTCPrice() public view returns (uint256) {... */\n    tag_105:\n        /* \"contracts/Swap/PriceConsumerGoerli.sol\":644:651  uint256 */\n      0x00\n        /* \"contracts/Swap/PriceConsumerGoerli.sol\":662:671  int price */\n      dup1\n        /* \"contracts/Swap/PriceConsumerGoerli.sol\":681:693  _aggregators */\n      0x01\n        /* \"contracts/Swap/PriceConsumerGoerli.sol\":681:696  _aggregators[0] */\n      0x00\n        /* \"contracts/Swap/PriceConsumerGoerli.sol\":694:695  0 */\n      dup1\n        /* \"contracts/Swap/PriceConsumerGoerli.sol\":681:696  _aggregators[0] */\n      dup2\n      mstore\n      0x20\n      add\n      swap1\n      dup2\n      mstore\n      0x20\n      add\n      0x00\n      keccak256\n      0x00\n      swap1\n      sload\n      swap1\n      0x0100\n      exp\n      swap1\n      div\n      0xffffffffffffffffffffffffffffffffffffffff\n      and\n        /* \"contracts/Swap/PriceConsumerGoerli.sol\":681:712  _aggregators[0].latestRoundData */\n      0xffffffffffffffffffffffffffffffffffffffff\n      and\n      0xfeaf968c\n        /* \"contracts/Swap/PriceConsumerGoerli.sol\":681:714  _aggregators[0].latestRoundData() */\n      mload(0x40)\n      dup2\n      0xffffffff\n      and\n      0xe0\n      shl\n      dup2\n      mstore\n      0x04\n      add\n      0xa0\n      mload(0x40)\n      dup1\n      dup4\n      sub\n      dup2\n      dup7\n      dup1\n      extcodesize\n      iszero\n      dup1\n      iszero\n      tag_160\n      jumpi\n      0x00\n      dup1\n      revert\n    tag_160:\n      pop\n      gas\n      staticcall\n      iszero\n      dup1\n      iszero\n      tag_162\n      jumpi\n      returndatasize\n      0x00\n      dup1\n      returndatacopy\n      revert(0x00, returndatasize)\n    tag_162:\n      pop\n      pop\n      pop\n      pop\n      mload(0x40)\n      returndatasize\n      not(0x1f)\n      0x1f\n      dup3\n      add\n      and\n      dup3\n      add\n      dup1\n      0x40\n      mstore\n      pop\n      dup2\n      add\n      swap1\n      tag_163\n      swap2\n      swap1\n      tag_128\n      jump\t// in\n    tag_163:\n        /* \"contracts/Swap/PriceConsumerGoerli.sol\":659:714  (, int price, , , ) = _aggregators[0].latestRoundData() */\n      pop\n      pop\n      pop\n      swap2\n      pop\n      pop\n        /* \"contracts/Swap/PriceConsumerGoerli.sol\":733:738  price */\n      dup1\n        /* \"contracts/Swap/PriceConsumerGoerli.sol\":721:739  return uint(price) */\n      swap2\n      pop\n      pop\n        /* \"contracts/Swap/PriceConsumerGoerli.sol\":600:744  function getBTCPrice() public view returns (uint256) {... */\n      swap1\n      jump\t// out\n        /* \"contracts/Swap/Swap.sol\":551:573  uint256 public premium */\n    tag_108:\n      sload(0x06)\n      dup2\n      jump\t// out\n        /* \"contracts/Swap/Swap.sol\":2534:2651  function setSeller(address _seller) public onlyOwner returns (address) {... */\n    tag_112:\n        /* \"contracts/Swap/Swap.sol\":2596:2603  address */\n      0x00\n        /* \"@openzeppelin/contracts/access/Ownable.sol\":1094:1107  _checkOwner() */\n      tag_165\n        /* \"@openzeppelin/contracts/access/Ownable.sol\":1094:1105  _checkOwner */\n      tag_131\n        /* \"@openzeppelin/contracts/access/Ownable.sol\":1094:1107  _checkOwner() */\n      jump\t// in\n    tag_165:\n        /* \"contracts/Swap/Swap.sol\":2620:2627  _seller */\n      dup2\n        /* \"contracts/Swap/Swap.sol\":2611:2617  seller */\n      0x0a\n      0x00\n        /* \"contracts/Swap/Swap.sol\":2611:2627  seller = _seller */\n      0x0100\n      exp\n      dup2\n      sload\n      dup2\n      0xffffffffffffffffffffffffffffffffffffffff\n      mul\n      not\n      and\n      swap1\n      dup4\n      0xffffffffffffffffffffffffffffffffffffffff\n      and\n      mul\n      or\n      swap1\n      sstore\n      pop\n        /* \"contracts/Swap/Swap.sol\":2640:2646  seller */\n      0x0a\n      0x00\n      swap1\n      sload\n      swap1\n      0x0100\n      exp\n      swap1\n      div\n      0xffffffffffffffffffffffffffffffffffffffff\n      and\n        /* \"contracts/Swap/Swap.sol\":2633:2646  return seller */\n      swap1\n      pop\n        /* \"contracts/Swap/Swap.sol\":2534:2651  function setSeller(address _seller) public onlyOwner returns (address) {... */\n      swap2\n      swap1\n      pop\n      jump\t// out\n        /* \"contracts/Swap/Swap.sol\":1862:2144  function getClaimReward() public view returns (uint256) {... */\n    tag_115:\n        /* \"contracts/Swap/Swap.sol\":1909:1916  uint256 */\n      0x00\n        /* \"contracts/Swap/Swap.sol\":1924:1941  uint256 currPrice */\n      dup1\n        /* \"contracts/Swap/Swap.sol\":1944:1958  getCurrPrice() */\n      tag_168\n        /* \"contracts/Swap/Swap.sol\":1944:1956  getCurrPrice */\n      tag_169\n        /* \"contracts/Swap/Swap.sol\":1944:1958  getCurrPrice() */\n      jump\t// in\n    tag_168:\n        /* \"contracts/Swap/Swap.sol\":1924:1958  uint256 currPrice = getCurrPrice() */\n      swap1\n      pop\n        /* \"contracts/Swap/Swap.sol\":1981:1990  currPrice */\n      dup1\n        /* \"contracts/Swap/Swap.sol\":1968:1978  claimPrice */\n      sload(0x04)\n        /* \"contracts/Swap/Swap.sol\":1968:1990  claimPrice < currPrice */\n      lt\n        /* \"contracts/Swap/Swap.sol\":1964:2015  if (claimPrice < currPrice) {... */\n      iszero\n      tag_170\n      jumpi\n        /* \"contracts/Swap/Swap.sol\":2007:2008  0 */\n      0x00\n        /* \"contracts/Swap/Swap.sol\":2000:2008  return 0 */\n      swap2\n      pop\n      pop\n      jump(tag_167)\n        /* \"contracts/Swap/Swap.sol\":1964:2015  if (claimPrice < currPrice) {... */\n    tag_170:\n        /* \"contracts/Swap/Swap.sol\":2033:2139  sellerDeposit.calcClaimReward(... */\n      tag_171\n        /* \"contracts/Swap/Swap.sol\":2072:2088  liquidationPrice */\n      sload(0x05)\n        /* \"contracts/Swap/Swap.sol\":2098:2112  initAssetPrice */\n      sload(0x03)\n        /* \"contracts/Swap/Swap.sol\":2122:2131  currPrice */\n      dup4\n        /* \"contracts/Swap/Swap.sol\":2033:2046  sellerDeposit */\n      sload(0x07)\n        /* \"contracts/Swap/Swap.sol\":2033:2062  sellerDeposit.calcClaimReward */\n      tag_172\n      swap1\n        /* \"contracts/Swap/Swap.sol\":2033:2139  sellerDeposit.calcClaimReward(... */\n      swap4\n      swap3\n      swap2\n      swap1\n      0xffffffff\n      and\n      jump\t// in\n    tag_171:\n        /* \"contracts/Swap/Swap.sol\":2020:2139  return... */\n      swap2\n      pop\n      pop\n        /* \"contracts/Swap/Swap.sol\":1862:2144  function getClaimReward() public view returns (uint256) {... */\n    tag_167:\n      swap1\n      jump\t// out\n        /* \"@openzeppelin/contracts/access/Ownable.sol\":2081:2279  function transferOwnership(address newOwner) public virtual onlyOwner {... */\n    tag_119:\n        /* \"@openzeppelin/contracts/access/Ownable.sol\":1094:1107  _checkOwner() */\n      tag_174\n        /* \"@openzeppelin/contracts/access/Ownable.sol\":1094:1105  _checkOwner */\n      tag_131\n        /* \"@openzeppelin/contracts/access/Ownable.sol\":1094:1107  _checkOwner() */\n      jump\t// in\n    tag_174:\n        /* \"@openzeppelin/contracts/access/Ownable.sol\":2189:2190  0 */\n      0x00\n        /* \"@openzeppelin/contracts/access/Ownable.sol\":2169:2191  newOwner != address(0) */\n      0xffffffffffffffffffffffffffffffffffffffff\n      and\n        /* \"@openzeppelin/contracts/access/Ownable.sol\":2169:2177  newOwner */\n      dup2\n        /* \"@openzeppelin/contracts/access/Ownable.sol\":2169:2191  newOwner != address(0) */\n      0xffffffffffffffffffffffffffffffffffffffff\n      and\n      eq\n      iszero\n        /* \"@openzeppelin/contracts/access/Ownable.sol\":2161:2234  require(newOwner != address(0), \"Ownable: new owner is the zero address\") */\n      tag_176\n      jumpi\n      mload(0x40)\n      0x08c379a000000000000000000000000000000000000000000000000000000000\n      dup2\n      mstore\n      0x04\n      add\n      tag_177\n      swap1\n      tag_178\n      jump\t// in\n    tag_177:\n      mload(0x40)\n      dup1\n      swap2\n      sub\n      swap1\n      revert\n    tag_176:\n        /* \"@openzeppelin/contracts/access/Ownable.sol\":2244:2272  _transferOwnership(newOwner) */\n      tag_179\n        /* \"@openzeppelin/contracts/access/Ownable.sol\":2263:2271  newOwner */\n      dup2\n        /* \"@openzeppelin/contracts/access/Ownable.sol\":2244:2262  _transferOwnership */\n      tag_141\n        /* \"@openzeppelin/contracts/access/Ownable.sol\":2244:2272  _transferOwnership(newOwner) */\n      jump\t// in\n    tag_179:\n        /* \"@openzeppelin/contracts/access/Ownable.sol\":2081:2279  function transferOwnership(address newOwner) public virtual onlyOwner {... */\n      pop\n      jump\t// out\n        /* \"contracts/libs/LibSwap.sol\":592:795  function calcAmountOfAsset(... */\n    tag_120:\n        /* \"contracts/libs/LibSwap.sol\":722:729  uint256 */\n      0x00\n        /* \"contracts/libs/LibSwap.sol\":744:790  _sellerDeposit.div(_initial.sub(_liquidation)) */\n      tag_181\n        /* \"contracts/libs/LibSwap.sol\":763:789  _initial.sub(_liquidation) */\n      tag_182\n        /* \"contracts/libs/LibSwap.sol\":776:788  _liquidation */\n      dup5\n        /* \"contracts/libs/LibSwap.sol\":763:771  _initial */\n      dup7\n        /* \"contracts/libs/LibSwap.sol\":763:775  _initial.sub */\n      tag_121\n      swap1\n        /* \"contracts/libs/LibSwap.sol\":763:789  _initial.sub(_liquidation) */\n      swap2\n      swap1\n      0xffffffff\n      and\n      jump\t// in\n    tag_182:\n        /* \"contracts/libs/LibSwap.sol\":744:758  _sellerDeposit */\n      dup4\n        /* \"contracts/libs/LibSwap.sol\":744:762  _sellerDeposit.div */\n      tag_122\n      swap1\n        /* \"contracts/libs/LibSwap.sol\":744:790  _sellerDeposit.div(_initial.sub(_liquidation)) */\n      swap2\n      swap1\n      0xffffffff\n      and\n      jump\t// in\n    tag_181:\n        /* \"contracts/libs/LibSwap.sol\":737:790  return _sellerDeposit.div(_initial.sub(_liquidation)) */\n      swap1\n      pop\n        /* \"contracts/libs/LibSwap.sol\":592:795  function calcAmountOfAsset(... */\n      swap4\n      swap3\n      pop\n      pop\n      pop\n      jump\t// out\n        /* \"@openzeppelin/contracts/utils/math/SafeMath.sol\":3122:3218  function sub(uint256 a, uint256 b) internal pure returns (uint256) {... */\n    tag_121:\n        /* \"@openzeppelin/contracts/utils/math/SafeMath.sol\":3180:3187  uint256 */\n      0x00\n        /* \"@openzeppelin/contracts/utils/math/SafeMath.sol\":3210:3211  b */\n      dup2\n        /* \"@openzeppelin/contracts/utils/math/SafeMath.sol\":3206:3207  a */\n      dup4\n        /* \"@openzeppelin/contracts/utils/math/SafeMath.sol\":3206:3211  a - b */\n      tag_184\n      swap2\n      swap1\n      tag_185\n      jump\t// in\n    tag_184:\n        /* \"@openzeppelin/contracts/utils/math/SafeMath.sol\":3199:3211  return a - b */\n      swap1\n      pop\n        /* \"@openzeppelin/contracts/utils/math/SafeMath.sol\":3122:3218  function sub(uint256 a, uint256 b) internal pure returns (uint256) {... */\n      swap3\n      swap2\n      pop\n      pop\n      jump\t// out\n        /* \"@openzeppelin/contracts/utils/math/SafeMath.sol\":3850:3946  function div(uint256 a, uint256 b) internal pure returns (uint256) {... */\n    tag_122:\n        /* \"@openzeppelin/contracts/utils/math/SafeMath.sol\":3908:3915  uint256 */\n      0x00\n        /* \"@openzeppelin/contracts/utils/math/SafeMath.sol\":3938:3939  b */\n      dup2\n        /* \"@openzeppelin/contracts/utils/math/SafeMath.sol\":3934:3935  a */\n      dup4\n        /* \"@openzeppelin/contracts/utils/math/SafeMath.sol\":3934:3939  a / b */\n      tag_187\n      swap2\n      swap1\n      tag_188\n      jump\t// in\n    tag_187:\n        /* \"@openzeppelin/contracts/utils/math/SafeMath.sol\":3927:3939  return a / b */\n      swap1\n      pop\n        /* \"@openzeppelin/contracts/utils/math/SafeMath.sol\":3850:3946  function div(uint256 a, uint256 b) internal pure returns (uint256) {... */\n      swap3\n      swap2\n      pop\n      pop\n      jump\t// out\n        /* \"@openzeppelin/contracts/access/Ownable.sol\":1359:1489  function _checkOwner() internal view virtual {... */\n    tag_131:\n        /* \"@openzeppelin/contracts/access/Ownable.sol\":1433:1445  _msgSender() */\n      tag_190\n        /* \"@openzeppelin/contracts/access/Ownable.sol\":1433:1443  _msgSender */\n      tag_191\n        /* \"@openzeppelin/contracts/access/Ownable.sol\":1433:1445  _msgSender() */\n      jump\t// in\n    tag_190:\n        /* \"@openzeppelin/contracts/access/Ownable.sol\":1422:1445  owner() == _msgSender() */\n      0xffffffffffffffffffffffffffffffffffffffff\n      and\n        /* \"@openzeppelin/contracts/access/Ownable.sol\":1422:1429  owner() */\n      tag_192\n        /* \"@openzeppelin/contracts/access/Ownable.sol\":1422:1427  owner */\n      tag_71\n        /* \"@openzeppelin/contracts/access/Ownable.sol\":1422:1429  owner() */\n      jump\t// in\n    tag_192:\n        /* \"@openzeppelin/contracts/access/Ownable.sol\":1422:1445  owner() == _msgSender() */\n      0xffffffffffffffffffffffffffffffffffffffff\n      and\n      eq\n        /* \"@openzeppelin/contracts/access/Ownable.sol\":1414:1482  require(owner() == _msgSender(), \"Ownable: caller is not the owner\") */\n      tag_193\n      jumpi\n      mload(0x40)\n      0x08c379a000000000000000000000000000000000000000000000000000000000\n      dup2\n      mstore\n      0x04\n      add\n      tag_194\n      swap1\n      tag_195\n      jump\t// in\n    tag_194:\n      mload(0x40)\n      dup1\n      swap2\n      sub\n      swap1\n      revert\n    tag_193:\n        /* \"@openzeppelin/contracts/access/Ownable.sol\":1359:1489  function _checkOwner() internal view virtual {... */\n      jump\t// out\n        /* \"@openzeppelin/contracts/access/Ownable.sol\":2433:2620  function _transferOwnership(address newOwner) internal virtual {... */\n    tag_141:\n        /* \"@openzeppelin/contracts/access/Ownable.sol\":2506:2522  address oldOwner */\n      0x00\n        /* \"@openzeppelin/contracts/access/Ownable.sol\":2525:2531  _owner */\n      dup1\n      0x00\n      swap1\n      sload\n      swap1\n      0x0100\n      exp\n      swap1\n      div\n      0xffffffffffffffffffffffffffffffffffffffff\n      and\n        /* \"@openzeppelin/contracts/access/Ownable.sol\":2506:2531  address oldOwner = _owner */\n      swap1\n      pop\n        /* \"@openzeppelin/contracts/access/Ownable.sol\":2550:2558  newOwner */\n      dup2\n        /* \"@openzeppelin/contracts/access/Ownable.sol\":2541:2547  _owner */\n      0x00\n      dup1\n        /* \"@openzeppelin/contracts/access/Ownable.sol\":2541:2558  _owner = newOwner */\n      0x0100\n      exp\n      dup2\n      sload\n      dup2\n      0xffffffffffffffffffffffffffffffffffffffff\n      mul\n      not\n      and\n      swap1\n      dup4\n      0xffffffffffffffffffffffffffffffffffffffff\n      and\n      mul\n      or\n      swap1\n      sstore\n      pop\n        /* \"@openzeppelin/contracts/access/Ownable.sol\":2604:2612  newOwner */\n      dup2\n        /* \"@openzeppelin/contracts/access/Ownable.sol\":2573:2613  OwnershipTransferred(oldOwner, newOwner) */\n      0xffffffffffffffffffffffffffffffffffffffff\n      and\n        /* \"@openzeppelin/contracts/access/Ownable.sol\":2594:2602  oldOwner */\n      dup2\n        /* \"@openzeppelin/contracts/access/Ownable.sol\":2573:2613  OwnershipTransferred(oldOwner, newOwner) */\n      0xffffffffffffffffffffffffffffffffffffffff\n      and\n      0x8be0079c531659141344cd1fd0a4f28419497f9722a3daafe3b4186f6b6457e0\n      mload(0x40)\n      mload(0x40)\n      dup1\n      swap2\n      sub\n      swap1\n      log3\n        /* \"@openzeppelin/contracts/access/Ownable.sol\":2496:2620  {... */\n      pop\n        /* \"@openzeppelin/contracts/access/Ownable.sol\":2433:2620  function _transferOwnership(address newOwner) internal virtual {... */\n      pop\n      jump\t// out\n        /* \"contracts/Swap/Swap.sol\":2774:3085  function getCurrPrice() private view returns (uint256) {... */\n    tag_169:\n        /* \"contracts/Swap/Swap.sol\":2820:2827  uint256 */\n      0x00\n        /* \"contracts/Swap/Swap.sol\":2852:2853  0 */\n      dup1\n        /* \"contracts/Swap/Swap.sol\":2839:2848  assetType */\n      0x0a\n      0x1c\n      swap1\n      sload\n      swap1\n      0x0100\n      exp\n      swap1\n      div\n      0xffffffff\n      and\n        /* \"contracts/Swap/Swap.sol\":2839:2853  assetType == 0 */\n      0xffffffff\n      and\n      eq\n        /* \"contracts/Swap/Swap.sol\":2835:3081  if (assetType == 0) {... */\n      iszero\n      tag_198\n      jumpi\n        /* \"contracts/Swap/Swap.sol\":2870:2896  getBTCPrice().div(10 ** 8) */\n      tag_199\n        /* \"contracts/Swap/Swap.sol\":2888:2895  10 ** 8 */\n      0x05f5e100\n        /* \"contracts/Swap/Swap.sol\":2870:2883  getBTCPrice() */\n      tag_200\n        /* \"contracts/Swap/Swap.sol\":2870:2881  getBTCPrice */\n      tag_105\n        /* \"contracts/Swap/Swap.sol\":2870:2883  getBTCPrice() */\n      jump\t// in\n    tag_200:\n        /* \"contracts/Swap/Swap.sol\":2870:2887  getBTCPrice().div */\n      tag_122\n      swap1\n        /* \"contracts/Swap/Swap.sol\":2870:2896  getBTCPrice().div(10 ** 8) */\n      swap2\n      swap1\n      0xffffffff\n      and\n      jump\t// in\n    tag_199:\n        /* \"contracts/Swap/Swap.sol\":2863:2896  return getBTCPrice().div(10 ** 8) */\n      swap1\n      pop\n      jump(tag_197)\n        /* \"contracts/Swap/Swap.sol\":2835:3081  if (assetType == 0) {... */\n    tag_198:\n        /* \"contracts/Swap/Swap.sol\":2926:2927  1 */\n      0x01\n        /* \"contracts/Swap/Swap.sol\":2913:2922  assetType */\n      0x0a\n      0x1c\n      swap1\n      sload\n      swap1\n      0x0100\n      exp\n      swap1\n      div\n      0xffffffff\n      and\n        /* \"contracts/Swap/Swap.sol\":2913:2927  assetType == 1 */\n      0xffffffff\n      and\n      eq\n        /* \"contracts/Swap/Swap.sol\":2909:3081  if (assetType == 1) {... */\n      iszero\n      tag_202\n      jumpi\n        /* \"contracts/Swap/Swap.sol\":2944:2970  getETHPrice().div(10 ** 8) */\n      tag_203\n        /* \"contracts/Swap/Swap.sol\":2962:2969  10 ** 8 */\n      0x05f5e100\n        /* \"contracts/Swap/Swap.sol\":2944:2957  getETHPrice() */\n      tag_204\n        /* \"contracts/Swap/Swap.sol\":2944:2955  getETHPrice */\n      tag_82\n        /* \"contracts/Swap/Swap.sol\":2944:2957  getETHPrice() */\n      jump\t// in\n    tag_204:\n        /* \"contracts/Swap/Swap.sol\":2944:2961  getETHPrice().div */\n      tag_122\n      swap1\n        /* \"contracts/Swap/Swap.sol\":2944:2970  getETHPrice().div(10 ** 8) */\n      swap2\n      swap1\n      0xffffffff\n      and\n      jump\t// in\n    tag_203:\n        /* \"contracts/Swap/Swap.sol\":2937:2970  return getETHPrice().div(10 ** 8) */\n      swap1\n      pop\n      jump(tag_197)\n        /* \"contracts/Swap/Swap.sol\":2909:3081  if (assetType == 1) {... */\n    tag_202:\n        /* \"contracts/Swap/Swap.sol\":3000:3001  2 */\n      0x02\n        /* \"contracts/Swap/Swap.sol\":2987:2996  assetType */\n      0x0a\n      0x1c\n      swap1\n      sload\n      swap1\n      0x0100\n      exp\n      swap1\n      div\n      0xffffffff\n      and\n        /* \"contracts/Swap/Swap.sol\":2987:3001  assetType == 2 */\n      0xffffffff\n      and\n      eq\n        /* \"contracts/Swap/Swap.sol\":2983:3081  if (assetType == 2) {... */\n      iszero\n      tag_206\n      jumpi\n        /* \"contracts/Swap/Swap.sol\":3018:3045  getLinkPrice().div(10 ** 8) */\n      tag_207\n        /* \"contracts/Swap/Swap.sol\":3037:3044  10 ** 8 */\n      0x05f5e100\n        /* \"contracts/Swap/Swap.sol\":3018:3032  getLinkPrice() */\n      tag_208\n        /* \"contracts/Swap/Swap.sol\":3018:3030  getLinkPrice */\n      tag_41\n        /* \"contracts/Swap/Swap.sol\":3018:3032  getLinkPrice() */\n      jump\t// in\n    tag_208:\n        /* \"contracts/Swap/Swap.sol\":3018:3036  getLinkPrice().div */\n      tag_122\n      swap1\n        /* \"contracts/Swap/Swap.sol\":3018:3045  getLinkPrice().div(10 ** 8) */\n      swap2\n      swap1\n      0xffffffff\n      and\n      jump\t// in\n    tag_207:\n        /* \"contracts/Swap/Swap.sol\":3011:3045  return getLinkPrice().div(10 ** 8) */\n      swap1\n      pop\n      jump(tag_197)\n        /* \"contracts/Swap/Swap.sol\":2983:3081  if (assetType == 2) {... */\n    tag_206:\n        /* \"contracts/Swap/Swap.sol\":3073:3074  0 */\n      0x00\n        /* \"contracts/Swap/Swap.sol\":3066:3074  return 0 */\n      swap1\n      pop\n        /* \"contracts/Swap/Swap.sol\":2774:3085  function getCurrPrice() private view returns (uint256) {... */\n    tag_197:\n      swap1\n      jump\t// out\n        /* \"contracts/libs/LibSwap.sol\":167:588  function calcClaimReward(... */\n    tag_172:\n        /* \"contracts/libs/LibSwap.sol\":311:318  uint256 */\n      0x00\n        /* \"contracts/libs/LibSwap.sol\":326:345  uint256 claimReward */\n      dup1\n        /* \"contracts/libs/LibSwap.sol\":371:379  _current */\n      dup3\n        /* \"contracts/libs/LibSwap.sol\":355:367  _liquidation */\n      dup6\n        /* \"contracts/libs/LibSwap.sol\":355:379  _liquidation >= _current */\n      lt\n        /* \"contracts/libs/LibSwap.sol\":351:560  if (_liquidation >= _current) {... */\n      tag_211\n      jumpi\n        /* \"contracts/libs/LibSwap.sol\":403:411  _deposit */\n      dup6\n        /* \"contracts/libs/LibSwap.sol\":389:411  claimReward = _deposit */\n      swap1\n      pop\n        /* \"contracts/libs/LibSwap.sol\":351:560  if (_liquidation >= _current) {... */\n      jump(tag_212)\n    tag_211:\n        /* \"contracts/libs/LibSwap.sol\":432:450  uint256 numOfAsset */\n      0x00\n        /* \"contracts/libs/LibSwap.sol\":453:493  _deposit.div(_initial.sub(_liquidation)) */\n      tag_213\n        /* \"contracts/libs/LibSwap.sol\":466:492  _initial.sub(_liquidation) */\n      tag_214\n        /* \"contracts/libs/LibSwap.sol\":479:491  _liquidation */\n      dup8\n        /* \"contracts/libs/LibSwap.sol\":466:474  _initial */\n      dup8\n        /* \"contracts/libs/LibSwap.sol\":466:478  _initial.sub */\n      tag_121\n      swap1\n        /* \"contracts/libs/LibSwap.sol\":466:492  _initial.sub(_liquidation) */\n      swap2\n      swap1\n      0xffffffff\n      and\n      jump\t// in\n    tag_214:\n        /* \"contracts/libs/LibSwap.sol\":453:461  _deposit */\n      dup9\n        /* \"contracts/libs/LibSwap.sol\":453:465  _deposit.div */\n      tag_122\n      swap1\n        /* \"contracts/libs/LibSwap.sol\":453:493  _deposit.div(_initial.sub(_liquidation)) */\n      swap2\n      swap1\n      0xffffffff\n      and\n      jump\t// in\n    tag_213:\n        /* \"contracts/libs/LibSwap.sol\":432:493  uint256 numOfAsset = _deposit.div(_initial.sub(_liquidation)) */\n      swap1\n      pop\n        /* \"contracts/libs/LibSwap.sol\":515:553  numOfAsset.mul(_initial.sub(_current)) */\n      tag_215\n        /* \"contracts/libs/LibSwap.sol\":530:552  _initial.sub(_current) */\n      tag_216\n        /* \"contracts/libs/LibSwap.sol\":543:551  _current */\n      dup6\n        /* \"contracts/libs/LibSwap.sol\":530:538  _initial */\n      dup8\n        /* \"contracts/libs/LibSwap.sol\":530:542  _initial.sub */\n      tag_121\n      swap1\n        /* \"contracts/libs/LibSwap.sol\":530:552  _initial.sub(_current) */\n      swap2\n      swap1\n      0xffffffff\n      and\n      jump\t// in\n    tag_216:\n        /* \"contracts/libs/LibSwap.sol\":515:525  numOfAsset */\n      dup3\n        /* \"contracts/libs/LibSwap.sol\":515:529  numOfAsset.mul */\n      tag_217\n      swap1\n        /* \"contracts/libs/LibSwap.sol\":515:553  numOfAsset.mul(_initial.sub(_current)) */\n      swap2\n      swap1\n      0xffffffff\n      and\n      jump\t// in\n    tag_215:\n        /* \"contracts/libs/LibSwap.sol\":501:553  claimReward = numOfAsset.mul(_initial.sub(_current)) */\n      swap2\n      pop\n        /* \"contracts/libs/LibSwap.sol\":424:560  {... */\n      pop\n        /* \"contracts/libs/LibSwap.sol\":351:560  if (_liquidation >= _current) {... */\n    tag_212:\n        /* \"contracts/libs/LibSwap.sol\":572:583  claimReward */\n      dup1\n        /* \"contracts/libs/LibSwap.sol\":565:583  return claimReward */\n      swap2\n      pop\n      pop\n        /* \"contracts/libs/LibSwap.sol\":167:588  function calcClaimReward(... */\n      swap5\n      swap4\n      pop\n      pop\n      pop\n      pop\n      jump\t// out\n        /* \"@openzeppelin/contracts/utils/Context.sol\":640:736  function _msgSender() internal view virtual returns (address) {... */\n    tag_191:\n        /* \"@openzeppelin/contracts/utils/Context.sol\":693:700  address */\n      0x00\n        /* \"@openzeppelin/contracts/utils/Context.sol\":719:729  msg.sender */\n      caller\n        /* \"@openzeppelin/contracts/utils/Context.sol\":712:729  return msg.sender */\n      swap1\n      pop\n        /* \"@openzeppelin/contracts/utils/Context.sol\":640:736  function _msgSender() internal view virtual returns (address) {... */\n      swap1\n      jump\t// out\n        /* \"@openzeppelin/contracts/utils/math/SafeMath.sol\":3465:3561  function mul(uint256 a, uint256 b) internal pure returns (uint256) {... */\n    tag_217:\n        /* \"@openzeppelin/contracts/utils/math/SafeMath.sol\":3523:3530  uint256 */\n      0x00\n        /* \"@openzeppelin/contracts/utils/math/SafeMath.sol\":3553:3554  b */\n      dup2\n        /* \"@openzeppelin/contracts/utils/math/SafeMath.sol\":3549:3550  a */\n      dup4\n        /* \"@openzeppelin/contracts/utils/math/SafeMath.sol\":3549:3554  a * b */\n      tag_220\n      swap2\n      swap1\n      tag_221\n      jump\t// in\n    tag_220:\n        /* \"@openzeppelin/contracts/utils/math/SafeMath.sol\":3542:3554  return a * b */\n      swap1\n      pop\n        /* \"@openzeppelin/contracts/utils/math/SafeMath.sol\":3465:3561  function mul(uint256 a, uint256 b) internal pure returns (uint256) {... */\n      swap3\n      swap2\n      pop\n      pop\n      jump\t// out\n    tag_152:\n      mload(0x40)\n      dup1\n      0xa0\n      add\n      0x40\n      mstore\n      dup1\n      0x05\n      swap1\n      0x20\n      dup3\n      mul\n      dup1\n      calldatasize\n      dup4\n      calldatacopy\n      dup1\n      dup3\n      add\n      swap2\n      pop\n      pop\n      swap1\n      pop\n      pop\n      swap1\n      jump\t// out\n        /* \"#utility.yul\":7:146   */\n    tag_223:\n        /* \"#utility.yul\":53:58   */\n      0x00\n        /* \"#utility.yul\":91:97   */\n      dup2\n        /* \"#utility.yul\":78:98   */\n      calldataload\n        /* \"#utility.yul\":69:98   */\n      swap1\n      pop\n        /* \"#utility.yul\":107:140   */\n      tag_225\n        /* \"#utility.yul\":134:139   */\n      dup2\n        /* \"#utility.yul\":107:140   */\n      tag_226\n      jump\t// in\n    tag_225:\n        /* \"#utility.yul\":7:146   */\n      swap3\n      swap2\n      pop\n      pop\n      jump\t// out\n        /* \"#utility.yul\":152:313   */\n    tag_227:\n        /* \"#utility.yul\":209:214   */\n      0x00\n        /* \"#utility.yul\":247:253   */\n      dup2\n        /* \"#utility.yul\":234:254   */\n      calldataload\n        /* \"#utility.yul\":225:254   */\n      swap1\n      pop\n        /* \"#utility.yul\":263:307   */\n      tag_229\n        /* \"#utility.yul\":301:306   */\n      dup2\n        /* \"#utility.yul\":263:307   */\n      tag_230\n      jump\t// in\n    tag_229:\n        /* \"#utility.yul\":152:313   */\n      swap3\n      swap2\n      pop\n      pop\n      jump\t// out\n        /* \"#utility.yul\":319:460   */\n    tag_231:\n        /* \"#utility.yul\":375:380   */\n      0x00\n        /* \"#utility.yul\":406:412   */\n      dup2\n        /* \"#utility.yul\":400:413   */\n      mload\n        /* \"#utility.yul\":391:413   */\n      swap1\n      pop\n        /* \"#utility.yul\":422:454   */\n      tag_233\n        /* \"#utility.yul\":448:453   */\n      dup2\n        /* \"#utility.yul\":422:454   */\n      tag_234\n      jump\t// in\n    tag_233:\n        /* \"#utility.yul\":319:460   */\n      swap3\n      swap2\n      pop\n      pop\n      jump\t// out\n        /* \"#utility.yul\":466:605   */\n    tag_235:\n        /* \"#utility.yul\":512:517   */\n      0x00\n        /* \"#utility.yul\":550:556   */\n      dup2\n        /* \"#utility.yul\":537:557   */\n      calldataload\n        /* \"#utility.yul\":528:557   */\n      swap1\n      pop\n        /* \"#utility.yul\":566:599   */\n      tag_237\n        /* \"#utility.yul\":593:598   */\n      dup2\n        /* \"#utility.yul\":566:599   */\n      tag_238\n      jump\t// in\n    tag_237:\n        /* \"#utility.yul\":466:605   */\n      swap3\n      swap2\n      pop\n      pop\n      jump\t// out\n        /* \"#utility.yul\":611:754   */\n    tag_239:\n        /* \"#utility.yul\":668:673   */\n      0x00\n        /* \"#utility.yul\":699:705   */\n      dup2\n        /* \"#utility.yul\":693:706   */\n      mload\n        /* \"#utility.yul\":684:706   */\n      swap1\n      pop\n        /* \"#utility.yul\":715:748   */\n      tag_241\n        /* \"#utility.yul\":742:747   */\n      dup2\n        /* \"#utility.yul\":715:748   */\n      tag_238\n      jump\t// in\n    tag_241:\n        /* \"#utility.yul\":611:754   */\n      swap3\n      swap2\n      pop\n      pop\n      jump\t// out\n        /* \"#utility.yul\":760:897   */\n    tag_242:\n        /* \"#utility.yul\":805:810   */\n      0x00\n        /* \"#utility.yul\":843:849   */\n      dup2\n        /* \"#utility.yul\":830:850   */\n      calldataload\n        /* \"#utility.yul\":821:850   */\n      swap1\n      pop\n        /* \"#utility.yul\":859:891   */\n      tag_244\n        /* \"#utility.yul\":885:890   */\n      dup2\n        /* \"#utility.yul\":859:891   */\n      tag_245\n      jump\t// in\n    tag_244:\n        /* \"#utility.yul\":760:897   */\n      swap3\n      swap2\n      pop\n      pop\n      jump\t// out\n        /* \"#utility.yul\":903:1044   */\n    tag_246:\n        /* \"#utility.yul\":959:964   */\n      0x00\n        /* \"#utility.yul\":990:996   */\n      dup2\n        /* \"#utility.yul\":984:997   */\n      mload\n        /* \"#utility.yul\":975:997   */\n      swap1\n      pop\n        /* \"#utility.yul\":1006:1038   */\n      tag_248\n        /* \"#utility.yul\":1032:1037   */\n      dup2\n        /* \"#utility.yul\":1006:1038   */\n      tag_249\n      jump\t// in\n    tag_248:\n        /* \"#utility.yul\":903:1044   */\n      swap3\n      swap2\n      pop\n      pop\n      jump\t// out\n        /* \"#utility.yul\":1050:1379   */\n    tag_78:\n        /* \"#utility.yul\":1109:1115   */\n      0x00\n        /* \"#utility.yul\":1158:1160   */\n      0x20\n        /* \"#utility.yul\":1146:1155   */\n      dup3\n        /* \"#utility.yul\":1137:1144   */\n      dup5\n        /* \"#utility.yul\":1133:1156   */\n      sub\n        /* \"#utility.yul\":1129:1161   */\n      slt\n        /* \"#utility.yul\":1126:1245   */\n      iszero\n      tag_251\n      jumpi\n        /* \"#utility.yul\":1164:1243   */\n      tag_252\n      tag_253\n      jump\t// in\n    tag_252:\n        /* \"#utility.yul\":1126:1245   */\n    tag_251:\n        /* \"#utility.yul\":1284:1285   */\n      0x00\n        /* \"#utility.yul\":1309:1362   */\n      tag_254\n        /* \"#utility.yul\":1354:1361   */\n      dup5\n        /* \"#utility.yul\":1345:1351   */\n      dup3\n        /* \"#utility.yul\":1334:1343   */\n      dup6\n        /* \"#utility.yul\":1330:1352   */\n      add\n        /* \"#utility.yul\":1309:1362   */\n      tag_223\n      jump\t// in\n    tag_254:\n        /* \"#utility.yul\":1299:1362   */\n      swap2\n      pop\n        /* \"#utility.yul\":1255:1372   */\n      pop\n        /* \"#utility.yul\":1050:1379   */\n      swap3\n      swap2\n      pop\n      pop\n      jump\t// out\n        /* \"#utility.yul\":1385:1736   */\n    tag_45:\n        /* \"#utility.yul\":1455:1461   */\n      0x00\n        /* \"#utility.yul\":1504:1506   */\n      0x20\n        /* \"#utility.yul\":1492:1501   */\n      dup3\n        /* \"#utility.yul\":1483:1490   */\n      dup5\n        /* \"#utility.yul\":1479:1502   */\n      sub\n        /* \"#utility.yul\":1475:1507   */\n      slt\n        /* \"#utility.yul\":1472:1591   */\n      iszero\n      tag_256\n      jumpi\n        /* \"#utility.yul\":1510:1589   */\n      tag_257\n      tag_253\n      jump\t// in\n    tag_257:\n        /* \"#utility.yul\":1472:1591   */\n    tag_256:\n        /* \"#utility.yul\":1630:1631   */\n      0x00\n        /* \"#utility.yul\":1655:1719   */\n      tag_258\n        /* \"#utility.yul\":1711:1718   */\n      dup5\n        /* \"#utility.yul\":1702:1708   */\n      dup3\n        /* \"#utility.yul\":1691:1700   */\n      dup6\n        /* \"#utility.yul\":1687:1709   */\n      add\n        /* \"#utility.yul\":1655:1719   */\n      tag_227\n      jump\t// in\n    tag_258:\n        /* \"#utility.yul\":1645:1719   */\n      swap2\n      pop\n        /* \"#utility.yul\":1601:1729   */\n      pop\n        /* \"#utility.yul\":1385:1736   */\n      swap3\n      swap2\n      pop\n      pop\n      jump\t// out\n        /* \"#utility.yul\":1742:2071   */\n    tag_93:\n        /* \"#utility.yul\":1801:1807   */\n      0x00\n        /* \"#utility.yul\":1850:1852   */\n      0x20\n        /* \"#utility.yul\":1838:1847   */\n      dup3\n        /* \"#utility.yul\":1829:1836   */\n      dup5\n        /* \"#utility.yul\":1825:1848   */\n      sub\n        /* \"#utility.yul\":1821:1853   */\n      slt\n        /* \"#utility.yul\":1818:1937   */\n      iszero\n      tag_260\n      jumpi\n        /* \"#utility.yul\":1856:1935   */\n      tag_261\n      tag_253\n      jump\t// in\n    tag_261:\n        /* \"#utility.yul\":1818:1937   */\n    tag_260:\n        /* \"#utility.yul\":1976:1977   */\n      0x00\n        /* \"#utility.yul\":2001:2054   */\n      tag_262\n        /* \"#utility.yul\":2046:2053   */\n      dup5\n        /* \"#utility.yul\":2037:2043   */\n      dup3\n        /* \"#utility.yul\":2026:2035   */\n      dup6\n        /* \"#utility.yul\":2022:2044   */\n      add\n        /* \"#utility.yul\":2001:2054   */\n      tag_235\n      jump\t// in\n    tag_262:\n        /* \"#utility.yul\":1991:2054   */\n      swap2\n      pop\n        /* \"#utility.yul\":1947:2064   */\n      pop\n        /* \"#utility.yul\":1742:2071   */\n      swap3\n      swap2\n      pop\n      pop\n      jump\t// out\n        /* \"#utility.yul\":2077:2404   */\n    tag_98:\n        /* \"#utility.yul\":2135:2141   */\n      0x00\n        /* \"#utility.yul\":2184:2186   */\n      0x20\n        /* \"#utility.yul\":2172:2181   */\n      dup3\n        /* \"#utility.yul\":2163:2170   */\n      dup5\n        /* \"#utility.yul\":2159:2182   */\n      sub\n        /* \"#utility.yul\":2155:2187   */\n      slt\n        /* \"#utility.yul\":2152:2271   */\n      iszero\n      tag_264\n      jumpi\n        /* \"#utility.yul\":2190:2269   */\n      tag_265\n      tag_253\n      jump\t// in\n    tag_265:\n        /* \"#utility.yul\":2152:2271   */\n    tag_264:\n        /* \"#utility.yul\":2310:2311   */\n      0x00\n        /* \"#utility.yul\":2335:2387   */\n      tag_266\n        /* \"#utility.yul\":2379:2386   */\n      dup5\n        /* \"#utility.yul\":2370:2376   */\n      dup3\n        /* \"#utility.yul\":2359:2368   */\n      dup6\n        /* \"#utility.yul\":2355:2377   */\n      add\n        /* \"#utility.yul\":2335:2387   */\n      tag_242\n      jump\t// in\n    tag_266:\n        /* \"#utility.yul\":2325:2387   */\n      swap2\n      pop\n        /* \"#utility.yul\":2281:2397   */\n      pop\n        /* \"#utility.yul\":2077:2404   */\n      swap3\n      swap2\n      pop\n      pop\n      jump\t// out\n        /* \"#utility.yul\":2410:3381   */\n    tag_128:\n        /* \"#utility.yul\":2513:2519   */\n      0x00\n        /* \"#utility.yul\":2521:2527   */\n      dup1\n        /* \"#utility.yul\":2529:2535   */\n      0x00\n        /* \"#utility.yul\":2537:2543   */\n      dup1\n        /* \"#utility.yul\":2545:2551   */\n      0x00\n        /* \"#utility.yul\":2594:2597   */\n      0xa0\n        /* \"#utility.yul\":2582:2591   */\n      dup7\n        /* \"#utility.yul\":2573:2580   */\n      dup9\n        /* \"#utility.yul\":2569:2592   */\n      sub\n        /* \"#utility.yul\":2565:2598   */\n      slt\n        /* \"#utility.yul\":2562:2682   */\n      iszero\n      tag_268\n      jumpi\n        /* \"#utility.yul\":2601:2680   */\n      tag_269\n      tag_253\n      jump\t// in\n    tag_269:\n        /* \"#utility.yul\":2562:2682   */\n    tag_268:\n        /* \"#utility.yul\":2721:2722   */\n      0x00\n        /* \"#utility.yul\":2746:2809   */\n      tag_270\n        /* \"#utility.yul\":2801:2808   */\n      dup9\n        /* \"#utility.yul\":2792:2798   */\n      dup3\n        /* \"#utility.yul\":2781:2790   */\n      dup10\n        /* \"#utility.yul\":2777:2799   */\n      add\n        /* \"#utility.yul\":2746:2809   */\n      tag_246\n      jump\t// in\n    tag_270:\n        /* \"#utility.yul\":2736:2809   */\n      swap6\n      pop\n        /* \"#utility.yul\":2692:2819   */\n      pop\n        /* \"#utility.yul\":2858:2860   */\n      0x20\n        /* \"#utility.yul\":2884:2947   */\n      tag_271\n        /* \"#utility.yul\":2939:2946   */\n      dup9\n        /* \"#utility.yul\":2930:2936   */\n      dup3\n        /* \"#utility.yul\":2919:2928   */\n      dup10\n        /* \"#utility.yul\":2915:2937   */\n      add\n        /* \"#utility.yul\":2884:2947   */\n      tag_231\n      jump\t// in\n    tag_271:\n        /* \"#utility.yul\":2874:2947   */\n      swap5\n      pop\n        /* \"#utility.yul\":2829:2957   */\n      pop\n        /* \"#utility.yul\":2996:2998   */\n      0x40\n        /* \"#utility.yul\":3022:3086   */\n      tag_272\n        /* \"#utility.yul\":3078:3085   */\n      dup9\n        /* \"#utility.yul\":3069:3075   */\n      dup3\n        /* \"#utility.yul\":3058:3067   */\n      dup10\n        /* \"#utility.yul\":3054:3076   */\n      add\n        /* \"#utility.yul\":3022:3086   */\n      tag_239\n      jump\t// in\n    tag_272:\n        /* \"#utility.yul\":3012:3086   */\n      swap4\n      pop\n        /* \"#utility.yul\":2967:3096   */\n      pop\n        /* \"#utility.yul\":3135:3137   */\n      0x60\n        /* \"#utility.yul\":3161:3225   */\n      tag_273\n        /* \"#utility.yul\":3217:3224   */\n      dup9\n        /* \"#utility.yul\":3208:3214   */\n      dup3\n        /* \"#utility.yul\":3197:3206   */\n      dup10\n        /* \"#utility.yul\":3193:3215   */\n      add\n        /* \"#utility.yul\":3161:3225   */\n      tag_239\n      jump\t// in\n    tag_273:\n        /* \"#utility.yul\":3151:3225   */\n      swap3\n      pop\n        /* \"#utility.yul\":3106:3235   */\n      pop\n        /* \"#utility.yul\":3274:3277   */\n      0x80\n        /* \"#utility.yul\":3301:3364   */\n      tag_274\n        /* \"#utility.yul\":3356:3363   */\n      dup9\n        /* \"#utility.yul\":3347:3353   */\n      dup3\n        /* \"#utility.yul\":3336:3345   */\n      dup10\n        /* \"#utility.yul\":3332:3354   */\n      add\n        /* \"#utility.yul\":3301:3364   */\n      tag_246\n      jump\t// in\n    tag_274:\n        /* \"#utility.yul\":3291:3364   */\n      swap2\n      pop\n        /* \"#utility.yul\":3245:3374   */\n      pop\n        /* \"#utility.yul\":2410:3381   */\n      swap3\n      swap6\n      pop\n      swap3\n      swap6\n      swap1\n      swap4\n      pop\n      jump\t// out\n        /* \"#utility.yul\":3387:3566   */\n    tag_275:\n        /* \"#utility.yul\":3456:3466   */\n      0x00\n        /* \"#utility.yul\":3477:3523   */\n      tag_277\n        /* \"#utility.yul\":3519:3522   */\n      dup4\n        /* \"#utility.yul\":3511:3517   */\n      dup4\n        /* \"#utility.yul\":3477:3523   */\n      tag_278\n      jump\t// in\n    tag_277:\n        /* \"#utility.yul\":3555:3559   */\n      0x20\n        /* \"#utility.yul\":3550:3553   */\n      dup4\n        /* \"#utility.yul\":3546:3560   */\n      add\n        /* \"#utility.yul\":3532:3560   */\n      swap1\n      pop\n        /* \"#utility.yul\":3387:3566   */\n      swap3\n      swap2\n      pop\n      pop\n      jump\t// out\n        /* \"#utility.yul\":3572:3690   */\n    tag_279:\n        /* \"#utility.yul\":3659:3683   */\n      tag_281\n        /* \"#utility.yul\":3677:3682   */\n      dup2\n        /* \"#utility.yul\":3659:3683   */\n      tag_282\n      jump\t// in\n    tag_281:\n        /* \"#utility.yul\":3654:3657   */\n      dup3\n        /* \"#utility.yul\":3647:3684   */\n      mstore\n        /* \"#utility.yul\":3572:3690   */\n      pop\n      pop\n      jump\t// out\n        /* \"#utility.yul\":3728:4422   */\n    tag_283:\n        /* \"#utility.yul\":3864:3916   */\n      tag_285\n        /* \"#utility.yul\":3910:3915   */\n      dup2\n        /* \"#utility.yul\":3864:3916   */\n      tag_286\n      jump\t// in\n    tag_285:\n        /* \"#utility.yul\":3932:4016   */\n      tag_287\n        /* \"#utility.yul\":4009:4015   */\n      dup2\n        /* \"#utility.yul\":4004:4007   */\n      dup5\n        /* \"#utility.yul\":3932:4016   */\n      tag_288\n      jump\t// in\n    tag_287:\n        /* \"#utility.yul\":3925:4016   */\n      swap3\n      pop\n        /* \"#utility.yul\":4040:4094   */\n      tag_289\n        /* \"#utility.yul\":4088:4093   */\n      dup3\n        /* \"#utility.yul\":4040:4094   */\n      tag_290\n      jump\t// in\n    tag_289:\n        /* \"#utility.yul\":4117:4124   */\n      dup1\n        /* \"#utility.yul\":4148:4149   */\n      0x00\n        /* \"#utility.yul\":4133:4415   */\n    tag_291:\n        /* \"#utility.yul\":4158:4164   */\n      dup4\n        /* \"#utility.yul\":4155:4156   */\n      dup2\n        /* \"#utility.yul\":4152:4165   */\n      lt\n        /* \"#utility.yul\":4133:4415   */\n      iszero\n      tag_293\n      jumpi\n        /* \"#utility.yul\":4234:4240   */\n      dup2\n        /* \"#utility.yul\":4228:4241   */\n      mload\n        /* \"#utility.yul\":4261:4324   */\n      tag_294\n        /* \"#utility.yul\":4320:4323   */\n      dup8\n        /* \"#utility.yul\":4305:4318   */\n      dup3\n        /* \"#utility.yul\":4261:4324   */\n      tag_275\n      jump\t// in\n    tag_294:\n        /* \"#utility.yul\":4254:4324   */\n      swap7\n      pop\n        /* \"#utility.yul\":4347:4405   */\n      tag_295\n        /* \"#utility.yul\":4398:4404   */\n      dup4\n        /* \"#utility.yul\":4347:4405   */\n      tag_296\n      jump\t// in\n    tag_295:\n        /* \"#utility.yul\":4337:4405   */\n      swap3\n      pop\n        /* \"#utility.yul\":4193:4415   */\n      pop\n        /* \"#utility.yul\":4180:4181   */\n      0x01\n        /* \"#utility.yul\":4177:4178   */\n      dup2\n        /* \"#utility.yul\":4173:4182   */\n      add\n        /* \"#utility.yul\":4168:4182   */\n      swap1\n      pop\n        /* \"#utility.yul\":4133:4415   */\n      jump(tag_291)\n    tag_293:\n        /* \"#utility.yul\":4137:4151   */\n      pop\n        /* \"#utility.yul\":3840:4422   */\n      pop\n      pop\n      pop\n        /* \"#utility.yul\":3728:4422   */\n      pop\n      pop\n      jump\t// out\n        /* \"#utility.yul\":4428:4577   */\n    tag_297:\n        /* \"#utility.yul\":4524:4570   */\n      tag_299\n        /* \"#utility.yul\":4564:4569   */\n      dup2\n        /* \"#utility.yul\":4524:4570   */\n      tag_300\n      jump\t// in\n    tag_299:\n        /* \"#utility.yul\":4519:4522   */\n      dup3\n        /* \"#utility.yul\":4512:4571   */\n      mstore\n        /* \"#utility.yul\":4428:4577   */\n      pop\n      pop\n      jump\t// out\n        /* \"#utility.yul\":4583:4949   */\n    tag_301:\n        /* \"#utility.yul\":4725:4728   */\n      0x00\n        /* \"#utility.yul\":4746:4813   */\n      tag_303\n        /* \"#utility.yul\":4810:4812   */\n      0x26\n        /* \"#utility.yul\":4805:4808   */\n      dup4\n        /* \"#utility.yul\":4746:4813   */\n      tag_304\n      jump\t// in\n    tag_303:\n        /* \"#utility.yul\":4739:4813   */\n      swap2\n      pop\n        /* \"#utility.yul\":4822:4915   */\n      tag_305\n        /* \"#utility.yul\":4911:4914   */\n      dup3\n        /* \"#utility.yul\":4822:4915   */\n      tag_306\n      jump\t// in\n    tag_305:\n        /* \"#utility.yul\":4940:4942   */\n      0x40\n        /* \"#utility.yul\":4935:4938   */\n      dup3\n        /* \"#utility.yul\":4931:4943   */\n      add\n        /* \"#utility.yul\":4924:4943   */\n      swap1\n      pop\n        /* \"#utility.yul\":4583:4949   */\n      swap2\n      swap1\n      pop\n      jump\t// out\n        /* \"#utility.yul\":4955:5321   */\n    tag_307:\n        /* \"#utility.yul\":5097:5100   */\n      0x00\n        /* \"#utility.yul\":5118:5185   */\n      tag_309\n        /* \"#utility.yul\":5182:5184   */\n      0x20\n        /* \"#utility.yul\":5177:5180   */\n      dup4\n        /* \"#utility.yul\":5118:5185   */\n      tag_304\n      jump\t// in\n    tag_309:\n        /* \"#utility.yul\":5111:5185   */\n      swap2\n      pop\n        /* \"#utility.yul\":5194:5287   */\n      tag_310\n        /* \"#utility.yul\":5283:5286   */\n      dup3\n        /* \"#utility.yul\":5194:5287   */\n      tag_311\n      jump\t// in\n    tag_310:\n        /* \"#utility.yul\":5312:5314   */\n      0x20\n        /* \"#utility.yul\":5307:5310   */\n      dup3\n        /* \"#utility.yul\":5303:5315   */\n      add\n        /* \"#utility.yul\":5296:5315   */\n      swap1\n      pop\n        /* \"#utility.yul\":4955:5321   */\n      swap2\n      swap1\n      pop\n      jump\t// out\n        /* \"#utility.yul\":5327:5435   */\n    tag_278:\n        /* \"#utility.yul\":5404:5428   */\n      tag_313\n        /* \"#utility.yul\":5422:5427   */\n      dup2\n        /* \"#utility.yul\":5404:5428   */\n      tag_314\n      jump\t// in\n    tag_313:\n        /* \"#utility.yul\":5399:5402   */\n      dup3\n        /* \"#utility.yul\":5392:5429   */\n      mstore\n        /* \"#utility.yul\":5327:5435   */\n      pop\n      pop\n      jump\t// out\n        /* \"#utility.yul\":5441:5559   */\n    tag_315:\n        /* \"#utility.yul\":5528:5552   */\n      tag_317\n        /* \"#utility.yul\":5546:5551   */\n      dup2\n        /* \"#utility.yul\":5528:5552   */\n      tag_314\n      jump\t// in\n    tag_317:\n        /* \"#utility.yul\":5523:5526   */\n      dup3\n        /* \"#utility.yul\":5516:5553   */\n      mstore\n        /* \"#utility.yul\":5441:5559   */\n      pop\n      pop\n      jump\t// out\n        /* \"#utility.yul\":5565:5680   */\n    tag_318:\n        /* \"#utility.yul\":5650:5673   */\n      tag_320\n        /* \"#utility.yul\":5667:5672   */\n      dup2\n        /* \"#utility.yul\":5650:5673   */\n      tag_321\n      jump\t// in\n    tag_320:\n        /* \"#utility.yul\":5645:5648   */\n      dup3\n        /* \"#utility.yul\":5638:5674   */\n      mstore\n        /* \"#utility.yul\":5565:5680   */\n      pop\n      pop\n      jump\t// out\n        /* \"#utility.yul\":5686:5908   */\n    tag_58:\n        /* \"#utility.yul\":5779:5783   */\n      0x00\n        /* \"#utility.yul\":5817:5819   */\n      0x20\n        /* \"#utility.yul\":5806:5815   */\n      dup3\n        /* \"#utility.yul\":5802:5820   */\n      add\n        /* \"#utility.yul\":5794:5820   */\n      swap1\n      pop\n        /* \"#utility.yul\":5830:5901   */\n      tag_323\n        /* \"#utility.yul\":5898:5899   */\n      0x00\n        /* \"#utility.yul\":5887:5896   */\n      dup4\n        /* \"#utility.yul\":5883:5900   */\n      add\n        /* \"#utility.yul\":5874:5880   */\n      dup5\n        /* \"#utility.yul\":5830:5901   */\n      tag_279\n      jump\t// in\n    tag_323:\n        /* \"#utility.yul\":5686:5908   */\n      swap3\n      swap2\n      pop\n      pop\n      jump\t// out\n        /* \"#utility.yul\":5914:6229   */\n    tag_90:\n        /* \"#utility.yul\":6053:6057   */\n      0x00\n        /* \"#utility.yul\":6091:6094   */\n      0xa0\n        /* \"#utility.yul\":6080:6089   */\n      dup3\n        /* \"#utility.yul\":6076:6095   */\n      add\n        /* \"#utility.yul\":6068:6095   */\n      swap1\n      pop\n        /* \"#utility.yul\":6105:6222   */\n      tag_325\n        /* \"#utility.yul\":6219:6220   */\n      0x00\n        /* \"#utility.yul\":6208:6217   */\n      dup4\n        /* \"#utility.yul\":6204:6221   */\n      add\n        /* \"#utility.yul\":6195:6201   */\n      dup5\n        /* \"#utility.yul\":6105:6222   */\n      tag_283\n      jump\t// in\n    tag_325:\n        /* \"#utility.yul\":5914:6229   */\n      swap3\n      swap2\n      pop\n      pop\n      jump\t// out\n        /* \"#utility.yul\":6235:6475   */\n    tag_39:\n        /* \"#utility.yul\":6337:6341   */\n      0x00\n        /* \"#utility.yul\":6375:6377   */\n      0x20\n        /* \"#utility.yul\":6364:6373   */\n      dup3\n        /* \"#utility.yul\":6360:6378   */\n      add\n        /* \"#utility.yul\":6352:6378   */\n      swap1\n      pop\n        /* \"#utility.yul\":6388:6468   */\n      tag_327\n        /* \"#utility.yul\":6465:6466   */\n      0x00\n        /* \"#utility.yul\":6454:6463   */\n      dup4\n        /* \"#utility.yul\":6450:6467   */\n      add\n        /* \"#utility.yul\":6441:6447   */\n      dup5\n        /* \"#utility.yul\":6388:6468   */\n      tag_297\n      jump\t// in\n    tag_327:\n        /* \"#utility.yul\":6235:6475   */\n      swap3\n      swap2\n      pop\n      pop\n      jump\t// out\n        /* \"#utility.yul\":6481:6900   */\n    tag_178:\n        /* \"#utility.yul\":6647:6651   */\n      0x00\n        /* \"#utility.yul\":6685:6687   */\n      0x20\n        /* \"#utility.yul\":6674:6683   */\n      dup3\n        /* \"#utility.yul\":6670:6688   */\n      add\n        /* \"#utility.yul\":6662:6688   */\n      swap1\n      pop\n        /* \"#utility.yul\":6734:6743   */\n      dup2\n        /* \"#utility.yul\":6728:6732   */\n      dup2\n        /* \"#utility.yul\":6724:6744   */\n      sub\n        /* \"#utility.yul\":6720:6721   */\n      0x00\n        /* \"#utility.yul\":6709:6718   */\n      dup4\n        /* \"#utility.yul\":6705:6722   */\n      add\n        /* \"#utility.yul\":6698:6745   */\n      mstore\n        /* \"#utility.yul\":6762:6893   */\n      tag_329\n        /* \"#utility.yul\":6888:6892   */\n      dup2\n        /* \"#utility.yul\":6762:6893   */\n      tag_301\n      jump\t// in\n    tag_329:\n        /* \"#utility.yul\":6754:6893   */\n      swap1\n      pop\n        /* \"#utility.yul\":6481:6900   */\n      swap2\n      swap1\n      pop\n      jump\t// out\n        /* \"#utility.yul\":6906:7325   */\n    tag_195:\n        /* \"#utility.yul\":7072:7076   */\n      0x00\n        /* \"#utility.yul\":7110:7112   */\n      0x20\n        /* \"#utility.yul\":7099:7108   */\n      dup3\n        /* \"#utility.yul\":7095:7113   */\n      add\n        /* \"#utility.yul\":7087:7113   */\n      swap1\n      pop\n        /* \"#utility.yul\":7159:7168   */\n      dup2\n        /* \"#utility.yul\":7153:7157   */\n      dup2\n        /* \"#utility.yul\":7149:7169   */\n      sub\n        /* \"#utility.yul\":7145:7146   */\n      0x00\n        /* \"#utility.yul\":7134:7143   */\n      dup4\n        /* \"#utility.yul\":7130:7147   */\n      add\n        /* \"#utility.yul\":7123:7170   */\n      mstore\n        /* \"#utility.yul\":7187:7318   */\n      tag_331\n        /* \"#utility.yul\":7313:7317   */\n      dup2\n        /* \"#utility.yul\":7187:7318   */\n      tag_307\n      jump\t// in\n    tag_331:\n        /* \"#utility.yul\":7179:7318   */\n      swap1\n      pop\n        /* \"#utility.yul\":6906:7325   */\n      swap2\n      swap1\n      pop\n      jump\t// out\n        /* \"#utility.yul\":7331:7553   */\n    tag_35:\n        /* \"#utility.yul\":7424:7428   */\n      0x00\n        /* \"#utility.yul\":7462:7464   */\n      0x20\n        /* \"#utility.yul\":7451:7460   */\n      dup3\n        /* \"#utility.yul\":7447:7465   */\n      add\n        /* \"#utility.yul\":7439:7465   */\n      swap1\n      pop\n        /* \"#utility.yul\":7475:7546   */\n      tag_333\n        /* \"#utility.yul\":7543:7544   */\n      0x00\n        /* \"#utility.yul\":7532:7541   */\n      dup4\n        /* \"#utility.yul\":7528:7545   */\n      add\n        /* \"#utility.yul\":7519:7525   */\n      dup5\n        /* \"#utility.yul\":7475:7546   */\n      tag_315\n      jump\t// in\n    tag_333:\n        /* \"#utility.yul\":7331:7553   */\n      swap3\n      swap2\n      pop\n      pop\n      jump\t// out\n        /* \"#utility.yul\":7559:7777   */\n    tag_51:\n        /* \"#utility.yul\":7650:7654   */\n      0x00\n        /* \"#utility.yul\":7688:7690   */\n      0x20\n        /* \"#utility.yul\":7677:7686   */\n      dup3\n        /* \"#utility.yul\":7673:7691   */\n      add\n        /* \"#utility.yul\":7665:7691   */\n      swap1\n      pop\n        /* \"#utility.yul\":7701:7770   */\n      tag_335\n        /* \"#utility.yul\":7767:7768   */\n      0x00\n        /* \"#utility.yul\":7756:7765   */\n      dup4\n        /* \"#utility.yul\":7752:7769   */\n      add\n        /* \"#utility.yul\":7743:7749   */\n      dup5\n        /* \"#utility.yul\":7701:7770   */\n      tag_318\n      jump\t// in\n    tag_335:\n        /* \"#utility.yul\":7559:7777   */\n      swap3\n      swap2\n      pop\n      pop\n      jump\t// out\n        /* \"#utility.yul\":7864:7962   */\n    tag_290:\n        /* \"#utility.yul\":7929:7933   */\n      0x00\n        /* \"#utility.yul\":7952:7955   */\n      dup2\n        /* \"#utility.yul\":7944:7955   */\n      swap1\n      pop\n        /* \"#utility.yul\":7864:7962   */\n      swap2\n      swap1\n      pop\n      jump\t// out\n        /* \"#utility.yul\":7968:8072   */\n    tag_286:\n        /* \"#utility.yul\":8033:8039   */\n      0x00\n        /* \"#utility.yul\":8061:8065   */\n      0x05\n        /* \"#utility.yul\":8051:8065   */\n      swap1\n      pop\n        /* \"#utility.yul\":7968:8072   */\n      swap2\n      swap1\n      pop\n      jump\t// out\n        /* \"#utility.yul\":8078:8189   */\n    tag_296:\n        /* \"#utility.yul\":8146:8150   */\n      0x00\n        /* \"#utility.yul\":8178:8182   */\n      0x20\n        /* \"#utility.yul\":8173:8176   */\n      dup3\n        /* \"#utility.yul\":8169:8183   */\n      add\n        /* \"#utility.yul\":8161:8183   */\n      swap1\n      pop\n        /* \"#utility.yul\":8078:8189   */\n      swap2\n      swap1\n      pop\n      jump\t// out\n        /* \"#utility.yul\":8195:8338   */\n    tag_288:\n        /* \"#utility.yul\":8292:8303   */\n      0x00\n        /* \"#utility.yul\":8329:8332   */\n      dup2\n        /* \"#utility.yul\":8314:8332   */\n      swap1\n      pop\n        /* \"#utility.yul\":8195:8338   */\n      swap3\n      swap2\n      pop\n      pop\n      jump\t// out\n        /* \"#utility.yul\":8344:8513   */\n    tag_304:\n        /* \"#utility.yul\":8428:8439   */\n      0x00\n        /* \"#utility.yul\":8462:8468   */\n      dup3\n        /* \"#utility.yul\":8457:8460   */\n      dup3\n        /* \"#utility.yul\":8450:8469   */\n      mstore\n        /* \"#utility.yul\":8502:8506   */\n      0x20\n        /* \"#utility.yul\":8497:8500   */\n      dup3\n        /* \"#utility.yul\":8493:8507   */\n      add\n        /* \"#utility.yul\":8478:8507   */\n      swap1\n      pop\n        /* \"#utility.yul\":8344:8513   */\n      swap3\n      swap2\n      pop\n      pop\n      jump\t// out\n        /* \"#utility.yul\":8519:8704   */\n    tag_188:\n        /* \"#utility.yul\":8559:8560   */\n      0x00\n        /* \"#utility.yul\":8576:8596   */\n      tag_344\n        /* \"#utility.yul\":8594:8595   */\n      dup3\n        /* \"#utility.yul\":8576:8596   */\n      tag_314\n      jump\t// in\n    tag_344:\n        /* \"#utility.yul\":8571:8596   */\n      swap2\n      pop\n        /* \"#utility.yul\":8610:8630   */\n      tag_345\n        /* \"#utility.yul\":8628:8629   */\n      dup4\n        /* \"#utility.yul\":8610:8630   */\n      tag_314\n      jump\t// in\n    tag_345:\n        /* \"#utility.yul\":8605:8630   */\n      swap3\n      pop\n        /* \"#utility.yul\":8649:8650   */\n      dup3\n        /* \"#utility.yul\":8639:8674   */\n      tag_346\n      jumpi\n        /* \"#utility.yul\":8654:8672   */\n      tag_347\n      tag_348\n      jump\t// in\n    tag_347:\n        /* \"#utility.yul\":8639:8674   */\n    tag_346:\n        /* \"#utility.yul\":8696:8697   */\n      dup3\n        /* \"#utility.yul\":8693:8694   */\n      dup3\n        /* \"#utility.yul\":8689:8698   */\n      div\n        /* \"#utility.yul\":8684:8698   */\n      swap1\n      pop\n        /* \"#utility.yul\":8519:8704   */\n      swap3\n      swap2\n      pop\n      pop\n      jump\t// out\n        /* \"#utility.yul\":8710:9058   */\n    tag_221:\n        /* \"#utility.yul\":8750:8757   */\n      0x00\n        /* \"#utility.yul\":8773:8793   */\n      tag_350\n        /* \"#utility.yul\":8791:8792   */\n      dup3\n        /* \"#utility.yul\":8773:8793   */\n      tag_314\n      jump\t// in\n    tag_350:\n        /* \"#utility.yul\":8768:8793   */\n      swap2\n      pop\n        /* \"#utility.yul\":8807:8827   */\n      tag_351\n        /* \"#utility.yul\":8825:8826   */\n      dup4\n        /* \"#utility.yul\":8807:8827   */\n      tag_314\n      jump\t// in\n    tag_351:\n        /* \"#utility.yul\":8802:8827   */\n      swap3\n      pop\n        /* \"#utility.yul\":8995:8996   */\n      dup2\n        /* \"#utility.yul\":8927:8993   */\n      0xffffffffffffffffffffffffffffffffffffffffffffffffffffffffffffffff\n        /* \"#utility.yul\":8923:8997   */\n      div\n        /* \"#utility.yul\":8920:8921   */\n      dup4\n        /* \"#utility.yul\":8917:8998   */\n      gt\n        /* \"#utility.yul\":8912:8913   */\n      dup3\n        /* \"#utility.yul\":8905:8914   */\n      iszero\n        /* \"#utility.yul\":8898:8915   */\n      iszero\n        /* \"#utility.yul\":8894:8999   */\n      and\n        /* \"#utility.yul\":8891:9022   */\n      iszero\n      tag_352\n      jumpi\n        /* \"#utility.yul\":9002:9020   */\n      tag_353\n      tag_354\n      jump\t// in\n    tag_353:\n        /* \"#utility.yul\":8891:9022   */\n    tag_352:\n        /* \"#utility.yul\":9050:9051   */\n      dup3\n        /* \"#utility.yul\":9047:9048   */\n      dup3\n        /* \"#utility.yul\":9043:9052   */\n      mul\n        /* \"#utility.yul\":9032:9052   */\n      swap1\n      pop\n        /* \"#utility.yul\":8710:9058   */\n      swap3\n      swap2\n      pop\n      pop\n      jump\t// out\n        /* \"#utility.yul\":9064:9255   */\n    tag_185:\n        /* \"#utility.yul\":9104:9108   */\n      0x00\n        /* \"#utility.yul\":9124:9144   */\n      tag_356\n        /* \"#utility.yul\":9142:9143   */\n      dup3\n        /* \"#utility.yul\":9124:9144   */\n      tag_314\n      jump\t// in\n    tag_356:\n        /* \"#utility.yul\":9119:9144   */\n      swap2\n      pop\n        /* \"#utility.yul\":9158:9178   */\n      tag_357\n        /* \"#utility.yul\":9176:9177   */\n      dup4\n        /* \"#utility.yul\":9158:9178   */\n      tag_314\n      jump\t// in\n    tag_357:\n        /* \"#utility.yul\":9153:9178   */\n      swap3\n      pop\n        /* \"#utility.yul\":9197:9198   */\n      dup3\n        /* \"#utility.yul\":9194:9195   */\n      dup3\n        /* \"#utility.yul\":9191:9199   */\n      lt\n        /* \"#utility.yul\":9188:9222   */\n      iszero\n      tag_358\n      jumpi\n        /* \"#utility.yul\":9202:9220   */\n      tag_359\n      tag_354\n      jump\t// in\n    tag_359:\n        /* \"#utility.yul\":9188:9222   */\n    tag_358:\n        /* \"#utility.yul\":9247:9248   */\n      dup3\n        /* \"#utility.yul\":9244:9245   */\n      dup3\n        /* \"#utility.yul\":9240:9249   */\n      sub\n        /* \"#utility.yul\":9232:9249   */\n      swap1\n      pop\n        /* \"#utility.yul\":9064:9255   */\n      swap3\n      swap2\n      pop\n      pop\n      jump\t// out\n        /* \"#utility.yul\":9261:9357   */\n    tag_282:\n        /* \"#utility.yul\":9298:9305   */\n      0x00\n        /* \"#utility.yul\":9327:9351   */\n      tag_361\n        /* \"#utility.yul\":9345:9350   */\n      dup3\n        /* \"#utility.yul\":9327:9351   */\n      tag_362\n      jump\t// in\n    tag_361:\n        /* \"#utility.yul\":9316:9351   */\n      swap1\n      pop\n        /* \"#utility.yul\":9261:9357   */\n      swap2\n      swap1\n      pop\n      jump\t// out\n        /* \"#utility.yul\":9363:9496   */\n    tag_363:\n        /* \"#utility.yul\":9411:9418   */\n      0x00\n        /* \"#utility.yul\":9440:9445   */\n      dup2\n        /* \"#utility.yul\":9429:9445   */\n      swap1\n      pop\n        /* \"#utility.yul\":9446:9490   */\n      tag_365\n        /* \"#utility.yul\":9484:9489   */\n      dup3\n        /* \"#utility.yul\":9446:9490   */\n      tag_366\n      jump\t// in\n    tag_365:\n        /* \"#utility.yul\":9363:9496   */\n      swap2\n      swap1\n      pop\n      jump\t// out\n        /* \"#utility.yul\":9502:9578   */\n    tag_367:\n        /* \"#utility.yul\":9538:9545   */\n      0x00\n        /* \"#utility.yul\":9567:9572   */\n      dup2\n        /* \"#utility.yul\":9556:9572   */\n      swap1\n      pop\n        /* \"#utility.yul\":9502:9578   */\n      swap2\n      swap1\n      pop\n      jump\t// out\n        /* \"#utility.yul\":9584:9710   */\n    tag_362:\n        /* \"#utility.yul\":9621:9628   */\n      0x00\n        /* \"#utility.yul\":9661:9703   */\n      0xffffffffffffffffffffffffffffffffffffffff\n        /* \"#utility.yul\":9654:9659   */\n      dup3\n        /* \"#utility.yul\":9650:9704   */\n      and\n        /* \"#utility.yul\":9639:9704   */\n      swap1\n      pop\n        /* \"#utility.yul\":9584:9710   */\n      swap2\n      swap1\n      pop\n      jump\t// out\n        /* \"#utility.yul\":9716:9793   */\n    tag_314:\n        /* \"#utility.yul\":9753:9760   */\n      0x00\n        /* \"#utility.yul\":9782:9787   */\n      dup2\n        /* \"#utility.yul\":9771:9787   */\n      swap1\n      pop\n        /* \"#utility.yul\":9716:9793   */\n      swap2\n      swap1\n      pop\n      jump\t// out\n        /* \"#utility.yul\":9799:9892   */\n    tag_321:\n        /* \"#utility.yul\":9835:9842   */\n      0x00\n        /* \"#utility.yul\":9875:9885   */\n      0xffffffff\n        /* \"#utility.yul\":9868:9873   */\n      dup3\n        /* \"#utility.yul\":9864:9886   */\n      and\n        /* \"#utility.yul\":9853:9886   */\n      swap1\n      pop\n        /* \"#utility.yul\":9799:9892   */\n      swap2\n      swap1\n      pop\n      jump\t// out\n        /* \"#utility.yul\":9898:10003   */\n    tag_372:\n        /* \"#utility.yul\":9934:9941   */\n      0x00\n        /* \"#utility.yul\":9974:9996   */\n      0xffffffffffffffffffff\n        /* \"#utility.yul\":9967:9972   */\n      dup3\n        /* \"#utility.yul\":9963:9997   */\n      and\n        /* \"#utility.yul\":9952:9997   */\n      swap1\n      pop\n        /* \"#utility.yul\":9898:10003   */\n      swap2\n      swap1\n      pop\n      jump\t// out\n        /* \"#utility.yul\":10009:10142   */\n    tag_300:\n        /* \"#utility.yul\":10068:10077   */\n      0x00\n        /* \"#utility.yul\":10101:10136   */\n      tag_375\n        /* \"#utility.yul\":10130:10135   */\n      dup3\n        /* \"#utility.yul\":10101:10136   */\n      tag_363\n      jump\t// in\n    tag_375:\n        /* \"#utility.yul\":10088:10136   */\n      swap1\n      pop\n        /* \"#utility.yul\":10009:10142   */\n      swap2\n      swap1\n      pop\n      jump\t// out\n        /* \"#utility.yul\":10148:10328   */\n    tag_354:\n        /* \"#utility.yul\":10196:10273   */\n      0x4e487b7100000000000000000000000000000000000000000000000000000000\n        /* \"#utility.yul\":10193:10194   */\n      0x00\n        /* \"#utility.yul\":10186:10274   */\n      mstore\n        /* \"#utility.yul\":10293:10297   */\n      0x11\n        /* \"#utility.yul\":10290:10291   */\n      0x04\n        /* \"#utility.yul\":10283:10298   */\n      mstore\n        /* \"#utility.yul\":10317:10321   */\n      0x24\n        /* \"#utility.yul\":10314:10315   */\n      0x00\n        /* \"#utility.yul\":10307:10322   */\n      revert\n        /* \"#utility.yul\":10334:10514   */\n    tag_348:\n        /* \"#utility.yul\":10382:10459   */\n      0x4e487b7100000000000000000000000000000000000000000000000000000000\n        /* \"#utility.yul\":10379:10380   */\n      0x00\n        /* \"#utility.yul\":10372:10460   */\n      mstore\n        /* \"#utility.yul\":10479:10483   */\n      0x12\n        /* \"#utility.yul\":10476:10477   */\n      0x04\n        /* \"#utility.yul\":10469:10484   */\n      mstore\n        /* \"#utility.yul\":10503:10507   */\n      0x24\n        /* \"#utility.yul\":10500:10501   */\n      0x00\n        /* \"#utility.yul\":10493:10508   */\n      revert\n        /* \"#utility.yul\":10520:10700   */\n    tag_135:\n        /* \"#utility.yul\":10568:10645   */\n      0x4e487b7100000000000000000000000000000000000000000000000000000000\n        /* \"#utility.yul\":10565:10566   */\n      0x00\n        /* \"#utility.yul\":10558:10646   */\n      mstore\n        /* \"#utility.yul\":10665:10669   */\n      0x21\n        /* \"#utility.yul\":10662:10663   */\n      0x04\n        /* \"#utility.yul\":10655:10670   */\n      mstore\n        /* \"#utility.yul\":10689:10693   */\n      0x24\n        /* \"#utility.yul\":10686:10687   */\n      0x00\n        /* \"#utility.yul\":10679:10694   */\n      revert\n        /* \"#utility.yul\":10829:10946   */\n    tag_253:\n        /* \"#utility.yul\":10938:10939   */\n      0x00\n        /* \"#utility.yul\":10935:10936   */\n      dup1\n        /* \"#utility.yul\":10928:10940   */\n      revert\n        /* \"#utility.yul\":10952:11177   */\n    tag_306:\n        /* \"#utility.yul\":11092:11126   */\n      0x4f776e61626c653a206e6577206f776e657220697320746865207a65726f2061\n        /* \"#utility.yul\":11088:11089   */\n      0x00\n        /* \"#utility.yul\":11080:11086   */\n      dup3\n        /* \"#utility.yul\":11076:11090   */\n      add\n        /* \"#utility.yul\":11069:11127   */\n      mstore\n        /* \"#utility.yul\":11161:11169   */\n      0x6464726573730000000000000000000000000000000000000000000000000000\n        /* \"#utility.yul\":11156:11158   */\n      0x20\n        /* \"#utility.yul\":11148:11154   */\n      dup3\n        /* \"#utility.yul\":11144:11159   */\n      add\n        /* \"#utility.yul\":11137:11170   */\n      mstore\n        /* \"#utility.yul\":10952:11177   */\n      pop\n      jump\t// out\n        /* \"#utility.yul\":11183:11365   */\n    tag_311:\n        /* \"#utility.yul\":11323:11357   */\n      0x4f776e61626c653a2063616c6c6572206973206e6f7420746865206f776e6572\n        /* \"#utility.yul\":11319:11320   */\n      0x00\n        /* \"#utility.yul\":11311:11317   */\n      dup3\n        /* \"#utility.yul\":11307:11321   */\n      add\n        /* \"#utility.yul\":11300:11358   */\n      mstore\n        /* \"#utility.yul\":11183:11365   */\n      pop\n      jump\t// out\n        /* \"#utility.yul\":11371:11487   */\n    tag_366:\n        /* \"#utility.yul\":11455:11456   */\n      0x05\n        /* \"#utility.yul\":11448:11453   */\n      dup2\n        /* \"#utility.yul\":11445:11457   */\n      lt\n        /* \"#utility.yul\":11435:11481   */\n      tag_385\n      jumpi\n        /* \"#utility.yul\":11461:11479   */\n      tag_386\n      tag_135\n      jump\t// in\n    tag_386:\n        /* \"#utility.yul\":11435:11481   */\n    tag_385:\n        /* \"#utility.yul\":11371:11487   */\n      pop\n      jump\t// out\n        /* \"#utility.yul\":11493:11615   */\n    tag_226:\n        /* \"#utility.yul\":11566:11590   */\n      tag_388\n        /* \"#utility.yul\":11584:11589   */\n      dup2\n        /* \"#utility.yul\":11566:11590   */\n      tag_282\n      jump\t// in\n    tag_388:\n        /* \"#utility.yul\":11559:11564   */\n      dup2\n        /* \"#utility.yul\":11556:11591   */\n      eq\n        /* \"#utility.yul\":11546:11609   */\n      tag_389\n      jumpi\n        /* \"#utility.yul\":11605:11606   */\n      0x00\n        /* \"#utility.yul\":11602:11603   */\n      dup1\n        /* \"#utility.yul\":11595:11607   */\n      revert\n        /* \"#utility.yul\":11546:11609   */\n    tag_389:\n        /* \"#utility.yul\":11493:11615   */\n      pop\n      jump\t// out\n        /* \"#utility.yul\":11621:11731   */\n    tag_230:\n        /* \"#utility.yul\":11705:11706   */\n      0x05\n        /* \"#utility.yul\":11698:11703   */\n      dup2\n        /* \"#utility.yul\":11695:11707   */\n      lt\n        /* \"#utility.yul\":11685:11725   */\n      tag_391\n      jumpi\n        /* \"#utility.yul\":11721:11722   */\n      0x00\n        /* \"#utility.yul\":11718:11719   */\n      dup1\n        /* \"#utility.yul\":11711:11723   */\n      revert\n        /* \"#utility.yul\":11685:11725   */\n    tag_391:\n        /* \"#utility.yul\":11621:11731   */\n      pop\n      jump\t// out\n        /* \"#utility.yul\":11737:11857   */\n    tag_234:\n        /* \"#utility.yul\":11809:11832   */\n      tag_393\n        /* \"#utility.yul\":11826:11831   */\n      dup2\n        /* \"#utility.yul\":11809:11832   */\n      tag_367\n      jump\t// in\n    tag_393:\n        /* \"#utility.yul\":11802:11807   */\n      dup2\n        /* \"#utility.yul\":11799:11833   */\n      eq\n        /* \"#utility.yul\":11789:11851   */\n      tag_394\n      jumpi\n        /* \"#utility.yul\":11847:11848   */\n      0x00\n        /* \"#utility.yul\":11844:11845   */\n      dup1\n        /* \"#utility.yul\":11837:11849   */\n      revert\n        /* \"#utility.yul\":11789:11851   */\n    tag_394:\n        /* \"#utility.yul\":11737:11857   */\n      pop\n      jump\t// out\n        /* \"#utility.yul\":11863:11985   */\n    tag_238:\n        /* \"#utility.yul\":11936:11960   */\n      tag_396\n        /* \"#utility.yul\":11954:11959   */\n      dup2\n        /* \"#utility.yul\":11936:11960   */\n      tag_314\n      jump\t// in\n    tag_396:\n        /* \"#utility.yul\":11929:11934   */\n      dup2\n        /* \"#utility.yul\":11926:11961   */\n      eq\n        /* \"#utility.yul\":11916:11979   */\n      tag_397\n      jumpi\n        /* \"#utility.yul\":11975:11976   */\n      0x00\n        /* \"#utility.yul\":11972:11973   */\n      dup1\n        /* \"#utility.yul\":11965:11977   */\n      revert\n        /* \"#utility.yul\":11916:11979   */\n    tag_397:\n        /* \"#utility.yul\":11863:11985   */\n      pop\n      jump\t// out\n        /* \"#utility.yul\":11991:12111   */\n    tag_245:\n        /* \"#utility.yul\":12063:12086   */\n      tag_399\n        /* \"#utility.yul\":12080:12085   */\n      dup2\n        /* \"#utility.yul\":12063:12086   */\n      tag_321\n      jump\t// in\n    tag_399:\n        /* \"#utility.yul\":12056:12061   */\n      dup2\n        /* \"#utility.yul\":12053:12087   */\n      eq\n        /* \"#utility.yul\":12043:12105   */\n      tag_400\n      jumpi\n        /* \"#utility.yul\":12101:12102   */\n      0x00\n        /* \"#utility.yul\":12098:12099   */\n      dup1\n        /* \"#utility.yul\":12091:12103   */\n      revert\n        /* \"#utility.yul\":12043:12105   */\n    tag_400:\n        /* \"#utility.yul\":11991:12111   */\n      pop\n      jump\t// out\n        /* \"#utility.yul\":12117:12237   */\n    tag_249:\n        /* \"#utility.yul\":12189:12212   */\n      tag_402\n        /* \"#utility.yul\":12206:12211   */\n      dup2\n        /* \"#utility.yul\":12189:12212   */\n      tag_372\n      jump\t// in\n    tag_402:\n        /* \"#utility.yul\":12182:12187   */\n      dup2\n        /* \"#utility.yul\":12179:12213   */\n      eq\n        /* \"#utility.yul\":12169:12231   */\n      tag_403\n      jumpi\n        /* \"#utility.yul\":12227:12228   */\n      0x00\n        /* \"#utility.yul\":12224:12225   */\n      dup1\n        /* \"#utility.yul\":12217:12229   */\n      revert\n        /* \"#utility.yul\":12169:12231   */\n    tag_403:\n        /* \"#utility.yul\":12117:12237   */\n      pop\n      jump\t// out\n\n    auxdata: 0xa264697066735822122070940b11b5e1275d473cfff855f6b63bd716124b6ccd2b251bbaabbbed7ebbf864736f6c63430008070033\n}\n",
				"bytecode": {
					"linkReferences": {},
					"object": "60806040523480156200001157600080fd5b5060405162001c0d38038062001c0d8339818101604052810190620000379190620004d0565b620000576200004b6200036860201b60201c565b6200037060201b60201c565b73a39434a63a52e749f02807ae27335515ba4b07f76001600080815260200190815260200160002060006101000a81548173ffffffffffffffffffffffffffffffffffffffff021916908373ffffffffffffffffffffffffffffffffffffffff16021790555073d4a33860578de61dbabdc8bfdb98fd742fa7028e600160006001815260200190815260200160002060006101000a81548173ffffffffffffffffffffffffffffffffffffffff021916908373ffffffffffffffffffffffffffffffffffffffff1602179055507348731cf7e84dc94c5f84577882c14be11a5b7456600160006002815260200190815260200160002060006101000a81548173ffffffffffffffffffffffffffffffffffffffff021916908373ffffffffffffffffffffffffffffffffffffffff160217905550866003819055508560048190555084600581905550836006819055508260078190555081600a60146101000a81548163ffffffff021916908363ffffffff16021790555081600a60186101000a81548163ffffffff021916908363ffffffff160217905550620002126005546007546003546200043460201b62000a8d179092919060201c565b60088190555060008163ffffffff16148062000234575060018163ffffffff16145b8062000246575060028163ffffffff16145b62000288576040517f08c379a00000000000000000000000000000000000000000000000000000000081526004016200027f90620005aa565b60405180910390fd5b80600a601c6101000a81548163ffffffff021916908363ffffffff1602179055506000600960006101000a81548173ffffffffffffffffffffffffffffffffffffffff021916908373ffffffffffffffffffffffffffffffffffffffff1602179055506000600a60006101000a81548173ffffffffffffffffffffffffffffffffffffffff021916908373ffffffffffffffffffffffffffffffffffffffff1602179055506001600260006101000a81548160ff02191690836004811115620003565762000355620006c8565b5b02179055505050505050505062000759565b600033905090565b60008060009054906101000a900473ffffffffffffffffffffffffffffffffffffffff169050816000806101000a81548173ffffffffffffffffffffffffffffffffffffffff021916908373ffffffffffffffffffffffffffffffffffffffff1602179055508173ffffffffffffffffffffffffffffffffffffffff168173ffffffffffffffffffffffffffffffffffffffff167f8be0079c531659141344cd1fd0a4f28419497f9722a3daafe3b4186f6b6457e060405160405180910390a35050565b6000620004696200045484866200047260201b62000abd1790919060201c565b836200048a60201b62000ad31790919060201c565b90509392505050565b6000818362000482919062000615565b905092915050565b600081836200049a9190620005dd565b905092915050565b600081519050620004b38162000725565b92915050565b600081519050620004ca816200073f565b92915050565b600080600080600080600060e0888a031215620004f257620004f1620006f7565b5b6000620005028a828b01620004a2565b9750506020620005158a828b01620004a2565b9650506040620005288a828b01620004a2565b95505060606200053b8a828b01620004a2565b94505060806200054e8a828b01620004a2565b93505060a0620005618a828b01620004b9565b92505060c0620005748a828b01620004b9565b91505092959891949750929550565b600062000592601483620005cc565b91506200059f82620006fc565b602082019050919050565b60006020820190508181036000830152620005c58162000583565b9050919050565b600082825260208201905092915050565b6000620005ea8262000650565b9150620005f78362000650565b9250826200060a576200060962000699565b5b828204905092915050565b6000620006228262000650565b91506200062f8362000650565b9250828210156200064557620006446200066a565b5b828203905092915050565b6000819050919050565b600063ffffffff82169050919050565b7f4e487b7100000000000000000000000000000000000000000000000000000000600052601160045260246000fd5b7f4e487b7100000000000000000000000000000000000000000000000000000000600052601260045260246000fd5b7f4e487b7100000000000000000000000000000000000000000000000000000000600052602160045260246000fd5b600080fd5b7f4254433a302c204554483a312c204c494e4b3a32000000000000000000000000600082015250565b620007308162000650565b81146200073c57600080fd5b50565b6200074a816200065a565b81146200075657600080fd5b50565b6114a480620007696000396000f3fe608060405234801561001057600080fd5b50600436106101735760003560e01c8063a2e800ad116100de578063d2895e9311610097578063e0a73a9311610071578063e0a73a9314610422578063e99d286614610440578063f26cc58e14610470578063f2fde38b1461048e57610173565b8063d2895e93146103b6578063dbd0e1b6146103e6578063dd22db801461040457610173565b8063a2e800ad146102de578063a3f09ad6146102fc578063a607a8d91461032c578063b6fc2d5f1461034a578063bd9a548b14610368578063bef904e31461038657610173565b8063603daf9a11610130578063603daf9a1461023e578063715018a61461025c578063762db7ee1461026657806386be75b7146102845780638a568299146102a25780638da5cb5b146102c057610173565b806315d655c914610178578063200d2ed2146101965780632dddd49c146101b45780632e49d78b146101d25780633fe3347a146102025780634c1786ea14610220575b600080fd5b6101806104aa565b60405161018d9190611109565b60405180910390f35b61019e6104b0565b6040516101ab91906110ae565b60405180910390f35b6101bc6104c3565b6040516101c99190611109565b60405180910390f35b6101ec60048036038101906101e79190610e76565b610585565b6040516101f991906110ae565b60405180910390f35b61020a6105d0565b6040516102179190611124565b60405180910390f35b6102286105e6565b6040516102359190611109565b60405180910390f35b6102466105ec565b6040516102539190611078565b60405180910390f35b610264610616565b005b61026e61062a565b60405161027b9190611109565b60405180910390f35b61028c610630565b6040516102999190611109565b60405180910390f35b6102aa610636565b6040516102b79190611124565b60405180910390f35b6102c861064c565b6040516102d59190611078565b60405180910390f35b6102e6610675565b6040516102f39190611124565b60405180910390f35b61031660048036038101906103119190610e49565b61068b565b6040516103239190611078565b60405180910390f35b610334610700565b6040516103419190611109565b60405180910390f35b6103526107c2565b60405161035f9190611109565b60405180910390f35b6103706107c8565b60405161037d9190611093565b60405180910390f35b6103a0600480360381019061039b9190610ea3565b610806565b6040516103ad9190611109565b60405180910390f35b6103d060048036038101906103cb9190610ed0565b610819565b6040516103dd9190611124565b60405180910390f35b6103ee61085e565b6040516103fb9190611078565b60405180910390f35b61040c610888565b6040516104199190611109565b60405180910390f35b61042a610949565b6040516104379190611109565b60405180910390f35b61045a60048036038101906104559190610e49565b61094f565b6040516104679190611078565b60405180910390f35b6104786109c4565b6040516104859190611109565b60405180910390f35b6104a860048036038101906104a39190610e49565b610a09565b005b60045481565b600260009054906101000a900460ff1681565b600080600160006002815260200190815260200160002060009054906101000a900473ffffffffffffffffffffffffffffffffffffffff1673ffffffffffffffffffffffffffffffffffffffff1663feaf968c6040518163ffffffff1660e01b815260040160a06040518083038186803b15801561054057600080fd5b505afa158015610554573d6000803e3d6000fd5b505050506040513d601f19601f820116820180604052508101906105789190610efd565b5050509150508091505090565b600061058f610ae9565b81600260006101000a81548160ff021916908360048111156105b4576105b361132b565b5b0217905550600260009054906101000a900460ff169050919050565b600a601c9054906101000a900463ffffffff1681565b60075481565b6000600960009054906101000a900473ffffffffffffffffffffffffffffffffffffffff16905090565b61061e610ae9565b6106286000610b67565b565b60085481565b60035481565b600a60189054906101000a900463ffffffff1681565b60008060009054906101000a900473ffffffffffffffffffffffffffffffffffffffff16905090565b600a60149054906101000a900463ffffffff1681565b6000610695610ae9565b81600960006101000a81548173ffffffffffffffffffffffffffffffffffffffff021916908373ffffffffffffffffffffffffffffffffffffffff160217905550600960009054906101000a900473ffffffffffffffffffffffffffffffffffffffff169050919050565b600080600160006001815260200190815260200160002060009054906101000a900473ffffffffffffffffffffffffffffffffffffffff1673ffffffffffffffffffffffffffffffffffffffff1663feaf968c6040518163ffffffff1660e01b815260040160a06040518083038186803b15801561077d57600080fd5b505afa158015610791573d6000803e3d6000fd5b505050506040513d601f19601f820116820180604052508101906107b59190610efd565b5050509150508091505090565b60055481565b6107d0610d94565b6040518060a001604052806003548152602001600454815260200160055481526020016006548152602001600754815250905090565b6000816003819055506003549050919050565b6000610823610ae9565b81600a60146101000a81548163ffffffff021916908363ffffffff160217905550600a60149054906101000a900463ffffffff169050919050565b6000600a60009054906101000a900473ffffffffffffffffffffffffffffffffffffffff16905090565b6000806001600080815260200190815260200160002060009054906101000a900473ffffffffffffffffffffffffffffffffffffffff1673ffffffffffffffffffffffffffffffffffffffff1663feaf968c6040518163ffffffff1660e01b815260040160a06040518083038186803b15801561090457600080fd5b505afa158015610918573d6000803e3d6000fd5b505050506040513d601f19601f8201168201806040525081019061093c9190610efd565b5050509150508091505090565b60065481565b6000610959610ae9565b81600a60006101000a81548173ffffffffffffffffffffffffffffffffffffffff021916908373ffffffffffffffffffffffffffffffffffffffff160217905550600a60009054906101000a900473ffffffffffffffffffffffffffffffffffffffff169050919050565b6000806109cf610c2b565b90508060045410156109e5576000915050610a06565b610a0260055460035483600754610d06909392919063ffffffff16565b9150505b90565b610a11610ae9565b600073ffffffffffffffffffffffffffffffffffffffff168173ffffffffffffffffffffffffffffffffffffffff161415610a81576040517f08c379a0000000000000000000000000000000000000000000000000000000008152600401610a78906110c9565b60405180910390fd5b610a8a81610b67565b50565b6000610ab4610aa58486610abd90919063ffffffff16565b83610ad390919063ffffffff16565b90509392505050565b60008183610acb9190611208565b905092915050565b60008183610ae1919061117d565b905092915050565b610af1610d76565b73ffffffffffffffffffffffffffffffffffffffff16610b0f61064c565b73ffffffffffffffffffffffffffffffffffffffff1614610b65576040517f08c379a0000000000000000000000000000000000000000000000000000000008152600401610b5c906110e9565b60405180910390fd5b565b60008060009054906101000a900473ffffffffffffffffffffffffffffffffffffffff169050816000806101000a81548173ffffffffffffffffffffffffffffffffffffffff021916908373ffffffffffffffffffffffffffffffffffffffff1602179055508173ffffffffffffffffffffffffffffffffffffffff168173ffffffffffffffffffffffffffffffffffffffff167f8be0079c531659141344cd1fd0a4f28419497f9722a3daafe3b4186f6b6457e060405160405180910390a35050565b600080600a601c9054906101000a900463ffffffff1663ffffffff161415610c7257610c6b6305f5e100610c5d610888565b610ad390919063ffffffff16565b9050610d03565b6001600a601c9054906101000a900463ffffffff1663ffffffff161415610cb857610cb16305f5e100610ca3610700565b610ad390919063ffffffff16565b9050610d03565b6002600a601c9054906101000a900463ffffffff1663ffffffff161415610cfe57610cf76305f5e100610ce96104c3565b610ad390919063ffffffff16565b9050610d03565b600090505b90565b600080828510610d1857859050610d6a565b6000610d3f610d308787610abd90919063ffffffff16565b88610ad390919063ffffffff16565b9050610d66610d578587610abd90919063ffffffff16565b82610d7e90919063ffffffff16565b9150505b80915050949350505050565b600033905090565b60008183610d8c91906111ae565b905092915050565b6040518060a00160405280600590602082028036833780820191505090505090565b600081359050610dc5816113eb565b92915050565b600081359050610dda81611402565b92915050565b600081519050610def81611412565b92915050565b600081359050610e0481611429565b92915050565b600081519050610e1981611429565b92915050565b600081359050610e2e81611440565b92915050565b600081519050610e4381611457565b92915050565b600060208284031215610e5f57610e5e61135a565b5b6000610e6d84828501610db6565b91505092915050565b600060208284031215610e8c57610e8b61135a565b5b6000610e9a84828501610dcb565b91505092915050565b600060208284031215610eb957610eb861135a565b5b6000610ec784828501610df5565b91505092915050565b600060208284031215610ee657610ee561135a565b5b6000610ef484828501610e1f565b91505092915050565b600080600080600060a08688031215610f1957610f1861135a565b5b6000610f2788828901610e34565b9550506020610f3888828901610de0565b9450506040610f4988828901610e0a565b9350506060610f5a88828901610e0a565b9250506080610f6b88828901610e34565b9150509295509295909350565b6000610f84838361104b565b60208301905092915050565b610f998161123c565b82525050565b610fa881611149565b610fb28184611161565b9250610fbd8261113f565b8060005b83811015610fee578151610fd58782610f78565b9650610fe083611154565b925050600181019050610fc1565b505050505050565b610fff816112bb565b82525050565b600061101260268361116c565b915061101d8261135f565b604082019050919050565b600061103560208361116c565b9150611040826113ae565b602082019050919050565b6110548161128b565b82525050565b6110638161128b565b82525050565b61107281611295565b82525050565b600060208201905061108d6000830184610f90565b92915050565b600060a0820190506110a86000830184610f9f565b92915050565b60006020820190506110c36000830184610ff6565b92915050565b600060208201905081810360008301526110e281611005565b9050919050565b6000602082019050818103600083015261110281611028565b9050919050565b600060208201905061111e600083018461105a565b92915050565b60006020820190506111396000830184611069565b92915050565b6000819050919050565b600060059050919050565b6000602082019050919050565b600081905092915050565b600082825260208201905092915050565b60006111888261128b565b91506111938361128b565b9250826111a3576111a26112fc565b5b828204905092915050565b60006111b98261128b565b91506111c48361128b565b9250817fffffffffffffffffffffffffffffffffffffffffffffffffffffffffffffffff04831182151516156111fd576111fc6112cd565b5b828202905092915050565b60006112138261128b565b915061121e8361128b565b925082821015611231576112306112cd565b5b828203905092915050565b60006112478261126b565b9050919050565b600081905061125c826113d7565b919050565b6000819050919050565b600073ffffffffffffffffffffffffffffffffffffffff82169050919050565b6000819050919050565b600063ffffffff82169050919050565b600069ffffffffffffffffffff82169050919050565b60006112c68261124e565b9050919050565b7f4e487b7100000000000000000000000000000000000000000000000000000000600052601160045260246000fd5b7f4e487b7100000000000000000000000000000000000000000000000000000000600052601260045260246000fd5b7f4e487b7100000000000000000000000000000000000000000000000000000000600052602160045260246000fd5b600080fd5b7f4f776e61626c653a206e6577206f776e657220697320746865207a65726f206160008201527f6464726573730000000000000000000000000000000000000000000000000000602082015250565b7f4f776e61626c653a2063616c6c6572206973206e6f7420746865206f776e6572600082015250565b600581106113e8576113e761132b565b5b50565b6113f48161123c565b81146113ff57600080fd5b50565b6005811061140f57600080fd5b50565b61141b81611261565b811461142657600080fd5b50565b6114328161128b565b811461143d57600080fd5b50565b61144981611295565b811461145457600080fd5b50565b611460816112a5565b811461146b57600080fd5b5056fea264697066735822122070940b11b5e1275d473cfff855f6b63bd716124b6ccd2b251bbaabbbed7ebbf864736f6c63430008070033",
					"opcodes": "PUSH1 0x80 PUSH1 0x40 MSTORE CALLVALUE DUP1 ISZERO PUSH3 0x11 JUMPI PUSH1 0x0 DUP1 REVERT JUMPDEST POP PUSH1 0x40 MLOAD PUSH3 0x1C0D CODESIZE SUB DUP1 PUSH3 0x1C0D DUP4 CODECOPY DUP2 DUP2 ADD PUSH1 0x40 MSTORE DUP2 ADD SWAP1 PUSH3 0x37 SWAP2 SWAP1 PUSH3 0x4D0 JUMP JUMPDEST PUSH3 0x57 PUSH3 0x4B PUSH3 0x368 PUSH1 0x20 SHL PUSH1 0x20 SHR JUMP JUMPDEST PUSH3 0x370 PUSH1 0x20 SHL PUSH1 0x20 SHR JUMP JUMPDEST PUSH20 0xA39434A63A52E749F02807AE27335515BA4B07F7 PUSH1 0x1 PUSH1 0x0 DUP1 DUP2 MSTORE PUSH1 0x20 ADD SWAP1 DUP2 MSTORE PUSH1 0x20 ADD PUSH1 0x0 KECCAK256 PUSH1 0x0 PUSH2 0x100 EXP DUP2 SLOAD DUP2 PUSH20 0xFFFFFFFFFFFFFFFFFFFFFFFFFFFFFFFFFFFFFFFF MUL NOT AND SWAP1 DUP4 PUSH20 0xFFFFFFFFFFFFFFFFFFFFFFFFFFFFFFFFFFFFFFFF AND MUL OR SWAP1 SSTORE POP PUSH20 0xD4A33860578DE61DBABDC8BFDB98FD742FA7028E PUSH1 0x1 PUSH1 0x0 PUSH1 0x1 DUP2 MSTORE PUSH1 0x20 ADD SWAP1 DUP2 MSTORE PUSH1 0x20 ADD PUSH1 0x0 KECCAK256 PUSH1 0x0 PUSH2 0x100 EXP DUP2 SLOAD DUP2 PUSH20 0xFFFFFFFFFFFFFFFFFFFFFFFFFFFFFFFFFFFFFFFF MUL NOT AND SWAP1 DUP4 PUSH20 0xFFFFFFFFFFFFFFFFFFFFFFFFFFFFFFFFFFFFFFFF AND MUL OR SWAP1 SSTORE POP PUSH20 0x48731CF7E84DC94C5F84577882C14BE11A5B7456 PUSH1 0x1 PUSH1 0x0 PUSH1 0x2 DUP2 MSTORE PUSH1 0x20 ADD SWAP1 DUP2 MSTORE PUSH1 0x20 ADD PUSH1 0x0 KECCAK256 PUSH1 0x0 PUSH2 0x100 EXP DUP2 SLOAD DUP2 PUSH20 0xFFFFFFFFFFFFFFFFFFFFFFFFFFFFFFFFFFFFFFFF MUL NOT AND SWAP1 DUP4 PUSH20 0xFFFFFFFFFFFFFFFFFFFFFFFFFFFFFFFFFFFFFFFF AND MUL OR SWAP1 SSTORE POP DUP7 PUSH1 0x3 DUP2 SWAP1 SSTORE POP DUP6 PUSH1 0x4 DUP2 SWAP1 SSTORE POP DUP5 PUSH1 0x5 DUP2 SWAP1 SSTORE POP DUP4 PUSH1 0x6 DUP2 SWAP1 SSTORE POP DUP3 PUSH1 0x7 DUP2 SWAP1 SSTORE POP DUP2 PUSH1 0xA PUSH1 0x14 PUSH2 0x100 EXP DUP2 SLOAD DUP2 PUSH4 0xFFFFFFFF MUL NOT AND SWAP1 DUP4 PUSH4 0xFFFFFFFF AND MUL OR SWAP1 SSTORE POP DUP2 PUSH1 0xA PUSH1 0x18 PUSH2 0x100 EXP DUP2 SLOAD DUP2 PUSH4 0xFFFFFFFF MUL NOT AND SWAP1 DUP4 PUSH4 0xFFFFFFFF AND MUL OR SWAP1 SSTORE POP PUSH3 0x212 PUSH1 0x5 SLOAD PUSH1 0x7 SLOAD PUSH1 0x3 SLOAD PUSH3 0x434 PUSH1 0x20 SHL PUSH3 0xA8D OR SWAP1 SWAP3 SWAP2 SWAP1 PUSH1 0x20 SHR JUMP JUMPDEST PUSH1 0x8 DUP2 SWAP1 SSTORE POP PUSH1 0x0 DUP2 PUSH4 0xFFFFFFFF AND EQ DUP1 PUSH3 0x234 JUMPI POP PUSH1 0x1 DUP2 PUSH4 0xFFFFFFFF AND EQ JUMPDEST DUP1 PUSH3 0x246 JUMPI POP PUSH1 0x2 DUP2 PUSH4 0xFFFFFFFF AND EQ JUMPDEST PUSH3 0x288 JUMPI PUSH1 0x40 MLOAD PUSH32 0x8C379A000000000000000000000000000000000000000000000000000000000 DUP2 MSTORE PUSH1 0x4 ADD PUSH3 0x27F SWAP1 PUSH3 0x5AA JUMP JUMPDEST PUSH1 0x40 MLOAD DUP1 SWAP2 SUB SWAP1 REVERT JUMPDEST DUP1 PUSH1 0xA PUSH1 0x1C PUSH2 0x100 EXP DUP2 SLOAD DUP2 PUSH4 0xFFFFFFFF MUL NOT AND SWAP1 DUP4 PUSH4 0xFFFFFFFF AND MUL OR SWAP1 SSTORE POP PUSH1 0x0 PUSH1 0x9 PUSH1 0x0 PUSH2 0x100 EXP DUP2 SLOAD DUP2 PUSH20 0xFFFFFFFFFFFFFFFFFFFFFFFFFFFFFFFFFFFFFFFF MUL NOT AND SWAP1 DUP4 PUSH20 0xFFFFFFFFFFFFFFFFFFFFFFFFFFFFFFFFFFFFFFFF AND MUL OR SWAP1 SSTORE POP PUSH1 0x0 PUSH1 0xA PUSH1 0x0 PUSH2 0x100 EXP DUP2 SLOAD DUP2 PUSH20 0xFFFFFFFFFFFFFFFFFFFFFFFFFFFFFFFFFFFFFFFF MUL NOT AND SWAP1 DUP4 PUSH20 0xFFFFFFFFFFFFFFFFFFFFFFFFFFFFFFFFFFFFFFFF AND MUL OR SWAP1 SSTORE POP PUSH1 0x1 PUSH1 0x2 PUSH1 0x0 PUSH2 0x100 EXP DUP2 SLOAD DUP2 PUSH1 0xFF MUL NOT AND SWAP1 DUP4 PUSH1 0x4 DUP2 GT ISZERO PUSH3 0x356 JUMPI PUSH3 0x355 PUSH3 0x6C8 JUMP JUMPDEST JUMPDEST MUL OR SWAP1 SSTORE POP POP POP POP POP POP POP POP PUSH3 0x759 JUMP JUMPDEST PUSH1 0x0 CALLER SWAP1 POP SWAP1 JUMP JUMPDEST PUSH1 0x0 DUP1 PUSH1 0x0 SWAP1 SLOAD SWAP1 PUSH2 0x100 EXP SWAP1 DIV PUSH20 0xFFFFFFFFFFFFFFFFFFFFFFFFFFFFFFFFFFFFFFFF AND SWAP1 POP DUP2 PUSH1 0x0 DUP1 PUSH2 0x100 EXP DUP2 SLOAD DUP2 PUSH20 0xFFFFFFFFFFFFFFFFFFFFFFFFFFFFFFFFFFFFFFFF MUL NOT AND SWAP1 DUP4 PUSH20 0xFFFFFFFFFFFFFFFFFFFFFFFFFFFFFFFFFFFFFFFF AND MUL OR SWAP1 SSTORE POP DUP2 PUSH20 0xFFFFFFFFFFFFFFFFFFFFFFFFFFFFFFFFFFFFFFFF AND DUP2 PUSH20 0xFFFFFFFFFFFFFFFFFFFFFFFFFFFFFFFFFFFFFFFF AND PUSH32 0x8BE0079C531659141344CD1FD0A4F28419497F9722A3DAAFE3B4186F6B6457E0 PUSH1 0x40 MLOAD PUSH1 0x40 MLOAD DUP1 SWAP2 SUB SWAP1 LOG3 POP POP JUMP JUMPDEST PUSH1 0x0 PUSH3 0x469 PUSH3 0x454 DUP5 DUP7 PUSH3 0x472 PUSH1 0x20 SHL PUSH3 0xABD OR SWAP1 SWAP2 SWAP1 PUSH1 0x20 SHR JUMP JUMPDEST DUP4 PUSH3 0x48A PUSH1 0x20 SHL PUSH3 0xAD3 OR SWAP1 SWAP2 SWAP1 PUSH1 0x20 SHR JUMP JUMPDEST SWAP1 POP SWAP4 SWAP3 POP POP POP JUMP JUMPDEST PUSH1 0x0 DUP2 DUP4 PUSH3 0x482 SWAP2 SWAP1 PUSH3 0x615 JUMP JUMPDEST SWAP1 POP SWAP3 SWAP2 POP POP JUMP JUMPDEST PUSH1 0x0 DUP2 DUP4 PUSH3 0x49A SWAP2 SWAP1 PUSH3 0x5DD JUMP JUMPDEST SWAP1 POP SWAP3 SWAP2 POP POP JUMP JUMPDEST PUSH1 0x0 DUP2 MLOAD SWAP1 POP PUSH3 0x4B3 DUP2 PUSH3 0x725 JUMP JUMPDEST SWAP3 SWAP2 POP POP JUMP JUMPDEST PUSH1 0x0 DUP2 MLOAD SWAP1 POP PUSH3 0x4CA DUP2 PUSH3 0x73F JUMP JUMPDEST SWAP3 SWAP2 POP POP JUMP JUMPDEST PUSH1 0x0 DUP1 PUSH1 0x0 DUP1 PUSH1 0x0 DUP1 PUSH1 0x0 PUSH1 0xE0 DUP9 DUP11 SUB SLT ISZERO PUSH3 0x4F2 JUMPI PUSH3 0x4F1 PUSH3 0x6F7 JUMP JUMPDEST JUMPDEST PUSH1 0x0 PUSH3 0x502 DUP11 DUP3 DUP12 ADD PUSH3 0x4A2 JUMP JUMPDEST SWAP8 POP POP PUSH1 0x20 PUSH3 0x515 DUP11 DUP3 DUP12 ADD PUSH3 0x4A2 JUMP JUMPDEST SWAP7 POP POP PUSH1 0x40 PUSH3 0x528 DUP11 DUP3 DUP12 ADD PUSH3 0x4A2 JUMP JUMPDEST SWAP6 POP POP PUSH1 0x60 PUSH3 0x53B DUP11 DUP3 DUP12 ADD PUSH3 0x4A2 JUMP JUMPDEST SWAP5 POP POP PUSH1 0x80 PUSH3 0x54E DUP11 DUP3 DUP12 ADD PUSH3 0x4A2 JUMP JUMPDEST SWAP4 POP POP PUSH1 0xA0 PUSH3 0x561 DUP11 DUP3 DUP12 ADD PUSH3 0x4B9 JUMP JUMPDEST SWAP3 POP POP PUSH1 0xC0 PUSH3 0x574 DUP11 DUP3 DUP12 ADD PUSH3 0x4B9 JUMP JUMPDEST SWAP2 POP POP SWAP3 SWAP6 SWAP9 SWAP2 SWAP5 SWAP8 POP SWAP3 SWAP6 POP JUMP JUMPDEST PUSH1 0x0 PUSH3 0x592 PUSH1 0x14 DUP4 PUSH3 0x5CC JUMP JUMPDEST SWAP2 POP PUSH3 0x59F DUP3 PUSH3 0x6FC JUMP JUMPDEST PUSH1 0x20 DUP3 ADD SWAP1 POP SWAP2 SWAP1 POP JUMP JUMPDEST PUSH1 0x0 PUSH1 0x20 DUP3 ADD SWAP1 POP DUP2 DUP2 SUB PUSH1 0x0 DUP4 ADD MSTORE PUSH3 0x5C5 DUP2 PUSH3 0x583 JUMP JUMPDEST SWAP1 POP SWAP2 SWAP1 POP JUMP JUMPDEST PUSH1 0x0 DUP3 DUP3 MSTORE PUSH1 0x20 DUP3 ADD SWAP1 POP SWAP3 SWAP2 POP POP JUMP JUMPDEST PUSH1 0x0 PUSH3 0x5EA DUP3 PUSH3 0x650 JUMP JUMPDEST SWAP2 POP PUSH3 0x5F7 DUP4 PUSH3 0x650 JUMP JUMPDEST SWAP3 POP DUP3 PUSH3 0x60A JUMPI PUSH3 0x609 PUSH3 0x699 JUMP JUMPDEST JUMPDEST DUP3 DUP3 DIV SWAP1 POP SWAP3 SWAP2 POP POP JUMP JUMPDEST PUSH1 0x0 PUSH3 0x622 DUP3 PUSH3 0x650 JUMP JUMPDEST SWAP2 POP PUSH3 0x62F DUP4 PUSH3 0x650 JUMP JUMPDEST SWAP3 POP DUP3 DUP3 LT ISZERO PUSH3 0x645 JUMPI PUSH3 0x644 PUSH3 0x66A JUMP JUMPDEST JUMPDEST DUP3 DUP3 SUB SWAP1 POP SWAP3 SWAP2 POP POP JUMP JUMPDEST PUSH1 0x0 DUP2 SWAP1 POP SWAP2 SWAP1 POP JUMP JUMPDEST PUSH1 0x0 PUSH4 0xFFFFFFFF DUP3 AND SWAP1 POP SWAP2 SWAP1 POP JUMP JUMPDEST PUSH32 0x4E487B7100000000000000000000000000000000000000000000000000000000 PUSH1 0x0 MSTORE PUSH1 0x11 PUSH1 0x4 MSTORE PUSH1 0x24 PUSH1 0x0 REVERT JUMPDEST PUSH32 0x4E487B7100000000000000000000000000000000000000000000000000000000 PUSH1 0x0 MSTORE PUSH1 0x12 PUSH1 0x4 MSTORE PUSH1 0x24 PUSH1 0x0 REVERT JUMPDEST PUSH32 0x4E487B7100000000000000000000000000000000000000000000000000000000 PUSH1 0x0 MSTORE PUSH1 0x21 PUSH1 0x4 MSTORE PUSH1 0x24 PUSH1 0x0 REVERT JUMPDEST PUSH1 0x0 DUP1 REVERT JUMPDEST PUSH32 0x4254433A302C204554483A312C204C494E4B3A32000000000000000000000000 PUSH1 0x0 DUP3 ADD MSTORE POP JUMP JUMPDEST PUSH3 0x730 DUP2 PUSH3 0x650 JUMP JUMPDEST DUP2 EQ PUSH3 0x73C JUMPI PUSH1 0x0 DUP1 REVERT JUMPDEST POP JUMP JUMPDEST PUSH3 0x74A DUP2 PUSH3 0x65A JUMP JUMPDEST DUP2 EQ PUSH3 0x756 JUMPI PUSH1 0x0 DUP1 REVERT JUMPDEST POP JUMP JUMPDEST PUSH2 0x14A4 DUP1 PUSH3 0x769 PUSH1 0x0 CODECOPY PUSH1 0x0 RETURN INVALID PUSH1 0x80 PUSH1 0x40 MSTORE CALLVALUE DUP1 ISZERO PUSH2 0x10 JUMPI PUSH1 0x0 DUP1 REVERT JUMPDEST POP PUSH1 0x4 CALLDATASIZE LT PUSH2 0x173 JUMPI PUSH1 0x0 CALLDATALOAD PUSH1 0xE0 SHR DUP1 PUSH4 0xA2E800AD GT PUSH2 0xDE JUMPI DUP1 PUSH4 0xD2895E93 GT PUSH2 0x97 JUMPI DUP1 PUSH4 0xE0A73A93 GT PUSH2 0x71 JUMPI DUP1 PUSH4 0xE0A73A93 EQ PUSH2 0x422 JUMPI DUP1 PUSH4 0xE99D2866 EQ PUSH2 0x440 JUMPI DUP1 PUSH4 0xF26CC58E EQ PUSH2 0x470 JUMPI DUP1 PUSH4 0xF2FDE38B EQ PUSH2 0x48E JUMPI PUSH2 0x173 JUMP JUMPDEST DUP1 PUSH4 0xD2895E93 EQ PUSH2 0x3B6 JUMPI DUP1 PUSH4 0xDBD0E1B6 EQ PUSH2 0x3E6 JUMPI DUP1 PUSH4 0xDD22DB80 EQ PUSH2 0x404 JUMPI PUSH2 0x173 JUMP JUMPDEST DUP1 PUSH4 0xA2E800AD EQ PUSH2 0x2DE JUMPI DUP1 PUSH4 0xA3F09AD6 EQ PUSH2 0x2FC JUMPI DUP1 PUSH4 0xA607A8D9 EQ PUSH2 0x32C JUMPI DUP1 PUSH4 0xB6FC2D5F EQ PUSH2 0x34A JUMPI DUP1 PUSH4 0xBD9A548B EQ PUSH2 0x368 JUMPI DUP1 PUSH4 0xBEF904E3 EQ PUSH2 0x386 JUMPI PUSH2 0x173 JUMP JUMPDEST DUP1 PUSH4 0x603DAF9A GT PUSH2 0x130 JUMPI DUP1 PUSH4 0x603DAF9A EQ PUSH2 0x23E JUMPI DUP1 PUSH4 0x715018A6 EQ PUSH2 0x25C JUMPI DUP1 PUSH4 0x762DB7EE EQ PUSH2 0x266 JUMPI DUP1 PUSH4 0x86BE75B7 EQ PUSH2 0x284 JUMPI DUP1 PUSH4 0x8A568299 EQ PUSH2 0x2A2 JUMPI DUP1 PUSH4 0x8DA5CB5B EQ PUSH2 0x2C0 JUMPI PUSH2 0x173 JUMP JUMPDEST DUP1 PUSH4 0x15D655C9 EQ PUSH2 0x178 JUMPI DUP1 PUSH4 0x200D2ED2 EQ PUSH2 0x196 JUMPI DUP1 PUSH4 0x2DDDD49C EQ PUSH2 0x1B4 JUMPI DUP1 PUSH4 0x2E49D78B EQ PUSH2 0x1D2 JUMPI DUP1 PUSH4 0x3FE3347A EQ PUSH2 0x202 JUMPI DUP1 PUSH4 0x4C1786EA EQ PUSH2 0x220 JUMPI JUMPDEST PUSH1 0x0 DUP1 REVERT JUMPDEST PUSH2 0x180 PUSH2 0x4AA JUMP JUMPDEST PUSH1 0x40 MLOAD PUSH2 0x18D SWAP2 SWAP1 PUSH2 0x1109 JUMP JUMPDEST PUSH1 0x40 MLOAD DUP1 SWAP2 SUB SWAP1 RETURN JUMPDEST PUSH2 0x19E PUSH2 0x4B0 JUMP JUMPDEST PUSH1 0x40 MLOAD PUSH2 0x1AB SWAP2 SWAP1 PUSH2 0x10AE JUMP JUMPDEST PUSH1 0x40 MLOAD DUP1 SWAP2 SUB SWAP1 RETURN JUMPDEST PUSH2 0x1BC PUSH2 0x4C3 JUMP JUMPDEST PUSH1 0x40 MLOAD PUSH2 0x1C9 SWAP2 SWAP1 PUSH2 0x1109 JUMP JUMPDEST PUSH1 0x40 MLOAD DUP1 SWAP2 SUB SWAP1 RETURN JUMPDEST PUSH2 0x1EC PUSH1 0x4 DUP1 CALLDATASIZE SUB DUP2 ADD SWAP1 PUSH2 0x1E7 SWAP2 SWAP1 PUSH2 0xE76 JUMP JUMPDEST PUSH2 0x585 JUMP JUMPDEST PUSH1 0x40 MLOAD PUSH2 0x1F9 SWAP2 SWAP1 PUSH2 0x10AE JUMP JUMPDEST PUSH1 0x40 MLOAD DUP1 SWAP2 SUB SWAP1 RETURN JUMPDEST PUSH2 0x20A PUSH2 0x5D0 JUMP JUMPDEST PUSH1 0x40 MLOAD PUSH2 0x217 SWAP2 SWAP1 PUSH2 0x1124 JUMP JUMPDEST PUSH1 0x40 MLOAD DUP1 SWAP2 SUB SWAP1 RETURN JUMPDEST PUSH2 0x228 PUSH2 0x5E6 JUMP JUMPDEST PUSH1 0x40 MLOAD PUSH2 0x235 SWAP2 SWAP1 PUSH2 0x1109 JUMP JUMPDEST PUSH1 0x40 MLOAD DUP1 SWAP2 SUB SWAP1 RETURN JUMPDEST PUSH2 0x246 PUSH2 0x5EC JUMP JUMPDEST PUSH1 0x40 MLOAD PUSH2 0x253 SWAP2 SWAP1 PUSH2 0x1078 JUMP JUMPDEST PUSH1 0x40 MLOAD DUP1 SWAP2 SUB SWAP1 RETURN JUMPDEST PUSH2 0x264 PUSH2 0x616 JUMP JUMPDEST STOP JUMPDEST PUSH2 0x26E PUSH2 0x62A JUMP JUMPDEST PUSH1 0x40 MLOAD PUSH2 0x27B SWAP2 SWAP1 PUSH2 0x1109 JUMP JUMPDEST PUSH1 0x40 MLOAD DUP1 SWAP2 SUB SWAP1 RETURN JUMPDEST PUSH2 0x28C PUSH2 0x630 JUMP JUMPDEST PUSH1 0x40 MLOAD PUSH2 0x299 SWAP2 SWAP1 PUSH2 0x1109 JUMP JUMPDEST PUSH1 0x40 MLOAD DUP1 SWAP2 SUB SWAP1 RETURN JUMPDEST PUSH2 0x2AA PUSH2 0x636 JUMP JUMPDEST PUSH1 0x40 MLOAD PUSH2 0x2B7 SWAP2 SWAP1 PUSH2 0x1124 JUMP JUMPDEST PUSH1 0x40 MLOAD DUP1 SWAP2 SUB SWAP1 RETURN JUMPDEST PUSH2 0x2C8 PUSH2 0x64C JUMP JUMPDEST PUSH1 0x40 MLOAD PUSH2 0x2D5 SWAP2 SWAP1 PUSH2 0x1078 JUMP JUMPDEST PUSH1 0x40 MLOAD DUP1 SWAP2 SUB SWAP1 RETURN JUMPDEST PUSH2 0x2E6 PUSH2 0x675 JUMP JUMPDEST PUSH1 0x40 MLOAD PUSH2 0x2F3 SWAP2 SWAP1 PUSH2 0x1124 JUMP JUMPDEST PUSH1 0x40 MLOAD DUP1 SWAP2 SUB SWAP1 RETURN JUMPDEST PUSH2 0x316 PUSH1 0x4 DUP1 CALLDATASIZE SUB DUP2 ADD SWAP1 PUSH2 0x311 SWAP2 SWAP1 PUSH2 0xE49 JUMP JUMPDEST PUSH2 0x68B JUMP JUMPDEST PUSH1 0x40 MLOAD PUSH2 0x323 SWAP2 SWAP1 PUSH2 0x1078 JUMP JUMPDEST PUSH1 0x40 MLOAD DUP1 SWAP2 SUB SWAP1 RETURN JUMPDEST PUSH2 0x334 PUSH2 0x700 JUMP JUMPDEST PUSH1 0x40 MLOAD PUSH2 0x341 SWAP2 SWAP1 PUSH2 0x1109 JUMP JUMPDEST PUSH1 0x40 MLOAD DUP1 SWAP2 SUB SWAP1 RETURN JUMPDEST PUSH2 0x352 PUSH2 0x7C2 JUMP JUMPDEST PUSH1 0x40 MLOAD PUSH2 0x35F SWAP2 SWAP1 PUSH2 0x1109 JUMP JUMPDEST PUSH1 0x40 MLOAD DUP1 SWAP2 SUB SWAP1 RETURN JUMPDEST PUSH2 0x370 PUSH2 0x7C8 JUMP JUMPDEST PUSH1 0x40 MLOAD PUSH2 0x37D SWAP2 SWAP1 PUSH2 0x1093 JUMP JUMPDEST PUSH1 0x40 MLOAD DUP1 SWAP2 SUB SWAP1 RETURN JUMPDEST PUSH2 0x3A0 PUSH1 0x4 DUP1 CALLDATASIZE SUB DUP2 ADD SWAP1 PUSH2 0x39B SWAP2 SWAP1 PUSH2 0xEA3 JUMP JUMPDEST PUSH2 0x806 JUMP JUMPDEST PUSH1 0x40 MLOAD PUSH2 0x3AD SWAP2 SWAP1 PUSH2 0x1109 JUMP JUMPDEST PUSH1 0x40 MLOAD DUP1 SWAP2 SUB SWAP1 RETURN JUMPDEST PUSH2 0x3D0 PUSH1 0x4 DUP1 CALLDATASIZE SUB DUP2 ADD SWAP1 PUSH2 0x3CB SWAP2 SWAP1 PUSH2 0xED0 JUMP JUMPDEST PUSH2 0x819 JUMP JUMPDEST PUSH1 0x40 MLOAD PUSH2 0x3DD SWAP2 SWAP1 PUSH2 0x1124 JUMP JUMPDEST PUSH1 0x40 MLOAD DUP1 SWAP2 SUB SWAP1 RETURN JUMPDEST PUSH2 0x3EE PUSH2 0x85E JUMP JUMPDEST PUSH1 0x40 MLOAD PUSH2 0x3FB SWAP2 SWAP1 PUSH2 0x1078 JUMP JUMPDEST PUSH1 0x40 MLOAD DUP1 SWAP2 SUB SWAP1 RETURN JUMPDEST PUSH2 0x40C PUSH2 0x888 JUMP JUMPDEST PUSH1 0x40 MLOAD PUSH2 0x419 SWAP2 SWAP1 PUSH2 0x1109 JUMP JUMPDEST PUSH1 0x40 MLOAD DUP1 SWAP2 SUB SWAP1 RETURN JUMPDEST PUSH2 0x42A PUSH2 0x949 JUMP JUMPDEST PUSH1 0x40 MLOAD PUSH2 0x437 SWAP2 SWAP1 PUSH2 0x1109 JUMP JUMPDEST PUSH1 0x40 MLOAD DUP1 SWAP2 SUB SWAP1 RETURN JUMPDEST PUSH2 0x45A PUSH1 0x4 DUP1 CALLDATASIZE SUB DUP2 ADD SWAP1 PUSH2 0x455 SWAP2 SWAP1 PUSH2 0xE49 JUMP JUMPDEST PUSH2 0x94F JUMP JUMPDEST PUSH1 0x40 MLOAD PUSH2 0x467 SWAP2 SWAP1 PUSH2 0x1078 JUMP JUMPDEST PUSH1 0x40 MLOAD DUP1 SWAP2 SUB SWAP1 RETURN JUMPDEST PUSH2 0x478 PUSH2 0x9C4 JUMP JUMPDEST PUSH1 0x40 MLOAD PUSH2 0x485 SWAP2 SWAP1 PUSH2 0x1109 JUMP JUMPDEST PUSH1 0x40 MLOAD DUP1 SWAP2 SUB SWAP1 RETURN JUMPDEST PUSH2 0x4A8 PUSH1 0x4 DUP1 CALLDATASIZE SUB DUP2 ADD SWAP1 PUSH2 0x4A3 SWAP2 SWAP1 PUSH2 0xE49 JUMP JUMPDEST PUSH2 0xA09 JUMP JUMPDEST STOP JUMPDEST PUSH1 0x4 SLOAD DUP2 JUMP JUMPDEST PUSH1 0x2 PUSH1 0x0 SWAP1 SLOAD SWAP1 PUSH2 0x100 EXP SWAP1 DIV PUSH1 0xFF AND DUP2 JUMP JUMPDEST PUSH1 0x0 DUP1 PUSH1 0x1 PUSH1 0x0 PUSH1 0x2 DUP2 MSTORE PUSH1 0x20 ADD SWAP1 DUP2 MSTORE PUSH1 0x20 ADD PUSH1 0x0 KECCAK256 PUSH1 0x0 SWAP1 SLOAD SWAP1 PUSH2 0x100 EXP SWAP1 DIV PUSH20 0xFFFFFFFFFFFFFFFFFFFFFFFFFFFFFFFFFFFFFFFF AND PUSH20 0xFFFFFFFFFFFFFFFFFFFFFFFFFFFFFFFFFFFFFFFF AND PUSH4 0xFEAF968C PUSH1 0x40 MLOAD DUP2 PUSH4 0xFFFFFFFF AND PUSH1 0xE0 SHL DUP2 MSTORE PUSH1 0x4 ADD PUSH1 0xA0 PUSH1 0x40 MLOAD DUP1 DUP4 SUB DUP2 DUP7 DUP1 EXTCODESIZE ISZERO DUP1 ISZERO PUSH2 0x540 JUMPI PUSH1 0x0 DUP1 REVERT JUMPDEST POP GAS STATICCALL ISZERO DUP1 ISZERO PUSH2 0x554 JUMPI RETURNDATASIZE PUSH1 0x0 DUP1 RETURNDATACOPY RETURNDATASIZE PUSH1 0x0 REVERT JUMPDEST POP POP POP POP PUSH1 0x40 MLOAD RETURNDATASIZE PUSH1 0x1F NOT PUSH1 0x1F DUP3 ADD AND DUP3 ADD DUP1 PUSH1 0x40 MSTORE POP DUP2 ADD SWAP1 PUSH2 0x578 SWAP2 SWAP1 PUSH2 0xEFD JUMP JUMPDEST POP POP POP SWAP2 POP POP DUP1 SWAP2 POP POP SWAP1 JUMP JUMPDEST PUSH1 0x0 PUSH2 0x58F PUSH2 0xAE9 JUMP JUMPDEST DUP2 PUSH1 0x2 PUSH1 0x0 PUSH2 0x100 EXP DUP2 SLOAD DUP2 PUSH1 0xFF MUL NOT AND SWAP1 DUP4 PUSH1 0x4 DUP2 GT ISZERO PUSH2 0x5B4 JUMPI PUSH2 0x5B3 PUSH2 0x132B JUMP JUMPDEST JUMPDEST MUL OR SWAP1 SSTORE POP PUSH1 0x2 PUSH1 0x0 SWAP1 SLOAD SWAP1 PUSH2 0x100 EXP SWAP1 DIV PUSH1 0xFF AND SWAP1 POP SWAP2 SWAP1 POP JUMP JUMPDEST PUSH1 0xA PUSH1 0x1C SWAP1 SLOAD SWAP1 PUSH2 0x100 EXP SWAP1 DIV PUSH4 0xFFFFFFFF AND DUP2 JUMP JUMPDEST PUSH1 0x7 SLOAD DUP2 JUMP JUMPDEST PUSH1 0x0 PUSH1 0x9 PUSH1 0x0 SWAP1 SLOAD SWAP1 PUSH2 0x100 EXP SWAP1 DIV PUSH20 0xFFFFFFFFFFFFFFFFFFFFFFFFFFFFFFFFFFFFFFFF AND SWAP1 POP SWAP1 JUMP JUMPDEST PUSH2 0x61E PUSH2 0xAE9 JUMP JUMPDEST PUSH2 0x628 PUSH1 0x0 PUSH2 0xB67 JUMP JUMPDEST JUMP JUMPDEST PUSH1 0x8 SLOAD DUP2 JUMP JUMPDEST PUSH1 0x3 SLOAD DUP2 JUMP JUMPDEST PUSH1 0xA PUSH1 0x18 SWAP1 SLOAD SWAP1 PUSH2 0x100 EXP SWAP1 DIV PUSH4 0xFFFFFFFF AND DUP2 JUMP JUMPDEST PUSH1 0x0 DUP1 PUSH1 0x0 SWAP1 SLOAD SWAP1 PUSH2 0x100 EXP SWAP1 DIV PUSH20 0xFFFFFFFFFFFFFFFFFFFFFFFFFFFFFFFFFFFFFFFF AND SWAP1 POP SWAP1 JUMP JUMPDEST PUSH1 0xA PUSH1 0x14 SWAP1 SLOAD SWAP1 PUSH2 0x100 EXP SWAP1 DIV PUSH4 0xFFFFFFFF AND DUP2 JUMP JUMPDEST PUSH1 0x0 PUSH2 0x695 PUSH2 0xAE9 JUMP JUMPDEST DUP2 PUSH1 0x9 PUSH1 0x0 PUSH2 0x100 EXP DUP2 SLOAD DUP2 PUSH20 0xFFFFFFFFFFFFFFFFFFFFFFFFFFFFFFFFFFFFFFFF MUL NOT AND SWAP1 DUP4 PUSH20 0xFFFFFFFFFFFFFFFFFFFFFFFFFFFFFFFFFFFFFFFF AND MUL OR SWAP1 SSTORE POP PUSH1 0x9 PUSH1 0x0 SWAP1 SLOAD SWAP1 PUSH2 0x100 EXP SWAP1 DIV PUSH20 0xFFFFFFFFFFFFFFFFFFFFFFFFFFFFFFFFFFFFFFFF AND SWAP1 POP SWAP2 SWAP1 POP JUMP JUMPDEST PUSH1 0x0 DUP1 PUSH1 0x1 PUSH1 0x0 PUSH1 0x1 DUP2 MSTORE PUSH1 0x20 ADD SWAP1 DUP2 MSTORE PUSH1 0x20 ADD PUSH1 0x0 KECCAK256 PUSH1 0x0 SWAP1 SLOAD SWAP1 PUSH2 0x100 EXP SWAP1 DIV PUSH20 0xFFFFFFFFFFFFFFFFFFFFFFFFFFFFFFFFFFFFFFFF AND PUSH20 0xFFFFFFFFFFFFFFFFFFFFFFFFFFFFFFFFFFFFFFFF AND PUSH4 0xFEAF968C PUSH1 0x40 MLOAD DUP2 PUSH4 0xFFFFFFFF AND PUSH1 0xE0 SHL DUP2 MSTORE PUSH1 0x4 ADD PUSH1 0xA0 PUSH1 0x40 MLOAD DUP1 DUP4 SUB DUP2 DUP7 DUP1 EXTCODESIZE ISZERO DUP1 ISZERO PUSH2 0x77D JUMPI PUSH1 0x0 DUP1 REVERT JUMPDEST POP GAS STATICCALL ISZERO DUP1 ISZERO PUSH2 0x791 JUMPI RETURNDATASIZE PUSH1 0x0 DUP1 RETURNDATACOPY RETURNDATASIZE PUSH1 0x0 REVERT JUMPDEST POP POP POP POP PUSH1 0x40 MLOAD RETURNDATASIZE PUSH1 0x1F NOT PUSH1 0x1F DUP3 ADD AND DUP3 ADD DUP1 PUSH1 0x40 MSTORE POP DUP2 ADD SWAP1 PUSH2 0x7B5 SWAP2 SWAP1 PUSH2 0xEFD JUMP JUMPDEST POP POP POP SWAP2 POP POP DUP1 SWAP2 POP POP SWAP1 JUMP JUMPDEST PUSH1 0x5 SLOAD DUP2 JUMP JUMPDEST PUSH2 0x7D0 PUSH2 0xD94 JUMP JUMPDEST PUSH1 0x40 MLOAD DUP1 PUSH1 0xA0 ADD PUSH1 0x40 MSTORE DUP1 PUSH1 0x3 SLOAD DUP2 MSTORE PUSH1 0x20 ADD PUSH1 0x4 SLOAD DUP2 MSTORE PUSH1 0x20 ADD PUSH1 0x5 SLOAD DUP2 MSTORE PUSH1 0x20 ADD PUSH1 0x6 SLOAD DUP2 MSTORE PUSH1 0x20 ADD PUSH1 0x7 SLOAD DUP2 MSTORE POP SWAP1 POP SWAP1 JUMP JUMPDEST PUSH1 0x0 DUP2 PUSH1 0x3 DUP2 SWAP1 SSTORE POP PUSH1 0x3 SLOAD SWAP1 POP SWAP2 SWAP1 POP JUMP JUMPDEST PUSH1 0x0 PUSH2 0x823 PUSH2 0xAE9 JUMP JUMPDEST DUP2 PUSH1 0xA PUSH1 0x14 PUSH2 0x100 EXP DUP2 SLOAD DUP2 PUSH4 0xFFFFFFFF MUL NOT AND SWAP1 DUP4 PUSH4 0xFFFFFFFF AND MUL OR SWAP1 SSTORE POP PUSH1 0xA PUSH1 0x14 SWAP1 SLOAD SWAP1 PUSH2 0x100 EXP SWAP1 DIV PUSH4 0xFFFFFFFF AND SWAP1 POP SWAP2 SWAP1 POP JUMP JUMPDEST PUSH1 0x0 PUSH1 0xA PUSH1 0x0 SWAP1 SLOAD SWAP1 PUSH2 0x100 EXP SWAP1 DIV PUSH20 0xFFFFFFFFFFFFFFFFFFFFFFFFFFFFFFFFFFFFFFFF AND SWAP1 POP SWAP1 JUMP JUMPDEST PUSH1 0x0 DUP1 PUSH1 0x1 PUSH1 0x0 DUP1 DUP2 MSTORE PUSH1 0x20 ADD SWAP1 DUP2 MSTORE PUSH1 0x20 ADD PUSH1 0x0 KECCAK256 PUSH1 0x0 SWAP1 SLOAD SWAP1 PUSH2 0x100 EXP SWAP1 DIV PUSH20 0xFFFFFFFFFFFFFFFFFFFFFFFFFFFFFFFFFFFFFFFF AND PUSH20 0xFFFFFFFFFFFFFFFFFFFFFFFFFFFFFFFFFFFFFFFF AND PUSH4 0xFEAF968C PUSH1 0x40 MLOAD DUP2 PUSH4 0xFFFFFFFF AND PUSH1 0xE0 SHL DUP2 MSTORE PUSH1 0x4 ADD PUSH1 0xA0 PUSH1 0x40 MLOAD DUP1 DUP4 SUB DUP2 DUP7 DUP1 EXTCODESIZE ISZERO DUP1 ISZERO PUSH2 0x904 JUMPI PUSH1 0x0 DUP1 REVERT JUMPDEST POP GAS STATICCALL ISZERO DUP1 ISZERO PUSH2 0x918 JUMPI RETURNDATASIZE PUSH1 0x0 DUP1 RETURNDATACOPY RETURNDATASIZE PUSH1 0x0 REVERT JUMPDEST POP POP POP POP PUSH1 0x40 MLOAD RETURNDATASIZE PUSH1 0x1F NOT PUSH1 0x1F DUP3 ADD AND DUP3 ADD DUP1 PUSH1 0x40 MSTORE POP DUP2 ADD SWAP1 PUSH2 0x93C SWAP2 SWAP1 PUSH2 0xEFD JUMP JUMPDEST POP POP POP SWAP2 POP POP DUP1 SWAP2 POP POP SWAP1 JUMP JUMPDEST PUSH1 0x6 SLOAD DUP2 JUMP JUMPDEST PUSH1 0x0 PUSH2 0x959 PUSH2 0xAE9 JUMP JUMPDEST DUP2 PUSH1 0xA PUSH1 0x0 PUSH2 0x100 EXP DUP2 SLOAD DUP2 PUSH20 0xFFFFFFFFFFFFFFFFFFFFFFFFFFFFFFFFFFFFFFFF MUL NOT AND SWAP1 DUP4 PUSH20 0xFFFFFFFFFFFFFFFFFFFFFFFFFFFFFFFFFFFFFFFF AND MUL OR SWAP1 SSTORE POP PUSH1 0xA PUSH1 0x0 SWAP1 SLOAD SWAP1 PUSH2 0x100 EXP SWAP1 DIV PUSH20 0xFFFFFFFFFFFFFFFFFFFFFFFFFFFFFFFFFFFFFFFF AND SWAP1 POP SWAP2 SWAP1 POP JUMP JUMPDEST PUSH1 0x0 DUP1 PUSH2 0x9CF PUSH2 0xC2B JUMP JUMPDEST SWAP1 POP DUP1 PUSH1 0x4 SLOAD LT ISZERO PUSH2 0x9E5 JUMPI PUSH1 0x0 SWAP2 POP POP PUSH2 0xA06 JUMP JUMPDEST PUSH2 0xA02 PUSH1 0x5 SLOAD PUSH1 0x3 SLOAD DUP4 PUSH1 0x7 SLOAD PUSH2 0xD06 SWAP1 SWAP4 SWAP3 SWAP2 SWAP1 PUSH4 0xFFFFFFFF AND JUMP JUMPDEST SWAP2 POP POP JUMPDEST SWAP1 JUMP JUMPDEST PUSH2 0xA11 PUSH2 0xAE9 JUMP JUMPDEST PUSH1 0x0 PUSH20 0xFFFFFFFFFFFFFFFFFFFFFFFFFFFFFFFFFFFFFFFF AND DUP2 PUSH20 0xFFFFFFFFFFFFFFFFFFFFFFFFFFFFFFFFFFFFFFFF AND EQ ISZERO PUSH2 0xA81 JUMPI PUSH1 0x40 MLOAD PUSH32 0x8C379A000000000000000000000000000000000000000000000000000000000 DUP2 MSTORE PUSH1 0x4 ADD PUSH2 0xA78 SWAP1 PUSH2 0x10C9 JUMP JUMPDEST PUSH1 0x40 MLOAD DUP1 SWAP2 SUB SWAP1 REVERT JUMPDEST PUSH2 0xA8A DUP2 PUSH2 0xB67 JUMP JUMPDEST POP JUMP JUMPDEST PUSH1 0x0 PUSH2 0xAB4 PUSH2 0xAA5 DUP5 DUP7 PUSH2 0xABD SWAP1 SWAP2 SWAP1 PUSH4 0xFFFFFFFF AND JUMP JUMPDEST DUP4 PUSH2 0xAD3 SWAP1 SWAP2 SWAP1 PUSH4 0xFFFFFFFF AND JUMP JUMPDEST SWAP1 POP SWAP4 SWAP3 POP POP POP JUMP JUMPDEST PUSH1 0x0 DUP2 DUP4 PUSH2 0xACB SWAP2 SWAP1 PUSH2 0x1208 JUMP JUMPDEST SWAP1 POP SWAP3 SWAP2 POP POP JUMP JUMPDEST PUSH1 0x0 DUP2 DUP4 PUSH2 0xAE1 SWAP2 SWAP1 PUSH2 0x117D JUMP JUMPDEST SWAP1 POP SWAP3 SWAP2 POP POP JUMP JUMPDEST PUSH2 0xAF1 PUSH2 0xD76 JUMP JUMPDEST PUSH20 0xFFFFFFFFFFFFFFFFFFFFFFFFFFFFFFFFFFFFFFFF AND PUSH2 0xB0F PUSH2 0x64C JUMP JUMPDEST PUSH20 0xFFFFFFFFFFFFFFFFFFFFFFFFFFFFFFFFFFFFFFFF AND EQ PUSH2 0xB65 JUMPI PUSH1 0x40 MLOAD PUSH32 0x8C379A000000000000000000000000000000000000000000000000000000000 DUP2 MSTORE PUSH1 0x4 ADD PUSH2 0xB5C SWAP1 PUSH2 0x10E9 JUMP JUMPDEST PUSH1 0x40 MLOAD DUP1 SWAP2 SUB SWAP1 REVERT JUMPDEST JUMP JUMPDEST PUSH1 0x0 DUP1 PUSH1 0x0 SWAP1 SLOAD SWAP1 PUSH2 0x100 EXP SWAP1 DIV PUSH20 0xFFFFFFFFFFFFFFFFFFFFFFFFFFFFFFFFFFFFFFFF AND SWAP1 POP DUP2 PUSH1 0x0 DUP1 PUSH2 0x100 EXP DUP2 SLOAD DUP2 PUSH20 0xFFFFFFFFFFFFFFFFFFFFFFFFFFFFFFFFFFFFFFFF MUL NOT AND SWAP1 DUP4 PUSH20 0xFFFFFFFFFFFFFFFFFFFFFFFFFFFFFFFFFFFFFFFF AND MUL OR SWAP1 SSTORE POP DUP2 PUSH20 0xFFFFFFFFFFFFFFFFFFFFFFFFFFFFFFFFFFFFFFFF AND DUP2 PUSH20 0xFFFFFFFFFFFFFFFFFFFFFFFFFFFFFFFFFFFFFFFF AND PUSH32 0x8BE0079C531659141344CD1FD0A4F28419497F9722A3DAAFE3B4186F6B6457E0 PUSH1 0x40 MLOAD PUSH1 0x40 MLOAD DUP1 SWAP2 SUB SWAP1 LOG3 POP POP JUMP JUMPDEST PUSH1 0x0 DUP1 PUSH1 0xA PUSH1 0x1C SWAP1 SLOAD SWAP1 PUSH2 0x100 EXP SWAP1 DIV PUSH4 0xFFFFFFFF AND PUSH4 0xFFFFFFFF AND EQ ISZERO PUSH2 0xC72 JUMPI PUSH2 0xC6B PUSH4 0x5F5E100 PUSH2 0xC5D PUSH2 0x888 JUMP JUMPDEST PUSH2 0xAD3 SWAP1 SWAP2 SWAP1 PUSH4 0xFFFFFFFF AND JUMP JUMPDEST SWAP1 POP PUSH2 0xD03 JUMP JUMPDEST PUSH1 0x1 PUSH1 0xA PUSH1 0x1C SWAP1 SLOAD SWAP1 PUSH2 0x100 EXP SWAP1 DIV PUSH4 0xFFFFFFFF AND PUSH4 0xFFFFFFFF AND EQ ISZERO PUSH2 0xCB8 JUMPI PUSH2 0xCB1 PUSH4 0x5F5E100 PUSH2 0xCA3 PUSH2 0x700 JUMP JUMPDEST PUSH2 0xAD3 SWAP1 SWAP2 SWAP1 PUSH4 0xFFFFFFFF AND JUMP JUMPDEST SWAP1 POP PUSH2 0xD03 JUMP JUMPDEST PUSH1 0x2 PUSH1 0xA PUSH1 0x1C SWAP1 SLOAD SWAP1 PUSH2 0x100 EXP SWAP1 DIV PUSH4 0xFFFFFFFF AND PUSH4 0xFFFFFFFF AND EQ ISZERO PUSH2 0xCFE JUMPI PUSH2 0xCF7 PUSH4 0x5F5E100 PUSH2 0xCE9 PUSH2 0x4C3 JUMP JUMPDEST PUSH2 0xAD3 SWAP1 SWAP2 SWAP1 PUSH4 0xFFFFFFFF AND JUMP JUMPDEST SWAP1 POP PUSH2 0xD03 JUMP JUMPDEST PUSH1 0x0 SWAP1 POP JUMPDEST SWAP1 JUMP JUMPDEST PUSH1 0x0 DUP1 DUP3 DUP6 LT PUSH2 0xD18 JUMPI DUP6 SWAP1 POP PUSH2 0xD6A JUMP JUMPDEST PUSH1 0x0 PUSH2 0xD3F PUSH2 0xD30 DUP8 DUP8 PUSH2 0xABD SWAP1 SWAP2 SWAP1 PUSH4 0xFFFFFFFF AND JUMP JUMPDEST DUP9 PUSH2 0xAD3 SWAP1 SWAP2 SWAP1 PUSH4 0xFFFFFFFF AND JUMP JUMPDEST SWAP1 POP PUSH2 0xD66 PUSH2 0xD57 DUP6 DUP8 PUSH2 0xABD SWAP1 SWAP2 SWAP1 PUSH4 0xFFFFFFFF AND JUMP JUMPDEST DUP3 PUSH2 0xD7E SWAP1 SWAP2 SWAP1 PUSH4 0xFFFFFFFF AND JUMP JUMPDEST SWAP2 POP POP JUMPDEST DUP1 SWAP2 POP POP SWAP5 SWAP4 POP POP POP POP JUMP JUMPDEST PUSH1 0x0 CALLER SWAP1 POP SWAP1 JUMP JUMPDEST PUSH1 0x0 DUP2 DUP4 PUSH2 0xD8C SWAP2 SWAP1 PUSH2 0x11AE JUMP JUMPDEST SWAP1 POP SWAP3 SWAP2 POP POP JUMP JUMPDEST PUSH1 0x40 MLOAD DUP1 PUSH1 0xA0 ADD PUSH1 0x40 MSTORE DUP1 PUSH1 0x5 SWAP1 PUSH1 0x20 DUP3 MUL DUP1 CALLDATASIZE DUP4 CALLDATACOPY DUP1 DUP3 ADD SWAP2 POP POP SWAP1 POP POP SWAP1 JUMP JUMPDEST PUSH1 0x0 DUP2 CALLDATALOAD SWAP1 POP PUSH2 0xDC5 DUP2 PUSH2 0x13EB JUMP JUMPDEST SWAP3 SWAP2 POP POP JUMP JUMPDEST PUSH1 0x0 DUP2 CALLDATALOAD SWAP1 POP PUSH2 0xDDA DUP2 PUSH2 0x1402 JUMP JUMPDEST SWAP3 SWAP2 POP POP JUMP JUMPDEST PUSH1 0x0 DUP2 MLOAD SWAP1 POP PUSH2 0xDEF DUP2 PUSH2 0x1412 JUMP JUMPDEST SWAP3 SWAP2 POP POP JUMP JUMPDEST PUSH1 0x0 DUP2 CALLDATALOAD SWAP1 POP PUSH2 0xE04 DUP2 PUSH2 0x1429 JUMP JUMPDEST SWAP3 SWAP2 POP POP JUMP JUMPDEST PUSH1 0x0 DUP2 MLOAD SWAP1 POP PUSH2 0xE19 DUP2 PUSH2 0x1429 JUMP JUMPDEST SWAP3 SWAP2 POP POP JUMP JUMPDEST PUSH1 0x0 DUP2 CALLDATALOAD SWAP1 POP PUSH2 0xE2E DUP2 PUSH2 0x1440 JUMP JUMPDEST SWAP3 SWAP2 POP POP JUMP JUMPDEST PUSH1 0x0 DUP2 MLOAD SWAP1 POP PUSH2 0xE43 DUP2 PUSH2 0x1457 JUMP JUMPDEST SWAP3 SWAP2 POP POP JUMP JUMPDEST PUSH1 0x0 PUSH1 0x20 DUP3 DUP5 SUB SLT ISZERO PUSH2 0xE5F JUMPI PUSH2 0xE5E PUSH2 0x135A JUMP JUMPDEST JUMPDEST PUSH1 0x0 PUSH2 0xE6D DUP5 DUP3 DUP6 ADD PUSH2 0xDB6 JUMP JUMPDEST SWAP2 POP POP SWAP3 SWAP2 POP POP JUMP JUMPDEST PUSH1 0x0 PUSH1 0x20 DUP3 DUP5 SUB SLT ISZERO PUSH2 0xE8C JUMPI PUSH2 0xE8B PUSH2 0x135A JUMP JUMPDEST JUMPDEST PUSH1 0x0 PUSH2 0xE9A DUP5 DUP3 DUP6 ADD PUSH2 0xDCB JUMP JUMPDEST SWAP2 POP POP SWAP3 SWAP2 POP POP JUMP JUMPDEST PUSH1 0x0 PUSH1 0x20 DUP3 DUP5 SUB SLT ISZERO PUSH2 0xEB9 JUMPI PUSH2 0xEB8 PUSH2 0x135A JUMP JUMPDEST JUMPDEST PUSH1 0x0 PUSH2 0xEC7 DUP5 DUP3 DUP6 ADD PUSH2 0xDF5 JUMP JUMPDEST SWAP2 POP POP SWAP3 SWAP2 POP POP JUMP JUMPDEST PUSH1 0x0 PUSH1 0x20 DUP3 DUP5 SUB SLT ISZERO PUSH2 0xEE6 JUMPI PUSH2 0xEE5 PUSH2 0x135A JUMP JUMPDEST JUMPDEST PUSH1 0x0 PUSH2 0xEF4 DUP5 DUP3 DUP6 ADD PUSH2 0xE1F JUMP JUMPDEST SWAP2 POP POP SWAP3 SWAP2 POP POP JUMP JUMPDEST PUSH1 0x0 DUP1 PUSH1 0x0 DUP1 PUSH1 0x0 PUSH1 0xA0 DUP7 DUP9 SUB SLT ISZERO PUSH2 0xF19 JUMPI PUSH2 0xF18 PUSH2 0x135A JUMP JUMPDEST JUMPDEST PUSH1 0x0 PUSH2 0xF27 DUP9 DUP3 DUP10 ADD PUSH2 0xE34 JUMP JUMPDEST SWAP6 POP POP PUSH1 0x20 PUSH2 0xF38 DUP9 DUP3 DUP10 ADD PUSH2 0xDE0 JUMP JUMPDEST SWAP5 POP POP PUSH1 0x40 PUSH2 0xF49 DUP9 DUP3 DUP10 ADD PUSH2 0xE0A JUMP JUMPDEST SWAP4 POP POP PUSH1 0x60 PUSH2 0xF5A DUP9 DUP3 DUP10 ADD PUSH2 0xE0A JUMP JUMPDEST SWAP3 POP POP PUSH1 0x80 PUSH2 0xF6B DUP9 DUP3 DUP10 ADD PUSH2 0xE34 JUMP JUMPDEST SWAP2 POP POP SWAP3 SWAP6 POP SWAP3 SWAP6 SWAP1 SWAP4 POP JUMP JUMPDEST PUSH1 0x0 PUSH2 0xF84 DUP4 DUP4 PUSH2 0x104B JUMP JUMPDEST PUSH1 0x20 DUP4 ADD SWAP1 POP SWAP3 SWAP2 POP POP JUMP JUMPDEST PUSH2 0xF99 DUP2 PUSH2 0x123C JUMP JUMPDEST DUP3 MSTORE POP POP JUMP JUMPDEST PUSH2 0xFA8 DUP2 PUSH2 0x1149 JUMP JUMPDEST PUSH2 0xFB2 DUP2 DUP5 PUSH2 0x1161 JUMP JUMPDEST SWAP3 POP PUSH2 0xFBD DUP3 PUSH2 0x113F JUMP JUMPDEST DUP1 PUSH1 0x0 JUMPDEST DUP4 DUP2 LT ISZERO PUSH2 0xFEE JUMPI DUP2 MLOAD PUSH2 0xFD5 DUP8 DUP3 PUSH2 0xF78 JUMP JUMPDEST SWAP7 POP PUSH2 0xFE0 DUP4 PUSH2 0x1154 JUMP JUMPDEST SWAP3 POP POP PUSH1 0x1 DUP2 ADD SWAP1 POP PUSH2 0xFC1 JUMP JUMPDEST POP POP POP POP POP POP JUMP JUMPDEST PUSH2 0xFFF DUP2 PUSH2 0x12BB JUMP JUMPDEST DUP3 MSTORE POP POP JUMP JUMPDEST PUSH1 0x0 PUSH2 0x1012 PUSH1 0x26 DUP4 PUSH2 0x116C JUMP JUMPDEST SWAP2 POP PUSH2 0x101D DUP3 PUSH2 0x135F JUMP JUMPDEST PUSH1 0x40 DUP3 ADD SWAP1 POP SWAP2 SWAP1 POP JUMP JUMPDEST PUSH1 0x0 PUSH2 0x1035 PUSH1 0x20 DUP4 PUSH2 0x116C JUMP JUMPDEST SWAP2 POP PUSH2 0x1040 DUP3 PUSH2 0x13AE JUMP JUMPDEST PUSH1 0x20 DUP3 ADD SWAP1 POP SWAP2 SWAP1 POP JUMP JUMPDEST PUSH2 0x1054 DUP2 PUSH2 0x128B JUMP JUMPDEST DUP3 MSTORE POP POP JUMP JUMPDEST PUSH2 0x1063 DUP2 PUSH2 0x128B JUMP JUMPDEST DUP3 MSTORE POP POP JUMP JUMPDEST PUSH2 0x1072 DUP2 PUSH2 0x1295 JUMP JUMPDEST DUP3 MSTORE POP POP JUMP JUMPDEST PUSH1 0x0 PUSH1 0x20 DUP3 ADD SWAP1 POP PUSH2 0x108D PUSH1 0x0 DUP4 ADD DUP5 PUSH2 0xF90 JUMP JUMPDEST SWAP3 SWAP2 POP POP JUMP JUMPDEST PUSH1 0x0 PUSH1 0xA0 DUP3 ADD SWAP1 POP PUSH2 0x10A8 PUSH1 0x0 DUP4 ADD DUP5 PUSH2 0xF9F JUMP JUMPDEST SWAP3 SWAP2 POP POP JUMP JUMPDEST PUSH1 0x0 PUSH1 0x20 DUP3 ADD SWAP1 POP PUSH2 0x10C3 PUSH1 0x0 DUP4 ADD DUP5 PUSH2 0xFF6 JUMP JUMPDEST SWAP3 SWAP2 POP POP JUMP JUMPDEST PUSH1 0x0 PUSH1 0x20 DUP3 ADD SWAP1 POP DUP2 DUP2 SUB PUSH1 0x0 DUP4 ADD MSTORE PUSH2 0x10E2 DUP2 PUSH2 0x1005 JUMP JUMPDEST SWAP1 POP SWAP2 SWAP1 POP JUMP JUMPDEST PUSH1 0x0 PUSH1 0x20 DUP3 ADD SWAP1 POP DUP2 DUP2 SUB PUSH1 0x0 DUP4 ADD MSTORE PUSH2 0x1102 DUP2 PUSH2 0x1028 JUMP JUMPDEST SWAP1 POP SWAP2 SWAP1 POP JUMP JUMPDEST PUSH1 0x0 PUSH1 0x20 DUP3 ADD SWAP1 POP PUSH2 0x111E PUSH1 0x0 DUP4 ADD DUP5 PUSH2 0x105A JUMP JUMPDEST SWAP3 SWAP2 POP POP JUMP JUMPDEST PUSH1 0x0 PUSH1 0x20 DUP3 ADD SWAP1 POP PUSH2 0x1139 PUSH1 0x0 DUP4 ADD DUP5 PUSH2 0x1069 JUMP JUMPDEST SWAP3 SWAP2 POP POP JUMP JUMPDEST PUSH1 0x0 DUP2 SWAP1 POP SWAP2 SWAP1 POP JUMP JUMPDEST PUSH1 0x0 PUSH1 0x5 SWAP1 POP SWAP2 SWAP1 POP JUMP JUMPDEST PUSH1 0x0 PUSH1 0x20 DUP3 ADD SWAP1 POP SWAP2 SWAP1 POP JUMP JUMPDEST PUSH1 0x0 DUP2 SWAP1 POP SWAP3 SWAP2 POP POP JUMP JUMPDEST PUSH1 0x0 DUP3 DUP3 MSTORE PUSH1 0x20 DUP3 ADD SWAP1 POP SWAP3 SWAP2 POP POP JUMP JUMPDEST PUSH1 0x0 PUSH2 0x1188 DUP3 PUSH2 0x128B JUMP JUMPDEST SWAP2 POP PUSH2 0x1193 DUP4 PUSH2 0x128B JUMP JUMPDEST SWAP3 POP DUP3 PUSH2 0x11A3 JUMPI PUSH2 0x11A2 PUSH2 0x12FC JUMP JUMPDEST JUMPDEST DUP3 DUP3 DIV SWAP1 POP SWAP3 SWAP2 POP POP JUMP JUMPDEST PUSH1 0x0 PUSH2 0x11B9 DUP3 PUSH2 0x128B JUMP JUMPDEST SWAP2 POP PUSH2 0x11C4 DUP4 PUSH2 0x128B JUMP JUMPDEST SWAP3 POP DUP2 PUSH32 0xFFFFFFFFFFFFFFFFFFFFFFFFFFFFFFFFFFFFFFFFFFFFFFFFFFFFFFFFFFFFFFFF DIV DUP4 GT DUP3 ISZERO ISZERO AND ISZERO PUSH2 0x11FD JUMPI PUSH2 0x11FC PUSH2 0x12CD JUMP JUMPDEST JUMPDEST DUP3 DUP3 MUL SWAP1 POP SWAP3 SWAP2 POP POP JUMP JUMPDEST PUSH1 0x0 PUSH2 0x1213 DUP3 PUSH2 0x128B JUMP JUMPDEST SWAP2 POP PUSH2 0x121E DUP4 PUSH2 0x128B JUMP JUMPDEST SWAP3 POP DUP3 DUP3 LT ISZERO PUSH2 0x1231 JUMPI PUSH2 0x1230 PUSH2 0x12CD JUMP JUMPDEST JUMPDEST DUP3 DUP3 SUB SWAP1 POP SWAP3 SWAP2 POP POP JUMP JUMPDEST PUSH1 0x0 PUSH2 0x1247 DUP3 PUSH2 0x126B JUMP JUMPDEST SWAP1 POP SWAP2 SWAP1 POP JUMP JUMPDEST PUSH1 0x0 DUP2 SWAP1 POP PUSH2 0x125C DUP3 PUSH2 0x13D7 JUMP JUMPDEST SWAP2 SWAP1 POP JUMP JUMPDEST PUSH1 0x0 DUP2 SWAP1 POP SWAP2 SWAP1 POP JUMP JUMPDEST PUSH1 0x0 PUSH20 0xFFFFFFFFFFFFFFFFFFFFFFFFFFFFFFFFFFFFFFFF DUP3 AND SWAP1 POP SWAP2 SWAP1 POP JUMP JUMPDEST PUSH1 0x0 DUP2 SWAP1 POP SWAP2 SWAP1 POP JUMP JUMPDEST PUSH1 0x0 PUSH4 0xFFFFFFFF DUP3 AND SWAP1 POP SWAP2 SWAP1 POP JUMP JUMPDEST PUSH1 0x0 PUSH10 0xFFFFFFFFFFFFFFFFFFFF DUP3 AND SWAP1 POP SWAP2 SWAP1 POP JUMP JUMPDEST PUSH1 0x0 PUSH2 0x12C6 DUP3 PUSH2 0x124E JUMP JUMPDEST SWAP1 POP SWAP2 SWAP1 POP JUMP JUMPDEST PUSH32 0x4E487B7100000000000000000000000000000000000000000000000000000000 PUSH1 0x0 MSTORE PUSH1 0x11 PUSH1 0x4 MSTORE PUSH1 0x24 PUSH1 0x0 REVERT JUMPDEST PUSH32 0x4E487B7100000000000000000000000000000000000000000000000000000000 PUSH1 0x0 MSTORE PUSH1 0x12 PUSH1 0x4 MSTORE PUSH1 0x24 PUSH1 0x0 REVERT JUMPDEST PUSH32 0x4E487B7100000000000000000000000000000000000000000000000000000000 PUSH1 0x0 MSTORE PUSH1 0x21 PUSH1 0x4 MSTORE PUSH1 0x24 PUSH1 0x0 REVERT JUMPDEST PUSH1 0x0 DUP1 REVERT JUMPDEST PUSH32 0x4F776E61626C653A206E6577206F776E657220697320746865207A65726F2061 PUSH1 0x0 DUP3 ADD MSTORE PUSH32 0x6464726573730000000000000000000000000000000000000000000000000000 PUSH1 0x20 DUP3 ADD MSTORE POP JUMP JUMPDEST PUSH32 0x4F776E61626C653A2063616C6C6572206973206E6F7420746865206F776E6572 PUSH1 0x0 DUP3 ADD MSTORE POP JUMP JUMPDEST PUSH1 0x5 DUP2 LT PUSH2 0x13E8 JUMPI PUSH2 0x13E7 PUSH2 0x132B JUMP JUMPDEST JUMPDEST POP JUMP JUMPDEST PUSH2 0x13F4 DUP2 PUSH2 0x123C JUMP JUMPDEST DUP2 EQ PUSH2 0x13FF JUMPI PUSH1 0x0 DUP1 REVERT JUMPDEST POP JUMP JUMPDEST PUSH1 0x5 DUP2 LT PUSH2 0x140F JUMPI PUSH1 0x0 DUP1 REVERT JUMPDEST POP JUMP JUMPDEST PUSH2 0x141B DUP2 PUSH2 0x1261 JUMP JUMPDEST DUP2 EQ PUSH2 0x1426 JUMPI PUSH1 0x0 DUP1 REVERT JUMPDEST POP JUMP JUMPDEST PUSH2 0x1432 DUP2 PUSH2 0x128B JUMP JUMPDEST DUP2 EQ PUSH2 0x143D JUMPI PUSH1 0x0 DUP1 REVERT JUMPDEST POP JUMP JUMPDEST PUSH2 0x1449 DUP2 PUSH2 0x1295 JUMP JUMPDEST DUP2 EQ PUSH2 0x1454 JUMPI PUSH1 0x0 DUP1 REVERT JUMPDEST POP JUMP JUMPDEST PUSH2 0x1460 DUP2 PUSH2 0x12A5 JUMP JUMPDEST DUP2 EQ PUSH2 0x146B JUMPI PUSH1 0x0 DUP1 REVERT JUMPDEST POP JUMP INVALID LOG2 PUSH5 0x6970667358 0x22 SLT KECCAK256 PUSH17 0x940B11B5E1275D473CFFF855F6B63BD716 SLT 0x4B PUSH13 0xCD2B251BBAABBBED7EBBF86473 PUSH16 0x6C634300080700330000000000000000 "
				},
				"gasEstimates": {
					"creation": {
						"codeDepositCost": "1056800",
						"executionCost": "infinite",
						"totalCost": "infinite"
					},
					"external": {
						"amountOfAsset()": "2496",
						"assetType()": "2633",
						"claimPrice()": "2453",
						"getBTCPrice()": "infinite",
						"getBuyer()": "2545",
						"getClaimReward()": "infinite",
						"getETHPrice()": "infinite",
						"getLinkPrice()": "infinite",
						"getPrices()": "infinite",
						"getSeller()": "2589",
						"initAssetPrice()": "2518",
						"liquidationPrice()": "2518",
						"owner()": "2655",
						"premium()": "2473",
						"renounceOwnership()": "30443",
						"rounds()": "2544",
						"sellerDeposit()": "2563",
						"setBuyer(address)": "infinite",
						"setInitAssetPrice(uint256)": "infinite",
						"setRounds(uint32)": "infinite",
						"setSeller(address)": "infinite",
						"setStatus(uint8)": "29431",
						"status()": "2606",
						"totalRounds()": "2632",
						"transferOwnership(address)": "30857"
					},
					"internal": {
						"getCurrPrice()": "infinite"
					}
				},
				"methodIdentifiers": {
					"amountOfAsset()": "762db7ee",
					"assetType()": "3fe3347a",
					"claimPrice()": "15d655c9",
					"getBTCPrice()": "dd22db80",
					"getBuyer()": "603daf9a",
					"getClaimReward()": "f26cc58e",
					"getETHPrice()": "a607a8d9",
					"getLinkPrice()": "2dddd49c",
					"getPrices()": "bd9a548b",
					"getSeller()": "dbd0e1b6",
					"initAssetPrice()": "86be75b7",
					"liquidationPrice()": "b6fc2d5f",
					"owner()": "8da5cb5b",
					"premium()": "e0a73a93",
					"renounceOwnership()": "715018a6",
					"rounds()": "a2e800ad",
					"sellerDeposit()": "4c1786ea",
					"setBuyer(address)": "a3f09ad6",
					"setInitAssetPrice(uint256)": "bef904e3",
					"setRounds(uint32)": "d2895e93",
					"setSeller(address)": "e99d2866",
					"setStatus(uint8)": "2e49d78b",
					"status()": "200d2ed2",
					"totalRounds()": "8a568299",
					"transferOwnership(address)": "f2fde38b"
				}
			},
			"storageLayout": {
				"storage": [
					{
						"astId": 53,
						"contract": "contracts/Swap/Swap.sol:Swap",
						"label": "_owner",
						"offset": 0,
						"slot": "0",
						"type": "t_address"
					},
					{
						"astId": 1020,
						"contract": "contracts/Swap/Swap.sol:Swap",
						"label": "_aggregators",
						"offset": 0,
						"slot": "1",
						"type": "t_mapping(t_uint256,t_contract(AggregatorV3Interface)45)"
					},
					{
						"astId": 1132,
						"contract": "contracts/Swap/Swap.sol:Swap",
						"label": "status",
						"offset": 0,
						"slot": "2",
						"type": "t_enum(Status)1129"
					},
					{
						"astId": 1134,
						"contract": "contracts/Swap/Swap.sol:Swap",
						"label": "initAssetPrice",
						"offset": 0,
						"slot": "3",
						"type": "t_uint256"
					},
					{
						"astId": 1136,
						"contract": "contracts/Swap/Swap.sol:Swap",
						"label": "claimPrice",
						"offset": 0,
						"slot": "4",
						"type": "t_uint256"
					},
					{
						"astId": 1138,
						"contract": "contracts/Swap/Swap.sol:Swap",
						"label": "liquidationPrice",
						"offset": 0,
						"slot": "5",
						"type": "t_uint256"
					},
					{
						"astId": 1140,
						"contract": "contracts/Swap/Swap.sol:Swap",
						"label": "premium",
						"offset": 0,
						"slot": "6",
						"type": "t_uint256"
					},
					{
						"astId": 1142,
						"contract": "contracts/Swap/Swap.sol:Swap",
						"label": "sellerDeposit",
						"offset": 0,
						"slot": "7",
						"type": "t_uint256"
					},
					{
						"astId": 1144,
						"contract": "contracts/Swap/Swap.sol:Swap",
						"label": "amountOfAsset",
						"offset": 0,
						"slot": "8",
						"type": "t_uint256"
					},
					{
						"astId": 1146,
						"contract": "contracts/Swap/Swap.sol:Swap",
						"label": "buyer",
						"offset": 0,
						"slot": "9",
						"type": "t_address"
					},
					{
						"astId": 1148,
						"contract": "contracts/Swap/Swap.sol:Swap",
						"label": "seller",
						"offset": 0,
						"slot": "10",
						"type": "t_address"
					},
					{
						"astId": 1150,
						"contract": "contracts/Swap/Swap.sol:Swap",
						"label": "rounds",
						"offset": 20,
						"slot": "10",
						"type": "t_uint32"
					},
					{
						"astId": 1152,
						"contract": "contracts/Swap/Swap.sol:Swap",
						"label": "totalRounds",
						"offset": 24,
						"slot": "10",
						"type": "t_uint32"
					},
					{
						"astId": 1154,
						"contract": "contracts/Swap/Swap.sol:Swap",
						"label": "assetType",
						"offset": 28,
						"slot": "10",
						"type": "t_uint32"
					}
				],
				"types": {
					"t_address": {
						"encoding": "inplace",
						"label": "address",
						"numberOfBytes": "20"
					},
					"t_contract(AggregatorV3Interface)45": {
						"encoding": "inplace",
						"label": "contract AggregatorV3Interface",
						"numberOfBytes": "20"
					},
					"t_enum(Status)1129": {
						"encoding": "inplace",
						"label": "enum Swap.Status",
						"numberOfBytes": "1"
					},
					"t_mapping(t_uint256,t_contract(AggregatorV3Interface)45)": {
						"encoding": "mapping",
						"key": "t_uint256",
						"label": "mapping(uint256 => contract AggregatorV3Interface)",
						"numberOfBytes": "32",
						"value": "t_contract(AggregatorV3Interface)45"
					},
					"t_uint256": {
						"encoding": "inplace",
						"label": "uint256",
						"numberOfBytes": "32"
					},
					"t_uint32": {
						"encoding": "inplace",
						"label": "uint32",
						"numberOfBytes": "4"
					}
				}
			},
			"userdoc": {
				"kind": "user",
				"methods": {
					"getBTCPrice()": {
						"notice": "Returns the latest price"
					}
				},
				"version": 1
			}
		}
	}
}