{
	"contracts/Handler/CDSFactory.sol": {
		"CDSFactory": {
			"abi": [
				{
					"inputs": [
						{
							"internalType": "uint256",
							"name": "cdsId",
							"type": "uint256"
						}
					],
					"name": "getBuyer",
					"outputs": [
						{
							"internalType": "address",
							"name": "",
							"type": "address"
						}
					],
					"stateMutability": "view",
					"type": "function"
				},
				{
					"inputs": [
						{
							"internalType": "uint256",
							"name": "cdsId",
							"type": "uint256"
						}
					],
					"name": "getCDS",
					"outputs": [
						{
							"internalType": "contract CDS",
							"name": "",
							"type": "address"
						}
					],
					"stateMutability": "view",
					"type": "function"
				},
				{
					"inputs": [],
					"name": "getCDSId",
					"outputs": [
						{
							"components": [
								{
									"internalType": "uint256",
									"name": "_value",
									"type": "uint256"
								}
							],
							"internalType": "struct Counters.Counter",
							"name": "",
							"type": "tuple"
						}
					],
					"stateMutability": "view",
					"type": "function"
				},
				{
					"inputs": [
						{
							"internalType": "uint256",
							"name": "cdsId",
							"type": "uint256"
						}
					],
					"name": "getSeller",
					"outputs": [
						{
							"internalType": "address",
							"name": "",
							"type": "address"
						}
					],
					"stateMutability": "view",
					"type": "function"
				},
				{
					"inputs": [
						{
							"internalType": "uint256",
							"name": "",
							"type": "uint256"
						}
					],
					"name": "nextPayDate",
					"outputs": [
						{
							"internalType": "uint256",
							"name": "",
							"type": "uint256"
						}
					],
					"stateMutability": "view",
					"type": "function"
				}
			],
			"devdoc": {
				"kind": "dev",
				"methods": {},
				"version": 1
			},
			"evm": {
				"assembly": "    /* \"contracts/Handler/CDSFactory.sol\":136:2931  contract CDSFactory {... */\n  mstore(0x40, 0x80)\n  callvalue\n  dup1\n  iszero\n  tag_1\n  jumpi\n  0x00\n  dup1\n  revert\ntag_1:\n  pop\n  dataSize(sub_0)\n  dup1\n  dataOffset(sub_0)\n  0x00\n  codecopy\n  0x00\n  return\nstop\n\nsub_0: assembly {\n        /* \"contracts/Handler/CDSFactory.sol\":136:2931  contract CDSFactory {... */\n      mstore(0x40, 0x80)\n      callvalue\n      dup1\n      iszero\n      tag_1\n      jumpi\n      0x00\n      dup1\n      revert\n    tag_1:\n      pop\n      jumpi(tag_2, lt(calldatasize, 0x04))\n      shr(0xe0, calldataload(0x00))\n      dup1\n      0x44a9d244\n      eq\n      tag_3\n      jumpi\n      dup1\n      0x5af8d21c\n      eq\n      tag_4\n      jumpi\n      dup1\n      0x5bf608b8\n      eq\n      tag_5\n      jumpi\n      dup1\n      0xd0e5d955\n      eq\n      tag_6\n      jumpi\n      dup1\n      0xd6a9de51\n      eq\n      tag_7\n      jumpi\n    tag_2:\n      0x00\n      dup1\n      revert\n        /* \"contracts/Handler/CDSFactory.sol\":281:327  mapping(uint256 => uint256) public nextPayDate */\n    tag_3:\n      tag_8\n      0x04\n      dup1\n      calldatasize\n      sub\n      dup2\n      add\n      swap1\n      tag_9\n      swap2\n      swap1\n      tag_10\n      jump\t// in\n    tag_9:\n      tag_11\n      jump\t// in\n    tag_8:\n      mload(0x40)\n      tag_12\n      swap2\n      swap1\n      tag_13\n      jump\t// in\n    tag_12:\n      mload(0x40)\n      dup1\n      swap2\n      sub\n      swap1\n      return\n        /* \"contracts/Handler/CDSFactory.sol\":2259:2349  function getCDS(uint256 cdsId) public view returns (CDS) {... */\n    tag_4:\n      tag_14\n      0x04\n      dup1\n      calldatasize\n      sub\n      dup2\n      add\n      swap1\n      tag_15\n      swap2\n      swap1\n      tag_10\n      jump\t// in\n    tag_15:\n      tag_16\n      jump\t// in\n    tag_14:\n      mload(0x40)\n      tag_17\n      swap2\n      swap1\n      tag_18\n      jump\t// in\n    tag_17:\n      mload(0x40)\n      dup1\n      swap2\n      sub\n      swap1\n      return\n        /* \"contracts/Handler/CDSFactory.sol\":2353:2460  function getBuyer(uint256 cdsId) public view returns (address) {... */\n    tag_5:\n      tag_19\n      0x04\n      dup1\n      calldatasize\n      sub\n      dup2\n      add\n      swap1\n      tag_20\n      swap2\n      swap1\n      tag_10\n      jump\t// in\n    tag_20:\n      tag_21\n      jump\t// in\n    tag_19:\n      mload(0x40)\n      tag_22\n      swap2\n      swap1\n      tag_23\n      jump\t// in\n    tag_22:\n      mload(0x40)\n      dup1\n      swap2\n      sub\n      swap1\n      return\n        /* \"contracts/Handler/CDSFactory.sol\":2165:2255  function getCDSId() public view returns (Counters.Counter memory) {... */\n    tag_6:\n      tag_24\n      tag_25\n      jump\t// in\n    tag_24:\n      mload(0x40)\n      tag_26\n      swap2\n      swap1\n      tag_27\n      jump\t// in\n    tag_26:\n      mload(0x40)\n      dup1\n      swap2\n      sub\n      swap1\n      return\n        /* \"contracts/Handler/CDSFactory.sol\":2464:2573  function getSeller(uint256 cdsId) public view returns (address) {... */\n    tag_7:\n      tag_28\n      0x04\n      dup1\n      calldatasize\n      sub\n      dup2\n      add\n      swap1\n      tag_29\n      swap2\n      swap1\n      tag_10\n      jump\t// in\n    tag_29:\n      tag_30\n      jump\t// in\n    tag_28:\n      mload(0x40)\n      tag_31\n      swap2\n      swap1\n      tag_23\n      jump\t// in\n    tag_31:\n      mload(0x40)\n      dup1\n      swap2\n      sub\n      swap1\n      return\n        /* \"contracts/Handler/CDSFactory.sol\":281:327  mapping(uint256 => uint256) public nextPayDate */\n    tag_11:\n      mstore(0x20, 0x02)\n      dup1\n      0x00\n      mstore\n      keccak256(0x00, 0x40)\n      0x00\n      swap2\n      pop\n      swap1\n      pop\n      sload\n      dup2\n      jump\t// out\n        /* \"contracts/Handler/CDSFactory.sol\":2259:2349  function getCDS(uint256 cdsId) public view returns (CDS) {... */\n    tag_16:\n        /* \"contracts/Handler/CDSFactory.sol\":2311:2314  CDS */\n      0x00\n        /* \"contracts/Handler/CDSFactory.sol\":2329:2337  _cdsList */\n      0x01\n        /* \"contracts/Handler/CDSFactory.sol\":2329:2344  _cdsList[cdsId] */\n      0x00\n        /* \"contracts/Handler/CDSFactory.sol\":2338:2343  cdsId */\n      dup4\n        /* \"contracts/Handler/CDSFactory.sol\":2329:2344  _cdsList[cdsId] */\n      dup2\n      mstore\n      0x20\n      add\n      swap1\n      dup2\n      mstore\n      0x20\n      add\n      0x00\n      keccak256\n      0x00\n      swap1\n      sload\n      swap1\n      0x0100\n      exp\n      swap1\n      div\n      0xffffffffffffffffffffffffffffffffffffffff\n      and\n        /* \"contracts/Handler/CDSFactory.sol\":2322:2344  return _cdsList[cdsId] */\n      swap1\n      pop\n        /* \"contracts/Handler/CDSFactory.sol\":2259:2349  function getCDS(uint256 cdsId) public view returns (CDS) {... */\n      swap2\n      swap1\n      pop\n      jump\t// out\n        /* \"contracts/Handler/CDSFactory.sol\":2353:2460  function getBuyer(uint256 cdsId) public view returns (address) {... */\n    tag_21:\n        /* \"contracts/Handler/CDSFactory.sol\":2407:2414  address */\n      0x00\n        /* \"contracts/Handler/CDSFactory.sol\":2429:2437  _cdsList */\n      0x01\n        /* \"contracts/Handler/CDSFactory.sol\":2429:2444  _cdsList[cdsId] */\n      0x00\n        /* \"contracts/Handler/CDSFactory.sol\":2438:2443  cdsId */\n      dup4\n        /* \"contracts/Handler/CDSFactory.sol\":2429:2444  _cdsList[cdsId] */\n      dup2\n      mstore\n      0x20\n      add\n      swap1\n      dup2\n      mstore\n      0x20\n      add\n      0x00\n      keccak256\n      0x00\n      swap1\n      sload\n      swap1\n      0x0100\n      exp\n      swap1\n      div\n      0xffffffffffffffffffffffffffffffffffffffff\n      and\n        /* \"contracts/Handler/CDSFactory.sol\":2429:2453  _cdsList[cdsId].getBuyer */\n      0xffffffffffffffffffffffffffffffffffffffff\n      and\n      0x603daf9a\n        /* \"contracts/Handler/CDSFactory.sol\":2429:2455  _cdsList[cdsId].getBuyer() */\n      mload(0x40)\n      dup2\n      0xffffffff\n      and\n      0xe0\n      shl\n      dup2\n      mstore\n      0x04\n      add\n      0x20\n      mload(0x40)\n      dup1\n      dup4\n      sub\n      dup2\n      dup7\n      gas\n      staticcall\n      iszero\n      dup1\n      iszero\n      tag_35\n      jumpi\n      returndatasize\n      0x00\n      dup1\n      returndatacopy\n      revert(0x00, returndatasize)\n    tag_35:\n      pop\n      pop\n      pop\n      pop\n      mload(0x40)\n      returndatasize\n      not(0x1f)\n      0x1f\n      dup3\n      add\n      and\n      dup3\n      add\n      dup1\n      0x40\n      mstore\n      pop\n      dup2\n      add\n      swap1\n      tag_36\n      swap2\n      swap1\n      tag_37\n      jump\t// in\n    tag_36:\n        /* \"contracts/Handler/CDSFactory.sol\":2422:2455  return _cdsList[cdsId].getBuyer() */\n      swap1\n      pop\n        /* \"contracts/Handler/CDSFactory.sol\":2353:2460  function getBuyer(uint256 cdsId) public view returns (address) {... */\n      swap2\n      swap1\n      pop\n      jump\t// out\n        /* \"contracts/Handler/CDSFactory.sol\":2165:2255  function getCDSId() public view returns (Counters.Counter memory) {... */\n    tag_25:\n        /* \"contracts/Handler/CDSFactory.sol\":2206:2229  Counters.Counter memory */\n      tag_38\n      tag_39\n      jump\t// in\n    tag_38:\n        /* \"contracts/Handler/CDSFactory.sol\":2244:2250  _cdsId */\n      0x00\n        /* \"contracts/Handler/CDSFactory.sol\":2237:2250  return _cdsId */\n      mload(0x40)\n      dup1\n      0x20\n      add\n      0x40\n      mstore\n      swap1\n      dup2\n      0x00\n      dup3\n      add\n      sload\n      dup2\n      mstore\n      pop\n      pop\n      swap1\n      pop\n        /* \"contracts/Handler/CDSFactory.sol\":2165:2255  function getCDSId() public view returns (Counters.Counter memory) {... */\n      swap1\n      jump\t// out\n        /* \"contracts/Handler/CDSFactory.sol\":2464:2573  function getSeller(uint256 cdsId) public view returns (address) {... */\n    tag_30:\n        /* \"contracts/Handler/CDSFactory.sol\":2519:2526  address */\n      0x00\n        /* \"contracts/Handler/CDSFactory.sol\":2541:2549  _cdsList */\n      0x01\n        /* \"contracts/Handler/CDSFactory.sol\":2541:2556  _cdsList[cdsId] */\n      0x00\n        /* \"contracts/Handler/CDSFactory.sol\":2550:2555  cdsId */\n      dup4\n        /* \"contracts/Handler/CDSFactory.sol\":2541:2556  _cdsList[cdsId] */\n      dup2\n      mstore\n      0x20\n      add\n      swap1\n      dup2\n      mstore\n      0x20\n      add\n      0x00\n      keccak256\n      0x00\n      swap1\n      sload\n      swap1\n      0x0100\n      exp\n      swap1\n      div\n      0xffffffffffffffffffffffffffffffffffffffff\n      and\n        /* \"contracts/Handler/CDSFactory.sol\":2541:2566  _cdsList[cdsId].getSeller */\n      0xffffffffffffffffffffffffffffffffffffffff\n      and\n      0xdbd0e1b6\n        /* \"contracts/Handler/CDSFactory.sol\":2541:2568  _cdsList[cdsId].getSeller() */\n      mload(0x40)\n      dup2\n      0xffffffff\n      and\n      0xe0\n      shl\n      dup2\n      mstore\n      0x04\n      add\n      0x20\n      mload(0x40)\n      dup1\n      dup4\n      sub\n      dup2\n      dup7\n      gas\n      staticcall\n      iszero\n      dup1\n      iszero\n      tag_43\n      jumpi\n      returndatasize\n      0x00\n      dup1\n      returndatacopy\n      revert(0x00, returndatasize)\n    tag_43:\n      pop\n      pop\n      pop\n      pop\n      mload(0x40)\n      returndatasize\n      not(0x1f)\n      0x1f\n      dup3\n      add\n      and\n      dup3\n      add\n      dup1\n      0x40\n      mstore\n      pop\n      dup2\n      add\n      swap1\n      tag_44\n      swap2\n      swap1\n      tag_37\n      jump\t// in\n    tag_44:\n        /* \"contracts/Handler/CDSFactory.sol\":2534:2568  return _cdsList[cdsId].getSeller() */\n      swap1\n      pop\n        /* \"contracts/Handler/CDSFactory.sol\":2464:2573  function getSeller(uint256 cdsId) public view returns (address) {... */\n      swap2\n      swap1\n      pop\n      jump\t// out\n    tag_39:\n      mload(0x40)\n      dup1\n      0x20\n      add\n      0x40\n      mstore\n      dup1\n      0x00\n      dup2\n      mstore\n      pop\n      swap1\n      jump\t// out\n        /* \"#utility.yul\":88:205   */\n    tag_46:\n        /* \"#utility.yul\":197:198   */\n      0x00\n        /* \"#utility.yul\":194:195   */\n      dup1\n        /* \"#utility.yul\":187:199   */\n      revert\n        /* \"#utility.yul\":334:411   */\n    tag_48:\n        /* \"#utility.yul\":371:378   */\n      0x00\n        /* \"#utility.yul\":400:405   */\n      dup2\n        /* \"#utility.yul\":389:405   */\n      swap1\n      pop\n        /* \"#utility.yul\":334:411   */\n      swap2\n      swap1\n      pop\n      jump\t// out\n        /* \"#utility.yul\":417:539   */\n    tag_49:\n        /* \"#utility.yul\":490:514   */\n      tag_70\n        /* \"#utility.yul\":508:513   */\n      dup2\n        /* \"#utility.yul\":490:514   */\n      tag_48\n      jump\t// in\n    tag_70:\n        /* \"#utility.yul\":483:488   */\n      dup2\n        /* \"#utility.yul\":480:515   */\n      eq\n        /* \"#utility.yul\":470:533   */\n      tag_71\n      jumpi\n        /* \"#utility.yul\":529:530   */\n      0x00\n        /* \"#utility.yul\":526:527   */\n      dup1\n        /* \"#utility.yul\":519:531   */\n      revert\n        /* \"#utility.yul\":470:533   */\n    tag_71:\n        /* \"#utility.yul\":417:539   */\n      pop\n      jump\t// out\n        /* \"#utility.yul\":545:684   */\n    tag_50:\n        /* \"#utility.yul\":591:596   */\n      0x00\n        /* \"#utility.yul\":629:635   */\n      dup2\n        /* \"#utility.yul\":616:636   */\n      calldataload\n        /* \"#utility.yul\":607:636   */\n      swap1\n      pop\n        /* \"#utility.yul\":645:678   */\n      tag_73\n        /* \"#utility.yul\":672:677   */\n      dup2\n        /* \"#utility.yul\":645:678   */\n      tag_49\n      jump\t// in\n    tag_73:\n        /* \"#utility.yul\":545:684   */\n      swap3\n      swap2\n      pop\n      pop\n      jump\t// out\n        /* \"#utility.yul\":690:1019   */\n    tag_10:\n        /* \"#utility.yul\":749:755   */\n      0x00\n        /* \"#utility.yul\":798:800   */\n      0x20\n        /* \"#utility.yul\":786:795   */\n      dup3\n        /* \"#utility.yul\":777:784   */\n      dup5\n        /* \"#utility.yul\":773:796   */\n      sub\n        /* \"#utility.yul\":769:801   */\n      slt\n        /* \"#utility.yul\":766:885   */\n      iszero\n      tag_75\n      jumpi\n        /* \"#utility.yul\":804:883   */\n      tag_76\n      tag_46\n      jump\t// in\n    tag_76:\n        /* \"#utility.yul\":766:885   */\n    tag_75:\n        /* \"#utility.yul\":924:925   */\n      0x00\n        /* \"#utility.yul\":949:1002   */\n      tag_77\n        /* \"#utility.yul\":994:1001   */\n      dup5\n        /* \"#utility.yul\":985:991   */\n      dup3\n        /* \"#utility.yul\":974:983   */\n      dup6\n        /* \"#utility.yul\":970:992   */\n      add\n        /* \"#utility.yul\":949:1002   */\n      tag_50\n      jump\t// in\n    tag_77:\n        /* \"#utility.yul\":939:1002   */\n      swap2\n      pop\n        /* \"#utility.yul\":895:1012   */\n      pop\n        /* \"#utility.yul\":690:1019   */\n      swap3\n      swap2\n      pop\n      pop\n      jump\t// out\n        /* \"#utility.yul\":1025:1143   */\n    tag_51:\n        /* \"#utility.yul\":1112:1136   */\n      tag_79\n        /* \"#utility.yul\":1130:1135   */\n      dup2\n        /* \"#utility.yul\":1112:1136   */\n      tag_48\n      jump\t// in\n    tag_79:\n        /* \"#utility.yul\":1107:1110   */\n      dup3\n        /* \"#utility.yul\":1100:1137   */\n      mstore\n        /* \"#utility.yul\":1025:1143   */\n      pop\n      pop\n      jump\t// out\n        /* \"#utility.yul\":1149:1371   */\n    tag_13:\n        /* \"#utility.yul\":1242:1246   */\n      0x00\n        /* \"#utility.yul\":1280:1282   */\n      0x20\n        /* \"#utility.yul\":1269:1278   */\n      dup3\n        /* \"#utility.yul\":1265:1283   */\n      add\n        /* \"#utility.yul\":1257:1283   */\n      swap1\n      pop\n        /* \"#utility.yul\":1293:1364   */\n      tag_81\n        /* \"#utility.yul\":1361:1362   */\n      0x00\n        /* \"#utility.yul\":1350:1359   */\n      dup4\n        /* \"#utility.yul\":1346:1363   */\n      add\n        /* \"#utility.yul\":1337:1343   */\n      dup5\n        /* \"#utility.yul\":1293:1364   */\n      tag_51\n      jump\t// in\n    tag_81:\n        /* \"#utility.yul\":1149:1371   */\n      swap3\n      swap2\n      pop\n      pop\n      jump\t// out\n        /* \"#utility.yul\":1377:1503   */\n    tag_52:\n        /* \"#utility.yul\":1414:1421   */\n      0x00\n        /* \"#utility.yul\":1454:1496   */\n      0xffffffffffffffffffffffffffffffffffffffff\n        /* \"#utility.yul\":1447:1452   */\n      dup3\n        /* \"#utility.yul\":1443:1497   */\n      and\n        /* \"#utility.yul\":1432:1497   */\n      swap1\n      pop\n        /* \"#utility.yul\":1377:1503   */\n      swap2\n      swap1\n      pop\n      jump\t// out\n        /* \"#utility.yul\":1509:1569   */\n    tag_53:\n        /* \"#utility.yul\":1537:1540   */\n      0x00\n        /* \"#utility.yul\":1558:1563   */\n      dup2\n        /* \"#utility.yul\":1551:1563   */\n      swap1\n      pop\n        /* \"#utility.yul\":1509:1569   */\n      swap2\n      swap1\n      pop\n      jump\t// out\n        /* \"#utility.yul\":1575:1717   */\n    tag_54:\n        /* \"#utility.yul\":1625:1634   */\n      0x00\n        /* \"#utility.yul\":1658:1711   */\n      tag_85\n        /* \"#utility.yul\":1676:1710   */\n      tag_86\n        /* \"#utility.yul\":1685:1709   */\n      tag_87\n        /* \"#utility.yul\":1703:1708   */\n      dup5\n        /* \"#utility.yul\":1685:1709   */\n      tag_52\n      jump\t// in\n    tag_87:\n        /* \"#utility.yul\":1676:1710   */\n      tag_53\n      jump\t// in\n    tag_86:\n        /* \"#utility.yul\":1658:1711   */\n      tag_52\n      jump\t// in\n    tag_85:\n        /* \"#utility.yul\":1645:1711   */\n      swap1\n      pop\n        /* \"#utility.yul\":1575:1717   */\n      swap2\n      swap1\n      pop\n      jump\t// out\n        /* \"#utility.yul\":1723:1849   */\n    tag_55:\n        /* \"#utility.yul\":1773:1782   */\n      0x00\n        /* \"#utility.yul\":1806:1843   */\n      tag_89\n        /* \"#utility.yul\":1837:1842   */\n      dup3\n        /* \"#utility.yul\":1806:1843   */\n      tag_54\n      jump\t// in\n    tag_89:\n        /* \"#utility.yul\":1793:1843   */\n      swap1\n      pop\n        /* \"#utility.yul\":1723:1849   */\n      swap2\n      swap1\n      pop\n      jump\t// out\n        /* \"#utility.yul\":1855:1992   */\n    tag_56:\n        /* \"#utility.yul\":1916:1925   */\n      0x00\n        /* \"#utility.yul\":1949:1986   */\n      tag_91\n        /* \"#utility.yul\":1980:1985   */\n      dup3\n        /* \"#utility.yul\":1949:1986   */\n      tag_55\n      jump\t// in\n    tag_91:\n        /* \"#utility.yul\":1936:1986   */\n      swap1\n      pop\n        /* \"#utility.yul\":1855:1992   */\n      swap2\n      swap1\n      pop\n      jump\t// out\n        /* \"#utility.yul\":1998:2151   */\n    tag_57:\n        /* \"#utility.yul\":2096:2144   */\n      tag_93\n        /* \"#utility.yul\":2138:2143   */\n      dup2\n        /* \"#utility.yul\":2096:2144   */\n      tag_56\n      jump\t// in\n    tag_93:\n        /* \"#utility.yul\":2091:2094   */\n      dup3\n        /* \"#utility.yul\":2084:2145   */\n      mstore\n        /* \"#utility.yul\":1998:2151   */\n      pop\n      pop\n      jump\t// out\n        /* \"#utility.yul\":2157:2401   */\n    tag_18:\n        /* \"#utility.yul\":2261:2265   */\n      0x00\n        /* \"#utility.yul\":2299:2301   */\n      0x20\n        /* \"#utility.yul\":2288:2297   */\n      dup3\n        /* \"#utility.yul\":2284:2302   */\n      add\n        /* \"#utility.yul\":2276:2302   */\n      swap1\n      pop\n        /* \"#utility.yul\":2312:2394   */\n      tag_95\n        /* \"#utility.yul\":2391:2392   */\n      0x00\n        /* \"#utility.yul\":2380:2389   */\n      dup4\n        /* \"#utility.yul\":2376:2393   */\n      add\n        /* \"#utility.yul\":2367:2373   */\n      dup5\n        /* \"#utility.yul\":2312:2394   */\n      tag_57\n      jump\t// in\n    tag_95:\n        /* \"#utility.yul\":2157:2401   */\n      swap3\n      swap2\n      pop\n      pop\n      jump\t// out\n        /* \"#utility.yul\":2407:2503   */\n    tag_58:\n        /* \"#utility.yul\":2444:2451   */\n      0x00\n        /* \"#utility.yul\":2473:2497   */\n      tag_97\n        /* \"#utility.yul\":2491:2496   */\n      dup3\n        /* \"#utility.yul\":2473:2497   */\n      tag_52\n      jump\t// in\n    tag_97:\n        /* \"#utility.yul\":2462:2497   */\n      swap1\n      pop\n        /* \"#utility.yul\":2407:2503   */\n      swap2\n      swap1\n      pop\n      jump\t// out\n        /* \"#utility.yul\":2509:2627   */\n    tag_59:\n        /* \"#utility.yul\":2596:2620   */\n      tag_99\n        /* \"#utility.yul\":2614:2619   */\n      dup2\n        /* \"#utility.yul\":2596:2620   */\n      tag_58\n      jump\t// in\n    tag_99:\n        /* \"#utility.yul\":2591:2594   */\n      dup3\n        /* \"#utility.yul\":2584:2621   */\n      mstore\n        /* \"#utility.yul\":2509:2627   */\n      pop\n      pop\n      jump\t// out\n        /* \"#utility.yul\":2633:2855   */\n    tag_23:\n        /* \"#utility.yul\":2726:2730   */\n      0x00\n        /* \"#utility.yul\":2764:2766   */\n      0x20\n        /* \"#utility.yul\":2753:2762   */\n      dup3\n        /* \"#utility.yul\":2749:2767   */\n      add\n        /* \"#utility.yul\":2741:2767   */\n      swap1\n      pop\n        /* \"#utility.yul\":2777:2848   */\n      tag_101\n        /* \"#utility.yul\":2845:2846   */\n      0x00\n        /* \"#utility.yul\":2834:2843   */\n      dup4\n        /* \"#utility.yul\":2830:2847   */\n      add\n        /* \"#utility.yul\":2821:2827   */\n      dup5\n        /* \"#utility.yul\":2777:2848   */\n      tag_59\n      jump\t// in\n    tag_101:\n        /* \"#utility.yul\":2633:2855   */\n      swap3\n      swap2\n      pop\n      pop\n      jump\t// out\n        /* \"#utility.yul\":2861:2969   */\n    tag_60:\n        /* \"#utility.yul\":2938:2962   */\n      tag_103\n        /* \"#utility.yul\":2956:2961   */\n      dup2\n        /* \"#utility.yul\":2938:2962   */\n      tag_48\n      jump\t// in\n    tag_103:\n        /* \"#utility.yul\":2933:2936   */\n      dup3\n        /* \"#utility.yul\":2926:2963   */\n      mstore\n        /* \"#utility.yul\":2861:2969   */\n      pop\n      pop\n      jump\t// out\n        /* \"#utility.yul\":3033:3366   */\n    tag_61:\n        /* \"#utility.yul\":3178:3182   */\n      0x20\n        /* \"#utility.yul\":3173:3176   */\n      dup3\n        /* \"#utility.yul\":3169:3183   */\n      add\n        /* \"#utility.yul\":3267:3271   */\n      0x00\n        /* \"#utility.yul\":3260:3265   */\n      dup3\n        /* \"#utility.yul\":3256:3272   */\n      add\n        /* \"#utility.yul\":3250:3273   */\n      mload\n        /* \"#utility.yul\":3286:3349   */\n      tag_105\n        /* \"#utility.yul\":3343:3347   */\n      0x00\n        /* \"#utility.yul\":3338:3341   */\n      dup6\n        /* \"#utility.yul\":3334:3348   */\n      add\n        /* \"#utility.yul\":3320:3332   */\n      dup3\n        /* \"#utility.yul\":3286:3349   */\n      tag_60\n      jump\t// in\n    tag_105:\n        /* \"#utility.yul\":3193:3359   */\n      pop\n        /* \"#utility.yul\":3147:3366   */\n      pop\n        /* \"#utility.yul\":3033:3366   */\n      pop\n      pop\n      jump\t// out\n        /* \"#utility.yul\":3372:3690   */\n    tag_27:\n        /* \"#utility.yul\":3513:3517   */\n      0x00\n        /* \"#utility.yul\":3551:3553   */\n      0x20\n        /* \"#utility.yul\":3540:3549   */\n      dup3\n        /* \"#utility.yul\":3536:3554   */\n      add\n        /* \"#utility.yul\":3528:3554   */\n      swap1\n      pop\n        /* \"#utility.yul\":3564:3683   */\n      tag_107\n        /* \"#utility.yul\":3680:3681   */\n      0x00\n        /* \"#utility.yul\":3669:3678   */\n      dup4\n        /* \"#utility.yul\":3665:3682   */\n      add\n        /* \"#utility.yul\":3656:3662   */\n      dup5\n        /* \"#utility.yul\":3564:3683   */\n      tag_61\n      jump\t// in\n    tag_107:\n        /* \"#utility.yul\":3372:3690   */\n      swap3\n      swap2\n      pop\n      pop\n      jump\t// out\n        /* \"#utility.yul\":3696:3818   */\n    tag_62:\n        /* \"#utility.yul\":3769:3793   */\n      tag_109\n        /* \"#utility.yul\":3787:3792   */\n      dup2\n        /* \"#utility.yul\":3769:3793   */\n      tag_58\n      jump\t// in\n    tag_109:\n        /* \"#utility.yul\":3762:3767   */\n      dup2\n        /* \"#utility.yul\":3759:3794   */\n      eq\n        /* \"#utility.yul\":3749:3812   */\n      tag_110\n      jumpi\n        /* \"#utility.yul\":3808:3809   */\n      0x00\n        /* \"#utility.yul\":3805:3806   */\n      dup1\n        /* \"#utility.yul\":3798:3810   */\n      revert\n        /* \"#utility.yul\":3749:3812   */\n    tag_110:\n        /* \"#utility.yul\":3696:3818   */\n      pop\n      jump\t// out\n        /* \"#utility.yul\":3824:3967   */\n    tag_63:\n        /* \"#utility.yul\":3881:3886   */\n      0x00\n        /* \"#utility.yul\":3912:3918   */\n      dup2\n        /* \"#utility.yul\":3906:3919   */\n      mload\n        /* \"#utility.yul\":3897:3919   */\n      swap1\n      pop\n        /* \"#utility.yul\":3928:3961   */\n      tag_112\n        /* \"#utility.yul\":3955:3960   */\n      dup2\n        /* \"#utility.yul\":3928:3961   */\n      tag_62\n      jump\t// in\n    tag_112:\n        /* \"#utility.yul\":3824:3967   */\n      swap3\n      swap2\n      pop\n      pop\n      jump\t// out\n        /* \"#utility.yul\":3973:4324   */\n    tag_37:\n        /* \"#utility.yul\":4043:4049   */\n      0x00\n        /* \"#utility.yul\":4092:4094   */\n      0x20\n        /* \"#utility.yul\":4080:4089   */\n      dup3\n        /* \"#utility.yul\":4071:4078   */\n      dup5\n        /* \"#utility.yul\":4067:4090   */\n      sub\n        /* \"#utility.yul\":4063:4095   */\n      slt\n        /* \"#utility.yul\":4060:4179   */\n      iszero\n      tag_114\n      jumpi\n        /* \"#utility.yul\":4098:4177   */\n      tag_115\n      tag_46\n      jump\t// in\n    tag_115:\n        /* \"#utility.yul\":4060:4179   */\n    tag_114:\n        /* \"#utility.yul\":4218:4219   */\n      0x00\n        /* \"#utility.yul\":4243:4307   */\n      tag_116\n        /* \"#utility.yul\":4299:4306   */\n      dup5\n        /* \"#utility.yul\":4290:4296   */\n      dup3\n        /* \"#utility.yul\":4279:4288   */\n      dup6\n        /* \"#utility.yul\":4275:4297   */\n      add\n        /* \"#utility.yul\":4243:4307   */\n      tag_63\n      jump\t// in\n    tag_116:\n        /* \"#utility.yul\":4233:4307   */\n      swap2\n      pop\n        /* \"#utility.yul\":4189:4317   */\n      pop\n        /* \"#utility.yul\":3973:4324   */\n      swap3\n      swap2\n      pop\n      pop\n      jump\t// out\n\n    auxdata: 0xa2646970667358221220d02d0b7962f89754c313a6fb1c0ecb9834ba94fba67a349c57aad6b580758a5e64736f6c634300080a0033\n}\n",
				"bytecode": {
					"linkReferences": {},
					"object": "608060405234801561001057600080fd5b50610559806100206000396000f3fe608060405234801561001057600080fd5b50600436106100575760003560e01c806344a9d2441461005c5780635af8d21c1461008c5780635bf608b8146100bc578063d0e5d955146100ec578063d6a9de511461010a575b600080fd5b61007660048036038101906100719190610357565b61013a565b6040516100839190610393565b60405180910390f35b6100a660048036038101906100a19190610357565b610152565b6040516100b3919061042d565b60405180910390f35b6100d660048036038101906100d19190610357565b61018f565b6040516100e39190610469565b60405180910390f35b6100f461023a565b60405161010191906104af565b60405180910390f35b610124600480360381019061011f9190610357565b61025e565b6040516101319190610469565b60405180910390f35b60026020528060005260406000206000915090505481565b60006001600083815260200190815260200160002060009054906101000a900473ffffffffffffffffffffffffffffffffffffffff169050919050565b60006001600083815260200190815260200160002060009054906101000a900473ffffffffffffffffffffffffffffffffffffffff1673ffffffffffffffffffffffffffffffffffffffff1663603daf9a6040518163ffffffff1660e01b8152600401602060405180830381865afa15801561020f573d6000803e3d6000fd5b505050506040513d601f19601f8201168201806040525081019061023391906104f6565b9050919050565b610242610309565b6000604051806020016040529081600082015481525050905090565b60006001600083815260200190815260200160002060009054906101000a900473ffffffffffffffffffffffffffffffffffffffff1673ffffffffffffffffffffffffffffffffffffffff1663dbd0e1b66040518163ffffffff1660e01b8152600401602060405180830381865afa1580156102de573d6000803e3d6000fd5b505050506040513d601f19601f8201168201806040525081019061030291906104f6565b9050919050565b6040518060200160405280600081525090565b600080fd5b6000819050919050565b61033481610321565b811461033f57600080fd5b50565b6000813590506103518161032b565b92915050565b60006020828403121561036d5761036c61031c565b5b600061037b84828501610342565b91505092915050565b61038d81610321565b82525050565b60006020820190506103a86000830184610384565b92915050565b600073ffffffffffffffffffffffffffffffffffffffff82169050919050565b6000819050919050565b60006103f36103ee6103e9846103ae565b6103ce565b6103ae565b9050919050565b6000610405826103d8565b9050919050565b6000610417826103fa565b9050919050565b6104278161040c565b82525050565b6000602082019050610442600083018461041e565b92915050565b6000610453826103ae565b9050919050565b61046381610448565b82525050565b600060208201905061047e600083018461045a565b92915050565b61048d81610321565b82525050565b6020820160008201516104a96000850182610484565b50505050565b60006020820190506104c46000830184610493565b92915050565b6104d381610448565b81146104de57600080fd5b50565b6000815190506104f0816104ca565b92915050565b60006020828403121561050c5761050b61031c565b5b600061051a848285016104e1565b9150509291505056fea2646970667358221220d02d0b7962f89754c313a6fb1c0ecb9834ba94fba67a349c57aad6b580758a5e64736f6c634300080a0033",
					"opcodes": "PUSH1 0x80 PUSH1 0x40 MSTORE CALLVALUE DUP1 ISZERO PUSH2 0x10 JUMPI PUSH1 0x0 DUP1 REVERT JUMPDEST POP PUSH2 0x559 DUP1 PUSH2 0x20 PUSH1 0x0 CODECOPY PUSH1 0x0 RETURN INVALID PUSH1 0x80 PUSH1 0x40 MSTORE CALLVALUE DUP1 ISZERO PUSH2 0x10 JUMPI PUSH1 0x0 DUP1 REVERT JUMPDEST POP PUSH1 0x4 CALLDATASIZE LT PUSH2 0x57 JUMPI PUSH1 0x0 CALLDATALOAD PUSH1 0xE0 SHR DUP1 PUSH4 0x44A9D244 EQ PUSH2 0x5C JUMPI DUP1 PUSH4 0x5AF8D21C EQ PUSH2 0x8C JUMPI DUP1 PUSH4 0x5BF608B8 EQ PUSH2 0xBC JUMPI DUP1 PUSH4 0xD0E5D955 EQ PUSH2 0xEC JUMPI DUP1 PUSH4 0xD6A9DE51 EQ PUSH2 0x10A JUMPI JUMPDEST PUSH1 0x0 DUP1 REVERT JUMPDEST PUSH2 0x76 PUSH1 0x4 DUP1 CALLDATASIZE SUB DUP2 ADD SWAP1 PUSH2 0x71 SWAP2 SWAP1 PUSH2 0x357 JUMP JUMPDEST PUSH2 0x13A JUMP JUMPDEST PUSH1 0x40 MLOAD PUSH2 0x83 SWAP2 SWAP1 PUSH2 0x393 JUMP JUMPDEST PUSH1 0x40 MLOAD DUP1 SWAP2 SUB SWAP1 RETURN JUMPDEST PUSH2 0xA6 PUSH1 0x4 DUP1 CALLDATASIZE SUB DUP2 ADD SWAP1 PUSH2 0xA1 SWAP2 SWAP1 PUSH2 0x357 JUMP JUMPDEST PUSH2 0x152 JUMP JUMPDEST PUSH1 0x40 MLOAD PUSH2 0xB3 SWAP2 SWAP1 PUSH2 0x42D JUMP JUMPDEST PUSH1 0x40 MLOAD DUP1 SWAP2 SUB SWAP1 RETURN JUMPDEST PUSH2 0xD6 PUSH1 0x4 DUP1 CALLDATASIZE SUB DUP2 ADD SWAP1 PUSH2 0xD1 SWAP2 SWAP1 PUSH2 0x357 JUMP JUMPDEST PUSH2 0x18F JUMP JUMPDEST PUSH1 0x40 MLOAD PUSH2 0xE3 SWAP2 SWAP1 PUSH2 0x469 JUMP JUMPDEST PUSH1 0x40 MLOAD DUP1 SWAP2 SUB SWAP1 RETURN JUMPDEST PUSH2 0xF4 PUSH2 0x23A JUMP JUMPDEST PUSH1 0x40 MLOAD PUSH2 0x101 SWAP2 SWAP1 PUSH2 0x4AF JUMP JUMPDEST PUSH1 0x40 MLOAD DUP1 SWAP2 SUB SWAP1 RETURN JUMPDEST PUSH2 0x124 PUSH1 0x4 DUP1 CALLDATASIZE SUB DUP2 ADD SWAP1 PUSH2 0x11F SWAP2 SWAP1 PUSH2 0x357 JUMP JUMPDEST PUSH2 0x25E JUMP JUMPDEST PUSH1 0x40 MLOAD PUSH2 0x131 SWAP2 SWAP1 PUSH2 0x469 JUMP JUMPDEST PUSH1 0x40 MLOAD DUP1 SWAP2 SUB SWAP1 RETURN JUMPDEST PUSH1 0x2 PUSH1 0x20 MSTORE DUP1 PUSH1 0x0 MSTORE PUSH1 0x40 PUSH1 0x0 KECCAK256 PUSH1 0x0 SWAP2 POP SWAP1 POP SLOAD DUP2 JUMP JUMPDEST PUSH1 0x0 PUSH1 0x1 PUSH1 0x0 DUP4 DUP2 MSTORE PUSH1 0x20 ADD SWAP1 DUP2 MSTORE PUSH1 0x20 ADD PUSH1 0x0 KECCAK256 PUSH1 0x0 SWAP1 SLOAD SWAP1 PUSH2 0x100 EXP SWAP1 DIV PUSH20 0xFFFFFFFFFFFFFFFFFFFFFFFFFFFFFFFFFFFFFFFF AND SWAP1 POP SWAP2 SWAP1 POP JUMP JUMPDEST PUSH1 0x0 PUSH1 0x1 PUSH1 0x0 DUP4 DUP2 MSTORE PUSH1 0x20 ADD SWAP1 DUP2 MSTORE PUSH1 0x20 ADD PUSH1 0x0 KECCAK256 PUSH1 0x0 SWAP1 SLOAD SWAP1 PUSH2 0x100 EXP SWAP1 DIV PUSH20 0xFFFFFFFFFFFFFFFFFFFFFFFFFFFFFFFFFFFFFFFF AND PUSH20 0xFFFFFFFFFFFFFFFFFFFFFFFFFFFFFFFFFFFFFFFF AND PUSH4 0x603DAF9A PUSH1 0x40 MLOAD DUP2 PUSH4 0xFFFFFFFF AND PUSH1 0xE0 SHL DUP2 MSTORE PUSH1 0x4 ADD PUSH1 0x20 PUSH1 0x40 MLOAD DUP1 DUP4 SUB DUP2 DUP7 GAS STATICCALL ISZERO DUP1 ISZERO PUSH2 0x20F JUMPI RETURNDATASIZE PUSH1 0x0 DUP1 RETURNDATACOPY RETURNDATASIZE PUSH1 0x0 REVERT JUMPDEST POP POP POP POP PUSH1 0x40 MLOAD RETURNDATASIZE PUSH1 0x1F NOT PUSH1 0x1F DUP3 ADD AND DUP3 ADD DUP1 PUSH1 0x40 MSTORE POP DUP2 ADD SWAP1 PUSH2 0x233 SWAP2 SWAP1 PUSH2 0x4F6 JUMP JUMPDEST SWAP1 POP SWAP2 SWAP1 POP JUMP JUMPDEST PUSH2 0x242 PUSH2 0x309 JUMP JUMPDEST PUSH1 0x0 PUSH1 0x40 MLOAD DUP1 PUSH1 0x20 ADD PUSH1 0x40 MSTORE SWAP1 DUP2 PUSH1 0x0 DUP3 ADD SLOAD DUP2 MSTORE POP POP SWAP1 POP SWAP1 JUMP JUMPDEST PUSH1 0x0 PUSH1 0x1 PUSH1 0x0 DUP4 DUP2 MSTORE PUSH1 0x20 ADD SWAP1 DUP2 MSTORE PUSH1 0x20 ADD PUSH1 0x0 KECCAK256 PUSH1 0x0 SWAP1 SLOAD SWAP1 PUSH2 0x100 EXP SWAP1 DIV PUSH20 0xFFFFFFFFFFFFFFFFFFFFFFFFFFFFFFFFFFFFFFFF AND PUSH20 0xFFFFFFFFFFFFFFFFFFFFFFFFFFFFFFFFFFFFFFFF AND PUSH4 0xDBD0E1B6 PUSH1 0x40 MLOAD DUP2 PUSH4 0xFFFFFFFF AND PUSH1 0xE0 SHL DUP2 MSTORE PUSH1 0x4 ADD PUSH1 0x20 PUSH1 0x40 MLOAD DUP1 DUP4 SUB DUP2 DUP7 GAS STATICCALL ISZERO DUP1 ISZERO PUSH2 0x2DE JUMPI RETURNDATASIZE PUSH1 0x0 DUP1 RETURNDATACOPY RETURNDATASIZE PUSH1 0x0 REVERT JUMPDEST POP POP POP POP PUSH1 0x40 MLOAD RETURNDATASIZE PUSH1 0x1F NOT PUSH1 0x1F DUP3 ADD AND DUP3 ADD DUP1 PUSH1 0x40 MSTORE POP DUP2 ADD SWAP1 PUSH2 0x302 SWAP2 SWAP1 PUSH2 0x4F6 JUMP JUMPDEST SWAP1 POP SWAP2 SWAP1 POP JUMP JUMPDEST PUSH1 0x40 MLOAD DUP1 PUSH1 0x20 ADD PUSH1 0x40 MSTORE DUP1 PUSH1 0x0 DUP2 MSTORE POP SWAP1 JUMP JUMPDEST PUSH1 0x0 DUP1 REVERT JUMPDEST PUSH1 0x0 DUP2 SWAP1 POP SWAP2 SWAP1 POP JUMP JUMPDEST PUSH2 0x334 DUP2 PUSH2 0x321 JUMP JUMPDEST DUP2 EQ PUSH2 0x33F JUMPI PUSH1 0x0 DUP1 REVERT JUMPDEST POP JUMP JUMPDEST PUSH1 0x0 DUP2 CALLDATALOAD SWAP1 POP PUSH2 0x351 DUP2 PUSH2 0x32B JUMP JUMPDEST SWAP3 SWAP2 POP POP JUMP JUMPDEST PUSH1 0x0 PUSH1 0x20 DUP3 DUP5 SUB SLT ISZERO PUSH2 0x36D JUMPI PUSH2 0x36C PUSH2 0x31C JUMP JUMPDEST JUMPDEST PUSH1 0x0 PUSH2 0x37B DUP5 DUP3 DUP6 ADD PUSH2 0x342 JUMP JUMPDEST SWAP2 POP POP SWAP3 SWAP2 POP POP JUMP JUMPDEST PUSH2 0x38D DUP2 PUSH2 0x321 JUMP JUMPDEST DUP3 MSTORE POP POP JUMP JUMPDEST PUSH1 0x0 PUSH1 0x20 DUP3 ADD SWAP1 POP PUSH2 0x3A8 PUSH1 0x0 DUP4 ADD DUP5 PUSH2 0x384 JUMP JUMPDEST SWAP3 SWAP2 POP POP JUMP JUMPDEST PUSH1 0x0 PUSH20 0xFFFFFFFFFFFFFFFFFFFFFFFFFFFFFFFFFFFFFFFF DUP3 AND SWAP1 POP SWAP2 SWAP1 POP JUMP JUMPDEST PUSH1 0x0 DUP2 SWAP1 POP SWAP2 SWAP1 POP JUMP JUMPDEST PUSH1 0x0 PUSH2 0x3F3 PUSH2 0x3EE PUSH2 0x3E9 DUP5 PUSH2 0x3AE JUMP JUMPDEST PUSH2 0x3CE JUMP JUMPDEST PUSH2 0x3AE JUMP JUMPDEST SWAP1 POP SWAP2 SWAP1 POP JUMP JUMPDEST PUSH1 0x0 PUSH2 0x405 DUP3 PUSH2 0x3D8 JUMP JUMPDEST SWAP1 POP SWAP2 SWAP1 POP JUMP JUMPDEST PUSH1 0x0 PUSH2 0x417 DUP3 PUSH2 0x3FA JUMP JUMPDEST SWAP1 POP SWAP2 SWAP1 POP JUMP JUMPDEST PUSH2 0x427 DUP2 PUSH2 0x40C JUMP JUMPDEST DUP3 MSTORE POP POP JUMP JUMPDEST PUSH1 0x0 PUSH1 0x20 DUP3 ADD SWAP1 POP PUSH2 0x442 PUSH1 0x0 DUP4 ADD DUP5 PUSH2 0x41E JUMP JUMPDEST SWAP3 SWAP2 POP POP JUMP JUMPDEST PUSH1 0x0 PUSH2 0x453 DUP3 PUSH2 0x3AE JUMP JUMPDEST SWAP1 POP SWAP2 SWAP1 POP JUMP JUMPDEST PUSH2 0x463 DUP2 PUSH2 0x448 JUMP JUMPDEST DUP3 MSTORE POP POP JUMP JUMPDEST PUSH1 0x0 PUSH1 0x20 DUP3 ADD SWAP1 POP PUSH2 0x47E PUSH1 0x0 DUP4 ADD DUP5 PUSH2 0x45A JUMP JUMPDEST SWAP3 SWAP2 POP POP JUMP JUMPDEST PUSH2 0x48D DUP2 PUSH2 0x321 JUMP JUMPDEST DUP3 MSTORE POP POP JUMP JUMPDEST PUSH1 0x20 DUP3 ADD PUSH1 0x0 DUP3 ADD MLOAD PUSH2 0x4A9 PUSH1 0x0 DUP6 ADD DUP3 PUSH2 0x484 JUMP JUMPDEST POP POP POP POP JUMP JUMPDEST PUSH1 0x0 PUSH1 0x20 DUP3 ADD SWAP1 POP PUSH2 0x4C4 PUSH1 0x0 DUP4 ADD DUP5 PUSH2 0x493 JUMP JUMPDEST SWAP3 SWAP2 POP POP JUMP JUMPDEST PUSH2 0x4D3 DUP2 PUSH2 0x448 JUMP JUMPDEST DUP2 EQ PUSH2 0x4DE JUMPI PUSH1 0x0 DUP1 REVERT JUMPDEST POP JUMP JUMPDEST PUSH1 0x0 DUP2 MLOAD SWAP1 POP PUSH2 0x4F0 DUP2 PUSH2 0x4CA JUMP JUMPDEST SWAP3 SWAP2 POP POP JUMP JUMPDEST PUSH1 0x0 PUSH1 0x20 DUP3 DUP5 SUB SLT ISZERO PUSH2 0x50C JUMPI PUSH2 0x50B PUSH2 0x31C JUMP JUMPDEST JUMPDEST PUSH1 0x0 PUSH2 0x51A DUP5 DUP3 DUP6 ADD PUSH2 0x4E1 JUMP JUMPDEST SWAP2 POP POP SWAP3 SWAP2 POP POP JUMP INVALID LOG2 PUSH5 0x6970667358 0x22 SLT KECCAK256 0xD0 0x2D SIGNEXTEND PUSH26 0x62F89754C313A6FB1C0ECB9834BA94FBA67A349C57AAD6B58075 DUP11 0x5E PUSH5 0x736F6C6343 STOP ADDMOD EXP STOP CALLER "
				},
				"gasEstimates": {
					"creation": {
						"codeDepositCost": "273800",
						"executionCost": "312",
						"totalCost": "274112"
					},
					"external": {
						"getBuyer(uint256)": "infinite",
						"getCDS(uint256)": "infinite",
						"getCDSId()": "2657",
						"getSeller(uint256)": "infinite",
						"nextPayDate(uint256)": "infinite"
					},
					"internal": {
						"_accept(bool,uint256,uint256)": "infinite",
						"_cancel(uint256)": "infinite",
						"_claim(uint256)": "infinite",
						"_close(uint256)": "infinite",
						"_create(bool,uint256,uint256,uint256,uint256,uint256,uint32,uint32)": "infinite",
						"_payPremium(uint256)": "infinite"
					}
				},
				"methodIdentifiers": {
					"getBuyer(uint256)": "5bf608b8",
					"getCDS(uint256)": "5af8d21c",
					"getCDSId()": "d0e5d955",
					"getSeller(uint256)": "d6a9de51",
					"nextPayDate(uint256)": "44a9d244"
				}
			},
			"storageLayout": {
				"storage": [
					{
						"astId": 920,
						"contract": "contracts/Handler/CDSFactory.sol:CDSFactory",
						"label": "_cdsId",
						"offset": 0,
						"slot": "0",
						"type": "t_struct(Counter)140_storage"
					},
					{
						"astId": 925,
						"contract": "contracts/Handler/CDSFactory.sol:CDSFactory",
						"label": "_cdsList",
						"offset": 0,
						"slot": "1",
						"type": "t_mapping(t_uint256,t_contract(CDS)847)"
					},
					{
						"astId": 929,
						"contract": "contracts/Handler/CDSFactory.sol:CDSFactory",
						"label": "nextPayDate",
						"offset": 0,
						"slot": "2",
						"type": "t_mapping(t_uint256,t_uint256)"
					}
				],
				"types": {
					"t_contract(CDS)847": {
						"encoding": "inplace",
						"label": "contract CDS",
						"numberOfBytes": "20"
					},
					"t_mapping(t_uint256,t_contract(CDS)847)": {
						"encoding": "mapping",
						"key": "t_uint256",
						"label": "mapping(uint256 => contract CDS)",
						"numberOfBytes": "32",
						"value": "t_contract(CDS)847"
					},
					"t_mapping(t_uint256,t_uint256)": {
						"encoding": "mapping",
						"key": "t_uint256",
						"label": "mapping(uint256 => uint256)",
						"numberOfBytes": "32",
						"value": "t_uint256"
					},
					"t_struct(Counter)140_storage": {
						"encoding": "inplace",
						"label": "struct Counters.Counter",
						"members": [
							{
								"astId": 139,
								"contract": "contracts/Handler/CDSFactory.sol:CDSFactory",
								"label": "_value",
								"offset": 0,
								"slot": "0",
								"type": "t_uint256"
							}
						],
						"numberOfBytes": "32"
					},
					"t_uint256": {
						"encoding": "inplace",
						"label": "uint256",
						"numberOfBytes": "32"
					}
				}
			},
			"userdoc": {
				"kind": "user",
				"methods": {},
				"version": 1
			}
		}
	}
}