{
	"contracts/Handler/Swaps.sol": {
		"Swaps": {
			"abi": [
				{
					"inputs": [
						{
							"internalType": "bool",
							"name": "_isBuyerHost",
							"type": "bool"
						},
						{
							"internalType": "uint256",
							"name": "_initAssetPrice",
							"type": "uint256"
						},
						{
							"internalType": "uint256",
							"name": "_acceptedSwapId",
							"type": "uint256"
						}
					],
					"name": "accept",
					"outputs": [
						{
							"internalType": "uint256",
							"name": "",
							"type": "uint256"
						}
					],
					"stateMutability": "nonpayable",
					"type": "function"
				},
				{
					"inputs": [
						{
							"internalType": "uint256",
							"name": "_targetSwapId",
							"type": "uint256"
						}
					],
					"name": "cancel",
					"outputs": [],
					"stateMutability": "nonpayable",
					"type": "function"
				},
				{
					"inputs": [
						{
							"internalType": "uint256",
							"name": "_targetSwapId",
							"type": "uint256"
						}
					],
					"name": "claim",
					"outputs": [],
					"stateMutability": "nonpayable",
					"type": "function"
				},
				{
					"inputs": [
						{
							"internalType": "uint256",
							"name": "_targetSwapId",
							"type": "uint256"
						}
					],
					"name": "close",
					"outputs": [],
					"stateMutability": "nonpayable",
					"type": "function"
				},
				{
					"inputs": [
						{
							"internalType": "bool",
							"name": "_isBuyer",
							"type": "bool"
						},
						{
							"internalType": "uint256",
							"name": "_initAssetPrice",
							"type": "uint256"
						},
						{
							"internalType": "uint256",
							"name": "_claimPrice",
							"type": "uint256"
						},
						{
							"internalType": "uint256",
							"name": "_liquidationPrice",
							"type": "uint256"
						},
						{
							"internalType": "uint256",
							"name": "_sellerDeposit",
							"type": "uint256"
						},
						{
							"internalType": "uint256",
							"name": "_premium",
							"type": "uint256"
						},
						{
							"internalType": "uint32",
							"name": "_totalRounds",
							"type": "uint32"
						},
						{
							"internalType": "uint32",
							"name": "_assetType",
							"type": "uint32"
						}
					],
					"name": "create",
					"outputs": [
						{
							"internalType": "uint256",
							"name": "",
							"type": "uint256"
						}
					],
					"stateMutability": "nonpayable",
					"type": "function"
				},
				{
					"inputs": [
						{
							"internalType": "uint256",
							"name": "swapId",
							"type": "uint256"
						}
					],
					"name": "getBuyer",
					"outputs": [
						{
							"internalType": "address",
							"name": "",
							"type": "address"
						}
					],
					"stateMutability": "view",
					"type": "function"
				},
				{
					"inputs": [
						{
							"internalType": "uint256",
							"name": "swapId",
							"type": "uint256"
						}
					],
					"name": "getNextPayDate",
					"outputs": [
						{
							"internalType": "uint256",
							"name": "",
							"type": "uint256"
						}
					],
					"stateMutability": "view",
					"type": "function"
				},
				{
					"inputs": [
						{
							"internalType": "uint256",
							"name": "swapId",
							"type": "uint256"
						}
					],
					"name": "getPremium",
					"outputs": [
						{
							"internalType": "uint256",
							"name": "",
							"type": "uint256"
						}
					],
					"stateMutability": "view",
					"type": "function"
				},
				{
					"inputs": [
						{
							"internalType": "uint256",
							"name": "swapId",
							"type": "uint256"
						}
					],
					"name": "getPrices",
					"outputs": [
						{
							"internalType": "uint256[5]",
							"name": "",
							"type": "uint256[5]"
						}
					],
					"stateMutability": "view",
					"type": "function"
				},
				{
					"inputs": [
						{
							"internalType": "uint256",
							"name": "swapId",
							"type": "uint256"
						}
					],
					"name": "getRounds",
					"outputs": [
						{
							"internalType": "uint32",
							"name": "",
							"type": "uint32"
						}
					],
					"stateMutability": "view",
					"type": "function"
				},
				{
					"inputs": [
						{
							"internalType": "uint256",
							"name": "swapId",
							"type": "uint256"
						}
					],
					"name": "getSeller",
					"outputs": [
						{
							"internalType": "address",
							"name": "",
							"type": "address"
						}
					],
					"stateMutability": "view",
					"type": "function"
				},
				{
					"inputs": [
						{
							"internalType": "uint256",
							"name": "swapId",
							"type": "uint256"
						}
					],
					"name": "getSellerDeposit",
					"outputs": [
						{
							"internalType": "uint256",
							"name": "",
							"type": "uint256"
						}
					],
					"stateMutability": "view",
					"type": "function"
				},
				{
					"inputs": [
						{
							"internalType": "uint256",
							"name": "swapId",
							"type": "uint256"
						}
					],
					"name": "getStatus",
					"outputs": [
						{
							"internalType": "enum Swap.Status",
							"name": "",
							"type": "uint8"
						}
					],
					"stateMutability": "view",
					"type": "function"
				},
				{
					"inputs": [
						{
							"internalType": "uint256",
							"name": "swapId",
							"type": "uint256"
						}
					],
					"name": "getSwap",
					"outputs": [
						{
							"internalType": "contract Swap",
							"name": "",
							"type": "address"
						}
					],
					"stateMutability": "view",
					"type": "function"
				},
				{
					"inputs": [],
					"name": "getSwapId",
					"outputs": [
						{
							"components": [
								{
									"internalType": "uint256",
									"name": "_value",
									"type": "uint256"
								}
							],
							"internalType": "struct Counters.Counter",
							"name": "",
							"type": "tuple"
						}
					],
					"stateMutability": "view",
					"type": "function"
				},
				{
					"inputs": [
						{
							"internalType": "uint256",
							"name": "_targetSwapId",
							"type": "uint256"
						}
					],
					"name": "payPremium",
					"outputs": [],
					"stateMutability": "nonpayable",
					"type": "function"
				}
			],
			"devdoc": {
				"kind": "dev",
				"methods": {},
				"version": 1
			},
			"evm": {
				"assembly": "    /* \"contracts/Handler/Swaps.sol\":138:3634  contract Swaps {... */\n  mstore(0x40, 0x80)\n  callvalue\n  dup1\n  iszero\n  tag_1\n  jumpi\n  0x00\n  dup1\n  revert\ntag_1:\n  pop\n  dataSize(sub_0)\n  dup1\n  dataOffset(sub_0)\n  0x00\n  codecopy\n  0x00\n  return\nstop\n\nsub_0: assembly {\n        /* \"contracts/Handler/Swaps.sol\":138:3634  contract Swaps {... */\n      mstore(0x40, 0x80)\n      callvalue\n      dup1\n      iszero\n      tag_1\n      jumpi\n      0x00\n      dup1\n      revert\n    tag_1:\n      pop\n      jumpi(tag_2, lt(calldatasize, 0x04))\n      shr(0xe0, calldataload(0x00))\n      dup1\n      0x5bf608b8\n      gt\n      tag_19\n      jumpi\n      dup1\n      0x8bfd13ae\n      gt\n      tag_20\n      jumpi\n      dup1\n      0x8bfd13ae\n      eq\n      tag_15\n      jumpi\n      dup1\n      0x91492956\n      eq\n      tag_16\n      jumpi\n      dup1\n      0xd6a9de51\n      eq\n      tag_17\n      jumpi\n      dup1\n      0xf566edac\n      eq\n      tag_18\n      jumpi\n      jump(tag_2)\n    tag_20:\n      dup1\n      0x5bf608b8\n      eq\n      tag_11\n      jumpi\n      dup1\n      0x5c622a0e\n      eq\n      tag_12\n      jumpi\n      dup1\n      0x88106323\n      eq\n      tag_13\n      jumpi\n      dup1\n      0x8a614dd5\n      eq\n      tag_14\n      jumpi\n      jump(tag_2)\n    tag_19:\n      dup1\n      0x40e58ee5\n      gt\n      tag_21\n      jumpi\n      dup1\n      0x40e58ee5\n      eq\n      tag_7\n      jumpi\n      dup1\n      0x4364b26e\n      eq\n      tag_8\n      jumpi\n      dup1\n      0x496ab39a\n      eq\n      tag_9\n      jumpi\n      dup1\n      0x4a0d89ba\n      eq\n      tag_10\n      jumpi\n      jump(tag_2)\n    tag_21:\n      dup1\n      0x0aebeb4e\n      eq\n      tag_3\n      jumpi\n      dup1\n      0x13ef3dcc\n      eq\n      tag_4\n      jumpi\n      dup1\n      0x1bf1fffb\n      eq\n      tag_5\n      jumpi\n      dup1\n      0x379607f5\n      eq\n      tag_6\n      jumpi\n    tag_2:\n      0x00\n      dup1\n      revert\n        /* \"contracts/Handler/Swaps.sol\":1614:1749  function close(uint256 _targetSwapId) external isActive(_targetSwapId) {... */\n    tag_3:\n      tag_22\n      0x04\n      dup1\n      calldatasize\n      sub\n      dup2\n      add\n      swap1\n      tag_23\n      swap2\n      swap1\n      tag_24\n      jump\t// in\n    tag_23:\n      tag_25\n      jump\t// in\n    tag_22:\n      stop\n        /* \"contracts/Handler/Swaps.sol\":2845:2950  function getRounds(uint256 swapId) public view returns (uint32) {... */\n    tag_4:\n      tag_26\n      0x04\n      dup1\n      calldatasize\n      sub\n      dup2\n      add\n      swap1\n      tag_27\n      swap2\n      swap1\n      tag_24\n      jump\t// in\n    tag_27:\n      tag_28\n      jump\t// in\n    tag_26:\n      mload(0x40)\n      tag_29\n      swap2\n      swap1\n      tag_30\n      jump\t// in\n    tag_29:\n      mload(0x40)\n      dup1\n      swap2\n      sub\n      swap1\n      return\n        /* \"contracts/Handler/Swaps.sol\":2495:2603  function getPremium(uint256 swapId) public view returns (uint256) {... */\n    tag_5:\n      tag_31\n      0x04\n      dup1\n      calldatasize\n      sub\n      dup2\n      add\n      swap1\n      tag_32\n      swap2\n      swap1\n      tag_24\n      jump\t// in\n    tag_32:\n      tag_33\n      jump\t// in\n    tag_31:\n      mload(0x40)\n      tag_34\n      swap2\n      swap1\n      tag_35\n      jump\t// in\n    tag_34:\n      mload(0x40)\n      dup1\n      swap2\n      sub\n      swap1\n      return\n        /* \"contracts/Handler/Swaps.sol\":2016:2151  function claim(uint256 _targetSwapId) external isActive(_targetSwapId) {... */\n    tag_6:\n      tag_36\n      0x04\n      dup1\n      calldatasize\n      sub\n      dup2\n      add\n      swap1\n      tag_37\n      swap2\n      swap1\n      tag_24\n      jump\t// in\n    tag_37:\n      tag_38\n      jump\t// in\n    tag_36:\n      stop\n        /* \"contracts/Handler/Swaps.sol\":1472:1610  function cancel(uint256 _targetSwapId) external isPending(_targetSwapId) {... */\n    tag_7:\n      tag_39\n      0x04\n      dup1\n      calldatasize\n      sub\n      dup2\n      add\n      swap1\n      tag_40\n      swap2\n      swap1\n      tag_24\n      jump\t// in\n    tag_40:\n      tag_41\n      jump\t// in\n    tag_39:\n      stop\n        /* \"contracts/Handler/Swaps.sol\":1753:2012  function payPremium(uint256 _targetSwapId) external isActive(_targetSwapId) {... */\n    tag_8:\n      tag_42\n      0x04\n      dup1\n      calldatasize\n      sub\n      dup2\n      add\n      swap1\n      tag_43\n      swap2\n      swap1\n      tag_24\n      jump\t// in\n    tag_43:\n      tag_44\n      jump\t// in\n    tag_42:\n      stop\n        /* \"contracts/Handler/Swaps.sol\":2180:2272  function getSwapId() public view returns (Counters.Counter memory) {... */\n    tag_9:\n      tag_45\n      tag_46\n      jump\t// in\n    tag_45:\n      mload(0x40)\n      tag_47\n      swap2\n      swap1\n      tag_48\n      jump\t// in\n    tag_47:\n      mload(0x40)\n      dup1\n      swap2\n      sub\n      swap1\n      return\n        /* \"contracts/Handler/Swaps.sol\":2276:2368  function getSwap(uint256 swapId) public view returns (Swap) {... */\n    tag_10:\n      tag_49\n      0x04\n      dup1\n      calldatasize\n      sub\n      dup2\n      add\n      swap1\n      tag_50\n      swap2\n      swap1\n      tag_24\n      jump\t// in\n    tag_50:\n      tag_51\n      jump\t// in\n    tag_49:\n      mload(0x40)\n      tag_52\n      swap2\n      swap1\n      tag_53\n      jump\t// in\n    tag_52:\n      mload(0x40)\n      dup1\n      swap2\n      sub\n      swap1\n      return\n        /* \"contracts/Handler/Swaps.sol\":2954:3061  function getBuyer(uint256 swapId) public view returns (address) {... */\n    tag_11:\n      tag_54\n      0x04\n      dup1\n      calldatasize\n      sub\n      dup2\n      add\n      swap1\n      tag_55\n      swap2\n      swap1\n      tag_24\n      jump\t// in\n    tag_55:\n      tag_56\n      jump\t// in\n    tag_54:\n      mload(0x40)\n      tag_57\n      swap2\n      swap1\n      tag_58\n      jump\t// in\n    tag_57:\n      mload(0x40)\n      dup1\n      swap2\n      sub\n      swap1\n      return\n        /* \"contracts/Handler/Swaps.sol\":2731:2841  function getStatus(uint256 swapId) public view returns (Swap.Status) {... */\n    tag_12:\n      tag_59\n      0x04\n      dup1\n      calldatasize\n      sub\n      dup2\n      add\n      swap1\n      tag_60\n      swap2\n      swap1\n      tag_24\n      jump\t// in\n    tag_60:\n      tag_61\n      jump\t// in\n    tag_59:\n      mload(0x40)\n      tag_62\n      swap2\n      swap1\n      tag_63\n      jump\t// in\n    tag_62:\n      mload(0x40)\n      dup1\n      swap2\n      sub\n      swap1\n      return\n        /* \"contracts/Handler/Swaps.sol\":2607:2727  function getSellerDeposit(uint256 swapId) public view returns (uint256) {... */\n    tag_13:\n      tag_64\n      0x04\n      dup1\n      calldatasize\n      sub\n      dup2\n      add\n      swap1\n      tag_65\n      swap2\n      swap1\n      tag_24\n      jump\t// in\n    tag_65:\n      tag_66\n      jump\t// in\n    tag_64:\n      mload(0x40)\n      tag_67\n      swap2\n      swap1\n      tag_35\n      jump\t// in\n    tag_67:\n      mload(0x40)\n      dup1\n      swap2\n      sub\n      swap1\n      return\n        /* \"contracts/Handler/Swaps.sol\":331:966  function create(... */\n    tag_14:\n      tag_68\n      0x04\n      dup1\n      calldatasize\n      sub\n      dup2\n      add\n      swap1\n      tag_69\n      swap2\n      swap1\n      tag_70\n      jump\t// in\n    tag_69:\n      tag_71\n      jump\t// in\n    tag_68:\n      mload(0x40)\n      tag_72\n      swap2\n      swap1\n      tag_35\n      jump\t// in\n    tag_72:\n      mload(0x40)\n      dup1\n      swap2\n      sub\n      swap1\n      return\n        /* \"contracts/Handler/Swaps.sol\":3178:3286  function getNextPayDate(uint256 swapId) public view returns (uint256) {... */\n    tag_15:\n      tag_73\n      0x04\n      dup1\n      calldatasize\n      sub\n      dup2\n      add\n      swap1\n      tag_74\n      swap2\n      swap1\n      tag_24\n      jump\t// in\n    tag_74:\n      tag_75\n      jump\t// in\n    tag_73:\n      mload(0x40)\n      tag_76\n      swap2\n      swap1\n      tag_35\n      jump\t// in\n    tag_76:\n      mload(0x40)\n      dup1\n      swap2\n      sub\n      swap1\n      return\n        /* \"contracts/Handler/Swaps.sol\":2372:2491  function getPrices(uint256 swapId) public view returns (uint256[5] memory) {... */\n    tag_16:\n      tag_77\n      0x04\n      dup1\n      calldatasize\n      sub\n      dup2\n      add\n      swap1\n      tag_78\n      swap2\n      swap1\n      tag_24\n      jump\t// in\n    tag_78:\n      tag_79\n      jump\t// in\n    tag_77:\n      mload(0x40)\n      tag_80\n      swap2\n      swap1\n      tag_81\n      jump\t// in\n    tag_80:\n      mload(0x40)\n      dup1\n      swap2\n      sub\n      swap1\n      return\n        /* \"contracts/Handler/Swaps.sol\":3065:3174  function getSeller(uint256 swapId) public view returns (address) {... */\n    tag_17:\n      tag_82\n      0x04\n      dup1\n      calldatasize\n      sub\n      dup2\n      add\n      swap1\n      tag_83\n      swap2\n      swap1\n      tag_24\n      jump\t// in\n    tag_83:\n      tag_84\n      jump\t// in\n    tag_82:\n      mload(0x40)\n      tag_85\n      swap2\n      swap1\n      tag_58\n      jump\t// in\n    tag_85:\n      mload(0x40)\n      dup1\n      swap2\n      sub\n      swap1\n      return\n        /* \"contracts/Handler/Swaps.sol\":970:1468  function accept(... */\n    tag_18:\n      tag_86\n      0x04\n      dup1\n      calldatasize\n      sub\n      dup2\n      add\n      swap1\n      tag_87\n      swap2\n      swap1\n      tag_88\n      jump\t// in\n    tag_87:\n      tag_89\n      jump\t// in\n    tag_86:\n      mload(0x40)\n      tag_90\n      swap2\n      swap1\n      tag_35\n      jump\t// in\n    tag_90:\n      mload(0x40)\n      dup1\n      swap2\n      sub\n      swap1\n      return\n        /* \"contracts/Handler/Swaps.sol\":1614:1749  function close(uint256 _targetSwapId) external isActive(_targetSwapId) {... */\n    tag_25:\n        /* \"contracts/Handler/Swaps.sol\":1670:1683  _targetSwapId */\n      dup1\n        /* \"contracts/Handler/Swaps.sol\":3548:3566  Swap.Status.active */\n      0x02\n        /* \"contracts/Handler/Swaps.sol\":3527:3566  getStatus(swapId) == Swap.Status.active */\n      0x04\n      dup2\n      gt\n      iszero\n      tag_92\n      jumpi\n      tag_93\n      tag_94\n      jump\t// in\n    tag_93:\n    tag_92:\n        /* \"contracts/Handler/Swaps.sol\":3527:3544  getStatus(swapId) */\n      tag_95\n        /* \"contracts/Handler/Swaps.sol\":3537:3543  swapId */\n      dup3\n        /* \"contracts/Handler/Swaps.sol\":3527:3536  getStatus */\n      tag_61\n        /* \"contracts/Handler/Swaps.sol\":3527:3544  getStatus(swapId) */\n      jump\t// in\n    tag_95:\n        /* \"contracts/Handler/Swaps.sol\":3527:3566  getStatus(swapId) == Swap.Status.active */\n      0x04\n      dup2\n      gt\n      iszero\n      tag_96\n      jumpi\n      tag_97\n      tag_94\n      jump\t// in\n    tag_97:\n    tag_96:\n      eq\n        /* \"contracts/Handler/Swaps.sol\":3512:3620  require(... */\n      tag_98\n      jumpi\n      mload(0x40)\n      0x08c379a000000000000000000000000000000000000000000000000000000000\n      dup2\n      mstore\n      0x04\n      add\n      tag_99\n      swap1\n      tag_100\n      jump\t// in\n    tag_99:\n      mload(0x40)\n      dup1\n      swap2\n      sub\n      swap1\n      revert\n    tag_98:\n        /* \"contracts/Handler/Swaps.sol\":1691:1713  getSwap(_targetSwapId) */\n      tag_102\n        /* \"contracts/Handler/Swaps.sol\":1699:1712  _targetSwapId */\n      dup3\n        /* \"contracts/Handler/Swaps.sol\":1691:1698  getSwap */\n      tag_51\n        /* \"contracts/Handler/Swaps.sol\":1691:1713  getSwap(_targetSwapId) */\n      jump\t// in\n    tag_102:\n        /* \"contracts/Handler/Swaps.sol\":1691:1723  getSwap(_targetSwapId).setStatus */\n      0xffffffffffffffffffffffffffffffffffffffff\n      and\n      0x2e49d78b\n        /* \"contracts/Handler/Swaps.sol\":1724:1743  Swap.Status.expired */\n      0x04\n        /* \"contracts/Handler/Swaps.sol\":1691:1744  getSwap(_targetSwapId).setStatus(Swap.Status.expired) */\n      mload(0x40)\n      dup3\n      0xffffffff\n      and\n      0xe0\n      shl\n      dup2\n      mstore\n      0x04\n      add\n      tag_103\n      swap2\n      swap1\n      tag_63\n      jump\t// in\n    tag_103:\n      0x20\n      mload(0x40)\n      dup1\n      dup4\n      sub\n      dup2\n      0x00\n      dup8\n      dup1\n      extcodesize\n      iszero\n      dup1\n      iszero\n      tag_104\n      jumpi\n      0x00\n      dup1\n      revert\n    tag_104:\n      pop\n      gas\n      call\n      iszero\n      dup1\n      iszero\n      tag_106\n      jumpi\n      returndatasize\n      0x00\n      dup1\n      returndatacopy\n      revert(0x00, returndatasize)\n    tag_106:\n      pop\n      pop\n      pop\n      pop\n      mload(0x40)\n      returndatasize\n      not(0x1f)\n      0x1f\n      dup3\n      add\n      and\n      dup3\n      add\n      dup1\n      0x40\n      mstore\n      pop\n      dup2\n      add\n      swap1\n      tag_107\n      swap2\n      swap1\n      tag_108\n      jump\t// in\n    tag_107:\n      pop\n        /* \"contracts/Handler/Swaps.sol\":1614:1749  function close(uint256 _targetSwapId) external isActive(_targetSwapId) {... */\n      pop\n      pop\n      jump\t// out\n        /* \"contracts/Handler/Swaps.sol\":2845:2950  function getRounds(uint256 swapId) public view returns (uint32) {... */\n    tag_28:\n        /* \"contracts/Handler/Swaps.sol\":2901:2907  uint32 */\n      0x00\n        /* \"contracts/Handler/Swaps.sol\":2922:2928  _swaps */\n      0x01\n        /* \"contracts/Handler/Swaps.sol\":2922:2936  _swaps[swapId] */\n      0x00\n        /* \"contracts/Handler/Swaps.sol\":2929:2935  swapId */\n      dup4\n        /* \"contracts/Handler/Swaps.sol\":2922:2936  _swaps[swapId] */\n      dup2\n      mstore\n      0x20\n      add\n      swap1\n      dup2\n      mstore\n      0x20\n      add\n      0x00\n      keccak256\n      0x00\n      swap1\n      sload\n      swap1\n      0x0100\n      exp\n      swap1\n      div\n      0xffffffffffffffffffffffffffffffffffffffff\n      and\n        /* \"contracts/Handler/Swaps.sol\":2922:2943  _swaps[swapId].rounds */\n      0xffffffffffffffffffffffffffffffffffffffff\n      and\n      0xa2e800ad\n        /* \"contracts/Handler/Swaps.sol\":2922:2945  _swaps[swapId].rounds() */\n      mload(0x40)\n      dup2\n      0xffffffff\n      and\n      0xe0\n      shl\n      dup2\n      mstore\n      0x04\n      add\n      0x20\n      mload(0x40)\n      dup1\n      dup4\n      sub\n      dup2\n      dup7\n      dup1\n      extcodesize\n      iszero\n      dup1\n      iszero\n      tag_110\n      jumpi\n      0x00\n      dup1\n      revert\n    tag_110:\n      pop\n      gas\n      staticcall\n      iszero\n      dup1\n      iszero\n      tag_112\n      jumpi\n      returndatasize\n      0x00\n      dup1\n      returndatacopy\n      revert(0x00, returndatasize)\n    tag_112:\n      pop\n      pop\n      pop\n      pop\n      mload(0x40)\n      returndatasize\n      not(0x1f)\n      0x1f\n      dup3\n      add\n      and\n      dup3\n      add\n      dup1\n      0x40\n      mstore\n      pop\n      dup2\n      add\n      swap1\n      tag_113\n      swap2\n      swap1\n      tag_114\n      jump\t// in\n    tag_113:\n        /* \"contracts/Handler/Swaps.sol\":2915:2945  return _swaps[swapId].rounds() */\n      swap1\n      pop\n        /* \"contracts/Handler/Swaps.sol\":2845:2950  function getRounds(uint256 swapId) public view returns (uint32) {... */\n      swap2\n      swap1\n      pop\n      jump\t// out\n        /* \"contracts/Handler/Swaps.sol\":2495:2603  function getPremium(uint256 swapId) public view returns (uint256) {... */\n    tag_33:\n        /* \"contracts/Handler/Swaps.sol\":2552:2559  uint256 */\n      0x00\n        /* \"contracts/Handler/Swaps.sol\":2574:2580  _swaps */\n      0x01\n        /* \"contracts/Handler/Swaps.sol\":2574:2588  _swaps[swapId] */\n      0x00\n        /* \"contracts/Handler/Swaps.sol\":2581:2587  swapId */\n      dup4\n        /* \"contracts/Handler/Swaps.sol\":2574:2588  _swaps[swapId] */\n      dup2\n      mstore\n      0x20\n      add\n      swap1\n      dup2\n      mstore\n      0x20\n      add\n      0x00\n      keccak256\n      0x00\n      swap1\n      sload\n      swap1\n      0x0100\n      exp\n      swap1\n      div\n      0xffffffffffffffffffffffffffffffffffffffff\n      and\n        /* \"contracts/Handler/Swaps.sol\":2574:2596  _swaps[swapId].premium */\n      0xffffffffffffffffffffffffffffffffffffffff\n      and\n      0xe0a73a93\n        /* \"contracts/Handler/Swaps.sol\":2574:2598  _swaps[swapId].premium() */\n      mload(0x40)\n      dup2\n      0xffffffff\n      and\n      0xe0\n      shl\n      dup2\n      mstore\n      0x04\n      add\n      0x20\n      mload(0x40)\n      dup1\n      dup4\n      sub\n      dup2\n      dup7\n      dup1\n      extcodesize\n      iszero\n      dup1\n      iszero\n      tag_116\n      jumpi\n      0x00\n      dup1\n      revert\n    tag_116:\n      pop\n      gas\n      staticcall\n      iszero\n      dup1\n      iszero\n      tag_118\n      jumpi\n      returndatasize\n      0x00\n      dup1\n      returndatacopy\n      revert(0x00, returndatasize)\n    tag_118:\n      pop\n      pop\n      pop\n      pop\n      mload(0x40)\n      returndatasize\n      not(0x1f)\n      0x1f\n      dup3\n      add\n      and\n      dup3\n      add\n      dup1\n      0x40\n      mstore\n      pop\n      dup2\n      add\n      swap1\n      tag_119\n      swap2\n      swap1\n      tag_120\n      jump\t// in\n    tag_119:\n        /* \"contracts/Handler/Swaps.sol\":2567:2598  return _swaps[swapId].premium() */\n      swap1\n      pop\n        /* \"contracts/Handler/Swaps.sol\":2495:2603  function getPremium(uint256 swapId) public view returns (uint256) {... */\n      swap2\n      swap1\n      pop\n      jump\t// out\n        /* \"contracts/Handler/Swaps.sol\":2016:2151  function claim(uint256 _targetSwapId) external isActive(_targetSwapId) {... */\n    tag_38:\n        /* \"contracts/Handler/Swaps.sol\":2072:2085  _targetSwapId */\n      dup1\n        /* \"contracts/Handler/Swaps.sol\":3548:3566  Swap.Status.active */\n      0x02\n        /* \"contracts/Handler/Swaps.sol\":3527:3566  getStatus(swapId) == Swap.Status.active */\n      0x04\n      dup2\n      gt\n      iszero\n      tag_122\n      jumpi\n      tag_123\n      tag_94\n      jump\t// in\n    tag_123:\n    tag_122:\n        /* \"contracts/Handler/Swaps.sol\":3527:3544  getStatus(swapId) */\n      tag_124\n        /* \"contracts/Handler/Swaps.sol\":3537:3543  swapId */\n      dup3\n        /* \"contracts/Handler/Swaps.sol\":3527:3536  getStatus */\n      tag_61\n        /* \"contracts/Handler/Swaps.sol\":3527:3544  getStatus(swapId) */\n      jump\t// in\n    tag_124:\n        /* \"contracts/Handler/Swaps.sol\":3527:3566  getStatus(swapId) == Swap.Status.active */\n      0x04\n      dup2\n      gt\n      iszero\n      tag_125\n      jumpi\n      tag_126\n      tag_94\n      jump\t// in\n    tag_126:\n    tag_125:\n      eq\n        /* \"contracts/Handler/Swaps.sol\":3512:3620  require(... */\n      tag_127\n      jumpi\n      mload(0x40)\n      0x08c379a000000000000000000000000000000000000000000000000000000000\n      dup2\n      mstore\n      0x04\n      add\n      tag_128\n      swap1\n      tag_100\n      jump\t// in\n    tag_128:\n      mload(0x40)\n      dup1\n      swap2\n      sub\n      swap1\n      revert\n    tag_127:\n        /* \"contracts/Handler/Swaps.sol\":2093:2115  getSwap(_targetSwapId) */\n      tag_130\n        /* \"contracts/Handler/Swaps.sol\":2101:2114  _targetSwapId */\n      dup3\n        /* \"contracts/Handler/Swaps.sol\":2093:2100  getSwap */\n      tag_51\n        /* \"contracts/Handler/Swaps.sol\":2093:2115  getSwap(_targetSwapId) */\n      jump\t// in\n    tag_130:\n        /* \"contracts/Handler/Swaps.sol\":2093:2125  getSwap(_targetSwapId).setStatus */\n      0xffffffffffffffffffffffffffffffffffffffff\n      and\n      0x2e49d78b\n        /* \"contracts/Handler/Swaps.sol\":2126:2145  Swap.Status.claimed */\n      0x03\n        /* \"contracts/Handler/Swaps.sol\":2093:2146  getSwap(_targetSwapId).setStatus(Swap.Status.claimed) */\n      mload(0x40)\n      dup3\n      0xffffffff\n      and\n      0xe0\n      shl\n      dup2\n      mstore\n      0x04\n      add\n      tag_131\n      swap2\n      swap1\n      tag_63\n      jump\t// in\n    tag_131:\n      0x20\n      mload(0x40)\n      dup1\n      dup4\n      sub\n      dup2\n      0x00\n      dup8\n      dup1\n      extcodesize\n      iszero\n      dup1\n      iszero\n      tag_132\n      jumpi\n      0x00\n      dup1\n      revert\n    tag_132:\n      pop\n      gas\n      call\n      iszero\n      dup1\n      iszero\n      tag_134\n      jumpi\n      returndatasize\n      0x00\n      dup1\n      returndatacopy\n      revert(0x00, returndatasize)\n    tag_134:\n      pop\n      pop\n      pop\n      pop\n      mload(0x40)\n      returndatasize\n      not(0x1f)\n      0x1f\n      dup3\n      add\n      and\n      dup3\n      add\n      dup1\n      0x40\n      mstore\n      pop\n      dup2\n      add\n      swap1\n      tag_135\n      swap2\n      swap1\n      tag_108\n      jump\t// in\n    tag_135:\n      pop\n        /* \"contracts/Handler/Swaps.sol\":2016:2151  function claim(uint256 _targetSwapId) external isActive(_targetSwapId) {... */\n      pop\n      pop\n      jump\t// out\n        /* \"contracts/Handler/Swaps.sol\":1472:1610  function cancel(uint256 _targetSwapId) external isPending(_targetSwapId) {... */\n    tag_41:\n        /* \"contracts/Handler/Swaps.sol\":1530:1543  _targetSwapId */\n      dup1\n        /* \"contracts/Handler/Swaps.sol\":3382:3401  Swap.Status.pending */\n      0x01\n        /* \"contracts/Handler/Swaps.sol\":3361:3401  getStatus(swapId) == Swap.Status.pending */\n      0x04\n      dup2\n      gt\n      iszero\n      tag_137\n      jumpi\n      tag_138\n      tag_94\n      jump\t// in\n    tag_138:\n    tag_137:\n        /* \"contracts/Handler/Swaps.sol\":3361:3378  getStatus(swapId) */\n      tag_139\n        /* \"contracts/Handler/Swaps.sol\":3371:3377  swapId */\n      dup3\n        /* \"contracts/Handler/Swaps.sol\":3361:3370  getStatus */\n      tag_61\n        /* \"contracts/Handler/Swaps.sol\":3361:3378  getStatus(swapId) */\n      jump\t// in\n    tag_139:\n        /* \"contracts/Handler/Swaps.sol\":3361:3401  getStatus(swapId) == Swap.Status.pending */\n      0x04\n      dup2\n      gt\n      iszero\n      tag_140\n      jumpi\n      tag_141\n      tag_94\n      jump\t// in\n    tag_141:\n    tag_140:\n      eq\n        /* \"contracts/Handler/Swaps.sol\":3346:3456  require(... */\n      tag_142\n      jumpi\n      mload(0x40)\n      0x08c379a000000000000000000000000000000000000000000000000000000000\n      dup2\n      mstore\n      0x04\n      add\n      tag_143\n      swap1\n      tag_144\n      jump\t// in\n    tag_143:\n      mload(0x40)\n      dup1\n      swap2\n      sub\n      swap1\n      revert\n    tag_142:\n        /* \"contracts/Handler/Swaps.sol\":1551:1573  getSwap(_targetSwapId) */\n      tag_146\n        /* \"contracts/Handler/Swaps.sol\":1559:1572  _targetSwapId */\n      dup3\n        /* \"contracts/Handler/Swaps.sol\":1551:1558  getSwap */\n      tag_51\n        /* \"contracts/Handler/Swaps.sol\":1551:1573  getSwap(_targetSwapId) */\n      jump\t// in\n    tag_146:\n        /* \"contracts/Handler/Swaps.sol\":1551:1583  getSwap(_targetSwapId).setStatus */\n      0xffffffffffffffffffffffffffffffffffffffff\n      and\n      0x2e49d78b\n        /* \"contracts/Handler/Swaps.sol\":1584:1604  Swap.Status.inactive */\n      0x00\n        /* \"contracts/Handler/Swaps.sol\":1551:1605  getSwap(_targetSwapId).setStatus(Swap.Status.inactive) */\n      mload(0x40)\n      dup3\n      0xffffffff\n      and\n      0xe0\n      shl\n      dup2\n      mstore\n      0x04\n      add\n      tag_147\n      swap2\n      swap1\n      tag_63\n      jump\t// in\n    tag_147:\n      0x20\n      mload(0x40)\n      dup1\n      dup4\n      sub\n      dup2\n      0x00\n      dup8\n      dup1\n      extcodesize\n      iszero\n      dup1\n      iszero\n      tag_148\n      jumpi\n      0x00\n      dup1\n      revert\n    tag_148:\n      pop\n      gas\n      call\n      iszero\n      dup1\n      iszero\n      tag_150\n      jumpi\n      returndatasize\n      0x00\n      dup1\n      returndatacopy\n      revert(0x00, returndatasize)\n    tag_150:\n      pop\n      pop\n      pop\n      pop\n      mload(0x40)\n      returndatasize\n      not(0x1f)\n      0x1f\n      dup3\n      add\n      and\n      dup3\n      add\n      dup1\n      0x40\n      mstore\n      pop\n      dup2\n      add\n      swap1\n      tag_151\n      swap2\n      swap1\n      tag_108\n      jump\t// in\n    tag_151:\n      pop\n        /* \"contracts/Handler/Swaps.sol\":1472:1610  function cancel(uint256 _targetSwapId) external isPending(_targetSwapId) {... */\n      pop\n      pop\n      jump\t// out\n        /* \"contracts/Handler/Swaps.sol\":1753:2012  function payPremium(uint256 _targetSwapId) external isActive(_targetSwapId) {... */\n    tag_44:\n        /* \"contracts/Handler/Swaps.sol\":1814:1827  _targetSwapId */\n      dup1\n        /* \"contracts/Handler/Swaps.sol\":3548:3566  Swap.Status.active */\n      0x02\n        /* \"contracts/Handler/Swaps.sol\":3527:3566  getStatus(swapId) == Swap.Status.active */\n      0x04\n      dup2\n      gt\n      iszero\n      tag_153\n      jumpi\n      tag_154\n      tag_94\n      jump\t// in\n    tag_154:\n    tag_153:\n        /* \"contracts/Handler/Swaps.sol\":3527:3544  getStatus(swapId) */\n      tag_155\n        /* \"contracts/Handler/Swaps.sol\":3537:3543  swapId */\n      dup3\n        /* \"contracts/Handler/Swaps.sol\":3527:3536  getStatus */\n      tag_61\n        /* \"contracts/Handler/Swaps.sol\":3527:3544  getStatus(swapId) */\n      jump\t// in\n    tag_155:\n        /* \"contracts/Handler/Swaps.sol\":3527:3566  getStatus(swapId) == Swap.Status.active */\n      0x04\n      dup2\n      gt\n      iszero\n      tag_156\n      jumpi\n      tag_157\n      tag_94\n      jump\t// in\n    tag_157:\n    tag_156:\n      eq\n        /* \"contracts/Handler/Swaps.sol\":3512:3620  require(... */\n      tag_158\n      jumpi\n      mload(0x40)\n      0x08c379a000000000000000000000000000000000000000000000000000000000\n      dup2\n      mstore\n      0x04\n      add\n      tag_159\n      swap1\n      tag_100\n      jump\t// in\n    tag_159:\n      mload(0x40)\n      dup1\n      swap2\n      sub\n      swap1\n      revert\n    tag_158:\n        /* \"contracts/Handler/Swaps.sol\":1870:1871  0 */\n      0x00\n        /* \"contracts/Handler/Swaps.sol\":1843:1867  getRounds(_targetSwapId) */\n      tag_161\n        /* \"contracts/Handler/Swaps.sol\":1853:1866  _targetSwapId */\n      dup4\n        /* \"contracts/Handler/Swaps.sol\":1843:1852  getRounds */\n      tag_28\n        /* \"contracts/Handler/Swaps.sol\":1843:1867  getRounds(_targetSwapId) */\n      jump\t// in\n    tag_161:\n        /* \"contracts/Handler/Swaps.sol\":1843:1871  getRounds(_targetSwapId) > 0 */\n      0xffffffff\n      and\n      gt\n        /* \"contracts/Handler/Swaps.sol\":1835:1895  require(getRounds(_targetSwapId) > 0, 'Round already ended') */\n      tag_162\n      jumpi\n      mload(0x40)\n      0x08c379a000000000000000000000000000000000000000000000000000000000\n      dup2\n      mstore\n      0x04\n      add\n      tag_163\n      swap1\n      tag_164\n      jump\t// in\n    tag_163:\n      mload(0x40)\n      dup1\n      swap2\n      sub\n      swap1\n      revert\n    tag_162:\n        /* \"contracts/Handler/Swaps.sol\":1932:1939  4 weeks */\n      0x24ea00\n        /* \"contracts/Handler/Swaps.sol\":1901:1913  _nextPayDate */\n      0x02\n        /* \"contracts/Handler/Swaps.sol\":1901:1928  _nextPayDate[_targetSwapId] */\n      0x00\n        /* \"contracts/Handler/Swaps.sol\":1914:1927  _targetSwapId */\n      dup5\n        /* \"contracts/Handler/Swaps.sol\":1901:1928  _nextPayDate[_targetSwapId] */\n      dup2\n      mstore\n      0x20\n      add\n      swap1\n      dup2\n      mstore\n      0x20\n      add\n      0x00\n      keccak256\n      0x00\n        /* \"contracts/Handler/Swaps.sol\":1901:1939  _nextPayDate[_targetSwapId] += 4 weeks */\n      dup3\n      dup3\n      sload\n      tag_165\n      swap2\n      swap1\n      tag_166\n      jump\t// in\n    tag_165:\n      swap3\n      pop\n      pop\n      dup2\n      swap1\n      sstore\n      pop\n        /* \"contracts/Handler/Swaps.sol\":1945:1967  getSwap(_targetSwapId) */\n      tag_167\n        /* \"contracts/Handler/Swaps.sol\":1953:1966  _targetSwapId */\n      dup3\n        /* \"contracts/Handler/Swaps.sol\":1945:1952  getSwap */\n      tag_51\n        /* \"contracts/Handler/Swaps.sol\":1945:1967  getSwap(_targetSwapId) */\n      jump\t// in\n    tag_167:\n        /* \"contracts/Handler/Swaps.sol\":1945:1977  getSwap(_targetSwapId).setRounds */\n      0xffffffffffffffffffffffffffffffffffffffff\n      and\n      0xd2895e93\n        /* \"contracts/Handler/Swaps.sol\":2005:2006  1 */\n      0x01\n        /* \"contracts/Handler/Swaps.sol\":1978:2002  getRounds(_targetSwapId) */\n      tag_168\n        /* \"contracts/Handler/Swaps.sol\":1988:2001  _targetSwapId */\n      dup6\n        /* \"contracts/Handler/Swaps.sol\":1978:1987  getRounds */\n      tag_28\n        /* \"contracts/Handler/Swaps.sol\":1978:2002  getRounds(_targetSwapId) */\n      jump\t// in\n    tag_168:\n        /* \"contracts/Handler/Swaps.sol\":1978:2006  getRounds(_targetSwapId) - 1 */\n      tag_169\n      swap2\n      swap1\n      tag_170\n      jump\t// in\n    tag_169:\n        /* \"contracts/Handler/Swaps.sol\":1945:2007  getSwap(_targetSwapId).setRounds(getRounds(_targetSwapId) - 1) */\n      mload(0x40)\n      dup3\n      0xffffffff\n      and\n      0xe0\n      shl\n      dup2\n      mstore\n      0x04\n      add\n      tag_171\n      swap2\n      swap1\n      tag_30\n      jump\t// in\n    tag_171:\n      0x20\n      mload(0x40)\n      dup1\n      dup4\n      sub\n      dup2\n      0x00\n      dup8\n      dup1\n      extcodesize\n      iszero\n      dup1\n      iszero\n      tag_172\n      jumpi\n      0x00\n      dup1\n      revert\n    tag_172:\n      pop\n      gas\n      call\n      iszero\n      dup1\n      iszero\n      tag_174\n      jumpi\n      returndatasize\n      0x00\n      dup1\n      returndatacopy\n      revert(0x00, returndatasize)\n    tag_174:\n      pop\n      pop\n      pop\n      pop\n      mload(0x40)\n      returndatasize\n      not(0x1f)\n      0x1f\n      dup3\n      add\n      and\n      dup3\n      add\n      dup1\n      0x40\n      mstore\n      pop\n      dup2\n      add\n      swap1\n      tag_175\n      swap2\n      swap1\n      tag_114\n      jump\t// in\n    tag_175:\n      pop\n        /* \"contracts/Handler/Swaps.sol\":1753:2012  function payPremium(uint256 _targetSwapId) external isActive(_targetSwapId) {... */\n      pop\n      pop\n      jump\t// out\n        /* \"contracts/Handler/Swaps.sol\":2180:2272  function getSwapId() public view returns (Counters.Counter memory) {... */\n    tag_46:\n        /* \"contracts/Handler/Swaps.sol\":2222:2245  Counters.Counter memory */\n      tag_176\n      tag_177\n      jump\t// in\n    tag_176:\n        /* \"contracts/Handler/Swaps.sol\":2260:2267  _swapId */\n      0x00\n        /* \"contracts/Handler/Swaps.sol\":2253:2267  return _swapId */\n      mload(0x40)\n      dup1\n      0x20\n      add\n      0x40\n      mstore\n      swap1\n      dup2\n      0x00\n      dup3\n      add\n      sload\n      dup2\n      mstore\n      pop\n      pop\n      swap1\n      pop\n        /* \"contracts/Handler/Swaps.sol\":2180:2272  function getSwapId() public view returns (Counters.Counter memory) {... */\n      swap1\n      jump\t// out\n        /* \"contracts/Handler/Swaps.sol\":2276:2368  function getSwap(uint256 swapId) public view returns (Swap) {... */\n    tag_51:\n        /* \"contracts/Handler/Swaps.sol\":2330:2334  Swap */\n      0x00\n        /* \"contracts/Handler/Swaps.sol\":2349:2355  _swaps */\n      0x01\n        /* \"contracts/Handler/Swaps.sol\":2349:2363  _swaps[swapId] */\n      0x00\n        /* \"contracts/Handler/Swaps.sol\":2356:2362  swapId */\n      dup4\n        /* \"contracts/Handler/Swaps.sol\":2349:2363  _swaps[swapId] */\n      dup2\n      mstore\n      0x20\n      add\n      swap1\n      dup2\n      mstore\n      0x20\n      add\n      0x00\n      keccak256\n      0x00\n      swap1\n      sload\n      swap1\n      0x0100\n      exp\n      swap1\n      div\n      0xffffffffffffffffffffffffffffffffffffffff\n      and\n        /* \"contracts/Handler/Swaps.sol\":2342:2363  return _swaps[swapId] */\n      swap1\n      pop\n        /* \"contracts/Handler/Swaps.sol\":2276:2368  function getSwap(uint256 swapId) public view returns (Swap) {... */\n      swap2\n      swap1\n      pop\n      jump\t// out\n        /* \"contracts/Handler/Swaps.sol\":2954:3061  function getBuyer(uint256 swapId) public view returns (address) {... */\n    tag_56:\n        /* \"contracts/Handler/Swaps.sol\":3009:3016  address */\n      0x00\n        /* \"contracts/Handler/Swaps.sol\":3031:3037  _swaps */\n      0x01\n        /* \"contracts/Handler/Swaps.sol\":3031:3045  _swaps[swapId] */\n      0x00\n        /* \"contracts/Handler/Swaps.sol\":3038:3044  swapId */\n      dup4\n        /* \"contracts/Handler/Swaps.sol\":3031:3045  _swaps[swapId] */\n      dup2\n      mstore\n      0x20\n      add\n      swap1\n      dup2\n      mstore\n      0x20\n      add\n      0x00\n      keccak256\n      0x00\n      swap1\n      sload\n      swap1\n      0x0100\n      exp\n      swap1\n      div\n      0xffffffffffffffffffffffffffffffffffffffff\n      and\n        /* \"contracts/Handler/Swaps.sol\":3031:3054  _swaps[swapId].getBuyer */\n      0xffffffffffffffffffffffffffffffffffffffff\n      and\n      0x603daf9a\n        /* \"contracts/Handler/Swaps.sol\":3031:3056  _swaps[swapId].getBuyer() */\n      mload(0x40)\n      dup2\n      0xffffffff\n      and\n      0xe0\n      shl\n      dup2\n      mstore\n      0x04\n      add\n      0x20\n      mload(0x40)\n      dup1\n      dup4\n      sub\n      dup2\n      dup7\n      dup1\n      extcodesize\n      iszero\n      dup1\n      iszero\n      tag_181\n      jumpi\n      0x00\n      dup1\n      revert\n    tag_181:\n      pop\n      gas\n      staticcall\n      iszero\n      dup1\n      iszero\n      tag_183\n      jumpi\n      returndatasize\n      0x00\n      dup1\n      returndatacopy\n      revert(0x00, returndatasize)\n    tag_183:\n      pop\n      pop\n      pop\n      pop\n      mload(0x40)\n      returndatasize\n      not(0x1f)\n      0x1f\n      dup3\n      add\n      and\n      dup3\n      add\n      dup1\n      0x40\n      mstore\n      pop\n      dup2\n      add\n      swap1\n      tag_184\n      swap2\n      swap1\n      tag_185\n      jump\t// in\n    tag_184:\n        /* \"contracts/Handler/Swaps.sol\":3024:3056  return _swaps[swapId].getBuyer() */\n      swap1\n      pop\n        /* \"contracts/Handler/Swaps.sol\":2954:3061  function getBuyer(uint256 swapId) public view returns (address) {... */\n      swap2\n      swap1\n      pop\n      jump\t// out\n        /* \"contracts/Handler/Swaps.sol\":2731:2841  function getStatus(uint256 swapId) public view returns (Swap.Status) {... */\n    tag_61:\n        /* \"contracts/Handler/Swaps.sol\":2787:2798  Swap.Status */\n      0x00\n        /* \"contracts/Handler/Swaps.sol\":2813:2819  _swaps */\n      0x01\n        /* \"contracts/Handler/Swaps.sol\":2813:2827  _swaps[swapId] */\n      0x00\n        /* \"contracts/Handler/Swaps.sol\":2820:2826  swapId */\n      dup4\n        /* \"contracts/Handler/Swaps.sol\":2813:2827  _swaps[swapId] */\n      dup2\n      mstore\n      0x20\n      add\n      swap1\n      dup2\n      mstore\n      0x20\n      add\n      0x00\n      keccak256\n      0x00\n      swap1\n      sload\n      swap1\n      0x0100\n      exp\n      swap1\n      div\n      0xffffffffffffffffffffffffffffffffffffffff\n      and\n        /* \"contracts/Handler/Swaps.sol\":2813:2834  _swaps[swapId].status */\n      0xffffffffffffffffffffffffffffffffffffffff\n      and\n      0x200d2ed2\n        /* \"contracts/Handler/Swaps.sol\":2813:2836  _swaps[swapId].status() */\n      mload(0x40)\n      dup2\n      0xffffffff\n      and\n      0xe0\n      shl\n      dup2\n      mstore\n      0x04\n      add\n      0x20\n      mload(0x40)\n      dup1\n      dup4\n      sub\n      dup2\n      dup7\n      dup1\n      extcodesize\n      iszero\n      dup1\n      iszero\n      tag_187\n      jumpi\n      0x00\n      dup1\n      revert\n    tag_187:\n      pop\n      gas\n      staticcall\n      iszero\n      dup1\n      iszero\n      tag_189\n      jumpi\n      returndatasize\n      0x00\n      dup1\n      returndatacopy\n      revert(0x00, returndatasize)\n    tag_189:\n      pop\n      pop\n      pop\n      pop\n      mload(0x40)\n      returndatasize\n      not(0x1f)\n      0x1f\n      dup3\n      add\n      and\n      dup3\n      add\n      dup1\n      0x40\n      mstore\n      pop\n      dup2\n      add\n      swap1\n      tag_190\n      swap2\n      swap1\n      tag_108\n      jump\t// in\n    tag_190:\n        /* \"contracts/Handler/Swaps.sol\":2806:2836  return _swaps[swapId].status() */\n      swap1\n      pop\n        /* \"contracts/Handler/Swaps.sol\":2731:2841  function getStatus(uint256 swapId) public view returns (Swap.Status) {... */\n      swap2\n      swap1\n      pop\n      jump\t// out\n        /* \"contracts/Handler/Swaps.sol\":2607:2727  function getSellerDeposit(uint256 swapId) public view returns (uint256) {... */\n    tag_66:\n        /* \"contracts/Handler/Swaps.sol\":2670:2677  uint256 */\n      0x00\n        /* \"contracts/Handler/Swaps.sol\":2692:2698  _swaps */\n      0x01\n        /* \"contracts/Handler/Swaps.sol\":2692:2706  _swaps[swapId] */\n      0x00\n        /* \"contracts/Handler/Swaps.sol\":2699:2705  swapId */\n      dup4\n        /* \"contracts/Handler/Swaps.sol\":2692:2706  _swaps[swapId] */\n      dup2\n      mstore\n      0x20\n      add\n      swap1\n      dup2\n      mstore\n      0x20\n      add\n      0x00\n      keccak256\n      0x00\n      swap1\n      sload\n      swap1\n      0x0100\n      exp\n      swap1\n      div\n      0xffffffffffffffffffffffffffffffffffffffff\n      and\n        /* \"contracts/Handler/Swaps.sol\":2692:2720  _swaps[swapId].sellerDeposit */\n      0xffffffffffffffffffffffffffffffffffffffff\n      and\n      0x4c1786ea\n        /* \"contracts/Handler/Swaps.sol\":2692:2722  _swaps[swapId].sellerDeposit() */\n      mload(0x40)\n      dup2\n      0xffffffff\n      and\n      0xe0\n      shl\n      dup2\n      mstore\n      0x04\n      add\n      0x20\n      mload(0x40)\n      dup1\n      dup4\n      sub\n      dup2\n      dup7\n      dup1\n      extcodesize\n      iszero\n      dup1\n      iszero\n      tag_192\n      jumpi\n      0x00\n      dup1\n      revert\n    tag_192:\n      pop\n      gas\n      staticcall\n      iszero\n      dup1\n      iszero\n      tag_194\n      jumpi\n      returndatasize\n      0x00\n      dup1\n      returndatacopy\n      revert(0x00, returndatasize)\n    tag_194:\n      pop\n      pop\n      pop\n      pop\n      mload(0x40)\n      returndatasize\n      not(0x1f)\n      0x1f\n      dup3\n      add\n      and\n      dup3\n      add\n      dup1\n      0x40\n      mstore\n      pop\n      dup2\n      add\n      swap1\n      tag_195\n      swap2\n      swap1\n      tag_120\n      jump\t// in\n    tag_195:\n        /* \"contracts/Handler/Swaps.sol\":2685:2722  return _swaps[swapId].sellerDeposit() */\n      swap1\n      pop\n        /* \"contracts/Handler/Swaps.sol\":2607:2727  function getSellerDeposit(uint256 swapId) public view returns (uint256) {... */\n      swap2\n      swap1\n      pop\n      jump\t// out\n        /* \"contracts/Handler/Swaps.sol\":331:966  function create(... */\n    tag_71:\n        /* \"contracts/Handler/Swaps.sol\":571:578  uint256 */\n      0x00\n        /* \"contracts/Handler/Swaps.sol\":586:605  _swapId.increment() */\n      tag_197\n        /* \"contracts/Handler/Swaps.sol\":586:593  _swapId */\n      0x00\n        /* \"contracts/Handler/Swaps.sol\":586:603  _swapId.increment */\n      tag_198\n        /* \"contracts/Handler/Swaps.sol\":586:605  _swapId.increment() */\n      jump\t// in\n    tag_197:\n        /* \"contracts/Handler/Swaps.sol\":611:628  uint256 newSwapId */\n      0x00\n        /* \"contracts/Handler/Swaps.sol\":631:648  _swapId.current() */\n      tag_199\n        /* \"contracts/Handler/Swaps.sol\":631:638  _swapId */\n      0x00\n        /* \"contracts/Handler/Swaps.sol\":631:646  _swapId.current */\n      tag_200\n        /* \"contracts/Handler/Swaps.sol\":631:648  _swapId.current() */\n      jump\t// in\n    tag_199:\n        /* \"contracts/Handler/Swaps.sol\":611:648  uint256 newSwapId = _swapId.current() */\n      swap1\n      pop\n        /* \"contracts/Handler/Swaps.sol\":655:667  Swap newSwap */\n      0x00\n        /* \"contracts/Handler/Swaps.sol\":686:701  _initAssetPrice */\n      dup10\n        /* \"contracts/Handler/Swaps.sol\":709:720  _claimPrice */\n      dup10\n        /* \"contracts/Handler/Swaps.sol\":728:745  _liquidationPrice */\n      dup10\n        /* \"contracts/Handler/Swaps.sol\":753:761  _premium */\n      dup9\n        /* \"contracts/Handler/Swaps.sol\":769:783  _sellerDeposit */\n      dup11\n        /* \"contracts/Handler/Swaps.sol\":791:803  _totalRounds */\n      dup10\n        /* \"contracts/Handler/Swaps.sol\":811:821  _assetType */\n      dup10\n        /* \"contracts/Handler/Swaps.sol\":670:827  new Swap(... */\n      mload(0x40)\n      tag_201\n      swap1\n      tag_202\n      jump\t// in\n    tag_201:\n      tag_203\n      swap8\n      swap7\n      swap6\n      swap5\n      swap4\n      swap3\n      swap2\n      swap1\n      tag_204\n      jump\t// in\n    tag_203:\n      mload(0x40)\n      dup1\n      swap2\n      sub\n      swap1\n      0x00\n      create\n      dup1\n      iszero\n      dup1\n      iszero\n      tag_205\n      jumpi\n      returndatasize\n      0x00\n      dup1\n      returndatacopy\n      revert(0x00, returndatasize)\n    tag_205:\n      pop\n        /* \"contracts/Handler/Swaps.sol\":655:827  Swap newSwap = new Swap(... */\n      swap1\n      pop\n        /* \"contracts/Handler/Swaps.sol\":853:860  newSwap */\n      dup1\n        /* \"contracts/Handler/Swaps.sol\":833:839  _swaps */\n      0x01\n        /* \"contracts/Handler/Swaps.sol\":833:850  _swaps[newSwapId] */\n      0x00\n        /* \"contracts/Handler/Swaps.sol\":840:849  newSwapId */\n      dup5\n        /* \"contracts/Handler/Swaps.sol\":833:850  _swaps[newSwapId] */\n      dup2\n      mstore\n      0x20\n      add\n      swap1\n      dup2\n      mstore\n      0x20\n      add\n      0x00\n      keccak256\n      0x00\n        /* \"contracts/Handler/Swaps.sol\":833:860  _swaps[newSwapId] = newSwap */\n      0x0100\n      exp\n      dup2\n      sload\n      dup2\n      0xffffffffffffffffffffffffffffffffffffffff\n      mul\n      not\n      and\n      swap1\n      dup4\n      0xffffffffffffffffffffffffffffffffffffffff\n      and\n      mul\n      or\n      swap1\n      sstore\n      pop\n        /* \"contracts/Handler/Swaps.sol\":867:875  _isBuyer */\n      dup11\n        /* \"contracts/Handler/Swaps.sol\":867:938  _isBuyer ? newSwap.setBuyer(msg.sender) : newSwap.setSeller(msg.sender) */\n      tag_206\n      jumpi\n        /* \"contracts/Handler/Swaps.sol\":909:916  newSwap */\n      dup1\n        /* \"contracts/Handler/Swaps.sol\":909:926  newSwap.setSeller */\n      0xffffffffffffffffffffffffffffffffffffffff\n      and\n      0xe99d2866\n        /* \"contracts/Handler/Swaps.sol\":927:937  msg.sender */\n      caller\n        /* \"contracts/Handler/Swaps.sol\":909:938  newSwap.setSeller(msg.sender) */\n      mload(0x40)\n      dup3\n      0xffffffff\n      and\n      0xe0\n      shl\n      dup2\n      mstore\n      0x04\n      add\n      tag_207\n      swap2\n      swap1\n      tag_58\n      jump\t// in\n    tag_207:\n      0x20\n      mload(0x40)\n      dup1\n      dup4\n      sub\n      dup2\n      0x00\n      dup8\n      dup1\n      extcodesize\n      iszero\n      dup1\n      iszero\n      tag_208\n      jumpi\n      0x00\n      dup1\n      revert\n    tag_208:\n      pop\n      gas\n      call\n      iszero\n      dup1\n      iszero\n      tag_210\n      jumpi\n      returndatasize\n      0x00\n      dup1\n      returndatacopy\n      revert(0x00, returndatasize)\n    tag_210:\n      pop\n      pop\n      pop\n      pop\n      mload(0x40)\n      returndatasize\n      not(0x1f)\n      0x1f\n      dup3\n      add\n      and\n      dup3\n      add\n      dup1\n      0x40\n      mstore\n      pop\n      dup2\n      add\n      swap1\n      tag_211\n      swap2\n      swap1\n      tag_185\n      jump\t// in\n    tag_211:\n        /* \"contracts/Handler/Swaps.sol\":867:938  _isBuyer ? newSwap.setBuyer(msg.sender) : newSwap.setSeller(msg.sender) */\n      jump(tag_212)\n    tag_206:\n        /* \"contracts/Handler/Swaps.sol\":878:885  newSwap */\n      dup1\n        /* \"contracts/Handler/Swaps.sol\":878:894  newSwap.setBuyer */\n      0xffffffffffffffffffffffffffffffffffffffff\n      and\n      0xa3f09ad6\n        /* \"contracts/Handler/Swaps.sol\":895:905  msg.sender */\n      caller\n        /* \"contracts/Handler/Swaps.sol\":878:906  newSwap.setBuyer(msg.sender) */\n      mload(0x40)\n      dup3\n      0xffffffff\n      and\n      0xe0\n      shl\n      dup2\n      mstore\n      0x04\n      add\n      tag_213\n      swap2\n      swap1\n      tag_58\n      jump\t// in\n    tag_213:\n      0x20\n      mload(0x40)\n      dup1\n      dup4\n      sub\n      dup2\n      0x00\n      dup8\n      dup1\n      extcodesize\n      iszero\n      dup1\n      iszero\n      tag_214\n      jumpi\n      0x00\n      dup1\n      revert\n    tag_214:\n      pop\n      gas\n      call\n      iszero\n      dup1\n      iszero\n      tag_216\n      jumpi\n      returndatasize\n      0x00\n      dup1\n      returndatacopy\n      revert(0x00, returndatasize)\n    tag_216:\n      pop\n      pop\n      pop\n      pop\n      mload(0x40)\n      returndatasize\n      not(0x1f)\n      0x1f\n      dup3\n      add\n      and\n      dup3\n      add\n      dup1\n      0x40\n      mstore\n      pop\n      dup2\n      add\n      swap1\n      tag_217\n      swap2\n      swap1\n      tag_185\n      jump\t// in\n    tag_217:\n        /* \"contracts/Handler/Swaps.sol\":867:938  _isBuyer ? newSwap.setBuyer(msg.sender) : newSwap.setSeller(msg.sender) */\n    tag_212:\n      pop\n        /* \"contracts/Handler/Swaps.sol\":952:961  newSwapId */\n      dup2\n        /* \"contracts/Handler/Swaps.sol\":945:961  return newSwapId */\n      swap3\n      pop\n      pop\n      pop\n        /* \"contracts/Handler/Swaps.sol\":331:966  function create(... */\n      swap9\n      swap8\n      pop\n      pop\n      pop\n      pop\n      pop\n      pop\n      pop\n      pop\n      jump\t// out\n        /* \"contracts/Handler/Swaps.sol\":3178:3286  function getNextPayDate(uint256 swapId) public view returns (uint256) {... */\n    tag_75:\n        /* \"contracts/Handler/Swaps.sol\":3239:3246  uint256 */\n      0x00\n        /* \"contracts/Handler/Swaps.sol\":3261:3273  _nextPayDate */\n      0x02\n        /* \"contracts/Handler/Swaps.sol\":3261:3281  _nextPayDate[swapId] */\n      0x00\n        /* \"contracts/Handler/Swaps.sol\":3274:3280  swapId */\n      dup4\n        /* \"contracts/Handler/Swaps.sol\":3261:3281  _nextPayDate[swapId] */\n      dup2\n      mstore\n      0x20\n      add\n      swap1\n      dup2\n      mstore\n      0x20\n      add\n      0x00\n      keccak256\n      sload\n        /* \"contracts/Handler/Swaps.sol\":3254:3281  return _nextPayDate[swapId] */\n      swap1\n      pop\n        /* \"contracts/Handler/Swaps.sol\":3178:3286  function getNextPayDate(uint256 swapId) public view returns (uint256) {... */\n      swap2\n      swap1\n      pop\n      jump\t// out\n        /* \"contracts/Handler/Swaps.sol\":2372:2491  function getPrices(uint256 swapId) public view returns (uint256[5] memory) {... */\n    tag_79:\n        /* \"contracts/Handler/Swaps.sol\":2428:2445  uint256[5] memory */\n      tag_219\n      tag_220\n      jump\t// in\n    tag_219:\n        /* \"contracts/Handler/Swaps.sol\":2460:2466  _swaps */\n      0x01\n        /* \"contracts/Handler/Swaps.sol\":2460:2474  _swaps[swapId] */\n      0x00\n        /* \"contracts/Handler/Swaps.sol\":2467:2473  swapId */\n      dup4\n        /* \"contracts/Handler/Swaps.sol\":2460:2474  _swaps[swapId] */\n      dup2\n      mstore\n      0x20\n      add\n      swap1\n      dup2\n      mstore\n      0x20\n      add\n      0x00\n      keccak256\n      0x00\n      swap1\n      sload\n      swap1\n      0x0100\n      exp\n      swap1\n      div\n      0xffffffffffffffffffffffffffffffffffffffff\n      and\n        /* \"contracts/Handler/Swaps.sol\":2460:2484  _swaps[swapId].getPrices */\n      0xffffffffffffffffffffffffffffffffffffffff\n      and\n      0xbd9a548b\n        /* \"contracts/Handler/Swaps.sol\":2460:2486  _swaps[swapId].getPrices() */\n      mload(0x40)\n      dup2\n      0xffffffff\n      and\n      0xe0\n      shl\n      dup2\n      mstore\n      0x04\n      add\n      0xa0\n      mload(0x40)\n      dup1\n      dup4\n      sub\n      dup2\n      dup7\n      dup1\n      extcodesize\n      iszero\n      dup1\n      iszero\n      tag_222\n      jumpi\n      0x00\n      dup1\n      revert\n    tag_222:\n      pop\n      gas\n      staticcall\n      iszero\n      dup1\n      iszero\n      tag_224\n      jumpi\n      returndatasize\n      0x00\n      dup1\n      returndatacopy\n      revert(0x00, returndatasize)\n    tag_224:\n      pop\n      pop\n      pop\n      pop\n      mload(0x40)\n      returndatasize\n      not(0x1f)\n      0x1f\n      dup3\n      add\n      and\n      dup3\n      add\n      dup1\n      0x40\n      mstore\n      pop\n      dup2\n      add\n      swap1\n      tag_225\n      swap2\n      swap1\n      tag_226\n      jump\t// in\n    tag_225:\n        /* \"contracts/Handler/Swaps.sol\":2453:2486  return _swaps[swapId].getPrices() */\n      swap1\n      pop\n        /* \"contracts/Handler/Swaps.sol\":2372:2491  function getPrices(uint256 swapId) public view returns (uint256[5] memory) {... */\n      swap2\n      swap1\n      pop\n      jump\t// out\n        /* \"contracts/Handler/Swaps.sol\":3065:3174  function getSeller(uint256 swapId) public view returns (address) {... */\n    tag_84:\n        /* \"contracts/Handler/Swaps.sol\":3121:3128  address */\n      0x00\n        /* \"contracts/Handler/Swaps.sol\":3143:3149  _swaps */\n      0x01\n        /* \"contracts/Handler/Swaps.sol\":3143:3157  _swaps[swapId] */\n      0x00\n        /* \"contracts/Handler/Swaps.sol\":3150:3156  swapId */\n      dup4\n        /* \"contracts/Handler/Swaps.sol\":3143:3157  _swaps[swapId] */\n      dup2\n      mstore\n      0x20\n      add\n      swap1\n      dup2\n      mstore\n      0x20\n      add\n      0x00\n      keccak256\n      0x00\n      swap1\n      sload\n      swap1\n      0x0100\n      exp\n      swap1\n      div\n      0xffffffffffffffffffffffffffffffffffffffff\n      and\n        /* \"contracts/Handler/Swaps.sol\":3143:3167  _swaps[swapId].getSeller */\n      0xffffffffffffffffffffffffffffffffffffffff\n      and\n      0xdbd0e1b6\n        /* \"contracts/Handler/Swaps.sol\":3143:3169  _swaps[swapId].getSeller() */\n      mload(0x40)\n      dup2\n      0xffffffff\n      and\n      0xe0\n      shl\n      dup2\n      mstore\n      0x04\n      add\n      0x20\n      mload(0x40)\n      dup1\n      dup4\n      sub\n      dup2\n      dup7\n      dup1\n      extcodesize\n      iszero\n      dup1\n      iszero\n      tag_228\n      jumpi\n      0x00\n      dup1\n      revert\n    tag_228:\n      pop\n      gas\n      staticcall\n      iszero\n      dup1\n      iszero\n      tag_230\n      jumpi\n      returndatasize\n      0x00\n      dup1\n      returndatacopy\n      revert(0x00, returndatasize)\n    tag_230:\n      pop\n      pop\n      pop\n      pop\n      mload(0x40)\n      returndatasize\n      not(0x1f)\n      0x1f\n      dup3\n      add\n      and\n      dup3\n      add\n      dup1\n      0x40\n      mstore\n      pop\n      dup2\n      add\n      swap1\n      tag_231\n      swap2\n      swap1\n      tag_185\n      jump\t// in\n    tag_231:\n        /* \"contracts/Handler/Swaps.sol\":3136:3169  return _swaps[swapId].getSeller() */\n      swap1\n      pop\n        /* \"contracts/Handler/Swaps.sol\":3065:3174  function getSeller(uint256 swapId) public view returns (address) {... */\n      swap2\n      swap1\n      pop\n      jump\t// out\n        /* \"contracts/Handler/Swaps.sol\":970:1468  function accept(... */\n    tag_89:\n        /* \"contracts/Handler/Swaps.sol\":1116:1123  uint256 */\n      0x00\n        /* \"contracts/Handler/Swaps.sol\":1090:1105  _acceptedSwapId */\n      dup2\n        /* \"contracts/Handler/Swaps.sol\":3382:3401  Swap.Status.pending */\n      0x01\n        /* \"contracts/Handler/Swaps.sol\":3361:3401  getStatus(swapId) == Swap.Status.pending */\n      0x04\n      dup2\n      gt\n      iszero\n      tag_233\n      jumpi\n      tag_234\n      tag_94\n      jump\t// in\n    tag_234:\n    tag_233:\n        /* \"contracts/Handler/Swaps.sol\":3361:3378  getStatus(swapId) */\n      tag_235\n        /* \"contracts/Handler/Swaps.sol\":3371:3377  swapId */\n      dup3\n        /* \"contracts/Handler/Swaps.sol\":3361:3370  getStatus */\n      tag_61\n        /* \"contracts/Handler/Swaps.sol\":3361:3378  getStatus(swapId) */\n      jump\t// in\n    tag_235:\n        /* \"contracts/Handler/Swaps.sol\":3361:3401  getStatus(swapId) == Swap.Status.pending */\n      0x04\n      dup2\n      gt\n      iszero\n      tag_236\n      jumpi\n      tag_237\n      tag_94\n      jump\t// in\n    tag_237:\n    tag_236:\n      eq\n        /* \"contracts/Handler/Swaps.sol\":3346:3456  require(... */\n      tag_238\n      jumpi\n      mload(0x40)\n      0x08c379a000000000000000000000000000000000000000000000000000000000\n      dup2\n      mstore\n      0x04\n      add\n      tag_239\n      swap1\n      tag_144\n      jump\t// in\n    tag_239:\n      mload(0x40)\n      dup1\n      swap2\n      sub\n      swap1\n      revert\n    tag_238:\n        /* \"contracts/Handler/Swaps.sol\":1131:1146  Swap targetSwap */\n      0x00\n        /* \"contracts/Handler/Swaps.sol\":1149:1155  _swaps */\n      0x01\n        /* \"contracts/Handler/Swaps.sol\":1149:1172  _swaps[_acceptedSwapId] */\n      0x00\n        /* \"contracts/Handler/Swaps.sol\":1156:1171  _acceptedSwapId */\n      dup6\n        /* \"contracts/Handler/Swaps.sol\":1149:1172  _swaps[_acceptedSwapId] */\n      dup2\n      mstore\n      0x20\n      add\n      swap1\n      dup2\n      mstore\n      0x20\n      add\n      0x00\n      keccak256\n      0x00\n      swap1\n      sload\n      swap1\n      0x0100\n      exp\n      swap1\n      div\n      0xffffffffffffffffffffffffffffffffffffffff\n      and\n        /* \"contracts/Handler/Swaps.sol\":1131:1172  Swap targetSwap = _swaps[_acceptedSwapId] */\n      swap1\n      pop\n        /* \"contracts/Handler/Swaps.sol\":1178:1188  targetSwap */\n      dup1\n        /* \"contracts/Handler/Swaps.sol\":1178:1206  targetSwap.setInitAssetPrice */\n      0xffffffffffffffffffffffffffffffffffffffff\n      and\n      0xbef904e3\n        /* \"contracts/Handler/Swaps.sol\":1207:1222  _initAssetPrice */\n      dup7\n        /* \"contracts/Handler/Swaps.sol\":1178:1223  targetSwap.setInitAssetPrice(_initAssetPrice) */\n      mload(0x40)\n      dup3\n      0xffffffff\n      and\n      0xe0\n      shl\n      dup2\n      mstore\n      0x04\n      add\n      tag_241\n      swap2\n      swap1\n      tag_35\n      jump\t// in\n    tag_241:\n      0x20\n      mload(0x40)\n      dup1\n      dup4\n      sub\n      dup2\n      0x00\n      dup8\n      dup1\n      extcodesize\n      iszero\n      dup1\n      iszero\n      tag_242\n      jumpi\n      0x00\n      dup1\n      revert\n    tag_242:\n      pop\n      gas\n      call\n      iszero\n      dup1\n      iszero\n      tag_244\n      jumpi\n      returndatasize\n      0x00\n      dup1\n      returndatacopy\n      revert(0x00, returndatasize)\n    tag_244:\n      pop\n      pop\n      pop\n      pop\n      mload(0x40)\n      returndatasize\n      not(0x1f)\n      0x1f\n      dup3\n      add\n      and\n      dup3\n      add\n      dup1\n      0x40\n      mstore\n      pop\n      dup2\n      add\n      swap1\n      tag_245\n      swap2\n      swap1\n      tag_120\n      jump\t// in\n    tag_245:\n      pop\n        /* \"contracts/Handler/Swaps.sol\":1230:1242  _isBuyerHost */\n      dup6\n        /* \"contracts/Handler/Swaps.sol\":1230:1323  _isBuyerHost... */\n      tag_246\n      jumpi\n        /* \"contracts/Handler/Swaps.sol\":1292:1302  targetSwap */\n      dup1\n        /* \"contracts/Handler/Swaps.sol\":1292:1311  targetSwap.setBuyer */\n      0xffffffffffffffffffffffffffffffffffffffff\n      and\n      0xa3f09ad6\n        /* \"contracts/Handler/Swaps.sol\":1312:1322  msg.sender */\n      caller\n        /* \"contracts/Handler/Swaps.sol\":1292:1323  targetSwap.setBuyer(msg.sender) */\n      mload(0x40)\n      dup3\n      0xffffffff\n      and\n      0xe0\n      shl\n      dup2\n      mstore\n      0x04\n      add\n      tag_247\n      swap2\n      swap1\n      tag_58\n      jump\t// in\n    tag_247:\n      0x20\n      mload(0x40)\n      dup1\n      dup4\n      sub\n      dup2\n      0x00\n      dup8\n      dup1\n      extcodesize\n      iszero\n      dup1\n      iszero\n      tag_248\n      jumpi\n      0x00\n      dup1\n      revert\n    tag_248:\n      pop\n      gas\n      call\n      iszero\n      dup1\n      iszero\n      tag_250\n      jumpi\n      returndatasize\n      0x00\n      dup1\n      returndatacopy\n      revert(0x00, returndatasize)\n    tag_250:\n      pop\n      pop\n      pop\n      pop\n      mload(0x40)\n      returndatasize\n      not(0x1f)\n      0x1f\n      dup3\n      add\n      and\n      dup3\n      add\n      dup1\n      0x40\n      mstore\n      pop\n      dup2\n      add\n      swap1\n      tag_251\n      swap2\n      swap1\n      tag_185\n      jump\t// in\n    tag_251:\n        /* \"contracts/Handler/Swaps.sol\":1230:1323  _isBuyerHost... */\n      jump(tag_252)\n    tag_246:\n        /* \"contracts/Handler/Swaps.sol\":1251:1261  targetSwap */\n      dup1\n        /* \"contracts/Handler/Swaps.sol\":1251:1271  targetSwap.setSeller */\n      0xffffffffffffffffffffffffffffffffffffffff\n      and\n      0xe99d2866\n        /* \"contracts/Handler/Swaps.sol\":1272:1282  msg.sender */\n      caller\n        /* \"contracts/Handler/Swaps.sol\":1251:1283  targetSwap.setSeller(msg.sender) */\n      mload(0x40)\n      dup3\n      0xffffffff\n      and\n      0xe0\n      shl\n      dup2\n      mstore\n      0x04\n      add\n      tag_253\n      swap2\n      swap1\n      tag_58\n      jump\t// in\n    tag_253:\n      0x20\n      mload(0x40)\n      dup1\n      dup4\n      sub\n      dup2\n      0x00\n      dup8\n      dup1\n      extcodesize\n      iszero\n      dup1\n      iszero\n      tag_254\n      jumpi\n      0x00\n      dup1\n      revert\n    tag_254:\n      pop\n      gas\n      call\n      iszero\n      dup1\n      iszero\n      tag_256\n      jumpi\n      returndatasize\n      0x00\n      dup1\n      returndatacopy\n      revert(0x00, returndatasize)\n    tag_256:\n      pop\n      pop\n      pop\n      pop\n      mload(0x40)\n      returndatasize\n      not(0x1f)\n      0x1f\n      dup3\n      add\n      and\n      dup3\n      add\n      dup1\n      0x40\n      mstore\n      pop\n      dup2\n      add\n      swap1\n      tag_257\n      swap2\n      swap1\n      tag_185\n      jump\t// in\n    tag_257:\n        /* \"contracts/Handler/Swaps.sol\":1230:1323  _isBuyerHost... */\n    tag_252:\n      pop\n        /* \"contracts/Handler/Swaps.sol\":1380:1387  4 weeks */\n      0x24ea00\n        /* \"contracts/Handler/Swaps.sol\":1362:1377  block.timestamp */\n      timestamp\n        /* \"contracts/Handler/Swaps.sol\":1362:1387  block.timestamp + 4 weeks */\n      tag_258\n      swap2\n      swap1\n      tag_166\n      jump\t// in\n    tag_258:\n        /* \"contracts/Handler/Swaps.sol\":1330:1342  _nextPayDate */\n      0x02\n        /* \"contracts/Handler/Swaps.sol\":1330:1359  _nextPayDate[_acceptedSwapId] */\n      0x00\n        /* \"contracts/Handler/Swaps.sol\":1343:1358  _acceptedSwapId */\n      dup7\n        /* \"contracts/Handler/Swaps.sol\":1330:1359  _nextPayDate[_acceptedSwapId] */\n      dup2\n      mstore\n      0x20\n      add\n      swap1\n      dup2\n      mstore\n      0x20\n      add\n      0x00\n      keccak256\n        /* \"contracts/Handler/Swaps.sol\":1330:1387  _nextPayDate[_acceptedSwapId] = block.timestamp + 4 weeks */\n      dup2\n      swap1\n      sstore\n      pop\n        /* \"contracts/Handler/Swaps.sol\":1394:1404  targetSwap */\n      dup1\n        /* \"contracts/Handler/Swaps.sol\":1394:1414  targetSwap.setStatus */\n      0xffffffffffffffffffffffffffffffffffffffff\n      and\n      0x2e49d78b\n        /* \"contracts/Handler/Swaps.sol\":1415:1433  Swap.Status.active */\n      0x02\n        /* \"contracts/Handler/Swaps.sol\":1394:1434  targetSwap.setStatus(Swap.Status.active) */\n      mload(0x40)\n      dup3\n      0xffffffff\n      and\n      0xe0\n      shl\n      dup2\n      mstore\n      0x04\n      add\n      tag_259\n      swap2\n      swap1\n      tag_63\n      jump\t// in\n    tag_259:\n      0x20\n      mload(0x40)\n      dup1\n      dup4\n      sub\n      dup2\n      0x00\n      dup8\n      dup1\n      extcodesize\n      iszero\n      dup1\n      iszero\n      tag_260\n      jumpi\n      0x00\n      dup1\n      revert\n    tag_260:\n      pop\n      gas\n      call\n      iszero\n      dup1\n      iszero\n      tag_262\n      jumpi\n      returndatasize\n      0x00\n      dup1\n      returndatacopy\n      revert(0x00, returndatasize)\n    tag_262:\n      pop\n      pop\n      pop\n      pop\n      mload(0x40)\n      returndatasize\n      not(0x1f)\n      0x1f\n      dup3\n      add\n      and\n      dup3\n      add\n      dup1\n      0x40\n      mstore\n      pop\n      dup2\n      add\n      swap1\n      tag_263\n      swap2\n      swap1\n      tag_108\n      jump\t// in\n    tag_263:\n      pop\n        /* \"contracts/Handler/Swaps.sol\":1448:1463  _acceptedSwapId */\n      dup4\n        /* \"contracts/Handler/Swaps.sol\":1441:1463  return _acceptedSwapId */\n      swap3\n      pop\n      pop\n        /* \"contracts/Handler/Swaps.sol\":970:1468  function accept(... */\n      pop\n      swap4\n      swap3\n      pop\n      pop\n      pop\n      jump\t// out\n        /* \"@openzeppelin/contracts/utils/Counters.sol\":945:1068  function increment(Counter storage counter) internal {... */\n    tag_198:\n        /* \"@openzeppelin/contracts/utils/Counters.sol\":1050:1051  1 */\n      0x01\n        /* \"@openzeppelin/contracts/utils/Counters.sol\":1032:1039  counter */\n      dup2\n        /* \"@openzeppelin/contracts/utils/Counters.sol\":1032:1046  counter._value */\n      0x00\n      add\n      0x00\n        /* \"@openzeppelin/contracts/utils/Counters.sol\":1032:1051  counter._value += 1 */\n      dup3\n      dup3\n      sload\n      add\n      swap3\n      pop\n      pop\n      dup2\n      swap1\n      sstore\n      pop\n        /* \"@openzeppelin/contracts/utils/Counters.sol\":945:1068  function increment(Counter storage counter) internal {... */\n      pop\n      jump\t// out\n        /* \"@openzeppelin/contracts/utils/Counters.sol\":827:939  function current(Counter storage counter) internal view returns (uint256) {... */\n    tag_200:\n        /* \"@openzeppelin/contracts/utils/Counters.sol\":892:899  uint256 */\n      0x00\n        /* \"@openzeppelin/contracts/utils/Counters.sol\":918:925  counter */\n      dup2\n        /* \"@openzeppelin/contracts/utils/Counters.sol\":918:932  counter._value */\n      0x00\n      add\n      sload\n        /* \"@openzeppelin/contracts/utils/Counters.sol\":911:932  return counter._value */\n      swap1\n      pop\n        /* \"@openzeppelin/contracts/utils/Counters.sol\":827:939  function current(Counter storage counter) internal view returns (uint256) {... */\n      swap2\n      swap1\n      pop\n      jump\t// out\n    tag_177:\n      mload(0x40)\n      dup1\n      0x20\n      add\n      0x40\n      mstore\n      dup1\n      0x00\n      dup2\n      mstore\n      pop\n      swap1\n      jump\t// out\n    tag_202:\n      dataSize(sub_0)\n      dup1\n      dataOffset(sub_0)\n      dup4\n      codecopy\n      add\n      swap1\n      jump\t// out\n    tag_220:\n      mload(0x40)\n      dup1\n      0xa0\n      add\n      0x40\n      mstore\n      dup1\n      0x05\n      swap1\n      0x20\n      dup3\n      mul\n      dup1\n      calldatasize\n      dup4\n      calldatacopy\n      dup1\n      dup3\n      add\n      swap2\n      pop\n      pop\n      swap1\n      pop\n      pop\n      swap1\n      jump\t// out\n        /* \"#utility.yul\":25:702   */\n    tag_267:\n        /* \"#utility.yul\":130:135   */\n      0x00\n        /* \"#utility.yul\":155:234   */\n      tag_269\n        /* \"#utility.yul\":171:233   */\n      tag_270\n        /* \"#utility.yul\":226:232   */\n      dup5\n        /* \"#utility.yul\":171:233   */\n      tag_271\n      jump\t// in\n    tag_270:\n        /* \"#utility.yul\":155:234   */\n      tag_272\n      jump\t// in\n    tag_269:\n        /* \"#utility.yul\":146:234   */\n      swap1\n      pop\n        /* \"#utility.yul\":254:259   */\n      dup1\n        /* \"#utility.yul\":280:286   */\n      dup3\n        /* \"#utility.yul\":330:333   */\n      dup6\n        /* \"#utility.yul\":322:326   */\n      0x20\n        /* \"#utility.yul\":314:320   */\n      dup7\n        /* \"#utility.yul\":310:327   */\n      mul\n        /* \"#utility.yul\":305:308   */\n      dup3\n        /* \"#utility.yul\":301:328   */\n      add\n        /* \"#utility.yul\":298:334   */\n      gt\n        /* \"#utility.yul\":295:438   */\n      iszero\n      tag_273\n      jumpi\n        /* \"#utility.yul\":349:428   */\n      tag_274\n      tag_275\n      jump\t// in\n    tag_274:\n        /* \"#utility.yul\":295:438   */\n    tag_273:\n        /* \"#utility.yul\":462:463   */\n      0x00\n        /* \"#utility.yul\":447:696   */\n    tag_276:\n        /* \"#utility.yul\":472:478   */\n      dup6\n        /* \"#utility.yul\":469:470   */\n      dup2\n        /* \"#utility.yul\":466:479   */\n      lt\n        /* \"#utility.yul\":447:696   */\n      iszero\n      tag_278\n      jumpi\n        /* \"#utility.yul\":540:543   */\n      dup2\n        /* \"#utility.yul\":569:617   */\n      tag_279\n        /* \"#utility.yul\":613:616   */\n      dup9\n        /* \"#utility.yul\":601:611   */\n      dup3\n        /* \"#utility.yul\":569:617   */\n      tag_280\n      jump\t// in\n    tag_279:\n        /* \"#utility.yul\":564:567   */\n      dup5\n        /* \"#utility.yul\":557:618   */\n      mstore\n        /* \"#utility.yul\":647:651   */\n      0x20\n        /* \"#utility.yul\":642:645   */\n      dup5\n        /* \"#utility.yul\":638:652   */\n      add\n        /* \"#utility.yul\":631:652   */\n      swap4\n      pop\n        /* \"#utility.yul\":681:685   */\n      0x20\n        /* \"#utility.yul\":676:679   */\n      dup4\n        /* \"#utility.yul\":672:686   */\n      add\n        /* \"#utility.yul\":665:686   */\n      swap3\n      pop\n        /* \"#utility.yul\":507:696   */\n      pop\n        /* \"#utility.yul\":494:495   */\n      0x01\n        /* \"#utility.yul\":491:492   */\n      dup2\n        /* \"#utility.yul\":487:496   */\n      add\n        /* \"#utility.yul\":482:496   */\n      swap1\n      pop\n        /* \"#utility.yul\":447:696   */\n      jump(tag_276)\n    tag_278:\n        /* \"#utility.yul\":451:465   */\n      pop\n        /* \"#utility.yul\":136:702   */\n      pop\n      pop\n        /* \"#utility.yul\":25:702   */\n      swap4\n      swap3\n      pop\n      pop\n      pop\n      jump\t// out\n        /* \"#utility.yul\":708:851   */\n    tag_281:\n        /* \"#utility.yul\":765:770   */\n      0x00\n        /* \"#utility.yul\":796:802   */\n      dup2\n        /* \"#utility.yul\":790:803   */\n      mload\n        /* \"#utility.yul\":781:803   */\n      swap1\n      pop\n        /* \"#utility.yul\":812:845   */\n      tag_283\n        /* \"#utility.yul\":839:844   */\n      dup2\n        /* \"#utility.yul\":812:845   */\n      tag_284\n      jump\t// in\n    tag_283:\n        /* \"#utility.yul\":708:851   */\n      swap3\n      swap2\n      pop\n      pop\n      jump\t// out\n        /* \"#utility.yul\":875:1236   */\n    tag_285:\n        /* \"#utility.yul\":955:960   */\n      0x00\n        /* \"#utility.yul\":1004:1007   */\n      dup3\n        /* \"#utility.yul\":997:1001   */\n      0x1f\n        /* \"#utility.yul\":989:995   */\n      dup4\n        /* \"#utility.yul\":985:1002   */\n      add\n        /* \"#utility.yul\":981:1008   */\n      slt\n        /* \"#utility.yul\":971:1093   */\n      tag_287\n      jumpi\n        /* \"#utility.yul\":1012:1091   */\n      tag_288\n      tag_289\n      jump\t// in\n    tag_288:\n        /* \"#utility.yul\":971:1093   */\n    tag_287:\n        /* \"#utility.yul\":1116:1120   */\n      0x05\n        /* \"#utility.yul\":1138:1230   */\n      tag_290\n        /* \"#utility.yul\":1226:1229   */\n      dup5\n        /* \"#utility.yul\":1218:1224   */\n      dup3\n        /* \"#utility.yul\":1210:1216   */\n      dup6\n        /* \"#utility.yul\":1138:1230   */\n      tag_267\n      jump\t// in\n    tag_290:\n        /* \"#utility.yul\":1129:1230   */\n      swap2\n      pop\n        /* \"#utility.yul\":961:1236   */\n      pop\n        /* \"#utility.yul\":875:1236   */\n      swap3\n      swap2\n      pop\n      pop\n      jump\t// out\n        /* \"#utility.yul\":1242:1375   */\n    tag_291:\n        /* \"#utility.yul\":1285:1290   */\n      0x00\n        /* \"#utility.yul\":1323:1329   */\n      dup2\n        /* \"#utility.yul\":1310:1330   */\n      calldataload\n        /* \"#utility.yul\":1301:1330   */\n      swap1\n      pop\n        /* \"#utility.yul\":1339:1369   */\n      tag_293\n        /* \"#utility.yul\":1363:1368   */\n      dup2\n        /* \"#utility.yul\":1339:1369   */\n      tag_294\n      jump\t// in\n    tag_293:\n        /* \"#utility.yul\":1242:1375   */\n      swap3\n      swap2\n      pop\n      pop\n      jump\t// out\n        /* \"#utility.yul\":1381:1546   */\n    tag_295:\n        /* \"#utility.yul\":1449:1454   */\n      0x00\n        /* \"#utility.yul\":1480:1486   */\n      dup2\n        /* \"#utility.yul\":1474:1487   */\n      mload\n        /* \"#utility.yul\":1465:1487   */\n      swap1\n      pop\n        /* \"#utility.yul\":1496:1540   */\n      tag_297\n        /* \"#utility.yul\":1534:1539   */\n      dup2\n        /* \"#utility.yul\":1496:1540   */\n      tag_298\n      jump\t// in\n    tag_297:\n        /* \"#utility.yul\":1381:1546   */\n      swap3\n      swap2\n      pop\n      pop\n      jump\t// out\n        /* \"#utility.yul\":1552:1691   */\n    tag_299:\n        /* \"#utility.yul\":1598:1603   */\n      0x00\n        /* \"#utility.yul\":1636:1642   */\n      dup2\n        /* \"#utility.yul\":1623:1643   */\n      calldataload\n        /* \"#utility.yul\":1614:1643   */\n      swap1\n      pop\n        /* \"#utility.yul\":1652:1685   */\n      tag_301\n        /* \"#utility.yul\":1679:1684   */\n      dup2\n        /* \"#utility.yul\":1652:1685   */\n      tag_302\n      jump\t// in\n    tag_301:\n        /* \"#utility.yul\":1552:1691   */\n      swap3\n      swap2\n      pop\n      pop\n      jump\t// out\n        /* \"#utility.yul\":1697:1840   */\n    tag_280:\n        /* \"#utility.yul\":1754:1759   */\n      0x00\n        /* \"#utility.yul\":1785:1791   */\n      dup2\n        /* \"#utility.yul\":1779:1792   */\n      mload\n        /* \"#utility.yul\":1770:1792   */\n      swap1\n      pop\n        /* \"#utility.yul\":1801:1834   */\n      tag_304\n        /* \"#utility.yul\":1828:1833   */\n      dup2\n        /* \"#utility.yul\":1801:1834   */\n      tag_302\n      jump\t// in\n    tag_304:\n        /* \"#utility.yul\":1697:1840   */\n      swap3\n      swap2\n      pop\n      pop\n      jump\t// out\n        /* \"#utility.yul\":1846:1983   */\n    tag_305:\n        /* \"#utility.yul\":1891:1896   */\n      0x00\n        /* \"#utility.yul\":1929:1935   */\n      dup2\n        /* \"#utility.yul\":1916:1936   */\n      calldataload\n        /* \"#utility.yul\":1907:1936   */\n      swap1\n      pop\n        /* \"#utility.yul\":1945:1977   */\n      tag_307\n        /* \"#utility.yul\":1971:1976   */\n      dup2\n        /* \"#utility.yul\":1945:1977   */\n      tag_308\n      jump\t// in\n    tag_307:\n        /* \"#utility.yul\":1846:1983   */\n      swap3\n      swap2\n      pop\n      pop\n      jump\t// out\n        /* \"#utility.yul\":1989:2130   */\n    tag_309:\n        /* \"#utility.yul\":2045:2050   */\n      0x00\n        /* \"#utility.yul\":2076:2082   */\n      dup2\n        /* \"#utility.yul\":2070:2083   */\n      mload\n        /* \"#utility.yul\":2061:2083   */\n      swap1\n      pop\n        /* \"#utility.yul\":2092:2124   */\n      tag_311\n        /* \"#utility.yul\":2118:2123   */\n      dup2\n        /* \"#utility.yul\":2092:2124   */\n      tag_308\n      jump\t// in\n    tag_311:\n        /* \"#utility.yul\":1989:2130   */\n      swap3\n      swap2\n      pop\n      pop\n      jump\t// out\n        /* \"#utility.yul\":2136:2487   */\n    tag_185:\n        /* \"#utility.yul\":2206:2212   */\n      0x00\n        /* \"#utility.yul\":2255:2257   */\n      0x20\n        /* \"#utility.yul\":2243:2252   */\n      dup3\n        /* \"#utility.yul\":2234:2241   */\n      dup5\n        /* \"#utility.yul\":2230:2253   */\n      sub\n        /* \"#utility.yul\":2226:2258   */\n      slt\n        /* \"#utility.yul\":2223:2342   */\n      iszero\n      tag_313\n      jumpi\n        /* \"#utility.yul\":2261:2340   */\n      tag_314\n      tag_315\n      jump\t// in\n    tag_314:\n        /* \"#utility.yul\":2223:2342   */\n    tag_313:\n        /* \"#utility.yul\":2381:2382   */\n      0x00\n        /* \"#utility.yul\":2406:2470   */\n      tag_316\n        /* \"#utility.yul\":2462:2469   */\n      dup5\n        /* \"#utility.yul\":2453:2459   */\n      dup3\n        /* \"#utility.yul\":2442:2451   */\n      dup6\n        /* \"#utility.yul\":2438:2460   */\n      add\n        /* \"#utility.yul\":2406:2470   */\n      tag_281\n      jump\t// in\n    tag_316:\n        /* \"#utility.yul\":2396:2470   */\n      swap2\n      pop\n        /* \"#utility.yul\":2352:2480   */\n      pop\n        /* \"#utility.yul\":2136:2487   */\n      swap3\n      swap2\n      pop\n      pop\n      jump\t// out\n        /* \"#utility.yul\":2493:2891   */\n    tag_226:\n        /* \"#utility.yul\":2586:2592   */\n      0x00\n        /* \"#utility.yul\":2635:2638   */\n      0xa0\n        /* \"#utility.yul\":2623:2632   */\n      dup3\n        /* \"#utility.yul\":2614:2621   */\n      dup5\n        /* \"#utility.yul\":2610:2633   */\n      sub\n        /* \"#utility.yul\":2606:2639   */\n      slt\n        /* \"#utility.yul\":2603:2723   */\n      iszero\n      tag_318\n      jumpi\n        /* \"#utility.yul\":2642:2721   */\n      tag_319\n      tag_315\n      jump\t// in\n    tag_319:\n        /* \"#utility.yul\":2603:2723   */\n    tag_318:\n        /* \"#utility.yul\":2762:2763   */\n      0x00\n        /* \"#utility.yul\":2787:2874   */\n      tag_320\n        /* \"#utility.yul\":2866:2873   */\n      dup5\n        /* \"#utility.yul\":2857:2863   */\n      dup3\n        /* \"#utility.yul\":2846:2855   */\n      dup6\n        /* \"#utility.yul\":2842:2864   */\n      add\n        /* \"#utility.yul\":2787:2874   */\n      tag_285\n      jump\t// in\n    tag_320:\n        /* \"#utility.yul\":2777:2874   */\n      swap2\n      pop\n        /* \"#utility.yul\":2733:2884   */\n      pop\n        /* \"#utility.yul\":2493:2891   */\n      swap3\n      swap2\n      pop\n      pop\n      jump\t// out\n        /* \"#utility.yul\":2897:3510   */\n    tag_88:\n        /* \"#utility.yul\":2971:2977   */\n      0x00\n        /* \"#utility.yul\":2979:2985   */\n      dup1\n        /* \"#utility.yul\":2987:2993   */\n      0x00\n        /* \"#utility.yul\":3036:3038   */\n      0x60\n        /* \"#utility.yul\":3024:3033   */\n      dup5\n        /* \"#utility.yul\":3015:3022   */\n      dup7\n        /* \"#utility.yul\":3011:3034   */\n      sub\n        /* \"#utility.yul\":3007:3039   */\n      slt\n        /* \"#utility.yul\":3004:3123   */\n      iszero\n      tag_322\n      jumpi\n        /* \"#utility.yul\":3042:3121   */\n      tag_323\n      tag_315\n      jump\t// in\n    tag_323:\n        /* \"#utility.yul\":3004:3123   */\n    tag_322:\n        /* \"#utility.yul\":3162:3163   */\n      0x00\n        /* \"#utility.yul\":3187:3237   */\n      tag_324\n        /* \"#utility.yul\":3229:3236   */\n      dup7\n        /* \"#utility.yul\":3220:3226   */\n      dup3\n        /* \"#utility.yul\":3209:3218   */\n      dup8\n        /* \"#utility.yul\":3205:3227   */\n      add\n        /* \"#utility.yul\":3187:3237   */\n      tag_291\n      jump\t// in\n    tag_324:\n        /* \"#utility.yul\":3177:3237   */\n      swap4\n      pop\n        /* \"#utility.yul\":3133:3247   */\n      pop\n        /* \"#utility.yul\":3286:3288   */\n      0x20\n        /* \"#utility.yul\":3312:3365   */\n      tag_325\n        /* \"#utility.yul\":3357:3364   */\n      dup7\n        /* \"#utility.yul\":3348:3354   */\n      dup3\n        /* \"#utility.yul\":3337:3346   */\n      dup8\n        /* \"#utility.yul\":3333:3355   */\n      add\n        /* \"#utility.yul\":3312:3365   */\n      tag_299\n      jump\t// in\n    tag_325:\n        /* \"#utility.yul\":3302:3365   */\n      swap3\n      pop\n        /* \"#utility.yul\":3257:3375   */\n      pop\n        /* \"#utility.yul\":3414:3416   */\n      0x40\n        /* \"#utility.yul\":3440:3493   */\n      tag_326\n        /* \"#utility.yul\":3485:3492   */\n      dup7\n        /* \"#utility.yul\":3476:3482   */\n      dup3\n        /* \"#utility.yul\":3465:3474   */\n      dup8\n        /* \"#utility.yul\":3461:3483   */\n      add\n        /* \"#utility.yul\":3440:3493   */\n      tag_299\n      jump\t// in\n    tag_326:\n        /* \"#utility.yul\":3430:3493   */\n      swap2\n      pop\n        /* \"#utility.yul\":3385:3503   */\n      pop\n        /* \"#utility.yul\":2897:3510   */\n      swap3\n      pop\n      swap3\n      pop\n      swap3\n      jump\t// out\n        /* \"#utility.yul\":3516:4855   */\n    tag_70:\n        /* \"#utility.yul\":3633:3639   */\n      0x00\n        /* \"#utility.yul\":3641:3647   */\n      dup1\n        /* \"#utility.yul\":3649:3655   */\n      0x00\n        /* \"#utility.yul\":3657:3663   */\n      dup1\n        /* \"#utility.yul\":3665:3671   */\n      0x00\n        /* \"#utility.yul\":3673:3679   */\n      dup1\n        /* \"#utility.yul\":3681:3687   */\n      0x00\n        /* \"#utility.yul\":3689:3695   */\n      dup1\n        /* \"#utility.yul\":3738:3741   */\n      0x0100\n        /* \"#utility.yul\":3726:3735   */\n      dup10\n        /* \"#utility.yul\":3717:3724   */\n      dup12\n        /* \"#utility.yul\":3713:3736   */\n      sub\n        /* \"#utility.yul\":3709:3742   */\n      slt\n        /* \"#utility.yul\":3706:3826   */\n      iszero\n      tag_328\n      jumpi\n        /* \"#utility.yul\":3745:3824   */\n      tag_329\n      tag_315\n      jump\t// in\n    tag_329:\n        /* \"#utility.yul\":3706:3826   */\n    tag_328:\n        /* \"#utility.yul\":3865:3866   */\n      0x00\n        /* \"#utility.yul\":3890:3940   */\n      tag_330\n        /* \"#utility.yul\":3932:3939   */\n      dup12\n        /* \"#utility.yul\":3923:3929   */\n      dup3\n        /* \"#utility.yul\":3912:3921   */\n      dup13\n        /* \"#utility.yul\":3908:3930   */\n      add\n        /* \"#utility.yul\":3890:3940   */\n      tag_291\n      jump\t// in\n    tag_330:\n        /* \"#utility.yul\":3880:3940   */\n      swap9\n      pop\n        /* \"#utility.yul\":3836:3950   */\n      pop\n        /* \"#utility.yul\":3989:3991   */\n      0x20\n        /* \"#utility.yul\":4015:4068   */\n      tag_331\n        /* \"#utility.yul\":4060:4067   */\n      dup12\n        /* \"#utility.yul\":4051:4057   */\n      dup3\n        /* \"#utility.yul\":4040:4049   */\n      dup13\n        /* \"#utility.yul\":4036:4058   */\n      add\n        /* \"#utility.yul\":4015:4068   */\n      tag_299\n      jump\t// in\n    tag_331:\n        /* \"#utility.yul\":4005:4068   */\n      swap8\n      pop\n        /* \"#utility.yul\":3960:4078   */\n      pop\n        /* \"#utility.yul\":4117:4119   */\n      0x40\n        /* \"#utility.yul\":4143:4196   */\n      tag_332\n        /* \"#utility.yul\":4188:4195   */\n      dup12\n        /* \"#utility.yul\":4179:4185   */\n      dup3\n        /* \"#utility.yul\":4168:4177   */\n      dup13\n        /* \"#utility.yul\":4164:4186   */\n      add\n        /* \"#utility.yul\":4143:4196   */\n      tag_299\n      jump\t// in\n    tag_332:\n        /* \"#utility.yul\":4133:4196   */\n      swap7\n      pop\n        /* \"#utility.yul\":4088:4206   */\n      pop\n        /* \"#utility.yul\":4245:4247   */\n      0x60\n        /* \"#utility.yul\":4271:4324   */\n      tag_333\n        /* \"#utility.yul\":4316:4323   */\n      dup12\n        /* \"#utility.yul\":4307:4313   */\n      dup3\n        /* \"#utility.yul\":4296:4305   */\n      dup13\n        /* \"#utility.yul\":4292:4314   */\n      add\n        /* \"#utility.yul\":4271:4324   */\n      tag_299\n      jump\t// in\n    tag_333:\n        /* \"#utility.yul\":4261:4324   */\n      swap6\n      pop\n        /* \"#utility.yul\":4216:4334   */\n      pop\n        /* \"#utility.yul\":4373:4376   */\n      0x80\n        /* \"#utility.yul\":4400:4453   */\n      tag_334\n        /* \"#utility.yul\":4445:4452   */\n      dup12\n        /* \"#utility.yul\":4436:4442   */\n      dup3\n        /* \"#utility.yul\":4425:4434   */\n      dup13\n        /* \"#utility.yul\":4421:4443   */\n      add\n        /* \"#utility.yul\":4400:4453   */\n      tag_299\n      jump\t// in\n    tag_334:\n        /* \"#utility.yul\":4390:4453   */\n      swap5\n      pop\n        /* \"#utility.yul\":4344:4463   */\n      pop\n        /* \"#utility.yul\":4502:4505   */\n      0xa0\n        /* \"#utility.yul\":4529:4582   */\n      tag_335\n        /* \"#utility.yul\":4574:4581   */\n      dup12\n        /* \"#utility.yul\":4565:4571   */\n      dup3\n        /* \"#utility.yul\":4554:4563   */\n      dup13\n        /* \"#utility.yul\":4550:4572   */\n      add\n        /* \"#utility.yul\":4529:4582   */\n      tag_299\n      jump\t// in\n    tag_335:\n        /* \"#utility.yul\":4519:4582   */\n      swap4\n      pop\n        /* \"#utility.yul\":4473:4592   */\n      pop\n        /* \"#utility.yul\":4631:4634   */\n      0xc0\n        /* \"#utility.yul\":4658:4710   */\n      tag_336\n        /* \"#utility.yul\":4702:4709   */\n      dup12\n        /* \"#utility.yul\":4693:4699   */\n      dup3\n        /* \"#utility.yul\":4682:4691   */\n      dup13\n        /* \"#utility.yul\":4678:4700   */\n      add\n        /* \"#utility.yul\":4658:4710   */\n      tag_305\n      jump\t// in\n    tag_336:\n        /* \"#utility.yul\":4648:4710   */\n      swap3\n      pop\n        /* \"#utility.yul\":4602:4720   */\n      pop\n        /* \"#utility.yul\":4759:4762   */\n      0xe0\n        /* \"#utility.yul\":4786:4838   */\n      tag_337\n        /* \"#utility.yul\":4830:4837   */\n      dup12\n        /* \"#utility.yul\":4821:4827   */\n      dup3\n        /* \"#utility.yul\":4810:4819   */\n      dup13\n        /* \"#utility.yul\":4806:4828   */\n      add\n        /* \"#utility.yul\":4786:4838   */\n      tag_305\n      jump\t// in\n    tag_337:\n        /* \"#utility.yul\":4776:4838   */\n      swap2\n      pop\n        /* \"#utility.yul\":4730:4848   */\n      pop\n        /* \"#utility.yul\":3516:4855   */\n      swap3\n      swap6\n      swap9\n      pop\n      swap3\n      swap6\n      swap9\n      swap1\n      swap4\n      swap7\n      pop\n      jump\t// out\n        /* \"#utility.yul\":4861:5234   */\n    tag_108:\n        /* \"#utility.yul\":4942:4948   */\n      0x00\n        /* \"#utility.yul\":4991:4993   */\n      0x20\n        /* \"#utility.yul\":4979:4988   */\n      dup3\n        /* \"#utility.yul\":4970:4977   */\n      dup5\n        /* \"#utility.yul\":4966:4989   */\n      sub\n        /* \"#utility.yul\":4962:4994   */\n      slt\n        /* \"#utility.yul\":4959:5078   */\n      iszero\n      tag_339\n      jumpi\n        /* \"#utility.yul\":4997:5076   */\n      tag_340\n      tag_315\n      jump\t// in\n    tag_340:\n        /* \"#utility.yul\":4959:5078   */\n    tag_339:\n        /* \"#utility.yul\":5117:5118   */\n      0x00\n        /* \"#utility.yul\":5142:5217   */\n      tag_341\n        /* \"#utility.yul\":5209:5216   */\n      dup5\n        /* \"#utility.yul\":5200:5206   */\n      dup3\n        /* \"#utility.yul\":5189:5198   */\n      dup6\n        /* \"#utility.yul\":5185:5207   */\n      add\n        /* \"#utility.yul\":5142:5217   */\n      tag_295\n      jump\t// in\n    tag_341:\n        /* \"#utility.yul\":5132:5217   */\n      swap2\n      pop\n        /* \"#utility.yul\":5088:5227   */\n      pop\n        /* \"#utility.yul\":4861:5234   */\n      swap3\n      swap2\n      pop\n      pop\n      jump\t// out\n        /* \"#utility.yul\":5240:5569   */\n    tag_24:\n        /* \"#utility.yul\":5299:5305   */\n      0x00\n        /* \"#utility.yul\":5348:5350   */\n      0x20\n        /* \"#utility.yul\":5336:5345   */\n      dup3\n        /* \"#utility.yul\":5327:5334   */\n      dup5\n        /* \"#utility.yul\":5323:5346   */\n      sub\n        /* \"#utility.yul\":5319:5351   */\n      slt\n        /* \"#utility.yul\":5316:5435   */\n      iszero\n      tag_343\n      jumpi\n        /* \"#utility.yul\":5354:5433   */\n      tag_344\n      tag_315\n      jump\t// in\n    tag_344:\n        /* \"#utility.yul\":5316:5435   */\n    tag_343:\n        /* \"#utility.yul\":5474:5475   */\n      0x00\n        /* \"#utility.yul\":5499:5552   */\n      tag_345\n        /* \"#utility.yul\":5544:5551   */\n      dup5\n        /* \"#utility.yul\":5535:5541   */\n      dup3\n        /* \"#utility.yul\":5524:5533   */\n      dup6\n        /* \"#utility.yul\":5520:5542   */\n      add\n        /* \"#utility.yul\":5499:5552   */\n      tag_299\n      jump\t// in\n    tag_345:\n        /* \"#utility.yul\":5489:5552   */\n      swap2\n      pop\n        /* \"#utility.yul\":5445:5562   */\n      pop\n        /* \"#utility.yul\":5240:5569   */\n      swap3\n      swap2\n      pop\n      pop\n      jump\t// out\n        /* \"#utility.yul\":5575:5926   */\n    tag_120:\n        /* \"#utility.yul\":5645:5651   */\n      0x00\n        /* \"#utility.yul\":5694:5696   */\n      0x20\n        /* \"#utility.yul\":5682:5691   */\n      dup3\n        /* \"#utility.yul\":5673:5680   */\n      dup5\n        /* \"#utility.yul\":5669:5692   */\n      sub\n        /* \"#utility.yul\":5665:5697   */\n      slt\n        /* \"#utility.yul\":5662:5781   */\n      iszero\n      tag_347\n      jumpi\n        /* \"#utility.yul\":5700:5779   */\n      tag_348\n      tag_315\n      jump\t// in\n    tag_348:\n        /* \"#utility.yul\":5662:5781   */\n    tag_347:\n        /* \"#utility.yul\":5820:5821   */\n      0x00\n        /* \"#utility.yul\":5845:5909   */\n      tag_349\n        /* \"#utility.yul\":5901:5908   */\n      dup5\n        /* \"#utility.yul\":5892:5898   */\n      dup3\n        /* \"#utility.yul\":5881:5890   */\n      dup6\n        /* \"#utility.yul\":5877:5899   */\n      add\n        /* \"#utility.yul\":5845:5909   */\n      tag_280\n      jump\t// in\n    tag_349:\n        /* \"#utility.yul\":5835:5909   */\n      swap2\n      pop\n        /* \"#utility.yul\":5791:5919   */\n      pop\n        /* \"#utility.yul\":5575:5926   */\n      swap3\n      swap2\n      pop\n      pop\n      jump\t// out\n        /* \"#utility.yul\":5932:6281   */\n    tag_114:\n        /* \"#utility.yul\":6001:6007   */\n      0x00\n        /* \"#utility.yul\":6050:6052   */\n      0x20\n        /* \"#utility.yul\":6038:6047   */\n      dup3\n        /* \"#utility.yul\":6029:6036   */\n      dup5\n        /* \"#utility.yul\":6025:6048   */\n      sub\n        /* \"#utility.yul\":6021:6053   */\n      slt\n        /* \"#utility.yul\":6018:6137   */\n      iszero\n      tag_351\n      jumpi\n        /* \"#utility.yul\":6056:6135   */\n      tag_352\n      tag_315\n      jump\t// in\n    tag_352:\n        /* \"#utility.yul\":6018:6137   */\n    tag_351:\n        /* \"#utility.yul\":6176:6177   */\n      0x00\n        /* \"#utility.yul\":6201:6264   */\n      tag_353\n        /* \"#utility.yul\":6256:6263   */\n      dup5\n        /* \"#utility.yul\":6247:6253   */\n      dup3\n        /* \"#utility.yul\":6236:6245   */\n      dup6\n        /* \"#utility.yul\":6232:6254   */\n      add\n        /* \"#utility.yul\":6201:6264   */\n      tag_309\n      jump\t// in\n    tag_353:\n        /* \"#utility.yul\":6191:6264   */\n      swap2\n      pop\n        /* \"#utility.yul\":6147:6274   */\n      pop\n        /* \"#utility.yul\":5932:6281   */\n      swap3\n      swap2\n      pop\n      pop\n      jump\t// out\n        /* \"#utility.yul\":6287:6466   */\n    tag_354:\n        /* \"#utility.yul\":6356:6366   */\n      0x00\n        /* \"#utility.yul\":6377:6423   */\n      tag_356\n        /* \"#utility.yul\":6419:6422   */\n      dup4\n        /* \"#utility.yul\":6411:6417   */\n      dup4\n        /* \"#utility.yul\":6377:6423   */\n      tag_357\n      jump\t// in\n    tag_356:\n        /* \"#utility.yul\":6455:6459   */\n      0x20\n        /* \"#utility.yul\":6450:6453   */\n      dup4\n        /* \"#utility.yul\":6446:6460   */\n      add\n        /* \"#utility.yul\":6432:6460   */\n      swap1\n      pop\n        /* \"#utility.yul\":6287:6466   */\n      swap3\n      swap2\n      pop\n      pop\n      jump\t// out\n        /* \"#utility.yul\":6472:6590   */\n    tag_358:\n        /* \"#utility.yul\":6559:6583   */\n      tag_360\n        /* \"#utility.yul\":6577:6582   */\n      dup2\n        /* \"#utility.yul\":6559:6583   */\n      tag_361\n      jump\t// in\n    tag_360:\n        /* \"#utility.yul\":6554:6557   */\n      dup3\n        /* \"#utility.yul\":6547:6584   */\n      mstore\n        /* \"#utility.yul\":6472:6590   */\n      pop\n      pop\n      jump\t// out\n        /* \"#utility.yul\":6628:7322   */\n    tag_362:\n        /* \"#utility.yul\":6764:6816   */\n      tag_364\n        /* \"#utility.yul\":6810:6815   */\n      dup2\n        /* \"#utility.yul\":6764:6816   */\n      tag_365\n      jump\t// in\n    tag_364:\n        /* \"#utility.yul\":6832:6916   */\n      tag_366\n        /* \"#utility.yul\":6909:6915   */\n      dup2\n        /* \"#utility.yul\":6904:6907   */\n      dup5\n        /* \"#utility.yul\":6832:6916   */\n      tag_367\n      jump\t// in\n    tag_366:\n        /* \"#utility.yul\":6825:6916   */\n      swap3\n      pop\n        /* \"#utility.yul\":6940:6994   */\n      tag_368\n        /* \"#utility.yul\":6988:6993   */\n      dup3\n        /* \"#utility.yul\":6940:6994   */\n      tag_369\n      jump\t// in\n    tag_368:\n        /* \"#utility.yul\":7017:7024   */\n      dup1\n        /* \"#utility.yul\":7048:7049   */\n      0x00\n        /* \"#utility.yul\":7033:7315   */\n    tag_370:\n        /* \"#utility.yul\":7058:7064   */\n      dup4\n        /* \"#utility.yul\":7055:7056   */\n      dup2\n        /* \"#utility.yul\":7052:7065   */\n      lt\n        /* \"#utility.yul\":7033:7315   */\n      iszero\n      tag_372\n      jumpi\n        /* \"#utility.yul\":7134:7140   */\n      dup2\n        /* \"#utility.yul\":7128:7141   */\n      mload\n        /* \"#utility.yul\":7161:7224   */\n      tag_373\n        /* \"#utility.yul\":7220:7223   */\n      dup8\n        /* \"#utility.yul\":7205:7218   */\n      dup3\n        /* \"#utility.yul\":7161:7224   */\n      tag_354\n      jump\t// in\n    tag_373:\n        /* \"#utility.yul\":7154:7224   */\n      swap7\n      pop\n        /* \"#utility.yul\":7247:7305   */\n      tag_374\n        /* \"#utility.yul\":7298:7304   */\n      dup4\n        /* \"#utility.yul\":7247:7305   */\n      tag_375\n      jump\t// in\n    tag_374:\n        /* \"#utility.yul\":7237:7305   */\n      swap3\n      pop\n        /* \"#utility.yul\":7093:7315   */\n      pop\n        /* \"#utility.yul\":7080:7081   */\n      0x01\n        /* \"#utility.yul\":7077:7078   */\n      dup2\n        /* \"#utility.yul\":7073:7082   */\n      add\n        /* \"#utility.yul\":7068:7082   */\n      swap1\n      pop\n        /* \"#utility.yul\":7033:7315   */\n      jump(tag_370)\n    tag_372:\n        /* \"#utility.yul\":7037:7051   */\n      pop\n        /* \"#utility.yul\":6740:7322   */\n      pop\n      pop\n      pop\n        /* \"#utility.yul\":6628:7322   */\n      pop\n      pop\n      jump\t// out\n        /* \"#utility.yul\":7328:7485   */\n    tag_376:\n        /* \"#utility.yul\":7428:7478   */\n      tag_378\n        /* \"#utility.yul\":7472:7477   */\n      dup2\n        /* \"#utility.yul\":7428:7478   */\n      tag_379\n      jump\t// in\n    tag_378:\n        /* \"#utility.yul\":7423:7426   */\n      dup3\n        /* \"#utility.yul\":7416:7479   */\n      mstore\n        /* \"#utility.yul\":7328:7485   */\n      pop\n      pop\n      jump\t// out\n        /* \"#utility.yul\":7491:7640   */\n    tag_380:\n        /* \"#utility.yul\":7587:7633   */\n      tag_382\n        /* \"#utility.yul\":7627:7632   */\n      dup2\n        /* \"#utility.yul\":7587:7633   */\n      tag_383\n      jump\t// in\n    tag_382:\n        /* \"#utility.yul\":7582:7585   */\n      dup3\n        /* \"#utility.yul\":7575:7634   */\n      mstore\n        /* \"#utility.yul\":7491:7640   */\n      pop\n      pop\n      jump\t// out\n        /* \"#utility.yul\":7646:8012   */\n    tag_384:\n        /* \"#utility.yul\":7788:7791   */\n      0x00\n        /* \"#utility.yul\":7809:7876   */\n      tag_386\n        /* \"#utility.yul\":7873:7875   */\n      0x27\n        /* \"#utility.yul\":7868:7871   */\n      dup4\n        /* \"#utility.yul\":7809:7876   */\n      tag_387\n      jump\t// in\n    tag_386:\n        /* \"#utility.yul\":7802:7876   */\n      swap2\n      pop\n        /* \"#utility.yul\":7885:7978   */\n      tag_388\n        /* \"#utility.yul\":7974:7977   */\n      dup3\n        /* \"#utility.yul\":7885:7978   */\n      tag_389\n      jump\t// in\n    tag_388:\n        /* \"#utility.yul\":8003:8005   */\n      0x40\n        /* \"#utility.yul\":7998:8001   */\n      dup3\n        /* \"#utility.yul\":7994:8006   */\n      add\n        /* \"#utility.yul\":7987:8006   */\n      swap1\n      pop\n        /* \"#utility.yul\":7646:8012   */\n      swap2\n      swap1\n      pop\n      jump\t// out\n        /* \"#utility.yul\":8018:8384   */\n    tag_390:\n        /* \"#utility.yul\":8160:8163   */\n      0x00\n        /* \"#utility.yul\":8181:8248   */\n      tag_392\n        /* \"#utility.yul\":8245:8247   */\n      0x26\n        /* \"#utility.yul\":8240:8243   */\n      dup4\n        /* \"#utility.yul\":8181:8248   */\n      tag_387\n      jump\t// in\n    tag_392:\n        /* \"#utility.yul\":8174:8248   */\n      swap2\n      pop\n        /* \"#utility.yul\":8257:8350   */\n      tag_393\n        /* \"#utility.yul\":8346:8349   */\n      dup3\n        /* \"#utility.yul\":8257:8350   */\n      tag_394\n      jump\t// in\n    tag_393:\n        /* \"#utility.yul\":8375:8377   */\n      0x40\n        /* \"#utility.yul\":8370:8373   */\n      dup3\n        /* \"#utility.yul\":8366:8378   */\n      add\n        /* \"#utility.yul\":8359:8378   */\n      swap1\n      pop\n        /* \"#utility.yul\":8018:8384   */\n      swap2\n      swap1\n      pop\n      jump\t// out\n        /* \"#utility.yul\":8390:8756   */\n    tag_395:\n        /* \"#utility.yul\":8532:8535   */\n      0x00\n        /* \"#utility.yul\":8553:8620   */\n      tag_397\n        /* \"#utility.yul\":8617:8619   */\n      0x13\n        /* \"#utility.yul\":8612:8615   */\n      dup4\n        /* \"#utility.yul\":8553:8620   */\n      tag_387\n      jump\t// in\n    tag_397:\n        /* \"#utility.yul\":8546:8620   */\n      swap2\n      pop\n        /* \"#utility.yul\":8629:8722   */\n      tag_398\n        /* \"#utility.yul\":8718:8721   */\n      dup3\n        /* \"#utility.yul\":8629:8722   */\n      tag_399\n      jump\t// in\n    tag_398:\n        /* \"#utility.yul\":8747:8749   */\n      0x20\n        /* \"#utility.yul\":8742:8745   */\n      dup3\n        /* \"#utility.yul\":8738:8750   */\n      add\n        /* \"#utility.yul\":8731:8750   */\n      swap1\n      pop\n        /* \"#utility.yul\":8390:8756   */\n      swap2\n      swap1\n      pop\n      jump\t// out\n        /* \"#utility.yul\":8820:9153   */\n    tag_400:\n        /* \"#utility.yul\":8965:8969   */\n      0x20\n        /* \"#utility.yul\":8960:8963   */\n      dup3\n        /* \"#utility.yul\":8956:8970   */\n      add\n        /* \"#utility.yul\":9054:9058   */\n      0x00\n        /* \"#utility.yul\":9047:9052   */\n      dup3\n        /* \"#utility.yul\":9043:9059   */\n      add\n        /* \"#utility.yul\":9037:9060   */\n      mload\n        /* \"#utility.yul\":9073:9136   */\n      tag_402\n        /* \"#utility.yul\":9130:9134   */\n      0x00\n        /* \"#utility.yul\":9125:9128   */\n      dup6\n        /* \"#utility.yul\":9121:9135   */\n      add\n        /* \"#utility.yul\":9107:9119   */\n      dup3\n        /* \"#utility.yul\":9073:9136   */\n      tag_357\n      jump\t// in\n    tag_402:\n        /* \"#utility.yul\":8980:9146   */\n      pop\n        /* \"#utility.yul\":8934:9153   */\n      pop\n        /* \"#utility.yul\":8820:9153   */\n      pop\n      pop\n      jump\t// out\n        /* \"#utility.yul\":9159:9267   */\n    tag_357:\n        /* \"#utility.yul\":9236:9260   */\n      tag_404\n        /* \"#utility.yul\":9254:9259   */\n      dup2\n        /* \"#utility.yul\":9236:9260   */\n      tag_405\n      jump\t// in\n    tag_404:\n        /* \"#utility.yul\":9231:9234   */\n      dup3\n        /* \"#utility.yul\":9224:9261   */\n      mstore\n        /* \"#utility.yul\":9159:9267   */\n      pop\n      pop\n      jump\t// out\n        /* \"#utility.yul\":9273:9391   */\n    tag_406:\n        /* \"#utility.yul\":9360:9384   */\n      tag_408\n        /* \"#utility.yul\":9378:9383   */\n      dup2\n        /* \"#utility.yul\":9360:9384   */\n      tag_405\n      jump\t// in\n    tag_408:\n        /* \"#utility.yul\":9355:9358   */\n      dup3\n        /* \"#utility.yul\":9348:9385   */\n      mstore\n        /* \"#utility.yul\":9273:9391   */\n      pop\n      pop\n      jump\t// out\n        /* \"#utility.yul\":9397:9512   */\n    tag_409:\n        /* \"#utility.yul\":9482:9505   */\n      tag_411\n        /* \"#utility.yul\":9499:9504   */\n      dup2\n        /* \"#utility.yul\":9482:9505   */\n      tag_412\n      jump\t// in\n    tag_411:\n        /* \"#utility.yul\":9477:9480   */\n      dup3\n        /* \"#utility.yul\":9470:9506   */\n      mstore\n        /* \"#utility.yul\":9397:9512   */\n      pop\n      pop\n      jump\t// out\n        /* \"#utility.yul\":9518:9740   */\n    tag_58:\n        /* \"#utility.yul\":9611:9615   */\n      0x00\n        /* \"#utility.yul\":9649:9651   */\n      0x20\n        /* \"#utility.yul\":9638:9647   */\n      dup3\n        /* \"#utility.yul\":9634:9652   */\n      add\n        /* \"#utility.yul\":9626:9652   */\n      swap1\n      pop\n        /* \"#utility.yul\":9662:9733   */\n      tag_414\n        /* \"#utility.yul\":9730:9731   */\n      0x00\n        /* \"#utility.yul\":9719:9728   */\n      dup4\n        /* \"#utility.yul\":9715:9732   */\n      add\n        /* \"#utility.yul\":9706:9712   */\n      dup5\n        /* \"#utility.yul\":9662:9733   */\n      tag_358\n      jump\t// in\n    tag_414:\n        /* \"#utility.yul\":9518:9740   */\n      swap3\n      swap2\n      pop\n      pop\n      jump\t// out\n        /* \"#utility.yul\":9746:10061   */\n    tag_81:\n        /* \"#utility.yul\":9885:9889   */\n      0x00\n        /* \"#utility.yul\":9923:9926   */\n      0xa0\n        /* \"#utility.yul\":9912:9921   */\n      dup3\n        /* \"#utility.yul\":9908:9927   */\n      add\n        /* \"#utility.yul\":9900:9927   */\n      swap1\n      pop\n        /* \"#utility.yul\":9937:10054   */\n      tag_416\n        /* \"#utility.yul\":10051:10052   */\n      0x00\n        /* \"#utility.yul\":10040:10049   */\n      dup4\n        /* \"#utility.yul\":10036:10053   */\n      add\n        /* \"#utility.yul\":10027:10033   */\n      dup5\n        /* \"#utility.yul\":9937:10054   */\n      tag_362\n      jump\t// in\n    tag_416:\n        /* \"#utility.yul\":9746:10061   */\n      swap3\n      swap2\n      pop\n      pop\n      jump\t// out\n        /* \"#utility.yul\":10067:10315   */\n    tag_53:\n        /* \"#utility.yul\":10173:10177   */\n      0x00\n        /* \"#utility.yul\":10211:10213   */\n      0x20\n        /* \"#utility.yul\":10200:10209   */\n      dup3\n        /* \"#utility.yul\":10196:10214   */\n      add\n        /* \"#utility.yul\":10188:10214   */\n      swap1\n      pop\n        /* \"#utility.yul\":10224:10308   */\n      tag_418\n        /* \"#utility.yul\":10305:10306   */\n      0x00\n        /* \"#utility.yul\":10294:10303   */\n      dup4\n        /* \"#utility.yul\":10290:10307   */\n      add\n        /* \"#utility.yul\":10281:10287   */\n      dup5\n        /* \"#utility.yul\":10224:10308   */\n      tag_376\n      jump\t// in\n    tag_418:\n        /* \"#utility.yul\":10067:10315   */\n      swap3\n      swap2\n      pop\n      pop\n      jump\t// out\n        /* \"#utility.yul\":10321:10561   */\n    tag_63:\n        /* \"#utility.yul\":10423:10427   */\n      0x00\n        /* \"#utility.yul\":10461:10463   */\n      0x20\n        /* \"#utility.yul\":10450:10459   */\n      dup3\n        /* \"#utility.yul\":10446:10464   */\n      add\n        /* \"#utility.yul\":10438:10464   */\n      swap1\n      pop\n        /* \"#utility.yul\":10474:10554   */\n      tag_420\n        /* \"#utility.yul\":10551:10552   */\n      0x00\n        /* \"#utility.yul\":10540:10549   */\n      dup4\n        /* \"#utility.yul\":10536:10553   */\n      add\n        /* \"#utility.yul\":10527:10533   */\n      dup5\n        /* \"#utility.yul\":10474:10554   */\n      tag_380\n      jump\t// in\n    tag_420:\n        /* \"#utility.yul\":10321:10561   */\n      swap3\n      swap2\n      pop\n      pop\n      jump\t// out\n        /* \"#utility.yul\":10567:10986   */\n    tag_144:\n        /* \"#utility.yul\":10733:10737   */\n      0x00\n        /* \"#utility.yul\":10771:10773   */\n      0x20\n        /* \"#utility.yul\":10760:10769   */\n      dup3\n        /* \"#utility.yul\":10756:10774   */\n      add\n        /* \"#utility.yul\":10748:10774   */\n      swap1\n      pop\n        /* \"#utility.yul\":10820:10829   */\n      dup2\n        /* \"#utility.yul\":10814:10818   */\n      dup2\n        /* \"#utility.yul\":10810:10830   */\n      sub\n        /* \"#utility.yul\":10806:10807   */\n      0x00\n        /* \"#utility.yul\":10795:10804   */\n      dup4\n        /* \"#utility.yul\":10791:10808   */\n      add\n        /* \"#utility.yul\":10784:10831   */\n      mstore\n        /* \"#utility.yul\":10848:10979   */\n      tag_422\n        /* \"#utility.yul\":10974:10978   */\n      dup2\n        /* \"#utility.yul\":10848:10979   */\n      tag_384\n      jump\t// in\n    tag_422:\n        /* \"#utility.yul\":10840:10979   */\n      swap1\n      pop\n        /* \"#utility.yul\":10567:10986   */\n      swap2\n      swap1\n      pop\n      jump\t// out\n        /* \"#utility.yul\":10992:11411   */\n    tag_100:\n        /* \"#utility.yul\":11158:11162   */\n      0x00\n        /* \"#utility.yul\":11196:11198   */\n      0x20\n        /* \"#utility.yul\":11185:11194   */\n      dup3\n        /* \"#utility.yul\":11181:11199   */\n      add\n        /* \"#utility.yul\":11173:11199   */\n      swap1\n      pop\n        /* \"#utility.yul\":11245:11254   */\n      dup2\n        /* \"#utility.yul\":11239:11243   */\n      dup2\n        /* \"#utility.yul\":11235:11255   */\n      sub\n        /* \"#utility.yul\":11231:11232   */\n      0x00\n        /* \"#utility.yul\":11220:11229   */\n      dup4\n        /* \"#utility.yul\":11216:11233   */\n      add\n        /* \"#utility.yul\":11209:11256   */\n      mstore\n        /* \"#utility.yul\":11273:11404   */\n      tag_424\n        /* \"#utility.yul\":11399:11403   */\n      dup2\n        /* \"#utility.yul\":11273:11404   */\n      tag_390\n      jump\t// in\n    tag_424:\n        /* \"#utility.yul\":11265:11404   */\n      swap1\n      pop\n        /* \"#utility.yul\":10992:11411   */\n      swap2\n      swap1\n      pop\n      jump\t// out\n        /* \"#utility.yul\":11417:11836   */\n    tag_164:\n        /* \"#utility.yul\":11583:11587   */\n      0x00\n        /* \"#utility.yul\":11621:11623   */\n      0x20\n        /* \"#utility.yul\":11610:11619   */\n      dup3\n        /* \"#utility.yul\":11606:11624   */\n      add\n        /* \"#utility.yul\":11598:11624   */\n      swap1\n      pop\n        /* \"#utility.yul\":11670:11679   */\n      dup2\n        /* \"#utility.yul\":11664:11668   */\n      dup2\n        /* \"#utility.yul\":11660:11680   */\n      sub\n        /* \"#utility.yul\":11656:11657   */\n      0x00\n        /* \"#utility.yul\":11645:11654   */\n      dup4\n        /* \"#utility.yul\":11641:11658   */\n      add\n        /* \"#utility.yul\":11634:11681   */\n      mstore\n        /* \"#utility.yul\":11698:11829   */\n      tag_426\n        /* \"#utility.yul\":11824:11828   */\n      dup2\n        /* \"#utility.yul\":11698:11829   */\n      tag_395\n      jump\t// in\n    tag_426:\n        /* \"#utility.yul\":11690:11829   */\n      swap1\n      pop\n        /* \"#utility.yul\":11417:11836   */\n      swap2\n      swap1\n      pop\n      jump\t// out\n        /* \"#utility.yul\":11842:12160   */\n    tag_48:\n        /* \"#utility.yul\":11983:11987   */\n      0x00\n        /* \"#utility.yul\":12021:12023   */\n      0x20\n        /* \"#utility.yul\":12010:12019   */\n      dup3\n        /* \"#utility.yul\":12006:12024   */\n      add\n        /* \"#utility.yul\":11998:12024   */\n      swap1\n      pop\n        /* \"#utility.yul\":12034:12153   */\n      tag_428\n        /* \"#utility.yul\":12150:12151   */\n      0x00\n        /* \"#utility.yul\":12139:12148   */\n      dup4\n        /* \"#utility.yul\":12135:12152   */\n      add\n        /* \"#utility.yul\":12126:12132   */\n      dup5\n        /* \"#utility.yul\":12034:12153   */\n      tag_400\n      jump\t// in\n    tag_428:\n        /* \"#utility.yul\":11842:12160   */\n      swap3\n      swap2\n      pop\n      pop\n      jump\t// out\n        /* \"#utility.yul\":12166:12388   */\n    tag_35:\n        /* \"#utility.yul\":12259:12263   */\n      0x00\n        /* \"#utility.yul\":12297:12299   */\n      0x20\n        /* \"#utility.yul\":12286:12295   */\n      dup3\n        /* \"#utility.yul\":12282:12300   */\n      add\n        /* \"#utility.yul\":12274:12300   */\n      swap1\n      pop\n        /* \"#utility.yul\":12310:12381   */\n      tag_430\n        /* \"#utility.yul\":12378:12379   */\n      0x00\n        /* \"#utility.yul\":12367:12376   */\n      dup4\n        /* \"#utility.yul\":12363:12380   */\n      add\n        /* \"#utility.yul\":12354:12360   */\n      dup5\n        /* \"#utility.yul\":12310:12381   */\n      tag_406\n      jump\t// in\n    tag_430:\n        /* \"#utility.yul\":12166:12388   */\n      swap3\n      swap2\n      pop\n      pop\n      jump\t// out\n        /* \"#utility.yul\":12394:13272   */\n    tag_204:\n        /* \"#utility.yul\":12651:12655   */\n      0x00\n        /* \"#utility.yul\":12689:12692   */\n      0xe0\n        /* \"#utility.yul\":12678:12687   */\n      dup3\n        /* \"#utility.yul\":12674:12693   */\n      add\n        /* \"#utility.yul\":12666:12693   */\n      swap1\n      pop\n        /* \"#utility.yul\":12703:12774   */\n      tag_432\n        /* \"#utility.yul\":12771:12772   */\n      0x00\n        /* \"#utility.yul\":12760:12769   */\n      dup4\n        /* \"#utility.yul\":12756:12773   */\n      add\n        /* \"#utility.yul\":12747:12753   */\n      dup11\n        /* \"#utility.yul\":12703:12774   */\n      tag_406\n      jump\t// in\n    tag_432:\n        /* \"#utility.yul\":12784:12856   */\n      tag_433\n        /* \"#utility.yul\":12852:12854   */\n      0x20\n        /* \"#utility.yul\":12841:12850   */\n      dup4\n        /* \"#utility.yul\":12837:12855   */\n      add\n        /* \"#utility.yul\":12828:12834   */\n      dup10\n        /* \"#utility.yul\":12784:12856   */\n      tag_406\n      jump\t// in\n    tag_433:\n        /* \"#utility.yul\":12866:12938   */\n      tag_434\n        /* \"#utility.yul\":12934:12936   */\n      0x40\n        /* \"#utility.yul\":12923:12932   */\n      dup4\n        /* \"#utility.yul\":12919:12937   */\n      add\n        /* \"#utility.yul\":12910:12916   */\n      dup9\n        /* \"#utility.yul\":12866:12938   */\n      tag_406\n      jump\t// in\n    tag_434:\n        /* \"#utility.yul\":12948:13020   */\n      tag_435\n        /* \"#utility.yul\":13016:13018   */\n      0x60\n        /* \"#utility.yul\":13005:13014   */\n      dup4\n        /* \"#utility.yul\":13001:13019   */\n      add\n        /* \"#utility.yul\":12992:12998   */\n      dup8\n        /* \"#utility.yul\":12948:13020   */\n      tag_406\n      jump\t// in\n    tag_435:\n        /* \"#utility.yul\":13030:13103   */\n      tag_436\n        /* \"#utility.yul\":13098:13101   */\n      0x80\n        /* \"#utility.yul\":13087:13096   */\n      dup4\n        /* \"#utility.yul\":13083:13102   */\n      add\n        /* \"#utility.yul\":13074:13080   */\n      dup7\n        /* \"#utility.yul\":13030:13103   */\n      tag_406\n      jump\t// in\n    tag_436:\n        /* \"#utility.yul\":13113:13184   */\n      tag_437\n        /* \"#utility.yul\":13179:13182   */\n      0xa0\n        /* \"#utility.yul\":13168:13177   */\n      dup4\n        /* \"#utility.yul\":13164:13183   */\n      add\n        /* \"#utility.yul\":13155:13161   */\n      dup6\n        /* \"#utility.yul\":13113:13184   */\n      tag_409\n      jump\t// in\n    tag_437:\n        /* \"#utility.yul\":13194:13265   */\n      tag_438\n        /* \"#utility.yul\":13260:13263   */\n      0xc0\n        /* \"#utility.yul\":13249:13258   */\n      dup4\n        /* \"#utility.yul\":13245:13264   */\n      add\n        /* \"#utility.yul\":13236:13242   */\n      dup5\n        /* \"#utility.yul\":13194:13265   */\n      tag_409\n      jump\t// in\n    tag_438:\n        /* \"#utility.yul\":12394:13272   */\n      swap9\n      swap8\n      pop\n      pop\n      pop\n      pop\n      pop\n      pop\n      pop\n      pop\n      jump\t// out\n        /* \"#utility.yul\":13278:13496   */\n    tag_30:\n        /* \"#utility.yul\":13369:13373   */\n      0x00\n        /* \"#utility.yul\":13407:13409   */\n      0x20\n        /* \"#utility.yul\":13396:13405   */\n      dup3\n        /* \"#utility.yul\":13392:13410   */\n      add\n        /* \"#utility.yul\":13384:13410   */\n      swap1\n      pop\n        /* \"#utility.yul\":13420:13489   */\n      tag_440\n        /* \"#utility.yul\":13486:13487   */\n      0x00\n        /* \"#utility.yul\":13475:13484   */\n      dup4\n        /* \"#utility.yul\":13471:13488   */\n      add\n        /* \"#utility.yul\":13462:13468   */\n      dup5\n        /* \"#utility.yul\":13420:13489   */\n      tag_409\n      jump\t// in\n    tag_440:\n        /* \"#utility.yul\":13278:13496   */\n      swap3\n      swap2\n      pop\n      pop\n      jump\t// out\n        /* \"#utility.yul\":13502:13631   */\n    tag_272:\n        /* \"#utility.yul\":13536:13542   */\n      0x00\n        /* \"#utility.yul\":13563:13583   */\n      tag_442\n      tag_443\n      jump\t// in\n    tag_442:\n        /* \"#utility.yul\":13553:13583   */\n      swap1\n      pop\n        /* \"#utility.yul\":13592:13625   */\n      tag_444\n        /* \"#utility.yul\":13620:13624   */\n      dup3\n        /* \"#utility.yul\":13612:13618   */\n      dup3\n        /* \"#utility.yul\":13592:13625   */\n      tag_445\n      jump\t// in\n    tag_444:\n        /* \"#utility.yul\":13502:13631   */\n      swap2\n      swap1\n      pop\n      jump\t// out\n        /* \"#utility.yul\":13637:13712   */\n    tag_443:\n        /* \"#utility.yul\":13670:13676   */\n      0x00\n        /* \"#utility.yul\":13703:13705   */\n      0x40\n        /* \"#utility.yul\":13697:13706   */\n      mload\n        /* \"#utility.yul\":13687:13706   */\n      swap1\n      pop\n        /* \"#utility.yul\":13637:13712   */\n      swap1\n      jump\t// out\n        /* \"#utility.yul\":13718:13967   */\n    tag_271:\n        /* \"#utility.yul\":13793:13797   */\n      0x00\n        /* \"#utility.yul\":13883:13901   */\n      0xffffffffffffffff\n        /* \"#utility.yul\":13875:13881   */\n      dup3\n        /* \"#utility.yul\":13872:13902   */\n      gt\n        /* \"#utility.yul\":13869:13925   */\n      iszero\n      tag_448\n      jumpi\n        /* \"#utility.yul\":13905:13923   */\n      tag_449\n      tag_450\n      jump\t// in\n    tag_449:\n        /* \"#utility.yul\":13869:13925   */\n    tag_448:\n        /* \"#utility.yul\":13955:13959   */\n      0x20\n        /* \"#utility.yul\":13947:13953   */\n      dup3\n        /* \"#utility.yul\":13943:13960   */\n      mul\n        /* \"#utility.yul\":13935:13960   */\n      swap1\n      pop\n        /* \"#utility.yul\":13718:13967   */\n      swap2\n      swap1\n      pop\n      jump\t// out\n        /* \"#utility.yul\":13973:14071   */\n    tag_369:\n        /* \"#utility.yul\":14038:14042   */\n      0x00\n        /* \"#utility.yul\":14061:14064   */\n      dup2\n        /* \"#utility.yul\":14053:14064   */\n      swap1\n      pop\n        /* \"#utility.yul\":13973:14071   */\n      swap2\n      swap1\n      pop\n      jump\t// out\n        /* \"#utility.yul\":14077:14181   */\n    tag_365:\n        /* \"#utility.yul\":14142:14148   */\n      0x00\n        /* \"#utility.yul\":14170:14174   */\n      0x05\n        /* \"#utility.yul\":14160:14174   */\n      swap1\n      pop\n        /* \"#utility.yul\":14077:14181   */\n      swap2\n      swap1\n      pop\n      jump\t// out\n        /* \"#utility.yul\":14187:14298   */\n    tag_375:\n        /* \"#utility.yul\":14255:14259   */\n      0x00\n        /* \"#utility.yul\":14287:14291   */\n      0x20\n        /* \"#utility.yul\":14282:14285   */\n      dup3\n        /* \"#utility.yul\":14278:14292   */\n      add\n        /* \"#utility.yul\":14270:14292   */\n      swap1\n      pop\n        /* \"#utility.yul\":14187:14298   */\n      swap2\n      swap1\n      pop\n      jump\t// out\n        /* \"#utility.yul\":14304:14447   */\n    tag_367:\n        /* \"#utility.yul\":14401:14412   */\n      0x00\n        /* \"#utility.yul\":14438:14441   */\n      dup2\n        /* \"#utility.yul\":14423:14441   */\n      swap1\n      pop\n        /* \"#utility.yul\":14304:14447   */\n      swap3\n      swap2\n      pop\n      pop\n      jump\t// out\n        /* \"#utility.yul\":14453:14622   */\n    tag_387:\n        /* \"#utility.yul\":14537:14548   */\n      0x00\n        /* \"#utility.yul\":14571:14577   */\n      dup3\n        /* \"#utility.yul\":14566:14569   */\n      dup3\n        /* \"#utility.yul\":14559:14578   */\n      mstore\n        /* \"#utility.yul\":14611:14615   */\n      0x20\n        /* \"#utility.yul\":14606:14609   */\n      dup3\n        /* \"#utility.yul\":14602:14616   */\n      add\n        /* \"#utility.yul\":14587:14616   */\n      swap1\n      pop\n        /* \"#utility.yul\":14453:14622   */\n      swap3\n      swap2\n      pop\n      pop\n      jump\t// out\n        /* \"#utility.yul\":14628:14933   */\n    tag_166:\n        /* \"#utility.yul\":14668:14671   */\n      0x00\n        /* \"#utility.yul\":14687:14707   */\n      tag_457\n        /* \"#utility.yul\":14705:14706   */\n      dup3\n        /* \"#utility.yul\":14687:14707   */\n      tag_405\n      jump\t// in\n    tag_457:\n        /* \"#utility.yul\":14682:14707   */\n      swap2\n      pop\n        /* \"#utility.yul\":14721:14741   */\n      tag_458\n        /* \"#utility.yul\":14739:14740   */\n      dup4\n        /* \"#utility.yul\":14721:14741   */\n      tag_405\n      jump\t// in\n    tag_458:\n        /* \"#utility.yul\":14716:14741   */\n      swap3\n      pop\n        /* \"#utility.yul\":14875:14876   */\n      dup3\n        /* \"#utility.yul\":14807:14873   */\n      0xffffffffffffffffffffffffffffffffffffffffffffffffffffffffffffffff\n        /* \"#utility.yul\":14803:14877   */\n      sub\n        /* \"#utility.yul\":14800:14801   */\n      dup3\n        /* \"#utility.yul\":14797:14878   */\n      gt\n        /* \"#utility.yul\":14794:14901   */\n      iszero\n      tag_459\n      jumpi\n        /* \"#utility.yul\":14881:14899   */\n      tag_460\n      tag_461\n      jump\t// in\n    tag_460:\n        /* \"#utility.yul\":14794:14901   */\n    tag_459:\n        /* \"#utility.yul\":14925:14926   */\n      dup3\n        /* \"#utility.yul\":14922:14923   */\n      dup3\n        /* \"#utility.yul\":14918:14927   */\n      add\n        /* \"#utility.yul\":14911:14927   */\n      swap1\n      pop\n        /* \"#utility.yul\":14628:14933   */\n      swap3\n      swap2\n      pop\n      pop\n      jump\t// out\n        /* \"#utility.yul\":14939:15127   */\n    tag_170:\n        /* \"#utility.yul\":14978:14982   */\n      0x00\n        /* \"#utility.yul\":14998:15017   */\n      tag_463\n        /* \"#utility.yul\":15015:15016   */\n      dup3\n        /* \"#utility.yul\":14998:15017   */\n      tag_412\n      jump\t// in\n    tag_463:\n        /* \"#utility.yul\":14993:15017   */\n      swap2\n      pop\n        /* \"#utility.yul\":15031:15050   */\n      tag_464\n        /* \"#utility.yul\":15048:15049   */\n      dup4\n        /* \"#utility.yul\":15031:15050   */\n      tag_412\n      jump\t// in\n    tag_464:\n        /* \"#utility.yul\":15026:15050   */\n      swap3\n      pop\n        /* \"#utility.yul\":15069:15070   */\n      dup3\n        /* \"#utility.yul\":15066:15067   */\n      dup3\n        /* \"#utility.yul\":15063:15071   */\n      lt\n        /* \"#utility.yul\":15060:15094   */\n      iszero\n      tag_465\n      jumpi\n        /* \"#utility.yul\":15074:15092   */\n      tag_466\n      tag_461\n      jump\t// in\n    tag_466:\n        /* \"#utility.yul\":15060:15094   */\n    tag_465:\n        /* \"#utility.yul\":15119:15120   */\n      dup3\n        /* \"#utility.yul\":15116:15117   */\n      dup3\n        /* \"#utility.yul\":15112:15121   */\n      sub\n        /* \"#utility.yul\":15104:15121   */\n      swap1\n      pop\n        /* \"#utility.yul\":14939:15127   */\n      swap3\n      swap2\n      pop\n      pop\n      jump\t// out\n        /* \"#utility.yul\":15133:15229   */\n    tag_361:\n        /* \"#utility.yul\":15170:15177   */\n      0x00\n        /* \"#utility.yul\":15199:15223   */\n      tag_468\n        /* \"#utility.yul\":15217:15222   */\n      dup3\n        /* \"#utility.yul\":15199:15223   */\n      tag_469\n      jump\t// in\n    tag_468:\n        /* \"#utility.yul\":15188:15223   */\n      swap1\n      pop\n        /* \"#utility.yul\":15133:15229   */\n      swap2\n      swap1\n      pop\n      jump\t// out\n        /* \"#utility.yul\":15235:15325   */\n    tag_470:\n        /* \"#utility.yul\":15269:15276   */\n      0x00\n        /* \"#utility.yul\":15312:15317   */\n      dup2\n        /* \"#utility.yul\":15305:15318   */\n      iszero\n        /* \"#utility.yul\":15298:15319   */\n      iszero\n        /* \"#utility.yul\":15287:15319   */\n      swap1\n      pop\n        /* \"#utility.yul\":15235:15325   */\n      swap2\n      swap1\n      pop\n      jump\t// out\n        /* \"#utility.yul\":15331:15464   */\n    tag_472:\n        /* \"#utility.yul\":15379:15386   */\n      0x00\n        /* \"#utility.yul\":15408:15413   */\n      dup2\n        /* \"#utility.yul\":15397:15413   */\n      swap1\n      pop\n        /* \"#utility.yul\":15414:15458   */\n      tag_474\n        /* \"#utility.yul\":15452:15457   */\n      dup3\n        /* \"#utility.yul\":15414:15458   */\n      tag_475\n      jump\t// in\n    tag_474:\n        /* \"#utility.yul\":15331:15464   */\n      swap2\n      swap1\n      pop\n      jump\t// out\n        /* \"#utility.yul\":15470:15596   */\n    tag_469:\n        /* \"#utility.yul\":15507:15514   */\n      0x00\n        /* \"#utility.yul\":15547:15589   */\n      0xffffffffffffffffffffffffffffffffffffffff\n        /* \"#utility.yul\":15540:15545   */\n      dup3\n        /* \"#utility.yul\":15536:15590   */\n      and\n        /* \"#utility.yul\":15525:15590   */\n      swap1\n      pop\n        /* \"#utility.yul\":15470:15596   */\n      swap2\n      swap1\n      pop\n      jump\t// out\n        /* \"#utility.yul\":15602:15679   */\n    tag_405:\n        /* \"#utility.yul\":15639:15646   */\n      0x00\n        /* \"#utility.yul\":15668:15673   */\n      dup2\n        /* \"#utility.yul\":15657:15673   */\n      swap1\n      pop\n        /* \"#utility.yul\":15602:15679   */\n      swap2\n      swap1\n      pop\n      jump\t// out\n        /* \"#utility.yul\":15685:15778   */\n    tag_412:\n        /* \"#utility.yul\":15721:15728   */\n      0x00\n        /* \"#utility.yul\":15761:15771   */\n      0xffffffff\n        /* \"#utility.yul\":15754:15759   */\n      dup3\n        /* \"#utility.yul\":15750:15772   */\n      and\n        /* \"#utility.yul\":15739:15772   */\n      swap1\n      pop\n        /* \"#utility.yul\":15685:15778   */\n      swap2\n      swap1\n      pop\n      jump\t// out\n        /* \"#utility.yul\":15784:15923   */\n    tag_379:\n        /* \"#utility.yul\":15847:15856   */\n      0x00\n        /* \"#utility.yul\":15880:15917   */\n      tag_480\n        /* \"#utility.yul\":15911:15916   */\n      dup3\n        /* \"#utility.yul\":15880:15917   */\n      tag_481\n      jump\t// in\n    tag_480:\n        /* \"#utility.yul\":15867:15917   */\n      swap1\n      pop\n        /* \"#utility.yul\":15784:15923   */\n      swap2\n      swap1\n      pop\n      jump\t// out\n        /* \"#utility.yul\":15929:16062   */\n    tag_383:\n        /* \"#utility.yul\":15988:15997   */\n      0x00\n        /* \"#utility.yul\":16021:16056   */\n      tag_483\n        /* \"#utility.yul\":16050:16055   */\n      dup3\n        /* \"#utility.yul\":16021:16056   */\n      tag_472\n      jump\t// in\n    tag_483:\n        /* \"#utility.yul\":16008:16056   */\n      swap1\n      pop\n        /* \"#utility.yul\":15929:16062   */\n      swap2\n      swap1\n      pop\n      jump\t// out\n        /* \"#utility.yul\":16068:16194   */\n    tag_481:\n        /* \"#utility.yul\":16118:16127   */\n      0x00\n        /* \"#utility.yul\":16151:16188   */\n      tag_485\n        /* \"#utility.yul\":16182:16187   */\n      dup3\n        /* \"#utility.yul\":16151:16188   */\n      tag_486\n      jump\t// in\n    tag_485:\n        /* \"#utility.yul\":16138:16188   */\n      swap1\n      pop\n        /* \"#utility.yul\":16068:16194   */\n      swap2\n      swap1\n      pop\n      jump\t// out\n        /* \"#utility.yul\":16200:16313   */\n    tag_486:\n        /* \"#utility.yul\":16250:16259   */\n      0x00\n        /* \"#utility.yul\":16283:16307   */\n      tag_488\n        /* \"#utility.yul\":16301:16306   */\n      dup3\n        /* \"#utility.yul\":16283:16307   */\n      tag_469\n      jump\t// in\n    tag_488:\n        /* \"#utility.yul\":16270:16307   */\n      swap1\n      pop\n        /* \"#utility.yul\":16200:16313   */\n      swap2\n      swap1\n      pop\n      jump\t// out\n        /* \"#utility.yul\":16319:16600   */\n    tag_445:\n        /* \"#utility.yul\":16402:16429   */\n      tag_490\n        /* \"#utility.yul\":16424:16428   */\n      dup3\n        /* \"#utility.yul\":16402:16429   */\n      tag_491\n      jump\t// in\n    tag_490:\n        /* \"#utility.yul\":16394:16400   */\n      dup2\n        /* \"#utility.yul\":16390:16430   */\n      add\n        /* \"#utility.yul\":16532:16538   */\n      dup2\n        /* \"#utility.yul\":16520:16530   */\n      dup2\n        /* \"#utility.yul\":16517:16539   */\n      lt\n        /* \"#utility.yul\":16496:16514   */\n      0xffffffffffffffff\n        /* \"#utility.yul\":16484:16494   */\n      dup3\n        /* \"#utility.yul\":16481:16515   */\n      gt\n        /* \"#utility.yul\":16478:16540   */\n      or\n        /* \"#utility.yul\":16475:16563   */\n      iszero\n      tag_492\n      jumpi\n        /* \"#utility.yul\":16543:16561   */\n      tag_493\n      tag_450\n      jump\t// in\n    tag_493:\n        /* \"#utility.yul\":16475:16563   */\n    tag_492:\n        /* \"#utility.yul\":16583:16593   */\n      dup1\n        /* \"#utility.yul\":16579:16581   */\n      0x40\n        /* \"#utility.yul\":16572:16594   */\n      mstore\n        /* \"#utility.yul\":16362:16600   */\n      pop\n        /* \"#utility.yul\":16319:16600   */\n      pop\n      pop\n      jump\t// out\n        /* \"#utility.yul\":16606:16786   */\n    tag_461:\n        /* \"#utility.yul\":16654:16731   */\n      0x4e487b7100000000000000000000000000000000000000000000000000000000\n        /* \"#utility.yul\":16651:16652   */\n      0x00\n        /* \"#utility.yul\":16644:16732   */\n      mstore\n        /* \"#utility.yul\":16751:16755   */\n      0x11\n        /* \"#utility.yul\":16748:16749   */\n      0x04\n        /* \"#utility.yul\":16741:16756   */\n      mstore\n        /* \"#utility.yul\":16775:16779   */\n      0x24\n        /* \"#utility.yul\":16772:16773   */\n      0x00\n        /* \"#utility.yul\":16765:16780   */\n      revert\n        /* \"#utility.yul\":16792:16972   */\n    tag_94:\n        /* \"#utility.yul\":16840:16917   */\n      0x4e487b7100000000000000000000000000000000000000000000000000000000\n        /* \"#utility.yul\":16837:16838   */\n      0x00\n        /* \"#utility.yul\":16830:16918   */\n      mstore\n        /* \"#utility.yul\":16937:16941   */\n      0x21\n        /* \"#utility.yul\":16934:16935   */\n      0x04\n        /* \"#utility.yul\":16927:16942   */\n      mstore\n        /* \"#utility.yul\":16961:16965   */\n      0x24\n        /* \"#utility.yul\":16958:16959   */\n      0x00\n        /* \"#utility.yul\":16951:16966   */\n      revert\n        /* \"#utility.yul\":16978:17158   */\n    tag_450:\n        /* \"#utility.yul\":17026:17103   */\n      0x4e487b7100000000000000000000000000000000000000000000000000000000\n        /* \"#utility.yul\":17023:17024   */\n      0x00\n        /* \"#utility.yul\":17016:17104   */\n      mstore\n        /* \"#utility.yul\":17123:17127   */\n      0x41\n        /* \"#utility.yul\":17120:17121   */\n      0x04\n        /* \"#utility.yul\":17113:17128   */\n      mstore\n        /* \"#utility.yul\":17147:17151   */\n      0x24\n        /* \"#utility.yul\":17144:17145   */\n      0x00\n        /* \"#utility.yul\":17137:17152   */\n      revert\n        /* \"#utility.yul\":17164:17281   */\n    tag_289:\n        /* \"#utility.yul\":17273:17274   */\n      0x00\n        /* \"#utility.yul\":17270:17271   */\n      dup1\n        /* \"#utility.yul\":17263:17275   */\n      revert\n        /* \"#utility.yul\":17287:17404   */\n    tag_275:\n        /* \"#utility.yul\":17396:17397   */\n      0x00\n        /* \"#utility.yul\":17393:17394   */\n      dup1\n        /* \"#utility.yul\":17386:17398   */\n      revert\n        /* \"#utility.yul\":17533:17650   */\n    tag_315:\n        /* \"#utility.yul\":17642:17643   */\n      0x00\n        /* \"#utility.yul\":17639:17640   */\n      dup1\n        /* \"#utility.yul\":17632:17644   */\n      revert\n        /* \"#utility.yul\":17656:17758   */\n    tag_491:\n        /* \"#utility.yul\":17697:17703   */\n      0x00\n        /* \"#utility.yul\":17748:17750   */\n      0x1f\n        /* \"#utility.yul\":17744:17751   */\n      not\n        /* \"#utility.yul\":17739:17741   */\n      0x1f\n        /* \"#utility.yul\":17732:17737   */\n      dup4\n        /* \"#utility.yul\":17728:17742   */\n      add\n        /* \"#utility.yul\":17724:17752   */\n      and\n        /* \"#utility.yul\":17714:17752   */\n      swap1\n      pop\n        /* \"#utility.yul\":17656:17758   */\n      swap2\n      swap1\n      pop\n      jump\t// out\n        /* \"#utility.yul\":17764:17990   */\n    tag_389:\n        /* \"#utility.yul\":17904:17938   */\n      0x54686520737461747573206f6620746865204344532073686f756c6420626520\n        /* \"#utility.yul\":17900:17901   */\n      0x00\n        /* \"#utility.yul\":17892:17898   */\n      dup3\n        /* \"#utility.yul\":17888:17902   */\n      add\n        /* \"#utility.yul\":17881:17939   */\n      mstore\n        /* \"#utility.yul\":17973:17982   */\n      0x70656e64696e6700000000000000000000000000000000000000000000000000\n        /* \"#utility.yul\":17968:17970   */\n      0x20\n        /* \"#utility.yul\":17960:17966   */\n      dup3\n        /* \"#utility.yul\":17956:17971   */\n      add\n        /* \"#utility.yul\":17949:17983   */\n      mstore\n        /* \"#utility.yul\":17764:17990   */\n      pop\n      jump\t// out\n        /* \"#utility.yul\":17996:18221   */\n    tag_394:\n        /* \"#utility.yul\":18136:18170   */\n      0x54686520737461747573206f6620746865204344532073686f756c6420626520\n        /* \"#utility.yul\":18132:18133   */\n      0x00\n        /* \"#utility.yul\":18124:18130   */\n      dup3\n        /* \"#utility.yul\":18120:18134   */\n      add\n        /* \"#utility.yul\":18113:18171   */\n      mstore\n        /* \"#utility.yul\":18205:18213   */\n      0x6163746976650000000000000000000000000000000000000000000000000000\n        /* \"#utility.yul\":18200:18202   */\n      0x20\n        /* \"#utility.yul\":18192:18198   */\n      dup3\n        /* \"#utility.yul\":18188:18203   */\n      add\n        /* \"#utility.yul\":18181:18214   */\n      mstore\n        /* \"#utility.yul\":17996:18221   */\n      pop\n      jump\t// out\n        /* \"#utility.yul\":18227:18396   */\n    tag_399:\n        /* \"#utility.yul\":18367:18388   */\n      0x526f756e6420616c726561647920656e64656400000000000000000000000000\n        /* \"#utility.yul\":18363:18364   */\n      0x00\n        /* \"#utility.yul\":18355:18361   */\n      dup3\n        /* \"#utility.yul\":18351:18365   */\n      add\n        /* \"#utility.yul\":18344:18389   */\n      mstore\n        /* \"#utility.yul\":18227:18396   */\n      pop\n      jump\t// out\n        /* \"#utility.yul\":18402:18518   */\n    tag_475:\n        /* \"#utility.yul\":18486:18487   */\n      0x05\n        /* \"#utility.yul\":18479:18484   */\n      dup2\n        /* \"#utility.yul\":18476:18488   */\n      lt\n        /* \"#utility.yul\":18466:18512   */\n      tag_507\n      jumpi\n        /* \"#utility.yul\":18492:18510   */\n      tag_508\n      tag_94\n      jump\t// in\n    tag_508:\n        /* \"#utility.yul\":18466:18512   */\n    tag_507:\n        /* \"#utility.yul\":18402:18518   */\n      pop\n      jump\t// out\n        /* \"#utility.yul\":18524:18646   */\n    tag_284:\n        /* \"#utility.yul\":18597:18621   */\n      tag_510\n        /* \"#utility.yul\":18615:18620   */\n      dup2\n        /* \"#utility.yul\":18597:18621   */\n      tag_361\n      jump\t// in\n    tag_510:\n        /* \"#utility.yul\":18590:18595   */\n      dup2\n        /* \"#utility.yul\":18587:18622   */\n      eq\n        /* \"#utility.yul\":18577:18640   */\n      tag_511\n      jumpi\n        /* \"#utility.yul\":18636:18637   */\n      0x00\n        /* \"#utility.yul\":18633:18634   */\n      dup1\n        /* \"#utility.yul\":18626:18638   */\n      revert\n        /* \"#utility.yul\":18577:18640   */\n    tag_511:\n        /* \"#utility.yul\":18524:18646   */\n      pop\n      jump\t// out\n        /* \"#utility.yul\":18652:18768   */\n    tag_294:\n        /* \"#utility.yul\":18722:18743   */\n      tag_513\n        /* \"#utility.yul\":18737:18742   */\n      dup2\n        /* \"#utility.yul\":18722:18743   */\n      tag_470\n      jump\t// in\n    tag_513:\n        /* \"#utility.yul\":18715:18720   */\n      dup2\n        /* \"#utility.yul\":18712:18744   */\n      eq\n        /* \"#utility.yul\":18702:18762   */\n      tag_514\n      jumpi\n        /* \"#utility.yul\":18758:18759   */\n      0x00\n        /* \"#utility.yul\":18755:18756   */\n      dup1\n        /* \"#utility.yul\":18748:18760   */\n      revert\n        /* \"#utility.yul\":18702:18762   */\n    tag_514:\n        /* \"#utility.yul\":18652:18768   */\n      pop\n      jump\t// out\n        /* \"#utility.yul\":18774:18884   */\n    tag_298:\n        /* \"#utility.yul\":18858:18859   */\n      0x05\n        /* \"#utility.yul\":18851:18856   */\n      dup2\n        /* \"#utility.yul\":18848:18860   */\n      lt\n        /* \"#utility.yul\":18838:18878   */\n      tag_516\n      jumpi\n        /* \"#utility.yul\":18874:18875   */\n      0x00\n        /* \"#utility.yul\":18871:18872   */\n      dup1\n        /* \"#utility.yul\":18864:18876   */\n      revert\n        /* \"#utility.yul\":18838:18878   */\n    tag_516:\n        /* \"#utility.yul\":18774:18884   */\n      pop\n      jump\t// out\n        /* \"#utility.yul\":18890:19012   */\n    tag_302:\n        /* \"#utility.yul\":18963:18987   */\n      tag_518\n        /* \"#utility.yul\":18981:18986   */\n      dup2\n        /* \"#utility.yul\":18963:18987   */\n      tag_405\n      jump\t// in\n    tag_518:\n        /* \"#utility.yul\":18956:18961   */\n      dup2\n        /* \"#utility.yul\":18953:18988   */\n      eq\n        /* \"#utility.yul\":18943:19006   */\n      tag_519\n      jumpi\n        /* \"#utility.yul\":19002:19003   */\n      0x00\n        /* \"#utility.yul\":18999:19000   */\n      dup1\n        /* \"#utility.yul\":18992:19004   */\n      revert\n        /* \"#utility.yul\":18943:19006   */\n    tag_519:\n        /* \"#utility.yul\":18890:19012   */\n      pop\n      jump\t// out\n        /* \"#utility.yul\":19018:19138   */\n    tag_308:\n        /* \"#utility.yul\":19090:19113   */\n      tag_521\n        /* \"#utility.yul\":19107:19112   */\n      dup2\n        /* \"#utility.yul\":19090:19113   */\n      tag_412\n      jump\t// in\n    tag_521:\n        /* \"#utility.yul\":19083:19088   */\n      dup2\n        /* \"#utility.yul\":19080:19114   */\n      eq\n        /* \"#utility.yul\":19070:19132   */\n      tag_522\n      jumpi\n        /* \"#utility.yul\":19128:19129   */\n      0x00\n        /* \"#utility.yul\":19125:19126   */\n      dup1\n        /* \"#utility.yul\":19118:19130   */\n      revert\n        /* \"#utility.yul\":19070:19132   */\n    tag_522:\n        /* \"#utility.yul\":19018:19138   */\n      pop\n      jump\t// out\n    stop\n\n    sub_0: assembly {\n            /* \"contracts/Swap/Swap.sol\":229:3115  contract Swap is Ownable, PriceConsumer {... */\n          mstore(0x40, 0x80)\n            /* \"contracts/Swap/Swap.sol\":801:1541  constructor(... */\n          callvalue\n          dup1\n          iszero\n          tag_1\n          jumpi\n          0x00\n          dup1\n          revert\n        tag_1:\n          pop\n          mload(0x40)\n          sub(codesize, bytecodeSize)\n          dup1\n          bytecodeSize\n          dup4\n          codecopy\n          dup2\n          dup2\n          add\n          0x40\n          mstore\n          dup2\n          add\n          swap1\n          tag_2\n          swap2\n          swap1\n          tag_3\n          jump\t// in\n        tag_2:\n            /* \"@openzeppelin/contracts/access/Ownable.sol\":936:968  _transferOwnership(_msgSender()) */\n          tag_8\n            /* \"@openzeppelin/contracts/access/Ownable.sol\":955:967  _msgSender() */\n          tag_9\n            /* \"@openzeppelin/contracts/access/Ownable.sol\":955:965  _msgSender */\n          shl(0x20, tag_10)\n            /* \"@openzeppelin/contracts/access/Ownable.sol\":955:967  _msgSender() */\n          0x20\n          shr\n          jump\t// in\n        tag_9:\n            /* \"@openzeppelin/contracts/access/Ownable.sol\":936:954  _transferOwnership */\n          shl(0x20, tag_11)\n            /* \"@openzeppelin/contracts/access/Ownable.sol\":936:968  _transferOwnership(_msgSender()) */\n          0x20\n          shr\n          jump\t// in\n        tag_8:\n            /* \"contracts/Swap/PriceConsumer.sol\":230:272  0x3E0e765c10497bB01f562b2f9Af50c621AB8eDA4 */\n          0x3e0e765c10497bb01f562b2f9af50c621ab8eda4\n            /* \"contracts/Swap/PriceConsumer.sol\":185:196  priceOracle */\n          0x01\n          0x00\n            /* \"contracts/Swap/PriceConsumer.sol\":185:279  priceOracle = PriceOracleMock(... */\n          0x0100\n          exp\n          dup2\n          sload\n          dup2\n          0xffffffffffffffffffffffffffffffffffffffff\n          mul\n          not\n          and\n          swap1\n          dup4\n          0xffffffffffffffffffffffffffffffffffffffff\n          and\n          mul\n          or\n          swap1\n          sstore\n          pop\n            /* \"contracts/Swap/Swap.sol\":1018:1033  _initAssetPrice */\n          dup7\n            /* \"contracts/Swap/Swap.sol\":1001:1015  initAssetPrice */\n          0x03\n            /* \"contracts/Swap/Swap.sol\":1001:1033  initAssetPrice = _initAssetPrice */\n          dup2\n          swap1\n          sstore\n          pop\n            /* \"contracts/Swap/Swap.sol\":1052:1063  _claimPrice */\n          dup6\n            /* \"contracts/Swap/Swap.sol\":1039:1049  claimPrice */\n          0x04\n            /* \"contracts/Swap/Swap.sol\":1039:1063  claimPrice = _claimPrice */\n          dup2\n          swap1\n          sstore\n          pop\n            /* \"contracts/Swap/Swap.sol\":1088:1105  _liquidationPrice */\n          dup5\n            /* \"contracts/Swap/Swap.sol\":1069:1085  liquidationPrice */\n          0x05\n            /* \"contracts/Swap/Swap.sol\":1069:1105  liquidationPrice = _liquidationPrice */\n          dup2\n          swap1\n          sstore\n          pop\n            /* \"contracts/Swap/Swap.sol\":1121:1129  _premium */\n          dup4\n            /* \"contracts/Swap/Swap.sol\":1111:1118  premium */\n          0x06\n            /* \"contracts/Swap/Swap.sol\":1111:1129  premium = _premium */\n          dup2\n          swap1\n          sstore\n          pop\n            /* \"contracts/Swap/Swap.sol\":1151:1165  _sellerDeposit */\n          dup3\n            /* \"contracts/Swap/Swap.sol\":1135:1148  sellerDeposit */\n          0x07\n            /* \"contracts/Swap/Swap.sol\":1135:1165  sellerDeposit = _sellerDeposit */\n          dup2\n          swap1\n          sstore\n          pop\n            /* \"contracts/Swap/Swap.sol\":1180:1187  _rounds */\n          dup2\n            /* \"contracts/Swap/Swap.sol\":1171:1177  rounds */\n          0x0a\n          0x14\n            /* \"contracts/Swap/Swap.sol\":1171:1187  rounds = _rounds */\n          0x0100\n          exp\n          dup2\n          sload\n          dup2\n          0xffffffff\n          mul\n          not\n          and\n          swap1\n          dup4\n          0xffffffff\n          and\n          mul\n          or\n          swap1\n          sstore\n          pop\n            /* \"contracts/Swap/Swap.sol\":1207:1214  _rounds */\n          dup2\n            /* \"contracts/Swap/Swap.sol\":1193:1204  totalRounds */\n          0x0a\n          0x18\n            /* \"contracts/Swap/Swap.sol\":1193:1214  totalRounds = _rounds */\n          0x0100\n          exp\n          dup2\n          sload\n          dup2\n          0xffffffff\n          mul\n          not\n          and\n          swap1\n          dup4\n          0xffffffff\n          and\n          mul\n          or\n          swap1\n          sstore\n          pop\n            /* \"contracts/Swap/Swap.sol\":1236:1319  initAssetPrice.calcAmountOfAsset(... */\n          tag_14\n            /* \"contracts/Swap/Swap.sol\":1276:1292  liquidationPrice */\n          sload(0x05)\n            /* \"contracts/Swap/Swap.sol\":1300:1313  sellerDeposit */\n          sload(0x07)\n            /* \"contracts/Swap/Swap.sol\":1236:1250  initAssetPrice */\n          sload(0x03)\n            /* \"contracts/Swap/Swap.sol\":1236:1268  initAssetPrice.calcAmountOfAsset */\n          or(tag_0_120, shl(0x20, tag_15))\n          swap1\n            /* \"contracts/Swap/Swap.sol\":1236:1319  initAssetPrice.calcAmountOfAsset(... */\n          swap3\n          swap2\n          swap1\n          0x20\n          shr\n          jump\t// in\n        tag_14:\n            /* \"contracts/Swap/Swap.sol\":1220:1233  amountOfAsset */\n          0x08\n            /* \"contracts/Swap/Swap.sol\":1220:1319  amountOfAsset = initAssetPrice.calcAmountOfAsset(... */\n          dup2\n          swap1\n          sstore\n          pop\n            /* \"contracts/Swap/Swap.sol\":1354:1355  0 */\n          0x00\n            /* \"contracts/Swap/Swap.sol\":1340:1350  _assetType */\n          dup2\n            /* \"contracts/Swap/Swap.sol\":1340:1355  _assetType == 0 */\n          0xffffffff\n          and\n          eq\n            /* \"contracts/Swap/Swap.sol\":1340:1374  _assetType == 0 || _assetType == 1 */\n          dup1\n          tag_16\n          jumpi\n          pop\n            /* \"contracts/Swap/Swap.sol\":1373:1374  1 */\n          0x01\n            /* \"contracts/Swap/Swap.sol\":1359:1369  _assetType */\n          dup2\n            /* \"contracts/Swap/Swap.sol\":1359:1374  _assetType == 1 */\n          0xffffffff\n          and\n          eq\n            /* \"contracts/Swap/Swap.sol\":1340:1374  _assetType == 0 || _assetType == 1 */\n        tag_16:\n            /* \"contracts/Swap/Swap.sol\":1340:1393  _assetType == 0 || _assetType == 1 || _assetType == 2 */\n          dup1\n          tag_17\n          jumpi\n          pop\n            /* \"contracts/Swap/Swap.sol\":1392:1393  2 */\n          0x02\n            /* \"contracts/Swap/Swap.sol\":1378:1388  _assetType */\n          dup2\n            /* \"contracts/Swap/Swap.sol\":1378:1393  _assetType == 2 */\n          0xffffffff\n          and\n          eq\n            /* \"contracts/Swap/Swap.sol\":1340:1393  _assetType == 0 || _assetType == 1 || _assetType == 2 */\n        tag_17:\n            /* \"contracts/Swap/Swap.sol\":1325:1429  require(... */\n          tag_18\n          jumpi\n          mload(0x40)\n          0x08c379a000000000000000000000000000000000000000000000000000000000\n          dup2\n          mstore\n          0x04\n          add\n          tag_19\n          swap1\n          tag_20\n          jump\t// in\n        tag_19:\n          mload(0x40)\n          dup1\n          swap2\n          sub\n          swap1\n          revert\n        tag_18:\n            /* \"contracts/Swap/Swap.sol\":1447:1457  _assetType */\n          dup1\n            /* \"contracts/Swap/Swap.sol\":1435:1444  assetType */\n          0x0a\n          0x1c\n            /* \"contracts/Swap/Swap.sol\":1435:1457  assetType = _assetType */\n          0x0100\n          exp\n          dup2\n          sload\n          dup2\n          0xffffffff\n          mul\n          not\n          and\n          swap1\n          dup4\n          0xffffffff\n          and\n          mul\n          or\n          swap1\n          sstore\n          pop\n            /* \"contracts/Swap/Swap.sol\":1480:1481  0 */\n          0x00\n            /* \"contracts/Swap/Swap.sol\":1464:1469  buyer */\n          0x09\n          0x00\n            /* \"contracts/Swap/Swap.sol\":1464:1482  buyer = address(0) */\n          0x0100\n          exp\n          dup2\n          sload\n          dup2\n          0xffffffffffffffffffffffffffffffffffffffff\n          mul\n          not\n          and\n          swap1\n          dup4\n          0xffffffffffffffffffffffffffffffffffffffff\n          and\n          mul\n          or\n          swap1\n          sstore\n          pop\n            /* \"contracts/Swap/Swap.sol\":1505:1506  0 */\n          0x00\n            /* \"contracts/Swap/Swap.sol\":1488:1494  seller */\n          0x0a\n          0x00\n            /* \"contracts/Swap/Swap.sol\":1488:1507  seller = address(0) */\n          0x0100\n          exp\n          dup2\n          sload\n          dup2\n          0xffffffffffffffffffffffffffffffffffffffff\n          mul\n          not\n          and\n          swap1\n          dup4\n          0xffffffffffffffffffffffffffffffffffffffff\n          and\n          mul\n          or\n          swap1\n          sstore\n          pop\n            /* \"contracts/Swap/Swap.sol\":1522:1536  Status.pending */\n          0x01\n            /* \"contracts/Swap/Swap.sol\":1513:1519  status */\n          0x02\n          0x14\n            /* \"contracts/Swap/Swap.sol\":1513:1536  status = Status.pending */\n          0x0100\n          exp\n          dup2\n          sload\n          dup2\n          0xff\n          mul\n          not\n          and\n          swap1\n          dup4\n          0x04\n          dup2\n          gt\n          iszero\n          tag_21\n          jumpi\n          tag_22\n          tag_23\n          jump\t// in\n        tag_22:\n        tag_21:\n          mul\n          or\n          swap1\n          sstore\n          pop\n            /* \"contracts/Swap/Swap.sol\":801:1541  constructor(... */\n          pop\n          pop\n          pop\n          pop\n          pop\n          pop\n          pop\n            /* \"contracts/Swap/Swap.sol\":229:3115  contract Swap is Ownable, PriceConsumer {... */\n          jump(tag_24)\n            /* \"@openzeppelin/contracts/utils/Context.sol\":640:736  function _msgSender() internal view virtual returns (address) {... */\n        tag_10:\n            /* \"@openzeppelin/contracts/utils/Context.sol\":693:700  address */\n          0x00\n            /* \"@openzeppelin/contracts/utils/Context.sol\":719:729  msg.sender */\n          caller\n            /* \"@openzeppelin/contracts/utils/Context.sol\":712:729  return msg.sender */\n          swap1\n          pop\n            /* \"@openzeppelin/contracts/utils/Context.sol\":640:736  function _msgSender() internal view virtual returns (address) {... */\n          swap1\n          jump\t// out\n            /* \"@openzeppelin/contracts/access/Ownable.sol\":2433:2620  function _transferOwnership(address newOwner) internal virtual {... */\n        tag_11:\n            /* \"@openzeppelin/contracts/access/Ownable.sol\":2506:2522  address oldOwner */\n          0x00\n            /* \"@openzeppelin/contracts/access/Ownable.sol\":2525:2531  _owner */\n          dup1\n          0x00\n          swap1\n          sload\n          swap1\n          0x0100\n          exp\n          swap1\n          div\n          0xffffffffffffffffffffffffffffffffffffffff\n          and\n            /* \"@openzeppelin/contracts/access/Ownable.sol\":2506:2531  address oldOwner = _owner */\n          swap1\n          pop\n            /* \"@openzeppelin/contracts/access/Ownable.sol\":2550:2558  newOwner */\n          dup2\n            /* \"@openzeppelin/contracts/access/Ownable.sol\":2541:2547  _owner */\n          0x00\n          dup1\n            /* \"@openzeppelin/contracts/access/Ownable.sol\":2541:2558  _owner = newOwner */\n          0x0100\n          exp\n          dup2\n          sload\n          dup2\n          0xffffffffffffffffffffffffffffffffffffffff\n          mul\n          not\n          and\n          swap1\n          dup4\n          0xffffffffffffffffffffffffffffffffffffffff\n          and\n          mul\n          or\n          swap1\n          sstore\n          pop\n            /* \"@openzeppelin/contracts/access/Ownable.sol\":2604:2612  newOwner */\n          dup2\n            /* \"@openzeppelin/contracts/access/Ownable.sol\":2573:2613  OwnershipTransferred(oldOwner, newOwner) */\n          0xffffffffffffffffffffffffffffffffffffffff\n          and\n            /* \"@openzeppelin/contracts/access/Ownable.sol\":2594:2602  oldOwner */\n          dup2\n            /* \"@openzeppelin/contracts/access/Ownable.sol\":2573:2613  OwnershipTransferred(oldOwner, newOwner) */\n          0xffffffffffffffffffffffffffffffffffffffff\n          and\n          0x8be0079c531659141344cd1fd0a4f28419497f9722a3daafe3b4186f6b6457e0\n          mload(0x40)\n          mload(0x40)\n          dup1\n          swap2\n          sub\n          swap1\n          log3\n            /* \"@openzeppelin/contracts/access/Ownable.sol\":2496:2620  {... */\n          pop\n            /* \"@openzeppelin/contracts/access/Ownable.sol\":2433:2620  function _transferOwnership(address newOwner) internal virtual {... */\n          pop\n          jump\t// out\n            /* \"contracts/libs/LibSwap.sol\":592:795  function calcAmountOfAsset(... */\n        tag_15:\n            /* \"contracts/libs/LibSwap.sol\":722:729  uint256 */\n          0x00\n            /* \"contracts/libs/LibSwap.sol\":744:790  _sellerDeposit.div(_initial.sub(_liquidation)) */\n          tag_28\n            /* \"contracts/libs/LibSwap.sol\":763:789  _initial.sub(_liquidation) */\n          tag_29\n            /* \"contracts/libs/LibSwap.sol\":776:788  _liquidation */\n          dup5\n            /* \"contracts/libs/LibSwap.sol\":763:771  _initial */\n          dup7\n            /* \"contracts/libs/LibSwap.sol\":763:775  _initial.sub */\n          or(tag_0_121, shl(0x20, tag_30))\n          swap1\n            /* \"contracts/libs/LibSwap.sol\":763:789  _initial.sub(_liquidation) */\n          swap2\n          swap1\n          0x20\n          shr\n          jump\t// in\n        tag_29:\n            /* \"contracts/libs/LibSwap.sol\":744:758  _sellerDeposit */\n          dup4\n            /* \"contracts/libs/LibSwap.sol\":744:762  _sellerDeposit.div */\n          or(tag_0_122, shl(0x20, tag_31))\n          swap1\n            /* \"contracts/libs/LibSwap.sol\":744:790  _sellerDeposit.div(_initial.sub(_liquidation)) */\n          swap2\n          swap1\n          0x20\n          shr\n          jump\t// in\n        tag_28:\n            /* \"contracts/libs/LibSwap.sol\":737:790  return _sellerDeposit.div(_initial.sub(_liquidation)) */\n          swap1\n          pop\n            /* \"contracts/libs/LibSwap.sol\":592:795  function calcAmountOfAsset(... */\n          swap4\n          swap3\n          pop\n          pop\n          pop\n          jump\t// out\n            /* \"@openzeppelin/contracts/utils/math/SafeMath.sol\":3122:3218  function sub(uint256 a, uint256 b) internal pure returns (uint256) {... */\n        tag_30:\n            /* \"@openzeppelin/contracts/utils/math/SafeMath.sol\":3180:3187  uint256 */\n          0x00\n            /* \"@openzeppelin/contracts/utils/math/SafeMath.sol\":3210:3211  b */\n          dup2\n            /* \"@openzeppelin/contracts/utils/math/SafeMath.sol\":3206:3207  a */\n          dup4\n            /* \"@openzeppelin/contracts/utils/math/SafeMath.sol\":3206:3211  a - b */\n          tag_33\n          swap2\n          swap1\n          tag_34\n          jump\t// in\n        tag_33:\n            /* \"@openzeppelin/contracts/utils/math/SafeMath.sol\":3199:3211  return a - b */\n          swap1\n          pop\n            /* \"@openzeppelin/contracts/utils/math/SafeMath.sol\":3122:3218  function sub(uint256 a, uint256 b) internal pure returns (uint256) {... */\n          swap3\n          swap2\n          pop\n          pop\n          jump\t// out\n            /* \"@openzeppelin/contracts/utils/math/SafeMath.sol\":3850:3946  function div(uint256 a, uint256 b) internal pure returns (uint256) {... */\n        tag_31:\n            /* \"@openzeppelin/contracts/utils/math/SafeMath.sol\":3908:3915  uint256 */\n          0x00\n            /* \"@openzeppelin/contracts/utils/math/SafeMath.sol\":3938:3939  b */\n          dup2\n            /* \"@openzeppelin/contracts/utils/math/SafeMath.sol\":3934:3935  a */\n          dup4\n            /* \"@openzeppelin/contracts/utils/math/SafeMath.sol\":3934:3939  a / b */\n          tag_36\n          swap2\n          swap1\n          tag_37\n          jump\t// in\n        tag_36:\n            /* \"@openzeppelin/contracts/utils/math/SafeMath.sol\":3927:3939  return a / b */\n          swap1\n          pop\n            /* \"@openzeppelin/contracts/utils/math/SafeMath.sol\":3850:3946  function div(uint256 a, uint256 b) internal pure returns (uint256) {... */\n          swap3\n          swap2\n          pop\n          pop\n          jump\t// out\n            /* \"#utility.yul\":7:150   */\n        tag_39:\n            /* \"#utility.yul\":64:69   */\n          0x00\n            /* \"#utility.yul\":95:101   */\n          dup2\n            /* \"#utility.yul\":89:102   */\n          mload\n            /* \"#utility.yul\":80:102   */\n          swap1\n          pop\n            /* \"#utility.yul\":111:144   */\n          tag_41\n            /* \"#utility.yul\":138:143   */\n          dup2\n            /* \"#utility.yul\":111:144   */\n          tag_42\n          jump\t// in\n        tag_41:\n            /* \"#utility.yul\":7:150   */\n          swap3\n          swap2\n          pop\n          pop\n          jump\t// out\n            /* \"#utility.yul\":156:297   */\n        tag_43:\n            /* \"#utility.yul\":212:217   */\n          0x00\n            /* \"#utility.yul\":243:249   */\n          dup2\n            /* \"#utility.yul\":237:250   */\n          mload\n            /* \"#utility.yul\":228:250   */\n          swap1\n          pop\n            /* \"#utility.yul\":259:291   */\n          tag_45\n            /* \"#utility.yul\":285:290   */\n          dup2\n            /* \"#utility.yul\":259:291   */\n          tag_46\n          jump\t// in\n        tag_45:\n            /* \"#utility.yul\":156:297   */\n          swap3\n          swap2\n          pop\n          pop\n          jump\t// out\n            /* \"#utility.yul\":303:1590   */\n        tag_3:\n            /* \"#utility.yul\":425:431   */\n          0x00\n            /* \"#utility.yul\":433:439   */\n          dup1\n            /* \"#utility.yul\":441:447   */\n          0x00\n            /* \"#utility.yul\":449:455   */\n          dup1\n            /* \"#utility.yul\":457:463   */\n          0x00\n            /* \"#utility.yul\":465:471   */\n          dup1\n            /* \"#utility.yul\":473:479   */\n          0x00\n            /* \"#utility.yul\":522:525   */\n          0xe0\n            /* \"#utility.yul\":510:519   */\n          dup9\n            /* \"#utility.yul\":501:508   */\n          dup11\n            /* \"#utility.yul\":497:520   */\n          sub\n            /* \"#utility.yul\":493:526   */\n          slt\n            /* \"#utility.yul\":490:610   */\n          iszero\n          tag_48\n          jumpi\n            /* \"#utility.yul\":529:608   */\n          tag_49\n          tag_50\n          jump\t// in\n        tag_49:\n            /* \"#utility.yul\":490:610   */\n        tag_48:\n            /* \"#utility.yul\":649:650   */\n          0x00\n            /* \"#utility.yul\":674:738   */\n          tag_51\n            /* \"#utility.yul\":730:737   */\n          dup11\n            /* \"#utility.yul\":721:727   */\n          dup3\n            /* \"#utility.yul\":710:719   */\n          dup12\n            /* \"#utility.yul\":706:728   */\n          add\n            /* \"#utility.yul\":674:738   */\n          tag_39\n          jump\t// in\n        tag_51:\n            /* \"#utility.yul\":664:738   */\n          swap8\n          pop\n            /* \"#utility.yul\":620:748   */\n          pop\n            /* \"#utility.yul\":787:789   */\n          0x20\n            /* \"#utility.yul\":813:877   */\n          tag_52\n            /* \"#utility.yul\":869:876   */\n          dup11\n            /* \"#utility.yul\":860:866   */\n          dup3\n            /* \"#utility.yul\":849:858   */\n          dup12\n            /* \"#utility.yul\":845:867   */\n          add\n            /* \"#utility.yul\":813:877   */\n          tag_39\n          jump\t// in\n        tag_52:\n            /* \"#utility.yul\":803:877   */\n          swap7\n          pop\n            /* \"#utility.yul\":758:887   */\n          pop\n            /* \"#utility.yul\":926:928   */\n          0x40\n            /* \"#utility.yul\":952:1016   */\n          tag_53\n            /* \"#utility.yul\":1008:1015   */\n          dup11\n            /* \"#utility.yul\":999:1005   */\n          dup3\n            /* \"#utility.yul\":988:997   */\n          dup12\n            /* \"#utility.yul\":984:1006   */\n          add\n            /* \"#utility.yul\":952:1016   */\n          tag_39\n          jump\t// in\n        tag_53:\n            /* \"#utility.yul\":942:1016   */\n          swap6\n          pop\n            /* \"#utility.yul\":897:1026   */\n          pop\n            /* \"#utility.yul\":1065:1067   */\n          0x60\n            /* \"#utility.yul\":1091:1155   */\n          tag_54\n            /* \"#utility.yul\":1147:1154   */\n          dup11\n            /* \"#utility.yul\":1138:1144   */\n          dup3\n            /* \"#utility.yul\":1127:1136   */\n          dup12\n            /* \"#utility.yul\":1123:1145   */\n          add\n            /* \"#utility.yul\":1091:1155   */\n          tag_39\n          jump\t// in\n        tag_54:\n            /* \"#utility.yul\":1081:1155   */\n          swap5\n          pop\n            /* \"#utility.yul\":1036:1165   */\n          pop\n            /* \"#utility.yul\":1204:1207   */\n          0x80\n            /* \"#utility.yul\":1231:1295   */\n          tag_55\n            /* \"#utility.yul\":1287:1294   */\n          dup11\n            /* \"#utility.yul\":1278:1284   */\n          dup3\n            /* \"#utility.yul\":1267:1276   */\n          dup12\n            /* \"#utility.yul\":1263:1285   */\n          add\n            /* \"#utility.yul\":1231:1295   */\n          tag_39\n          jump\t// in\n        tag_55:\n            /* \"#utility.yul\":1221:1295   */\n          swap4\n          pop\n            /* \"#utility.yul\":1175:1305   */\n          pop\n            /* \"#utility.yul\":1344:1347   */\n          0xa0\n            /* \"#utility.yul\":1371:1434   */\n          tag_56\n            /* \"#utility.yul\":1426:1433   */\n          dup11\n            /* \"#utility.yul\":1417:1423   */\n          dup3\n            /* \"#utility.yul\":1406:1415   */\n          dup12\n            /* \"#utility.yul\":1402:1424   */\n          add\n            /* \"#utility.yul\":1371:1434   */\n          tag_43\n          jump\t// in\n        tag_56:\n            /* \"#utility.yul\":1361:1434   */\n          swap3\n          pop\n            /* \"#utility.yul\":1315:1444   */\n          pop\n            /* \"#utility.yul\":1483:1486   */\n          0xc0\n            /* \"#utility.yul\":1510:1573   */\n          tag_57\n            /* \"#utility.yul\":1565:1572   */\n          dup11\n            /* \"#utility.yul\":1556:1562   */\n          dup3\n            /* \"#utility.yul\":1545:1554   */\n          dup12\n            /* \"#utility.yul\":1541:1563   */\n          add\n            /* \"#utility.yul\":1510:1573   */\n          tag_43\n          jump\t// in\n        tag_57:\n            /* \"#utility.yul\":1500:1573   */\n          swap2\n          pop\n            /* \"#utility.yul\":1454:1583   */\n          pop\n            /* \"#utility.yul\":303:1590   */\n          swap3\n          swap6\n          swap9\n          swap2\n          swap5\n          swap8\n          pop\n          swap3\n          swap6\n          pop\n          jump\t// out\n            /* \"#utility.yul\":1596:1962   */\n        tag_58:\n            /* \"#utility.yul\":1738:1741   */\n          0x00\n            /* \"#utility.yul\":1759:1826   */\n          tag_60\n            /* \"#utility.yul\":1823:1825   */\n          0x14\n            /* \"#utility.yul\":1818:1821   */\n          dup4\n            /* \"#utility.yul\":1759:1826   */\n          tag_61\n          jump\t// in\n        tag_60:\n            /* \"#utility.yul\":1752:1826   */\n          swap2\n          pop\n            /* \"#utility.yul\":1835:1928   */\n          tag_62\n            /* \"#utility.yul\":1924:1927   */\n          dup3\n            /* \"#utility.yul\":1835:1928   */\n          tag_63\n          jump\t// in\n        tag_62:\n            /* \"#utility.yul\":1953:1955   */\n          0x20\n            /* \"#utility.yul\":1948:1951   */\n          dup3\n            /* \"#utility.yul\":1944:1956   */\n          add\n            /* \"#utility.yul\":1937:1956   */\n          swap1\n          pop\n            /* \"#utility.yul\":1596:1962   */\n          swap2\n          swap1\n          pop\n          jump\t// out\n            /* \"#utility.yul\":1968:2387   */\n        tag_20:\n            /* \"#utility.yul\":2134:2138   */\n          0x00\n            /* \"#utility.yul\":2172:2174   */\n          0x20\n            /* \"#utility.yul\":2161:2170   */\n          dup3\n            /* \"#utility.yul\":2157:2175   */\n          add\n            /* \"#utility.yul\":2149:2175   */\n          swap1\n          pop\n            /* \"#utility.yul\":2221:2230   */\n          dup2\n            /* \"#utility.yul\":2215:2219   */\n          dup2\n            /* \"#utility.yul\":2211:2231   */\n          sub\n            /* \"#utility.yul\":2207:2208   */\n          0x00\n            /* \"#utility.yul\":2196:2205   */\n          dup4\n            /* \"#utility.yul\":2192:2209   */\n          add\n            /* \"#utility.yul\":2185:2232   */\n          mstore\n            /* \"#utility.yul\":2249:2380   */\n          tag_65\n            /* \"#utility.yul\":2375:2379   */\n          dup2\n            /* \"#utility.yul\":2249:2380   */\n          tag_58\n          jump\t// in\n        tag_65:\n            /* \"#utility.yul\":2241:2380   */\n          swap1\n          pop\n            /* \"#utility.yul\":1968:2387   */\n          swap2\n          swap1\n          pop\n          jump\t// out\n            /* \"#utility.yul\":2474:2643   */\n        tag_61:\n            /* \"#utility.yul\":2558:2569   */\n          0x00\n            /* \"#utility.yul\":2592:2598   */\n          dup3\n            /* \"#utility.yul\":2587:2590   */\n          dup3\n            /* \"#utility.yul\":2580:2599   */\n          mstore\n            /* \"#utility.yul\":2632:2636   */\n          0x20\n            /* \"#utility.yul\":2627:2630   */\n          dup3\n            /* \"#utility.yul\":2623:2637   */\n          add\n            /* \"#utility.yul\":2608:2637   */\n          swap1\n          pop\n            /* \"#utility.yul\":2474:2643   */\n          swap3\n          swap2\n          pop\n          pop\n          jump\t// out\n            /* \"#utility.yul\":2649:2834   */\n        tag_37:\n            /* \"#utility.yul\":2689:2690   */\n          0x00\n            /* \"#utility.yul\":2706:2726   */\n          tag_70\n            /* \"#utility.yul\":2724:2725   */\n          dup3\n            /* \"#utility.yul\":2706:2726   */\n          tag_71\n          jump\t// in\n        tag_70:\n            /* \"#utility.yul\":2701:2726   */\n          swap2\n          pop\n            /* \"#utility.yul\":2740:2760   */\n          tag_72\n            /* \"#utility.yul\":2758:2759   */\n          dup4\n            /* \"#utility.yul\":2740:2760   */\n          tag_71\n          jump\t// in\n        tag_72:\n            /* \"#utility.yul\":2735:2760   */\n          swap3\n          pop\n            /* \"#utility.yul\":2779:2780   */\n          dup3\n            /* \"#utility.yul\":2769:2804   */\n          tag_73\n          jumpi\n            /* \"#utility.yul\":2784:2802   */\n          tag_74\n          tag_75\n          jump\t// in\n        tag_74:\n            /* \"#utility.yul\":2769:2804   */\n        tag_73:\n            /* \"#utility.yul\":2826:2827   */\n          dup3\n            /* \"#utility.yul\":2823:2824   */\n          dup3\n            /* \"#utility.yul\":2819:2828   */\n          div\n            /* \"#utility.yul\":2814:2828   */\n          swap1\n          pop\n            /* \"#utility.yul\":2649:2834   */\n          swap3\n          swap2\n          pop\n          pop\n          jump\t// out\n            /* \"#utility.yul\":2840:3031   */\n        tag_34:\n            /* \"#utility.yul\":2880:2884   */\n          0x00\n            /* \"#utility.yul\":2900:2920   */\n          tag_77\n            /* \"#utility.yul\":2918:2919   */\n          dup3\n            /* \"#utility.yul\":2900:2920   */\n          tag_71\n          jump\t// in\n        tag_77:\n            /* \"#utility.yul\":2895:2920   */\n          swap2\n          pop\n            /* \"#utility.yul\":2934:2954   */\n          tag_78\n            /* \"#utility.yul\":2952:2953   */\n          dup4\n            /* \"#utility.yul\":2934:2954   */\n          tag_71\n          jump\t// in\n        tag_78:\n            /* \"#utility.yul\":2929:2954   */\n          swap3\n          pop\n            /* \"#utility.yul\":2973:2974   */\n          dup3\n            /* \"#utility.yul\":2970:2971   */\n          dup3\n            /* \"#utility.yul\":2967:2975   */\n          lt\n            /* \"#utility.yul\":2964:2998   */\n          iszero\n          tag_79\n          jumpi\n            /* \"#utility.yul\":2978:2996   */\n          tag_80\n          tag_81\n          jump\t// in\n        tag_80:\n            /* \"#utility.yul\":2964:2998   */\n        tag_79:\n            /* \"#utility.yul\":3023:3024   */\n          dup3\n            /* \"#utility.yul\":3020:3021   */\n          dup3\n            /* \"#utility.yul\":3016:3025   */\n          sub\n            /* \"#utility.yul\":3008:3025   */\n          swap1\n          pop\n            /* \"#utility.yul\":2840:3031   */\n          swap3\n          swap2\n          pop\n          pop\n          jump\t// out\n            /* \"#utility.yul\":3037:3114   */\n        tag_71:\n            /* \"#utility.yul\":3074:3081   */\n          0x00\n            /* \"#utility.yul\":3103:3108   */\n          dup2\n            /* \"#utility.yul\":3092:3108   */\n          swap1\n          pop\n            /* \"#utility.yul\":3037:3114   */\n          swap2\n          swap1\n          pop\n          jump\t// out\n            /* \"#utility.yul\":3120:3213   */\n        tag_83:\n            /* \"#utility.yul\":3156:3163   */\n          0x00\n            /* \"#utility.yul\":3196:3206   */\n          0xffffffff\n            /* \"#utility.yul\":3189:3194   */\n          dup3\n            /* \"#utility.yul\":3185:3207   */\n          and\n            /* \"#utility.yul\":3174:3207   */\n          swap1\n          pop\n            /* \"#utility.yul\":3120:3213   */\n          swap2\n          swap1\n          pop\n          jump\t// out\n            /* \"#utility.yul\":3219:3399   */\n        tag_81:\n            /* \"#utility.yul\":3267:3344   */\n          0x4e487b7100000000000000000000000000000000000000000000000000000000\n            /* \"#utility.yul\":3264:3265   */\n          0x00\n            /* \"#utility.yul\":3257:3345   */\n          mstore\n            /* \"#utility.yul\":3364:3368   */\n          0x11\n            /* \"#utility.yul\":3361:3362   */\n          0x04\n            /* \"#utility.yul\":3354:3369   */\n          mstore\n            /* \"#utility.yul\":3388:3392   */\n          0x24\n            /* \"#utility.yul\":3385:3386   */\n          0x00\n            /* \"#utility.yul\":3378:3393   */\n          revert\n            /* \"#utility.yul\":3405:3585   */\n        tag_75:\n            /* \"#utility.yul\":3453:3530   */\n          0x4e487b7100000000000000000000000000000000000000000000000000000000\n            /* \"#utility.yul\":3450:3451   */\n          0x00\n            /* \"#utility.yul\":3443:3531   */\n          mstore\n            /* \"#utility.yul\":3550:3554   */\n          0x12\n            /* \"#utility.yul\":3547:3548   */\n          0x04\n            /* \"#utility.yul\":3540:3555   */\n          mstore\n            /* \"#utility.yul\":3574:3578   */\n          0x24\n            /* \"#utility.yul\":3571:3572   */\n          0x00\n            /* \"#utility.yul\":3564:3579   */\n          revert\n            /* \"#utility.yul\":3591:3771   */\n        tag_23:\n            /* \"#utility.yul\":3639:3716   */\n          0x4e487b7100000000000000000000000000000000000000000000000000000000\n            /* \"#utility.yul\":3636:3637   */\n          0x00\n            /* \"#utility.yul\":3629:3717   */\n          mstore\n            /* \"#utility.yul\":3736:3740   */\n          0x21\n            /* \"#utility.yul\":3733:3734   */\n          0x04\n            /* \"#utility.yul\":3726:3741   */\n          mstore\n            /* \"#utility.yul\":3760:3764   */\n          0x24\n            /* \"#utility.yul\":3757:3758   */\n          0x00\n            /* \"#utility.yul\":3750:3765   */\n          revert\n            /* \"#utility.yul\":3900:4017   */\n        tag_50:\n            /* \"#utility.yul\":4009:4010   */\n          0x00\n            /* \"#utility.yul\":4006:4007   */\n          dup1\n            /* \"#utility.yul\":3999:4011   */\n          revert\n            /* \"#utility.yul\":4023:4193   */\n        tag_63:\n            /* \"#utility.yul\":4163:4185   */\n          0x4254433a302c204554483a312c204c494e4b3a32000000000000000000000000\n            /* \"#utility.yul\":4159:4160   */\n          0x00\n            /* \"#utility.yul\":4151:4157   */\n          dup3\n            /* \"#utility.yul\":4147:4161   */\n          add\n            /* \"#utility.yul\":4140:4186   */\n          mstore\n            /* \"#utility.yul\":4023:4193   */\n          pop\n          jump\t// out\n            /* \"#utility.yul\":4199:4321   */\n        tag_42:\n            /* \"#utility.yul\":4272:4296   */\n          tag_93\n            /* \"#utility.yul\":4290:4295   */\n          dup2\n            /* \"#utility.yul\":4272:4296   */\n          tag_71\n          jump\t// in\n        tag_93:\n            /* \"#utility.yul\":4265:4270   */\n          dup2\n            /* \"#utility.yul\":4262:4297   */\n          eq\n            /* \"#utility.yul\":4252:4315   */\n          tag_94\n          jumpi\n            /* \"#utility.yul\":4311:4312   */\n          0x00\n            /* \"#utility.yul\":4308:4309   */\n          dup1\n            /* \"#utility.yul\":4301:4313   */\n          revert\n            /* \"#utility.yul\":4252:4315   */\n        tag_94:\n            /* \"#utility.yul\":4199:4321   */\n          pop\n          jump\t// out\n            /* \"#utility.yul\":4327:4447   */\n        tag_46:\n            /* \"#utility.yul\":4399:4422   */\n          tag_96\n            /* \"#utility.yul\":4416:4421   */\n          dup2\n            /* \"#utility.yul\":4399:4422   */\n          tag_83\n          jump\t// in\n        tag_96:\n            /* \"#utility.yul\":4392:4397   */\n          dup2\n            /* \"#utility.yul\":4389:4423   */\n          eq\n            /* \"#utility.yul\":4379:4441   */\n          tag_97\n          jumpi\n            /* \"#utility.yul\":4437:4438   */\n          0x00\n            /* \"#utility.yul\":4434:4435   */\n          dup1\n            /* \"#utility.yul\":4427:4439   */\n          revert\n            /* \"#utility.yul\":4379:4441   */\n        tag_97:\n            /* \"#utility.yul\":4327:4447   */\n          pop\n          jump\t// out\n            /* \"contracts/Swap/Swap.sol\":229:3115  contract Swap is Ownable, PriceConsumer {... */\n        tag_24:\n          dataSize(sub_0)\n          dup1\n          dataOffset(sub_0)\n          0x00\n          codecopy\n          0x00\n          return\n        stop\n\n        sub_0: assembly {\n                /* \"contracts/Swap/Swap.sol\":229:3115  contract Swap is Ownable, PriceConsumer {... */\n              mstore(0x40, 0x80)\n              callvalue\n              dup1\n              iszero\n              tag_1\n              jumpi\n              0x00\n              dup1\n              revert\n            tag_1:\n              pop\n              jumpi(tag_2, lt(calldatasize, 0x04))\n              shr(0xe0, calldataload(0x00))\n              dup1\n              0xa2e800ad\n              gt\n              tag_28\n              jumpi\n              dup1\n              0xd2895e93\n              gt\n              tag_29\n              jumpi\n              dup1\n              0xe0a73a93\n              gt\n              tag_30\n              jumpi\n              dup1\n              0xe0a73a93\n              eq\n              tag_24\n              jumpi\n              dup1\n              0xe99d2866\n              eq\n              tag_25\n              jumpi\n              dup1\n              0xf26cc58e\n              eq\n              tag_26\n              jumpi\n              dup1\n              0xf2fde38b\n              eq\n              tag_27\n              jumpi\n              jump(tag_2)\n            tag_30:\n              dup1\n              0xd2895e93\n              eq\n              tag_21\n              jumpi\n              dup1\n              0xdbd0e1b6\n              eq\n              tag_22\n              jumpi\n              dup1\n              0xdd22db80\n              eq\n              tag_23\n              jumpi\n              jump(tag_2)\n            tag_29:\n              dup1\n              0xa2e800ad\n              eq\n              tag_15\n              jumpi\n              dup1\n              0xa3f09ad6\n              eq\n              tag_16\n              jumpi\n              dup1\n              0xa607a8d9\n              eq\n              tag_17\n              jumpi\n              dup1\n              0xb6fc2d5f\n              eq\n              tag_18\n              jumpi\n              dup1\n              0xbd9a548b\n              eq\n              tag_19\n              jumpi\n              dup1\n              0xbef904e3\n              eq\n              tag_20\n              jumpi\n              jump(tag_2)\n            tag_28:\n              dup1\n              0x603daf9a\n              gt\n              tag_31\n              jumpi\n              dup1\n              0x603daf9a\n              eq\n              tag_9\n              jumpi\n              dup1\n              0x715018a6\n              eq\n              tag_10\n              jumpi\n              dup1\n              0x762db7ee\n              eq\n              tag_11\n              jumpi\n              dup1\n              0x86be75b7\n              eq\n              tag_12\n              jumpi\n              dup1\n              0x8a568299\n              eq\n              tag_13\n              jumpi\n              dup1\n              0x8da5cb5b\n              eq\n              tag_14\n              jumpi\n              jump(tag_2)\n            tag_31:\n              dup1\n              0x15d655c9\n              eq\n              tag_3\n              jumpi\n              dup1\n              0x200d2ed2\n              eq\n              tag_4\n              jumpi\n              dup1\n              0x2dddd49c\n              eq\n              tag_5\n              jumpi\n              dup1\n              0x2e49d78b\n              eq\n              tag_6\n              jumpi\n              dup1\n              0x3fe3347a\n              eq\n              tag_7\n              jumpi\n              dup1\n              0x4c1786ea\n              eq\n              tag_8\n              jumpi\n            tag_2:\n              0x00\n              dup1\n              revert\n                /* \"contracts/Swap/Swap.sol\":515:540  uint256 public claimPrice */\n            tag_3:\n              tag_32\n              tag_33\n              jump\t// in\n            tag_32:\n              mload(0x40)\n              tag_34\n              swap2\n              swap1\n              tag_35\n              jump\t// in\n            tag_34:\n              mload(0x40)\n              dup1\n              swap2\n              sub\n              swap1\n              return\n                /* \"contracts/Swap/Swap.sol\":457:477  Status public status */\n            tag_4:\n              tag_36\n              tag_37\n              jump\t// in\n            tag_36:\n              mload(0x40)\n              tag_38\n              swap2\n              swap1\n              tag_39\n              jump\t// in\n            tag_38:\n              mload(0x40)\n              dup1\n              swap2\n              sub\n              swap1\n              return\n                /* \"contracts/Swap/PriceConsumer.sol\":536:658  function getLinkPrice() public view returns (uint256) {... */\n            tag_5:\n              tag_40\n              tag_41\n              jump\t// in\n            tag_40:\n              mload(0x40)\n              tag_42\n              swap2\n              swap1\n              tag_35\n              jump\t// in\n            tag_42:\n              mload(0x40)\n              dup1\n              swap2\n              sub\n              swap1\n              return\n                /* \"contracts/Swap/Swap.sol\":2327:2442  function setStatus(Status _status) public onlyOwner returns (Status) {... */\n            tag_6:\n              tag_43\n              0x04\n              dup1\n              calldatasize\n              sub\n              dup2\n              add\n              swap1\n              tag_44\n              swap2\n              swap1\n              tag_45\n              jump\t// in\n            tag_44:\n              tag_46\n              jump\t// in\n            tag_43:\n              mload(0x40)\n              tag_47\n              swap2\n              swap1\n              tag_39\n              jump\t// in\n            tag_47:\n              mload(0x40)\n              dup1\n              swap2\n              sub\n              swap1\n              return\n                /* \"contracts/Swap/Swap.sol\":773:796  uint32 public assetType */\n            tag_7:\n              tag_48\n              tag_49\n              jump\t// in\n            tag_48:\n              mload(0x40)\n              tag_50\n              swap2\n              swap1\n              tag_51\n              jump\t// in\n            tag_50:\n              mload(0x40)\n              dup1\n              swap2\n              sub\n              swap1\n              return\n                /* \"contracts/Swap/Swap.sol\":605:633  uint256 public sellerDeposit */\n            tag_8:\n              tag_52\n              tag_53\n              jump\t// in\n            tag_52:\n              mload(0x40)\n              tag_54\n              swap2\n              swap1\n              tag_35\n              jump\t// in\n            tag_54:\n              mload(0x40)\n              dup1\n              swap2\n              sub\n              swap1\n              return\n                /* \"contracts/Swap/Swap.sol\":1734:1807  function getBuyer() public view returns (address) {... */\n            tag_9:\n              tag_55\n              tag_56\n              jump\t// in\n            tag_55:\n              mload(0x40)\n              tag_57\n              swap2\n              swap1\n              tag_58\n              jump\t// in\n            tag_57:\n              mload(0x40)\n              dup1\n              swap2\n              sub\n              swap1\n              return\n                /* \"@openzeppelin/contracts/access/Ownable.sol\":1831:1932  function renounceOwnership() public virtual onlyOwner {... */\n            tag_10:\n              tag_59\n              tag_60\n              jump\t// in\n            tag_59:\n              stop\n                /* \"contracts/Swap/Swap.sol\":637:665  uint256 public amountOfAsset */\n            tag_11:\n              tag_61\n              tag_62\n              jump\t// in\n            tag_61:\n              mload(0x40)\n              tag_63\n              swap2\n              swap1\n              tag_35\n              jump\t// in\n            tag_63:\n              mload(0x40)\n              dup1\n              swap2\n              sub\n              swap1\n              return\n                /* \"contracts/Swap/Swap.sol\":482:511  uint256 public initAssetPrice */\n            tag_12:\n              tag_64\n              tag_65\n              jump\t// in\n            tag_64:\n              mload(0x40)\n              tag_66\n              swap2\n              swap1\n              tag_35\n              jump\t// in\n            tag_66:\n              mload(0x40)\n              dup1\n              swap2\n              sub\n              swap1\n              return\n                /* \"contracts/Swap/Swap.sol\":744:769  uint32 public totalRounds */\n            tag_13:\n              tag_67\n              tag_68\n              jump\t// in\n            tag_67:\n              mload(0x40)\n              tag_69\n              swap2\n              swap1\n              tag_51\n              jump\t// in\n            tag_69:\n              mload(0x40)\n              dup1\n              swap2\n              sub\n              swap1\n              return\n                /* \"@openzeppelin/contracts/access/Ownable.sol\":1201:1286  function owner() public view virtual returns (address) {... */\n            tag_14:\n              tag_70\n              tag_71\n              jump\t// in\n            tag_70:\n              mload(0x40)\n              tag_72\n              swap2\n              swap1\n              tag_58\n              jump\t// in\n            tag_72:\n              mload(0x40)\n              dup1\n              swap2\n              sub\n              swap1\n              return\n                /* \"contracts/Swap/Swap.sol\":720:740  uint32 public rounds */\n            tag_15:\n              tag_73\n              tag_74\n              jump\t// in\n            tag_73:\n              mload(0x40)\n              tag_75\n              swap2\n              swap1\n              tag_51\n              jump\t// in\n            tag_75:\n              mload(0x40)\n              dup1\n              swap2\n              sub\n              swap1\n              return\n                /* \"contracts/Swap/Swap.sol\":2446:2558  function setBuyer(address _buyer) public onlyOwner returns (address) {... */\n            tag_16:\n              tag_76\n              0x04\n              dup1\n              calldatasize\n              sub\n              dup2\n              add\n              swap1\n              tag_77\n              swap2\n              swap1\n              tag_78\n              jump\t// in\n            tag_77:\n              tag_79\n              jump\t// in\n            tag_76:\n              mload(0x40)\n              tag_80\n              swap2\n              swap1\n              tag_58\n              jump\t// in\n            tag_80:\n              mload(0x40)\n              dup1\n              swap2\n              sub\n              swap1\n              return\n                /* \"contracts/Swap/PriceConsumer.sol\":412:532  function getETHPrice() public view returns (uint256) {... */\n            tag_17:\n              tag_81\n              tag_82\n              jump\t// in\n            tag_81:\n              mload(0x40)\n              tag_83\n              swap2\n              swap1\n              tag_35\n              jump\t// in\n            tag_83:\n              mload(0x40)\n              dup1\n              swap2\n              sub\n              swap1\n              return\n                /* \"contracts/Swap/Swap.sol\":544:575  uint256 public liquidationPrice */\n            tag_18:\n              tag_84\n              tag_85\n              jump\t// in\n            tag_84:\n              mload(0x40)\n              tag_86\n              swap2\n              swap1\n              tag_35\n              jump\t// in\n            tag_86:\n              mload(0x40)\n              dup1\n              swap2\n              sub\n              swap1\n              return\n                /* \"contracts/Swap/Swap.sol\":1545:1730  function getPrices() public view returns (uint256[5] memory) {... */\n            tag_19:\n              tag_87\n              tag_88\n              jump\t// in\n            tag_87:\n              mload(0x40)\n              tag_89\n              swap2\n              swap1\n              tag_90\n              jump\t// in\n            tag_89:\n              mload(0x40)\n              dup1\n              swap2\n              sub\n              swap1\n              return\n                /* \"contracts/Swap/Swap.sol\":2176:2323  function setInitAssetPrice(uint256 _initAssetPrice) public returns (uint256) {... */\n            tag_20:\n              tag_91\n              0x04\n              dup1\n              calldatasize\n              sub\n              dup2\n              add\n              swap1\n              tag_92\n              swap2\n              swap1\n              tag_93\n              jump\t// in\n            tag_92:\n              tag_94\n              jump\t// in\n            tag_91:\n              mload(0x40)\n              tag_95\n              swap2\n              swap1\n              tag_35\n              jump\t// in\n            tag_95:\n              mload(0x40)\n              dup1\n              swap2\n              sub\n              swap1\n              return\n                /* \"contracts/Swap/Swap.sol\":2683:2798  function setRounds(uint32 _rounds) public onlyOwner returns (uint32) {... */\n            tag_21:\n              tag_96\n              0x04\n              dup1\n              calldatasize\n              sub\n              dup2\n              add\n              swap1\n              tag_97\n              swap2\n              swap1\n              tag_98\n              jump\t// in\n            tag_97:\n              tag_99\n              jump\t// in\n            tag_96:\n              mload(0x40)\n              tag_100\n              swap2\n              swap1\n              tag_51\n              jump\t// in\n            tag_100:\n              mload(0x40)\n              dup1\n              swap2\n              sub\n              swap1\n              return\n                /* \"contracts/Swap/Swap.sol\":1811:1886  function getSeller() public view returns (address) {... */\n            tag_22:\n              tag_101\n              tag_102\n              jump\t// in\n            tag_101:\n              mload(0x40)\n              tag_103\n              swap2\n              swap1\n              tag_58\n              jump\t// in\n            tag_103:\n              mload(0x40)\n              dup1\n              swap2\n              sub\n              swap1\n              return\n                /* \"contracts/Swap/PriceConsumer.sol\":288:408  function getBTCPrice() public view returns (uint256) {... */\n            tag_23:\n              tag_104\n              tag_105\n              jump\t// in\n            tag_104:\n              mload(0x40)\n              tag_106\n              swap2\n              swap1\n              tag_35\n              jump\t// in\n            tag_106:\n              mload(0x40)\n              dup1\n              swap2\n              sub\n              swap1\n              return\n                /* \"contracts/Swap/Swap.sol\":579:601  uint256 public premium */\n            tag_24:\n              tag_107\n              tag_108\n              jump\t// in\n            tag_107:\n              mload(0x40)\n              tag_109\n              swap2\n              swap1\n              tag_35\n              jump\t// in\n            tag_109:\n              mload(0x40)\n              dup1\n              swap2\n              sub\n              swap1\n              return\n                /* \"contracts/Swap/Swap.sol\":2562:2679  function setSeller(address _seller) public onlyOwner returns (address) {... */\n            tag_25:\n              tag_110\n              0x04\n              dup1\n              calldatasize\n              sub\n              dup2\n              add\n              swap1\n              tag_111\n              swap2\n              swap1\n              tag_78\n              jump\t// in\n            tag_111:\n              tag_112\n              jump\t// in\n            tag_110:\n              mload(0x40)\n              tag_113\n              swap2\n              swap1\n              tag_58\n              jump\t// in\n            tag_113:\n              mload(0x40)\n              dup1\n              swap2\n              sub\n              swap1\n              return\n                /* \"contracts/Swap/Swap.sol\":1890:2172  function getClaimReward() public view returns (uint256) {... */\n            tag_26:\n              tag_114\n              tag_115\n              jump\t// in\n            tag_114:\n              mload(0x40)\n              tag_116\n              swap2\n              swap1\n              tag_35\n              jump\t// in\n            tag_116:\n              mload(0x40)\n              dup1\n              swap2\n              sub\n              swap1\n              return\n                /* \"@openzeppelin/contracts/access/Ownable.sol\":2081:2279  function transferOwnership(address newOwner) public virtual onlyOwner {... */\n            tag_27:\n              tag_117\n              0x04\n              dup1\n              calldatasize\n              sub\n              dup2\n              add\n              swap1\n              tag_118\n              swap2\n              swap1\n              tag_78\n              jump\t// in\n            tag_118:\n              tag_119\n              jump\t// in\n            tag_117:\n              stop\n                /* \"contracts/Swap/Swap.sol\":515:540  uint256 public claimPrice */\n            tag_33:\n              sload(0x04)\n              dup2\n              jump\t// out\n                /* \"contracts/Swap/Swap.sol\":457:477  Status public status */\n            tag_37:\n              0x02\n              0x14\n              swap1\n              sload\n              swap1\n              0x0100\n              exp\n              swap1\n              div\n              0xff\n              and\n              dup2\n              jump\t// out\n                /* \"contracts/Swap/PriceConsumer.sol\":536:658  function getLinkPrice() public view returns (uint256) {... */\n            tag_41:\n                /* \"contracts/Swap/PriceConsumer.sol\":581:588  uint256 */\n              0x00\n                /* \"contracts/Swap/PriceConsumer.sol\":596:609  uint256 price */\n              dup1\n                /* \"contracts/Swap/PriceConsumer.sol\":612:623  priceOracle */\n              0x01\n              0x00\n              swap1\n              sload\n              swap1\n              0x0100\n              exp\n              swap1\n              div\n              0xffffffffffffffffffffffffffffffffffffffff\n              and\n                /* \"contracts/Swap/PriceConsumer.sol\":612:633  priceOracle.linkPrice */\n              0xffffffffffffffffffffffffffffffffffffffff\n              and\n              0x0cf78535\n                /* \"contracts/Swap/PriceConsumer.sol\":612:635  priceOracle.linkPrice() */\n              mload(0x40)\n              dup2\n              0xffffffff\n              and\n              0xe0\n              shl\n              dup2\n              mstore\n              0x04\n              add\n              0x20\n              mload(0x40)\n              dup1\n              dup4\n              sub\n              dup2\n              dup7\n              dup1\n              extcodesize\n              iszero\n              dup1\n              iszero\n              tag_124\n              jumpi\n              0x00\n              dup1\n              revert\n            tag_124:\n              pop\n              gas\n              staticcall\n              iszero\n              dup1\n              iszero\n              tag_126\n              jumpi\n              returndatasize\n              0x00\n              dup1\n              returndatacopy\n              revert(0x00, returndatasize)\n            tag_126:\n              pop\n              pop\n              pop\n              pop\n              mload(0x40)\n              returndatasize\n              not(0x1f)\n              0x1f\n              dup3\n              add\n              and\n              dup3\n              add\n              dup1\n              0x40\n              mstore\n              pop\n              dup2\n              add\n              swap1\n              tag_127\n              swap2\n              swap1\n              tag_128\n              jump\t// in\n            tag_127:\n                /* \"contracts/Swap/PriceConsumer.sol\":596:635  uint256 price = priceOracle.linkPrice() */\n              swap1\n              pop\n                /* \"contracts/Swap/PriceConsumer.sol\":648:653  price */\n              dup1\n                /* \"contracts/Swap/PriceConsumer.sol\":641:653  return price */\n              swap2\n              pop\n              pop\n                /* \"contracts/Swap/PriceConsumer.sol\":536:658  function getLinkPrice() public view returns (uint256) {... */\n              swap1\n              jump\t// out\n                /* \"contracts/Swap/Swap.sol\":2327:2442  function setStatus(Status _status) public onlyOwner returns (Status) {... */\n            tag_46:\n                /* \"contracts/Swap/Swap.sol\":2388:2394  Status */\n              0x00\n                /* \"@openzeppelin/contracts/access/Ownable.sol\":1094:1107  _checkOwner() */\n              tag_130\n                /* \"@openzeppelin/contracts/access/Ownable.sol\":1094:1105  _checkOwner */\n              tag_131\n                /* \"@openzeppelin/contracts/access/Ownable.sol\":1094:1107  _checkOwner() */\n              jump\t// in\n            tag_130:\n                /* \"contracts/Swap/Swap.sol\":2411:2418  _status */\n              dup2\n                /* \"contracts/Swap/Swap.sol\":2402:2408  status */\n              0x02\n              0x14\n                /* \"contracts/Swap/Swap.sol\":2402:2418  status = _status */\n              0x0100\n              exp\n              dup2\n              sload\n              dup2\n              0xff\n              mul\n              not\n              and\n              swap1\n              dup4\n              0x04\n              dup2\n              gt\n              iszero\n              tag_133\n              jumpi\n              tag_134\n              tag_135\n              jump\t// in\n            tag_134:\n            tag_133:\n              mul\n              or\n              swap1\n              sstore\n              pop\n                /* \"contracts/Swap/Swap.sol\":2431:2437  status */\n              0x02\n              0x14\n              swap1\n              sload\n              swap1\n              0x0100\n              exp\n              swap1\n              div\n              0xff\n              and\n                /* \"contracts/Swap/Swap.sol\":2424:2437  return status */\n              swap1\n              pop\n                /* \"contracts/Swap/Swap.sol\":2327:2442  function setStatus(Status _status) public onlyOwner returns (Status) {... */\n              swap2\n              swap1\n              pop\n              jump\t// out\n                /* \"contracts/Swap/Swap.sol\":773:796  uint32 public assetType */\n            tag_49:\n              0x0a\n              0x1c\n              swap1\n              sload\n              swap1\n              0x0100\n              exp\n              swap1\n              div\n              0xffffffff\n              and\n              dup2\n              jump\t// out\n                /* \"contracts/Swap/Swap.sol\":605:633  uint256 public sellerDeposit */\n            tag_53:\n              sload(0x07)\n              dup2\n              jump\t// out\n                /* \"contracts/Swap/Swap.sol\":1734:1807  function getBuyer() public view returns (address) {... */\n            tag_56:\n                /* \"contracts/Swap/Swap.sol\":1775:1782  address */\n              0x00\n                /* \"contracts/Swap/Swap.sol\":1797:1802  buyer */\n              0x09\n              0x00\n              swap1\n              sload\n              swap1\n              0x0100\n              exp\n              swap1\n              div\n              0xffffffffffffffffffffffffffffffffffffffff\n              and\n                /* \"contracts/Swap/Swap.sol\":1790:1802  return buyer */\n              swap1\n              pop\n                /* \"contracts/Swap/Swap.sol\":1734:1807  function getBuyer() public view returns (address) {... */\n              swap1\n              jump\t// out\n                /* \"@openzeppelin/contracts/access/Ownable.sol\":1831:1932  function renounceOwnership() public virtual onlyOwner {... */\n            tag_60:\n                /* \"@openzeppelin/contracts/access/Ownable.sol\":1094:1107  _checkOwner() */\n              tag_138\n                /* \"@openzeppelin/contracts/access/Ownable.sol\":1094:1105  _checkOwner */\n              tag_131\n                /* \"@openzeppelin/contracts/access/Ownable.sol\":1094:1107  _checkOwner() */\n              jump\t// in\n            tag_138:\n                /* \"@openzeppelin/contracts/access/Ownable.sol\":1895:1925  _transferOwnership(address(0)) */\n              tag_140\n                /* \"@openzeppelin/contracts/access/Ownable.sol\":1922:1923  0 */\n              0x00\n                /* \"@openzeppelin/contracts/access/Ownable.sol\":1895:1913  _transferOwnership */\n              tag_141\n                /* \"@openzeppelin/contracts/access/Ownable.sol\":1895:1925  _transferOwnership(address(0)) */\n              jump\t// in\n            tag_140:\n                /* \"@openzeppelin/contracts/access/Ownable.sol\":1831:1932  function renounceOwnership() public virtual onlyOwner {... */\n              jump\t// out\n                /* \"contracts/Swap/Swap.sol\":637:665  uint256 public amountOfAsset */\n            tag_62:\n              sload(0x08)\n              dup2\n              jump\t// out\n                /* \"contracts/Swap/Swap.sol\":482:511  uint256 public initAssetPrice */\n            tag_65:\n              sload(0x03)\n              dup2\n              jump\t// out\n                /* \"contracts/Swap/Swap.sol\":744:769  uint32 public totalRounds */\n            tag_68:\n              0x0a\n              0x18\n              swap1\n              sload\n              swap1\n              0x0100\n              exp\n              swap1\n              div\n              0xffffffff\n              and\n              dup2\n              jump\t// out\n                /* \"@openzeppelin/contracts/access/Ownable.sol\":1201:1286  function owner() public view virtual returns (address) {... */\n            tag_71:\n                /* \"@openzeppelin/contracts/access/Ownable.sol\":1247:1254  address */\n              0x00\n                /* \"@openzeppelin/contracts/access/Ownable.sol\":1273:1279  _owner */\n              dup1\n              0x00\n              swap1\n              sload\n              swap1\n              0x0100\n              exp\n              swap1\n              div\n              0xffffffffffffffffffffffffffffffffffffffff\n              and\n                /* \"@openzeppelin/contracts/access/Ownable.sol\":1266:1279  return _owner */\n              swap1\n              pop\n                /* \"@openzeppelin/contracts/access/Ownable.sol\":1201:1286  function owner() public view virtual returns (address) {... */\n              swap1\n              jump\t// out\n                /* \"contracts/Swap/Swap.sol\":720:740  uint32 public rounds */\n            tag_74:\n              0x0a\n              0x14\n              swap1\n              sload\n              swap1\n              0x0100\n              exp\n              swap1\n              div\n              0xffffffff\n              and\n              dup2\n              jump\t// out\n                /* \"contracts/Swap/Swap.sol\":2446:2558  function setBuyer(address _buyer) public onlyOwner returns (address) {... */\n            tag_79:\n                /* \"contracts/Swap/Swap.sol\":2506:2513  address */\n              0x00\n                /* \"@openzeppelin/contracts/access/Ownable.sol\":1094:1107  _checkOwner() */\n              tag_144\n                /* \"@openzeppelin/contracts/access/Ownable.sol\":1094:1105  _checkOwner */\n              tag_131\n                /* \"@openzeppelin/contracts/access/Ownable.sol\":1094:1107  _checkOwner() */\n              jump\t// in\n            tag_144:\n                /* \"contracts/Swap/Swap.sol\":2529:2535  _buyer */\n              dup2\n                /* \"contracts/Swap/Swap.sol\":2521:2526  buyer */\n              0x09\n              0x00\n                /* \"contracts/Swap/Swap.sol\":2521:2535  buyer = _buyer */\n              0x0100\n              exp\n              dup2\n              sload\n              dup2\n              0xffffffffffffffffffffffffffffffffffffffff\n              mul\n              not\n              and\n              swap1\n              dup4\n              0xffffffffffffffffffffffffffffffffffffffff\n              and\n              mul\n              or\n              swap1\n              sstore\n              pop\n                /* \"contracts/Swap/Swap.sol\":2548:2553  buyer */\n              0x09\n              0x00\n              swap1\n              sload\n              swap1\n              0x0100\n              exp\n              swap1\n              div\n              0xffffffffffffffffffffffffffffffffffffffff\n              and\n                /* \"contracts/Swap/Swap.sol\":2541:2553  return buyer */\n              swap1\n              pop\n                /* \"contracts/Swap/Swap.sol\":2446:2558  function setBuyer(address _buyer) public onlyOwner returns (address) {... */\n              swap2\n              swap1\n              pop\n              jump\t// out\n                /* \"contracts/Swap/PriceConsumer.sol\":412:532  function getETHPrice() public view returns (uint256) {... */\n            tag_82:\n                /* \"contracts/Swap/PriceConsumer.sol\":456:463  uint256 */\n              0x00\n                /* \"contracts/Swap/PriceConsumer.sol\":471:484  uint256 price */\n              dup1\n                /* \"contracts/Swap/PriceConsumer.sol\":487:498  priceOracle */\n              0x01\n              0x00\n              swap1\n              sload\n              swap1\n              0x0100\n              exp\n              swap1\n              div\n              0xffffffffffffffffffffffffffffffffffffffff\n              and\n                /* \"contracts/Swap/PriceConsumer.sol\":487:507  priceOracle.ethPrice */\n              0xffffffffffffffffffffffffffffffffffffffff\n              and\n              0xff186b2e\n                /* \"contracts/Swap/PriceConsumer.sol\":487:509  priceOracle.ethPrice() */\n              mload(0x40)\n              dup2\n              0xffffffff\n              and\n              0xe0\n              shl\n              dup2\n              mstore\n              0x04\n              add\n              0x20\n              mload(0x40)\n              dup1\n              dup4\n              sub\n              dup2\n              dup7\n              dup1\n              extcodesize\n              iszero\n              dup1\n              iszero\n              tag_147\n              jumpi\n              0x00\n              dup1\n              revert\n            tag_147:\n              pop\n              gas\n              staticcall\n              iszero\n              dup1\n              iszero\n              tag_149\n              jumpi\n              returndatasize\n              0x00\n              dup1\n              returndatacopy\n              revert(0x00, returndatasize)\n            tag_149:\n              pop\n              pop\n              pop\n              pop\n              mload(0x40)\n              returndatasize\n              not(0x1f)\n              0x1f\n              dup3\n              add\n              and\n              dup3\n              add\n              dup1\n              0x40\n              mstore\n              pop\n              dup2\n              add\n              swap1\n              tag_150\n              swap2\n              swap1\n              tag_128\n              jump\t// in\n            tag_150:\n                /* \"contracts/Swap/PriceConsumer.sol\":471:509  uint256 price = priceOracle.ethPrice() */\n              swap1\n              pop\n                /* \"contracts/Swap/PriceConsumer.sol\":522:527  price */\n              dup1\n                /* \"contracts/Swap/PriceConsumer.sol\":515:527  return price */\n              swap2\n              pop\n              pop\n                /* \"contracts/Swap/PriceConsumer.sol\":412:532  function getETHPrice() public view returns (uint256) {... */\n              swap1\n              jump\t// out\n                /* \"contracts/Swap/Swap.sol\":544:575  uint256 public liquidationPrice */\n            tag_85:\n              sload(0x05)\n              dup2\n              jump\t// out\n                /* \"contracts/Swap/Swap.sol\":1545:1730  function getPrices() public view returns (uint256[5] memory) {... */\n            tag_88:\n                /* \"contracts/Swap/Swap.sol\":1587:1604  uint256[5] memory */\n              tag_151\n              tag_152\n              jump\t// in\n            tag_151:\n                /* \"contracts/Swap/Swap.sol\":1612:1725  return [... */\n              mload(0x40)\n              dup1\n              0xa0\n              add\n              0x40\n              mstore\n              dup1\n                /* \"contracts/Swap/Swap.sol\":1627:1641  initAssetPrice */\n              sload(0x03)\n                /* \"contracts/Swap/Swap.sol\":1612:1725  return [... */\n              dup2\n              mstore\n              0x20\n              add\n                /* \"contracts/Swap/Swap.sol\":1649:1659  claimPrice */\n              sload(0x04)\n                /* \"contracts/Swap/Swap.sol\":1612:1725  return [... */\n              dup2\n              mstore\n              0x20\n              add\n                /* \"contracts/Swap/Swap.sol\":1667:1683  liquidationPrice */\n              sload(0x05)\n                /* \"contracts/Swap/Swap.sol\":1612:1725  return [... */\n              dup2\n              mstore\n              0x20\n              add\n                /* \"contracts/Swap/Swap.sol\":1691:1698  premium */\n              sload(0x06)\n                /* \"contracts/Swap/Swap.sol\":1612:1725  return [... */\n              dup2\n              mstore\n              0x20\n              add\n                /* \"contracts/Swap/Swap.sol\":1706:1719  sellerDeposit */\n              sload(0x07)\n                /* \"contracts/Swap/Swap.sol\":1612:1725  return [... */\n              dup2\n              mstore\n              pop\n              swap1\n              pop\n                /* \"contracts/Swap/Swap.sol\":1545:1730  function getPrices() public view returns (uint256[5] memory) {... */\n              swap1\n              jump\t// out\n                /* \"contracts/Swap/Swap.sol\":2176:2323  function setInitAssetPrice(uint256 _initAssetPrice) public returns (uint256) {... */\n            tag_94:\n                /* \"contracts/Swap/Swap.sol\":2244:2251  uint256 */\n              0x00\n                /* \"contracts/Swap/Swap.sol\":2276:2291  _initAssetPrice */\n              dup2\n                /* \"contracts/Swap/Swap.sol\":2259:2273  initAssetPrice */\n              0x03\n                /* \"contracts/Swap/Swap.sol\":2259:2291  initAssetPrice = _initAssetPrice */\n              dup2\n              swap1\n              sstore\n              pop\n                /* \"contracts/Swap/Swap.sol\":2304:2318  initAssetPrice */\n              sload(0x03)\n                /* \"contracts/Swap/Swap.sol\":2297:2318  return initAssetPrice */\n              swap1\n              pop\n                /* \"contracts/Swap/Swap.sol\":2176:2323  function setInitAssetPrice(uint256 _initAssetPrice) public returns (uint256) {... */\n              swap2\n              swap1\n              pop\n              jump\t// out\n                /* \"contracts/Swap/Swap.sol\":2683:2798  function setRounds(uint32 _rounds) public onlyOwner returns (uint32) {... */\n            tag_99:\n                /* \"contracts/Swap/Swap.sol\":2744:2750  uint32 */\n              0x00\n                /* \"@openzeppelin/contracts/access/Ownable.sol\":1094:1107  _checkOwner() */\n              tag_156\n                /* \"@openzeppelin/contracts/access/Ownable.sol\":1094:1105  _checkOwner */\n              tag_131\n                /* \"@openzeppelin/contracts/access/Ownable.sol\":1094:1107  _checkOwner() */\n              jump\t// in\n            tag_156:\n                /* \"contracts/Swap/Swap.sol\":2767:2774  _rounds */\n              dup2\n                /* \"contracts/Swap/Swap.sol\":2758:2764  rounds */\n              0x0a\n              0x14\n                /* \"contracts/Swap/Swap.sol\":2758:2774  rounds = _rounds */\n              0x0100\n              exp\n              dup2\n              sload\n              dup2\n              0xffffffff\n              mul\n              not\n              and\n              swap1\n              dup4\n              0xffffffff\n              and\n              mul\n              or\n              swap1\n              sstore\n              pop\n                /* \"contracts/Swap/Swap.sol\":2787:2793  rounds */\n              0x0a\n              0x14\n              swap1\n              sload\n              swap1\n              0x0100\n              exp\n              swap1\n              div\n              0xffffffff\n              and\n                /* \"contracts/Swap/Swap.sol\":2780:2793  return rounds */\n              swap1\n              pop\n                /* \"contracts/Swap/Swap.sol\":2683:2798  function setRounds(uint32 _rounds) public onlyOwner returns (uint32) {... */\n              swap2\n              swap1\n              pop\n              jump\t// out\n                /* \"contracts/Swap/Swap.sol\":1811:1886  function getSeller() public view returns (address) {... */\n            tag_102:\n                /* \"contracts/Swap/Swap.sol\":1853:1860  address */\n              0x00\n                /* \"contracts/Swap/Swap.sol\":1875:1881  seller */\n              0x0a\n              0x00\n              swap1\n              sload\n              swap1\n              0x0100\n              exp\n              swap1\n              div\n              0xffffffffffffffffffffffffffffffffffffffff\n              and\n                /* \"contracts/Swap/Swap.sol\":1868:1881  return seller */\n              swap1\n              pop\n                /* \"contracts/Swap/Swap.sol\":1811:1886  function getSeller() public view returns (address) {... */\n              swap1\n              jump\t// out\n                /* \"contracts/Swap/PriceConsumer.sol\":288:408  function getBTCPrice() public view returns (uint256) {... */\n            tag_105:\n                /* \"contracts/Swap/PriceConsumer.sol\":332:339  uint256 */\n              0x00\n                /* \"contracts/Swap/PriceConsumer.sol\":347:360  uint256 price */\n              dup1\n                /* \"contracts/Swap/PriceConsumer.sol\":363:374  priceOracle */\n              0x01\n              0x00\n              swap1\n              sload\n              swap1\n              0x0100\n              exp\n              swap1\n              div\n              0xffffffffffffffffffffffffffffffffffffffff\n              and\n                /* \"contracts/Swap/PriceConsumer.sol\":363:383  priceOracle.btcPrice */\n              0xffffffffffffffffffffffffffffffffffffffff\n              and\n              0xa8ad52d1\n                /* \"contracts/Swap/PriceConsumer.sol\":363:385  priceOracle.btcPrice() */\n              mload(0x40)\n              dup2\n              0xffffffff\n              and\n              0xe0\n              shl\n              dup2\n              mstore\n              0x04\n              add\n              0x20\n              mload(0x40)\n              dup1\n              dup4\n              sub\n              dup2\n              dup7\n              dup1\n              extcodesize\n              iszero\n              dup1\n              iszero\n              tag_160\n              jumpi\n              0x00\n              dup1\n              revert\n            tag_160:\n              pop\n              gas\n              staticcall\n              iszero\n              dup1\n              iszero\n              tag_162\n              jumpi\n              returndatasize\n              0x00\n              dup1\n              returndatacopy\n              revert(0x00, returndatasize)\n            tag_162:\n              pop\n              pop\n              pop\n              pop\n              mload(0x40)\n              returndatasize\n              not(0x1f)\n              0x1f\n              dup3\n              add\n              and\n              dup3\n              add\n              dup1\n              0x40\n              mstore\n              pop\n              dup2\n              add\n              swap1\n              tag_163\n              swap2\n              swap1\n              tag_128\n              jump\t// in\n            tag_163:\n                /* \"contracts/Swap/PriceConsumer.sol\":347:385  uint256 price = priceOracle.btcPrice() */\n              swap1\n              pop\n                /* \"contracts/Swap/PriceConsumer.sol\":398:403  price */\n              dup1\n                /* \"contracts/Swap/PriceConsumer.sol\":391:403  return price */\n              swap2\n              pop\n              pop\n                /* \"contracts/Swap/PriceConsumer.sol\":288:408  function getBTCPrice() public view returns (uint256) {... */\n              swap1\n              jump\t// out\n                /* \"contracts/Swap/Swap.sol\":579:601  uint256 public premium */\n            tag_108:\n              sload(0x06)\n              dup2\n              jump\t// out\n                /* \"contracts/Swap/Swap.sol\":2562:2679  function setSeller(address _seller) public onlyOwner returns (address) {... */\n            tag_112:\n                /* \"contracts/Swap/Swap.sol\":2624:2631  address */\n              0x00\n                /* \"@openzeppelin/contracts/access/Ownable.sol\":1094:1107  _checkOwner() */\n              tag_165\n                /* \"@openzeppelin/contracts/access/Ownable.sol\":1094:1105  _checkOwner */\n              tag_131\n                /* \"@openzeppelin/contracts/access/Ownable.sol\":1094:1107  _checkOwner() */\n              jump\t// in\n            tag_165:\n                /* \"contracts/Swap/Swap.sol\":2648:2655  _seller */\n              dup2\n                /* \"contracts/Swap/Swap.sol\":2639:2645  seller */\n              0x0a\n              0x00\n                /* \"contracts/Swap/Swap.sol\":2639:2655  seller = _seller */\n              0x0100\n              exp\n              dup2\n              sload\n              dup2\n              0xffffffffffffffffffffffffffffffffffffffff\n              mul\n              not\n              and\n              swap1\n              dup4\n              0xffffffffffffffffffffffffffffffffffffffff\n              and\n              mul\n              or\n              swap1\n              sstore\n              pop\n                /* \"contracts/Swap/Swap.sol\":2668:2674  seller */\n              0x0a\n              0x00\n              swap1\n              sload\n              swap1\n              0x0100\n              exp\n              swap1\n              div\n              0xffffffffffffffffffffffffffffffffffffffff\n              and\n                /* \"contracts/Swap/Swap.sol\":2661:2674  return seller */\n              swap1\n              pop\n                /* \"contracts/Swap/Swap.sol\":2562:2679  function setSeller(address _seller) public onlyOwner returns (address) {... */\n              swap2\n              swap1\n              pop\n              jump\t// out\n                /* \"contracts/Swap/Swap.sol\":1890:2172  function getClaimReward() public view returns (uint256) {... */\n            tag_115:\n                /* \"contracts/Swap/Swap.sol\":1937:1944  uint256 */\n              0x00\n                /* \"contracts/Swap/Swap.sol\":1952:1969  uint256 currPrice */\n              dup1\n                /* \"contracts/Swap/Swap.sol\":1972:1986  getCurrPrice() */\n              tag_168\n                /* \"contracts/Swap/Swap.sol\":1972:1984  getCurrPrice */\n              tag_169\n                /* \"contracts/Swap/Swap.sol\":1972:1986  getCurrPrice() */\n              jump\t// in\n            tag_168:\n                /* \"contracts/Swap/Swap.sol\":1952:1986  uint256 currPrice = getCurrPrice() */\n              swap1\n              pop\n                /* \"contracts/Swap/Swap.sol\":2009:2018  currPrice */\n              dup1\n                /* \"contracts/Swap/Swap.sol\":1996:2006  claimPrice */\n              sload(0x04)\n                /* \"contracts/Swap/Swap.sol\":1996:2018  claimPrice < currPrice */\n              lt\n                /* \"contracts/Swap/Swap.sol\":1992:2043  if (claimPrice < currPrice) {... */\n              iszero\n              tag_170\n              jumpi\n                /* \"contracts/Swap/Swap.sol\":2035:2036  0 */\n              0x00\n                /* \"contracts/Swap/Swap.sol\":2028:2036  return 0 */\n              swap2\n              pop\n              pop\n              jump(tag_167)\n                /* \"contracts/Swap/Swap.sol\":1992:2043  if (claimPrice < currPrice) {... */\n            tag_170:\n                /* \"contracts/Swap/Swap.sol\":2061:2167  sellerDeposit.calcClaimReward(... */\n              tag_171\n                /* \"contracts/Swap/Swap.sol\":2100:2116  liquidationPrice */\n              sload(0x05)\n                /* \"contracts/Swap/Swap.sol\":2126:2140  initAssetPrice */\n              sload(0x03)\n                /* \"contracts/Swap/Swap.sol\":2150:2159  currPrice */\n              dup4\n                /* \"contracts/Swap/Swap.sol\":2061:2074  sellerDeposit */\n              sload(0x07)\n                /* \"contracts/Swap/Swap.sol\":2061:2090  sellerDeposit.calcClaimReward */\n              tag_172\n              swap1\n                /* \"contracts/Swap/Swap.sol\":2061:2167  sellerDeposit.calcClaimReward(... */\n              swap4\n              swap3\n              swap2\n              swap1\n              0xffffffff\n              and\n              jump\t// in\n            tag_171:\n                /* \"contracts/Swap/Swap.sol\":2048:2167  return... */\n              swap2\n              pop\n              pop\n                /* \"contracts/Swap/Swap.sol\":1890:2172  function getClaimReward() public view returns (uint256) {... */\n            tag_167:\n              swap1\n              jump\t// out\n                /* \"@openzeppelin/contracts/access/Ownable.sol\":2081:2279  function transferOwnership(address newOwner) public virtual onlyOwner {... */\n            tag_119:\n                /* \"@openzeppelin/contracts/access/Ownable.sol\":1094:1107  _checkOwner() */\n              tag_174\n                /* \"@openzeppelin/contracts/access/Ownable.sol\":1094:1105  _checkOwner */\n              tag_131\n                /* \"@openzeppelin/contracts/access/Ownable.sol\":1094:1107  _checkOwner() */\n              jump\t// in\n            tag_174:\n                /* \"@openzeppelin/contracts/access/Ownable.sol\":2189:2190  0 */\n              0x00\n                /* \"@openzeppelin/contracts/access/Ownable.sol\":2169:2191  newOwner != address(0) */\n              0xffffffffffffffffffffffffffffffffffffffff\n              and\n                /* \"@openzeppelin/contracts/access/Ownable.sol\":2169:2177  newOwner */\n              dup2\n                /* \"@openzeppelin/contracts/access/Ownable.sol\":2169:2191  newOwner != address(0) */\n              0xffffffffffffffffffffffffffffffffffffffff\n              and\n              eq\n              iszero\n                /* \"@openzeppelin/contracts/access/Ownable.sol\":2161:2234  require(newOwner != address(0), \"Ownable: new owner is the zero address\") */\n              tag_176\n              jumpi\n              mload(0x40)\n              0x08c379a000000000000000000000000000000000000000000000000000000000\n              dup2\n              mstore\n              0x04\n              add\n              tag_177\n              swap1\n              tag_178\n              jump\t// in\n            tag_177:\n              mload(0x40)\n              dup1\n              swap2\n              sub\n              swap1\n              revert\n            tag_176:\n                /* \"@openzeppelin/contracts/access/Ownable.sol\":2244:2272  _transferOwnership(newOwner) */\n              tag_179\n                /* \"@openzeppelin/contracts/access/Ownable.sol\":2263:2271  newOwner */\n              dup2\n                /* \"@openzeppelin/contracts/access/Ownable.sol\":2244:2262  _transferOwnership */\n              tag_141\n                /* \"@openzeppelin/contracts/access/Ownable.sol\":2244:2272  _transferOwnership(newOwner) */\n              jump\t// in\n            tag_179:\n                /* \"@openzeppelin/contracts/access/Ownable.sol\":2081:2279  function transferOwnership(address newOwner) public virtual onlyOwner {... */\n              pop\n              jump\t// out\n                /* \"contracts/libs/LibSwap.sol\":592:795  function calcAmountOfAsset(... */\n            tag_120:\n                /* \"contracts/libs/LibSwap.sol\":722:729  uint256 */\n              0x00\n                /* \"contracts/libs/LibSwap.sol\":744:790  _sellerDeposit.div(_initial.sub(_liquidation)) */\n              tag_181\n                /* \"contracts/libs/LibSwap.sol\":763:789  _initial.sub(_liquidation) */\n              tag_182\n                /* \"contracts/libs/LibSwap.sol\":776:788  _liquidation */\n              dup5\n                /* \"contracts/libs/LibSwap.sol\":763:771  _initial */\n              dup7\n                /* \"contracts/libs/LibSwap.sol\":763:775  _initial.sub */\n              tag_121\n              swap1\n                /* \"contracts/libs/LibSwap.sol\":763:789  _initial.sub(_liquidation) */\n              swap2\n              swap1\n              0xffffffff\n              and\n              jump\t// in\n            tag_182:\n                /* \"contracts/libs/LibSwap.sol\":744:758  _sellerDeposit */\n              dup4\n                /* \"contracts/libs/LibSwap.sol\":744:762  _sellerDeposit.div */\n              tag_122\n              swap1\n                /* \"contracts/libs/LibSwap.sol\":744:790  _sellerDeposit.div(_initial.sub(_liquidation)) */\n              swap2\n              swap1\n              0xffffffff\n              and\n              jump\t// in\n            tag_181:\n                /* \"contracts/libs/LibSwap.sol\":737:790  return _sellerDeposit.div(_initial.sub(_liquidation)) */\n              swap1\n              pop\n                /* \"contracts/libs/LibSwap.sol\":592:795  function calcAmountOfAsset(... */\n              swap4\n              swap3\n              pop\n              pop\n              pop\n              jump\t// out\n                /* \"@openzeppelin/contracts/utils/math/SafeMath.sol\":3122:3218  function sub(uint256 a, uint256 b) internal pure returns (uint256) {... */\n            tag_121:\n                /* \"@openzeppelin/contracts/utils/math/SafeMath.sol\":3180:3187  uint256 */\n              0x00\n                /* \"@openzeppelin/contracts/utils/math/SafeMath.sol\":3210:3211  b */\n              dup2\n                /* \"@openzeppelin/contracts/utils/math/SafeMath.sol\":3206:3207  a */\n              dup4\n                /* \"@openzeppelin/contracts/utils/math/SafeMath.sol\":3206:3211  a - b */\n              tag_184\n              swap2\n              swap1\n              tag_185\n              jump\t// in\n            tag_184:\n                /* \"@openzeppelin/contracts/utils/math/SafeMath.sol\":3199:3211  return a - b */\n              swap1\n              pop\n                /* \"@openzeppelin/contracts/utils/math/SafeMath.sol\":3122:3218  function sub(uint256 a, uint256 b) internal pure returns (uint256) {... */\n              swap3\n              swap2\n              pop\n              pop\n              jump\t// out\n                /* \"@openzeppelin/contracts/utils/math/SafeMath.sol\":3850:3946  function div(uint256 a, uint256 b) internal pure returns (uint256) {... */\n            tag_122:\n                /* \"@openzeppelin/contracts/utils/math/SafeMath.sol\":3908:3915  uint256 */\n              0x00\n                /* \"@openzeppelin/contracts/utils/math/SafeMath.sol\":3938:3939  b */\n              dup2\n                /* \"@openzeppelin/contracts/utils/math/SafeMath.sol\":3934:3935  a */\n              dup4\n                /* \"@openzeppelin/contracts/utils/math/SafeMath.sol\":3934:3939  a / b */\n              tag_187\n              swap2\n              swap1\n              tag_188\n              jump\t// in\n            tag_187:\n                /* \"@openzeppelin/contracts/utils/math/SafeMath.sol\":3927:3939  return a / b */\n              swap1\n              pop\n                /* \"@openzeppelin/contracts/utils/math/SafeMath.sol\":3850:3946  function div(uint256 a, uint256 b) internal pure returns (uint256) {... */\n              swap3\n              swap2\n              pop\n              pop\n              jump\t// out\n                /* \"@openzeppelin/contracts/access/Ownable.sol\":1359:1489  function _checkOwner() internal view virtual {... */\n            tag_131:\n                /* \"@openzeppelin/contracts/access/Ownable.sol\":1433:1445  _msgSender() */\n              tag_190\n                /* \"@openzeppelin/contracts/access/Ownable.sol\":1433:1443  _msgSender */\n              tag_191\n                /* \"@openzeppelin/contracts/access/Ownable.sol\":1433:1445  _msgSender() */\n              jump\t// in\n            tag_190:\n                /* \"@openzeppelin/contracts/access/Ownable.sol\":1422:1445  owner() == _msgSender() */\n              0xffffffffffffffffffffffffffffffffffffffff\n              and\n                /* \"@openzeppelin/contracts/access/Ownable.sol\":1422:1429  owner() */\n              tag_192\n                /* \"@openzeppelin/contracts/access/Ownable.sol\":1422:1427  owner */\n              tag_71\n                /* \"@openzeppelin/contracts/access/Ownable.sol\":1422:1429  owner() */\n              jump\t// in\n            tag_192:\n                /* \"@openzeppelin/contracts/access/Ownable.sol\":1422:1445  owner() == _msgSender() */\n              0xffffffffffffffffffffffffffffffffffffffff\n              and\n              eq\n                /* \"@openzeppelin/contracts/access/Ownable.sol\":1414:1482  require(owner() == _msgSender(), \"Ownable: caller is not the owner\") */\n              tag_193\n              jumpi\n              mload(0x40)\n              0x08c379a000000000000000000000000000000000000000000000000000000000\n              dup2\n              mstore\n              0x04\n              add\n              tag_194\n              swap1\n              tag_195\n              jump\t// in\n            tag_194:\n              mload(0x40)\n              dup1\n              swap2\n              sub\n              swap1\n              revert\n            tag_193:\n                /* \"@openzeppelin/contracts/access/Ownable.sol\":1359:1489  function _checkOwner() internal view virtual {... */\n              jump\t// out\n                /* \"@openzeppelin/contracts/access/Ownable.sol\":2433:2620  function _transferOwnership(address newOwner) internal virtual {... */\n            tag_141:\n                /* \"@openzeppelin/contracts/access/Ownable.sol\":2506:2522  address oldOwner */\n              0x00\n                /* \"@openzeppelin/contracts/access/Ownable.sol\":2525:2531  _owner */\n              dup1\n              0x00\n              swap1\n              sload\n              swap1\n              0x0100\n              exp\n              swap1\n              div\n              0xffffffffffffffffffffffffffffffffffffffff\n              and\n                /* \"@openzeppelin/contracts/access/Ownable.sol\":2506:2531  address oldOwner = _owner */\n              swap1\n              pop\n                /* \"@openzeppelin/contracts/access/Ownable.sol\":2550:2558  newOwner */\n              dup2\n                /* \"@openzeppelin/contracts/access/Ownable.sol\":2541:2547  _owner */\n              0x00\n              dup1\n                /* \"@openzeppelin/contracts/access/Ownable.sol\":2541:2558  _owner = newOwner */\n              0x0100\n              exp\n              dup2\n              sload\n              dup2\n              0xffffffffffffffffffffffffffffffffffffffff\n              mul\n              not\n              and\n              swap1\n              dup4\n              0xffffffffffffffffffffffffffffffffffffffff\n              and\n              mul\n              or\n              swap1\n              sstore\n              pop\n                /* \"@openzeppelin/contracts/access/Ownable.sol\":2604:2612  newOwner */\n              dup2\n                /* \"@openzeppelin/contracts/access/Ownable.sol\":2573:2613  OwnershipTransferred(oldOwner, newOwner) */\n              0xffffffffffffffffffffffffffffffffffffffff\n              and\n                /* \"@openzeppelin/contracts/access/Ownable.sol\":2594:2602  oldOwner */\n              dup2\n                /* \"@openzeppelin/contracts/access/Ownable.sol\":2573:2613  OwnershipTransferred(oldOwner, newOwner) */\n              0xffffffffffffffffffffffffffffffffffffffff\n              and\n              0x8be0079c531659141344cd1fd0a4f28419497f9722a3daafe3b4186f6b6457e0\n              mload(0x40)\n              mload(0x40)\n              dup1\n              swap2\n              sub\n              swap1\n              log3\n                /* \"@openzeppelin/contracts/access/Ownable.sol\":2496:2620  {... */\n              pop\n                /* \"@openzeppelin/contracts/access/Ownable.sol\":2433:2620  function _transferOwnership(address newOwner) internal virtual {... */\n              pop\n              jump\t// out\n                /* \"contracts/Swap/Swap.sol\":2802:3113  function getCurrPrice() private view returns (uint256) {... */\n            tag_169:\n                /* \"contracts/Swap/Swap.sol\":2848:2855  uint256 */\n              0x00\n                /* \"contracts/Swap/Swap.sol\":2880:2881  0 */\n              dup1\n                /* \"contracts/Swap/Swap.sol\":2867:2876  assetType */\n              0x0a\n              0x1c\n              swap1\n              sload\n              swap1\n              0x0100\n              exp\n              swap1\n              div\n              0xffffffff\n              and\n                /* \"contracts/Swap/Swap.sol\":2867:2881  assetType == 0 */\n              0xffffffff\n              and\n              eq\n                /* \"contracts/Swap/Swap.sol\":2863:3109  if (assetType == 0) {... */\n              iszero\n              tag_198\n              jumpi\n                /* \"contracts/Swap/Swap.sol\":2898:2924  getBTCPrice().div(10 ** 8) */\n              tag_199\n                /* \"contracts/Swap/Swap.sol\":2916:2923  10 ** 8 */\n              0x05f5e100\n                /* \"contracts/Swap/Swap.sol\":2898:2911  getBTCPrice() */\n              tag_200\n                /* \"contracts/Swap/Swap.sol\":2898:2909  getBTCPrice */\n              tag_105\n                /* \"contracts/Swap/Swap.sol\":2898:2911  getBTCPrice() */\n              jump\t// in\n            tag_200:\n                /* \"contracts/Swap/Swap.sol\":2898:2915  getBTCPrice().div */\n              tag_122\n              swap1\n                /* \"contracts/Swap/Swap.sol\":2898:2924  getBTCPrice().div(10 ** 8) */\n              swap2\n              swap1\n              0xffffffff\n              and\n              jump\t// in\n            tag_199:\n                /* \"contracts/Swap/Swap.sol\":2891:2924  return getBTCPrice().div(10 ** 8) */\n              swap1\n              pop\n              jump(tag_197)\n                /* \"contracts/Swap/Swap.sol\":2863:3109  if (assetType == 0) {... */\n            tag_198:\n                /* \"contracts/Swap/Swap.sol\":2954:2955  1 */\n              0x01\n                /* \"contracts/Swap/Swap.sol\":2941:2950  assetType */\n              0x0a\n              0x1c\n              swap1\n              sload\n              swap1\n              0x0100\n              exp\n              swap1\n              div\n              0xffffffff\n              and\n                /* \"contracts/Swap/Swap.sol\":2941:2955  assetType == 1 */\n              0xffffffff\n              and\n              eq\n                /* \"contracts/Swap/Swap.sol\":2937:3109  if (assetType == 1) {... */\n              iszero\n              tag_202\n              jumpi\n                /* \"contracts/Swap/Swap.sol\":2972:2998  getETHPrice().div(10 ** 8) */\n              tag_203\n                /* \"contracts/Swap/Swap.sol\":2990:2997  10 ** 8 */\n              0x05f5e100\n                /* \"contracts/Swap/Swap.sol\":2972:2985  getETHPrice() */\n              tag_204\n                /* \"contracts/Swap/Swap.sol\":2972:2983  getETHPrice */\n              tag_82\n                /* \"contracts/Swap/Swap.sol\":2972:2985  getETHPrice() */\n              jump\t// in\n            tag_204:\n                /* \"contracts/Swap/Swap.sol\":2972:2989  getETHPrice().div */\n              tag_122\n              swap1\n                /* \"contracts/Swap/Swap.sol\":2972:2998  getETHPrice().div(10 ** 8) */\n              swap2\n              swap1\n              0xffffffff\n              and\n              jump\t// in\n            tag_203:\n                /* \"contracts/Swap/Swap.sol\":2965:2998  return getETHPrice().div(10 ** 8) */\n              swap1\n              pop\n              jump(tag_197)\n                /* \"contracts/Swap/Swap.sol\":2937:3109  if (assetType == 1) {... */\n            tag_202:\n                /* \"contracts/Swap/Swap.sol\":3028:3029  2 */\n              0x02\n                /* \"contracts/Swap/Swap.sol\":3015:3024  assetType */\n              0x0a\n              0x1c\n              swap1\n              sload\n              swap1\n              0x0100\n              exp\n              swap1\n              div\n              0xffffffff\n              and\n                /* \"contracts/Swap/Swap.sol\":3015:3029  assetType == 2 */\n              0xffffffff\n              and\n              eq\n                /* \"contracts/Swap/Swap.sol\":3011:3109  if (assetType == 2) {... */\n              iszero\n              tag_206\n              jumpi\n                /* \"contracts/Swap/Swap.sol\":3046:3073  getLinkPrice().div(10 ** 8) */\n              tag_207\n                /* \"contracts/Swap/Swap.sol\":3065:3072  10 ** 8 */\n              0x05f5e100\n                /* \"contracts/Swap/Swap.sol\":3046:3060  getLinkPrice() */\n              tag_208\n                /* \"contracts/Swap/Swap.sol\":3046:3058  getLinkPrice */\n              tag_41\n                /* \"contracts/Swap/Swap.sol\":3046:3060  getLinkPrice() */\n              jump\t// in\n            tag_208:\n                /* \"contracts/Swap/Swap.sol\":3046:3064  getLinkPrice().div */\n              tag_122\n              swap1\n                /* \"contracts/Swap/Swap.sol\":3046:3073  getLinkPrice().div(10 ** 8) */\n              swap2\n              swap1\n              0xffffffff\n              and\n              jump\t// in\n            tag_207:\n                /* \"contracts/Swap/Swap.sol\":3039:3073  return getLinkPrice().div(10 ** 8) */\n              swap1\n              pop\n              jump(tag_197)\n                /* \"contracts/Swap/Swap.sol\":3011:3109  if (assetType == 2) {... */\n            tag_206:\n                /* \"contracts/Swap/Swap.sol\":3101:3102  0 */\n              0x00\n                /* \"contracts/Swap/Swap.sol\":3094:3102  return 0 */\n              swap1\n              pop\n                /* \"contracts/Swap/Swap.sol\":2802:3113  function getCurrPrice() private view returns (uint256) {... */\n            tag_197:\n              swap1\n              jump\t// out\n                /* \"contracts/libs/LibSwap.sol\":167:588  function calcClaimReward(... */\n            tag_172:\n                /* \"contracts/libs/LibSwap.sol\":311:318  uint256 */\n              0x00\n                /* \"contracts/libs/LibSwap.sol\":326:345  uint256 claimReward */\n              dup1\n                /* \"contracts/libs/LibSwap.sol\":371:379  _current */\n              dup3\n                /* \"contracts/libs/LibSwap.sol\":355:367  _liquidation */\n              dup6\n                /* \"contracts/libs/LibSwap.sol\":355:379  _liquidation >= _current */\n              lt\n                /* \"contracts/libs/LibSwap.sol\":351:560  if (_liquidation >= _current) {... */\n              tag_211\n              jumpi\n                /* \"contracts/libs/LibSwap.sol\":403:411  _deposit */\n              dup6\n                /* \"contracts/libs/LibSwap.sol\":389:411  claimReward = _deposit */\n              swap1\n              pop\n                /* \"contracts/libs/LibSwap.sol\":351:560  if (_liquidation >= _current) {... */\n              jump(tag_212)\n            tag_211:\n                /* \"contracts/libs/LibSwap.sol\":432:450  uint256 numOfAsset */\n              0x00\n                /* \"contracts/libs/LibSwap.sol\":453:493  _deposit.div(_initial.sub(_liquidation)) */\n              tag_213\n                /* \"contracts/libs/LibSwap.sol\":466:492  _initial.sub(_liquidation) */\n              tag_214\n                /* \"contracts/libs/LibSwap.sol\":479:491  _liquidation */\n              dup8\n                /* \"contracts/libs/LibSwap.sol\":466:474  _initial */\n              dup8\n                /* \"contracts/libs/LibSwap.sol\":466:478  _initial.sub */\n              tag_121\n              swap1\n                /* \"contracts/libs/LibSwap.sol\":466:492  _initial.sub(_liquidation) */\n              swap2\n              swap1\n              0xffffffff\n              and\n              jump\t// in\n            tag_214:\n                /* \"contracts/libs/LibSwap.sol\":453:461  _deposit */\n              dup9\n                /* \"contracts/libs/LibSwap.sol\":453:465  _deposit.div */\n              tag_122\n              swap1\n                /* \"contracts/libs/LibSwap.sol\":453:493  _deposit.div(_initial.sub(_liquidation)) */\n              swap2\n              swap1\n              0xffffffff\n              and\n              jump\t// in\n            tag_213:\n                /* \"contracts/libs/LibSwap.sol\":432:493  uint256 numOfAsset = _deposit.div(_initial.sub(_liquidation)) */\n              swap1\n              pop\n                /* \"contracts/libs/LibSwap.sol\":515:553  numOfAsset.mul(_initial.sub(_current)) */\n              tag_215\n                /* \"contracts/libs/LibSwap.sol\":530:552  _initial.sub(_current) */\n              tag_216\n                /* \"contracts/libs/LibSwap.sol\":543:551  _current */\n              dup6\n                /* \"contracts/libs/LibSwap.sol\":530:538  _initial */\n              dup8\n                /* \"contracts/libs/LibSwap.sol\":530:542  _initial.sub */\n              tag_121\n              swap1\n                /* \"contracts/libs/LibSwap.sol\":530:552  _initial.sub(_current) */\n              swap2\n              swap1\n              0xffffffff\n              and\n              jump\t// in\n            tag_216:\n                /* \"contracts/libs/LibSwap.sol\":515:525  numOfAsset */\n              dup3\n                /* \"contracts/libs/LibSwap.sol\":515:529  numOfAsset.mul */\n              tag_217\n              swap1\n                /* \"contracts/libs/LibSwap.sol\":515:553  numOfAsset.mul(_initial.sub(_current)) */\n              swap2\n              swap1\n              0xffffffff\n              and\n              jump\t// in\n            tag_215:\n                /* \"contracts/libs/LibSwap.sol\":501:553  claimReward = numOfAsset.mul(_initial.sub(_current)) */\n              swap2\n              pop\n                /* \"contracts/libs/LibSwap.sol\":424:560  {... */\n              pop\n                /* \"contracts/libs/LibSwap.sol\":351:560  if (_liquidation >= _current) {... */\n            tag_212:\n                /* \"contracts/libs/LibSwap.sol\":572:583  claimReward */\n              dup1\n                /* \"contracts/libs/LibSwap.sol\":565:583  return claimReward */\n              swap2\n              pop\n              pop\n                /* \"contracts/libs/LibSwap.sol\":167:588  function calcClaimReward(... */\n              swap5\n              swap4\n              pop\n              pop\n              pop\n              pop\n              jump\t// out\n                /* \"@openzeppelin/contracts/utils/Context.sol\":640:736  function _msgSender() internal view virtual returns (address) {... */\n            tag_191:\n                /* \"@openzeppelin/contracts/utils/Context.sol\":693:700  address */\n              0x00\n                /* \"@openzeppelin/contracts/utils/Context.sol\":719:729  msg.sender */\n              caller\n                /* \"@openzeppelin/contracts/utils/Context.sol\":712:729  return msg.sender */\n              swap1\n              pop\n                /* \"@openzeppelin/contracts/utils/Context.sol\":640:736  function _msgSender() internal view virtual returns (address) {... */\n              swap1\n              jump\t// out\n                /* \"@openzeppelin/contracts/utils/math/SafeMath.sol\":3465:3561  function mul(uint256 a, uint256 b) internal pure returns (uint256) {... */\n            tag_217:\n                /* \"@openzeppelin/contracts/utils/math/SafeMath.sol\":3523:3530  uint256 */\n              0x00\n                /* \"@openzeppelin/contracts/utils/math/SafeMath.sol\":3553:3554  b */\n              dup2\n                /* \"@openzeppelin/contracts/utils/math/SafeMath.sol\":3549:3550  a */\n              dup4\n                /* \"@openzeppelin/contracts/utils/math/SafeMath.sol\":3549:3554  a * b */\n              tag_220\n              swap2\n              swap1\n              tag_221\n              jump\t// in\n            tag_220:\n                /* \"@openzeppelin/contracts/utils/math/SafeMath.sol\":3542:3554  return a * b */\n              swap1\n              pop\n                /* \"@openzeppelin/contracts/utils/math/SafeMath.sol\":3465:3561  function mul(uint256 a, uint256 b) internal pure returns (uint256) {... */\n              swap3\n              swap2\n              pop\n              pop\n              jump\t// out\n            tag_152:\n              mload(0x40)\n              dup1\n              0xa0\n              add\n              0x40\n              mstore\n              dup1\n              0x05\n              swap1\n              0x20\n              dup3\n              mul\n              dup1\n              calldatasize\n              dup4\n              calldatacopy\n              dup1\n              dup3\n              add\n              swap2\n              pop\n              pop\n              swap1\n              pop\n              pop\n              swap1\n              jump\t// out\n                /* \"#utility.yul\":7:146   */\n            tag_223:\n                /* \"#utility.yul\":53:58   */\n              0x00\n                /* \"#utility.yul\":91:97   */\n              dup2\n                /* \"#utility.yul\":78:98   */\n              calldataload\n                /* \"#utility.yul\":69:98   */\n              swap1\n              pop\n                /* \"#utility.yul\":107:140   */\n              tag_225\n                /* \"#utility.yul\":134:139   */\n              dup2\n                /* \"#utility.yul\":107:140   */\n              tag_226\n              jump\t// in\n            tag_225:\n                /* \"#utility.yul\":7:146   */\n              swap3\n              swap2\n              pop\n              pop\n              jump\t// out\n                /* \"#utility.yul\":152:313   */\n            tag_227:\n                /* \"#utility.yul\":209:214   */\n              0x00\n                /* \"#utility.yul\":247:253   */\n              dup2\n                /* \"#utility.yul\":234:254   */\n              calldataload\n                /* \"#utility.yul\":225:254   */\n              swap1\n              pop\n                /* \"#utility.yul\":263:307   */\n              tag_229\n                /* \"#utility.yul\":301:306   */\n              dup2\n                /* \"#utility.yul\":263:307   */\n              tag_230\n              jump\t// in\n            tag_229:\n                /* \"#utility.yul\":152:313   */\n              swap3\n              swap2\n              pop\n              pop\n              jump\t// out\n                /* \"#utility.yul\":319:458   */\n            tag_231:\n                /* \"#utility.yul\":365:370   */\n              0x00\n                /* \"#utility.yul\":403:409   */\n              dup2\n                /* \"#utility.yul\":390:410   */\n              calldataload\n                /* \"#utility.yul\":381:410   */\n              swap1\n              pop\n                /* \"#utility.yul\":419:452   */\n              tag_233\n                /* \"#utility.yul\":446:451   */\n              dup2\n                /* \"#utility.yul\":419:452   */\n              tag_234\n              jump\t// in\n            tag_233:\n                /* \"#utility.yul\":319:458   */\n              swap3\n              swap2\n              pop\n              pop\n              jump\t// out\n                /* \"#utility.yul\":464:607   */\n            tag_235:\n                /* \"#utility.yul\":521:526   */\n              0x00\n                /* \"#utility.yul\":552:558   */\n              dup2\n                /* \"#utility.yul\":546:559   */\n              mload\n                /* \"#utility.yul\":537:559   */\n              swap1\n              pop\n                /* \"#utility.yul\":568:601   */\n              tag_237\n                /* \"#utility.yul\":595:600   */\n              dup2\n                /* \"#utility.yul\":568:601   */\n              tag_234\n              jump\t// in\n            tag_237:\n                /* \"#utility.yul\":464:607   */\n              swap3\n              swap2\n              pop\n              pop\n              jump\t// out\n                /* \"#utility.yul\":613:750   */\n            tag_238:\n                /* \"#utility.yul\":658:663   */\n              0x00\n                /* \"#utility.yul\":696:702   */\n              dup2\n                /* \"#utility.yul\":683:703   */\n              calldataload\n                /* \"#utility.yul\":674:703   */\n              swap1\n              pop\n                /* \"#utility.yul\":712:744   */\n              tag_240\n                /* \"#utility.yul\":738:743   */\n              dup2\n                /* \"#utility.yul\":712:744   */\n              tag_241\n              jump\t// in\n            tag_240:\n                /* \"#utility.yul\":613:750   */\n              swap3\n              swap2\n              pop\n              pop\n              jump\t// out\n                /* \"#utility.yul\":756:1085   */\n            tag_78:\n                /* \"#utility.yul\":815:821   */\n              0x00\n                /* \"#utility.yul\":864:866   */\n              0x20\n                /* \"#utility.yul\":852:861   */\n              dup3\n                /* \"#utility.yul\":843:850   */\n              dup5\n                /* \"#utility.yul\":839:862   */\n              sub\n                /* \"#utility.yul\":835:867   */\n              slt\n                /* \"#utility.yul\":832:951   */\n              iszero\n              tag_243\n              jumpi\n                /* \"#utility.yul\":870:949   */\n              tag_244\n              tag_245\n              jump\t// in\n            tag_244:\n                /* \"#utility.yul\":832:951   */\n            tag_243:\n                /* \"#utility.yul\":990:991   */\n              0x00\n                /* \"#utility.yul\":1015:1068   */\n              tag_246\n                /* \"#utility.yul\":1060:1067   */\n              dup5\n                /* \"#utility.yul\":1051:1057   */\n              dup3\n                /* \"#utility.yul\":1040:1049   */\n              dup6\n                /* \"#utility.yul\":1036:1058   */\n              add\n                /* \"#utility.yul\":1015:1068   */\n              tag_223\n              jump\t// in\n            tag_246:\n                /* \"#utility.yul\":1005:1068   */\n              swap2\n              pop\n                /* \"#utility.yul\":961:1078   */\n              pop\n                /* \"#utility.yul\":756:1085   */\n              swap3\n              swap2\n              pop\n              pop\n              jump\t// out\n                /* \"#utility.yul\":1091:1442   */\n            tag_45:\n                /* \"#utility.yul\":1161:1167   */\n              0x00\n                /* \"#utility.yul\":1210:1212   */\n              0x20\n                /* \"#utility.yul\":1198:1207   */\n              dup3\n                /* \"#utility.yul\":1189:1196   */\n              dup5\n                /* \"#utility.yul\":1185:1208   */\n              sub\n                /* \"#utility.yul\":1181:1213   */\n              slt\n                /* \"#utility.yul\":1178:1297   */\n              iszero\n              tag_248\n              jumpi\n                /* \"#utility.yul\":1216:1295   */\n              tag_249\n              tag_245\n              jump\t// in\n            tag_249:\n                /* \"#utility.yul\":1178:1297   */\n            tag_248:\n                /* \"#utility.yul\":1336:1337   */\n              0x00\n                /* \"#utility.yul\":1361:1425   */\n              tag_250\n                /* \"#utility.yul\":1417:1424   */\n              dup5\n                /* \"#utility.yul\":1408:1414   */\n              dup3\n                /* \"#utility.yul\":1397:1406   */\n              dup6\n                /* \"#utility.yul\":1393:1415   */\n              add\n                /* \"#utility.yul\":1361:1425   */\n              tag_227\n              jump\t// in\n            tag_250:\n                /* \"#utility.yul\":1351:1425   */\n              swap2\n              pop\n                /* \"#utility.yul\":1307:1435   */\n              pop\n                /* \"#utility.yul\":1091:1442   */\n              swap3\n              swap2\n              pop\n              pop\n              jump\t// out\n                /* \"#utility.yul\":1448:1777   */\n            tag_93:\n                /* \"#utility.yul\":1507:1513   */\n              0x00\n                /* \"#utility.yul\":1556:1558   */\n              0x20\n                /* \"#utility.yul\":1544:1553   */\n              dup3\n                /* \"#utility.yul\":1535:1542   */\n              dup5\n                /* \"#utility.yul\":1531:1554   */\n              sub\n                /* \"#utility.yul\":1527:1559   */\n              slt\n                /* \"#utility.yul\":1524:1643   */\n              iszero\n              tag_252\n              jumpi\n                /* \"#utility.yul\":1562:1641   */\n              tag_253\n              tag_245\n              jump\t// in\n            tag_253:\n                /* \"#utility.yul\":1524:1643   */\n            tag_252:\n                /* \"#utility.yul\":1682:1683   */\n              0x00\n                /* \"#utility.yul\":1707:1760   */\n              tag_254\n                /* \"#utility.yul\":1752:1759   */\n              dup5\n                /* \"#utility.yul\":1743:1749   */\n              dup3\n                /* \"#utility.yul\":1732:1741   */\n              dup6\n                /* \"#utility.yul\":1728:1750   */\n              add\n                /* \"#utility.yul\":1707:1760   */\n              tag_231\n              jump\t// in\n            tag_254:\n                /* \"#utility.yul\":1697:1760   */\n              swap2\n              pop\n                /* \"#utility.yul\":1653:1770   */\n              pop\n                /* \"#utility.yul\":1448:1777   */\n              swap3\n              swap2\n              pop\n              pop\n              jump\t// out\n                /* \"#utility.yul\":1783:2134   */\n            tag_128:\n                /* \"#utility.yul\":1853:1859   */\n              0x00\n                /* \"#utility.yul\":1902:1904   */\n              0x20\n                /* \"#utility.yul\":1890:1899   */\n              dup3\n                /* \"#utility.yul\":1881:1888   */\n              dup5\n                /* \"#utility.yul\":1877:1900   */\n              sub\n                /* \"#utility.yul\":1873:1905   */\n              slt\n                /* \"#utility.yul\":1870:1989   */\n              iszero\n              tag_256\n              jumpi\n                /* \"#utility.yul\":1908:1987   */\n              tag_257\n              tag_245\n              jump\t// in\n            tag_257:\n                /* \"#utility.yul\":1870:1989   */\n            tag_256:\n                /* \"#utility.yul\":2028:2029   */\n              0x00\n                /* \"#utility.yul\":2053:2117   */\n              tag_258\n                /* \"#utility.yul\":2109:2116   */\n              dup5\n                /* \"#utility.yul\":2100:2106   */\n              dup3\n                /* \"#utility.yul\":2089:2098   */\n              dup6\n                /* \"#utility.yul\":2085:2107   */\n              add\n                /* \"#utility.yul\":2053:2117   */\n              tag_235\n              jump\t// in\n            tag_258:\n                /* \"#utility.yul\":2043:2117   */\n              swap2\n              pop\n                /* \"#utility.yul\":1999:2127   */\n              pop\n                /* \"#utility.yul\":1783:2134   */\n              swap3\n              swap2\n              pop\n              pop\n              jump\t// out\n                /* \"#utility.yul\":2140:2467   */\n            tag_98:\n                /* \"#utility.yul\":2198:2204   */\n              0x00\n                /* \"#utility.yul\":2247:2249   */\n              0x20\n                /* \"#utility.yul\":2235:2244   */\n              dup3\n                /* \"#utility.yul\":2226:2233   */\n              dup5\n                /* \"#utility.yul\":2222:2245   */\n              sub\n                /* \"#utility.yul\":2218:2250   */\n              slt\n                /* \"#utility.yul\":2215:2334   */\n              iszero\n              tag_260\n              jumpi\n                /* \"#utility.yul\":2253:2332   */\n              tag_261\n              tag_245\n              jump\t// in\n            tag_261:\n                /* \"#utility.yul\":2215:2334   */\n            tag_260:\n                /* \"#utility.yul\":2373:2374   */\n              0x00\n                /* \"#utility.yul\":2398:2450   */\n              tag_262\n                /* \"#utility.yul\":2442:2449   */\n              dup5\n                /* \"#utility.yul\":2433:2439   */\n              dup3\n                /* \"#utility.yul\":2422:2431   */\n              dup6\n                /* \"#utility.yul\":2418:2440   */\n              add\n                /* \"#utility.yul\":2398:2450   */\n              tag_238\n              jump\t// in\n            tag_262:\n                /* \"#utility.yul\":2388:2450   */\n              swap2\n              pop\n                /* \"#utility.yul\":2344:2460   */\n              pop\n                /* \"#utility.yul\":2140:2467   */\n              swap3\n              swap2\n              pop\n              pop\n              jump\t// out\n                /* \"#utility.yul\":2473:2652   */\n            tag_263:\n                /* \"#utility.yul\":2542:2552   */\n              0x00\n                /* \"#utility.yul\":2563:2609   */\n              tag_265\n                /* \"#utility.yul\":2605:2608   */\n              dup4\n                /* \"#utility.yul\":2597:2603   */\n              dup4\n                /* \"#utility.yul\":2563:2609   */\n              tag_266\n              jump\t// in\n            tag_265:\n                /* \"#utility.yul\":2641:2645   */\n              0x20\n                /* \"#utility.yul\":2636:2639   */\n              dup4\n                /* \"#utility.yul\":2632:2646   */\n              add\n                /* \"#utility.yul\":2618:2646   */\n              swap1\n              pop\n                /* \"#utility.yul\":2473:2652   */\n              swap3\n              swap2\n              pop\n              pop\n              jump\t// out\n                /* \"#utility.yul\":2658:2776   */\n            tag_267:\n                /* \"#utility.yul\":2745:2769   */\n              tag_269\n                /* \"#utility.yul\":2763:2768   */\n              dup2\n                /* \"#utility.yul\":2745:2769   */\n              tag_270\n              jump\t// in\n            tag_269:\n                /* \"#utility.yul\":2740:2743   */\n              dup3\n                /* \"#utility.yul\":2733:2770   */\n              mstore\n                /* \"#utility.yul\":2658:2776   */\n              pop\n              pop\n              jump\t// out\n                /* \"#utility.yul\":2814:3508   */\n            tag_271:\n                /* \"#utility.yul\":2950:3002   */\n              tag_273\n                /* \"#utility.yul\":2996:3001   */\n              dup2\n                /* \"#utility.yul\":2950:3002   */\n              tag_274\n              jump\t// in\n            tag_273:\n                /* \"#utility.yul\":3018:3102   */\n              tag_275\n                /* \"#utility.yul\":3095:3101   */\n              dup2\n                /* \"#utility.yul\":3090:3093   */\n              dup5\n                /* \"#utility.yul\":3018:3102   */\n              tag_276\n              jump\t// in\n            tag_275:\n                /* \"#utility.yul\":3011:3102   */\n              swap3\n              pop\n                /* \"#utility.yul\":3126:3180   */\n              tag_277\n                /* \"#utility.yul\":3174:3179   */\n              dup3\n                /* \"#utility.yul\":3126:3180   */\n              tag_278\n              jump\t// in\n            tag_277:\n                /* \"#utility.yul\":3203:3210   */\n              dup1\n                /* \"#utility.yul\":3234:3235   */\n              0x00\n                /* \"#utility.yul\":3219:3501   */\n            tag_279:\n                /* \"#utility.yul\":3244:3250   */\n              dup4\n                /* \"#utility.yul\":3241:3242   */\n              dup2\n                /* \"#utility.yul\":3238:3251   */\n              lt\n                /* \"#utility.yul\":3219:3501   */\n              iszero\n              tag_281\n              jumpi\n                /* \"#utility.yul\":3320:3326   */\n              dup2\n                /* \"#utility.yul\":3314:3327   */\n              mload\n                /* \"#utility.yul\":3347:3410   */\n              tag_282\n                /* \"#utility.yul\":3406:3409   */\n              dup8\n                /* \"#utility.yul\":3391:3404   */\n              dup3\n                /* \"#utility.yul\":3347:3410   */\n              tag_263\n              jump\t// in\n            tag_282:\n                /* \"#utility.yul\":3340:3410   */\n              swap7\n              pop\n                /* \"#utility.yul\":3433:3491   */\n              tag_283\n                /* \"#utility.yul\":3484:3490   */\n              dup4\n                /* \"#utility.yul\":3433:3491   */\n              tag_284\n              jump\t// in\n            tag_283:\n                /* \"#utility.yul\":3423:3491   */\n              swap3\n              pop\n                /* \"#utility.yul\":3279:3501   */\n              pop\n                /* \"#utility.yul\":3266:3267   */\n              0x01\n                /* \"#utility.yul\":3263:3264   */\n              dup2\n                /* \"#utility.yul\":3259:3268   */\n              add\n                /* \"#utility.yul\":3254:3268   */\n              swap1\n              pop\n                /* \"#utility.yul\":3219:3501   */\n              jump(tag_279)\n            tag_281:\n                /* \"#utility.yul\":3223:3237   */\n              pop\n                /* \"#utility.yul\":2926:3508   */\n              pop\n              pop\n              pop\n                /* \"#utility.yul\":2814:3508   */\n              pop\n              pop\n              jump\t// out\n                /* \"#utility.yul\":3514:3663   */\n            tag_285:\n                /* \"#utility.yul\":3610:3656   */\n              tag_287\n                /* \"#utility.yul\":3650:3655   */\n              dup2\n                /* \"#utility.yul\":3610:3656   */\n              tag_288\n              jump\t// in\n            tag_287:\n                /* \"#utility.yul\":3605:3608   */\n              dup3\n                /* \"#utility.yul\":3598:3657   */\n              mstore\n                /* \"#utility.yul\":3514:3663   */\n              pop\n              pop\n              jump\t// out\n                /* \"#utility.yul\":3669:4035   */\n            tag_289:\n                /* \"#utility.yul\":3811:3814   */\n              0x00\n                /* \"#utility.yul\":3832:3899   */\n              tag_291\n                /* \"#utility.yul\":3896:3898   */\n              0x26\n                /* \"#utility.yul\":3891:3894   */\n              dup4\n                /* \"#utility.yul\":3832:3899   */\n              tag_292\n              jump\t// in\n            tag_291:\n                /* \"#utility.yul\":3825:3899   */\n              swap2\n              pop\n                /* \"#utility.yul\":3908:4001   */\n              tag_293\n                /* \"#utility.yul\":3997:4000   */\n              dup3\n                /* \"#utility.yul\":3908:4001   */\n              tag_294\n              jump\t// in\n            tag_293:\n                /* \"#utility.yul\":4026:4028   */\n              0x40\n                /* \"#utility.yul\":4021:4024   */\n              dup3\n                /* \"#utility.yul\":4017:4029   */\n              add\n                /* \"#utility.yul\":4010:4029   */\n              swap1\n              pop\n                /* \"#utility.yul\":3669:4035   */\n              swap2\n              swap1\n              pop\n              jump\t// out\n                /* \"#utility.yul\":4041:4407   */\n            tag_295:\n                /* \"#utility.yul\":4183:4186   */\n              0x00\n                /* \"#utility.yul\":4204:4271   */\n              tag_297\n                /* \"#utility.yul\":4268:4270   */\n              0x20\n                /* \"#utility.yul\":4263:4266   */\n              dup4\n                /* \"#utility.yul\":4204:4271   */\n              tag_292\n              jump\t// in\n            tag_297:\n                /* \"#utility.yul\":4197:4271   */\n              swap2\n              pop\n                /* \"#utility.yul\":4280:4373   */\n              tag_298\n                /* \"#utility.yul\":4369:4372   */\n              dup3\n                /* \"#utility.yul\":4280:4373   */\n              tag_299\n              jump\t// in\n            tag_298:\n                /* \"#utility.yul\":4398:4400   */\n              0x20\n                /* \"#utility.yul\":4393:4396   */\n              dup3\n                /* \"#utility.yul\":4389:4401   */\n              add\n                /* \"#utility.yul\":4382:4401   */\n              swap1\n              pop\n                /* \"#utility.yul\":4041:4407   */\n              swap2\n              swap1\n              pop\n              jump\t// out\n                /* \"#utility.yul\":4413:4521   */\n            tag_266:\n                /* \"#utility.yul\":4490:4514   */\n              tag_301\n                /* \"#utility.yul\":4508:4513   */\n              dup2\n                /* \"#utility.yul\":4490:4514   */\n              tag_302\n              jump\t// in\n            tag_301:\n                /* \"#utility.yul\":4485:4488   */\n              dup3\n                /* \"#utility.yul\":4478:4515   */\n              mstore\n                /* \"#utility.yul\":4413:4521   */\n              pop\n              pop\n              jump\t// out\n                /* \"#utility.yul\":4527:4645   */\n            tag_303:\n                /* \"#utility.yul\":4614:4638   */\n              tag_305\n                /* \"#utility.yul\":4632:4637   */\n              dup2\n                /* \"#utility.yul\":4614:4638   */\n              tag_302\n              jump\t// in\n            tag_305:\n                /* \"#utility.yul\":4609:4612   */\n              dup3\n                /* \"#utility.yul\":4602:4639   */\n              mstore\n                /* \"#utility.yul\":4527:4645   */\n              pop\n              pop\n              jump\t// out\n                /* \"#utility.yul\":4651:4766   */\n            tag_306:\n                /* \"#utility.yul\":4736:4759   */\n              tag_308\n                /* \"#utility.yul\":4753:4758   */\n              dup2\n                /* \"#utility.yul\":4736:4759   */\n              tag_309\n              jump\t// in\n            tag_308:\n                /* \"#utility.yul\":4731:4734   */\n              dup3\n                /* \"#utility.yul\":4724:4760   */\n              mstore\n                /* \"#utility.yul\":4651:4766   */\n              pop\n              pop\n              jump\t// out\n                /* \"#utility.yul\":4772:4994   */\n            tag_58:\n                /* \"#utility.yul\":4865:4869   */\n              0x00\n                /* \"#utility.yul\":4903:4905   */\n              0x20\n                /* \"#utility.yul\":4892:4901   */\n              dup3\n                /* \"#utility.yul\":4888:4906   */\n              add\n                /* \"#utility.yul\":4880:4906   */\n              swap1\n              pop\n                /* \"#utility.yul\":4916:4987   */\n              tag_311\n                /* \"#utility.yul\":4984:4985   */\n              0x00\n                /* \"#utility.yul\":4973:4982   */\n              dup4\n                /* \"#utility.yul\":4969:4986   */\n              add\n                /* \"#utility.yul\":4960:4966   */\n              dup5\n                /* \"#utility.yul\":4916:4987   */\n              tag_267\n              jump\t// in\n            tag_311:\n                /* \"#utility.yul\":4772:4994   */\n              swap3\n              swap2\n              pop\n              pop\n              jump\t// out\n                /* \"#utility.yul\":5000:5315   */\n            tag_90:\n                /* \"#utility.yul\":5139:5143   */\n              0x00\n                /* \"#utility.yul\":5177:5180   */\n              0xa0\n                /* \"#utility.yul\":5166:5175   */\n              dup3\n                /* \"#utility.yul\":5162:5181   */\n              add\n                /* \"#utility.yul\":5154:5181   */\n              swap1\n              pop\n                /* \"#utility.yul\":5191:5308   */\n              tag_313\n                /* \"#utility.yul\":5305:5306   */\n              0x00\n                /* \"#utility.yul\":5294:5303   */\n              dup4\n                /* \"#utility.yul\":5290:5307   */\n              add\n                /* \"#utility.yul\":5281:5287   */\n              dup5\n                /* \"#utility.yul\":5191:5308   */\n              tag_271\n              jump\t// in\n            tag_313:\n                /* \"#utility.yul\":5000:5315   */\n              swap3\n              swap2\n              pop\n              pop\n              jump\t// out\n                /* \"#utility.yul\":5321:5561   */\n            tag_39:\n                /* \"#utility.yul\":5423:5427   */\n              0x00\n                /* \"#utility.yul\":5461:5463   */\n              0x20\n                /* \"#utility.yul\":5450:5459   */\n              dup3\n                /* \"#utility.yul\":5446:5464   */\n              add\n                /* \"#utility.yul\":5438:5464   */\n              swap1\n              pop\n                /* \"#utility.yul\":5474:5554   */\n              tag_315\n                /* \"#utility.yul\":5551:5552   */\n              0x00\n                /* \"#utility.yul\":5540:5549   */\n              dup4\n                /* \"#utility.yul\":5536:5553   */\n              add\n                /* \"#utility.yul\":5527:5533   */\n              dup5\n                /* \"#utility.yul\":5474:5554   */\n              tag_285\n              jump\t// in\n            tag_315:\n                /* \"#utility.yul\":5321:5561   */\n              swap3\n              swap2\n              pop\n              pop\n              jump\t// out\n                /* \"#utility.yul\":5567:5986   */\n            tag_178:\n                /* \"#utility.yul\":5733:5737   */\n              0x00\n                /* \"#utility.yul\":5771:5773   */\n              0x20\n                /* \"#utility.yul\":5760:5769   */\n              dup3\n                /* \"#utility.yul\":5756:5774   */\n              add\n                /* \"#utility.yul\":5748:5774   */\n              swap1\n              pop\n                /* \"#utility.yul\":5820:5829   */\n              dup2\n                /* \"#utility.yul\":5814:5818   */\n              dup2\n                /* \"#utility.yul\":5810:5830   */\n              sub\n                /* \"#utility.yul\":5806:5807   */\n              0x00\n                /* \"#utility.yul\":5795:5804   */\n              dup4\n                /* \"#utility.yul\":5791:5808   */\n              add\n                /* \"#utility.yul\":5784:5831   */\n              mstore\n                /* \"#utility.yul\":5848:5979   */\n              tag_317\n                /* \"#utility.yul\":5974:5978   */\n              dup2\n                /* \"#utility.yul\":5848:5979   */\n              tag_289\n              jump\t// in\n            tag_317:\n                /* \"#utility.yul\":5840:5979   */\n              swap1\n              pop\n                /* \"#utility.yul\":5567:5986   */\n              swap2\n              swap1\n              pop\n              jump\t// out\n                /* \"#utility.yul\":5992:6411   */\n            tag_195:\n                /* \"#utility.yul\":6158:6162   */\n              0x00\n                /* \"#utility.yul\":6196:6198   */\n              0x20\n                /* \"#utility.yul\":6185:6194   */\n              dup3\n                /* \"#utility.yul\":6181:6199   */\n              add\n                /* \"#utility.yul\":6173:6199   */\n              swap1\n              pop\n                /* \"#utility.yul\":6245:6254   */\n              dup2\n                /* \"#utility.yul\":6239:6243   */\n              dup2\n                /* \"#utility.yul\":6235:6255   */\n              sub\n                /* \"#utility.yul\":6231:6232   */\n              0x00\n                /* \"#utility.yul\":6220:6229   */\n              dup4\n                /* \"#utility.yul\":6216:6233   */\n              add\n                /* \"#utility.yul\":6209:6256   */\n              mstore\n                /* \"#utility.yul\":6273:6404   */\n              tag_319\n                /* \"#utility.yul\":6399:6403   */\n              dup2\n                /* \"#utility.yul\":6273:6404   */\n              tag_295\n              jump\t// in\n            tag_319:\n                /* \"#utility.yul\":6265:6404   */\n              swap1\n              pop\n                /* \"#utility.yul\":5992:6411   */\n              swap2\n              swap1\n              pop\n              jump\t// out\n                /* \"#utility.yul\":6417:6639   */\n            tag_35:\n                /* \"#utility.yul\":6510:6514   */\n              0x00\n                /* \"#utility.yul\":6548:6550   */\n              0x20\n                /* \"#utility.yul\":6537:6546   */\n              dup3\n                /* \"#utility.yul\":6533:6551   */\n              add\n                /* \"#utility.yul\":6525:6551   */\n              swap1\n              pop\n                /* \"#utility.yul\":6561:6632   */\n              tag_321\n                /* \"#utility.yul\":6629:6630   */\n              0x00\n                /* \"#utility.yul\":6618:6627   */\n              dup4\n                /* \"#utility.yul\":6614:6631   */\n              add\n                /* \"#utility.yul\":6605:6611   */\n              dup5\n                /* \"#utility.yul\":6561:6632   */\n              tag_303\n              jump\t// in\n            tag_321:\n                /* \"#utility.yul\":6417:6639   */\n              swap3\n              swap2\n              pop\n              pop\n              jump\t// out\n                /* \"#utility.yul\":6645:6863   */\n            tag_51:\n                /* \"#utility.yul\":6736:6740   */\n              0x00\n                /* \"#utility.yul\":6774:6776   */\n              0x20\n                /* \"#utility.yul\":6763:6772   */\n              dup3\n                /* \"#utility.yul\":6759:6777   */\n              add\n                /* \"#utility.yul\":6751:6777   */\n              swap1\n              pop\n                /* \"#utility.yul\":6787:6856   */\n              tag_323\n                /* \"#utility.yul\":6853:6854   */\n              0x00\n                /* \"#utility.yul\":6842:6851   */\n              dup4\n                /* \"#utility.yul\":6838:6855   */\n              add\n                /* \"#utility.yul\":6829:6835   */\n              dup5\n                /* \"#utility.yul\":6787:6856   */\n              tag_306\n              jump\t// in\n            tag_323:\n                /* \"#utility.yul\":6645:6863   */\n              swap3\n              swap2\n              pop\n              pop\n              jump\t// out\n                /* \"#utility.yul\":6950:7048   */\n            tag_278:\n                /* \"#utility.yul\":7015:7019   */\n              0x00\n                /* \"#utility.yul\":7038:7041   */\n              dup2\n                /* \"#utility.yul\":7030:7041   */\n              swap1\n              pop\n                /* \"#utility.yul\":6950:7048   */\n              swap2\n              swap1\n              pop\n              jump\t// out\n                /* \"#utility.yul\":7054:7158   */\n            tag_274:\n                /* \"#utility.yul\":7119:7125   */\n              0x00\n                /* \"#utility.yul\":7147:7151   */\n              0x05\n                /* \"#utility.yul\":7137:7151   */\n              swap1\n              pop\n                /* \"#utility.yul\":7054:7158   */\n              swap2\n              swap1\n              pop\n              jump\t// out\n                /* \"#utility.yul\":7164:7275   */\n            tag_284:\n                /* \"#utility.yul\":7232:7236   */\n              0x00\n                /* \"#utility.yul\":7264:7268   */\n              0x20\n                /* \"#utility.yul\":7259:7262   */\n              dup3\n                /* \"#utility.yul\":7255:7269   */\n              add\n                /* \"#utility.yul\":7247:7269   */\n              swap1\n              pop\n                /* \"#utility.yul\":7164:7275   */\n              swap2\n              swap1\n              pop\n              jump\t// out\n                /* \"#utility.yul\":7281:7424   */\n            tag_276:\n                /* \"#utility.yul\":7378:7389   */\n              0x00\n                /* \"#utility.yul\":7415:7418   */\n              dup2\n                /* \"#utility.yul\":7400:7418   */\n              swap1\n              pop\n                /* \"#utility.yul\":7281:7424   */\n              swap3\n              swap2\n              pop\n              pop\n              jump\t// out\n                /* \"#utility.yul\":7430:7599   */\n            tag_292:\n                /* \"#utility.yul\":7514:7525   */\n              0x00\n                /* \"#utility.yul\":7548:7554   */\n              dup3\n                /* \"#utility.yul\":7543:7546   */\n              dup3\n                /* \"#utility.yul\":7536:7555   */\n              mstore\n                /* \"#utility.yul\":7588:7592   */\n              0x20\n                /* \"#utility.yul\":7583:7586   */\n              dup3\n                /* \"#utility.yul\":7579:7593   */\n              add\n                /* \"#utility.yul\":7564:7593   */\n              swap1\n              pop\n                /* \"#utility.yul\":7430:7599   */\n              swap3\n              swap2\n              pop\n              pop\n              jump\t// out\n                /* \"#utility.yul\":7605:7790   */\n            tag_188:\n                /* \"#utility.yul\":7645:7646   */\n              0x00\n                /* \"#utility.yul\":7662:7682   */\n              tag_332\n                /* \"#utility.yul\":7680:7681   */\n              dup3\n                /* \"#utility.yul\":7662:7682   */\n              tag_302\n              jump\t// in\n            tag_332:\n                /* \"#utility.yul\":7657:7682   */\n              swap2\n              pop\n                /* \"#utility.yul\":7696:7716   */\n              tag_333\n                /* \"#utility.yul\":7714:7715   */\n              dup4\n                /* \"#utility.yul\":7696:7716   */\n              tag_302\n              jump\t// in\n            tag_333:\n                /* \"#utility.yul\":7691:7716   */\n              swap3\n              pop\n                /* \"#utility.yul\":7735:7736   */\n              dup3\n                /* \"#utility.yul\":7725:7760   */\n              tag_334\n              jumpi\n                /* \"#utility.yul\":7740:7758   */\n              tag_335\n              tag_336\n              jump\t// in\n            tag_335:\n                /* \"#utility.yul\":7725:7760   */\n            tag_334:\n                /* \"#utility.yul\":7782:7783   */\n              dup3\n                /* \"#utility.yul\":7779:7780   */\n              dup3\n                /* \"#utility.yul\":7775:7784   */\n              div\n                /* \"#utility.yul\":7770:7784   */\n              swap1\n              pop\n                /* \"#utility.yul\":7605:7790   */\n              swap3\n              swap2\n              pop\n              pop\n              jump\t// out\n                /* \"#utility.yul\":7796:8144   */\n            tag_221:\n                /* \"#utility.yul\":7836:7843   */\n              0x00\n                /* \"#utility.yul\":7859:7879   */\n              tag_338\n                /* \"#utility.yul\":7877:7878   */\n              dup3\n                /* \"#utility.yul\":7859:7879   */\n              tag_302\n              jump\t// in\n            tag_338:\n                /* \"#utility.yul\":7854:7879   */\n              swap2\n              pop\n                /* \"#utility.yul\":7893:7913   */\n              tag_339\n                /* \"#utility.yul\":7911:7912   */\n              dup4\n                /* \"#utility.yul\":7893:7913   */\n              tag_302\n              jump\t// in\n            tag_339:\n                /* \"#utility.yul\":7888:7913   */\n              swap3\n              pop\n                /* \"#utility.yul\":8081:8082   */\n              dup2\n                /* \"#utility.yul\":8013:8079   */\n              0xffffffffffffffffffffffffffffffffffffffffffffffffffffffffffffffff\n                /* \"#utility.yul\":8009:8083   */\n              div\n                /* \"#utility.yul\":8006:8007   */\n              dup4\n                /* \"#utility.yul\":8003:8084   */\n              gt\n                /* \"#utility.yul\":7998:7999   */\n              dup3\n                /* \"#utility.yul\":7991:8000   */\n              iszero\n                /* \"#utility.yul\":7984:8001   */\n              iszero\n                /* \"#utility.yul\":7980:8085   */\n              and\n                /* \"#utility.yul\":7977:8108   */\n              iszero\n              tag_340\n              jumpi\n                /* \"#utility.yul\":8088:8106   */\n              tag_341\n              tag_342\n              jump\t// in\n            tag_341:\n                /* \"#utility.yul\":7977:8108   */\n            tag_340:\n                /* \"#utility.yul\":8136:8137   */\n              dup3\n                /* \"#utility.yul\":8133:8134   */\n              dup3\n                /* \"#utility.yul\":8129:8138   */\n              mul\n                /* \"#utility.yul\":8118:8138   */\n              swap1\n              pop\n                /* \"#utility.yul\":7796:8144   */\n              swap3\n              swap2\n              pop\n              pop\n              jump\t// out\n                /* \"#utility.yul\":8150:8341   */\n            tag_185:\n                /* \"#utility.yul\":8190:8194   */\n              0x00\n                /* \"#utility.yul\":8210:8230   */\n              tag_344\n                /* \"#utility.yul\":8228:8229   */\n              dup3\n                /* \"#utility.yul\":8210:8230   */\n              tag_302\n              jump\t// in\n            tag_344:\n                /* \"#utility.yul\":8205:8230   */\n              swap2\n              pop\n                /* \"#utility.yul\":8244:8264   */\n              tag_345\n                /* \"#utility.yul\":8262:8263   */\n              dup4\n                /* \"#utility.yul\":8244:8264   */\n              tag_302\n              jump\t// in\n            tag_345:\n                /* \"#utility.yul\":8239:8264   */\n              swap3\n              pop\n                /* \"#utility.yul\":8283:8284   */\n              dup3\n                /* \"#utility.yul\":8280:8281   */\n              dup3\n                /* \"#utility.yul\":8277:8285   */\n              lt\n                /* \"#utility.yul\":8274:8308   */\n              iszero\n              tag_346\n              jumpi\n                /* \"#utility.yul\":8288:8306   */\n              tag_347\n              tag_342\n              jump\t// in\n            tag_347:\n                /* \"#utility.yul\":8274:8308   */\n            tag_346:\n                /* \"#utility.yul\":8333:8334   */\n              dup3\n                /* \"#utility.yul\":8330:8331   */\n              dup3\n                /* \"#utility.yul\":8326:8335   */\n              sub\n                /* \"#utility.yul\":8318:8335   */\n              swap1\n              pop\n                /* \"#utility.yul\":8150:8341   */\n              swap3\n              swap2\n              pop\n              pop\n              jump\t// out\n                /* \"#utility.yul\":8347:8443   */\n            tag_270:\n                /* \"#utility.yul\":8384:8391   */\n              0x00\n                /* \"#utility.yul\":8413:8437   */\n              tag_349\n                /* \"#utility.yul\":8431:8436   */\n              dup3\n                /* \"#utility.yul\":8413:8437   */\n              tag_350\n              jump\t// in\n            tag_349:\n                /* \"#utility.yul\":8402:8437   */\n              swap1\n              pop\n                /* \"#utility.yul\":8347:8443   */\n              swap2\n              swap1\n              pop\n              jump\t// out\n                /* \"#utility.yul\":8449:8582   */\n            tag_351:\n                /* \"#utility.yul\":8497:8504   */\n              0x00\n                /* \"#utility.yul\":8526:8531   */\n              dup2\n                /* \"#utility.yul\":8515:8531   */\n              swap1\n              pop\n                /* \"#utility.yul\":8532:8576   */\n              tag_353\n                /* \"#utility.yul\":8570:8575   */\n              dup3\n                /* \"#utility.yul\":8532:8576   */\n              tag_354\n              jump\t// in\n            tag_353:\n                /* \"#utility.yul\":8449:8582   */\n              swap2\n              swap1\n              pop\n              jump\t// out\n                /* \"#utility.yul\":8588:8714   */\n            tag_350:\n                /* \"#utility.yul\":8625:8632   */\n              0x00\n                /* \"#utility.yul\":8665:8707   */\n              0xffffffffffffffffffffffffffffffffffffffff\n                /* \"#utility.yul\":8658:8663   */\n              dup3\n                /* \"#utility.yul\":8654:8708   */\n              and\n                /* \"#utility.yul\":8643:8708   */\n              swap1\n              pop\n                /* \"#utility.yul\":8588:8714   */\n              swap2\n              swap1\n              pop\n              jump\t// out\n                /* \"#utility.yul\":8720:8797   */\n            tag_302:\n                /* \"#utility.yul\":8757:8764   */\n              0x00\n                /* \"#utility.yul\":8786:8791   */\n              dup2\n                /* \"#utility.yul\":8775:8791   */\n              swap1\n              pop\n                /* \"#utility.yul\":8720:8797   */\n              swap2\n              swap1\n              pop\n              jump\t// out\n                /* \"#utility.yul\":8803:8896   */\n            tag_309:\n                /* \"#utility.yul\":8839:8846   */\n              0x00\n                /* \"#utility.yul\":8879:8889   */\n              0xffffffff\n                /* \"#utility.yul\":8872:8877   */\n              dup3\n                /* \"#utility.yul\":8868:8890   */\n              and\n                /* \"#utility.yul\":8857:8890   */\n              swap1\n              pop\n                /* \"#utility.yul\":8803:8896   */\n              swap2\n              swap1\n              pop\n              jump\t// out\n                /* \"#utility.yul\":8902:9035   */\n            tag_288:\n                /* \"#utility.yul\":8961:8970   */\n              0x00\n                /* \"#utility.yul\":8994:9029   */\n              tag_359\n                /* \"#utility.yul\":9023:9028   */\n              dup3\n                /* \"#utility.yul\":8994:9029   */\n              tag_351\n              jump\t// in\n            tag_359:\n                /* \"#utility.yul\":8981:9029   */\n              swap1\n              pop\n                /* \"#utility.yul\":8902:9035   */\n              swap2\n              swap1\n              pop\n              jump\t// out\n                /* \"#utility.yul\":9041:9221   */\n            tag_342:\n                /* \"#utility.yul\":9089:9166   */\n              0x4e487b7100000000000000000000000000000000000000000000000000000000\n                /* \"#utility.yul\":9086:9087   */\n              0x00\n                /* \"#utility.yul\":9079:9167   */\n              mstore\n                /* \"#utility.yul\":9186:9190   */\n              0x11\n                /* \"#utility.yul\":9183:9184   */\n              0x04\n                /* \"#utility.yul\":9176:9191   */\n              mstore\n                /* \"#utility.yul\":9210:9214   */\n              0x24\n                /* \"#utility.yul\":9207:9208   */\n              0x00\n                /* \"#utility.yul\":9200:9215   */\n              revert\n                /* \"#utility.yul\":9227:9407   */\n            tag_336:\n                /* \"#utility.yul\":9275:9352   */\n              0x4e487b7100000000000000000000000000000000000000000000000000000000\n                /* \"#utility.yul\":9272:9273   */\n              0x00\n                /* \"#utility.yul\":9265:9353   */\n              mstore\n                /* \"#utility.yul\":9372:9376   */\n              0x12\n                /* \"#utility.yul\":9369:9370   */\n              0x04\n                /* \"#utility.yul\":9362:9377   */\n              mstore\n                /* \"#utility.yul\":9396:9400   */\n              0x24\n                /* \"#utility.yul\":9393:9394   */\n              0x00\n                /* \"#utility.yul\":9386:9401   */\n              revert\n                /* \"#utility.yul\":9413:9593   */\n            tag_135:\n                /* \"#utility.yul\":9461:9538   */\n              0x4e487b7100000000000000000000000000000000000000000000000000000000\n                /* \"#utility.yul\":9458:9459   */\n              0x00\n                /* \"#utility.yul\":9451:9539   */\n              mstore\n                /* \"#utility.yul\":9558:9562   */\n              0x21\n                /* \"#utility.yul\":9555:9556   */\n              0x04\n                /* \"#utility.yul\":9548:9563   */\n              mstore\n                /* \"#utility.yul\":9582:9586   */\n              0x24\n                /* \"#utility.yul\":9579:9580   */\n              0x00\n                /* \"#utility.yul\":9572:9587   */\n              revert\n                /* \"#utility.yul\":9722:9839   */\n            tag_245:\n                /* \"#utility.yul\":9831:9832   */\n              0x00\n                /* \"#utility.yul\":9828:9829   */\n              dup1\n                /* \"#utility.yul\":9821:9833   */\n              revert\n                /* \"#utility.yul\":9845:10070   */\n            tag_294:\n                /* \"#utility.yul\":9985:10019   */\n              0x4f776e61626c653a206e6577206f776e657220697320746865207a65726f2061\n                /* \"#utility.yul\":9981:9982   */\n              0x00\n                /* \"#utility.yul\":9973:9979   */\n              dup3\n                /* \"#utility.yul\":9969:9983   */\n              add\n                /* \"#utility.yul\":9962:10020   */\n              mstore\n                /* \"#utility.yul\":10054:10062   */\n              0x6464726573730000000000000000000000000000000000000000000000000000\n                /* \"#utility.yul\":10049:10051   */\n              0x20\n                /* \"#utility.yul\":10041:10047   */\n              dup3\n                /* \"#utility.yul\":10037:10052   */\n              add\n                /* \"#utility.yul\":10030:10063   */\n              mstore\n                /* \"#utility.yul\":9845:10070   */\n              pop\n              jump\t// out\n                /* \"#utility.yul\":10076:10258   */\n            tag_299:\n                /* \"#utility.yul\":10216:10250   */\n              0x4f776e61626c653a2063616c6c6572206973206e6f7420746865206f776e6572\n                /* \"#utility.yul\":10212:10213   */\n              0x00\n                /* \"#utility.yul\":10204:10210   */\n              dup3\n                /* \"#utility.yul\":10200:10214   */\n              add\n                /* \"#utility.yul\":10193:10251   */\n              mstore\n                /* \"#utility.yul\":10076:10258   */\n              pop\n              jump\t// out\n                /* \"#utility.yul\":10264:10380   */\n            tag_354:\n                /* \"#utility.yul\":10348:10349   */\n              0x05\n                /* \"#utility.yul\":10341:10346   */\n              dup2\n                /* \"#utility.yul\":10338:10350   */\n              lt\n                /* \"#utility.yul\":10328:10374   */\n              tag_369\n              jumpi\n                /* \"#utility.yul\":10354:10372   */\n              tag_370\n              tag_135\n              jump\t// in\n            tag_370:\n                /* \"#utility.yul\":10328:10374   */\n            tag_369:\n                /* \"#utility.yul\":10264:10380   */\n              pop\n              jump\t// out\n                /* \"#utility.yul\":10386:10508   */\n            tag_226:\n                /* \"#utility.yul\":10459:10483   */\n              tag_372\n                /* \"#utility.yul\":10477:10482   */\n              dup2\n                /* \"#utility.yul\":10459:10483   */\n              tag_270\n              jump\t// in\n            tag_372:\n                /* \"#utility.yul\":10452:10457   */\n              dup2\n                /* \"#utility.yul\":10449:10484   */\n              eq\n                /* \"#utility.yul\":10439:10502   */\n              tag_373\n              jumpi\n                /* \"#utility.yul\":10498:10499   */\n              0x00\n                /* \"#utility.yul\":10495:10496   */\n              dup1\n                /* \"#utility.yul\":10488:10500   */\n              revert\n                /* \"#utility.yul\":10439:10502   */\n            tag_373:\n                /* \"#utility.yul\":10386:10508   */\n              pop\n              jump\t// out\n                /* \"#utility.yul\":10514:10624   */\n            tag_230:\n                /* \"#utility.yul\":10598:10599   */\n              0x05\n                /* \"#utility.yul\":10591:10596   */\n              dup2\n                /* \"#utility.yul\":10588:10600   */\n              lt\n                /* \"#utility.yul\":10578:10618   */\n              tag_375\n              jumpi\n                /* \"#utility.yul\":10614:10615   */\n              0x00\n                /* \"#utility.yul\":10611:10612   */\n              dup1\n                /* \"#utility.yul\":10604:10616   */\n              revert\n                /* \"#utility.yul\":10578:10618   */\n            tag_375:\n                /* \"#utility.yul\":10514:10624   */\n              pop\n              jump\t// out\n                /* \"#utility.yul\":10630:10752   */\n            tag_234:\n                /* \"#utility.yul\":10703:10727   */\n              tag_377\n                /* \"#utility.yul\":10721:10726   */\n              dup2\n                /* \"#utility.yul\":10703:10727   */\n              tag_302\n              jump\t// in\n            tag_377:\n                /* \"#utility.yul\":10696:10701   */\n              dup2\n                /* \"#utility.yul\":10693:10728   */\n              eq\n                /* \"#utility.yul\":10683:10746   */\n              tag_378\n              jumpi\n                /* \"#utility.yul\":10742:10743   */\n              0x00\n                /* \"#utility.yul\":10739:10740   */\n              dup1\n                /* \"#utility.yul\":10732:10744   */\n              revert\n                /* \"#utility.yul\":10683:10746   */\n            tag_378:\n                /* \"#utility.yul\":10630:10752   */\n              pop\n              jump\t// out\n                /* \"#utility.yul\":10758:10878   */\n            tag_241:\n                /* \"#utility.yul\":10830:10853   */\n              tag_380\n                /* \"#utility.yul\":10847:10852   */\n              dup2\n                /* \"#utility.yul\":10830:10853   */\n              tag_309\n              jump\t// in\n            tag_380:\n                /* \"#utility.yul\":10823:10828   */\n              dup2\n                /* \"#utility.yul\":10820:10854   */\n              eq\n                /* \"#utility.yul\":10810:10872   */\n              tag_381\n              jumpi\n                /* \"#utility.yul\":10868:10869   */\n              0x00\n                /* \"#utility.yul\":10865:10866   */\n              dup1\n                /* \"#utility.yul\":10858:10870   */\n              revert\n                /* \"#utility.yul\":10810:10872   */\n            tag_381:\n                /* \"#utility.yul\":10758:10878   */\n              pop\n              jump\t// out\n\n            auxdata: 0xa26469706673582212207d137514ce3b0d2c869c398724d3828158c0cf47d8ce8178946b659ac013b39a64736f6c63430008070033\n        }\n    }\n\n    auxdata: 0xa26469706673582212203fc6840b9a32c83c3a2791ab937b004daf774fd5805833b2cb30e7f0796ab7be64736f6c63430008070033\n}\n",
				"bytecode": {
					"linkReferences": {},
					"object": "608060405234801561001057600080fd5b506139ac806100206000396000f3fe60806040523480156200001157600080fd5b5060043610620001185760003560e01c80635bf608b811620000a55780638bfd13ae116200006f5780638bfd13ae146200033957806391492956146200036f578063d6a9de5114620003a5578063f566edac14620003db5762000118565b80635bf608b814620002615780635c622a0e14620002975780638810632314620002cd5780638a614dd514620003035762000118565b806340e58ee511620000e757806340e58ee514620001c95780634364b26e14620001e9578063496ab39a14620002095780634a0d89ba146200022b5762000118565b80630aebeb4e146200011d57806313ef3dcc146200013d5780631bf1fffb1462000173578063379607f514620001a9575b600080fd5b6200013b600480360381019062000135919062001774565b62000411565b005b6200015b600480360381019062000155919062001774565b6200052d565b6040516200016a919062001b11565b60405180910390f35b6200019160048036038101906200018b919062001774565b620005eb565b604051620001a0919062001a77565b60405180910390f35b620001c76004803603810190620001c1919062001774565b620006a9565b005b620001e76004803603810190620001e1919062001774565b620007c5565b005b62000207600480360381019062000201919062001774565b620008e1565b005b6200021362000a99565b60405162000222919062001a5a565b60405180910390f35b62000249600480360381019062000243919062001774565b62000abf565b604051620002589190620019ba565b60405180910390f35b6200027f600480360381019062000279919062001774565b62000afc565b6040516200028e919062001980565b60405180910390f35b620002b56004803603810190620002af919062001774565b62000bba565b604051620002c49190620019d7565b60405180910390f35b620002eb6004803603810190620002e5919062001774565b62000c78565b604051620002fa919062001a77565b60405180910390f35b6200032160048036038101906200031b919062001679565b62000d36565b60405162000330919062001a77565b60405180910390f35b62000357600480360381019062000351919062001774565b62000f30565b60405162000366919062001a77565b60405180910390f35b6200038d600480360381019062000387919062001774565b62000f4d565b6040516200039c91906200199d565b60405180910390f35b620003c36004803603810190620003bd919062001774565b62001013565b604051620003d2919062001980565b60405180910390f35b620003f96004803603810190620003f391906200161d565b620010d1565b60405162000408919062001a77565b60405180910390f35b806002600481111562000429576200042862001d7a565b5b620004348262000bba565b600481111562000449576200044862001d7a565b5b146200048c576040517f08c379a0000000000000000000000000000000000000000000000000000000008152600401620004839062001a16565b60405180910390fd5b620004978262000abf565b73ffffffffffffffffffffffffffffffffffffffff16632e49d78b60046040518263ffffffff1660e01b8152600401620004d29190620019d7565b602060405180830381600087803b158015620004ed57600080fd5b505af115801562000502573d6000803e3d6000fd5b505050506040513d601f19601f8201168201806040525081019062000528919062001742565b505050565b60006001600083815260200190815260200160002060009054906101000a900473ffffffffffffffffffffffffffffffffffffffff1673ffffffffffffffffffffffffffffffffffffffff1663a2e800ad6040518163ffffffff1660e01b815260040160206040518083038186803b158015620005a957600080fd5b505afa158015620005be573d6000803e3d6000fd5b505050506040513d601f19601f82011682018060405250810190620005e49190620017d8565b9050919050565b60006001600083815260200190815260200160002060009054906101000a900473ffffffffffffffffffffffffffffffffffffffff1673ffffffffffffffffffffffffffffffffffffffff1663e0a73a936040518163ffffffff1660e01b815260040160206040518083038186803b1580156200066757600080fd5b505afa1580156200067c573d6000803e3d6000fd5b505050506040513d601f19601f82011682018060405250810190620006a29190620017a6565b9050919050565b8060026004811115620006c157620006c062001d7a565b5b620006cc8262000bba565b6004811115620006e157620006e062001d7a565b5b1462000724576040517f08c379a00000000000000000000000000000000000000000000000000000000081526004016200071b9062001a16565b60405180910390fd5b6200072f8262000abf565b73ffffffffffffffffffffffffffffffffffffffff16632e49d78b60036040518263ffffffff1660e01b81526004016200076a9190620019d7565b602060405180830381600087803b1580156200078557600080fd5b505af11580156200079a573d6000803e3d6000fd5b505050506040513d601f19601f82011682018060405250810190620007c0919062001742565b505050565b8060016004811115620007dd57620007dc62001d7a565b5b620007e88262000bba565b6004811115620007fd57620007fc62001d7a565b5b1462000840576040517f08c379a00000000000000000000000000000000000000000000000000000000081526004016200083790620019f4565b60405180910390fd5b6200084b8262000abf565b73ffffffffffffffffffffffffffffffffffffffff16632e49d78b60006040518263ffffffff1660e01b8152600401620008869190620019d7565b602060405180830381600087803b158015620008a157600080fd5b505af1158015620008b6573d6000803e3d6000fd5b505050506040513d601f19601f82011682018060405250810190620008dc919062001742565b505050565b8060026004811115620008f957620008f862001d7a565b5b620009048262000bba565b600481111562000919576200091862001d7a565b5b146200095c576040517f08c379a0000000000000000000000000000000000000000000000000000000008152600401620009539062001a16565b60405180910390fd5b600062000969836200052d565b63ffffffff1611620009b2576040517f08c379a0000000000000000000000000000000000000000000000000000000008152600401620009a99062001a38565b60405180910390fd5b6224ea00600260008481526020019081526020016000206000828254620009da919062001bbe565b92505081905550620009ec8262000abf565b73ffffffffffffffffffffffffffffffffffffffff1663d2895e93600162000a14856200052d565b62000a20919062001c1b565b6040518263ffffffff1660e01b815260040162000a3e919062001b11565b602060405180830381600087803b15801562000a5957600080fd5b505af115801562000a6e573d6000803e3d6000fd5b505050506040513d601f19601f8201168201806040525081019062000a949190620017d8565b505050565b62000aa362001433565b6000604051806020016040529081600082015481525050905090565b60006001600083815260200190815260200160002060009054906101000a900473ffffffffffffffffffffffffffffffffffffffff169050919050565b60006001600083815260200190815260200160002060009054906101000a900473ffffffffffffffffffffffffffffffffffffffff1673ffffffffffffffffffffffffffffffffffffffff1663603daf9a6040518163ffffffff1660e01b815260040160206040518083038186803b15801562000b7857600080fd5b505afa15801562000b8d573d6000803e3d6000fd5b505050506040513d601f19601f8201168201806040525081019062000bb39190620015b9565b9050919050565b60006001600083815260200190815260200160002060009054906101000a900473ffffffffffffffffffffffffffffffffffffffff1673ffffffffffffffffffffffffffffffffffffffff1663200d2ed26040518163ffffffff1660e01b815260040160206040518083038186803b15801562000c3657600080fd5b505afa15801562000c4b573d6000803e3d6000fd5b505050506040513d601f19601f8201168201806040525081019062000c71919062001742565b9050919050565b60006001600083815260200190815260200160002060009054906101000a900473ffffffffffffffffffffffffffffffffffffffff1673ffffffffffffffffffffffffffffffffffffffff16634c1786ea6040518163ffffffff1660e01b815260040160206040518083038186803b15801562000cf457600080fd5b505afa15801562000d09573d6000803e3d6000fd5b505050506040513d601f19601f8201168201806040525081019062000d2f9190620017a6565b9050919050565b600062000d4460006200140f565b600062000d52600062001425565b90506000898989888a898960405162000d6b9062001446565b62000d7d979695949392919062001a94565b604051809103906000f08015801562000d9a573d6000803e3d6000fd5b509050806001600084815260200190815260200160002060006101000a81548173ffffffffffffffffffffffffffffffffffffffff021916908373ffffffffffffffffffffffffffffffffffffffff1602179055508a62000e8c578073ffffffffffffffffffffffffffffffffffffffff1663e99d2866336040518263ffffffff1660e01b815260040162000e30919062001980565b602060405180830381600087803b15801562000e4b57600080fd5b505af115801562000e60573d6000803e3d6000fd5b505050506040513d601f19601f8201168201806040525081019062000e869190620015b9565b62000f1e565b8073ffffffffffffffffffffffffffffffffffffffff1663a3f09ad6336040518263ffffffff1660e01b815260040162000ec7919062001980565b602060405180830381600087803b15801562000ee257600080fd5b505af115801562000ef7573d6000803e3d6000fd5b505050506040513d601f19601f8201168201806040525081019062000f1d9190620015b9565b5b50819250505098975050505050505050565b600060026000838152602001908152602001600020549050919050565b62000f5762001454565b6001600083815260200190815260200160002060009054906101000a900473ffffffffffffffffffffffffffffffffffffffff1673ffffffffffffffffffffffffffffffffffffffff1663bd9a548b6040518163ffffffff1660e01b815260040160a06040518083038186803b15801562000fd157600080fd5b505afa15801562000fe6573d6000803e3d6000fd5b505050506040513d601f19601f820116820180604052508101906200100c9190620015eb565b9050919050565b60006001600083815260200190815260200160002060009054906101000a900473ffffffffffffffffffffffffffffffffffffffff1673ffffffffffffffffffffffffffffffffffffffff1663dbd0e1b66040518163ffffffff1660e01b815260040160206040518083038186803b1580156200108f57600080fd5b505afa158015620010a4573d6000803e3d6000fd5b505050506040513d601f19601f82011682018060405250810190620010ca9190620015b9565b9050919050565b60008160016004811115620010eb57620010ea62001d7a565b5b620010f68262000bba565b60048111156200110b576200110a62001d7a565b5b146200114e576040517f08c379a00000000000000000000000000000000000000000000000000000000081526004016200114590620019f4565b60405180910390fd5b60006001600085815260200190815260200160002060009054906101000a900473ffffffffffffffffffffffffffffffffffffffff1690508073ffffffffffffffffffffffffffffffffffffffff1663bef904e3866040518263ffffffff1660e01b8152600401620011c1919062001a77565b602060405180830381600087803b158015620011dc57600080fd5b505af1158015620011f1573d6000803e3d6000fd5b505050506040513d601f19601f82011682018060405250810190620012179190620017a6565b5085620012b5578073ffffffffffffffffffffffffffffffffffffffff1663a3f09ad6336040518263ffffffff1660e01b815260040162001259919062001980565b602060405180830381600087803b1580156200127457600080fd5b505af115801562001289573d6000803e3d6000fd5b505050506040513d601f19601f82011682018060405250810190620012af9190620015b9565b62001347565b8073ffffffffffffffffffffffffffffffffffffffff1663e99d2866336040518263ffffffff1660e01b8152600401620012f0919062001980565b602060405180830381600087803b1580156200130b57600080fd5b505af115801562001320573d6000803e3d6000fd5b505050506040513d601f19601f82011682018060405250810190620013469190620015b9565b5b506224ea004262001359919062001bbe565b60026000868152602001908152602001600020819055508073ffffffffffffffffffffffffffffffffffffffff16632e49d78b60026040518263ffffffff1660e01b8152600401620013ac9190620019d7565b602060405180830381600087803b158015620013c757600080fd5b505af1158015620013dc573d6000803e3d6000fd5b505050506040513d601f19601f8201168201806040525081019062001402919062001742565b5083925050509392505050565b6001816000016000828254019250508190555050565b600081600001549050919050565b6040518060200160405280600081525090565b611a278062001f5083390190565b6040518060a00160405280600590602082028036833780820191505090505090565b60006200148d620014878462001b57565b62001b2e565b90508082856020860282011115620014aa57620014a962001ddd565b5b60005b85811015620014de5781620014c3888262001574565b845260208401935060208301925050600181019050620014ad565b5050509392505050565b600081519050620014f98162001ed6565b92915050565b600082601f83011262001517576200151662001dd8565b5b60056200152684828562001476565b91505092915050565b600081359050620015408162001ef0565b92915050565b600081519050620015578162001f0a565b92915050565b6000813590506200156e8162001f1b565b92915050565b600081519050620015858162001f1b565b92915050565b6000813590506200159c8162001f35565b92915050565b600081519050620015b38162001f35565b92915050565b600060208284031215620015d257620015d162001de2565b5b6000620015e284828501620014e8565b91505092915050565b600060a0828403121562001604576200160362001de2565b5b60006200161484828501620014ff565b91505092915050565b60008060006060848603121562001639576200163862001de2565b5b600062001649868287016200152f565b93505060206200165c868287016200155d565b92505060406200166f868287016200155d565b9150509250925092565b600080600080600080600080610100898b0312156200169d576200169c62001de2565b5b6000620016ad8b828c016200152f565b9850506020620016c08b828c016200155d565b9750506040620016d38b828c016200155d565b9650506060620016e68b828c016200155d565b9550506080620016f98b828c016200155d565b94505060a06200170c8b828c016200155d565b93505060c06200171f8b828c016200158b565b92505060e0620017328b828c016200158b565b9150509295985092959890939650565b6000602082840312156200175b576200175a62001de2565b5b60006200176b8482850162001546565b91505092915050565b6000602082840312156200178d576200178c62001de2565b5b60006200179d848285016200155d565b91505092915050565b600060208284031215620017bf57620017be62001de2565b5b6000620017cf8482850162001574565b91505092915050565b600060208284031215620017f157620017f062001de2565b5b60006200180184828501620015a2565b91505092915050565b60006200181883836200194d565b60208301905092915050565b6200182f8162001c56565b82525050565b620018408162001b8a565b6200184c818462001ba2565b9250620018598262001b80565b8060005b83811015620018905781516200187487826200180a565b9650620018818362001b95565b9250506001810190506200185d565b505050505050565b620018a38162001cc5565b82525050565b620018b48162001cd9565b82525050565b6000620018c960278362001bad565b9150620018d68262001df8565b604082019050919050565b6000620018f060268362001bad565b9150620018fd8262001e47565b604082019050919050565b60006200191760138362001bad565b9150620019248262001e96565b602082019050919050565b6020820160008201516200194760008501826200194d565b50505050565b620019588162001cab565b82525050565b620019698162001cab565b82525050565b6200197a8162001cb5565b82525050565b600060208201905062001997600083018462001824565b92915050565b600060a082019050620019b4600083018462001835565b92915050565b6000602082019050620019d1600083018462001898565b92915050565b6000602082019050620019ee6000830184620018a9565b92915050565b6000602082019050818103600083015262001a0f81620018ba565b9050919050565b6000602082019050818103600083015262001a3181620018e1565b9050919050565b6000602082019050818103600083015262001a538162001908565b9050919050565b600060208201905062001a7160008301846200192f565b92915050565b600060208201905062001a8e60008301846200195e565b92915050565b600060e08201905062001aab600083018a6200195e565b62001aba60208301896200195e565b62001ac960408301886200195e565b62001ad860608301876200195e565b62001ae760808301866200195e565b62001af660a08301856200196f565b62001b0560c08301846200196f565b98975050505050505050565b600060208201905062001b2860008301846200196f565b92915050565b600062001b3a62001b4d565b905062001b48828262001d15565b919050565b6000604051905090565b600067ffffffffffffffff82111562001b755762001b7462001da9565b5b602082029050919050565b6000819050919050565b600060059050919050565b6000602082019050919050565b600081905092915050565b600082825260208201905092915050565b600062001bcb8262001cab565b915062001bd88362001cab565b9250827fffffffffffffffffffffffffffffffffffffffffffffffffffffffffffffffff0382111562001c105762001c0f62001d4b565b5b828201905092915050565b600062001c288262001cb5565b915062001c358362001cb5565b92508282101562001c4b5762001c4a62001d4b565b5b828203905092915050565b600062001c638262001c8b565b9050919050565b60008115159050919050565b600081905062001c868262001ebf565b919050565b600073ffffffffffffffffffffffffffffffffffffffff82169050919050565b6000819050919050565b600063ffffffff82169050919050565b600062001cd28262001ced565b9050919050565b600062001ce68262001c76565b9050919050565b600062001cfa8262001d01565b9050919050565b600062001d0e8262001c8b565b9050919050565b62001d208262001de7565b810181811067ffffffffffffffff8211171562001d425762001d4162001da9565b5b80604052505050565b7f4e487b7100000000000000000000000000000000000000000000000000000000600052601160045260246000fd5b7f4e487b7100000000000000000000000000000000000000000000000000000000600052602160045260246000fd5b7f4e487b7100000000000000000000000000000000000000000000000000000000600052604160045260246000fd5b600080fd5b600080fd5b600080fd5b6000601f19601f8301169050919050565b7f54686520737461747573206f6620746865204344532073686f756c642062652060008201527f70656e64696e6700000000000000000000000000000000000000000000000000602082015250565b7f54686520737461747573206f6620746865204344532073686f756c642062652060008201527f6163746976650000000000000000000000000000000000000000000000000000602082015250565b7f526f756e6420616c726561647920656e64656400000000000000000000000000600082015250565b6005811062001ed35762001ed262001d7a565b5b50565b62001ee18162001c56565b811462001eed57600080fd5b50565b62001efb8162001c6a565b811462001f0757600080fd5b50565b6005811062001f1857600080fd5b50565b62001f268162001cab565b811462001f3257600080fd5b50565b62001f408162001cb5565b811462001f4c57600080fd5b5056fe60806040523480156200001157600080fd5b5060405162001a2738038062001a278339818101604052810190620000379190620003f1565b620000576200004b6200028960201b60201c565b6200029160201b60201c565b733e0e765c10497bb01f562b2f9af50c621ab8eda4600160006101000a81548173ffffffffffffffffffffffffffffffffffffffff021916908373ffffffffffffffffffffffffffffffffffffffff160217905550866003819055508560048190555084600581905550836006819055508260078190555081600a60146101000a81548163ffffffff021916908363ffffffff16021790555081600a60186101000a81548163ffffffff021916908363ffffffff160217905550620001336005546007546003546200035560201b62000a4c179092919060201c565b60088190555060008163ffffffff16148062000155575060018163ffffffff16145b8062000167575060028163ffffffff16145b620001a9576040517f08c379a0000000000000000000000000000000000000000000000000000000008152600401620001a090620004cb565b60405180910390fd5b80600a601c6101000a81548163ffffffff021916908363ffffffff1602179055506000600960006101000a81548173ffffffffffffffffffffffffffffffffffffffff021916908373ffffffffffffffffffffffffffffffffffffffff1602179055506000600a60006101000a81548173ffffffffffffffffffffffffffffffffffffffff021916908373ffffffffffffffffffffffffffffffffffffffff1602179055506001600260146101000a81548160ff02191690836004811115620002775762000276620005e9565b5b0217905550505050505050506200067a565b600033905090565b60008060009054906101000a900473ffffffffffffffffffffffffffffffffffffffff169050816000806101000a81548173ffffffffffffffffffffffffffffffffffffffff021916908373ffffffffffffffffffffffffffffffffffffffff1602179055508173ffffffffffffffffffffffffffffffffffffffff168173ffffffffffffffffffffffffffffffffffffffff167f8be0079c531659141344cd1fd0a4f28419497f9722a3daafe3b4186f6b6457e060405160405180910390a35050565b60006200038a6200037584866200039360201b62000a7c1790919060201c565b83620003ab60201b62000a921790919060201c565b90509392505050565b60008183620003a3919062000536565b905092915050565b60008183620003bb9190620004fe565b905092915050565b600081519050620003d48162000646565b92915050565b600081519050620003eb8162000660565b92915050565b600080600080600080600060e0888a03121562000413576200041262000618565b5b6000620004238a828b01620003c3565b9750506020620004368a828b01620003c3565b9650506040620004498a828b01620003c3565b95505060606200045c8a828b01620003c3565b94505060806200046f8a828b01620003c3565b93505060a0620004828a828b01620003da565b92505060c0620004958a828b01620003da565b91505092959891949750929550565b6000620004b3601483620004ed565b9150620004c0826200061d565b602082019050919050565b60006020820190508181036000830152620004e681620004a4565b9050919050565b600082825260208201905092915050565b60006200050b8262000571565b9150620005188362000571565b9250826200052b576200052a620005ba565b5b828204905092915050565b6000620005438262000571565b9150620005508362000571565b9250828210156200056657620005656200058b565b5b828203905092915050565b6000819050919050565b600063ffffffff82169050919050565b7f4e487b7100000000000000000000000000000000000000000000000000000000600052601160045260246000fd5b7f4e487b7100000000000000000000000000000000000000000000000000000000600052601260045260246000fd5b7f4e487b7100000000000000000000000000000000000000000000000000000000600052602160045260246000fd5b600080fd5b7f4254433a302c204554483a312c204c494e4b3a32000000000000000000000000600082015250565b620006518162000571565b81146200065d57600080fd5b50565b6200066b816200057b565b81146200067757600080fd5b50565b61139d806200068a6000396000f3fe608060405234801561001057600080fd5b50600436106101735760003560e01c8063a2e800ad116100de578063d2895e9311610097578063e0a73a9311610071578063e0a73a9314610422578063e99d286614610440578063f26cc58e14610470578063f2fde38b1461048e57610173565b8063d2895e93146103b6578063dbd0e1b6146103e6578063dd22db801461040457610173565b8063a2e800ad146102de578063a3f09ad6146102fc578063a607a8d91461032c578063b6fc2d5f1461034a578063bd9a548b14610368578063bef904e31461038657610173565b8063603daf9a11610130578063603daf9a1461023e578063715018a61461025c578063762db7ee1461026657806386be75b7146102845780638a568299146102a25780638da5cb5b146102c057610173565b806315d655c914610178578063200d2ed2146101965780632dddd49c146101b45780632e49d78b146101d25780633fe3347a146102025780634c1786ea14610220575b600080fd5b6101806104aa565b60405161018d9190611050565b60405180910390f35b61019e6104b0565b6040516101ab9190610ff5565b60405180910390f35b6101bc6104c3565b6040516101c99190611050565b60405180910390f35b6101ec60048036038101906101e79190610e0b565b61056f565b6040516101f99190610ff5565b60405180910390f35b61020a6105ba565b604051610217919061106b565b60405180910390f35b6102286105d0565b6040516102359190611050565b60405180910390f35b6102466105d6565b6040516102539190610fbf565b60405180910390f35b610264610600565b005b61026e610614565b60405161027b9190611050565b60405180910390f35b61028c61061a565b6040516102999190611050565b60405180910390f35b6102aa610620565b6040516102b7919061106b565b60405180910390f35b6102c8610636565b6040516102d59190610fbf565b60405180910390f35b6102e661065f565b6040516102f3919061106b565b60405180910390f35b61031660048036038101906103119190610dde565b610675565b6040516103239190610fbf565b60405180910390f35b6103346106ea565b6040516103419190611050565b60405180910390f35b610352610796565b60405161035f9190611050565b60405180910390f35b61037061079c565b60405161037d9190610fda565b60405180910390f35b6103a0600480360381019061039b9190610e38565b6107da565b6040516103ad9190611050565b60405180910390f35b6103d060048036038101906103cb9190610e92565b6107ed565b6040516103dd919061106b565b60405180910390f35b6103ee610832565b6040516103fb9190610fbf565b60405180910390f35b61040c61085c565b6040516104199190611050565b60405180910390f35b61042a610908565b6040516104379190611050565b60405180910390f35b61045a60048036038101906104559190610dde565b61090e565b6040516104679190610fbf565b60405180910390f35b610478610983565b6040516104859190611050565b60405180910390f35b6104a860048036038101906104a39190610dde565b6109c8565b005b60045481565b600260149054906101000a900460ff1681565b600080600160009054906101000a900473ffffffffffffffffffffffffffffffffffffffff1673ffffffffffffffffffffffffffffffffffffffff16630cf785356040518163ffffffff1660e01b815260040160206040518083038186803b15801561052e57600080fd5b505afa158015610542573d6000803e3d6000fd5b505050506040513d601f19601f820116820180604052508101906105669190610e65565b90508091505090565b6000610579610aa8565b81600260146101000a81548160ff0219169083600481111561059e5761059d611252565b5b0217905550600260149054906101000a900460ff169050919050565b600a601c9054906101000a900463ffffffff1681565b60075481565b6000600960009054906101000a900473ffffffffffffffffffffffffffffffffffffffff16905090565b610608610aa8565b6106126000610b26565b565b60085481565b60035481565b600a60189054906101000a900463ffffffff1681565b60008060009054906101000a900473ffffffffffffffffffffffffffffffffffffffff16905090565b600a60149054906101000a900463ffffffff1681565b600061067f610aa8565b81600960006101000a81548173ffffffffffffffffffffffffffffffffffffffff021916908373ffffffffffffffffffffffffffffffffffffffff160217905550600960009054906101000a900473ffffffffffffffffffffffffffffffffffffffff169050919050565b600080600160009054906101000a900473ffffffffffffffffffffffffffffffffffffffff1673ffffffffffffffffffffffffffffffffffffffff1663ff186b2e6040518163ffffffff1660e01b815260040160206040518083038186803b15801561075557600080fd5b505afa158015610769573d6000803e3d6000fd5b505050506040513d601f19601f8201168201806040525081019061078d9190610e65565b90508091505090565b60055481565b6107a4610d53565b6040518060a001604052806003548152602001600454815260200160055481526020016006548152602001600754815250905090565b6000816003819055506003549050919050565b60006107f7610aa8565b81600a60146101000a81548163ffffffff021916908363ffffffff160217905550600a60149054906101000a900463ffffffff169050919050565b6000600a60009054906101000a900473ffffffffffffffffffffffffffffffffffffffff16905090565b600080600160009054906101000a900473ffffffffffffffffffffffffffffffffffffffff1673ffffffffffffffffffffffffffffffffffffffff1663a8ad52d16040518163ffffffff1660e01b815260040160206040518083038186803b1580156108c757600080fd5b505afa1580156108db573d6000803e3d6000fd5b505050506040513d601f19601f820116820180604052508101906108ff9190610e65565b90508091505090565b60065481565b6000610918610aa8565b81600a60006101000a81548173ffffffffffffffffffffffffffffffffffffffff021916908373ffffffffffffffffffffffffffffffffffffffff160217905550600a60009054906101000a900473ffffffffffffffffffffffffffffffffffffffff169050919050565b60008061098e610bea565b90508060045410156109a45760009150506109c5565b6109c160055460035483600754610cc5909392919063ffffffff16565b9150505b90565b6109d0610aa8565b600073ffffffffffffffffffffffffffffffffffffffff168173ffffffffffffffffffffffffffffffffffffffff161415610a40576040517f08c379a0000000000000000000000000000000000000000000000000000000008152600401610a3790611010565b60405180910390fd5b610a4981610b26565b50565b6000610a73610a648486610a7c90919063ffffffff16565b83610a9290919063ffffffff16565b90509392505050565b60008183610a8a919061114f565b905092915050565b60008183610aa091906110c4565b905092915050565b610ab0610d35565b73ffffffffffffffffffffffffffffffffffffffff16610ace610636565b73ffffffffffffffffffffffffffffffffffffffff1614610b24576040517f08c379a0000000000000000000000000000000000000000000000000000000008152600401610b1b90611030565b60405180910390fd5b565b60008060009054906101000a900473ffffffffffffffffffffffffffffffffffffffff169050816000806101000a81548173ffffffffffffffffffffffffffffffffffffffff021916908373ffffffffffffffffffffffffffffffffffffffff1602179055508173ffffffffffffffffffffffffffffffffffffffff168173ffffffffffffffffffffffffffffffffffffffff167f8be0079c531659141344cd1fd0a4f28419497f9722a3daafe3b4186f6b6457e060405160405180910390a35050565b600080600a601c9054906101000a900463ffffffff1663ffffffff161415610c3157610c2a6305f5e100610c1c61085c565b610a9290919063ffffffff16565b9050610cc2565b6001600a601c9054906101000a900463ffffffff1663ffffffff161415610c7757610c706305f5e100610c626106ea565b610a9290919063ffffffff16565b9050610cc2565b6002600a601c9054906101000a900463ffffffff1663ffffffff161415610cbd57610cb66305f5e100610ca86104c3565b610a9290919063ffffffff16565b9050610cc2565b600090505b90565b600080828510610cd757859050610d29565b6000610cfe610cef8787610a7c90919063ffffffff16565b88610a9290919063ffffffff16565b9050610d25610d168587610a7c90919063ffffffff16565b82610d3d90919063ffffffff16565b9150505b80915050949350505050565b600033905090565b60008183610d4b91906110f5565b905092915050565b6040518060a00160405280600590602082028036833780820191505090505090565b600081359050610d8481611312565b92915050565b600081359050610d9981611329565b92915050565b600081359050610dae81611339565b92915050565b600081519050610dc381611339565b92915050565b600081359050610dd881611350565b92915050565b600060208284031215610df457610df3611281565b5b6000610e0284828501610d75565b91505092915050565b600060208284031215610e2157610e20611281565b5b6000610e2f84828501610d8a565b91505092915050565b600060208284031215610e4e57610e4d611281565b5b6000610e5c84828501610d9f565b91505092915050565b600060208284031215610e7b57610e7a611281565b5b6000610e8984828501610db4565b91505092915050565b600060208284031215610ea857610ea7611281565b5b6000610eb684828501610dc9565b91505092915050565b6000610ecb8383610f92565b60208301905092915050565b610ee081611183565b82525050565b610eef81611090565b610ef981846110a8565b9250610f0482611086565b8060005b83811015610f35578151610f1c8782610ebf565b9650610f278361109b565b925050600181019050610f08565b505050505050565b610f46816111e2565b82525050565b6000610f596026836110b3565b9150610f6482611286565b604082019050919050565b6000610f7c6020836110b3565b9150610f87826112d5565b602082019050919050565b610f9b816111c8565b82525050565b610faa816111c8565b82525050565b610fb9816111d2565b82525050565b6000602082019050610fd46000830184610ed7565b92915050565b600060a082019050610fef6000830184610ee6565b92915050565b600060208201905061100a6000830184610f3d565b92915050565b6000602082019050818103600083015261102981610f4c565b9050919050565b6000602082019050818103600083015261104981610f6f565b9050919050565b60006020820190506110656000830184610fa1565b92915050565b60006020820190506110806000830184610fb0565b92915050565b6000819050919050565b600060059050919050565b6000602082019050919050565b600081905092915050565b600082825260208201905092915050565b60006110cf826111c8565b91506110da836111c8565b9250826110ea576110e9611223565b5b828204905092915050565b6000611100826111c8565b915061110b836111c8565b9250817fffffffffffffffffffffffffffffffffffffffffffffffffffffffffffffffff0483118215151615611144576111436111f4565b5b828202905092915050565b600061115a826111c8565b9150611165836111c8565b925082821015611178576111776111f4565b5b828203905092915050565b600061118e826111a8565b9050919050565b60008190506111a3826112fe565b919050565b600073ffffffffffffffffffffffffffffffffffffffff82169050919050565b6000819050919050565b600063ffffffff82169050919050565b60006111ed82611195565b9050919050565b7f4e487b7100000000000000000000000000000000000000000000000000000000600052601160045260246000fd5b7f4e487b7100000000000000000000000000000000000000000000000000000000600052601260045260246000fd5b7f4e487b7100000000000000000000000000000000000000000000000000000000600052602160045260246000fd5b600080fd5b7f4f776e61626c653a206e6577206f776e657220697320746865207a65726f206160008201527f6464726573730000000000000000000000000000000000000000000000000000602082015250565b7f4f776e61626c653a2063616c6c6572206973206e6f7420746865206f776e6572600082015250565b6005811061130f5761130e611252565b5b50565b61131b81611183565b811461132657600080fd5b50565b6005811061133657600080fd5b50565b611342816111c8565b811461134d57600080fd5b50565b611359816111d2565b811461136457600080fd5b5056fea26469706673582212207d137514ce3b0d2c869c398724d3828158c0cf47d8ce8178946b659ac013b39a64736f6c63430008070033a26469706673582212203fc6840b9a32c83c3a2791ab937b004daf774fd5805833b2cb30e7f0796ab7be64736f6c63430008070033",
					"opcodes": "PUSH1 0x80 PUSH1 0x40 MSTORE CALLVALUE DUP1 ISZERO PUSH2 0x10 JUMPI PUSH1 0x0 DUP1 REVERT JUMPDEST POP PUSH2 0x39AC DUP1 PUSH2 0x20 PUSH1 0x0 CODECOPY PUSH1 0x0 RETURN INVALID PUSH1 0x80 PUSH1 0x40 MSTORE CALLVALUE DUP1 ISZERO PUSH3 0x11 JUMPI PUSH1 0x0 DUP1 REVERT JUMPDEST POP PUSH1 0x4 CALLDATASIZE LT PUSH3 0x118 JUMPI PUSH1 0x0 CALLDATALOAD PUSH1 0xE0 SHR DUP1 PUSH4 0x5BF608B8 GT PUSH3 0xA5 JUMPI DUP1 PUSH4 0x8BFD13AE GT PUSH3 0x6F JUMPI DUP1 PUSH4 0x8BFD13AE EQ PUSH3 0x339 JUMPI DUP1 PUSH4 0x91492956 EQ PUSH3 0x36F JUMPI DUP1 PUSH4 0xD6A9DE51 EQ PUSH3 0x3A5 JUMPI DUP1 PUSH4 0xF566EDAC EQ PUSH3 0x3DB JUMPI PUSH3 0x118 JUMP JUMPDEST DUP1 PUSH4 0x5BF608B8 EQ PUSH3 0x261 JUMPI DUP1 PUSH4 0x5C622A0E EQ PUSH3 0x297 JUMPI DUP1 PUSH4 0x88106323 EQ PUSH3 0x2CD JUMPI DUP1 PUSH4 0x8A614DD5 EQ PUSH3 0x303 JUMPI PUSH3 0x118 JUMP JUMPDEST DUP1 PUSH4 0x40E58EE5 GT PUSH3 0xE7 JUMPI DUP1 PUSH4 0x40E58EE5 EQ PUSH3 0x1C9 JUMPI DUP1 PUSH4 0x4364B26E EQ PUSH3 0x1E9 JUMPI DUP1 PUSH4 0x496AB39A EQ PUSH3 0x209 JUMPI DUP1 PUSH4 0x4A0D89BA EQ PUSH3 0x22B JUMPI PUSH3 0x118 JUMP JUMPDEST DUP1 PUSH4 0xAEBEB4E EQ PUSH3 0x11D JUMPI DUP1 PUSH4 0x13EF3DCC EQ PUSH3 0x13D JUMPI DUP1 PUSH4 0x1BF1FFFB EQ PUSH3 0x173 JUMPI DUP1 PUSH4 0x379607F5 EQ PUSH3 0x1A9 JUMPI JUMPDEST PUSH1 0x0 DUP1 REVERT JUMPDEST PUSH3 0x13B PUSH1 0x4 DUP1 CALLDATASIZE SUB DUP2 ADD SWAP1 PUSH3 0x135 SWAP2 SWAP1 PUSH3 0x1774 JUMP JUMPDEST PUSH3 0x411 JUMP JUMPDEST STOP JUMPDEST PUSH3 0x15B PUSH1 0x4 DUP1 CALLDATASIZE SUB DUP2 ADD SWAP1 PUSH3 0x155 SWAP2 SWAP1 PUSH3 0x1774 JUMP JUMPDEST PUSH3 0x52D JUMP JUMPDEST PUSH1 0x40 MLOAD PUSH3 0x16A SWAP2 SWAP1 PUSH3 0x1B11 JUMP JUMPDEST PUSH1 0x40 MLOAD DUP1 SWAP2 SUB SWAP1 RETURN JUMPDEST PUSH3 0x191 PUSH1 0x4 DUP1 CALLDATASIZE SUB DUP2 ADD SWAP1 PUSH3 0x18B SWAP2 SWAP1 PUSH3 0x1774 JUMP JUMPDEST PUSH3 0x5EB JUMP JUMPDEST PUSH1 0x40 MLOAD PUSH3 0x1A0 SWAP2 SWAP1 PUSH3 0x1A77 JUMP JUMPDEST PUSH1 0x40 MLOAD DUP1 SWAP2 SUB SWAP1 RETURN JUMPDEST PUSH3 0x1C7 PUSH1 0x4 DUP1 CALLDATASIZE SUB DUP2 ADD SWAP1 PUSH3 0x1C1 SWAP2 SWAP1 PUSH3 0x1774 JUMP JUMPDEST PUSH3 0x6A9 JUMP JUMPDEST STOP JUMPDEST PUSH3 0x1E7 PUSH1 0x4 DUP1 CALLDATASIZE SUB DUP2 ADD SWAP1 PUSH3 0x1E1 SWAP2 SWAP1 PUSH3 0x1774 JUMP JUMPDEST PUSH3 0x7C5 JUMP JUMPDEST STOP JUMPDEST PUSH3 0x207 PUSH1 0x4 DUP1 CALLDATASIZE SUB DUP2 ADD SWAP1 PUSH3 0x201 SWAP2 SWAP1 PUSH3 0x1774 JUMP JUMPDEST PUSH3 0x8E1 JUMP JUMPDEST STOP JUMPDEST PUSH3 0x213 PUSH3 0xA99 JUMP JUMPDEST PUSH1 0x40 MLOAD PUSH3 0x222 SWAP2 SWAP1 PUSH3 0x1A5A JUMP JUMPDEST PUSH1 0x40 MLOAD DUP1 SWAP2 SUB SWAP1 RETURN JUMPDEST PUSH3 0x249 PUSH1 0x4 DUP1 CALLDATASIZE SUB DUP2 ADD SWAP1 PUSH3 0x243 SWAP2 SWAP1 PUSH3 0x1774 JUMP JUMPDEST PUSH3 0xABF JUMP JUMPDEST PUSH1 0x40 MLOAD PUSH3 0x258 SWAP2 SWAP1 PUSH3 0x19BA JUMP JUMPDEST PUSH1 0x40 MLOAD DUP1 SWAP2 SUB SWAP1 RETURN JUMPDEST PUSH3 0x27F PUSH1 0x4 DUP1 CALLDATASIZE SUB DUP2 ADD SWAP1 PUSH3 0x279 SWAP2 SWAP1 PUSH3 0x1774 JUMP JUMPDEST PUSH3 0xAFC JUMP JUMPDEST PUSH1 0x40 MLOAD PUSH3 0x28E SWAP2 SWAP1 PUSH3 0x1980 JUMP JUMPDEST PUSH1 0x40 MLOAD DUP1 SWAP2 SUB SWAP1 RETURN JUMPDEST PUSH3 0x2B5 PUSH1 0x4 DUP1 CALLDATASIZE SUB DUP2 ADD SWAP1 PUSH3 0x2AF SWAP2 SWAP1 PUSH3 0x1774 JUMP JUMPDEST PUSH3 0xBBA JUMP JUMPDEST PUSH1 0x40 MLOAD PUSH3 0x2C4 SWAP2 SWAP1 PUSH3 0x19D7 JUMP JUMPDEST PUSH1 0x40 MLOAD DUP1 SWAP2 SUB SWAP1 RETURN JUMPDEST PUSH3 0x2EB PUSH1 0x4 DUP1 CALLDATASIZE SUB DUP2 ADD SWAP1 PUSH3 0x2E5 SWAP2 SWAP1 PUSH3 0x1774 JUMP JUMPDEST PUSH3 0xC78 JUMP JUMPDEST PUSH1 0x40 MLOAD PUSH3 0x2FA SWAP2 SWAP1 PUSH3 0x1A77 JUMP JUMPDEST PUSH1 0x40 MLOAD DUP1 SWAP2 SUB SWAP1 RETURN JUMPDEST PUSH3 0x321 PUSH1 0x4 DUP1 CALLDATASIZE SUB DUP2 ADD SWAP1 PUSH3 0x31B SWAP2 SWAP1 PUSH3 0x1679 JUMP JUMPDEST PUSH3 0xD36 JUMP JUMPDEST PUSH1 0x40 MLOAD PUSH3 0x330 SWAP2 SWAP1 PUSH3 0x1A77 JUMP JUMPDEST PUSH1 0x40 MLOAD DUP1 SWAP2 SUB SWAP1 RETURN JUMPDEST PUSH3 0x357 PUSH1 0x4 DUP1 CALLDATASIZE SUB DUP2 ADD SWAP1 PUSH3 0x351 SWAP2 SWAP1 PUSH3 0x1774 JUMP JUMPDEST PUSH3 0xF30 JUMP JUMPDEST PUSH1 0x40 MLOAD PUSH3 0x366 SWAP2 SWAP1 PUSH3 0x1A77 JUMP JUMPDEST PUSH1 0x40 MLOAD DUP1 SWAP2 SUB SWAP1 RETURN JUMPDEST PUSH3 0x38D PUSH1 0x4 DUP1 CALLDATASIZE SUB DUP2 ADD SWAP1 PUSH3 0x387 SWAP2 SWAP1 PUSH3 0x1774 JUMP JUMPDEST PUSH3 0xF4D JUMP JUMPDEST PUSH1 0x40 MLOAD PUSH3 0x39C SWAP2 SWAP1 PUSH3 0x199D JUMP JUMPDEST PUSH1 0x40 MLOAD DUP1 SWAP2 SUB SWAP1 RETURN JUMPDEST PUSH3 0x3C3 PUSH1 0x4 DUP1 CALLDATASIZE SUB DUP2 ADD SWAP1 PUSH3 0x3BD SWAP2 SWAP1 PUSH3 0x1774 JUMP JUMPDEST PUSH3 0x1013 JUMP JUMPDEST PUSH1 0x40 MLOAD PUSH3 0x3D2 SWAP2 SWAP1 PUSH3 0x1980 JUMP JUMPDEST PUSH1 0x40 MLOAD DUP1 SWAP2 SUB SWAP1 RETURN JUMPDEST PUSH3 0x3F9 PUSH1 0x4 DUP1 CALLDATASIZE SUB DUP2 ADD SWAP1 PUSH3 0x3F3 SWAP2 SWAP1 PUSH3 0x161D JUMP JUMPDEST PUSH3 0x10D1 JUMP JUMPDEST PUSH1 0x40 MLOAD PUSH3 0x408 SWAP2 SWAP1 PUSH3 0x1A77 JUMP JUMPDEST PUSH1 0x40 MLOAD DUP1 SWAP2 SUB SWAP1 RETURN JUMPDEST DUP1 PUSH1 0x2 PUSH1 0x4 DUP2 GT ISZERO PUSH3 0x429 JUMPI PUSH3 0x428 PUSH3 0x1D7A JUMP JUMPDEST JUMPDEST PUSH3 0x434 DUP3 PUSH3 0xBBA JUMP JUMPDEST PUSH1 0x4 DUP2 GT ISZERO PUSH3 0x449 JUMPI PUSH3 0x448 PUSH3 0x1D7A JUMP JUMPDEST JUMPDEST EQ PUSH3 0x48C JUMPI PUSH1 0x40 MLOAD PUSH32 0x8C379A000000000000000000000000000000000000000000000000000000000 DUP2 MSTORE PUSH1 0x4 ADD PUSH3 0x483 SWAP1 PUSH3 0x1A16 JUMP JUMPDEST PUSH1 0x40 MLOAD DUP1 SWAP2 SUB SWAP1 REVERT JUMPDEST PUSH3 0x497 DUP3 PUSH3 0xABF JUMP JUMPDEST PUSH20 0xFFFFFFFFFFFFFFFFFFFFFFFFFFFFFFFFFFFFFFFF AND PUSH4 0x2E49D78B PUSH1 0x4 PUSH1 0x40 MLOAD DUP3 PUSH4 0xFFFFFFFF AND PUSH1 0xE0 SHL DUP2 MSTORE PUSH1 0x4 ADD PUSH3 0x4D2 SWAP2 SWAP1 PUSH3 0x19D7 JUMP JUMPDEST PUSH1 0x20 PUSH1 0x40 MLOAD DUP1 DUP4 SUB DUP2 PUSH1 0x0 DUP8 DUP1 EXTCODESIZE ISZERO DUP1 ISZERO PUSH3 0x4ED JUMPI PUSH1 0x0 DUP1 REVERT JUMPDEST POP GAS CALL ISZERO DUP1 ISZERO PUSH3 0x502 JUMPI RETURNDATASIZE PUSH1 0x0 DUP1 RETURNDATACOPY RETURNDATASIZE PUSH1 0x0 REVERT JUMPDEST POP POP POP POP PUSH1 0x40 MLOAD RETURNDATASIZE PUSH1 0x1F NOT PUSH1 0x1F DUP3 ADD AND DUP3 ADD DUP1 PUSH1 0x40 MSTORE POP DUP2 ADD SWAP1 PUSH3 0x528 SWAP2 SWAP1 PUSH3 0x1742 JUMP JUMPDEST POP POP POP JUMP JUMPDEST PUSH1 0x0 PUSH1 0x1 PUSH1 0x0 DUP4 DUP2 MSTORE PUSH1 0x20 ADD SWAP1 DUP2 MSTORE PUSH1 0x20 ADD PUSH1 0x0 KECCAK256 PUSH1 0x0 SWAP1 SLOAD SWAP1 PUSH2 0x100 EXP SWAP1 DIV PUSH20 0xFFFFFFFFFFFFFFFFFFFFFFFFFFFFFFFFFFFFFFFF AND PUSH20 0xFFFFFFFFFFFFFFFFFFFFFFFFFFFFFFFFFFFFFFFF AND PUSH4 0xA2E800AD PUSH1 0x40 MLOAD DUP2 PUSH4 0xFFFFFFFF AND PUSH1 0xE0 SHL DUP2 MSTORE PUSH1 0x4 ADD PUSH1 0x20 PUSH1 0x40 MLOAD DUP1 DUP4 SUB DUP2 DUP7 DUP1 EXTCODESIZE ISZERO DUP1 ISZERO PUSH3 0x5A9 JUMPI PUSH1 0x0 DUP1 REVERT JUMPDEST POP GAS STATICCALL ISZERO DUP1 ISZERO PUSH3 0x5BE JUMPI RETURNDATASIZE PUSH1 0x0 DUP1 RETURNDATACOPY RETURNDATASIZE PUSH1 0x0 REVERT JUMPDEST POP POP POP POP PUSH1 0x40 MLOAD RETURNDATASIZE PUSH1 0x1F NOT PUSH1 0x1F DUP3 ADD AND DUP3 ADD DUP1 PUSH1 0x40 MSTORE POP DUP2 ADD SWAP1 PUSH3 0x5E4 SWAP2 SWAP1 PUSH3 0x17D8 JUMP JUMPDEST SWAP1 POP SWAP2 SWAP1 POP JUMP JUMPDEST PUSH1 0x0 PUSH1 0x1 PUSH1 0x0 DUP4 DUP2 MSTORE PUSH1 0x20 ADD SWAP1 DUP2 MSTORE PUSH1 0x20 ADD PUSH1 0x0 KECCAK256 PUSH1 0x0 SWAP1 SLOAD SWAP1 PUSH2 0x100 EXP SWAP1 DIV PUSH20 0xFFFFFFFFFFFFFFFFFFFFFFFFFFFFFFFFFFFFFFFF AND PUSH20 0xFFFFFFFFFFFFFFFFFFFFFFFFFFFFFFFFFFFFFFFF AND PUSH4 0xE0A73A93 PUSH1 0x40 MLOAD DUP2 PUSH4 0xFFFFFFFF AND PUSH1 0xE0 SHL DUP2 MSTORE PUSH1 0x4 ADD PUSH1 0x20 PUSH1 0x40 MLOAD DUP1 DUP4 SUB DUP2 DUP7 DUP1 EXTCODESIZE ISZERO DUP1 ISZERO PUSH3 0x667 JUMPI PUSH1 0x0 DUP1 REVERT JUMPDEST POP GAS STATICCALL ISZERO DUP1 ISZERO PUSH3 0x67C JUMPI RETURNDATASIZE PUSH1 0x0 DUP1 RETURNDATACOPY RETURNDATASIZE PUSH1 0x0 REVERT JUMPDEST POP POP POP POP PUSH1 0x40 MLOAD RETURNDATASIZE PUSH1 0x1F NOT PUSH1 0x1F DUP3 ADD AND DUP3 ADD DUP1 PUSH1 0x40 MSTORE POP DUP2 ADD SWAP1 PUSH3 0x6A2 SWAP2 SWAP1 PUSH3 0x17A6 JUMP JUMPDEST SWAP1 POP SWAP2 SWAP1 POP JUMP JUMPDEST DUP1 PUSH1 0x2 PUSH1 0x4 DUP2 GT ISZERO PUSH3 0x6C1 JUMPI PUSH3 0x6C0 PUSH3 0x1D7A JUMP JUMPDEST JUMPDEST PUSH3 0x6CC DUP3 PUSH3 0xBBA JUMP JUMPDEST PUSH1 0x4 DUP2 GT ISZERO PUSH3 0x6E1 JUMPI PUSH3 0x6E0 PUSH3 0x1D7A JUMP JUMPDEST JUMPDEST EQ PUSH3 0x724 JUMPI PUSH1 0x40 MLOAD PUSH32 0x8C379A000000000000000000000000000000000000000000000000000000000 DUP2 MSTORE PUSH1 0x4 ADD PUSH3 0x71B SWAP1 PUSH3 0x1A16 JUMP JUMPDEST PUSH1 0x40 MLOAD DUP1 SWAP2 SUB SWAP1 REVERT JUMPDEST PUSH3 0x72F DUP3 PUSH3 0xABF JUMP JUMPDEST PUSH20 0xFFFFFFFFFFFFFFFFFFFFFFFFFFFFFFFFFFFFFFFF AND PUSH4 0x2E49D78B PUSH1 0x3 PUSH1 0x40 MLOAD DUP3 PUSH4 0xFFFFFFFF AND PUSH1 0xE0 SHL DUP2 MSTORE PUSH1 0x4 ADD PUSH3 0x76A SWAP2 SWAP1 PUSH3 0x19D7 JUMP JUMPDEST PUSH1 0x20 PUSH1 0x40 MLOAD DUP1 DUP4 SUB DUP2 PUSH1 0x0 DUP8 DUP1 EXTCODESIZE ISZERO DUP1 ISZERO PUSH3 0x785 JUMPI PUSH1 0x0 DUP1 REVERT JUMPDEST POP GAS CALL ISZERO DUP1 ISZERO PUSH3 0x79A JUMPI RETURNDATASIZE PUSH1 0x0 DUP1 RETURNDATACOPY RETURNDATASIZE PUSH1 0x0 REVERT JUMPDEST POP POP POP POP PUSH1 0x40 MLOAD RETURNDATASIZE PUSH1 0x1F NOT PUSH1 0x1F DUP3 ADD AND DUP3 ADD DUP1 PUSH1 0x40 MSTORE POP DUP2 ADD SWAP1 PUSH3 0x7C0 SWAP2 SWAP1 PUSH3 0x1742 JUMP JUMPDEST POP POP POP JUMP JUMPDEST DUP1 PUSH1 0x1 PUSH1 0x4 DUP2 GT ISZERO PUSH3 0x7DD JUMPI PUSH3 0x7DC PUSH3 0x1D7A JUMP JUMPDEST JUMPDEST PUSH3 0x7E8 DUP3 PUSH3 0xBBA JUMP JUMPDEST PUSH1 0x4 DUP2 GT ISZERO PUSH3 0x7FD JUMPI PUSH3 0x7FC PUSH3 0x1D7A JUMP JUMPDEST JUMPDEST EQ PUSH3 0x840 JUMPI PUSH1 0x40 MLOAD PUSH32 0x8C379A000000000000000000000000000000000000000000000000000000000 DUP2 MSTORE PUSH1 0x4 ADD PUSH3 0x837 SWAP1 PUSH3 0x19F4 JUMP JUMPDEST PUSH1 0x40 MLOAD DUP1 SWAP2 SUB SWAP1 REVERT JUMPDEST PUSH3 0x84B DUP3 PUSH3 0xABF JUMP JUMPDEST PUSH20 0xFFFFFFFFFFFFFFFFFFFFFFFFFFFFFFFFFFFFFFFF AND PUSH4 0x2E49D78B PUSH1 0x0 PUSH1 0x40 MLOAD DUP3 PUSH4 0xFFFFFFFF AND PUSH1 0xE0 SHL DUP2 MSTORE PUSH1 0x4 ADD PUSH3 0x886 SWAP2 SWAP1 PUSH3 0x19D7 JUMP JUMPDEST PUSH1 0x20 PUSH1 0x40 MLOAD DUP1 DUP4 SUB DUP2 PUSH1 0x0 DUP8 DUP1 EXTCODESIZE ISZERO DUP1 ISZERO PUSH3 0x8A1 JUMPI PUSH1 0x0 DUP1 REVERT JUMPDEST POP GAS CALL ISZERO DUP1 ISZERO PUSH3 0x8B6 JUMPI RETURNDATASIZE PUSH1 0x0 DUP1 RETURNDATACOPY RETURNDATASIZE PUSH1 0x0 REVERT JUMPDEST POP POP POP POP PUSH1 0x40 MLOAD RETURNDATASIZE PUSH1 0x1F NOT PUSH1 0x1F DUP3 ADD AND DUP3 ADD DUP1 PUSH1 0x40 MSTORE POP DUP2 ADD SWAP1 PUSH3 0x8DC SWAP2 SWAP1 PUSH3 0x1742 JUMP JUMPDEST POP POP POP JUMP JUMPDEST DUP1 PUSH1 0x2 PUSH1 0x4 DUP2 GT ISZERO PUSH3 0x8F9 JUMPI PUSH3 0x8F8 PUSH3 0x1D7A JUMP JUMPDEST JUMPDEST PUSH3 0x904 DUP3 PUSH3 0xBBA JUMP JUMPDEST PUSH1 0x4 DUP2 GT ISZERO PUSH3 0x919 JUMPI PUSH3 0x918 PUSH3 0x1D7A JUMP JUMPDEST JUMPDEST EQ PUSH3 0x95C JUMPI PUSH1 0x40 MLOAD PUSH32 0x8C379A000000000000000000000000000000000000000000000000000000000 DUP2 MSTORE PUSH1 0x4 ADD PUSH3 0x953 SWAP1 PUSH3 0x1A16 JUMP JUMPDEST PUSH1 0x40 MLOAD DUP1 SWAP2 SUB SWAP1 REVERT JUMPDEST PUSH1 0x0 PUSH3 0x969 DUP4 PUSH3 0x52D JUMP JUMPDEST PUSH4 0xFFFFFFFF AND GT PUSH3 0x9B2 JUMPI PUSH1 0x40 MLOAD PUSH32 0x8C379A000000000000000000000000000000000000000000000000000000000 DUP2 MSTORE PUSH1 0x4 ADD PUSH3 0x9A9 SWAP1 PUSH3 0x1A38 JUMP JUMPDEST PUSH1 0x40 MLOAD DUP1 SWAP2 SUB SWAP1 REVERT JUMPDEST PUSH3 0x24EA00 PUSH1 0x2 PUSH1 0x0 DUP5 DUP2 MSTORE PUSH1 0x20 ADD SWAP1 DUP2 MSTORE PUSH1 0x20 ADD PUSH1 0x0 KECCAK256 PUSH1 0x0 DUP3 DUP3 SLOAD PUSH3 0x9DA SWAP2 SWAP1 PUSH3 0x1BBE JUMP JUMPDEST SWAP3 POP POP DUP2 SWAP1 SSTORE POP PUSH3 0x9EC DUP3 PUSH3 0xABF JUMP JUMPDEST PUSH20 0xFFFFFFFFFFFFFFFFFFFFFFFFFFFFFFFFFFFFFFFF AND PUSH4 0xD2895E93 PUSH1 0x1 PUSH3 0xA14 DUP6 PUSH3 0x52D JUMP JUMPDEST PUSH3 0xA20 SWAP2 SWAP1 PUSH3 0x1C1B JUMP JUMPDEST PUSH1 0x40 MLOAD DUP3 PUSH4 0xFFFFFFFF AND PUSH1 0xE0 SHL DUP2 MSTORE PUSH1 0x4 ADD PUSH3 0xA3E SWAP2 SWAP1 PUSH3 0x1B11 JUMP JUMPDEST PUSH1 0x20 PUSH1 0x40 MLOAD DUP1 DUP4 SUB DUP2 PUSH1 0x0 DUP8 DUP1 EXTCODESIZE ISZERO DUP1 ISZERO PUSH3 0xA59 JUMPI PUSH1 0x0 DUP1 REVERT JUMPDEST POP GAS CALL ISZERO DUP1 ISZERO PUSH3 0xA6E JUMPI RETURNDATASIZE PUSH1 0x0 DUP1 RETURNDATACOPY RETURNDATASIZE PUSH1 0x0 REVERT JUMPDEST POP POP POP POP PUSH1 0x40 MLOAD RETURNDATASIZE PUSH1 0x1F NOT PUSH1 0x1F DUP3 ADD AND DUP3 ADD DUP1 PUSH1 0x40 MSTORE POP DUP2 ADD SWAP1 PUSH3 0xA94 SWAP2 SWAP1 PUSH3 0x17D8 JUMP JUMPDEST POP POP POP JUMP JUMPDEST PUSH3 0xAA3 PUSH3 0x1433 JUMP JUMPDEST PUSH1 0x0 PUSH1 0x40 MLOAD DUP1 PUSH1 0x20 ADD PUSH1 0x40 MSTORE SWAP1 DUP2 PUSH1 0x0 DUP3 ADD SLOAD DUP2 MSTORE POP POP SWAP1 POP SWAP1 JUMP JUMPDEST PUSH1 0x0 PUSH1 0x1 PUSH1 0x0 DUP4 DUP2 MSTORE PUSH1 0x20 ADD SWAP1 DUP2 MSTORE PUSH1 0x20 ADD PUSH1 0x0 KECCAK256 PUSH1 0x0 SWAP1 SLOAD SWAP1 PUSH2 0x100 EXP SWAP1 DIV PUSH20 0xFFFFFFFFFFFFFFFFFFFFFFFFFFFFFFFFFFFFFFFF AND SWAP1 POP SWAP2 SWAP1 POP JUMP JUMPDEST PUSH1 0x0 PUSH1 0x1 PUSH1 0x0 DUP4 DUP2 MSTORE PUSH1 0x20 ADD SWAP1 DUP2 MSTORE PUSH1 0x20 ADD PUSH1 0x0 KECCAK256 PUSH1 0x0 SWAP1 SLOAD SWAP1 PUSH2 0x100 EXP SWAP1 DIV PUSH20 0xFFFFFFFFFFFFFFFFFFFFFFFFFFFFFFFFFFFFFFFF AND PUSH20 0xFFFFFFFFFFFFFFFFFFFFFFFFFFFFFFFFFFFFFFFF AND PUSH4 0x603DAF9A PUSH1 0x40 MLOAD DUP2 PUSH4 0xFFFFFFFF AND PUSH1 0xE0 SHL DUP2 MSTORE PUSH1 0x4 ADD PUSH1 0x20 PUSH1 0x40 MLOAD DUP1 DUP4 SUB DUP2 DUP7 DUP1 EXTCODESIZE ISZERO DUP1 ISZERO PUSH3 0xB78 JUMPI PUSH1 0x0 DUP1 REVERT JUMPDEST POP GAS STATICCALL ISZERO DUP1 ISZERO PUSH3 0xB8D JUMPI RETURNDATASIZE PUSH1 0x0 DUP1 RETURNDATACOPY RETURNDATASIZE PUSH1 0x0 REVERT JUMPDEST POP POP POP POP PUSH1 0x40 MLOAD RETURNDATASIZE PUSH1 0x1F NOT PUSH1 0x1F DUP3 ADD AND DUP3 ADD DUP1 PUSH1 0x40 MSTORE POP DUP2 ADD SWAP1 PUSH3 0xBB3 SWAP2 SWAP1 PUSH3 0x15B9 JUMP JUMPDEST SWAP1 POP SWAP2 SWAP1 POP JUMP JUMPDEST PUSH1 0x0 PUSH1 0x1 PUSH1 0x0 DUP4 DUP2 MSTORE PUSH1 0x20 ADD SWAP1 DUP2 MSTORE PUSH1 0x20 ADD PUSH1 0x0 KECCAK256 PUSH1 0x0 SWAP1 SLOAD SWAP1 PUSH2 0x100 EXP SWAP1 DIV PUSH20 0xFFFFFFFFFFFFFFFFFFFFFFFFFFFFFFFFFFFFFFFF AND PUSH20 0xFFFFFFFFFFFFFFFFFFFFFFFFFFFFFFFFFFFFFFFF AND PUSH4 0x200D2ED2 PUSH1 0x40 MLOAD DUP2 PUSH4 0xFFFFFFFF AND PUSH1 0xE0 SHL DUP2 MSTORE PUSH1 0x4 ADD PUSH1 0x20 PUSH1 0x40 MLOAD DUP1 DUP4 SUB DUP2 DUP7 DUP1 EXTCODESIZE ISZERO DUP1 ISZERO PUSH3 0xC36 JUMPI PUSH1 0x0 DUP1 REVERT JUMPDEST POP GAS STATICCALL ISZERO DUP1 ISZERO PUSH3 0xC4B JUMPI RETURNDATASIZE PUSH1 0x0 DUP1 RETURNDATACOPY RETURNDATASIZE PUSH1 0x0 REVERT JUMPDEST POP POP POP POP PUSH1 0x40 MLOAD RETURNDATASIZE PUSH1 0x1F NOT PUSH1 0x1F DUP3 ADD AND DUP3 ADD DUP1 PUSH1 0x40 MSTORE POP DUP2 ADD SWAP1 PUSH3 0xC71 SWAP2 SWAP1 PUSH3 0x1742 JUMP JUMPDEST SWAP1 POP SWAP2 SWAP1 POP JUMP JUMPDEST PUSH1 0x0 PUSH1 0x1 PUSH1 0x0 DUP4 DUP2 MSTORE PUSH1 0x20 ADD SWAP1 DUP2 MSTORE PUSH1 0x20 ADD PUSH1 0x0 KECCAK256 PUSH1 0x0 SWAP1 SLOAD SWAP1 PUSH2 0x100 EXP SWAP1 DIV PUSH20 0xFFFFFFFFFFFFFFFFFFFFFFFFFFFFFFFFFFFFFFFF AND PUSH20 0xFFFFFFFFFFFFFFFFFFFFFFFFFFFFFFFFFFFFFFFF AND PUSH4 0x4C1786EA PUSH1 0x40 MLOAD DUP2 PUSH4 0xFFFFFFFF AND PUSH1 0xE0 SHL DUP2 MSTORE PUSH1 0x4 ADD PUSH1 0x20 PUSH1 0x40 MLOAD DUP1 DUP4 SUB DUP2 DUP7 DUP1 EXTCODESIZE ISZERO DUP1 ISZERO PUSH3 0xCF4 JUMPI PUSH1 0x0 DUP1 REVERT JUMPDEST POP GAS STATICCALL ISZERO DUP1 ISZERO PUSH3 0xD09 JUMPI RETURNDATASIZE PUSH1 0x0 DUP1 RETURNDATACOPY RETURNDATASIZE PUSH1 0x0 REVERT JUMPDEST POP POP POP POP PUSH1 0x40 MLOAD RETURNDATASIZE PUSH1 0x1F NOT PUSH1 0x1F DUP3 ADD AND DUP3 ADD DUP1 PUSH1 0x40 MSTORE POP DUP2 ADD SWAP1 PUSH3 0xD2F SWAP2 SWAP1 PUSH3 0x17A6 JUMP JUMPDEST SWAP1 POP SWAP2 SWAP1 POP JUMP JUMPDEST PUSH1 0x0 PUSH3 0xD44 PUSH1 0x0 PUSH3 0x140F JUMP JUMPDEST PUSH1 0x0 PUSH3 0xD52 PUSH1 0x0 PUSH3 0x1425 JUMP JUMPDEST SWAP1 POP PUSH1 0x0 DUP10 DUP10 DUP10 DUP9 DUP11 DUP10 DUP10 PUSH1 0x40 MLOAD PUSH3 0xD6B SWAP1 PUSH3 0x1446 JUMP JUMPDEST PUSH3 0xD7D SWAP8 SWAP7 SWAP6 SWAP5 SWAP4 SWAP3 SWAP2 SWAP1 PUSH3 0x1A94 JUMP JUMPDEST PUSH1 0x40 MLOAD DUP1 SWAP2 SUB SWAP1 PUSH1 0x0 CREATE DUP1 ISZERO DUP1 ISZERO PUSH3 0xD9A JUMPI RETURNDATASIZE PUSH1 0x0 DUP1 RETURNDATACOPY RETURNDATASIZE PUSH1 0x0 REVERT JUMPDEST POP SWAP1 POP DUP1 PUSH1 0x1 PUSH1 0x0 DUP5 DUP2 MSTORE PUSH1 0x20 ADD SWAP1 DUP2 MSTORE PUSH1 0x20 ADD PUSH1 0x0 KECCAK256 PUSH1 0x0 PUSH2 0x100 EXP DUP2 SLOAD DUP2 PUSH20 0xFFFFFFFFFFFFFFFFFFFFFFFFFFFFFFFFFFFFFFFF MUL NOT AND SWAP1 DUP4 PUSH20 0xFFFFFFFFFFFFFFFFFFFFFFFFFFFFFFFFFFFFFFFF AND MUL OR SWAP1 SSTORE POP DUP11 PUSH3 0xE8C JUMPI DUP1 PUSH20 0xFFFFFFFFFFFFFFFFFFFFFFFFFFFFFFFFFFFFFFFF AND PUSH4 0xE99D2866 CALLER PUSH1 0x40 MLOAD DUP3 PUSH4 0xFFFFFFFF AND PUSH1 0xE0 SHL DUP2 MSTORE PUSH1 0x4 ADD PUSH3 0xE30 SWAP2 SWAP1 PUSH3 0x1980 JUMP JUMPDEST PUSH1 0x20 PUSH1 0x40 MLOAD DUP1 DUP4 SUB DUP2 PUSH1 0x0 DUP8 DUP1 EXTCODESIZE ISZERO DUP1 ISZERO PUSH3 0xE4B JUMPI PUSH1 0x0 DUP1 REVERT JUMPDEST POP GAS CALL ISZERO DUP1 ISZERO PUSH3 0xE60 JUMPI RETURNDATASIZE PUSH1 0x0 DUP1 RETURNDATACOPY RETURNDATASIZE PUSH1 0x0 REVERT JUMPDEST POP POP POP POP PUSH1 0x40 MLOAD RETURNDATASIZE PUSH1 0x1F NOT PUSH1 0x1F DUP3 ADD AND DUP3 ADD DUP1 PUSH1 0x40 MSTORE POP DUP2 ADD SWAP1 PUSH3 0xE86 SWAP2 SWAP1 PUSH3 0x15B9 JUMP JUMPDEST PUSH3 0xF1E JUMP JUMPDEST DUP1 PUSH20 0xFFFFFFFFFFFFFFFFFFFFFFFFFFFFFFFFFFFFFFFF AND PUSH4 0xA3F09AD6 CALLER PUSH1 0x40 MLOAD DUP3 PUSH4 0xFFFFFFFF AND PUSH1 0xE0 SHL DUP2 MSTORE PUSH1 0x4 ADD PUSH3 0xEC7 SWAP2 SWAP1 PUSH3 0x1980 JUMP JUMPDEST PUSH1 0x20 PUSH1 0x40 MLOAD DUP1 DUP4 SUB DUP2 PUSH1 0x0 DUP8 DUP1 EXTCODESIZE ISZERO DUP1 ISZERO PUSH3 0xEE2 JUMPI PUSH1 0x0 DUP1 REVERT JUMPDEST POP GAS CALL ISZERO DUP1 ISZERO PUSH3 0xEF7 JUMPI RETURNDATASIZE PUSH1 0x0 DUP1 RETURNDATACOPY RETURNDATASIZE PUSH1 0x0 REVERT JUMPDEST POP POP POP POP PUSH1 0x40 MLOAD RETURNDATASIZE PUSH1 0x1F NOT PUSH1 0x1F DUP3 ADD AND DUP3 ADD DUP1 PUSH1 0x40 MSTORE POP DUP2 ADD SWAP1 PUSH3 0xF1D SWAP2 SWAP1 PUSH3 0x15B9 JUMP JUMPDEST JUMPDEST POP DUP2 SWAP3 POP POP POP SWAP9 SWAP8 POP POP POP POP POP POP POP POP JUMP JUMPDEST PUSH1 0x0 PUSH1 0x2 PUSH1 0x0 DUP4 DUP2 MSTORE PUSH1 0x20 ADD SWAP1 DUP2 MSTORE PUSH1 0x20 ADD PUSH1 0x0 KECCAK256 SLOAD SWAP1 POP SWAP2 SWAP1 POP JUMP JUMPDEST PUSH3 0xF57 PUSH3 0x1454 JUMP JUMPDEST PUSH1 0x1 PUSH1 0x0 DUP4 DUP2 MSTORE PUSH1 0x20 ADD SWAP1 DUP2 MSTORE PUSH1 0x20 ADD PUSH1 0x0 KECCAK256 PUSH1 0x0 SWAP1 SLOAD SWAP1 PUSH2 0x100 EXP SWAP1 DIV PUSH20 0xFFFFFFFFFFFFFFFFFFFFFFFFFFFFFFFFFFFFFFFF AND PUSH20 0xFFFFFFFFFFFFFFFFFFFFFFFFFFFFFFFFFFFFFFFF AND PUSH4 0xBD9A548B PUSH1 0x40 MLOAD DUP2 PUSH4 0xFFFFFFFF AND PUSH1 0xE0 SHL DUP2 MSTORE PUSH1 0x4 ADD PUSH1 0xA0 PUSH1 0x40 MLOAD DUP1 DUP4 SUB DUP2 DUP7 DUP1 EXTCODESIZE ISZERO DUP1 ISZERO PUSH3 0xFD1 JUMPI PUSH1 0x0 DUP1 REVERT JUMPDEST POP GAS STATICCALL ISZERO DUP1 ISZERO PUSH3 0xFE6 JUMPI RETURNDATASIZE PUSH1 0x0 DUP1 RETURNDATACOPY RETURNDATASIZE PUSH1 0x0 REVERT JUMPDEST POP POP POP POP PUSH1 0x40 MLOAD RETURNDATASIZE PUSH1 0x1F NOT PUSH1 0x1F DUP3 ADD AND DUP3 ADD DUP1 PUSH1 0x40 MSTORE POP DUP2 ADD SWAP1 PUSH3 0x100C SWAP2 SWAP1 PUSH3 0x15EB JUMP JUMPDEST SWAP1 POP SWAP2 SWAP1 POP JUMP JUMPDEST PUSH1 0x0 PUSH1 0x1 PUSH1 0x0 DUP4 DUP2 MSTORE PUSH1 0x20 ADD SWAP1 DUP2 MSTORE PUSH1 0x20 ADD PUSH1 0x0 KECCAK256 PUSH1 0x0 SWAP1 SLOAD SWAP1 PUSH2 0x100 EXP SWAP1 DIV PUSH20 0xFFFFFFFFFFFFFFFFFFFFFFFFFFFFFFFFFFFFFFFF AND PUSH20 0xFFFFFFFFFFFFFFFFFFFFFFFFFFFFFFFFFFFFFFFF AND PUSH4 0xDBD0E1B6 PUSH1 0x40 MLOAD DUP2 PUSH4 0xFFFFFFFF AND PUSH1 0xE0 SHL DUP2 MSTORE PUSH1 0x4 ADD PUSH1 0x20 PUSH1 0x40 MLOAD DUP1 DUP4 SUB DUP2 DUP7 DUP1 EXTCODESIZE ISZERO DUP1 ISZERO PUSH3 0x108F JUMPI PUSH1 0x0 DUP1 REVERT JUMPDEST POP GAS STATICCALL ISZERO DUP1 ISZERO PUSH3 0x10A4 JUMPI RETURNDATASIZE PUSH1 0x0 DUP1 RETURNDATACOPY RETURNDATASIZE PUSH1 0x0 REVERT JUMPDEST POP POP POP POP PUSH1 0x40 MLOAD RETURNDATASIZE PUSH1 0x1F NOT PUSH1 0x1F DUP3 ADD AND DUP3 ADD DUP1 PUSH1 0x40 MSTORE POP DUP2 ADD SWAP1 PUSH3 0x10CA SWAP2 SWAP1 PUSH3 0x15B9 JUMP JUMPDEST SWAP1 POP SWAP2 SWAP1 POP JUMP JUMPDEST PUSH1 0x0 DUP2 PUSH1 0x1 PUSH1 0x4 DUP2 GT ISZERO PUSH3 0x10EB JUMPI PUSH3 0x10EA PUSH3 0x1D7A JUMP JUMPDEST JUMPDEST PUSH3 0x10F6 DUP3 PUSH3 0xBBA JUMP JUMPDEST PUSH1 0x4 DUP2 GT ISZERO PUSH3 0x110B JUMPI PUSH3 0x110A PUSH3 0x1D7A JUMP JUMPDEST JUMPDEST EQ PUSH3 0x114E JUMPI PUSH1 0x40 MLOAD PUSH32 0x8C379A000000000000000000000000000000000000000000000000000000000 DUP2 MSTORE PUSH1 0x4 ADD PUSH3 0x1145 SWAP1 PUSH3 0x19F4 JUMP JUMPDEST PUSH1 0x40 MLOAD DUP1 SWAP2 SUB SWAP1 REVERT JUMPDEST PUSH1 0x0 PUSH1 0x1 PUSH1 0x0 DUP6 DUP2 MSTORE PUSH1 0x20 ADD SWAP1 DUP2 MSTORE PUSH1 0x20 ADD PUSH1 0x0 KECCAK256 PUSH1 0x0 SWAP1 SLOAD SWAP1 PUSH2 0x100 EXP SWAP1 DIV PUSH20 0xFFFFFFFFFFFFFFFFFFFFFFFFFFFFFFFFFFFFFFFF AND SWAP1 POP DUP1 PUSH20 0xFFFFFFFFFFFFFFFFFFFFFFFFFFFFFFFFFFFFFFFF AND PUSH4 0xBEF904E3 DUP7 PUSH1 0x40 MLOAD DUP3 PUSH4 0xFFFFFFFF AND PUSH1 0xE0 SHL DUP2 MSTORE PUSH1 0x4 ADD PUSH3 0x11C1 SWAP2 SWAP1 PUSH3 0x1A77 JUMP JUMPDEST PUSH1 0x20 PUSH1 0x40 MLOAD DUP1 DUP4 SUB DUP2 PUSH1 0x0 DUP8 DUP1 EXTCODESIZE ISZERO DUP1 ISZERO PUSH3 0x11DC JUMPI PUSH1 0x0 DUP1 REVERT JUMPDEST POP GAS CALL ISZERO DUP1 ISZERO PUSH3 0x11F1 JUMPI RETURNDATASIZE PUSH1 0x0 DUP1 RETURNDATACOPY RETURNDATASIZE PUSH1 0x0 REVERT JUMPDEST POP POP POP POP PUSH1 0x40 MLOAD RETURNDATASIZE PUSH1 0x1F NOT PUSH1 0x1F DUP3 ADD AND DUP3 ADD DUP1 PUSH1 0x40 MSTORE POP DUP2 ADD SWAP1 PUSH3 0x1217 SWAP2 SWAP1 PUSH3 0x17A6 JUMP JUMPDEST POP DUP6 PUSH3 0x12B5 JUMPI DUP1 PUSH20 0xFFFFFFFFFFFFFFFFFFFFFFFFFFFFFFFFFFFFFFFF AND PUSH4 0xA3F09AD6 CALLER PUSH1 0x40 MLOAD DUP3 PUSH4 0xFFFFFFFF AND PUSH1 0xE0 SHL DUP2 MSTORE PUSH1 0x4 ADD PUSH3 0x1259 SWAP2 SWAP1 PUSH3 0x1980 JUMP JUMPDEST PUSH1 0x20 PUSH1 0x40 MLOAD DUP1 DUP4 SUB DUP2 PUSH1 0x0 DUP8 DUP1 EXTCODESIZE ISZERO DUP1 ISZERO PUSH3 0x1274 JUMPI PUSH1 0x0 DUP1 REVERT JUMPDEST POP GAS CALL ISZERO DUP1 ISZERO PUSH3 0x1289 JUMPI RETURNDATASIZE PUSH1 0x0 DUP1 RETURNDATACOPY RETURNDATASIZE PUSH1 0x0 REVERT JUMPDEST POP POP POP POP PUSH1 0x40 MLOAD RETURNDATASIZE PUSH1 0x1F NOT PUSH1 0x1F DUP3 ADD AND DUP3 ADD DUP1 PUSH1 0x40 MSTORE POP DUP2 ADD SWAP1 PUSH3 0x12AF SWAP2 SWAP1 PUSH3 0x15B9 JUMP JUMPDEST PUSH3 0x1347 JUMP JUMPDEST DUP1 PUSH20 0xFFFFFFFFFFFFFFFFFFFFFFFFFFFFFFFFFFFFFFFF AND PUSH4 0xE99D2866 CALLER PUSH1 0x40 MLOAD DUP3 PUSH4 0xFFFFFFFF AND PUSH1 0xE0 SHL DUP2 MSTORE PUSH1 0x4 ADD PUSH3 0x12F0 SWAP2 SWAP1 PUSH3 0x1980 JUMP JUMPDEST PUSH1 0x20 PUSH1 0x40 MLOAD DUP1 DUP4 SUB DUP2 PUSH1 0x0 DUP8 DUP1 EXTCODESIZE ISZERO DUP1 ISZERO PUSH3 0x130B JUMPI PUSH1 0x0 DUP1 REVERT JUMPDEST POP GAS CALL ISZERO DUP1 ISZERO PUSH3 0x1320 JUMPI RETURNDATASIZE PUSH1 0x0 DUP1 RETURNDATACOPY RETURNDATASIZE PUSH1 0x0 REVERT JUMPDEST POP POP POP POP PUSH1 0x40 MLOAD RETURNDATASIZE PUSH1 0x1F NOT PUSH1 0x1F DUP3 ADD AND DUP3 ADD DUP1 PUSH1 0x40 MSTORE POP DUP2 ADD SWAP1 PUSH3 0x1346 SWAP2 SWAP1 PUSH3 0x15B9 JUMP JUMPDEST JUMPDEST POP PUSH3 0x24EA00 TIMESTAMP PUSH3 0x1359 SWAP2 SWAP1 PUSH3 0x1BBE JUMP JUMPDEST PUSH1 0x2 PUSH1 0x0 DUP7 DUP2 MSTORE PUSH1 0x20 ADD SWAP1 DUP2 MSTORE PUSH1 0x20 ADD PUSH1 0x0 KECCAK256 DUP2 SWAP1 SSTORE POP DUP1 PUSH20 0xFFFFFFFFFFFFFFFFFFFFFFFFFFFFFFFFFFFFFFFF AND PUSH4 0x2E49D78B PUSH1 0x2 PUSH1 0x40 MLOAD DUP3 PUSH4 0xFFFFFFFF AND PUSH1 0xE0 SHL DUP2 MSTORE PUSH1 0x4 ADD PUSH3 0x13AC SWAP2 SWAP1 PUSH3 0x19D7 JUMP JUMPDEST PUSH1 0x20 PUSH1 0x40 MLOAD DUP1 DUP4 SUB DUP2 PUSH1 0x0 DUP8 DUP1 EXTCODESIZE ISZERO DUP1 ISZERO PUSH3 0x13C7 JUMPI PUSH1 0x0 DUP1 REVERT JUMPDEST POP GAS CALL ISZERO DUP1 ISZERO PUSH3 0x13DC JUMPI RETURNDATASIZE PUSH1 0x0 DUP1 RETURNDATACOPY RETURNDATASIZE PUSH1 0x0 REVERT JUMPDEST POP POP POP POP PUSH1 0x40 MLOAD RETURNDATASIZE PUSH1 0x1F NOT PUSH1 0x1F DUP3 ADD AND DUP3 ADD DUP1 PUSH1 0x40 MSTORE POP DUP2 ADD SWAP1 PUSH3 0x1402 SWAP2 SWAP1 PUSH3 0x1742 JUMP JUMPDEST POP DUP4 SWAP3 POP POP POP SWAP4 SWAP3 POP POP POP JUMP JUMPDEST PUSH1 0x1 DUP2 PUSH1 0x0 ADD PUSH1 0x0 DUP3 DUP3 SLOAD ADD SWAP3 POP POP DUP2 SWAP1 SSTORE POP POP JUMP JUMPDEST PUSH1 0x0 DUP2 PUSH1 0x0 ADD SLOAD SWAP1 POP SWAP2 SWAP1 POP JUMP JUMPDEST PUSH1 0x40 MLOAD DUP1 PUSH1 0x20 ADD PUSH1 0x40 MSTORE DUP1 PUSH1 0x0 DUP2 MSTORE POP SWAP1 JUMP JUMPDEST PUSH2 0x1A27 DUP1 PUSH3 0x1F50 DUP4 CODECOPY ADD SWAP1 JUMP JUMPDEST PUSH1 0x40 MLOAD DUP1 PUSH1 0xA0 ADD PUSH1 0x40 MSTORE DUP1 PUSH1 0x5 SWAP1 PUSH1 0x20 DUP3 MUL DUP1 CALLDATASIZE DUP4 CALLDATACOPY DUP1 DUP3 ADD SWAP2 POP POP SWAP1 POP POP SWAP1 JUMP JUMPDEST PUSH1 0x0 PUSH3 0x148D PUSH3 0x1487 DUP5 PUSH3 0x1B57 JUMP JUMPDEST PUSH3 0x1B2E JUMP JUMPDEST SWAP1 POP DUP1 DUP3 DUP6 PUSH1 0x20 DUP7 MUL DUP3 ADD GT ISZERO PUSH3 0x14AA JUMPI PUSH3 0x14A9 PUSH3 0x1DDD JUMP JUMPDEST JUMPDEST PUSH1 0x0 JUMPDEST DUP6 DUP2 LT ISZERO PUSH3 0x14DE JUMPI DUP2 PUSH3 0x14C3 DUP9 DUP3 PUSH3 0x1574 JUMP JUMPDEST DUP5 MSTORE PUSH1 0x20 DUP5 ADD SWAP4 POP PUSH1 0x20 DUP4 ADD SWAP3 POP POP PUSH1 0x1 DUP2 ADD SWAP1 POP PUSH3 0x14AD JUMP JUMPDEST POP POP POP SWAP4 SWAP3 POP POP POP JUMP JUMPDEST PUSH1 0x0 DUP2 MLOAD SWAP1 POP PUSH3 0x14F9 DUP2 PUSH3 0x1ED6 JUMP JUMPDEST SWAP3 SWAP2 POP POP JUMP JUMPDEST PUSH1 0x0 DUP3 PUSH1 0x1F DUP4 ADD SLT PUSH3 0x1517 JUMPI PUSH3 0x1516 PUSH3 0x1DD8 JUMP JUMPDEST JUMPDEST PUSH1 0x5 PUSH3 0x1526 DUP5 DUP3 DUP6 PUSH3 0x1476 JUMP JUMPDEST SWAP2 POP POP SWAP3 SWAP2 POP POP JUMP JUMPDEST PUSH1 0x0 DUP2 CALLDATALOAD SWAP1 POP PUSH3 0x1540 DUP2 PUSH3 0x1EF0 JUMP JUMPDEST SWAP3 SWAP2 POP POP JUMP JUMPDEST PUSH1 0x0 DUP2 MLOAD SWAP1 POP PUSH3 0x1557 DUP2 PUSH3 0x1F0A JUMP JUMPDEST SWAP3 SWAP2 POP POP JUMP JUMPDEST PUSH1 0x0 DUP2 CALLDATALOAD SWAP1 POP PUSH3 0x156E DUP2 PUSH3 0x1F1B JUMP JUMPDEST SWAP3 SWAP2 POP POP JUMP JUMPDEST PUSH1 0x0 DUP2 MLOAD SWAP1 POP PUSH3 0x1585 DUP2 PUSH3 0x1F1B JUMP JUMPDEST SWAP3 SWAP2 POP POP JUMP JUMPDEST PUSH1 0x0 DUP2 CALLDATALOAD SWAP1 POP PUSH3 0x159C DUP2 PUSH3 0x1F35 JUMP JUMPDEST SWAP3 SWAP2 POP POP JUMP JUMPDEST PUSH1 0x0 DUP2 MLOAD SWAP1 POP PUSH3 0x15B3 DUP2 PUSH3 0x1F35 JUMP JUMPDEST SWAP3 SWAP2 POP POP JUMP JUMPDEST PUSH1 0x0 PUSH1 0x20 DUP3 DUP5 SUB SLT ISZERO PUSH3 0x15D2 JUMPI PUSH3 0x15D1 PUSH3 0x1DE2 JUMP JUMPDEST JUMPDEST PUSH1 0x0 PUSH3 0x15E2 DUP5 DUP3 DUP6 ADD PUSH3 0x14E8 JUMP JUMPDEST SWAP2 POP POP SWAP3 SWAP2 POP POP JUMP JUMPDEST PUSH1 0x0 PUSH1 0xA0 DUP3 DUP5 SUB SLT ISZERO PUSH3 0x1604 JUMPI PUSH3 0x1603 PUSH3 0x1DE2 JUMP JUMPDEST JUMPDEST PUSH1 0x0 PUSH3 0x1614 DUP5 DUP3 DUP6 ADD PUSH3 0x14FF JUMP JUMPDEST SWAP2 POP POP SWAP3 SWAP2 POP POP JUMP JUMPDEST PUSH1 0x0 DUP1 PUSH1 0x0 PUSH1 0x60 DUP5 DUP7 SUB SLT ISZERO PUSH3 0x1639 JUMPI PUSH3 0x1638 PUSH3 0x1DE2 JUMP JUMPDEST JUMPDEST PUSH1 0x0 PUSH3 0x1649 DUP7 DUP3 DUP8 ADD PUSH3 0x152F JUMP JUMPDEST SWAP4 POP POP PUSH1 0x20 PUSH3 0x165C DUP7 DUP3 DUP8 ADD PUSH3 0x155D JUMP JUMPDEST SWAP3 POP POP PUSH1 0x40 PUSH3 0x166F DUP7 DUP3 DUP8 ADD PUSH3 0x155D JUMP JUMPDEST SWAP2 POP POP SWAP3 POP SWAP3 POP SWAP3 JUMP JUMPDEST PUSH1 0x0 DUP1 PUSH1 0x0 DUP1 PUSH1 0x0 DUP1 PUSH1 0x0 DUP1 PUSH2 0x100 DUP10 DUP12 SUB SLT ISZERO PUSH3 0x169D JUMPI PUSH3 0x169C PUSH3 0x1DE2 JUMP JUMPDEST JUMPDEST PUSH1 0x0 PUSH3 0x16AD DUP12 DUP3 DUP13 ADD PUSH3 0x152F JUMP JUMPDEST SWAP9 POP POP PUSH1 0x20 PUSH3 0x16C0 DUP12 DUP3 DUP13 ADD PUSH3 0x155D JUMP JUMPDEST SWAP8 POP POP PUSH1 0x40 PUSH3 0x16D3 DUP12 DUP3 DUP13 ADD PUSH3 0x155D JUMP JUMPDEST SWAP7 POP POP PUSH1 0x60 PUSH3 0x16E6 DUP12 DUP3 DUP13 ADD PUSH3 0x155D JUMP JUMPDEST SWAP6 POP POP PUSH1 0x80 PUSH3 0x16F9 DUP12 DUP3 DUP13 ADD PUSH3 0x155D JUMP JUMPDEST SWAP5 POP POP PUSH1 0xA0 PUSH3 0x170C DUP12 DUP3 DUP13 ADD PUSH3 0x155D JUMP JUMPDEST SWAP4 POP POP PUSH1 0xC0 PUSH3 0x171F DUP12 DUP3 DUP13 ADD PUSH3 0x158B JUMP JUMPDEST SWAP3 POP POP PUSH1 0xE0 PUSH3 0x1732 DUP12 DUP3 DUP13 ADD PUSH3 0x158B JUMP JUMPDEST SWAP2 POP POP SWAP3 SWAP6 SWAP9 POP SWAP3 SWAP6 SWAP9 SWAP1 SWAP4 SWAP7 POP JUMP JUMPDEST PUSH1 0x0 PUSH1 0x20 DUP3 DUP5 SUB SLT ISZERO PUSH3 0x175B JUMPI PUSH3 0x175A PUSH3 0x1DE2 JUMP JUMPDEST JUMPDEST PUSH1 0x0 PUSH3 0x176B DUP5 DUP3 DUP6 ADD PUSH3 0x1546 JUMP JUMPDEST SWAP2 POP POP SWAP3 SWAP2 POP POP JUMP JUMPDEST PUSH1 0x0 PUSH1 0x20 DUP3 DUP5 SUB SLT ISZERO PUSH3 0x178D JUMPI PUSH3 0x178C PUSH3 0x1DE2 JUMP JUMPDEST JUMPDEST PUSH1 0x0 PUSH3 0x179D DUP5 DUP3 DUP6 ADD PUSH3 0x155D JUMP JUMPDEST SWAP2 POP POP SWAP3 SWAP2 POP POP JUMP JUMPDEST PUSH1 0x0 PUSH1 0x20 DUP3 DUP5 SUB SLT ISZERO PUSH3 0x17BF JUMPI PUSH3 0x17BE PUSH3 0x1DE2 JUMP JUMPDEST JUMPDEST PUSH1 0x0 PUSH3 0x17CF DUP5 DUP3 DUP6 ADD PUSH3 0x1574 JUMP JUMPDEST SWAP2 POP POP SWAP3 SWAP2 POP POP JUMP JUMPDEST PUSH1 0x0 PUSH1 0x20 DUP3 DUP5 SUB SLT ISZERO PUSH3 0x17F1 JUMPI PUSH3 0x17F0 PUSH3 0x1DE2 JUMP JUMPDEST JUMPDEST PUSH1 0x0 PUSH3 0x1801 DUP5 DUP3 DUP6 ADD PUSH3 0x15A2 JUMP JUMPDEST SWAP2 POP POP SWAP3 SWAP2 POP POP JUMP JUMPDEST PUSH1 0x0 PUSH3 0x1818 DUP4 DUP4 PUSH3 0x194D JUMP JUMPDEST PUSH1 0x20 DUP4 ADD SWAP1 POP SWAP3 SWAP2 POP POP JUMP JUMPDEST PUSH3 0x182F DUP2 PUSH3 0x1C56 JUMP JUMPDEST DUP3 MSTORE POP POP JUMP JUMPDEST PUSH3 0x1840 DUP2 PUSH3 0x1B8A JUMP JUMPDEST PUSH3 0x184C DUP2 DUP5 PUSH3 0x1BA2 JUMP JUMPDEST SWAP3 POP PUSH3 0x1859 DUP3 PUSH3 0x1B80 JUMP JUMPDEST DUP1 PUSH1 0x0 JUMPDEST DUP4 DUP2 LT ISZERO PUSH3 0x1890 JUMPI DUP2 MLOAD PUSH3 0x1874 DUP8 DUP3 PUSH3 0x180A JUMP JUMPDEST SWAP7 POP PUSH3 0x1881 DUP4 PUSH3 0x1B95 JUMP JUMPDEST SWAP3 POP POP PUSH1 0x1 DUP2 ADD SWAP1 POP PUSH3 0x185D JUMP JUMPDEST POP POP POP POP POP POP JUMP JUMPDEST PUSH3 0x18A3 DUP2 PUSH3 0x1CC5 JUMP JUMPDEST DUP3 MSTORE POP POP JUMP JUMPDEST PUSH3 0x18B4 DUP2 PUSH3 0x1CD9 JUMP JUMPDEST DUP3 MSTORE POP POP JUMP JUMPDEST PUSH1 0x0 PUSH3 0x18C9 PUSH1 0x27 DUP4 PUSH3 0x1BAD JUMP JUMPDEST SWAP2 POP PUSH3 0x18D6 DUP3 PUSH3 0x1DF8 JUMP JUMPDEST PUSH1 0x40 DUP3 ADD SWAP1 POP SWAP2 SWAP1 POP JUMP JUMPDEST PUSH1 0x0 PUSH3 0x18F0 PUSH1 0x26 DUP4 PUSH3 0x1BAD JUMP JUMPDEST SWAP2 POP PUSH3 0x18FD DUP3 PUSH3 0x1E47 JUMP JUMPDEST PUSH1 0x40 DUP3 ADD SWAP1 POP SWAP2 SWAP1 POP JUMP JUMPDEST PUSH1 0x0 PUSH3 0x1917 PUSH1 0x13 DUP4 PUSH3 0x1BAD JUMP JUMPDEST SWAP2 POP PUSH3 0x1924 DUP3 PUSH3 0x1E96 JUMP JUMPDEST PUSH1 0x20 DUP3 ADD SWAP1 POP SWAP2 SWAP1 POP JUMP JUMPDEST PUSH1 0x20 DUP3 ADD PUSH1 0x0 DUP3 ADD MLOAD PUSH3 0x1947 PUSH1 0x0 DUP6 ADD DUP3 PUSH3 0x194D JUMP JUMPDEST POP POP POP POP JUMP JUMPDEST PUSH3 0x1958 DUP2 PUSH3 0x1CAB JUMP JUMPDEST DUP3 MSTORE POP POP JUMP JUMPDEST PUSH3 0x1969 DUP2 PUSH3 0x1CAB JUMP JUMPDEST DUP3 MSTORE POP POP JUMP JUMPDEST PUSH3 0x197A DUP2 PUSH3 0x1CB5 JUMP JUMPDEST DUP3 MSTORE POP POP JUMP JUMPDEST PUSH1 0x0 PUSH1 0x20 DUP3 ADD SWAP1 POP PUSH3 0x1997 PUSH1 0x0 DUP4 ADD DUP5 PUSH3 0x1824 JUMP JUMPDEST SWAP3 SWAP2 POP POP JUMP JUMPDEST PUSH1 0x0 PUSH1 0xA0 DUP3 ADD SWAP1 POP PUSH3 0x19B4 PUSH1 0x0 DUP4 ADD DUP5 PUSH3 0x1835 JUMP JUMPDEST SWAP3 SWAP2 POP POP JUMP JUMPDEST PUSH1 0x0 PUSH1 0x20 DUP3 ADD SWAP1 POP PUSH3 0x19D1 PUSH1 0x0 DUP4 ADD DUP5 PUSH3 0x1898 JUMP JUMPDEST SWAP3 SWAP2 POP POP JUMP JUMPDEST PUSH1 0x0 PUSH1 0x20 DUP3 ADD SWAP1 POP PUSH3 0x19EE PUSH1 0x0 DUP4 ADD DUP5 PUSH3 0x18A9 JUMP JUMPDEST SWAP3 SWAP2 POP POP JUMP JUMPDEST PUSH1 0x0 PUSH1 0x20 DUP3 ADD SWAP1 POP DUP2 DUP2 SUB PUSH1 0x0 DUP4 ADD MSTORE PUSH3 0x1A0F DUP2 PUSH3 0x18BA JUMP JUMPDEST SWAP1 POP SWAP2 SWAP1 POP JUMP JUMPDEST PUSH1 0x0 PUSH1 0x20 DUP3 ADD SWAP1 POP DUP2 DUP2 SUB PUSH1 0x0 DUP4 ADD MSTORE PUSH3 0x1A31 DUP2 PUSH3 0x18E1 JUMP JUMPDEST SWAP1 POP SWAP2 SWAP1 POP JUMP JUMPDEST PUSH1 0x0 PUSH1 0x20 DUP3 ADD SWAP1 POP DUP2 DUP2 SUB PUSH1 0x0 DUP4 ADD MSTORE PUSH3 0x1A53 DUP2 PUSH3 0x1908 JUMP JUMPDEST SWAP1 POP SWAP2 SWAP1 POP JUMP JUMPDEST PUSH1 0x0 PUSH1 0x20 DUP3 ADD SWAP1 POP PUSH3 0x1A71 PUSH1 0x0 DUP4 ADD DUP5 PUSH3 0x192F JUMP JUMPDEST SWAP3 SWAP2 POP POP JUMP JUMPDEST PUSH1 0x0 PUSH1 0x20 DUP3 ADD SWAP1 POP PUSH3 0x1A8E PUSH1 0x0 DUP4 ADD DUP5 PUSH3 0x195E JUMP JUMPDEST SWAP3 SWAP2 POP POP JUMP JUMPDEST PUSH1 0x0 PUSH1 0xE0 DUP3 ADD SWAP1 POP PUSH3 0x1AAB PUSH1 0x0 DUP4 ADD DUP11 PUSH3 0x195E JUMP JUMPDEST PUSH3 0x1ABA PUSH1 0x20 DUP4 ADD DUP10 PUSH3 0x195E JUMP JUMPDEST PUSH3 0x1AC9 PUSH1 0x40 DUP4 ADD DUP9 PUSH3 0x195E JUMP JUMPDEST PUSH3 0x1AD8 PUSH1 0x60 DUP4 ADD DUP8 PUSH3 0x195E JUMP JUMPDEST PUSH3 0x1AE7 PUSH1 0x80 DUP4 ADD DUP7 PUSH3 0x195E JUMP JUMPDEST PUSH3 0x1AF6 PUSH1 0xA0 DUP4 ADD DUP6 PUSH3 0x196F JUMP JUMPDEST PUSH3 0x1B05 PUSH1 0xC0 DUP4 ADD DUP5 PUSH3 0x196F JUMP JUMPDEST SWAP9 SWAP8 POP POP POP POP POP POP POP POP JUMP JUMPDEST PUSH1 0x0 PUSH1 0x20 DUP3 ADD SWAP1 POP PUSH3 0x1B28 PUSH1 0x0 DUP4 ADD DUP5 PUSH3 0x196F JUMP JUMPDEST SWAP3 SWAP2 POP POP JUMP JUMPDEST PUSH1 0x0 PUSH3 0x1B3A PUSH3 0x1B4D JUMP JUMPDEST SWAP1 POP PUSH3 0x1B48 DUP3 DUP3 PUSH3 0x1D15 JUMP JUMPDEST SWAP2 SWAP1 POP JUMP JUMPDEST PUSH1 0x0 PUSH1 0x40 MLOAD SWAP1 POP SWAP1 JUMP JUMPDEST PUSH1 0x0 PUSH8 0xFFFFFFFFFFFFFFFF DUP3 GT ISZERO PUSH3 0x1B75 JUMPI PUSH3 0x1B74 PUSH3 0x1DA9 JUMP JUMPDEST JUMPDEST PUSH1 0x20 DUP3 MUL SWAP1 POP SWAP2 SWAP1 POP JUMP JUMPDEST PUSH1 0x0 DUP2 SWAP1 POP SWAP2 SWAP1 POP JUMP JUMPDEST PUSH1 0x0 PUSH1 0x5 SWAP1 POP SWAP2 SWAP1 POP JUMP JUMPDEST PUSH1 0x0 PUSH1 0x20 DUP3 ADD SWAP1 POP SWAP2 SWAP1 POP JUMP JUMPDEST PUSH1 0x0 DUP2 SWAP1 POP SWAP3 SWAP2 POP POP JUMP JUMPDEST PUSH1 0x0 DUP3 DUP3 MSTORE PUSH1 0x20 DUP3 ADD SWAP1 POP SWAP3 SWAP2 POP POP JUMP JUMPDEST PUSH1 0x0 PUSH3 0x1BCB DUP3 PUSH3 0x1CAB JUMP JUMPDEST SWAP2 POP PUSH3 0x1BD8 DUP4 PUSH3 0x1CAB JUMP JUMPDEST SWAP3 POP DUP3 PUSH32 0xFFFFFFFFFFFFFFFFFFFFFFFFFFFFFFFFFFFFFFFFFFFFFFFFFFFFFFFFFFFFFFFF SUB DUP3 GT ISZERO PUSH3 0x1C10 JUMPI PUSH3 0x1C0F PUSH3 0x1D4B JUMP JUMPDEST JUMPDEST DUP3 DUP3 ADD SWAP1 POP SWAP3 SWAP2 POP POP JUMP JUMPDEST PUSH1 0x0 PUSH3 0x1C28 DUP3 PUSH3 0x1CB5 JUMP JUMPDEST SWAP2 POP PUSH3 0x1C35 DUP4 PUSH3 0x1CB5 JUMP JUMPDEST SWAP3 POP DUP3 DUP3 LT ISZERO PUSH3 0x1C4B JUMPI PUSH3 0x1C4A PUSH3 0x1D4B JUMP JUMPDEST JUMPDEST DUP3 DUP3 SUB SWAP1 POP SWAP3 SWAP2 POP POP JUMP JUMPDEST PUSH1 0x0 PUSH3 0x1C63 DUP3 PUSH3 0x1C8B JUMP JUMPDEST SWAP1 POP SWAP2 SWAP1 POP JUMP JUMPDEST PUSH1 0x0 DUP2 ISZERO ISZERO SWAP1 POP SWAP2 SWAP1 POP JUMP JUMPDEST PUSH1 0x0 DUP2 SWAP1 POP PUSH3 0x1C86 DUP3 PUSH3 0x1EBF JUMP JUMPDEST SWAP2 SWAP1 POP JUMP JUMPDEST PUSH1 0x0 PUSH20 0xFFFFFFFFFFFFFFFFFFFFFFFFFFFFFFFFFFFFFFFF DUP3 AND SWAP1 POP SWAP2 SWAP1 POP JUMP JUMPDEST PUSH1 0x0 DUP2 SWAP1 POP SWAP2 SWAP1 POP JUMP JUMPDEST PUSH1 0x0 PUSH4 0xFFFFFFFF DUP3 AND SWAP1 POP SWAP2 SWAP1 POP JUMP JUMPDEST PUSH1 0x0 PUSH3 0x1CD2 DUP3 PUSH3 0x1CED JUMP JUMPDEST SWAP1 POP SWAP2 SWAP1 POP JUMP JUMPDEST PUSH1 0x0 PUSH3 0x1CE6 DUP3 PUSH3 0x1C76 JUMP JUMPDEST SWAP1 POP SWAP2 SWAP1 POP JUMP JUMPDEST PUSH1 0x0 PUSH3 0x1CFA DUP3 PUSH3 0x1D01 JUMP JUMPDEST SWAP1 POP SWAP2 SWAP1 POP JUMP JUMPDEST PUSH1 0x0 PUSH3 0x1D0E DUP3 PUSH3 0x1C8B JUMP JUMPDEST SWAP1 POP SWAP2 SWAP1 POP JUMP JUMPDEST PUSH3 0x1D20 DUP3 PUSH3 0x1DE7 JUMP JUMPDEST DUP2 ADD DUP2 DUP2 LT PUSH8 0xFFFFFFFFFFFFFFFF DUP3 GT OR ISZERO PUSH3 0x1D42 JUMPI PUSH3 0x1D41 PUSH3 0x1DA9 JUMP JUMPDEST JUMPDEST DUP1 PUSH1 0x40 MSTORE POP POP POP JUMP JUMPDEST PUSH32 0x4E487B7100000000000000000000000000000000000000000000000000000000 PUSH1 0x0 MSTORE PUSH1 0x11 PUSH1 0x4 MSTORE PUSH1 0x24 PUSH1 0x0 REVERT JUMPDEST PUSH32 0x4E487B7100000000000000000000000000000000000000000000000000000000 PUSH1 0x0 MSTORE PUSH1 0x21 PUSH1 0x4 MSTORE PUSH1 0x24 PUSH1 0x0 REVERT JUMPDEST PUSH32 0x4E487B7100000000000000000000000000000000000000000000000000000000 PUSH1 0x0 MSTORE PUSH1 0x41 PUSH1 0x4 MSTORE PUSH1 0x24 PUSH1 0x0 REVERT JUMPDEST PUSH1 0x0 DUP1 REVERT JUMPDEST PUSH1 0x0 DUP1 REVERT JUMPDEST PUSH1 0x0 DUP1 REVERT JUMPDEST PUSH1 0x0 PUSH1 0x1F NOT PUSH1 0x1F DUP4 ADD AND SWAP1 POP SWAP2 SWAP1 POP JUMP JUMPDEST PUSH32 0x54686520737461747573206F6620746865204344532073686F756C6420626520 PUSH1 0x0 DUP3 ADD MSTORE PUSH32 0x70656E64696E6700000000000000000000000000000000000000000000000000 PUSH1 0x20 DUP3 ADD MSTORE POP JUMP JUMPDEST PUSH32 0x54686520737461747573206F6620746865204344532073686F756C6420626520 PUSH1 0x0 DUP3 ADD MSTORE PUSH32 0x6163746976650000000000000000000000000000000000000000000000000000 PUSH1 0x20 DUP3 ADD MSTORE POP JUMP JUMPDEST PUSH32 0x526F756E6420616C726561647920656E64656400000000000000000000000000 PUSH1 0x0 DUP3 ADD MSTORE POP JUMP JUMPDEST PUSH1 0x5 DUP2 LT PUSH3 0x1ED3 JUMPI PUSH3 0x1ED2 PUSH3 0x1D7A JUMP JUMPDEST JUMPDEST POP JUMP JUMPDEST PUSH3 0x1EE1 DUP2 PUSH3 0x1C56 JUMP JUMPDEST DUP2 EQ PUSH3 0x1EED JUMPI PUSH1 0x0 DUP1 REVERT JUMPDEST POP JUMP JUMPDEST PUSH3 0x1EFB DUP2 PUSH3 0x1C6A JUMP JUMPDEST DUP2 EQ PUSH3 0x1F07 JUMPI PUSH1 0x0 DUP1 REVERT JUMPDEST POP JUMP JUMPDEST PUSH1 0x5 DUP2 LT PUSH3 0x1F18 JUMPI PUSH1 0x0 DUP1 REVERT JUMPDEST POP JUMP JUMPDEST PUSH3 0x1F26 DUP2 PUSH3 0x1CAB JUMP JUMPDEST DUP2 EQ PUSH3 0x1F32 JUMPI PUSH1 0x0 DUP1 REVERT JUMPDEST POP JUMP JUMPDEST PUSH3 0x1F40 DUP2 PUSH3 0x1CB5 JUMP JUMPDEST DUP2 EQ PUSH3 0x1F4C JUMPI PUSH1 0x0 DUP1 REVERT JUMPDEST POP JUMP INVALID PUSH1 0x80 PUSH1 0x40 MSTORE CALLVALUE DUP1 ISZERO PUSH3 0x11 JUMPI PUSH1 0x0 DUP1 REVERT JUMPDEST POP PUSH1 0x40 MLOAD PUSH3 0x1A27 CODESIZE SUB DUP1 PUSH3 0x1A27 DUP4 CODECOPY DUP2 DUP2 ADD PUSH1 0x40 MSTORE DUP2 ADD SWAP1 PUSH3 0x37 SWAP2 SWAP1 PUSH3 0x3F1 JUMP JUMPDEST PUSH3 0x57 PUSH3 0x4B PUSH3 0x289 PUSH1 0x20 SHL PUSH1 0x20 SHR JUMP JUMPDEST PUSH3 0x291 PUSH1 0x20 SHL PUSH1 0x20 SHR JUMP JUMPDEST PUSH20 0x3E0E765C10497BB01F562B2F9AF50C621AB8EDA4 PUSH1 0x1 PUSH1 0x0 PUSH2 0x100 EXP DUP2 SLOAD DUP2 PUSH20 0xFFFFFFFFFFFFFFFFFFFFFFFFFFFFFFFFFFFFFFFF MUL NOT AND SWAP1 DUP4 PUSH20 0xFFFFFFFFFFFFFFFFFFFFFFFFFFFFFFFFFFFFFFFF AND MUL OR SWAP1 SSTORE POP DUP7 PUSH1 0x3 DUP2 SWAP1 SSTORE POP DUP6 PUSH1 0x4 DUP2 SWAP1 SSTORE POP DUP5 PUSH1 0x5 DUP2 SWAP1 SSTORE POP DUP4 PUSH1 0x6 DUP2 SWAP1 SSTORE POP DUP3 PUSH1 0x7 DUP2 SWAP1 SSTORE POP DUP2 PUSH1 0xA PUSH1 0x14 PUSH2 0x100 EXP DUP2 SLOAD DUP2 PUSH4 0xFFFFFFFF MUL NOT AND SWAP1 DUP4 PUSH4 0xFFFFFFFF AND MUL OR SWAP1 SSTORE POP DUP2 PUSH1 0xA PUSH1 0x18 PUSH2 0x100 EXP DUP2 SLOAD DUP2 PUSH4 0xFFFFFFFF MUL NOT AND SWAP1 DUP4 PUSH4 0xFFFFFFFF AND MUL OR SWAP1 SSTORE POP PUSH3 0x133 PUSH1 0x5 SLOAD PUSH1 0x7 SLOAD PUSH1 0x3 SLOAD PUSH3 0x355 PUSH1 0x20 SHL PUSH3 0xA4C OR SWAP1 SWAP3 SWAP2 SWAP1 PUSH1 0x20 SHR JUMP JUMPDEST PUSH1 0x8 DUP2 SWAP1 SSTORE POP PUSH1 0x0 DUP2 PUSH4 0xFFFFFFFF AND EQ DUP1 PUSH3 0x155 JUMPI POP PUSH1 0x1 DUP2 PUSH4 0xFFFFFFFF AND EQ JUMPDEST DUP1 PUSH3 0x167 JUMPI POP PUSH1 0x2 DUP2 PUSH4 0xFFFFFFFF AND EQ JUMPDEST PUSH3 0x1A9 JUMPI PUSH1 0x40 MLOAD PUSH32 0x8C379A000000000000000000000000000000000000000000000000000000000 DUP2 MSTORE PUSH1 0x4 ADD PUSH3 0x1A0 SWAP1 PUSH3 0x4CB JUMP JUMPDEST PUSH1 0x40 MLOAD DUP1 SWAP2 SUB SWAP1 REVERT JUMPDEST DUP1 PUSH1 0xA PUSH1 0x1C PUSH2 0x100 EXP DUP2 SLOAD DUP2 PUSH4 0xFFFFFFFF MUL NOT AND SWAP1 DUP4 PUSH4 0xFFFFFFFF AND MUL OR SWAP1 SSTORE POP PUSH1 0x0 PUSH1 0x9 PUSH1 0x0 PUSH2 0x100 EXP DUP2 SLOAD DUP2 PUSH20 0xFFFFFFFFFFFFFFFFFFFFFFFFFFFFFFFFFFFFFFFF MUL NOT AND SWAP1 DUP4 PUSH20 0xFFFFFFFFFFFFFFFFFFFFFFFFFFFFFFFFFFFFFFFF AND MUL OR SWAP1 SSTORE POP PUSH1 0x0 PUSH1 0xA PUSH1 0x0 PUSH2 0x100 EXP DUP2 SLOAD DUP2 PUSH20 0xFFFFFFFFFFFFFFFFFFFFFFFFFFFFFFFFFFFFFFFF MUL NOT AND SWAP1 DUP4 PUSH20 0xFFFFFFFFFFFFFFFFFFFFFFFFFFFFFFFFFFFFFFFF AND MUL OR SWAP1 SSTORE POP PUSH1 0x1 PUSH1 0x2 PUSH1 0x14 PUSH2 0x100 EXP DUP2 SLOAD DUP2 PUSH1 0xFF MUL NOT AND SWAP1 DUP4 PUSH1 0x4 DUP2 GT ISZERO PUSH3 0x277 JUMPI PUSH3 0x276 PUSH3 0x5E9 JUMP JUMPDEST JUMPDEST MUL OR SWAP1 SSTORE POP POP POP POP POP POP POP POP PUSH3 0x67A JUMP JUMPDEST PUSH1 0x0 CALLER SWAP1 POP SWAP1 JUMP JUMPDEST PUSH1 0x0 DUP1 PUSH1 0x0 SWAP1 SLOAD SWAP1 PUSH2 0x100 EXP SWAP1 DIV PUSH20 0xFFFFFFFFFFFFFFFFFFFFFFFFFFFFFFFFFFFFFFFF AND SWAP1 POP DUP2 PUSH1 0x0 DUP1 PUSH2 0x100 EXP DUP2 SLOAD DUP2 PUSH20 0xFFFFFFFFFFFFFFFFFFFFFFFFFFFFFFFFFFFFFFFF MUL NOT AND SWAP1 DUP4 PUSH20 0xFFFFFFFFFFFFFFFFFFFFFFFFFFFFFFFFFFFFFFFF AND MUL OR SWAP1 SSTORE POP DUP2 PUSH20 0xFFFFFFFFFFFFFFFFFFFFFFFFFFFFFFFFFFFFFFFF AND DUP2 PUSH20 0xFFFFFFFFFFFFFFFFFFFFFFFFFFFFFFFFFFFFFFFF AND PUSH32 0x8BE0079C531659141344CD1FD0A4F28419497F9722A3DAAFE3B4186F6B6457E0 PUSH1 0x40 MLOAD PUSH1 0x40 MLOAD DUP1 SWAP2 SUB SWAP1 LOG3 POP POP JUMP JUMPDEST PUSH1 0x0 PUSH3 0x38A PUSH3 0x375 DUP5 DUP7 PUSH3 0x393 PUSH1 0x20 SHL PUSH3 0xA7C OR SWAP1 SWAP2 SWAP1 PUSH1 0x20 SHR JUMP JUMPDEST DUP4 PUSH3 0x3AB PUSH1 0x20 SHL PUSH3 0xA92 OR SWAP1 SWAP2 SWAP1 PUSH1 0x20 SHR JUMP JUMPDEST SWAP1 POP SWAP4 SWAP3 POP POP POP JUMP JUMPDEST PUSH1 0x0 DUP2 DUP4 PUSH3 0x3A3 SWAP2 SWAP1 PUSH3 0x536 JUMP JUMPDEST SWAP1 POP SWAP3 SWAP2 POP POP JUMP JUMPDEST PUSH1 0x0 DUP2 DUP4 PUSH3 0x3BB SWAP2 SWAP1 PUSH3 0x4FE JUMP JUMPDEST SWAP1 POP SWAP3 SWAP2 POP POP JUMP JUMPDEST PUSH1 0x0 DUP2 MLOAD SWAP1 POP PUSH3 0x3D4 DUP2 PUSH3 0x646 JUMP JUMPDEST SWAP3 SWAP2 POP POP JUMP JUMPDEST PUSH1 0x0 DUP2 MLOAD SWAP1 POP PUSH3 0x3EB DUP2 PUSH3 0x660 JUMP JUMPDEST SWAP3 SWAP2 POP POP JUMP JUMPDEST PUSH1 0x0 DUP1 PUSH1 0x0 DUP1 PUSH1 0x0 DUP1 PUSH1 0x0 PUSH1 0xE0 DUP9 DUP11 SUB SLT ISZERO PUSH3 0x413 JUMPI PUSH3 0x412 PUSH3 0x618 JUMP JUMPDEST JUMPDEST PUSH1 0x0 PUSH3 0x423 DUP11 DUP3 DUP12 ADD PUSH3 0x3C3 JUMP JUMPDEST SWAP8 POP POP PUSH1 0x20 PUSH3 0x436 DUP11 DUP3 DUP12 ADD PUSH3 0x3C3 JUMP JUMPDEST SWAP7 POP POP PUSH1 0x40 PUSH3 0x449 DUP11 DUP3 DUP12 ADD PUSH3 0x3C3 JUMP JUMPDEST SWAP6 POP POP PUSH1 0x60 PUSH3 0x45C DUP11 DUP3 DUP12 ADD PUSH3 0x3C3 JUMP JUMPDEST SWAP5 POP POP PUSH1 0x80 PUSH3 0x46F DUP11 DUP3 DUP12 ADD PUSH3 0x3C3 JUMP JUMPDEST SWAP4 POP POP PUSH1 0xA0 PUSH3 0x482 DUP11 DUP3 DUP12 ADD PUSH3 0x3DA JUMP JUMPDEST SWAP3 POP POP PUSH1 0xC0 PUSH3 0x495 DUP11 DUP3 DUP12 ADD PUSH3 0x3DA JUMP JUMPDEST SWAP2 POP POP SWAP3 SWAP6 SWAP9 SWAP2 SWAP5 SWAP8 POP SWAP3 SWAP6 POP JUMP JUMPDEST PUSH1 0x0 PUSH3 0x4B3 PUSH1 0x14 DUP4 PUSH3 0x4ED JUMP JUMPDEST SWAP2 POP PUSH3 0x4C0 DUP3 PUSH3 0x61D JUMP JUMPDEST PUSH1 0x20 DUP3 ADD SWAP1 POP SWAP2 SWAP1 POP JUMP JUMPDEST PUSH1 0x0 PUSH1 0x20 DUP3 ADD SWAP1 POP DUP2 DUP2 SUB PUSH1 0x0 DUP4 ADD MSTORE PUSH3 0x4E6 DUP2 PUSH3 0x4A4 JUMP JUMPDEST SWAP1 POP SWAP2 SWAP1 POP JUMP JUMPDEST PUSH1 0x0 DUP3 DUP3 MSTORE PUSH1 0x20 DUP3 ADD SWAP1 POP SWAP3 SWAP2 POP POP JUMP JUMPDEST PUSH1 0x0 PUSH3 0x50B DUP3 PUSH3 0x571 JUMP JUMPDEST SWAP2 POP PUSH3 0x518 DUP4 PUSH3 0x571 JUMP JUMPDEST SWAP3 POP DUP3 PUSH3 0x52B JUMPI PUSH3 0x52A PUSH3 0x5BA JUMP JUMPDEST JUMPDEST DUP3 DUP3 DIV SWAP1 POP SWAP3 SWAP2 POP POP JUMP JUMPDEST PUSH1 0x0 PUSH3 0x543 DUP3 PUSH3 0x571 JUMP JUMPDEST SWAP2 POP PUSH3 0x550 DUP4 PUSH3 0x571 JUMP JUMPDEST SWAP3 POP DUP3 DUP3 LT ISZERO PUSH3 0x566 JUMPI PUSH3 0x565 PUSH3 0x58B JUMP JUMPDEST JUMPDEST DUP3 DUP3 SUB SWAP1 POP SWAP3 SWAP2 POP POP JUMP JUMPDEST PUSH1 0x0 DUP2 SWAP1 POP SWAP2 SWAP1 POP JUMP JUMPDEST PUSH1 0x0 PUSH4 0xFFFFFFFF DUP3 AND SWAP1 POP SWAP2 SWAP1 POP JUMP JUMPDEST PUSH32 0x4E487B7100000000000000000000000000000000000000000000000000000000 PUSH1 0x0 MSTORE PUSH1 0x11 PUSH1 0x4 MSTORE PUSH1 0x24 PUSH1 0x0 REVERT JUMPDEST PUSH32 0x4E487B7100000000000000000000000000000000000000000000000000000000 PUSH1 0x0 MSTORE PUSH1 0x12 PUSH1 0x4 MSTORE PUSH1 0x24 PUSH1 0x0 REVERT JUMPDEST PUSH32 0x4E487B7100000000000000000000000000000000000000000000000000000000 PUSH1 0x0 MSTORE PUSH1 0x21 PUSH1 0x4 MSTORE PUSH1 0x24 PUSH1 0x0 REVERT JUMPDEST PUSH1 0x0 DUP1 REVERT JUMPDEST PUSH32 0x4254433A302C204554483A312C204C494E4B3A32000000000000000000000000 PUSH1 0x0 DUP3 ADD MSTORE POP JUMP JUMPDEST PUSH3 0x651 DUP2 PUSH3 0x571 JUMP JUMPDEST DUP2 EQ PUSH3 0x65D JUMPI PUSH1 0x0 DUP1 REVERT JUMPDEST POP JUMP JUMPDEST PUSH3 0x66B DUP2 PUSH3 0x57B JUMP JUMPDEST DUP2 EQ PUSH3 0x677 JUMPI PUSH1 0x0 DUP1 REVERT JUMPDEST POP JUMP JUMPDEST PUSH2 0x139D DUP1 PUSH3 0x68A PUSH1 0x0 CODECOPY PUSH1 0x0 RETURN INVALID PUSH1 0x80 PUSH1 0x40 MSTORE CALLVALUE DUP1 ISZERO PUSH2 0x10 JUMPI PUSH1 0x0 DUP1 REVERT JUMPDEST POP PUSH1 0x4 CALLDATASIZE LT PUSH2 0x173 JUMPI PUSH1 0x0 CALLDATALOAD PUSH1 0xE0 SHR DUP1 PUSH4 0xA2E800AD GT PUSH2 0xDE JUMPI DUP1 PUSH4 0xD2895E93 GT PUSH2 0x97 JUMPI DUP1 PUSH4 0xE0A73A93 GT PUSH2 0x71 JUMPI DUP1 PUSH4 0xE0A73A93 EQ PUSH2 0x422 JUMPI DUP1 PUSH4 0xE99D2866 EQ PUSH2 0x440 JUMPI DUP1 PUSH4 0xF26CC58E EQ PUSH2 0x470 JUMPI DUP1 PUSH4 0xF2FDE38B EQ PUSH2 0x48E JUMPI PUSH2 0x173 JUMP JUMPDEST DUP1 PUSH4 0xD2895E93 EQ PUSH2 0x3B6 JUMPI DUP1 PUSH4 0xDBD0E1B6 EQ PUSH2 0x3E6 JUMPI DUP1 PUSH4 0xDD22DB80 EQ PUSH2 0x404 JUMPI PUSH2 0x173 JUMP JUMPDEST DUP1 PUSH4 0xA2E800AD EQ PUSH2 0x2DE JUMPI DUP1 PUSH4 0xA3F09AD6 EQ PUSH2 0x2FC JUMPI DUP1 PUSH4 0xA607A8D9 EQ PUSH2 0x32C JUMPI DUP1 PUSH4 0xB6FC2D5F EQ PUSH2 0x34A JUMPI DUP1 PUSH4 0xBD9A548B EQ PUSH2 0x368 JUMPI DUP1 PUSH4 0xBEF904E3 EQ PUSH2 0x386 JUMPI PUSH2 0x173 JUMP JUMPDEST DUP1 PUSH4 0x603DAF9A GT PUSH2 0x130 JUMPI DUP1 PUSH4 0x603DAF9A EQ PUSH2 0x23E JUMPI DUP1 PUSH4 0x715018A6 EQ PUSH2 0x25C JUMPI DUP1 PUSH4 0x762DB7EE EQ PUSH2 0x266 JUMPI DUP1 PUSH4 0x86BE75B7 EQ PUSH2 0x284 JUMPI DUP1 PUSH4 0x8A568299 EQ PUSH2 0x2A2 JUMPI DUP1 PUSH4 0x8DA5CB5B EQ PUSH2 0x2C0 JUMPI PUSH2 0x173 JUMP JUMPDEST DUP1 PUSH4 0x15D655C9 EQ PUSH2 0x178 JUMPI DUP1 PUSH4 0x200D2ED2 EQ PUSH2 0x196 JUMPI DUP1 PUSH4 0x2DDDD49C EQ PUSH2 0x1B4 JUMPI DUP1 PUSH4 0x2E49D78B EQ PUSH2 0x1D2 JUMPI DUP1 PUSH4 0x3FE3347A EQ PUSH2 0x202 JUMPI DUP1 PUSH4 0x4C1786EA EQ PUSH2 0x220 JUMPI JUMPDEST PUSH1 0x0 DUP1 REVERT JUMPDEST PUSH2 0x180 PUSH2 0x4AA JUMP JUMPDEST PUSH1 0x40 MLOAD PUSH2 0x18D SWAP2 SWAP1 PUSH2 0x1050 JUMP JUMPDEST PUSH1 0x40 MLOAD DUP1 SWAP2 SUB SWAP1 RETURN JUMPDEST PUSH2 0x19E PUSH2 0x4B0 JUMP JUMPDEST PUSH1 0x40 MLOAD PUSH2 0x1AB SWAP2 SWAP1 PUSH2 0xFF5 JUMP JUMPDEST PUSH1 0x40 MLOAD DUP1 SWAP2 SUB SWAP1 RETURN JUMPDEST PUSH2 0x1BC PUSH2 0x4C3 JUMP JUMPDEST PUSH1 0x40 MLOAD PUSH2 0x1C9 SWAP2 SWAP1 PUSH2 0x1050 JUMP JUMPDEST PUSH1 0x40 MLOAD DUP1 SWAP2 SUB SWAP1 RETURN JUMPDEST PUSH2 0x1EC PUSH1 0x4 DUP1 CALLDATASIZE SUB DUP2 ADD SWAP1 PUSH2 0x1E7 SWAP2 SWAP1 PUSH2 0xE0B JUMP JUMPDEST PUSH2 0x56F JUMP JUMPDEST PUSH1 0x40 MLOAD PUSH2 0x1F9 SWAP2 SWAP1 PUSH2 0xFF5 JUMP JUMPDEST PUSH1 0x40 MLOAD DUP1 SWAP2 SUB SWAP1 RETURN JUMPDEST PUSH2 0x20A PUSH2 0x5BA JUMP JUMPDEST PUSH1 0x40 MLOAD PUSH2 0x217 SWAP2 SWAP1 PUSH2 0x106B JUMP JUMPDEST PUSH1 0x40 MLOAD DUP1 SWAP2 SUB SWAP1 RETURN JUMPDEST PUSH2 0x228 PUSH2 0x5D0 JUMP JUMPDEST PUSH1 0x40 MLOAD PUSH2 0x235 SWAP2 SWAP1 PUSH2 0x1050 JUMP JUMPDEST PUSH1 0x40 MLOAD DUP1 SWAP2 SUB SWAP1 RETURN JUMPDEST PUSH2 0x246 PUSH2 0x5D6 JUMP JUMPDEST PUSH1 0x40 MLOAD PUSH2 0x253 SWAP2 SWAP1 PUSH2 0xFBF JUMP JUMPDEST PUSH1 0x40 MLOAD DUP1 SWAP2 SUB SWAP1 RETURN JUMPDEST PUSH2 0x264 PUSH2 0x600 JUMP JUMPDEST STOP JUMPDEST PUSH2 0x26E PUSH2 0x614 JUMP JUMPDEST PUSH1 0x40 MLOAD PUSH2 0x27B SWAP2 SWAP1 PUSH2 0x1050 JUMP JUMPDEST PUSH1 0x40 MLOAD DUP1 SWAP2 SUB SWAP1 RETURN JUMPDEST PUSH2 0x28C PUSH2 0x61A JUMP JUMPDEST PUSH1 0x40 MLOAD PUSH2 0x299 SWAP2 SWAP1 PUSH2 0x1050 JUMP JUMPDEST PUSH1 0x40 MLOAD DUP1 SWAP2 SUB SWAP1 RETURN JUMPDEST PUSH2 0x2AA PUSH2 0x620 JUMP JUMPDEST PUSH1 0x40 MLOAD PUSH2 0x2B7 SWAP2 SWAP1 PUSH2 0x106B JUMP JUMPDEST PUSH1 0x40 MLOAD DUP1 SWAP2 SUB SWAP1 RETURN JUMPDEST PUSH2 0x2C8 PUSH2 0x636 JUMP JUMPDEST PUSH1 0x40 MLOAD PUSH2 0x2D5 SWAP2 SWAP1 PUSH2 0xFBF JUMP JUMPDEST PUSH1 0x40 MLOAD DUP1 SWAP2 SUB SWAP1 RETURN JUMPDEST PUSH2 0x2E6 PUSH2 0x65F JUMP JUMPDEST PUSH1 0x40 MLOAD PUSH2 0x2F3 SWAP2 SWAP1 PUSH2 0x106B JUMP JUMPDEST PUSH1 0x40 MLOAD DUP1 SWAP2 SUB SWAP1 RETURN JUMPDEST PUSH2 0x316 PUSH1 0x4 DUP1 CALLDATASIZE SUB DUP2 ADD SWAP1 PUSH2 0x311 SWAP2 SWAP1 PUSH2 0xDDE JUMP JUMPDEST PUSH2 0x675 JUMP JUMPDEST PUSH1 0x40 MLOAD PUSH2 0x323 SWAP2 SWAP1 PUSH2 0xFBF JUMP JUMPDEST PUSH1 0x40 MLOAD DUP1 SWAP2 SUB SWAP1 RETURN JUMPDEST PUSH2 0x334 PUSH2 0x6EA JUMP JUMPDEST PUSH1 0x40 MLOAD PUSH2 0x341 SWAP2 SWAP1 PUSH2 0x1050 JUMP JUMPDEST PUSH1 0x40 MLOAD DUP1 SWAP2 SUB SWAP1 RETURN JUMPDEST PUSH2 0x352 PUSH2 0x796 JUMP JUMPDEST PUSH1 0x40 MLOAD PUSH2 0x35F SWAP2 SWAP1 PUSH2 0x1050 JUMP JUMPDEST PUSH1 0x40 MLOAD DUP1 SWAP2 SUB SWAP1 RETURN JUMPDEST PUSH2 0x370 PUSH2 0x79C JUMP JUMPDEST PUSH1 0x40 MLOAD PUSH2 0x37D SWAP2 SWAP1 PUSH2 0xFDA JUMP JUMPDEST PUSH1 0x40 MLOAD DUP1 SWAP2 SUB SWAP1 RETURN JUMPDEST PUSH2 0x3A0 PUSH1 0x4 DUP1 CALLDATASIZE SUB DUP2 ADD SWAP1 PUSH2 0x39B SWAP2 SWAP1 PUSH2 0xE38 JUMP JUMPDEST PUSH2 0x7DA JUMP JUMPDEST PUSH1 0x40 MLOAD PUSH2 0x3AD SWAP2 SWAP1 PUSH2 0x1050 JUMP JUMPDEST PUSH1 0x40 MLOAD DUP1 SWAP2 SUB SWAP1 RETURN JUMPDEST PUSH2 0x3D0 PUSH1 0x4 DUP1 CALLDATASIZE SUB DUP2 ADD SWAP1 PUSH2 0x3CB SWAP2 SWAP1 PUSH2 0xE92 JUMP JUMPDEST PUSH2 0x7ED JUMP JUMPDEST PUSH1 0x40 MLOAD PUSH2 0x3DD SWAP2 SWAP1 PUSH2 0x106B JUMP JUMPDEST PUSH1 0x40 MLOAD DUP1 SWAP2 SUB SWAP1 RETURN JUMPDEST PUSH2 0x3EE PUSH2 0x832 JUMP JUMPDEST PUSH1 0x40 MLOAD PUSH2 0x3FB SWAP2 SWAP1 PUSH2 0xFBF JUMP JUMPDEST PUSH1 0x40 MLOAD DUP1 SWAP2 SUB SWAP1 RETURN JUMPDEST PUSH2 0x40C PUSH2 0x85C JUMP JUMPDEST PUSH1 0x40 MLOAD PUSH2 0x419 SWAP2 SWAP1 PUSH2 0x1050 JUMP JUMPDEST PUSH1 0x40 MLOAD DUP1 SWAP2 SUB SWAP1 RETURN JUMPDEST PUSH2 0x42A PUSH2 0x908 JUMP JUMPDEST PUSH1 0x40 MLOAD PUSH2 0x437 SWAP2 SWAP1 PUSH2 0x1050 JUMP JUMPDEST PUSH1 0x40 MLOAD DUP1 SWAP2 SUB SWAP1 RETURN JUMPDEST PUSH2 0x45A PUSH1 0x4 DUP1 CALLDATASIZE SUB DUP2 ADD SWAP1 PUSH2 0x455 SWAP2 SWAP1 PUSH2 0xDDE JUMP JUMPDEST PUSH2 0x90E JUMP JUMPDEST PUSH1 0x40 MLOAD PUSH2 0x467 SWAP2 SWAP1 PUSH2 0xFBF JUMP JUMPDEST PUSH1 0x40 MLOAD DUP1 SWAP2 SUB SWAP1 RETURN JUMPDEST PUSH2 0x478 PUSH2 0x983 JUMP JUMPDEST PUSH1 0x40 MLOAD PUSH2 0x485 SWAP2 SWAP1 PUSH2 0x1050 JUMP JUMPDEST PUSH1 0x40 MLOAD DUP1 SWAP2 SUB SWAP1 RETURN JUMPDEST PUSH2 0x4A8 PUSH1 0x4 DUP1 CALLDATASIZE SUB DUP2 ADD SWAP1 PUSH2 0x4A3 SWAP2 SWAP1 PUSH2 0xDDE JUMP JUMPDEST PUSH2 0x9C8 JUMP JUMPDEST STOP JUMPDEST PUSH1 0x4 SLOAD DUP2 JUMP JUMPDEST PUSH1 0x2 PUSH1 0x14 SWAP1 SLOAD SWAP1 PUSH2 0x100 EXP SWAP1 DIV PUSH1 0xFF AND DUP2 JUMP JUMPDEST PUSH1 0x0 DUP1 PUSH1 0x1 PUSH1 0x0 SWAP1 SLOAD SWAP1 PUSH2 0x100 EXP SWAP1 DIV PUSH20 0xFFFFFFFFFFFFFFFFFFFFFFFFFFFFFFFFFFFFFFFF AND PUSH20 0xFFFFFFFFFFFFFFFFFFFFFFFFFFFFFFFFFFFFFFFF AND PUSH4 0xCF78535 PUSH1 0x40 MLOAD DUP2 PUSH4 0xFFFFFFFF AND PUSH1 0xE0 SHL DUP2 MSTORE PUSH1 0x4 ADD PUSH1 0x20 PUSH1 0x40 MLOAD DUP1 DUP4 SUB DUP2 DUP7 DUP1 EXTCODESIZE ISZERO DUP1 ISZERO PUSH2 0x52E JUMPI PUSH1 0x0 DUP1 REVERT JUMPDEST POP GAS STATICCALL ISZERO DUP1 ISZERO PUSH2 0x542 JUMPI RETURNDATASIZE PUSH1 0x0 DUP1 RETURNDATACOPY RETURNDATASIZE PUSH1 0x0 REVERT JUMPDEST POP POP POP POP PUSH1 0x40 MLOAD RETURNDATASIZE PUSH1 0x1F NOT PUSH1 0x1F DUP3 ADD AND DUP3 ADD DUP1 PUSH1 0x40 MSTORE POP DUP2 ADD SWAP1 PUSH2 0x566 SWAP2 SWAP1 PUSH2 0xE65 JUMP JUMPDEST SWAP1 POP DUP1 SWAP2 POP POP SWAP1 JUMP JUMPDEST PUSH1 0x0 PUSH2 0x579 PUSH2 0xAA8 JUMP JUMPDEST DUP2 PUSH1 0x2 PUSH1 0x14 PUSH2 0x100 EXP DUP2 SLOAD DUP2 PUSH1 0xFF MUL NOT AND SWAP1 DUP4 PUSH1 0x4 DUP2 GT ISZERO PUSH2 0x59E JUMPI PUSH2 0x59D PUSH2 0x1252 JUMP JUMPDEST JUMPDEST MUL OR SWAP1 SSTORE POP PUSH1 0x2 PUSH1 0x14 SWAP1 SLOAD SWAP1 PUSH2 0x100 EXP SWAP1 DIV PUSH1 0xFF AND SWAP1 POP SWAP2 SWAP1 POP JUMP JUMPDEST PUSH1 0xA PUSH1 0x1C SWAP1 SLOAD SWAP1 PUSH2 0x100 EXP SWAP1 DIV PUSH4 0xFFFFFFFF AND DUP2 JUMP JUMPDEST PUSH1 0x7 SLOAD DUP2 JUMP JUMPDEST PUSH1 0x0 PUSH1 0x9 PUSH1 0x0 SWAP1 SLOAD SWAP1 PUSH2 0x100 EXP SWAP1 DIV PUSH20 0xFFFFFFFFFFFFFFFFFFFFFFFFFFFFFFFFFFFFFFFF AND SWAP1 POP SWAP1 JUMP JUMPDEST PUSH2 0x608 PUSH2 0xAA8 JUMP JUMPDEST PUSH2 0x612 PUSH1 0x0 PUSH2 0xB26 JUMP JUMPDEST JUMP JUMPDEST PUSH1 0x8 SLOAD DUP2 JUMP JUMPDEST PUSH1 0x3 SLOAD DUP2 JUMP JUMPDEST PUSH1 0xA PUSH1 0x18 SWAP1 SLOAD SWAP1 PUSH2 0x100 EXP SWAP1 DIV PUSH4 0xFFFFFFFF AND DUP2 JUMP JUMPDEST PUSH1 0x0 DUP1 PUSH1 0x0 SWAP1 SLOAD SWAP1 PUSH2 0x100 EXP SWAP1 DIV PUSH20 0xFFFFFFFFFFFFFFFFFFFFFFFFFFFFFFFFFFFFFFFF AND SWAP1 POP SWAP1 JUMP JUMPDEST PUSH1 0xA PUSH1 0x14 SWAP1 SLOAD SWAP1 PUSH2 0x100 EXP SWAP1 DIV PUSH4 0xFFFFFFFF AND DUP2 JUMP JUMPDEST PUSH1 0x0 PUSH2 0x67F PUSH2 0xAA8 JUMP JUMPDEST DUP2 PUSH1 0x9 PUSH1 0x0 PUSH2 0x100 EXP DUP2 SLOAD DUP2 PUSH20 0xFFFFFFFFFFFFFFFFFFFFFFFFFFFFFFFFFFFFFFFF MUL NOT AND SWAP1 DUP4 PUSH20 0xFFFFFFFFFFFFFFFFFFFFFFFFFFFFFFFFFFFFFFFF AND MUL OR SWAP1 SSTORE POP PUSH1 0x9 PUSH1 0x0 SWAP1 SLOAD SWAP1 PUSH2 0x100 EXP SWAP1 DIV PUSH20 0xFFFFFFFFFFFFFFFFFFFFFFFFFFFFFFFFFFFFFFFF AND SWAP1 POP SWAP2 SWAP1 POP JUMP JUMPDEST PUSH1 0x0 DUP1 PUSH1 0x1 PUSH1 0x0 SWAP1 SLOAD SWAP1 PUSH2 0x100 EXP SWAP1 DIV PUSH20 0xFFFFFFFFFFFFFFFFFFFFFFFFFFFFFFFFFFFFFFFF AND PUSH20 0xFFFFFFFFFFFFFFFFFFFFFFFFFFFFFFFFFFFFFFFF AND PUSH4 0xFF186B2E PUSH1 0x40 MLOAD DUP2 PUSH4 0xFFFFFFFF AND PUSH1 0xE0 SHL DUP2 MSTORE PUSH1 0x4 ADD PUSH1 0x20 PUSH1 0x40 MLOAD DUP1 DUP4 SUB DUP2 DUP7 DUP1 EXTCODESIZE ISZERO DUP1 ISZERO PUSH2 0x755 JUMPI PUSH1 0x0 DUP1 REVERT JUMPDEST POP GAS STATICCALL ISZERO DUP1 ISZERO PUSH2 0x769 JUMPI RETURNDATASIZE PUSH1 0x0 DUP1 RETURNDATACOPY RETURNDATASIZE PUSH1 0x0 REVERT JUMPDEST POP POP POP POP PUSH1 0x40 MLOAD RETURNDATASIZE PUSH1 0x1F NOT PUSH1 0x1F DUP3 ADD AND DUP3 ADD DUP1 PUSH1 0x40 MSTORE POP DUP2 ADD SWAP1 PUSH2 0x78D SWAP2 SWAP1 PUSH2 0xE65 JUMP JUMPDEST SWAP1 POP DUP1 SWAP2 POP POP SWAP1 JUMP JUMPDEST PUSH1 0x5 SLOAD DUP2 JUMP JUMPDEST PUSH2 0x7A4 PUSH2 0xD53 JUMP JUMPDEST PUSH1 0x40 MLOAD DUP1 PUSH1 0xA0 ADD PUSH1 0x40 MSTORE DUP1 PUSH1 0x3 SLOAD DUP2 MSTORE PUSH1 0x20 ADD PUSH1 0x4 SLOAD DUP2 MSTORE PUSH1 0x20 ADD PUSH1 0x5 SLOAD DUP2 MSTORE PUSH1 0x20 ADD PUSH1 0x6 SLOAD DUP2 MSTORE PUSH1 0x20 ADD PUSH1 0x7 SLOAD DUP2 MSTORE POP SWAP1 POP SWAP1 JUMP JUMPDEST PUSH1 0x0 DUP2 PUSH1 0x3 DUP2 SWAP1 SSTORE POP PUSH1 0x3 SLOAD SWAP1 POP SWAP2 SWAP1 POP JUMP JUMPDEST PUSH1 0x0 PUSH2 0x7F7 PUSH2 0xAA8 JUMP JUMPDEST DUP2 PUSH1 0xA PUSH1 0x14 PUSH2 0x100 EXP DUP2 SLOAD DUP2 PUSH4 0xFFFFFFFF MUL NOT AND SWAP1 DUP4 PUSH4 0xFFFFFFFF AND MUL OR SWAP1 SSTORE POP PUSH1 0xA PUSH1 0x14 SWAP1 SLOAD SWAP1 PUSH2 0x100 EXP SWAP1 DIV PUSH4 0xFFFFFFFF AND SWAP1 POP SWAP2 SWAP1 POP JUMP JUMPDEST PUSH1 0x0 PUSH1 0xA PUSH1 0x0 SWAP1 SLOAD SWAP1 PUSH2 0x100 EXP SWAP1 DIV PUSH20 0xFFFFFFFFFFFFFFFFFFFFFFFFFFFFFFFFFFFFFFFF AND SWAP1 POP SWAP1 JUMP JUMPDEST PUSH1 0x0 DUP1 PUSH1 0x1 PUSH1 0x0 SWAP1 SLOAD SWAP1 PUSH2 0x100 EXP SWAP1 DIV PUSH20 0xFFFFFFFFFFFFFFFFFFFFFFFFFFFFFFFFFFFFFFFF AND PUSH20 0xFFFFFFFFFFFFFFFFFFFFFFFFFFFFFFFFFFFFFFFF AND PUSH4 0xA8AD52D1 PUSH1 0x40 MLOAD DUP2 PUSH4 0xFFFFFFFF AND PUSH1 0xE0 SHL DUP2 MSTORE PUSH1 0x4 ADD PUSH1 0x20 PUSH1 0x40 MLOAD DUP1 DUP4 SUB DUP2 DUP7 DUP1 EXTCODESIZE ISZERO DUP1 ISZERO PUSH2 0x8C7 JUMPI PUSH1 0x0 DUP1 REVERT JUMPDEST POP GAS STATICCALL ISZERO DUP1 ISZERO PUSH2 0x8DB JUMPI RETURNDATASIZE PUSH1 0x0 DUP1 RETURNDATACOPY RETURNDATASIZE PUSH1 0x0 REVERT JUMPDEST POP POP POP POP PUSH1 0x40 MLOAD RETURNDATASIZE PUSH1 0x1F NOT PUSH1 0x1F DUP3 ADD AND DUP3 ADD DUP1 PUSH1 0x40 MSTORE POP DUP2 ADD SWAP1 PUSH2 0x8FF SWAP2 SWAP1 PUSH2 0xE65 JUMP JUMPDEST SWAP1 POP DUP1 SWAP2 POP POP SWAP1 JUMP JUMPDEST PUSH1 0x6 SLOAD DUP2 JUMP JUMPDEST PUSH1 0x0 PUSH2 0x918 PUSH2 0xAA8 JUMP JUMPDEST DUP2 PUSH1 0xA PUSH1 0x0 PUSH2 0x100 EXP DUP2 SLOAD DUP2 PUSH20 0xFFFFFFFFFFFFFFFFFFFFFFFFFFFFFFFFFFFFFFFF MUL NOT AND SWAP1 DUP4 PUSH20 0xFFFFFFFFFFFFFFFFFFFFFFFFFFFFFFFFFFFFFFFF AND MUL OR SWAP1 SSTORE POP PUSH1 0xA PUSH1 0x0 SWAP1 SLOAD SWAP1 PUSH2 0x100 EXP SWAP1 DIV PUSH20 0xFFFFFFFFFFFFFFFFFFFFFFFFFFFFFFFFFFFFFFFF AND SWAP1 POP SWAP2 SWAP1 POP JUMP JUMPDEST PUSH1 0x0 DUP1 PUSH2 0x98E PUSH2 0xBEA JUMP JUMPDEST SWAP1 POP DUP1 PUSH1 0x4 SLOAD LT ISZERO PUSH2 0x9A4 JUMPI PUSH1 0x0 SWAP2 POP POP PUSH2 0x9C5 JUMP JUMPDEST PUSH2 0x9C1 PUSH1 0x5 SLOAD PUSH1 0x3 SLOAD DUP4 PUSH1 0x7 SLOAD PUSH2 0xCC5 SWAP1 SWAP4 SWAP3 SWAP2 SWAP1 PUSH4 0xFFFFFFFF AND JUMP JUMPDEST SWAP2 POP POP JUMPDEST SWAP1 JUMP JUMPDEST PUSH2 0x9D0 PUSH2 0xAA8 JUMP JUMPDEST PUSH1 0x0 PUSH20 0xFFFFFFFFFFFFFFFFFFFFFFFFFFFFFFFFFFFFFFFF AND DUP2 PUSH20 0xFFFFFFFFFFFFFFFFFFFFFFFFFFFFFFFFFFFFFFFF AND EQ ISZERO PUSH2 0xA40 JUMPI PUSH1 0x40 MLOAD PUSH32 0x8C379A000000000000000000000000000000000000000000000000000000000 DUP2 MSTORE PUSH1 0x4 ADD PUSH2 0xA37 SWAP1 PUSH2 0x1010 JUMP JUMPDEST PUSH1 0x40 MLOAD DUP1 SWAP2 SUB SWAP1 REVERT JUMPDEST PUSH2 0xA49 DUP2 PUSH2 0xB26 JUMP JUMPDEST POP JUMP JUMPDEST PUSH1 0x0 PUSH2 0xA73 PUSH2 0xA64 DUP5 DUP7 PUSH2 0xA7C SWAP1 SWAP2 SWAP1 PUSH4 0xFFFFFFFF AND JUMP JUMPDEST DUP4 PUSH2 0xA92 SWAP1 SWAP2 SWAP1 PUSH4 0xFFFFFFFF AND JUMP JUMPDEST SWAP1 POP SWAP4 SWAP3 POP POP POP JUMP JUMPDEST PUSH1 0x0 DUP2 DUP4 PUSH2 0xA8A SWAP2 SWAP1 PUSH2 0x114F JUMP JUMPDEST SWAP1 POP SWAP3 SWAP2 POP POP JUMP JUMPDEST PUSH1 0x0 DUP2 DUP4 PUSH2 0xAA0 SWAP2 SWAP1 PUSH2 0x10C4 JUMP JUMPDEST SWAP1 POP SWAP3 SWAP2 POP POP JUMP JUMPDEST PUSH2 0xAB0 PUSH2 0xD35 JUMP JUMPDEST PUSH20 0xFFFFFFFFFFFFFFFFFFFFFFFFFFFFFFFFFFFFFFFF AND PUSH2 0xACE PUSH2 0x636 JUMP JUMPDEST PUSH20 0xFFFFFFFFFFFFFFFFFFFFFFFFFFFFFFFFFFFFFFFF AND EQ PUSH2 0xB24 JUMPI PUSH1 0x40 MLOAD PUSH32 0x8C379A000000000000000000000000000000000000000000000000000000000 DUP2 MSTORE PUSH1 0x4 ADD PUSH2 0xB1B SWAP1 PUSH2 0x1030 JUMP JUMPDEST PUSH1 0x40 MLOAD DUP1 SWAP2 SUB SWAP1 REVERT JUMPDEST JUMP JUMPDEST PUSH1 0x0 DUP1 PUSH1 0x0 SWAP1 SLOAD SWAP1 PUSH2 0x100 EXP SWAP1 DIV PUSH20 0xFFFFFFFFFFFFFFFFFFFFFFFFFFFFFFFFFFFFFFFF AND SWAP1 POP DUP2 PUSH1 0x0 DUP1 PUSH2 0x100 EXP DUP2 SLOAD DUP2 PUSH20 0xFFFFFFFFFFFFFFFFFFFFFFFFFFFFFFFFFFFFFFFF MUL NOT AND SWAP1 DUP4 PUSH20 0xFFFFFFFFFFFFFFFFFFFFFFFFFFFFFFFFFFFFFFFF AND MUL OR SWAP1 SSTORE POP DUP2 PUSH20 0xFFFFFFFFFFFFFFFFFFFFFFFFFFFFFFFFFFFFFFFF AND DUP2 PUSH20 0xFFFFFFFFFFFFFFFFFFFFFFFFFFFFFFFFFFFFFFFF AND PUSH32 0x8BE0079C531659141344CD1FD0A4F28419497F9722A3DAAFE3B4186F6B6457E0 PUSH1 0x40 MLOAD PUSH1 0x40 MLOAD DUP1 SWAP2 SUB SWAP1 LOG3 POP POP JUMP JUMPDEST PUSH1 0x0 DUP1 PUSH1 0xA PUSH1 0x1C SWAP1 SLOAD SWAP1 PUSH2 0x100 EXP SWAP1 DIV PUSH4 0xFFFFFFFF AND PUSH4 0xFFFFFFFF AND EQ ISZERO PUSH2 0xC31 JUMPI PUSH2 0xC2A PUSH4 0x5F5E100 PUSH2 0xC1C PUSH2 0x85C JUMP JUMPDEST PUSH2 0xA92 SWAP1 SWAP2 SWAP1 PUSH4 0xFFFFFFFF AND JUMP JUMPDEST SWAP1 POP PUSH2 0xCC2 JUMP JUMPDEST PUSH1 0x1 PUSH1 0xA PUSH1 0x1C SWAP1 SLOAD SWAP1 PUSH2 0x100 EXP SWAP1 DIV PUSH4 0xFFFFFFFF AND PUSH4 0xFFFFFFFF AND EQ ISZERO PUSH2 0xC77 JUMPI PUSH2 0xC70 PUSH4 0x5F5E100 PUSH2 0xC62 PUSH2 0x6EA JUMP JUMPDEST PUSH2 0xA92 SWAP1 SWAP2 SWAP1 PUSH4 0xFFFFFFFF AND JUMP JUMPDEST SWAP1 POP PUSH2 0xCC2 JUMP JUMPDEST PUSH1 0x2 PUSH1 0xA PUSH1 0x1C SWAP1 SLOAD SWAP1 PUSH2 0x100 EXP SWAP1 DIV PUSH4 0xFFFFFFFF AND PUSH4 0xFFFFFFFF AND EQ ISZERO PUSH2 0xCBD JUMPI PUSH2 0xCB6 PUSH4 0x5F5E100 PUSH2 0xCA8 PUSH2 0x4C3 JUMP JUMPDEST PUSH2 0xA92 SWAP1 SWAP2 SWAP1 PUSH4 0xFFFFFFFF AND JUMP JUMPDEST SWAP1 POP PUSH2 0xCC2 JUMP JUMPDEST PUSH1 0x0 SWAP1 POP JUMPDEST SWAP1 JUMP JUMPDEST PUSH1 0x0 DUP1 DUP3 DUP6 LT PUSH2 0xCD7 JUMPI DUP6 SWAP1 POP PUSH2 0xD29 JUMP JUMPDEST PUSH1 0x0 PUSH2 0xCFE PUSH2 0xCEF DUP8 DUP8 PUSH2 0xA7C SWAP1 SWAP2 SWAP1 PUSH4 0xFFFFFFFF AND JUMP JUMPDEST DUP9 PUSH2 0xA92 SWAP1 SWAP2 SWAP1 PUSH4 0xFFFFFFFF AND JUMP JUMPDEST SWAP1 POP PUSH2 0xD25 PUSH2 0xD16 DUP6 DUP8 PUSH2 0xA7C SWAP1 SWAP2 SWAP1 PUSH4 0xFFFFFFFF AND JUMP JUMPDEST DUP3 PUSH2 0xD3D SWAP1 SWAP2 SWAP1 PUSH4 0xFFFFFFFF AND JUMP JUMPDEST SWAP2 POP POP JUMPDEST DUP1 SWAP2 POP POP SWAP5 SWAP4 POP POP POP POP JUMP JUMPDEST PUSH1 0x0 CALLER SWAP1 POP SWAP1 JUMP JUMPDEST PUSH1 0x0 DUP2 DUP4 PUSH2 0xD4B SWAP2 SWAP1 PUSH2 0x10F5 JUMP JUMPDEST SWAP1 POP SWAP3 SWAP2 POP POP JUMP JUMPDEST PUSH1 0x40 MLOAD DUP1 PUSH1 0xA0 ADD PUSH1 0x40 MSTORE DUP1 PUSH1 0x5 SWAP1 PUSH1 0x20 DUP3 MUL DUP1 CALLDATASIZE DUP4 CALLDATACOPY DUP1 DUP3 ADD SWAP2 POP POP SWAP1 POP POP SWAP1 JUMP JUMPDEST PUSH1 0x0 DUP2 CALLDATALOAD SWAP1 POP PUSH2 0xD84 DUP2 PUSH2 0x1312 JUMP JUMPDEST SWAP3 SWAP2 POP POP JUMP JUMPDEST PUSH1 0x0 DUP2 CALLDATALOAD SWAP1 POP PUSH2 0xD99 DUP2 PUSH2 0x1329 JUMP JUMPDEST SWAP3 SWAP2 POP POP JUMP JUMPDEST PUSH1 0x0 DUP2 CALLDATALOAD SWAP1 POP PUSH2 0xDAE DUP2 PUSH2 0x1339 JUMP JUMPDEST SWAP3 SWAP2 POP POP JUMP JUMPDEST PUSH1 0x0 DUP2 MLOAD SWAP1 POP PUSH2 0xDC3 DUP2 PUSH2 0x1339 JUMP JUMPDEST SWAP3 SWAP2 POP POP JUMP JUMPDEST PUSH1 0x0 DUP2 CALLDATALOAD SWAP1 POP PUSH2 0xDD8 DUP2 PUSH2 0x1350 JUMP JUMPDEST SWAP3 SWAP2 POP POP JUMP JUMPDEST PUSH1 0x0 PUSH1 0x20 DUP3 DUP5 SUB SLT ISZERO PUSH2 0xDF4 JUMPI PUSH2 0xDF3 PUSH2 0x1281 JUMP JUMPDEST JUMPDEST PUSH1 0x0 PUSH2 0xE02 DUP5 DUP3 DUP6 ADD PUSH2 0xD75 JUMP JUMPDEST SWAP2 POP POP SWAP3 SWAP2 POP POP JUMP JUMPDEST PUSH1 0x0 PUSH1 0x20 DUP3 DUP5 SUB SLT ISZERO PUSH2 0xE21 JUMPI PUSH2 0xE20 PUSH2 0x1281 JUMP JUMPDEST JUMPDEST PUSH1 0x0 PUSH2 0xE2F DUP5 DUP3 DUP6 ADD PUSH2 0xD8A JUMP JUMPDEST SWAP2 POP POP SWAP3 SWAP2 POP POP JUMP JUMPDEST PUSH1 0x0 PUSH1 0x20 DUP3 DUP5 SUB SLT ISZERO PUSH2 0xE4E JUMPI PUSH2 0xE4D PUSH2 0x1281 JUMP JUMPDEST JUMPDEST PUSH1 0x0 PUSH2 0xE5C DUP5 DUP3 DUP6 ADD PUSH2 0xD9F JUMP JUMPDEST SWAP2 POP POP SWAP3 SWAP2 POP POP JUMP JUMPDEST PUSH1 0x0 PUSH1 0x20 DUP3 DUP5 SUB SLT ISZERO PUSH2 0xE7B JUMPI PUSH2 0xE7A PUSH2 0x1281 JUMP JUMPDEST JUMPDEST PUSH1 0x0 PUSH2 0xE89 DUP5 DUP3 DUP6 ADD PUSH2 0xDB4 JUMP JUMPDEST SWAP2 POP POP SWAP3 SWAP2 POP POP JUMP JUMPDEST PUSH1 0x0 PUSH1 0x20 DUP3 DUP5 SUB SLT ISZERO PUSH2 0xEA8 JUMPI PUSH2 0xEA7 PUSH2 0x1281 JUMP JUMPDEST JUMPDEST PUSH1 0x0 PUSH2 0xEB6 DUP5 DUP3 DUP6 ADD PUSH2 0xDC9 JUMP JUMPDEST SWAP2 POP POP SWAP3 SWAP2 POP POP JUMP JUMPDEST PUSH1 0x0 PUSH2 0xECB DUP4 DUP4 PUSH2 0xF92 JUMP JUMPDEST PUSH1 0x20 DUP4 ADD SWAP1 POP SWAP3 SWAP2 POP POP JUMP JUMPDEST PUSH2 0xEE0 DUP2 PUSH2 0x1183 JUMP JUMPDEST DUP3 MSTORE POP POP JUMP JUMPDEST PUSH2 0xEEF DUP2 PUSH2 0x1090 JUMP JUMPDEST PUSH2 0xEF9 DUP2 DUP5 PUSH2 0x10A8 JUMP JUMPDEST SWAP3 POP PUSH2 0xF04 DUP3 PUSH2 0x1086 JUMP JUMPDEST DUP1 PUSH1 0x0 JUMPDEST DUP4 DUP2 LT ISZERO PUSH2 0xF35 JUMPI DUP2 MLOAD PUSH2 0xF1C DUP8 DUP3 PUSH2 0xEBF JUMP JUMPDEST SWAP7 POP PUSH2 0xF27 DUP4 PUSH2 0x109B JUMP JUMPDEST SWAP3 POP POP PUSH1 0x1 DUP2 ADD SWAP1 POP PUSH2 0xF08 JUMP JUMPDEST POP POP POP POP POP POP JUMP JUMPDEST PUSH2 0xF46 DUP2 PUSH2 0x11E2 JUMP JUMPDEST DUP3 MSTORE POP POP JUMP JUMPDEST PUSH1 0x0 PUSH2 0xF59 PUSH1 0x26 DUP4 PUSH2 0x10B3 JUMP JUMPDEST SWAP2 POP PUSH2 0xF64 DUP3 PUSH2 0x1286 JUMP JUMPDEST PUSH1 0x40 DUP3 ADD SWAP1 POP SWAP2 SWAP1 POP JUMP JUMPDEST PUSH1 0x0 PUSH2 0xF7C PUSH1 0x20 DUP4 PUSH2 0x10B3 JUMP JUMPDEST SWAP2 POP PUSH2 0xF87 DUP3 PUSH2 0x12D5 JUMP JUMPDEST PUSH1 0x20 DUP3 ADD SWAP1 POP SWAP2 SWAP1 POP JUMP JUMPDEST PUSH2 0xF9B DUP2 PUSH2 0x11C8 JUMP JUMPDEST DUP3 MSTORE POP POP JUMP JUMPDEST PUSH2 0xFAA DUP2 PUSH2 0x11C8 JUMP JUMPDEST DUP3 MSTORE POP POP JUMP JUMPDEST PUSH2 0xFB9 DUP2 PUSH2 0x11D2 JUMP JUMPDEST DUP3 MSTORE POP POP JUMP JUMPDEST PUSH1 0x0 PUSH1 0x20 DUP3 ADD SWAP1 POP PUSH2 0xFD4 PUSH1 0x0 DUP4 ADD DUP5 PUSH2 0xED7 JUMP JUMPDEST SWAP3 SWAP2 POP POP JUMP JUMPDEST PUSH1 0x0 PUSH1 0xA0 DUP3 ADD SWAP1 POP PUSH2 0xFEF PUSH1 0x0 DUP4 ADD DUP5 PUSH2 0xEE6 JUMP JUMPDEST SWAP3 SWAP2 POP POP JUMP JUMPDEST PUSH1 0x0 PUSH1 0x20 DUP3 ADD SWAP1 POP PUSH2 0x100A PUSH1 0x0 DUP4 ADD DUP5 PUSH2 0xF3D JUMP JUMPDEST SWAP3 SWAP2 POP POP JUMP JUMPDEST PUSH1 0x0 PUSH1 0x20 DUP3 ADD SWAP1 POP DUP2 DUP2 SUB PUSH1 0x0 DUP4 ADD MSTORE PUSH2 0x1029 DUP2 PUSH2 0xF4C JUMP JUMPDEST SWAP1 POP SWAP2 SWAP1 POP JUMP JUMPDEST PUSH1 0x0 PUSH1 0x20 DUP3 ADD SWAP1 POP DUP2 DUP2 SUB PUSH1 0x0 DUP4 ADD MSTORE PUSH2 0x1049 DUP2 PUSH2 0xF6F JUMP JUMPDEST SWAP1 POP SWAP2 SWAP1 POP JUMP JUMPDEST PUSH1 0x0 PUSH1 0x20 DUP3 ADD SWAP1 POP PUSH2 0x1065 PUSH1 0x0 DUP4 ADD DUP5 PUSH2 0xFA1 JUMP JUMPDEST SWAP3 SWAP2 POP POP JUMP JUMPDEST PUSH1 0x0 PUSH1 0x20 DUP3 ADD SWAP1 POP PUSH2 0x1080 PUSH1 0x0 DUP4 ADD DUP5 PUSH2 0xFB0 JUMP JUMPDEST SWAP3 SWAP2 POP POP JUMP JUMPDEST PUSH1 0x0 DUP2 SWAP1 POP SWAP2 SWAP1 POP JUMP JUMPDEST PUSH1 0x0 PUSH1 0x5 SWAP1 POP SWAP2 SWAP1 POP JUMP JUMPDEST PUSH1 0x0 PUSH1 0x20 DUP3 ADD SWAP1 POP SWAP2 SWAP1 POP JUMP JUMPDEST PUSH1 0x0 DUP2 SWAP1 POP SWAP3 SWAP2 POP POP JUMP JUMPDEST PUSH1 0x0 DUP3 DUP3 MSTORE PUSH1 0x20 DUP3 ADD SWAP1 POP SWAP3 SWAP2 POP POP JUMP JUMPDEST PUSH1 0x0 PUSH2 0x10CF DUP3 PUSH2 0x11C8 JUMP JUMPDEST SWAP2 POP PUSH2 0x10DA DUP4 PUSH2 0x11C8 JUMP JUMPDEST SWAP3 POP DUP3 PUSH2 0x10EA JUMPI PUSH2 0x10E9 PUSH2 0x1223 JUMP JUMPDEST JUMPDEST DUP3 DUP3 DIV SWAP1 POP SWAP3 SWAP2 POP POP JUMP JUMPDEST PUSH1 0x0 PUSH2 0x1100 DUP3 PUSH2 0x11C8 JUMP JUMPDEST SWAP2 POP PUSH2 0x110B DUP4 PUSH2 0x11C8 JUMP JUMPDEST SWAP3 POP DUP2 PUSH32 0xFFFFFFFFFFFFFFFFFFFFFFFFFFFFFFFFFFFFFFFFFFFFFFFFFFFFFFFFFFFFFFFF DIV DUP4 GT DUP3 ISZERO ISZERO AND ISZERO PUSH2 0x1144 JUMPI PUSH2 0x1143 PUSH2 0x11F4 JUMP JUMPDEST JUMPDEST DUP3 DUP3 MUL SWAP1 POP SWAP3 SWAP2 POP POP JUMP JUMPDEST PUSH1 0x0 PUSH2 0x115A DUP3 PUSH2 0x11C8 JUMP JUMPDEST SWAP2 POP PUSH2 0x1165 DUP4 PUSH2 0x11C8 JUMP JUMPDEST SWAP3 POP DUP3 DUP3 LT ISZERO PUSH2 0x1178 JUMPI PUSH2 0x1177 PUSH2 0x11F4 JUMP JUMPDEST JUMPDEST DUP3 DUP3 SUB SWAP1 POP SWAP3 SWAP2 POP POP JUMP JUMPDEST PUSH1 0x0 PUSH2 0x118E DUP3 PUSH2 0x11A8 JUMP JUMPDEST SWAP1 POP SWAP2 SWAP1 POP JUMP JUMPDEST PUSH1 0x0 DUP2 SWAP1 POP PUSH2 0x11A3 DUP3 PUSH2 0x12FE JUMP JUMPDEST SWAP2 SWAP1 POP JUMP JUMPDEST PUSH1 0x0 PUSH20 0xFFFFFFFFFFFFFFFFFFFFFFFFFFFFFFFFFFFFFFFF DUP3 AND SWAP1 POP SWAP2 SWAP1 POP JUMP JUMPDEST PUSH1 0x0 DUP2 SWAP1 POP SWAP2 SWAP1 POP JUMP JUMPDEST PUSH1 0x0 PUSH4 0xFFFFFFFF DUP3 AND SWAP1 POP SWAP2 SWAP1 POP JUMP JUMPDEST PUSH1 0x0 PUSH2 0x11ED DUP3 PUSH2 0x1195 JUMP JUMPDEST SWAP1 POP SWAP2 SWAP1 POP JUMP JUMPDEST PUSH32 0x4E487B7100000000000000000000000000000000000000000000000000000000 PUSH1 0x0 MSTORE PUSH1 0x11 PUSH1 0x4 MSTORE PUSH1 0x24 PUSH1 0x0 REVERT JUMPDEST PUSH32 0x4E487B7100000000000000000000000000000000000000000000000000000000 PUSH1 0x0 MSTORE PUSH1 0x12 PUSH1 0x4 MSTORE PUSH1 0x24 PUSH1 0x0 REVERT JUMPDEST PUSH32 0x4E487B7100000000000000000000000000000000000000000000000000000000 PUSH1 0x0 MSTORE PUSH1 0x21 PUSH1 0x4 MSTORE PUSH1 0x24 PUSH1 0x0 REVERT JUMPDEST PUSH1 0x0 DUP1 REVERT JUMPDEST PUSH32 0x4F776E61626C653A206E6577206F776E657220697320746865207A65726F2061 PUSH1 0x0 DUP3 ADD MSTORE PUSH32 0x6464726573730000000000000000000000000000000000000000000000000000 PUSH1 0x20 DUP3 ADD MSTORE POP JUMP JUMPDEST PUSH32 0x4F776E61626C653A2063616C6C6572206973206E6F7420746865206F776E6572 PUSH1 0x0 DUP3 ADD MSTORE POP JUMP JUMPDEST PUSH1 0x5 DUP2 LT PUSH2 0x130F JUMPI PUSH2 0x130E PUSH2 0x1252 JUMP JUMPDEST JUMPDEST POP JUMP JUMPDEST PUSH2 0x131B DUP2 PUSH2 0x1183 JUMP JUMPDEST DUP2 EQ PUSH2 0x1326 JUMPI PUSH1 0x0 DUP1 REVERT JUMPDEST POP JUMP JUMPDEST PUSH1 0x5 DUP2 LT PUSH2 0x1336 JUMPI PUSH1 0x0 DUP1 REVERT JUMPDEST POP JUMP JUMPDEST PUSH2 0x1342 DUP2 PUSH2 0x11C8 JUMP JUMPDEST DUP2 EQ PUSH2 0x134D JUMPI PUSH1 0x0 DUP1 REVERT JUMPDEST POP JUMP JUMPDEST PUSH2 0x1359 DUP2 PUSH2 0x11D2 JUMP JUMPDEST DUP2 EQ PUSH2 0x1364 JUMPI PUSH1 0x0 DUP1 REVERT JUMPDEST POP JUMP INVALID LOG2 PUSH5 0x6970667358 0x22 SLT KECCAK256 PUSH30 0x137514CE3B0D2C869C398724D3828158C0CF47D8CE8178946B659AC013B3 SWAP11 PUSH5 0x736F6C6343 STOP ADDMOD SMOD STOP CALLER LOG2 PUSH5 0x6970667358 0x22 SLT KECCAK256 EXTCODEHASH 0xC6 DUP5 SIGNEXTEND SWAP11 ORIGIN 0xC8 EXTCODECOPY GASPRICE 0x27 SWAP2 0xAB SWAP4 PUSH28 0x4DAF774FD5805833B2CB30E7F0796AB7BE64736F6C634300080700 CALLER "
				},
				"gasEstimates": {
					"creation": {
						"codeDepositCost": "2952800",
						"executionCost": "3239",
						"totalCost": "2956039"
					},
					"external": {
						"accept(bool,uint256,uint256)": "infinite",
						"cancel(uint256)": "infinite",
						"claim(uint256)": "infinite",
						"close(uint256)": "infinite",
						"create(bool,uint256,uint256,uint256,uint256,uint256,uint32,uint32)": "infinite",
						"getBuyer(uint256)": "infinite",
						"getNextPayDate(uint256)": "infinite",
						"getPremium(uint256)": "infinite",
						"getPrices(uint256)": "infinite",
						"getRounds(uint256)": "infinite",
						"getSeller(uint256)": "infinite",
						"getSellerDeposit(uint256)": "infinite",
						"getStatus(uint256)": "infinite",
						"getSwap(uint256)": "3040",
						"getSwapId()": "2680",
						"payPremium(uint256)": "infinite"
					}
				},
				"methodIdentifiers": {
					"accept(bool,uint256,uint256)": "f566edac",
					"cancel(uint256)": "40e58ee5",
					"claim(uint256)": "379607f5",
					"close(uint256)": "0aebeb4e",
					"create(bool,uint256,uint256,uint256,uint256,uint256,uint32,uint32)": "8a614dd5",
					"getBuyer(uint256)": "5bf608b8",
					"getNextPayDate(uint256)": "8bfd13ae",
					"getPremium(uint256)": "1bf1fffb",
					"getPrices(uint256)": "91492956",
					"getRounds(uint256)": "13ef3dcc",
					"getSeller(uint256)": "d6a9de51",
					"getSellerDeposit(uint256)": "88106323",
					"getStatus(uint256)": "5c622a0e",
					"getSwap(uint256)": "4a0d89ba",
					"getSwapId()": "496ab39a",
					"payPremium(uint256)": "4364b26e"
				}
			},
			"storageLayout": {
				"storage": [
					{
						"astId": 531,
						"contract": "contracts/Handler/Swaps.sol:Swaps",
						"label": "_swapId",
						"offset": 0,
						"slot": "0",
						"type": "t_struct(Counter)140_storage"
					},
					{
						"astId": 536,
						"contract": "contracts/Handler/Swaps.sol:Swaps",
						"label": "_swaps",
						"offset": 0,
						"slot": "1",
						"type": "t_mapping(t_uint256,t_contract(Swap)1384)"
					},
					{
						"astId": 540,
						"contract": "contracts/Handler/Swaps.sol:Swaps",
						"label": "_nextPayDate",
						"offset": 0,
						"slot": "2",
						"type": "t_mapping(t_uint256,t_uint256)"
					}
				],
				"types": {
					"t_contract(Swap)1384": {
						"encoding": "inplace",
						"label": "contract Swap",
						"numberOfBytes": "20"
					},
					"t_mapping(t_uint256,t_contract(Swap)1384)": {
						"encoding": "mapping",
						"key": "t_uint256",
						"label": "mapping(uint256 => contract Swap)",
						"numberOfBytes": "32",
						"value": "t_contract(Swap)1384"
					},
					"t_mapping(t_uint256,t_uint256)": {
						"encoding": "mapping",
						"key": "t_uint256",
						"label": "mapping(uint256 => uint256)",
						"numberOfBytes": "32",
						"value": "t_uint256"
					},
					"t_struct(Counter)140_storage": {
						"encoding": "inplace",
						"label": "struct Counters.Counter",
						"members": [
							{
								"astId": 139,
								"contract": "contracts/Handler/Swaps.sol:Swaps",
								"label": "_value",
								"offset": 0,
								"slot": "0",
								"type": "t_uint256"
							}
						],
						"numberOfBytes": "32"
					},
					"t_uint256": {
						"encoding": "inplace",
						"label": "uint256",
						"numberOfBytes": "32"
					}
				}
			},
			"userdoc": {
				"kind": "user",
				"methods": {},
				"version": 1
			}
		}
	}
}