{
	"contracts/CDS/PriceConsumer.sol": {
		"PriceConsumer": {
			"abi": [
				{
					"inputs": [],
					"stateMutability": "nonpayable",
					"type": "constructor"
				},
				{
					"inputs": [
						{
							"internalType": "uint32",
							"name": "_assetType",
							"type": "uint32"
						}
					],
					"name": "getCurrPrice",
					"outputs": [
						{
							"internalType": "uint256",
							"name": "",
							"type": "uint256"
						}
					],
					"stateMutability": "view",
					"type": "function"
				}
			],
			"devdoc": {
				"kind": "dev",
				"methods": {},
				"version": 1
			},
			"evm": {
				"assembly": "    /* \"contracts/CDS/PriceConsumer.sol\":157:748  contract PriceConsumer {... */\n  mstore(0x40, 0x80)\n    /* \"contracts/CDS/PriceConsumer.sol\":255:374  constructor() {... */\n  callvalue\n  dup1\n  iszero\n  tag_1\n  jumpi\n  0x00\n  dup1\n  revert\ntag_1:\n  pop\n    /* \"contracts/CDS/PriceConsumer.sol\":320:362  0xF2A3Fa0266A0fEFFA87DA45F0D3C45aC66FE05c5 */\n  0xf2a3fa0266a0feffa87da45f0d3c45ac66fe05c5\n    /* \"contracts/CDS/PriceConsumer.sol\":275:286  priceOracle */\n  0x00\n  dup1\n    /* \"contracts/CDS/PriceConsumer.sol\":275:369  priceOracle = PriceOracleMock(... */\n  0x0100\n  exp\n  dup2\n  sload\n  dup2\n  0xffffffffffffffffffffffffffffffffffffffff\n  mul\n  not\n  and\n  swap1\n  dup4\n  0xffffffffffffffffffffffffffffffffffffffff\n  and\n  mul\n  or\n  swap1\n  sstore\n  pop\n    /* \"contracts/CDS/PriceConsumer.sol\":157:748  contract PriceConsumer {... */\n  dataSize(sub_0)\n  dup1\n  dataOffset(sub_0)\n  0x00\n  codecopy\n  0x00\n  return\nstop\n\nsub_0: assembly {\n        /* \"contracts/CDS/PriceConsumer.sol\":157:748  contract PriceConsumer {... */\n      mstore(0x40, 0x80)\n      callvalue\n      dup1\n      iszero\n      tag_1\n      jumpi\n      0x00\n      dup1\n      revert\n    tag_1:\n      pop\n      jumpi(tag_2, lt(calldatasize, 0x04))\n      shr(0xe0, calldataload(0x00))\n      dup1\n      0xcbed2449\n      eq\n      tag_3\n      jumpi\n    tag_2:\n      0x00\n      dup1\n      revert\n        /* \"contracts/CDS/PriceConsumer.sol\":378:746  function getCurrPrice(uint32 _assetType) public view returns (uint256) {... */\n    tag_3:\n      tag_4\n      0x04\n      dup1\n      calldatasize\n      sub\n      dup2\n      add\n      swap1\n      tag_5\n      swap2\n      swap1\n      tag_6\n      jump\t// in\n    tag_5:\n      tag_7\n      jump\t// in\n    tag_4:\n      mload(0x40)\n      tag_8\n      swap2\n      swap1\n      tag_9\n      jump\t// in\n    tag_8:\n      mload(0x40)\n      dup1\n      swap2\n      sub\n      swap1\n      return\n    tag_7:\n        /* \"contracts/CDS/PriceConsumer.sol\":440:447  uint256 */\n      0x00\n        /* \"contracts/CDS/PriceConsumer.sol\":455:468  uint256 price */\n      dup1\n        /* \"contracts/CDS/PriceConsumer.sol\":492:493  0 */\n      0x00\n        /* \"contracts/CDS/PriceConsumer.sol\":478:488  _assetType */\n      dup4\n        /* \"contracts/CDS/PriceConsumer.sol\":478:493  _assetType == 0 */\n      0xffffffff\n      and\n      eq\n        /* \"contracts/CDS/PriceConsumer.sol\":474:724  if (_assetType == 0) {... */\n      iszero\n      tag_11\n      jumpi\n        /* \"contracts/CDS/PriceConsumer.sol\":511:546  priceOracle.btcPrice().div(10 ** 8) */\n      tag_12\n        /* \"contracts/CDS/PriceConsumer.sol\":538:545  10 ** 8 */\n      0x05f5e100\n        /* \"contracts/CDS/PriceConsumer.sol\":511:522  priceOracle */\n      0x00\n      dup1\n      sload\n      swap1\n      0x0100\n      exp\n      swap1\n      div\n      0xffffffffffffffffffffffffffffffffffffffff\n      and\n        /* \"contracts/CDS/PriceConsumer.sol\":511:531  priceOracle.btcPrice */\n      0xffffffffffffffffffffffffffffffffffffffff\n      and\n      0xa8ad52d1\n        /* \"contracts/CDS/PriceConsumer.sol\":511:533  priceOracle.btcPrice() */\n      mload(0x40)\n      dup2\n      0xffffffff\n      and\n      0xe0\n      shl\n      dup2\n      mstore\n      0x04\n      add\n      0x20\n      mload(0x40)\n      dup1\n      dup4\n      sub\n      dup2\n      dup7\n      gas\n      staticcall\n      iszero\n      dup1\n      iszero\n      tag_14\n      jumpi\n      returndatasize\n      0x00\n      dup1\n      returndatacopy\n      revert(0x00, returndatasize)\n    tag_14:\n      pop\n      pop\n      pop\n      pop\n      mload(0x40)\n      returndatasize\n      not(0x1f)\n      0x1f\n      dup3\n      add\n      and\n      dup3\n      add\n      dup1\n      0x40\n      mstore\n      pop\n      dup2\n      add\n      swap1\n      tag_15\n      swap2\n      swap1\n      tag_16\n      jump\t// in\n    tag_15:\n        /* \"contracts/CDS/PriceConsumer.sol\":511:537  priceOracle.btcPrice().div */\n      tag_17\n      swap1\n        /* \"contracts/CDS/PriceConsumer.sol\":511:546  priceOracle.btcPrice().div(10 ** 8) */\n      swap2\n      swap1\n      0xffffffff\n      and\n      jump\t// in\n    tag_12:\n        /* \"contracts/CDS/PriceConsumer.sol\":503:546  price = priceOracle.btcPrice().div(10 ** 8) */\n      swap1\n      pop\n        /* \"contracts/CDS/PriceConsumer.sol\":474:724  if (_assetType == 0) {... */\n      jump(tag_18)\n    tag_11:\n        /* \"contracts/CDS/PriceConsumer.sol\":577:578  1 */\n      0x01\n        /* \"contracts/CDS/PriceConsumer.sol\":563:573  _assetType */\n      dup4\n        /* \"contracts/CDS/PriceConsumer.sol\":563:578  _assetType == 1 */\n      0xffffffff\n      and\n      eq\n        /* \"contracts/CDS/PriceConsumer.sol\":559:724  if (_assetType == 1) {... */\n      iszero\n      tag_19\n      jumpi\n        /* \"contracts/CDS/PriceConsumer.sol\":596:631  priceOracle.ethPrice().div(10 ** 8) */\n      tag_20\n        /* \"contracts/CDS/PriceConsumer.sol\":623:630  10 ** 8 */\n      0x05f5e100\n        /* \"contracts/CDS/PriceConsumer.sol\":596:607  priceOracle */\n      0x00\n      dup1\n      sload\n      swap1\n      0x0100\n      exp\n      swap1\n      div\n      0xffffffffffffffffffffffffffffffffffffffff\n      and\n        /* \"contracts/CDS/PriceConsumer.sol\":596:616  priceOracle.ethPrice */\n      0xffffffffffffffffffffffffffffffffffffffff\n      and\n      0xff186b2e\n        /* \"contracts/CDS/PriceConsumer.sol\":596:618  priceOracle.ethPrice() */\n      mload(0x40)\n      dup2\n      0xffffffff\n      and\n      0xe0\n      shl\n      dup2\n      mstore\n      0x04\n      add\n      0x20\n      mload(0x40)\n      dup1\n      dup4\n      sub\n      dup2\n      dup7\n      gas\n      staticcall\n      iszero\n      dup1\n      iszero\n      tag_22\n      jumpi\n      returndatasize\n      0x00\n      dup1\n      returndatacopy\n      revert(0x00, returndatasize)\n    tag_22:\n      pop\n      pop\n      pop\n      pop\n      mload(0x40)\n      returndatasize\n      not(0x1f)\n      0x1f\n      dup3\n      add\n      and\n      dup3\n      add\n      dup1\n      0x40\n      mstore\n      pop\n      dup2\n      add\n      swap1\n      tag_23\n      swap2\n      swap1\n      tag_16\n      jump\t// in\n    tag_23:\n        /* \"contracts/CDS/PriceConsumer.sol\":596:622  priceOracle.ethPrice().div */\n      tag_17\n      swap1\n        /* \"contracts/CDS/PriceConsumer.sol\":596:631  priceOracle.ethPrice().div(10 ** 8) */\n      swap2\n      swap1\n      0xffffffff\n      and\n      jump\t// in\n    tag_20:\n        /* \"contracts/CDS/PriceConsumer.sol\":588:631  price = priceOracle.ethPrice().div(10 ** 8) */\n      swap1\n      pop\n        /* \"contracts/CDS/PriceConsumer.sol\":559:724  if (_assetType == 1) {... */\n      jump(tag_24)\n    tag_19:\n        /* \"contracts/CDS/PriceConsumer.sol\":662:663  2 */\n      0x02\n        /* \"contracts/CDS/PriceConsumer.sol\":648:658  _assetType */\n      dup4\n        /* \"contracts/CDS/PriceConsumer.sol\":648:663  _assetType == 2 */\n      0xffffffff\n      and\n      eq\n        /* \"contracts/CDS/PriceConsumer.sol\":644:724  if (_assetType == 2) {... */\n      iszero\n      tag_25\n      jumpi\n        /* \"contracts/CDS/PriceConsumer.sol\":681:717  priceOracle.linkPrice().div(10 ** 8) */\n      tag_26\n        /* \"contracts/CDS/PriceConsumer.sol\":709:716  10 ** 8 */\n      0x05f5e100\n        /* \"contracts/CDS/PriceConsumer.sol\":681:692  priceOracle */\n      0x00\n      dup1\n      sload\n      swap1\n      0x0100\n      exp\n      swap1\n      div\n      0xffffffffffffffffffffffffffffffffffffffff\n      and\n        /* \"contracts/CDS/PriceConsumer.sol\":681:702  priceOracle.linkPrice */\n      0xffffffffffffffffffffffffffffffffffffffff\n      and\n      0x0cf78535\n        /* \"contracts/CDS/PriceConsumer.sol\":681:704  priceOracle.linkPrice() */\n      mload(0x40)\n      dup2\n      0xffffffff\n      and\n      0xe0\n      shl\n      dup2\n      mstore\n      0x04\n      add\n      0x20\n      mload(0x40)\n      dup1\n      dup4\n      sub\n      dup2\n      dup7\n      gas\n      staticcall\n      iszero\n      dup1\n      iszero\n      tag_28\n      jumpi\n      returndatasize\n      0x00\n      dup1\n      returndatacopy\n      revert(0x00, returndatasize)\n    tag_28:\n      pop\n      pop\n      pop\n      pop\n      mload(0x40)\n      returndatasize\n      not(0x1f)\n      0x1f\n      dup3\n      add\n      and\n      dup3\n      add\n      dup1\n      0x40\n      mstore\n      pop\n      dup2\n      add\n      swap1\n      tag_29\n      swap2\n      swap1\n      tag_16\n      jump\t// in\n    tag_29:\n        /* \"contracts/CDS/PriceConsumer.sol\":681:708  priceOracle.linkPrice().div */\n      tag_17\n      swap1\n        /* \"contracts/CDS/PriceConsumer.sol\":681:717  priceOracle.linkPrice().div(10 ** 8) */\n      swap2\n      swap1\n      0xffffffff\n      and\n      jump\t// in\n    tag_26:\n        /* \"contracts/CDS/PriceConsumer.sol\":673:717  price = priceOracle.linkPrice().div(10 ** 8) */\n      swap1\n      pop\n        /* \"contracts/CDS/PriceConsumer.sol\":644:724  if (_assetType == 2) {... */\n    tag_25:\n        /* \"contracts/CDS/PriceConsumer.sol\":559:724  if (_assetType == 1) {... */\n    tag_24:\n        /* \"contracts/CDS/PriceConsumer.sol\":474:724  if (_assetType == 0) {... */\n    tag_18:\n        /* \"contracts/CDS/PriceConsumer.sol\":736:741  price */\n      dup1\n        /* \"contracts/CDS/PriceConsumer.sol\":729:741  return price */\n      swap2\n      pop\n      pop\n        /* \"contracts/CDS/PriceConsumer.sol\":378:746  function getCurrPrice(uint32 _assetType) public view returns (uint256) {... */\n      swap2\n      swap1\n      pop\n      jump\t// out\n        /* \"@openzeppelin/contracts/utils/math/SafeMath.sol\":3850:3946  function div(uint256 a, uint256 b) internal pure returns (uint256) {... */\n    tag_17:\n        /* \"@openzeppelin/contracts/utils/math/SafeMath.sol\":3908:3915  uint256 */\n      0x00\n        /* \"@openzeppelin/contracts/utils/math/SafeMath.sol\":3938:3939  b */\n      dup2\n        /* \"@openzeppelin/contracts/utils/math/SafeMath.sol\":3934:3935  a */\n      dup4\n        /* \"@openzeppelin/contracts/utils/math/SafeMath.sol\":3934:3939  a / b */\n      tag_31\n      swap2\n      swap1\n      tag_32\n      jump\t// in\n    tag_31:\n        /* \"@openzeppelin/contracts/utils/math/SafeMath.sol\":3927:3939  return a / b */\n      swap1\n      pop\n        /* \"@openzeppelin/contracts/utils/math/SafeMath.sol\":3850:3946  function div(uint256 a, uint256 b) internal pure returns (uint256) {... */\n      swap3\n      swap2\n      pop\n      pop\n      jump\t// out\n        /* \"#utility.yul\":88:205   */\n    tag_34:\n        /* \"#utility.yul\":197:198   */\n      0x00\n        /* \"#utility.yul\":194:195   */\n      dup1\n        /* \"#utility.yul\":187:199   */\n      revert\n        /* \"#utility.yul\":334:427   */\n    tag_36:\n        /* \"#utility.yul\":370:377   */\n      0x00\n        /* \"#utility.yul\":410:420   */\n      0xffffffff\n        /* \"#utility.yul\":403:408   */\n      dup3\n        /* \"#utility.yul\":399:421   */\n      and\n        /* \"#utility.yul\":388:421   */\n      swap1\n      pop\n        /* \"#utility.yul\":334:427   */\n      swap2\n      swap1\n      pop\n      jump\t// out\n        /* \"#utility.yul\":433:553   */\n    tag_37:\n        /* \"#utility.yul\":505:528   */\n      tag_51\n        /* \"#utility.yul\":522:527   */\n      dup2\n        /* \"#utility.yul\":505:528   */\n      tag_36\n      jump\t// in\n    tag_51:\n        /* \"#utility.yul\":498:503   */\n      dup2\n        /* \"#utility.yul\":495:529   */\n      eq\n        /* \"#utility.yul\":485:547   */\n      tag_52\n      jumpi\n        /* \"#utility.yul\":543:544   */\n      0x00\n        /* \"#utility.yul\":540:541   */\n      dup1\n        /* \"#utility.yul\":533:545   */\n      revert\n        /* \"#utility.yul\":485:547   */\n    tag_52:\n        /* \"#utility.yul\":433:553   */\n      pop\n      jump\t// out\n        /* \"#utility.yul\":559:696   */\n    tag_38:\n        /* \"#utility.yul\":604:609   */\n      0x00\n        /* \"#utility.yul\":642:648   */\n      dup2\n        /* \"#utility.yul\":629:649   */\n      calldataload\n        /* \"#utility.yul\":620:649   */\n      swap1\n      pop\n        /* \"#utility.yul\":658:690   */\n      tag_54\n        /* \"#utility.yul\":684:689   */\n      dup2\n        /* \"#utility.yul\":658:690   */\n      tag_37\n      jump\t// in\n    tag_54:\n        /* \"#utility.yul\":559:696   */\n      swap3\n      swap2\n      pop\n      pop\n      jump\t// out\n        /* \"#utility.yul\":702:1029   */\n    tag_6:\n        /* \"#utility.yul\":760:766   */\n      0x00\n        /* \"#utility.yul\":809:811   */\n      0x20\n        /* \"#utility.yul\":797:806   */\n      dup3\n        /* \"#utility.yul\":788:795   */\n      dup5\n        /* \"#utility.yul\":784:807   */\n      sub\n        /* \"#utility.yul\":780:812   */\n      slt\n        /* \"#utility.yul\":777:896   */\n      iszero\n      tag_56\n      jumpi\n        /* \"#utility.yul\":815:894   */\n      tag_57\n      tag_34\n      jump\t// in\n    tag_57:\n        /* \"#utility.yul\":777:896   */\n    tag_56:\n        /* \"#utility.yul\":935:936   */\n      0x00\n        /* \"#utility.yul\":960:1012   */\n      tag_58\n        /* \"#utility.yul\":1004:1011   */\n      dup5\n        /* \"#utility.yul\":995:1001   */\n      dup3\n        /* \"#utility.yul\":984:993   */\n      dup6\n        /* \"#utility.yul\":980:1002   */\n      add\n        /* \"#utility.yul\":960:1012   */\n      tag_38\n      jump\t// in\n    tag_58:\n        /* \"#utility.yul\":950:1012   */\n      swap2\n      pop\n        /* \"#utility.yul\":906:1022   */\n      pop\n        /* \"#utility.yul\":702:1029   */\n      swap3\n      swap2\n      pop\n      pop\n      jump\t// out\n        /* \"#utility.yul\":1035:1112   */\n    tag_39:\n        /* \"#utility.yul\":1072:1079   */\n      0x00\n        /* \"#utility.yul\":1101:1106   */\n      dup2\n        /* \"#utility.yul\":1090:1106   */\n      swap1\n      pop\n        /* \"#utility.yul\":1035:1112   */\n      swap2\n      swap1\n      pop\n      jump\t// out\n        /* \"#utility.yul\":1118:1236   */\n    tag_40:\n        /* \"#utility.yul\":1205:1229   */\n      tag_61\n        /* \"#utility.yul\":1223:1228   */\n      dup2\n        /* \"#utility.yul\":1205:1229   */\n      tag_39\n      jump\t// in\n    tag_61:\n        /* \"#utility.yul\":1200:1203   */\n      dup3\n        /* \"#utility.yul\":1193:1230   */\n      mstore\n        /* \"#utility.yul\":1118:1236   */\n      pop\n      pop\n      jump\t// out\n        /* \"#utility.yul\":1242:1464   */\n    tag_9:\n        /* \"#utility.yul\":1335:1339   */\n      0x00\n        /* \"#utility.yul\":1373:1375   */\n      0x20\n        /* \"#utility.yul\":1362:1371   */\n      dup3\n        /* \"#utility.yul\":1358:1376   */\n      add\n        /* \"#utility.yul\":1350:1376   */\n      swap1\n      pop\n        /* \"#utility.yul\":1386:1457   */\n      tag_63\n        /* \"#utility.yul\":1454:1455   */\n      0x00\n        /* \"#utility.yul\":1443:1452   */\n      dup4\n        /* \"#utility.yul\":1439:1456   */\n      add\n        /* \"#utility.yul\":1430:1436   */\n      dup5\n        /* \"#utility.yul\":1386:1457   */\n      tag_40\n      jump\t// in\n    tag_63:\n        /* \"#utility.yul\":1242:1464   */\n      swap3\n      swap2\n      pop\n      pop\n      jump\t// out\n        /* \"#utility.yul\":1470:1592   */\n    tag_41:\n        /* \"#utility.yul\":1543:1567   */\n      tag_65\n        /* \"#utility.yul\":1561:1566   */\n      dup2\n        /* \"#utility.yul\":1543:1567   */\n      tag_39\n      jump\t// in\n    tag_65:\n        /* \"#utility.yul\":1536:1541   */\n      dup2\n        /* \"#utility.yul\":1533:1568   */\n      eq\n        /* \"#utility.yul\":1523:1586   */\n      tag_66\n      jumpi\n        /* \"#utility.yul\":1582:1583   */\n      0x00\n        /* \"#utility.yul\":1579:1580   */\n      dup1\n        /* \"#utility.yul\":1572:1584   */\n      revert\n        /* \"#utility.yul\":1523:1586   */\n    tag_66:\n        /* \"#utility.yul\":1470:1592   */\n      pop\n      jump\t// out\n        /* \"#utility.yul\":1598:1741   */\n    tag_42:\n        /* \"#utility.yul\":1655:1660   */\n      0x00\n        /* \"#utility.yul\":1686:1692   */\n      dup2\n        /* \"#utility.yul\":1680:1693   */\n      mload\n        /* \"#utility.yul\":1671:1693   */\n      swap1\n      pop\n        /* \"#utility.yul\":1702:1735   */\n      tag_68\n        /* \"#utility.yul\":1729:1734   */\n      dup2\n        /* \"#utility.yul\":1702:1735   */\n      tag_41\n      jump\t// in\n    tag_68:\n        /* \"#utility.yul\":1598:1741   */\n      swap3\n      swap2\n      pop\n      pop\n      jump\t// out\n        /* \"#utility.yul\":1747:2098   */\n    tag_16:\n        /* \"#utility.yul\":1817:1823   */\n      0x00\n        /* \"#utility.yul\":1866:1868   */\n      0x20\n        /* \"#utility.yul\":1854:1863   */\n      dup3\n        /* \"#utility.yul\":1845:1852   */\n      dup5\n        /* \"#utility.yul\":1841:1864   */\n      sub\n        /* \"#utility.yul\":1837:1869   */\n      slt\n        /* \"#utility.yul\":1834:1953   */\n      iszero\n      tag_70\n      jumpi\n        /* \"#utility.yul\":1872:1951   */\n      tag_71\n      tag_34\n      jump\t// in\n    tag_71:\n        /* \"#utility.yul\":1834:1953   */\n    tag_70:\n        /* \"#utility.yul\":1992:1993   */\n      0x00\n        /* \"#utility.yul\":2017:2081   */\n      tag_72\n        /* \"#utility.yul\":2073:2080   */\n      dup5\n        /* \"#utility.yul\":2064:2070   */\n      dup3\n        /* \"#utility.yul\":2053:2062   */\n      dup6\n        /* \"#utility.yul\":2049:2071   */\n      add\n        /* \"#utility.yul\":2017:2081   */\n      tag_42\n      jump\t// in\n    tag_72:\n        /* \"#utility.yul\":2007:2081   */\n      swap2\n      pop\n        /* \"#utility.yul\":1963:2091   */\n      pop\n        /* \"#utility.yul\":1747:2098   */\n      swap3\n      swap2\n      pop\n      pop\n      jump\t// out\n        /* \"#utility.yul\":2104:2284   */\n    tag_43:\n        /* \"#utility.yul\":2152:2229   */\n      0x4e487b7100000000000000000000000000000000000000000000000000000000\n        /* \"#utility.yul\":2149:2150   */\n      0x00\n        /* \"#utility.yul\":2142:2230   */\n      mstore\n        /* \"#utility.yul\":2249:2253   */\n      0x12\n        /* \"#utility.yul\":2246:2247   */\n      0x04\n        /* \"#utility.yul\":2239:2254   */\n      mstore\n        /* \"#utility.yul\":2273:2277   */\n      0x24\n        /* \"#utility.yul\":2270:2271   */\n      0x00\n        /* \"#utility.yul\":2263:2278   */\n      revert\n        /* \"#utility.yul\":2476:2661   */\n    tag_32:\n        /* \"#utility.yul\":2516:2517   */\n      0x00\n        /* \"#utility.yul\":2533:2553   */\n      tag_76\n        /* \"#utility.yul\":2551:2552   */\n      dup3\n        /* \"#utility.yul\":2533:2553   */\n      tag_39\n      jump\t// in\n    tag_76:\n        /* \"#utility.yul\":2528:2553   */\n      swap2\n      pop\n        /* \"#utility.yul\":2567:2587   */\n      tag_77\n        /* \"#utility.yul\":2585:2586   */\n      dup4\n        /* \"#utility.yul\":2567:2587   */\n      tag_39\n      jump\t// in\n    tag_77:\n        /* \"#utility.yul\":2562:2587   */\n      swap3\n      pop\n        /* \"#utility.yul\":2606:2607   */\n      dup3\n        /* \"#utility.yul\":2596:2631   */\n      tag_78\n      jumpi\n        /* \"#utility.yul\":2611:2629   */\n      tag_79\n      tag_43\n      jump\t// in\n    tag_79:\n        /* \"#utility.yul\":2596:2631   */\n    tag_78:\n        /* \"#utility.yul\":2653:2654   */\n      dup3\n        /* \"#utility.yul\":2650:2651   */\n      dup3\n        /* \"#utility.yul\":2646:2655   */\n      div\n        /* \"#utility.yul\":2641:2655   */\n      swap1\n      pop\n        /* \"#utility.yul\":2476:2661   */\n      swap3\n      swap2\n      pop\n      pop\n      jump\t// out\n\n    auxdata: 0xa26469706673582212202c13a05bf64a3e59d62cf62a4cf86f9c857c855f99be7d38629f7b9042327c1664736f6c634300080a0033\n}\n",
				"bytecode": {
					"linkReferences": {},
					"object": "608060405234801561001057600080fd5b5073f2a3fa0266a0feffa87da45f0d3c45ac66fe05c56000806101000a81548173ffffffffffffffffffffffffffffffffffffffff021916908373ffffffffffffffffffffffffffffffffffffffff160217905550610442806100746000396000f3fe608060405234801561001057600080fd5b506004361061002b5760003560e01c8063cbed244914610030575b600080fd5b61004a600480360381019061004591906102f2565b610060565b6040516100579190610338565b60405180910390f35b60008060008363ffffffff16141561011e576101176305f5e10060008054906101000a900473ffffffffffffffffffffffffffffffffffffffff1673ffffffffffffffffffffffffffffffffffffffff1663a8ad52d16040518163ffffffff1660e01b8152600401602060405180830381865afa1580156100e5573d6000803e3d6000fd5b505050506040513d601f19601f82011682018060405250810190610109919061037f565b61029b90919063ffffffff16565b9050610292565b60018363ffffffff1614156101d9576101d26305f5e10060008054906101000a900473ffffffffffffffffffffffffffffffffffffffff1673ffffffffffffffffffffffffffffffffffffffff1663ff186b2e6040518163ffffffff1660e01b8152600401602060405180830381865afa1580156101a0573d6000803e3d6000fd5b505050506040513d601f19601f820116820180604052508101906101c4919061037f565b61029b90919063ffffffff16565b9050610291565b60028363ffffffff1614156102905761028d6305f5e10060008054906101000a900473ffffffffffffffffffffffffffffffffffffffff1673ffffffffffffffffffffffffffffffffffffffff16630cf785356040518163ffffffff1660e01b8152600401602060405180830381865afa15801561025b573d6000803e3d6000fd5b505050506040513d601f19601f8201168201806040525081019061027f919061037f565b61029b90919063ffffffff16565b90505b5b5b80915050919050565b600081836102a991906103db565b905092915050565b600080fd5b600063ffffffff82169050919050565b6102cf816102b6565b81146102da57600080fd5b50565b6000813590506102ec816102c6565b92915050565b600060208284031215610308576103076102b1565b5b6000610316848285016102dd565b91505092915050565b6000819050919050565b6103328161031f565b82525050565b600060208201905061034d6000830184610329565b92915050565b61035c8161031f565b811461036757600080fd5b50565b60008151905061037981610353565b92915050565b600060208284031215610395576103946102b1565b5b60006103a38482850161036a565b91505092915050565b7f4e487b7100000000000000000000000000000000000000000000000000000000600052601260045260246000fd5b60006103e68261031f565b91506103f18361031f565b925082610401576104006103ac565b5b82820490509291505056fea26469706673582212202c13a05bf64a3e59d62cf62a4cf86f9c857c855f99be7d38629f7b9042327c1664736f6c634300080a0033",
					"opcodes": "PUSH1 0x80 PUSH1 0x40 MSTORE CALLVALUE DUP1 ISZERO PUSH2 0x10 JUMPI PUSH1 0x0 DUP1 REVERT JUMPDEST POP PUSH20 0xF2A3FA0266A0FEFFA87DA45F0D3C45AC66FE05C5 PUSH1 0x0 DUP1 PUSH2 0x100 EXP DUP2 SLOAD DUP2 PUSH20 0xFFFFFFFFFFFFFFFFFFFFFFFFFFFFFFFFFFFFFFFF MUL NOT AND SWAP1 DUP4 PUSH20 0xFFFFFFFFFFFFFFFFFFFFFFFFFFFFFFFFFFFFFFFF AND MUL OR SWAP1 SSTORE POP PUSH2 0x442 DUP1 PUSH2 0x74 PUSH1 0x0 CODECOPY PUSH1 0x0 RETURN INVALID PUSH1 0x80 PUSH1 0x40 MSTORE CALLVALUE DUP1 ISZERO PUSH2 0x10 JUMPI PUSH1 0x0 DUP1 REVERT JUMPDEST POP PUSH1 0x4 CALLDATASIZE LT PUSH2 0x2B JUMPI PUSH1 0x0 CALLDATALOAD PUSH1 0xE0 SHR DUP1 PUSH4 0xCBED2449 EQ PUSH2 0x30 JUMPI JUMPDEST PUSH1 0x0 DUP1 REVERT JUMPDEST PUSH2 0x4A PUSH1 0x4 DUP1 CALLDATASIZE SUB DUP2 ADD SWAP1 PUSH2 0x45 SWAP2 SWAP1 PUSH2 0x2F2 JUMP JUMPDEST PUSH2 0x60 JUMP JUMPDEST PUSH1 0x40 MLOAD PUSH2 0x57 SWAP2 SWAP1 PUSH2 0x338 JUMP JUMPDEST PUSH1 0x40 MLOAD DUP1 SWAP2 SUB SWAP1 RETURN JUMPDEST PUSH1 0x0 DUP1 PUSH1 0x0 DUP4 PUSH4 0xFFFFFFFF AND EQ ISZERO PUSH2 0x11E JUMPI PUSH2 0x117 PUSH4 0x5F5E100 PUSH1 0x0 DUP1 SLOAD SWAP1 PUSH2 0x100 EXP SWAP1 DIV PUSH20 0xFFFFFFFFFFFFFFFFFFFFFFFFFFFFFFFFFFFFFFFF AND PUSH20 0xFFFFFFFFFFFFFFFFFFFFFFFFFFFFFFFFFFFFFFFF AND PUSH4 0xA8AD52D1 PUSH1 0x40 MLOAD DUP2 PUSH4 0xFFFFFFFF AND PUSH1 0xE0 SHL DUP2 MSTORE PUSH1 0x4 ADD PUSH1 0x20 PUSH1 0x40 MLOAD DUP1 DUP4 SUB DUP2 DUP7 GAS STATICCALL ISZERO DUP1 ISZERO PUSH2 0xE5 JUMPI RETURNDATASIZE PUSH1 0x0 DUP1 RETURNDATACOPY RETURNDATASIZE PUSH1 0x0 REVERT JUMPDEST POP POP POP POP PUSH1 0x40 MLOAD RETURNDATASIZE PUSH1 0x1F NOT PUSH1 0x1F DUP3 ADD AND DUP3 ADD DUP1 PUSH1 0x40 MSTORE POP DUP2 ADD SWAP1 PUSH2 0x109 SWAP2 SWAP1 PUSH2 0x37F JUMP JUMPDEST PUSH2 0x29B SWAP1 SWAP2 SWAP1 PUSH4 0xFFFFFFFF AND JUMP JUMPDEST SWAP1 POP PUSH2 0x292 JUMP JUMPDEST PUSH1 0x1 DUP4 PUSH4 0xFFFFFFFF AND EQ ISZERO PUSH2 0x1D9 JUMPI PUSH2 0x1D2 PUSH4 0x5F5E100 PUSH1 0x0 DUP1 SLOAD SWAP1 PUSH2 0x100 EXP SWAP1 DIV PUSH20 0xFFFFFFFFFFFFFFFFFFFFFFFFFFFFFFFFFFFFFFFF AND PUSH20 0xFFFFFFFFFFFFFFFFFFFFFFFFFFFFFFFFFFFFFFFF AND PUSH4 0xFF186B2E PUSH1 0x40 MLOAD DUP2 PUSH4 0xFFFFFFFF AND PUSH1 0xE0 SHL DUP2 MSTORE PUSH1 0x4 ADD PUSH1 0x20 PUSH1 0x40 MLOAD DUP1 DUP4 SUB DUP2 DUP7 GAS STATICCALL ISZERO DUP1 ISZERO PUSH2 0x1A0 JUMPI RETURNDATASIZE PUSH1 0x0 DUP1 RETURNDATACOPY RETURNDATASIZE PUSH1 0x0 REVERT JUMPDEST POP POP POP POP PUSH1 0x40 MLOAD RETURNDATASIZE PUSH1 0x1F NOT PUSH1 0x1F DUP3 ADD AND DUP3 ADD DUP1 PUSH1 0x40 MSTORE POP DUP2 ADD SWAP1 PUSH2 0x1C4 SWAP2 SWAP1 PUSH2 0x37F JUMP JUMPDEST PUSH2 0x29B SWAP1 SWAP2 SWAP1 PUSH4 0xFFFFFFFF AND JUMP JUMPDEST SWAP1 POP PUSH2 0x291 JUMP JUMPDEST PUSH1 0x2 DUP4 PUSH4 0xFFFFFFFF AND EQ ISZERO PUSH2 0x290 JUMPI PUSH2 0x28D PUSH4 0x5F5E100 PUSH1 0x0 DUP1 SLOAD SWAP1 PUSH2 0x100 EXP SWAP1 DIV PUSH20 0xFFFFFFFFFFFFFFFFFFFFFFFFFFFFFFFFFFFFFFFF AND PUSH20 0xFFFFFFFFFFFFFFFFFFFFFFFFFFFFFFFFFFFFFFFF AND PUSH4 0xCF78535 PUSH1 0x40 MLOAD DUP2 PUSH4 0xFFFFFFFF AND PUSH1 0xE0 SHL DUP2 MSTORE PUSH1 0x4 ADD PUSH1 0x20 PUSH1 0x40 MLOAD DUP1 DUP4 SUB DUP2 DUP7 GAS STATICCALL ISZERO DUP1 ISZERO PUSH2 0x25B JUMPI RETURNDATASIZE PUSH1 0x0 DUP1 RETURNDATACOPY RETURNDATASIZE PUSH1 0x0 REVERT JUMPDEST POP POP POP POP PUSH1 0x40 MLOAD RETURNDATASIZE PUSH1 0x1F NOT PUSH1 0x1F DUP3 ADD AND DUP3 ADD DUP1 PUSH1 0x40 MSTORE POP DUP2 ADD SWAP1 PUSH2 0x27F SWAP2 SWAP1 PUSH2 0x37F JUMP JUMPDEST PUSH2 0x29B SWAP1 SWAP2 SWAP1 PUSH4 0xFFFFFFFF AND JUMP JUMPDEST SWAP1 POP JUMPDEST JUMPDEST JUMPDEST DUP1 SWAP2 POP POP SWAP2 SWAP1 POP JUMP JUMPDEST PUSH1 0x0 DUP2 DUP4 PUSH2 0x2A9 SWAP2 SWAP1 PUSH2 0x3DB JUMP JUMPDEST SWAP1 POP SWAP3 SWAP2 POP POP JUMP JUMPDEST PUSH1 0x0 DUP1 REVERT JUMPDEST PUSH1 0x0 PUSH4 0xFFFFFFFF DUP3 AND SWAP1 POP SWAP2 SWAP1 POP JUMP JUMPDEST PUSH2 0x2CF DUP2 PUSH2 0x2B6 JUMP JUMPDEST DUP2 EQ PUSH2 0x2DA JUMPI PUSH1 0x0 DUP1 REVERT JUMPDEST POP JUMP JUMPDEST PUSH1 0x0 DUP2 CALLDATALOAD SWAP1 POP PUSH2 0x2EC DUP2 PUSH2 0x2C6 JUMP JUMPDEST SWAP3 SWAP2 POP POP JUMP JUMPDEST PUSH1 0x0 PUSH1 0x20 DUP3 DUP5 SUB SLT ISZERO PUSH2 0x308 JUMPI PUSH2 0x307 PUSH2 0x2B1 JUMP JUMPDEST JUMPDEST PUSH1 0x0 PUSH2 0x316 DUP5 DUP3 DUP6 ADD PUSH2 0x2DD JUMP JUMPDEST SWAP2 POP POP SWAP3 SWAP2 POP POP JUMP JUMPDEST PUSH1 0x0 DUP2 SWAP1 POP SWAP2 SWAP1 POP JUMP JUMPDEST PUSH2 0x332 DUP2 PUSH2 0x31F JUMP JUMPDEST DUP3 MSTORE POP POP JUMP JUMPDEST PUSH1 0x0 PUSH1 0x20 DUP3 ADD SWAP1 POP PUSH2 0x34D PUSH1 0x0 DUP4 ADD DUP5 PUSH2 0x329 JUMP JUMPDEST SWAP3 SWAP2 POP POP JUMP JUMPDEST PUSH2 0x35C DUP2 PUSH2 0x31F JUMP JUMPDEST DUP2 EQ PUSH2 0x367 JUMPI PUSH1 0x0 DUP1 REVERT JUMPDEST POP JUMP JUMPDEST PUSH1 0x0 DUP2 MLOAD SWAP1 POP PUSH2 0x379 DUP2 PUSH2 0x353 JUMP JUMPDEST SWAP3 SWAP2 POP POP JUMP JUMPDEST PUSH1 0x0 PUSH1 0x20 DUP3 DUP5 SUB SLT ISZERO PUSH2 0x395 JUMPI PUSH2 0x394 PUSH2 0x2B1 JUMP JUMPDEST JUMPDEST PUSH1 0x0 PUSH2 0x3A3 DUP5 DUP3 DUP6 ADD PUSH2 0x36A JUMP JUMPDEST SWAP2 POP POP SWAP3 SWAP2 POP POP JUMP JUMPDEST PUSH32 0x4E487B7100000000000000000000000000000000000000000000000000000000 PUSH1 0x0 MSTORE PUSH1 0x12 PUSH1 0x4 MSTORE PUSH1 0x24 PUSH1 0x0 REVERT JUMPDEST PUSH1 0x0 PUSH2 0x3E6 DUP3 PUSH2 0x31F JUMP JUMPDEST SWAP2 POP PUSH2 0x3F1 DUP4 PUSH2 0x31F JUMP JUMPDEST SWAP3 POP DUP3 PUSH2 0x401 JUMPI PUSH2 0x400 PUSH2 0x3AC JUMP JUMPDEST JUMPDEST DUP3 DUP3 DIV SWAP1 POP SWAP3 SWAP2 POP POP JUMP INVALID LOG2 PUSH5 0x6970667358 0x22 SLT KECCAK256 0x2C SGT LOG0 JUMPDEST 0xF6 0x4A RETURNDATACOPY MSIZE 0xD6 0x2C 0xF6 0x2A 0x4C 0xF8 PUSH16 0x9C857C855F99BE7D38629F7B9042327C AND PUSH5 0x736F6C6343 STOP ADDMOD EXP STOP CALLER "
				},
				"gasEstimates": {
					"creation": {
						"codeDepositCost": "218000",
						"executionCost": "24530",
						"totalCost": "242530"
					},
					"external": {
						"getCurrPrice(uint32)": "infinite"
					}
				},
				"methodIdentifiers": {
					"getCurrPrice(uint32)": "cbed2449"
				}
			},
			"storageLayout": {
				"storage": [
					{
						"astId": 825,
						"contract": "contracts/CDS/PriceConsumer.sol:PriceConsumer",
						"label": "priceOracle",
						"offset": 0,
						"slot": "0",
						"type": "t_contract(PriceOracleMock)1289"
					}
				],
				"types": {
					"t_contract(PriceOracleMock)1289": {
						"encoding": "inplace",
						"label": "contract PriceOracleMock",
						"numberOfBytes": "20"
					}
				}
			},
			"userdoc": {
				"kind": "user",
				"methods": {},
				"version": 1
			}
		}
	}
}