{
	"contracts/Handler/CDSFactory.sol": {
		"CDSFactory": {
			"abi": [
				{
					"inputs": [
						{
							"internalType": "uint256",
							"name": "cdsId",
							"type": "uint256"
						}
					],
					"name": "getBuyer",
					"outputs": [
						{
							"internalType": "address",
							"name": "",
							"type": "address"
						}
					],
					"stateMutability": "view",
					"type": "function"
				},
				{
					"inputs": [
						{
							"internalType": "uint256",
							"name": "cdsId",
							"type": "uint256"
						}
					],
					"name": "getCDS",
					"outputs": [
						{
							"internalType": "contract CDS",
							"name": "",
							"type": "address"
						}
					],
					"stateMutability": "view",
					"type": "function"
				},
				{
					"inputs": [],
					"name": "getCDSId",
					"outputs": [
						{
							"components": [
								{
									"internalType": "uint256",
									"name": "_value",
									"type": "uint256"
								}
							],
							"internalType": "struct Counters.Counter",
							"name": "",
							"type": "tuple"
						}
					],
					"stateMutability": "view",
					"type": "function"
				},
				{
					"inputs": [
						{
							"internalType": "uint256",
							"name": "cdsId",
							"type": "uint256"
						}
					],
					"name": "getNextPayDate",
					"outputs": [
						{
							"internalType": "uint256",
							"name": "",
							"type": "uint256"
						}
					],
					"stateMutability": "view",
					"type": "function"
				},
				{
					"inputs": [
						{
							"internalType": "uint256",
							"name": "cdsId",
							"type": "uint256"
						}
					],
					"name": "getPremium",
					"outputs": [
						{
							"internalType": "uint256",
							"name": "",
							"type": "uint256"
						}
					],
					"stateMutability": "view",
					"type": "function"
				},
				{
					"inputs": [
						{
							"internalType": "uint256",
							"name": "cdsId",
							"type": "uint256"
						}
					],
					"name": "getPrices",
					"outputs": [
						{
							"internalType": "uint256[5]",
							"name": "",
							"type": "uint256[5]"
						}
					],
					"stateMutability": "view",
					"type": "function"
				},
				{
					"inputs": [
						{
							"internalType": "uint256",
							"name": "cdsId",
							"type": "uint256"
						}
					],
					"name": "getRounds",
					"outputs": [
						{
							"internalType": "uint32",
							"name": "",
							"type": "uint32"
						}
					],
					"stateMutability": "view",
					"type": "function"
				},
				{
					"inputs": [
						{
							"internalType": "uint256",
							"name": "cdsId",
							"type": "uint256"
						}
					],
					"name": "getSeller",
					"outputs": [
						{
							"internalType": "address",
							"name": "",
							"type": "address"
						}
					],
					"stateMutability": "view",
					"type": "function"
				},
				{
					"inputs": [
						{
							"internalType": "uint256",
							"name": "cdsId",
							"type": "uint256"
						}
					],
					"name": "getSellerDeposit",
					"outputs": [
						{
							"internalType": "uint256",
							"name": "",
							"type": "uint256"
						}
					],
					"stateMutability": "view",
					"type": "function"
				},
				{
					"inputs": [
						{
							"internalType": "uint256",
							"name": "cdsId",
							"type": "uint256"
						}
					],
					"name": "getStatus",
					"outputs": [
						{
							"internalType": "enum CDS.Status",
							"name": "",
							"type": "uint8"
						}
					],
					"stateMutability": "view",
					"type": "function"
				}
			],
			"devdoc": {
				"kind": "dev",
				"methods": {},
				"version": 1
			},
			"evm": {
				"assembly": "    /* \"contracts/Handler/CDSFactory.sol\":136:3579  contract CDSFactory {... */\n  mstore(0x40, 0x80)\n  callvalue\n  dup1\n  iszero\n  tag_1\n  jumpi\n  0x00\n  dup1\n  revert\ntag_1:\n  pop\n  dataSize(sub_0)\n  dup1\n  dataOffset(sub_0)\n  0x00\n  codecopy\n  0x00\n  return\nstop\n\nsub_0: assembly {\n        /* \"contracts/Handler/CDSFactory.sol\":136:3579  contract CDSFactory {... */\n      mstore(0x40, 0x80)\n      callvalue\n      dup1\n      iszero\n      tag_1\n      jumpi\n      0x00\n      dup1\n      revert\n    tag_1:\n      pop\n      jumpi(tag_2, lt(calldatasize, 0x04))\n      shr(0xe0, calldataload(0x00))\n      dup1\n      0x88106323\n      gt\n      tag_13\n      jumpi\n      dup1\n      0x88106323\n      eq\n      tag_8\n      jumpi\n      dup1\n      0x8bfd13ae\n      eq\n      tag_9\n      jumpi\n      dup1\n      0x91492956\n      eq\n      tag_10\n      jumpi\n      dup1\n      0xd0e5d955\n      eq\n      tag_11\n      jumpi\n      dup1\n      0xd6a9de51\n      eq\n      tag_12\n      jumpi\n      jump(tag_2)\n    tag_13:\n      dup1\n      0x13ef3dcc\n      eq\n      tag_3\n      jumpi\n      dup1\n      0x1bf1fffb\n      eq\n      tag_4\n      jumpi\n      dup1\n      0x5af8d21c\n      eq\n      tag_5\n      jumpi\n      dup1\n      0x5bf608b8\n      eq\n      tag_6\n      jumpi\n      dup1\n      0x5c622a0e\n      eq\n      tag_7\n      jumpi\n    tag_2:\n      0x00\n      dup1\n      revert\n        /* \"contracts/Handler/CDSFactory.sol\":2798:2903  function getRounds(uint256 cdsId) public view returns (uint32) {... */\n    tag_3:\n      tag_14\n      0x04\n      dup1\n      calldatasize\n      sub\n      dup2\n      add\n      swap1\n      tag_15\n      swap2\n      swap1\n      tag_16\n      jump\t// in\n    tag_15:\n      tag_17\n      jump\t// in\n    tag_14:\n      mload(0x40)\n      tag_18\n      swap2\n      swap1\n      tag_19\n      jump\t// in\n    tag_18:\n      mload(0x40)\n      dup1\n      swap2\n      sub\n      swap1\n      return\n        /* \"contracts/Handler/CDSFactory.sol\":2449:2557  function getPremium(uint256 cdsId) public view returns (uint256) {... */\n    tag_4:\n      tag_20\n      0x04\n      dup1\n      calldatasize\n      sub\n      dup2\n      add\n      swap1\n      tag_21\n      swap2\n      swap1\n      tag_16\n      jump\t// in\n    tag_21:\n      tag_22\n      jump\t// in\n    tag_20:\n      mload(0x40)\n      tag_23\n      swap2\n      swap1\n      tag_24\n      jump\t// in\n    tag_23:\n      mload(0x40)\n      dup1\n      swap2\n      sub\n      swap1\n      return\n        /* \"contracts/Handler/CDSFactory.sol\":2232:2322  function getCDS(uint256 cdsId) public view returns (CDS) {... */\n    tag_5:\n      tag_25\n      0x04\n      dup1\n      calldatasize\n      sub\n      dup2\n      add\n      swap1\n      tag_26\n      swap2\n      swap1\n      tag_16\n      jump\t// in\n    tag_26:\n      tag_27\n      jump\t// in\n    tag_25:\n      mload(0x40)\n      tag_28\n      swap2\n      swap1\n      tag_29\n      jump\t// in\n    tag_28:\n      mload(0x40)\n      dup1\n      swap2\n      sub\n      swap1\n      return\n        /* \"contracts/Handler/CDSFactory.sol\":2907:3014  function getBuyer(uint256 cdsId) public view returns (address) {... */\n    tag_6:\n      tag_30\n      0x04\n      dup1\n      calldatasize\n      sub\n      dup2\n      add\n      swap1\n      tag_31\n      swap2\n      swap1\n      tag_16\n      jump\t// in\n    tag_31:\n      tag_32\n      jump\t// in\n    tag_30:\n      mload(0x40)\n      tag_33\n      swap2\n      swap1\n      tag_34\n      jump\t// in\n    tag_33:\n      mload(0x40)\n      dup1\n      swap2\n      sub\n      swap1\n      return\n        /* \"contracts/Handler/CDSFactory.sol\":2685:2794  function getStatus(uint256 cdsId) public view returns (CDS.Status) {... */\n    tag_7:\n      tag_35\n      0x04\n      dup1\n      calldatasize\n      sub\n      dup2\n      add\n      swap1\n      tag_36\n      swap2\n      swap1\n      tag_16\n      jump\t// in\n    tag_36:\n      tag_37\n      jump\t// in\n    tag_35:\n      mload(0x40)\n      tag_38\n      swap2\n      swap1\n      tag_39\n      jump\t// in\n    tag_38:\n      mload(0x40)\n      dup1\n      swap2\n      sub\n      swap1\n      return\n        /* \"contracts/Handler/CDSFactory.sol\":2561:2681  function getSellerDeposit(uint256 cdsId) public view returns (uint256) {... */\n    tag_8:\n      tag_40\n      0x04\n      dup1\n      calldatasize\n      sub\n      dup2\n      add\n      swap1\n      tag_41\n      swap2\n      swap1\n      tag_16\n      jump\t// in\n    tag_41:\n      tag_42\n      jump\t// in\n    tag_40:\n      mload(0x40)\n      tag_43\n      swap2\n      swap1\n      tag_24\n      jump\t// in\n    tag_43:\n      mload(0x40)\n      dup1\n      swap2\n      sub\n      swap1\n      return\n        /* \"contracts/Handler/CDSFactory.sol\":3131:3237  function getNextPayDate(uint256 cdsId) public view returns (uint256) {... */\n    tag_9:\n      tag_44\n      0x04\n      dup1\n      calldatasize\n      sub\n      dup2\n      add\n      swap1\n      tag_45\n      swap2\n      swap1\n      tag_16\n      jump\t// in\n    tag_45:\n      tag_46\n      jump\t// in\n    tag_44:\n      mload(0x40)\n      tag_47\n      swap2\n      swap1\n      tag_24\n      jump\t// in\n    tag_47:\n      mload(0x40)\n      dup1\n      swap2\n      sub\n      swap1\n      return\n        /* \"contracts/Handler/CDSFactory.sol\":2326:2445  function getPrices(uint256 cdsId) public view returns (uint256[5] memory) {... */\n    tag_10:\n      tag_48\n      0x04\n      dup1\n      calldatasize\n      sub\n      dup2\n      add\n      swap1\n      tag_49\n      swap2\n      swap1\n      tag_16\n      jump\t// in\n    tag_49:\n      tag_50\n      jump\t// in\n    tag_48:\n      mload(0x40)\n      tag_51\n      swap2\n      swap1\n      tag_52\n      jump\t// in\n    tag_51:\n      mload(0x40)\n      dup1\n      swap2\n      sub\n      swap1\n      return\n        /* \"contracts/Handler/CDSFactory.sol\":2138:2228  function getCDSId() public view returns (Counters.Counter memory) {... */\n    tag_11:\n      tag_53\n      tag_54\n      jump\t// in\n    tag_53:\n      mload(0x40)\n      tag_55\n      swap2\n      swap1\n      tag_56\n      jump\t// in\n    tag_55:\n      mload(0x40)\n      dup1\n      swap2\n      sub\n      swap1\n      return\n        /* \"contracts/Handler/CDSFactory.sol\":3018:3127  function getSeller(uint256 cdsId) public view returns (address) {... */\n    tag_12:\n      tag_57\n      0x04\n      dup1\n      calldatasize\n      sub\n      dup2\n      add\n      swap1\n      tag_58\n      swap2\n      swap1\n      tag_16\n      jump\t// in\n    tag_58:\n      tag_59\n      jump\t// in\n    tag_57:\n      mload(0x40)\n      tag_60\n      swap2\n      swap1\n      tag_34\n      jump\t// in\n    tag_60:\n      mload(0x40)\n      dup1\n      swap2\n      sub\n      swap1\n      return\n        /* \"contracts/Handler/CDSFactory.sol\":2798:2903  function getRounds(uint256 cdsId) public view returns (uint32) {... */\n    tag_17:\n        /* \"contracts/Handler/CDSFactory.sol\":2853:2859  uint32 */\n      0x00\n        /* \"contracts/Handler/CDSFactory.sol\":2874:2882  _cdsList */\n      0x01\n        /* \"contracts/Handler/CDSFactory.sol\":2874:2889  _cdsList[cdsId] */\n      0x00\n        /* \"contracts/Handler/CDSFactory.sol\":2883:2888  cdsId */\n      dup4\n        /* \"contracts/Handler/CDSFactory.sol\":2874:2889  _cdsList[cdsId] */\n      dup2\n      mstore\n      0x20\n      add\n      swap1\n      dup2\n      mstore\n      0x20\n      add\n      0x00\n      keccak256\n      0x00\n      swap1\n      sload\n      swap1\n      0x0100\n      exp\n      swap1\n      div\n      0xffffffffffffffffffffffffffffffffffffffff\n      and\n        /* \"contracts/Handler/CDSFactory.sol\":2874:2896  _cdsList[cdsId].rounds */\n      0xffffffffffffffffffffffffffffffffffffffff\n      and\n      0xa2e800ad\n        /* \"contracts/Handler/CDSFactory.sol\":2874:2898  _cdsList[cdsId].rounds() */\n      mload(0x40)\n      dup2\n      0xffffffff\n      and\n      0xe0\n      shl\n      dup2\n      mstore\n      0x04\n      add\n      0x20\n      mload(0x40)\n      dup1\n      dup4\n      sub\n      dup2\n      dup7\n      gas\n      staticcall\n      iszero\n      dup1\n      iszero\n      tag_63\n      jumpi\n      returndatasize\n      0x00\n      dup1\n      returndatacopy\n      revert(0x00, returndatasize)\n    tag_63:\n      pop\n      pop\n      pop\n      pop\n      mload(0x40)\n      returndatasize\n      not(0x1f)\n      0x1f\n      dup3\n      add\n      and\n      dup3\n      add\n      dup1\n      0x40\n      mstore\n      pop\n      dup2\n      add\n      swap1\n      tag_64\n      swap2\n      swap1\n      tag_65\n      jump\t// in\n    tag_64:\n        /* \"contracts/Handler/CDSFactory.sol\":2867:2898  return _cdsList[cdsId].rounds() */\n      swap1\n      pop\n        /* \"contracts/Handler/CDSFactory.sol\":2798:2903  function getRounds(uint256 cdsId) public view returns (uint32) {... */\n      swap2\n      swap1\n      pop\n      jump\t// out\n        /* \"contracts/Handler/CDSFactory.sol\":2449:2557  function getPremium(uint256 cdsId) public view returns (uint256) {... */\n    tag_22:\n        /* \"contracts/Handler/CDSFactory.sol\":2505:2512  uint256 */\n      0x00\n        /* \"contracts/Handler/CDSFactory.sol\":2527:2535  _cdsList */\n      0x01\n        /* \"contracts/Handler/CDSFactory.sol\":2527:2542  _cdsList[cdsId] */\n      0x00\n        /* \"contracts/Handler/CDSFactory.sol\":2536:2541  cdsId */\n      dup4\n        /* \"contracts/Handler/CDSFactory.sol\":2527:2542  _cdsList[cdsId] */\n      dup2\n      mstore\n      0x20\n      add\n      swap1\n      dup2\n      mstore\n      0x20\n      add\n      0x00\n      keccak256\n      0x00\n      swap1\n      sload\n      swap1\n      0x0100\n      exp\n      swap1\n      div\n      0xffffffffffffffffffffffffffffffffffffffff\n      and\n        /* \"contracts/Handler/CDSFactory.sol\":2527:2550  _cdsList[cdsId].premium */\n      0xffffffffffffffffffffffffffffffffffffffff\n      and\n      0xe0a73a93\n        /* \"contracts/Handler/CDSFactory.sol\":2527:2552  _cdsList[cdsId].premium() */\n      mload(0x40)\n      dup2\n      0xffffffff\n      and\n      0xe0\n      shl\n      dup2\n      mstore\n      0x04\n      add\n      0x20\n      mload(0x40)\n      dup1\n      dup4\n      sub\n      dup2\n      dup7\n      gas\n      staticcall\n      iszero\n      dup1\n      iszero\n      tag_68\n      jumpi\n      returndatasize\n      0x00\n      dup1\n      returndatacopy\n      revert(0x00, returndatasize)\n    tag_68:\n      pop\n      pop\n      pop\n      pop\n      mload(0x40)\n      returndatasize\n      not(0x1f)\n      0x1f\n      dup3\n      add\n      and\n      dup3\n      add\n      dup1\n      0x40\n      mstore\n      pop\n      dup2\n      add\n      swap1\n      tag_69\n      swap2\n      swap1\n      tag_70\n      jump\t// in\n    tag_69:\n        /* \"contracts/Handler/CDSFactory.sol\":2520:2552  return _cdsList[cdsId].premium() */\n      swap1\n      pop\n        /* \"contracts/Handler/CDSFactory.sol\":2449:2557  function getPremium(uint256 cdsId) public view returns (uint256) {... */\n      swap2\n      swap1\n      pop\n      jump\t// out\n        /* \"contracts/Handler/CDSFactory.sol\":2232:2322  function getCDS(uint256 cdsId) public view returns (CDS) {... */\n    tag_27:\n        /* \"contracts/Handler/CDSFactory.sol\":2284:2287  CDS */\n      0x00\n        /* \"contracts/Handler/CDSFactory.sol\":2302:2310  _cdsList */\n      0x01\n        /* \"contracts/Handler/CDSFactory.sol\":2302:2317  _cdsList[cdsId] */\n      0x00\n        /* \"contracts/Handler/CDSFactory.sol\":2311:2316  cdsId */\n      dup4\n        /* \"contracts/Handler/CDSFactory.sol\":2302:2317  _cdsList[cdsId] */\n      dup2\n      mstore\n      0x20\n      add\n      swap1\n      dup2\n      mstore\n      0x20\n      add\n      0x00\n      keccak256\n      0x00\n      swap1\n      sload\n      swap1\n      0x0100\n      exp\n      swap1\n      div\n      0xffffffffffffffffffffffffffffffffffffffff\n      and\n        /* \"contracts/Handler/CDSFactory.sol\":2295:2317  return _cdsList[cdsId] */\n      swap1\n      pop\n        /* \"contracts/Handler/CDSFactory.sol\":2232:2322  function getCDS(uint256 cdsId) public view returns (CDS) {... */\n      swap2\n      swap1\n      pop\n      jump\t// out\n        /* \"contracts/Handler/CDSFactory.sol\":2907:3014  function getBuyer(uint256 cdsId) public view returns (address) {... */\n    tag_32:\n        /* \"contracts/Handler/CDSFactory.sol\":2961:2968  address */\n      0x00\n        /* \"contracts/Handler/CDSFactory.sol\":2983:2991  _cdsList */\n      0x01\n        /* \"contracts/Handler/CDSFactory.sol\":2983:2998  _cdsList[cdsId] */\n      0x00\n        /* \"contracts/Handler/CDSFactory.sol\":2992:2997  cdsId */\n      dup4\n        /* \"contracts/Handler/CDSFactory.sol\":2983:2998  _cdsList[cdsId] */\n      dup2\n      mstore\n      0x20\n      add\n      swap1\n      dup2\n      mstore\n      0x20\n      add\n      0x00\n      keccak256\n      0x00\n      swap1\n      sload\n      swap1\n      0x0100\n      exp\n      swap1\n      div\n      0xffffffffffffffffffffffffffffffffffffffff\n      and\n        /* \"contracts/Handler/CDSFactory.sol\":2983:3007  _cdsList[cdsId].getBuyer */\n      0xffffffffffffffffffffffffffffffffffffffff\n      and\n      0x603daf9a\n        /* \"contracts/Handler/CDSFactory.sol\":2983:3009  _cdsList[cdsId].getBuyer() */\n      mload(0x40)\n      dup2\n      0xffffffff\n      and\n      0xe0\n      shl\n      dup2\n      mstore\n      0x04\n      add\n      0x20\n      mload(0x40)\n      dup1\n      dup4\n      sub\n      dup2\n      dup7\n      gas\n      staticcall\n      iszero\n      dup1\n      iszero\n      tag_74\n      jumpi\n      returndatasize\n      0x00\n      dup1\n      returndatacopy\n      revert(0x00, returndatasize)\n    tag_74:\n      pop\n      pop\n      pop\n      pop\n      mload(0x40)\n      returndatasize\n      not(0x1f)\n      0x1f\n      dup3\n      add\n      and\n      dup3\n      add\n      dup1\n      0x40\n      mstore\n      pop\n      dup2\n      add\n      swap1\n      tag_75\n      swap2\n      swap1\n      tag_76\n      jump\t// in\n    tag_75:\n        /* \"contracts/Handler/CDSFactory.sol\":2976:3009  return _cdsList[cdsId].getBuyer() */\n      swap1\n      pop\n        /* \"contracts/Handler/CDSFactory.sol\":2907:3014  function getBuyer(uint256 cdsId) public view returns (address) {... */\n      swap2\n      swap1\n      pop\n      jump\t// out\n        /* \"contracts/Handler/CDSFactory.sol\":2685:2794  function getStatus(uint256 cdsId) public view returns (CDS.Status) {... */\n    tag_37:\n        /* \"contracts/Handler/CDSFactory.sol\":2740:2750  CDS.Status */\n      0x00\n        /* \"contracts/Handler/CDSFactory.sol\":2765:2773  _cdsList */\n      0x01\n        /* \"contracts/Handler/CDSFactory.sol\":2765:2780  _cdsList[cdsId] */\n      0x00\n        /* \"contracts/Handler/CDSFactory.sol\":2774:2779  cdsId */\n      dup4\n        /* \"contracts/Handler/CDSFactory.sol\":2765:2780  _cdsList[cdsId] */\n      dup2\n      mstore\n      0x20\n      add\n      swap1\n      dup2\n      mstore\n      0x20\n      add\n      0x00\n      keccak256\n      0x00\n      swap1\n      sload\n      swap1\n      0x0100\n      exp\n      swap1\n      div\n      0xffffffffffffffffffffffffffffffffffffffff\n      and\n        /* \"contracts/Handler/CDSFactory.sol\":2765:2787  _cdsList[cdsId].status */\n      0xffffffffffffffffffffffffffffffffffffffff\n      and\n      0x200d2ed2\n        /* \"contracts/Handler/CDSFactory.sol\":2765:2789  _cdsList[cdsId].status() */\n      mload(0x40)\n      dup2\n      0xffffffff\n      and\n      0xe0\n      shl\n      dup2\n      mstore\n      0x04\n      add\n      0x20\n      mload(0x40)\n      dup1\n      dup4\n      sub\n      dup2\n      dup7\n      gas\n      staticcall\n      iszero\n      dup1\n      iszero\n      tag_79\n      jumpi\n      returndatasize\n      0x00\n      dup1\n      returndatacopy\n      revert(0x00, returndatasize)\n    tag_79:\n      pop\n      pop\n      pop\n      pop\n      mload(0x40)\n      returndatasize\n      not(0x1f)\n      0x1f\n      dup3\n      add\n      and\n      dup3\n      add\n      dup1\n      0x40\n      mstore\n      pop\n      dup2\n      add\n      swap1\n      tag_80\n      swap2\n      swap1\n      tag_81\n      jump\t// in\n    tag_80:\n        /* \"contracts/Handler/CDSFactory.sol\":2758:2789  return _cdsList[cdsId].status() */\n      swap1\n      pop\n        /* \"contracts/Handler/CDSFactory.sol\":2685:2794  function getStatus(uint256 cdsId) public view returns (CDS.Status) {... */\n      swap2\n      swap1\n      pop\n      jump\t// out\n        /* \"contracts/Handler/CDSFactory.sol\":2561:2681  function getSellerDeposit(uint256 cdsId) public view returns (uint256) {... */\n    tag_42:\n        /* \"contracts/Handler/CDSFactory.sol\":2623:2630  uint256 */\n      0x00\n        /* \"contracts/Handler/CDSFactory.sol\":2645:2653  _cdsList */\n      0x01\n        /* \"contracts/Handler/CDSFactory.sol\":2645:2660  _cdsList[cdsId] */\n      0x00\n        /* \"contracts/Handler/CDSFactory.sol\":2654:2659  cdsId */\n      dup4\n        /* \"contracts/Handler/CDSFactory.sol\":2645:2660  _cdsList[cdsId] */\n      dup2\n      mstore\n      0x20\n      add\n      swap1\n      dup2\n      mstore\n      0x20\n      add\n      0x00\n      keccak256\n      0x00\n      swap1\n      sload\n      swap1\n      0x0100\n      exp\n      swap1\n      div\n      0xffffffffffffffffffffffffffffffffffffffff\n      and\n        /* \"contracts/Handler/CDSFactory.sol\":2645:2674  _cdsList[cdsId].sellerDeposit */\n      0xffffffffffffffffffffffffffffffffffffffff\n      and\n      0x4c1786ea\n        /* \"contracts/Handler/CDSFactory.sol\":2645:2676  _cdsList[cdsId].sellerDeposit() */\n      mload(0x40)\n      dup2\n      0xffffffff\n      and\n      0xe0\n      shl\n      dup2\n      mstore\n      0x04\n      add\n      0x20\n      mload(0x40)\n      dup1\n      dup4\n      sub\n      dup2\n      dup7\n      gas\n      staticcall\n      iszero\n      dup1\n      iszero\n      tag_84\n      jumpi\n      returndatasize\n      0x00\n      dup1\n      returndatacopy\n      revert(0x00, returndatasize)\n    tag_84:\n      pop\n      pop\n      pop\n      pop\n      mload(0x40)\n      returndatasize\n      not(0x1f)\n      0x1f\n      dup3\n      add\n      and\n      dup3\n      add\n      dup1\n      0x40\n      mstore\n      pop\n      dup2\n      add\n      swap1\n      tag_85\n      swap2\n      swap1\n      tag_70\n      jump\t// in\n    tag_85:\n        /* \"contracts/Handler/CDSFactory.sol\":2638:2676  return _cdsList[cdsId].sellerDeposit() */\n      swap1\n      pop\n        /* \"contracts/Handler/CDSFactory.sol\":2561:2681  function getSellerDeposit(uint256 cdsId) public view returns (uint256) {... */\n      swap2\n      swap1\n      pop\n      jump\t// out\n        /* \"contracts/Handler/CDSFactory.sol\":3131:3237  function getNextPayDate(uint256 cdsId) public view returns (uint256) {... */\n    tag_46:\n        /* \"contracts/Handler/CDSFactory.sol\":3191:3198  uint256 */\n      0x00\n        /* \"contracts/Handler/CDSFactory.sol\":3213:3225  _nextPayDate */\n      0x02\n        /* \"contracts/Handler/CDSFactory.sol\":3213:3232  _nextPayDate[cdsId] */\n      0x00\n        /* \"contracts/Handler/CDSFactory.sol\":3226:3231  cdsId */\n      dup4\n        /* \"contracts/Handler/CDSFactory.sol\":3213:3232  _nextPayDate[cdsId] */\n      dup2\n      mstore\n      0x20\n      add\n      swap1\n      dup2\n      mstore\n      0x20\n      add\n      0x00\n      keccak256\n      sload\n        /* \"contracts/Handler/CDSFactory.sol\":3206:3232  return _nextPayDate[cdsId] */\n      swap1\n      pop\n        /* \"contracts/Handler/CDSFactory.sol\":3131:3237  function getNextPayDate(uint256 cdsId) public view returns (uint256) {... */\n      swap2\n      swap1\n      pop\n      jump\t// out\n        /* \"contracts/Handler/CDSFactory.sol\":2326:2445  function getPrices(uint256 cdsId) public view returns (uint256[5] memory) {... */\n    tag_50:\n        /* \"contracts/Handler/CDSFactory.sol\":2381:2398  uint256[5] memory */\n      tag_87\n      tag_88\n      jump\t// in\n    tag_87:\n        /* \"contracts/Handler/CDSFactory.sol\":2413:2421  _cdsList */\n      0x01\n        /* \"contracts/Handler/CDSFactory.sol\":2413:2428  _cdsList[cdsId] */\n      0x00\n        /* \"contracts/Handler/CDSFactory.sol\":2422:2427  cdsId */\n      dup4\n        /* \"contracts/Handler/CDSFactory.sol\":2413:2428  _cdsList[cdsId] */\n      dup2\n      mstore\n      0x20\n      add\n      swap1\n      dup2\n      mstore\n      0x20\n      add\n      0x00\n      keccak256\n      0x00\n      swap1\n      sload\n      swap1\n      0x0100\n      exp\n      swap1\n      div\n      0xffffffffffffffffffffffffffffffffffffffff\n      and\n        /* \"contracts/Handler/CDSFactory.sol\":2413:2438  _cdsList[cdsId].getPrices */\n      0xffffffffffffffffffffffffffffffffffffffff\n      and\n      0xbd9a548b\n        /* \"contracts/Handler/CDSFactory.sol\":2413:2440  _cdsList[cdsId].getPrices() */\n      mload(0x40)\n      dup2\n      0xffffffff\n      and\n      0xe0\n      shl\n      dup2\n      mstore\n      0x04\n      add\n      0xa0\n      mload(0x40)\n      dup1\n      dup4\n      sub\n      dup2\n      dup7\n      gas\n      staticcall\n      iszero\n      dup1\n      iszero\n      tag_91\n      jumpi\n      returndatasize\n      0x00\n      dup1\n      returndatacopy\n      revert(0x00, returndatasize)\n    tag_91:\n      pop\n      pop\n      pop\n      pop\n      mload(0x40)\n      returndatasize\n      not(0x1f)\n      0x1f\n      dup3\n      add\n      and\n      dup3\n      add\n      dup1\n      0x40\n      mstore\n      pop\n      dup2\n      add\n      swap1\n      tag_92\n      swap2\n      swap1\n      tag_93\n      jump\t// in\n    tag_92:\n        /* \"contracts/Handler/CDSFactory.sol\":2406:2440  return _cdsList[cdsId].getPrices() */\n      swap1\n      pop\n        /* \"contracts/Handler/CDSFactory.sol\":2326:2445  function getPrices(uint256 cdsId) public view returns (uint256[5] memory) {... */\n      swap2\n      swap1\n      pop\n      jump\t// out\n        /* \"contracts/Handler/CDSFactory.sol\":2138:2228  function getCDSId() public view returns (Counters.Counter memory) {... */\n    tag_54:\n        /* \"contracts/Handler/CDSFactory.sol\":2179:2202  Counters.Counter memory */\n      tag_94\n      tag_95\n      jump\t// in\n    tag_94:\n        /* \"contracts/Handler/CDSFactory.sol\":2217:2223  _cdsId */\n      0x00\n        /* \"contracts/Handler/CDSFactory.sol\":2210:2223  return _cdsId */\n      mload(0x40)\n      dup1\n      0x20\n      add\n      0x40\n      mstore\n      swap1\n      dup2\n      0x00\n      dup3\n      add\n      sload\n      dup2\n      mstore\n      pop\n      pop\n      swap1\n      pop\n        /* \"contracts/Handler/CDSFactory.sol\":2138:2228  function getCDSId() public view returns (Counters.Counter memory) {... */\n      swap1\n      jump\t// out\n        /* \"contracts/Handler/CDSFactory.sol\":3018:3127  function getSeller(uint256 cdsId) public view returns (address) {... */\n    tag_59:\n        /* \"contracts/Handler/CDSFactory.sol\":3073:3080  address */\n      0x00\n        /* \"contracts/Handler/CDSFactory.sol\":3095:3103  _cdsList */\n      0x01\n        /* \"contracts/Handler/CDSFactory.sol\":3095:3110  _cdsList[cdsId] */\n      0x00\n        /* \"contracts/Handler/CDSFactory.sol\":3104:3109  cdsId */\n      dup4\n        /* \"contracts/Handler/CDSFactory.sol\":3095:3110  _cdsList[cdsId] */\n      dup2\n      mstore\n      0x20\n      add\n      swap1\n      dup2\n      mstore\n      0x20\n      add\n      0x00\n      keccak256\n      0x00\n      swap1\n      sload\n      swap1\n      0x0100\n      exp\n      swap1\n      div\n      0xffffffffffffffffffffffffffffffffffffffff\n      and\n        /* \"contracts/Handler/CDSFactory.sol\":3095:3120  _cdsList[cdsId].getSeller */\n      0xffffffffffffffffffffffffffffffffffffffff\n      and\n      0xdbd0e1b6\n        /* \"contracts/Handler/CDSFactory.sol\":3095:3122  _cdsList[cdsId].getSeller() */\n      mload(0x40)\n      dup2\n      0xffffffff\n      and\n      0xe0\n      shl\n      dup2\n      mstore\n      0x04\n      add\n      0x20\n      mload(0x40)\n      dup1\n      dup4\n      sub\n      dup2\n      dup7\n      gas\n      staticcall\n      iszero\n      dup1\n      iszero\n      tag_99\n      jumpi\n      returndatasize\n      0x00\n      dup1\n      returndatacopy\n      revert(0x00, returndatasize)\n    tag_99:\n      pop\n      pop\n      pop\n      pop\n      mload(0x40)\n      returndatasize\n      not(0x1f)\n      0x1f\n      dup3\n      add\n      and\n      dup3\n      add\n      dup1\n      0x40\n      mstore\n      pop\n      dup2\n      add\n      swap1\n      tag_100\n      swap2\n      swap1\n      tag_76\n      jump\t// in\n    tag_100:\n        /* \"contracts/Handler/CDSFactory.sol\":3088:3122  return _cdsList[cdsId].getSeller() */\n      swap1\n      pop\n        /* \"contracts/Handler/CDSFactory.sol\":3018:3127  function getSeller(uint256 cdsId) public view returns (address) {... */\n      swap2\n      swap1\n      pop\n      jump\t// out\n    tag_88:\n      mload(0x40)\n      dup1\n      0xa0\n      add\n      0x40\n      mstore\n      dup1\n      0x05\n      swap1\n      0x20\n      dup3\n      mul\n      dup1\n      calldatasize\n      dup4\n      calldatacopy\n      dup1\n      dup3\n      add\n      swap2\n      pop\n      pop\n      swap1\n      pop\n      pop\n      swap1\n      jump\t// out\n    tag_95:\n      mload(0x40)\n      dup1\n      0x20\n      add\n      0x40\n      mstore\n      dup1\n      0x00\n      dup2\n      mstore\n      pop\n      swap1\n      jump\t// out\n        /* \"#utility.yul\":7:82   */\n    tag_101:\n        /* \"#utility.yul\":40:46   */\n      0x00\n        /* \"#utility.yul\":73:75   */\n      0x40\n        /* \"#utility.yul\":67:76   */\n      mload\n        /* \"#utility.yul\":57:76   */\n      swap1\n      pop\n        /* \"#utility.yul\":7:82   */\n      swap1\n      jump\t// out\n        /* \"#utility.yul\":88:205   */\n    tag_102:\n        /* \"#utility.yul\":197:198   */\n      0x00\n        /* \"#utility.yul\":194:195   */\n      dup1\n        /* \"#utility.yul\":187:199   */\n      revert\n        /* \"#utility.yul\":334:411   */\n    tag_104:\n        /* \"#utility.yul\":371:378   */\n      0x00\n        /* \"#utility.yul\":400:405   */\n      dup2\n        /* \"#utility.yul\":389:405   */\n      swap1\n      pop\n        /* \"#utility.yul\":334:411   */\n      swap2\n      swap1\n      pop\n      jump\t// out\n        /* \"#utility.yul\":417:539   */\n    tag_105:\n        /* \"#utility.yul\":490:514   */\n      tag_153\n        /* \"#utility.yul\":508:513   */\n      dup2\n        /* \"#utility.yul\":490:514   */\n      tag_104\n      jump\t// in\n    tag_153:\n        /* \"#utility.yul\":483:488   */\n      dup2\n        /* \"#utility.yul\":480:515   */\n      eq\n        /* \"#utility.yul\":470:533   */\n      tag_154\n      jumpi\n        /* \"#utility.yul\":529:530   */\n      0x00\n        /* \"#utility.yul\":526:527   */\n      dup1\n        /* \"#utility.yul\":519:531   */\n      revert\n        /* \"#utility.yul\":470:533   */\n    tag_154:\n        /* \"#utility.yul\":417:539   */\n      pop\n      jump\t// out\n        /* \"#utility.yul\":545:684   */\n    tag_106:\n        /* \"#utility.yul\":591:596   */\n      0x00\n        /* \"#utility.yul\":629:635   */\n      dup2\n        /* \"#utility.yul\":616:636   */\n      calldataload\n        /* \"#utility.yul\":607:636   */\n      swap1\n      pop\n        /* \"#utility.yul\":645:678   */\n      tag_156\n        /* \"#utility.yul\":672:677   */\n      dup2\n        /* \"#utility.yul\":645:678   */\n      tag_105\n      jump\t// in\n    tag_156:\n        /* \"#utility.yul\":545:684   */\n      swap3\n      swap2\n      pop\n      pop\n      jump\t// out\n        /* \"#utility.yul\":690:1019   */\n    tag_16:\n        /* \"#utility.yul\":749:755   */\n      0x00\n        /* \"#utility.yul\":798:800   */\n      0x20\n        /* \"#utility.yul\":786:795   */\n      dup3\n        /* \"#utility.yul\":777:784   */\n      dup5\n        /* \"#utility.yul\":773:796   */\n      sub\n        /* \"#utility.yul\":769:801   */\n      slt\n        /* \"#utility.yul\":766:885   */\n      iszero\n      tag_158\n      jumpi\n        /* \"#utility.yul\":804:883   */\n      tag_159\n      tag_102\n      jump\t// in\n    tag_159:\n        /* \"#utility.yul\":766:885   */\n    tag_158:\n        /* \"#utility.yul\":924:925   */\n      0x00\n        /* \"#utility.yul\":949:1002   */\n      tag_160\n        /* \"#utility.yul\":994:1001   */\n      dup5\n        /* \"#utility.yul\":985:991   */\n      dup3\n        /* \"#utility.yul\":974:983   */\n      dup6\n        /* \"#utility.yul\":970:992   */\n      add\n        /* \"#utility.yul\":949:1002   */\n      tag_106\n      jump\t// in\n    tag_160:\n        /* \"#utility.yul\":939:1002   */\n      swap2\n      pop\n        /* \"#utility.yul\":895:1012   */\n      pop\n        /* \"#utility.yul\":690:1019   */\n      swap3\n      swap2\n      pop\n      pop\n      jump\t// out\n        /* \"#utility.yul\":1025:1118   */\n    tag_107:\n        /* \"#utility.yul\":1061:1068   */\n      0x00\n        /* \"#utility.yul\":1101:1111   */\n      0xffffffff\n        /* \"#utility.yul\":1094:1099   */\n      dup3\n        /* \"#utility.yul\":1090:1112   */\n      and\n        /* \"#utility.yul\":1079:1112   */\n      swap1\n      pop\n        /* \"#utility.yul\":1025:1118   */\n      swap2\n      swap1\n      pop\n      jump\t// out\n        /* \"#utility.yul\":1124:1239   */\n    tag_108:\n        /* \"#utility.yul\":1209:1232   */\n      tag_163\n        /* \"#utility.yul\":1226:1231   */\n      dup2\n        /* \"#utility.yul\":1209:1232   */\n      tag_107\n      jump\t// in\n    tag_163:\n        /* \"#utility.yul\":1204:1207   */\n      dup3\n        /* \"#utility.yul\":1197:1233   */\n      mstore\n        /* \"#utility.yul\":1124:1239   */\n      pop\n      pop\n      jump\t// out\n        /* \"#utility.yul\":1245:1463   */\n    tag_19:\n        /* \"#utility.yul\":1336:1340   */\n      0x00\n        /* \"#utility.yul\":1374:1376   */\n      0x20\n        /* \"#utility.yul\":1363:1372   */\n      dup3\n        /* \"#utility.yul\":1359:1377   */\n      add\n        /* \"#utility.yul\":1351:1377   */\n      swap1\n      pop\n        /* \"#utility.yul\":1387:1456   */\n      tag_165\n        /* \"#utility.yul\":1453:1454   */\n      0x00\n        /* \"#utility.yul\":1442:1451   */\n      dup4\n        /* \"#utility.yul\":1438:1455   */\n      add\n        /* \"#utility.yul\":1429:1435   */\n      dup5\n        /* \"#utility.yul\":1387:1456   */\n      tag_108\n      jump\t// in\n    tag_165:\n        /* \"#utility.yul\":1245:1463   */\n      swap3\n      swap2\n      pop\n      pop\n      jump\t// out\n        /* \"#utility.yul\":1469:1587   */\n    tag_109:\n        /* \"#utility.yul\":1556:1580   */\n      tag_167\n        /* \"#utility.yul\":1574:1579   */\n      dup2\n        /* \"#utility.yul\":1556:1580   */\n      tag_104\n      jump\t// in\n    tag_167:\n        /* \"#utility.yul\":1551:1554   */\n      dup3\n        /* \"#utility.yul\":1544:1581   */\n      mstore\n        /* \"#utility.yul\":1469:1587   */\n      pop\n      pop\n      jump\t// out\n        /* \"#utility.yul\":1593:1815   */\n    tag_24:\n        /* \"#utility.yul\":1686:1690   */\n      0x00\n        /* \"#utility.yul\":1724:1726   */\n      0x20\n        /* \"#utility.yul\":1713:1722   */\n      dup3\n        /* \"#utility.yul\":1709:1727   */\n      add\n        /* \"#utility.yul\":1701:1727   */\n      swap1\n      pop\n        /* \"#utility.yul\":1737:1808   */\n      tag_169\n        /* \"#utility.yul\":1805:1806   */\n      0x00\n        /* \"#utility.yul\":1794:1803   */\n      dup4\n        /* \"#utility.yul\":1790:1807   */\n      add\n        /* \"#utility.yul\":1781:1787   */\n      dup5\n        /* \"#utility.yul\":1737:1808   */\n      tag_109\n      jump\t// in\n    tag_169:\n        /* \"#utility.yul\":1593:1815   */\n      swap3\n      swap2\n      pop\n      pop\n      jump\t// out\n        /* \"#utility.yul\":1821:1947   */\n    tag_110:\n        /* \"#utility.yul\":1858:1865   */\n      0x00\n        /* \"#utility.yul\":1898:1940   */\n      0xffffffffffffffffffffffffffffffffffffffff\n        /* \"#utility.yul\":1891:1896   */\n      dup3\n        /* \"#utility.yul\":1887:1941   */\n      and\n        /* \"#utility.yul\":1876:1941   */\n      swap1\n      pop\n        /* \"#utility.yul\":1821:1947   */\n      swap2\n      swap1\n      pop\n      jump\t// out\n        /* \"#utility.yul\":1953:2013   */\n    tag_111:\n        /* \"#utility.yul\":1981:1984   */\n      0x00\n        /* \"#utility.yul\":2002:2007   */\n      dup2\n        /* \"#utility.yul\":1995:2007   */\n      swap1\n      pop\n        /* \"#utility.yul\":1953:2013   */\n      swap2\n      swap1\n      pop\n      jump\t// out\n        /* \"#utility.yul\":2019:2161   */\n    tag_112:\n        /* \"#utility.yul\":2069:2078   */\n      0x00\n        /* \"#utility.yul\":2102:2155   */\n      tag_173\n        /* \"#utility.yul\":2120:2154   */\n      tag_174\n        /* \"#utility.yul\":2129:2153   */\n      tag_175\n        /* \"#utility.yul\":2147:2152   */\n      dup5\n        /* \"#utility.yul\":2129:2153   */\n      tag_110\n      jump\t// in\n    tag_175:\n        /* \"#utility.yul\":2120:2154   */\n      tag_111\n      jump\t// in\n    tag_174:\n        /* \"#utility.yul\":2102:2155   */\n      tag_110\n      jump\t// in\n    tag_173:\n        /* \"#utility.yul\":2089:2155   */\n      swap1\n      pop\n        /* \"#utility.yul\":2019:2161   */\n      swap2\n      swap1\n      pop\n      jump\t// out\n        /* \"#utility.yul\":2167:2293   */\n    tag_113:\n        /* \"#utility.yul\":2217:2226   */\n      0x00\n        /* \"#utility.yul\":2250:2287   */\n      tag_177\n        /* \"#utility.yul\":2281:2286   */\n      dup3\n        /* \"#utility.yul\":2250:2287   */\n      tag_112\n      jump\t// in\n    tag_177:\n        /* \"#utility.yul\":2237:2287   */\n      swap1\n      pop\n        /* \"#utility.yul\":2167:2293   */\n      swap2\n      swap1\n      pop\n      jump\t// out\n        /* \"#utility.yul\":2299:2436   */\n    tag_114:\n        /* \"#utility.yul\":2360:2369   */\n      0x00\n        /* \"#utility.yul\":2393:2430   */\n      tag_179\n        /* \"#utility.yul\":2424:2429   */\n      dup3\n        /* \"#utility.yul\":2393:2430   */\n      tag_113\n      jump\t// in\n    tag_179:\n        /* \"#utility.yul\":2380:2430   */\n      swap1\n      pop\n        /* \"#utility.yul\":2299:2436   */\n      swap2\n      swap1\n      pop\n      jump\t// out\n        /* \"#utility.yul\":2442:2595   */\n    tag_115:\n        /* \"#utility.yul\":2540:2588   */\n      tag_181\n        /* \"#utility.yul\":2582:2587   */\n      dup2\n        /* \"#utility.yul\":2540:2588   */\n      tag_114\n      jump\t// in\n    tag_181:\n        /* \"#utility.yul\":2535:2538   */\n      dup3\n        /* \"#utility.yul\":2528:2589   */\n      mstore\n        /* \"#utility.yul\":2442:2595   */\n      pop\n      pop\n      jump\t// out\n        /* \"#utility.yul\":2601:2845   */\n    tag_29:\n        /* \"#utility.yul\":2705:2709   */\n      0x00\n        /* \"#utility.yul\":2743:2745   */\n      0x20\n        /* \"#utility.yul\":2732:2741   */\n      dup3\n        /* \"#utility.yul\":2728:2746   */\n      add\n        /* \"#utility.yul\":2720:2746   */\n      swap1\n      pop\n        /* \"#utility.yul\":2756:2838   */\n      tag_183\n        /* \"#utility.yul\":2835:2836   */\n      0x00\n        /* \"#utility.yul\":2824:2833   */\n      dup4\n        /* \"#utility.yul\":2820:2837   */\n      add\n        /* \"#utility.yul\":2811:2817   */\n      dup5\n        /* \"#utility.yul\":2756:2838   */\n      tag_115\n      jump\t// in\n    tag_183:\n        /* \"#utility.yul\":2601:2845   */\n      swap3\n      swap2\n      pop\n      pop\n      jump\t// out\n        /* \"#utility.yul\":2851:2947   */\n    tag_116:\n        /* \"#utility.yul\":2888:2895   */\n      0x00\n        /* \"#utility.yul\":2917:2941   */\n      tag_185\n        /* \"#utility.yul\":2935:2940   */\n      dup3\n        /* \"#utility.yul\":2917:2941   */\n      tag_110\n      jump\t// in\n    tag_185:\n        /* \"#utility.yul\":2906:2941   */\n      swap1\n      pop\n        /* \"#utility.yul\":2851:2947   */\n      swap2\n      swap1\n      pop\n      jump\t// out\n        /* \"#utility.yul\":2953:3071   */\n    tag_117:\n        /* \"#utility.yul\":3040:3064   */\n      tag_187\n        /* \"#utility.yul\":3058:3063   */\n      dup2\n        /* \"#utility.yul\":3040:3064   */\n      tag_116\n      jump\t// in\n    tag_187:\n        /* \"#utility.yul\":3035:3038   */\n      dup3\n        /* \"#utility.yul\":3028:3065   */\n      mstore\n        /* \"#utility.yul\":2953:3071   */\n      pop\n      pop\n      jump\t// out\n        /* \"#utility.yul\":3077:3299   */\n    tag_34:\n        /* \"#utility.yul\":3170:3174   */\n      0x00\n        /* \"#utility.yul\":3208:3210   */\n      0x20\n        /* \"#utility.yul\":3197:3206   */\n      dup3\n        /* \"#utility.yul\":3193:3211   */\n      add\n        /* \"#utility.yul\":3185:3211   */\n      swap1\n      pop\n        /* \"#utility.yul\":3221:3292   */\n      tag_189\n        /* \"#utility.yul\":3289:3290   */\n      0x00\n        /* \"#utility.yul\":3278:3287   */\n      dup4\n        /* \"#utility.yul\":3274:3291   */\n      add\n        /* \"#utility.yul\":3265:3271   */\n      dup5\n        /* \"#utility.yul\":3221:3292   */\n      tag_117\n      jump\t// in\n    tag_189:\n        /* \"#utility.yul\":3077:3299   */\n      swap3\n      swap2\n      pop\n      pop\n      jump\t// out\n        /* \"#utility.yul\":3305:3485   */\n    tag_118:\n        /* \"#utility.yul\":3353:3430   */\n      0x4e487b7100000000000000000000000000000000000000000000000000000000\n        /* \"#utility.yul\":3350:3351   */\n      0x00\n        /* \"#utility.yul\":3343:3431   */\n      mstore\n        /* \"#utility.yul\":3450:3454   */\n      0x21\n        /* \"#utility.yul\":3447:3448   */\n      0x04\n        /* \"#utility.yul\":3440:3455   */\n      mstore\n        /* \"#utility.yul\":3474:3478   */\n      0x24\n        /* \"#utility.yul\":3471:3472   */\n      0x00\n        /* \"#utility.yul\":3464:3479   */\n      revert\n        /* \"#utility.yul\":3491:3606   */\n    tag_119:\n        /* \"#utility.yul\":3574:3575   */\n      0x05\n        /* \"#utility.yul\":3567:3572   */\n      dup2\n        /* \"#utility.yul\":3564:3576   */\n      lt\n        /* \"#utility.yul\":3554:3600   */\n      tag_192\n      jumpi\n        /* \"#utility.yul\":3580:3598   */\n      tag_193\n      tag_118\n      jump\t// in\n    tag_193:\n        /* \"#utility.yul\":3554:3600   */\n    tag_192:\n        /* \"#utility.yul\":3491:3606   */\n      pop\n      jump\t// out\n        /* \"#utility.yul\":3612:3743   */\n    tag_120:\n        /* \"#utility.yul\":3659:3666   */\n      0x00\n        /* \"#utility.yul\":3688:3693   */\n      dup2\n        /* \"#utility.yul\":3677:3693   */\n      swap1\n      pop\n        /* \"#utility.yul\":3694:3737   */\n      tag_195\n        /* \"#utility.yul\":3731:3736   */\n      dup3\n        /* \"#utility.yul\":3694:3737   */\n      tag_119\n      jump\t// in\n    tag_195:\n        /* \"#utility.yul\":3612:3743   */\n      swap2\n      swap1\n      pop\n      jump\t// out\n        /* \"#utility.yul\":3749:3880   */\n    tag_121:\n        /* \"#utility.yul\":3807:3816   */\n      0x00\n        /* \"#utility.yul\":3840:3874   */\n      tag_197\n        /* \"#utility.yul\":3868:3873   */\n      dup3\n        /* \"#utility.yul\":3840:3874   */\n      tag_120\n      jump\t// in\n    tag_197:\n        /* \"#utility.yul\":3827:3874   */\n      swap1\n      pop\n        /* \"#utility.yul\":3749:3880   */\n      swap2\n      swap1\n      pop\n      jump\t// out\n        /* \"#utility.yul\":3886:4033   */\n    tag_122:\n        /* \"#utility.yul\":3981:4026   */\n      tag_199\n        /* \"#utility.yul\":4020:4025   */\n      dup2\n        /* \"#utility.yul\":3981:4026   */\n      tag_121\n      jump\t// in\n    tag_199:\n        /* \"#utility.yul\":3976:3979   */\n      dup3\n        /* \"#utility.yul\":3969:4027   */\n      mstore\n        /* \"#utility.yul\":3886:4033   */\n      pop\n      pop\n      jump\t// out\n        /* \"#utility.yul\":4039:4277   */\n    tag_39:\n        /* \"#utility.yul\":4140:4144   */\n      0x00\n        /* \"#utility.yul\":4178:4180   */\n      0x20\n        /* \"#utility.yul\":4167:4176   */\n      dup3\n        /* \"#utility.yul\":4163:4181   */\n      add\n        /* \"#utility.yul\":4155:4181   */\n      swap1\n      pop\n        /* \"#utility.yul\":4191:4270   */\n      tag_201\n        /* \"#utility.yul\":4267:4268   */\n      0x00\n        /* \"#utility.yul\":4256:4265   */\n      dup4\n        /* \"#utility.yul\":4252:4269   */\n      add\n        /* \"#utility.yul\":4243:4249   */\n      dup5\n        /* \"#utility.yul\":4191:4270   */\n      tag_122\n      jump\t// in\n    tag_201:\n        /* \"#utility.yul\":4039:4277   */\n      swap3\n      swap2\n      pop\n      pop\n      jump\t// out\n        /* \"#utility.yul\":4283:4387   */\n    tag_123:\n        /* \"#utility.yul\":4348:4354   */\n      0x00\n        /* \"#utility.yul\":4376:4380   */\n      0x05\n        /* \"#utility.yul\":4366:4380   */\n      swap1\n      pop\n        /* \"#utility.yul\":4283:4387   */\n      swap2\n      swap1\n      pop\n      jump\t// out\n        /* \"#utility.yul\":4393:4536   */\n    tag_124:\n        /* \"#utility.yul\":4490:4501   */\n      0x00\n        /* \"#utility.yul\":4527:4530   */\n      dup2\n        /* \"#utility.yul\":4512:4530   */\n      swap1\n      pop\n        /* \"#utility.yul\":4393:4536   */\n      swap3\n      swap2\n      pop\n      pop\n      jump\t// out\n        /* \"#utility.yul\":4542:4640   */\n    tag_125:\n        /* \"#utility.yul\":4607:4611   */\n      0x00\n        /* \"#utility.yul\":4630:4633   */\n      dup2\n        /* \"#utility.yul\":4622:4633   */\n      swap1\n      pop\n        /* \"#utility.yul\":4542:4640   */\n      swap2\n      swap1\n      pop\n      jump\t// out\n        /* \"#utility.yul\":4646:4754   */\n    tag_126:\n        /* \"#utility.yul\":4723:4747   */\n      tag_206\n        /* \"#utility.yul\":4741:4746   */\n      dup2\n        /* \"#utility.yul\":4723:4747   */\n      tag_104\n      jump\t// in\n    tag_206:\n        /* \"#utility.yul\":4718:4721   */\n      dup3\n        /* \"#utility.yul\":4711:4748   */\n      mstore\n        /* \"#utility.yul\":4646:4754   */\n      pop\n      pop\n      jump\t// out\n        /* \"#utility.yul\":4760:4939   */\n    tag_127:\n        /* \"#utility.yul\":4829:4839   */\n      0x00\n        /* \"#utility.yul\":4850:4896   */\n      tag_208\n        /* \"#utility.yul\":4892:4895   */\n      dup4\n        /* \"#utility.yul\":4884:4890   */\n      dup4\n        /* \"#utility.yul\":4850:4896   */\n      tag_126\n      jump\t// in\n    tag_208:\n        /* \"#utility.yul\":4928:4932   */\n      0x20\n        /* \"#utility.yul\":4923:4926   */\n      dup4\n        /* \"#utility.yul\":4919:4933   */\n      add\n        /* \"#utility.yul\":4905:4933   */\n      swap1\n      pop\n        /* \"#utility.yul\":4760:4939   */\n      swap3\n      swap2\n      pop\n      pop\n      jump\t// out\n        /* \"#utility.yul\":4945:5056   */\n    tag_128:\n        /* \"#utility.yul\":5013:5017   */\n      0x00\n        /* \"#utility.yul\":5045:5049   */\n      0x20\n        /* \"#utility.yul\":5040:5043   */\n      dup3\n        /* \"#utility.yul\":5036:5050   */\n      add\n        /* \"#utility.yul\":5028:5050   */\n      swap1\n      pop\n        /* \"#utility.yul\":4945:5056   */\n      swap2\n      swap1\n      pop\n      jump\t// out\n        /* \"#utility.yul\":5094:5788   */\n    tag_129:\n        /* \"#utility.yul\":5230:5282   */\n      tag_211\n        /* \"#utility.yul\":5276:5281   */\n      dup2\n        /* \"#utility.yul\":5230:5282   */\n      tag_123\n      jump\t// in\n    tag_211:\n        /* \"#utility.yul\":5298:5382   */\n      tag_212\n        /* \"#utility.yul\":5375:5381   */\n      dup2\n        /* \"#utility.yul\":5370:5373   */\n      dup5\n        /* \"#utility.yul\":5298:5382   */\n      tag_124\n      jump\t// in\n    tag_212:\n        /* \"#utility.yul\":5291:5382   */\n      swap3\n      pop\n        /* \"#utility.yul\":5406:5460   */\n      tag_213\n        /* \"#utility.yul\":5454:5459   */\n      dup3\n        /* \"#utility.yul\":5406:5460   */\n      tag_125\n      jump\t// in\n    tag_213:\n        /* \"#utility.yul\":5483:5490   */\n      dup1\n        /* \"#utility.yul\":5514:5515   */\n      0x00\n        /* \"#utility.yul\":5499:5781   */\n    tag_214:\n        /* \"#utility.yul\":5524:5530   */\n      dup4\n        /* \"#utility.yul\":5521:5522   */\n      dup2\n        /* \"#utility.yul\":5518:5531   */\n      lt\n        /* \"#utility.yul\":5499:5781   */\n      iszero\n      tag_216\n      jumpi\n        /* \"#utility.yul\":5600:5606   */\n      dup2\n        /* \"#utility.yul\":5594:5607   */\n      mload\n        /* \"#utility.yul\":5627:5690   */\n      tag_217\n        /* \"#utility.yul\":5686:5689   */\n      dup8\n        /* \"#utility.yul\":5671:5684   */\n      dup3\n        /* \"#utility.yul\":5627:5690   */\n      tag_127\n      jump\t// in\n    tag_217:\n        /* \"#utility.yul\":5620:5690   */\n      swap7\n      pop\n        /* \"#utility.yul\":5713:5771   */\n      tag_218\n        /* \"#utility.yul\":5764:5770   */\n      dup4\n        /* \"#utility.yul\":5713:5771   */\n      tag_128\n      jump\t// in\n    tag_218:\n        /* \"#utility.yul\":5703:5771   */\n      swap3\n      pop\n        /* \"#utility.yul\":5559:5781   */\n      pop\n        /* \"#utility.yul\":5546:5547   */\n      0x01\n        /* \"#utility.yul\":5543:5544   */\n      dup2\n        /* \"#utility.yul\":5539:5548   */\n      add\n        /* \"#utility.yul\":5534:5548   */\n      swap1\n      pop\n        /* \"#utility.yul\":5499:5781   */\n      jump(tag_214)\n    tag_216:\n        /* \"#utility.yul\":5503:5517   */\n      pop\n        /* \"#utility.yul\":5206:5788   */\n      pop\n      pop\n      pop\n        /* \"#utility.yul\":5094:5788   */\n      pop\n      pop\n      jump\t// out\n        /* \"#utility.yul\":5794:6109   */\n    tag_52:\n        /* \"#utility.yul\":5933:5937   */\n      0x00\n        /* \"#utility.yul\":5971:5974   */\n      0xa0\n        /* \"#utility.yul\":5960:5969   */\n      dup3\n        /* \"#utility.yul\":5956:5975   */\n      add\n        /* \"#utility.yul\":5948:5975   */\n      swap1\n      pop\n        /* \"#utility.yul\":5985:6102   */\n      tag_220\n        /* \"#utility.yul\":6099:6100   */\n      0x00\n        /* \"#utility.yul\":6088:6097   */\n      dup4\n        /* \"#utility.yul\":6084:6101   */\n      add\n        /* \"#utility.yul\":6075:6081   */\n      dup5\n        /* \"#utility.yul\":5985:6102   */\n      tag_129\n      jump\t// in\n    tag_220:\n        /* \"#utility.yul\":5794:6109   */\n      swap3\n      swap2\n      pop\n      pop\n      jump\t// out\n        /* \"#utility.yul\":6173:6506   */\n    tag_130:\n        /* \"#utility.yul\":6318:6322   */\n      0x20\n        /* \"#utility.yul\":6313:6316   */\n      dup3\n        /* \"#utility.yul\":6309:6323   */\n      add\n        /* \"#utility.yul\":6407:6411   */\n      0x00\n        /* \"#utility.yul\":6400:6405   */\n      dup3\n        /* \"#utility.yul\":6396:6412   */\n      add\n        /* \"#utility.yul\":6390:6413   */\n      mload\n        /* \"#utility.yul\":6426:6489   */\n      tag_222\n        /* \"#utility.yul\":6483:6487   */\n      0x00\n        /* \"#utility.yul\":6478:6481   */\n      dup6\n        /* \"#utility.yul\":6474:6488   */\n      add\n        /* \"#utility.yul\":6460:6472   */\n      dup3\n        /* \"#utility.yul\":6426:6489   */\n      tag_126\n      jump\t// in\n    tag_222:\n        /* \"#utility.yul\":6333:6499   */\n      pop\n        /* \"#utility.yul\":6287:6506   */\n      pop\n        /* \"#utility.yul\":6173:6506   */\n      pop\n      pop\n      jump\t// out\n        /* \"#utility.yul\":6512:6830   */\n    tag_56:\n        /* \"#utility.yul\":6653:6657   */\n      0x00\n        /* \"#utility.yul\":6691:6693   */\n      0x20\n        /* \"#utility.yul\":6680:6689   */\n      dup3\n        /* \"#utility.yul\":6676:6694   */\n      add\n        /* \"#utility.yul\":6668:6694   */\n      swap1\n      pop\n        /* \"#utility.yul\":6704:6823   */\n      tag_224\n        /* \"#utility.yul\":6820:6821   */\n      0x00\n        /* \"#utility.yul\":6809:6818   */\n      dup4\n        /* \"#utility.yul\":6805:6822   */\n      add\n        /* \"#utility.yul\":6796:6802   */\n      dup5\n        /* \"#utility.yul\":6704:6823   */\n      tag_130\n      jump\t// in\n    tag_224:\n        /* \"#utility.yul\":6512:6830   */\n      swap3\n      swap2\n      pop\n      pop\n      jump\t// out\n        /* \"#utility.yul\":6836:6956   */\n    tag_131:\n        /* \"#utility.yul\":6908:6931   */\n      tag_226\n        /* \"#utility.yul\":6925:6930   */\n      dup2\n        /* \"#utility.yul\":6908:6931   */\n      tag_107\n      jump\t// in\n    tag_226:\n        /* \"#utility.yul\":6901:6906   */\n      dup2\n        /* \"#utility.yul\":6898:6932   */\n      eq\n        /* \"#utility.yul\":6888:6950   */\n      tag_227\n      jumpi\n        /* \"#utility.yul\":6946:6947   */\n      0x00\n        /* \"#utility.yul\":6943:6944   */\n      dup1\n        /* \"#utility.yul\":6936:6948   */\n      revert\n        /* \"#utility.yul\":6888:6950   */\n    tag_227:\n        /* \"#utility.yul\":6836:6956   */\n      pop\n      jump\t// out\n        /* \"#utility.yul\":6962:7103   */\n    tag_132:\n        /* \"#utility.yul\":7018:7023   */\n      0x00\n        /* \"#utility.yul\":7049:7055   */\n      dup2\n        /* \"#utility.yul\":7043:7056   */\n      mload\n        /* \"#utility.yul\":7034:7056   */\n      swap1\n      pop\n        /* \"#utility.yul\":7065:7097   */\n      tag_229\n        /* \"#utility.yul\":7091:7096   */\n      dup2\n        /* \"#utility.yul\":7065:7097   */\n      tag_131\n      jump\t// in\n    tag_229:\n        /* \"#utility.yul\":6962:7103   */\n      swap3\n      swap2\n      pop\n      pop\n      jump\t// out\n        /* \"#utility.yul\":7109:7458   */\n    tag_65:\n        /* \"#utility.yul\":7178:7184   */\n      0x00\n        /* \"#utility.yul\":7227:7229   */\n      0x20\n        /* \"#utility.yul\":7215:7224   */\n      dup3\n        /* \"#utility.yul\":7206:7213   */\n      dup5\n        /* \"#utility.yul\":7202:7225   */\n      sub\n        /* \"#utility.yul\":7198:7230   */\n      slt\n        /* \"#utility.yul\":7195:7314   */\n      iszero\n      tag_231\n      jumpi\n        /* \"#utility.yul\":7233:7312   */\n      tag_232\n      tag_102\n      jump\t// in\n    tag_232:\n        /* \"#utility.yul\":7195:7314   */\n    tag_231:\n        /* \"#utility.yul\":7353:7354   */\n      0x00\n        /* \"#utility.yul\":7378:7441   */\n      tag_233\n        /* \"#utility.yul\":7433:7440   */\n      dup5\n        /* \"#utility.yul\":7424:7430   */\n      dup3\n        /* \"#utility.yul\":7413:7422   */\n      dup6\n        /* \"#utility.yul\":7409:7431   */\n      add\n        /* \"#utility.yul\":7378:7441   */\n      tag_132\n      jump\t// in\n    tag_233:\n        /* \"#utility.yul\":7368:7441   */\n      swap2\n      pop\n        /* \"#utility.yul\":7324:7451   */\n      pop\n        /* \"#utility.yul\":7109:7458   */\n      swap3\n      swap2\n      pop\n      pop\n      jump\t// out\n        /* \"#utility.yul\":7464:7607   */\n    tag_133:\n        /* \"#utility.yul\":7521:7526   */\n      0x00\n        /* \"#utility.yul\":7552:7558   */\n      dup2\n        /* \"#utility.yul\":7546:7559   */\n      mload\n        /* \"#utility.yul\":7537:7559   */\n      swap1\n      pop\n        /* \"#utility.yul\":7568:7601   */\n      tag_235\n        /* \"#utility.yul\":7595:7600   */\n      dup2\n        /* \"#utility.yul\":7568:7601   */\n      tag_105\n      jump\t// in\n    tag_235:\n        /* \"#utility.yul\":7464:7607   */\n      swap3\n      swap2\n      pop\n      pop\n      jump\t// out\n        /* \"#utility.yul\":7613:7964   */\n    tag_70:\n        /* \"#utility.yul\":7683:7689   */\n      0x00\n        /* \"#utility.yul\":7732:7734   */\n      0x20\n        /* \"#utility.yul\":7720:7729   */\n      dup3\n        /* \"#utility.yul\":7711:7718   */\n      dup5\n        /* \"#utility.yul\":7707:7730   */\n      sub\n        /* \"#utility.yul\":7703:7735   */\n      slt\n        /* \"#utility.yul\":7700:7819   */\n      iszero\n      tag_237\n      jumpi\n        /* \"#utility.yul\":7738:7817   */\n      tag_238\n      tag_102\n      jump\t// in\n    tag_238:\n        /* \"#utility.yul\":7700:7819   */\n    tag_237:\n        /* \"#utility.yul\":7858:7859   */\n      0x00\n        /* \"#utility.yul\":7883:7947   */\n      tag_239\n        /* \"#utility.yul\":7939:7946   */\n      dup5\n        /* \"#utility.yul\":7930:7936   */\n      dup3\n        /* \"#utility.yul\":7919:7928   */\n      dup6\n        /* \"#utility.yul\":7915:7937   */\n      add\n        /* \"#utility.yul\":7883:7947   */\n      tag_133\n      jump\t// in\n    tag_239:\n        /* \"#utility.yul\":7873:7947   */\n      swap2\n      pop\n        /* \"#utility.yul\":7829:7957   */\n      pop\n        /* \"#utility.yul\":7613:7964   */\n      swap3\n      swap2\n      pop\n      pop\n      jump\t// out\n        /* \"#utility.yul\":7970:8092   */\n    tag_134:\n        /* \"#utility.yul\":8043:8067   */\n      tag_241\n        /* \"#utility.yul\":8061:8066   */\n      dup2\n        /* \"#utility.yul\":8043:8067   */\n      tag_116\n      jump\t// in\n    tag_241:\n        /* \"#utility.yul\":8036:8041   */\n      dup2\n        /* \"#utility.yul\":8033:8068   */\n      eq\n        /* \"#utility.yul\":8023:8086   */\n      tag_242\n      jumpi\n        /* \"#utility.yul\":8082:8083   */\n      0x00\n        /* \"#utility.yul\":8079:8080   */\n      dup1\n        /* \"#utility.yul\":8072:8084   */\n      revert\n        /* \"#utility.yul\":8023:8086   */\n    tag_242:\n        /* \"#utility.yul\":7970:8092   */\n      pop\n      jump\t// out\n        /* \"#utility.yul\":8098:8241   */\n    tag_135:\n        /* \"#utility.yul\":8155:8160   */\n      0x00\n        /* \"#utility.yul\":8186:8192   */\n      dup2\n        /* \"#utility.yul\":8180:8193   */\n      mload\n        /* \"#utility.yul\":8171:8193   */\n      swap1\n      pop\n        /* \"#utility.yul\":8202:8235   */\n      tag_244\n        /* \"#utility.yul\":8229:8234   */\n      dup2\n        /* \"#utility.yul\":8202:8235   */\n      tag_134\n      jump\t// in\n    tag_244:\n        /* \"#utility.yul\":8098:8241   */\n      swap3\n      swap2\n      pop\n      pop\n      jump\t// out\n        /* \"#utility.yul\":8247:8598   */\n    tag_76:\n        /* \"#utility.yul\":8317:8323   */\n      0x00\n        /* \"#utility.yul\":8366:8368   */\n      0x20\n        /* \"#utility.yul\":8354:8363   */\n      dup3\n        /* \"#utility.yul\":8345:8352   */\n      dup5\n        /* \"#utility.yul\":8341:8364   */\n      sub\n        /* \"#utility.yul\":8337:8369   */\n      slt\n        /* \"#utility.yul\":8334:8453   */\n      iszero\n      tag_246\n      jumpi\n        /* \"#utility.yul\":8372:8451   */\n      tag_247\n      tag_102\n      jump\t// in\n    tag_247:\n        /* \"#utility.yul\":8334:8453   */\n    tag_246:\n        /* \"#utility.yul\":8492:8493   */\n      0x00\n        /* \"#utility.yul\":8517:8581   */\n      tag_248\n        /* \"#utility.yul\":8573:8580   */\n      dup5\n        /* \"#utility.yul\":8564:8570   */\n      dup3\n        /* \"#utility.yul\":8553:8562   */\n      dup6\n        /* \"#utility.yul\":8549:8571   */\n      add\n        /* \"#utility.yul\":8517:8581   */\n      tag_135\n      jump\t// in\n    tag_248:\n        /* \"#utility.yul\":8507:8581   */\n      swap2\n      pop\n        /* \"#utility.yul\":8463:8591   */\n      pop\n        /* \"#utility.yul\":8247:8598   */\n      swap3\n      swap2\n      pop\n      pop\n      jump\t// out\n        /* \"#utility.yul\":8604:8713   */\n    tag_136:\n        /* \"#utility.yul\":8687:8688   */\n      0x05\n        /* \"#utility.yul\":8680:8685   */\n      dup2\n        /* \"#utility.yul\":8677:8689   */\n      lt\n        /* \"#utility.yul\":8667:8707   */\n      tag_250\n      jumpi\n        /* \"#utility.yul\":8703:8704   */\n      0x00\n        /* \"#utility.yul\":8700:8701   */\n      dup1\n        /* \"#utility.yul\":8693:8705   */\n      revert\n        /* \"#utility.yul\":8667:8707   */\n    tag_250:\n        /* \"#utility.yul\":8604:8713   */\n      pop\n      jump\t// out\n        /* \"#utility.yul\":8719:8882   */\n    tag_137:\n        /* \"#utility.yul\":8786:8791   */\n      0x00\n        /* \"#utility.yul\":8817:8823   */\n      dup2\n        /* \"#utility.yul\":8811:8824   */\n      mload\n        /* \"#utility.yul\":8802:8824   */\n      swap1\n      pop\n        /* \"#utility.yul\":8833:8876   */\n      tag_252\n        /* \"#utility.yul\":8870:8875   */\n      dup2\n        /* \"#utility.yul\":8833:8876   */\n      tag_136\n      jump\t// in\n    tag_252:\n        /* \"#utility.yul\":8719:8882   */\n      swap3\n      swap2\n      pop\n      pop\n      jump\t// out\n        /* \"#utility.yul\":8888:9259   */\n    tag_81:\n        /* \"#utility.yul\":8968:8974   */\n      0x00\n        /* \"#utility.yul\":9017:9019   */\n      0x20\n        /* \"#utility.yul\":9005:9014   */\n      dup3\n        /* \"#utility.yul\":8996:9003   */\n      dup5\n        /* \"#utility.yul\":8992:9015   */\n      sub\n        /* \"#utility.yul\":8988:9020   */\n      slt\n        /* \"#utility.yul\":8985:9104   */\n      iszero\n      tag_254\n      jumpi\n        /* \"#utility.yul\":9023:9102   */\n      tag_255\n      tag_102\n      jump\t// in\n    tag_255:\n        /* \"#utility.yul\":8985:9104   */\n    tag_254:\n        /* \"#utility.yul\":9143:9144   */\n      0x00\n        /* \"#utility.yul\":9168:9242   */\n      tag_256\n        /* \"#utility.yul\":9234:9241   */\n      dup5\n        /* \"#utility.yul\":9225:9231   */\n      dup3\n        /* \"#utility.yul\":9214:9223   */\n      dup6\n        /* \"#utility.yul\":9210:9232   */\n      add\n        /* \"#utility.yul\":9168:9242   */\n      tag_137\n      jump\t// in\n    tag_256:\n        /* \"#utility.yul\":9158:9242   */\n      swap2\n      pop\n        /* \"#utility.yul\":9114:9252   */\n      pop\n        /* \"#utility.yul\":8888:9259   */\n      swap3\n      swap2\n      pop\n      pop\n      jump\t// out\n        /* \"#utility.yul\":9265:9382   */\n    tag_138:\n        /* \"#utility.yul\":9374:9375   */\n      0x00\n        /* \"#utility.yul\":9371:9372   */\n      dup1\n        /* \"#utility.yul\":9364:9376   */\n      revert\n        /* \"#utility.yul\":9388:9490   */\n    tag_139:\n        /* \"#utility.yul\":9429:9435   */\n      0x00\n        /* \"#utility.yul\":9480:9482   */\n      0x1f\n        /* \"#utility.yul\":9476:9483   */\n      not\n        /* \"#utility.yul\":9471:9473   */\n      0x1f\n        /* \"#utility.yul\":9464:9469   */\n      dup4\n        /* \"#utility.yul\":9460:9474   */\n      add\n        /* \"#utility.yul\":9456:9484   */\n      and\n        /* \"#utility.yul\":9446:9484   */\n      swap1\n      pop\n        /* \"#utility.yul\":9388:9490   */\n      swap2\n      swap1\n      pop\n      jump\t// out\n        /* \"#utility.yul\":9496:9676   */\n    tag_140:\n        /* \"#utility.yul\":9544:9621   */\n      0x4e487b7100000000000000000000000000000000000000000000000000000000\n        /* \"#utility.yul\":9541:9542   */\n      0x00\n        /* \"#utility.yul\":9534:9622   */\n      mstore\n        /* \"#utility.yul\":9641:9645   */\n      0x41\n        /* \"#utility.yul\":9638:9639   */\n      0x04\n        /* \"#utility.yul\":9631:9646   */\n      mstore\n        /* \"#utility.yul\":9665:9669   */\n      0x24\n        /* \"#utility.yul\":9662:9663   */\n      0x00\n        /* \"#utility.yul\":9655:9670   */\n      revert\n        /* \"#utility.yul\":9682:9963   */\n    tag_141:\n        /* \"#utility.yul\":9765:9792   */\n      tag_261\n        /* \"#utility.yul\":9787:9791   */\n      dup3\n        /* \"#utility.yul\":9765:9792   */\n      tag_139\n      jump\t// in\n    tag_261:\n        /* \"#utility.yul\":9757:9763   */\n      dup2\n        /* \"#utility.yul\":9753:9793   */\n      add\n        /* \"#utility.yul\":9895:9901   */\n      dup2\n        /* \"#utility.yul\":9883:9893   */\n      dup2\n        /* \"#utility.yul\":9880:9902   */\n      lt\n        /* \"#utility.yul\":9859:9877   */\n      0xffffffffffffffff\n        /* \"#utility.yul\":9847:9857   */\n      dup3\n        /* \"#utility.yul\":9844:9878   */\n      gt\n        /* \"#utility.yul\":9841:9903   */\n      or\n        /* \"#utility.yul\":9838:9926   */\n      iszero\n      tag_262\n      jumpi\n        /* \"#utility.yul\":9906:9924   */\n      tag_263\n      tag_140\n      jump\t// in\n    tag_263:\n        /* \"#utility.yul\":9838:9926   */\n    tag_262:\n        /* \"#utility.yul\":9946:9956   */\n      dup1\n        /* \"#utility.yul\":9942:9944   */\n      0x40\n        /* \"#utility.yul\":9935:9957   */\n      mstore\n        /* \"#utility.yul\":9725:9963   */\n      pop\n        /* \"#utility.yul\":9682:9963   */\n      pop\n      pop\n      jump\t// out\n        /* \"#utility.yul\":9969:10098   */\n    tag_142:\n        /* \"#utility.yul\":10003:10009   */\n      0x00\n        /* \"#utility.yul\":10030:10050   */\n      tag_265\n      tag_101\n      jump\t// in\n    tag_265:\n        /* \"#utility.yul\":10020:10050   */\n      swap1\n      pop\n        /* \"#utility.yul\":10059:10092   */\n      tag_266\n        /* \"#utility.yul\":10087:10091   */\n      dup3\n        /* \"#utility.yul\":10079:10085   */\n      dup3\n        /* \"#utility.yul\":10059:10092   */\n      tag_141\n      jump\t// in\n    tag_266:\n        /* \"#utility.yul\":9969:10098   */\n      swap2\n      swap1\n      pop\n      jump\t// out\n        /* \"#utility.yul\":10104:10353   */\n    tag_143:\n        /* \"#utility.yul\":10179:10183   */\n      0x00\n        /* \"#utility.yul\":10269:10287   */\n      0xffffffffffffffff\n        /* \"#utility.yul\":10261:10267   */\n      dup3\n        /* \"#utility.yul\":10258:10288   */\n      gt\n        /* \"#utility.yul\":10255:10311   */\n      iszero\n      tag_268\n      jumpi\n        /* \"#utility.yul\":10291:10309   */\n      tag_269\n      tag_140\n      jump\t// in\n    tag_269:\n        /* \"#utility.yul\":10255:10311   */\n    tag_268:\n        /* \"#utility.yul\":10341:10345   */\n      0x20\n        /* \"#utility.yul\":10333:10339   */\n      dup3\n        /* \"#utility.yul\":10329:10346   */\n      mul\n        /* \"#utility.yul\":10321:10346   */\n      swap1\n      pop\n        /* \"#utility.yul\":10104:10353   */\n      swap2\n      swap1\n      pop\n      jump\t// out\n        /* \"#utility.yul\":10359:10476   */\n    tag_144:\n        /* \"#utility.yul\":10468:10469   */\n      0x00\n        /* \"#utility.yul\":10465:10466   */\n      dup1\n        /* \"#utility.yul\":10458:10470   */\n      revert\n        /* \"#utility.yul\":10500:11165   */\n    tag_145:\n        /* \"#utility.yul\":10605:10610   */\n      0x00\n        /* \"#utility.yul\":10630:10709   */\n      tag_272\n        /* \"#utility.yul\":10646:10708   */\n      tag_273\n        /* \"#utility.yul\":10701:10707   */\n      dup5\n        /* \"#utility.yul\":10646:10708   */\n      tag_143\n      jump\t// in\n    tag_273:\n        /* \"#utility.yul\":10630:10709   */\n      tag_142\n      jump\t// in\n    tag_272:\n        /* \"#utility.yul\":10621:10709   */\n      swap1\n      pop\n        /* \"#utility.yul\":10729:10734   */\n      dup1\n        /* \"#utility.yul\":10782:10786   */\n      0x20\n        /* \"#utility.yul\":10774:10780   */\n      dup5\n        /* \"#utility.yul\":10770:10787   */\n      mul\n        /* \"#utility.yul\":10762:10768   */\n      dup4\n        /* \"#utility.yul\":10758:10788   */\n      add\n        /* \"#utility.yul\":10811:10814   */\n      dup6\n        /* \"#utility.yul\":10803:10809   */\n      dup2\n        /* \"#utility.yul\":10800:10815   */\n      gt\n        /* \"#utility.yul\":10797:10919   */\n      iszero\n      tag_274\n      jumpi\n        /* \"#utility.yul\":10830:10909   */\n      tag_275\n      tag_144\n      jump\t// in\n    tag_275:\n        /* \"#utility.yul\":10797:10919   */\n    tag_274:\n        /* \"#utility.yul\":10945:10951   */\n      dup4\n        /* \"#utility.yul\":10928:11159   */\n    tag_276:\n        /* \"#utility.yul\":10962:10968   */\n      dup2\n        /* \"#utility.yul\":10957:10960   */\n      dup2\n        /* \"#utility.yul\":10954:10969   */\n      lt\n        /* \"#utility.yul\":10928:11159   */\n      iszero\n      tag_278\n      jumpi\n        /* \"#utility.yul\":11037:11040   */\n      dup1\n        /* \"#utility.yul\":11066:11114   */\n      tag_279\n        /* \"#utility.yul\":11110:11113   */\n      dup9\n        /* \"#utility.yul\":11098:11108   */\n      dup3\n        /* \"#utility.yul\":11066:11114   */\n      tag_133\n      jump\t// in\n    tag_279:\n        /* \"#utility.yul\":11061:11064   */\n      dup5\n        /* \"#utility.yul\":11054:11115   */\n      mstore\n        /* \"#utility.yul\":11144:11148   */\n      0x20\n        /* \"#utility.yul\":11139:11142   */\n      dup5\n        /* \"#utility.yul\":11135:11149   */\n      add\n        /* \"#utility.yul\":11128:11149   */\n      swap4\n      pop\n        /* \"#utility.yul\":11004:11159   */\n      pop\n        /* \"#utility.yul\":10988:10992   */\n      0x20\n        /* \"#utility.yul\":10983:10986   */\n      dup2\n        /* \"#utility.yul\":10979:10993   */\n      add\n        /* \"#utility.yul\":10972:10993   */\n      swap1\n      pop\n        /* \"#utility.yul\":10928:11159   */\n      jump(tag_276)\n    tag_278:\n        /* \"#utility.yul\":10932:10953   */\n      pop\n        /* \"#utility.yul\":10611:11165   */\n      pop\n      pop\n        /* \"#utility.yul\":10500:11165   */\n      swap4\n      swap3\n      pop\n      pop\n      pop\n      jump\t// out\n        /* \"#utility.yul\":11189:11550   */\n    tag_146:\n        /* \"#utility.yul\":11269:11274   */\n      0x00\n        /* \"#utility.yul\":11318:11321   */\n      dup3\n        /* \"#utility.yul\":11311:11315   */\n      0x1f\n        /* \"#utility.yul\":11303:11309   */\n      dup4\n        /* \"#utility.yul\":11299:11316   */\n      add\n        /* \"#utility.yul\":11295:11322   */\n      slt\n        /* \"#utility.yul\":11285:11407   */\n      tag_281\n      jumpi\n        /* \"#utility.yul\":11326:11405   */\n      tag_282\n      tag_138\n      jump\t// in\n    tag_282:\n        /* \"#utility.yul\":11285:11407   */\n    tag_281:\n        /* \"#utility.yul\":11430:11434   */\n      0x05\n        /* \"#utility.yul\":11452:11544   */\n      tag_283\n        /* \"#utility.yul\":11540:11543   */\n      dup5\n        /* \"#utility.yul\":11532:11538   */\n      dup3\n        /* \"#utility.yul\":11524:11530   */\n      dup6\n        /* \"#utility.yul\":11452:11544   */\n      tag_145\n      jump\t// in\n    tag_283:\n        /* \"#utility.yul\":11443:11544   */\n      swap2\n      pop\n        /* \"#utility.yul\":11275:11550   */\n      pop\n        /* \"#utility.yul\":11189:11550   */\n      swap3\n      swap2\n      pop\n      pop\n      jump\t// out\n        /* \"#utility.yul\":11556:11954   */\n    tag_93:\n        /* \"#utility.yul\":11649:11655   */\n      0x00\n        /* \"#utility.yul\":11698:11701   */\n      0xa0\n        /* \"#utility.yul\":11686:11695   */\n      dup3\n        /* \"#utility.yul\":11677:11684   */\n      dup5\n        /* \"#utility.yul\":11673:11696   */\n      sub\n        /* \"#utility.yul\":11669:11702   */\n      slt\n        /* \"#utility.yul\":11666:11786   */\n      iszero\n      tag_285\n      jumpi\n        /* \"#utility.yul\":11705:11784   */\n      tag_286\n      tag_102\n      jump\t// in\n    tag_286:\n        /* \"#utility.yul\":11666:11786   */\n    tag_285:\n        /* \"#utility.yul\":11825:11826   */\n      0x00\n        /* \"#utility.yul\":11850:11937   */\n      tag_287\n        /* \"#utility.yul\":11929:11936   */\n      dup5\n        /* \"#utility.yul\":11920:11926   */\n      dup3\n        /* \"#utility.yul\":11909:11918   */\n      dup6\n        /* \"#utility.yul\":11905:11927   */\n      add\n        /* \"#utility.yul\":11850:11937   */\n      tag_146\n      jump\t// in\n    tag_287:\n        /* \"#utility.yul\":11840:11937   */\n      swap2\n      pop\n        /* \"#utility.yul\":11796:11947   */\n      pop\n        /* \"#utility.yul\":11556:11954   */\n      swap3\n      swap2\n      pop\n      pop\n      jump\t// out\n\n    auxdata: 0xa2646970667358221220d21356b17049e49305817802ccffb1a10775ec81142afac859d9980213c0e8d264736f6c634300080a0033\n}\n",
				"bytecode": {
					"linkReferences": {},
					"object": "608060405234801561001057600080fd5b50610e02806100206000396000f3fe608060405234801561001057600080fd5b506004361061009e5760003560e01c8063881063231161006657806388106323146101935780638bfd13ae146101c357806391492956146101f3578063d0e5d95514610223578063d6a9de51146102415761009e565b806313ef3dcc146100a35780631bf1fffb146100d35780635af8d21c146101035780635bf608b8146101335780635c622a0e14610163575b600080fd5b6100bd60048036038101906100b8919061081c565b610271565b6040516100ca9190610868565b60405180910390f35b6100ed60048036038101906100e8919061081c565b61031c565b6040516100fa9190610892565b60405180910390f35b61011d6004803603810190610118919061081c565b6103c7565b60405161012a919061092c565b60405180910390f35b61014d6004803603810190610148919061081c565b610404565b60405161015a9190610968565b60405180910390f35b61017d6004803603810190610178919061081c565b6104af565b60405161018a91906109fa565b60405180910390f35b6101ad60048036038101906101a8919061081c565b61055a565b6040516101ba9190610892565b60405180910390f35b6101dd60048036038101906101d8919061081c565b610605565b6040516101ea9190610892565b60405180910390f35b61020d6004803603810190610208919061081c565b610622565b60405161021a9190610ac0565b60405180910390f35b61022b6106d3565b6040516102389190610af7565b60405180910390f35b61025b6004803603810190610256919061081c565b6106f7565b6040516102689190610968565b60405180910390f35b60006001600083815260200190815260200160002060009054906101000a900473ffffffffffffffffffffffffffffffffffffffff1673ffffffffffffffffffffffffffffffffffffffff1663a2e800ad6040518163ffffffff1660e01b8152600401602060405180830381865afa1580156102f1573d6000803e3d6000fd5b505050506040513d601f19601f820116820180604052508101906103159190610b3e565b9050919050565b60006001600083815260200190815260200160002060009054906101000a900473ffffffffffffffffffffffffffffffffffffffff1673ffffffffffffffffffffffffffffffffffffffff1663e0a73a936040518163ffffffff1660e01b8152600401602060405180830381865afa15801561039c573d6000803e3d6000fd5b505050506040513d601f19601f820116820180604052508101906103c09190610b80565b9050919050565b60006001600083815260200190815260200160002060009054906101000a900473ffffffffffffffffffffffffffffffffffffffff169050919050565b60006001600083815260200190815260200160002060009054906101000a900473ffffffffffffffffffffffffffffffffffffffff1673ffffffffffffffffffffffffffffffffffffffff1663603daf9a6040518163ffffffff1660e01b8152600401602060405180830381865afa158015610484573d6000803e3d6000fd5b505050506040513d601f19601f820116820180604052508101906104a89190610bd9565b9050919050565b60006001600083815260200190815260200160002060009054906101000a900473ffffffffffffffffffffffffffffffffffffffff1673ffffffffffffffffffffffffffffffffffffffff1663200d2ed26040518163ffffffff1660e01b8152600401602060405180830381865afa15801561052f573d6000803e3d6000fd5b505050506040513d601f19601f820116820180604052508101906105539190610c2b565b9050919050565b60006001600083815260200190815260200160002060009054906101000a900473ffffffffffffffffffffffffffffffffffffffff1673ffffffffffffffffffffffffffffffffffffffff16634c1786ea6040518163ffffffff1660e01b8152600401602060405180830381865afa1580156105da573d6000803e3d6000fd5b505050506040513d601f19601f820116820180604052508101906105fe9190610b80565b9050919050565b600060026000838152602001908152602001600020549050919050565b61062a6107a2565b6001600083815260200190815260200160002060009054906101000a900473ffffffffffffffffffffffffffffffffffffffff1673ffffffffffffffffffffffffffffffffffffffff1663bd9a548b6040518163ffffffff1660e01b815260040160a060405180830381865afa1580156106a8573d6000803e3d6000fd5b505050506040513d601f19601f820116820180604052508101906106cc9190610d9f565b9050919050565b6106db6107c4565b6000604051806020016040529081600082015481525050905090565b60006001600083815260200190815260200160002060009054906101000a900473ffffffffffffffffffffffffffffffffffffffff1673ffffffffffffffffffffffffffffffffffffffff1663dbd0e1b66040518163ffffffff1660e01b8152600401602060405180830381865afa158015610777573d6000803e3d6000fd5b505050506040513d601f19601f8201168201806040525081019061079b9190610bd9565b9050919050565b6040518060a00160405280600590602082028036833780820191505090505090565b6040518060200160405280600081525090565b6000604051905090565b600080fd5b6000819050919050565b6107f9816107e6565b811461080457600080fd5b50565b600081359050610816816107f0565b92915050565b600060208284031215610832576108316107e1565b5b600061084084828501610807565b91505092915050565b600063ffffffff82169050919050565b61086281610849565b82525050565b600060208201905061087d6000830184610859565b92915050565b61088c816107e6565b82525050565b60006020820190506108a76000830184610883565b92915050565b600073ffffffffffffffffffffffffffffffffffffffff82169050919050565b6000819050919050565b60006108f26108ed6108e8846108ad565b6108cd565b6108ad565b9050919050565b6000610904826108d7565b9050919050565b6000610916826108f9565b9050919050565b6109268161090b565b82525050565b6000602082019050610941600083018461091d565b92915050565b6000610952826108ad565b9050919050565b61096281610947565b82525050565b600060208201905061097d6000830184610959565b92915050565b7f4e487b7100000000000000000000000000000000000000000000000000000000600052602160045260246000fd5b600581106109c3576109c2610983565b5b50565b60008190506109d4826109b2565b919050565b60006109e4826109c6565b9050919050565b6109f4816109d9565b82525050565b6000602082019050610a0f60008301846109eb565b92915050565b600060059050919050565b600081905092915050565b6000819050919050565b610a3e816107e6565b82525050565b6000610a508383610a35565b60208301905092915050565b6000602082019050919050565b610a7281610a15565b610a7c8184610a20565b9250610a8782610a2b565b8060005b83811015610ab8578151610a9f8782610a44565b9650610aaa83610a5c565b925050600181019050610a8b565b505050505050565b600060a082019050610ad56000830184610a69565b92915050565b602082016000820151610af16000850182610a35565b50505050565b6000602082019050610b0c6000830184610adb565b92915050565b610b1b81610849565b8114610b2657600080fd5b50565b600081519050610b3881610b12565b92915050565b600060208284031215610b5457610b536107e1565b5b6000610b6284828501610b29565b91505092915050565b600081519050610b7a816107f0565b92915050565b600060208284031215610b9657610b956107e1565b5b6000610ba484828501610b6b565b91505092915050565b610bb681610947565b8114610bc157600080fd5b50565b600081519050610bd381610bad565b92915050565b600060208284031215610bef57610bee6107e1565b5b6000610bfd84828501610bc4565b91505092915050565b60058110610c1357600080fd5b50565b600081519050610c2581610c06565b92915050565b600060208284031215610c4157610c406107e1565b5b6000610c4f84828501610c16565b91505092915050565b600080fd5b6000601f19601f8301169050919050565b7f4e487b7100000000000000000000000000000000000000000000000000000000600052604160045260246000fd5b610ca682610c5d565b810181811067ffffffffffffffff82111715610cc557610cc4610c6e565b5b80604052505050565b6000610cd86107d7565b9050610ce48282610c9d565b919050565b600067ffffffffffffffff821115610d0457610d03610c6e565b5b602082029050919050565b600080fd5b6000610d27610d2284610ce9565b610cce565b90508060208402830185811115610d4157610d40610d0f565b5b835b81811015610d6a5780610d568882610b6b565b845260208401935050602081019050610d43565b5050509392505050565b600082601f830112610d8957610d88610c58565b5b6005610d96848285610d14565b91505092915050565b600060a08284031215610db557610db46107e1565b5b6000610dc384828501610d74565b9150509291505056fea2646970667358221220d21356b17049e49305817802ccffb1a10775ec81142afac859d9980213c0e8d264736f6c634300080a0033",
					"opcodes": "PUSH1 0x80 PUSH1 0x40 MSTORE CALLVALUE DUP1 ISZERO PUSH2 0x10 JUMPI PUSH1 0x0 DUP1 REVERT JUMPDEST POP PUSH2 0xE02 DUP1 PUSH2 0x20 PUSH1 0x0 CODECOPY PUSH1 0x0 RETURN INVALID PUSH1 0x80 PUSH1 0x40 MSTORE CALLVALUE DUP1 ISZERO PUSH2 0x10 JUMPI PUSH1 0x0 DUP1 REVERT JUMPDEST POP PUSH1 0x4 CALLDATASIZE LT PUSH2 0x9E JUMPI PUSH1 0x0 CALLDATALOAD PUSH1 0xE0 SHR DUP1 PUSH4 0x88106323 GT PUSH2 0x66 JUMPI DUP1 PUSH4 0x88106323 EQ PUSH2 0x193 JUMPI DUP1 PUSH4 0x8BFD13AE EQ PUSH2 0x1C3 JUMPI DUP1 PUSH4 0x91492956 EQ PUSH2 0x1F3 JUMPI DUP1 PUSH4 0xD0E5D955 EQ PUSH2 0x223 JUMPI DUP1 PUSH4 0xD6A9DE51 EQ PUSH2 0x241 JUMPI PUSH2 0x9E JUMP JUMPDEST DUP1 PUSH4 0x13EF3DCC EQ PUSH2 0xA3 JUMPI DUP1 PUSH4 0x1BF1FFFB EQ PUSH2 0xD3 JUMPI DUP1 PUSH4 0x5AF8D21C EQ PUSH2 0x103 JUMPI DUP1 PUSH4 0x5BF608B8 EQ PUSH2 0x133 JUMPI DUP1 PUSH4 0x5C622A0E EQ PUSH2 0x163 JUMPI JUMPDEST PUSH1 0x0 DUP1 REVERT JUMPDEST PUSH2 0xBD PUSH1 0x4 DUP1 CALLDATASIZE SUB DUP2 ADD SWAP1 PUSH2 0xB8 SWAP2 SWAP1 PUSH2 0x81C JUMP JUMPDEST PUSH2 0x271 JUMP JUMPDEST PUSH1 0x40 MLOAD PUSH2 0xCA SWAP2 SWAP1 PUSH2 0x868 JUMP JUMPDEST PUSH1 0x40 MLOAD DUP1 SWAP2 SUB SWAP1 RETURN JUMPDEST PUSH2 0xED PUSH1 0x4 DUP1 CALLDATASIZE SUB DUP2 ADD SWAP1 PUSH2 0xE8 SWAP2 SWAP1 PUSH2 0x81C JUMP JUMPDEST PUSH2 0x31C JUMP JUMPDEST PUSH1 0x40 MLOAD PUSH2 0xFA SWAP2 SWAP1 PUSH2 0x892 JUMP JUMPDEST PUSH1 0x40 MLOAD DUP1 SWAP2 SUB SWAP1 RETURN JUMPDEST PUSH2 0x11D PUSH1 0x4 DUP1 CALLDATASIZE SUB DUP2 ADD SWAP1 PUSH2 0x118 SWAP2 SWAP1 PUSH2 0x81C JUMP JUMPDEST PUSH2 0x3C7 JUMP JUMPDEST PUSH1 0x40 MLOAD PUSH2 0x12A SWAP2 SWAP1 PUSH2 0x92C JUMP JUMPDEST PUSH1 0x40 MLOAD DUP1 SWAP2 SUB SWAP1 RETURN JUMPDEST PUSH2 0x14D PUSH1 0x4 DUP1 CALLDATASIZE SUB DUP2 ADD SWAP1 PUSH2 0x148 SWAP2 SWAP1 PUSH2 0x81C JUMP JUMPDEST PUSH2 0x404 JUMP JUMPDEST PUSH1 0x40 MLOAD PUSH2 0x15A SWAP2 SWAP1 PUSH2 0x968 JUMP JUMPDEST PUSH1 0x40 MLOAD DUP1 SWAP2 SUB SWAP1 RETURN JUMPDEST PUSH2 0x17D PUSH1 0x4 DUP1 CALLDATASIZE SUB DUP2 ADD SWAP1 PUSH2 0x178 SWAP2 SWAP1 PUSH2 0x81C JUMP JUMPDEST PUSH2 0x4AF JUMP JUMPDEST PUSH1 0x40 MLOAD PUSH2 0x18A SWAP2 SWAP1 PUSH2 0x9FA JUMP JUMPDEST PUSH1 0x40 MLOAD DUP1 SWAP2 SUB SWAP1 RETURN JUMPDEST PUSH2 0x1AD PUSH1 0x4 DUP1 CALLDATASIZE SUB DUP2 ADD SWAP1 PUSH2 0x1A8 SWAP2 SWAP1 PUSH2 0x81C JUMP JUMPDEST PUSH2 0x55A JUMP JUMPDEST PUSH1 0x40 MLOAD PUSH2 0x1BA SWAP2 SWAP1 PUSH2 0x892 JUMP JUMPDEST PUSH1 0x40 MLOAD DUP1 SWAP2 SUB SWAP1 RETURN JUMPDEST PUSH2 0x1DD PUSH1 0x4 DUP1 CALLDATASIZE SUB DUP2 ADD SWAP1 PUSH2 0x1D8 SWAP2 SWAP1 PUSH2 0x81C JUMP JUMPDEST PUSH2 0x605 JUMP JUMPDEST PUSH1 0x40 MLOAD PUSH2 0x1EA SWAP2 SWAP1 PUSH2 0x892 JUMP JUMPDEST PUSH1 0x40 MLOAD DUP1 SWAP2 SUB SWAP1 RETURN JUMPDEST PUSH2 0x20D PUSH1 0x4 DUP1 CALLDATASIZE SUB DUP2 ADD SWAP1 PUSH2 0x208 SWAP2 SWAP1 PUSH2 0x81C JUMP JUMPDEST PUSH2 0x622 JUMP JUMPDEST PUSH1 0x40 MLOAD PUSH2 0x21A SWAP2 SWAP1 PUSH2 0xAC0 JUMP JUMPDEST PUSH1 0x40 MLOAD DUP1 SWAP2 SUB SWAP1 RETURN JUMPDEST PUSH2 0x22B PUSH2 0x6D3 JUMP JUMPDEST PUSH1 0x40 MLOAD PUSH2 0x238 SWAP2 SWAP1 PUSH2 0xAF7 JUMP JUMPDEST PUSH1 0x40 MLOAD DUP1 SWAP2 SUB SWAP1 RETURN JUMPDEST PUSH2 0x25B PUSH1 0x4 DUP1 CALLDATASIZE SUB DUP2 ADD SWAP1 PUSH2 0x256 SWAP2 SWAP1 PUSH2 0x81C JUMP JUMPDEST PUSH2 0x6F7 JUMP JUMPDEST PUSH1 0x40 MLOAD PUSH2 0x268 SWAP2 SWAP1 PUSH2 0x968 JUMP JUMPDEST PUSH1 0x40 MLOAD DUP1 SWAP2 SUB SWAP1 RETURN JUMPDEST PUSH1 0x0 PUSH1 0x1 PUSH1 0x0 DUP4 DUP2 MSTORE PUSH1 0x20 ADD SWAP1 DUP2 MSTORE PUSH1 0x20 ADD PUSH1 0x0 KECCAK256 PUSH1 0x0 SWAP1 SLOAD SWAP1 PUSH2 0x100 EXP SWAP1 DIV PUSH20 0xFFFFFFFFFFFFFFFFFFFFFFFFFFFFFFFFFFFFFFFF AND PUSH20 0xFFFFFFFFFFFFFFFFFFFFFFFFFFFFFFFFFFFFFFFF AND PUSH4 0xA2E800AD PUSH1 0x40 MLOAD DUP2 PUSH4 0xFFFFFFFF AND PUSH1 0xE0 SHL DUP2 MSTORE PUSH1 0x4 ADD PUSH1 0x20 PUSH1 0x40 MLOAD DUP1 DUP4 SUB DUP2 DUP7 GAS STATICCALL ISZERO DUP1 ISZERO PUSH2 0x2F1 JUMPI RETURNDATASIZE PUSH1 0x0 DUP1 RETURNDATACOPY RETURNDATASIZE PUSH1 0x0 REVERT JUMPDEST POP POP POP POP PUSH1 0x40 MLOAD RETURNDATASIZE PUSH1 0x1F NOT PUSH1 0x1F DUP3 ADD AND DUP3 ADD DUP1 PUSH1 0x40 MSTORE POP DUP2 ADD SWAP1 PUSH2 0x315 SWAP2 SWAP1 PUSH2 0xB3E JUMP JUMPDEST SWAP1 POP SWAP2 SWAP1 POP JUMP JUMPDEST PUSH1 0x0 PUSH1 0x1 PUSH1 0x0 DUP4 DUP2 MSTORE PUSH1 0x20 ADD SWAP1 DUP2 MSTORE PUSH1 0x20 ADD PUSH1 0x0 KECCAK256 PUSH1 0x0 SWAP1 SLOAD SWAP1 PUSH2 0x100 EXP SWAP1 DIV PUSH20 0xFFFFFFFFFFFFFFFFFFFFFFFFFFFFFFFFFFFFFFFF AND PUSH20 0xFFFFFFFFFFFFFFFFFFFFFFFFFFFFFFFFFFFFFFFF AND PUSH4 0xE0A73A93 PUSH1 0x40 MLOAD DUP2 PUSH4 0xFFFFFFFF AND PUSH1 0xE0 SHL DUP2 MSTORE PUSH1 0x4 ADD PUSH1 0x20 PUSH1 0x40 MLOAD DUP1 DUP4 SUB DUP2 DUP7 GAS STATICCALL ISZERO DUP1 ISZERO PUSH2 0x39C JUMPI RETURNDATASIZE PUSH1 0x0 DUP1 RETURNDATACOPY RETURNDATASIZE PUSH1 0x0 REVERT JUMPDEST POP POP POP POP PUSH1 0x40 MLOAD RETURNDATASIZE PUSH1 0x1F NOT PUSH1 0x1F DUP3 ADD AND DUP3 ADD DUP1 PUSH1 0x40 MSTORE POP DUP2 ADD SWAP1 PUSH2 0x3C0 SWAP2 SWAP1 PUSH2 0xB80 JUMP JUMPDEST SWAP1 POP SWAP2 SWAP1 POP JUMP JUMPDEST PUSH1 0x0 PUSH1 0x1 PUSH1 0x0 DUP4 DUP2 MSTORE PUSH1 0x20 ADD SWAP1 DUP2 MSTORE PUSH1 0x20 ADD PUSH1 0x0 KECCAK256 PUSH1 0x0 SWAP1 SLOAD SWAP1 PUSH2 0x100 EXP SWAP1 DIV PUSH20 0xFFFFFFFFFFFFFFFFFFFFFFFFFFFFFFFFFFFFFFFF AND SWAP1 POP SWAP2 SWAP1 POP JUMP JUMPDEST PUSH1 0x0 PUSH1 0x1 PUSH1 0x0 DUP4 DUP2 MSTORE PUSH1 0x20 ADD SWAP1 DUP2 MSTORE PUSH1 0x20 ADD PUSH1 0x0 KECCAK256 PUSH1 0x0 SWAP1 SLOAD SWAP1 PUSH2 0x100 EXP SWAP1 DIV PUSH20 0xFFFFFFFFFFFFFFFFFFFFFFFFFFFFFFFFFFFFFFFF AND PUSH20 0xFFFFFFFFFFFFFFFFFFFFFFFFFFFFFFFFFFFFFFFF AND PUSH4 0x603DAF9A PUSH1 0x40 MLOAD DUP2 PUSH4 0xFFFFFFFF AND PUSH1 0xE0 SHL DUP2 MSTORE PUSH1 0x4 ADD PUSH1 0x20 PUSH1 0x40 MLOAD DUP1 DUP4 SUB DUP2 DUP7 GAS STATICCALL ISZERO DUP1 ISZERO PUSH2 0x484 JUMPI RETURNDATASIZE PUSH1 0x0 DUP1 RETURNDATACOPY RETURNDATASIZE PUSH1 0x0 REVERT JUMPDEST POP POP POP POP PUSH1 0x40 MLOAD RETURNDATASIZE PUSH1 0x1F NOT PUSH1 0x1F DUP3 ADD AND DUP3 ADD DUP1 PUSH1 0x40 MSTORE POP DUP2 ADD SWAP1 PUSH2 0x4A8 SWAP2 SWAP1 PUSH2 0xBD9 JUMP JUMPDEST SWAP1 POP SWAP2 SWAP1 POP JUMP JUMPDEST PUSH1 0x0 PUSH1 0x1 PUSH1 0x0 DUP4 DUP2 MSTORE PUSH1 0x20 ADD SWAP1 DUP2 MSTORE PUSH1 0x20 ADD PUSH1 0x0 KECCAK256 PUSH1 0x0 SWAP1 SLOAD SWAP1 PUSH2 0x100 EXP SWAP1 DIV PUSH20 0xFFFFFFFFFFFFFFFFFFFFFFFFFFFFFFFFFFFFFFFF AND PUSH20 0xFFFFFFFFFFFFFFFFFFFFFFFFFFFFFFFFFFFFFFFF AND PUSH4 0x200D2ED2 PUSH1 0x40 MLOAD DUP2 PUSH4 0xFFFFFFFF AND PUSH1 0xE0 SHL DUP2 MSTORE PUSH1 0x4 ADD PUSH1 0x20 PUSH1 0x40 MLOAD DUP1 DUP4 SUB DUP2 DUP7 GAS STATICCALL ISZERO DUP1 ISZERO PUSH2 0x52F JUMPI RETURNDATASIZE PUSH1 0x0 DUP1 RETURNDATACOPY RETURNDATASIZE PUSH1 0x0 REVERT JUMPDEST POP POP POP POP PUSH1 0x40 MLOAD RETURNDATASIZE PUSH1 0x1F NOT PUSH1 0x1F DUP3 ADD AND DUP3 ADD DUP1 PUSH1 0x40 MSTORE POP DUP2 ADD SWAP1 PUSH2 0x553 SWAP2 SWAP1 PUSH2 0xC2B JUMP JUMPDEST SWAP1 POP SWAP2 SWAP1 POP JUMP JUMPDEST PUSH1 0x0 PUSH1 0x1 PUSH1 0x0 DUP4 DUP2 MSTORE PUSH1 0x20 ADD SWAP1 DUP2 MSTORE PUSH1 0x20 ADD PUSH1 0x0 KECCAK256 PUSH1 0x0 SWAP1 SLOAD SWAP1 PUSH2 0x100 EXP SWAP1 DIV PUSH20 0xFFFFFFFFFFFFFFFFFFFFFFFFFFFFFFFFFFFFFFFF AND PUSH20 0xFFFFFFFFFFFFFFFFFFFFFFFFFFFFFFFFFFFFFFFF AND PUSH4 0x4C1786EA PUSH1 0x40 MLOAD DUP2 PUSH4 0xFFFFFFFF AND PUSH1 0xE0 SHL DUP2 MSTORE PUSH1 0x4 ADD PUSH1 0x20 PUSH1 0x40 MLOAD DUP1 DUP4 SUB DUP2 DUP7 GAS STATICCALL ISZERO DUP1 ISZERO PUSH2 0x5DA JUMPI RETURNDATASIZE PUSH1 0x0 DUP1 RETURNDATACOPY RETURNDATASIZE PUSH1 0x0 REVERT JUMPDEST POP POP POP POP PUSH1 0x40 MLOAD RETURNDATASIZE PUSH1 0x1F NOT PUSH1 0x1F DUP3 ADD AND DUP3 ADD DUP1 PUSH1 0x40 MSTORE POP DUP2 ADD SWAP1 PUSH2 0x5FE SWAP2 SWAP1 PUSH2 0xB80 JUMP JUMPDEST SWAP1 POP SWAP2 SWAP1 POP JUMP JUMPDEST PUSH1 0x0 PUSH1 0x2 PUSH1 0x0 DUP4 DUP2 MSTORE PUSH1 0x20 ADD SWAP1 DUP2 MSTORE PUSH1 0x20 ADD PUSH1 0x0 KECCAK256 SLOAD SWAP1 POP SWAP2 SWAP1 POP JUMP JUMPDEST PUSH2 0x62A PUSH2 0x7A2 JUMP JUMPDEST PUSH1 0x1 PUSH1 0x0 DUP4 DUP2 MSTORE PUSH1 0x20 ADD SWAP1 DUP2 MSTORE PUSH1 0x20 ADD PUSH1 0x0 KECCAK256 PUSH1 0x0 SWAP1 SLOAD SWAP1 PUSH2 0x100 EXP SWAP1 DIV PUSH20 0xFFFFFFFFFFFFFFFFFFFFFFFFFFFFFFFFFFFFFFFF AND PUSH20 0xFFFFFFFFFFFFFFFFFFFFFFFFFFFFFFFFFFFFFFFF AND PUSH4 0xBD9A548B PUSH1 0x40 MLOAD DUP2 PUSH4 0xFFFFFFFF AND PUSH1 0xE0 SHL DUP2 MSTORE PUSH1 0x4 ADD PUSH1 0xA0 PUSH1 0x40 MLOAD DUP1 DUP4 SUB DUP2 DUP7 GAS STATICCALL ISZERO DUP1 ISZERO PUSH2 0x6A8 JUMPI RETURNDATASIZE PUSH1 0x0 DUP1 RETURNDATACOPY RETURNDATASIZE PUSH1 0x0 REVERT JUMPDEST POP POP POP POP PUSH1 0x40 MLOAD RETURNDATASIZE PUSH1 0x1F NOT PUSH1 0x1F DUP3 ADD AND DUP3 ADD DUP1 PUSH1 0x40 MSTORE POP DUP2 ADD SWAP1 PUSH2 0x6CC SWAP2 SWAP1 PUSH2 0xD9F JUMP JUMPDEST SWAP1 POP SWAP2 SWAP1 POP JUMP JUMPDEST PUSH2 0x6DB PUSH2 0x7C4 JUMP JUMPDEST PUSH1 0x0 PUSH1 0x40 MLOAD DUP1 PUSH1 0x20 ADD PUSH1 0x40 MSTORE SWAP1 DUP2 PUSH1 0x0 DUP3 ADD SLOAD DUP2 MSTORE POP POP SWAP1 POP SWAP1 JUMP JUMPDEST PUSH1 0x0 PUSH1 0x1 PUSH1 0x0 DUP4 DUP2 MSTORE PUSH1 0x20 ADD SWAP1 DUP2 MSTORE PUSH1 0x20 ADD PUSH1 0x0 KECCAK256 PUSH1 0x0 SWAP1 SLOAD SWAP1 PUSH2 0x100 EXP SWAP1 DIV PUSH20 0xFFFFFFFFFFFFFFFFFFFFFFFFFFFFFFFFFFFFFFFF AND PUSH20 0xFFFFFFFFFFFFFFFFFFFFFFFFFFFFFFFFFFFFFFFF AND PUSH4 0xDBD0E1B6 PUSH1 0x40 MLOAD DUP2 PUSH4 0xFFFFFFFF AND PUSH1 0xE0 SHL DUP2 MSTORE PUSH1 0x4 ADD PUSH1 0x20 PUSH1 0x40 MLOAD DUP1 DUP4 SUB DUP2 DUP7 GAS STATICCALL ISZERO DUP1 ISZERO PUSH2 0x777 JUMPI RETURNDATASIZE PUSH1 0x0 DUP1 RETURNDATACOPY RETURNDATASIZE PUSH1 0x0 REVERT JUMPDEST POP POP POP POP PUSH1 0x40 MLOAD RETURNDATASIZE PUSH1 0x1F NOT PUSH1 0x1F DUP3 ADD AND DUP3 ADD DUP1 PUSH1 0x40 MSTORE POP DUP2 ADD SWAP1 PUSH2 0x79B SWAP2 SWAP1 PUSH2 0xBD9 JUMP JUMPDEST SWAP1 POP SWAP2 SWAP1 POP JUMP JUMPDEST PUSH1 0x40 MLOAD DUP1 PUSH1 0xA0 ADD PUSH1 0x40 MSTORE DUP1 PUSH1 0x5 SWAP1 PUSH1 0x20 DUP3 MUL DUP1 CALLDATASIZE DUP4 CALLDATACOPY DUP1 DUP3 ADD SWAP2 POP POP SWAP1 POP POP SWAP1 JUMP JUMPDEST PUSH1 0x40 MLOAD DUP1 PUSH1 0x20 ADD PUSH1 0x40 MSTORE DUP1 PUSH1 0x0 DUP2 MSTORE POP SWAP1 JUMP JUMPDEST PUSH1 0x0 PUSH1 0x40 MLOAD SWAP1 POP SWAP1 JUMP JUMPDEST PUSH1 0x0 DUP1 REVERT JUMPDEST PUSH1 0x0 DUP2 SWAP1 POP SWAP2 SWAP1 POP JUMP JUMPDEST PUSH2 0x7F9 DUP2 PUSH2 0x7E6 JUMP JUMPDEST DUP2 EQ PUSH2 0x804 JUMPI PUSH1 0x0 DUP1 REVERT JUMPDEST POP JUMP JUMPDEST PUSH1 0x0 DUP2 CALLDATALOAD SWAP1 POP PUSH2 0x816 DUP2 PUSH2 0x7F0 JUMP JUMPDEST SWAP3 SWAP2 POP POP JUMP JUMPDEST PUSH1 0x0 PUSH1 0x20 DUP3 DUP5 SUB SLT ISZERO PUSH2 0x832 JUMPI PUSH2 0x831 PUSH2 0x7E1 JUMP JUMPDEST JUMPDEST PUSH1 0x0 PUSH2 0x840 DUP5 DUP3 DUP6 ADD PUSH2 0x807 JUMP JUMPDEST SWAP2 POP POP SWAP3 SWAP2 POP POP JUMP JUMPDEST PUSH1 0x0 PUSH4 0xFFFFFFFF DUP3 AND SWAP1 POP SWAP2 SWAP1 POP JUMP JUMPDEST PUSH2 0x862 DUP2 PUSH2 0x849 JUMP JUMPDEST DUP3 MSTORE POP POP JUMP JUMPDEST PUSH1 0x0 PUSH1 0x20 DUP3 ADD SWAP1 POP PUSH2 0x87D PUSH1 0x0 DUP4 ADD DUP5 PUSH2 0x859 JUMP JUMPDEST SWAP3 SWAP2 POP POP JUMP JUMPDEST PUSH2 0x88C DUP2 PUSH2 0x7E6 JUMP JUMPDEST DUP3 MSTORE POP POP JUMP JUMPDEST PUSH1 0x0 PUSH1 0x20 DUP3 ADD SWAP1 POP PUSH2 0x8A7 PUSH1 0x0 DUP4 ADD DUP5 PUSH2 0x883 JUMP JUMPDEST SWAP3 SWAP2 POP POP JUMP JUMPDEST PUSH1 0x0 PUSH20 0xFFFFFFFFFFFFFFFFFFFFFFFFFFFFFFFFFFFFFFFF DUP3 AND SWAP1 POP SWAP2 SWAP1 POP JUMP JUMPDEST PUSH1 0x0 DUP2 SWAP1 POP SWAP2 SWAP1 POP JUMP JUMPDEST PUSH1 0x0 PUSH2 0x8F2 PUSH2 0x8ED PUSH2 0x8E8 DUP5 PUSH2 0x8AD JUMP JUMPDEST PUSH2 0x8CD JUMP JUMPDEST PUSH2 0x8AD JUMP JUMPDEST SWAP1 POP SWAP2 SWAP1 POP JUMP JUMPDEST PUSH1 0x0 PUSH2 0x904 DUP3 PUSH2 0x8D7 JUMP JUMPDEST SWAP1 POP SWAP2 SWAP1 POP JUMP JUMPDEST PUSH1 0x0 PUSH2 0x916 DUP3 PUSH2 0x8F9 JUMP JUMPDEST SWAP1 POP SWAP2 SWAP1 POP JUMP JUMPDEST PUSH2 0x926 DUP2 PUSH2 0x90B JUMP JUMPDEST DUP3 MSTORE POP POP JUMP JUMPDEST PUSH1 0x0 PUSH1 0x20 DUP3 ADD SWAP1 POP PUSH2 0x941 PUSH1 0x0 DUP4 ADD DUP5 PUSH2 0x91D JUMP JUMPDEST SWAP3 SWAP2 POP POP JUMP JUMPDEST PUSH1 0x0 PUSH2 0x952 DUP3 PUSH2 0x8AD JUMP JUMPDEST SWAP1 POP SWAP2 SWAP1 POP JUMP JUMPDEST PUSH2 0x962 DUP2 PUSH2 0x947 JUMP JUMPDEST DUP3 MSTORE POP POP JUMP JUMPDEST PUSH1 0x0 PUSH1 0x20 DUP3 ADD SWAP1 POP PUSH2 0x97D PUSH1 0x0 DUP4 ADD DUP5 PUSH2 0x959 JUMP JUMPDEST SWAP3 SWAP2 POP POP JUMP JUMPDEST PUSH32 0x4E487B7100000000000000000000000000000000000000000000000000000000 PUSH1 0x0 MSTORE PUSH1 0x21 PUSH1 0x4 MSTORE PUSH1 0x24 PUSH1 0x0 REVERT JUMPDEST PUSH1 0x5 DUP2 LT PUSH2 0x9C3 JUMPI PUSH2 0x9C2 PUSH2 0x983 JUMP JUMPDEST JUMPDEST POP JUMP JUMPDEST PUSH1 0x0 DUP2 SWAP1 POP PUSH2 0x9D4 DUP3 PUSH2 0x9B2 JUMP JUMPDEST SWAP2 SWAP1 POP JUMP JUMPDEST PUSH1 0x0 PUSH2 0x9E4 DUP3 PUSH2 0x9C6 JUMP JUMPDEST SWAP1 POP SWAP2 SWAP1 POP JUMP JUMPDEST PUSH2 0x9F4 DUP2 PUSH2 0x9D9 JUMP JUMPDEST DUP3 MSTORE POP POP JUMP JUMPDEST PUSH1 0x0 PUSH1 0x20 DUP3 ADD SWAP1 POP PUSH2 0xA0F PUSH1 0x0 DUP4 ADD DUP5 PUSH2 0x9EB JUMP JUMPDEST SWAP3 SWAP2 POP POP JUMP JUMPDEST PUSH1 0x0 PUSH1 0x5 SWAP1 POP SWAP2 SWAP1 POP JUMP JUMPDEST PUSH1 0x0 DUP2 SWAP1 POP SWAP3 SWAP2 POP POP JUMP JUMPDEST PUSH1 0x0 DUP2 SWAP1 POP SWAP2 SWAP1 POP JUMP JUMPDEST PUSH2 0xA3E DUP2 PUSH2 0x7E6 JUMP JUMPDEST DUP3 MSTORE POP POP JUMP JUMPDEST PUSH1 0x0 PUSH2 0xA50 DUP4 DUP4 PUSH2 0xA35 JUMP JUMPDEST PUSH1 0x20 DUP4 ADD SWAP1 POP SWAP3 SWAP2 POP POP JUMP JUMPDEST PUSH1 0x0 PUSH1 0x20 DUP3 ADD SWAP1 POP SWAP2 SWAP1 POP JUMP JUMPDEST PUSH2 0xA72 DUP2 PUSH2 0xA15 JUMP JUMPDEST PUSH2 0xA7C DUP2 DUP5 PUSH2 0xA20 JUMP JUMPDEST SWAP3 POP PUSH2 0xA87 DUP3 PUSH2 0xA2B JUMP JUMPDEST DUP1 PUSH1 0x0 JUMPDEST DUP4 DUP2 LT ISZERO PUSH2 0xAB8 JUMPI DUP2 MLOAD PUSH2 0xA9F DUP8 DUP3 PUSH2 0xA44 JUMP JUMPDEST SWAP7 POP PUSH2 0xAAA DUP4 PUSH2 0xA5C JUMP JUMPDEST SWAP3 POP POP PUSH1 0x1 DUP2 ADD SWAP1 POP PUSH2 0xA8B JUMP JUMPDEST POP POP POP POP POP POP JUMP JUMPDEST PUSH1 0x0 PUSH1 0xA0 DUP3 ADD SWAP1 POP PUSH2 0xAD5 PUSH1 0x0 DUP4 ADD DUP5 PUSH2 0xA69 JUMP JUMPDEST SWAP3 SWAP2 POP POP JUMP JUMPDEST PUSH1 0x20 DUP3 ADD PUSH1 0x0 DUP3 ADD MLOAD PUSH2 0xAF1 PUSH1 0x0 DUP6 ADD DUP3 PUSH2 0xA35 JUMP JUMPDEST POP POP POP POP JUMP JUMPDEST PUSH1 0x0 PUSH1 0x20 DUP3 ADD SWAP1 POP PUSH2 0xB0C PUSH1 0x0 DUP4 ADD DUP5 PUSH2 0xADB JUMP JUMPDEST SWAP3 SWAP2 POP POP JUMP JUMPDEST PUSH2 0xB1B DUP2 PUSH2 0x849 JUMP JUMPDEST DUP2 EQ PUSH2 0xB26 JUMPI PUSH1 0x0 DUP1 REVERT JUMPDEST POP JUMP JUMPDEST PUSH1 0x0 DUP2 MLOAD SWAP1 POP PUSH2 0xB38 DUP2 PUSH2 0xB12 JUMP JUMPDEST SWAP3 SWAP2 POP POP JUMP JUMPDEST PUSH1 0x0 PUSH1 0x20 DUP3 DUP5 SUB SLT ISZERO PUSH2 0xB54 JUMPI PUSH2 0xB53 PUSH2 0x7E1 JUMP JUMPDEST JUMPDEST PUSH1 0x0 PUSH2 0xB62 DUP5 DUP3 DUP6 ADD PUSH2 0xB29 JUMP JUMPDEST SWAP2 POP POP SWAP3 SWAP2 POP POP JUMP JUMPDEST PUSH1 0x0 DUP2 MLOAD SWAP1 POP PUSH2 0xB7A DUP2 PUSH2 0x7F0 JUMP JUMPDEST SWAP3 SWAP2 POP POP JUMP JUMPDEST PUSH1 0x0 PUSH1 0x20 DUP3 DUP5 SUB SLT ISZERO PUSH2 0xB96 JUMPI PUSH2 0xB95 PUSH2 0x7E1 JUMP JUMPDEST JUMPDEST PUSH1 0x0 PUSH2 0xBA4 DUP5 DUP3 DUP6 ADD PUSH2 0xB6B JUMP JUMPDEST SWAP2 POP POP SWAP3 SWAP2 POP POP JUMP JUMPDEST PUSH2 0xBB6 DUP2 PUSH2 0x947 JUMP JUMPDEST DUP2 EQ PUSH2 0xBC1 JUMPI PUSH1 0x0 DUP1 REVERT JUMPDEST POP JUMP JUMPDEST PUSH1 0x0 DUP2 MLOAD SWAP1 POP PUSH2 0xBD3 DUP2 PUSH2 0xBAD JUMP JUMPDEST SWAP3 SWAP2 POP POP JUMP JUMPDEST PUSH1 0x0 PUSH1 0x20 DUP3 DUP5 SUB SLT ISZERO PUSH2 0xBEF JUMPI PUSH2 0xBEE PUSH2 0x7E1 JUMP JUMPDEST JUMPDEST PUSH1 0x0 PUSH2 0xBFD DUP5 DUP3 DUP6 ADD PUSH2 0xBC4 JUMP JUMPDEST SWAP2 POP POP SWAP3 SWAP2 POP POP JUMP JUMPDEST PUSH1 0x5 DUP2 LT PUSH2 0xC13 JUMPI PUSH1 0x0 DUP1 REVERT JUMPDEST POP JUMP JUMPDEST PUSH1 0x0 DUP2 MLOAD SWAP1 POP PUSH2 0xC25 DUP2 PUSH2 0xC06 JUMP JUMPDEST SWAP3 SWAP2 POP POP JUMP JUMPDEST PUSH1 0x0 PUSH1 0x20 DUP3 DUP5 SUB SLT ISZERO PUSH2 0xC41 JUMPI PUSH2 0xC40 PUSH2 0x7E1 JUMP JUMPDEST JUMPDEST PUSH1 0x0 PUSH2 0xC4F DUP5 DUP3 DUP6 ADD PUSH2 0xC16 JUMP JUMPDEST SWAP2 POP POP SWAP3 SWAP2 POP POP JUMP JUMPDEST PUSH1 0x0 DUP1 REVERT JUMPDEST PUSH1 0x0 PUSH1 0x1F NOT PUSH1 0x1F DUP4 ADD AND SWAP1 POP SWAP2 SWAP1 POP JUMP JUMPDEST PUSH32 0x4E487B7100000000000000000000000000000000000000000000000000000000 PUSH1 0x0 MSTORE PUSH1 0x41 PUSH1 0x4 MSTORE PUSH1 0x24 PUSH1 0x0 REVERT JUMPDEST PUSH2 0xCA6 DUP3 PUSH2 0xC5D JUMP JUMPDEST DUP2 ADD DUP2 DUP2 LT PUSH8 0xFFFFFFFFFFFFFFFF DUP3 GT OR ISZERO PUSH2 0xCC5 JUMPI PUSH2 0xCC4 PUSH2 0xC6E JUMP JUMPDEST JUMPDEST DUP1 PUSH1 0x40 MSTORE POP POP POP JUMP JUMPDEST PUSH1 0x0 PUSH2 0xCD8 PUSH2 0x7D7 JUMP JUMPDEST SWAP1 POP PUSH2 0xCE4 DUP3 DUP3 PUSH2 0xC9D JUMP JUMPDEST SWAP2 SWAP1 POP JUMP JUMPDEST PUSH1 0x0 PUSH8 0xFFFFFFFFFFFFFFFF DUP3 GT ISZERO PUSH2 0xD04 JUMPI PUSH2 0xD03 PUSH2 0xC6E JUMP JUMPDEST JUMPDEST PUSH1 0x20 DUP3 MUL SWAP1 POP SWAP2 SWAP1 POP JUMP JUMPDEST PUSH1 0x0 DUP1 REVERT JUMPDEST PUSH1 0x0 PUSH2 0xD27 PUSH2 0xD22 DUP5 PUSH2 0xCE9 JUMP JUMPDEST PUSH2 0xCCE JUMP JUMPDEST SWAP1 POP DUP1 PUSH1 0x20 DUP5 MUL DUP4 ADD DUP6 DUP2 GT ISZERO PUSH2 0xD41 JUMPI PUSH2 0xD40 PUSH2 0xD0F JUMP JUMPDEST JUMPDEST DUP4 JUMPDEST DUP2 DUP2 LT ISZERO PUSH2 0xD6A JUMPI DUP1 PUSH2 0xD56 DUP9 DUP3 PUSH2 0xB6B JUMP JUMPDEST DUP5 MSTORE PUSH1 0x20 DUP5 ADD SWAP4 POP POP PUSH1 0x20 DUP2 ADD SWAP1 POP PUSH2 0xD43 JUMP JUMPDEST POP POP POP SWAP4 SWAP3 POP POP POP JUMP JUMPDEST PUSH1 0x0 DUP3 PUSH1 0x1F DUP4 ADD SLT PUSH2 0xD89 JUMPI PUSH2 0xD88 PUSH2 0xC58 JUMP JUMPDEST JUMPDEST PUSH1 0x5 PUSH2 0xD96 DUP5 DUP3 DUP6 PUSH2 0xD14 JUMP JUMPDEST SWAP2 POP POP SWAP3 SWAP2 POP POP JUMP JUMPDEST PUSH1 0x0 PUSH1 0xA0 DUP3 DUP5 SUB SLT ISZERO PUSH2 0xDB5 JUMPI PUSH2 0xDB4 PUSH2 0x7E1 JUMP JUMPDEST JUMPDEST PUSH1 0x0 PUSH2 0xDC3 DUP5 DUP3 DUP6 ADD PUSH2 0xD74 JUMP JUMPDEST SWAP2 POP POP SWAP3 SWAP2 POP POP JUMP INVALID LOG2 PUSH5 0x6970667358 0x22 SLT KECCAK256 0xD2 SGT JUMP 0xB1 PUSH17 0x49E49305817802CCFFB1A10775EC81142A STATICCALL 0xC8 MSIZE 0xD9 SWAP9 MUL SGT 0xC0 0xE8 0xD2 PUSH5 0x736F6C6343 STOP ADDMOD EXP STOP CALLER "
				},
				"gasEstimates": {
					"creation": {
						"codeDepositCost": "717200",
						"executionCost": "753",
						"totalCost": "717953"
					},
					"external": {
						"getBuyer(uint256)": "infinite",
						"getCDS(uint256)": "infinite",
						"getCDSId()": "2679",
						"getNextPayDate(uint256)": "infinite",
						"getPremium(uint256)": "infinite",
						"getPrices(uint256)": "infinite",
						"getRounds(uint256)": "infinite",
						"getSeller(uint256)": "infinite",
						"getSellerDeposit(uint256)": "infinite",
						"getStatus(uint256)": "infinite"
					},
					"internal": {
						"_accept(bool,uint256,uint256)": "infinite",
						"_cancel(uint256)": "infinite",
						"_claim(uint256)": "infinite",
						"_close(uint256)": "infinite",
						"_create(bool,uint256,uint256,uint256,uint256,uint256,uint32,uint32)": "infinite",
						"_payPremium(uint256)": "infinite"
					}
				},
				"methodIdentifiers": {
					"getBuyer(uint256)": "5bf608b8",
					"getCDS(uint256)": "5af8d21c",
					"getCDSId()": "d0e5d955",
					"getNextPayDate(uint256)": "8bfd13ae",
					"getPremium(uint256)": "1bf1fffb",
					"getPrices(uint256)": "91492956",
					"getRounds(uint256)": "13ef3dcc",
					"getSeller(uint256)": "d6a9de51",
					"getSellerDeposit(uint256)": "88106323",
					"getStatus(uint256)": "5c622a0e"
				}
			},
			"storageLayout": {
				"storage": [
					{
						"astId": 1490,
						"contract": "contracts/Handler/CDSFactory.sol:CDSFactory",
						"label": "_cdsId",
						"offset": 0,
						"slot": "0",
						"type": "t_struct(Counter)218_storage"
					},
					{
						"astId": 1495,
						"contract": "contracts/Handler/CDSFactory.sol:CDSFactory",
						"label": "_cdsList",
						"offset": 0,
						"slot": "1",
						"type": "t_mapping(t_uint256,t_contract(CDS)925)"
					},
					{
						"astId": 1499,
						"contract": "contracts/Handler/CDSFactory.sol:CDSFactory",
						"label": "_nextPayDate",
						"offset": 0,
						"slot": "2",
						"type": "t_mapping(t_uint256,t_uint256)"
					}
				],
				"types": {
					"t_contract(CDS)925": {
						"encoding": "inplace",
						"label": "contract CDS",
						"numberOfBytes": "20"
					},
					"t_mapping(t_uint256,t_contract(CDS)925)": {
						"encoding": "mapping",
						"key": "t_uint256",
						"label": "mapping(uint256 => contract CDS)",
						"numberOfBytes": "32",
						"value": "t_contract(CDS)925"
					},
					"t_mapping(t_uint256,t_uint256)": {
						"encoding": "mapping",
						"key": "t_uint256",
						"label": "mapping(uint256 => uint256)",
						"numberOfBytes": "32",
						"value": "t_uint256"
					},
					"t_struct(Counter)218_storage": {
						"encoding": "inplace",
						"label": "struct Counters.Counter",
						"members": [
							{
								"astId": 217,
								"contract": "contracts/Handler/CDSFactory.sol:CDSFactory",
								"label": "_value",
								"offset": 0,
								"slot": "0",
								"type": "t_uint256"
							}
						],
						"numberOfBytes": "32"
					},
					"t_uint256": {
						"encoding": "inplace",
						"label": "uint256",
						"numberOfBytes": "32"
					}
				}
			},
			"userdoc": {
				"kind": "user",
				"methods": {},
				"version": 1
			}
		}
	}
}