{
	"contracts/Handler/CDSBank.sol": {
		"CDSBank": {
			"abi": [
				{
					"inputs": [],
					"stateMutability": "nonpayable",
					"type": "constructor"
				},
				{
					"inputs": [
						{
							"internalType": "uint256",
							"name": "",
							"type": "uint256"
						},
						{
							"internalType": "uint256",
							"name": "",
							"type": "uint256"
						}
					],
					"name": "deposits",
					"outputs": [
						{
							"internalType": "uint256",
							"name": "",
							"type": "uint256"
						}
					],
					"stateMutability": "view",
					"type": "function"
				},
				{
					"inputs": [
						{
							"internalType": "uint256",
							"name": "cdsId",
							"type": "uint256"
						}
					],
					"name": "getBuyer",
					"outputs": [
						{
							"internalType": "address",
							"name": "",
							"type": "address"
						}
					],
					"stateMutability": "view",
					"type": "function"
				},
				{
					"inputs": [
						{
							"internalType": "uint256",
							"name": "cdsId",
							"type": "uint256"
						}
					],
					"name": "getCDS",
					"outputs": [
						{
							"internalType": "contract CDS",
							"name": "",
							"type": "address"
						}
					],
					"stateMutability": "view",
					"type": "function"
				},
				{
					"inputs": [],
					"name": "getCDSId",
					"outputs": [
						{
							"components": [
								{
									"internalType": "uint256",
									"name": "_value",
									"type": "uint256"
								}
							],
							"internalType": "struct Counters.Counter",
							"name": "",
							"type": "tuple"
						}
					],
					"stateMutability": "view",
					"type": "function"
				},
				{
					"inputs": [
						{
							"internalType": "uint256",
							"name": "cdsId",
							"type": "uint256"
						}
					],
					"name": "getSeller",
					"outputs": [
						{
							"internalType": "address",
							"name": "",
							"type": "address"
						}
					],
					"stateMutability": "view",
					"type": "function"
				},
				{
					"inputs": [
						{
							"internalType": "uint256",
							"name": "",
							"type": "uint256"
						}
					],
					"name": "nextPayDate",
					"outputs": [
						{
							"internalType": "uint256",
							"name": "",
							"type": "uint256"
						}
					],
					"stateMutability": "view",
					"type": "function"
				},
				{
					"inputs": [],
					"name": "token",
					"outputs": [
						{
							"internalType": "contract IERC20",
							"name": "",
							"type": "address"
						}
					],
					"stateMutability": "view",
					"type": "function"
				}
			],
			"devdoc": {
				"kind": "dev",
				"methods": {},
				"version": 1
			},
			"evm": {
				"assembly": "    /* \"contracts/Handler/CDSBank.sol\":200:4242  contract CDSBank is CDSFactory {... */\n  mstore(0x40, 0x80)\n    /* \"contracts/Handler/CDSBank.sol\":341:424  constructor() {... */\n  callvalue\n  dup1\n  iszero\n  tag_1\n  jumpi\n  0x00\n  dup1\n  revert\ntag_1:\n  pop\n    /* \"contracts/Handler/CDSBank.sol\":376:418  0x609b8CED16A83cFf90a3D3b3Cbe7894931e7C382 */\n  0x609b8ced16a83cff90a3d3b3cbe7894931e7c382\n    /* \"contracts/Handler/CDSBank.sol\":361:366  token */\n  0x03\n  0x00\n    /* \"contracts/Handler/CDSBank.sol\":361:419  token = IERC20(0x609b8CED16A83cFf90a3D3b3Cbe7894931e7C382) */\n  0x0100\n  exp\n  dup2\n  sload\n  dup2\n  0xffffffffffffffffffffffffffffffffffffffff\n  mul\n  not\n  and\n  swap1\n  dup4\n  0xffffffffffffffffffffffffffffffffffffffff\n  and\n  mul\n  or\n  swap1\n  sstore\n  pop\n    /* \"contracts/Handler/CDSBank.sol\":200:4242  contract CDSBank is CDSFactory {... */\n  dataSize(sub_0)\n  dup1\n  dataOffset(sub_0)\n  0x00\n  codecopy\n  0x00\n  return\nstop\n\nsub_0: assembly {\n        /* \"contracts/Handler/CDSBank.sol\":200:4242  contract CDSBank is CDSFactory {... */\n      mstore(0x40, 0x80)\n      callvalue\n      dup1\n      iszero\n      tag_1\n      jumpi\n      0x00\n      dup1\n      revert\n    tag_1:\n      pop\n      jumpi(tag_2, lt(calldatasize, 0x04))\n      shr(0xe0, calldataload(0x00))\n      dup1\n      0x5bf608b8\n      gt\n      tag_10\n      jumpi\n      dup1\n      0x5bf608b8\n      eq\n      tag_6\n      jumpi\n      dup1\n      0xd0e5d955\n      eq\n      tag_7\n      jumpi\n      dup1\n      0xd6a9de51\n      eq\n      tag_8\n      jumpi\n      dup1\n      0xfc0c546a\n      eq\n      tag_9\n      jumpi\n      jump(tag_2)\n    tag_10:\n      dup1\n      0x2bd49780\n      eq\n      tag_3\n      jumpi\n      dup1\n      0x44a9d244\n      eq\n      tag_4\n      jumpi\n      dup1\n      0x5af8d21c\n      eq\n      tag_5\n      jumpi\n    tag_2:\n      0x00\n      dup1\n      revert\n        /* \"contracts/Handler/CDSBank.sol\":290:336  mapping(uint256 => uint256[2]) public deposits */\n    tag_3:\n      tag_11\n      0x04\n      dup1\n      calldatasize\n      sub\n      dup2\n      add\n      swap1\n      tag_12\n      swap2\n      swap1\n      tag_13\n      jump\t// in\n    tag_12:\n      tag_14\n      jump\t// in\n    tag_11:\n      mload(0x40)\n      tag_15\n      swap2\n      swap1\n      tag_16\n      jump\t// in\n    tag_15:\n      mload(0x40)\n      dup1\n      swap2\n      sub\n      swap1\n      return\n        /* \"contracts/Handler/CDSFactory.sol\":281:327  mapping(uint256 => uint256) public nextPayDate */\n    tag_4:\n      tag_17\n      0x04\n      dup1\n      calldatasize\n      sub\n      dup2\n      add\n      swap1\n      tag_18\n      swap2\n      swap1\n      tag_19\n      jump\t// in\n    tag_18:\n      tag_20\n      jump\t// in\n    tag_17:\n      mload(0x40)\n      tag_21\n      swap2\n      swap1\n      tag_16\n      jump\t// in\n    tag_21:\n      mload(0x40)\n      dup1\n      swap2\n      sub\n      swap1\n      return\n        /* \"contracts/Handler/CDSFactory.sol\":2259:2349  function getCDS(uint256 cdsId) public view returns (CDS) {... */\n    tag_5:\n      tag_22\n      0x04\n      dup1\n      calldatasize\n      sub\n      dup2\n      add\n      swap1\n      tag_23\n      swap2\n      swap1\n      tag_19\n      jump\t// in\n    tag_23:\n      tag_24\n      jump\t// in\n    tag_22:\n      mload(0x40)\n      tag_25\n      swap2\n      swap1\n      tag_26\n      jump\t// in\n    tag_25:\n      mload(0x40)\n      dup1\n      swap2\n      sub\n      swap1\n      return\n        /* \"contracts/Handler/CDSFactory.sol\":2353:2460  function getBuyer(uint256 cdsId) public view returns (address) {... */\n    tag_6:\n      tag_27\n      0x04\n      dup1\n      calldatasize\n      sub\n      dup2\n      add\n      swap1\n      tag_28\n      swap2\n      swap1\n      tag_19\n      jump\t// in\n    tag_28:\n      tag_29\n      jump\t// in\n    tag_27:\n      mload(0x40)\n      tag_30\n      swap2\n      swap1\n      tag_31\n      jump\t// in\n    tag_30:\n      mload(0x40)\n      dup1\n      swap2\n      sub\n      swap1\n      return\n        /* \"contracts/Handler/CDSFactory.sol\":2165:2255  function getCDSId() public view returns (Counters.Counter memory) {... */\n    tag_7:\n      tag_32\n      tag_33\n      jump\t// in\n    tag_32:\n      mload(0x40)\n      tag_34\n      swap2\n      swap1\n      tag_35\n      jump\t// in\n    tag_34:\n      mload(0x40)\n      dup1\n      swap2\n      sub\n      swap1\n      return\n        /* \"contracts/Handler/CDSFactory.sol\":2464:2573  function getSeller(uint256 cdsId) public view returns (address) {... */\n    tag_8:\n      tag_36\n      0x04\n      dup1\n      calldatasize\n      sub\n      dup2\n      add\n      swap1\n      tag_37\n      swap2\n      swap1\n      tag_19\n      jump\t// in\n    tag_37:\n      tag_38\n      jump\t// in\n    tag_36:\n      mload(0x40)\n      tag_39\n      swap2\n      swap1\n      tag_31\n      jump\t// in\n    tag_39:\n      mload(0x40)\n      dup1\n      swap2\n      sub\n      swap1\n      return\n        /* \"contracts/Handler/CDSBank.sol\":266:285  IERC20 public token */\n    tag_9:\n      tag_40\n      tag_41\n      jump\t// in\n    tag_40:\n      mload(0x40)\n      tag_42\n      swap2\n      swap1\n      tag_43\n      jump\t// in\n    tag_42:\n      mload(0x40)\n      dup1\n      swap2\n      sub\n      swap1\n      return\n        /* \"contracts/Handler/CDSBank.sol\":290:336  mapping(uint256 => uint256[2]) public deposits */\n    tag_14:\n      mstore(0x20, 0x04)\n      dup2\n      0x00\n      mstore\n      keccak256(0x00, 0x40)\n      dup2\n      0x02\n      dup2\n      lt\n      tag_44\n      jumpi\n      0x00\n      dup1\n      revert\n    tag_44:\n      add\n      0x00\n      swap2\n      pop\n      swap2\n      pop\n      pop\n      sload\n      dup2\n      jump\t// out\n        /* \"contracts/Handler/CDSFactory.sol\":281:327  mapping(uint256 => uint256) public nextPayDate */\n    tag_20:\n      mstore(0x20, 0x02)\n      dup1\n      0x00\n      mstore\n      keccak256(0x00, 0x40)\n      0x00\n      swap2\n      pop\n      swap1\n      pop\n      sload\n      dup2\n      jump\t// out\n        /* \"contracts/Handler/CDSFactory.sol\":2259:2349  function getCDS(uint256 cdsId) public view returns (CDS) {... */\n    tag_24:\n        /* \"contracts/Handler/CDSFactory.sol\":2311:2314  CDS */\n      0x00\n        /* \"contracts/Handler/CDSFactory.sol\":2329:2337  _cdsList */\n      0x01\n        /* \"contracts/Handler/CDSFactory.sol\":2329:2344  _cdsList[cdsId] */\n      0x00\n        /* \"contracts/Handler/CDSFactory.sol\":2338:2343  cdsId */\n      dup4\n        /* \"contracts/Handler/CDSFactory.sol\":2329:2344  _cdsList[cdsId] */\n      dup2\n      mstore\n      0x20\n      add\n      swap1\n      dup2\n      mstore\n      0x20\n      add\n      0x00\n      keccak256\n      0x00\n      swap1\n      sload\n      swap1\n      0x0100\n      exp\n      swap1\n      div\n      0xffffffffffffffffffffffffffffffffffffffff\n      and\n        /* \"contracts/Handler/CDSFactory.sol\":2322:2344  return _cdsList[cdsId] */\n      swap1\n      pop\n        /* \"contracts/Handler/CDSFactory.sol\":2259:2349  function getCDS(uint256 cdsId) public view returns (CDS) {... */\n      swap2\n      swap1\n      pop\n      jump\t// out\n        /* \"contracts/Handler/CDSFactory.sol\":2353:2460  function getBuyer(uint256 cdsId) public view returns (address) {... */\n    tag_29:\n        /* \"contracts/Handler/CDSFactory.sol\":2407:2414  address */\n      0x00\n        /* \"contracts/Handler/CDSFactory.sol\":2429:2437  _cdsList */\n      0x01\n        /* \"contracts/Handler/CDSFactory.sol\":2429:2444  _cdsList[cdsId] */\n      0x00\n        /* \"contracts/Handler/CDSFactory.sol\":2438:2443  cdsId */\n      dup4\n        /* \"contracts/Handler/CDSFactory.sol\":2429:2444  _cdsList[cdsId] */\n      dup2\n      mstore\n      0x20\n      add\n      swap1\n      dup2\n      mstore\n      0x20\n      add\n      0x00\n      keccak256\n      0x00\n      swap1\n      sload\n      swap1\n      0x0100\n      exp\n      swap1\n      div\n      0xffffffffffffffffffffffffffffffffffffffff\n      and\n        /* \"contracts/Handler/CDSFactory.sol\":2429:2453  _cdsList[cdsId].getBuyer */\n      0xffffffffffffffffffffffffffffffffffffffff\n      and\n      0x603daf9a\n        /* \"contracts/Handler/CDSFactory.sol\":2429:2455  _cdsList[cdsId].getBuyer() */\n      mload(0x40)\n      dup2\n      0xffffffff\n      and\n      0xe0\n      shl\n      dup2\n      mstore\n      0x04\n      add\n      0x20\n      mload(0x40)\n      dup1\n      dup4\n      sub\n      dup2\n      dup7\n      gas\n      staticcall\n      iszero\n      dup1\n      iszero\n      tag_49\n      jumpi\n      returndatasize\n      0x00\n      dup1\n      returndatacopy\n      revert(0x00, returndatasize)\n    tag_49:\n      pop\n      pop\n      pop\n      pop\n      mload(0x40)\n      returndatasize\n      not(0x1f)\n      0x1f\n      dup3\n      add\n      and\n      dup3\n      add\n      dup1\n      0x40\n      mstore\n      pop\n      dup2\n      add\n      swap1\n      tag_50\n      swap2\n      swap1\n      tag_51\n      jump\t// in\n    tag_50:\n        /* \"contracts/Handler/CDSFactory.sol\":2422:2455  return _cdsList[cdsId].getBuyer() */\n      swap1\n      pop\n        /* \"contracts/Handler/CDSFactory.sol\":2353:2460  function getBuyer(uint256 cdsId) public view returns (address) {... */\n      swap2\n      swap1\n      pop\n      jump\t// out\n        /* \"contracts/Handler/CDSFactory.sol\":2165:2255  function getCDSId() public view returns (Counters.Counter memory) {... */\n    tag_33:\n        /* \"contracts/Handler/CDSFactory.sol\":2206:2229  Counters.Counter memory */\n      tag_52\n      tag_53\n      jump\t// in\n    tag_52:\n        /* \"contracts/Handler/CDSFactory.sol\":2244:2250  _cdsId */\n      0x00\n        /* \"contracts/Handler/CDSFactory.sol\":2237:2250  return _cdsId */\n      mload(0x40)\n      dup1\n      0x20\n      add\n      0x40\n      mstore\n      swap1\n      dup2\n      0x00\n      dup3\n      add\n      sload\n      dup2\n      mstore\n      pop\n      pop\n      swap1\n      pop\n        /* \"contracts/Handler/CDSFactory.sol\":2165:2255  function getCDSId() public view returns (Counters.Counter memory) {... */\n      swap1\n      jump\t// out\n        /* \"contracts/Handler/CDSFactory.sol\":2464:2573  function getSeller(uint256 cdsId) public view returns (address) {... */\n    tag_38:\n        /* \"contracts/Handler/CDSFactory.sol\":2519:2526  address */\n      0x00\n        /* \"contracts/Handler/CDSFactory.sol\":2541:2549  _cdsList */\n      0x01\n        /* \"contracts/Handler/CDSFactory.sol\":2541:2556  _cdsList[cdsId] */\n      0x00\n        /* \"contracts/Handler/CDSFactory.sol\":2550:2555  cdsId */\n      dup4\n        /* \"contracts/Handler/CDSFactory.sol\":2541:2556  _cdsList[cdsId] */\n      dup2\n      mstore\n      0x20\n      add\n      swap1\n      dup2\n      mstore\n      0x20\n      add\n      0x00\n      keccak256\n      0x00\n      swap1\n      sload\n      swap1\n      0x0100\n      exp\n      swap1\n      div\n      0xffffffffffffffffffffffffffffffffffffffff\n      and\n        /* \"contracts/Handler/CDSFactory.sol\":2541:2566  _cdsList[cdsId].getSeller */\n      0xffffffffffffffffffffffffffffffffffffffff\n      and\n      0xdbd0e1b6\n        /* \"contracts/Handler/CDSFactory.sol\":2541:2568  _cdsList[cdsId].getSeller() */\n      mload(0x40)\n      dup2\n      0xffffffff\n      and\n      0xe0\n      shl\n      dup2\n      mstore\n      0x04\n      add\n      0x20\n      mload(0x40)\n      dup1\n      dup4\n      sub\n      dup2\n      dup7\n      gas\n      staticcall\n      iszero\n      dup1\n      iszero\n      tag_57\n      jumpi\n      returndatasize\n      0x00\n      dup1\n      returndatacopy\n      revert(0x00, returndatasize)\n    tag_57:\n      pop\n      pop\n      pop\n      pop\n      mload(0x40)\n      returndatasize\n      not(0x1f)\n      0x1f\n      dup3\n      add\n      and\n      dup3\n      add\n      dup1\n      0x40\n      mstore\n      pop\n      dup2\n      add\n      swap1\n      tag_58\n      swap2\n      swap1\n      tag_51\n      jump\t// in\n    tag_58:\n        /* \"contracts/Handler/CDSFactory.sol\":2534:2568  return _cdsList[cdsId].getSeller() */\n      swap1\n      pop\n        /* \"contracts/Handler/CDSFactory.sol\":2464:2573  function getSeller(uint256 cdsId) public view returns (address) {... */\n      swap2\n      swap1\n      pop\n      jump\t// out\n        /* \"contracts/Handler/CDSBank.sol\":266:285  IERC20 public token */\n    tag_41:\n      0x03\n      0x00\n      swap1\n      sload\n      swap1\n      0x0100\n      exp\n      swap1\n      div\n      0xffffffffffffffffffffffffffffffffffffffff\n      and\n      dup2\n      jump\t// out\n    tag_53:\n      mload(0x40)\n      dup1\n      0x20\n      add\n      0x40\n      mstore\n      dup1\n      0x00\n      dup2\n      mstore\n      pop\n      swap1\n      jump\t// out\n        /* \"#utility.yul\":88:205   */\n    tag_60:\n        /* \"#utility.yul\":197:198   */\n      0x00\n        /* \"#utility.yul\":194:195   */\n      dup1\n        /* \"#utility.yul\":187:199   */\n      revert\n        /* \"#utility.yul\":334:411   */\n    tag_62:\n        /* \"#utility.yul\":371:378   */\n      0x00\n        /* \"#utility.yul\":400:405   */\n      dup2\n        /* \"#utility.yul\":389:405   */\n      swap1\n      pop\n        /* \"#utility.yul\":334:411   */\n      swap2\n      swap1\n      pop\n      jump\t// out\n        /* \"#utility.yul\":417:539   */\n    tag_63:\n        /* \"#utility.yul\":490:514   */\n      tag_86\n        /* \"#utility.yul\":508:513   */\n      dup2\n        /* \"#utility.yul\":490:514   */\n      tag_62\n      jump\t// in\n    tag_86:\n        /* \"#utility.yul\":483:488   */\n      dup2\n        /* \"#utility.yul\":480:515   */\n      eq\n        /* \"#utility.yul\":470:533   */\n      tag_87\n      jumpi\n        /* \"#utility.yul\":529:530   */\n      0x00\n        /* \"#utility.yul\":526:527   */\n      dup1\n        /* \"#utility.yul\":519:531   */\n      revert\n        /* \"#utility.yul\":470:533   */\n    tag_87:\n        /* \"#utility.yul\":417:539   */\n      pop\n      jump\t// out\n        /* \"#utility.yul\":545:684   */\n    tag_64:\n        /* \"#utility.yul\":591:596   */\n      0x00\n        /* \"#utility.yul\":629:635   */\n      dup2\n        /* \"#utility.yul\":616:636   */\n      calldataload\n        /* \"#utility.yul\":607:636   */\n      swap1\n      pop\n        /* \"#utility.yul\":645:678   */\n      tag_89\n        /* \"#utility.yul\":672:677   */\n      dup2\n        /* \"#utility.yul\":645:678   */\n      tag_63\n      jump\t// in\n    tag_89:\n        /* \"#utility.yul\":545:684   */\n      swap3\n      swap2\n      pop\n      pop\n      jump\t// out\n        /* \"#utility.yul\":690:1164   */\n    tag_13:\n        /* \"#utility.yul\":758:764   */\n      0x00\n        /* \"#utility.yul\":766:772   */\n      dup1\n        /* \"#utility.yul\":815:817   */\n      0x40\n        /* \"#utility.yul\":803:812   */\n      dup4\n        /* \"#utility.yul\":794:801   */\n      dup6\n        /* \"#utility.yul\":790:813   */\n      sub\n        /* \"#utility.yul\":786:818   */\n      slt\n        /* \"#utility.yul\":783:902   */\n      iszero\n      tag_91\n      jumpi\n        /* \"#utility.yul\":821:900   */\n      tag_92\n      tag_60\n      jump\t// in\n    tag_92:\n        /* \"#utility.yul\":783:902   */\n    tag_91:\n        /* \"#utility.yul\":941:942   */\n      0x00\n        /* \"#utility.yul\":966:1019   */\n      tag_93\n        /* \"#utility.yul\":1011:1018   */\n      dup6\n        /* \"#utility.yul\":1002:1008   */\n      dup3\n        /* \"#utility.yul\":991:1000   */\n      dup7\n        /* \"#utility.yul\":987:1009   */\n      add\n        /* \"#utility.yul\":966:1019   */\n      tag_64\n      jump\t// in\n    tag_93:\n        /* \"#utility.yul\":956:1019   */\n      swap3\n      pop\n        /* \"#utility.yul\":912:1029   */\n      pop\n        /* \"#utility.yul\":1068:1070   */\n      0x20\n        /* \"#utility.yul\":1094:1147   */\n      tag_94\n        /* \"#utility.yul\":1139:1146   */\n      dup6\n        /* \"#utility.yul\":1130:1136   */\n      dup3\n        /* \"#utility.yul\":1119:1128   */\n      dup7\n        /* \"#utility.yul\":1115:1137   */\n      add\n        /* \"#utility.yul\":1094:1147   */\n      tag_64\n      jump\t// in\n    tag_94:\n        /* \"#utility.yul\":1084:1147   */\n      swap2\n      pop\n        /* \"#utility.yul\":1039:1157   */\n      pop\n        /* \"#utility.yul\":690:1164   */\n      swap3\n      pop\n      swap3\n      swap1\n      pop\n      jump\t// out\n        /* \"#utility.yul\":1170:1288   */\n    tag_65:\n        /* \"#utility.yul\":1257:1281   */\n      tag_96\n        /* \"#utility.yul\":1275:1280   */\n      dup2\n        /* \"#utility.yul\":1257:1281   */\n      tag_62\n      jump\t// in\n    tag_96:\n        /* \"#utility.yul\":1252:1255   */\n      dup3\n        /* \"#utility.yul\":1245:1282   */\n      mstore\n        /* \"#utility.yul\":1170:1288   */\n      pop\n      pop\n      jump\t// out\n        /* \"#utility.yul\":1294:1516   */\n    tag_16:\n        /* \"#utility.yul\":1387:1391   */\n      0x00\n        /* \"#utility.yul\":1425:1427   */\n      0x20\n        /* \"#utility.yul\":1414:1423   */\n      dup3\n        /* \"#utility.yul\":1410:1428   */\n      add\n        /* \"#utility.yul\":1402:1428   */\n      swap1\n      pop\n        /* \"#utility.yul\":1438:1509   */\n      tag_98\n        /* \"#utility.yul\":1506:1507   */\n      0x00\n        /* \"#utility.yul\":1495:1504   */\n      dup4\n        /* \"#utility.yul\":1491:1508   */\n      add\n        /* \"#utility.yul\":1482:1488   */\n      dup5\n        /* \"#utility.yul\":1438:1509   */\n      tag_65\n      jump\t// in\n    tag_98:\n        /* \"#utility.yul\":1294:1516   */\n      swap3\n      swap2\n      pop\n      pop\n      jump\t// out\n        /* \"#utility.yul\":1522:1851   */\n    tag_19:\n        /* \"#utility.yul\":1581:1587   */\n      0x00\n        /* \"#utility.yul\":1630:1632   */\n      0x20\n        /* \"#utility.yul\":1618:1627   */\n      dup3\n        /* \"#utility.yul\":1609:1616   */\n      dup5\n        /* \"#utility.yul\":1605:1628   */\n      sub\n        /* \"#utility.yul\":1601:1633   */\n      slt\n        /* \"#utility.yul\":1598:1717   */\n      iszero\n      tag_100\n      jumpi\n        /* \"#utility.yul\":1636:1715   */\n      tag_101\n      tag_60\n      jump\t// in\n    tag_101:\n        /* \"#utility.yul\":1598:1717   */\n    tag_100:\n        /* \"#utility.yul\":1756:1757   */\n      0x00\n        /* \"#utility.yul\":1781:1834   */\n      tag_102\n        /* \"#utility.yul\":1826:1833   */\n      dup5\n        /* \"#utility.yul\":1817:1823   */\n      dup3\n        /* \"#utility.yul\":1806:1815   */\n      dup6\n        /* \"#utility.yul\":1802:1824   */\n      add\n        /* \"#utility.yul\":1781:1834   */\n      tag_64\n      jump\t// in\n    tag_102:\n        /* \"#utility.yul\":1771:1834   */\n      swap2\n      pop\n        /* \"#utility.yul\":1727:1844   */\n      pop\n        /* \"#utility.yul\":1522:1851   */\n      swap3\n      swap2\n      pop\n      pop\n      jump\t// out\n        /* \"#utility.yul\":1857:1983   */\n    tag_66:\n        /* \"#utility.yul\":1894:1901   */\n      0x00\n        /* \"#utility.yul\":1934:1976   */\n      0xffffffffffffffffffffffffffffffffffffffff\n        /* \"#utility.yul\":1927:1932   */\n      dup3\n        /* \"#utility.yul\":1923:1977   */\n      and\n        /* \"#utility.yul\":1912:1977   */\n      swap1\n      pop\n        /* \"#utility.yul\":1857:1983   */\n      swap2\n      swap1\n      pop\n      jump\t// out\n        /* \"#utility.yul\":1989:2049   */\n    tag_67:\n        /* \"#utility.yul\":2017:2020   */\n      0x00\n        /* \"#utility.yul\":2038:2043   */\n      dup2\n        /* \"#utility.yul\":2031:2043   */\n      swap1\n      pop\n        /* \"#utility.yul\":1989:2049   */\n      swap2\n      swap1\n      pop\n      jump\t// out\n        /* \"#utility.yul\":2055:2197   */\n    tag_68:\n        /* \"#utility.yul\":2105:2114   */\n      0x00\n        /* \"#utility.yul\":2138:2191   */\n      tag_106\n        /* \"#utility.yul\":2156:2190   */\n      tag_107\n        /* \"#utility.yul\":2165:2189   */\n      tag_108\n        /* \"#utility.yul\":2183:2188   */\n      dup5\n        /* \"#utility.yul\":2165:2189   */\n      tag_66\n      jump\t// in\n    tag_108:\n        /* \"#utility.yul\":2156:2190   */\n      tag_67\n      jump\t// in\n    tag_107:\n        /* \"#utility.yul\":2138:2191   */\n      tag_66\n      jump\t// in\n    tag_106:\n        /* \"#utility.yul\":2125:2191   */\n      swap1\n      pop\n        /* \"#utility.yul\":2055:2197   */\n      swap2\n      swap1\n      pop\n      jump\t// out\n        /* \"#utility.yul\":2203:2329   */\n    tag_69:\n        /* \"#utility.yul\":2253:2262   */\n      0x00\n        /* \"#utility.yul\":2286:2323   */\n      tag_110\n        /* \"#utility.yul\":2317:2322   */\n      dup3\n        /* \"#utility.yul\":2286:2323   */\n      tag_68\n      jump\t// in\n    tag_110:\n        /* \"#utility.yul\":2273:2323   */\n      swap1\n      pop\n        /* \"#utility.yul\":2203:2329   */\n      swap2\n      swap1\n      pop\n      jump\t// out\n        /* \"#utility.yul\":2335:2472   */\n    tag_70:\n        /* \"#utility.yul\":2396:2405   */\n      0x00\n        /* \"#utility.yul\":2429:2466   */\n      tag_112\n        /* \"#utility.yul\":2460:2465   */\n      dup3\n        /* \"#utility.yul\":2429:2466   */\n      tag_69\n      jump\t// in\n    tag_112:\n        /* \"#utility.yul\":2416:2466   */\n      swap1\n      pop\n        /* \"#utility.yul\":2335:2472   */\n      swap2\n      swap1\n      pop\n      jump\t// out\n        /* \"#utility.yul\":2478:2631   */\n    tag_71:\n        /* \"#utility.yul\":2576:2624   */\n      tag_114\n        /* \"#utility.yul\":2618:2623   */\n      dup2\n        /* \"#utility.yul\":2576:2624   */\n      tag_70\n      jump\t// in\n    tag_114:\n        /* \"#utility.yul\":2571:2574   */\n      dup3\n        /* \"#utility.yul\":2564:2625   */\n      mstore\n        /* \"#utility.yul\":2478:2631   */\n      pop\n      pop\n      jump\t// out\n        /* \"#utility.yul\":2637:2881   */\n    tag_26:\n        /* \"#utility.yul\":2741:2745   */\n      0x00\n        /* \"#utility.yul\":2779:2781   */\n      0x20\n        /* \"#utility.yul\":2768:2777   */\n      dup3\n        /* \"#utility.yul\":2764:2782   */\n      add\n        /* \"#utility.yul\":2756:2782   */\n      swap1\n      pop\n        /* \"#utility.yul\":2792:2874   */\n      tag_116\n        /* \"#utility.yul\":2871:2872   */\n      0x00\n        /* \"#utility.yul\":2860:2869   */\n      dup4\n        /* \"#utility.yul\":2856:2873   */\n      add\n        /* \"#utility.yul\":2847:2853   */\n      dup5\n        /* \"#utility.yul\":2792:2874   */\n      tag_71\n      jump\t// in\n    tag_116:\n        /* \"#utility.yul\":2637:2881   */\n      swap3\n      swap2\n      pop\n      pop\n      jump\t// out\n        /* \"#utility.yul\":2887:2983   */\n    tag_72:\n        /* \"#utility.yul\":2924:2931   */\n      0x00\n        /* \"#utility.yul\":2953:2977   */\n      tag_118\n        /* \"#utility.yul\":2971:2976   */\n      dup3\n        /* \"#utility.yul\":2953:2977   */\n      tag_66\n      jump\t// in\n    tag_118:\n        /* \"#utility.yul\":2942:2977   */\n      swap1\n      pop\n        /* \"#utility.yul\":2887:2983   */\n      swap2\n      swap1\n      pop\n      jump\t// out\n        /* \"#utility.yul\":2989:3107   */\n    tag_73:\n        /* \"#utility.yul\":3076:3100   */\n      tag_120\n        /* \"#utility.yul\":3094:3099   */\n      dup2\n        /* \"#utility.yul\":3076:3100   */\n      tag_72\n      jump\t// in\n    tag_120:\n        /* \"#utility.yul\":3071:3074   */\n      dup3\n        /* \"#utility.yul\":3064:3101   */\n      mstore\n        /* \"#utility.yul\":2989:3107   */\n      pop\n      pop\n      jump\t// out\n        /* \"#utility.yul\":3113:3335   */\n    tag_31:\n        /* \"#utility.yul\":3206:3210   */\n      0x00\n        /* \"#utility.yul\":3244:3246   */\n      0x20\n        /* \"#utility.yul\":3233:3242   */\n      dup3\n        /* \"#utility.yul\":3229:3247   */\n      add\n        /* \"#utility.yul\":3221:3247   */\n      swap1\n      pop\n        /* \"#utility.yul\":3257:3328   */\n      tag_122\n        /* \"#utility.yul\":3325:3326   */\n      0x00\n        /* \"#utility.yul\":3314:3323   */\n      dup4\n        /* \"#utility.yul\":3310:3327   */\n      add\n        /* \"#utility.yul\":3301:3307   */\n      dup5\n        /* \"#utility.yul\":3257:3328   */\n      tag_73\n      jump\t// in\n    tag_122:\n        /* \"#utility.yul\":3113:3335   */\n      swap3\n      swap2\n      pop\n      pop\n      jump\t// out\n        /* \"#utility.yul\":3341:3449   */\n    tag_74:\n        /* \"#utility.yul\":3418:3442   */\n      tag_124\n        /* \"#utility.yul\":3436:3441   */\n      dup2\n        /* \"#utility.yul\":3418:3442   */\n      tag_62\n      jump\t// in\n    tag_124:\n        /* \"#utility.yul\":3413:3416   */\n      dup3\n        /* \"#utility.yul\":3406:3443   */\n      mstore\n        /* \"#utility.yul\":3341:3449   */\n      pop\n      pop\n      jump\t// out\n        /* \"#utility.yul\":3513:3846   */\n    tag_75:\n        /* \"#utility.yul\":3658:3662   */\n      0x20\n        /* \"#utility.yul\":3653:3656   */\n      dup3\n        /* \"#utility.yul\":3649:3663   */\n      add\n        /* \"#utility.yul\":3747:3751   */\n      0x00\n        /* \"#utility.yul\":3740:3745   */\n      dup3\n        /* \"#utility.yul\":3736:3752   */\n      add\n        /* \"#utility.yul\":3730:3753   */\n      mload\n        /* \"#utility.yul\":3766:3829   */\n      tag_126\n        /* \"#utility.yul\":3823:3827   */\n      0x00\n        /* \"#utility.yul\":3818:3821   */\n      dup6\n        /* \"#utility.yul\":3814:3828   */\n      add\n        /* \"#utility.yul\":3800:3812   */\n      dup3\n        /* \"#utility.yul\":3766:3829   */\n      tag_74\n      jump\t// in\n    tag_126:\n        /* \"#utility.yul\":3673:3839   */\n      pop\n        /* \"#utility.yul\":3627:3846   */\n      pop\n        /* \"#utility.yul\":3513:3846   */\n      pop\n      pop\n      jump\t// out\n        /* \"#utility.yul\":3852:4170   */\n    tag_35:\n        /* \"#utility.yul\":3993:3997   */\n      0x00\n        /* \"#utility.yul\":4031:4033   */\n      0x20\n        /* \"#utility.yul\":4020:4029   */\n      dup3\n        /* \"#utility.yul\":4016:4034   */\n      add\n        /* \"#utility.yul\":4008:4034   */\n      swap1\n      pop\n        /* \"#utility.yul\":4044:4163   */\n      tag_128\n        /* \"#utility.yul\":4160:4161   */\n      0x00\n        /* \"#utility.yul\":4149:4158   */\n      dup4\n        /* \"#utility.yul\":4145:4162   */\n      add\n        /* \"#utility.yul\":4136:4142   */\n      dup5\n        /* \"#utility.yul\":4044:4163   */\n      tag_75\n      jump\t// in\n    tag_128:\n        /* \"#utility.yul\":3852:4170   */\n      swap3\n      swap2\n      pop\n      pop\n      jump\t// out\n        /* \"#utility.yul\":4176:4316   */\n    tag_76:\n        /* \"#utility.yul\":4240:4249   */\n      0x00\n        /* \"#utility.yul\":4273:4310   */\n      tag_130\n        /* \"#utility.yul\":4304:4309   */\n      dup3\n        /* \"#utility.yul\":4273:4310   */\n      tag_69\n      jump\t// in\n    tag_130:\n        /* \"#utility.yul\":4260:4310   */\n      swap1\n      pop\n        /* \"#utility.yul\":4176:4316   */\n      swap2\n      swap1\n      pop\n      jump\t// out\n        /* \"#utility.yul\":4322:4481   */\n    tag_77:\n        /* \"#utility.yul\":4423:4474   */\n      tag_132\n        /* \"#utility.yul\":4468:4473   */\n      dup2\n        /* \"#utility.yul\":4423:4474   */\n      tag_76\n      jump\t// in\n    tag_132:\n        /* \"#utility.yul\":4418:4421   */\n      dup3\n        /* \"#utility.yul\":4411:4475   */\n      mstore\n        /* \"#utility.yul\":4322:4481   */\n      pop\n      pop\n      jump\t// out\n        /* \"#utility.yul\":4487:4737   */\n    tag_43:\n        /* \"#utility.yul\":4594:4598   */\n      0x00\n        /* \"#utility.yul\":4632:4634   */\n      0x20\n        /* \"#utility.yul\":4621:4630   */\n      dup3\n        /* \"#utility.yul\":4617:4635   */\n      add\n        /* \"#utility.yul\":4609:4635   */\n      swap1\n      pop\n        /* \"#utility.yul\":4645:4730   */\n      tag_134\n        /* \"#utility.yul\":4727:4728   */\n      0x00\n        /* \"#utility.yul\":4716:4725   */\n      dup4\n        /* \"#utility.yul\":4712:4729   */\n      add\n        /* \"#utility.yul\":4703:4709   */\n      dup5\n        /* \"#utility.yul\":4645:4730   */\n      tag_77\n      jump\t// in\n    tag_134:\n        /* \"#utility.yul\":4487:4737   */\n      swap3\n      swap2\n      pop\n      pop\n      jump\t// out\n        /* \"#utility.yul\":4743:4865   */\n    tag_78:\n        /* \"#utility.yul\":4816:4840   */\n      tag_136\n        /* \"#utility.yul\":4834:4839   */\n      dup2\n        /* \"#utility.yul\":4816:4840   */\n      tag_72\n      jump\t// in\n    tag_136:\n        /* \"#utility.yul\":4809:4814   */\n      dup2\n        /* \"#utility.yul\":4806:4841   */\n      eq\n        /* \"#utility.yul\":4796:4859   */\n      tag_137\n      jumpi\n        /* \"#utility.yul\":4855:4856   */\n      0x00\n        /* \"#utility.yul\":4852:4853   */\n      dup1\n        /* \"#utility.yul\":4845:4857   */\n      revert\n        /* \"#utility.yul\":4796:4859   */\n    tag_137:\n        /* \"#utility.yul\":4743:4865   */\n      pop\n      jump\t// out\n        /* \"#utility.yul\":4871:5014   */\n    tag_79:\n        /* \"#utility.yul\":4928:4933   */\n      0x00\n        /* \"#utility.yul\":4959:4965   */\n      dup2\n        /* \"#utility.yul\":4953:4966   */\n      mload\n        /* \"#utility.yul\":4944:4966   */\n      swap1\n      pop\n        /* \"#utility.yul\":4975:5008   */\n      tag_139\n        /* \"#utility.yul\":5002:5007   */\n      dup2\n        /* \"#utility.yul\":4975:5008   */\n      tag_78\n      jump\t// in\n    tag_139:\n        /* \"#utility.yul\":4871:5014   */\n      swap3\n      swap2\n      pop\n      pop\n      jump\t// out\n        /* \"#utility.yul\":5020:5371   */\n    tag_51:\n        /* \"#utility.yul\":5090:5096   */\n      0x00\n        /* \"#utility.yul\":5139:5141   */\n      0x20\n        /* \"#utility.yul\":5127:5136   */\n      dup3\n        /* \"#utility.yul\":5118:5125   */\n      dup5\n        /* \"#utility.yul\":5114:5137   */\n      sub\n        /* \"#utility.yul\":5110:5142   */\n      slt\n        /* \"#utility.yul\":5107:5226   */\n      iszero\n      tag_141\n      jumpi\n        /* \"#utility.yul\":5145:5224   */\n      tag_142\n      tag_60\n      jump\t// in\n    tag_142:\n        /* \"#utility.yul\":5107:5226   */\n    tag_141:\n        /* \"#utility.yul\":5265:5266   */\n      0x00\n        /* \"#utility.yul\":5290:5354   */\n      tag_143\n        /* \"#utility.yul\":5346:5353   */\n      dup5\n        /* \"#utility.yul\":5337:5343   */\n      dup3\n        /* \"#utility.yul\":5326:5335   */\n      dup6\n        /* \"#utility.yul\":5322:5344   */\n      add\n        /* \"#utility.yul\":5290:5354   */\n      tag_79\n      jump\t// in\n    tag_143:\n        /* \"#utility.yul\":5280:5354   */\n      swap2\n      pop\n        /* \"#utility.yul\":5236:5364   */\n      pop\n        /* \"#utility.yul\":5020:5371   */\n      swap3\n      swap2\n      pop\n      pop\n      jump\t// out\n\n    auxdata: 0xa2646970667358221220b9673b821f12c15b73108f2a721b94e1ff1888bcd778765a089153f23cd46e2f64736f6c634300080a0033\n}\n",
				"bytecode": {
					"linkReferences": {},
					"object": "608060405234801561001057600080fd5b5073609b8ced16a83cff90a3d3b3cbe7894931e7c382600360006101000a81548173ffffffffffffffffffffffffffffffffffffffff021916908373ffffffffffffffffffffffffffffffffffffffff160217905550610697806100756000396000f3fe608060405234801561001057600080fd5b506004361061007d5760003560e01c80635bf608b81161005b5780635bf608b814610112578063d0e5d95514610142578063d6a9de5114610160578063fc0c546a146101905761007d565b80632bd497801461008257806344a9d244146100b25780635af8d21c146100e2575b600080fd5b61009c60048036038101906100979190610419565b6101ae565b6040516100a99190610468565b60405180910390f35b6100cc60048036038101906100c79190610483565b6101d6565b6040516100d99190610468565b60405180910390f35b6100fc60048036038101906100f79190610483565b6101ee565b604051610109919061052f565b60405180910390f35b61012c60048036038101906101279190610483565b61022b565b604051610139919061056b565b60405180910390f35b61014a6102d6565b60405161015791906105b1565b60405180910390f35b61017a60048036038101906101759190610483565b6102fa565b604051610187919061056b565b60405180910390f35b6101986103a5565b6040516101a591906105ed565b60405180910390f35b600460205281600052604060002081600281106101ca57600080fd5b01600091509150505481565b60026020528060005260406000206000915090505481565b60006001600083815260200190815260200160002060009054906101000a900473ffffffffffffffffffffffffffffffffffffffff169050919050565b60006001600083815260200190815260200160002060009054906101000a900473ffffffffffffffffffffffffffffffffffffffff1673ffffffffffffffffffffffffffffffffffffffff1663603daf9a6040518163ffffffff1660e01b8152600401602060405180830381865afa1580156102ab573d6000803e3d6000fd5b505050506040513d601f19601f820116820180604052508101906102cf9190610634565b9050919050565b6102de6103cb565b6000604051806020016040529081600082015481525050905090565b60006001600083815260200190815260200160002060009054906101000a900473ffffffffffffffffffffffffffffffffffffffff1673ffffffffffffffffffffffffffffffffffffffff1663dbd0e1b66040518163ffffffff1660e01b8152600401602060405180830381865afa15801561037a573d6000803e3d6000fd5b505050506040513d601f19601f8201168201806040525081019061039e9190610634565b9050919050565b600360009054906101000a900473ffffffffffffffffffffffffffffffffffffffff1681565b6040518060200160405280600081525090565b600080fd5b6000819050919050565b6103f6816103e3565b811461040157600080fd5b50565b600081359050610413816103ed565b92915050565b600080604083850312156104305761042f6103de565b5b600061043e85828601610404565b925050602061044f85828601610404565b9150509250929050565b610462816103e3565b82525050565b600060208201905061047d6000830184610459565b92915050565b600060208284031215610499576104986103de565b5b60006104a784828501610404565b91505092915050565b600073ffffffffffffffffffffffffffffffffffffffff82169050919050565b6000819050919050565b60006104f56104f06104eb846104b0565b6104d0565b6104b0565b9050919050565b6000610507826104da565b9050919050565b6000610519826104fc565b9050919050565b6105298161050e565b82525050565b60006020820190506105446000830184610520565b92915050565b6000610555826104b0565b9050919050565b6105658161054a565b82525050565b6000602082019050610580600083018461055c565b92915050565b61058f816103e3565b82525050565b6020820160008201516105ab6000850182610586565b50505050565b60006020820190506105c66000830184610595565b92915050565b60006105d7826104fc565b9050919050565b6105e7816105cc565b82525050565b600060208201905061060260008301846105de565b92915050565b6106118161054a565b811461061c57600080fd5b50565b60008151905061062e81610608565b92915050565b60006020828403121561064a576106496103de565b5b60006106588482850161061f565b9150509291505056fea2646970667358221220b9673b821f12c15b73108f2a721b94e1ff1888bcd778765a089153f23cd46e2f64736f6c634300080a0033",
					"opcodes": "PUSH1 0x80 PUSH1 0x40 MSTORE CALLVALUE DUP1 ISZERO PUSH2 0x10 JUMPI PUSH1 0x0 DUP1 REVERT JUMPDEST POP PUSH20 0x609B8CED16A83CFF90A3D3B3CBE7894931E7C382 PUSH1 0x3 PUSH1 0x0 PUSH2 0x100 EXP DUP2 SLOAD DUP2 PUSH20 0xFFFFFFFFFFFFFFFFFFFFFFFFFFFFFFFFFFFFFFFF MUL NOT AND SWAP1 DUP4 PUSH20 0xFFFFFFFFFFFFFFFFFFFFFFFFFFFFFFFFFFFFFFFF AND MUL OR SWAP1 SSTORE POP PUSH2 0x697 DUP1 PUSH2 0x75 PUSH1 0x0 CODECOPY PUSH1 0x0 RETURN INVALID PUSH1 0x80 PUSH1 0x40 MSTORE CALLVALUE DUP1 ISZERO PUSH2 0x10 JUMPI PUSH1 0x0 DUP1 REVERT JUMPDEST POP PUSH1 0x4 CALLDATASIZE LT PUSH2 0x7D JUMPI PUSH1 0x0 CALLDATALOAD PUSH1 0xE0 SHR DUP1 PUSH4 0x5BF608B8 GT PUSH2 0x5B JUMPI DUP1 PUSH4 0x5BF608B8 EQ PUSH2 0x112 JUMPI DUP1 PUSH4 0xD0E5D955 EQ PUSH2 0x142 JUMPI DUP1 PUSH4 0xD6A9DE51 EQ PUSH2 0x160 JUMPI DUP1 PUSH4 0xFC0C546A EQ PUSH2 0x190 JUMPI PUSH2 0x7D JUMP JUMPDEST DUP1 PUSH4 0x2BD49780 EQ PUSH2 0x82 JUMPI DUP1 PUSH4 0x44A9D244 EQ PUSH2 0xB2 JUMPI DUP1 PUSH4 0x5AF8D21C EQ PUSH2 0xE2 JUMPI JUMPDEST PUSH1 0x0 DUP1 REVERT JUMPDEST PUSH2 0x9C PUSH1 0x4 DUP1 CALLDATASIZE SUB DUP2 ADD SWAP1 PUSH2 0x97 SWAP2 SWAP1 PUSH2 0x419 JUMP JUMPDEST PUSH2 0x1AE JUMP JUMPDEST PUSH1 0x40 MLOAD PUSH2 0xA9 SWAP2 SWAP1 PUSH2 0x468 JUMP JUMPDEST PUSH1 0x40 MLOAD DUP1 SWAP2 SUB SWAP1 RETURN JUMPDEST PUSH2 0xCC PUSH1 0x4 DUP1 CALLDATASIZE SUB DUP2 ADD SWAP1 PUSH2 0xC7 SWAP2 SWAP1 PUSH2 0x483 JUMP JUMPDEST PUSH2 0x1D6 JUMP JUMPDEST PUSH1 0x40 MLOAD PUSH2 0xD9 SWAP2 SWAP1 PUSH2 0x468 JUMP JUMPDEST PUSH1 0x40 MLOAD DUP1 SWAP2 SUB SWAP1 RETURN JUMPDEST PUSH2 0xFC PUSH1 0x4 DUP1 CALLDATASIZE SUB DUP2 ADD SWAP1 PUSH2 0xF7 SWAP2 SWAP1 PUSH2 0x483 JUMP JUMPDEST PUSH2 0x1EE JUMP JUMPDEST PUSH1 0x40 MLOAD PUSH2 0x109 SWAP2 SWAP1 PUSH2 0x52F JUMP JUMPDEST PUSH1 0x40 MLOAD DUP1 SWAP2 SUB SWAP1 RETURN JUMPDEST PUSH2 0x12C PUSH1 0x4 DUP1 CALLDATASIZE SUB DUP2 ADD SWAP1 PUSH2 0x127 SWAP2 SWAP1 PUSH2 0x483 JUMP JUMPDEST PUSH2 0x22B JUMP JUMPDEST PUSH1 0x40 MLOAD PUSH2 0x139 SWAP2 SWAP1 PUSH2 0x56B JUMP JUMPDEST PUSH1 0x40 MLOAD DUP1 SWAP2 SUB SWAP1 RETURN JUMPDEST PUSH2 0x14A PUSH2 0x2D6 JUMP JUMPDEST PUSH1 0x40 MLOAD PUSH2 0x157 SWAP2 SWAP1 PUSH2 0x5B1 JUMP JUMPDEST PUSH1 0x40 MLOAD DUP1 SWAP2 SUB SWAP1 RETURN JUMPDEST PUSH2 0x17A PUSH1 0x4 DUP1 CALLDATASIZE SUB DUP2 ADD SWAP1 PUSH2 0x175 SWAP2 SWAP1 PUSH2 0x483 JUMP JUMPDEST PUSH2 0x2FA JUMP JUMPDEST PUSH1 0x40 MLOAD PUSH2 0x187 SWAP2 SWAP1 PUSH2 0x56B JUMP JUMPDEST PUSH1 0x40 MLOAD DUP1 SWAP2 SUB SWAP1 RETURN JUMPDEST PUSH2 0x198 PUSH2 0x3A5 JUMP JUMPDEST PUSH1 0x40 MLOAD PUSH2 0x1A5 SWAP2 SWAP1 PUSH2 0x5ED JUMP JUMPDEST PUSH1 0x40 MLOAD DUP1 SWAP2 SUB SWAP1 RETURN JUMPDEST PUSH1 0x4 PUSH1 0x20 MSTORE DUP2 PUSH1 0x0 MSTORE PUSH1 0x40 PUSH1 0x0 KECCAK256 DUP2 PUSH1 0x2 DUP2 LT PUSH2 0x1CA JUMPI PUSH1 0x0 DUP1 REVERT JUMPDEST ADD PUSH1 0x0 SWAP2 POP SWAP2 POP POP SLOAD DUP2 JUMP JUMPDEST PUSH1 0x2 PUSH1 0x20 MSTORE DUP1 PUSH1 0x0 MSTORE PUSH1 0x40 PUSH1 0x0 KECCAK256 PUSH1 0x0 SWAP2 POP SWAP1 POP SLOAD DUP2 JUMP JUMPDEST PUSH1 0x0 PUSH1 0x1 PUSH1 0x0 DUP4 DUP2 MSTORE PUSH1 0x20 ADD SWAP1 DUP2 MSTORE PUSH1 0x20 ADD PUSH1 0x0 KECCAK256 PUSH1 0x0 SWAP1 SLOAD SWAP1 PUSH2 0x100 EXP SWAP1 DIV PUSH20 0xFFFFFFFFFFFFFFFFFFFFFFFFFFFFFFFFFFFFFFFF AND SWAP1 POP SWAP2 SWAP1 POP JUMP JUMPDEST PUSH1 0x0 PUSH1 0x1 PUSH1 0x0 DUP4 DUP2 MSTORE PUSH1 0x20 ADD SWAP1 DUP2 MSTORE PUSH1 0x20 ADD PUSH1 0x0 KECCAK256 PUSH1 0x0 SWAP1 SLOAD SWAP1 PUSH2 0x100 EXP SWAP1 DIV PUSH20 0xFFFFFFFFFFFFFFFFFFFFFFFFFFFFFFFFFFFFFFFF AND PUSH20 0xFFFFFFFFFFFFFFFFFFFFFFFFFFFFFFFFFFFFFFFF AND PUSH4 0x603DAF9A PUSH1 0x40 MLOAD DUP2 PUSH4 0xFFFFFFFF AND PUSH1 0xE0 SHL DUP2 MSTORE PUSH1 0x4 ADD PUSH1 0x20 PUSH1 0x40 MLOAD DUP1 DUP4 SUB DUP2 DUP7 GAS STATICCALL ISZERO DUP1 ISZERO PUSH2 0x2AB JUMPI RETURNDATASIZE PUSH1 0x0 DUP1 RETURNDATACOPY RETURNDATASIZE PUSH1 0x0 REVERT JUMPDEST POP POP POP POP PUSH1 0x40 MLOAD RETURNDATASIZE PUSH1 0x1F NOT PUSH1 0x1F DUP3 ADD AND DUP3 ADD DUP1 PUSH1 0x40 MSTORE POP DUP2 ADD SWAP1 PUSH2 0x2CF SWAP2 SWAP1 PUSH2 0x634 JUMP JUMPDEST SWAP1 POP SWAP2 SWAP1 POP JUMP JUMPDEST PUSH2 0x2DE PUSH2 0x3CB JUMP JUMPDEST PUSH1 0x0 PUSH1 0x40 MLOAD DUP1 PUSH1 0x20 ADD PUSH1 0x40 MSTORE SWAP1 DUP2 PUSH1 0x0 DUP3 ADD SLOAD DUP2 MSTORE POP POP SWAP1 POP SWAP1 JUMP JUMPDEST PUSH1 0x0 PUSH1 0x1 PUSH1 0x0 DUP4 DUP2 MSTORE PUSH1 0x20 ADD SWAP1 DUP2 MSTORE PUSH1 0x20 ADD PUSH1 0x0 KECCAK256 PUSH1 0x0 SWAP1 SLOAD SWAP1 PUSH2 0x100 EXP SWAP1 DIV PUSH20 0xFFFFFFFFFFFFFFFFFFFFFFFFFFFFFFFFFFFFFFFF AND PUSH20 0xFFFFFFFFFFFFFFFFFFFFFFFFFFFFFFFFFFFFFFFF AND PUSH4 0xDBD0E1B6 PUSH1 0x40 MLOAD DUP2 PUSH4 0xFFFFFFFF AND PUSH1 0xE0 SHL DUP2 MSTORE PUSH1 0x4 ADD PUSH1 0x20 PUSH1 0x40 MLOAD DUP1 DUP4 SUB DUP2 DUP7 GAS STATICCALL ISZERO DUP1 ISZERO PUSH2 0x37A JUMPI RETURNDATASIZE PUSH1 0x0 DUP1 RETURNDATACOPY RETURNDATASIZE PUSH1 0x0 REVERT JUMPDEST POP POP POP POP PUSH1 0x40 MLOAD RETURNDATASIZE PUSH1 0x1F NOT PUSH1 0x1F DUP3 ADD AND DUP3 ADD DUP1 PUSH1 0x40 MSTORE POP DUP2 ADD SWAP1 PUSH2 0x39E SWAP2 SWAP1 PUSH2 0x634 JUMP JUMPDEST SWAP1 POP SWAP2 SWAP1 POP JUMP JUMPDEST PUSH1 0x3 PUSH1 0x0 SWAP1 SLOAD SWAP1 PUSH2 0x100 EXP SWAP1 DIV PUSH20 0xFFFFFFFFFFFFFFFFFFFFFFFFFFFFFFFFFFFFFFFF AND DUP2 JUMP JUMPDEST PUSH1 0x40 MLOAD DUP1 PUSH1 0x20 ADD PUSH1 0x40 MSTORE DUP1 PUSH1 0x0 DUP2 MSTORE POP SWAP1 JUMP JUMPDEST PUSH1 0x0 DUP1 REVERT JUMPDEST PUSH1 0x0 DUP2 SWAP1 POP SWAP2 SWAP1 POP JUMP JUMPDEST PUSH2 0x3F6 DUP2 PUSH2 0x3E3 JUMP JUMPDEST DUP2 EQ PUSH2 0x401 JUMPI PUSH1 0x0 DUP1 REVERT JUMPDEST POP JUMP JUMPDEST PUSH1 0x0 DUP2 CALLDATALOAD SWAP1 POP PUSH2 0x413 DUP2 PUSH2 0x3ED JUMP JUMPDEST SWAP3 SWAP2 POP POP JUMP JUMPDEST PUSH1 0x0 DUP1 PUSH1 0x40 DUP4 DUP6 SUB SLT ISZERO PUSH2 0x430 JUMPI PUSH2 0x42F PUSH2 0x3DE JUMP JUMPDEST JUMPDEST PUSH1 0x0 PUSH2 0x43E DUP6 DUP3 DUP7 ADD PUSH2 0x404 JUMP JUMPDEST SWAP3 POP POP PUSH1 0x20 PUSH2 0x44F DUP6 DUP3 DUP7 ADD PUSH2 0x404 JUMP JUMPDEST SWAP2 POP POP SWAP3 POP SWAP3 SWAP1 POP JUMP JUMPDEST PUSH2 0x462 DUP2 PUSH2 0x3E3 JUMP JUMPDEST DUP3 MSTORE POP POP JUMP JUMPDEST PUSH1 0x0 PUSH1 0x20 DUP3 ADD SWAP1 POP PUSH2 0x47D PUSH1 0x0 DUP4 ADD DUP5 PUSH2 0x459 JUMP JUMPDEST SWAP3 SWAP2 POP POP JUMP JUMPDEST PUSH1 0x0 PUSH1 0x20 DUP3 DUP5 SUB SLT ISZERO PUSH2 0x499 JUMPI PUSH2 0x498 PUSH2 0x3DE JUMP JUMPDEST JUMPDEST PUSH1 0x0 PUSH2 0x4A7 DUP5 DUP3 DUP6 ADD PUSH2 0x404 JUMP JUMPDEST SWAP2 POP POP SWAP3 SWAP2 POP POP JUMP JUMPDEST PUSH1 0x0 PUSH20 0xFFFFFFFFFFFFFFFFFFFFFFFFFFFFFFFFFFFFFFFF DUP3 AND SWAP1 POP SWAP2 SWAP1 POP JUMP JUMPDEST PUSH1 0x0 DUP2 SWAP1 POP SWAP2 SWAP1 POP JUMP JUMPDEST PUSH1 0x0 PUSH2 0x4F5 PUSH2 0x4F0 PUSH2 0x4EB DUP5 PUSH2 0x4B0 JUMP JUMPDEST PUSH2 0x4D0 JUMP JUMPDEST PUSH2 0x4B0 JUMP JUMPDEST SWAP1 POP SWAP2 SWAP1 POP JUMP JUMPDEST PUSH1 0x0 PUSH2 0x507 DUP3 PUSH2 0x4DA JUMP JUMPDEST SWAP1 POP SWAP2 SWAP1 POP JUMP JUMPDEST PUSH1 0x0 PUSH2 0x519 DUP3 PUSH2 0x4FC JUMP JUMPDEST SWAP1 POP SWAP2 SWAP1 POP JUMP JUMPDEST PUSH2 0x529 DUP2 PUSH2 0x50E JUMP JUMPDEST DUP3 MSTORE POP POP JUMP JUMPDEST PUSH1 0x0 PUSH1 0x20 DUP3 ADD SWAP1 POP PUSH2 0x544 PUSH1 0x0 DUP4 ADD DUP5 PUSH2 0x520 JUMP JUMPDEST SWAP3 SWAP2 POP POP JUMP JUMPDEST PUSH1 0x0 PUSH2 0x555 DUP3 PUSH2 0x4B0 JUMP JUMPDEST SWAP1 POP SWAP2 SWAP1 POP JUMP JUMPDEST PUSH2 0x565 DUP2 PUSH2 0x54A JUMP JUMPDEST DUP3 MSTORE POP POP JUMP JUMPDEST PUSH1 0x0 PUSH1 0x20 DUP3 ADD SWAP1 POP PUSH2 0x580 PUSH1 0x0 DUP4 ADD DUP5 PUSH2 0x55C JUMP JUMPDEST SWAP3 SWAP2 POP POP JUMP JUMPDEST PUSH2 0x58F DUP2 PUSH2 0x3E3 JUMP JUMPDEST DUP3 MSTORE POP POP JUMP JUMPDEST PUSH1 0x20 DUP3 ADD PUSH1 0x0 DUP3 ADD MLOAD PUSH2 0x5AB PUSH1 0x0 DUP6 ADD DUP3 PUSH2 0x586 JUMP JUMPDEST POP POP POP POP JUMP JUMPDEST PUSH1 0x0 PUSH1 0x20 DUP3 ADD SWAP1 POP PUSH2 0x5C6 PUSH1 0x0 DUP4 ADD DUP5 PUSH2 0x595 JUMP JUMPDEST SWAP3 SWAP2 POP POP JUMP JUMPDEST PUSH1 0x0 PUSH2 0x5D7 DUP3 PUSH2 0x4FC JUMP JUMPDEST SWAP1 POP SWAP2 SWAP1 POP JUMP JUMPDEST PUSH2 0x5E7 DUP2 PUSH2 0x5CC JUMP JUMPDEST DUP3 MSTORE POP POP JUMP JUMPDEST PUSH1 0x0 PUSH1 0x20 DUP3 ADD SWAP1 POP PUSH2 0x602 PUSH1 0x0 DUP4 ADD DUP5 PUSH2 0x5DE JUMP JUMPDEST SWAP3 SWAP2 POP POP JUMP JUMPDEST PUSH2 0x611 DUP2 PUSH2 0x54A JUMP JUMPDEST DUP2 EQ PUSH2 0x61C JUMPI PUSH1 0x0 DUP1 REVERT JUMPDEST POP JUMP JUMPDEST PUSH1 0x0 DUP2 MLOAD SWAP1 POP PUSH2 0x62E DUP2 PUSH2 0x608 JUMP JUMPDEST SWAP3 SWAP2 POP POP JUMP JUMPDEST PUSH1 0x0 PUSH1 0x20 DUP3 DUP5 SUB SLT ISZERO PUSH2 0x64A JUMPI PUSH2 0x649 PUSH2 0x3DE JUMP JUMPDEST JUMPDEST PUSH1 0x0 PUSH2 0x658 DUP5 DUP3 DUP6 ADD PUSH2 0x61F JUMP JUMPDEST SWAP2 POP POP SWAP3 SWAP2 POP POP JUMP INVALID LOG2 PUSH5 0x6970667358 0x22 SLT KECCAK256 0xB9 PUSH8 0x3B821F12C15B7310 DUP16 0x2A PUSH19 0x1B94E1FF1888BCD778765A089153F23CD46E2F PUSH5 0x736F6C6343 STOP ADDMOD EXP STOP CALLER "
				},
				"gasEstimates": {
					"creation": {
						"codeDepositCost": "337400",
						"executionCost": "24641",
						"totalCost": "362041"
					},
					"external": {
						"deposits(uint256,uint256)": "infinite",
						"getBuyer(uint256)": "infinite",
						"getCDS(uint256)": "infinite",
						"getCDSId()": "2635",
						"getSeller(uint256)": "infinite",
						"nextPayDate(uint256)": "infinite",
						"token()": "infinite"
					},
					"internal": {
						"_afterClaim(uint256)": "infinite",
						"_endCDS(uint256)": "infinite",
						"_expire(uint256)": "infinite",
						"_sendDeposit(uint256,bool)": "infinite",
						"_sendFirstPremium(uint256)": "infinite",
						"_sendPremium(uint256)": "infinite",
						"_sendPremiumByDeposit(uint256)": "infinite",
						"clearDeposit(uint256)": "infinite"
					}
				},
				"methodIdentifiers": {
					"deposits(uint256,uint256)": "2bd49780",
					"getBuyer(uint256)": "5bf608b8",
					"getCDS(uint256)": "5af8d21c",
					"getCDSId()": "d0e5d955",
					"getSeller(uint256)": "d6a9de51",
					"nextPayDate(uint256)": "44a9d244",
					"token()": "fc0c546a"
				}
			},
			"storageLayout": {
				"storage": [
					{
						"astId": 1567,
						"contract": "contracts/Handler/CDSBank.sol:CDSBank",
						"label": "_cdsId",
						"offset": 0,
						"slot": "0",
						"type": "t_struct(Counter)218_storage"
					},
					{
						"astId": 1572,
						"contract": "contracts/Handler/CDSBank.sol:CDSBank",
						"label": "_cdsList",
						"offset": 0,
						"slot": "1",
						"type": "t_mapping(t_uint256,t_contract(CDS)925)"
					},
					{
						"astId": 1576,
						"contract": "contracts/Handler/CDSBank.sol:CDSBank",
						"label": "nextPayDate",
						"offset": 0,
						"slot": "2",
						"type": "t_mapping(t_uint256,t_uint256)"
					},
					{
						"astId": 1000,
						"contract": "contracts/Handler/CDSBank.sol:CDSBank",
						"label": "token",
						"offset": 0,
						"slot": "3",
						"type": "t_contract(IERC20)190"
					},
					{
						"astId": 1006,
						"contract": "contracts/Handler/CDSBank.sol:CDSBank",
						"label": "deposits",
						"offset": 0,
						"slot": "4",
						"type": "t_mapping(t_uint256,t_array(t_uint256)2_storage)"
					}
				],
				"types": {
					"t_array(t_uint256)2_storage": {
						"base": "t_uint256",
						"encoding": "inplace",
						"label": "uint256[2]",
						"numberOfBytes": "64"
					},
					"t_contract(CDS)925": {
						"encoding": "inplace",
						"label": "contract CDS",
						"numberOfBytes": "20"
					},
					"t_contract(IERC20)190": {
						"encoding": "inplace",
						"label": "contract IERC20",
						"numberOfBytes": "20"
					},
					"t_mapping(t_uint256,t_array(t_uint256)2_storage)": {
						"encoding": "mapping",
						"key": "t_uint256",
						"label": "mapping(uint256 => uint256[2])",
						"numberOfBytes": "32",
						"value": "t_array(t_uint256)2_storage"
					},
					"t_mapping(t_uint256,t_contract(CDS)925)": {
						"encoding": "mapping",
						"key": "t_uint256",
						"label": "mapping(uint256 => contract CDS)",
						"numberOfBytes": "32",
						"value": "t_contract(CDS)925"
					},
					"t_mapping(t_uint256,t_uint256)": {
						"encoding": "mapping",
						"key": "t_uint256",
						"label": "mapping(uint256 => uint256)",
						"numberOfBytes": "32",
						"value": "t_uint256"
					},
					"t_struct(Counter)218_storage": {
						"encoding": "inplace",
						"label": "struct Counters.Counter",
						"members": [
							{
								"astId": 217,
								"contract": "contracts/Handler/CDSBank.sol:CDSBank",
								"label": "_value",
								"offset": 0,
								"slot": "0",
								"type": "t_uint256"
							}
						],
						"numberOfBytes": "32"
					},
					"t_uint256": {
						"encoding": "inplace",
						"label": "uint256",
						"numberOfBytes": "32"
					}
				}
			},
			"userdoc": {
				"kind": "user",
				"methods": {},
				"version": 1
			}
		}
	}
}