{
	"contracts/Handler/CDSFactory.sol": {
		"CDSFactory": {
			"abi": [
				{
					"inputs": [
						{
							"internalType": "uint256",
							"name": "cdsId",
							"type": "uint256"
						}
					],
					"name": "getBuyer",
					"outputs": [
						{
							"internalType": "address",
							"name": "",
							"type": "address"
						}
					],
					"stateMutability": "view",
					"type": "function"
				},
				{
					"inputs": [
						{
							"internalType": "uint256",
							"name": "cdsId",
							"type": "uint256"
						}
					],
					"name": "getCDS",
					"outputs": [
						{
							"internalType": "contract CDS",
							"name": "",
							"type": "address"
						}
					],
					"stateMutability": "view",
					"type": "function"
				},
				{
					"inputs": [],
					"name": "getCDSId",
					"outputs": [
						{
							"components": [
								{
									"internalType": "uint256",
									"name": "_value",
									"type": "uint256"
								}
							],
							"internalType": "struct Counters.Counter",
							"name": "",
							"type": "tuple"
						}
					],
					"stateMutability": "view",
					"type": "function"
				},
				{
					"inputs": [
						{
							"internalType": "uint256",
							"name": "cdsId",
							"type": "uint256"
						}
					],
					"name": "getPremium",
					"outputs": [
						{
							"internalType": "uint256",
							"name": "",
							"type": "uint256"
						}
					],
					"stateMutability": "view",
					"type": "function"
				},
				{
					"inputs": [
						{
							"internalType": "uint256",
							"name": "cdsId",
							"type": "uint256"
						}
					],
					"name": "getPrices",
					"outputs": [
						{
							"internalType": "uint256[5]",
							"name": "",
							"type": "uint256[5]"
						}
					],
					"stateMutability": "view",
					"type": "function"
				},
				{
					"inputs": [
						{
							"internalType": "uint256",
							"name": "cdsId",
							"type": "uint256"
						}
					],
					"name": "getRounds",
					"outputs": [
						{
							"internalType": "uint32",
							"name": "",
							"type": "uint32"
						}
					],
					"stateMutability": "view",
					"type": "function"
				},
				{
					"inputs": [
						{
							"internalType": "uint256",
							"name": "cdsId",
							"type": "uint256"
						}
					],
					"name": "getSeller",
					"outputs": [
						{
							"internalType": "address",
							"name": "",
							"type": "address"
						}
					],
					"stateMutability": "view",
					"type": "function"
				},
				{
					"inputs": [
						{
							"internalType": "uint256",
							"name": "cdsId",
							"type": "uint256"
						}
					],
					"name": "getSellerDeposit",
					"outputs": [
						{
							"internalType": "uint256",
							"name": "",
							"type": "uint256"
						}
					],
					"stateMutability": "view",
					"type": "function"
				},
				{
					"inputs": [
						{
							"internalType": "uint256",
							"name": "cdsId",
							"type": "uint256"
						}
					],
					"name": "getStatus",
					"outputs": [
						{
							"internalType": "enum CDS.Status",
							"name": "",
							"type": "uint8"
						}
					],
					"stateMutability": "view",
					"type": "function"
				},
				{
					"inputs": [
						{
							"internalType": "uint256",
							"name": "",
							"type": "uint256"
						}
					],
					"name": "nextPayDate",
					"outputs": [
						{
							"internalType": "uint256",
							"name": "",
							"type": "uint256"
						}
					],
					"stateMutability": "view",
					"type": "function"
				}
			],
			"devdoc": {
				"kind": "dev",
				"methods": {},
				"version": 1
			},
			"evm": {
				"assembly": "    /* \"contracts/Handler/CDSFactory.sol\":136:3465  contract CDSFactory {... */\n  mstore(0x40, 0x80)\n  callvalue\n  dup1\n  iszero\n  tag_1\n  jumpi\n  0x00\n  dup1\n  revert\ntag_1:\n  pop\n  dataSize(sub_0)\n  dup1\n  dataOffset(sub_0)\n  0x00\n  codecopy\n  0x00\n  return\nstop\n\nsub_0: assembly {\n        /* \"contracts/Handler/CDSFactory.sol\":136:3465  contract CDSFactory {... */\n      mstore(0x40, 0x80)\n      callvalue\n      dup1\n      iszero\n      tag_1\n      jumpi\n      0x00\n      dup1\n      revert\n    tag_1:\n      pop\n      jumpi(tag_2, lt(calldatasize, 0x04))\n      shr(0xe0, calldataload(0x00))\n      dup1\n      0x5c622a0e\n      gt\n      tag_13\n      jumpi\n      dup1\n      0x5c622a0e\n      eq\n      tag_8\n      jumpi\n      dup1\n      0x88106323\n      eq\n      tag_9\n      jumpi\n      dup1\n      0x91492956\n      eq\n      tag_10\n      jumpi\n      dup1\n      0xd0e5d955\n      eq\n      tag_11\n      jumpi\n      dup1\n      0xd6a9de51\n      eq\n      tag_12\n      jumpi\n      jump(tag_2)\n    tag_13:\n      dup1\n      0x13ef3dcc\n      eq\n      tag_3\n      jumpi\n      dup1\n      0x1bf1fffb\n      eq\n      tag_4\n      jumpi\n      dup1\n      0x44a9d244\n      eq\n      tag_5\n      jumpi\n      dup1\n      0x5af8d21c\n      eq\n      tag_6\n      jumpi\n      dup1\n      0x5bf608b8\n      eq\n      tag_7\n      jumpi\n    tag_2:\n      0x00\n      dup1\n      revert\n        /* \"contracts/Handler/CDSFactory.sol\":2794:2899  function getRounds(uint256 cdsId) public view returns (uint32) {... */\n    tag_3:\n      tag_14\n      0x04\n      dup1\n      calldatasize\n      sub\n      dup2\n      add\n      swap1\n      tag_15\n      swap2\n      swap1\n      tag_16\n      jump\t// in\n    tag_15:\n      tag_17\n      jump\t// in\n    tag_14:\n      mload(0x40)\n      tag_18\n      swap2\n      swap1\n      tag_19\n      jump\t// in\n    tag_18:\n      mload(0x40)\n      dup1\n      swap2\n      sub\n      swap1\n      return\n        /* \"contracts/Handler/CDSFactory.sol\":2445:2553  function getPremium(uint256 cdsId) public view returns (uint256) {... */\n    tag_4:\n      tag_20\n      0x04\n      dup1\n      calldatasize\n      sub\n      dup2\n      add\n      swap1\n      tag_21\n      swap2\n      swap1\n      tag_16\n      jump\t// in\n    tag_21:\n      tag_22\n      jump\t// in\n    tag_20:\n      mload(0x40)\n      tag_23\n      swap2\n      swap1\n      tag_24\n      jump\t// in\n    tag_23:\n      mload(0x40)\n      dup1\n      swap2\n      sub\n      swap1\n      return\n        /* \"contracts/Handler/CDSFactory.sol\":281:327  mapping(uint256 => uint256) public nextPayDate */\n    tag_5:\n      tag_25\n      0x04\n      dup1\n      calldatasize\n      sub\n      dup2\n      add\n      swap1\n      tag_26\n      swap2\n      swap1\n      tag_16\n      jump\t// in\n    tag_26:\n      tag_27\n      jump\t// in\n    tag_25:\n      mload(0x40)\n      tag_28\n      swap2\n      swap1\n      tag_24\n      jump\t// in\n    tag_28:\n      mload(0x40)\n      dup1\n      swap2\n      sub\n      swap1\n      return\n        /* \"contracts/Handler/CDSFactory.sol\":2228:2318  function getCDS(uint256 cdsId) public view returns (CDS) {... */\n    tag_6:\n      tag_29\n      0x04\n      dup1\n      calldatasize\n      sub\n      dup2\n      add\n      swap1\n      tag_30\n      swap2\n      swap1\n      tag_16\n      jump\t// in\n    tag_30:\n      tag_31\n      jump\t// in\n    tag_29:\n      mload(0x40)\n      tag_32\n      swap2\n      swap1\n      tag_33\n      jump\t// in\n    tag_32:\n      mload(0x40)\n      dup1\n      swap2\n      sub\n      swap1\n      return\n        /* \"contracts/Handler/CDSFactory.sol\":2903:3010  function getBuyer(uint256 cdsId) public view returns (address) {... */\n    tag_7:\n      tag_34\n      0x04\n      dup1\n      calldatasize\n      sub\n      dup2\n      add\n      swap1\n      tag_35\n      swap2\n      swap1\n      tag_16\n      jump\t// in\n    tag_35:\n      tag_36\n      jump\t// in\n    tag_34:\n      mload(0x40)\n      tag_37\n      swap2\n      swap1\n      tag_38\n      jump\t// in\n    tag_37:\n      mload(0x40)\n      dup1\n      swap2\n      sub\n      swap1\n      return\n        /* \"contracts/Handler/CDSFactory.sol\":2681:2790  function getStatus(uint256 cdsId) public view returns (CDS.Status) {... */\n    tag_8:\n      tag_39\n      0x04\n      dup1\n      calldatasize\n      sub\n      dup2\n      add\n      swap1\n      tag_40\n      swap2\n      swap1\n      tag_16\n      jump\t// in\n    tag_40:\n      tag_41\n      jump\t// in\n    tag_39:\n      mload(0x40)\n      tag_42\n      swap2\n      swap1\n      tag_43\n      jump\t// in\n    tag_42:\n      mload(0x40)\n      dup1\n      swap2\n      sub\n      swap1\n      return\n        /* \"contracts/Handler/CDSFactory.sol\":2557:2677  function getSellerDeposit(uint256 cdsId) public view returns (uint256) {... */\n    tag_9:\n      tag_44\n      0x04\n      dup1\n      calldatasize\n      sub\n      dup2\n      add\n      swap1\n      tag_45\n      swap2\n      swap1\n      tag_16\n      jump\t// in\n    tag_45:\n      tag_46\n      jump\t// in\n    tag_44:\n      mload(0x40)\n      tag_47\n      swap2\n      swap1\n      tag_24\n      jump\t// in\n    tag_47:\n      mload(0x40)\n      dup1\n      swap2\n      sub\n      swap1\n      return\n        /* \"contracts/Handler/CDSFactory.sol\":2322:2441  function getPrices(uint256 cdsId) public view returns (uint256[5] memory) {... */\n    tag_10:\n      tag_48\n      0x04\n      dup1\n      calldatasize\n      sub\n      dup2\n      add\n      swap1\n      tag_49\n      swap2\n      swap1\n      tag_16\n      jump\t// in\n    tag_49:\n      tag_50\n      jump\t// in\n    tag_48:\n      mload(0x40)\n      tag_51\n      swap2\n      swap1\n      tag_52\n      jump\t// in\n    tag_51:\n      mload(0x40)\n      dup1\n      swap2\n      sub\n      swap1\n      return\n        /* \"contracts/Handler/CDSFactory.sol\":2134:2224  function getCDSId() public view returns (Counters.Counter memory) {... */\n    tag_11:\n      tag_53\n      tag_54\n      jump\t// in\n    tag_53:\n      mload(0x40)\n      tag_55\n      swap2\n      swap1\n      tag_56\n      jump\t// in\n    tag_55:\n      mload(0x40)\n      dup1\n      swap2\n      sub\n      swap1\n      return\n        /* \"contracts/Handler/CDSFactory.sol\":3014:3123  function getSeller(uint256 cdsId) public view returns (address) {... */\n    tag_12:\n      tag_57\n      0x04\n      dup1\n      calldatasize\n      sub\n      dup2\n      add\n      swap1\n      tag_58\n      swap2\n      swap1\n      tag_16\n      jump\t// in\n    tag_58:\n      tag_59\n      jump\t// in\n    tag_57:\n      mload(0x40)\n      tag_60\n      swap2\n      swap1\n      tag_38\n      jump\t// in\n    tag_60:\n      mload(0x40)\n      dup1\n      swap2\n      sub\n      swap1\n      return\n        /* \"contracts/Handler/CDSFactory.sol\":2794:2899  function getRounds(uint256 cdsId) public view returns (uint32) {... */\n    tag_17:\n        /* \"contracts/Handler/CDSFactory.sol\":2849:2855  uint32 */\n      0x00\n        /* \"contracts/Handler/CDSFactory.sol\":2870:2878  _cdsList */\n      0x01\n        /* \"contracts/Handler/CDSFactory.sol\":2870:2885  _cdsList[cdsId] */\n      0x00\n        /* \"contracts/Handler/CDSFactory.sol\":2879:2884  cdsId */\n      dup4\n        /* \"contracts/Handler/CDSFactory.sol\":2870:2885  _cdsList[cdsId] */\n      dup2\n      mstore\n      0x20\n      add\n      swap1\n      dup2\n      mstore\n      0x20\n      add\n      0x00\n      keccak256\n      0x00\n      swap1\n      sload\n      swap1\n      0x0100\n      exp\n      swap1\n      div\n      0xffffffffffffffffffffffffffffffffffffffff\n      and\n        /* \"contracts/Handler/CDSFactory.sol\":2870:2892  _cdsList[cdsId].rounds */\n      0xffffffffffffffffffffffffffffffffffffffff\n      and\n      0xa2e800ad\n        /* \"contracts/Handler/CDSFactory.sol\":2870:2894  _cdsList[cdsId].rounds() */\n      mload(0x40)\n      dup2\n      0xffffffff\n      and\n      0xe0\n      shl\n      dup2\n      mstore\n      0x04\n      add\n      0x20\n      mload(0x40)\n      dup1\n      dup4\n      sub\n      dup2\n      dup7\n      gas\n      staticcall\n      iszero\n      dup1\n      iszero\n      tag_63\n      jumpi\n      returndatasize\n      0x00\n      dup1\n      returndatacopy\n      revert(0x00, returndatasize)\n    tag_63:\n      pop\n      pop\n      pop\n      pop\n      mload(0x40)\n      returndatasize\n      not(0x1f)\n      0x1f\n      dup3\n      add\n      and\n      dup3\n      add\n      dup1\n      0x40\n      mstore\n      pop\n      dup2\n      add\n      swap1\n      tag_64\n      swap2\n      swap1\n      tag_65\n      jump\t// in\n    tag_64:\n        /* \"contracts/Handler/CDSFactory.sol\":2863:2894  return _cdsList[cdsId].rounds() */\n      swap1\n      pop\n        /* \"contracts/Handler/CDSFactory.sol\":2794:2899  function getRounds(uint256 cdsId) public view returns (uint32) {... */\n      swap2\n      swap1\n      pop\n      jump\t// out\n        /* \"contracts/Handler/CDSFactory.sol\":2445:2553  function getPremium(uint256 cdsId) public view returns (uint256) {... */\n    tag_22:\n        /* \"contracts/Handler/CDSFactory.sol\":2501:2508  uint256 */\n      0x00\n        /* \"contracts/Handler/CDSFactory.sol\":2523:2531  _cdsList */\n      0x01\n        /* \"contracts/Handler/CDSFactory.sol\":2523:2538  _cdsList[cdsId] */\n      0x00\n        /* \"contracts/Handler/CDSFactory.sol\":2532:2537  cdsId */\n      dup4\n        /* \"contracts/Handler/CDSFactory.sol\":2523:2538  _cdsList[cdsId] */\n      dup2\n      mstore\n      0x20\n      add\n      swap1\n      dup2\n      mstore\n      0x20\n      add\n      0x00\n      keccak256\n      0x00\n      swap1\n      sload\n      swap1\n      0x0100\n      exp\n      swap1\n      div\n      0xffffffffffffffffffffffffffffffffffffffff\n      and\n        /* \"contracts/Handler/CDSFactory.sol\":2523:2546  _cdsList[cdsId].premium */\n      0xffffffffffffffffffffffffffffffffffffffff\n      and\n      0xe0a73a93\n        /* \"contracts/Handler/CDSFactory.sol\":2523:2548  _cdsList[cdsId].premium() */\n      mload(0x40)\n      dup2\n      0xffffffff\n      and\n      0xe0\n      shl\n      dup2\n      mstore\n      0x04\n      add\n      0x20\n      mload(0x40)\n      dup1\n      dup4\n      sub\n      dup2\n      dup7\n      gas\n      staticcall\n      iszero\n      dup1\n      iszero\n      tag_68\n      jumpi\n      returndatasize\n      0x00\n      dup1\n      returndatacopy\n      revert(0x00, returndatasize)\n    tag_68:\n      pop\n      pop\n      pop\n      pop\n      mload(0x40)\n      returndatasize\n      not(0x1f)\n      0x1f\n      dup3\n      add\n      and\n      dup3\n      add\n      dup1\n      0x40\n      mstore\n      pop\n      dup2\n      add\n      swap1\n      tag_69\n      swap2\n      swap1\n      tag_70\n      jump\t// in\n    tag_69:\n        /* \"contracts/Handler/CDSFactory.sol\":2516:2548  return _cdsList[cdsId].premium() */\n      swap1\n      pop\n        /* \"contracts/Handler/CDSFactory.sol\":2445:2553  function getPremium(uint256 cdsId) public view returns (uint256) {... */\n      swap2\n      swap1\n      pop\n      jump\t// out\n        /* \"contracts/Handler/CDSFactory.sol\":281:327  mapping(uint256 => uint256) public nextPayDate */\n    tag_27:\n      mstore(0x20, 0x02)\n      dup1\n      0x00\n      mstore\n      keccak256(0x00, 0x40)\n      0x00\n      swap2\n      pop\n      swap1\n      pop\n      sload\n      dup2\n      jump\t// out\n        /* \"contracts/Handler/CDSFactory.sol\":2228:2318  function getCDS(uint256 cdsId) public view returns (CDS) {... */\n    tag_31:\n        /* \"contracts/Handler/CDSFactory.sol\":2280:2283  CDS */\n      0x00\n        /* \"contracts/Handler/CDSFactory.sol\":2298:2306  _cdsList */\n      0x01\n        /* \"contracts/Handler/CDSFactory.sol\":2298:2313  _cdsList[cdsId] */\n      0x00\n        /* \"contracts/Handler/CDSFactory.sol\":2307:2312  cdsId */\n      dup4\n        /* \"contracts/Handler/CDSFactory.sol\":2298:2313  _cdsList[cdsId] */\n      dup2\n      mstore\n      0x20\n      add\n      swap1\n      dup2\n      mstore\n      0x20\n      add\n      0x00\n      keccak256\n      0x00\n      swap1\n      sload\n      swap1\n      0x0100\n      exp\n      swap1\n      div\n      0xffffffffffffffffffffffffffffffffffffffff\n      and\n        /* \"contracts/Handler/CDSFactory.sol\":2291:2313  return _cdsList[cdsId] */\n      swap1\n      pop\n        /* \"contracts/Handler/CDSFactory.sol\":2228:2318  function getCDS(uint256 cdsId) public view returns (CDS) {... */\n      swap2\n      swap1\n      pop\n      jump\t// out\n        /* \"contracts/Handler/CDSFactory.sol\":2903:3010  function getBuyer(uint256 cdsId) public view returns (address) {... */\n    tag_36:\n        /* \"contracts/Handler/CDSFactory.sol\":2957:2964  address */\n      0x00\n        /* \"contracts/Handler/CDSFactory.sol\":2979:2987  _cdsList */\n      0x01\n        /* \"contracts/Handler/CDSFactory.sol\":2979:2994  _cdsList[cdsId] */\n      0x00\n        /* \"contracts/Handler/CDSFactory.sol\":2988:2993  cdsId */\n      dup4\n        /* \"contracts/Handler/CDSFactory.sol\":2979:2994  _cdsList[cdsId] */\n      dup2\n      mstore\n      0x20\n      add\n      swap1\n      dup2\n      mstore\n      0x20\n      add\n      0x00\n      keccak256\n      0x00\n      swap1\n      sload\n      swap1\n      0x0100\n      exp\n      swap1\n      div\n      0xffffffffffffffffffffffffffffffffffffffff\n      and\n        /* \"contracts/Handler/CDSFactory.sol\":2979:3003  _cdsList[cdsId].getBuyer */\n      0xffffffffffffffffffffffffffffffffffffffff\n      and\n      0x603daf9a\n        /* \"contracts/Handler/CDSFactory.sol\":2979:3005  _cdsList[cdsId].getBuyer() */\n      mload(0x40)\n      dup2\n      0xffffffff\n      and\n      0xe0\n      shl\n      dup2\n      mstore\n      0x04\n      add\n      0x20\n      mload(0x40)\n      dup1\n      dup4\n      sub\n      dup2\n      dup7\n      gas\n      staticcall\n      iszero\n      dup1\n      iszero\n      tag_74\n      jumpi\n      returndatasize\n      0x00\n      dup1\n      returndatacopy\n      revert(0x00, returndatasize)\n    tag_74:\n      pop\n      pop\n      pop\n      pop\n      mload(0x40)\n      returndatasize\n      not(0x1f)\n      0x1f\n      dup3\n      add\n      and\n      dup3\n      add\n      dup1\n      0x40\n      mstore\n      pop\n      dup2\n      add\n      swap1\n      tag_75\n      swap2\n      swap1\n      tag_76\n      jump\t// in\n    tag_75:\n        /* \"contracts/Handler/CDSFactory.sol\":2972:3005  return _cdsList[cdsId].getBuyer() */\n      swap1\n      pop\n        /* \"contracts/Handler/CDSFactory.sol\":2903:3010  function getBuyer(uint256 cdsId) public view returns (address) {... */\n      swap2\n      swap1\n      pop\n      jump\t// out\n        /* \"contracts/Handler/CDSFactory.sol\":2681:2790  function getStatus(uint256 cdsId) public view returns (CDS.Status) {... */\n    tag_41:\n        /* \"contracts/Handler/CDSFactory.sol\":2736:2746  CDS.Status */\n      0x00\n        /* \"contracts/Handler/CDSFactory.sol\":2761:2769  _cdsList */\n      0x01\n        /* \"contracts/Handler/CDSFactory.sol\":2761:2776  _cdsList[cdsId] */\n      0x00\n        /* \"contracts/Handler/CDSFactory.sol\":2770:2775  cdsId */\n      dup4\n        /* \"contracts/Handler/CDSFactory.sol\":2761:2776  _cdsList[cdsId] */\n      dup2\n      mstore\n      0x20\n      add\n      swap1\n      dup2\n      mstore\n      0x20\n      add\n      0x00\n      keccak256\n      0x00\n      swap1\n      sload\n      swap1\n      0x0100\n      exp\n      swap1\n      div\n      0xffffffffffffffffffffffffffffffffffffffff\n      and\n        /* \"contracts/Handler/CDSFactory.sol\":2761:2783  _cdsList[cdsId].status */\n      0xffffffffffffffffffffffffffffffffffffffff\n      and\n      0x200d2ed2\n        /* \"contracts/Handler/CDSFactory.sol\":2761:2785  _cdsList[cdsId].status() */\n      mload(0x40)\n      dup2\n      0xffffffff\n      and\n      0xe0\n      shl\n      dup2\n      mstore\n      0x04\n      add\n      0x20\n      mload(0x40)\n      dup1\n      dup4\n      sub\n      dup2\n      dup7\n      gas\n      staticcall\n      iszero\n      dup1\n      iszero\n      tag_79\n      jumpi\n      returndatasize\n      0x00\n      dup1\n      returndatacopy\n      revert(0x00, returndatasize)\n    tag_79:\n      pop\n      pop\n      pop\n      pop\n      mload(0x40)\n      returndatasize\n      not(0x1f)\n      0x1f\n      dup3\n      add\n      and\n      dup3\n      add\n      dup1\n      0x40\n      mstore\n      pop\n      dup2\n      add\n      swap1\n      tag_80\n      swap2\n      swap1\n      tag_81\n      jump\t// in\n    tag_80:\n        /* \"contracts/Handler/CDSFactory.sol\":2754:2785  return _cdsList[cdsId].status() */\n      swap1\n      pop\n        /* \"contracts/Handler/CDSFactory.sol\":2681:2790  function getStatus(uint256 cdsId) public view returns (CDS.Status) {... */\n      swap2\n      swap1\n      pop\n      jump\t// out\n        /* \"contracts/Handler/CDSFactory.sol\":2557:2677  function getSellerDeposit(uint256 cdsId) public view returns (uint256) {... */\n    tag_46:\n        /* \"contracts/Handler/CDSFactory.sol\":2619:2626  uint256 */\n      0x00\n        /* \"contracts/Handler/CDSFactory.sol\":2641:2649  _cdsList */\n      0x01\n        /* \"contracts/Handler/CDSFactory.sol\":2641:2656  _cdsList[cdsId] */\n      0x00\n        /* \"contracts/Handler/CDSFactory.sol\":2650:2655  cdsId */\n      dup4\n        /* \"contracts/Handler/CDSFactory.sol\":2641:2656  _cdsList[cdsId] */\n      dup2\n      mstore\n      0x20\n      add\n      swap1\n      dup2\n      mstore\n      0x20\n      add\n      0x00\n      keccak256\n      0x00\n      swap1\n      sload\n      swap1\n      0x0100\n      exp\n      swap1\n      div\n      0xffffffffffffffffffffffffffffffffffffffff\n      and\n        /* \"contracts/Handler/CDSFactory.sol\":2641:2670  _cdsList[cdsId].sellerDeposit */\n      0xffffffffffffffffffffffffffffffffffffffff\n      and\n      0x4c1786ea\n        /* \"contracts/Handler/CDSFactory.sol\":2641:2672  _cdsList[cdsId].sellerDeposit() */\n      mload(0x40)\n      dup2\n      0xffffffff\n      and\n      0xe0\n      shl\n      dup2\n      mstore\n      0x04\n      add\n      0x20\n      mload(0x40)\n      dup1\n      dup4\n      sub\n      dup2\n      dup7\n      gas\n      staticcall\n      iszero\n      dup1\n      iszero\n      tag_84\n      jumpi\n      returndatasize\n      0x00\n      dup1\n      returndatacopy\n      revert(0x00, returndatasize)\n    tag_84:\n      pop\n      pop\n      pop\n      pop\n      mload(0x40)\n      returndatasize\n      not(0x1f)\n      0x1f\n      dup3\n      add\n      and\n      dup3\n      add\n      dup1\n      0x40\n      mstore\n      pop\n      dup2\n      add\n      swap1\n      tag_85\n      swap2\n      swap1\n      tag_70\n      jump\t// in\n    tag_85:\n        /* \"contracts/Handler/CDSFactory.sol\":2634:2672  return _cdsList[cdsId].sellerDeposit() */\n      swap1\n      pop\n        /* \"contracts/Handler/CDSFactory.sol\":2557:2677  function getSellerDeposit(uint256 cdsId) public view returns (uint256) {... */\n      swap2\n      swap1\n      pop\n      jump\t// out\n        /* \"contracts/Handler/CDSFactory.sol\":2322:2441  function getPrices(uint256 cdsId) public view returns (uint256[5] memory) {... */\n    tag_50:\n        /* \"contracts/Handler/CDSFactory.sol\":2377:2394  uint256[5] memory */\n      tag_86\n      tag_87\n      jump\t// in\n    tag_86:\n        /* \"contracts/Handler/CDSFactory.sol\":2409:2417  _cdsList */\n      0x01\n        /* \"contracts/Handler/CDSFactory.sol\":2409:2424  _cdsList[cdsId] */\n      0x00\n        /* \"contracts/Handler/CDSFactory.sol\":2418:2423  cdsId */\n      dup4\n        /* \"contracts/Handler/CDSFactory.sol\":2409:2424  _cdsList[cdsId] */\n      dup2\n      mstore\n      0x20\n      add\n      swap1\n      dup2\n      mstore\n      0x20\n      add\n      0x00\n      keccak256\n      0x00\n      swap1\n      sload\n      swap1\n      0x0100\n      exp\n      swap1\n      div\n      0xffffffffffffffffffffffffffffffffffffffff\n      and\n        /* \"contracts/Handler/CDSFactory.sol\":2409:2434  _cdsList[cdsId].getPrices */\n      0xffffffffffffffffffffffffffffffffffffffff\n      and\n      0xbd9a548b\n        /* \"contracts/Handler/CDSFactory.sol\":2409:2436  _cdsList[cdsId].getPrices() */\n      mload(0x40)\n      dup2\n      0xffffffff\n      and\n      0xe0\n      shl\n      dup2\n      mstore\n      0x04\n      add\n      0xa0\n      mload(0x40)\n      dup1\n      dup4\n      sub\n      dup2\n      dup7\n      gas\n      staticcall\n      iszero\n      dup1\n      iszero\n      tag_90\n      jumpi\n      returndatasize\n      0x00\n      dup1\n      returndatacopy\n      revert(0x00, returndatasize)\n    tag_90:\n      pop\n      pop\n      pop\n      pop\n      mload(0x40)\n      returndatasize\n      not(0x1f)\n      0x1f\n      dup3\n      add\n      and\n      dup3\n      add\n      dup1\n      0x40\n      mstore\n      pop\n      dup2\n      add\n      swap1\n      tag_91\n      swap2\n      swap1\n      tag_92\n      jump\t// in\n    tag_91:\n        /* \"contracts/Handler/CDSFactory.sol\":2402:2436  return _cdsList[cdsId].getPrices() */\n      swap1\n      pop\n        /* \"contracts/Handler/CDSFactory.sol\":2322:2441  function getPrices(uint256 cdsId) public view returns (uint256[5] memory) {... */\n      swap2\n      swap1\n      pop\n      jump\t// out\n        /* \"contracts/Handler/CDSFactory.sol\":2134:2224  function getCDSId() public view returns (Counters.Counter memory) {... */\n    tag_54:\n        /* \"contracts/Handler/CDSFactory.sol\":2175:2198  Counters.Counter memory */\n      tag_93\n      tag_94\n      jump\t// in\n    tag_93:\n        /* \"contracts/Handler/CDSFactory.sol\":2213:2219  _cdsId */\n      0x00\n        /* \"contracts/Handler/CDSFactory.sol\":2206:2219  return _cdsId */\n      mload(0x40)\n      dup1\n      0x20\n      add\n      0x40\n      mstore\n      swap1\n      dup2\n      0x00\n      dup3\n      add\n      sload\n      dup2\n      mstore\n      pop\n      pop\n      swap1\n      pop\n        /* \"contracts/Handler/CDSFactory.sol\":2134:2224  function getCDSId() public view returns (Counters.Counter memory) {... */\n      swap1\n      jump\t// out\n        /* \"contracts/Handler/CDSFactory.sol\":3014:3123  function getSeller(uint256 cdsId) public view returns (address) {... */\n    tag_59:\n        /* \"contracts/Handler/CDSFactory.sol\":3069:3076  address */\n      0x00\n        /* \"contracts/Handler/CDSFactory.sol\":3091:3099  _cdsList */\n      0x01\n        /* \"contracts/Handler/CDSFactory.sol\":3091:3106  _cdsList[cdsId] */\n      0x00\n        /* \"contracts/Handler/CDSFactory.sol\":3100:3105  cdsId */\n      dup4\n        /* \"contracts/Handler/CDSFactory.sol\":3091:3106  _cdsList[cdsId] */\n      dup2\n      mstore\n      0x20\n      add\n      swap1\n      dup2\n      mstore\n      0x20\n      add\n      0x00\n      keccak256\n      0x00\n      swap1\n      sload\n      swap1\n      0x0100\n      exp\n      swap1\n      div\n      0xffffffffffffffffffffffffffffffffffffffff\n      and\n        /* \"contracts/Handler/CDSFactory.sol\":3091:3116  _cdsList[cdsId].getSeller */\n      0xffffffffffffffffffffffffffffffffffffffff\n      and\n      0xdbd0e1b6\n        /* \"contracts/Handler/CDSFactory.sol\":3091:3118  _cdsList[cdsId].getSeller() */\n      mload(0x40)\n      dup2\n      0xffffffff\n      and\n      0xe0\n      shl\n      dup2\n      mstore\n      0x04\n      add\n      0x20\n      mload(0x40)\n      dup1\n      dup4\n      sub\n      dup2\n      dup7\n      gas\n      staticcall\n      iszero\n      dup1\n      iszero\n      tag_98\n      jumpi\n      returndatasize\n      0x00\n      dup1\n      returndatacopy\n      revert(0x00, returndatasize)\n    tag_98:\n      pop\n      pop\n      pop\n      pop\n      mload(0x40)\n      returndatasize\n      not(0x1f)\n      0x1f\n      dup3\n      add\n      and\n      dup3\n      add\n      dup1\n      0x40\n      mstore\n      pop\n      dup2\n      add\n      swap1\n      tag_99\n      swap2\n      swap1\n      tag_76\n      jump\t// in\n    tag_99:\n        /* \"contracts/Handler/CDSFactory.sol\":3084:3118  return _cdsList[cdsId].getSeller() */\n      swap1\n      pop\n        /* \"contracts/Handler/CDSFactory.sol\":3014:3123  function getSeller(uint256 cdsId) public view returns (address) {... */\n      swap2\n      swap1\n      pop\n      jump\t// out\n    tag_87:\n      mload(0x40)\n      dup1\n      0xa0\n      add\n      0x40\n      mstore\n      dup1\n      0x05\n      swap1\n      0x20\n      dup3\n      mul\n      dup1\n      calldatasize\n      dup4\n      calldatacopy\n      dup1\n      dup3\n      add\n      swap2\n      pop\n      pop\n      swap1\n      pop\n      pop\n      swap1\n      jump\t// out\n    tag_94:\n      mload(0x40)\n      dup1\n      0x20\n      add\n      0x40\n      mstore\n      dup1\n      0x00\n      dup2\n      mstore\n      pop\n      swap1\n      jump\t// out\n        /* \"#utility.yul\":7:82   */\n    tag_100:\n        /* \"#utility.yul\":40:46   */\n      0x00\n        /* \"#utility.yul\":73:75   */\n      0x40\n        /* \"#utility.yul\":67:76   */\n      mload\n        /* \"#utility.yul\":57:76   */\n      swap1\n      pop\n        /* \"#utility.yul\":7:82   */\n      swap1\n      jump\t// out\n        /* \"#utility.yul\":88:205   */\n    tag_101:\n        /* \"#utility.yul\":197:198   */\n      0x00\n        /* \"#utility.yul\":194:195   */\n      dup1\n        /* \"#utility.yul\":187:199   */\n      revert\n        /* \"#utility.yul\":334:411   */\n    tag_103:\n        /* \"#utility.yul\":371:378   */\n      0x00\n        /* \"#utility.yul\":400:405   */\n      dup2\n        /* \"#utility.yul\":389:405   */\n      swap1\n      pop\n        /* \"#utility.yul\":334:411   */\n      swap2\n      swap1\n      pop\n      jump\t// out\n        /* \"#utility.yul\":417:539   */\n    tag_104:\n        /* \"#utility.yul\":490:514   */\n      tag_152\n        /* \"#utility.yul\":508:513   */\n      dup2\n        /* \"#utility.yul\":490:514   */\n      tag_103\n      jump\t// in\n    tag_152:\n        /* \"#utility.yul\":483:488   */\n      dup2\n        /* \"#utility.yul\":480:515   */\n      eq\n        /* \"#utility.yul\":470:533   */\n      tag_153\n      jumpi\n        /* \"#utility.yul\":529:530   */\n      0x00\n        /* \"#utility.yul\":526:527   */\n      dup1\n        /* \"#utility.yul\":519:531   */\n      revert\n        /* \"#utility.yul\":470:533   */\n    tag_153:\n        /* \"#utility.yul\":417:539   */\n      pop\n      jump\t// out\n        /* \"#utility.yul\":545:684   */\n    tag_105:\n        /* \"#utility.yul\":591:596   */\n      0x00\n        /* \"#utility.yul\":629:635   */\n      dup2\n        /* \"#utility.yul\":616:636   */\n      calldataload\n        /* \"#utility.yul\":607:636   */\n      swap1\n      pop\n        /* \"#utility.yul\":645:678   */\n      tag_155\n        /* \"#utility.yul\":672:677   */\n      dup2\n        /* \"#utility.yul\":645:678   */\n      tag_104\n      jump\t// in\n    tag_155:\n        /* \"#utility.yul\":545:684   */\n      swap3\n      swap2\n      pop\n      pop\n      jump\t// out\n        /* \"#utility.yul\":690:1019   */\n    tag_16:\n        /* \"#utility.yul\":749:755   */\n      0x00\n        /* \"#utility.yul\":798:800   */\n      0x20\n        /* \"#utility.yul\":786:795   */\n      dup3\n        /* \"#utility.yul\":777:784   */\n      dup5\n        /* \"#utility.yul\":773:796   */\n      sub\n        /* \"#utility.yul\":769:801   */\n      slt\n        /* \"#utility.yul\":766:885   */\n      iszero\n      tag_157\n      jumpi\n        /* \"#utility.yul\":804:883   */\n      tag_158\n      tag_101\n      jump\t// in\n    tag_158:\n        /* \"#utility.yul\":766:885   */\n    tag_157:\n        /* \"#utility.yul\":924:925   */\n      0x00\n        /* \"#utility.yul\":949:1002   */\n      tag_159\n        /* \"#utility.yul\":994:1001   */\n      dup5\n        /* \"#utility.yul\":985:991   */\n      dup3\n        /* \"#utility.yul\":974:983   */\n      dup6\n        /* \"#utility.yul\":970:992   */\n      add\n        /* \"#utility.yul\":949:1002   */\n      tag_105\n      jump\t// in\n    tag_159:\n        /* \"#utility.yul\":939:1002   */\n      swap2\n      pop\n        /* \"#utility.yul\":895:1012   */\n      pop\n        /* \"#utility.yul\":690:1019   */\n      swap3\n      swap2\n      pop\n      pop\n      jump\t// out\n        /* \"#utility.yul\":1025:1118   */\n    tag_106:\n        /* \"#utility.yul\":1061:1068   */\n      0x00\n        /* \"#utility.yul\":1101:1111   */\n      0xffffffff\n        /* \"#utility.yul\":1094:1099   */\n      dup3\n        /* \"#utility.yul\":1090:1112   */\n      and\n        /* \"#utility.yul\":1079:1112   */\n      swap1\n      pop\n        /* \"#utility.yul\":1025:1118   */\n      swap2\n      swap1\n      pop\n      jump\t// out\n        /* \"#utility.yul\":1124:1239   */\n    tag_107:\n        /* \"#utility.yul\":1209:1232   */\n      tag_162\n        /* \"#utility.yul\":1226:1231   */\n      dup2\n        /* \"#utility.yul\":1209:1232   */\n      tag_106\n      jump\t// in\n    tag_162:\n        /* \"#utility.yul\":1204:1207   */\n      dup3\n        /* \"#utility.yul\":1197:1233   */\n      mstore\n        /* \"#utility.yul\":1124:1239   */\n      pop\n      pop\n      jump\t// out\n        /* \"#utility.yul\":1245:1463   */\n    tag_19:\n        /* \"#utility.yul\":1336:1340   */\n      0x00\n        /* \"#utility.yul\":1374:1376   */\n      0x20\n        /* \"#utility.yul\":1363:1372   */\n      dup3\n        /* \"#utility.yul\":1359:1377   */\n      add\n        /* \"#utility.yul\":1351:1377   */\n      swap1\n      pop\n        /* \"#utility.yul\":1387:1456   */\n      tag_164\n        /* \"#utility.yul\":1453:1454   */\n      0x00\n        /* \"#utility.yul\":1442:1451   */\n      dup4\n        /* \"#utility.yul\":1438:1455   */\n      add\n        /* \"#utility.yul\":1429:1435   */\n      dup5\n        /* \"#utility.yul\":1387:1456   */\n      tag_107\n      jump\t// in\n    tag_164:\n        /* \"#utility.yul\":1245:1463   */\n      swap3\n      swap2\n      pop\n      pop\n      jump\t// out\n        /* \"#utility.yul\":1469:1587   */\n    tag_108:\n        /* \"#utility.yul\":1556:1580   */\n      tag_166\n        /* \"#utility.yul\":1574:1579   */\n      dup2\n        /* \"#utility.yul\":1556:1580   */\n      tag_103\n      jump\t// in\n    tag_166:\n        /* \"#utility.yul\":1551:1554   */\n      dup3\n        /* \"#utility.yul\":1544:1581   */\n      mstore\n        /* \"#utility.yul\":1469:1587   */\n      pop\n      pop\n      jump\t// out\n        /* \"#utility.yul\":1593:1815   */\n    tag_24:\n        /* \"#utility.yul\":1686:1690   */\n      0x00\n        /* \"#utility.yul\":1724:1726   */\n      0x20\n        /* \"#utility.yul\":1713:1722   */\n      dup3\n        /* \"#utility.yul\":1709:1727   */\n      add\n        /* \"#utility.yul\":1701:1727   */\n      swap1\n      pop\n        /* \"#utility.yul\":1737:1808   */\n      tag_168\n        /* \"#utility.yul\":1805:1806   */\n      0x00\n        /* \"#utility.yul\":1794:1803   */\n      dup4\n        /* \"#utility.yul\":1790:1807   */\n      add\n        /* \"#utility.yul\":1781:1787   */\n      dup5\n        /* \"#utility.yul\":1737:1808   */\n      tag_108\n      jump\t// in\n    tag_168:\n        /* \"#utility.yul\":1593:1815   */\n      swap3\n      swap2\n      pop\n      pop\n      jump\t// out\n        /* \"#utility.yul\":1821:1947   */\n    tag_109:\n        /* \"#utility.yul\":1858:1865   */\n      0x00\n        /* \"#utility.yul\":1898:1940   */\n      0xffffffffffffffffffffffffffffffffffffffff\n        /* \"#utility.yul\":1891:1896   */\n      dup3\n        /* \"#utility.yul\":1887:1941   */\n      and\n        /* \"#utility.yul\":1876:1941   */\n      swap1\n      pop\n        /* \"#utility.yul\":1821:1947   */\n      swap2\n      swap1\n      pop\n      jump\t// out\n        /* \"#utility.yul\":1953:2013   */\n    tag_110:\n        /* \"#utility.yul\":1981:1984   */\n      0x00\n        /* \"#utility.yul\":2002:2007   */\n      dup2\n        /* \"#utility.yul\":1995:2007   */\n      swap1\n      pop\n        /* \"#utility.yul\":1953:2013   */\n      swap2\n      swap1\n      pop\n      jump\t// out\n        /* \"#utility.yul\":2019:2161   */\n    tag_111:\n        /* \"#utility.yul\":2069:2078   */\n      0x00\n        /* \"#utility.yul\":2102:2155   */\n      tag_172\n        /* \"#utility.yul\":2120:2154   */\n      tag_173\n        /* \"#utility.yul\":2129:2153   */\n      tag_174\n        /* \"#utility.yul\":2147:2152   */\n      dup5\n        /* \"#utility.yul\":2129:2153   */\n      tag_109\n      jump\t// in\n    tag_174:\n        /* \"#utility.yul\":2120:2154   */\n      tag_110\n      jump\t// in\n    tag_173:\n        /* \"#utility.yul\":2102:2155   */\n      tag_109\n      jump\t// in\n    tag_172:\n        /* \"#utility.yul\":2089:2155   */\n      swap1\n      pop\n        /* \"#utility.yul\":2019:2161   */\n      swap2\n      swap1\n      pop\n      jump\t// out\n        /* \"#utility.yul\":2167:2293   */\n    tag_112:\n        /* \"#utility.yul\":2217:2226   */\n      0x00\n        /* \"#utility.yul\":2250:2287   */\n      tag_176\n        /* \"#utility.yul\":2281:2286   */\n      dup3\n        /* \"#utility.yul\":2250:2287   */\n      tag_111\n      jump\t// in\n    tag_176:\n        /* \"#utility.yul\":2237:2287   */\n      swap1\n      pop\n        /* \"#utility.yul\":2167:2293   */\n      swap2\n      swap1\n      pop\n      jump\t// out\n        /* \"#utility.yul\":2299:2436   */\n    tag_113:\n        /* \"#utility.yul\":2360:2369   */\n      0x00\n        /* \"#utility.yul\":2393:2430   */\n      tag_178\n        /* \"#utility.yul\":2424:2429   */\n      dup3\n        /* \"#utility.yul\":2393:2430   */\n      tag_112\n      jump\t// in\n    tag_178:\n        /* \"#utility.yul\":2380:2430   */\n      swap1\n      pop\n        /* \"#utility.yul\":2299:2436   */\n      swap2\n      swap1\n      pop\n      jump\t// out\n        /* \"#utility.yul\":2442:2595   */\n    tag_114:\n        /* \"#utility.yul\":2540:2588   */\n      tag_180\n        /* \"#utility.yul\":2582:2587   */\n      dup2\n        /* \"#utility.yul\":2540:2588   */\n      tag_113\n      jump\t// in\n    tag_180:\n        /* \"#utility.yul\":2535:2538   */\n      dup3\n        /* \"#utility.yul\":2528:2589   */\n      mstore\n        /* \"#utility.yul\":2442:2595   */\n      pop\n      pop\n      jump\t// out\n        /* \"#utility.yul\":2601:2845   */\n    tag_33:\n        /* \"#utility.yul\":2705:2709   */\n      0x00\n        /* \"#utility.yul\":2743:2745   */\n      0x20\n        /* \"#utility.yul\":2732:2741   */\n      dup3\n        /* \"#utility.yul\":2728:2746   */\n      add\n        /* \"#utility.yul\":2720:2746   */\n      swap1\n      pop\n        /* \"#utility.yul\":2756:2838   */\n      tag_182\n        /* \"#utility.yul\":2835:2836   */\n      0x00\n        /* \"#utility.yul\":2824:2833   */\n      dup4\n        /* \"#utility.yul\":2820:2837   */\n      add\n        /* \"#utility.yul\":2811:2817   */\n      dup5\n        /* \"#utility.yul\":2756:2838   */\n      tag_114\n      jump\t// in\n    tag_182:\n        /* \"#utility.yul\":2601:2845   */\n      swap3\n      swap2\n      pop\n      pop\n      jump\t// out\n        /* \"#utility.yul\":2851:2947   */\n    tag_115:\n        /* \"#utility.yul\":2888:2895   */\n      0x00\n        /* \"#utility.yul\":2917:2941   */\n      tag_184\n        /* \"#utility.yul\":2935:2940   */\n      dup3\n        /* \"#utility.yul\":2917:2941   */\n      tag_109\n      jump\t// in\n    tag_184:\n        /* \"#utility.yul\":2906:2941   */\n      swap1\n      pop\n        /* \"#utility.yul\":2851:2947   */\n      swap2\n      swap1\n      pop\n      jump\t// out\n        /* \"#utility.yul\":2953:3071   */\n    tag_116:\n        /* \"#utility.yul\":3040:3064   */\n      tag_186\n        /* \"#utility.yul\":3058:3063   */\n      dup2\n        /* \"#utility.yul\":3040:3064   */\n      tag_115\n      jump\t// in\n    tag_186:\n        /* \"#utility.yul\":3035:3038   */\n      dup3\n        /* \"#utility.yul\":3028:3065   */\n      mstore\n        /* \"#utility.yul\":2953:3071   */\n      pop\n      pop\n      jump\t// out\n        /* \"#utility.yul\":3077:3299   */\n    tag_38:\n        /* \"#utility.yul\":3170:3174   */\n      0x00\n        /* \"#utility.yul\":3208:3210   */\n      0x20\n        /* \"#utility.yul\":3197:3206   */\n      dup3\n        /* \"#utility.yul\":3193:3211   */\n      add\n        /* \"#utility.yul\":3185:3211   */\n      swap1\n      pop\n        /* \"#utility.yul\":3221:3292   */\n      tag_188\n        /* \"#utility.yul\":3289:3290   */\n      0x00\n        /* \"#utility.yul\":3278:3287   */\n      dup4\n        /* \"#utility.yul\":3274:3291   */\n      add\n        /* \"#utility.yul\":3265:3271   */\n      dup5\n        /* \"#utility.yul\":3221:3292   */\n      tag_116\n      jump\t// in\n    tag_188:\n        /* \"#utility.yul\":3077:3299   */\n      swap3\n      swap2\n      pop\n      pop\n      jump\t// out\n        /* \"#utility.yul\":3305:3485   */\n    tag_117:\n        /* \"#utility.yul\":3353:3430   */\n      0x4e487b7100000000000000000000000000000000000000000000000000000000\n        /* \"#utility.yul\":3350:3351   */\n      0x00\n        /* \"#utility.yul\":3343:3431   */\n      mstore\n        /* \"#utility.yul\":3450:3454   */\n      0x21\n        /* \"#utility.yul\":3447:3448   */\n      0x04\n        /* \"#utility.yul\":3440:3455   */\n      mstore\n        /* \"#utility.yul\":3474:3478   */\n      0x24\n        /* \"#utility.yul\":3471:3472   */\n      0x00\n        /* \"#utility.yul\":3464:3479   */\n      revert\n        /* \"#utility.yul\":3491:3606   */\n    tag_118:\n        /* \"#utility.yul\":3574:3575   */\n      0x05\n        /* \"#utility.yul\":3567:3572   */\n      dup2\n        /* \"#utility.yul\":3564:3576   */\n      lt\n        /* \"#utility.yul\":3554:3600   */\n      tag_191\n      jumpi\n        /* \"#utility.yul\":3580:3598   */\n      tag_192\n      tag_117\n      jump\t// in\n    tag_192:\n        /* \"#utility.yul\":3554:3600   */\n    tag_191:\n        /* \"#utility.yul\":3491:3606   */\n      pop\n      jump\t// out\n        /* \"#utility.yul\":3612:3743   */\n    tag_119:\n        /* \"#utility.yul\":3659:3666   */\n      0x00\n        /* \"#utility.yul\":3688:3693   */\n      dup2\n        /* \"#utility.yul\":3677:3693   */\n      swap1\n      pop\n        /* \"#utility.yul\":3694:3737   */\n      tag_194\n        /* \"#utility.yul\":3731:3736   */\n      dup3\n        /* \"#utility.yul\":3694:3737   */\n      tag_118\n      jump\t// in\n    tag_194:\n        /* \"#utility.yul\":3612:3743   */\n      swap2\n      swap1\n      pop\n      jump\t// out\n        /* \"#utility.yul\":3749:3880   */\n    tag_120:\n        /* \"#utility.yul\":3807:3816   */\n      0x00\n        /* \"#utility.yul\":3840:3874   */\n      tag_196\n        /* \"#utility.yul\":3868:3873   */\n      dup3\n        /* \"#utility.yul\":3840:3874   */\n      tag_119\n      jump\t// in\n    tag_196:\n        /* \"#utility.yul\":3827:3874   */\n      swap1\n      pop\n        /* \"#utility.yul\":3749:3880   */\n      swap2\n      swap1\n      pop\n      jump\t// out\n        /* \"#utility.yul\":3886:4033   */\n    tag_121:\n        /* \"#utility.yul\":3981:4026   */\n      tag_198\n        /* \"#utility.yul\":4020:4025   */\n      dup2\n        /* \"#utility.yul\":3981:4026   */\n      tag_120\n      jump\t// in\n    tag_198:\n        /* \"#utility.yul\":3976:3979   */\n      dup3\n        /* \"#utility.yul\":3969:4027   */\n      mstore\n        /* \"#utility.yul\":3886:4033   */\n      pop\n      pop\n      jump\t// out\n        /* \"#utility.yul\":4039:4277   */\n    tag_43:\n        /* \"#utility.yul\":4140:4144   */\n      0x00\n        /* \"#utility.yul\":4178:4180   */\n      0x20\n        /* \"#utility.yul\":4167:4176   */\n      dup3\n        /* \"#utility.yul\":4163:4181   */\n      add\n        /* \"#utility.yul\":4155:4181   */\n      swap1\n      pop\n        /* \"#utility.yul\":4191:4270   */\n      tag_200\n        /* \"#utility.yul\":4267:4268   */\n      0x00\n        /* \"#utility.yul\":4256:4265   */\n      dup4\n        /* \"#utility.yul\":4252:4269   */\n      add\n        /* \"#utility.yul\":4243:4249   */\n      dup5\n        /* \"#utility.yul\":4191:4270   */\n      tag_121\n      jump\t// in\n    tag_200:\n        /* \"#utility.yul\":4039:4277   */\n      swap3\n      swap2\n      pop\n      pop\n      jump\t// out\n        /* \"#utility.yul\":4283:4387   */\n    tag_122:\n        /* \"#utility.yul\":4348:4354   */\n      0x00\n        /* \"#utility.yul\":4376:4380   */\n      0x05\n        /* \"#utility.yul\":4366:4380   */\n      swap1\n      pop\n        /* \"#utility.yul\":4283:4387   */\n      swap2\n      swap1\n      pop\n      jump\t// out\n        /* \"#utility.yul\":4393:4536   */\n    tag_123:\n        /* \"#utility.yul\":4490:4501   */\n      0x00\n        /* \"#utility.yul\":4527:4530   */\n      dup2\n        /* \"#utility.yul\":4512:4530   */\n      swap1\n      pop\n        /* \"#utility.yul\":4393:4536   */\n      swap3\n      swap2\n      pop\n      pop\n      jump\t// out\n        /* \"#utility.yul\":4542:4640   */\n    tag_124:\n        /* \"#utility.yul\":4607:4611   */\n      0x00\n        /* \"#utility.yul\":4630:4633   */\n      dup2\n        /* \"#utility.yul\":4622:4633   */\n      swap1\n      pop\n        /* \"#utility.yul\":4542:4640   */\n      swap2\n      swap1\n      pop\n      jump\t// out\n        /* \"#utility.yul\":4646:4754   */\n    tag_125:\n        /* \"#utility.yul\":4723:4747   */\n      tag_205\n        /* \"#utility.yul\":4741:4746   */\n      dup2\n        /* \"#utility.yul\":4723:4747   */\n      tag_103\n      jump\t// in\n    tag_205:\n        /* \"#utility.yul\":4718:4721   */\n      dup3\n        /* \"#utility.yul\":4711:4748   */\n      mstore\n        /* \"#utility.yul\":4646:4754   */\n      pop\n      pop\n      jump\t// out\n        /* \"#utility.yul\":4760:4939   */\n    tag_126:\n        /* \"#utility.yul\":4829:4839   */\n      0x00\n        /* \"#utility.yul\":4850:4896   */\n      tag_207\n        /* \"#utility.yul\":4892:4895   */\n      dup4\n        /* \"#utility.yul\":4884:4890   */\n      dup4\n        /* \"#utility.yul\":4850:4896   */\n      tag_125\n      jump\t// in\n    tag_207:\n        /* \"#utility.yul\":4928:4932   */\n      0x20\n        /* \"#utility.yul\":4923:4926   */\n      dup4\n        /* \"#utility.yul\":4919:4933   */\n      add\n        /* \"#utility.yul\":4905:4933   */\n      swap1\n      pop\n        /* \"#utility.yul\":4760:4939   */\n      swap3\n      swap2\n      pop\n      pop\n      jump\t// out\n        /* \"#utility.yul\":4945:5056   */\n    tag_127:\n        /* \"#utility.yul\":5013:5017   */\n      0x00\n        /* \"#utility.yul\":5045:5049   */\n      0x20\n        /* \"#utility.yul\":5040:5043   */\n      dup3\n        /* \"#utility.yul\":5036:5050   */\n      add\n        /* \"#utility.yul\":5028:5050   */\n      swap1\n      pop\n        /* \"#utility.yul\":4945:5056   */\n      swap2\n      swap1\n      pop\n      jump\t// out\n        /* \"#utility.yul\":5094:5788   */\n    tag_128:\n        /* \"#utility.yul\":5230:5282   */\n      tag_210\n        /* \"#utility.yul\":5276:5281   */\n      dup2\n        /* \"#utility.yul\":5230:5282   */\n      tag_122\n      jump\t// in\n    tag_210:\n        /* \"#utility.yul\":5298:5382   */\n      tag_211\n        /* \"#utility.yul\":5375:5381   */\n      dup2\n        /* \"#utility.yul\":5370:5373   */\n      dup5\n        /* \"#utility.yul\":5298:5382   */\n      tag_123\n      jump\t// in\n    tag_211:\n        /* \"#utility.yul\":5291:5382   */\n      swap3\n      pop\n        /* \"#utility.yul\":5406:5460   */\n      tag_212\n        /* \"#utility.yul\":5454:5459   */\n      dup3\n        /* \"#utility.yul\":5406:5460   */\n      tag_124\n      jump\t// in\n    tag_212:\n        /* \"#utility.yul\":5483:5490   */\n      dup1\n        /* \"#utility.yul\":5514:5515   */\n      0x00\n        /* \"#utility.yul\":5499:5781   */\n    tag_213:\n        /* \"#utility.yul\":5524:5530   */\n      dup4\n        /* \"#utility.yul\":5521:5522   */\n      dup2\n        /* \"#utility.yul\":5518:5531   */\n      lt\n        /* \"#utility.yul\":5499:5781   */\n      iszero\n      tag_215\n      jumpi\n        /* \"#utility.yul\":5600:5606   */\n      dup2\n        /* \"#utility.yul\":5594:5607   */\n      mload\n        /* \"#utility.yul\":5627:5690   */\n      tag_216\n        /* \"#utility.yul\":5686:5689   */\n      dup8\n        /* \"#utility.yul\":5671:5684   */\n      dup3\n        /* \"#utility.yul\":5627:5690   */\n      tag_126\n      jump\t// in\n    tag_216:\n        /* \"#utility.yul\":5620:5690   */\n      swap7\n      pop\n        /* \"#utility.yul\":5713:5771   */\n      tag_217\n        /* \"#utility.yul\":5764:5770   */\n      dup4\n        /* \"#utility.yul\":5713:5771   */\n      tag_127\n      jump\t// in\n    tag_217:\n        /* \"#utility.yul\":5703:5771   */\n      swap3\n      pop\n        /* \"#utility.yul\":5559:5781   */\n      pop\n        /* \"#utility.yul\":5546:5547   */\n      0x01\n        /* \"#utility.yul\":5543:5544   */\n      dup2\n        /* \"#utility.yul\":5539:5548   */\n      add\n        /* \"#utility.yul\":5534:5548   */\n      swap1\n      pop\n        /* \"#utility.yul\":5499:5781   */\n      jump(tag_213)\n    tag_215:\n        /* \"#utility.yul\":5503:5517   */\n      pop\n        /* \"#utility.yul\":5206:5788   */\n      pop\n      pop\n      pop\n        /* \"#utility.yul\":5094:5788   */\n      pop\n      pop\n      jump\t// out\n        /* \"#utility.yul\":5794:6109   */\n    tag_52:\n        /* \"#utility.yul\":5933:5937   */\n      0x00\n        /* \"#utility.yul\":5971:5974   */\n      0xa0\n        /* \"#utility.yul\":5960:5969   */\n      dup3\n        /* \"#utility.yul\":5956:5975   */\n      add\n        /* \"#utility.yul\":5948:5975   */\n      swap1\n      pop\n        /* \"#utility.yul\":5985:6102   */\n      tag_219\n        /* \"#utility.yul\":6099:6100   */\n      0x00\n        /* \"#utility.yul\":6088:6097   */\n      dup4\n        /* \"#utility.yul\":6084:6101   */\n      add\n        /* \"#utility.yul\":6075:6081   */\n      dup5\n        /* \"#utility.yul\":5985:6102   */\n      tag_128\n      jump\t// in\n    tag_219:\n        /* \"#utility.yul\":5794:6109   */\n      swap3\n      swap2\n      pop\n      pop\n      jump\t// out\n        /* \"#utility.yul\":6173:6506   */\n    tag_129:\n        /* \"#utility.yul\":6318:6322   */\n      0x20\n        /* \"#utility.yul\":6313:6316   */\n      dup3\n        /* \"#utility.yul\":6309:6323   */\n      add\n        /* \"#utility.yul\":6407:6411   */\n      0x00\n        /* \"#utility.yul\":6400:6405   */\n      dup3\n        /* \"#utility.yul\":6396:6412   */\n      add\n        /* \"#utility.yul\":6390:6413   */\n      mload\n        /* \"#utility.yul\":6426:6489   */\n      tag_221\n        /* \"#utility.yul\":6483:6487   */\n      0x00\n        /* \"#utility.yul\":6478:6481   */\n      dup6\n        /* \"#utility.yul\":6474:6488   */\n      add\n        /* \"#utility.yul\":6460:6472   */\n      dup3\n        /* \"#utility.yul\":6426:6489   */\n      tag_125\n      jump\t// in\n    tag_221:\n        /* \"#utility.yul\":6333:6499   */\n      pop\n        /* \"#utility.yul\":6287:6506   */\n      pop\n        /* \"#utility.yul\":6173:6506   */\n      pop\n      pop\n      jump\t// out\n        /* \"#utility.yul\":6512:6830   */\n    tag_56:\n        /* \"#utility.yul\":6653:6657   */\n      0x00\n        /* \"#utility.yul\":6691:6693   */\n      0x20\n        /* \"#utility.yul\":6680:6689   */\n      dup3\n        /* \"#utility.yul\":6676:6694   */\n      add\n        /* \"#utility.yul\":6668:6694   */\n      swap1\n      pop\n        /* \"#utility.yul\":6704:6823   */\n      tag_223\n        /* \"#utility.yul\":6820:6821   */\n      0x00\n        /* \"#utility.yul\":6809:6818   */\n      dup4\n        /* \"#utility.yul\":6805:6822   */\n      add\n        /* \"#utility.yul\":6796:6802   */\n      dup5\n        /* \"#utility.yul\":6704:6823   */\n      tag_129\n      jump\t// in\n    tag_223:\n        /* \"#utility.yul\":6512:6830   */\n      swap3\n      swap2\n      pop\n      pop\n      jump\t// out\n        /* \"#utility.yul\":6836:6956   */\n    tag_130:\n        /* \"#utility.yul\":6908:6931   */\n      tag_225\n        /* \"#utility.yul\":6925:6930   */\n      dup2\n        /* \"#utility.yul\":6908:6931   */\n      tag_106\n      jump\t// in\n    tag_225:\n        /* \"#utility.yul\":6901:6906   */\n      dup2\n        /* \"#utility.yul\":6898:6932   */\n      eq\n        /* \"#utility.yul\":6888:6950   */\n      tag_226\n      jumpi\n        /* \"#utility.yul\":6946:6947   */\n      0x00\n        /* \"#utility.yul\":6943:6944   */\n      dup1\n        /* \"#utility.yul\":6936:6948   */\n      revert\n        /* \"#utility.yul\":6888:6950   */\n    tag_226:\n        /* \"#utility.yul\":6836:6956   */\n      pop\n      jump\t// out\n        /* \"#utility.yul\":6962:7103   */\n    tag_131:\n        /* \"#utility.yul\":7018:7023   */\n      0x00\n        /* \"#utility.yul\":7049:7055   */\n      dup2\n        /* \"#utility.yul\":7043:7056   */\n      mload\n        /* \"#utility.yul\":7034:7056   */\n      swap1\n      pop\n        /* \"#utility.yul\":7065:7097   */\n      tag_228\n        /* \"#utility.yul\":7091:7096   */\n      dup2\n        /* \"#utility.yul\":7065:7097   */\n      tag_130\n      jump\t// in\n    tag_228:\n        /* \"#utility.yul\":6962:7103   */\n      swap3\n      swap2\n      pop\n      pop\n      jump\t// out\n        /* \"#utility.yul\":7109:7458   */\n    tag_65:\n        /* \"#utility.yul\":7178:7184   */\n      0x00\n        /* \"#utility.yul\":7227:7229   */\n      0x20\n        /* \"#utility.yul\":7215:7224   */\n      dup3\n        /* \"#utility.yul\":7206:7213   */\n      dup5\n        /* \"#utility.yul\":7202:7225   */\n      sub\n        /* \"#utility.yul\":7198:7230   */\n      slt\n        /* \"#utility.yul\":7195:7314   */\n      iszero\n      tag_230\n      jumpi\n        /* \"#utility.yul\":7233:7312   */\n      tag_231\n      tag_101\n      jump\t// in\n    tag_231:\n        /* \"#utility.yul\":7195:7314   */\n    tag_230:\n        /* \"#utility.yul\":7353:7354   */\n      0x00\n        /* \"#utility.yul\":7378:7441   */\n      tag_232\n        /* \"#utility.yul\":7433:7440   */\n      dup5\n        /* \"#utility.yul\":7424:7430   */\n      dup3\n        /* \"#utility.yul\":7413:7422   */\n      dup6\n        /* \"#utility.yul\":7409:7431   */\n      add\n        /* \"#utility.yul\":7378:7441   */\n      tag_131\n      jump\t// in\n    tag_232:\n        /* \"#utility.yul\":7368:7441   */\n      swap2\n      pop\n        /* \"#utility.yul\":7324:7451   */\n      pop\n        /* \"#utility.yul\":7109:7458   */\n      swap3\n      swap2\n      pop\n      pop\n      jump\t// out\n        /* \"#utility.yul\":7464:7607   */\n    tag_132:\n        /* \"#utility.yul\":7521:7526   */\n      0x00\n        /* \"#utility.yul\":7552:7558   */\n      dup2\n        /* \"#utility.yul\":7546:7559   */\n      mload\n        /* \"#utility.yul\":7537:7559   */\n      swap1\n      pop\n        /* \"#utility.yul\":7568:7601   */\n      tag_234\n        /* \"#utility.yul\":7595:7600   */\n      dup2\n        /* \"#utility.yul\":7568:7601   */\n      tag_104\n      jump\t// in\n    tag_234:\n        /* \"#utility.yul\":7464:7607   */\n      swap3\n      swap2\n      pop\n      pop\n      jump\t// out\n        /* \"#utility.yul\":7613:7964   */\n    tag_70:\n        /* \"#utility.yul\":7683:7689   */\n      0x00\n        /* \"#utility.yul\":7732:7734   */\n      0x20\n        /* \"#utility.yul\":7720:7729   */\n      dup3\n        /* \"#utility.yul\":7711:7718   */\n      dup5\n        /* \"#utility.yul\":7707:7730   */\n      sub\n        /* \"#utility.yul\":7703:7735   */\n      slt\n        /* \"#utility.yul\":7700:7819   */\n      iszero\n      tag_236\n      jumpi\n        /* \"#utility.yul\":7738:7817   */\n      tag_237\n      tag_101\n      jump\t// in\n    tag_237:\n        /* \"#utility.yul\":7700:7819   */\n    tag_236:\n        /* \"#utility.yul\":7858:7859   */\n      0x00\n        /* \"#utility.yul\":7883:7947   */\n      tag_238\n        /* \"#utility.yul\":7939:7946   */\n      dup5\n        /* \"#utility.yul\":7930:7936   */\n      dup3\n        /* \"#utility.yul\":7919:7928   */\n      dup6\n        /* \"#utility.yul\":7915:7937   */\n      add\n        /* \"#utility.yul\":7883:7947   */\n      tag_132\n      jump\t// in\n    tag_238:\n        /* \"#utility.yul\":7873:7947   */\n      swap2\n      pop\n        /* \"#utility.yul\":7829:7957   */\n      pop\n        /* \"#utility.yul\":7613:7964   */\n      swap3\n      swap2\n      pop\n      pop\n      jump\t// out\n        /* \"#utility.yul\":7970:8092   */\n    tag_133:\n        /* \"#utility.yul\":8043:8067   */\n      tag_240\n        /* \"#utility.yul\":8061:8066   */\n      dup2\n        /* \"#utility.yul\":8043:8067   */\n      tag_115\n      jump\t// in\n    tag_240:\n        /* \"#utility.yul\":8036:8041   */\n      dup2\n        /* \"#utility.yul\":8033:8068   */\n      eq\n        /* \"#utility.yul\":8023:8086   */\n      tag_241\n      jumpi\n        /* \"#utility.yul\":8082:8083   */\n      0x00\n        /* \"#utility.yul\":8079:8080   */\n      dup1\n        /* \"#utility.yul\":8072:8084   */\n      revert\n        /* \"#utility.yul\":8023:8086   */\n    tag_241:\n        /* \"#utility.yul\":7970:8092   */\n      pop\n      jump\t// out\n        /* \"#utility.yul\":8098:8241   */\n    tag_134:\n        /* \"#utility.yul\":8155:8160   */\n      0x00\n        /* \"#utility.yul\":8186:8192   */\n      dup2\n        /* \"#utility.yul\":8180:8193   */\n      mload\n        /* \"#utility.yul\":8171:8193   */\n      swap1\n      pop\n        /* \"#utility.yul\":8202:8235   */\n      tag_243\n        /* \"#utility.yul\":8229:8234   */\n      dup2\n        /* \"#utility.yul\":8202:8235   */\n      tag_133\n      jump\t// in\n    tag_243:\n        /* \"#utility.yul\":8098:8241   */\n      swap3\n      swap2\n      pop\n      pop\n      jump\t// out\n        /* \"#utility.yul\":8247:8598   */\n    tag_76:\n        /* \"#utility.yul\":8317:8323   */\n      0x00\n        /* \"#utility.yul\":8366:8368   */\n      0x20\n        /* \"#utility.yul\":8354:8363   */\n      dup3\n        /* \"#utility.yul\":8345:8352   */\n      dup5\n        /* \"#utility.yul\":8341:8364   */\n      sub\n        /* \"#utility.yul\":8337:8369   */\n      slt\n        /* \"#utility.yul\":8334:8453   */\n      iszero\n      tag_245\n      jumpi\n        /* \"#utility.yul\":8372:8451   */\n      tag_246\n      tag_101\n      jump\t// in\n    tag_246:\n        /* \"#utility.yul\":8334:8453   */\n    tag_245:\n        /* \"#utility.yul\":8492:8493   */\n      0x00\n        /* \"#utility.yul\":8517:8581   */\n      tag_247\n        /* \"#utility.yul\":8573:8580   */\n      dup5\n        /* \"#utility.yul\":8564:8570   */\n      dup3\n        /* \"#utility.yul\":8553:8562   */\n      dup6\n        /* \"#utility.yul\":8549:8571   */\n      add\n        /* \"#utility.yul\":8517:8581   */\n      tag_134\n      jump\t// in\n    tag_247:\n        /* \"#utility.yul\":8507:8581   */\n      swap2\n      pop\n        /* \"#utility.yul\":8463:8591   */\n      pop\n        /* \"#utility.yul\":8247:8598   */\n      swap3\n      swap2\n      pop\n      pop\n      jump\t// out\n        /* \"#utility.yul\":8604:8713   */\n    tag_135:\n        /* \"#utility.yul\":8687:8688   */\n      0x05\n        /* \"#utility.yul\":8680:8685   */\n      dup2\n        /* \"#utility.yul\":8677:8689   */\n      lt\n        /* \"#utility.yul\":8667:8707   */\n      tag_249\n      jumpi\n        /* \"#utility.yul\":8703:8704   */\n      0x00\n        /* \"#utility.yul\":8700:8701   */\n      dup1\n        /* \"#utility.yul\":8693:8705   */\n      revert\n        /* \"#utility.yul\":8667:8707   */\n    tag_249:\n        /* \"#utility.yul\":8604:8713   */\n      pop\n      jump\t// out\n        /* \"#utility.yul\":8719:8882   */\n    tag_136:\n        /* \"#utility.yul\":8786:8791   */\n      0x00\n        /* \"#utility.yul\":8817:8823   */\n      dup2\n        /* \"#utility.yul\":8811:8824   */\n      mload\n        /* \"#utility.yul\":8802:8824   */\n      swap1\n      pop\n        /* \"#utility.yul\":8833:8876   */\n      tag_251\n        /* \"#utility.yul\":8870:8875   */\n      dup2\n        /* \"#utility.yul\":8833:8876   */\n      tag_135\n      jump\t// in\n    tag_251:\n        /* \"#utility.yul\":8719:8882   */\n      swap3\n      swap2\n      pop\n      pop\n      jump\t// out\n        /* \"#utility.yul\":8888:9259   */\n    tag_81:\n        /* \"#utility.yul\":8968:8974   */\n      0x00\n        /* \"#utility.yul\":9017:9019   */\n      0x20\n        /* \"#utility.yul\":9005:9014   */\n      dup3\n        /* \"#utility.yul\":8996:9003   */\n      dup5\n        /* \"#utility.yul\":8992:9015   */\n      sub\n        /* \"#utility.yul\":8988:9020   */\n      slt\n        /* \"#utility.yul\":8985:9104   */\n      iszero\n      tag_253\n      jumpi\n        /* \"#utility.yul\":9023:9102   */\n      tag_254\n      tag_101\n      jump\t// in\n    tag_254:\n        /* \"#utility.yul\":8985:9104   */\n    tag_253:\n        /* \"#utility.yul\":9143:9144   */\n      0x00\n        /* \"#utility.yul\":9168:9242   */\n      tag_255\n        /* \"#utility.yul\":9234:9241   */\n      dup5\n        /* \"#utility.yul\":9225:9231   */\n      dup3\n        /* \"#utility.yul\":9214:9223   */\n      dup6\n        /* \"#utility.yul\":9210:9232   */\n      add\n        /* \"#utility.yul\":9168:9242   */\n      tag_136\n      jump\t// in\n    tag_255:\n        /* \"#utility.yul\":9158:9242   */\n      swap2\n      pop\n        /* \"#utility.yul\":9114:9252   */\n      pop\n        /* \"#utility.yul\":8888:9259   */\n      swap3\n      swap2\n      pop\n      pop\n      jump\t// out\n        /* \"#utility.yul\":9265:9382   */\n    tag_137:\n        /* \"#utility.yul\":9374:9375   */\n      0x00\n        /* \"#utility.yul\":9371:9372   */\n      dup1\n        /* \"#utility.yul\":9364:9376   */\n      revert\n        /* \"#utility.yul\":9388:9490   */\n    tag_138:\n        /* \"#utility.yul\":9429:9435   */\n      0x00\n        /* \"#utility.yul\":9480:9482   */\n      0x1f\n        /* \"#utility.yul\":9476:9483   */\n      not\n        /* \"#utility.yul\":9471:9473   */\n      0x1f\n        /* \"#utility.yul\":9464:9469   */\n      dup4\n        /* \"#utility.yul\":9460:9474   */\n      add\n        /* \"#utility.yul\":9456:9484   */\n      and\n        /* \"#utility.yul\":9446:9484   */\n      swap1\n      pop\n        /* \"#utility.yul\":9388:9490   */\n      swap2\n      swap1\n      pop\n      jump\t// out\n        /* \"#utility.yul\":9496:9676   */\n    tag_139:\n        /* \"#utility.yul\":9544:9621   */\n      0x4e487b7100000000000000000000000000000000000000000000000000000000\n        /* \"#utility.yul\":9541:9542   */\n      0x00\n        /* \"#utility.yul\":9534:9622   */\n      mstore\n        /* \"#utility.yul\":9641:9645   */\n      0x41\n        /* \"#utility.yul\":9638:9639   */\n      0x04\n        /* \"#utility.yul\":9631:9646   */\n      mstore\n        /* \"#utility.yul\":9665:9669   */\n      0x24\n        /* \"#utility.yul\":9662:9663   */\n      0x00\n        /* \"#utility.yul\":9655:9670   */\n      revert\n        /* \"#utility.yul\":9682:9963   */\n    tag_140:\n        /* \"#utility.yul\":9765:9792   */\n      tag_260\n        /* \"#utility.yul\":9787:9791   */\n      dup3\n        /* \"#utility.yul\":9765:9792   */\n      tag_138\n      jump\t// in\n    tag_260:\n        /* \"#utility.yul\":9757:9763   */\n      dup2\n        /* \"#utility.yul\":9753:9793   */\n      add\n        /* \"#utility.yul\":9895:9901   */\n      dup2\n        /* \"#utility.yul\":9883:9893   */\n      dup2\n        /* \"#utility.yul\":9880:9902   */\n      lt\n        /* \"#utility.yul\":9859:9877   */\n      0xffffffffffffffff\n        /* \"#utility.yul\":9847:9857   */\n      dup3\n        /* \"#utility.yul\":9844:9878   */\n      gt\n        /* \"#utility.yul\":9841:9903   */\n      or\n        /* \"#utility.yul\":9838:9926   */\n      iszero\n      tag_261\n      jumpi\n        /* \"#utility.yul\":9906:9924   */\n      tag_262\n      tag_139\n      jump\t// in\n    tag_262:\n        /* \"#utility.yul\":9838:9926   */\n    tag_261:\n        /* \"#utility.yul\":9946:9956   */\n      dup1\n        /* \"#utility.yul\":9942:9944   */\n      0x40\n        /* \"#utility.yul\":9935:9957   */\n      mstore\n        /* \"#utility.yul\":9725:9963   */\n      pop\n        /* \"#utility.yul\":9682:9963   */\n      pop\n      pop\n      jump\t// out\n        /* \"#utility.yul\":9969:10098   */\n    tag_141:\n        /* \"#utility.yul\":10003:10009   */\n      0x00\n        /* \"#utility.yul\":10030:10050   */\n      tag_264\n      tag_100\n      jump\t// in\n    tag_264:\n        /* \"#utility.yul\":10020:10050   */\n      swap1\n      pop\n        /* \"#utility.yul\":10059:10092   */\n      tag_265\n        /* \"#utility.yul\":10087:10091   */\n      dup3\n        /* \"#utility.yul\":10079:10085   */\n      dup3\n        /* \"#utility.yul\":10059:10092   */\n      tag_140\n      jump\t// in\n    tag_265:\n        /* \"#utility.yul\":9969:10098   */\n      swap2\n      swap1\n      pop\n      jump\t// out\n        /* \"#utility.yul\":10104:10353   */\n    tag_142:\n        /* \"#utility.yul\":10179:10183   */\n      0x00\n        /* \"#utility.yul\":10269:10287   */\n      0xffffffffffffffff\n        /* \"#utility.yul\":10261:10267   */\n      dup3\n        /* \"#utility.yul\":10258:10288   */\n      gt\n        /* \"#utility.yul\":10255:10311   */\n      iszero\n      tag_267\n      jumpi\n        /* \"#utility.yul\":10291:10309   */\n      tag_268\n      tag_139\n      jump\t// in\n    tag_268:\n        /* \"#utility.yul\":10255:10311   */\n    tag_267:\n        /* \"#utility.yul\":10341:10345   */\n      0x20\n        /* \"#utility.yul\":10333:10339   */\n      dup3\n        /* \"#utility.yul\":10329:10346   */\n      mul\n        /* \"#utility.yul\":10321:10346   */\n      swap1\n      pop\n        /* \"#utility.yul\":10104:10353   */\n      swap2\n      swap1\n      pop\n      jump\t// out\n        /* \"#utility.yul\":10359:10476   */\n    tag_143:\n        /* \"#utility.yul\":10468:10469   */\n      0x00\n        /* \"#utility.yul\":10465:10466   */\n      dup1\n        /* \"#utility.yul\":10458:10470   */\n      revert\n        /* \"#utility.yul\":10500:11165   */\n    tag_144:\n        /* \"#utility.yul\":10605:10610   */\n      0x00\n        /* \"#utility.yul\":10630:10709   */\n      tag_271\n        /* \"#utility.yul\":10646:10708   */\n      tag_272\n        /* \"#utility.yul\":10701:10707   */\n      dup5\n        /* \"#utility.yul\":10646:10708   */\n      tag_142\n      jump\t// in\n    tag_272:\n        /* \"#utility.yul\":10630:10709   */\n      tag_141\n      jump\t// in\n    tag_271:\n        /* \"#utility.yul\":10621:10709   */\n      swap1\n      pop\n        /* \"#utility.yul\":10729:10734   */\n      dup1\n        /* \"#utility.yul\":10782:10786   */\n      0x20\n        /* \"#utility.yul\":10774:10780   */\n      dup5\n        /* \"#utility.yul\":10770:10787   */\n      mul\n        /* \"#utility.yul\":10762:10768   */\n      dup4\n        /* \"#utility.yul\":10758:10788   */\n      add\n        /* \"#utility.yul\":10811:10814   */\n      dup6\n        /* \"#utility.yul\":10803:10809   */\n      dup2\n        /* \"#utility.yul\":10800:10815   */\n      gt\n        /* \"#utility.yul\":10797:10919   */\n      iszero\n      tag_273\n      jumpi\n        /* \"#utility.yul\":10830:10909   */\n      tag_274\n      tag_143\n      jump\t// in\n    tag_274:\n        /* \"#utility.yul\":10797:10919   */\n    tag_273:\n        /* \"#utility.yul\":10945:10951   */\n      dup4\n        /* \"#utility.yul\":10928:11159   */\n    tag_275:\n        /* \"#utility.yul\":10962:10968   */\n      dup2\n        /* \"#utility.yul\":10957:10960   */\n      dup2\n        /* \"#utility.yul\":10954:10969   */\n      lt\n        /* \"#utility.yul\":10928:11159   */\n      iszero\n      tag_277\n      jumpi\n        /* \"#utility.yul\":11037:11040   */\n      dup1\n        /* \"#utility.yul\":11066:11114   */\n      tag_278\n        /* \"#utility.yul\":11110:11113   */\n      dup9\n        /* \"#utility.yul\":11098:11108   */\n      dup3\n        /* \"#utility.yul\":11066:11114   */\n      tag_132\n      jump\t// in\n    tag_278:\n        /* \"#utility.yul\":11061:11064   */\n      dup5\n        /* \"#utility.yul\":11054:11115   */\n      mstore\n        /* \"#utility.yul\":11144:11148   */\n      0x20\n        /* \"#utility.yul\":11139:11142   */\n      dup5\n        /* \"#utility.yul\":11135:11149   */\n      add\n        /* \"#utility.yul\":11128:11149   */\n      swap4\n      pop\n        /* \"#utility.yul\":11004:11159   */\n      pop\n        /* \"#utility.yul\":10988:10992   */\n      0x20\n        /* \"#utility.yul\":10983:10986   */\n      dup2\n        /* \"#utility.yul\":10979:10993   */\n      add\n        /* \"#utility.yul\":10972:10993   */\n      swap1\n      pop\n        /* \"#utility.yul\":10928:11159   */\n      jump(tag_275)\n    tag_277:\n        /* \"#utility.yul\":10932:10953   */\n      pop\n        /* \"#utility.yul\":10611:11165   */\n      pop\n      pop\n        /* \"#utility.yul\":10500:11165   */\n      swap4\n      swap3\n      pop\n      pop\n      pop\n      jump\t// out\n        /* \"#utility.yul\":11189:11550   */\n    tag_145:\n        /* \"#utility.yul\":11269:11274   */\n      0x00\n        /* \"#utility.yul\":11318:11321   */\n      dup3\n        /* \"#utility.yul\":11311:11315   */\n      0x1f\n        /* \"#utility.yul\":11303:11309   */\n      dup4\n        /* \"#utility.yul\":11299:11316   */\n      add\n        /* \"#utility.yul\":11295:11322   */\n      slt\n        /* \"#utility.yul\":11285:11407   */\n      tag_280\n      jumpi\n        /* \"#utility.yul\":11326:11405   */\n      tag_281\n      tag_137\n      jump\t// in\n    tag_281:\n        /* \"#utility.yul\":11285:11407   */\n    tag_280:\n        /* \"#utility.yul\":11430:11434   */\n      0x05\n        /* \"#utility.yul\":11452:11544   */\n      tag_282\n        /* \"#utility.yul\":11540:11543   */\n      dup5\n        /* \"#utility.yul\":11532:11538   */\n      dup3\n        /* \"#utility.yul\":11524:11530   */\n      dup6\n        /* \"#utility.yul\":11452:11544   */\n      tag_144\n      jump\t// in\n    tag_282:\n        /* \"#utility.yul\":11443:11544   */\n      swap2\n      pop\n        /* \"#utility.yul\":11275:11550   */\n      pop\n        /* \"#utility.yul\":11189:11550   */\n      swap3\n      swap2\n      pop\n      pop\n      jump\t// out\n        /* \"#utility.yul\":11556:11954   */\n    tag_92:\n        /* \"#utility.yul\":11649:11655   */\n      0x00\n        /* \"#utility.yul\":11698:11701   */\n      0xa0\n        /* \"#utility.yul\":11686:11695   */\n      dup3\n        /* \"#utility.yul\":11677:11684   */\n      dup5\n        /* \"#utility.yul\":11673:11696   */\n      sub\n        /* \"#utility.yul\":11669:11702   */\n      slt\n        /* \"#utility.yul\":11666:11786   */\n      iszero\n      tag_284\n      jumpi\n        /* \"#utility.yul\":11705:11784   */\n      tag_285\n      tag_101\n      jump\t// in\n    tag_285:\n        /* \"#utility.yul\":11666:11786   */\n    tag_284:\n        /* \"#utility.yul\":11825:11826   */\n      0x00\n        /* \"#utility.yul\":11850:11937   */\n      tag_286\n        /* \"#utility.yul\":11929:11936   */\n      dup5\n        /* \"#utility.yul\":11920:11926   */\n      dup3\n        /* \"#utility.yul\":11909:11918   */\n      dup6\n        /* \"#utility.yul\":11905:11927   */\n      add\n        /* \"#utility.yul\":11850:11937   */\n      tag_145\n      jump\t// in\n    tag_286:\n        /* \"#utility.yul\":11840:11937   */\n      swap2\n      pop\n        /* \"#utility.yul\":11796:11947   */\n      pop\n        /* \"#utility.yul\":11556:11954   */\n      swap3\n      swap2\n      pop\n      pop\n      jump\t// out\n\n    auxdata: 0xa2646970667358221220a35b0f953eb82345bec97137f17fb4b7f1a8bd4ee8e1eab759c5e5d6737febc164736f6c634300080a0033\n}\n",
				"bytecode": {
					"linkReferences": {},
					"object": "608060405234801561001057600080fd5b50610dfd806100206000396000f3fe608060405234801561001057600080fd5b506004361061009e5760003560e01c80635c622a0e116100665780635c622a0e1461019357806388106323146101c357806391492956146101f3578063d0e5d95514610223578063d6a9de51146102415761009e565b806313ef3dcc146100a35780631bf1fffb146100d357806344a9d244146101035780635af8d21c146101335780635bf608b814610163575b600080fd5b6100bd60048036038101906100b89190610817565b610271565b6040516100ca9190610863565b60405180910390f35b6100ed60048036038101906100e89190610817565b61031c565b6040516100fa919061088d565b60405180910390f35b61011d60048036038101906101189190610817565b6103c7565b60405161012a919061088d565b60405180910390f35b61014d60048036038101906101489190610817565b6103df565b60405161015a9190610927565b60405180910390f35b61017d60048036038101906101789190610817565b61041c565b60405161018a9190610963565b60405180910390f35b6101ad60048036038101906101a89190610817565b6104c7565b6040516101ba91906109f5565b60405180910390f35b6101dd60048036038101906101d89190610817565b610572565b6040516101ea919061088d565b60405180910390f35b61020d60048036038101906102089190610817565b61061d565b60405161021a9190610abb565b60405180910390f35b61022b6106ce565b6040516102389190610af2565b60405180910390f35b61025b60048036038101906102569190610817565b6106f2565b6040516102689190610963565b60405180910390f35b60006001600083815260200190815260200160002060009054906101000a900473ffffffffffffffffffffffffffffffffffffffff1673ffffffffffffffffffffffffffffffffffffffff1663a2e800ad6040518163ffffffff1660e01b8152600401602060405180830381865afa1580156102f1573d6000803e3d6000fd5b505050506040513d601f19601f820116820180604052508101906103159190610b39565b9050919050565b60006001600083815260200190815260200160002060009054906101000a900473ffffffffffffffffffffffffffffffffffffffff1673ffffffffffffffffffffffffffffffffffffffff1663e0a73a936040518163ffffffff1660e01b8152600401602060405180830381865afa15801561039c573d6000803e3d6000fd5b505050506040513d601f19601f820116820180604052508101906103c09190610b7b565b9050919050565b60026020528060005260406000206000915090505481565b60006001600083815260200190815260200160002060009054906101000a900473ffffffffffffffffffffffffffffffffffffffff169050919050565b60006001600083815260200190815260200160002060009054906101000a900473ffffffffffffffffffffffffffffffffffffffff1673ffffffffffffffffffffffffffffffffffffffff1663603daf9a6040518163ffffffff1660e01b8152600401602060405180830381865afa15801561049c573d6000803e3d6000fd5b505050506040513d601f19601f820116820180604052508101906104c09190610bd4565b9050919050565b60006001600083815260200190815260200160002060009054906101000a900473ffffffffffffffffffffffffffffffffffffffff1673ffffffffffffffffffffffffffffffffffffffff1663200d2ed26040518163ffffffff1660e01b8152600401602060405180830381865afa158015610547573d6000803e3d6000fd5b505050506040513d601f19601f8201168201806040525081019061056b9190610c26565b9050919050565b60006001600083815260200190815260200160002060009054906101000a900473ffffffffffffffffffffffffffffffffffffffff1673ffffffffffffffffffffffffffffffffffffffff16634c1786ea6040518163ffffffff1660e01b8152600401602060405180830381865afa1580156105f2573d6000803e3d6000fd5b505050506040513d601f19601f820116820180604052508101906106169190610b7b565b9050919050565b61062561079d565b6001600083815260200190815260200160002060009054906101000a900473ffffffffffffffffffffffffffffffffffffffff1673ffffffffffffffffffffffffffffffffffffffff1663bd9a548b6040518163ffffffff1660e01b815260040160a060405180830381865afa1580156106a3573d6000803e3d6000fd5b505050506040513d601f19601f820116820180604052508101906106c79190610d9a565b9050919050565b6106d66107bf565b6000604051806020016040529081600082015481525050905090565b60006001600083815260200190815260200160002060009054906101000a900473ffffffffffffffffffffffffffffffffffffffff1673ffffffffffffffffffffffffffffffffffffffff1663dbd0e1b66040518163ffffffff1660e01b8152600401602060405180830381865afa158015610772573d6000803e3d6000fd5b505050506040513d601f19601f820116820180604052508101906107969190610bd4565b9050919050565b6040518060a00160405280600590602082028036833780820191505090505090565b6040518060200160405280600081525090565b6000604051905090565b600080fd5b6000819050919050565b6107f4816107e1565b81146107ff57600080fd5b50565b600081359050610811816107eb565b92915050565b60006020828403121561082d5761082c6107dc565b5b600061083b84828501610802565b91505092915050565b600063ffffffff82169050919050565b61085d81610844565b82525050565b60006020820190506108786000830184610854565b92915050565b610887816107e1565b82525050565b60006020820190506108a2600083018461087e565b92915050565b600073ffffffffffffffffffffffffffffffffffffffff82169050919050565b6000819050919050565b60006108ed6108e86108e3846108a8565b6108c8565b6108a8565b9050919050565b60006108ff826108d2565b9050919050565b6000610911826108f4565b9050919050565b61092181610906565b82525050565b600060208201905061093c6000830184610918565b92915050565b600061094d826108a8565b9050919050565b61095d81610942565b82525050565b60006020820190506109786000830184610954565b92915050565b7f4e487b7100000000000000000000000000000000000000000000000000000000600052602160045260246000fd5b600581106109be576109bd61097e565b5b50565b60008190506109cf826109ad565b919050565b60006109df826109c1565b9050919050565b6109ef816109d4565b82525050565b6000602082019050610a0a60008301846109e6565b92915050565b600060059050919050565b600081905092915050565b6000819050919050565b610a39816107e1565b82525050565b6000610a4b8383610a30565b60208301905092915050565b6000602082019050919050565b610a6d81610a10565b610a778184610a1b565b9250610a8282610a26565b8060005b83811015610ab3578151610a9a8782610a3f565b9650610aa583610a57565b925050600181019050610a86565b505050505050565b600060a082019050610ad06000830184610a64565b92915050565b602082016000820151610aec6000850182610a30565b50505050565b6000602082019050610b076000830184610ad6565b92915050565b610b1681610844565b8114610b2157600080fd5b50565b600081519050610b3381610b0d565b92915050565b600060208284031215610b4f57610b4e6107dc565b5b6000610b5d84828501610b24565b91505092915050565b600081519050610b75816107eb565b92915050565b600060208284031215610b9157610b906107dc565b5b6000610b9f84828501610b66565b91505092915050565b610bb181610942565b8114610bbc57600080fd5b50565b600081519050610bce81610ba8565b92915050565b600060208284031215610bea57610be96107dc565b5b6000610bf884828501610bbf565b91505092915050565b60058110610c0e57600080fd5b50565b600081519050610c2081610c01565b92915050565b600060208284031215610c3c57610c3b6107dc565b5b6000610c4a84828501610c11565b91505092915050565b600080fd5b6000601f19601f8301169050919050565b7f4e487b7100000000000000000000000000000000000000000000000000000000600052604160045260246000fd5b610ca182610c58565b810181811067ffffffffffffffff82111715610cc057610cbf610c69565b5b80604052505050565b6000610cd36107d2565b9050610cdf8282610c98565b919050565b600067ffffffffffffffff821115610cff57610cfe610c69565b5b602082029050919050565b600080fd5b6000610d22610d1d84610ce4565b610cc9565b90508060208402830185811115610d3c57610d3b610d0a565b5b835b81811015610d655780610d518882610b66565b845260208401935050602081019050610d3e565b5050509392505050565b600082601f830112610d8457610d83610c53565b5b6005610d91848285610d0f565b91505092915050565b600060a08284031215610db057610daf6107dc565b5b6000610dbe84828501610d6f565b9150509291505056fea2646970667358221220a35b0f953eb82345bec97137f17fb4b7f1a8bd4ee8e1eab759c5e5d6737febc164736f6c634300080a0033",
					"opcodes": "PUSH1 0x80 PUSH1 0x40 MSTORE CALLVALUE DUP1 ISZERO PUSH2 0x10 JUMPI PUSH1 0x0 DUP1 REVERT JUMPDEST POP PUSH2 0xDFD DUP1 PUSH2 0x20 PUSH1 0x0 CODECOPY PUSH1 0x0 RETURN INVALID PUSH1 0x80 PUSH1 0x40 MSTORE CALLVALUE DUP1 ISZERO PUSH2 0x10 JUMPI PUSH1 0x0 DUP1 REVERT JUMPDEST POP PUSH1 0x4 CALLDATASIZE LT PUSH2 0x9E JUMPI PUSH1 0x0 CALLDATALOAD PUSH1 0xE0 SHR DUP1 PUSH4 0x5C622A0E GT PUSH2 0x66 JUMPI DUP1 PUSH4 0x5C622A0E EQ PUSH2 0x193 JUMPI DUP1 PUSH4 0x88106323 EQ PUSH2 0x1C3 JUMPI DUP1 PUSH4 0x91492956 EQ PUSH2 0x1F3 JUMPI DUP1 PUSH4 0xD0E5D955 EQ PUSH2 0x223 JUMPI DUP1 PUSH4 0xD6A9DE51 EQ PUSH2 0x241 JUMPI PUSH2 0x9E JUMP JUMPDEST DUP1 PUSH4 0x13EF3DCC EQ PUSH2 0xA3 JUMPI DUP1 PUSH4 0x1BF1FFFB EQ PUSH2 0xD3 JUMPI DUP1 PUSH4 0x44A9D244 EQ PUSH2 0x103 JUMPI DUP1 PUSH4 0x5AF8D21C EQ PUSH2 0x133 JUMPI DUP1 PUSH4 0x5BF608B8 EQ PUSH2 0x163 JUMPI JUMPDEST PUSH1 0x0 DUP1 REVERT JUMPDEST PUSH2 0xBD PUSH1 0x4 DUP1 CALLDATASIZE SUB DUP2 ADD SWAP1 PUSH2 0xB8 SWAP2 SWAP1 PUSH2 0x817 JUMP JUMPDEST PUSH2 0x271 JUMP JUMPDEST PUSH1 0x40 MLOAD PUSH2 0xCA SWAP2 SWAP1 PUSH2 0x863 JUMP JUMPDEST PUSH1 0x40 MLOAD DUP1 SWAP2 SUB SWAP1 RETURN JUMPDEST PUSH2 0xED PUSH1 0x4 DUP1 CALLDATASIZE SUB DUP2 ADD SWAP1 PUSH2 0xE8 SWAP2 SWAP1 PUSH2 0x817 JUMP JUMPDEST PUSH2 0x31C JUMP JUMPDEST PUSH1 0x40 MLOAD PUSH2 0xFA SWAP2 SWAP1 PUSH2 0x88D JUMP JUMPDEST PUSH1 0x40 MLOAD DUP1 SWAP2 SUB SWAP1 RETURN JUMPDEST PUSH2 0x11D PUSH1 0x4 DUP1 CALLDATASIZE SUB DUP2 ADD SWAP1 PUSH2 0x118 SWAP2 SWAP1 PUSH2 0x817 JUMP JUMPDEST PUSH2 0x3C7 JUMP JUMPDEST PUSH1 0x40 MLOAD PUSH2 0x12A SWAP2 SWAP1 PUSH2 0x88D JUMP JUMPDEST PUSH1 0x40 MLOAD DUP1 SWAP2 SUB SWAP1 RETURN JUMPDEST PUSH2 0x14D PUSH1 0x4 DUP1 CALLDATASIZE SUB DUP2 ADD SWAP1 PUSH2 0x148 SWAP2 SWAP1 PUSH2 0x817 JUMP JUMPDEST PUSH2 0x3DF JUMP JUMPDEST PUSH1 0x40 MLOAD PUSH2 0x15A SWAP2 SWAP1 PUSH2 0x927 JUMP JUMPDEST PUSH1 0x40 MLOAD DUP1 SWAP2 SUB SWAP1 RETURN JUMPDEST PUSH2 0x17D PUSH1 0x4 DUP1 CALLDATASIZE SUB DUP2 ADD SWAP1 PUSH2 0x178 SWAP2 SWAP1 PUSH2 0x817 JUMP JUMPDEST PUSH2 0x41C JUMP JUMPDEST PUSH1 0x40 MLOAD PUSH2 0x18A SWAP2 SWAP1 PUSH2 0x963 JUMP JUMPDEST PUSH1 0x40 MLOAD DUP1 SWAP2 SUB SWAP1 RETURN JUMPDEST PUSH2 0x1AD PUSH1 0x4 DUP1 CALLDATASIZE SUB DUP2 ADD SWAP1 PUSH2 0x1A8 SWAP2 SWAP1 PUSH2 0x817 JUMP JUMPDEST PUSH2 0x4C7 JUMP JUMPDEST PUSH1 0x40 MLOAD PUSH2 0x1BA SWAP2 SWAP1 PUSH2 0x9F5 JUMP JUMPDEST PUSH1 0x40 MLOAD DUP1 SWAP2 SUB SWAP1 RETURN JUMPDEST PUSH2 0x1DD PUSH1 0x4 DUP1 CALLDATASIZE SUB DUP2 ADD SWAP1 PUSH2 0x1D8 SWAP2 SWAP1 PUSH2 0x817 JUMP JUMPDEST PUSH2 0x572 JUMP JUMPDEST PUSH1 0x40 MLOAD PUSH2 0x1EA SWAP2 SWAP1 PUSH2 0x88D JUMP JUMPDEST PUSH1 0x40 MLOAD DUP1 SWAP2 SUB SWAP1 RETURN JUMPDEST PUSH2 0x20D PUSH1 0x4 DUP1 CALLDATASIZE SUB DUP2 ADD SWAP1 PUSH2 0x208 SWAP2 SWAP1 PUSH2 0x817 JUMP JUMPDEST PUSH2 0x61D JUMP JUMPDEST PUSH1 0x40 MLOAD PUSH2 0x21A SWAP2 SWAP1 PUSH2 0xABB JUMP JUMPDEST PUSH1 0x40 MLOAD DUP1 SWAP2 SUB SWAP1 RETURN JUMPDEST PUSH2 0x22B PUSH2 0x6CE JUMP JUMPDEST PUSH1 0x40 MLOAD PUSH2 0x238 SWAP2 SWAP1 PUSH2 0xAF2 JUMP JUMPDEST PUSH1 0x40 MLOAD DUP1 SWAP2 SUB SWAP1 RETURN JUMPDEST PUSH2 0x25B PUSH1 0x4 DUP1 CALLDATASIZE SUB DUP2 ADD SWAP1 PUSH2 0x256 SWAP2 SWAP1 PUSH2 0x817 JUMP JUMPDEST PUSH2 0x6F2 JUMP JUMPDEST PUSH1 0x40 MLOAD PUSH2 0x268 SWAP2 SWAP1 PUSH2 0x963 JUMP JUMPDEST PUSH1 0x40 MLOAD DUP1 SWAP2 SUB SWAP1 RETURN JUMPDEST PUSH1 0x0 PUSH1 0x1 PUSH1 0x0 DUP4 DUP2 MSTORE PUSH1 0x20 ADD SWAP1 DUP2 MSTORE PUSH1 0x20 ADD PUSH1 0x0 KECCAK256 PUSH1 0x0 SWAP1 SLOAD SWAP1 PUSH2 0x100 EXP SWAP1 DIV PUSH20 0xFFFFFFFFFFFFFFFFFFFFFFFFFFFFFFFFFFFFFFFF AND PUSH20 0xFFFFFFFFFFFFFFFFFFFFFFFFFFFFFFFFFFFFFFFF AND PUSH4 0xA2E800AD PUSH1 0x40 MLOAD DUP2 PUSH4 0xFFFFFFFF AND PUSH1 0xE0 SHL DUP2 MSTORE PUSH1 0x4 ADD PUSH1 0x20 PUSH1 0x40 MLOAD DUP1 DUP4 SUB DUP2 DUP7 GAS STATICCALL ISZERO DUP1 ISZERO PUSH2 0x2F1 JUMPI RETURNDATASIZE PUSH1 0x0 DUP1 RETURNDATACOPY RETURNDATASIZE PUSH1 0x0 REVERT JUMPDEST POP POP POP POP PUSH1 0x40 MLOAD RETURNDATASIZE PUSH1 0x1F NOT PUSH1 0x1F DUP3 ADD AND DUP3 ADD DUP1 PUSH1 0x40 MSTORE POP DUP2 ADD SWAP1 PUSH2 0x315 SWAP2 SWAP1 PUSH2 0xB39 JUMP JUMPDEST SWAP1 POP SWAP2 SWAP1 POP JUMP JUMPDEST PUSH1 0x0 PUSH1 0x1 PUSH1 0x0 DUP4 DUP2 MSTORE PUSH1 0x20 ADD SWAP1 DUP2 MSTORE PUSH1 0x20 ADD PUSH1 0x0 KECCAK256 PUSH1 0x0 SWAP1 SLOAD SWAP1 PUSH2 0x100 EXP SWAP1 DIV PUSH20 0xFFFFFFFFFFFFFFFFFFFFFFFFFFFFFFFFFFFFFFFF AND PUSH20 0xFFFFFFFFFFFFFFFFFFFFFFFFFFFFFFFFFFFFFFFF AND PUSH4 0xE0A73A93 PUSH1 0x40 MLOAD DUP2 PUSH4 0xFFFFFFFF AND PUSH1 0xE0 SHL DUP2 MSTORE PUSH1 0x4 ADD PUSH1 0x20 PUSH1 0x40 MLOAD DUP1 DUP4 SUB DUP2 DUP7 GAS STATICCALL ISZERO DUP1 ISZERO PUSH2 0x39C JUMPI RETURNDATASIZE PUSH1 0x0 DUP1 RETURNDATACOPY RETURNDATASIZE PUSH1 0x0 REVERT JUMPDEST POP POP POP POP PUSH1 0x40 MLOAD RETURNDATASIZE PUSH1 0x1F NOT PUSH1 0x1F DUP3 ADD AND DUP3 ADD DUP1 PUSH1 0x40 MSTORE POP DUP2 ADD SWAP1 PUSH2 0x3C0 SWAP2 SWAP1 PUSH2 0xB7B JUMP JUMPDEST SWAP1 POP SWAP2 SWAP1 POP JUMP JUMPDEST PUSH1 0x2 PUSH1 0x20 MSTORE DUP1 PUSH1 0x0 MSTORE PUSH1 0x40 PUSH1 0x0 KECCAK256 PUSH1 0x0 SWAP2 POP SWAP1 POP SLOAD DUP2 JUMP JUMPDEST PUSH1 0x0 PUSH1 0x1 PUSH1 0x0 DUP4 DUP2 MSTORE PUSH1 0x20 ADD SWAP1 DUP2 MSTORE PUSH1 0x20 ADD PUSH1 0x0 KECCAK256 PUSH1 0x0 SWAP1 SLOAD SWAP1 PUSH2 0x100 EXP SWAP1 DIV PUSH20 0xFFFFFFFFFFFFFFFFFFFFFFFFFFFFFFFFFFFFFFFF AND SWAP1 POP SWAP2 SWAP1 POP JUMP JUMPDEST PUSH1 0x0 PUSH1 0x1 PUSH1 0x0 DUP4 DUP2 MSTORE PUSH1 0x20 ADD SWAP1 DUP2 MSTORE PUSH1 0x20 ADD PUSH1 0x0 KECCAK256 PUSH1 0x0 SWAP1 SLOAD SWAP1 PUSH2 0x100 EXP SWAP1 DIV PUSH20 0xFFFFFFFFFFFFFFFFFFFFFFFFFFFFFFFFFFFFFFFF AND PUSH20 0xFFFFFFFFFFFFFFFFFFFFFFFFFFFFFFFFFFFFFFFF AND PUSH4 0x603DAF9A PUSH1 0x40 MLOAD DUP2 PUSH4 0xFFFFFFFF AND PUSH1 0xE0 SHL DUP2 MSTORE PUSH1 0x4 ADD PUSH1 0x20 PUSH1 0x40 MLOAD DUP1 DUP4 SUB DUP2 DUP7 GAS STATICCALL ISZERO DUP1 ISZERO PUSH2 0x49C JUMPI RETURNDATASIZE PUSH1 0x0 DUP1 RETURNDATACOPY RETURNDATASIZE PUSH1 0x0 REVERT JUMPDEST POP POP POP POP PUSH1 0x40 MLOAD RETURNDATASIZE PUSH1 0x1F NOT PUSH1 0x1F DUP3 ADD AND DUP3 ADD DUP1 PUSH1 0x40 MSTORE POP DUP2 ADD SWAP1 PUSH2 0x4C0 SWAP2 SWAP1 PUSH2 0xBD4 JUMP JUMPDEST SWAP1 POP SWAP2 SWAP1 POP JUMP JUMPDEST PUSH1 0x0 PUSH1 0x1 PUSH1 0x0 DUP4 DUP2 MSTORE PUSH1 0x20 ADD SWAP1 DUP2 MSTORE PUSH1 0x20 ADD PUSH1 0x0 KECCAK256 PUSH1 0x0 SWAP1 SLOAD SWAP1 PUSH2 0x100 EXP SWAP1 DIV PUSH20 0xFFFFFFFFFFFFFFFFFFFFFFFFFFFFFFFFFFFFFFFF AND PUSH20 0xFFFFFFFFFFFFFFFFFFFFFFFFFFFFFFFFFFFFFFFF AND PUSH4 0x200D2ED2 PUSH1 0x40 MLOAD DUP2 PUSH4 0xFFFFFFFF AND PUSH1 0xE0 SHL DUP2 MSTORE PUSH1 0x4 ADD PUSH1 0x20 PUSH1 0x40 MLOAD DUP1 DUP4 SUB DUP2 DUP7 GAS STATICCALL ISZERO DUP1 ISZERO PUSH2 0x547 JUMPI RETURNDATASIZE PUSH1 0x0 DUP1 RETURNDATACOPY RETURNDATASIZE PUSH1 0x0 REVERT JUMPDEST POP POP POP POP PUSH1 0x40 MLOAD RETURNDATASIZE PUSH1 0x1F NOT PUSH1 0x1F DUP3 ADD AND DUP3 ADD DUP1 PUSH1 0x40 MSTORE POP DUP2 ADD SWAP1 PUSH2 0x56B SWAP2 SWAP1 PUSH2 0xC26 JUMP JUMPDEST SWAP1 POP SWAP2 SWAP1 POP JUMP JUMPDEST PUSH1 0x0 PUSH1 0x1 PUSH1 0x0 DUP4 DUP2 MSTORE PUSH1 0x20 ADD SWAP1 DUP2 MSTORE PUSH1 0x20 ADD PUSH1 0x0 KECCAK256 PUSH1 0x0 SWAP1 SLOAD SWAP1 PUSH2 0x100 EXP SWAP1 DIV PUSH20 0xFFFFFFFFFFFFFFFFFFFFFFFFFFFFFFFFFFFFFFFF AND PUSH20 0xFFFFFFFFFFFFFFFFFFFFFFFFFFFFFFFFFFFFFFFF AND PUSH4 0x4C1786EA PUSH1 0x40 MLOAD DUP2 PUSH4 0xFFFFFFFF AND PUSH1 0xE0 SHL DUP2 MSTORE PUSH1 0x4 ADD PUSH1 0x20 PUSH1 0x40 MLOAD DUP1 DUP4 SUB DUP2 DUP7 GAS STATICCALL ISZERO DUP1 ISZERO PUSH2 0x5F2 JUMPI RETURNDATASIZE PUSH1 0x0 DUP1 RETURNDATACOPY RETURNDATASIZE PUSH1 0x0 REVERT JUMPDEST POP POP POP POP PUSH1 0x40 MLOAD RETURNDATASIZE PUSH1 0x1F NOT PUSH1 0x1F DUP3 ADD AND DUP3 ADD DUP1 PUSH1 0x40 MSTORE POP DUP2 ADD SWAP1 PUSH2 0x616 SWAP2 SWAP1 PUSH2 0xB7B JUMP JUMPDEST SWAP1 POP SWAP2 SWAP1 POP JUMP JUMPDEST PUSH2 0x625 PUSH2 0x79D JUMP JUMPDEST PUSH1 0x1 PUSH1 0x0 DUP4 DUP2 MSTORE PUSH1 0x20 ADD SWAP1 DUP2 MSTORE PUSH1 0x20 ADD PUSH1 0x0 KECCAK256 PUSH1 0x0 SWAP1 SLOAD SWAP1 PUSH2 0x100 EXP SWAP1 DIV PUSH20 0xFFFFFFFFFFFFFFFFFFFFFFFFFFFFFFFFFFFFFFFF AND PUSH20 0xFFFFFFFFFFFFFFFFFFFFFFFFFFFFFFFFFFFFFFFF AND PUSH4 0xBD9A548B PUSH1 0x40 MLOAD DUP2 PUSH4 0xFFFFFFFF AND PUSH1 0xE0 SHL DUP2 MSTORE PUSH1 0x4 ADD PUSH1 0xA0 PUSH1 0x40 MLOAD DUP1 DUP4 SUB DUP2 DUP7 GAS STATICCALL ISZERO DUP1 ISZERO PUSH2 0x6A3 JUMPI RETURNDATASIZE PUSH1 0x0 DUP1 RETURNDATACOPY RETURNDATASIZE PUSH1 0x0 REVERT JUMPDEST POP POP POP POP PUSH1 0x40 MLOAD RETURNDATASIZE PUSH1 0x1F NOT PUSH1 0x1F DUP3 ADD AND DUP3 ADD DUP1 PUSH1 0x40 MSTORE POP DUP2 ADD SWAP1 PUSH2 0x6C7 SWAP2 SWAP1 PUSH2 0xD9A JUMP JUMPDEST SWAP1 POP SWAP2 SWAP1 POP JUMP JUMPDEST PUSH2 0x6D6 PUSH2 0x7BF JUMP JUMPDEST PUSH1 0x0 PUSH1 0x40 MLOAD DUP1 PUSH1 0x20 ADD PUSH1 0x40 MSTORE SWAP1 DUP2 PUSH1 0x0 DUP3 ADD SLOAD DUP2 MSTORE POP POP SWAP1 POP SWAP1 JUMP JUMPDEST PUSH1 0x0 PUSH1 0x1 PUSH1 0x0 DUP4 DUP2 MSTORE PUSH1 0x20 ADD SWAP1 DUP2 MSTORE PUSH1 0x20 ADD PUSH1 0x0 KECCAK256 PUSH1 0x0 SWAP1 SLOAD SWAP1 PUSH2 0x100 EXP SWAP1 DIV PUSH20 0xFFFFFFFFFFFFFFFFFFFFFFFFFFFFFFFFFFFFFFFF AND PUSH20 0xFFFFFFFFFFFFFFFFFFFFFFFFFFFFFFFFFFFFFFFF AND PUSH4 0xDBD0E1B6 PUSH1 0x40 MLOAD DUP2 PUSH4 0xFFFFFFFF AND PUSH1 0xE0 SHL DUP2 MSTORE PUSH1 0x4 ADD PUSH1 0x20 PUSH1 0x40 MLOAD DUP1 DUP4 SUB DUP2 DUP7 GAS STATICCALL ISZERO DUP1 ISZERO PUSH2 0x772 JUMPI RETURNDATASIZE PUSH1 0x0 DUP1 RETURNDATACOPY RETURNDATASIZE PUSH1 0x0 REVERT JUMPDEST POP POP POP POP PUSH1 0x40 MLOAD RETURNDATASIZE PUSH1 0x1F NOT PUSH1 0x1F DUP3 ADD AND DUP3 ADD DUP1 PUSH1 0x40 MSTORE POP DUP2 ADD SWAP1 PUSH2 0x796 SWAP2 SWAP1 PUSH2 0xBD4 JUMP JUMPDEST SWAP1 POP SWAP2 SWAP1 POP JUMP JUMPDEST PUSH1 0x40 MLOAD DUP1 PUSH1 0xA0 ADD PUSH1 0x40 MSTORE DUP1 PUSH1 0x5 SWAP1 PUSH1 0x20 DUP3 MUL DUP1 CALLDATASIZE DUP4 CALLDATACOPY DUP1 DUP3 ADD SWAP2 POP POP SWAP1 POP POP SWAP1 JUMP JUMPDEST PUSH1 0x40 MLOAD DUP1 PUSH1 0x20 ADD PUSH1 0x40 MSTORE DUP1 PUSH1 0x0 DUP2 MSTORE POP SWAP1 JUMP JUMPDEST PUSH1 0x0 PUSH1 0x40 MLOAD SWAP1 POP SWAP1 JUMP JUMPDEST PUSH1 0x0 DUP1 REVERT JUMPDEST PUSH1 0x0 DUP2 SWAP1 POP SWAP2 SWAP1 POP JUMP JUMPDEST PUSH2 0x7F4 DUP2 PUSH2 0x7E1 JUMP JUMPDEST DUP2 EQ PUSH2 0x7FF JUMPI PUSH1 0x0 DUP1 REVERT JUMPDEST POP JUMP JUMPDEST PUSH1 0x0 DUP2 CALLDATALOAD SWAP1 POP PUSH2 0x811 DUP2 PUSH2 0x7EB JUMP JUMPDEST SWAP3 SWAP2 POP POP JUMP JUMPDEST PUSH1 0x0 PUSH1 0x20 DUP3 DUP5 SUB SLT ISZERO PUSH2 0x82D JUMPI PUSH2 0x82C PUSH2 0x7DC JUMP JUMPDEST JUMPDEST PUSH1 0x0 PUSH2 0x83B DUP5 DUP3 DUP6 ADD PUSH2 0x802 JUMP JUMPDEST SWAP2 POP POP SWAP3 SWAP2 POP POP JUMP JUMPDEST PUSH1 0x0 PUSH4 0xFFFFFFFF DUP3 AND SWAP1 POP SWAP2 SWAP1 POP JUMP JUMPDEST PUSH2 0x85D DUP2 PUSH2 0x844 JUMP JUMPDEST DUP3 MSTORE POP POP JUMP JUMPDEST PUSH1 0x0 PUSH1 0x20 DUP3 ADD SWAP1 POP PUSH2 0x878 PUSH1 0x0 DUP4 ADD DUP5 PUSH2 0x854 JUMP JUMPDEST SWAP3 SWAP2 POP POP JUMP JUMPDEST PUSH2 0x887 DUP2 PUSH2 0x7E1 JUMP JUMPDEST DUP3 MSTORE POP POP JUMP JUMPDEST PUSH1 0x0 PUSH1 0x20 DUP3 ADD SWAP1 POP PUSH2 0x8A2 PUSH1 0x0 DUP4 ADD DUP5 PUSH2 0x87E JUMP JUMPDEST SWAP3 SWAP2 POP POP JUMP JUMPDEST PUSH1 0x0 PUSH20 0xFFFFFFFFFFFFFFFFFFFFFFFFFFFFFFFFFFFFFFFF DUP3 AND SWAP1 POP SWAP2 SWAP1 POP JUMP JUMPDEST PUSH1 0x0 DUP2 SWAP1 POP SWAP2 SWAP1 POP JUMP JUMPDEST PUSH1 0x0 PUSH2 0x8ED PUSH2 0x8E8 PUSH2 0x8E3 DUP5 PUSH2 0x8A8 JUMP JUMPDEST PUSH2 0x8C8 JUMP JUMPDEST PUSH2 0x8A8 JUMP JUMPDEST SWAP1 POP SWAP2 SWAP1 POP JUMP JUMPDEST PUSH1 0x0 PUSH2 0x8FF DUP3 PUSH2 0x8D2 JUMP JUMPDEST SWAP1 POP SWAP2 SWAP1 POP JUMP JUMPDEST PUSH1 0x0 PUSH2 0x911 DUP3 PUSH2 0x8F4 JUMP JUMPDEST SWAP1 POP SWAP2 SWAP1 POP JUMP JUMPDEST PUSH2 0x921 DUP2 PUSH2 0x906 JUMP JUMPDEST DUP3 MSTORE POP POP JUMP JUMPDEST PUSH1 0x0 PUSH1 0x20 DUP3 ADD SWAP1 POP PUSH2 0x93C PUSH1 0x0 DUP4 ADD DUP5 PUSH2 0x918 JUMP JUMPDEST SWAP3 SWAP2 POP POP JUMP JUMPDEST PUSH1 0x0 PUSH2 0x94D DUP3 PUSH2 0x8A8 JUMP JUMPDEST SWAP1 POP SWAP2 SWAP1 POP JUMP JUMPDEST PUSH2 0x95D DUP2 PUSH2 0x942 JUMP JUMPDEST DUP3 MSTORE POP POP JUMP JUMPDEST PUSH1 0x0 PUSH1 0x20 DUP3 ADD SWAP1 POP PUSH2 0x978 PUSH1 0x0 DUP4 ADD DUP5 PUSH2 0x954 JUMP JUMPDEST SWAP3 SWAP2 POP POP JUMP JUMPDEST PUSH32 0x4E487B7100000000000000000000000000000000000000000000000000000000 PUSH1 0x0 MSTORE PUSH1 0x21 PUSH1 0x4 MSTORE PUSH1 0x24 PUSH1 0x0 REVERT JUMPDEST PUSH1 0x5 DUP2 LT PUSH2 0x9BE JUMPI PUSH2 0x9BD PUSH2 0x97E JUMP JUMPDEST JUMPDEST POP JUMP JUMPDEST PUSH1 0x0 DUP2 SWAP1 POP PUSH2 0x9CF DUP3 PUSH2 0x9AD JUMP JUMPDEST SWAP2 SWAP1 POP JUMP JUMPDEST PUSH1 0x0 PUSH2 0x9DF DUP3 PUSH2 0x9C1 JUMP JUMPDEST SWAP1 POP SWAP2 SWAP1 POP JUMP JUMPDEST PUSH2 0x9EF DUP2 PUSH2 0x9D4 JUMP JUMPDEST DUP3 MSTORE POP POP JUMP JUMPDEST PUSH1 0x0 PUSH1 0x20 DUP3 ADD SWAP1 POP PUSH2 0xA0A PUSH1 0x0 DUP4 ADD DUP5 PUSH2 0x9E6 JUMP JUMPDEST SWAP3 SWAP2 POP POP JUMP JUMPDEST PUSH1 0x0 PUSH1 0x5 SWAP1 POP SWAP2 SWAP1 POP JUMP JUMPDEST PUSH1 0x0 DUP2 SWAP1 POP SWAP3 SWAP2 POP POP JUMP JUMPDEST PUSH1 0x0 DUP2 SWAP1 POP SWAP2 SWAP1 POP JUMP JUMPDEST PUSH2 0xA39 DUP2 PUSH2 0x7E1 JUMP JUMPDEST DUP3 MSTORE POP POP JUMP JUMPDEST PUSH1 0x0 PUSH2 0xA4B DUP4 DUP4 PUSH2 0xA30 JUMP JUMPDEST PUSH1 0x20 DUP4 ADD SWAP1 POP SWAP3 SWAP2 POP POP JUMP JUMPDEST PUSH1 0x0 PUSH1 0x20 DUP3 ADD SWAP1 POP SWAP2 SWAP1 POP JUMP JUMPDEST PUSH2 0xA6D DUP2 PUSH2 0xA10 JUMP JUMPDEST PUSH2 0xA77 DUP2 DUP5 PUSH2 0xA1B JUMP JUMPDEST SWAP3 POP PUSH2 0xA82 DUP3 PUSH2 0xA26 JUMP JUMPDEST DUP1 PUSH1 0x0 JUMPDEST DUP4 DUP2 LT ISZERO PUSH2 0xAB3 JUMPI DUP2 MLOAD PUSH2 0xA9A DUP8 DUP3 PUSH2 0xA3F JUMP JUMPDEST SWAP7 POP PUSH2 0xAA5 DUP4 PUSH2 0xA57 JUMP JUMPDEST SWAP3 POP POP PUSH1 0x1 DUP2 ADD SWAP1 POP PUSH2 0xA86 JUMP JUMPDEST POP POP POP POP POP POP JUMP JUMPDEST PUSH1 0x0 PUSH1 0xA0 DUP3 ADD SWAP1 POP PUSH2 0xAD0 PUSH1 0x0 DUP4 ADD DUP5 PUSH2 0xA64 JUMP JUMPDEST SWAP3 SWAP2 POP POP JUMP JUMPDEST PUSH1 0x20 DUP3 ADD PUSH1 0x0 DUP3 ADD MLOAD PUSH2 0xAEC PUSH1 0x0 DUP6 ADD DUP3 PUSH2 0xA30 JUMP JUMPDEST POP POP POP POP JUMP JUMPDEST PUSH1 0x0 PUSH1 0x20 DUP3 ADD SWAP1 POP PUSH2 0xB07 PUSH1 0x0 DUP4 ADD DUP5 PUSH2 0xAD6 JUMP JUMPDEST SWAP3 SWAP2 POP POP JUMP JUMPDEST PUSH2 0xB16 DUP2 PUSH2 0x844 JUMP JUMPDEST DUP2 EQ PUSH2 0xB21 JUMPI PUSH1 0x0 DUP1 REVERT JUMPDEST POP JUMP JUMPDEST PUSH1 0x0 DUP2 MLOAD SWAP1 POP PUSH2 0xB33 DUP2 PUSH2 0xB0D JUMP JUMPDEST SWAP3 SWAP2 POP POP JUMP JUMPDEST PUSH1 0x0 PUSH1 0x20 DUP3 DUP5 SUB SLT ISZERO PUSH2 0xB4F JUMPI PUSH2 0xB4E PUSH2 0x7DC JUMP JUMPDEST JUMPDEST PUSH1 0x0 PUSH2 0xB5D DUP5 DUP3 DUP6 ADD PUSH2 0xB24 JUMP JUMPDEST SWAP2 POP POP SWAP3 SWAP2 POP POP JUMP JUMPDEST PUSH1 0x0 DUP2 MLOAD SWAP1 POP PUSH2 0xB75 DUP2 PUSH2 0x7EB JUMP JUMPDEST SWAP3 SWAP2 POP POP JUMP JUMPDEST PUSH1 0x0 PUSH1 0x20 DUP3 DUP5 SUB SLT ISZERO PUSH2 0xB91 JUMPI PUSH2 0xB90 PUSH2 0x7DC JUMP JUMPDEST JUMPDEST PUSH1 0x0 PUSH2 0xB9F DUP5 DUP3 DUP6 ADD PUSH2 0xB66 JUMP JUMPDEST SWAP2 POP POP SWAP3 SWAP2 POP POP JUMP JUMPDEST PUSH2 0xBB1 DUP2 PUSH2 0x942 JUMP JUMPDEST DUP2 EQ PUSH2 0xBBC JUMPI PUSH1 0x0 DUP1 REVERT JUMPDEST POP JUMP JUMPDEST PUSH1 0x0 DUP2 MLOAD SWAP1 POP PUSH2 0xBCE DUP2 PUSH2 0xBA8 JUMP JUMPDEST SWAP3 SWAP2 POP POP JUMP JUMPDEST PUSH1 0x0 PUSH1 0x20 DUP3 DUP5 SUB SLT ISZERO PUSH2 0xBEA JUMPI PUSH2 0xBE9 PUSH2 0x7DC JUMP JUMPDEST JUMPDEST PUSH1 0x0 PUSH2 0xBF8 DUP5 DUP3 DUP6 ADD PUSH2 0xBBF JUMP JUMPDEST SWAP2 POP POP SWAP3 SWAP2 POP POP JUMP JUMPDEST PUSH1 0x5 DUP2 LT PUSH2 0xC0E JUMPI PUSH1 0x0 DUP1 REVERT JUMPDEST POP JUMP JUMPDEST PUSH1 0x0 DUP2 MLOAD SWAP1 POP PUSH2 0xC20 DUP2 PUSH2 0xC01 JUMP JUMPDEST SWAP3 SWAP2 POP POP JUMP JUMPDEST PUSH1 0x0 PUSH1 0x20 DUP3 DUP5 SUB SLT ISZERO PUSH2 0xC3C JUMPI PUSH2 0xC3B PUSH2 0x7DC JUMP JUMPDEST JUMPDEST PUSH1 0x0 PUSH2 0xC4A DUP5 DUP3 DUP6 ADD PUSH2 0xC11 JUMP JUMPDEST SWAP2 POP POP SWAP3 SWAP2 POP POP JUMP JUMPDEST PUSH1 0x0 DUP1 REVERT JUMPDEST PUSH1 0x0 PUSH1 0x1F NOT PUSH1 0x1F DUP4 ADD AND SWAP1 POP SWAP2 SWAP1 POP JUMP JUMPDEST PUSH32 0x4E487B7100000000000000000000000000000000000000000000000000000000 PUSH1 0x0 MSTORE PUSH1 0x41 PUSH1 0x4 MSTORE PUSH1 0x24 PUSH1 0x0 REVERT JUMPDEST PUSH2 0xCA1 DUP3 PUSH2 0xC58 JUMP JUMPDEST DUP2 ADD DUP2 DUP2 LT PUSH8 0xFFFFFFFFFFFFFFFF DUP3 GT OR ISZERO PUSH2 0xCC0 JUMPI PUSH2 0xCBF PUSH2 0xC69 JUMP JUMPDEST JUMPDEST DUP1 PUSH1 0x40 MSTORE POP POP POP JUMP JUMPDEST PUSH1 0x0 PUSH2 0xCD3 PUSH2 0x7D2 JUMP JUMPDEST SWAP1 POP PUSH2 0xCDF DUP3 DUP3 PUSH2 0xC98 JUMP JUMPDEST SWAP2 SWAP1 POP JUMP JUMPDEST PUSH1 0x0 PUSH8 0xFFFFFFFFFFFFFFFF DUP3 GT ISZERO PUSH2 0xCFF JUMPI PUSH2 0xCFE PUSH2 0xC69 JUMP JUMPDEST JUMPDEST PUSH1 0x20 DUP3 MUL SWAP1 POP SWAP2 SWAP1 POP JUMP JUMPDEST PUSH1 0x0 DUP1 REVERT JUMPDEST PUSH1 0x0 PUSH2 0xD22 PUSH2 0xD1D DUP5 PUSH2 0xCE4 JUMP JUMPDEST PUSH2 0xCC9 JUMP JUMPDEST SWAP1 POP DUP1 PUSH1 0x20 DUP5 MUL DUP4 ADD DUP6 DUP2 GT ISZERO PUSH2 0xD3C JUMPI PUSH2 0xD3B PUSH2 0xD0A JUMP JUMPDEST JUMPDEST DUP4 JUMPDEST DUP2 DUP2 LT ISZERO PUSH2 0xD65 JUMPI DUP1 PUSH2 0xD51 DUP9 DUP3 PUSH2 0xB66 JUMP JUMPDEST DUP5 MSTORE PUSH1 0x20 DUP5 ADD SWAP4 POP POP PUSH1 0x20 DUP2 ADD SWAP1 POP PUSH2 0xD3E JUMP JUMPDEST POP POP POP SWAP4 SWAP3 POP POP POP JUMP JUMPDEST PUSH1 0x0 DUP3 PUSH1 0x1F DUP4 ADD SLT PUSH2 0xD84 JUMPI PUSH2 0xD83 PUSH2 0xC53 JUMP JUMPDEST JUMPDEST PUSH1 0x5 PUSH2 0xD91 DUP5 DUP3 DUP6 PUSH2 0xD0F JUMP JUMPDEST SWAP2 POP POP SWAP3 SWAP2 POP POP JUMP JUMPDEST PUSH1 0x0 PUSH1 0xA0 DUP3 DUP5 SUB SLT ISZERO PUSH2 0xDB0 JUMPI PUSH2 0xDAF PUSH2 0x7DC JUMP JUMPDEST JUMPDEST PUSH1 0x0 PUSH2 0xDBE DUP5 DUP3 DUP6 ADD PUSH2 0xD6F JUMP JUMPDEST SWAP2 POP POP SWAP3 SWAP2 POP POP JUMP INVALID LOG2 PUSH5 0x6970667358 0x22 SLT KECCAK256 LOG3 JUMPDEST 0xF SWAP6 RETURNDATACOPY 0xB8 0x23 GASLIMIT 0xBE 0xC9 PUSH18 0x37F17FB4B7F1A8BD4EE8E1EAB759C5E5D673 PUSH32 0xEBC164736F6C634300080A003300000000000000000000000000000000000000 "
				},
				"gasEstimates": {
					"creation": {
						"codeDepositCost": "716200",
						"executionCost": "747",
						"totalCost": "716947"
					},
					"external": {
						"getBuyer(uint256)": "infinite",
						"getCDS(uint256)": "infinite",
						"getCDSId()": "2679",
						"getPremium(uint256)": "infinite",
						"getPrices(uint256)": "infinite",
						"getRounds(uint256)": "infinite",
						"getSeller(uint256)": "infinite",
						"getSellerDeposit(uint256)": "infinite",
						"getStatus(uint256)": "infinite",
						"nextPayDate(uint256)": "infinite"
					},
					"internal": {
						"_accept(bool,uint256,uint256)": "infinite",
						"_cancel(uint256)": "infinite",
						"_claim(uint256)": "infinite",
						"_close(uint256)": "infinite",
						"_create(bool,uint256,uint256,uint256,uint256,uint256,uint32,uint32)": "infinite",
						"_payPremium(uint256)": "infinite"
					}
				},
				"methodIdentifiers": {
					"getBuyer(uint256)": "5bf608b8",
					"getCDS(uint256)": "5af8d21c",
					"getCDSId()": "d0e5d955",
					"getPremium(uint256)": "1bf1fffb",
					"getPrices(uint256)": "91492956",
					"getRounds(uint256)": "13ef3dcc",
					"getSeller(uint256)": "d6a9de51",
					"getSellerDeposit(uint256)": "88106323",
					"getStatus(uint256)": "5c622a0e",
					"nextPayDate(uint256)": "44a9d244"
				}
			},
			"storageLayout": {
				"storage": [
					{
						"astId": 920,
						"contract": "contracts/Handler/CDSFactory.sol:CDSFactory",
						"label": "_cdsId",
						"offset": 0,
						"slot": "0",
						"type": "t_struct(Counter)140_storage"
					},
					{
						"astId": 925,
						"contract": "contracts/Handler/CDSFactory.sol:CDSFactory",
						"label": "_cdsList",
						"offset": 0,
						"slot": "1",
						"type": "t_mapping(t_uint256,t_contract(CDS)847)"
					},
					{
						"astId": 929,
						"contract": "contracts/Handler/CDSFactory.sol:CDSFactory",
						"label": "nextPayDate",
						"offset": 0,
						"slot": "2",
						"type": "t_mapping(t_uint256,t_uint256)"
					}
				],
				"types": {
					"t_contract(CDS)847": {
						"encoding": "inplace",
						"label": "contract CDS",
						"numberOfBytes": "20"
					},
					"t_mapping(t_uint256,t_contract(CDS)847)": {
						"encoding": "mapping",
						"key": "t_uint256",
						"label": "mapping(uint256 => contract CDS)",
						"numberOfBytes": "32",
						"value": "t_contract(CDS)847"
					},
					"t_mapping(t_uint256,t_uint256)": {
						"encoding": "mapping",
						"key": "t_uint256",
						"label": "mapping(uint256 => uint256)",
						"numberOfBytes": "32",
						"value": "t_uint256"
					},
					"t_struct(Counter)140_storage": {
						"encoding": "inplace",
						"label": "struct Counters.Counter",
						"members": [
							{
								"astId": 139,
								"contract": "contracts/Handler/CDSFactory.sol:CDSFactory",
								"label": "_value",
								"offset": 0,
								"slot": "0",
								"type": "t_uint256"
							}
						],
						"numberOfBytes": "32"
					},
					"t_uint256": {
						"encoding": "inplace",
						"label": "uint256",
						"numberOfBytes": "32"
					}
				}
			},
			"userdoc": {
				"kind": "user",
				"methods": {},
				"version": 1
			}
		}
	}
}