{
  "contractName": "CDS",
  "abi": [
    {
      "inputs": [],
      "stateMutability": "payable",
      "type": "constructor"
    },
    {
      "anonymous": false,
      "inputs": [
        {
          "indexed": true,
          "internalType": "address",
          "name": "seller",
          "type": "address"
        },
        {
          "indexed": false,
          "internalType": "uint256",
          "name": "swapId",
          "type": "uint256"
        }
      ],
      "name": "AcceptSwap",
      "type": "event"
    },
    {
      "anonymous": false,
      "inputs": [
        {
          "indexed": true,
          "internalType": "address",
          "name": "buyer",
          "type": "address"
        },
        {
          "indexed": false,
          "internalType": "uint256",
          "name": "claimPrice",
          "type": "uint256"
        },
        {
          "indexed": false,
          "internalType": "uint256",
          "name": "liquidationPrice",
          "type": "uint256"
        },
        {
          "indexed": false,
          "internalType": "uint256",
          "name": "premium",
          "type": "uint256"
        },
        {
          "indexed": false,
          "internalType": "uint256",
          "name": "premiumInterval",
          "type": "uint256"
        },
        {
          "indexed": false,
          "internalType": "uint256",
          "name": "totalPremiumRounds",
          "type": "uint256"
        },
        {
          "indexed": false,
          "internalType": "uint256",
          "name": "buyerDeposit",
          "type": "uint256"
        }
      ],
      "name": "MakeSwap",
      "type": "event"
    },
    {
      "anonymous": false,
      "inputs": [
        {
          "indexed": true,
          "internalType": "address",
          "name": "previousOwner",
          "type": "address"
        },
        {
          "indexed": true,
          "internalType": "address",
          "name": "newOwner",
          "type": "address"
        }
      ],
      "name": "OwnershipTransferred",
      "type": "event"
    },
    {
      "inputs": [],
      "name": "getPriceFromOracle",
      "outputs": [
        {
          "internalType": "uint256",
          "name": "",
          "type": "uint256"
        }
      ],
      "stateMutability": "view",
      "type": "function"
    },
    {
      "inputs": [],
      "name": "owner",
      "outputs": [
        {
          "internalType": "address",
          "name": "",
          "type": "address"
        }
      ],
      "stateMutability": "view",
      "type": "function"
    },
    {
      "inputs": [],
      "name": "renounceOwnership",
      "outputs": [],
      "stateMutability": "nonpayable",
      "type": "function"
    },
    {
      "inputs": [
        {
          "internalType": "address",
          "name": "_priceOracleAddress",
          "type": "address"
        }
      ],
      "name": "setOracle",
      "outputs": [
        {
          "internalType": "bool",
          "name": "",
          "type": "bool"
        }
      ],
      "stateMutability": "nonpayable",
      "type": "function"
    },
    {
      "inputs": [
        {
          "internalType": "address",
          "name": "newOwner",
          "type": "address"
        }
      ],
      "name": "transferOwnership",
      "outputs": [],
      "stateMutability": "nonpayable",
      "type": "function"
    },
    {
      "inputs": [
        {
          "internalType": "address",
          "name": "addr",
          "type": "address"
        },
        {
          "internalType": "uint256",
          "name": "initAssetPrice",
          "type": "uint256"
        },
        {
          "internalType": "uint256",
          "name": "claimPrice",
          "type": "uint256"
        },
        {
          "internalType": "uint256",
          "name": "liquidationPrice",
          "type": "uint256"
        },
        {
          "internalType": "uint256",
          "name": "sellerDeposit",
          "type": "uint256"
        },
        {
          "internalType": "uint256",
          "name": "premium",
          "type": "uint256"
        },
        {
          "internalType": "uint256",
          "name": "premiumInterval",
          "type": "uint256"
        },
        {
          "internalType": "uint256",
          "name": "totalPremiumRounds",
          "type": "uint256"
        }
      ],
      "name": "makeSwap",
      "outputs": [
        {
          "internalType": "uint256",
          "name": "",
          "type": "uint256"
        }
      ],
      "stateMutability": "payable",
      "type": "function"
    },
    {
      "inputs": [
        {
          "internalType": "address",
          "name": "addr",
          "type": "address"
        },
        {
          "internalType": "uint256",
          "name": "initAssetPrice",
          "type": "uint256"
        },
        {
          "internalType": "uint256",
          "name": "swapId",
          "type": "uint256"
        }
      ],
      "name": "acceptSwap",
      "outputs": [
        {
          "internalType": "uint256",
          "name": "",
          "type": "uint256"
        }
      ],
      "stateMutability": "payable",
      "type": "function"
    },
    {
      "inputs": [
        {
          "internalType": "uint256",
          "name": "swapId",
          "type": "uint256"
        }
      ],
      "name": "getSwap",
      "outputs": [
        {
          "components": [
            {
              "components": [
                {
                  "internalType": "address",
                  "name": "addr",
                  "type": "address"
                },
                {
                  "internalType": "uint256",
                  "name": "deposit",
                  "type": "uint256"
                },
                {
                  "internalType": "uint256",
                  "name": "lastPayDate",
                  "type": "uint256"
                },
                {
                  "internalType": "uint256",
                  "name": "nextPayDate",
                  "type": "uint256"
                }
              ],
              "internalType": "struct Swaps.Buyer",
              "name": "buyer",
              "type": "tuple"
            },
            {
              "components": [
                {
                  "internalType": "address",
                  "name": "addr",
                  "type": "address"
                },
                {
                  "internalType": "uint256",
                  "name": "deposit",
                  "type": "uint256"
                },
                {
                  "internalType": "bool",
                  "name": "isDeposited",
                  "type": "bool"
                }
              ],
              "internalType": "struct Swaps.Seller",
              "name": "seller",
              "type": "tuple"
            },
            {
              "internalType": "uint256",
              "name": "initAssetPrice",
              "type": "uint256"
            },
            {
              "internalType": "uint256",
              "name": "claimPrice",
              "type": "uint256"
            },
            {
              "internalType": "uint256",
              "name": "liquidationPrice",
              "type": "uint256"
            },
            {
              "internalType": "uint256",
              "name": "premium",
              "type": "uint256"
            },
            {
              "internalType": "uint256",
              "name": "premiumInterval",
              "type": "uint256"
            },
            {
              "internalType": "uint256",
              "name": "totalPremiumRounds",
              "type": "uint256"
            },
            {
              "internalType": "enum Swaps.Status",
              "name": "status",
              "type": "uint8"
            }
          ],
          "internalType": "struct Swaps.Swap",
          "name": "",
          "type": "tuple"
        }
      ],
      "stateMutability": "view",
      "type": "function"
    },
    {
      "inputs": [
        {
          "internalType": "uint256",
          "name": "swapId",
          "type": "uint256"
        }
      ],
      "name": "getBuyer",
      "outputs": [
        {
          "components": [
            {
              "internalType": "address",
              "name": "addr",
              "type": "address"
            },
            {
              "internalType": "uint256",
              "name": "deposit",
              "type": "uint256"
            },
            {
              "internalType": "uint256",
              "name": "lastPayDate",
              "type": "uint256"
            },
            {
              "internalType": "uint256",
              "name": "nextPayDate",
              "type": "uint256"
            }
          ],
          "internalType": "struct Swaps.Buyer",
          "name": "",
          "type": "tuple"
        }
      ],
      "stateMutability": "view",
      "type": "function"
    },
    {
      "inputs": [
        {
          "internalType": "uint256",
          "name": "swapId",
          "type": "uint256"
        }
      ],
      "name": "getSeller",
      "outputs": [
        {
          "components": [
            {
              "internalType": "address",
              "name": "addr",
              "type": "address"
            },
            {
              "internalType": "uint256",
              "name": "deposit",
              "type": "uint256"
            },
            {
              "internalType": "bool",
              "name": "isDeposited",
              "type": "bool"
            }
          ],
          "internalType": "struct Swaps.Seller",
          "name": "",
          "type": "tuple"
        }
      ],
      "stateMutability": "view",
      "type": "function"
    },
    {
      "inputs": [],
      "name": "getSwapId",
      "outputs": [
        {
          "components": [
            {
              "internalType": "uint256",
              "name": "_value",
              "type": "uint256"
            }
          ],
          "internalType": "struct Counters.Counter",
          "name": "",
          "type": "tuple"
        }
      ],
      "stateMutability": "view",
      "type": "function"
    }
  ],
  "bytecode": "0x608060405261002061001561002560201b60201c565b61002d60201b60201c565b6100f3565b600033905090565b6000600360009054906101000a900473ffffffffffffffffffffffffffffffffffffffff16905081600360006101000a81548173ffffffffffffffffffffffffffffffffffffffff021916908373ffffffffffffffffffffffffffffffffffffffff1602179055508173ffffffffffffffffffffffffffffffffffffffff168173ffffffffffffffffffffffffffffffffffffffff167f8be0079c531659141344cd1fd0a4f28419497f9722a3daafe3b4186f6b6457e060405160405180910390a35050565b611927806101026000396000f3fe60806040526004361061009c5760003560e01c8063715018a611610064578063715018a6146101a15780637adbf973146101b85780638d4e7f8d146101f55780638da5cb5b14610225578063d6a9de5114610250578063f2fde38b1461028d5761009c565b80630d839268146100a157806338f5a491146100d1578063496ab39a146100fc5780634a0d89ba146101275780635bf608b814610164575b600080fd5b6100bb60048036038101906100b6919061103a565b6102b6565b6040516100c891906110ff565b60405180910390f35b3480156100dd57600080fd5b506100e661045e565b6040516100f391906110ff565b60405180910390f35b34801561010857600080fd5b506101116104f9565b60405161011e9190611145565b60405180910390f35b34801561013357600080fd5b5061014e60048036038101906101499190611160565b61051d565b60405161015b9190611381565b60405180910390f35b34801561017057600080fd5b5061018b60048036038101906101869190611160565b6106d9565b60405161019891906113f2565b60405180910390f35b3480156101ad57600080fd5b506101b661077d565b005b3480156101c457600080fd5b506101df60048036038101906101da919061140d565b610791565b6040516101ec9190611449565b60405180910390f35b61020f600480360381019061020a9190611464565b61084a565b60405161021c91906110ff565b60405180910390f35b34801561023157600080fd5b5061023a6109e4565b60405161024791906114c6565b60405180910390f35b34801561025c57600080fd5b5061027760048036038101906102729190611160565b610a0e565b6040516102849190611523565b60405180910390f35b34801561029957600080fd5b506102b460048036038101906102af919061140d565b610ab9565b005b60006102c06109e4565b73ffffffffffffffffffffffffffffffffffffffff163373ffffffffffffffffffffffffffffffffffffffff160361032d576040517f08c379a00000000000000000000000000000000000000000000000000000000081526004016103249061159b565b60405180910390fd5b60006001610345600387610b3c90919063ffffffff16565b61034f91906115ea565b9050348114610393576040517f08c379a000000000000000000000000000000000000000000000000000000000815260040161038a90611690565b60405180910390fd5b61039b6109e4565b73ffffffffffffffffffffffffffffffffffffffff166108fc349081150290604051600060405180830381858888f193505050501580156103e0573d6000803e3d6000fd5b5060006103f38b8b8b8b8b8b8b8b610b52565b90508a73ffffffffffffffffffffffffffffffffffffffff167f65625392b32f97ccad6df3c2d197a69dcf8e434d9735b4861cf672e8be095d2f8a8a89898988604051610445969594939291906116b0565b60405180910390a2809250505098975050505050505050565b60008060008054906101000a900473ffffffffffffffffffffffffffffffffffffffff1673ffffffffffffffffffffffffffffffffffffffff166398d5fdca6040518163ffffffff1660e01b8152600401602060405180830381865afa1580156104cc573d6000803e3d6000fd5b505050506040513d601f19601f820116820180604052508101906104f09190611726565b90508091505090565b610501610ead565b6001604051806020016040529081600082015481525050905090565b610525610ec0565b6002600083815260200190815260200160002060405180610120016040529081600082016040518060800160405290816000820160009054906101000a900473ffffffffffffffffffffffffffffffffffffffff1673ffffffffffffffffffffffffffffffffffffffff1673ffffffffffffffffffffffffffffffffffffffff16815260200160018201548152602001600282015481526020016003820154815250508152602001600482016040518060600160405290816000820160009054906101000a900473ffffffffffffffffffffffffffffffffffffffff1673ffffffffffffffffffffffffffffffffffffffff1673ffffffffffffffffffffffffffffffffffffffff168152602001600182015481526020016002820160009054906101000a900460ff1615151515815250508152602001600782015481526020016008820154815260200160098201548152602001600a8201548152602001600b8201548152602001600c8201548152602001600d820160009054906101000a900460ff1660058111156106bc576106bb61124e565b5b60058111156106ce576106cd61124e565b5b815250509050919050565b6106e1610f2a565b600260008381526020019081526020016000206000016040518060800160405290816000820160009054906101000a900473ffffffffffffffffffffffffffffffffffffffff1673ffffffffffffffffffffffffffffffffffffffff1673ffffffffffffffffffffffffffffffffffffffff16815260200160018201548152602001600282015481526020016003820154815250509050919050565b610785610c1c565b61078f6000610c9a565b565b60008073ffffffffffffffffffffffffffffffffffffffff168273ffffffffffffffffffffffffffffffffffffffff1603610801576040517f08c379a00000000000000000000000000000000000000000000000000000000081526004016107f89061179f565b60405180910390fd5b816000806101000a81548173ffffffffffffffffffffffffffffffffffffffff021916908373ffffffffffffffffffffffffffffffffffffffff16021790555060019050919050565b60006108546109e4565b73ffffffffffffffffffffffffffffffffffffffff163373ffffffffffffffffffffffffffffffffffffffff16036108c1576040517f08c379a00000000000000000000000000000000000000000000000000000000081526004016108b89061159b565b60405180910390fd5b6000600160026000858152602001908152602001600020600401600101546108e991906115ea565b905034811461092d576040517f08c379a000000000000000000000000000000000000000000000000000000000815260040161092490611690565b60405180910390fd5b6109356109e4565b73ffffffffffffffffffffffffffffffffffffffff166108fc349081150290604051600060405180830381858888f1935050505015801561097a573d6000803e3d6000fd5b506000610988868686610d60565b90508573ffffffffffffffffffffffffffffffffffffffff167f96a33d274168dd9f48db62d10e3a70d2a3d6b885f26deb52297a7db0d779aecd856040516109d091906110ff565b60405180910390a280925050509392505050565b6000600360009054906101000a900473ffffffffffffffffffffffffffffffffffffffff16905090565b610a16610f68565b600260008381526020019081526020016000206004016040518060600160405290816000820160009054906101000a900473ffffffffffffffffffffffffffffffffffffffff1673ffffffffffffffffffffffffffffffffffffffff1673ffffffffffffffffffffffffffffffffffffffff168152602001600182015481526020016002820160009054906101000a900460ff1615151515815250509050919050565b610ac1610c1c565b600073ffffffffffffffffffffffffffffffffffffffff168173ffffffffffffffffffffffffffffffffffffffff1603610b30576040517f08c379a0000000000000000000000000000000000000000000000000000000008152600401610b2790611831565b60405180910390fd5b610b3981610c9a565b50565b60008183610b4a91906115ea565b905092915050565b6000610b5e6001610e64565b6000610b6a6001610e7a565b905060006002600083815260200190815260200160002090508a8160000160000160006101000a81548173ffffffffffffffffffffffffffffffffffffffff021916908373ffffffffffffffffffffffffffffffffffffffff1602179055508981600701819055508881600801819055508781600901819055508581600a01819055508481600b01819055508381600c0181905550868160040160010181905550819250505098975050505050505050565b610c24610e88565b73ffffffffffffffffffffffffffffffffffffffff16610c426109e4565b73ffffffffffffffffffffffffffffffffffffffff1614610c98576040517f08c379a0000000000000000000000000000000000000000000000000000000008152600401610c8f9061189d565b60405180910390fd5b565b6000600360009054906101000a900473ffffffffffffffffffffffffffffffffffffffff16905081600360006101000a81548173ffffffffffffffffffffffffffffffffffffffff021916908373ffffffffffffffffffffffffffffffffffffffff1602179055508173ffffffffffffffffffffffffffffffffffffffff168173ffffffffffffffffffffffffffffffffffffffff167f8be0079c531659141344cd1fd0a4f28419497f9722a3daafe3b4186f6b6457e060405160405180910390a35050565b600080600260008481526020019081526020016000209050848160040160000160006101000a81548173ffffffffffffffffffffffffffffffffffffffff021916908373ffffffffffffffffffffffffffffffffffffffff16021790555083816007018190555060018160040160020160006101000a81548160ff0219169083151502179055506000610df682600a0154610e90565b905080826000016001018190555042826000016002018190555081600b015442610e2091906118bd565b8260000160030181905550600182600d0160006101000a81548160ff02191690836005811115610e5357610e5261124e565b5b021790555083925050509392505050565b6001816000016000828254019250508190555050565b600081600001549050919050565b600033905090565b6000610ea6600383610b3c90919063ffffffff16565b9050919050565b6040518060200160405280600081525090565b604051806101200160405280610ed4610f2a565b8152602001610ee1610f68565b815260200160008152602001600081526020016000815260200160008152602001600081526020016000815260200160006005811115610f2457610f2361124e565b5b81525090565b6040518060800160405280600073ffffffffffffffffffffffffffffffffffffffff1681526020016000815260200160008152602001600081525090565b6040518060600160405280600073ffffffffffffffffffffffffffffffffffffffff168152602001600081526020016000151581525090565b600080fd5b600073ffffffffffffffffffffffffffffffffffffffff82169050919050565b6000610fd182610fa6565b9050919050565b610fe181610fc6565b8114610fec57600080fd5b50565b600081359050610ffe81610fd8565b92915050565b6000819050919050565b61101781611004565b811461102257600080fd5b50565b6000813590506110348161100e565b92915050565b600080600080600080600080610100898b03121561105b5761105a610fa1565b5b60006110698b828c01610fef565b985050602061107a8b828c01611025565b975050604061108b8b828c01611025565b965050606061109c8b828c01611025565b95505060806110ad8b828c01611025565b94505060a06110be8b828c01611025565b93505060c06110cf8b828c01611025565b92505060e06110e08b828c01611025565b9150509295985092959890939650565b6110f981611004565b82525050565b600060208201905061111460008301846110f0565b92915050565b61112381611004565b82525050565b60208201600082015161113f600085018261111a565b50505050565b600060208201905061115a6000830184611129565b92915050565b60006020828403121561117657611175610fa1565b5b600061118484828501611025565b91505092915050565b61119681610fc6565b82525050565b6080820160008201516111b2600085018261118d565b5060208201516111c5602085018261111a565b5060408201516111d8604085018261111a565b5060608201516111eb606085018261111a565b50505050565b60008115159050919050565b611206816111f1565b82525050565b606082016000820151611222600085018261118d565b506020820151611235602085018261111a565b50604082015161124860408501826111fd565b50505050565b7f4e487b7100000000000000000000000000000000000000000000000000000000600052602160045260246000fd5b6006811061128e5761128d61124e565b5b50565b600081905061129f8261127d565b919050565b60006112af82611291565b9050919050565b6112bf816112a4565b82525050565b6101c0820160008201516112dc600085018261119c565b5060208201516112ef608085018261120c565b50604082015161130260e085018261111a565b50606082015161131661010085018261111a565b50608082015161132a61012085018261111a565b5060a082015161133e61014085018261111a565b5060c082015161135261016085018261111a565b5060e082015161136661018085018261111a565b5061010082015161137b6101a08501826112b6565b50505050565b60006101c08201905061139760008301846112c5565b92915050565b6080820160008201516113b3600085018261118d565b5060208201516113c6602085018261111a565b5060408201516113d9604085018261111a565b5060608201516113ec606085018261111a565b50505050565b6000608082019050611407600083018461139d565b92915050565b60006020828403121561142357611422610fa1565b5b600061143184828501610fef565b91505092915050565b611443816111f1565b82525050565b600060208201905061145e600083018461143a565b92915050565b60008060006060848603121561147d5761147c610fa1565b5b600061148b86828701610fef565b935050602061149c86828701611025565b92505060406114ad86828701611025565b9150509250925092565b6114c081610fc6565b82525050565b60006020820190506114db60008301846114b7565b92915050565b6060820160008201516114f7600085018261118d565b50602082015161150a602085018261111a565b50604082015161151d60408501826111fd565b50505050565b600060608201905061153860008301846114e1565b92915050565b600082825260208201905092915050565b7f4f776e65722063616e206e6f742063616c6c20746865206d6574686f64000000600082015250565b6000611585601d8361153e565b91506115908261154f565b602082019050919050565b600060208201905081810360008301526115b481611578565b9050919050565b7f4e487b7100000000000000000000000000000000000000000000000000000000600052601160045260246000fd5b60006115f582611004565b915061160083611004565b9250817fffffffffffffffffffffffffffffffffffffffffffffffffffffffffffffffff0483118215151615611639576116386115bb565b5b828202905092915050565b7f496e76616c69642065746820616d6f756e740000000000000000000000000000600082015250565b600061167a60128361153e565b915061168582611644565b602082019050919050565b600060208201905081810360008301526116a98161166d565b9050919050565b600060c0820190506116c560008301896110f0565b6116d260208301886110f0565b6116df60408301876110f0565b6116ec60608301866110f0565b6116f960808301856110f0565b61170660a08301846110f0565b979650505050505050565b6000815190506117208161100e565b92915050565b60006020828403121561173c5761173b610fa1565b5b600061174a84828501611711565b91505092915050565b7f496e76616c696420616464726573730000000000000000000000000000000000600082015250565b6000611789600f8361153e565b915061179482611753565b602082019050919050565b600060208201905081810360008301526117b88161177c565b9050919050565b7f4f776e61626c653a206e6577206f776e657220697320746865207a65726f206160008201527f6464726573730000000000000000000000000000000000000000000000000000602082015250565b600061181b60268361153e565b9150611826826117bf565b604082019050919050565b6000602082019050818103600083015261184a8161180e565b9050919050565b7f4f776e61626c653a2063616c6c6572206973206e6f7420746865206f776e6572600082015250565b600061188760208361153e565b915061189282611851565b602082019050919050565b600060208201905081810360008301526118b68161187a565b9050919050565b60006118c882611004565b91506118d383611004565b92508282019050808211156118eb576118ea6115bb565b5b9291505056fea2646970667358221220cc121421393b1c4820091b0bf07258f70ef33460775ce293ecc93bc40216c40364736f6c63430008100033",
  "immutableReferences": {},
  "source": "// SPDX-License-Identifier: MIT\npragma solidity ^0.8.7;\n\nimport './Swaps/Swaps.sol';\nimport '@openzeppelin/contracts/access/Ownable.sol';\nimport '@openzeppelin/contracts/utils/math/SafeMath.sol';\n\ncontract CDS is Swaps, Ownable {\n  using SafeMath for uint256;\n\n  constructor() payable {}\n\n  modifier isNotOwner() {\n    require(msg.sender != owner(), 'Owner can not call the method');\n    _;\n  }\n\n  event MakeSwap(\n    address indexed buyer,\n    uint256 claimPrice,\n    uint256 liquidationPrice,\n    uint256 premium,\n    uint256 premiumInterval,\n    uint256 totalPremiumRounds,\n    uint256 buyerDeposit\n  );\n  event AcceptSwap(address indexed seller, uint256 swapId);\n\n  function makeSwap(\n    address addr,\n    uint256 initAssetPrice,\n    uint256 claimPrice,\n    uint256 liquidationPrice,\n    uint256 sellerDeposit,\n    uint256 premium,\n    uint256 premiumInterval,\n    uint256 totalPremiumRounds\n  ) public payable isNotOwner returns (uint256) {\n    uint256 buyerDeposit = premium.mul(3) * 1 wei;\n    require(buyerDeposit == msg.value, 'Invalid eth amount');\n    payable(owner()).transfer(msg.value);\n\n    uint256 newSwapId = _makeSwap(\n      addr,\n      initAssetPrice,\n      claimPrice,\n      liquidationPrice,\n      sellerDeposit,\n      premium,\n      premiumInterval,\n      totalPremiumRounds\n    );\n\n    emit MakeSwap(\n      addr,\n      claimPrice,\n      liquidationPrice,\n      premium,\n      premiumInterval,\n      totalPremiumRounds,\n      buyerDeposit\n    );\n\n    return newSwapId;\n  }\n\n  function acceptSwap(\n    address addr,\n    uint256 initAssetPrice,\n    uint256 swapId\n  ) public payable isNotOwner returns (uint256) {\n    uint256 sellerDeposit = _swaps[swapId].seller.deposit * 1 wei;\n    require(sellerDeposit == msg.value, 'Invalid eth amount');\n    payable(owner()).transfer(msg.value);\n\n    uint256 acceptedSwapId = _acceptSwap(addr, initAssetPrice, swapId);\n    emit AcceptSwap(addr, swapId);\n    return acceptedSwapId;\n  }\n\n  function getSwap(uint256 swapId) public view returns (Swap memory) {\n    return _swaps[swapId];\n  }\n\n  function getBuyer(uint256 swapId) public view returns (Buyer memory) {\n    return _swaps[swapId].buyer;\n  }\n\n  function getSeller(uint256 swapId) public view returns (Seller memory) {\n    return _swaps[swapId].seller;\n  }\n\n  function getSwapId() public view returns (Counters.Counter memory) {\n    return _swapId;\n  }\n}\n",
  "sourcePath": "/Users/duh8n/Workspace/beb_project/BEB-07-final-CDS/contract/contracts/CDS.sol",
  "compiler": {
    "name": "solc",
    "version": "0.8.16+commit.07a7930e.Emscripten.clang"
  },
  "schemaVersion": "3.4.10",
  "updatedAt": "2023-01-24T04:13:01.680Z",
  "devdoc": {
    "kind": "dev",
    "methods": {
      "owner()": {
        "details": "Returns the address of the current owner."
      },
      "renounceOwnership()": {
        "details": "Leaves the contract without owner. It will not be possible to call `onlyOwner` functions anymore. Can only be called by the current owner. NOTE: Renouncing ownership will leave the contract without an owner, thereby removing any functionality that is only available to the owner."
      },
      "transferOwnership(address)": {
        "details": "Transfers ownership of the contract to a new account (`newOwner`). Can only be called by the current owner."
      }
    },
    "version": 1
  },
  "userdoc": {
    "kind": "user",
    "methods": {},
    "version": 1
  }
}