{
  "contractName": "CDS",
  "abi": [
    {
      "inputs": [],
      "stateMutability": "payable",
      "type": "constructor",
      "payable": true
    },
    {
      "anonymous": false,
      "inputs": [
        {
          "indexed": true,
          "internalType": "address",
          "name": "seller",
          "type": "address"
        },
        {
          "indexed": false,
          "internalType": "uint256",
          "name": "swapId",
          "type": "uint256"
        },
        {
          "indexed": false,
          "internalType": "uint256",
          "name": "sellerDeposit",
          "type": "uint256"
        }
      ],
      "name": "AcceptSwap",
      "type": "event"
    },
    {
      "anonymous": false,
      "inputs": [
        {
          "indexed": false,
          "internalType": "uint256",
          "name": "swapId",
          "type": "uint256"
        }
      ],
      "name": "Close",
      "type": "event"
    },
    {
      "anonymous": false,
      "inputs": [
        {
          "indexed": true,
          "internalType": "address",
          "name": "buyer",
          "type": "address"
        },
        {
          "indexed": false,
          "internalType": "uint256",
          "name": "swapId",
          "type": "uint256"
        },
        {
          "indexed": false,
          "internalType": "uint256",
          "name": "claimPrice",
          "type": "uint256"
        },
        {
          "indexed": false,
          "internalType": "uint256",
          "name": "liquidationPrice",
          "type": "uint256"
        },
        {
          "indexed": false,
          "internalType": "uint256",
          "name": "premium",
          "type": "uint256"
        },
        {
          "indexed": false,
          "internalType": "uint256",
          "name": "premiumInterval",
          "type": "uint256"
        },
        {
          "indexed": false,
          "internalType": "uint256",
          "name": "totalPremiumRounds",
          "type": "uint256"
        },
        {
          "indexed": false,
          "internalType": "uint256",
          "name": "buyerDeposit",
          "type": "uint256"
        }
      ],
      "name": "CreateSwap",
      "type": "event"
    },
    {
      "anonymous": false,
      "inputs": [
        {
          "indexed": true,
          "internalType": "address",
          "name": "previousOwner",
          "type": "address"
        },
        {
          "indexed": true,
          "internalType": "address",
          "name": "newOwner",
          "type": "address"
        }
      ],
      "name": "OwnershipTransferred",
      "type": "event"
    },
    {
      "inputs": [],
      "name": "getPriceFromOracle",
      "outputs": [
        {
          "internalType": "uint256",
          "name": "",
          "type": "uint256"
        }
      ],
      "stateMutability": "view",
      "type": "function",
      "constant": true
    },
    {
      "inputs": [],
      "name": "owner",
      "outputs": [
        {
          "internalType": "address",
          "name": "",
          "type": "address"
        }
      ],
      "stateMutability": "view",
      "type": "function",
      "constant": true
    },
    {
      "inputs": [],
      "name": "renounceOwnership",
      "outputs": [],
      "stateMutability": "nonpayable",
      "type": "function"
    },
    {
      "inputs": [
        {
          "internalType": "address",
          "name": "_priceOracleAddress",
          "type": "address"
        }
      ],
      "name": "setOracle",
      "outputs": [
        {
          "internalType": "bool",
          "name": "",
          "type": "bool"
        }
      ],
      "stateMutability": "nonpayable",
      "type": "function"
    },
    {
      "inputs": [
        {
          "internalType": "address",
          "name": "newOwner",
          "type": "address"
        }
      ],
      "name": "transferOwnership",
      "outputs": [],
      "stateMutability": "nonpayable",
      "type": "function"
    },
    {
      "stateMutability": "payable",
      "type": "receive",
      "payable": true
    },
    {
      "inputs": [
        {
          "internalType": "address",
          "name": "addr",
          "type": "address"
        },
        {
          "internalType": "uint256",
          "name": "initAssetPrice",
          "type": "uint256"
        },
        {
          "internalType": "uint256",
          "name": "claimPrice",
          "type": "uint256"
        },
        {
          "internalType": "uint256",
          "name": "liquidationPrice",
          "type": "uint256"
        },
        {
          "internalType": "uint256",
          "name": "sellerDeposit",
          "type": "uint256"
        },
        {
          "internalType": "uint256",
          "name": "premium",
          "type": "uint256"
        },
        {
          "internalType": "uint256",
          "name": "premiumInterval",
          "type": "uint256"
        },
        {
          "internalType": "uint256",
          "name": "totalPremiumRounds",
          "type": "uint256"
        }
      ],
      "name": "createSwap",
      "outputs": [
        {
          "internalType": "uint256",
          "name": "",
          "type": "uint256"
        }
      ],
      "stateMutability": "payable",
      "type": "function",
      "payable": true
    },
    {
      "inputs": [
        {
          "internalType": "address",
          "name": "addr",
          "type": "address"
        },
        {
          "internalType": "uint256",
          "name": "initAssetPrice",
          "type": "uint256"
        },
        {
          "internalType": "uint256",
          "name": "swapId",
          "type": "uint256"
        }
      ],
      "name": "acceptSwap",
      "outputs": [
        {
          "internalType": "uint256",
          "name": "",
          "type": "uint256"
        }
      ],
      "stateMutability": "payable",
      "type": "function",
      "payable": true
    },
    {
      "inputs": [
        {
          "internalType": "uint256",
          "name": "swapId",
          "type": "uint256"
        }
      ],
      "name": "cancleSwap",
      "outputs": [
        {
          "internalType": "bool",
          "name": "",
          "type": "bool"
        }
      ],
      "stateMutability": "nonpayable",
      "type": "function"
    },
    {
      "inputs": [
        {
          "internalType": "uint256",
          "name": "swapId",
          "type": "uint256"
        }
      ],
      "name": "getSwap",
      "outputs": [
        {
          "components": [
            {
              "components": [
                {
                  "internalType": "address",
                  "name": "addr",
                  "type": "address"
                },
                {
                  "internalType": "uint256",
                  "name": "deposit",
                  "type": "uint256"
                },
                {
                  "internalType": "uint256",
                  "name": "lastPayDate",
                  "type": "uint256"
                },
                {
                  "internalType": "uint256",
                  "name": "nextPayDate",
                  "type": "uint256"
                }
              ],
              "internalType": "struct Swaps.Buyer",
              "name": "buyer",
              "type": "tuple"
            },
            {
              "components": [
                {
                  "internalType": "address",
                  "name": "addr",
                  "type": "address"
                },
                {
                  "internalType": "uint256",
                  "name": "deposit",
                  "type": "uint256"
                },
                {
                  "internalType": "bool",
                  "name": "isDeposited",
                  "type": "bool"
                }
              ],
              "internalType": "struct Swaps.Seller",
              "name": "seller",
              "type": "tuple"
            },
            {
              "internalType": "uint256",
              "name": "initAssetPrice",
              "type": "uint256"
            },
            {
              "internalType": "uint256",
              "name": "claimPrice",
              "type": "uint256"
            },
            {
              "internalType": "uint256",
              "name": "liquidationPrice",
              "type": "uint256"
            },
            {
              "internalType": "uint256",
              "name": "premium",
              "type": "uint256"
            },
            {
              "internalType": "uint256",
              "name": "premiumInterval",
              "type": "uint256"
            },
            {
              "internalType": "uint256",
              "name": "totalPremiumRounds",
              "type": "uint256"
            },
            {
              "internalType": "enum Swaps.Status",
              "name": "status",
              "type": "uint8"
            }
          ],
          "internalType": "struct Swaps.Swap",
          "name": "",
          "type": "tuple"
        }
      ],
      "stateMutability": "view",
      "type": "function",
      "constant": true
    },
    {
      "inputs": [
        {
          "internalType": "uint256",
          "name": "swapId",
          "type": "uint256"
        }
      ],
      "name": "getBuyer",
      "outputs": [
        {
          "components": [
            {
              "internalType": "address",
              "name": "addr",
              "type": "address"
            },
            {
              "internalType": "uint256",
              "name": "deposit",
              "type": "uint256"
            },
            {
              "internalType": "uint256",
              "name": "lastPayDate",
              "type": "uint256"
            },
            {
              "internalType": "uint256",
              "name": "nextPayDate",
              "type": "uint256"
            }
          ],
          "internalType": "struct Swaps.Buyer",
          "name": "",
          "type": "tuple"
        }
      ],
      "stateMutability": "view",
      "type": "function",
      "constant": true
    },
    {
      "inputs": [
        {
          "internalType": "uint256",
          "name": "swapId",
          "type": "uint256"
        }
      ],
      "name": "getSeller",
      "outputs": [
        {
          "components": [
            {
              "internalType": "address",
              "name": "addr",
              "type": "address"
            },
            {
              "internalType": "uint256",
              "name": "deposit",
              "type": "uint256"
            },
            {
              "internalType": "bool",
              "name": "isDeposited",
              "type": "bool"
            }
          ],
          "internalType": "struct Swaps.Seller",
          "name": "",
          "type": "tuple"
        }
      ],
      "stateMutability": "view",
      "type": "function",
      "constant": true
    },
    {
      "inputs": [],
      "name": "getSwapId",
      "outputs": [
        {
          "components": [
            {
              "internalType": "uint256",
              "name": "_value",
              "type": "uint256"
            }
          ],
          "internalType": "struct Counters.Counter",
          "name": "",
          "type": "tuple"
        }
      ],
      "stateMutability": "view",
      "type": "function",
      "constant": true
    },
    {
      "inputs": [],
      "name": "getContractBalance",
      "outputs": [
        {
          "internalType": "uint256",
          "name": "",
          "type": "uint256"
        }
      ],
      "stateMutability": "view",
      "type": "function",
      "constant": true
    }
  ],
  "bytecode": "0x608060405261002061001561002560201b60201c565b61002d60201b60201c565b6100f3565b600033905090565b6000600360009054906101000a900473ffffffffffffffffffffffffffffffffffffffff16905081600360006101000a81548173ffffffffffffffffffffffffffffffffffffffff021916908373ffffffffffffffffffffffffffffffffffffffff1602179055508173ffffffffffffffffffffffffffffffffffffffff168173ffffffffffffffffffffffffffffffffffffffff167f8be0079c531659141344cd1fd0a4f28419497f9722a3daafe3b4186f6b6457e060405160405180910390a35050565b611faf806101026000396000f3fe6080604052600436106100c65760003560e01c8063715018a61161007f5780638d4e7f8d116100595780638d4e7f8d1461028e5780638da5cb5b146102be578063d6a9de51146102e9578063f2fde38b14610326576100cd565b8063715018a61461020a5780637adbf973146102215780637e0cb81a1461025e576100cd565b806338f5a491146100d2578063496ab39a146100fd5780634a0d89ba1461012857806359c08631146101655780635bf608b8146101a25780636f9fb98a146101df576100cd565b366100cd57005b600080fd5b3480156100de57600080fd5b506100e761034f565b6040516100f49190611481565b60405180910390f35b34801561010957600080fd5b506101126103ea565b60405161011f91906114c7565b60405180910390f35b34801561013457600080fd5b5061014f600480360381019061014a9190611513565b61040e565b60405161015c9190611766565b60405180910390f35b34801561017157600080fd5b5061018c60048036038101906101879190611513565b6105ca565b6040516101999190611791565b60405180910390f35b3480156101ae57600080fd5b506101c960048036038101906101c49190611513565b6108ba565b6040516101d69190611801565b60405180910390f35b3480156101eb57600080fd5b506101f461095e565b6040516102019190611481565b60405180910390f35b34801561021657600080fd5b5061021f610966565b005b34801561022d57600080fd5b5061024860048036038101906102439190611848565b61097a565b6040516102559190611791565b60405180910390f35b61027860048036038101906102739190611875565b610a33565b6040516102859190611481565b60405180910390f35b6102a860048036038101906102a3919061192b565b610bd6565b6040516102b59190611481565b60405180910390f35b3480156102ca57600080fd5b506102d3610d6b565b6040516102e0919061198d565b60405180910390f35b3480156102f557600080fd5b50610310600480360381019061030b9190611513565b610d95565b60405161031d91906119ea565b60405180910390f35b34801561033257600080fd5b5061034d60048036038101906103489190611848565b610e40565b005b60008060008054906101000a900473ffffffffffffffffffffffffffffffffffffffff1673ffffffffffffffffffffffffffffffffffffffff166398d5fdca6040518163ffffffff1660e01b8152600401602060405180830381865afa1580156103bd573d6000803e3d6000fd5b505050506040513d601f19601f820116820180604052508101906103e19190611a1a565b90508091505090565b6103f2611374565b6001604051806020016040529081600082015481525050905090565b610416611387565b6002600083815260200190815260200160002060405180610120016040529081600082016040518060800160405290816000820160009054906101000a900473ffffffffffffffffffffffffffffffffffffffff1673ffffffffffffffffffffffffffffffffffffffff1673ffffffffffffffffffffffffffffffffffffffff16815260200160018201548152602001600282015481526020016003820154815250508152602001600482016040518060600160405290816000820160009054906101000a900473ffffffffffffffffffffffffffffffffffffffff1673ffffffffffffffffffffffffffffffffffffffff1673ffffffffffffffffffffffffffffffffffffffff168152602001600182015481526020016002820160009054906101000a900460ff1615151515815250508152602001600782015481526020016008820154815260200160098201548152602001600a8201548152602001600b8201548152602001600c8201548152602001600d820160009054906101000a900460ff1660038111156105ad576105ac611633565b5b60038111156105bf576105be611633565b5b815250509050919050565b60006105d4610d6b565b73ffffffffffffffffffffffffffffffffffffffff163373ffffffffffffffffffffffffffffffffffffffff1603610641576040517f08c379a000000000000000000000000000000000000000000000000000000000815260040161063890611aa4565b60405180910390fd5b61064a82610ec3565b5060006002600084815260200190815260200160002060405180610120016040529081600082016040518060800160405290816000820160009054906101000a900473ffffffffffffffffffffffffffffffffffffffff1673ffffffffffffffffffffffffffffffffffffffff1673ffffffffffffffffffffffffffffffffffffffff16815260200160018201548152602001600282015481526020016003820154815250508152602001600482016040518060600160405290816000820160009054906101000a900473ffffffffffffffffffffffffffffffffffffffff1673ffffffffffffffffffffffffffffffffffffffff1673ffffffffffffffffffffffffffffffffffffffff168152602001600182015481526020016002820160009054906101000a900460ff1615151515815250508152602001600782015481526020016008820154815260200160098201548152602001600a8201548152602001600b8201548152602001600c8201548152602001600d820160009054906101000a900460ff1660038111156107e4576107e3611633565b5b60038111156107f6576107f5611633565b5b81525050905060003373ffffffffffffffffffffffffffffffffffffffff1682600001516020015160405161082a90611af5565b60006040518083038185875af1925050503d8060008114610867576040519150601f19603f3d011682016040523d82523d6000602084013e61086c565b606091505b50509050806108b0576040517f08c379a00000000000000000000000000000000000000000000000000000000081526004016108a790611b56565b60405180910390fd5b8092505050919050565b6108c26113f1565b600260008381526020019081526020016000206000016040518060800160405290816000820160009054906101000a900473ffffffffffffffffffffffffffffffffffffffff1673ffffffffffffffffffffffffffffffffffffffff1673ffffffffffffffffffffffffffffffffffffffff16815260200160018201548152602001600282015481526020016003820154815250509050919050565b600047905090565b61096e610fa7565b6109786000611025565b565b60008073ffffffffffffffffffffffffffffffffffffffff168273ffffffffffffffffffffffffffffffffffffffff16036109ea576040517f08c379a00000000000000000000000000000000000000000000000000000000081526004016109e190611bc2565b60405180910390fd5b816000806101000a81548173ffffffffffffffffffffffffffffffffffffffff021916908373ffffffffffffffffffffffffffffffffffffffff16021790555060019050919050565b6000610a3d610d6b565b73ffffffffffffffffffffffffffffffffffffffff163373ffffffffffffffffffffffffffffffffffffffff1603610aaa576040517f08c379a0000000000000000000000000000000000000000000000000000000008152600401610aa190611aa4565b60405180910390fd5b60006001610ac26003876110eb90919063ffffffff16565b610acc9190611c11565b9050348114610b10576040517f08c379a0000000000000000000000000000000000000000000000000000000008152600401610b0790611cb7565b60405180910390fd5b3073ffffffffffffffffffffffffffffffffffffffff166108fc349081150290604051600060405180830381858888f19350505050158015610b56573d6000803e3d6000fd5b506000610b698b8b8b8b8b8b8b8b611101565b90508a73ffffffffffffffffffffffffffffffffffffffff167fa7e29cdf8b17ce4f0eac13db64822a3bba931a448dae45ee177eea6d7f7607ed828b8b8a8a8a89604051610bbd9796959493929190611cd7565b60405180910390a2809250505098975050505050505050565b6000610be0610d6b565b73ffffffffffffffffffffffffffffffffffffffff163373ffffffffffffffffffffffffffffffffffffffff1603610c4d576040517f08c379a0000000000000000000000000000000000000000000000000000000008152600401610c4490611aa4565b60405180910390fd5b600060016002600085815260200190815260200160002060040160010154610c759190611c11565b9050348114610cb9576040517f08c379a0000000000000000000000000000000000000000000000000000000008152600401610cb090611cb7565b60405180910390fd5b3073ffffffffffffffffffffffffffffffffffffffff166108fc349081150290604051600060405180830381858888f19350505050158015610cff573d6000803e3d6000fd5b506000610d0d8686866111ea565b90508573ffffffffffffffffffffffffffffffffffffffff167fbf5d5a04310e5165179d0106e6b639639a6a9b1c293019f5ba0a10f6eb11cb8e8584604051610d57929190611d46565b60405180910390a280925050509392505050565b6000600360009054906101000a900473ffffffffffffffffffffffffffffffffffffffff16905090565b610d9d61142f565b600260008381526020019081526020016000206004016040518060600160405290816000820160009054906101000a900473ffffffffffffffffffffffffffffffffffffffff1673ffffffffffffffffffffffffffffffffffffffff1673ffffffffffffffffffffffffffffffffffffffff168152602001600182015481526020016002820160009054906101000a900460ff1615151515815250509050919050565b610e48610fa7565b600073ffffffffffffffffffffffffffffffffffffffff168173ffffffffffffffffffffffffffffffffffffffff1603610eb7576040517f08c379a0000000000000000000000000000000000000000000000000000000008152600401610eae90611de1565b60405180910390fd5b610ec081611025565b50565b6000806002600084815260200190815260200160002090508060000160000160009054906101000a900473ffffffffffffffffffffffffffffffffffffffff1673ffffffffffffffffffffffffffffffffffffffff163373ffffffffffffffffffffffffffffffffffffffff1614610f70576040517f08c379a0000000000000000000000000000000000000000000000000000000008152600401610f6790611e4d565b60405180910390fd5b600281600d0160006101000a81548160ff02191690836003811115610f9857610f97611633565b5b02179055506001915050919050565b610faf611348565b73ffffffffffffffffffffffffffffffffffffffff16610fcd610d6b565b73ffffffffffffffffffffffffffffffffffffffff1614611023576040517f08c379a000000000000000000000000000000000000000000000000000000000815260040161101a90611eb9565b60405180910390fd5b565b6000600360009054906101000a900473ffffffffffffffffffffffffffffffffffffffff16905081600360006101000a81548173ffffffffffffffffffffffffffffffffffffffff021916908373ffffffffffffffffffffffffffffffffffffffff1602179055508173ffffffffffffffffffffffffffffffffffffffff168173ffffffffffffffffffffffffffffffffffffffff167f8be0079c531659141344cd1fd0a4f28419497f9722a3daafe3b4186f6b6457e060405160405180910390a35050565b600081836110f99190611c11565b905092915050565b600061110d6001611350565b60006111196001611366565b905060006002600083815260200190815260200160002090508a8160000160000160006101000a81548173ffffffffffffffffffffffffffffffffffffffff021916908373ffffffffffffffffffffffffffffffffffffffff16021790555061118c6003876110eb90919063ffffffff16565b81600001600101819055508981600701819055508881600801819055508781600901819055508581600a01819055508481600b01819055508381600c0181905550868160040160010181905550819250505098975050505050505050565b6000806002600084815260200190815260200160002090506000600381111561121657611215611633565b5b81600d0160009054906101000a900460ff16600381111561123a57611239611633565b5b1461127a576040517f08c379a000000000000000000000000000000000000000000000000000000000815260040161127190611f25565b60405180910390fd5b848160040160000160006101000a81548173ffffffffffffffffffffffffffffffffffffffff021916908373ffffffffffffffffffffffffffffffffffffffff16021790555083816007018190555060018160040160020160006101000a81548160ff02191690831515021790555042816000016002018190555080600b0154426113059190611f45565b8160000160030181905550600181600d0160006101000a81548160ff0219169083600381111561133857611337611633565b5b0217905550829150509392505050565b600033905090565b6001816000016000828254019250508190555050565b600081600001549050919050565b6040518060200160405280600081525090565b60405180610120016040528061139b6113f1565b81526020016113a861142f565b8152602001600081526020016000815260200160008152602001600081526020016000815260200160008152602001600060038111156113eb576113ea611633565b5b81525090565b6040518060800160405280600073ffffffffffffffffffffffffffffffffffffffff1681526020016000815260200160008152602001600081525090565b6040518060600160405280600073ffffffffffffffffffffffffffffffffffffffff168152602001600081526020016000151581525090565b6000819050919050565b61147b81611468565b82525050565b60006020820190506114966000830184611472565b92915050565b6114a581611468565b82525050565b6020820160008201516114c1600085018261149c565b50505050565b60006020820190506114dc60008301846114ab565b92915050565b600080fd5b6114f081611468565b81146114fb57600080fd5b50565b60008135905061150d816114e7565b92915050565b600060208284031215611529576115286114e2565b5b6000611537848285016114fe565b91505092915050565b600073ffffffffffffffffffffffffffffffffffffffff82169050919050565b600061156b82611540565b9050919050565b61157b81611560565b82525050565b6080820160008201516115976000850182611572565b5060208201516115aa602085018261149c565b5060408201516115bd604085018261149c565b5060608201516115d0606085018261149c565b50505050565b60008115159050919050565b6115eb816115d6565b82525050565b6060820160008201516116076000850182611572565b50602082015161161a602085018261149c565b50604082015161162d60408501826115e2565b50505050565b7f4e487b7100000000000000000000000000000000000000000000000000000000600052602160045260246000fd5b6004811061167357611672611633565b5b50565b600081905061168482611662565b919050565b600061169482611676565b9050919050565b6116a481611689565b82525050565b6101c0820160008201516116c16000850182611581565b5060208201516116d460808501826115f1565b5060408201516116e760e085018261149c565b5060608201516116fb61010085018261149c565b50608082015161170f61012085018261149c565b5060a082015161172361014085018261149c565b5060c082015161173761016085018261149c565b5060e082015161174b61018085018261149c565b506101008201516117606101a085018261169b565b50505050565b60006101c08201905061177c60008301846116aa565b92915050565b61178b816115d6565b82525050565b60006020820190506117a66000830184611782565b92915050565b6080820160008201516117c26000850182611572565b5060208201516117d5602085018261149c565b5060408201516117e8604085018261149c565b5060608201516117fb606085018261149c565b50505050565b600060808201905061181660008301846117ac565b92915050565b61182581611560565b811461183057600080fd5b50565b6000813590506118428161181c565b92915050565b60006020828403121561185e5761185d6114e2565b5b600061186c84828501611833565b91505092915050565b600080600080600080600080610100898b031215611896576118956114e2565b5b60006118a48b828c01611833565b98505060206118b58b828c016114fe565b97505060406118c68b828c016114fe565b96505060606118d78b828c016114fe565b95505060806118e88b828c016114fe565b94505060a06118f98b828c016114fe565b93505060c061190a8b828c016114fe565b92505060e061191b8b828c016114fe565b9150509295985092959890939650565b600080600060608486031215611944576119436114e2565b5b600061195286828701611833565b9350506020611963868287016114fe565b9250506040611974868287016114fe565b9150509250925092565b61198781611560565b82525050565b60006020820190506119a2600083018461197e565b92915050565b6060820160008201516119be6000850182611572565b5060208201516119d1602085018261149c565b5060408201516119e460408501826115e2565b50505050565b60006060820190506119ff60008301846119a8565b92915050565b600081519050611a14816114e7565b92915050565b600060208284031215611a3057611a2f6114e2565b5b6000611a3e84828501611a05565b91505092915050565b600082825260208201905092915050565b7f4f776e65722063616e206e6f742063616c6c20746865206d6574686f64000000600082015250565b6000611a8e601d83611a47565b9150611a9982611a58565b602082019050919050565b60006020820190508181036000830152611abd81611a81565b9050919050565b600081905092915050565b50565b6000611adf600083611ac4565b9150611aea82611acf565b600082019050919050565b6000611b0082611ad2565b9150819050919050565b7f53656e64696e67206661696c6564000000000000000000000000000000000000600082015250565b6000611b40600e83611a47565b9150611b4b82611b0a565b602082019050919050565b60006020820190508181036000830152611b6f81611b33565b9050919050565b7f496e76616c696420616464726573730000000000000000000000000000000000600082015250565b6000611bac600f83611a47565b9150611bb782611b76565b602082019050919050565b60006020820190508181036000830152611bdb81611b9f565b9050919050565b7f4e487b7100000000000000000000000000000000000000000000000000000000600052601160045260246000fd5b6000611c1c82611468565b9150611c2783611468565b9250817fffffffffffffffffffffffffffffffffffffffffffffffffffffffffffffffff0483118215151615611c6057611c5f611be2565b5b828202905092915050565b7f496e76616c69642065746820616d6f756e740000000000000000000000000000600082015250565b6000611ca1601283611a47565b9150611cac82611c6b565b602082019050919050565b60006020820190508181036000830152611cd081611c94565b9050919050565b600060e082019050611cec600083018a611472565b611cf96020830189611472565b611d066040830188611472565b611d136060830187611472565b611d206080830186611472565b611d2d60a0830185611472565b611d3a60c0830184611472565b98975050505050505050565b6000604082019050611d5b6000830185611472565b611d686020830184611472565b9392505050565b7f4f776e61626c653a206e6577206f776e657220697320746865207a65726f206160008201527f6464726573730000000000000000000000000000000000000000000000000000602082015250565b6000611dcb602683611a47565b9150611dd682611d6f565b604082019050919050565b60006020820190508181036000830152611dfa81611dbe565b9050919050565b7f4f6e6c79206275796572206f6620746865204344532063616e2063616e636c65600082015250565b6000611e37602083611a47565b9150611e4282611e01565b602082019050919050565b60006020820190508181036000830152611e6681611e2a565b9050919050565b7f4f776e61626c653a2063616c6c6572206973206e6f7420746865206f776e6572600082015250565b6000611ea3602083611a47565b9150611eae82611e6d565b602082019050919050565b60006020820190508181036000830152611ed281611e96565b9050919050565b7f54686520434453206973206e6f742070656e64696e6720737461746500000000600082015250565b6000611f0f601c83611a47565b9150611f1a82611ed9565b602082019050919050565b60006020820190508181036000830152611f3e81611f02565b9050919050565b6000611f5082611468565b9150611f5b83611468565b9250828201905080821115611f7357611f72611be2565b5b9291505056fea26469706673582212207f34cf1f16d1f0fc00542f20cb5792d7ce96f8a6adec9bc85d7d7697a0b9ccf064736f6c63430008100033",
  "immutableReferences": {},
  "source": "// SPDX-License-Identifier: MIT\npragma solidity ^0.8.7;\n\nimport './Swaps/Swaps.sol';\nimport '@openzeppelin/contracts/access/Ownable.sol';\nimport '@openzeppelin/contracts/utils/math/SafeMath.sol';\n\ncontract CDS is Swaps, Ownable {\n  using SafeMath for uint256;\n\n  constructor() payable {}\n\n  receive() external payable {}\n\n  modifier isNotOwner() {\n    require(msg.sender != owner(), 'Owner can not call the method');\n    _;\n  }\n\n  event CreateSwap(\n    address indexed buyer,\n    uint256 swapId,\n    uint256 claimPrice,\n    uint256 liquidationPrice,\n    uint256 premium,\n    uint256 premiumInterval,\n    uint256 totalPremiumRounds,\n    uint256 buyerDeposit\n  );\n  event AcceptSwap(\n    address indexed seller,\n    uint256 swapId,\n    uint256 sellerDeposit\n  );\n  event Close(uint256 swapId);\n\n  function createSwap(\n    address addr,\n    uint256 initAssetPrice,\n    uint256 claimPrice,\n    uint256 liquidationPrice,\n    uint256 sellerDeposit,\n    uint256 premium,\n    uint256 premiumInterval,\n    uint256 totalPremiumRounds\n  ) public payable isNotOwner returns (uint256) {\n    uint256 buyerDeposit = premium.mul(3) * 1 wei;\n    require(buyerDeposit == msg.value, 'Invalid eth amount');\n    payable(address(this)).transfer(msg.value);\n\n    uint256 newSwapId = _createSwap(\n      addr,\n      initAssetPrice,\n      claimPrice,\n      liquidationPrice,\n      sellerDeposit,\n      premium,\n      premiumInterval,\n      totalPremiumRounds\n    );\n\n    emit CreateSwap(\n      addr,\n      newSwapId,\n      claimPrice,\n      liquidationPrice,\n      premium,\n      premiumInterval,\n      totalPremiumRounds,\n      buyerDeposit\n    );\n\n    return newSwapId;\n  }\n\n  function acceptSwap(\n    address addr,\n    uint256 initAssetPrice,\n    uint256 swapId\n  ) public payable isNotOwner returns (uint256) {\n    uint256 sellerDeposit = _swaps[swapId].seller.deposit * 1 wei;\n    require(sellerDeposit == msg.value, 'Invalid eth amount');\n    payable(address(this)).transfer(msg.value);\n\n    uint256 acceptedSwapId = _acceptSwap(addr, initAssetPrice, swapId);\n    emit AcceptSwap(addr, swapId, sellerDeposit);\n    return acceptedSwapId;\n  }\n\n  function cancleSwap(uint256 swapId) public isNotOwner returns (bool) {\n    _cancleSwap(swapId);\n    Swap memory targetSwap = _swaps[swapId];\n    (bool sent, ) = msg.sender.call{value: targetSwap.buyer.deposit}('');\n    require(sent, 'Sending failed');\n    return sent;\n  }\n\n  function getSwap(uint256 swapId) public view returns (Swap memory) {\n    return _swaps[swapId];\n  }\n\n  function getBuyer(uint256 swapId) public view returns (Buyer memory) {\n    return _swaps[swapId].buyer;\n  }\n\n  function getSeller(uint256 swapId) public view returns (Seller memory) {\n    return _swaps[swapId].seller;\n  }\n\n  function getSwapId() public view returns (Counters.Counter memory) {\n    return _swapId;\n  }\n\n  function getContractBalance() public view returns (uint256) {\n    return address(this).balance;\n  }\n}\n",
  "sourcePath": "/Users/yoonsoo/codestates/BEB-07-final-CDS/contract/contracts/CDS.sol",
  "compiler": {
    "name": "solc",
    "version": "0.8.16+commit.07a7930e.Emscripten.clang"
  },
  "schemaVersion": "3.4.11",
  "updatedAt": "2023-01-25T09:07:24.724Z",
  "networkType": "ethereum",
  "devdoc": {
    "kind": "dev",
    "methods": {
      "owner()": {
        "details": "Returns the address of the current owner."
      },
      "renounceOwnership()": {
        "details": "Leaves the contract without owner. It will not be possible to call `onlyOwner` functions anymore. Can only be called by the current owner. NOTE: Renouncing ownership will leave the contract without an owner, thereby removing any functionality that is only available to the owner."
      },
      "transferOwnership(address)": {
        "details": "Transfers ownership of the contract to a new account (`newOwner`). Can only be called by the current owner."
      }
    },
    "version": 1
  },
  "userdoc": {
    "kind": "user",
    "methods": {},
    "version": 1
  }
}