{
  "contractName": "CDS",
  "abi": [
    {
      "anonymous": false,
      "inputs": [
        {
          "indexed": true,
          "internalType": "address",
          "name": "seller",
          "type": "address"
        },
        {
          "indexed": false,
          "internalType": "uint256",
          "name": "swapId",
          "type": "uint256"
        }
      ],
      "name": "AcceptSwap",
      "type": "event"
    },
    {
      "anonymous": false,
      "inputs": [
        {
          "indexed": true,
          "internalType": "address",
          "name": "buyer",
          "type": "address"
        },
        {
          "indexed": false,
          "internalType": "uint256",
          "name": "claimPrice",
          "type": "uint256"
        },
        {
          "indexed": false,
          "internalType": "uint256",
          "name": "liquidationPrice",
          "type": "uint256"
        },
        {
          "indexed": false,
          "internalType": "uint256",
          "name": "_premium",
          "type": "uint256"
        },
        {
          "indexed": false,
          "internalType": "uint256",
          "name": "premiumInterval",
          "type": "uint256"
        },
        {
          "indexed": false,
          "internalType": "uint256",
          "name": "totalPremiumRounds",
          "type": "uint256"
        }
      ],
      "name": "MakeSwap",
      "type": "event"
    },
    {
      "inputs": [],
      "name": "getPriceFromOracle",
      "outputs": [
        {
          "internalType": "uint256",
          "name": "",
          "type": "uint256"
        }
      ],
      "stateMutability": "view",
      "type": "function",
      "constant": true
    },
    {
      "inputs": [
        {
          "internalType": "address",
          "name": "_priceOracleAddress",
          "type": "address"
        }
      ],
      "name": "setOracle",
      "outputs": [
        {
          "internalType": "bool",
          "name": "",
          "type": "bool"
        }
      ],
      "stateMutability": "nonpayable",
      "type": "function"
    },
    {
      "inputs": [
        {
          "internalType": "address",
          "name": "addr",
          "type": "address"
        },
        {
          "internalType": "uint256",
          "name": "claimPrice",
          "type": "uint256"
        },
        {
          "internalType": "uint256",
          "name": "liquidationPrice",
          "type": "uint256"
        },
        {
          "internalType": "uint256",
          "name": "sellerDeposit",
          "type": "uint256"
        },
        {
          "internalType": "uint256",
          "name": "premium",
          "type": "uint256"
        },
        {
          "internalType": "uint256",
          "name": "premiumInterval",
          "type": "uint256"
        },
        {
          "internalType": "uint256",
          "name": "totalPremiumRounds",
          "type": "uint256"
        }
      ],
      "name": "makeSwap",
      "outputs": [
        {
          "internalType": "uint256",
          "name": "",
          "type": "uint256"
        }
      ],
      "stateMutability": "nonpayable",
      "type": "function"
    },
    {
      "inputs": [
        {
          "internalType": "address",
          "name": "addr",
          "type": "address"
        },
        {
          "internalType": "uint256",
          "name": "swapId",
          "type": "uint256"
        }
      ],
      "name": "acceptSwap",
      "outputs": [
        {
          "internalType": "uint256",
          "name": "",
          "type": "uint256"
        }
      ],
      "stateMutability": "nonpayable",
      "type": "function"
    },
    {
      "inputs": [
        {
          "internalType": "uint256",
          "name": "swapId",
          "type": "uint256"
        }
      ],
      "name": "getSwap",
      "outputs": [
        {
          "components": [
            {
              "components": [
                {
                  "internalType": "address",
                  "name": "addr",
                  "type": "address"
                },
                {
                  "internalType": "uint256",
                  "name": "deposit",
                  "type": "uint256"
                },
                {
                  "internalType": "uint256",
                  "name": "lastPayDate",
                  "type": "uint256"
                },
                {
                  "internalType": "uint256",
                  "name": "nextPayDate",
                  "type": "uint256"
                }
              ],
              "internalType": "struct Swaps.Buyer",
              "name": "buyer",
              "type": "tuple"
            },
            {
              "components": [
                {
                  "internalType": "address",
                  "name": "addr",
                  "type": "address"
                },
                {
                  "internalType": "uint256",
                  "name": "deposit",
                  "type": "uint256"
                },
                {
                  "internalType": "bool",
                  "name": "isDeposited",
                  "type": "bool"
                }
              ],
              "internalType": "struct Swaps.Seller",
              "name": "seller",
              "type": "tuple"
            },
            {
              "internalType": "uint256",
              "name": "claimPrice",
              "type": "uint256"
            },
            {
              "internalType": "uint256",
              "name": "liquidationPrice",
              "type": "uint256"
            },
            {
              "internalType": "uint256",
              "name": "premium",
              "type": "uint256"
            },
            {
              "internalType": "uint256",
              "name": "premiumInterval",
              "type": "uint256"
            },
            {
              "internalType": "uint256",
              "name": "totalPremiumRounds",
              "type": "uint256"
            },
            {
              "internalType": "enum Swaps.Status",
              "name": "status",
              "type": "uint8"
            }
          ],
          "internalType": "struct Swaps.Swap",
          "name": "",
          "type": "tuple"
        }
      ],
      "stateMutability": "view",
      "type": "function",
      "constant": true
    },
    {
      "inputs": [
        {
          "internalType": "uint256",
          "name": "swapId",
          "type": "uint256"
        }
      ],
      "name": "getBuyer",
      "outputs": [
        {
          "components": [
            {
              "internalType": "address",
              "name": "addr",
              "type": "address"
            },
            {
              "internalType": "uint256",
              "name": "deposit",
              "type": "uint256"
            },
            {
              "internalType": "uint256",
              "name": "lastPayDate",
              "type": "uint256"
            },
            {
              "internalType": "uint256",
              "name": "nextPayDate",
              "type": "uint256"
            }
          ],
          "internalType": "struct Swaps.Buyer",
          "name": "",
          "type": "tuple"
        }
      ],
      "stateMutability": "view",
      "type": "function",
      "constant": true
    },
    {
      "inputs": [
        {
          "internalType": "uint256",
          "name": "swapId",
          "type": "uint256"
        }
      ],
      "name": "getSeller",
      "outputs": [
        {
          "components": [
            {
              "internalType": "address",
              "name": "addr",
              "type": "address"
            },
            {
              "internalType": "uint256",
              "name": "deposit",
              "type": "uint256"
            },
            {
              "internalType": "bool",
              "name": "isDeposited",
              "type": "bool"
            }
          ],
          "internalType": "struct Swaps.Seller",
          "name": "",
          "type": "tuple"
        }
      ],
      "stateMutability": "view",
      "type": "function",
      "constant": true
    }
  ],
  "bytecode": "0x608060405234801561001057600080fd5b506110e5806100206000396000f3fe608060405234801561001057600080fd5b506004361061007d5760003560e01c80635953cd051161005b5780635953cd05146101005780635bf608b8146101305780637adbf97314610160578063d6a9de51146101905761007d565b8063021c0fd11461008257806338f5a491146100b25780634a0d89ba146100d0575b600080fd5b61009c60048036038101906100979190610a79565b6101c0565b6040516100a99190610ac8565b60405180910390f35b6100ba610227565b6040516100c79190610ac8565b60405180910390f35b6100ea60048036038101906100e59190610ae3565b6102c2565b6040516100f79190610cfe565b60405180910390f35b61011a60048036038101906101159190610d1a565b610474565b6040516101279190610ac8565b60405180910390f35b61014a60048036038101906101459190610ae3565b6104ed565b6040516101579190610e11565b60405180910390f35b61017a60048036038101906101759190610e2c565b610591565b6040516101879190610e68565b60405180910390f35b6101aa60048036038101906101a59190610ae3565b61064a565b6040516101b79190610ec5565b60405180910390f35b6000806101cd84846106f5565b90508373ffffffffffffffffffffffffffffffffffffffff167f96a33d274168dd9f48db62d10e3a70d2a3d6b885f26deb52297a7db0d779aecd846040516102159190610ac8565b60405180910390a28091505092915050565b60008060008054906101000a900473ffffffffffffffffffffffffffffffffffffffff1673ffffffffffffffffffffffffffffffffffffffff166398d5fdca6040518163ffffffff1660e01b8152600401602060405180830381865afa158015610295573d6000803e3d6000fd5b505050506040513d601f19601f820116820180604052508101906102b99190610ef5565b90508091505090565b6102ca610906565b6002600083815260200190815260200160002060405180610100016040529081600082016040518060800160405290816000820160009054906101000a900473ffffffffffffffffffffffffffffffffffffffff1673ffffffffffffffffffffffffffffffffffffffff1673ffffffffffffffffffffffffffffffffffffffff16815260200160018201548152602001600282015481526020016003820154815250508152602001600482016040518060600160405290816000820160009054906101000a900473ffffffffffffffffffffffffffffffffffffffff1673ffffffffffffffffffffffffffffffffffffffff1673ffffffffffffffffffffffffffffffffffffffff168152602001600182015481526020016002820160009054906101000a900460ff1615151515815250508152602001600782015481526020016008820154815260200160098201548152602001600a8201548152602001600b8201548152602001600c820160009054906101000a900460ff16600581111561045757610456610be0565b5b600581111561046957610468610be0565b5b815250509050919050565b600080610486898989898989896107ef565b90508873ffffffffffffffffffffffffffffffffffffffff167fb685fc177a65d56e75964fcfa7a66e03deee8c4eb23b284a70448a3fb2848aa989898888886040516104d6959493929190610f22565b60405180910390a280915050979650505050505050565b6104f5610969565b600260008381526020019081526020016000206000016040518060800160405290816000820160009054906101000a900473ffffffffffffffffffffffffffffffffffffffff1673ffffffffffffffffffffffffffffffffffffffff1673ffffffffffffffffffffffffffffffffffffffff16815260200160018201548152602001600282015481526020016003820154815250509050919050565b60008073ffffffffffffffffffffffffffffffffffffffff168273ffffffffffffffffffffffffffffffffffffffff1603610601576040517f08c379a00000000000000000000000000000000000000000000000000000000081526004016105f890610fd2565b60405180910390fd5b816000806101000a81548173ffffffffffffffffffffffffffffffffffffffff021916908373ffffffffffffffffffffffffffffffffffffffff16021790555060019050919050565b6106526109a7565b600260008381526020019081526020016000206004016040518060600160405290816000820160009054906101000a900473ffffffffffffffffffffffffffffffffffffffff1673ffffffffffffffffffffffffffffffffffffffff1673ffffffffffffffffffffffffffffffffffffffff168152602001600182015481526020016002820160009054906101000a900460ff1615151515815250509050919050565b600080600260008481526020019081526020016000209050838160040160000160006101000a81548173ffffffffffffffffffffffffffffffffffffffff021916908373ffffffffffffffffffffffffffffffffffffffff16021790555060018160040160020160006101000a81548160ff021916908315150217905550600061078282600901546108af565b905080826000016001018190555042826000016002018190555081600a0154426107ac9190611021565b8260000160030181905550600182600c0160006101000a81548160ff021916908360058111156107df576107de610be0565b5b0217905550839250505092915050565b60006107fb60016108cc565b600061080760016108e2565b90506000600260008381526020019081526020016000209050898160000160000160006101000a81548173ffffffffffffffffffffffffffffffffffffffff021916908373ffffffffffffffffffffffffffffffffffffffff1602179055508881600701819055508781600801819055508581600901819055508481600a01819055508381600b01819055508681600401600101819055508192505050979650505050505050565b60006108c56003836108f090919063ffffffff16565b9050919050565b6001816000016000828254019250508190555050565b600081600001549050919050565b600081836108fe9190611055565b905092915050565b60405180610100016040528061091a610969565b81526020016109276109a7565b815260200160008152602001600081526020016000815260200160008152602001600081526020016000600581111561096357610962610be0565b5b81525090565b6040518060800160405280600073ffffffffffffffffffffffffffffffffffffffff1681526020016000815260200160008152602001600081525090565b6040518060600160405280600073ffffffffffffffffffffffffffffffffffffffff168152602001600081526020016000151581525090565b600080fd5b600073ffffffffffffffffffffffffffffffffffffffff82169050919050565b6000610a10826109e5565b9050919050565b610a2081610a05565b8114610a2b57600080fd5b50565b600081359050610a3d81610a17565b92915050565b6000819050919050565b610a5681610a43565b8114610a6157600080fd5b50565b600081359050610a7381610a4d565b92915050565b60008060408385031215610a9057610a8f6109e0565b5b6000610a9e85828601610a2e565b9250506020610aaf85828601610a64565b9150509250929050565b610ac281610a43565b82525050565b6000602082019050610add6000830184610ab9565b92915050565b600060208284031215610af957610af86109e0565b5b6000610b0784828501610a64565b91505092915050565b610b1981610a05565b82525050565b610b2881610a43565b82525050565b608082016000820151610b446000850182610b10565b506020820151610b576020850182610b1f565b506040820151610b6a6040850182610b1f565b506060820151610b7d6060850182610b1f565b50505050565b60008115159050919050565b610b9881610b83565b82525050565b606082016000820151610bb46000850182610b10565b506020820151610bc76020850182610b1f565b506040820151610bda6040850182610b8f565b50505050565b7f4e487b7100000000000000000000000000000000000000000000000000000000600052602160045260246000fd5b60068110610c2057610c1f610be0565b5b50565b6000819050610c3182610c0f565b919050565b6000610c4182610c23565b9050919050565b610c5181610c36565b82525050565b6101a082016000820151610c6e6000850182610b2e565b506020820151610c816080850182610b9e565b506040820151610c9460e0850182610b1f565b506060820151610ca8610100850182610b1f565b506080820151610cbc610120850182610b1f565b5060a0820151610cd0610140850182610b1f565b5060c0820151610ce4610160850182610b1f565b5060e0820151610cf8610180850182610c48565b50505050565b60006101a082019050610d146000830184610c57565b92915050565b600080600080600080600060e0888a031215610d3957610d386109e0565b5b6000610d478a828b01610a2e565b9750506020610d588a828b01610a64565b9650506040610d698a828b01610a64565b9550506060610d7a8a828b01610a64565b9450506080610d8b8a828b01610a64565b93505060a0610d9c8a828b01610a64565b92505060c0610dad8a828b01610a64565b91505092959891949750929550565b608082016000820151610dd26000850182610b10565b506020820151610de56020850182610b1f565b506040820151610df86040850182610b1f565b506060820151610e0b6060850182610b1f565b50505050565b6000608082019050610e266000830184610dbc565b92915050565b600060208284031215610e4257610e416109e0565b5b6000610e5084828501610a2e565b91505092915050565b610e6281610b83565b82525050565b6000602082019050610e7d6000830184610e59565b92915050565b606082016000820151610e996000850182610b10565b506020820151610eac6020850182610b1f565b506040820151610ebf6040850182610b8f565b50505050565b6000606082019050610eda6000830184610e83565b92915050565b600081519050610eef81610a4d565b92915050565b600060208284031215610f0b57610f0a6109e0565b5b6000610f1984828501610ee0565b91505092915050565b600060a082019050610f376000830188610ab9565b610f446020830187610ab9565b610f516040830186610ab9565b610f5e6060830185610ab9565b610f6b6080830184610ab9565b9695505050505050565b600082825260208201905092915050565b7f496e76616c696420616464726573730000000000000000000000000000000000600082015250565b6000610fbc600f83610f75565b9150610fc782610f86565b602082019050919050565b60006020820190508181036000830152610feb81610faf565b9050919050565b7f4e487b7100000000000000000000000000000000000000000000000000000000600052601160045260246000fd5b600061102c82610a43565b915061103783610a43565b925082820190508082111561104f5761104e610ff2565b5b92915050565b600061106082610a43565b915061106b83610a43565b9250817fffffffffffffffffffffffffffffffffffffffffffffffffffffffffffffffff04831182151516156110a4576110a3610ff2565b5b82820290509291505056fea2646970667358221220e0d43c9e684109740f91a29ef32774253b85a067e05cbb1bda7116b1bcffd9a064736f6c63430008100033",
  "immutableReferences": {},
  "source": "// SPDX-License-Identifier: MIT\npragma solidity ^0.8.7;\n\nimport './Swaps/Swaps.sol';\n\ncontract CDS is Swaps {\n  event MakeSwap(\n    address indexed buyer,\n    uint256 claimPrice,\n    uint256 liquidationPrice,\n    uint256 _premium,\n    uint256 premiumInterval,\n    uint256 totalPremiumRounds\n  );\n  event AcceptSwap(address indexed seller, uint256 swapId);\n\n  function makeSwap(\n    address addr,\n    uint256 claimPrice,\n    uint256 liquidationPrice,\n    uint256 sellerDeposit,\n    uint256 premium,\n    uint256 premiumInterval,\n    uint256 totalPremiumRounds\n  ) public returns (uint256) {\n    uint256 newSwapId = _makeSwap(\n      addr,\n      claimPrice,\n      liquidationPrice,\n      sellerDeposit,\n      premium,\n      premiumInterval,\n      totalPremiumRounds\n    );\n    emit MakeSwap(\n      addr,\n      claimPrice,\n      liquidationPrice,\n      premium,\n      premiumInterval,\n      totalPremiumRounds\n    );\n    return newSwapId;\n  }\n\n  function acceptSwap(address addr, uint256 swapId) public returns (uint256) {\n    uint256 acceptedSwapId = _acceptSwap(addr, swapId);\n    emit AcceptSwap(addr, swapId);\n    return acceptedSwapId;\n  }\n\n  function getSwap(uint256 swapId) public view returns (Swap memory) {\n    return _swaps[swapId];\n  }\n\n  function getBuyer(uint256 swapId) public view returns (Buyer memory) {\n    return _swaps[swapId].buyer;\n  }\n\n  function getSeller(uint256 swapId) public view returns (Seller memory) {\n    return _swaps[swapId].seller;\n  }\n}\n",
  "sourcePath": "/Users/sdh/Study/BEB_07/projects/CDS/contract/contracts/CDS.sol",
  "compiler": {
    "name": "solc",
    "version": "0.8.16+commit.07a7930e.Emscripten.clang"
  },
  "schemaVersion": "3.4.9",
  "updatedAt": "2023-01-20T02:23:31.872Z",
  "networkType": "ethereum",
  "devdoc": {
    "kind": "dev",
    "methods": {},
    "version": 1
  },
  "userdoc": {
    "kind": "user",
    "methods": {},
    "version": 1
  }
}