{
  "contractName": "CDS",
  "abi": [
    {
      "anonymous": false,
      "inputs": [
        {
          "indexed": true,
          "internalType": "address",
          "name": "seller",
          "type": "address"
        },
        {
          "indexed": false,
          "internalType": "uint256",
          "name": "swapId",
          "type": "uint256"
        }
      ],
      "name": "AcceptSwap",
      "type": "event"
    },
    {
      "anonymous": false,
      "inputs": [
        {
          "indexed": true,
          "internalType": "address",
          "name": "buyer",
          "type": "address"
        },
        {
          "indexed": false,
          "internalType": "uint256",
          "name": "claimPrice",
          "type": "uint256"
        },
        {
          "indexed": false,
          "internalType": "uint256",
          "name": "liquidationPrice",
          "type": "uint256"
        },
        {
          "indexed": false,
          "internalType": "uint256",
          "name": "_premium",
          "type": "uint256"
        },
        {
          "indexed": false,
          "internalType": "uint256",
          "name": "expirationMonth",
          "type": "uint256"
        }
      ],
      "name": "MakeSwap",
      "type": "event"
    },
    {
      "inputs": [],
      "name": "getPriceFromOracle",
      "outputs": [
        {
          "internalType": "uint256",
          "name": "",
          "type": "uint256"
        }
      ],
      "stateMutability": "view",
      "type": "function"
    },
    {
      "inputs": [
        {
          "internalType": "address",
          "name": "_priceOracleAddress",
          "type": "address"
        }
      ],
      "name": "setOracle",
      "outputs": [
        {
          "internalType": "bool",
          "name": "",
          "type": "bool"
        }
      ],
      "stateMutability": "nonpayable",
      "type": "function"
    },
    {
      "inputs": [
        {
          "internalType": "address",
          "name": "addr",
          "type": "address"
        },
        {
          "internalType": "uint256",
          "name": "claimPrice",
          "type": "uint256"
        },
        {
          "internalType": "uint256",
          "name": "liquidationPrice",
          "type": "uint256"
        },
        {
          "internalType": "uint256",
          "name": "sellerDeposit",
          "type": "uint256"
        },
        {
          "internalType": "uint256",
          "name": "premium",
          "type": "uint256"
        },
        {
          "internalType": "uint256",
          "name": "expirationMonth",
          "type": "uint256"
        }
      ],
      "name": "makeSwap",
      "outputs": [
        {
          "internalType": "uint256",
          "name": "",
          "type": "uint256"
        }
      ],
      "stateMutability": "nonpayable",
      "type": "function"
    },
    {
      "inputs": [
        {
          "internalType": "address",
          "name": "addr",
          "type": "address"
        },
        {
          "internalType": "uint256",
          "name": "swapId",
          "type": "uint256"
        }
      ],
      "name": "acceptSwap",
      "outputs": [
        {
          "internalType": "uint256",
          "name": "",
          "type": "uint256"
        }
      ],
      "stateMutability": "nonpayable",
      "type": "function"
    },
    {
      "inputs": [
        {
          "internalType": "uint256",
          "name": "swapId",
          "type": "uint256"
        }
      ],
      "name": "getSwap",
      "outputs": [
        {
          "components": [
            {
              "components": [
                {
                  "internalType": "address",
                  "name": "addr",
                  "type": "address"
                },
                {
                  "internalType": "uint256",
                  "name": "deposit",
                  "type": "uint256"
                },
                {
                  "internalType": "uint256",
                  "name": "lastPayDate",
                  "type": "uint256"
                },
                {
                  "internalType": "uint256",
                  "name": "nextPayDate",
                  "type": "uint256"
                }
              ],
              "internalType": "struct Swaps.Buyer",
              "name": "buyer",
              "type": "tuple"
            },
            {
              "components": [
                {
                  "internalType": "address",
                  "name": "addr",
                  "type": "address"
                },
                {
                  "internalType": "uint256",
                  "name": "deposit",
                  "type": "uint256"
                },
                {
                  "internalType": "bool",
                  "name": "isDeposited",
                  "type": "bool"
                }
              ],
              "internalType": "struct Swaps.Seller",
              "name": "seller",
              "type": "tuple"
            },
            {
              "internalType": "uint256",
              "name": "claimPrice",
              "type": "uint256"
            },
            {
              "internalType": "uint256",
              "name": "liquidationPrice",
              "type": "uint256"
            },
            {
              "internalType": "uint256",
              "name": "premium",
              "type": "uint256"
            },
            {
              "internalType": "uint256",
              "name": "expirationMonth",
              "type": "uint256"
            },
            {
              "internalType": "enum Swaps.Status",
              "name": "status",
              "type": "uint8"
            }
          ],
          "internalType": "struct Swaps.Swap",
          "name": "",
          "type": "tuple"
        }
      ],
      "stateMutability": "view",
      "type": "function"
    },
    {
      "inputs": [
        {
          "internalType": "uint256",
          "name": "swapId",
          "type": "uint256"
        }
      ],
      "name": "getBuyer",
      "outputs": [
        {
          "components": [
            {
              "internalType": "address",
              "name": "addr",
              "type": "address"
            },
            {
              "internalType": "uint256",
              "name": "deposit",
              "type": "uint256"
            },
            {
              "internalType": "uint256",
              "name": "lastPayDate",
              "type": "uint256"
            },
            {
              "internalType": "uint256",
              "name": "nextPayDate",
              "type": "uint256"
            }
          ],
          "internalType": "struct Swaps.Buyer",
          "name": "",
          "type": "tuple"
        }
      ],
      "stateMutability": "view",
      "type": "function"
    },
    {
      "inputs": [
        {
          "internalType": "uint256",
          "name": "swapId",
          "type": "uint256"
        }
      ],
      "name": "getSeller",
      "outputs": [
        {
          "components": [
            {
              "internalType": "address",
              "name": "addr",
              "type": "address"
            },
            {
              "internalType": "uint256",
              "name": "deposit",
              "type": "uint256"
            },
            {
              "internalType": "bool",
              "name": "isDeposited",
              "type": "bool"
            }
          ],
          "internalType": "struct Swaps.Seller",
          "name": "",
          "type": "tuple"
        }
      ],
      "stateMutability": "view",
      "type": "function"
    }
  ],
  "bytecode": "0x608060405234801561001057600080fd5b5061108c806100206000396000f3fe608060405234801561001057600080fd5b506004361061007d5760003560e01c80635bf608b81161005b5780635bf608b8146101005780637adbf97314610130578063d6a9de5114610160578063ef826eca146101905761007d565b8063021c0fd11461008257806338f5a491146100b25780634a0d89ba146100d0575b600080fd5b61009c60048036038101906100979190610a57565b6101c0565b6040516100a99190610aa6565b60405180910390f35b6100ba610227565b6040516100c79190610aa6565b60405180910390f35b6100ea60048036038101906100e59190610ac1565b6102c2565b6040516100f79190610cc8565b60405180910390f35b61011a60048036038101906101159190610ac1565b610469565b6040516101279190610d39565b60405180910390f35b61014a60048036038101906101459190610d54565b61050d565b6040516101579190610d90565b60405180910390f35b61017a60048036038101906101759190610ac1565b6105c6565b6040516101879190610ded565b60405180910390f35b6101aa60048036038101906101a59190610e08565b610671565b6040516101b79190610aa6565b60405180910390f35b6000806101cd84846106e6565b90508373ffffffffffffffffffffffffffffffffffffffff167f96a33d274168dd9f48db62d10e3a70d2a3d6b885f26deb52297a7db0d779aecd846040516102159190610aa6565b60405180910390a28091505092915050565b60008060008054906101000a900473ffffffffffffffffffffffffffffffffffffffff1673ffffffffffffffffffffffffffffffffffffffff166398d5fdca6040518163ffffffff1660e01b8152600401602060405180830381865afa158015610295573d6000803e3d6000fd5b505050506040513d601f19601f820116820180604052508101906102b99190610eaa565b90508091505090565b6102ca6108ec565b600260008381526020019081526020016000206040518060e0016040529081600082016040518060800160405290816000820160009054906101000a900473ffffffffffffffffffffffffffffffffffffffff1673ffffffffffffffffffffffffffffffffffffffff1673ffffffffffffffffffffffffffffffffffffffff16815260200160018201548152602001600282015481526020016003820154815250508152602001600482016040518060600160405290816000820160009054906101000a900473ffffffffffffffffffffffffffffffffffffffff1673ffffffffffffffffffffffffffffffffffffffff1673ffffffffffffffffffffffffffffffffffffffff168152602001600182015481526020016002820160009054906101000a900460ff1615151515815250508152602001600782015481526020016008820154815260200160098201548152602001600a8201548152602001600b820160009054906101000a900460ff16600481111561044c5761044b610bbe565b5b600481111561045e5761045d610bbe565b5b815250509050919050565b610471610947565b600260008381526020019081526020016000206000016040518060800160405290816000820160009054906101000a900473ffffffffffffffffffffffffffffffffffffffff1673ffffffffffffffffffffffffffffffffffffffff1673ffffffffffffffffffffffffffffffffffffffff16815260200160018201548152602001600282015481526020016003820154815250509050919050565b60008073ffffffffffffffffffffffffffffffffffffffff168273ffffffffffffffffffffffffffffffffffffffff160361057d576040517f08c379a000000000000000000000000000000000000000000000000000000000815260040161057490610f34565b60405180910390fd5b816000806101000a81548173ffffffffffffffffffffffffffffffffffffffff021916908373ffffffffffffffffffffffffffffffffffffffff16021790555060019050919050565b6105ce610985565b600260008381526020019081526020016000206004016040518060600160405290816000820160009054906101000a900473ffffffffffffffffffffffffffffffffffffffff1673ffffffffffffffffffffffffffffffffffffffff1673ffffffffffffffffffffffffffffffffffffffff168152602001600182015481526020016002820160009054906101000a900460ff1615151515815250509050919050565b6000806106828888888888886107df565b90508773ffffffffffffffffffffffffffffffffffffffff167f2ed1756a33efd26504de885e1c581d28d2d5509a7d9f293a624a948c8d5242b8888887876040516106d09493929190610f54565b60405180910390a2809150509695505050505050565b600080600260008481526020019081526020016000209050838160040160000160006101000a81548173ffffffffffffffffffffffffffffffffffffffff021916908373ffffffffffffffffffffffffffffffffffffffff16021790555060018160040160020160006101000a81548160ff02191690831515021790555060006107738260090154610895565b90508082600001600101819055504282600001600201819055506224ea004261079c9190610fc8565b8260000160030181905550600182600b0160006101000a81548160ff021916908360048111156107cf576107ce610bbe565b5b0217905550839250505092915050565b60006107eb60016108b2565b60006107f760016108c8565b90506000600260008381526020019081526020016000209050888160000160000160006101000a81548173ffffffffffffffffffffffffffffffffffffffff021916908373ffffffffffffffffffffffffffffffffffffffff1602179055508781600701819055508681600801819055508481600901819055508381600a018190555085816004016001018190555081925050509695505050505050565b60006108ab6003836108d690919063ffffffff16565b9050919050565b6001816000016000828254019250508190555050565b600081600001549050919050565b600081836108e49190610ffc565b905092915050565b6040518060e001604052806108ff610947565b815260200161090c610985565b8152602001600081526020016000815260200160008152602001600081526020016000600481111561094157610940610bbe565b5b81525090565b6040518060800160405280600073ffffffffffffffffffffffffffffffffffffffff1681526020016000815260200160008152602001600081525090565b6040518060600160405280600073ffffffffffffffffffffffffffffffffffffffff168152602001600081526020016000151581525090565b600080fd5b600073ffffffffffffffffffffffffffffffffffffffff82169050919050565b60006109ee826109c3565b9050919050565b6109fe816109e3565b8114610a0957600080fd5b50565b600081359050610a1b816109f5565b92915050565b6000819050919050565b610a3481610a21565b8114610a3f57600080fd5b50565b600081359050610a5181610a2b565b92915050565b60008060408385031215610a6e57610a6d6109be565b5b6000610a7c85828601610a0c565b9250506020610a8d85828601610a42565b9150509250929050565b610aa081610a21565b82525050565b6000602082019050610abb6000830184610a97565b92915050565b600060208284031215610ad757610ad66109be565b5b6000610ae584828501610a42565b91505092915050565b610af7816109e3565b82525050565b610b0681610a21565b82525050565b608082016000820151610b226000850182610aee565b506020820151610b356020850182610afd565b506040820151610b486040850182610afd565b506060820151610b5b6060850182610afd565b50505050565b60008115159050919050565b610b7681610b61565b82525050565b606082016000820151610b926000850182610aee565b506020820151610ba56020850182610afd565b506040820151610bb86040850182610b6d565b50505050565b7f4e487b7100000000000000000000000000000000000000000000000000000000600052602160045260246000fd5b60058110610bfe57610bfd610bbe565b5b50565b6000819050610c0f82610bed565b919050565b6000610c1f82610c01565b9050919050565b610c2f81610c14565b82525050565b61018082016000820151610c4c6000850182610b0c565b506020820151610c5f6080850182610b7c565b506040820151610c7260e0850182610afd565b506060820151610c86610100850182610afd565b506080820151610c9a610120850182610afd565b5060a0820151610cae610140850182610afd565b5060c0820151610cc2610160850182610c26565b50505050565b600061018082019050610cde6000830184610c35565b92915050565b608082016000820151610cfa6000850182610aee565b506020820151610d0d6020850182610afd565b506040820151610d206040850182610afd565b506060820151610d336060850182610afd565b50505050565b6000608082019050610d4e6000830184610ce4565b92915050565b600060208284031215610d6a57610d696109be565b5b6000610d7884828501610a0c565b91505092915050565b610d8a81610b61565b82525050565b6000602082019050610da56000830184610d81565b92915050565b606082016000820151610dc16000850182610aee565b506020820151610dd46020850182610afd565b506040820151610de76040850182610b6d565b50505050565b6000606082019050610e026000830184610dab565b92915050565b60008060008060008060c08789031215610e2557610e246109be565b5b6000610e3389828a01610a0c565b9650506020610e4489828a01610a42565b9550506040610e5589828a01610a42565b9450506060610e6689828a01610a42565b9350506080610e7789828a01610a42565b92505060a0610e8889828a01610a42565b9150509295509295509295565b600081519050610ea481610a2b565b92915050565b600060208284031215610ec057610ebf6109be565b5b6000610ece84828501610e95565b91505092915050565b600082825260208201905092915050565b7f496e76616c696420616464726573730000000000000000000000000000000000600082015250565b6000610f1e600f83610ed7565b9150610f2982610ee8565b602082019050919050565b60006020820190508181036000830152610f4d81610f11565b9050919050565b6000608082019050610f696000830187610a97565b610f766020830186610a97565b610f836040830185610a97565b610f906060830184610a97565b95945050505050565b7f4e487b7100000000000000000000000000000000000000000000000000000000600052601160045260246000fd5b6000610fd382610a21565b9150610fde83610a21565b9250828201905080821115610ff657610ff5610f99565b5b92915050565b600061100782610a21565b915061101283610a21565b9250817fffffffffffffffffffffffffffffffffffffffffffffffffffffffffffffffff048311821515161561104b5761104a610f99565b5b82820290509291505056fea26469706673582212206c659b70d58c962958ca499c70e30a2108fded76d806afea886cc36d6a65afa064736f6c63430008100033",
  "immutableReferences": {},
  "source": "// SPDX-License-Identifier: MIT\npragma solidity ^0.8.7;\n\nimport './Swaps/Swaps.sol';\n\ncontract CDS is Swaps {\n  event MakeSwap(\n    address indexed buyer,\n    uint256 claimPrice,\n    uint256 liquidationPrice,\n    uint256 _premium,\n    uint256 expirationMonth\n  );\n  event AcceptSwap(address indexed seller, uint256 swapId);\n\n  function makeSwap(\n    address addr,\n    uint256 claimPrice,\n    uint256 liquidationPrice,\n    uint256 sellerDeposit,\n    uint256 premium,\n    uint256 expirationMonth\n  ) public returns (uint256) {\n    uint256 newSwapId = _makeSwap(\n      addr,\n      claimPrice,\n      liquidationPrice,\n      sellerDeposit,\n      premium,\n      expirationMonth\n    );\n    emit MakeSwap(addr, claimPrice, liquidationPrice, premium, expirationMonth);\n    return newSwapId;\n  }\n\n  function acceptSwap(address addr, uint256 swapId) public returns (uint256) {\n    uint256 acceptedSwapId = _acceptSwap(addr, swapId);\n    emit AcceptSwap(addr, swapId);\n    return acceptedSwapId;\n  }\n\n  function getSwap(uint256 swapId) public view returns (Swap memory) {\n    return _swaps[swapId];\n  }\n\n  function getBuyer(uint256 swapId) public view returns (Buyer memory) {\n    return _swaps[swapId].buyer;\n  }\n\n  function getSeller(uint256 swapId) public view returns (Seller memory) {\n    return _swaps[swapId].seller;\n  }\n}\n",
  "sourcePath": "/Users/sdh/Study/BEB_07/projects/CDS/contract/contracts/CDS.sol",
  "compiler": {
    "name": "solc",
    "version": "0.8.16+commit.07a7930e.Emscripten.clang"
  },
  "schemaVersion": "3.4.9",
  "updatedAt": "2023-01-20T01:29:13.742Z",
  "devdoc": {
    "kind": "dev",
    "methods": {},
    "version": 1
  },
  "userdoc": {
    "kind": "user",
    "methods": {},
    "version": 1
  }
}