{
  "contractName": "Swaps",
  "abi": [
    {
      "inputs": [],
      "name": "getPriceFromOracle",
      "outputs": [
        {
          "internalType": "uint256",
          "name": "",
          "type": "uint256"
        }
      ],
      "stateMutability": "view",
      "type": "function"
    },
    {
      "inputs": [
        {
          "internalType": "address",
          "name": "_priceOracleAddress",
          "type": "address"
        }
      ],
      "name": "setOracle",
      "outputs": [
        {
          "internalType": "bool",
          "name": "",
          "type": "bool"
        }
      ],
      "stateMutability": "nonpayable",
      "type": "function"
    }
  ],
  "bytecode": "0x608060405234801561001057600080fd5b506103e3806100206000396000f3fe608060405234801561001057600080fd5b50600436106100365760003560e01c806338f5a4911461003b5780637adbf97314610059575b600080fd5b610043610089565b60405161005091906101f6565b60405180910390f35b610073600480360381019061006e9190610274565b610124565b60405161008091906102bc565b60405180910390f35b60008060008054906101000a900473ffffffffffffffffffffffffffffffffffffffff1673ffffffffffffffffffffffffffffffffffffffff166398d5fdca6040518163ffffffff1660e01b8152600401602060405180830381865afa1580156100f7573d6000803e3d6000fd5b505050506040513d601f19601f8201168201806040525081019061011b9190610303565b90508091505090565b60008073ffffffffffffffffffffffffffffffffffffffff168273ffffffffffffffffffffffffffffffffffffffff1603610194576040517f08c379a000000000000000000000000000000000000000000000000000000000815260040161018b9061038d565b60405180910390fd5b816000806101000a81548173ffffffffffffffffffffffffffffffffffffffff021916908373ffffffffffffffffffffffffffffffffffffffff16021790555060019050919050565b6000819050919050565b6101f0816101dd565b82525050565b600060208201905061020b60008301846101e7565b92915050565b600080fd5b600073ffffffffffffffffffffffffffffffffffffffff82169050919050565b600061024182610216565b9050919050565b61025181610236565b811461025c57600080fd5b50565b60008135905061026e81610248565b92915050565b60006020828403121561028a57610289610211565b5b60006102988482850161025f565b91505092915050565b60008115159050919050565b6102b6816102a1565b82525050565b60006020820190506102d160008301846102ad565b92915050565b6102e0816101dd565b81146102eb57600080fd5b50565b6000815190506102fd816102d7565b92915050565b60006020828403121561031957610318610211565b5b6000610327848285016102ee565b91505092915050565b600082825260208201905092915050565b7f496e76616c696420616464726573730000000000000000000000000000000000600082015250565b6000610377600f83610330565b915061038282610341565b602082019050919050565b600060208201905081810360008301526103a68161036a565b905091905056fea2646970667358221220dedceb9785656f101dc8a65c84623923f4c36d7c1a5dfdab75aba62486ff6acd64736f6c63430008100033",
  "immutableReferences": {},
  "source": "// SPDX-License-Identifier: MIT\npragma solidity ^0.8.7;\n\nimport '../Oracle/PriceConsumer.sol';\nimport '../libs/LibSwapCalc.sol';\nimport '@openzeppelin/contracts/utils/Counters.sol';\n\ncontract Swaps is PriceConsumer {\n  using Counters for Counters.Counter;\n  using LibSwapCalc for uint256;\n  Counters.Counter internal _swapId;\n\n  enum Status {\n    pending,\n    active,\n    claimable,\n    overdue,\n    expired,\n    liquidated\n  }\n  mapping(uint256 => Swap) internal _swaps;\n\n  struct Buyer {\n    address addr;\n    uint256 deposit;\n    uint256 lastPayDate;\n    uint256 nextPayDate;\n  }\n\n  struct Seller {\n    address addr;\n    uint256 deposit;\n    bool isDeposited;\n  }\n\n  struct Swap {\n    Buyer buyer;\n    Seller seller;\n    uint256 initAssetPrice;\n    uint256 claimPrice;\n    uint256 liquidationPrice;\n    uint256 premium;\n    uint256 premiumInterval;\n    uint256 totalPremiumRounds;\n    Status status;\n  }\n\n  function _makeSwap(\n    address _addr,\n    uint256 _initAssetPrice,\n    uint256 _claimPrice,\n    uint256 _liquidationPrice,\n    uint256 _sellerDeposit,\n    uint256 _premium,\n    uint256 _premiumInterval,\n    uint256 _totalPremiumRounds\n  ) internal returns (uint256) {\n    _swapId.increment();\n    uint256 newSwapId = _swapId.current();\n    Swap storage newSwap = _swaps[newSwapId];\n\n    newSwap.buyer.addr = _addr;\n\n    newSwap.initAssetPrice = _initAssetPrice;\n    newSwap.claimPrice = _claimPrice;\n    newSwap.liquidationPrice = _liquidationPrice;\n    newSwap.premium = _premium;\n    newSwap.premiumInterval = _premiumInterval;\n    newSwap.totalPremiumRounds = _totalPremiumRounds;\n\n    newSwap.seller.deposit = _sellerDeposit;\n\n    return newSwapId;\n  }\n\n  function _acceptSwap(\n    address _addr,\n    uint256 _initAssetPrice,\n    uint256 _acceptedSwapId\n  ) internal returns (uint256) {\n    Swap storage aSwap = _swaps[_acceptedSwapId];\n\n    aSwap.seller.addr = _addr;\n    aSwap.initAssetPrice = _initAssetPrice;\n\n    // seller deposit \n    aSwap.seller.isDeposited = true;\n\n    // buyer deposit \n    uint256 buyerDeposit = aSwap.premium.calcBuyerDepo();\n    aSwap.buyer.deposit = buyerDeposit;\n    // buyer premium  \n    aSwap.buyer.lastPayDate = block.timestamp;\n    aSwap.buyer.nextPayDate = block.timestamp + aSwap.premiumInterval;\n\n    aSwap.status = Status.active;\n\n    return _acceptedSwapId;\n  }\n}\n",
  "sourcePath": "/Users/duh8n/Workspace/beb_project/BEB-07-final-CDS/contract/contracts/Swaps/Swaps.sol",
  "compiler": {
    "name": "solc",
    "version": "0.8.16+commit.07a7930e.Emscripten.clang"
  },
  "schemaVersion": "3.4.10",
  "updatedAt": "2023-01-24T03:15:28.273Z",
  "devdoc": {
    "kind": "dev",
    "methods": {},
    "version": 1
  },
  "userdoc": {
    "kind": "user",
    "methods": {},
    "version": 1
  }
}