{
  "contractName": "EWENFT",
  "abi": [
    {
      "inputs": [],
      "stateMutability": "nonpayable",
      "type": "constructor"
    },
    {
      "anonymous": false,
      "inputs": [
        {
          "indexed": true,
          "internalType": "address",
          "name": "owner",
          "type": "address"
        },
        {
          "indexed": true,
          "internalType": "address",
          "name": "approved",
          "type": "address"
        },
        {
          "indexed": true,
          "internalType": "uint256",
          "name": "tokenId",
          "type": "uint256"
        }
      ],
      "name": "Approval",
      "type": "event"
    },
    {
      "anonymous": false,
      "inputs": [
        {
          "indexed": true,
          "internalType": "address",
          "name": "owner",
          "type": "address"
        },
        {
          "indexed": true,
          "internalType": "address",
          "name": "operator",
          "type": "address"
        },
        {
          "indexed": false,
          "internalType": "bool",
          "name": "approved",
          "type": "bool"
        }
      ],
      "name": "ApprovalForAll",
      "type": "event"
    },
    {
      "anonymous": false,
      "inputs": [
        {
          "indexed": true,
          "internalType": "address",
          "name": "previousOwner",
          "type": "address"
        },
        {
          "indexed": true,
          "internalType": "address",
          "name": "newOwner",
          "type": "address"
        }
      ],
      "name": "OwnershipTransferred",
      "type": "event"
    },
    {
      "anonymous": false,
      "inputs": [
        {
          "indexed": true,
          "internalType": "address",
          "name": "from",
          "type": "address"
        },
        {
          "indexed": true,
          "internalType": "address",
          "name": "to",
          "type": "address"
        },
        {
          "indexed": true,
          "internalType": "uint256",
          "name": "tokenId",
          "type": "uint256"
        }
      ],
      "name": "Transfer",
      "type": "event"
    },
    {
      "inputs": [
        {
          "internalType": "address",
          "name": "to",
          "type": "address"
        },
        {
          "internalType": "uint256",
          "name": "tokenId",
          "type": "uint256"
        }
      ],
      "name": "approve",
      "outputs": [],
      "stateMutability": "nonpayable",
      "type": "function"
    },
    {
      "inputs": [
        {
          "internalType": "address",
          "name": "owner",
          "type": "address"
        }
      ],
      "name": "balanceOf",
      "outputs": [
        {
          "internalType": "uint256",
          "name": "",
          "type": "uint256"
        }
      ],
      "stateMutability": "view",
      "type": "function"
    },
    {
      "inputs": [],
      "name": "baseTokenURI",
      "outputs": [
        {
          "internalType": "string",
          "name": "",
          "type": "string"
        }
      ],
      "stateMutability": "view",
      "type": "function"
    },
    {
      "inputs": [
        {
          "internalType": "uint256",
          "name": "tokenId",
          "type": "uint256"
        }
      ],
      "name": "getApproved",
      "outputs": [
        {
          "internalType": "address",
          "name": "",
          "type": "address"
        }
      ],
      "stateMutability": "view",
      "type": "function"
    },
    {
      "inputs": [
        {
          "internalType": "address",
          "name": "owner",
          "type": "address"
        },
        {
          "internalType": "address",
          "name": "operator",
          "type": "address"
        }
      ],
      "name": "isApprovedForAll",
      "outputs": [
        {
          "internalType": "bool",
          "name": "",
          "type": "bool"
        }
      ],
      "stateMutability": "view",
      "type": "function"
    },
    {
      "inputs": [],
      "name": "name",
      "outputs": [
        {
          "internalType": "string",
          "name": "",
          "type": "string"
        }
      ],
      "stateMutability": "view",
      "type": "function"
    },
    {
      "inputs": [],
      "name": "nftPrice",
      "outputs": [
        {
          "internalType": "uint256",
          "name": "",
          "type": "uint256"
        }
      ],
      "stateMutability": "view",
      "type": "function"
    },
    {
      "inputs": [],
      "name": "owner",
      "outputs": [
        {
          "internalType": "address",
          "name": "",
          "type": "address"
        }
      ],
      "stateMutability": "view",
      "type": "function"
    },
    {
      "inputs": [
        {
          "internalType": "uint256",
          "name": "tokenId",
          "type": "uint256"
        }
      ],
      "name": "ownerOf",
      "outputs": [
        {
          "internalType": "address",
          "name": "",
          "type": "address"
        }
      ],
      "stateMutability": "view",
      "type": "function"
    },
    {
      "inputs": [],
      "name": "renounceOwnership",
      "outputs": [],
      "stateMutability": "nonpayable",
      "type": "function"
    },
    {
      "inputs": [
        {
          "internalType": "address",
          "name": "from",
          "type": "address"
        },
        {
          "internalType": "address",
          "name": "to",
          "type": "address"
        },
        {
          "internalType": "uint256",
          "name": "tokenId",
          "type": "uint256"
        }
      ],
      "name": "safeTransferFrom",
      "outputs": [],
      "stateMutability": "nonpayable",
      "type": "function"
    },
    {
      "inputs": [
        {
          "internalType": "address",
          "name": "from",
          "type": "address"
        },
        {
          "internalType": "address",
          "name": "to",
          "type": "address"
        },
        {
          "internalType": "uint256",
          "name": "tokenId",
          "type": "uint256"
        },
        {
          "internalType": "bytes",
          "name": "data",
          "type": "bytes"
        }
      ],
      "name": "safeTransferFrom",
      "outputs": [],
      "stateMutability": "nonpayable",
      "type": "function"
    },
    {
      "inputs": [
        {
          "internalType": "address",
          "name": "operator",
          "type": "address"
        },
        {
          "internalType": "bool",
          "name": "approved",
          "type": "bool"
        }
      ],
      "name": "setApprovalForAll",
      "outputs": [],
      "stateMutability": "nonpayable",
      "type": "function"
    },
    {
      "inputs": [
        {
          "internalType": "bytes4",
          "name": "interfaceId",
          "type": "bytes4"
        }
      ],
      "name": "supportsInterface",
      "outputs": [
        {
          "internalType": "bool",
          "name": "",
          "type": "bool"
        }
      ],
      "stateMutability": "view",
      "type": "function"
    },
    {
      "inputs": [],
      "name": "symbol",
      "outputs": [
        {
          "internalType": "string",
          "name": "",
          "type": "string"
        }
      ],
      "stateMutability": "view",
      "type": "function"
    },
    {
      "inputs": [],
      "name": "token",
      "outputs": [
        {
          "internalType": "contract EWEToken",
          "name": "",
          "type": "address"
        }
      ],
      "stateMutability": "view",
      "type": "function"
    },
    {
      "inputs": [
        {
          "internalType": "uint256",
          "name": "tokenId",
          "type": "uint256"
        }
      ],
      "name": "tokenURI",
      "outputs": [
        {
          "internalType": "string",
          "name": "",
          "type": "string"
        }
      ],
      "stateMutability": "view",
      "type": "function"
    },
    {
      "inputs": [
        {
          "internalType": "address",
          "name": "from",
          "type": "address"
        },
        {
          "internalType": "address",
          "name": "to",
          "type": "address"
        },
        {
          "internalType": "uint256",
          "name": "tokenId",
          "type": "uint256"
        }
      ],
      "name": "transferFrom",
      "outputs": [],
      "stateMutability": "nonpayable",
      "type": "function"
    },
    {
      "inputs": [
        {
          "internalType": "address",
          "name": "newOwner",
          "type": "address"
        }
      ],
      "name": "transferOwnership",
      "outputs": [],
      "stateMutability": "nonpayable",
      "type": "function"
    },
    {
      "inputs": [
        {
          "internalType": "address",
          "name": "recipient",
          "type": "address"
        },
        {
          "internalType": "uint256",
          "name": "amount",
          "type": "uint256"
        }
      ],
      "name": "connectionTestWithTransfer",
      "outputs": [
        {
          "internalType": "bool",
          "name": "",
          "type": "bool"
        }
      ],
      "stateMutability": "nonpayable",
      "type": "function"
    },
    {
      "inputs": [
        {
          "internalType": "address",
          "name": "recipient",
          "type": "address"
        }
      ],
      "name": "mintNFT",
      "outputs": [
        {
          "internalType": "uint256",
          "name": "",
          "type": "uint256"
        }
      ],
      "stateMutability": "nonpayable",
      "type": "function"
    },
    {
      "inputs": [],
      "name": "getTokenId",
      "outputs": [
        {
          "internalType": "uint256",
          "name": "",
          "type": "uint256"
        }
      ],
      "stateMutability": "view",
      "type": "function"
    },
    {
      "inputs": [],
      "name": "getPrice",
      "outputs": [
        {
          "internalType": "uint256",
          "name": "",
          "type": "uint256"
        }
      ],
      "stateMutability": "view",
      "type": "function"
    },
    {
      "inputs": [],
      "name": "getToken",
      "outputs": [
        {
          "internalType": "contract EWEToken",
          "name": "",
          "type": "address"
        }
      ],
      "stateMutability": "view",
      "type": "function"
    },
    {
      "inputs": [
        {
          "internalType": "address",
          "name": "tokenAddress",
          "type": "address"
        }
      ],
      "name": "setToken",
      "outputs": [
        {
          "internalType": "bool",
          "name": "",
          "type": "bool"
        }
      ],
      "stateMutability": "nonpayable",
      "type": "function"
    }
  ],
  "bytecode": "0x60806040523480156200001157600080fd5b506040518060400160405280600681526020017f4557454e465400000000000000000000000000000000000000000000000000008152506040518060400160405280600681526020017f4557454e4654000000000000000000000000000000000000000000000000000081525081600090816200008f919062000445565b508060019081620000a1919062000445565b505050620000c4620000b8620000fd60201b60201c565b6200010560201b60201c565b6001600b8190555060405180606001604052806035815260200162003bb76035913960099081620000f6919062000445565b506200052c565b600033905090565b6000600760009054906101000a900473ffffffffffffffffffffffffffffffffffffffff16905081600760006101000a81548173ffffffffffffffffffffffffffffffffffffffff021916908373ffffffffffffffffffffffffffffffffffffffff1602179055508173ffffffffffffffffffffffffffffffffffffffff168173ffffffffffffffffffffffffffffffffffffffff167f8be0079c531659141344cd1fd0a4f28419497f9722a3daafe3b4186f6b6457e060405160405180910390a35050565b600081519050919050565b7f4e487b7100000000000000000000000000000000000000000000000000000000600052604160045260246000fd5b7f4e487b7100000000000000000000000000000000000000000000000000000000600052602260045260246000fd5b600060028204905060018216806200024d57607f821691505b60208210810362000263576200026262000205565b5b50919050565b60008190508160005260206000209050919050565b60006020601f8301049050919050565b600082821b905092915050565b600060088302620002cd7fffffffffffffffffffffffffffffffffffffffffffffffffffffffffffffffff826200028e565b620002d986836200028e565b95508019841693508086168417925050509392505050565b6000819050919050565b6000819050919050565b600062000326620003206200031a84620002f1565b620002fb565b620002f1565b9050919050565b6000819050919050565b620003428362000305565b6200035a62000351826200032d565b8484546200029b565b825550505050565b600090565b6200037162000362565b6200037e81848462000337565b505050565b5b81811015620003a6576200039a60008262000367565b60018101905062000384565b5050565b601f821115620003f557620003bf8162000269565b620003ca846200027e565b81016020851015620003da578190505b620003f2620003e9856200027e565b83018262000383565b50505b505050565b600082821c905092915050565b60006200041a60001984600802620003fa565b1980831691505092915050565b600062000435838362000407565b9150826002028217905092915050565b6200045082620001cb565b67ffffffffffffffff8111156200046c576200046b620001d6565b5b62000478825462000234565b62000485828285620003aa565b600060209050601f831160018114620004bd5760008415620004a8578287015190505b620004b4858262000427565b86555062000524565b601f198416620004cd8662000269565b60005b82811015620004f757848901518255600182019150602085019450602081019050620004d0565b8683101562000517578489015162000513601f89168262000407565b8355505b6001600288020188555050505b505050505050565b61367b806200053c6000396000f3fe608060405234801561001057600080fd5b50600436106101735760003560e01c806370a08231116100de578063a3116bb811610097578063d547cfb711610071578063d547cfb714610460578063e985e9c51461047e578063f2fde38b146104ae578063fc0c546a146104ca57610173565b8063a3116bb8146103e4578063b88d4fde14610414578063c87b56dd1461043057610173565b806370a0823114610334578063715018a6146103645780638da5cb5b1461036e57806395d89b411461038c57806398d5fdca146103aa578063a22cb465146103c857610173565b8063144fa6d711610130578063144fa6d71461024e57806321df0da71461027e57806323b872dd1461029c57806342842e0e146102b857806354ba0f27146102d45780636352211e1461030457610173565b8063010a38f51461017857806301ffc9a71461019657806306fdde03146101c6578063081812fc146101e4578063095ea7b3146102145780630d39fc8114610230575b600080fd5b6101806104e8565b60405161018d91906121e3565b60405180910390f35b6101b060048036038101906101ab919061226a565b6104fe565b6040516101bd91906122b2565b60405180910390f35b6101ce6105e0565b6040516101db919061235d565b60405180910390f35b6101fe60048036038101906101f991906123ab565b610672565b60405161020b9190612419565b60405180910390f35b61022e60048036038101906102299190612460565b6106b8565b005b6102386107cf565b60405161024591906121e3565b60405180910390f35b610268600480360381019061026391906124a0565b6107d5565b60405161027591906122b2565b60405180910390f35b610286610898565b604051610293919061252c565b60405180910390f35b6102b660048036038101906102b19190612547565b6108c2565b005b6102d260048036038101906102cd9190612547565b610922565b005b6102ee60048036038101906102e991906124a0565b610942565b6040516102fb91906121e3565b60405180910390f35b61031e600480360381019061031991906123ab565b610aff565b60405161032b9190612419565b60405180910390f35b61034e600480360381019061034991906124a0565b610b85565b60405161035b91906121e3565b60405180910390f35b61036c610c3c565b005b610376610c50565b6040516103839190612419565b60405180910390f35b610394610c7a565b6040516103a1919061235d565b60405180910390f35b6103b2610d0c565b6040516103bf91906121e3565b60405180910390f35b6103e260048036038101906103dd91906125c6565b610d16565b005b6103fe60048036038101906103f99190612460565b610d2c565b60405161040b91906122b2565b60405180910390f35b61042e6004803603810190610429919061273b565b610dd9565b005b61044a600480360381019061044591906123ab565b610e3b565b604051610457919061235d565b60405180910390f35b610468610f4d565b604051610475919061235d565b60405180910390f35b610498600480360381019061049391906127be565b610fdb565b6040516104a591906122b2565b60405180910390f35b6104c860048036038101906104c391906124a0565b61106f565b005b6104d26110f2565b6040516104df919061252c565b60405180910390f35b6000806104f56008611118565b90508091505090565b60007f80ac58cd000000000000000000000000000000000000000000000000000000007bffffffffffffffffffffffffffffffffffffffffffffffffffffffff1916827bffffffffffffffffffffffffffffffffffffffffffffffffffffffff191614806105c957507f5b5e139f000000000000000000000000000000000000000000000000000000007bffffffffffffffffffffffffffffffffffffffffffffffffffffffff1916827bffffffffffffffffffffffffffffffffffffffffffffffffffffffff1916145b806105d957506105d882611126565b5b9050919050565b6060600080546105ef9061282d565b80601f016020809104026020016040519081016040528092919081815260200182805461061b9061282d565b80156106685780601f1061063d57610100808354040283529160200191610668565b820191906000526020600020905b81548152906001019060200180831161064b57829003601f168201915b5050505050905090565b600061067d82611190565b6004600083815260200190815260200160002060009054906101000a900473ffffffffffffffffffffffffffffffffffffffff169050919050565b60006106c382610aff565b90508073ffffffffffffffffffffffffffffffffffffffff168373ffffffffffffffffffffffffffffffffffffffff1603610733576040517f08c379a000000000000000000000000000000000000000000000000000000000815260040161072a906128d0565b60405180910390fd5b8073ffffffffffffffffffffffffffffffffffffffff166107526111db565b73ffffffffffffffffffffffffffffffffffffffff16148061078157506107808161077b6111db565b610fdb565b5b6107c0576040517f08c379a00000000000000000000000000000000000000000000000000000000081526004016107b790612962565b60405180910390fd5b6107ca83836111e3565b505050565b600b5481565b60006107df61129c565b600073ffffffffffffffffffffffffffffffffffffffff168273ffffffffffffffffffffffffffffffffffffffff160361084e576040517f08c379a0000000000000000000000000000000000000000000000000000000008152600401610845906129ce565b60405180910390fd5b81600a60006101000a81548173ffffffffffffffffffffffffffffffffffffffff021916908373ffffffffffffffffffffffffffffffffffffffff16021790555060019050919050565b6000600a60009054906101000a900473ffffffffffffffffffffffffffffffffffffffff16905090565b6108d36108cd6111db565b8261131a565b610912576040517f08c379a000000000000000000000000000000000000000000000000000000000815260040161090990612a60565b60405180910390fd5b61091d8383836113af565b505050565b61093d83838360405180602001604052806000815250610dd9565b505050565b600061094c61129c565b600b54600a60009054906101000a900473ffffffffffffffffffffffffffffffffffffffff1673ffffffffffffffffffffffffffffffffffffffff166370a08231846040518263ffffffff1660e01b81526004016109aa9190612419565b602060405180830381865afa1580156109c7573d6000803e3d6000fd5b505050506040513d601f19601f820116820180604052508101906109eb9190612a95565b116109f557600080fd5b600a60009054906101000a900473ffffffffffffffffffffffffffffffffffffffff1673ffffffffffffffffffffffffffffffffffffffff16632ec6cff88333600b546040518463ffffffff1660e01b8152600401610a5693929190612ac2565b6020604051808303816000875af1158015610a75573d6000803e3d6000fd5b505050506040513d601f19601f82011682018060405250810190610a999190612b0e565b50610aa460086116a8565b6000610ab06008611118565b905060006009610abf836116be565b604051602001610ad0929190612c35565b6040516020818303038152906040529050610aeb848361178c565b610af582826119a9565b8192505050919050565b600080610b0b83611a16565b9050600073ffffffffffffffffffffffffffffffffffffffff168173ffffffffffffffffffffffffffffffffffffffff1603610b7c576040517f08c379a0000000000000000000000000000000000000000000000000000000008152600401610b7390612cb4565b60405180910390fd5b80915050919050565b60008073ffffffffffffffffffffffffffffffffffffffff168273ffffffffffffffffffffffffffffffffffffffff1603610bf5576040517f08c379a0000000000000000000000000000000000000000000000000000000008152600401610bec90612d46565b60405180910390fd5b600360008373ffffffffffffffffffffffffffffffffffffffff1673ffffffffffffffffffffffffffffffffffffffff168152602001908152602001600020549050919050565b610c4461129c565b610c4e6000611a53565b565b6000600760009054906101000a900473ffffffffffffffffffffffffffffffffffffffff16905090565b606060018054610c899061282d565b80601f0160208091040260200160405190810160405280929190818152602001828054610cb59061282d565b8015610d025780601f10610cd757610100808354040283529160200191610d02565b820191906000526020600020905b815481529060010190602001808311610ce557829003601f168201915b5050505050905090565b6000600b54905090565b610d28610d216111db565b8383611b19565b5050565b6000600a60009054906101000a900473ffffffffffffffffffffffffffffffffffffffff1673ffffffffffffffffffffffffffffffffffffffff1663a9059cbb84846040518363ffffffff1660e01b8152600401610d8b929190612d66565b6020604051808303816000875af1158015610daa573d6000803e3d6000fd5b505050506040513d601f19601f82011682018060405250810190610dce9190612b0e565b506001905092915050565b610dea610de46111db565b8361131a565b610e29576040517f08c379a0000000000000000000000000000000000000000000000000000000008152600401610e2090612a60565b60405180910390fd5b610e3584848484611c85565b50505050565b6060610e4682611190565b6000600660008481526020019081526020016000208054610e669061282d565b80601f0160208091040260200160405190810160405280929190818152602001828054610e929061282d565b8015610edf5780601f10610eb457610100808354040283529160200191610edf565b820191906000526020600020905b815481529060010190602001808311610ec257829003601f168201915b505050505090506000610ef0611ce1565b90506000815103610f05578192505050610f48565b600082511115610f3a578082604051602001610f22929190612d8f565b60405160208183030381529060405292505050610f48565b610f4384611cf8565b925050505b919050565b60098054610f5a9061282d565b80601f0160208091040260200160405190810160405280929190818152602001828054610f869061282d565b8015610fd35780601f10610fa857610100808354040283529160200191610fd3565b820191906000526020600020905b815481529060010190602001808311610fb657829003601f168201915b505050505081565b6000600560008473ffffffffffffffffffffffffffffffffffffffff1673ffffffffffffffffffffffffffffffffffffffff16815260200190815260200160002060008373ffffffffffffffffffffffffffffffffffffffff1673ffffffffffffffffffffffffffffffffffffffff16815260200190815260200160002060009054906101000a900460ff16905092915050565b61107761129c565b600073ffffffffffffffffffffffffffffffffffffffff168173ffffffffffffffffffffffffffffffffffffffff16036110e6576040517f08c379a00000000000000000000000000000000000000000000000000000000081526004016110dd90612e25565b60405180910390fd5b6110ef81611a53565b50565b600a60009054906101000a900473ffffffffffffffffffffffffffffffffffffffff1681565b600081600001549050919050565b60007f01ffc9a7000000000000000000000000000000000000000000000000000000007bffffffffffffffffffffffffffffffffffffffffffffffffffffffff1916827bffffffffffffffffffffffffffffffffffffffffffffffffffffffff1916149050919050565b61119981611d60565b6111d8576040517f08c379a00000000000000000000000000000000000000000000000000000000081526004016111cf90612cb4565b60405180910390fd5b50565b600033905090565b816004600083815260200190815260200160002060006101000a81548173ffffffffffffffffffffffffffffffffffffffff021916908373ffffffffffffffffffffffffffffffffffffffff160217905550808273ffffffffffffffffffffffffffffffffffffffff1661125683610aff565b73ffffffffffffffffffffffffffffffffffffffff167f8c5be1e5ebec7d5bd14f71427d1e84f3dd0314c0f7b2291e5b200ac8c7c3b92560405160405180910390a45050565b6112a46111db565b73ffffffffffffffffffffffffffffffffffffffff166112c2610c50565b73ffffffffffffffffffffffffffffffffffffffff1614611318576040517f08c379a000000000000000000000000000000000000000000000000000000000815260040161130f90612e91565b60405180910390fd5b565b60008061132683610aff565b90508073ffffffffffffffffffffffffffffffffffffffff168473ffffffffffffffffffffffffffffffffffffffff16148061136857506113678185610fdb565b5b806113a657508373ffffffffffffffffffffffffffffffffffffffff1661138e84610672565b73ffffffffffffffffffffffffffffffffffffffff16145b91505092915050565b8273ffffffffffffffffffffffffffffffffffffffff166113cf82610aff565b73ffffffffffffffffffffffffffffffffffffffff1614611425576040517f08c379a000000000000000000000000000000000000000000000000000000000815260040161141c90612f23565b60405180910390fd5b600073ffffffffffffffffffffffffffffffffffffffff168273ffffffffffffffffffffffffffffffffffffffff1603611494576040517f08c379a000000000000000000000000000000000000000000000000000000000815260040161148b90612fb5565b60405180910390fd5b6114a18383836001611da1565b8273ffffffffffffffffffffffffffffffffffffffff166114c182610aff565b73ffffffffffffffffffffffffffffffffffffffff1614611517576040517f08c379a000000000000000000000000000000000000000000000000000000000815260040161150e90612f23565b60405180910390fd5b6004600082815260200190815260200160002060006101000a81549073ffffffffffffffffffffffffffffffffffffffff02191690556001600360008573ffffffffffffffffffffffffffffffffffffffff1673ffffffffffffffffffffffffffffffffffffffff168152602001908152602001600020600082825403925050819055506001600360008473ffffffffffffffffffffffffffffffffffffffff1673ffffffffffffffffffffffffffffffffffffffff16815260200190815260200160002060008282540192505081905550816002600083815260200190815260200160002060006101000a81548173ffffffffffffffffffffffffffffffffffffffff021916908373ffffffffffffffffffffffffffffffffffffffff160217905550808273ffffffffffffffffffffffffffffffffffffffff168473ffffffffffffffffffffffffffffffffffffffff167fddf252ad1be2c89b69c2b068fc378daa952ba7f163c4a11628f55a4df523b3ef60405160405180910390a46116a38383836001611ec7565b505050565b6001816000016000828254019250508190555050565b6060600060016116cd84611ecd565b01905060008167ffffffffffffffff8111156116ec576116eb612610565b5b6040519080825280601f01601f19166020018201604052801561171e5781602001600182028036833780820191505090505b509050600082602001820190505b600115611781578080600190039150507f3031323334353637383961626364656600000000000000000000000000000000600a86061a8153600a858161177557611774612fd5565b5b0494506000850361172c575b819350505050919050565b600073ffffffffffffffffffffffffffffffffffffffff168273ffffffffffffffffffffffffffffffffffffffff16036117fb576040517f08c379a00000000000000000000000000000000000000000000000000000000081526004016117f290613050565b60405180910390fd5b61180481611d60565b15611844576040517f08c379a000000000000000000000000000000000000000000000000000000000815260040161183b906130bc565b60405180910390fd5b611852600083836001611da1565b61185b81611d60565b1561189b576040517f08c379a0000000000000000000000000000000000000000000000000000000008152600401611892906130bc565b60405180910390fd5b6001600360008473ffffffffffffffffffffffffffffffffffffffff1673ffffffffffffffffffffffffffffffffffffffff16815260200190815260200160002060008282540192505081905550816002600083815260200190815260200160002060006101000a81548173ffffffffffffffffffffffffffffffffffffffff021916908373ffffffffffffffffffffffffffffffffffffffff160217905550808273ffffffffffffffffffffffffffffffffffffffff16600073ffffffffffffffffffffffffffffffffffffffff167fddf252ad1be2c89b69c2b068fc378daa952ba7f163c4a11628f55a4df523b3ef60405160405180910390a46119a5600083836001611ec7565b5050565b6119b282611d60565b6119f1576040517f08c379a00000000000000000000000000000000000000000000000000000000081526004016119e89061314e565b60405180910390fd5b80600660008481526020019081526020016000209081611a1191906132fb565b505050565b60006002600083815260200190815260200160002060009054906101000a900473ffffffffffffffffffffffffffffffffffffffff169050919050565b6000600760009054906101000a900473ffffffffffffffffffffffffffffffffffffffff16905081600760006101000a81548173ffffffffffffffffffffffffffffffffffffffff021916908373ffffffffffffffffffffffffffffffffffffffff1602179055508173ffffffffffffffffffffffffffffffffffffffff168173ffffffffffffffffffffffffffffffffffffffff167f8be0079c531659141344cd1fd0a4f28419497f9722a3daafe3b4186f6b6457e060405160405180910390a35050565b8173ffffffffffffffffffffffffffffffffffffffff168373ffffffffffffffffffffffffffffffffffffffff1603611b87576040517f08c379a0000000000000000000000000000000000000000000000000000000008152600401611b7e90613419565b60405180910390fd5b80600560008573ffffffffffffffffffffffffffffffffffffffff1673ffffffffffffffffffffffffffffffffffffffff16815260200190815260200160002060008473ffffffffffffffffffffffffffffffffffffffff1673ffffffffffffffffffffffffffffffffffffffff16815260200190815260200160002060006101000a81548160ff0219169083151502179055508173ffffffffffffffffffffffffffffffffffffffff168373ffffffffffffffffffffffffffffffffffffffff167f17307eab39ab6107e8899845ad3d59bd9653f200f220920489ca2b5937696c3183604051611c7891906122b2565b60405180910390a3505050565b611c908484846113af565b611c9c84848484612020565b611cdb576040517f08c379a0000000000000000000000000000000000000000000000000000000008152600401611cd2906134ab565b60405180910390fd5b50505050565b606060405180602001604052806000815250905090565b6060611d0382611190565b6000611d0d611ce1565b90506000815111611d2d5760405180602001604052806000815250611d58565b80611d37846116be565b604051602001611d48929190612d8f565b6040516020818303038152906040525b915050919050565b60008073ffffffffffffffffffffffffffffffffffffffff16611d8283611a16565b73ffffffffffffffffffffffffffffffffffffffff1614159050919050565b6001811115611ec157600073ffffffffffffffffffffffffffffffffffffffff168473ffffffffffffffffffffffffffffffffffffffff1614611e355780600360008673ffffffffffffffffffffffffffffffffffffffff1673ffffffffffffffffffffffffffffffffffffffff1681526020019081526020016000206000828254611e2d91906134fa565b925050819055505b600073ffffffffffffffffffffffffffffffffffffffff168373ffffffffffffffffffffffffffffffffffffffff1614611ec05780600360008573ffffffffffffffffffffffffffffffffffffffff1673ffffffffffffffffffffffffffffffffffffffff1681526020019081526020016000206000828254611eb8919061352e565b925050819055505b5b50505050565b50505050565b600080600090507a184f03e93ff9f4daa797ed6e38ed64bf6a1f0100000000000000008310611f2b577a184f03e93ff9f4daa797ed6e38ed64bf6a1f0100000000000000008381611f2157611f20612fd5565b5b0492506040810190505b6d04ee2d6d415b85acef81000000008310611f68576d04ee2d6d415b85acef81000000008381611f5e57611f5d612fd5565b5b0492506020810190505b662386f26fc100008310611f9757662386f26fc100008381611f8d57611f8c612fd5565b5b0492506010810190505b6305f5e1008310611fc0576305f5e1008381611fb657611fb5612fd5565b5b0492506008810190505b6127108310611fe5576127108381611fdb57611fda612fd5565b5b0492506004810190505b606483106120085760648381611ffe57611ffd612fd5565b5b0492506002810190505b600a8310612017576001810190505b80915050919050565b60006120418473ffffffffffffffffffffffffffffffffffffffff166121a7565b1561219a578373ffffffffffffffffffffffffffffffffffffffff1663150b7a0261206a6111db565b8786866040518563ffffffff1660e01b815260040161208c94939291906135b7565b6020604051808303816000875af19250505080156120c857506040513d601f19601f820116820180604052508101906120c59190613618565b60015b61214a573d80600081146120f8576040519150601f19603f3d011682016040523d82523d6000602084013e6120fd565b606091505b506000815103612142576040517f08c379a0000000000000000000000000000000000000000000000000000000008152600401612139906134ab565b60405180910390fd5b805181602001fd5b63150b7a0260e01b7bffffffffffffffffffffffffffffffffffffffffffffffffffffffff1916817bffffffffffffffffffffffffffffffffffffffffffffffffffffffff19161491505061219f565b600190505b949350505050565b6000808273ffffffffffffffffffffffffffffffffffffffff163b119050919050565b6000819050919050565b6121dd816121ca565b82525050565b60006020820190506121f860008301846121d4565b92915050565b6000604051905090565b600080fd5b600080fd5b60007fffffffff0000000000000000000000000000000000000000000000000000000082169050919050565b61224781612212565b811461225257600080fd5b50565b6000813590506122648161223e565b92915050565b6000602082840312156122805761227f612208565b5b600061228e84828501612255565b91505092915050565b60008115159050919050565b6122ac81612297565b82525050565b60006020820190506122c760008301846122a3565b92915050565b600081519050919050565b600082825260208201905092915050565b60005b838110156123075780820151818401526020810190506122ec565b60008484015250505050565b6000601f19601f8301169050919050565b600061232f826122cd565b61233981856122d8565b93506123498185602086016122e9565b61235281612313565b840191505092915050565b600060208201905081810360008301526123778184612324565b905092915050565b612388816121ca565b811461239357600080fd5b50565b6000813590506123a58161237f565b92915050565b6000602082840312156123c1576123c0612208565b5b60006123cf84828501612396565b91505092915050565b600073ffffffffffffffffffffffffffffffffffffffff82169050919050565b6000612403826123d8565b9050919050565b612413816123f8565b82525050565b600060208201905061242e600083018461240a565b92915050565b61243d816123f8565b811461244857600080fd5b50565b60008135905061245a81612434565b92915050565b6000806040838503121561247757612476612208565b5b60006124858582860161244b565b925050602061249685828601612396565b9150509250929050565b6000602082840312156124b6576124b5612208565b5b60006124c48482850161244b565b91505092915050565b6000819050919050565b60006124f26124ed6124e8846123d8565b6124cd565b6123d8565b9050919050565b6000612504826124d7565b9050919050565b6000612516826124f9565b9050919050565b6125268161250b565b82525050565b6000602082019050612541600083018461251d565b92915050565b6000806000606084860312156125605761255f612208565b5b600061256e8682870161244b565b935050602061257f8682870161244b565b925050604061259086828701612396565b9150509250925092565b6125a381612297565b81146125ae57600080fd5b50565b6000813590506125c08161259a565b92915050565b600080604083850312156125dd576125dc612208565b5b60006125eb8582860161244b565b92505060206125fc858286016125b1565b9150509250929050565b600080fd5b600080fd5b7f4e487b7100000000000000000000000000000000000000000000000000000000600052604160045260246000fd5b61264882612313565b810181811067ffffffffffffffff8211171561266757612666612610565b5b80604052505050565b600061267a6121fe565b9050612686828261263f565b919050565b600067ffffffffffffffff8211156126a6576126a5612610565b5b6126af82612313565b9050602081019050919050565b82818337600083830152505050565b60006126de6126d98461268b565b612670565b9050828152602081018484840111156126fa576126f961260b565b5b6127058482856126bc565b509392505050565b600082601f83011261272257612721612606565b5b81356127328482602086016126cb565b91505092915050565b6000806000806080858703121561275557612754612208565b5b60006127638782880161244b565b94505060206127748782880161244b565b935050604061278587828801612396565b925050606085013567ffffffffffffffff8111156127a6576127a561220d565b5b6127b28782880161270d565b91505092959194509250565b600080604083850312156127d5576127d4612208565b5b60006127e38582860161244b565b92505060206127f48582860161244b565b9150509250929050565b7f4e487b7100000000000000000000000000000000000000000000000000000000600052602260045260246000fd5b6000600282049050600182168061284557607f821691505b602082108103612858576128576127fe565b5b50919050565b7f4552433732313a20617070726f76616c20746f2063757272656e74206f776e6560008201527f7200000000000000000000000000000000000000000000000000000000000000602082015250565b60006128ba6021836122d8565b91506128c58261285e565b604082019050919050565b600060208201905081810360008301526128e9816128ad565b9050919050565b7f4552433732313a20617070726f76652063616c6c6572206973206e6f7420746f60008201527f6b656e206f776e6572206f7220617070726f76656420666f7220616c6c000000602082015250565b600061294c603d836122d8565b9150612957826128f0565b604082019050919050565b6000602082019050818103600083015261297b8161293f565b9050919050565b7f496e76616c696420746f6b656e41646472657373000000000000000000000000600082015250565b60006129b86014836122d8565b91506129c382612982565b602082019050919050565b600060208201905081810360008301526129e7816129ab565b9050919050565b7f4552433732313a2063616c6c6572206973206e6f7420746f6b656e206f776e6560008201527f72206f7220617070726f76656400000000000000000000000000000000000000602082015250565b6000612a4a602d836122d8565b9150612a55826129ee565b604082019050919050565b60006020820190508181036000830152612a7981612a3d565b9050919050565b600081519050612a8f8161237f565b92915050565b600060208284031215612aab57612aaa612208565b5b6000612ab984828501612a80565b91505092915050565b6000606082019050612ad7600083018661240a565b612ae4602083018561240a565b612af160408301846121d4565b949350505050565b600081519050612b088161259a565b92915050565b600060208284031215612b2457612b23612208565b5b6000612b3284828501612af9565b91505092915050565b600081905092915050565b60008190508160005260206000209050919050565b60008154612b688161282d565b612b728186612b3b565b94506001821660008114612b8d5760018114612ba257612bd5565b60ff1983168652811515820286019350612bd5565b612bab85612b46565b60005b83811015612bcd57815481890152600182019150602081019050612bae565b838801955050505b50505092915050565b6000612be9826122cd565b612bf38185612b3b565b9350612c038185602086016122e9565b80840191505092915050565b7f2e6a736f6e000000000000000000000000000000000000000000000000000000815250565b6000612c418285612b5b565b9150612c4d8284612bde565b9150612c5882612c0f565b6005820191508190509392505050565b7f4552433732313a20696e76616c696420746f6b656e2049440000000000000000600082015250565b6000612c9e6018836122d8565b9150612ca982612c68565b602082019050919050565b60006020820190508181036000830152612ccd81612c91565b9050919050565b7f4552433732313a2061646472657373207a65726f206973206e6f74206120766160008201527f6c6964206f776e65720000000000000000000000000000000000000000000000602082015250565b6000612d306029836122d8565b9150612d3b82612cd4565b604082019050919050565b60006020820190508181036000830152612d5f81612d23565b9050919050565b6000604082019050612d7b600083018561240a565b612d8860208301846121d4565b9392505050565b6000612d9b8285612bde565b9150612da78284612bde565b91508190509392505050565b7f4f776e61626c653a206e6577206f776e657220697320746865207a65726f206160008201527f6464726573730000000000000000000000000000000000000000000000000000602082015250565b6000612e0f6026836122d8565b9150612e1a82612db3565b604082019050919050565b60006020820190508181036000830152612e3e81612e02565b9050919050565b7f4f776e61626c653a2063616c6c6572206973206e6f7420746865206f776e6572600082015250565b6000612e7b6020836122d8565b9150612e8682612e45565b602082019050919050565b60006020820190508181036000830152612eaa81612e6e565b9050919050565b7f4552433732313a207472616e736665722066726f6d20696e636f72726563742060008201527f6f776e6572000000000000000000000000000000000000000000000000000000602082015250565b6000612f0d6025836122d8565b9150612f1882612eb1565b604082019050919050565b60006020820190508181036000830152612f3c81612f00565b9050919050565b7f4552433732313a207472616e7366657220746f20746865207a65726f2061646460008201527f7265737300000000000000000000000000000000000000000000000000000000602082015250565b6000612f9f6024836122d8565b9150612faa82612f43565b604082019050919050565b60006020820190508181036000830152612fce81612f92565b9050919050565b7f4e487b7100000000000000000000000000000000000000000000000000000000600052601260045260246000fd5b7f4552433732313a206d696e7420746f20746865207a65726f2061646472657373600082015250565b600061303a6020836122d8565b915061304582613004565b602082019050919050565b600060208201905081810360008301526130698161302d565b9050919050565b7f4552433732313a20746f6b656e20616c7265616479206d696e74656400000000600082015250565b60006130a6601c836122d8565b91506130b182613070565b602082019050919050565b600060208201905081810360008301526130d581613099565b9050919050565b7f45524337323155524953746f726167653a2055524920736574206f66206e6f6e60008201527f6578697374656e7420746f6b656e000000000000000000000000000000000000602082015250565b6000613138602e836122d8565b9150613143826130dc565b604082019050919050565b600060208201905081810360008301526131678161312b565b9050919050565b60006020601f8301049050919050565b600082821b905092915050565b6000600883026131bb7fffffffffffffffffffffffffffffffffffffffffffffffffffffffffffffffff8261317e565b6131c5868361317e565b95508019841693508086168417925050509392505050565b60006131f86131f36131ee846121ca565b6124cd565b6121ca565b9050919050565b6000819050919050565b613212836131dd565b61322661321e826131ff565b84845461318b565b825550505050565b600090565b61323b61322e565b613246818484613209565b505050565b5b8181101561326a5761325f600082613233565b60018101905061324c565b5050565b601f8211156132af5761328081612b46565b6132898461316e565b81016020851015613298578190505b6132ac6132a48561316e565b83018261324b565b50505b505050565b600082821c905092915050565b60006132d2600019846008026132b4565b1980831691505092915050565b60006132eb83836132c1565b9150826002028217905092915050565b613304826122cd565b67ffffffffffffffff81111561331d5761331c612610565b5b613327825461282d565b61333282828561326e565b600060209050601f8311600181146133655760008415613353578287015190505b61335d85826132df565b8655506133c5565b601f19841661337386612b46565b60005b8281101561339b57848901518255600182019150602085019450602081019050613376565b868310156133b857848901516133b4601f8916826132c1565b8355505b6001600288020188555050505b505050505050565b7f4552433732313a20617070726f766520746f2063616c6c657200000000000000600082015250565b60006134036019836122d8565b915061340e826133cd565b602082019050919050565b60006020820190508181036000830152613432816133f6565b9050919050565b7f4552433732313a207472616e7366657220746f206e6f6e20455243373231526560008201527f63656976657220696d706c656d656e7465720000000000000000000000000000602082015250565b60006134956032836122d8565b91506134a082613439565b604082019050919050565b600060208201905081810360008301526134c481613488565b9050919050565b7f4e487b7100000000000000000000000000000000000000000000000000000000600052601160045260246000fd5b6000613505826121ca565b9150613510836121ca565b9250828203905081811115613528576135276134cb565b5b92915050565b6000613539826121ca565b9150613544836121ca565b925082820190508082111561355c5761355b6134cb565b5b92915050565b600081519050919050565b600082825260208201905092915050565b600061358982613562565b613593818561356d565b93506135a38185602086016122e9565b6135ac81612313565b840191505092915050565b60006080820190506135cc600083018761240a565b6135d9602083018661240a565b6135e660408301856121d4565b81810360608301526135f8818461357e565b905095945050505050565b6000815190506136128161223e565b92915050565b60006020828403121561362e5761362d612208565b5b600061363c84828501613603565b9150509291505056fea2646970667358221220ada533128b8e98b9cf5dc20a169ca44c644a8b3b259670fe0b7000ded2f0290664736f6c6343000811003368747470733a2f2f6577652d6d657461646174612e73332e61702d6e6f727468656173742d322e616d617a6f6e6177732e636f6d2f",
  "immutableReferences": {},
  "source": "// SPDX-License-Identifier: MIT\npragma solidity ^0.8.17;\n\nimport '@openzeppelin/contracts/token/ERC721/ERC721.sol';\nimport '@openzeppelin/contracts/utils/Counters.sol';\nimport '@openzeppelin/contracts/access/Ownable.sol';\nimport '@openzeppelin/contracts/token/ERC721/extensions/ERC721URIStorage.sol';\nimport '@openzeppelin/contracts/token/ERC20/IERC20.sol';\nimport '@openzeppelin/contracts/utils/Strings.sol';\n\n// import './EWEToken.sol';\n\ninterface ERC20Interface {\n  function totalSupply() external view returns (uint256);\n\n  function balanceOf(address account) external view returns (uint256);\n\n  function transfer(address recipient, uint256 amount) external returns (bool);\n\n  function approve(address spender, uint256 amount) external returns (bool);\n\n  function allowance(address owner, address spender)\n    external\n    view\n    returns (uint256);\n\n  function transferFrom(\n    address spender,\n    address recipient,\n    uint256 amount\n  ) external returns (bool);\n\n  event Transfer(address indexed from, address indexed to, uint256 amount);\n  event Transfer(\n    address indexed spender,\n    address indexed from,\n    address indexed to,\n    uint256 amount\n  );\n  event Approval(\n    address indexed owner,\n    address indexed spender,\n    uint256 oldAmount,\n    uint256 amount\n  );\n}\n\ncontract EWEToken is ERC20Interface {\n  mapping(address => uint256) private _balances;\n  mapping(address => mapping(address => uint256)) public _allowances;\n\n  uint256 public _totalSupply;\n  string public _name;\n  string public _symbol;\n  uint8 public _decimals;\n  uint256 private E18 = 1000000000000000000;\n\n  constructor(string memory getName, string memory getSymbol) {\n    _name = getName;\n    _symbol = getSymbol;\n    _decimals = 18;\n    _totalSupply = 100000000 * E18;\n    _balances[msg.sender] = _totalSupply; // \n  }\n\n  function name() public view returns (string memory) {\n    return _name;\n  }\n\n  function symbol() public view returns (string memory) {\n    return _symbol;\n  }\n\n  function decimals() public view returns (uint8) {\n    return _decimals;\n  }\n\n  function totalSupply() external view virtual override returns (uint256) {\n    return _totalSupply;\n  }\n\n  function balanceOf(address account)\n    external\n    view\n    virtual\n    override\n    returns (uint256)\n  {\n    return _balances[account];\n  }\n\n  function transfer(address recipient, uint256 amount)\n    public\n    virtual\n    override\n    returns (bool)\n  {\n    _transfer(msg.sender, recipient, amount);\n    emit Transfer(msg.sender, recipient, amount);\n    return true;\n  }\n\n  function allowance(address owner, address spender)\n    external\n    view\n    override\n    returns (uint256)\n  {\n    return _allowances[owner][spender];\n  }\n\n  function approve(address spender, uint256 amount)\n    external\n    virtual\n    override\n    returns (bool)\n  {\n    uint256 currentAllowance = _allowances[msg.sender][spender];\n    require(\n      _balances[msg.sender] >= amount,\n      'ERC20: The amount to be transferred exceeds the amount of tokens held by the owner.'\n    );\n    _approve(msg.sender, spender, currentAllowance, amount);\n    return true;\n  }\n\n  function transferFrom(\n    address sender,\n    address recipient,\n    uint256 amount\n  ) external virtual override returns (bool) {\n    _transfer(sender, recipient, amount);\n    emit Transfer(msg.sender, sender, recipient, amount);\n    uint256 currentAllowance = _allowances[sender][msg.sender];\n    require(\n      currentAllowance >= amount,\n      'ERC20: transfer amount exceeds allowance'\n    );\n    _approve(sender, msg.sender, currentAllowance, currentAllowance - amount);\n    return true;\n  }\n\n  function transferFromForNft(\n    address sender,\n    address recipient,\n    uint256 amount\n  ) external virtual returns (bool) {\n    _transfer(sender, recipient, amount);\n    emit Transfer(msg.sender, sender, recipient, amount);\n    uint256 currentAllowance = _allowances[sender][recipient];\n    require(\n      currentAllowance >= amount,\n      'ERC20: transfer amount exceeds allowance'\n    );\n    _approve(sender, recipient, currentAllowance, currentAllowance - amount);\n    return true;\n  }\n\n  function _transfer(\n    address sender,\n    address recipient,\n    uint256 amount\n  ) internal virtual {\n    require(sender != address(0), 'ERC20: transfer from the zero address');\n    require(recipient != address(0), 'ERC20: transfer to the zero address');\n    uint256 senderBalance = _balances[sender];\n    require(senderBalance >= amount, 'ERC20: transfer amount exceeds balance');\n    _balances[sender] = senderBalance - amount;\n    _balances[recipient] += amount;\n  }\n\n  function _approve(\n    address owner,\n    address spender,\n    uint256 currentAmount,\n    uint256 amount\n  ) internal virtual {\n    require(owner != address(0), 'ERC20: approve from the zero address');\n    require(spender != address(0), 'ERC20: approve to the zero address');\n    _allowances[owner][spender] = amount;\n    emit Approval(owner, spender, currentAmount, amount);\n  }\n}\n\ncontract EWENFT is ERC721URIStorage, Ownable {\n  using Counters for Counters.Counter;\n  Counters.Counter private _tokenIds;\n  string public baseTokenURI;\n  EWEToken public token;\n  uint256 public nftPrice;\n\n  constructor() ERC721('EWENFT', 'EWENFT') {\n    nftPrice = 1;\n    baseTokenURI = 'https://ewe-metadata.s3.ap-northeast-2.amazonaws.com/';\n  }\n\n  function connectionTestWithTransfer(address recipient, uint256 amount)\n    public\n    returns (bool)\n  {\n    token.transfer(recipient, amount);\n    return true;\n  }\n\n  function mintNFT(address recipient) public onlyOwner returns (uint256) {\n    require(token.balanceOf(recipient) > nftPrice);\n    token.transferFromForNft(recipient, msg.sender, nftPrice);\n    // uint256 currentAllowance = _allowances[sender][msg.sender];\n    // token.transfer(recipient,  nftPrice);\n\n    _tokenIds.increment();\n    uint256 newItemId = _tokenIds.current();\n    string memory tokenURI = string.concat(\n      baseTokenURI,\n      Strings.toString(newItemId),\n      '.json'\n    );\n    _mint(recipient, newItemId);\n    _setTokenURI(newItemId, tokenURI);\n\n    return newItemId;\n  }\n\n  function getTokenId() public view returns (uint256) {\n    uint256 currentTokenId = _tokenIds.current();\n    return currentTokenId;\n  }\n\n  function getPrice() public view returns (uint256) {\n    return nftPrice;\n  }\n\n  function getToken() public view returns (EWEToken) {\n    return token;\n  }\n\n  function setToken(address tokenAddress) public onlyOwner returns (bool) {\n    require(tokenAddress != address(0x0), 'Invalid tokenAddress');\n    token = EWEToken(tokenAddress);\n    return true;\n  }\n}\n",
  "sourcePath": "/Users/sdh/Study/BEB_07/projects/beb-07-second-EWE/contracts/contracts/EWEContracts.sol",
  "compiler": {
    "name": "solc",
    "version": "0.8.17+commit.8df45f5f.Emscripten.clang"
  },
  "schemaVersion": "3.4.11",
  "updatedAt": "2023-01-06T04:46:20.680Z",
  "devdoc": {
    "kind": "dev",
    "methods": {
      "approve(address,uint256)": {
        "details": "See {IERC721-approve}."
      },
      "balanceOf(address)": {
        "details": "See {IERC721-balanceOf}."
      },
      "getApproved(uint256)": {
        "details": "See {IERC721-getApproved}."
      },
      "isApprovedForAll(address,address)": {
        "details": "See {IERC721-isApprovedForAll}."
      },
      "name()": {
        "details": "See {IERC721Metadata-name}."
      },
      "owner()": {
        "details": "Returns the address of the current owner."
      },
      "ownerOf(uint256)": {
        "details": "See {IERC721-ownerOf}."
      },
      "renounceOwnership()": {
        "details": "Leaves the contract without owner. It will not be possible to call `onlyOwner` functions anymore. Can only be called by the current owner. NOTE: Renouncing ownership will leave the contract without an owner, thereby removing any functionality that is only available to the owner."
      },
      "safeTransferFrom(address,address,uint256)": {
        "details": "See {IERC721-safeTransferFrom}."
      },
      "safeTransferFrom(address,address,uint256,bytes)": {
        "details": "See {IERC721-safeTransferFrom}."
      },
      "setApprovalForAll(address,bool)": {
        "details": "See {IERC721-setApprovalForAll}."
      },
      "supportsInterface(bytes4)": {
        "details": "See {IERC165-supportsInterface}."
      },
      "symbol()": {
        "details": "See {IERC721Metadata-symbol}."
      },
      "tokenURI(uint256)": {
        "details": "See {IERC721Metadata-tokenURI}."
      },
      "transferFrom(address,address,uint256)": {
        "details": "See {IERC721-transferFrom}."
      },
      "transferOwnership(address)": {
        "details": "Transfers ownership of the contract to a new account (`newOwner`). Can only be called by the current owner."
      }
    },
    "version": 1
  },
  "userdoc": {
    "kind": "user",
    "methods": {},
    "version": 1
  }
}