{
  "contractName": "EWEToken",
  "abi": [
    {
      "inputs": [
        {
          "internalType": "string",
          "name": "getName",
          "type": "string"
        },
        {
          "internalType": "string",
          "name": "getSymbol",
          "type": "string"
        }
      ],
      "stateMutability": "nonpayable",
      "type": "constructor"
    },
    {
      "anonymous": false,
      "inputs": [
        {
          "indexed": true,
          "internalType": "address",
          "name": "owner",
          "type": "address"
        },
        {
          "indexed": true,
          "internalType": "address",
          "name": "spender",
          "type": "address"
        },
        {
          "indexed": false,
          "internalType": "uint256",
          "name": "oldAmount",
          "type": "uint256"
        },
        {
          "indexed": false,
          "internalType": "uint256",
          "name": "amount",
          "type": "uint256"
        }
      ],
      "name": "Approval",
      "type": "event"
    },
    {
      "anonymous": false,
      "inputs": [
        {
          "indexed": true,
          "internalType": "address",
          "name": "from",
          "type": "address"
        },
        {
          "indexed": true,
          "internalType": "address",
          "name": "to",
          "type": "address"
        },
        {
          "indexed": false,
          "internalType": "uint256",
          "name": "amount",
          "type": "uint256"
        }
      ],
      "name": "Transfer",
      "type": "event"
    },
    {
      "anonymous": false,
      "inputs": [
        {
          "indexed": true,
          "internalType": "address",
          "name": "spender",
          "type": "address"
        },
        {
          "indexed": true,
          "internalType": "address",
          "name": "from",
          "type": "address"
        },
        {
          "indexed": true,
          "internalType": "address",
          "name": "to",
          "type": "address"
        },
        {
          "indexed": false,
          "internalType": "uint256",
          "name": "amount",
          "type": "uint256"
        }
      ],
      "name": "Transfer",
      "type": "event"
    },
    {
      "inputs": [
        {
          "internalType": "address",
          "name": "",
          "type": "address"
        },
        {
          "internalType": "address",
          "name": "",
          "type": "address"
        }
      ],
      "name": "_allowances",
      "outputs": [
        {
          "internalType": "uint256",
          "name": "",
          "type": "uint256"
        }
      ],
      "stateMutability": "view",
      "type": "function"
    },
    {
      "inputs": [],
      "name": "_decimals",
      "outputs": [
        {
          "internalType": "uint8",
          "name": "",
          "type": "uint8"
        }
      ],
      "stateMutability": "view",
      "type": "function"
    },
    {
      "inputs": [],
      "name": "_name",
      "outputs": [
        {
          "internalType": "string",
          "name": "",
          "type": "string"
        }
      ],
      "stateMutability": "view",
      "type": "function"
    },
    {
      "inputs": [],
      "name": "_symbol",
      "outputs": [
        {
          "internalType": "string",
          "name": "",
          "type": "string"
        }
      ],
      "stateMutability": "view",
      "type": "function"
    },
    {
      "inputs": [],
      "name": "_totalSupply",
      "outputs": [
        {
          "internalType": "uint256",
          "name": "",
          "type": "uint256"
        }
      ],
      "stateMutability": "view",
      "type": "function"
    },
    {
      "inputs": [],
      "name": "name",
      "outputs": [
        {
          "internalType": "string",
          "name": "",
          "type": "string"
        }
      ],
      "stateMutability": "view",
      "type": "function"
    },
    {
      "inputs": [],
      "name": "symbol",
      "outputs": [
        {
          "internalType": "string",
          "name": "",
          "type": "string"
        }
      ],
      "stateMutability": "view",
      "type": "function"
    },
    {
      "inputs": [],
      "name": "decimals",
      "outputs": [
        {
          "internalType": "uint8",
          "name": "",
          "type": "uint8"
        }
      ],
      "stateMutability": "view",
      "type": "function"
    },
    {
      "inputs": [],
      "name": "totalSupply",
      "outputs": [
        {
          "internalType": "uint256",
          "name": "",
          "type": "uint256"
        }
      ],
      "stateMutability": "view",
      "type": "function"
    },
    {
      "inputs": [
        {
          "internalType": "address",
          "name": "account",
          "type": "address"
        }
      ],
      "name": "balanceOf",
      "outputs": [
        {
          "internalType": "uint256",
          "name": "",
          "type": "uint256"
        }
      ],
      "stateMutability": "view",
      "type": "function"
    },
    {
      "inputs": [
        {
          "internalType": "address",
          "name": "recipient",
          "type": "address"
        },
        {
          "internalType": "uint256",
          "name": "amount",
          "type": "uint256"
        }
      ],
      "name": "transfer",
      "outputs": [
        {
          "internalType": "bool",
          "name": "",
          "type": "bool"
        }
      ],
      "stateMutability": "nonpayable",
      "type": "function"
    },
    {
      "inputs": [
        {
          "internalType": "address",
          "name": "owner",
          "type": "address"
        },
        {
          "internalType": "address",
          "name": "spender",
          "type": "address"
        }
      ],
      "name": "allowance",
      "outputs": [
        {
          "internalType": "uint256",
          "name": "",
          "type": "uint256"
        }
      ],
      "stateMutability": "view",
      "type": "function"
    },
    {
      "inputs": [
        {
          "internalType": "address",
          "name": "spender",
          "type": "address"
        },
        {
          "internalType": "uint256",
          "name": "amount",
          "type": "uint256"
        }
      ],
      "name": "approve",
      "outputs": [
        {
          "internalType": "bool",
          "name": "",
          "type": "bool"
        }
      ],
      "stateMutability": "nonpayable",
      "type": "function"
    },
    {
      "inputs": [
        {
          "internalType": "address",
          "name": "sender",
          "type": "address"
        },
        {
          "internalType": "address",
          "name": "recipient",
          "type": "address"
        },
        {
          "internalType": "uint256",
          "name": "amount",
          "type": "uint256"
        }
      ],
      "name": "transferFrom",
      "outputs": [
        {
          "internalType": "bool",
          "name": "",
          "type": "bool"
        }
      ],
      "stateMutability": "nonpayable",
      "type": "function"
    },
    {
      "inputs": [
        {
          "internalType": "address",
          "name": "sender",
          "type": "address"
        },
        {
          "internalType": "address",
          "name": "recipient",
          "type": "address"
        },
        {
          "internalType": "uint256",
          "name": "amount",
          "type": "uint256"
        }
      ],
      "name": "transferFromForNft",
      "outputs": [
        {
          "internalType": "bool",
          "name": "",
          "type": "bool"
        }
      ],
      "stateMutability": "nonpayable",
      "type": "function"
    }
  ],
  "bytecode": "0x6080604052670de0b6b3a76400006006553480156200001d57600080fd5b5060405162001e1138038062001e1183398181016040528101906200004391906200027d565b81600390816200005491906200054d565b5080600490816200006691906200054d565b506012600560006101000a81548160ff021916908360ff1602179055506006546305f5e10062000097919062000663565b6002819055506002546000803373ffffffffffffffffffffffffffffffffffffffff1673ffffffffffffffffffffffffffffffffffffffff168152602001908152602001600020819055505050620006ae565b6000604051905090565b600080fd5b600080fd5b600080fd5b600080fd5b6000601f19601f8301169050919050565b7f4e487b7100000000000000000000000000000000000000000000000000000000600052604160045260246000fd5b620001538262000108565b810181811067ffffffffffffffff8211171562000175576200017462000119565b5b80604052505050565b60006200018a620000ea565b905062000198828262000148565b919050565b600067ffffffffffffffff821115620001bb57620001ba62000119565b5b620001c68262000108565b9050602081019050919050565b60005b83811015620001f3578082015181840152602081019050620001d6565b60008484015250505050565b60006200021662000210846200019d565b6200017e565b90508281526020810184848401111562000235576200023462000103565b5b62000242848285620001d3565b509392505050565b600082601f830112620002625762000261620000fe565b5b815162000274848260208601620001ff565b91505092915050565b60008060408385031215620002975762000296620000f4565b5b600083015167ffffffffffffffff811115620002b857620002b7620000f9565b5b620002c6858286016200024a565b925050602083015167ffffffffffffffff811115620002ea57620002e9620000f9565b5b620002f8858286016200024a565b9150509250929050565b600081519050919050565b7f4e487b7100000000000000000000000000000000000000000000000000000000600052602260045260246000fd5b600060028204905060018216806200035557607f821691505b6020821081036200036b576200036a6200030d565b5b50919050565b60008190508160005260206000209050919050565b60006020601f8301049050919050565b600082821b905092915050565b600060088302620003d57fffffffffffffffffffffffffffffffffffffffffffffffffffffffffffffffff8262000396565b620003e1868362000396565b95508019841693508086168417925050509392505050565b6000819050919050565b6000819050919050565b60006200042e620004286200042284620003f9565b62000403565b620003f9565b9050919050565b6000819050919050565b6200044a836200040d565b62000462620004598262000435565b848454620003a3565b825550505050565b600090565b620004796200046a565b620004868184846200043f565b505050565b5b81811015620004ae57620004a26000826200046f565b6001810190506200048c565b5050565b601f821115620004fd57620004c78162000371565b620004d28462000386565b81016020851015620004e2578190505b620004fa620004f18562000386565b8301826200048b565b50505b505050565b600082821c905092915050565b6000620005226000198460080262000502565b1980831691505092915050565b60006200053d83836200050f565b9150826002028217905092915050565b620005588262000302565b67ffffffffffffffff81111562000574576200057362000119565b5b6200058082546200033c565b6200058d828285620004b2565b600060209050601f831160018114620005c55760008415620005b0578287015190505b620005bc85826200052f565b8655506200062c565b601f198416620005d58662000371565b60005b82811015620005ff57848901518255600182019150602085019450602081019050620005d8565b868310156200061f57848901516200061b601f8916826200050f565b8355505b6001600288020188555050505b505050505050565b7f4e487b7100000000000000000000000000000000000000000000000000000000600052601160045260246000fd5b60006200067082620003f9565b91506200067d83620003f9565b92508282026200068d81620003f9565b91508282048414831517620006a757620006a662000634565b5b5092915050565b61175380620006be6000396000f3fe608060405234801561001057600080fd5b50600436106100f55760003560e01c806332424aa311610097578063a9059cbb11610066578063a9059cbb1461029e578063b09f1266146102ce578063d28d8852146102ec578063dd62ed3e1461030a576100f5565b806332424aa3146102145780633eaaf86b1461023257806370a082311461025057806395d89b4114610280576100f5565b806318160ddd116100d357806318160ddd1461017857806323b872dd146101965780632ec6cff8146101c6578063313ce567146101f6576100f5565b8063024c2ddd146100fa57806306fdde031461012a578063095ea7b314610148575b600080fd5b610114600480360381019061010f9190610f5a565b61033a565b6040516101219190610fb3565b60405180910390f35b61013261035f565b60405161013f919061105e565b60405180910390f35b610162600480360381019061015d91906110ac565b6103f1565b60405161016f9190611107565b60405180910390f35b61018061050b565b60405161018d9190610fb3565b60405180910390f35b6101b060048036038101906101ab9190611122565b610515565b6040516101bd9190611107565b60405180910390f35b6101e060048036038101906101db9190611122565b610685565b6040516101ed9190611107565b60405180910390f35b6101fe6107f5565b60405161020b9190611191565b60405180910390f35b61021c61080c565b6040516102299190611191565b60405180910390f35b61023a61081f565b6040516102479190610fb3565b60405180910390f35b61026a600480360381019061026591906111ac565b610825565b6040516102779190610fb3565b60405180910390f35b61028861086d565b604051610295919061105e565b60405180910390f35b6102b860048036038101906102b391906110ac565b6108ff565b6040516102c59190611107565b60405180910390f35b6102d661097b565b6040516102e3919061105e565b60405180910390f35b6102f4610a09565b604051610301919061105e565b60405180910390f35b610324600480360381019061031f9190610f5a565b610a97565b6040516103319190610fb3565b60405180910390f35b6001602052816000526040600020602052806000526040600020600091509150505481565b60606003805461036e90611208565b80601f016020809104026020016040519081016040528092919081815260200182805461039a90611208565b80156103e75780601f106103bc576101008083540402835291602001916103e7565b820191906000526020600020905b8154815290600101906020018083116103ca57829003601f168201915b5050505050905090565b600080600160003373ffffffffffffffffffffffffffffffffffffffff1673ffffffffffffffffffffffffffffffffffffffff16815260200190815260200160002060008573ffffffffffffffffffffffffffffffffffffffff1673ffffffffffffffffffffffffffffffffffffffff168152602001908152602001600020549050826000803373ffffffffffffffffffffffffffffffffffffffff1673ffffffffffffffffffffffffffffffffffffffff1681526020019081526020016000205410156104f4576040517f08c379a00000000000000000000000000000000000000000000000000000000081526004016104eb906112d1565b60405180910390fd5b61050033858386610b1e565b600191505092915050565b6000600254905090565b6000610522848484610cea565b8273ffffffffffffffffffffffffffffffffffffffff168473ffffffffffffffffffffffffffffffffffffffff163373ffffffffffffffffffffffffffffffffffffffff167fd1398bee19313d6bf672ccb116e51f4a1a947e91c757907f51fbb5b5e56c698f856040516105969190610fb3565b60405180910390a46000600160008673ffffffffffffffffffffffffffffffffffffffff1673ffffffffffffffffffffffffffffffffffffffff16815260200190815260200160002060003373ffffffffffffffffffffffffffffffffffffffff1673ffffffffffffffffffffffffffffffffffffffff16815260200190815260200160002054905082811015610662576040517f08c379a000000000000000000000000000000000000000000000000000000000815260040161065990611363565b60405180910390fd5b610679853383868561067491906113b2565b610b1e565b60019150509392505050565b6000610692848484610cea565b8273ffffffffffffffffffffffffffffffffffffffff168473ffffffffffffffffffffffffffffffffffffffff163373ffffffffffffffffffffffffffffffffffffffff167fd1398bee19313d6bf672ccb116e51f4a1a947e91c757907f51fbb5b5e56c698f856040516107069190610fb3565b60405180910390a46000600160008673ffffffffffffffffffffffffffffffffffffffff1673ffffffffffffffffffffffffffffffffffffffff16815260200190815260200160002060008573ffffffffffffffffffffffffffffffffffffffff1673ffffffffffffffffffffffffffffffffffffffff168152602001908152602001600020549050828110156107d2576040517f08c379a00000000000000000000000000000000000000000000000000000000081526004016107c990611363565b60405180910390fd5b6107e985858386856107e491906113b2565b610b1e565b60019150509392505050565b6000600560009054906101000a900460ff16905090565b600560009054906101000a900460ff1681565b60025481565b60008060008373ffffffffffffffffffffffffffffffffffffffff1673ffffffffffffffffffffffffffffffffffffffff168152602001908152602001600020549050919050565b60606004805461087c90611208565b80601f01602080910402602001604051908101604052809291908181526020018280546108a890611208565b80156108f55780601f106108ca576101008083540402835291602001916108f5565b820191906000526020600020905b8154815290600101906020018083116108d857829003601f168201915b5050505050905090565b600061090c338484610cea565b8273ffffffffffffffffffffffffffffffffffffffff163373ffffffffffffffffffffffffffffffffffffffff167fddf252ad1be2c89b69c2b068fc378daa952ba7f163c4a11628f55a4df523b3ef846040516109699190610fb3565b60405180910390a36001905092915050565b6004805461098890611208565b80601f01602080910402602001604051908101604052809291908181526020018280546109b490611208565b8015610a015780601f106109d657610100808354040283529160200191610a01565b820191906000526020600020905b8154815290600101906020018083116109e457829003601f168201915b505050505081565b60038054610a1690611208565b80601f0160208091040260200160405190810160405280929190818152602001828054610a4290611208565b8015610a8f5780601f10610a6457610100808354040283529160200191610a8f565b820191906000526020600020905b815481529060010190602001808311610a7257829003601f168201915b505050505081565b6000600160008473ffffffffffffffffffffffffffffffffffffffff1673ffffffffffffffffffffffffffffffffffffffff16815260200190815260200160002060008373ffffffffffffffffffffffffffffffffffffffff1673ffffffffffffffffffffffffffffffffffffffff16815260200190815260200160002054905092915050565b600073ffffffffffffffffffffffffffffffffffffffff168473ffffffffffffffffffffffffffffffffffffffff1603610b8d576040517f08c379a0000000000000000000000000000000000000000000000000000000008152600401610b8490611458565b60405180910390fd5b600073ffffffffffffffffffffffffffffffffffffffff168373ffffffffffffffffffffffffffffffffffffffff1603610bfc576040517f08c379a0000000000000000000000000000000000000000000000000000000008152600401610bf3906114ea565b60405180910390fd5b80600160008673ffffffffffffffffffffffffffffffffffffffff1673ffffffffffffffffffffffffffffffffffffffff16815260200190815260200160002060008573ffffffffffffffffffffffffffffffffffffffff1673ffffffffffffffffffffffffffffffffffffffff168152602001908152602001600020819055508273ffffffffffffffffffffffffffffffffffffffff168473ffffffffffffffffffffffffffffffffffffffff167fb3fd5071835887567a0671151121894ddccc2842f1d10bedad13e0d17cace9a78484604051610cdc92919061150a565b60405180910390a350505050565b600073ffffffffffffffffffffffffffffffffffffffff168373ffffffffffffffffffffffffffffffffffffffff1603610d59576040517f08c379a0000000000000000000000000000000000000000000000000000000008152600401610d50906115a5565b60405180910390fd5b600073ffffffffffffffffffffffffffffffffffffffff168273ffffffffffffffffffffffffffffffffffffffff1603610dc8576040517f08c379a0000000000000000000000000000000000000000000000000000000008152600401610dbf90611637565b60405180910390fd5b60008060008573ffffffffffffffffffffffffffffffffffffffff1673ffffffffffffffffffffffffffffffffffffffff16815260200190815260200160002054905081811015610e4e576040517f08c379a0000000000000000000000000000000000000000000000000000000008152600401610e45906116c9565b60405180910390fd5b8181610e5a91906113b2565b6000808673ffffffffffffffffffffffffffffffffffffffff1673ffffffffffffffffffffffffffffffffffffffff16815260200190815260200160002081905550816000808573ffffffffffffffffffffffffffffffffffffffff1673ffffffffffffffffffffffffffffffffffffffff1681526020019081526020016000206000828254610eea91906116e9565b9250508190555050505050565b600080fd5b600073ffffffffffffffffffffffffffffffffffffffff82169050919050565b6000610f2782610efc565b9050919050565b610f3781610f1c565b8114610f4257600080fd5b50565b600081359050610f5481610f2e565b92915050565b60008060408385031215610f7157610f70610ef7565b5b6000610f7f85828601610f45565b9250506020610f9085828601610f45565b9150509250929050565b6000819050919050565b610fad81610f9a565b82525050565b6000602082019050610fc86000830184610fa4565b92915050565b600081519050919050565b600082825260208201905092915050565b60005b83811015611008578082015181840152602081019050610fed565b60008484015250505050565b6000601f19601f8301169050919050565b600061103082610fce565b61103a8185610fd9565b935061104a818560208601610fea565b61105381611014565b840191505092915050565b600060208201905081810360008301526110788184611025565b905092915050565b61108981610f9a565b811461109457600080fd5b50565b6000813590506110a681611080565b92915050565b600080604083850312156110c3576110c2610ef7565b5b60006110d185828601610f45565b92505060206110e285828601611097565b9150509250929050565b60008115159050919050565b611101816110ec565b82525050565b600060208201905061111c60008301846110f8565b92915050565b60008060006060848603121561113b5761113a610ef7565b5b600061114986828701610f45565b935050602061115a86828701610f45565b925050604061116b86828701611097565b9150509250925092565b600060ff82169050919050565b61118b81611175565b82525050565b60006020820190506111a66000830184611182565b92915050565b6000602082840312156111c2576111c1610ef7565b5b60006111d084828501610f45565b91505092915050565b7f4e487b7100000000000000000000000000000000000000000000000000000000600052602260045260246000fd5b6000600282049050600182168061122057607f821691505b602082108103611233576112326111d9565b5b50919050565b7f45524332303a2054686520616d6f756e7420746f206265207472616e7366657260008201527f72656420657863656564732074686520616d6f756e74206f6620746f6b656e7360208201527f2068656c6420627920746865206f776e65722e00000000000000000000000000604082015250565b60006112bb605383610fd9565b91506112c682611239565b606082019050919050565b600060208201905081810360008301526112ea816112ae565b9050919050565b7f45524332303a207472616e7366657220616d6f756e742065786365656473206160008201527f6c6c6f77616e6365000000000000000000000000000000000000000000000000602082015250565b600061134d602883610fd9565b9150611358826112f1565b604082019050919050565b6000602082019050818103600083015261137c81611340565b9050919050565b7f4e487b7100000000000000000000000000000000000000000000000000000000600052601160045260246000fd5b60006113bd82610f9a565b91506113c883610f9a565b92508282039050818111156113e0576113df611383565b5b92915050565b7f45524332303a20617070726f76652066726f6d20746865207a65726f2061646460008201527f7265737300000000000000000000000000000000000000000000000000000000602082015250565b6000611442602483610fd9565b915061144d826113e6565b604082019050919050565b6000602082019050818103600083015261147181611435565b9050919050565b7f45524332303a20617070726f766520746f20746865207a65726f20616464726560008201527f7373000000000000000000000000000000000000000000000000000000000000602082015250565b60006114d4602283610fd9565b91506114df82611478565b604082019050919050565b60006020820190508181036000830152611503816114c7565b9050919050565b600060408201905061151f6000830185610fa4565b61152c6020830184610fa4565b9392505050565b7f45524332303a207472616e736665722066726f6d20746865207a65726f20616460008201527f6472657373000000000000000000000000000000000000000000000000000000602082015250565b600061158f602583610fd9565b915061159a82611533565b604082019050919050565b600060208201905081810360008301526115be81611582565b9050919050565b7f45524332303a207472616e7366657220746f20746865207a65726f206164647260008201527f6573730000000000000000000000000000000000000000000000000000000000602082015250565b6000611621602383610fd9565b915061162c826115c5565b604082019050919050565b6000602082019050818103600083015261165081611614565b9050919050565b7f45524332303a207472616e7366657220616d6f756e742065786365656473206260008201527f616c616e63650000000000000000000000000000000000000000000000000000602082015250565b60006116b3602683610fd9565b91506116be82611657565b604082019050919050565b600060208201905081810360008301526116e2816116a6565b9050919050565b60006116f482610f9a565b91506116ff83610f9a565b925082820190508082111561171757611716611383565b5b9291505056fea2646970667358221220cd3c54ecc5332c8cf112bd66953e80f604011c26bd379ffa75ddeece8bda1b4564736f6c63430008110033",
  "immutableReferences": {},
  "source": "// SPDX-License-Identifier: MIT\npragma solidity ^0.8.17;\n\nimport '@openzeppelin/contracts/token/ERC721/ERC721.sol';\nimport '@openzeppelin/contracts/utils/Counters.sol';\nimport '@openzeppelin/contracts/access/Ownable.sol';\nimport '@openzeppelin/contracts/token/ERC721/extensions/ERC721URIStorage.sol';\nimport '@openzeppelin/contracts/token/ERC20/IERC20.sol';\nimport '@openzeppelin/contracts/utils/Strings.sol';\n\n// import './EWEToken.sol';\n\ninterface ERC20Interface {\n  function totalSupply() external view returns (uint256);\n\n  function balanceOf(address account) external view returns (uint256);\n\n  function transfer(address recipient, uint256 amount) external returns (bool);\n\n  function approve(address spender, uint256 amount) external returns (bool);\n\n  function allowance(address owner, address spender)\n    external\n    view\n    returns (uint256);\n\n  function transferFrom(\n    address spender,\n    address recipient,\n    uint256 amount\n  ) external returns (bool);\n\n  event Transfer(address indexed from, address indexed to, uint256 amount);\n  event Transfer(\n    address indexed spender,\n    address indexed from,\n    address indexed to,\n    uint256 amount\n  );\n  event Approval(\n    address indexed owner,\n    address indexed spender,\n    uint256 oldAmount,\n    uint256 amount\n  );\n}\n\ncontract EWEToken is ERC20Interface {\n  mapping(address => uint256) private _balances;\n  mapping(address => mapping(address => uint256)) public _allowances;\n\n  uint256 public _totalSupply;\n  string public _name;\n  string public _symbol;\n  uint8 public _decimals;\n  uint256 private E18 = 1000000000000000000;\n\n  constructor(string memory getName, string memory getSymbol) {\n    _name = getName;\n    _symbol = getSymbol;\n    _decimals = 18;\n    _totalSupply = 100000000 * E18;\n    _balances[msg.sender] = _totalSupply; // \n  }\n\n  function name() public view returns (string memory) {\n    return _name;\n  }\n\n  function symbol() public view returns (string memory) {\n    return _symbol;\n  }\n\n  function decimals() public view returns (uint8) {\n    return _decimals;\n  }\n\n  function totalSupply() external view virtual override returns (uint256) {\n    return _totalSupply;\n  }\n\n  function balanceOf(address account)\n    external\n    view\n    virtual\n    override\n    returns (uint256)\n  {\n    return _balances[account];\n  }\n\n  function transfer(address recipient, uint256 amount)\n    public\n    virtual\n    override\n    returns (bool)\n  {\n    _transfer(msg.sender, recipient, amount);\n    emit Transfer(msg.sender, recipient, amount);\n    return true;\n  }\n\n  function allowance(address owner, address spender)\n    external\n    view\n    override\n    returns (uint256)\n  {\n    return _allowances[owner][spender];\n  }\n\n  function approve(address spender, uint256 amount)\n    external\n    virtual\n    override\n    returns (bool)\n  {\n    uint256 currentAllowance = _allowances[msg.sender][spender];\n    require(\n      _balances[msg.sender] >= amount,\n      'ERC20: The amount to be transferred exceeds the amount of tokens held by the owner.'\n    );\n    _approve(msg.sender, spender, currentAllowance, amount);\n    return true;\n  }\n\n  function transferFrom(\n    address sender,\n    address recipient,\n    uint256 amount\n  ) external virtual override returns (bool) {\n    _transfer(sender, recipient, amount);\n    emit Transfer(msg.sender, sender, recipient, amount);\n    uint256 currentAllowance = _allowances[sender][msg.sender];\n    require(\n      currentAllowance >= amount,\n      'ERC20: transfer amount exceeds allowance'\n    );\n    _approve(sender, msg.sender, currentAllowance, currentAllowance - amount);\n    return true;\n  }\n\n  function transferFromForNft(\n    address sender,\n    address recipient,\n    uint256 amount\n  ) external virtual returns (bool) {\n    _transfer(sender, recipient, amount);\n    emit Transfer(msg.sender, sender, recipient, amount);\n    uint256 currentAllowance = _allowances[sender][recipient];\n    require(\n      currentAllowance >= amount,\n      'ERC20: transfer amount exceeds allowance'\n    );\n    _approve(sender, recipient, currentAllowance, currentAllowance - amount);\n    return true;\n  }\n\n  function _transfer(\n    address sender,\n    address recipient,\n    uint256 amount\n  ) internal virtual {\n    require(sender != address(0), 'ERC20: transfer from the zero address');\n    require(recipient != address(0), 'ERC20: transfer to the zero address');\n    uint256 senderBalance = _balances[sender];\n    require(senderBalance >= amount, 'ERC20: transfer amount exceeds balance');\n    _balances[sender] = senderBalance - amount;\n    _balances[recipient] += amount;\n  }\n\n  function _approve(\n    address owner,\n    address spender,\n    uint256 currentAmount,\n    uint256 amount\n  ) internal virtual {\n    require(owner != address(0), 'ERC20: approve from the zero address');\n    require(spender != address(0), 'ERC20: approve to the zero address');\n    _allowances[owner][spender] = amount;\n    emit Approval(owner, spender, currentAmount, amount);\n  }\n}\n\ncontract EWENFT is ERC721URIStorage, Ownable {\n  using Counters for Counters.Counter;\n  Counters.Counter private _tokenIds;\n  string public baseTokenURI;\n  EWEToken public token;\n  uint256 public nftPrice;\n\n  constructor() ERC721('EWENFT', 'EWENFT') {\n    nftPrice = 1;\n    baseTokenURI = 'https://ewe-metadata.s3.ap-northeast-2.amazonaws.com/';\n  }\n\n  function connectionTestWithTransfer(address recipient, uint256 amount)\n    public\n    returns (bool)\n  {\n    token.transfer(recipient, amount);\n    return true;\n  }\n\n  function mintNFT(address recipient) public onlyOwner returns (uint256) {\n    require(token.balanceOf(recipient) > nftPrice);\n    token.transferFromForNft(recipient, msg.sender, nftPrice);\n    // uint256 currentAllowance = _allowances[sender][msg.sender];\n    // token.transfer(recipient,  nftPrice);\n\n    _tokenIds.increment();\n    uint256 newItemId = _tokenIds.current();\n    string memory tokenURI = string.concat(\n      baseTokenURI,\n      Strings.toString(newItemId),\n      '.json'\n    );\n    _mint(recipient, newItemId);\n    _setTokenURI(newItemId, tokenURI);\n\n    return newItemId;\n  }\n\n  function getTokenId() public view returns (uint256) {\n    uint256 currentTokenId = _tokenIds.current();\n    return currentTokenId;\n  }\n\n  function getPrice() public view returns (uint256) {\n    return nftPrice;\n  }\n\n  function getToken() public view returns (EWEToken) {\n    return token;\n  }\n\n  function setToken(address tokenAddress) public onlyOwner returns (bool) {\n    require(tokenAddress != address(0x0), 'Invalid tokenAddress');\n    token = EWEToken(tokenAddress);\n    return true;\n  }\n}\n",
  "sourcePath": "/Users/sdh/Study/BEB_07/projects/beb-07-second-EWE/contracts/contracts/EWEContracts.sol",
  "compiler": {
    "name": "solc",
    "version": "0.8.17+commit.8df45f5f.Emscripten.clang"
  },
  "schemaVersion": "3.4.11",
  "updatedAt": "2023-01-06T04:46:20.714Z",
  "devdoc": {
    "kind": "dev",
    "methods": {},
    "version": 1
  },
  "userdoc": {
    "kind": "user",
    "methods": {},
    "version": 1
  }
}